{
	"shop.sol": {
		"Shop": {
			"abi": [
				{
					"inputs": [],
					"stateMutability": "nonpayable",
					"type": "constructor"
				},
				{
					"inputs": [],
					"name": "addAdmin",
					"outputs": [],
					"stateMutability": "nonpayable",
					"type": "function"
				},
				{
					"inputs": [
						{
							"internalType": "address",
							"name": "newShop",
							"type": "address"
						},
						{
							"internalType": "string",
							"name": "city",
							"type": "string"
						}
					],
					"name": "addShop",
					"outputs": [],
					"stateMutability": "nonpayable",
					"type": "function"
				},
				{
					"inputs": [
						{
							"internalType": "address",
							"name": "newUser",
							"type": "address"
						},
						{
							"internalType": "uint256",
							"name": "role",
							"type": "uint256"
						}
					],
					"name": "regUser",
					"outputs": [],
					"stateMutability": "nonpayable",
					"type": "function"
				},
				{
					"inputs": [
						{
							"internalType": "uint256",
							"name": "role",
							"type": "uint256"
						}
					],
					"name": "regUser",
					"outputs": [],
					"stateMutability": "nonpayable",
					"type": "function"
				},
				{
					"inputs": [],
					"name": "view_Requests",
					"outputs": [
						{
							"components": [
								{
									"internalType": "address",
									"name": "requester",
									"type": "address"
								},
								{
									"internalType": "bool",
									"name": "status",
									"type": "bool"
								}
							],
							"internalType": "struct Shop.request[]",
							"name": "",
							"type": "tuple[]"
						}
					],
					"stateMutability": "view",
					"type": "function"
				},
				{
					"inputs": [],
					"name": "view_Shops",
					"outputs": [
						{
							"components": [
								{
									"internalType": "address",
									"name": "shop",
									"type": "address"
								},
								{
									"internalType": "string",
									"name": "city",
									"type": "string"
								},
								{
									"components": [
										{
											"internalType": "address",
											"name": "appraiser",
											"type": "address"
										},
										{
											"internalType": "uint256",
											"name": "rating",
											"type": "uint256"
										},
										{
											"components": [
												{
													"internalType": "address",
													"name": "appraiser",
													"type": "address"
												},
												{
													"internalType": "bool",
													"name": "isLiked",
													"type": "bool"
												}
											],
											"internalType": "struct Shop.like[]",
											"name": "likes",
											"type": "tuple[]"
										},
										{
											"internalType": "string",
											"name": "description",
											"type": "string"
										}
									],
									"internalType": "struct Shop.mark[]",
									"name": "bookOfMarks",
									"type": "tuple[]"
								},
								{
									"internalType": "uint256[]",
									"name": "sellers",
									"type": "uint256[]"
								}
							],
							"internalType": "struct Shop.shop[]",
							"name": "",
							"type": "tuple[]"
						}
					],
					"stateMutability": "view",
					"type": "function"
				},
				{
					"inputs": [],
					"name": "view_Users",
					"outputs": [
						{
							"components": [
								{
									"internalType": "address",
									"name": "user",
									"type": "address"
								},
								{
									"internalType": "uint256",
									"name": "role",
									"type": "uint256"
								}
							],
							"internalType": "struct Shop.user[]",
							"name": "",
							"type": "tuple[]"
						}
					],
					"stateMutability": "view",
					"type": "function"
				}
			],
			"devdoc": {
				"kind": "dev",
				"methods": {},
				"version": 1
			},
			"evm": {
				"assembly": "    /* \"shop.sol\":76:2114  contract Shop {\r... */\n  mstore(0x40, 0x80)\n    /* \"shop.sol\":768:784  constructor() {} */\n  callvalue\n  dup1\n  iszero\n  tag_1\n  jumpi\n  0x00\n  dup1\n  revert\ntag_1:\n  pop\n    /* \"shop.sol\":76:2114  contract Shop {\r... */\n  dataSize(sub_0)\n  dup1\n  dataOffset(sub_0)\n  0x00\n  codecopy\n  0x00\n  return\nstop\n\nsub_0: assembly {\n        /* \"shop.sol\":76:2114  contract Shop {\r... */\n      mstore(0x40, 0x80)\n      callvalue\n      dup1\n      iszero\n      tag_1\n      jumpi\n      0x00\n      dup1\n      revert\n    tag_1:\n      pop\n      jumpi(tag_2, lt(calldatasize, 0x04))\n      shr(0xe0, calldataload(0x00))\n      dup1\n      0x53c9e62e\n      gt\n      tag_10\n      jumpi\n      dup1\n      0x53c9e62e\n      eq\n      tag_6\n      jumpi\n      dup1\n      0x6d5aaf80\n      eq\n      tag_7\n      jumpi\n      dup1\n      0x8853b53e\n      eq\n      tag_8\n      jumpi\n      dup1\n      0xad81f803\n      eq\n      tag_9\n      jumpi\n      jump(tag_2)\n    tag_10:\n      dup1\n      0x1c618eb3\n      eq\n      tag_3\n      jumpi\n      dup1\n      0x240185b6\n      eq\n      tag_4\n      jumpi\n      dup1\n      0x2bd2cd50\n      eq\n      tag_5\n      jumpi\n    tag_2:\n      0x00\n      dup1\n      revert\n        /* \"shop.sol\":1540:1768  function addShop(address newShop, string memory city)\r... */\n    tag_3:\n      tag_11\n      0x04\n      dup1\n      calldatasize\n      sub\n      dup2\n      add\n      swap1\n      tag_12\n      swap2\n      swap1\n      tag_13\n      jump\t// in\n    tag_12:\n      tag_14\n      jump\t// in\n    tag_11:\n      stop\n        /* \"shop.sol\":1813:1904  function view_Shops() public view returns (shop[] memory) {\r... */\n    tag_4:\n      tag_15\n      tag_16\n      jump\t// in\n    tag_15:\n      mload(0x40)\n      tag_17\n      swap2\n      swap1\n      tag_18\n      jump\t// in\n    tag_17:\n      mload(0x40)\n      dup1\n      swap2\n      sub\n      swap1\n      return\n        /* \"shop.sol\":2011:2111  function view_Requests() public view returns (request[] memory) {\r... */\n    tag_5:\n      tag_19\n      tag_20\n      jump\t// in\n    tag_19:\n      mload(0x40)\n      tag_21\n      swap2\n      swap1\n      tag_22\n      jump\t// in\n    tag_21:\n      mload(0x40)\n      dup1\n      swap2\n      sub\n      swap1\n      return\n        /* \"shop.sol\":1184:1361  function regUser(address newUser, uint256 role) public isReg(newUser) {\r... */\n    tag_6:\n      tag_23\n      0x04\n      dup1\n      calldatasize\n      sub\n      dup2\n      add\n      swap1\n      tag_24\n      swap2\n      swap1\n      tag_25\n      jump\t// in\n    tag_24:\n      tag_26\n      jump\t// in\n    tag_23:\n      stop\n        /* \"shop.sol\":1776:1805  function addAdmin() public {} */\n    tag_7:\n      tag_27\n      tag_28\n      jump\t// in\n    tag_27:\n      stop\n        /* \"shop.sol\":1369:1532  function regUser(uint256 role) public isReg(msg.sender) {\r... */\n    tag_8:\n      tag_29\n      0x04\n      dup1\n      calldatasize\n      sub\n      dup2\n      add\n      swap1\n      tag_30\n      swap2\n      swap1\n      tag_31\n      jump\t// in\n    tag_30:\n      tag_32\n      jump\t// in\n    tag_29:\n      stop\n        /* \"shop.sol\":1912:2003  function view_Users() public view returns (user[] memory) {\r... */\n    tag_9:\n      tag_33\n      tag_34\n      jump\t// in\n    tag_33:\n      mload(0x40)\n      tag_35\n      swap2\n      swap1\n      tag_36\n      jump\t// in\n    tag_35:\n      mload(0x40)\n      dup1\n      swap2\n      sub\n      swap1\n      return\n        /* \"shop.sol\":1540:1768  function addShop(address newShop, string memory city)\r... */\n    tag_14:\n        /* \"shop.sol\":1632:1639  newShop */\n      dup2\n        /* \"shop.sol\":1043:1052  uint256 i */\n      0x00\n        /* \"shop.sol\":1038:1157  for (uint256 i = 0; i < Users.length; i++) {\r... */\n    tag_38:\n        /* \"shop.sol\":1062:1067  Users */\n      0x01\n        /* \"shop.sol\":1062:1074  Users.length */\n      dup1\n      sload\n      swap1\n      pop\n        /* \"shop.sol\":1058:1059  i */\n      dup2\n        /* \"shop.sol\":1058:1074  i < Users.length */\n      lt\n        /* \"shop.sol\":1038:1157  for (uint256 i = 0; i < Users.length; i++) {\r... */\n      iszero\n      tag_39\n      jumpi\n        /* \"shop.sol\":1121:1128  newShop */\n      dup2\n        /* \"shop.sol\":1104:1128  Users[i].user != newShop */\n      0xffffffffffffffffffffffffffffffffffffffff\n      and\n        /* \"shop.sol\":1104:1109  Users */\n      0x01\n        /* \"shop.sol\":1110:1111  i */\n      dup3\n        /* \"shop.sol\":1104:1112  Users[i] */\n      dup2\n      sload\n      dup2\n      lt\n      tag_41\n      jumpi\n      tag_42\n      tag_43\n      jump\t// in\n    tag_42:\n    tag_41:\n      swap1\n      0x00\n      mstore\n      keccak256(0x00, 0x20)\n      swap1\n      0x02\n      mul\n      add\n        /* \"shop.sol\":1104:1117  Users[i].user */\n      0x00\n      add\n      0x00\n      swap1\n      sload\n      swap1\n      0x0100\n      exp\n      swap1\n      div\n      0xffffffffffffffffffffffffffffffffffffffff\n      and\n        /* \"shop.sol\":1104:1128  Users[i].user != newShop */\n      0xffffffffffffffffffffffffffffffffffffffff\n      and\n      eq\n      iszero\n        /* \"shop.sol\":1096:1145  require(Users[i].user != newShop, \"Shop exists!\") */\n      tag_45\n      jumpi\n      mload(0x40)\n      0x08c379a000000000000000000000000000000000000000000000000000000000\n      dup2\n      mstore\n      0x04\n      add\n      tag_46\n      swap1\n      tag_47\n      jump\t// in\n    tag_46:\n      mload(0x40)\n      dup1\n      swap2\n      sub\n      swap1\n      revert\n    tag_45:\n        /* \"shop.sol\":1076:1079  i++ */\n      dup1\n      dup1\n      tag_48\n      swap1\n      tag_49\n      jump\t// in\n    tag_48:\n      swap2\n      pop\n      pop\n        /* \"shop.sol\":1038:1157  for (uint256 i = 0; i < Users.length; i++) {\r... */\n      jump(tag_38)\n    tag_39:\n      pop\n        /* \"shop.sol\":1657:1678  shop memory localShop */\n      0x00\n        /* \"shop.sol\":1681:1686  Shops */\n      dup1\n        /* \"shop.sol\":1681:1693  Shops.push() */\n      0x01\n      dup2\n      0x01\n      dup2\n      sload\n      add\n      dup1\n      dup3\n      sstore\n      dup1\n      swap2\n      pop\n      pop\n      sub\n      swap1\n      0x00\n      mstore\n      keccak256(0x00, 0x20)\n      swap1\n      0x04\n      mul\n      add\n        /* \"shop.sol\":1657:1693  shop memory localShop = Shops.push() */\n      mload(0x40)\n      dup1\n      0x80\n      add\n      0x40\n      mstore\n      swap1\n      dup2\n      0x00\n      dup3\n      add\n      0x00\n      swap1\n      sload\n      swap1\n      0x0100\n      exp\n      swap1\n      div\n      0xffffffffffffffffffffffffffffffffffffffff\n      and\n      0xffffffffffffffffffffffffffffffffffffffff\n      and\n      0xffffffffffffffffffffffffffffffffffffffff\n      and\n      dup2\n      mstore\n      0x20\n      add\n      0x01\n      dup3\n      add\n      dup1\n      sload\n      tag_52\n      swap1\n      tag_53\n      jump\t// in\n    tag_52:\n      dup1\n      0x1f\n      add\n      0x20\n      dup1\n      swap2\n      div\n      mul\n      0x20\n      add\n      mload(0x40)\n      swap1\n      dup2\n      add\n      0x40\n      mstore\n      dup1\n      swap3\n      swap2\n      swap1\n      dup2\n      dup2\n      mstore\n      0x20\n      add\n      dup3\n      dup1\n      sload\n      tag_54\n      swap1\n      tag_53\n      jump\t// in\n    tag_54:\n      dup1\n      iszero\n      tag_55\n      jumpi\n      dup1\n      0x1f\n      lt\n      tag_56\n      jumpi\n      0x0100\n      dup1\n      dup4\n      sload\n      div\n      mul\n      dup4\n      mstore\n      swap2\n      0x20\n      add\n      swap2\n      jump(tag_55)\n    tag_56:\n      dup3\n      add\n      swap2\n      swap1\n      0x00\n      mstore\n      keccak256(0x00, 0x20)\n      swap1\n    tag_57:\n      dup2\n      sload\n      dup2\n      mstore\n      swap1\n      0x01\n      add\n      swap1\n      0x20\n      add\n      dup1\n      dup4\n      gt\n      tag_57\n      jumpi\n      dup3\n      swap1\n      sub\n      0x1f\n      and\n      dup3\n      add\n      swap2\n    tag_55:\n      pop\n      pop\n      pop\n      pop\n      pop\n      dup2\n      mstore\n      0x20\n      add\n      0x02\n      dup3\n      add\n      dup1\n      sload\n      dup1\n      0x20\n      mul\n      0x20\n      add\n      mload(0x40)\n      swap1\n      dup2\n      add\n      0x40\n      mstore\n      dup1\n      swap3\n      swap2\n      swap1\n      dup2\n      dup2\n      mstore\n      0x20\n      add\n      0x00\n      swap1\n    tag_58:\n      dup3\n      dup3\n      lt\n      iszero\n      tag_59\n      jumpi\n      dup4\n      dup3\n      swap1\n      0x00\n      mstore\n      keccak256(0x00, 0x20)\n      swap1\n      0x04\n      mul\n      add\n      mload(0x40)\n      dup1\n      0x80\n      add\n      0x40\n      mstore\n      swap1\n      dup2\n      0x00\n      dup3\n      add\n      0x00\n      swap1\n      sload\n      swap1\n      0x0100\n      exp\n      swap1\n      div\n      0xffffffffffffffffffffffffffffffffffffffff\n      and\n      0xffffffffffffffffffffffffffffffffffffffff\n      and\n      0xffffffffffffffffffffffffffffffffffffffff\n      and\n      dup2\n      mstore\n      0x20\n      add\n      0x01\n      dup3\n      add\n      sload\n      dup2\n      mstore\n      0x20\n      add\n      0x02\n      dup3\n      add\n      dup1\n      sload\n      dup1\n      0x20\n      mul\n      0x20\n      add\n      mload(0x40)\n      swap1\n      dup2\n      add\n      0x40\n      mstore\n      dup1\n      swap3\n      swap2\n      swap1\n      dup2\n      dup2\n      mstore\n      0x20\n      add\n      0x00\n      swap1\n    tag_61:\n      dup3\n      dup3\n      lt\n      iszero\n      tag_62\n      jumpi\n      dup4\n      dup3\n      swap1\n      0x00\n      mstore\n      keccak256(0x00, 0x20)\n      add\n      mload(0x40)\n      dup1\n      0x40\n      add\n      0x40\n      mstore\n      swap1\n      dup2\n      0x00\n      dup3\n      add\n      0x00\n      swap1\n      sload\n      swap1\n      0x0100\n      exp\n      swap1\n      div\n      0xffffffffffffffffffffffffffffffffffffffff\n      and\n      0xffffffffffffffffffffffffffffffffffffffff\n      and\n      0xffffffffffffffffffffffffffffffffffffffff\n      and\n      dup2\n      mstore\n      0x20\n      add\n      0x00\n      dup3\n      add\n      0x14\n      swap1\n      sload\n      swap1\n      0x0100\n      exp\n      swap1\n      div\n      0xff\n      and\n      iszero\n      iszero\n      iszero\n      iszero\n      dup2\n      mstore\n      pop\n      pop\n      dup2\n      mstore\n      0x20\n      add\n      swap1\n      0x01\n      add\n      swap1\n      jump(tag_61)\n    tag_62:\n      pop\n      pop\n      pop\n      pop\n      dup2\n      mstore\n      0x20\n      add\n      0x03\n      dup3\n      add\n      dup1\n      sload\n      tag_64\n      swap1\n      tag_53\n      jump\t// in\n    tag_64:\n      dup1\n      0x1f\n      add\n      0x20\n      dup1\n      swap2\n      div\n      mul\n      0x20\n      add\n      mload(0x40)\n      swap1\n      dup2\n      add\n      0x40\n      mstore\n      dup1\n      swap3\n      swap2\n      swap1\n      dup2\n      dup2\n      mstore\n      0x20\n      add\n      dup3\n      dup1\n      sload\n      tag_65\n      swap1\n      tag_53\n      jump\t// in\n    tag_65:\n      dup1\n      iszero\n      tag_66\n      jumpi\n      dup1\n      0x1f\n      lt\n      tag_67\n      jumpi\n      0x0100\n      dup1\n      dup4\n      sload\n      div\n      mul\n      dup4\n      mstore\n      swap2\n      0x20\n      add\n      swap2\n      jump(tag_66)\n    tag_67:\n      dup3\n      add\n      swap2\n      swap1\n      0x00\n      mstore\n      keccak256(0x00, 0x20)\n      swap1\n    tag_68:\n      dup2\n      sload\n      dup2\n      mstore\n      swap1\n      0x01\n      add\n      swap1\n      0x20\n      add\n      dup1\n      dup4\n      gt\n      tag_68\n      jumpi\n      dup3\n      swap1\n      sub\n      0x1f\n      and\n      dup3\n      add\n      swap2\n    tag_66:\n      pop\n      pop\n      pop\n      pop\n      pop\n      dup2\n      mstore\n      pop\n      pop\n      dup2\n      mstore\n      0x20\n      add\n      swap1\n      0x01\n      add\n      swap1\n      jump(tag_58)\n    tag_59:\n      pop\n      pop\n      pop\n      pop\n      dup2\n      mstore\n      0x20\n      add\n      0x03\n      dup3\n      add\n      dup1\n      sload\n      dup1\n      0x20\n      mul\n      0x20\n      add\n      mload(0x40)\n      swap1\n      dup2\n      add\n      0x40\n      mstore\n      dup1\n      swap3\n      swap2\n      swap1\n      dup2\n      dup2\n      mstore\n      0x20\n      add\n      dup3\n      dup1\n      sload\n      dup1\n      iszero\n      tag_69\n      jumpi\n      0x20\n      mul\n      dup3\n      add\n      swap2\n      swap1\n      0x00\n      mstore\n      keccak256(0x00, 0x20)\n      swap1\n    tag_70:\n      dup2\n      sload\n      dup2\n      mstore\n      0x20\n      add\n      swap1\n      0x01\n      add\n      swap1\n      dup1\n      dup4\n      gt\n      tag_70\n      jumpi\n    tag_69:\n      pop\n      pop\n      pop\n      pop\n      pop\n      dup2\n      mstore\n      pop\n      pop\n      swap1\n      pop\n        /* \"shop.sol\":1721:1728  newShop */\n      dup4\n        /* \"shop.sol\":1704:1713  localShop */\n      dup2\n        /* \"shop.sol\":1704:1718  localShop.shop */\n      0x00\n      add\n        /* \"shop.sol\":1704:1728  localShop.shop = newShop */\n      swap1\n      0xffffffffffffffffffffffffffffffffffffffff\n      and\n      swap1\n      dup2\n      0xffffffffffffffffffffffffffffffffffffffff\n      and\n      dup2\n      mstore\n      pop\n      pop\n        /* \"shop.sol\":1756:1760  city */\n      dup3\n        /* \"shop.sol\":1739:1748  localShop */\n      dup2\n        /* \"shop.sol\":1739:1753  localShop.city */\n      0x20\n      add\n        /* \"shop.sol\":1739:1760  localShop.city = city */\n      dup2\n      swap1\n      mstore\n      pop\n        /* \"shop.sol\":1646:1768  {\r... */\n      pop\n        /* \"shop.sol\":1540:1768  function addShop(address newShop, string memory city)\r... */\n      pop\n      pop\n      pop\n      jump\t// out\n        /* \"shop.sol\":1813:1904  function view_Shops() public view returns (shop[] memory) {\r... */\n    tag_16:\n        /* \"shop.sol\":1856:1869  shop[] memory */\n      0x60\n        /* \"shop.sol\":1890:1895  Shops */\n      0x00\n        /* \"shop.sol\":1882:1896  return (Shops) */\n      dup1\n      sload\n      dup1\n      0x20\n      mul\n      0x20\n      add\n      mload(0x40)\n      swap1\n      dup2\n      add\n      0x40\n      mstore\n      dup1\n      swap3\n      swap2\n      swap1\n      dup2\n      dup2\n      mstore\n      0x20\n      add\n      0x00\n      swap1\n    tag_72:\n      dup3\n      dup3\n      lt\n      iszero\n      tag_73\n      jumpi\n      dup4\n      dup3\n      swap1\n      0x00\n      mstore\n      keccak256(0x00, 0x20)\n      swap1\n      0x04\n      mul\n      add\n      mload(0x40)\n      dup1\n      0x80\n      add\n      0x40\n      mstore\n      swap1\n      dup2\n      0x00\n      dup3\n      add\n      0x00\n      swap1\n      sload\n      swap1\n      0x0100\n      exp\n      swap1\n      div\n      0xffffffffffffffffffffffffffffffffffffffff\n      and\n      0xffffffffffffffffffffffffffffffffffffffff\n      and\n      0xffffffffffffffffffffffffffffffffffffffff\n      and\n      dup2\n      mstore\n      0x20\n      add\n      0x01\n      dup3\n      add\n      dup1\n      sload\n      tag_75\n      swap1\n      tag_53\n      jump\t// in\n    tag_75:\n      dup1\n      0x1f\n      add\n      0x20\n      dup1\n      swap2\n      div\n      mul\n      0x20\n      add\n      mload(0x40)\n      swap1\n      dup2\n      add\n      0x40\n      mstore\n      dup1\n      swap3\n      swap2\n      swap1\n      dup2\n      dup2\n      mstore\n      0x20\n      add\n      dup3\n      dup1\n      sload\n      tag_76\n      swap1\n      tag_53\n      jump\t// in\n    tag_76:\n      dup1\n      iszero\n      tag_77\n      jumpi\n      dup1\n      0x1f\n      lt\n      tag_78\n      jumpi\n      0x0100\n      dup1\n      dup4\n      sload\n      div\n      mul\n      dup4\n      mstore\n      swap2\n      0x20\n      add\n      swap2\n      jump(tag_77)\n    tag_78:\n      dup3\n      add\n      swap2\n      swap1\n      0x00\n      mstore\n      keccak256(0x00, 0x20)\n      swap1\n    tag_79:\n      dup2\n      sload\n      dup2\n      mstore\n      swap1\n      0x01\n      add\n      swap1\n      0x20\n      add\n      dup1\n      dup4\n      gt\n      tag_79\n      jumpi\n      dup3\n      swap1\n      sub\n      0x1f\n      and\n      dup3\n      add\n      swap2\n    tag_77:\n      pop\n      pop\n      pop\n      pop\n      pop\n      dup2\n      mstore\n      0x20\n      add\n      0x02\n      dup3\n      add\n      dup1\n      sload\n      dup1\n      0x20\n      mul\n      0x20\n      add\n      mload(0x40)\n      swap1\n      dup2\n      add\n      0x40\n      mstore\n      dup1\n      swap3\n      swap2\n      swap1\n      dup2\n      dup2\n      mstore\n      0x20\n      add\n      0x00\n      swap1\n    tag_80:\n      dup3\n      dup3\n      lt\n      iszero\n      tag_81\n      jumpi\n      dup4\n      dup3\n      swap1\n      0x00\n      mstore\n      keccak256(0x00, 0x20)\n      swap1\n      0x04\n      mul\n      add\n      mload(0x40)\n      dup1\n      0x80\n      add\n      0x40\n      mstore\n      swap1\n      dup2\n      0x00\n      dup3\n      add\n      0x00\n      swap1\n      sload\n      swap1\n      0x0100\n      exp\n      swap1\n      div\n      0xffffffffffffffffffffffffffffffffffffffff\n      and\n      0xffffffffffffffffffffffffffffffffffffffff\n      and\n      0xffffffffffffffffffffffffffffffffffffffff\n      and\n      dup2\n      mstore\n      0x20\n      add\n      0x01\n      dup3\n      add\n      sload\n      dup2\n      mstore\n      0x20\n      add\n      0x02\n      dup3\n      add\n      dup1\n      sload\n      dup1\n      0x20\n      mul\n      0x20\n      add\n      mload(0x40)\n      swap1\n      dup2\n      add\n      0x40\n      mstore\n      dup1\n      swap3\n      swap2\n      swap1\n      dup2\n      dup2\n      mstore\n      0x20\n      add\n      0x00\n      swap1\n    tag_83:\n      dup3\n      dup3\n      lt\n      iszero\n      tag_84\n      jumpi\n      dup4\n      dup3\n      swap1\n      0x00\n      mstore\n      keccak256(0x00, 0x20)\n      add\n      mload(0x40)\n      dup1\n      0x40\n      add\n      0x40\n      mstore\n      swap1\n      dup2\n      0x00\n      dup3\n      add\n      0x00\n      swap1\n      sload\n      swap1\n      0x0100\n      exp\n      swap1\n      div\n      0xffffffffffffffffffffffffffffffffffffffff\n      and\n      0xffffffffffffffffffffffffffffffffffffffff\n      and\n      0xffffffffffffffffffffffffffffffffffffffff\n      and\n      dup2\n      mstore\n      0x20\n      add\n      0x00\n      dup3\n      add\n      0x14\n      swap1\n      sload\n      swap1\n      0x0100\n      exp\n      swap1\n      div\n      0xff\n      and\n      iszero\n      iszero\n      iszero\n      iszero\n      dup2\n      mstore\n      pop\n      pop\n      dup2\n      mstore\n      0x20\n      add\n      swap1\n      0x01\n      add\n      swap1\n      jump(tag_83)\n    tag_84:\n      pop\n      pop\n      pop\n      pop\n      dup2\n      mstore\n      0x20\n      add\n      0x03\n      dup3\n      add\n      dup1\n      sload\n      tag_86\n      swap1\n      tag_53\n      jump\t// in\n    tag_86:\n      dup1\n      0x1f\n      add\n      0x20\n      dup1\n      swap2\n      div\n      mul\n      0x20\n      add\n      mload(0x40)\n      swap1\n      dup2\n      add\n      0x40\n      mstore\n      dup1\n      swap3\n      swap2\n      swap1\n      dup2\n      dup2\n      mstore\n      0x20\n      add\n      dup3\n      dup1\n      sload\n      tag_87\n      swap1\n      tag_53\n      jump\t// in\n    tag_87:\n      dup1\n      iszero\n      tag_88\n      jumpi\n      dup1\n      0x1f\n      lt\n      tag_89\n      jumpi\n      0x0100\n      dup1\n      dup4\n      sload\n      div\n      mul\n      dup4\n      mstore\n      swap2\n      0x20\n      add\n      swap2\n      jump(tag_88)\n    tag_89:\n      dup3\n      add\n      swap2\n      swap1\n      0x00\n      mstore\n      keccak256(0x00, 0x20)\n      swap1\n    tag_90:\n      dup2\n      sload\n      dup2\n      mstore\n      swap1\n      0x01\n      add\n      swap1\n      0x20\n      add\n      dup1\n      dup4\n      gt\n      tag_90\n      jumpi\n      dup3\n      swap1\n      sub\n      0x1f\n      and\n      dup3\n      add\n      swap2\n    tag_88:\n      pop\n      pop\n      pop\n      pop\n      pop\n      dup2\n      mstore\n      pop\n      pop\n      dup2\n      mstore\n      0x20\n      add\n      swap1\n      0x01\n      add\n      swap1\n      jump(tag_80)\n    tag_81:\n      pop\n      pop\n      pop\n      pop\n      dup2\n      mstore\n      0x20\n      add\n      0x03\n      dup3\n      add\n      dup1\n      sload\n      dup1\n      0x20\n      mul\n      0x20\n      add\n      mload(0x40)\n      swap1\n      dup2\n      add\n      0x40\n      mstore\n      dup1\n      swap3\n      swap2\n      swap1\n      dup2\n      dup2\n      mstore\n      0x20\n      add\n      dup3\n      dup1\n      sload\n      dup1\n      iszero\n      tag_91\n      jumpi\n      0x20\n      mul\n      dup3\n      add\n      swap2\n      swap1\n      0x00\n      mstore\n      keccak256(0x00, 0x20)\n      swap1\n    tag_92:\n      dup2\n      sload\n      dup2\n      mstore\n      0x20\n      add\n      swap1\n      0x01\n      add\n      swap1\n      dup1\n      dup4\n      gt\n      tag_92\n      jumpi\n    tag_91:\n      pop\n      pop\n      pop\n      pop\n      pop\n      dup2\n      mstore\n      pop\n      pop\n      dup2\n      mstore\n      0x20\n      add\n      swap1\n      0x01\n      add\n      swap1\n      jump(tag_72)\n    tag_73:\n      pop\n      pop\n      pop\n      pop\n      swap1\n      pop\n        /* \"shop.sol\":1813:1904  function view_Shops() public view returns (shop[] memory) {\r... */\n      swap1\n      jump\t// out\n        /* \"shop.sol\":2011:2111  function view_Requests() public view returns (request[] memory) {\r... */\n    tag_20:\n        /* \"shop.sol\":2057:2073  request[] memory */\n      0x60\n        /* \"shop.sol\":2094:2102  Requests */\n      0x02\n        /* \"shop.sol\":2086:2103  return (Requests) */\n      dup1\n      sload\n      dup1\n      0x20\n      mul\n      0x20\n      add\n      mload(0x40)\n      swap1\n      dup2\n      add\n      0x40\n      mstore\n      dup1\n      swap3\n      swap2\n      swap1\n      dup2\n      dup2\n      mstore\n      0x20\n      add\n      0x00\n      swap1\n    tag_94:\n      dup3\n      dup3\n      lt\n      iszero\n      tag_95\n      jumpi\n      dup4\n      dup3\n      swap1\n      0x00\n      mstore\n      keccak256(0x00, 0x20)\n      add\n      mload(0x40)\n      dup1\n      0x40\n      add\n      0x40\n      mstore\n      swap1\n      dup2\n      0x00\n      dup3\n      add\n      0x00\n      swap1\n      sload\n      swap1\n      0x0100\n      exp\n      swap1\n      div\n      0xffffffffffffffffffffffffffffffffffffffff\n      and\n      0xffffffffffffffffffffffffffffffffffffffff\n      and\n      0xffffffffffffffffffffffffffffffffffffffff\n      and\n      dup2\n      mstore\n      0x20\n      add\n      0x00\n      dup3\n      add\n      0x14\n      swap1\n      sload\n      swap1\n      0x0100\n      exp\n      swap1\n      div\n      0xff\n      and\n      iszero\n      iszero\n      iszero\n      iszero\n      dup2\n      mstore\n      pop\n      pop\n      dup2\n      mstore\n      0x20\n      add\n      swap1\n      0x01\n      add\n      swap1\n      jump(tag_94)\n    tag_95:\n      pop\n      pop\n      pop\n      pop\n      swap1\n      pop\n        /* \"shop.sol\":2011:2111  function view_Requests() public view returns (request[] memory) {\r... */\n      swap1\n      jump\t// out\n        /* \"shop.sol\":1184:1361  function regUser(address newUser, uint256 role) public isReg(newUser) {\r... */\n    tag_26:\n        /* \"shop.sol\":1245:1252  newUser */\n      dup2\n        /* \"shop.sol\":840:849  uint256 i */\n      0x00\n        /* \"shop.sol\":835:963  for (uint256 i = 0; i < Users.length; i++) {\r... */\n    tag_98:\n        /* \"shop.sol\":859:864  Users */\n      0x01\n        /* \"shop.sol\":859:871  Users.length */\n      dup1\n      sload\n      swap1\n      pop\n        /* \"shop.sol\":855:856  i */\n      dup2\n        /* \"shop.sol\":855:871  i < Users.length */\n      lt\n        /* \"shop.sol\":835:963  for (uint256 i = 0; i < Users.length; i++) {\r... */\n      iszero\n      tag_99\n      jumpi\n        /* \"shop.sol\":918:925  newUser */\n      dup2\n        /* \"shop.sol\":901:925  Users[i].user != newUser */\n      0xffffffffffffffffffffffffffffffffffffffff\n      and\n        /* \"shop.sol\":901:906  Users */\n      0x01\n        /* \"shop.sol\":907:908  i */\n      dup3\n        /* \"shop.sol\":901:909  Users[i] */\n      dup2\n      sload\n      dup2\n      lt\n      tag_101\n      jumpi\n      tag_102\n      tag_43\n      jump\t// in\n    tag_102:\n    tag_101:\n      swap1\n      0x00\n      mstore\n      keccak256(0x00, 0x20)\n      swap1\n      0x02\n      mul\n      add\n        /* \"shop.sol\":901:914  Users[i].user */\n      0x00\n      add\n      0x00\n      swap1\n      sload\n      swap1\n      0x0100\n      exp\n      swap1\n      div\n      0xffffffffffffffffffffffffffffffffffffffff\n      and\n        /* \"shop.sol\":901:925  Users[i].user != newUser */\n      0xffffffffffffffffffffffffffffffffffffffff\n      and\n      eq\n      iszero\n        /* \"shop.sol\":893:951  require(Users[i].user != newUser, \"U already registered!\") */\n      tag_104\n      jumpi\n      mload(0x40)\n      0x08c379a000000000000000000000000000000000000000000000000000000000\n      dup2\n      mstore\n      0x04\n      add\n      tag_105\n      swap1\n      tag_106\n      jump\t// in\n    tag_105:\n      mload(0x40)\n      dup1\n      swap2\n      sub\n      swap1\n      revert\n    tag_104:\n        /* \"shop.sol\":873:876  i++ */\n      dup1\n      dup1\n      tag_107\n      swap1\n      tag_49\n      jump\t// in\n    tag_107:\n      swap2\n      pop\n      pop\n        /* \"shop.sol\":835:963  for (uint256 i = 0; i < Users.length; i++) {\r... */\n      jump(tag_98)\n    tag_99:\n      pop\n        /* \"shop.sol\":1280:1281  3 */\n      0x03\n        /* \"shop.sol\":1273:1277  role */\n      dup3\n        /* \"shop.sol\":1273:1281  role < 3 */\n      lt\n        /* \"shop.sol\":1265:1308  require(role < 3, \"This role isn't exists\") */\n      tag_109\n      jumpi\n      mload(0x40)\n      0x08c379a000000000000000000000000000000000000000000000000000000000\n      dup2\n      mstore\n      0x04\n      add\n      tag_110\n      swap1\n      tag_111\n      jump\t// in\n    tag_110:\n      mload(0x40)\n      dup1\n      swap2\n      sub\n      swap1\n      revert\n    tag_109:\n        /* \"shop.sol\":1319:1324  Users */\n      0x01\n        /* \"shop.sol\":1330:1352  user(msg.sender, role) */\n      mload(0x40)\n      dup1\n      0x40\n      add\n      0x40\n      mstore\n      dup1\n        /* \"shop.sol\":1335:1345  msg.sender */\n      caller\n        /* \"shop.sol\":1330:1352  user(msg.sender, role) */\n      0xffffffffffffffffffffffffffffffffffffffff\n      and\n      dup2\n      mstore\n      0x20\n      add\n        /* \"shop.sol\":1347:1351  role */\n      dup5\n        /* \"shop.sol\":1330:1352  user(msg.sender, role) */\n      dup2\n      mstore\n      pop\n        /* \"shop.sol\":1319:1353  Users.push(user(msg.sender, role)) */\n      swap1\n      dup1\n      0x01\n      dup2\n      sload\n      add\n      dup1\n      dup3\n      sstore\n      dup1\n      swap2\n      pop\n      pop\n      0x01\n      swap1\n      sub\n      swap1\n      0x00\n      mstore\n      keccak256(0x00, 0x20)\n      swap1\n      0x02\n      mul\n      add\n      0x00\n      swap1\n      swap2\n      swap1\n      swap2\n      swap1\n      swap2\n      pop\n      0x00\n      dup3\n      add\n      mload\n      dup2\n      0x00\n      add\n      exp(0x0100, 0x00)\n      dup2\n      sload\n      dup2\n      0xffffffffffffffffffffffffffffffffffffffff\n      mul\n      not\n      and\n      swap1\n      dup4\n      0xffffffffffffffffffffffffffffffffffffffff\n      and\n      mul\n      or\n      swap1\n      sstore\n      pop\n      0x20\n      dup3\n      add\n      mload\n      dup2\n      0x01\n      add\n      sstore\n      pop\n      pop\n        /* \"shop.sol\":1184:1361  function regUser(address newUser, uint256 role) public isReg(newUser) {\r... */\n      pop\n      pop\n      pop\n      jump\t// out\n        /* \"shop.sol\":1776:1805  function addAdmin() public {} */\n    tag_28:\n      jump\t// out\n        /* \"shop.sol\":1369:1532  function regUser(uint256 role) public isReg(msg.sender) {\r... */\n    tag_32:\n        /* \"shop.sol\":1413:1423  msg.sender */\n      caller\n        /* \"shop.sol\":840:849  uint256 i */\n      0x00\n        /* \"shop.sol\":835:963  for (uint256 i = 0; i < Users.length; i++) {\r... */\n    tag_115:\n        /* \"shop.sol\":859:864  Users */\n      0x01\n        /* \"shop.sol\":859:871  Users.length */\n      dup1\n      sload\n      swap1\n      pop\n        /* \"shop.sol\":855:856  i */\n      dup2\n        /* \"shop.sol\":855:871  i < Users.length */\n      lt\n        /* \"shop.sol\":835:963  for (uint256 i = 0; i < Users.length; i++) {\r... */\n      iszero\n      tag_116\n      jumpi\n        /* \"shop.sol\":918:925  newUser */\n      dup2\n        /* \"shop.sol\":901:925  Users[i].user != newUser */\n      0xffffffffffffffffffffffffffffffffffffffff\n      and\n        /* \"shop.sol\":901:906  Users */\n      0x01\n        /* \"shop.sol\":907:908  i */\n      dup3\n        /* \"shop.sol\":901:909  Users[i] */\n      dup2\n      sload\n      dup2\n      lt\n      tag_118\n      jumpi\n      tag_119\n      tag_43\n      jump\t// in\n    tag_119:\n    tag_118:\n      swap1\n      0x00\n      mstore\n      keccak256(0x00, 0x20)\n      swap1\n      0x02\n      mul\n      add\n        /* \"shop.sol\":901:914  Users[i].user */\n      0x00\n      add\n      0x00\n      swap1\n      sload\n      swap1\n      0x0100\n      exp\n      swap1\n      div\n      0xffffffffffffffffffffffffffffffffffffffff\n      and\n        /* \"shop.sol\":901:925  Users[i].user != newUser */\n      0xffffffffffffffffffffffffffffffffffffffff\n      and\n      eq\n      iszero\n        /* \"shop.sol\":893:951  require(Users[i].user != newUser, \"U already registered!\") */\n      tag_121\n      jumpi\n      mload(0x40)\n      0x08c379a000000000000000000000000000000000000000000000000000000000\n      dup2\n      mstore\n      0x04\n      add\n      tag_122\n      swap1\n      tag_106\n      jump\t// in\n    tag_122:\n      mload(0x40)\n      dup1\n      swap2\n      sub\n      swap1\n      revert\n    tag_121:\n        /* \"shop.sol\":873:876  i++ */\n      dup1\n      dup1\n      tag_123\n      swap1\n      tag_49\n      jump\t// in\n    tag_123:\n      swap2\n      pop\n      pop\n        /* \"shop.sol\":835:963  for (uint256 i = 0; i < Users.length; i++) {\r... */\n      jump(tag_115)\n    tag_116:\n      pop\n        /* \"shop.sol\":1451:1452  3 */\n      0x03\n        /* \"shop.sol\":1444:1448  role */\n      dup3\n        /* \"shop.sol\":1444:1452  role < 3 */\n      lt\n        /* \"shop.sol\":1436:1479  require(role < 3, \"This role isn't exists\") */\n      tag_125\n      jumpi\n      mload(0x40)\n      0x08c379a000000000000000000000000000000000000000000000000000000000\n      dup2\n      mstore\n      0x04\n      add\n      tag_126\n      swap1\n      tag_111\n      jump\t// in\n    tag_126:\n      mload(0x40)\n      dup1\n      swap2\n      sub\n      swap1\n      revert\n    tag_125:\n        /* \"shop.sol\":1490:1495  Users */\n      0x01\n        /* \"shop.sol\":1501:1523  user(msg.sender, role) */\n      mload(0x40)\n      dup1\n      0x40\n      add\n      0x40\n      mstore\n      dup1\n        /* \"shop.sol\":1506:1516  msg.sender */\n      caller\n        /* \"shop.sol\":1501:1523  user(msg.sender, role) */\n      0xffffffffffffffffffffffffffffffffffffffff\n      and\n      dup2\n      mstore\n      0x20\n      add\n        /* \"shop.sol\":1518:1522  role */\n      dup5\n        /* \"shop.sol\":1501:1523  user(msg.sender, role) */\n      dup2\n      mstore\n      pop\n        /* \"shop.sol\":1490:1524  Users.push(user(msg.sender, role)) */\n      swap1\n      dup1\n      0x01\n      dup2\n      sload\n      add\n      dup1\n      dup3\n      sstore\n      dup1\n      swap2\n      pop\n      pop\n      0x01\n      swap1\n      sub\n      swap1\n      0x00\n      mstore\n      keccak256(0x00, 0x20)\n      swap1\n      0x02\n      mul\n      add\n      0x00\n      swap1\n      swap2\n      swap1\n      swap2\n      swap1\n      swap2\n      pop\n      0x00\n      dup3\n      add\n      mload\n      dup2\n      0x00\n      add\n      exp(0x0100, 0x00)\n      dup2\n      sload\n      dup2\n      0xffffffffffffffffffffffffffffffffffffffff\n      mul\n      not\n      and\n      swap1\n      dup4\n      0xffffffffffffffffffffffffffffffffffffffff\n      and\n      mul\n      or\n      swap1\n      sstore\n      pop\n      0x20\n      dup3\n      add\n      mload\n      dup2\n      0x01\n      add\n      sstore\n      pop\n      pop\n        /* \"shop.sol\":1369:1532  function regUser(uint256 role) public isReg(msg.sender) {\r... */\n      pop\n      pop\n      jump\t// out\n        /* \"shop.sol\":1912:2003  function view_Users() public view returns (user[] memory) {\r... */\n    tag_34:\n        /* \"shop.sol\":1955:1968  user[] memory */\n      0x60\n        /* \"shop.sol\":1989:1994  Users */\n      0x01\n        /* \"shop.sol\":1981:1995  return (Users) */\n      dup1\n      sload\n      dup1\n      0x20\n      mul\n      0x20\n      add\n      mload(0x40)\n      swap1\n      dup2\n      add\n      0x40\n      mstore\n      dup1\n      swap3\n      swap2\n      swap1\n      dup2\n      dup2\n      mstore\n      0x20\n      add\n      0x00\n      swap1\n    tag_129:\n      dup3\n      dup3\n      lt\n      iszero\n      tag_130\n      jumpi\n      dup4\n      dup3\n      swap1\n      0x00\n      mstore\n      keccak256(0x00, 0x20)\n      swap1\n      0x02\n      mul\n      add\n      mload(0x40)\n      dup1\n      0x40\n      add\n      0x40\n      mstore\n      swap1\n      dup2\n      0x00\n      dup3\n      add\n      0x00\n      swap1\n      sload\n      swap1\n      0x0100\n      exp\n      swap1\n      div\n      0xffffffffffffffffffffffffffffffffffffffff\n      and\n      0xffffffffffffffffffffffffffffffffffffffff\n      and\n      0xffffffffffffffffffffffffffffffffffffffff\n      and\n      dup2\n      mstore\n      0x20\n      add\n      0x01\n      dup3\n      add\n      sload\n      dup2\n      mstore\n      pop\n      pop\n      dup2\n      mstore\n      0x20\n      add\n      swap1\n      0x01\n      add\n      swap1\n      jump(tag_129)\n    tag_130:\n      pop\n      pop\n      pop\n      pop\n      swap1\n      pop\n        /* \"shop.sol\":1912:2003  function view_Users() public view returns (user[] memory) {\r... */\n      swap1\n      jump\t// out\n        /* \"#utility.yul\":7:419   */\n    tag_133:\n        /* \"#utility.yul\":85:90   */\n      0x00\n        /* \"#utility.yul\":110:176   */\n      tag_135\n        /* \"#utility.yul\":126:175   */\n      tag_136\n        /* \"#utility.yul\":168:174   */\n      dup5\n        /* \"#utility.yul\":126:175   */\n      tag_137\n      jump\t// in\n    tag_136:\n        /* \"#utility.yul\":110:176   */\n      tag_138\n      jump\t// in\n    tag_135:\n        /* \"#utility.yul\":101:176   */\n      swap1\n      pop\n        /* \"#utility.yul\":199:205   */\n      dup3\n        /* \"#utility.yul\":192:197   */\n      dup2\n        /* \"#utility.yul\":185:206   */\n      mstore\n        /* \"#utility.yul\":237:241   */\n      0x20\n        /* \"#utility.yul\":230:235   */\n      dup2\n        /* \"#utility.yul\":226:242   */\n      add\n        /* \"#utility.yul\":275:278   */\n      dup5\n        /* \"#utility.yul\":266:272   */\n      dup5\n        /* \"#utility.yul\":261:264   */\n      dup5\n        /* \"#utility.yul\":257:273   */\n      add\n        /* \"#utility.yul\":254:279   */\n      gt\n        /* \"#utility.yul\":251:363   */\n      iszero\n      tag_139\n      jumpi\n        /* \"#utility.yul\":282:361   */\n      tag_140\n      tag_141\n      jump\t// in\n    tag_140:\n        /* \"#utility.yul\":251:363   */\n    tag_139:\n        /* \"#utility.yul\":372:413   */\n      tag_142\n        /* \"#utility.yul\":406:412   */\n      dup5\n        /* \"#utility.yul\":401:404   */\n      dup3\n        /* \"#utility.yul\":396:399   */\n      dup6\n        /* \"#utility.yul\":372:413   */\n      tag_143\n      jump\t// in\n    tag_142:\n        /* \"#utility.yul\":91:419   */\n      pop\n        /* \"#utility.yul\":7:419   */\n      swap4\n      swap3\n      pop\n      pop\n      pop\n      jump\t// out\n        /* \"#utility.yul\":425:564   */\n    tag_144:\n        /* \"#utility.yul\":471:476   */\n      0x00\n        /* \"#utility.yul\":509:515   */\n      dup2\n        /* \"#utility.yul\":496:516   */\n      calldataload\n        /* \"#utility.yul\":487:516   */\n      swap1\n      pop\n        /* \"#utility.yul\":525:558   */\n      tag_146\n        /* \"#utility.yul\":552:557   */\n      dup2\n        /* \"#utility.yul\":525:558   */\n      tag_147\n      jump\t// in\n    tag_146:\n        /* \"#utility.yul\":425:564   */\n      swap3\n      swap2\n      pop\n      pop\n      jump\t// out\n        /* \"#utility.yul\":584:924   */\n    tag_148:\n        /* \"#utility.yul\":640:645   */\n      0x00\n        /* \"#utility.yul\":689:692   */\n      dup3\n        /* \"#utility.yul\":682:686   */\n      0x1f\n        /* \"#utility.yul\":674:680   */\n      dup4\n        /* \"#utility.yul\":670:687   */\n      add\n        /* \"#utility.yul\":666:693   */\n      slt\n        /* \"#utility.yul\":656:778   */\n      tag_150\n      jumpi\n        /* \"#utility.yul\":697:776   */\n      tag_151\n      tag_152\n      jump\t// in\n    tag_151:\n        /* \"#utility.yul\":656:778   */\n    tag_150:\n        /* \"#utility.yul\":814:820   */\n      dup2\n        /* \"#utility.yul\":801:821   */\n      calldataload\n        /* \"#utility.yul\":839:918   */\n      tag_153\n        /* \"#utility.yul\":914:917   */\n      dup5\n        /* \"#utility.yul\":906:912   */\n      dup3\n        /* \"#utility.yul\":899:903   */\n      0x20\n        /* \"#utility.yul\":891:897   */\n      dup7\n        /* \"#utility.yul\":887:904   */\n      add\n        /* \"#utility.yul\":839:918   */\n      tag_133\n      jump\t// in\n    tag_153:\n        /* \"#utility.yul\":830:918   */\n      swap2\n      pop\n        /* \"#utility.yul\":646:924   */\n      pop\n        /* \"#utility.yul\":584:924   */\n      swap3\n      swap2\n      pop\n      pop\n      jump\t// out\n        /* \"#utility.yul\":930:1069   */\n    tag_154:\n        /* \"#utility.yul\":976:981   */\n      0x00\n        /* \"#utility.yul\":1014:1020   */\n      dup2\n        /* \"#utility.yul\":1001:1021   */\n      calldataload\n        /* \"#utility.yul\":992:1021   */\n      swap1\n      pop\n        /* \"#utility.yul\":1030:1063   */\n      tag_156\n        /* \"#utility.yul\":1057:1062   */\n      dup2\n        /* \"#utility.yul\":1030:1063   */\n      tag_157\n      jump\t// in\n    tag_156:\n        /* \"#utility.yul\":930:1069   */\n      swap3\n      swap2\n      pop\n      pop\n      jump\t// out\n        /* \"#utility.yul\":1075:1729   */\n    tag_13:\n        /* \"#utility.yul\":1153:1159   */\n      0x00\n        /* \"#utility.yul\":1161:1167   */\n      dup1\n        /* \"#utility.yul\":1210:1212   */\n      0x40\n        /* \"#utility.yul\":1198:1207   */\n      dup4\n        /* \"#utility.yul\":1189:1196   */\n      dup6\n        /* \"#utility.yul\":1185:1208   */\n      sub\n        /* \"#utility.yul\":1181:1213   */\n      slt\n        /* \"#utility.yul\":1178:1297   */\n      iszero\n      tag_159\n      jumpi\n        /* \"#utility.yul\":1216:1295   */\n      tag_160\n      tag_161\n      jump\t// in\n    tag_160:\n        /* \"#utility.yul\":1178:1297   */\n    tag_159:\n        /* \"#utility.yul\":1336:1337   */\n      0x00\n        /* \"#utility.yul\":1361:1414   */\n      tag_162\n        /* \"#utility.yul\":1406:1413   */\n      dup6\n        /* \"#utility.yul\":1397:1403   */\n      dup3\n        /* \"#utility.yul\":1386:1395   */\n      dup7\n        /* \"#utility.yul\":1382:1404   */\n      add\n        /* \"#utility.yul\":1361:1414   */\n      tag_144\n      jump\t// in\n    tag_162:\n        /* \"#utility.yul\":1351:1414   */\n      swap3\n      pop\n        /* \"#utility.yul\":1307:1424   */\n      pop\n        /* \"#utility.yul\":1491:1493   */\n      0x20\n        /* \"#utility.yul\":1480:1489   */\n      dup4\n        /* \"#utility.yul\":1476:1494   */\n      add\n        /* \"#utility.yul\":1463:1495   */\n      calldataload\n        /* \"#utility.yul\":1522:1540   */\n      0xffffffffffffffff\n        /* \"#utility.yul\":1514:1520   */\n      dup2\n        /* \"#utility.yul\":1511:1541   */\n      gt\n        /* \"#utility.yul\":1508:1625   */\n      iszero\n      tag_163\n      jumpi\n        /* \"#utility.yul\":1544:1623   */\n      tag_164\n      tag_165\n      jump\t// in\n    tag_164:\n        /* \"#utility.yul\":1508:1625   */\n    tag_163:\n        /* \"#utility.yul\":1649:1712   */\n      tag_166\n        /* \"#utility.yul\":1704:1711   */\n      dup6\n        /* \"#utility.yul\":1695:1701   */\n      dup3\n        /* \"#utility.yul\":1684:1693   */\n      dup7\n        /* \"#utility.yul\":1680:1702   */\n      add\n        /* \"#utility.yul\":1649:1712   */\n      tag_148\n      jump\t// in\n    tag_166:\n        /* \"#utility.yul\":1639:1712   */\n      swap2\n      pop\n        /* \"#utility.yul\":1434:1722   */\n      pop\n        /* \"#utility.yul\":1075:1729   */\n      swap3\n      pop\n      swap3\n      swap1\n      pop\n      jump\t// out\n        /* \"#utility.yul\":1735:2209   */\n    tag_25:\n        /* \"#utility.yul\":1803:1809   */\n      0x00\n        /* \"#utility.yul\":1811:1817   */\n      dup1\n        /* \"#utility.yul\":1860:1862   */\n      0x40\n        /* \"#utility.yul\":1848:1857   */\n      dup4\n        /* \"#utility.yul\":1839:1846   */\n      dup6\n        /* \"#utility.yul\":1835:1858   */\n      sub\n        /* \"#utility.yul\":1831:1863   */\n      slt\n        /* \"#utility.yul\":1828:1947   */\n      iszero\n      tag_168\n      jumpi\n        /* \"#utility.yul\":1866:1945   */\n      tag_169\n      tag_161\n      jump\t// in\n    tag_169:\n        /* \"#utility.yul\":1828:1947   */\n    tag_168:\n        /* \"#utility.yul\":1986:1987   */\n      0x00\n        /* \"#utility.yul\":2011:2064   */\n      tag_170\n        /* \"#utility.yul\":2056:2063   */\n      dup6\n        /* \"#utility.yul\":2047:2053   */\n      dup3\n        /* \"#utility.yul\":2036:2045   */\n      dup7\n        /* \"#utility.yul\":2032:2054   */\n      add\n        /* \"#utility.yul\":2011:2064   */\n      tag_144\n      jump\t// in\n    tag_170:\n        /* \"#utility.yul\":2001:2064   */\n      swap3\n      pop\n        /* \"#utility.yul\":1957:2074   */\n      pop\n        /* \"#utility.yul\":2113:2115   */\n      0x20\n        /* \"#utility.yul\":2139:2192   */\n      tag_171\n        /* \"#utility.yul\":2184:2191   */\n      dup6\n        /* \"#utility.yul\":2175:2181   */\n      dup3\n        /* \"#utility.yul\":2164:2173   */\n      dup7\n        /* \"#utility.yul\":2160:2182   */\n      add\n        /* \"#utility.yul\":2139:2192   */\n      tag_154\n      jump\t// in\n    tag_171:\n        /* \"#utility.yul\":2129:2192   */\n      swap2\n      pop\n        /* \"#utility.yul\":2084:2202   */\n      pop\n        /* \"#utility.yul\":1735:2209   */\n      swap3\n      pop\n      swap3\n      swap1\n      pop\n      jump\t// out\n        /* \"#utility.yul\":2215:2544   */\n    tag_31:\n        /* \"#utility.yul\":2274:2280   */\n      0x00\n        /* \"#utility.yul\":2323:2325   */\n      0x20\n        /* \"#utility.yul\":2311:2320   */\n      dup3\n        /* \"#utility.yul\":2302:2309   */\n      dup5\n        /* \"#utility.yul\":2298:2321   */\n      sub\n        /* \"#utility.yul\":2294:2326   */\n      slt\n        /* \"#utility.yul\":2291:2410   */\n      iszero\n      tag_173\n      jumpi\n        /* \"#utility.yul\":2329:2408   */\n      tag_174\n      tag_161\n      jump\t// in\n    tag_174:\n        /* \"#utility.yul\":2291:2410   */\n    tag_173:\n        /* \"#utility.yul\":2449:2450   */\n      0x00\n        /* \"#utility.yul\":2474:2527   */\n      tag_175\n        /* \"#utility.yul\":2519:2526   */\n      dup5\n        /* \"#utility.yul\":2510:2516   */\n      dup3\n        /* \"#utility.yul\":2499:2508   */\n      dup6\n        /* \"#utility.yul\":2495:2517   */\n      add\n        /* \"#utility.yul\":2474:2527   */\n      tag_154\n      jump\t// in\n    tag_175:\n        /* \"#utility.yul\":2464:2527   */\n      swap2\n      pop\n        /* \"#utility.yul\":2420:2537   */\n      pop\n        /* \"#utility.yul\":2215:2544   */\n      swap3\n      swap2\n      pop\n      pop\n      jump\t// out\n        /* \"#utility.yul\":2550:2809   */\n    tag_176:\n        /* \"#utility.yul\":2659:2669   */\n      0x00\n        /* \"#utility.yul\":2680:2766   */\n      tag_178\n        /* \"#utility.yul\":2762:2765   */\n      dup4\n        /* \"#utility.yul\":2754:2760   */\n      dup4\n        /* \"#utility.yul\":2680:2766   */\n      tag_179\n      jump\t// in\n    tag_178:\n        /* \"#utility.yul\":2798:2802   */\n      0x40\n        /* \"#utility.yul\":2793:2796   */\n      dup4\n        /* \"#utility.yul\":2789:2803   */\n      add\n        /* \"#utility.yul\":2775:2803   */\n      swap1\n      pop\n        /* \"#utility.yul\":2550:2809   */\n      swap3\n      swap2\n      pop\n      pop\n      jump\t// out\n        /* \"#utility.yul\":2815:3051   */\n    tag_180:\n        /* \"#utility.yul\":2924:2934   */\n      0x00\n        /* \"#utility.yul\":2959:3045   */\n      tag_182\n        /* \"#utility.yul\":3041:3044   */\n      dup4\n        /* \"#utility.yul\":3033:3039   */\n      dup4\n        /* \"#utility.yul\":2959:3045   */\n      tag_183\n      jump\t// in\n    tag_182:\n        /* \"#utility.yul\":2945:3045   */\n      swap1\n      pop\n        /* \"#utility.yul\":2815:3051   */\n      swap3\n      swap2\n      pop\n      pop\n      jump\t// out\n        /* \"#utility.yul\":3057:3328   */\n    tag_184:\n        /* \"#utility.yul\":3172:3182   */\n      0x00\n        /* \"#utility.yul\":3193:3285   */\n      tag_186\n        /* \"#utility.yul\":3281:3284   */\n      dup4\n        /* \"#utility.yul\":3273:3279   */\n      dup4\n        /* \"#utility.yul\":3193:3285   */\n      tag_187\n      jump\t// in\n    tag_186:\n        /* \"#utility.yul\":3317:3321   */\n      0x40\n        /* \"#utility.yul\":3312:3315   */\n      dup4\n        /* \"#utility.yul\":3308:3322   */\n      add\n        /* \"#utility.yul\":3294:3322   */\n      swap1\n      pop\n        /* \"#utility.yul\":3057:3328   */\n      swap3\n      swap2\n      pop\n      pop\n      jump\t// out\n        /* \"#utility.yul\":3334:3570   */\n    tag_188:\n        /* \"#utility.yul\":3443:3453   */\n      0x00\n        /* \"#utility.yul\":3478:3564   */\n      tag_190\n        /* \"#utility.yul\":3560:3563   */\n      dup4\n        /* \"#utility.yul\":3552:3558   */\n      dup4\n        /* \"#utility.yul\":3478:3564   */\n      tag_191\n      jump\t// in\n    tag_190:\n        /* \"#utility.yul\":3464:3564   */\n      swap1\n      pop\n        /* \"#utility.yul\":3334:3570   */\n      swap3\n      swap2\n      pop\n      pop\n      jump\t// out\n        /* \"#utility.yul\":3576:3831   */\n    tag_192:\n        /* \"#utility.yul\":3683:3693   */\n      0x00\n        /* \"#utility.yul\":3704:3788   */\n      tag_194\n        /* \"#utility.yul\":3784:3787   */\n      dup4\n        /* \"#utility.yul\":3776:3782   */\n      dup4\n        /* \"#utility.yul\":3704:3788   */\n      tag_195\n      jump\t// in\n    tag_194:\n        /* \"#utility.yul\":3820:3824   */\n      0x40\n        /* \"#utility.yul\":3815:3818   */\n      dup4\n        /* \"#utility.yul\":3811:3825   */\n      add\n        /* \"#utility.yul\":3797:3825   */\n      swap1\n      pop\n        /* \"#utility.yul\":3576:3831   */\n      swap3\n      swap2\n      pop\n      pop\n      jump\t// out\n        /* \"#utility.yul\":3837:4016   */\n    tag_196:\n        /* \"#utility.yul\":3906:3916   */\n      0x00\n        /* \"#utility.yul\":3927:3973   */\n      tag_198\n        /* \"#utility.yul\":3969:3972   */\n      dup4\n        /* \"#utility.yul\":3961:3967   */\n      dup4\n        /* \"#utility.yul\":3927:3973   */\n      tag_199\n      jump\t// in\n    tag_198:\n        /* \"#utility.yul\":4005:4009   */\n      0x20\n        /* \"#utility.yul\":4000:4003   */\n      dup4\n        /* \"#utility.yul\":3996:4010   */\n      add\n        /* \"#utility.yul\":3982:4010   */\n      swap1\n      pop\n        /* \"#utility.yul\":3837:4016   */\n      swap3\n      swap2\n      pop\n      pop\n      jump\t// out\n        /* \"#utility.yul\":4022:4130   */\n    tag_200:\n        /* \"#utility.yul\":4099:4123   */\n      tag_202\n        /* \"#utility.yul\":4117:4122   */\n      dup2\n        /* \"#utility.yul\":4099:4123   */\n      tag_203\n      jump\t// in\n    tag_202:\n        /* \"#utility.yul\":4094:4097   */\n      dup3\n        /* \"#utility.yul\":4087:4124   */\n      mstore\n        /* \"#utility.yul\":4022:4130   */\n      pop\n      pop\n      jump\t// out\n        /* \"#utility.yul\":4184:5056   */\n    tag_204:\n        /* \"#utility.yul\":4333:4336   */\n      0x00\n        /* \"#utility.yul\":4362:4436   */\n      tag_206\n        /* \"#utility.yul\":4430:4435   */\n      dup3\n        /* \"#utility.yul\":4362:4436   */\n      tag_207\n      jump\t// in\n    tag_206:\n        /* \"#utility.yul\":4452:4548   */\n      tag_208\n        /* \"#utility.yul\":4541:4547   */\n      dup2\n        /* \"#utility.yul\":4536:4539   */\n      dup6\n        /* \"#utility.yul\":4452:4548   */\n      tag_209\n      jump\t// in\n    tag_208:\n        /* \"#utility.yul\":4445:4548   */\n      swap4\n      pop\n        /* \"#utility.yul\":4572:4648   */\n      tag_210\n        /* \"#utility.yul\":4642:4647   */\n      dup4\n        /* \"#utility.yul\":4572:4648   */\n      tag_211\n      jump\t// in\n    tag_210:\n        /* \"#utility.yul\":4671:4678   */\n      dup1\n        /* \"#utility.yul\":4702:4703   */\n      0x00\n        /* \"#utility.yul\":4687:5031   */\n    tag_212:\n        /* \"#utility.yul\":4712:4718   */\n      dup4\n        /* \"#utility.yul\":4709:4710   */\n      dup2\n        /* \"#utility.yul\":4706:4719   */\n      lt\n        /* \"#utility.yul\":4687:5031   */\n      iszero\n      tag_214\n      jumpi\n        /* \"#utility.yul\":4788:4794   */\n      dup2\n        /* \"#utility.yul\":4782:4795   */\n      mload\n        /* \"#utility.yul\":4815:4918   */\n      tag_215\n        /* \"#utility.yul\":4914:4917   */\n      dup9\n        /* \"#utility.yul\":4899:4912   */\n      dup3\n        /* \"#utility.yul\":4815:4918   */\n      tag_176\n      jump\t// in\n    tag_215:\n        /* \"#utility.yul\":4808:4918   */\n      swap8\n      pop\n        /* \"#utility.yul\":4941:5021   */\n      tag_216\n        /* \"#utility.yul\":5014:5020   */\n      dup4\n        /* \"#utility.yul\":4941:5021   */\n      tag_217\n      jump\t// in\n    tag_216:\n        /* \"#utility.yul\":4931:5021   */\n      swap3\n      pop\n        /* \"#utility.yul\":4747:5031   */\n      pop\n        /* \"#utility.yul\":4734:4735   */\n      0x01\n        /* \"#utility.yul\":4731:4732   */\n      dup2\n        /* \"#utility.yul\":4727:4736   */\n      add\n        /* \"#utility.yul\":4722:4736   */\n      swap1\n      pop\n        /* \"#utility.yul\":4687:5031   */\n      jump(tag_212)\n    tag_214:\n        /* \"#utility.yul\":4691:4705   */\n      pop\n        /* \"#utility.yul\":5047:5050   */\n      dup6\n        /* \"#utility.yul\":5040:5050   */\n      swap4\n      pop\n        /* \"#utility.yul\":4338:5056   */\n      pop\n      pop\n      pop\n        /* \"#utility.yul\":4184:5056   */\n      swap3\n      swap2\n      pop\n      pop\n      jump\t// out\n        /* \"#utility.yul\":5110:6161   */\n    tag_218:\n        /* \"#utility.yul\":5259:5262   */\n      0x00\n        /* \"#utility.yul\":5288:5362   */\n      tag_220\n        /* \"#utility.yul\":5356:5361   */\n      dup3\n        /* \"#utility.yul\":5288:5362   */\n      tag_221\n      jump\t// in\n    tag_220:\n        /* \"#utility.yul\":5378:5474   */\n      tag_222\n        /* \"#utility.yul\":5467:5473   */\n      dup2\n        /* \"#utility.yul\":5462:5465   */\n      dup6\n        /* \"#utility.yul\":5378:5474   */\n      tag_223\n      jump\t// in\n    tag_222:\n        /* \"#utility.yul\":5371:5474   */\n      swap4\n      pop\n        /* \"#utility.yul\":5500:5503   */\n      dup4\n        /* \"#utility.yul\":5545:5549   */\n      0x20\n        /* \"#utility.yul\":5537:5543   */\n      dup3\n        /* \"#utility.yul\":5533:5550   */\n      mul\n        /* \"#utility.yul\":5528:5531   */\n      dup6\n        /* \"#utility.yul\":5524:5551   */\n      add\n        /* \"#utility.yul\":5575:5651   */\n      tag_224\n        /* \"#utility.yul\":5645:5650   */\n      dup6\n        /* \"#utility.yul\":5575:5651   */\n      tag_225\n      jump\t// in\n    tag_224:\n        /* \"#utility.yul\":5674:5681   */\n      dup1\n        /* \"#utility.yul\":5705:5706   */\n      0x00\n        /* \"#utility.yul\":5690:6116   */\n    tag_226:\n        /* \"#utility.yul\":5715:5721   */\n      dup6\n        /* \"#utility.yul\":5712:5713   */\n      dup2\n        /* \"#utility.yul\":5709:5722   */\n      lt\n        /* \"#utility.yul\":5690:6116   */\n      iszero\n      tag_228\n      jumpi\n        /* \"#utility.yul\":5786:5795   */\n      dup5\n        /* \"#utility.yul\":5780:5784   */\n      dup5\n        /* \"#utility.yul\":5776:5796   */\n      sub\n        /* \"#utility.yul\":5771:5774   */\n      dup10\n        /* \"#utility.yul\":5764:5797   */\n      mstore\n        /* \"#utility.yul\":5837:5843   */\n      dup2\n        /* \"#utility.yul\":5831:5844   */\n      mload\n        /* \"#utility.yul\":5865:5969   */\n      tag_229\n        /* \"#utility.yul\":5964:5968   */\n      dup6\n        /* \"#utility.yul\":5949:5962   */\n      dup3\n        /* \"#utility.yul\":5865:5969   */\n      tag_180\n      jump\t// in\n    tag_229:\n        /* \"#utility.yul\":5857:5969   */\n      swap5\n      pop\n        /* \"#utility.yul\":5992:6072   */\n      tag_230\n        /* \"#utility.yul\":6065:6071   */\n      dup4\n        /* \"#utility.yul\":5992:6072   */\n      tag_231\n      jump\t// in\n    tag_230:\n        /* \"#utility.yul\":5982:6072   */\n      swap3\n      pop\n        /* \"#utility.yul\":6101:6105   */\n      0x20\n        /* \"#utility.yul\":6096:6099   */\n      dup11\n        /* \"#utility.yul\":6092:6106   */\n      add\n        /* \"#utility.yul\":6085:6106   */\n      swap10\n      pop\n        /* \"#utility.yul\":5750:6116   */\n      pop\n        /* \"#utility.yul\":5737:5738   */\n      0x01\n        /* \"#utility.yul\":5734:5735   */\n      dup2\n        /* \"#utility.yul\":5730:5739   */\n      add\n        /* \"#utility.yul\":5725:5739   */\n      swap1\n      pop\n        /* \"#utility.yul\":5690:6116   */\n      jump(tag_226)\n    tag_228:\n        /* \"#utility.yul\":5694:5708   */\n      pop\n        /* \"#utility.yul\":6132:6136   */\n      dup3\n        /* \"#utility.yul\":6125:6136   */\n      swap8\n      pop\n        /* \"#utility.yul\":6152:6155   */\n      dup8\n        /* \"#utility.yul\":6145:6155   */\n      swap6\n      pop\n        /* \"#utility.yul\":5264:6161   */\n      pop\n      pop\n      pop\n      pop\n      pop\n        /* \"#utility.yul\":5110:6161   */\n      swap3\n      swap2\n      pop\n      pop\n      jump\t// out\n        /* \"#utility.yul\":6221:7137   */\n    tag_232:\n        /* \"#utility.yul\":6386:6389   */\n      0x00\n        /* \"#utility.yul\":6415:6492   */\n      tag_234\n        /* \"#utility.yul\":6486:6491   */\n      dup3\n        /* \"#utility.yul\":6415:6492   */\n      tag_235\n      jump\t// in\n    tag_234:\n        /* \"#utility.yul\":6508:6617   */\n      tag_236\n        /* \"#utility.yul\":6610:6616   */\n      dup2\n        /* \"#utility.yul\":6605:6608   */\n      dup6\n        /* \"#utility.yul\":6508:6617   */\n      tag_237\n      jump\t// in\n    tag_236:\n        /* \"#utility.yul\":6501:6617   */\n      swap4\n      pop\n        /* \"#utility.yul\":6641:6720   */\n      tag_238\n        /* \"#utility.yul\":6714:6719   */\n      dup4\n        /* \"#utility.yul\":6641:6720   */\n      tag_239\n      jump\t// in\n    tag_238:\n        /* \"#utility.yul\":6743:6750   */\n      dup1\n        /* \"#utility.yul\":6774:6775   */\n      0x00\n        /* \"#utility.yul\":6759:7112   */\n    tag_240:\n        /* \"#utility.yul\":6784:6790   */\n      dup4\n        /* \"#utility.yul\":6781:6782   */\n      dup2\n        /* \"#utility.yul\":6778:6791   */\n      lt\n        /* \"#utility.yul\":6759:7112   */\n      iszero\n      tag_242\n      jumpi\n        /* \"#utility.yul\":6860:6866   */\n      dup2\n        /* \"#utility.yul\":6854:6867   */\n      mload\n        /* \"#utility.yul\":6887:6996   */\n      tag_243\n        /* \"#utility.yul\":6992:6995   */\n      dup9\n        /* \"#utility.yul\":6977:6990   */\n      dup3\n        /* \"#utility.yul\":6887:6996   */\n      tag_184\n      jump\t// in\n    tag_243:\n        /* \"#utility.yul\":6880:6996   */\n      swap8\n      pop\n        /* \"#utility.yul\":7019:7102   */\n      tag_244\n        /* \"#utility.yul\":7095:7101   */\n      dup4\n        /* \"#utility.yul\":7019:7102   */\n      tag_245\n      jump\t// in\n    tag_244:\n        /* \"#utility.yul\":7009:7102   */\n      swap3\n      pop\n        /* \"#utility.yul\":6819:7112   */\n      pop\n        /* \"#utility.yul\":6806:6807   */\n      0x01\n        /* \"#utility.yul\":6803:6804   */\n      dup2\n        /* \"#utility.yul\":6799:6808   */\n      add\n        /* \"#utility.yul\":6794:6808   */\n      swap1\n      pop\n        /* \"#utility.yul\":6759:7112   */\n      jump(tag_240)\n    tag_242:\n        /* \"#utility.yul\":6763:6777   */\n      pop\n        /* \"#utility.yul\":7128:7131   */\n      dup6\n        /* \"#utility.yul\":7121:7131   */\n      swap4\n      pop\n        /* \"#utility.yul\":6391:7137   */\n      pop\n      pop\n      pop\n        /* \"#utility.yul\":6221:7137   */\n      swap3\n      swap2\n      pop\n      pop\n      jump\t// out\n        /* \"#utility.yul\":7191:8262   */\n    tag_246:\n        /* \"#utility.yul\":7350:7353   */\n      0x00\n        /* \"#utility.yul\":7379:7453   */\n      tag_248\n        /* \"#utility.yul\":7447:7452   */\n      dup3\n        /* \"#utility.yul\":7379:7453   */\n      tag_249\n      jump\t// in\n    tag_248:\n        /* \"#utility.yul\":7469:7575   */\n      tag_250\n        /* \"#utility.yul\":7568:7574   */\n      dup2\n        /* \"#utility.yul\":7563:7566   */\n      dup6\n        /* \"#utility.yul\":7469:7575   */\n      tag_251\n      jump\t// in\n    tag_250:\n        /* \"#utility.yul\":7462:7575   */\n      swap4\n      pop\n        /* \"#utility.yul\":7601:7604   */\n      dup4\n        /* \"#utility.yul\":7646:7650   */\n      0x20\n        /* \"#utility.yul\":7638:7644   */\n      dup3\n        /* \"#utility.yul\":7634:7651   */\n      mul\n        /* \"#utility.yul\":7629:7632   */\n      dup6\n        /* \"#utility.yul\":7625:7652   */\n      add\n        /* \"#utility.yul\":7676:7752   */\n      tag_252\n        /* \"#utility.yul\":7746:7751   */\n      dup6\n        /* \"#utility.yul\":7676:7752   */\n      tag_253\n      jump\t// in\n    tag_252:\n        /* \"#utility.yul\":7775:7782   */\n      dup1\n        /* \"#utility.yul\":7806:7807   */\n      0x00\n        /* \"#utility.yul\":7791:8217   */\n    tag_254:\n        /* \"#utility.yul\":7816:7822   */\n      dup6\n        /* \"#utility.yul\":7813:7814   */\n      dup2\n        /* \"#utility.yul\":7810:7823   */\n      lt\n        /* \"#utility.yul\":7791:8217   */\n      iszero\n      tag_256\n      jumpi\n        /* \"#utility.yul\":7887:7896   */\n      dup5\n        /* \"#utility.yul\":7881:7885   */\n      dup5\n        /* \"#utility.yul\":7877:7897   */\n      sub\n        /* \"#utility.yul\":7872:7875   */\n      dup10\n        /* \"#utility.yul\":7865:7898   */\n      mstore\n        /* \"#utility.yul\":7938:7944   */\n      dup2\n        /* \"#utility.yul\":7932:7945   */\n      mload\n        /* \"#utility.yul\":7966:8070   */\n      tag_257\n        /* \"#utility.yul\":8065:8069   */\n      dup6\n        /* \"#utility.yul\":8050:8063   */\n      dup3\n        /* \"#utility.yul\":7966:8070   */\n      tag_188\n      jump\t// in\n    tag_257:\n        /* \"#utility.yul\":7958:8070   */\n      swap5\n      pop\n        /* \"#utility.yul\":8093:8173   */\n      tag_258\n        /* \"#utility.yul\":8166:8172   */\n      dup4\n        /* \"#utility.yul\":8093:8173   */\n      tag_259\n      jump\t// in\n    tag_258:\n        /* \"#utility.yul\":8083:8173   */\n      swap3\n      pop\n        /* \"#utility.yul\":8202:8206   */\n      0x20\n        /* \"#utility.yul\":8197:8200   */\n      dup11\n        /* \"#utility.yul\":8193:8207   */\n      add\n        /* \"#utility.yul\":8186:8207   */\n      swap10\n      pop\n        /* \"#utility.yul\":7851:8217   */\n      pop\n        /* \"#utility.yul\":7838:7839   */\n      0x01\n        /* \"#utility.yul\":7835:7836   */\n      dup2\n        /* \"#utility.yul\":7831:7840   */\n      add\n        /* \"#utility.yul\":7826:7840   */\n      swap1\n      pop\n        /* \"#utility.yul\":7791:8217   */\n      jump(tag_254)\n    tag_256:\n        /* \"#utility.yul\":7795:7809   */\n      pop\n        /* \"#utility.yul\":8233:8237   */\n      dup3\n        /* \"#utility.yul\":8226:8237   */\n      swap8\n      pop\n        /* \"#utility.yul\":8253:8256   */\n      dup8\n        /* \"#utility.yul\":8246:8256   */\n      swap6\n      pop\n        /* \"#utility.yul\":7355:8262   */\n      pop\n      pop\n      pop\n      pop\n      pop\n        /* \"#utility.yul\":7191:8262   */\n      swap3\n      swap2\n      pop\n      pop\n      jump\t// out\n        /* \"#utility.yul\":8316:9200   */\n    tag_260:\n        /* \"#utility.yul\":8473:8476   */\n      0x00\n        /* \"#utility.yul\":8502:8575   */\n      tag_262\n        /* \"#utility.yul\":8569:8574   */\n      dup3\n        /* \"#utility.yul\":8502:8575   */\n      tag_263\n      jump\t// in\n    tag_262:\n        /* \"#utility.yul\":8591:8696   */\n      tag_264\n        /* \"#utility.yul\":8689:8695   */\n      dup2\n        /* \"#utility.yul\":8684:8687   */\n      dup6\n        /* \"#utility.yul\":8591:8696   */\n      tag_265\n      jump\t// in\n    tag_264:\n        /* \"#utility.yul\":8584:8696   */\n      swap4\n      pop\n        /* \"#utility.yul\":8720:8795   */\n      tag_266\n        /* \"#utility.yul\":8789:8794   */\n      dup4\n        /* \"#utility.yul\":8720:8795   */\n      tag_267\n      jump\t// in\n    tag_266:\n        /* \"#utility.yul\":8818:8825   */\n      dup1\n        /* \"#utility.yul\":8849:8850   */\n      0x00\n        /* \"#utility.yul\":8834:9175   */\n    tag_268:\n        /* \"#utility.yul\":8859:8865   */\n      dup4\n        /* \"#utility.yul\":8856:8857   */\n      dup2\n        /* \"#utility.yul\":8853:8866   */\n      lt\n        /* \"#utility.yul\":8834:9175   */\n      iszero\n      tag_270\n      jumpi\n        /* \"#utility.yul\":8935:8941   */\n      dup2\n        /* \"#utility.yul\":8929:8942   */\n      mload\n        /* \"#utility.yul\":8962:9063   */\n      tag_271\n        /* \"#utility.yul\":9059:9062   */\n      dup9\n        /* \"#utility.yul\":9044:9057   */\n      dup3\n        /* \"#utility.yul\":8962:9063   */\n      tag_192\n      jump\t// in\n    tag_271:\n        /* \"#utility.yul\":8955:9063   */\n      swap8\n      pop\n        /* \"#utility.yul\":9086:9165   */\n      tag_272\n        /* \"#utility.yul\":9158:9164   */\n      dup4\n        /* \"#utility.yul\":9086:9165   */\n      tag_273\n      jump\t// in\n    tag_272:\n        /* \"#utility.yul\":9076:9165   */\n      swap3\n      pop\n        /* \"#utility.yul\":8894:9175   */\n      pop\n        /* \"#utility.yul\":8881:8882   */\n      0x01\n        /* \"#utility.yul\":8878:8879   */\n      dup2\n        /* \"#utility.yul\":8874:8883   */\n      add\n        /* \"#utility.yul\":8869:8883   */\n      swap1\n      pop\n        /* \"#utility.yul\":8834:9175   */\n      jump(tag_268)\n    tag_270:\n        /* \"#utility.yul\":8838:8852   */\n      pop\n        /* \"#utility.yul\":9191:9194   */\n      dup6\n        /* \"#utility.yul\":9184:9194   */\n      swap4\n      pop\n        /* \"#utility.yul\":8478:9200   */\n      pop\n      pop\n      pop\n        /* \"#utility.yul\":8316:9200   */\n      swap3\n      swap2\n      pop\n      pop\n      jump\t// out\n        /* \"#utility.yul\":9236:9948   */\n    tag_274:\n        /* \"#utility.yul\":9345:9348   */\n      0x00\n        /* \"#utility.yul\":9374:9428   */\n      tag_276\n        /* \"#utility.yul\":9422:9427   */\n      dup3\n        /* \"#utility.yul\":9374:9428   */\n      tag_277\n      jump\t// in\n    tag_276:\n        /* \"#utility.yul\":9444:9520   */\n      tag_278\n        /* \"#utility.yul\":9513:9519   */\n      dup2\n        /* \"#utility.yul\":9508:9511   */\n      dup6\n        /* \"#utility.yul\":9444:9520   */\n      tag_279\n      jump\t// in\n    tag_278:\n        /* \"#utility.yul\":9437:9520   */\n      swap4\n      pop\n        /* \"#utility.yul\":9544:9600   */\n      tag_280\n        /* \"#utility.yul\":9594:9599   */\n      dup4\n        /* \"#utility.yul\":9544:9600   */\n      tag_281\n      jump\t// in\n    tag_280:\n        /* \"#utility.yul\":9623:9630   */\n      dup1\n        /* \"#utility.yul\":9654:9655   */\n      0x00\n        /* \"#utility.yul\":9639:9923   */\n    tag_282:\n        /* \"#utility.yul\":9664:9670   */\n      dup4\n        /* \"#utility.yul\":9661:9662   */\n      dup2\n        /* \"#utility.yul\":9658:9671   */\n      lt\n        /* \"#utility.yul\":9639:9923   */\n      iszero\n      tag_284\n      jumpi\n        /* \"#utility.yul\":9740:9746   */\n      dup2\n        /* \"#utility.yul\":9734:9747   */\n      mload\n        /* \"#utility.yul\":9767:9830   */\n      tag_285\n        /* \"#utility.yul\":9826:9829   */\n      dup9\n        /* \"#utility.yul\":9811:9824   */\n      dup3\n        /* \"#utility.yul\":9767:9830   */\n      tag_196\n      jump\t// in\n    tag_285:\n        /* \"#utility.yul\":9760:9830   */\n      swap8\n      pop\n        /* \"#utility.yul\":9853:9913   */\n      tag_286\n        /* \"#utility.yul\":9906:9912   */\n      dup4\n        /* \"#utility.yul\":9853:9913   */\n      tag_287\n      jump\t// in\n    tag_286:\n        /* \"#utility.yul\":9843:9913   */\n      swap3\n      pop\n        /* \"#utility.yul\":9699:9923   */\n      pop\n        /* \"#utility.yul\":9686:9687   */\n      0x01\n        /* \"#utility.yul\":9683:9684   */\n      dup2\n        /* \"#utility.yul\":9679:9688   */\n      add\n        /* \"#utility.yul\":9674:9688   */\n      swap1\n      pop\n        /* \"#utility.yul\":9639:9923   */\n      jump(tag_282)\n    tag_284:\n        /* \"#utility.yul\":9643:9657   */\n      pop\n        /* \"#utility.yul\":9939:9942   */\n      dup6\n        /* \"#utility.yul\":9932:9942   */\n      swap4\n      pop\n        /* \"#utility.yul\":9350:9948   */\n      pop\n      pop\n      pop\n        /* \"#utility.yul\":9236:9948   */\n      swap3\n      swap2\n      pop\n      pop\n      jump\t// out\n        /* \"#utility.yul\":9954:10053   */\n    tag_288:\n        /* \"#utility.yul\":10025:10046   */\n      tag_290\n        /* \"#utility.yul\":10040:10045   */\n      dup2\n        /* \"#utility.yul\":10025:10046   */\n      tag_291\n      jump\t// in\n    tag_290:\n        /* \"#utility.yul\":10020:10023   */\n      dup3\n        /* \"#utility.yul\":10013:10047   */\n      mstore\n        /* \"#utility.yul\":9954:10053   */\n      pop\n      pop\n      jump\t// out\n        /* \"#utility.yul\":10059:10403   */\n    tag_292:\n        /* \"#utility.yul\":10137:10140   */\n      0x00\n        /* \"#utility.yul\":10165:10204   */\n      tag_294\n        /* \"#utility.yul\":10198:10203   */\n      dup3\n        /* \"#utility.yul\":10165:10204   */\n      tag_295\n      jump\t// in\n    tag_294:\n        /* \"#utility.yul\":10220:10281   */\n      tag_296\n        /* \"#utility.yul\":10274:10280   */\n      dup2\n        /* \"#utility.yul\":10269:10272   */\n      dup6\n        /* \"#utility.yul\":10220:10281   */\n      tag_297\n      jump\t// in\n    tag_296:\n        /* \"#utility.yul\":10213:10281   */\n      swap4\n      pop\n        /* \"#utility.yul\":10290:10342   */\n      tag_298\n        /* \"#utility.yul\":10335:10341   */\n      dup2\n        /* \"#utility.yul\":10330:10333   */\n      dup6\n        /* \"#utility.yul\":10323:10327   */\n      0x20\n        /* \"#utility.yul\":10316:10321   */\n      dup7\n        /* \"#utility.yul\":10312:10328   */\n      add\n        /* \"#utility.yul\":10290:10342   */\n      tag_299\n      jump\t// in\n    tag_298:\n        /* \"#utility.yul\":10367:10396   */\n      tag_300\n        /* \"#utility.yul\":10389:10395   */\n      dup2\n        /* \"#utility.yul\":10367:10396   */\n      tag_301\n      jump\t// in\n    tag_300:\n        /* \"#utility.yul\":10362:10365   */\n      dup5\n        /* \"#utility.yul\":10358:10397   */\n      add\n        /* \"#utility.yul\":10351:10397   */\n      swap2\n      pop\n        /* \"#utility.yul\":10141:10403   */\n      pop\n        /* \"#utility.yul\":10059:10403   */\n      swap3\n      swap2\n      pop\n      pop\n      jump\t// out\n        /* \"#utility.yul\":10409:10775   */\n    tag_302:\n        /* \"#utility.yul\":10551:10554   */\n      0x00\n        /* \"#utility.yul\":10572:10639   */\n      tag_304\n        /* \"#utility.yul\":10636:10638   */\n      0x16\n        /* \"#utility.yul\":10631:10634   */\n      dup4\n        /* \"#utility.yul\":10572:10639   */\n      tag_305\n      jump\t// in\n    tag_304:\n        /* \"#utility.yul\":10565:10639   */\n      swap2\n      pop\n        /* \"#utility.yul\":10648:10741   */\n      tag_306\n        /* \"#utility.yul\":10737:10740   */\n      dup3\n        /* \"#utility.yul\":10648:10741   */\n      tag_307\n      jump\t// in\n    tag_306:\n        /* \"#utility.yul\":10766:10768   */\n      0x20\n        /* \"#utility.yul\":10761:10764   */\n      dup3\n        /* \"#utility.yul\":10757:10769   */\n      add\n        /* \"#utility.yul\":10750:10769   */\n      swap1\n      pop\n        /* \"#utility.yul\":10409:10775   */\n      swap2\n      swap1\n      pop\n      jump\t// out\n        /* \"#utility.yul\":10781:11147   */\n    tag_308:\n        /* \"#utility.yul\":10923:10926   */\n      0x00\n        /* \"#utility.yul\":10944:11011   */\n      tag_310\n        /* \"#utility.yul\":11008:11010   */\n      0x15\n        /* \"#utility.yul\":11003:11006   */\n      dup4\n        /* \"#utility.yul\":10944:11011   */\n      tag_305\n      jump\t// in\n    tag_310:\n        /* \"#utility.yul\":10937:11011   */\n      swap2\n      pop\n        /* \"#utility.yul\":11020:11113   */\n      tag_311\n        /* \"#utility.yul\":11109:11112   */\n      dup3\n        /* \"#utility.yul\":11020:11113   */\n      tag_312\n      jump\t// in\n    tag_311:\n        /* \"#utility.yul\":11138:11140   */\n      0x20\n        /* \"#utility.yul\":11133:11136   */\n      dup3\n        /* \"#utility.yul\":11129:11141   */\n      add\n        /* \"#utility.yul\":11122:11141   */\n      swap1\n      pop\n        /* \"#utility.yul\":10781:11147   */\n      swap2\n      swap1\n      pop\n      jump\t// out\n        /* \"#utility.yul\":11153:11519   */\n    tag_313:\n        /* \"#utility.yul\":11295:11298   */\n      0x00\n        /* \"#utility.yul\":11316:11383   */\n      tag_315\n        /* \"#utility.yul\":11380:11382   */\n      0x0c\n        /* \"#utility.yul\":11375:11378   */\n      dup4\n        /* \"#utility.yul\":11316:11383   */\n      tag_305\n      jump\t// in\n    tag_315:\n        /* \"#utility.yul\":11309:11383   */\n      swap2\n      pop\n        /* \"#utility.yul\":11392:11485   */\n      tag_316\n        /* \"#utility.yul\":11481:11484   */\n      dup3\n        /* \"#utility.yul\":11392:11485   */\n      tag_317\n      jump\t// in\n    tag_316:\n        /* \"#utility.yul\":11510:11512   */\n      0x20\n        /* \"#utility.yul\":11505:11508   */\n      dup3\n        /* \"#utility.yul\":11501:11513   */\n      add\n        /* \"#utility.yul\":11494:11513   */\n      swap1\n      pop\n        /* \"#utility.yul\":11153:11519   */\n      swap2\n      swap1\n      pop\n      jump\t// out\n        /* \"#utility.yul\":11569:12058   */\n    tag_179:\n        /* \"#utility.yul\":11696:11700   */\n      0x40\n        /* \"#utility.yul\":11691:11694   */\n      dup3\n        /* \"#utility.yul\":11687:11701   */\n      add\n        /* \"#utility.yul\":11788:11792   */\n      0x00\n        /* \"#utility.yul\":11781:11786   */\n      dup3\n        /* \"#utility.yul\":11777:11793   */\n      add\n        /* \"#utility.yul\":11771:11794   */\n      mload\n        /* \"#utility.yul\":11807:11870   */\n      tag_319\n        /* \"#utility.yul\":11864:11868   */\n      0x00\n        /* \"#utility.yul\":11859:11862   */\n      dup6\n        /* \"#utility.yul\":11855:11869   */\n      add\n        /* \"#utility.yul\":11841:11853   */\n      dup3\n        /* \"#utility.yul\":11807:11870   */\n      tag_200\n      jump\t// in\n    tag_319:\n        /* \"#utility.yul\":11711:11880   */\n      pop\n        /* \"#utility.yul\":11965:11969   */\n      0x20\n        /* \"#utility.yul\":11958:11963   */\n      dup3\n        /* \"#utility.yul\":11954:11970   */\n      add\n        /* \"#utility.yul\":11948:11971   */\n      mload\n        /* \"#utility.yul\":11984:12041   */\n      tag_320\n        /* \"#utility.yul\":12035:12039   */\n      0x20\n        /* \"#utility.yul\":12030:12033   */\n      dup6\n        /* \"#utility.yul\":12026:12040   */\n      add\n        /* \"#utility.yul\":12012:12024   */\n      dup3\n        /* \"#utility.yul\":11984:12041   */\n      tag_288\n      jump\t// in\n    tag_320:\n        /* \"#utility.yul\":11890:12051   */\n      pop\n        /* \"#utility.yul\":11665:12058   */\n      pop\n        /* \"#utility.yul\":11569:12058   */\n      pop\n      pop\n      jump\t// out\n        /* \"#utility.yul\":12108:13198   */\n    tag_183:\n        /* \"#utility.yul\":12207:12210   */\n      0x00\n        /* \"#utility.yul\":12243:12247   */\n      0x80\n        /* \"#utility.yul\":12238:12241   */\n      dup4\n        /* \"#utility.yul\":12234:12248   */\n      add\n        /* \"#utility.yul\":12335:12339   */\n      0x00\n        /* \"#utility.yul\":12328:12333   */\n      dup4\n        /* \"#utility.yul\":12324:12340   */\n      add\n        /* \"#utility.yul\":12318:12341   */\n      mload\n        /* \"#utility.yul\":12354:12417   */\n      tag_322\n        /* \"#utility.yul\":12411:12415   */\n      0x00\n        /* \"#utility.yul\":12406:12409   */\n      dup7\n        /* \"#utility.yul\":12402:12416   */\n      add\n        /* \"#utility.yul\":12388:12400   */\n      dup3\n        /* \"#utility.yul\":12354:12417   */\n      tag_200\n      jump\t// in\n    tag_322:\n        /* \"#utility.yul\":12258:12427   */\n      pop\n        /* \"#utility.yul\":12511:12515   */\n      0x20\n        /* \"#utility.yul\":12504:12509   */\n      dup4\n        /* \"#utility.yul\":12500:12516   */\n      add\n        /* \"#utility.yul\":12494:12517   */\n      mload\n        /* \"#utility.yul\":12530:12593   */\n      tag_323\n        /* \"#utility.yul\":12587:12591   */\n      0x20\n        /* \"#utility.yul\":12582:12585   */\n      dup7\n        /* \"#utility.yul\":12578:12592   */\n      add\n        /* \"#utility.yul\":12564:12576   */\n      dup3\n        /* \"#utility.yul\":12530:12593   */\n      tag_199\n      jump\t// in\n    tag_323:\n        /* \"#utility.yul\":12437:12603   */\n      pop\n        /* \"#utility.yul\":12686:12690   */\n      0x40\n        /* \"#utility.yul\":12679:12684   */\n      dup4\n        /* \"#utility.yul\":12675:12691   */\n      add\n        /* \"#utility.yul\":12669:12692   */\n      mload\n        /* \"#utility.yul\":12739:12742   */\n      dup5\n        /* \"#utility.yul\":12733:12737   */\n      dup3\n        /* \"#utility.yul\":12729:12743   */\n      sub\n        /* \"#utility.yul\":12722:12726   */\n      0x40\n        /* \"#utility.yul\":12717:12720   */\n      dup7\n        /* \"#utility.yul\":12713:12727   */\n      add\n        /* \"#utility.yul\":12706:12744   */\n      mstore\n        /* \"#utility.yul\":12765:12908   */\n      tag_324\n        /* \"#utility.yul\":12903:12907   */\n      dup3\n        /* \"#utility.yul\":12889:12901   */\n      dup3\n        /* \"#utility.yul\":12765:12908   */\n      tag_204\n      jump\t// in\n    tag_324:\n        /* \"#utility.yul\":12757:12908   */\n      swap2\n      pop\n        /* \"#utility.yul\":12613:12919   */\n      pop\n        /* \"#utility.yul\":13008:13012   */\n      0x60\n        /* \"#utility.yul\":13001:13006   */\n      dup4\n        /* \"#utility.yul\":12997:13013   */\n      add\n        /* \"#utility.yul\":12991:13014   */\n      mload\n        /* \"#utility.yul\":13061:13064   */\n      dup5\n        /* \"#utility.yul\":13055:13059   */\n      dup3\n        /* \"#utility.yul\":13051:13065   */\n      sub\n        /* \"#utility.yul\":13044:13048   */\n      0x60\n        /* \"#utility.yul\":13039:13042   */\n      dup7\n        /* \"#utility.yul\":13035:13049   */\n      add\n        /* \"#utility.yul\":13028:13066   */\n      mstore\n        /* \"#utility.yul\":13087:13160   */\n      tag_325\n        /* \"#utility.yul\":13155:13159   */\n      dup3\n        /* \"#utility.yul\":13141:13153   */\n      dup3\n        /* \"#utility.yul\":13087:13160   */\n      tag_292\n      jump\t// in\n    tag_325:\n        /* \"#utility.yul\":13079:13160   */\n      swap2\n      pop\n        /* \"#utility.yul\":12929:13171   */\n      pop\n        /* \"#utility.yul\":13188:13192   */\n      dup1\n        /* \"#utility.yul\":13181:13192   */\n      swap2\n      pop\n        /* \"#utility.yul\":12212:13198   */\n      pop\n        /* \"#utility.yul\":12108:13198   */\n      swap3\n      swap2\n      pop\n      pop\n      jump\t// out\n        /* \"#utility.yul\":13254:13748   */\n    tag_187:\n        /* \"#utility.yul\":13387:13391   */\n      0x40\n        /* \"#utility.yul\":13382:13385   */\n      dup3\n        /* \"#utility.yul\":13378:13392   */\n      add\n        /* \"#utility.yul\":13479:13483   */\n      0x00\n        /* \"#utility.yul\":13472:13477   */\n      dup3\n        /* \"#utility.yul\":13468:13484   */\n      add\n        /* \"#utility.yul\":13462:13485   */\n      mload\n        /* \"#utility.yul\":13498:13561   */\n      tag_327\n        /* \"#utility.yul\":13555:13559   */\n      0x00\n        /* \"#utility.yul\":13550:13553   */\n      dup6\n        /* \"#utility.yul\":13546:13560   */\n      add\n        /* \"#utility.yul\":13532:13544   */\n      dup3\n        /* \"#utility.yul\":13498:13561   */\n      tag_200\n      jump\t// in\n    tag_327:\n        /* \"#utility.yul\":13402:13571   */\n      pop\n        /* \"#utility.yul\":13655:13659   */\n      0x20\n        /* \"#utility.yul\":13648:13653   */\n      dup3\n        /* \"#utility.yul\":13644:13660   */\n      add\n        /* \"#utility.yul\":13638:13661   */\n      mload\n        /* \"#utility.yul\":13674:13731   */\n      tag_328\n        /* \"#utility.yul\":13725:13729   */\n      0x20\n        /* \"#utility.yul\":13720:13723   */\n      dup6\n        /* \"#utility.yul\":13716:13730   */\n      add\n        /* \"#utility.yul\":13702:13714   */\n      dup3\n        /* \"#utility.yul\":13674:13731   */\n      tag_288\n      jump\t// in\n    tag_328:\n        /* \"#utility.yul\":13581:13741   */\n      pop\n        /* \"#utility.yul\":13356:13748   */\n      pop\n        /* \"#utility.yul\":13254:13748   */\n      pop\n      pop\n      jump\t// out\n        /* \"#utility.yul\":13798:14984   */\n    tag_191:\n        /* \"#utility.yul\":13897:13900   */\n      0x00\n        /* \"#utility.yul\":13933:13937   */\n      0x80\n        /* \"#utility.yul\":13928:13931   */\n      dup4\n        /* \"#utility.yul\":13924:13938   */\n      add\n        /* \"#utility.yul\":14020:14024   */\n      0x00\n        /* \"#utility.yul\":14013:14018   */\n      dup4\n        /* \"#utility.yul\":14009:14025   */\n      add\n        /* \"#utility.yul\":14003:14026   */\n      mload\n        /* \"#utility.yul\":14039:14102   */\n      tag_330\n        /* \"#utility.yul\":14096:14100   */\n      0x00\n        /* \"#utility.yul\":14091:14094   */\n      dup7\n        /* \"#utility.yul\":14087:14101   */\n      add\n        /* \"#utility.yul\":14073:14085   */\n      dup3\n        /* \"#utility.yul\":14039:14102   */\n      tag_200\n      jump\t// in\n    tag_330:\n        /* \"#utility.yul\":13948:14112   */\n      pop\n        /* \"#utility.yul\":14194:14198   */\n      0x20\n        /* \"#utility.yul\":14187:14192   */\n      dup4\n        /* \"#utility.yul\":14183:14199   */\n      add\n        /* \"#utility.yul\":14177:14200   */\n      mload\n        /* \"#utility.yul\":14247:14250   */\n      dup5\n        /* \"#utility.yul\":14241:14245   */\n      dup3\n        /* \"#utility.yul\":14237:14251   */\n      sub\n        /* \"#utility.yul\":14230:14234   */\n      0x20\n        /* \"#utility.yul\":14225:14228   */\n      dup7\n        /* \"#utility.yul\":14221:14235   */\n      add\n        /* \"#utility.yul\":14214:14252   */\n      mstore\n        /* \"#utility.yul\":14273:14346   */\n      tag_331\n        /* \"#utility.yul\":14341:14345   */\n      dup3\n        /* \"#utility.yul\":14327:14339   */\n      dup3\n        /* \"#utility.yul\":14273:14346   */\n      tag_292\n      jump\t// in\n    tag_331:\n        /* \"#utility.yul\":14265:14346   */\n      swap2\n      pop\n        /* \"#utility.yul\":14122:14357   */\n      pop\n        /* \"#utility.yul\":14446:14450   */\n      0x40\n        /* \"#utility.yul\":14439:14444   */\n      dup4\n        /* \"#utility.yul\":14435:14451   */\n      add\n        /* \"#utility.yul\":14429:14452   */\n      mload\n        /* \"#utility.yul\":14499:14502   */\n      dup5\n        /* \"#utility.yul\":14493:14497   */\n      dup3\n        /* \"#utility.yul\":14489:14503   */\n      sub\n        /* \"#utility.yul\":14482:14486   */\n      0x40\n        /* \"#utility.yul\":14477:14480   */\n      dup7\n        /* \"#utility.yul\":14473:14487   */\n      add\n        /* \"#utility.yul\":14466:14504   */\n      mstore\n        /* \"#utility.yul\":14525:14668   */\n      tag_332\n        /* \"#utility.yul\":14663:14667   */\n      dup3\n        /* \"#utility.yul\":14649:14661   */\n      dup3\n        /* \"#utility.yul\":14525:14668   */\n      tag_218\n      jump\t// in\n    tag_332:\n        /* \"#utility.yul\":14517:14668   */\n      swap2\n      pop\n        /* \"#utility.yul\":14367:14679   */\n      pop\n        /* \"#utility.yul\":14764:14768   */\n      0x60\n        /* \"#utility.yul\":14757:14762   */\n      dup4\n        /* \"#utility.yul\":14753:14769   */\n      add\n        /* \"#utility.yul\":14747:14770   */\n      mload\n        /* \"#utility.yul\":14817:14820   */\n      dup5\n        /* \"#utility.yul\":14811:14815   */\n      dup3\n        /* \"#utility.yul\":14807:14821   */\n      sub\n        /* \"#utility.yul\":14800:14804   */\n      0x60\n        /* \"#utility.yul\":14795:14798   */\n      dup7\n        /* \"#utility.yul\":14791:14805   */\n      add\n        /* \"#utility.yul\":14784:14822   */\n      mstore\n        /* \"#utility.yul\":14843:14946   */\n      tag_333\n        /* \"#utility.yul\":14941:14945   */\n      dup3\n        /* \"#utility.yul\":14927:14939   */\n      dup3\n        /* \"#utility.yul\":14843:14946   */\n      tag_274\n      jump\t// in\n    tag_333:\n        /* \"#utility.yul\":14835:14946   */\n      swap2\n      pop\n        /* \"#utility.yul\":14689:14957   */\n      pop\n        /* \"#utility.yul\":14974:14978   */\n      dup1\n        /* \"#utility.yul\":14967:14978   */\n      swap2\n      pop\n        /* \"#utility.yul\":13902:14984   */\n      pop\n        /* \"#utility.yul\":13798:14984   */\n      swap3\n      swap2\n      pop\n      pop\n      jump\t// out\n        /* \"#utility.yul\":15034:15519   */\n    tag_195:\n        /* \"#utility.yul\":15159:15163   */\n      0x40\n        /* \"#utility.yul\":15154:15157   */\n      dup3\n        /* \"#utility.yul\":15150:15164   */\n      add\n        /* \"#utility.yul\":15246:15250   */\n      0x00\n        /* \"#utility.yul\":15239:15244   */\n      dup3\n        /* \"#utility.yul\":15235:15251   */\n      add\n        /* \"#utility.yul\":15229:15252   */\n      mload\n        /* \"#utility.yul\":15265:15328   */\n      tag_335\n        /* \"#utility.yul\":15322:15326   */\n      0x00\n        /* \"#utility.yul\":15317:15320   */\n      dup6\n        /* \"#utility.yul\":15313:15327   */\n      add\n        /* \"#utility.yul\":15299:15311   */\n      dup3\n        /* \"#utility.yul\":15265:15328   */\n      tag_200\n      jump\t// in\n    tag_335:\n        /* \"#utility.yul\":15174:15338   */\n      pop\n        /* \"#utility.yul\":15420:15424   */\n      0x20\n        /* \"#utility.yul\":15413:15418   */\n      dup3\n        /* \"#utility.yul\":15409:15425   */\n      add\n        /* \"#utility.yul\":15403:15426   */\n      mload\n        /* \"#utility.yul\":15439:15502   */\n      tag_336\n        /* \"#utility.yul\":15496:15500   */\n      0x20\n        /* \"#utility.yul\":15491:15494   */\n      dup6\n        /* \"#utility.yul\":15487:15501   */\n      add\n        /* \"#utility.yul\":15473:15485   */\n      dup3\n        /* \"#utility.yul\":15439:15502   */\n      tag_199\n      jump\t// in\n    tag_336:\n        /* \"#utility.yul\":15348:15512   */\n      pop\n        /* \"#utility.yul\":15128:15519   */\n      pop\n        /* \"#utility.yul\":15034:15519   */\n      pop\n      pop\n      jump\t// out\n        /* \"#utility.yul\":15525:15633   */\n    tag_199:\n        /* \"#utility.yul\":15602:15626   */\n      tag_338\n        /* \"#utility.yul\":15620:15625   */\n      dup2\n        /* \"#utility.yul\":15602:15626   */\n      tag_339\n      jump\t// in\n    tag_338:\n        /* \"#utility.yul\":15597:15600   */\n      dup3\n        /* \"#utility.yul\":15590:15627   */\n      mstore\n        /* \"#utility.yul\":15525:15633   */\n      pop\n      pop\n      jump\t// out\n        /* \"#utility.yul\":15639:16104   */\n    tag_22:\n        /* \"#utility.yul\":15828:15832   */\n      0x00\n        /* \"#utility.yul\":15866:15868   */\n      0x20\n        /* \"#utility.yul\":15855:15864   */\n      dup3\n        /* \"#utility.yul\":15851:15869   */\n      add\n        /* \"#utility.yul\":15843:15869   */\n      swap1\n      pop\n        /* \"#utility.yul\":15915:15924   */\n      dup2\n        /* \"#utility.yul\":15909:15913   */\n      dup2\n        /* \"#utility.yul\":15905:15925   */\n      sub\n        /* \"#utility.yul\":15901:15902   */\n      0x00\n        /* \"#utility.yul\":15890:15899   */\n      dup4\n        /* \"#utility.yul\":15886:15903   */\n      add\n        /* \"#utility.yul\":15879:15926   */\n      mstore\n        /* \"#utility.yul\":15943:16097   */\n      tag_341\n        /* \"#utility.yul\":16092:16096   */\n      dup2\n        /* \"#utility.yul\":16083:16089   */\n      dup5\n        /* \"#utility.yul\":15943:16097   */\n      tag_232\n      jump\t// in\n    tag_341:\n        /* \"#utility.yul\":15935:16097   */\n      swap1\n      pop\n        /* \"#utility.yul\":15639:16104   */\n      swap3\n      swap2\n      pop\n      pop\n      jump\t// out\n        /* \"#utility.yul\":16110:16563   */\n    tag_18:\n        /* \"#utility.yul\":16293:16297   */\n      0x00\n        /* \"#utility.yul\":16331:16333   */\n      0x20\n        /* \"#utility.yul\":16320:16329   */\n      dup3\n        /* \"#utility.yul\":16316:16334   */\n      add\n        /* \"#utility.yul\":16308:16334   */\n      swap1\n      pop\n        /* \"#utility.yul\":16380:16389   */\n      dup2\n        /* \"#utility.yul\":16374:16378   */\n      dup2\n        /* \"#utility.yul\":16370:16390   */\n      sub\n        /* \"#utility.yul\":16366:16367   */\n      0x00\n        /* \"#utility.yul\":16355:16364   */\n      dup4\n        /* \"#utility.yul\":16351:16368   */\n      add\n        /* \"#utility.yul\":16344:16391   */\n      mstore\n        /* \"#utility.yul\":16408:16556   */\n      tag_343\n        /* \"#utility.yul\":16551:16555   */\n      dup2\n        /* \"#utility.yul\":16542:16548   */\n      dup5\n        /* \"#utility.yul\":16408:16556   */\n      tag_246\n      jump\t// in\n    tag_343:\n        /* \"#utility.yul\":16400:16556   */\n      swap1\n      pop\n        /* \"#utility.yul\":16110:16563   */\n      swap3\n      swap2\n      pop\n      pop\n      jump\t// out\n        /* \"#utility.yul\":16569:17018   */\n    tag_36:\n        /* \"#utility.yul\":16750:16754   */\n      0x00\n        /* \"#utility.yul\":16788:16790   */\n      0x20\n        /* \"#utility.yul\":16777:16786   */\n      dup3\n        /* \"#utility.yul\":16773:16791   */\n      add\n        /* \"#utility.yul\":16765:16791   */\n      swap1\n      pop\n        /* \"#utility.yul\":16837:16846   */\n      dup2\n        /* \"#utility.yul\":16831:16835   */\n      dup2\n        /* \"#utility.yul\":16827:16847   */\n      sub\n        /* \"#utility.yul\":16823:16824   */\n      0x00\n        /* \"#utility.yul\":16812:16821   */\n      dup4\n        /* \"#utility.yul\":16808:16825   */\n      add\n        /* \"#utility.yul\":16801:16848   */\n      mstore\n        /* \"#utility.yul\":16865:17011   */\n      tag_345\n        /* \"#utility.yul\":17006:17010   */\n      dup2\n        /* \"#utility.yul\":16997:17003   */\n      dup5\n        /* \"#utility.yul\":16865:17011   */\n      tag_260\n      jump\t// in\n    tag_345:\n        /* \"#utility.yul\":16857:17011   */\n      swap1\n      pop\n        /* \"#utility.yul\":16569:17018   */\n      swap3\n      swap2\n      pop\n      pop\n      jump\t// out\n        /* \"#utility.yul\":17024:17443   */\n    tag_111:\n        /* \"#utility.yul\":17190:17194   */\n      0x00\n        /* \"#utility.yul\":17228:17230   */\n      0x20\n        /* \"#utility.yul\":17217:17226   */\n      dup3\n        /* \"#utility.yul\":17213:17231   */\n      add\n        /* \"#utility.yul\":17205:17231   */\n      swap1\n      pop\n        /* \"#utility.yul\":17277:17286   */\n      dup2\n        /* \"#utility.yul\":17271:17275   */\n      dup2\n        /* \"#utility.yul\":17267:17287   */\n      sub\n        /* \"#utility.yul\":17263:17264   */\n      0x00\n        /* \"#utility.yul\":17252:17261   */\n      dup4\n        /* \"#utility.yul\":17248:17265   */\n      add\n        /* \"#utility.yul\":17241:17288   */\n      mstore\n        /* \"#utility.yul\":17305:17436   */\n      tag_347\n        /* \"#utility.yul\":17431:17435   */\n      dup2\n        /* \"#utility.yul\":17305:17436   */\n      tag_302\n      jump\t// in\n    tag_347:\n        /* \"#utility.yul\":17297:17436   */\n      swap1\n      pop\n        /* \"#utility.yul\":17024:17443   */\n      swap2\n      swap1\n      pop\n      jump\t// out\n        /* \"#utility.yul\":17449:17868   */\n    tag_106:\n        /* \"#utility.yul\":17615:17619   */\n      0x00\n        /* \"#utility.yul\":17653:17655   */\n      0x20\n        /* \"#utility.yul\":17642:17651   */\n      dup3\n        /* \"#utility.yul\":17638:17656   */\n      add\n        /* \"#utility.yul\":17630:17656   */\n      swap1\n      pop\n        /* \"#utility.yul\":17702:17711   */\n      dup2\n        /* \"#utility.yul\":17696:17700   */\n      dup2\n        /* \"#utility.yul\":17692:17712   */\n      sub\n        /* \"#utility.yul\":17688:17689   */\n      0x00\n        /* \"#utility.yul\":17677:17686   */\n      dup4\n        /* \"#utility.yul\":17673:17690   */\n      add\n        /* \"#utility.yul\":17666:17713   */\n      mstore\n        /* \"#utility.yul\":17730:17861   */\n      tag_349\n        /* \"#utility.yul\":17856:17860   */\n      dup2\n        /* \"#utility.yul\":17730:17861   */\n      tag_308\n      jump\t// in\n    tag_349:\n        /* \"#utility.yul\":17722:17861   */\n      swap1\n      pop\n        /* \"#utility.yul\":17449:17868   */\n      swap2\n      swap1\n      pop\n      jump\t// out\n        /* \"#utility.yul\":17874:18293   */\n    tag_47:\n        /* \"#utility.yul\":18040:18044   */\n      0x00\n        /* \"#utility.yul\":18078:18080   */\n      0x20\n        /* \"#utility.yul\":18067:18076   */\n      dup3\n        /* \"#utility.yul\":18063:18081   */\n      add\n        /* \"#utility.yul\":18055:18081   */\n      swap1\n      pop\n        /* \"#utility.yul\":18127:18136   */\n      dup2\n        /* \"#utility.yul\":18121:18125   */\n      dup2\n        /* \"#utility.yul\":18117:18137   */\n      sub\n        /* \"#utility.yul\":18113:18114   */\n      0x00\n        /* \"#utility.yul\":18102:18111   */\n      dup4\n        /* \"#utility.yul\":18098:18115   */\n      add\n        /* \"#utility.yul\":18091:18138   */\n      mstore\n        /* \"#utility.yul\":18155:18286   */\n      tag_351\n        /* \"#utility.yul\":18281:18285   */\n      dup2\n        /* \"#utility.yul\":18155:18286   */\n      tag_313\n      jump\t// in\n    tag_351:\n        /* \"#utility.yul\":18147:18286   */\n      swap1\n      pop\n        /* \"#utility.yul\":17874:18293   */\n      swap2\n      swap1\n      pop\n      jump\t// out\n        /* \"#utility.yul\":18299:18428   */\n    tag_138:\n        /* \"#utility.yul\":18333:18339   */\n      0x00\n        /* \"#utility.yul\":18360:18380   */\n      tag_353\n      tag_354\n      jump\t// in\n    tag_353:\n        /* \"#utility.yul\":18350:18380   */\n      swap1\n      pop\n        /* \"#utility.yul\":18389:18422   */\n      tag_355\n        /* \"#utility.yul\":18417:18421   */\n      dup3\n        /* \"#utility.yul\":18409:18415   */\n      dup3\n        /* \"#utility.yul\":18389:18422   */\n      tag_356\n      jump\t// in\n    tag_355:\n        /* \"#utility.yul\":18299:18428   */\n      swap2\n      swap1\n      pop\n      jump\t// out\n        /* \"#utility.yul\":18434:18509   */\n    tag_354:\n        /* \"#utility.yul\":18467:18473   */\n      0x00\n        /* \"#utility.yul\":18500:18502   */\n      0x40\n        /* \"#utility.yul\":18494:18503   */\n      mload\n        /* \"#utility.yul\":18484:18503   */\n      swap1\n      pop\n        /* \"#utility.yul\":18434:18509   */\n      swap1\n      jump\t// out\n        /* \"#utility.yul\":18515:18823   */\n    tag_137:\n        /* \"#utility.yul\":18577:18581   */\n      0x00\n        /* \"#utility.yul\":18667:18685   */\n      0xffffffffffffffff\n        /* \"#utility.yul\":18659:18665   */\n      dup3\n        /* \"#utility.yul\":18656:18686   */\n      gt\n        /* \"#utility.yul\":18653:18709   */\n      iszero\n      tag_359\n      jumpi\n        /* \"#utility.yul\":18689:18707   */\n      tag_360\n      tag_361\n      jump\t// in\n    tag_360:\n        /* \"#utility.yul\":18653:18709   */\n    tag_359:\n        /* \"#utility.yul\":18727:18756   */\n      tag_362\n        /* \"#utility.yul\":18749:18755   */\n      dup3\n        /* \"#utility.yul\":18727:18756   */\n      tag_301\n      jump\t// in\n    tag_362:\n        /* \"#utility.yul\":18719:18756   */\n      swap1\n      pop\n        /* \"#utility.yul\":18811:18815   */\n      0x20\n        /* \"#utility.yul\":18805:18809   */\n      dup2\n        /* \"#utility.yul\":18801:18816   */\n      add\n        /* \"#utility.yul\":18793:18816   */\n      swap1\n      pop\n        /* \"#utility.yul\":18515:18823   */\n      swap2\n      swap1\n      pop\n      jump\t// out\n        /* \"#utility.yul\":18829:18981   */\n    tag_211:\n        /* \"#utility.yul\":18916:18920   */\n      0x00\n        /* \"#utility.yul\":18939:18942   */\n      dup2\n        /* \"#utility.yul\":18931:18942   */\n      swap1\n      pop\n        /* \"#utility.yul\":18969:18973   */\n      0x20\n        /* \"#utility.yul\":18964:18967   */\n      dup3\n        /* \"#utility.yul\":18960:18974   */\n      add\n        /* \"#utility.yul\":18952:18974   */\n      swap1\n      pop\n        /* \"#utility.yul\":18829:18981   */\n      swap2\n      swap1\n      pop\n      jump\t// out\n        /* \"#utility.yul\":18987:19139   */\n    tag_225:\n        /* \"#utility.yul\":19074:19078   */\n      0x00\n        /* \"#utility.yul\":19097:19100   */\n      dup2\n        /* \"#utility.yul\":19089:19100   */\n      swap1\n      pop\n        /* \"#utility.yul\":19127:19131   */\n      0x20\n        /* \"#utility.yul\":19122:19125   */\n      dup3\n        /* \"#utility.yul\":19118:19132   */\n      add\n        /* \"#utility.yul\":19110:19132   */\n      swap1\n      pop\n        /* \"#utility.yul\":18987:19139   */\n      swap2\n      swap1\n      pop\n      jump\t// out\n        /* \"#utility.yul\":19145:19300   */\n    tag_239:\n        /* \"#utility.yul\":19235:19239   */\n      0x00\n        /* \"#utility.yul\":19258:19261   */\n      dup2\n        /* \"#utility.yul\":19250:19261   */\n      swap1\n      pop\n        /* \"#utility.yul\":19288:19292   */\n      0x20\n        /* \"#utility.yul\":19283:19286   */\n      dup3\n        /* \"#utility.yul\":19279:19293   */\n      add\n        /* \"#utility.yul\":19271:19293   */\n      swap1\n      pop\n        /* \"#utility.yul\":19145:19300   */\n      swap2\n      swap1\n      pop\n      jump\t// out\n        /* \"#utility.yul\":19306:19458   */\n    tag_253:\n        /* \"#utility.yul\":19393:19397   */\n      0x00\n        /* \"#utility.yul\":19416:19419   */\n      dup2\n        /* \"#utility.yul\":19408:19419   */\n      swap1\n      pop\n        /* \"#utility.yul\":19446:19450   */\n      0x20\n        /* \"#utility.yul\":19441:19444   */\n      dup3\n        /* \"#utility.yul\":19437:19451   */\n      add\n        /* \"#utility.yul\":19429:19451   */\n      swap1\n      pop\n        /* \"#utility.yul\":19306:19458   */\n      swap2\n      swap1\n      pop\n      jump\t// out\n        /* \"#utility.yul\":19464:19615   */\n    tag_267:\n        /* \"#utility.yul\":19550:19554   */\n      0x00\n        /* \"#utility.yul\":19573:19576   */\n      dup2\n        /* \"#utility.yul\":19565:19576   */\n      swap1\n      pop\n        /* \"#utility.yul\":19603:19607   */\n      0x20\n        /* \"#utility.yul\":19598:19601   */\n      dup3\n        /* \"#utility.yul\":19594:19608   */\n      add\n        /* \"#utility.yul\":19586:19608   */\n      swap1\n      pop\n        /* \"#utility.yul\":19464:19615   */\n      swap2\n      swap1\n      pop\n      jump\t// out\n        /* \"#utility.yul\":19621:19753   */\n    tag_281:\n        /* \"#utility.yul\":19688:19692   */\n      0x00\n        /* \"#utility.yul\":19711:19714   */\n      dup2\n        /* \"#utility.yul\":19703:19714   */\n      swap1\n      pop\n        /* \"#utility.yul\":19741:19745   */\n      0x20\n        /* \"#utility.yul\":19736:19739   */\n      dup3\n        /* \"#utility.yul\":19732:19746   */\n      add\n        /* \"#utility.yul\":19724:19746   */\n      swap1\n      pop\n        /* \"#utility.yul\":19621:19753   */\n      swap2\n      swap1\n      pop\n      jump\t// out\n        /* \"#utility.yul\":19759:19893   */\n    tag_207:\n        /* \"#utility.yul\":19846:19852   */\n      0x00\n        /* \"#utility.yul\":19880:19885   */\n      dup2\n        /* \"#utility.yul\":19874:19886   */\n      mload\n        /* \"#utility.yul\":19864:19886   */\n      swap1\n      pop\n        /* \"#utility.yul\":19759:19893   */\n      swap2\n      swap1\n      pop\n      jump\t// out\n        /* \"#utility.yul\":19899:20033   */\n    tag_221:\n        /* \"#utility.yul\":19986:19992   */\n      0x00\n        /* \"#utility.yul\":20020:20025   */\n      dup2\n        /* \"#utility.yul\":20014:20026   */\n      mload\n        /* \"#utility.yul\":20004:20026   */\n      swap1\n      pop\n        /* \"#utility.yul\":19899:20033   */\n      swap2\n      swap1\n      pop\n      jump\t// out\n        /* \"#utility.yul\":20039:20176   */\n    tag_235:\n        /* \"#utility.yul\":20129:20135   */\n      0x00\n        /* \"#utility.yul\":20163:20168   */\n      dup2\n        /* \"#utility.yul\":20157:20169   */\n      mload\n        /* \"#utility.yul\":20147:20169   */\n      swap1\n      pop\n        /* \"#utility.yul\":20039:20176   */\n      swap2\n      swap1\n      pop\n      jump\t// out\n        /* \"#utility.yul\":20182:20316   */\n    tag_249:\n        /* \"#utility.yul\":20269:20275   */\n      0x00\n        /* \"#utility.yul\":20303:20308   */\n      dup2\n        /* \"#utility.yul\":20297:20309   */\n      mload\n        /* \"#utility.yul\":20287:20309   */\n      swap1\n      pop\n        /* \"#utility.yul\":20182:20316   */\n      swap2\n      swap1\n      pop\n      jump\t// out\n        /* \"#utility.yul\":20322:20455   */\n    tag_263:\n        /* \"#utility.yul\":20408:20414   */\n      0x00\n        /* \"#utility.yul\":20442:20447   */\n      dup2\n        /* \"#utility.yul\":20436:20448   */\n      mload\n        /* \"#utility.yul\":20426:20448   */\n      swap1\n      pop\n        /* \"#utility.yul\":20322:20455   */\n      swap2\n      swap1\n      pop\n      jump\t// out\n        /* \"#utility.yul\":20461:20575   */\n    tag_277:\n        /* \"#utility.yul\":20528:20534   */\n      0x00\n        /* \"#utility.yul\":20562:20567   */\n      dup2\n        /* \"#utility.yul\":20556:20568   */\n      mload\n        /* \"#utility.yul\":20546:20568   */\n      swap1\n      pop\n        /* \"#utility.yul\":20461:20575   */\n      swap2\n      swap1\n      pop\n      jump\t// out\n        /* \"#utility.yul\":20581:20680   */\n    tag_295:\n        /* \"#utility.yul\":20633:20639   */\n      0x00\n        /* \"#utility.yul\":20667:20672   */\n      dup2\n        /* \"#utility.yul\":20661:20673   */\n      mload\n        /* \"#utility.yul\":20651:20673   */\n      swap1\n      pop\n        /* \"#utility.yul\":20581:20680   */\n      swap2\n      swap1\n      pop\n      jump\t// out\n        /* \"#utility.yul\":20686:20819   */\n    tag_217:\n        /* \"#utility.yul\":20776:20780   */\n      0x00\n        /* \"#utility.yul\":20808:20812   */\n      0x20\n        /* \"#utility.yul\":20803:20806   */\n      dup3\n        /* \"#utility.yul\":20799:20813   */\n      add\n        /* \"#utility.yul\":20791:20813   */\n      swap1\n      pop\n        /* \"#utility.yul\":20686:20819   */\n      swap2\n      swap1\n      pop\n      jump\t// out\n        /* \"#utility.yul\":20825:20958   */\n    tag_231:\n        /* \"#utility.yul\":20915:20919   */\n      0x00\n        /* \"#utility.yul\":20947:20951   */\n      0x20\n        /* \"#utility.yul\":20942:20945   */\n      dup3\n        /* \"#utility.yul\":20938:20952   */\n      add\n        /* \"#utility.yul\":20930:20952   */\n      swap1\n      pop\n        /* \"#utility.yul\":20825:20958   */\n      swap2\n      swap1\n      pop\n      jump\t// out\n        /* \"#utility.yul\":20964:21100   */\n    tag_245:\n        /* \"#utility.yul\":21057:21061   */\n      0x00\n        /* \"#utility.yul\":21089:21093   */\n      0x20\n        /* \"#utility.yul\":21084:21087   */\n      dup3\n        /* \"#utility.yul\":21080:21094   */\n      add\n        /* \"#utility.yul\":21072:21094   */\n      swap1\n      pop\n        /* \"#utility.yul\":20964:21100   */\n      swap2\n      swap1\n      pop\n      jump\t// out\n        /* \"#utility.yul\":21106:21239   */\n    tag_259:\n        /* \"#utility.yul\":21196:21200   */\n      0x00\n        /* \"#utility.yul\":21228:21232   */\n      0x20\n        /* \"#utility.yul\":21223:21226   */\n      dup3\n        /* \"#utility.yul\":21219:21233   */\n      add\n        /* \"#utility.yul\":21211:21233   */\n      swap1\n      pop\n        /* \"#utility.yul\":21106:21239   */\n      swap2\n      swap1\n      pop\n      jump\t// out\n        /* \"#utility.yul\":21245:21377   */\n    tag_273:\n        /* \"#utility.yul\":21334:21338   */\n      0x00\n        /* \"#utility.yul\":21366:21370   */\n      0x20\n        /* \"#utility.yul\":21361:21364   */\n      dup3\n        /* \"#utility.yul\":21357:21371   */\n      add\n        /* \"#utility.yul\":21349:21371   */\n      swap1\n      pop\n        /* \"#utility.yul\":21245:21377   */\n      swap2\n      swap1\n      pop\n      jump\t// out\n        /* \"#utility.yul\":21383:21496   */\n    tag_287:\n        /* \"#utility.yul\":21453:21457   */\n      0x00\n        /* \"#utility.yul\":21485:21489   */\n      0x20\n        /* \"#utility.yul\":21480:21483   */\n      dup3\n        /* \"#utility.yul\":21476:21490   */\n      add\n        /* \"#utility.yul\":21468:21490   */\n      swap1\n      pop\n        /* \"#utility.yul\":21383:21496   */\n      swap2\n      swap1\n      pop\n      jump\t// out\n        /* \"#utility.yul\":21502:21696   */\n    tag_209:\n        /* \"#utility.yul\":21611:21622   */\n      0x00\n        /* \"#utility.yul\":21645:21651   */\n      dup3\n        /* \"#utility.yul\":21640:21643   */\n      dup3\n        /* \"#utility.yul\":21633:21652   */\n      mstore\n        /* \"#utility.yul\":21685:21689   */\n      0x20\n        /* \"#utility.yul\":21680:21683   */\n      dup3\n        /* \"#utility.yul\":21676:21690   */\n      add\n        /* \"#utility.yul\":21661:21690   */\n      swap1\n      pop\n        /* \"#utility.yul\":21502:21696   */\n      swap3\n      swap2\n      pop\n      pop\n      jump\t// out\n        /* \"#utility.yul\":21702:21896   */\n    tag_223:\n        /* \"#utility.yul\":21811:21822   */\n      0x00\n        /* \"#utility.yul\":21845:21851   */\n      dup3\n        /* \"#utility.yul\":21840:21843   */\n      dup3\n        /* \"#utility.yul\":21833:21852   */\n      mstore\n        /* \"#utility.yul\":21885:21889   */\n      0x20\n        /* \"#utility.yul\":21880:21883   */\n      dup3\n        /* \"#utility.yul\":21876:21890   */\n      add\n        /* \"#utility.yul\":21861:21890   */\n      swap1\n      pop\n        /* \"#utility.yul\":21702:21896   */\n      swap3\n      swap2\n      pop\n      pop\n      jump\t// out\n        /* \"#utility.yul\":21902:22109   */\n    tag_237:\n        /* \"#utility.yul\":22024:22035   */\n      0x00\n        /* \"#utility.yul\":22058:22064   */\n      dup3\n        /* \"#utility.yul\":22053:22056   */\n      dup3\n        /* \"#utility.yul\":22046:22065   */\n      mstore\n        /* \"#utility.yul\":22098:22102   */\n      0x20\n        /* \"#utility.yul\":22093:22096   */\n      dup3\n        /* \"#utility.yul\":22089:22103   */\n      add\n        /* \"#utility.yul\":22074:22103   */\n      swap1\n      pop\n        /* \"#utility.yul\":21902:22109   */\n      swap3\n      swap2\n      pop\n      pop\n      jump\t// out\n        /* \"#utility.yul\":22115:22319   */\n    tag_251:\n        /* \"#utility.yul\":22234:22245   */\n      0x00\n        /* \"#utility.yul\":22268:22274   */\n      dup3\n        /* \"#utility.yul\":22263:22266   */\n      dup3\n        /* \"#utility.yul\":22256:22275   */\n      mstore\n        /* \"#utility.yul\":22308:22312   */\n      0x20\n        /* \"#utility.yul\":22303:22306   */\n      dup3\n        /* \"#utility.yul\":22299:22313   */\n      add\n        /* \"#utility.yul\":22284:22313   */\n      swap1\n      pop\n        /* \"#utility.yul\":22115:22319   */\n      swap3\n      swap2\n      pop\n      pop\n      jump\t// out\n        /* \"#utility.yul\":22325:22528   */\n    tag_265:\n        /* \"#utility.yul\":22443:22454   */\n      0x00\n        /* \"#utility.yul\":22477:22483   */\n      dup3\n        /* \"#utility.yul\":22472:22475   */\n      dup3\n        /* \"#utility.yul\":22465:22484   */\n      mstore\n        /* \"#utility.yul\":22517:22521   */\n      0x20\n        /* \"#utility.yul\":22512:22515   */\n      dup3\n        /* \"#utility.yul\":22508:22522   */\n      add\n        /* \"#utility.yul\":22493:22522   */\n      swap1\n      pop\n        /* \"#utility.yul\":22325:22528   */\n      swap3\n      swap2\n      pop\n      pop\n      jump\t// out\n        /* \"#utility.yul\":22534:22708   */\n    tag_279:\n        /* \"#utility.yul\":22623:22634   */\n      0x00\n        /* \"#utility.yul\":22657:22663   */\n      dup3\n        /* \"#utility.yul\":22652:22655   */\n      dup3\n        /* \"#utility.yul\":22645:22664   */\n      mstore\n        /* \"#utility.yul\":22697:22701   */\n      0x20\n        /* \"#utility.yul\":22692:22695   */\n      dup3\n        /* \"#utility.yul\":22688:22702   */\n      add\n        /* \"#utility.yul\":22673:22702   */\n      swap1\n      pop\n        /* \"#utility.yul\":22534:22708   */\n      swap3\n      swap2\n      pop\n      pop\n      jump\t// out\n        /* \"#utility.yul\":22714:22873   */\n    tag_297:\n        /* \"#utility.yul\":22788:22799   */\n      0x00\n        /* \"#utility.yul\":22822:22828   */\n      dup3\n        /* \"#utility.yul\":22817:22820   */\n      dup3\n        /* \"#utility.yul\":22810:22829   */\n      mstore\n        /* \"#utility.yul\":22862:22866   */\n      0x20\n        /* \"#utility.yul\":22857:22860   */\n      dup3\n        /* \"#utility.yul\":22853:22867   */\n      add\n        /* \"#utility.yul\":22838:22867   */\n      swap1\n      pop\n        /* \"#utility.yul\":22714:22873   */\n      swap3\n      swap2\n      pop\n      pop\n      jump\t// out\n        /* \"#utility.yul\":22879:23048   */\n    tag_305:\n        /* \"#utility.yul\":22963:22974   */\n      0x00\n        /* \"#utility.yul\":22997:23003   */\n      dup3\n        /* \"#utility.yul\":22992:22995   */\n      dup3\n        /* \"#utility.yul\":22985:23004   */\n      mstore\n        /* \"#utility.yul\":23037:23041   */\n      0x20\n        /* \"#utility.yul\":23032:23035   */\n      dup3\n        /* \"#utility.yul\":23028:23042   */\n      add\n        /* \"#utility.yul\":23013:23042   */\n      swap1\n      pop\n        /* \"#utility.yul\":22879:23048   */\n      swap3\n      swap2\n      pop\n      pop\n      jump\t// out\n        /* \"#utility.yul\":23054:23150   */\n    tag_203:\n        /* \"#utility.yul\":23091:23098   */\n      0x00\n        /* \"#utility.yul\":23120:23144   */\n      tag_391\n        /* \"#utility.yul\":23138:23143   */\n      dup3\n        /* \"#utility.yul\":23120:23144   */\n      tag_392\n      jump\t// in\n    tag_391:\n        /* \"#utility.yul\":23109:23144   */\n      swap1\n      pop\n        /* \"#utility.yul\":23054:23150   */\n      swap2\n      swap1\n      pop\n      jump\t// out\n        /* \"#utility.yul\":23156:23246   */\n    tag_291:\n        /* \"#utility.yul\":23190:23197   */\n      0x00\n        /* \"#utility.yul\":23233:23238   */\n      dup2\n        /* \"#utility.yul\":23226:23239   */\n      iszero\n        /* \"#utility.yul\":23219:23240   */\n      iszero\n        /* \"#utility.yul\":23208:23240   */\n      swap1\n      pop\n        /* \"#utility.yul\":23156:23246   */\n      swap2\n      swap1\n      pop\n      jump\t// out\n        /* \"#utility.yul\":23252:23378   */\n    tag_392:\n        /* \"#utility.yul\":23289:23296   */\n      0x00\n        /* \"#utility.yul\":23329:23371   */\n      0xffffffffffffffffffffffffffffffffffffffff\n        /* \"#utility.yul\":23322:23327   */\n      dup3\n        /* \"#utility.yul\":23318:23372   */\n      and\n        /* \"#utility.yul\":23307:23372   */\n      swap1\n      pop\n        /* \"#utility.yul\":23252:23378   */\n      swap2\n      swap1\n      pop\n      jump\t// out\n        /* \"#utility.yul\":23384:23461   */\n    tag_339:\n        /* \"#utility.yul\":23421:23428   */\n      0x00\n        /* \"#utility.yul\":23450:23455   */\n      dup2\n        /* \"#utility.yul\":23439:23455   */\n      swap1\n      pop\n        /* \"#utility.yul\":23384:23461   */\n      swap2\n      swap1\n      pop\n      jump\t// out\n        /* \"#utility.yul\":23467:23621   */\n    tag_143:\n        /* \"#utility.yul\":23551:23557   */\n      dup3\n        /* \"#utility.yul\":23546:23549   */\n      dup2\n        /* \"#utility.yul\":23541:23544   */\n      dup4\n        /* \"#utility.yul\":23528:23558   */\n      calldatacopy\n        /* \"#utility.yul\":23613:23614   */\n      0x00\n        /* \"#utility.yul\":23604:23610   */\n      dup4\n        /* \"#utility.yul\":23599:23602   */\n      dup4\n        /* \"#utility.yul\":23595:23611   */\n      add\n        /* \"#utility.yul\":23588:23615   */\n      mstore\n        /* \"#utility.yul\":23467:23621   */\n      pop\n      pop\n      pop\n      jump\t// out\n        /* \"#utility.yul\":23627:23934   */\n    tag_299:\n        /* \"#utility.yul\":23695:23696   */\n      0x00\n        /* \"#utility.yul\":23705:23818   */\n    tag_398:\n        /* \"#utility.yul\":23719:23725   */\n      dup4\n        /* \"#utility.yul\":23716:23717   */\n      dup2\n        /* \"#utility.yul\":23713:23726   */\n      lt\n        /* \"#utility.yul\":23705:23818   */\n      iszero\n      tag_400\n      jumpi\n        /* \"#utility.yul\":23804:23805   */\n      dup1\n        /* \"#utility.yul\":23799:23802   */\n      dup3\n        /* \"#utility.yul\":23795:23806   */\n      add\n        /* \"#utility.yul\":23789:23807   */\n      mload\n        /* \"#utility.yul\":23785:23786   */\n      dup2\n        /* \"#utility.yul\":23780:23783   */\n      dup5\n        /* \"#utility.yul\":23776:23787   */\n      add\n        /* \"#utility.yul\":23769:23808   */\n      mstore\n        /* \"#utility.yul\":23741:23743   */\n      0x20\n        /* \"#utility.yul\":23738:23739   */\n      dup2\n        /* \"#utility.yul\":23734:23744   */\n      add\n        /* \"#utility.yul\":23729:23744   */\n      swap1\n      pop\n        /* \"#utility.yul\":23705:23818   */\n      jump(tag_398)\n    tag_400:\n        /* \"#utility.yul\":23836:23842   */\n      dup4\n        /* \"#utility.yul\":23833:23834   */\n      dup2\n        /* \"#utility.yul\":23830:23843   */\n      gt\n        /* \"#utility.yul\":23827:23928   */\n      iszero\n      tag_401\n      jumpi\n        /* \"#utility.yul\":23916:23917   */\n      0x00\n        /* \"#utility.yul\":23907:23913   */\n      dup5\n        /* \"#utility.yul\":23902:23905   */\n      dup5\n        /* \"#utility.yul\":23898:23914   */\n      add\n        /* \"#utility.yul\":23891:23918   */\n      mstore\n        /* \"#utility.yul\":23827:23928   */\n    tag_401:\n        /* \"#utility.yul\":23676:23934   */\n      pop\n        /* \"#utility.yul\":23627:23934   */\n      pop\n      pop\n      pop\n      jump\t// out\n        /* \"#utility.yul\":23940:24260   */\n    tag_53:\n        /* \"#utility.yul\":23984:23990   */\n      0x00\n        /* \"#utility.yul\":24021:24022   */\n      0x02\n        /* \"#utility.yul\":24015:24019   */\n      dup3\n        /* \"#utility.yul\":24011:24023   */\n      div\n        /* \"#utility.yul\":24001:24023   */\n      swap1\n      pop\n        /* \"#utility.yul\":24068:24069   */\n      0x01\n        /* \"#utility.yul\":24062:24066   */\n      dup3\n        /* \"#utility.yul\":24058:24070   */\n      and\n        /* \"#utility.yul\":24089:24107   */\n      dup1\n        /* \"#utility.yul\":24079:24160   */\n      tag_403\n      jumpi\n        /* \"#utility.yul\":24145:24149   */\n      0x7f\n        /* \"#utility.yul\":24137:24143   */\n      dup3\n        /* \"#utility.yul\":24133:24150   */\n      and\n        /* \"#utility.yul\":24123:24150   */\n      swap2\n      pop\n        /* \"#utility.yul\":24079:24160   */\n    tag_403:\n        /* \"#utility.yul\":24207:24209   */\n      0x20\n        /* \"#utility.yul\":24199:24205   */\n      dup3\n        /* \"#utility.yul\":24196:24210   */\n      lt\n        /* \"#utility.yul\":24176:24194   */\n      dup2\n        /* \"#utility.yul\":24173:24211   */\n      eq\n        /* \"#utility.yul\":24170:24254   */\n      iszero\n      tag_404\n      jumpi\n        /* \"#utility.yul\":24226:24244   */\n      tag_405\n      tag_406\n      jump\t// in\n    tag_405:\n        /* \"#utility.yul\":24170:24254   */\n    tag_404:\n        /* \"#utility.yul\":23991:24260   */\n      pop\n        /* \"#utility.yul\":23940:24260   */\n      swap2\n      swap1\n      pop\n      jump\t// out\n        /* \"#utility.yul\":24266:24547   */\n    tag_356:\n        /* \"#utility.yul\":24349:24376   */\n      tag_408\n        /* \"#utility.yul\":24371:24375   */\n      dup3\n        /* \"#utility.yul\":24349:24376   */\n      tag_301\n      jump\t// in\n    tag_408:\n        /* \"#utility.yul\":24341:24347   */\n      dup2\n        /* \"#utility.yul\":24337:24377   */\n      add\n        /* \"#utility.yul\":24479:24485   */\n      dup2\n        /* \"#utility.yul\":24467:24477   */\n      dup2\n        /* \"#utility.yul\":24464:24486   */\n      lt\n        /* \"#utility.yul\":24443:24461   */\n      0xffffffffffffffff\n        /* \"#utility.yul\":24431:24441   */\n      dup3\n        /* \"#utility.yul\":24428:24462   */\n      gt\n        /* \"#utility.yul\":24425:24487   */\n      or\n        /* \"#utility.yul\":24422:24510   */\n      iszero\n      tag_409\n      jumpi\n        /* \"#utility.yul\":24490:24508   */\n      tag_410\n      tag_361\n      jump\t// in\n    tag_410:\n        /* \"#utility.yul\":24422:24510   */\n    tag_409:\n        /* \"#utility.yul\":24530:24540   */\n      dup1\n        /* \"#utility.yul\":24526:24528   */\n      0x40\n        /* \"#utility.yul\":24519:24541   */\n      mstore\n        /* \"#utility.yul\":24309:24547   */\n      pop\n        /* \"#utility.yul\":24266:24547   */\n      pop\n      pop\n      jump\t// out\n        /* \"#utility.yul\":24553:24786   */\n    tag_49:\n        /* \"#utility.yul\":24592:24595   */\n      0x00\n        /* \"#utility.yul\":24615:24639   */\n      tag_412\n        /* \"#utility.yul\":24633:24638   */\n      dup3\n        /* \"#utility.yul\":24615:24639   */\n      tag_339\n      jump\t// in\n    tag_412:\n        /* \"#utility.yul\":24606:24639   */\n      swap2\n      pop\n        /* \"#utility.yul\":24661:24727   */\n      0xffffffffffffffffffffffffffffffffffffffffffffffffffffffffffffffff\n        /* \"#utility.yul\":24654:24659   */\n      dup3\n        /* \"#utility.yul\":24651:24728   */\n      eq\n        /* \"#utility.yul\":24648:24751   */\n      iszero\n      tag_413\n      jumpi\n        /* \"#utility.yul\":24731:24749   */\n      tag_414\n      tag_415\n      jump\t// in\n    tag_414:\n        /* \"#utility.yul\":24648:24751   */\n    tag_413:\n        /* \"#utility.yul\":24778:24779   */\n      0x01\n        /* \"#utility.yul\":24771:24776   */\n      dup3\n        /* \"#utility.yul\":24767:24780   */\n      add\n        /* \"#utility.yul\":24760:24780   */\n      swap1\n      pop\n        /* \"#utility.yul\":24553:24786   */\n      swap2\n      swap1\n      pop\n      jump\t// out\n        /* \"#utility.yul\":24792:24972   */\n    tag_415:\n        /* \"#utility.yul\":24840:24917   */\n      0x4e487b7100000000000000000000000000000000000000000000000000000000\n        /* \"#utility.yul\":24837:24838   */\n      0x00\n        /* \"#utility.yul\":24830:24918   */\n      mstore\n        /* \"#utility.yul\":24937:24941   */\n      0x11\n        /* \"#utility.yul\":24934:24935   */\n      0x04\n        /* \"#utility.yul\":24927:24942   */\n      mstore\n        /* \"#utility.yul\":24961:24965   */\n      0x24\n        /* \"#utility.yul\":24958:24959   */\n      0x00\n        /* \"#utility.yul\":24951:24966   */\n      revert\n        /* \"#utility.yul\":24978:25158   */\n    tag_406:\n        /* \"#utility.yul\":25026:25103   */\n      0x4e487b7100000000000000000000000000000000000000000000000000000000\n        /* \"#utility.yul\":25023:25024   */\n      0x00\n        /* \"#utility.yul\":25016:25104   */\n      mstore\n        /* \"#utility.yul\":25123:25127   */\n      0x22\n        /* \"#utility.yul\":25120:25121   */\n      0x04\n        /* \"#utility.yul\":25113:25128   */\n      mstore\n        /* \"#utility.yul\":25147:25151   */\n      0x24\n        /* \"#utility.yul\":25144:25145   */\n      0x00\n        /* \"#utility.yul\":25137:25152   */\n      revert\n        /* \"#utility.yul\":25164:25344   */\n    tag_43:\n        /* \"#utility.yul\":25212:25289   */\n      0x4e487b7100000000000000000000000000000000000000000000000000000000\n        /* \"#utility.yul\":25209:25210   */\n      0x00\n        /* \"#utility.yul\":25202:25290   */\n      mstore\n        /* \"#utility.yul\":25309:25313   */\n      0x32\n        /* \"#utility.yul\":25306:25307   */\n      0x04\n        /* \"#utility.yul\":25299:25314   */\n      mstore\n        /* \"#utility.yul\":25333:25337   */\n      0x24\n        /* \"#utility.yul\":25330:25331   */\n      0x00\n        /* \"#utility.yul\":25323:25338   */\n      revert\n        /* \"#utility.yul\":25350:25530   */\n    tag_361:\n        /* \"#utility.yul\":25398:25475   */\n      0x4e487b7100000000000000000000000000000000000000000000000000000000\n        /* \"#utility.yul\":25395:25396   */\n      0x00\n        /* \"#utility.yul\":25388:25476   */\n      mstore\n        /* \"#utility.yul\":25495:25499   */\n      0x41\n        /* \"#utility.yul\":25492:25493   */\n      0x04\n        /* \"#utility.yul\":25485:25500   */\n      mstore\n        /* \"#utility.yul\":25519:25523   */\n      0x24\n        /* \"#utility.yul\":25516:25517   */\n      0x00\n        /* \"#utility.yul\":25509:25524   */\n      revert\n        /* \"#utility.yul\":25536:25653   */\n    tag_152:\n        /* \"#utility.yul\":25645:25646   */\n      0x00\n        /* \"#utility.yul\":25642:25643   */\n      dup1\n        /* \"#utility.yul\":25635:25647   */\n      revert\n        /* \"#utility.yul\":25659:25776   */\n    tag_141:\n        /* \"#utility.yul\":25768:25769   */\n      0x00\n        /* \"#utility.yul\":25765:25766   */\n      dup1\n        /* \"#utility.yul\":25758:25770   */\n      revert\n        /* \"#utility.yul\":25782:25899   */\n    tag_165:\n        /* \"#utility.yul\":25891:25892   */\n      0x00\n        /* \"#utility.yul\":25888:25889   */\n      dup1\n        /* \"#utility.yul\":25881:25893   */\n      revert\n        /* \"#utility.yul\":25905:26022   */\n    tag_161:\n        /* \"#utility.yul\":26014:26015   */\n      0x00\n        /* \"#utility.yul\":26011:26012   */\n      dup1\n        /* \"#utility.yul\":26004:26016   */\n      revert\n        /* \"#utility.yul\":26028:26130   */\n    tag_301:\n        /* \"#utility.yul\":26069:26075   */\n      0x00\n        /* \"#utility.yul\":26120:26122   */\n      0x1f\n        /* \"#utility.yul\":26116:26123   */\n      not\n        /* \"#utility.yul\":26111:26113   */\n      0x1f\n        /* \"#utility.yul\":26104:26109   */\n      dup4\n        /* \"#utility.yul\":26100:26114   */\n      add\n        /* \"#utility.yul\":26096:26124   */\n      and\n        /* \"#utility.yul\":26086:26124   */\n      swap1\n      pop\n        /* \"#utility.yul\":26028:26130   */\n      swap2\n      swap1\n      pop\n      jump\t// out\n        /* \"#utility.yul\":26136:26308   */\n    tag_307:\n        /* \"#utility.yul\":26276:26300   */\n      0x5468697320726f6c652069736e27742065786973747300000000000000000000\n        /* \"#utility.yul\":26272:26273   */\n      0x00\n        /* \"#utility.yul\":26264:26270   */\n      dup3\n        /* \"#utility.yul\":26260:26274   */\n      add\n        /* \"#utility.yul\":26253:26301   */\n      mstore\n        /* \"#utility.yul\":26136:26308   */\n      pop\n      jump\t// out\n        /* \"#utility.yul\":26314:26485   */\n    tag_312:\n        /* \"#utility.yul\":26454:26477   */\n      0x5520616c72656164792072656769737465726564210000000000000000000000\n        /* \"#utility.yul\":26450:26451   */\n      0x00\n        /* \"#utility.yul\":26442:26448   */\n      dup3\n        /* \"#utility.yul\":26438:26452   */\n      add\n        /* \"#utility.yul\":26431:26478   */\n      mstore\n        /* \"#utility.yul\":26314:26485   */\n      pop\n      jump\t// out\n        /* \"#utility.yul\":26491:26653   */\n    tag_317:\n        /* \"#utility.yul\":26631:26645   */\n      0x53686f7020657869737473210000000000000000000000000000000000000000\n        /* \"#utility.yul\":26627:26628   */\n      0x00\n        /* \"#utility.yul\":26619:26625   */\n      dup3\n        /* \"#utility.yul\":26615:26629   */\n      add\n        /* \"#utility.yul\":26608:26646   */\n      mstore\n        /* \"#utility.yul\":26491:26653   */\n      pop\n      jump\t// out\n        /* \"#utility.yul\":26659:26781   */\n    tag_147:\n        /* \"#utility.yul\":26732:26756   */\n      tag_429\n        /* \"#utility.yul\":26750:26755   */\n      dup2\n        /* \"#utility.yul\":26732:26756   */\n      tag_203\n      jump\t// in\n    tag_429:\n        /* \"#utility.yul\":26725:26730   */\n      dup2\n        /* \"#utility.yul\":26722:26757   */\n      eq\n        /* \"#utility.yul\":26712:26775   */\n      tag_430\n      jumpi\n        /* \"#utility.yul\":26771:26772   */\n      0x00\n        /* \"#utility.yul\":26768:26769   */\n      dup1\n        /* \"#utility.yul\":26761:26773   */\n      revert\n        /* \"#utility.yul\":26712:26775   */\n    tag_430:\n        /* \"#utility.yul\":26659:26781   */\n      pop\n      jump\t// out\n        /* \"#utility.yul\":26787:26909   */\n    tag_157:\n        /* \"#utility.yul\":26860:26884   */\n      tag_432\n        /* \"#utility.yul\":26878:26883   */\n      dup2\n        /* \"#utility.yul\":26860:26884   */\n      tag_339\n      jump\t// in\n    tag_432:\n        /* \"#utility.yul\":26853:26858   */\n      dup2\n        /* \"#utility.yul\":26850:26885   */\n      eq\n        /* \"#utility.yul\":26840:26903   */\n      tag_433\n      jumpi\n        /* \"#utility.yul\":26899:26900   */\n      0x00\n        /* \"#utility.yul\":26896:26897   */\n      dup1\n        /* \"#utility.yul\":26889:26901   */\n      revert\n        /* \"#utility.yul\":26840:26903   */\n    tag_433:\n        /* \"#utility.yul\":26787:26909   */\n      pop\n      jump\t// out\n\n    auxdata: 0xa2646970667358221220bd9ae62b458477cb16556a9c4d625982593323cb5ebed4f25046e892f6f46a0764736f6c63430008070033\n}\n",
				"bytecode": {
					"linkReferences": {},
					"object": "608060405234801561001057600080fd5b50611ada806100206000396000f3fe608060405234801561001057600080fd5b506004361061007d5760003560e01c806353c9e62e1161005b57806353c9e62e146100da5780636d5aaf80146100f65780638853b53e14610100578063ad81f8031461011c5761007d565b80631c618eb314610082578063240185b61461009e5780632bd2cd50146100bc575b600080fd5b61009c60048036038101906100979190610f5b565b61013a565b005b6100a66105e5565b6040516100b39190611567565b60405180910390f35b6100c46109a1565b6040516100d19190611545565b60405180910390f35b6100f460048036038101906100ef9190610fb7565b610a6d565b005b6100fe610c37565b005b61011a60048036038101906101159190610ff7565b610c39565b005b610124610e02565b6040516101319190611589565b60405180910390f35b8160005b600180549050811015610212578173ffffffffffffffffffffffffffffffffffffffff166001828154811061017657610175611978565b5b906000526020600020906002020160000160009054906101000a900473ffffffffffffffffffffffffffffffffffffffff1673ffffffffffffffffffffffffffffffffffffffff1614156101ff576040517f08c379a00000000000000000000000000000000000000000000000000000000081526004016101f6906115eb565b60405180910390fd5b808061020a906118d1565b91505061013e565b506000806001816001815401808255809150500390600052602060002090600402016040518060800160405290816000820160009054906101000a900473ffffffffffffffffffffffffffffffffffffffff1673ffffffffffffffffffffffffffffffffffffffff1673ffffffffffffffffffffffffffffffffffffffff1681526020016001820180546102a59061186e565b80601f01602080910402602001604051908101604052809291908181526020018280546102d19061186e565b801561031e5780601f106102f35761010080835404028352916020019161031e565b820191906000526020600020905b81548152906001019060200180831161030157829003601f168201915b5050505050815260200160028201805480602002602001604051908101604052809291908181526020016000905b8282101561053c57838290600052602060002090600402016040518060800160405290816000820160009054906101000a900473ffffffffffffffffffffffffffffffffffffffff1673ffffffffffffffffffffffffffffffffffffffff1673ffffffffffffffffffffffffffffffffffffffff1681526020016001820154815260200160028201805480602002602001604051908101604052809291908181526020016000905b82821015610493578382906000526020600020016040518060400160405290816000820160009054906101000a900473ffffffffffffffffffffffffffffffffffffffff1673ffffffffffffffffffffffffffffffffffffffff1673ffffffffffffffffffffffffffffffffffffffff1681526020016000820160149054906101000a900460ff161515151581525050815260200190600101906103f4565b5050505081526020016003820180546104ab9061186e565b80601f01602080910402602001604051908101604052809291908181526020018280546104d79061186e565b80156105245780601f106104f957610100808354040283529160200191610524565b820191906000526020600020905b81548152906001019060200180831161050757829003601f168201915b5050505050815250508152602001906001019061034c565b5050505081526020016003820180548060200260200160405190810160405280929190818152602001828054801561059357602002820191906000526020600020905b81548152602001906001019080831161057f575b505050505081525050905083816000019073ffffffffffffffffffffffffffffffffffffffff16908173ffffffffffffffffffffffffffffffffffffffff168152505082816020018190525050505050565b60606000805480602002602001604051908101604052809291908181526020016000905b8282101561099857838290600052602060002090600402016040518060800160405290816000820160009054906101000a900473ffffffffffffffffffffffffffffffffffffffff1673ffffffffffffffffffffffffffffffffffffffff1673ffffffffffffffffffffffffffffffffffffffff1681526020016001820180546106929061186e565b80601f01602080910402602001604051908101604052809291908181526020018280546106be9061186e565b801561070b5780601f106106e05761010080835404028352916020019161070b565b820191906000526020600020905b8154815290600101906020018083116106ee57829003601f168201915b5050505050815260200160028201805480602002602001604051908101604052809291908181526020016000905b8282101561092957838290600052602060002090600402016040518060800160405290816000820160009054906101000a900473ffffffffffffffffffffffffffffffffffffffff1673ffffffffffffffffffffffffffffffffffffffff1673ffffffffffffffffffffffffffffffffffffffff1681526020016001820154815260200160028201805480602002602001604051908101604052809291908181526020016000905b82821015610880578382906000526020600020016040518060400160405290816000820160009054906101000a900473ffffffffffffffffffffffffffffffffffffffff1673ffffffffffffffffffffffffffffffffffffffff1673ffffffffffffffffffffffffffffffffffffffff1681526020016000820160149054906101000a900460ff161515151581525050815260200190600101906107e1565b5050505081526020016003820180546108989061186e565b80601f01602080910402602001604051908101604052809291908181526020018280546108c49061186e565b80156109115780601f106108e657610100808354040283529160200191610911565b820191906000526020600020905b8154815290600101906020018083116108f457829003601f168201915b50505050508152505081526020019060010190610739565b5050505081526020016003820180548060200260200160405190810160405280929190818152602001828054801561098057602002820191906000526020600020905b81548152602001906001019080831161096c575b50505050508152505081526020019060010190610609565b50505050905090565b60606002805480602002602001604051908101604052809291908181526020016000905b82821015610a64578382906000526020600020016040518060400160405290816000820160009054906101000a900473ffffffffffffffffffffffffffffffffffffffff1673ffffffffffffffffffffffffffffffffffffffff1673ffffffffffffffffffffffffffffffffffffffff1681526020016000820160149054906101000a900460ff161515151581525050815260200190600101906109c5565b50505050905090565b8160005b600180549050811015610b45578173ffffffffffffffffffffffffffffffffffffffff1660018281548110610aa957610aa8611978565b5b906000526020600020906002020160000160009054906101000a900473ffffffffffffffffffffffffffffffffffffffff1673ffffffffffffffffffffffffffffffffffffffff161415610b32576040517f08c379a0000000000000000000000000000000000000000000000000000000008152600401610b29906115cb565b60405180910390fd5b8080610b3d906118d1565b915050610a71565b5060038210610b89576040517f08c379a0000000000000000000000000000000000000000000000000000000008152600401610b80906115ab565b60405180910390fd5b600160405180604001604052803373ffffffffffffffffffffffffffffffffffffffff16815260200184815250908060018154018082558091505060019003906000526020600020906002020160009091909190915060008201518160000160006101000a81548173ffffffffffffffffffffffffffffffffffffffff021916908373ffffffffffffffffffffffffffffffffffffffff160217905550602082015181600101555050505050565b565b3360005b600180549050811015610d11578173ffffffffffffffffffffffffffffffffffffffff1660018281548110610c7557610c74611978565b5b906000526020600020906002020160000160009054906101000a900473ffffffffffffffffffffffffffffffffffffffff1673ffffffffffffffffffffffffffffffffffffffff161415610cfe576040517f08c379a0000000000000000000000000000000000000000000000000000000008152600401610cf5906115cb565b60405180910390fd5b8080610d09906118d1565b915050610c3d565b5060038210610d55576040517f08c379a0000000000000000000000000000000000000000000000000000000008152600401610d4c906115ab565b60405180910390fd5b600160405180604001604052803373ffffffffffffffffffffffffffffffffffffffff16815260200184815250908060018154018082558091505060019003906000526020600020906002020160009091909190915060008201518160000160006101000a81548173ffffffffffffffffffffffffffffffffffffffff021916908373ffffffffffffffffffffffffffffffffffffffff1602179055506020820151816001015550505050565b60606001805480602002602001604051908101604052809291908181526020016000905b82821015610eb857838290600052602060002090600202016040518060400160405290816000820160009054906101000a900473ffffffffffffffffffffffffffffffffffffffff1673ffffffffffffffffffffffffffffffffffffffff1673ffffffffffffffffffffffffffffffffffffffff16815260200160018201548152505081526020019060010190610e26565b50505050905090565b6000610ed4610ecf84611630565b61160b565b905082815260208101848484011115610ef057610eef6119db565b5b610efb84828561182c565b509392505050565b600081359050610f1281611a76565b92915050565b600082601f830112610f2d57610f2c6119d6565b5b8135610f3d848260208601610ec1565b91505092915050565b600081359050610f5581611a8d565b92915050565b60008060408385031215610f7257610f716119e5565b5b6000610f8085828601610f03565b925050602083013567ffffffffffffffff811115610fa157610fa06119e0565b5b610fad85828601610f18565b9150509250929050565b60008060408385031215610fce57610fcd6119e5565b5b6000610fdc85828601610f03565b9250506020610fed85828601610f46565b9150509250929050565b60006020828403121561100d5761100c6119e5565b5b600061101b84828501610f46565b91505092915050565b600061103083836113ce565b60408301905092915050565b600061104883836113fd565b905092915050565b600061105c8383611467565b60408301905092915050565b60006110748383611496565b905092915050565b60006110888383611507565b60408301905092915050565b60006110a08383611536565b60208301905092915050565b6110b5816117e4565b82525050565b60006110c6826116c1565b6110d0818561175c565b93506110db83611661565b8060005b8381101561110c5781516110f38882611024565b97506110fe8361170e565b9250506001810190506110df565b5085935050505092915050565b6000611124826116cc565b61112e818561176d565b93508360208202850161114085611671565b8060005b8581101561117c578484038952815161115d858261103c565b94506111688361171b565b925060208a01995050600181019050611144565b50829750879550505050505092915050565b6000611199826116d7565b6111a3818561177e565b93506111ae83611681565b8060005b838110156111df5781516111c68882611050565b97506111d183611728565b9250506001810190506111b2565b5085935050505092915050565b60006111f7826116e2565b611201818561178f565b93508360208202850161121385611691565b8060005b8581101561124f57848403895281516112308582611068565b945061123b83611735565b925060208a01995050600181019050611217565b50829750879550505050505092915050565b600061126c826116ed565b61127681856117a0565b9350611281836116a1565b8060005b838110156112b2578151611299888261107c565b97506112a483611742565b925050600181019050611285565b5085935050505092915050565b60006112ca826116f8565b6112d481856117b1565b93506112df836116b1565b8060005b838110156113105781516112f78882611094565b97506113028361174f565b9250506001810190506112e3565b5085935050505092915050565b611326816117f6565b82525050565b600061133782611703565b61134181856117c2565b935061135181856020860161183b565b61135a816119ea565b840191505092915050565b60006113726016836117d3565b915061137d826119fb565b602082019050919050565b60006113956015836117d3565b91506113a082611a24565b602082019050919050565b60006113b8600c836117d3565b91506113c382611a4d565b602082019050919050565b6040820160008201516113e460008501826110ac565b5060208201516113f7602085018261131d565b50505050565b600060808301600083015161141560008601826110ac565b5060208301516114286020860182611536565b506040830151848203604086015261144082826110bb565b9150506060830151848203606086015261145a828261132c565b9150508091505092915050565b60408201600082015161147d60008501826110ac565b506020820151611490602085018261131d565b50505050565b60006080830160008301516114ae60008601826110ac565b50602083015184820360208601526114c6828261132c565b915050604083015184820360408601526114e08282611119565b915050606083015184820360608601526114fa82826112bf565b9150508091505092915050565b60408201600082015161151d60008501826110ac565b5060208201516115306020850182611536565b50505050565b61153f81611822565b82525050565b6000602082019050818103600083015261155f818461118e565b905092915050565b6000602082019050818103600083015261158181846111ec565b905092915050565b600060208201905081810360008301526115a38184611261565b905092915050565b600060208201905081810360008301526115c481611365565b9050919050565b600060208201905081810360008301526115e481611388565b9050919050565b60006020820190508181036000830152611604816113ab565b9050919050565b6000611615611626565b905061162182826118a0565b919050565b6000604051905090565b600067ffffffffffffffff82111561164b5761164a6119a7565b5b611654826119ea565b9050602081019050919050565b6000819050602082019050919050565b6000819050602082019050919050565b6000819050602082019050919050565b6000819050602082019050919050565b6000819050602082019050919050565b6000819050602082019050919050565b600081519050919050565b600081519050919050565b600081519050919050565b600081519050919050565b600081519050919050565b600081519050919050565b600081519050919050565b6000602082019050919050565b6000602082019050919050565b6000602082019050919050565b6000602082019050919050565b6000602082019050919050565b6000602082019050919050565b600082825260208201905092915050565b600082825260208201905092915050565b600082825260208201905092915050565b600082825260208201905092915050565b600082825260208201905092915050565b600082825260208201905092915050565b600082825260208201905092915050565b600082825260208201905092915050565b60006117ef82611802565b9050919050565b60008115159050919050565b600073ffffffffffffffffffffffffffffffffffffffff82169050919050565b6000819050919050565b82818337600083830152505050565b60005b8381101561185957808201518184015260208101905061183e565b83811115611868576000848401525b50505050565b6000600282049050600182168061188657607f821691505b6020821081141561189a57611899611949565b5b50919050565b6118a9826119ea565b810181811067ffffffffffffffff821117156118c8576118c76119a7565b5b80604052505050565b60006118dc82611822565b91507fffffffffffffffffffffffffffffffffffffffffffffffffffffffffffffffff82141561190f5761190e61191a565b5b600182019050919050565b7f4e487b7100000000000000000000000000000000000000000000000000000000600052601160045260246000fd5b7f4e487b7100000000000000000000000000000000000000000000000000000000600052602260045260246000fd5b7f4e487b7100000000000000000000000000000000000000000000000000000000600052603260045260246000fd5b7f4e487b7100000000000000000000000000000000000000000000000000000000600052604160045260246000fd5b600080fd5b600080fd5b600080fd5b600080fd5b6000601f19601f8301169050919050565b7f5468697320726f6c652069736e27742065786973747300000000000000000000600082015250565b7f5520616c72656164792072656769737465726564210000000000000000000000600082015250565b7f53686f7020657869737473210000000000000000000000000000000000000000600082015250565b611a7f816117e4565b8114611a8a57600080fd5b50565b611a9681611822565b8114611aa157600080fd5b5056fea2646970667358221220bd9ae62b458477cb16556a9c4d625982593323cb5ebed4f25046e892f6f46a0764736f6c63430008070033",
					"opcodes": "PUSH1 0x80 PUSH1 0x40 MSTORE CALLVALUE DUP1 ISZERO PUSH2 0x10 JUMPI PUSH1 0x0 DUP1 REVERT JUMPDEST POP PUSH2 0x1ADA DUP1 PUSH2 0x20 PUSH1 0x0 CODECOPY PUSH1 0x0 RETURN INVALID PUSH1 0x80 PUSH1 0x40 MSTORE CALLVALUE DUP1 ISZERO PUSH2 0x10 JUMPI PUSH1 0x0 DUP1 REVERT JUMPDEST POP PUSH1 0x4 CALLDATASIZE LT PUSH2 0x7D JUMPI PUSH1 0x0 CALLDATALOAD PUSH1 0xE0 SHR DUP1 PUSH4 0x53C9E62E GT PUSH2 0x5B JUMPI DUP1 PUSH4 0x53C9E62E EQ PUSH2 0xDA JUMPI DUP1 PUSH4 0x6D5AAF80 EQ PUSH2 0xF6 JUMPI DUP1 PUSH4 0x8853B53E EQ PUSH2 0x100 JUMPI DUP1 PUSH4 0xAD81F803 EQ PUSH2 0x11C JUMPI PUSH2 0x7D JUMP JUMPDEST DUP1 PUSH4 0x1C618EB3 EQ PUSH2 0x82 JUMPI DUP1 PUSH4 0x240185B6 EQ PUSH2 0x9E JUMPI DUP1 PUSH4 0x2BD2CD50 EQ PUSH2 0xBC JUMPI JUMPDEST PUSH1 0x0 DUP1 REVERT JUMPDEST PUSH2 0x9C PUSH1 0x4 DUP1 CALLDATASIZE SUB DUP2 ADD SWAP1 PUSH2 0x97 SWAP2 SWAP1 PUSH2 0xF5B JUMP JUMPDEST PUSH2 0x13A JUMP JUMPDEST STOP JUMPDEST PUSH2 0xA6 PUSH2 0x5E5 JUMP JUMPDEST PUSH1 0x40 MLOAD PUSH2 0xB3 SWAP2 SWAP1 PUSH2 0x1567 JUMP JUMPDEST PUSH1 0x40 MLOAD DUP1 SWAP2 SUB SWAP1 RETURN JUMPDEST PUSH2 0xC4 PUSH2 0x9A1 JUMP JUMPDEST PUSH1 0x40 MLOAD PUSH2 0xD1 SWAP2 SWAP1 PUSH2 0x1545 JUMP JUMPDEST PUSH1 0x40 MLOAD DUP1 SWAP2 SUB SWAP1 RETURN JUMPDEST PUSH2 0xF4 PUSH1 0x4 DUP1 CALLDATASIZE SUB DUP2 ADD SWAP1 PUSH2 0xEF SWAP2 SWAP1 PUSH2 0xFB7 JUMP JUMPDEST PUSH2 0xA6D JUMP JUMPDEST STOP JUMPDEST PUSH2 0xFE PUSH2 0xC37 JUMP JUMPDEST STOP JUMPDEST PUSH2 0x11A PUSH1 0x4 DUP1 CALLDATASIZE SUB DUP2 ADD SWAP1 PUSH2 0x115 SWAP2 SWAP1 PUSH2 0xFF7 JUMP JUMPDEST PUSH2 0xC39 JUMP JUMPDEST STOP JUMPDEST PUSH2 0x124 PUSH2 0xE02 JUMP JUMPDEST PUSH1 0x40 MLOAD PUSH2 0x131 SWAP2 SWAP1 PUSH2 0x1589 JUMP JUMPDEST PUSH1 0x40 MLOAD DUP1 SWAP2 SUB SWAP1 RETURN JUMPDEST DUP2 PUSH1 0x0 JUMPDEST PUSH1 0x1 DUP1 SLOAD SWAP1 POP DUP2 LT ISZERO PUSH2 0x212 JUMPI DUP2 PUSH20 0xFFFFFFFFFFFFFFFFFFFFFFFFFFFFFFFFFFFFFFFF AND PUSH1 0x1 DUP3 DUP2 SLOAD DUP2 LT PUSH2 0x176 JUMPI PUSH2 0x175 PUSH2 0x1978 JUMP JUMPDEST JUMPDEST SWAP1 PUSH1 0x0 MSTORE PUSH1 0x20 PUSH1 0x0 KECCAK256 SWAP1 PUSH1 0x2 MUL ADD PUSH1 0x0 ADD PUSH1 0x0 SWAP1 SLOAD SWAP1 PUSH2 0x100 EXP SWAP1 DIV PUSH20 0xFFFFFFFFFFFFFFFFFFFFFFFFFFFFFFFFFFFFFFFF AND PUSH20 0xFFFFFFFFFFFFFFFFFFFFFFFFFFFFFFFFFFFFFFFF AND EQ ISZERO PUSH2 0x1FF JUMPI PUSH1 0x40 MLOAD PUSH32 0x8C379A000000000000000000000000000000000000000000000000000000000 DUP2 MSTORE PUSH1 0x4 ADD PUSH2 0x1F6 SWAP1 PUSH2 0x15EB JUMP JUMPDEST PUSH1 0x40 MLOAD DUP1 SWAP2 SUB SWAP1 REVERT JUMPDEST DUP1 DUP1 PUSH2 0x20A SWAP1 PUSH2 0x18D1 JUMP JUMPDEST SWAP2 POP POP PUSH2 0x13E JUMP JUMPDEST POP PUSH1 0x0 DUP1 PUSH1 0x1 DUP2 PUSH1 0x1 DUP2 SLOAD ADD DUP1 DUP3 SSTORE DUP1 SWAP2 POP POP SUB SWAP1 PUSH1 0x0 MSTORE PUSH1 0x20 PUSH1 0x0 KECCAK256 SWAP1 PUSH1 0x4 MUL ADD PUSH1 0x40 MLOAD DUP1 PUSH1 0x80 ADD PUSH1 0x40 MSTORE SWAP1 DUP2 PUSH1 0x0 DUP3 ADD PUSH1 0x0 SWAP1 SLOAD SWAP1 PUSH2 0x100 EXP SWAP1 DIV PUSH20 0xFFFFFFFFFFFFFFFFFFFFFFFFFFFFFFFFFFFFFFFF AND PUSH20 0xFFFFFFFFFFFFFFFFFFFFFFFFFFFFFFFFFFFFFFFF AND PUSH20 0xFFFFFFFFFFFFFFFFFFFFFFFFFFFFFFFFFFFFFFFF AND DUP2 MSTORE PUSH1 0x20 ADD PUSH1 0x1 DUP3 ADD DUP1 SLOAD PUSH2 0x2A5 SWAP1 PUSH2 0x186E JUMP JUMPDEST DUP1 PUSH1 0x1F ADD PUSH1 0x20 DUP1 SWAP2 DIV MUL PUSH1 0x20 ADD PUSH1 0x40 MLOAD SWAP1 DUP2 ADD PUSH1 0x40 MSTORE DUP1 SWAP3 SWAP2 SWAP1 DUP2 DUP2 MSTORE PUSH1 0x20 ADD DUP3 DUP1 SLOAD PUSH2 0x2D1 SWAP1 PUSH2 0x186E JUMP JUMPDEST DUP1 ISZERO PUSH2 0x31E JUMPI DUP1 PUSH1 0x1F LT PUSH2 0x2F3 JUMPI PUSH2 0x100 DUP1 DUP4 SLOAD DIV MUL DUP4 MSTORE SWAP2 PUSH1 0x20 ADD SWAP2 PUSH2 0x31E JUMP JUMPDEST DUP3 ADD SWAP2 SWAP1 PUSH1 0x0 MSTORE PUSH1 0x20 PUSH1 0x0 KECCAK256 SWAP1 JUMPDEST DUP2 SLOAD DUP2 MSTORE SWAP1 PUSH1 0x1 ADD SWAP1 PUSH1 0x20 ADD DUP1 DUP4 GT PUSH2 0x301 JUMPI DUP3 SWAP1 SUB PUSH1 0x1F AND DUP3 ADD SWAP2 JUMPDEST POP POP POP POP POP DUP2 MSTORE PUSH1 0x20 ADD PUSH1 0x2 DUP3 ADD DUP1 SLOAD DUP1 PUSH1 0x20 MUL PUSH1 0x20 ADD PUSH1 0x40 MLOAD SWAP1 DUP2 ADD PUSH1 0x40 MSTORE DUP1 SWAP3 SWAP2 SWAP1 DUP2 DUP2 MSTORE PUSH1 0x20 ADD PUSH1 0x0 SWAP1 JUMPDEST DUP3 DUP3 LT ISZERO PUSH2 0x53C JUMPI DUP4 DUP3 SWAP1 PUSH1 0x0 MSTORE PUSH1 0x20 PUSH1 0x0 KECCAK256 SWAP1 PUSH1 0x4 MUL ADD PUSH1 0x40 MLOAD DUP1 PUSH1 0x80 ADD PUSH1 0x40 MSTORE SWAP1 DUP2 PUSH1 0x0 DUP3 ADD PUSH1 0x0 SWAP1 SLOAD SWAP1 PUSH2 0x100 EXP SWAP1 DIV PUSH20 0xFFFFFFFFFFFFFFFFFFFFFFFFFFFFFFFFFFFFFFFF AND PUSH20 0xFFFFFFFFFFFFFFFFFFFFFFFFFFFFFFFFFFFFFFFF AND PUSH20 0xFFFFFFFFFFFFFFFFFFFFFFFFFFFFFFFFFFFFFFFF AND DUP2 MSTORE PUSH1 0x20 ADD PUSH1 0x1 DUP3 ADD SLOAD DUP2 MSTORE PUSH1 0x20 ADD PUSH1 0x2 DUP3 ADD DUP1 SLOAD DUP1 PUSH1 0x20 MUL PUSH1 0x20 ADD PUSH1 0x40 MLOAD SWAP1 DUP2 ADD PUSH1 0x40 MSTORE DUP1 SWAP3 SWAP2 SWAP1 DUP2 DUP2 MSTORE PUSH1 0x20 ADD PUSH1 0x0 SWAP1 JUMPDEST DUP3 DUP3 LT ISZERO PUSH2 0x493 JUMPI DUP4 DUP3 SWAP1 PUSH1 0x0 MSTORE PUSH1 0x20 PUSH1 0x0 KECCAK256 ADD PUSH1 0x40 MLOAD DUP1 PUSH1 0x40 ADD PUSH1 0x40 MSTORE SWAP1 DUP2 PUSH1 0x0 DUP3 ADD PUSH1 0x0 SWAP1 SLOAD SWAP1 PUSH2 0x100 EXP SWAP1 DIV PUSH20 0xFFFFFFFFFFFFFFFFFFFFFFFFFFFFFFFFFFFFFFFF AND PUSH20 0xFFFFFFFFFFFFFFFFFFFFFFFFFFFFFFFFFFFFFFFF AND PUSH20 0xFFFFFFFFFFFFFFFFFFFFFFFFFFFFFFFFFFFFFFFF AND DUP2 MSTORE PUSH1 0x20 ADD PUSH1 0x0 DUP3 ADD PUSH1 0x14 SWAP1 SLOAD SWAP1 PUSH2 0x100 EXP SWAP1 DIV PUSH1 0xFF AND ISZERO ISZERO ISZERO ISZERO DUP2 MSTORE POP POP DUP2 MSTORE PUSH1 0x20 ADD SWAP1 PUSH1 0x1 ADD SWAP1 PUSH2 0x3F4 JUMP JUMPDEST POP POP POP POP DUP2 MSTORE PUSH1 0x20 ADD PUSH1 0x3 DUP3 ADD DUP1 SLOAD PUSH2 0x4AB SWAP1 PUSH2 0x186E JUMP JUMPDEST DUP1 PUSH1 0x1F ADD PUSH1 0x20 DUP1 SWAP2 DIV MUL PUSH1 0x20 ADD PUSH1 0x40 MLOAD SWAP1 DUP2 ADD PUSH1 0x40 MSTORE DUP1 SWAP3 SWAP2 SWAP1 DUP2 DUP2 MSTORE PUSH1 0x20 ADD DUP3 DUP1 SLOAD PUSH2 0x4D7 SWAP1 PUSH2 0x186E JUMP JUMPDEST DUP1 ISZERO PUSH2 0x524 JUMPI DUP1 PUSH1 0x1F LT PUSH2 0x4F9 JUMPI PUSH2 0x100 DUP1 DUP4 SLOAD DIV MUL DUP4 MSTORE SWAP2 PUSH1 0x20 ADD SWAP2 PUSH2 0x524 JUMP JUMPDEST DUP3 ADD SWAP2 SWAP1 PUSH1 0x0 MSTORE PUSH1 0x20 PUSH1 0x0 KECCAK256 SWAP1 JUMPDEST DUP2 SLOAD DUP2 MSTORE SWAP1 PUSH1 0x1 ADD SWAP1 PUSH1 0x20 ADD DUP1 DUP4 GT PUSH2 0x507 JUMPI DUP3 SWAP1 SUB PUSH1 0x1F AND DUP3 ADD SWAP2 JUMPDEST POP POP POP POP POP DUP2 MSTORE POP POP DUP2 MSTORE PUSH1 0x20 ADD SWAP1 PUSH1 0x1 ADD SWAP1 PUSH2 0x34C JUMP JUMPDEST POP POP POP POP DUP2 MSTORE PUSH1 0x20 ADD PUSH1 0x3 DUP3 ADD DUP1 SLOAD DUP1 PUSH1 0x20 MUL PUSH1 0x20 ADD PUSH1 0x40 MLOAD SWAP1 DUP2 ADD PUSH1 0x40 MSTORE DUP1 SWAP3 SWAP2 SWAP1 DUP2 DUP2 MSTORE PUSH1 0x20 ADD DUP3 DUP1 SLOAD DUP1 ISZERO PUSH2 0x593 JUMPI PUSH1 0x20 MUL DUP3 ADD SWAP2 SWAP1 PUSH1 0x0 MSTORE PUSH1 0x20 PUSH1 0x0 KECCAK256 SWAP1 JUMPDEST DUP2 SLOAD DUP2 MSTORE PUSH1 0x20 ADD SWAP1 PUSH1 0x1 ADD SWAP1 DUP1 DUP4 GT PUSH2 0x57F JUMPI JUMPDEST POP POP POP POP POP DUP2 MSTORE POP POP SWAP1 POP DUP4 DUP2 PUSH1 0x0 ADD SWAP1 PUSH20 0xFFFFFFFFFFFFFFFFFFFFFFFFFFFFFFFFFFFFFFFF AND SWAP1 DUP2 PUSH20 0xFFFFFFFFFFFFFFFFFFFFFFFFFFFFFFFFFFFFFFFF AND DUP2 MSTORE POP POP DUP3 DUP2 PUSH1 0x20 ADD DUP2 SWAP1 MSTORE POP POP POP POP POP JUMP JUMPDEST PUSH1 0x60 PUSH1 0x0 DUP1 SLOAD DUP1 PUSH1 0x20 MUL PUSH1 0x20 ADD PUSH1 0x40 MLOAD SWAP1 DUP2 ADD PUSH1 0x40 MSTORE DUP1 SWAP3 SWAP2 SWAP1 DUP2 DUP2 MSTORE PUSH1 0x20 ADD PUSH1 0x0 SWAP1 JUMPDEST DUP3 DUP3 LT ISZERO PUSH2 0x998 JUMPI DUP4 DUP3 SWAP1 PUSH1 0x0 MSTORE PUSH1 0x20 PUSH1 0x0 KECCAK256 SWAP1 PUSH1 0x4 MUL ADD PUSH1 0x40 MLOAD DUP1 PUSH1 0x80 ADD PUSH1 0x40 MSTORE SWAP1 DUP2 PUSH1 0x0 DUP3 ADD PUSH1 0x0 SWAP1 SLOAD SWAP1 PUSH2 0x100 EXP SWAP1 DIV PUSH20 0xFFFFFFFFFFFFFFFFFFFFFFFFFFFFFFFFFFFFFFFF AND PUSH20 0xFFFFFFFFFFFFFFFFFFFFFFFFFFFFFFFFFFFFFFFF AND PUSH20 0xFFFFFFFFFFFFFFFFFFFFFFFFFFFFFFFFFFFFFFFF AND DUP2 MSTORE PUSH1 0x20 ADD PUSH1 0x1 DUP3 ADD DUP1 SLOAD PUSH2 0x692 SWAP1 PUSH2 0x186E JUMP JUMPDEST DUP1 PUSH1 0x1F ADD PUSH1 0x20 DUP1 SWAP2 DIV MUL PUSH1 0x20 ADD PUSH1 0x40 MLOAD SWAP1 DUP2 ADD PUSH1 0x40 MSTORE DUP1 SWAP3 SWAP2 SWAP1 DUP2 DUP2 MSTORE PUSH1 0x20 ADD DUP3 DUP1 SLOAD PUSH2 0x6BE SWAP1 PUSH2 0x186E JUMP JUMPDEST DUP1 ISZERO PUSH2 0x70B JUMPI DUP1 PUSH1 0x1F LT PUSH2 0x6E0 JUMPI PUSH2 0x100 DUP1 DUP4 SLOAD DIV MUL DUP4 MSTORE SWAP2 PUSH1 0x20 ADD SWAP2 PUSH2 0x70B JUMP JUMPDEST DUP3 ADD SWAP2 SWAP1 PUSH1 0x0 MSTORE PUSH1 0x20 PUSH1 0x0 KECCAK256 SWAP1 JUMPDEST DUP2 SLOAD DUP2 MSTORE SWAP1 PUSH1 0x1 ADD SWAP1 PUSH1 0x20 ADD DUP1 DUP4 GT PUSH2 0x6EE JUMPI DUP3 SWAP1 SUB PUSH1 0x1F AND DUP3 ADD SWAP2 JUMPDEST POP POP POP POP POP DUP2 MSTORE PUSH1 0x20 ADD PUSH1 0x2 DUP3 ADD DUP1 SLOAD DUP1 PUSH1 0x20 MUL PUSH1 0x20 ADD PUSH1 0x40 MLOAD SWAP1 DUP2 ADD PUSH1 0x40 MSTORE DUP1 SWAP3 SWAP2 SWAP1 DUP2 DUP2 MSTORE PUSH1 0x20 ADD PUSH1 0x0 SWAP1 JUMPDEST DUP3 DUP3 LT ISZERO PUSH2 0x929 JUMPI DUP4 DUP3 SWAP1 PUSH1 0x0 MSTORE PUSH1 0x20 PUSH1 0x0 KECCAK256 SWAP1 PUSH1 0x4 MUL ADD PUSH1 0x40 MLOAD DUP1 PUSH1 0x80 ADD PUSH1 0x40 MSTORE SWAP1 DUP2 PUSH1 0x0 DUP3 ADD PUSH1 0x0 SWAP1 SLOAD SWAP1 PUSH2 0x100 EXP SWAP1 DIV PUSH20 0xFFFFFFFFFFFFFFFFFFFFFFFFFFFFFFFFFFFFFFFF AND PUSH20 0xFFFFFFFFFFFFFFFFFFFFFFFFFFFFFFFFFFFFFFFF AND PUSH20 0xFFFFFFFFFFFFFFFFFFFFFFFFFFFFFFFFFFFFFFFF AND DUP2 MSTORE PUSH1 0x20 ADD PUSH1 0x1 DUP3 ADD SLOAD DUP2 MSTORE PUSH1 0x20 ADD PUSH1 0x2 DUP3 ADD DUP1 SLOAD DUP1 PUSH1 0x20 MUL PUSH1 0x20 ADD PUSH1 0x40 MLOAD SWAP1 DUP2 ADD PUSH1 0x40 MSTORE DUP1 SWAP3 SWAP2 SWAP1 DUP2 DUP2 MSTORE PUSH1 0x20 ADD PUSH1 0x0 SWAP1 JUMPDEST DUP3 DUP3 LT ISZERO PUSH2 0x880 JUMPI DUP4 DUP3 SWAP1 PUSH1 0x0 MSTORE PUSH1 0x20 PUSH1 0x0 KECCAK256 ADD PUSH1 0x40 MLOAD DUP1 PUSH1 0x40 ADD PUSH1 0x40 MSTORE SWAP1 DUP2 PUSH1 0x0 DUP3 ADD PUSH1 0x0 SWAP1 SLOAD SWAP1 PUSH2 0x100 EXP SWAP1 DIV PUSH20 0xFFFFFFFFFFFFFFFFFFFFFFFFFFFFFFFFFFFFFFFF AND PUSH20 0xFFFFFFFFFFFFFFFFFFFFFFFFFFFFFFFFFFFFFFFF AND PUSH20 0xFFFFFFFFFFFFFFFFFFFFFFFFFFFFFFFFFFFFFFFF AND DUP2 MSTORE PUSH1 0x20 ADD PUSH1 0x0 DUP3 ADD PUSH1 0x14 SWAP1 SLOAD SWAP1 PUSH2 0x100 EXP SWAP1 DIV PUSH1 0xFF AND ISZERO ISZERO ISZERO ISZERO DUP2 MSTORE POP POP DUP2 MSTORE PUSH1 0x20 ADD SWAP1 PUSH1 0x1 ADD SWAP1 PUSH2 0x7E1 JUMP JUMPDEST POP POP POP POP DUP2 MSTORE PUSH1 0x20 ADD PUSH1 0x3 DUP3 ADD DUP1 SLOAD PUSH2 0x898 SWAP1 PUSH2 0x186E JUMP JUMPDEST DUP1 PUSH1 0x1F ADD PUSH1 0x20 DUP1 SWAP2 DIV MUL PUSH1 0x20 ADD PUSH1 0x40 MLOAD SWAP1 DUP2 ADD PUSH1 0x40 MSTORE DUP1 SWAP3 SWAP2 SWAP1 DUP2 DUP2 MSTORE PUSH1 0x20 ADD DUP3 DUP1 SLOAD PUSH2 0x8C4 SWAP1 PUSH2 0x186E JUMP JUMPDEST DUP1 ISZERO PUSH2 0x911 JUMPI DUP1 PUSH1 0x1F LT PUSH2 0x8E6 JUMPI PUSH2 0x100 DUP1 DUP4 SLOAD DIV MUL DUP4 MSTORE SWAP2 PUSH1 0x20 ADD SWAP2 PUSH2 0x911 JUMP JUMPDEST DUP3 ADD SWAP2 SWAP1 PUSH1 0x0 MSTORE PUSH1 0x20 PUSH1 0x0 KECCAK256 SWAP1 JUMPDEST DUP2 SLOAD DUP2 MSTORE SWAP1 PUSH1 0x1 ADD SWAP1 PUSH1 0x20 ADD DUP1 DUP4 GT PUSH2 0x8F4 JUMPI DUP3 SWAP1 SUB PUSH1 0x1F AND DUP3 ADD SWAP2 JUMPDEST POP POP POP POP POP DUP2 MSTORE POP POP DUP2 MSTORE PUSH1 0x20 ADD SWAP1 PUSH1 0x1 ADD SWAP1 PUSH2 0x739 JUMP JUMPDEST POP POP POP POP DUP2 MSTORE PUSH1 0x20 ADD PUSH1 0x3 DUP3 ADD DUP1 SLOAD DUP1 PUSH1 0x20 MUL PUSH1 0x20 ADD PUSH1 0x40 MLOAD SWAP1 DUP2 ADD PUSH1 0x40 MSTORE DUP1 SWAP3 SWAP2 SWAP1 DUP2 DUP2 MSTORE PUSH1 0x20 ADD DUP3 DUP1 SLOAD DUP1 ISZERO PUSH2 0x980 JUMPI PUSH1 0x20 MUL DUP3 ADD SWAP2 SWAP1 PUSH1 0x0 MSTORE PUSH1 0x20 PUSH1 0x0 KECCAK256 SWAP1 JUMPDEST DUP2 SLOAD DUP2 MSTORE PUSH1 0x20 ADD SWAP1 PUSH1 0x1 ADD SWAP1 DUP1 DUP4 GT PUSH2 0x96C JUMPI JUMPDEST POP POP POP POP POP DUP2 MSTORE POP POP DUP2 MSTORE PUSH1 0x20 ADD SWAP1 PUSH1 0x1 ADD SWAP1 PUSH2 0x609 JUMP JUMPDEST POP POP POP POP SWAP1 POP SWAP1 JUMP JUMPDEST PUSH1 0x60 PUSH1 0x2 DUP1 SLOAD DUP1 PUSH1 0x20 MUL PUSH1 0x20 ADD PUSH1 0x40 MLOAD SWAP1 DUP2 ADD PUSH1 0x40 MSTORE DUP1 SWAP3 SWAP2 SWAP1 DUP2 DUP2 MSTORE PUSH1 0x20 ADD PUSH1 0x0 SWAP1 JUMPDEST DUP3 DUP3 LT ISZERO PUSH2 0xA64 JUMPI DUP4 DUP3 SWAP1 PUSH1 0x0 MSTORE PUSH1 0x20 PUSH1 0x0 KECCAK256 ADD PUSH1 0x40 MLOAD DUP1 PUSH1 0x40 ADD PUSH1 0x40 MSTORE SWAP1 DUP2 PUSH1 0x0 DUP3 ADD PUSH1 0x0 SWAP1 SLOAD SWAP1 PUSH2 0x100 EXP SWAP1 DIV PUSH20 0xFFFFFFFFFFFFFFFFFFFFFFFFFFFFFFFFFFFFFFFF AND PUSH20 0xFFFFFFFFFFFFFFFFFFFFFFFFFFFFFFFFFFFFFFFF AND PUSH20 0xFFFFFFFFFFFFFFFFFFFFFFFFFFFFFFFFFFFFFFFF AND DUP2 MSTORE PUSH1 0x20 ADD PUSH1 0x0 DUP3 ADD PUSH1 0x14 SWAP1 SLOAD SWAP1 PUSH2 0x100 EXP SWAP1 DIV PUSH1 0xFF AND ISZERO ISZERO ISZERO ISZERO DUP2 MSTORE POP POP DUP2 MSTORE PUSH1 0x20 ADD SWAP1 PUSH1 0x1 ADD SWAP1 PUSH2 0x9C5 JUMP JUMPDEST POP POP POP POP SWAP1 POP SWAP1 JUMP JUMPDEST DUP2 PUSH1 0x0 JUMPDEST PUSH1 0x1 DUP1 SLOAD SWAP1 POP DUP2 LT ISZERO PUSH2 0xB45 JUMPI DUP2 PUSH20 0xFFFFFFFFFFFFFFFFFFFFFFFFFFFFFFFFFFFFFFFF AND PUSH1 0x1 DUP3 DUP2 SLOAD DUP2 LT PUSH2 0xAA9 JUMPI PUSH2 0xAA8 PUSH2 0x1978 JUMP JUMPDEST JUMPDEST SWAP1 PUSH1 0x0 MSTORE PUSH1 0x20 PUSH1 0x0 KECCAK256 SWAP1 PUSH1 0x2 MUL ADD PUSH1 0x0 ADD PUSH1 0x0 SWAP1 SLOAD SWAP1 PUSH2 0x100 EXP SWAP1 DIV PUSH20 0xFFFFFFFFFFFFFFFFFFFFFFFFFFFFFFFFFFFFFFFF AND PUSH20 0xFFFFFFFFFFFFFFFFFFFFFFFFFFFFFFFFFFFFFFFF AND EQ ISZERO PUSH2 0xB32 JUMPI PUSH1 0x40 MLOAD PUSH32 0x8C379A000000000000000000000000000000000000000000000000000000000 DUP2 MSTORE PUSH1 0x4 ADD PUSH2 0xB29 SWAP1 PUSH2 0x15CB JUMP JUMPDEST PUSH1 0x40 MLOAD DUP1 SWAP2 SUB SWAP1 REVERT JUMPDEST DUP1 DUP1 PUSH2 0xB3D SWAP1 PUSH2 0x18D1 JUMP JUMPDEST SWAP2 POP POP PUSH2 0xA71 JUMP JUMPDEST POP PUSH1 0x3 DUP3 LT PUSH2 0xB89 JUMPI PUSH1 0x40 MLOAD PUSH32 0x8C379A000000000000000000000000000000000000000000000000000000000 DUP2 MSTORE PUSH1 0x4 ADD PUSH2 0xB80 SWAP1 PUSH2 0x15AB JUMP JUMPDEST PUSH1 0x40 MLOAD DUP1 SWAP2 SUB SWAP1 REVERT JUMPDEST PUSH1 0x1 PUSH1 0x40 MLOAD DUP1 PUSH1 0x40 ADD PUSH1 0x40 MSTORE DUP1 CALLER PUSH20 0xFFFFFFFFFFFFFFFFFFFFFFFFFFFFFFFFFFFFFFFF AND DUP2 MSTORE PUSH1 0x20 ADD DUP5 DUP2 MSTORE POP SWAP1 DUP1 PUSH1 0x1 DUP2 SLOAD ADD DUP1 DUP3 SSTORE DUP1 SWAP2 POP POP PUSH1 0x1 SWAP1 SUB SWAP1 PUSH1 0x0 MSTORE PUSH1 0x20 PUSH1 0x0 KECCAK256 SWAP1 PUSH1 0x2 MUL ADD PUSH1 0x0 SWAP1 SWAP2 SWAP1 SWAP2 SWAP1 SWAP2 POP PUSH1 0x0 DUP3 ADD MLOAD DUP2 PUSH1 0x0 ADD PUSH1 0x0 PUSH2 0x100 EXP DUP2 SLOAD DUP2 PUSH20 0xFFFFFFFFFFFFFFFFFFFFFFFFFFFFFFFFFFFFFFFF MUL NOT AND SWAP1 DUP4 PUSH20 0xFFFFFFFFFFFFFFFFFFFFFFFFFFFFFFFFFFFFFFFF AND MUL OR SWAP1 SSTORE POP PUSH1 0x20 DUP3 ADD MLOAD DUP2 PUSH1 0x1 ADD SSTORE POP POP POP POP POP JUMP JUMPDEST JUMP JUMPDEST CALLER PUSH1 0x0 JUMPDEST PUSH1 0x1 DUP1 SLOAD SWAP1 POP DUP2 LT ISZERO PUSH2 0xD11 JUMPI DUP2 PUSH20 0xFFFFFFFFFFFFFFFFFFFFFFFFFFFFFFFFFFFFFFFF AND PUSH1 0x1 DUP3 DUP2 SLOAD DUP2 LT PUSH2 0xC75 JUMPI PUSH2 0xC74 PUSH2 0x1978 JUMP JUMPDEST JUMPDEST SWAP1 PUSH1 0x0 MSTORE PUSH1 0x20 PUSH1 0x0 KECCAK256 SWAP1 PUSH1 0x2 MUL ADD PUSH1 0x0 ADD PUSH1 0x0 SWAP1 SLOAD SWAP1 PUSH2 0x100 EXP SWAP1 DIV PUSH20 0xFFFFFFFFFFFFFFFFFFFFFFFFFFFFFFFFFFFFFFFF AND PUSH20 0xFFFFFFFFFFFFFFFFFFFFFFFFFFFFFFFFFFFFFFFF AND EQ ISZERO PUSH2 0xCFE JUMPI PUSH1 0x40 MLOAD PUSH32 0x8C379A000000000000000000000000000000000000000000000000000000000 DUP2 MSTORE PUSH1 0x4 ADD PUSH2 0xCF5 SWAP1 PUSH2 0x15CB JUMP JUMPDEST PUSH1 0x40 MLOAD DUP1 SWAP2 SUB SWAP1 REVERT JUMPDEST DUP1 DUP1 PUSH2 0xD09 SWAP1 PUSH2 0x18D1 JUMP JUMPDEST SWAP2 POP POP PUSH2 0xC3D JUMP JUMPDEST POP PUSH1 0x3 DUP3 LT PUSH2 0xD55 JUMPI PUSH1 0x40 MLOAD PUSH32 0x8C379A000000000000000000000000000000000000000000000000000000000 DUP2 MSTORE PUSH1 0x4 ADD PUSH2 0xD4C SWAP1 PUSH2 0x15AB JUMP JUMPDEST PUSH1 0x40 MLOAD DUP1 SWAP2 SUB SWAP1 REVERT JUMPDEST PUSH1 0x1 PUSH1 0x40 MLOAD DUP1 PUSH1 0x40 ADD PUSH1 0x40 MSTORE DUP1 CALLER PUSH20 0xFFFFFFFFFFFFFFFFFFFFFFFFFFFFFFFFFFFFFFFF AND DUP2 MSTORE PUSH1 0x20 ADD DUP5 DUP2 MSTORE POP SWAP1 DUP1 PUSH1 0x1 DUP2 SLOAD ADD DUP1 DUP3 SSTORE DUP1 SWAP2 POP POP PUSH1 0x1 SWAP1 SUB SWAP1 PUSH1 0x0 MSTORE PUSH1 0x20 PUSH1 0x0 KECCAK256 SWAP1 PUSH1 0x2 MUL ADD PUSH1 0x0 SWAP1 SWAP2 SWAP1 SWAP2 SWAP1 SWAP2 POP PUSH1 0x0 DUP3 ADD MLOAD DUP2 PUSH1 0x0 ADD PUSH1 0x0 PUSH2 0x100 EXP DUP2 SLOAD DUP2 PUSH20 0xFFFFFFFFFFFFFFFFFFFFFFFFFFFFFFFFFFFFFFFF MUL NOT AND SWAP1 DUP4 PUSH20 0xFFFFFFFFFFFFFFFFFFFFFFFFFFFFFFFFFFFFFFFF AND MUL OR SWAP1 SSTORE POP PUSH1 0x20 DUP3 ADD MLOAD DUP2 PUSH1 0x1 ADD SSTORE POP POP POP POP JUMP JUMPDEST PUSH1 0x60 PUSH1 0x1 DUP1 SLOAD DUP1 PUSH1 0x20 MUL PUSH1 0x20 ADD PUSH1 0x40 MLOAD SWAP1 DUP2 ADD PUSH1 0x40 MSTORE DUP1 SWAP3 SWAP2 SWAP1 DUP2 DUP2 MSTORE PUSH1 0x20 ADD PUSH1 0x0 SWAP1 JUMPDEST DUP3 DUP3 LT ISZERO PUSH2 0xEB8 JUMPI DUP4 DUP3 SWAP1 PUSH1 0x0 MSTORE PUSH1 0x20 PUSH1 0x0 KECCAK256 SWAP1 PUSH1 0x2 MUL ADD PUSH1 0x40 MLOAD DUP1 PUSH1 0x40 ADD PUSH1 0x40 MSTORE SWAP1 DUP2 PUSH1 0x0 DUP3 ADD PUSH1 0x0 SWAP1 SLOAD SWAP1 PUSH2 0x100 EXP SWAP1 DIV PUSH20 0xFFFFFFFFFFFFFFFFFFFFFFFFFFFFFFFFFFFFFFFF AND PUSH20 0xFFFFFFFFFFFFFFFFFFFFFFFFFFFFFFFFFFFFFFFF AND PUSH20 0xFFFFFFFFFFFFFFFFFFFFFFFFFFFFFFFFFFFFFFFF AND DUP2 MSTORE PUSH1 0x20 ADD PUSH1 0x1 DUP3 ADD SLOAD DUP2 MSTORE POP POP DUP2 MSTORE PUSH1 0x20 ADD SWAP1 PUSH1 0x1 ADD SWAP1 PUSH2 0xE26 JUMP JUMPDEST POP POP POP POP SWAP1 POP SWAP1 JUMP JUMPDEST PUSH1 0x0 PUSH2 0xED4 PUSH2 0xECF DUP5 PUSH2 0x1630 JUMP JUMPDEST PUSH2 0x160B JUMP JUMPDEST SWAP1 POP DUP3 DUP2 MSTORE PUSH1 0x20 DUP2 ADD DUP5 DUP5 DUP5 ADD GT ISZERO PUSH2 0xEF0 JUMPI PUSH2 0xEEF PUSH2 0x19DB JUMP JUMPDEST JUMPDEST PUSH2 0xEFB DUP5 DUP3 DUP6 PUSH2 0x182C JUMP JUMPDEST POP SWAP4 SWAP3 POP POP POP JUMP JUMPDEST PUSH1 0x0 DUP2 CALLDATALOAD SWAP1 POP PUSH2 0xF12 DUP2 PUSH2 0x1A76 JUMP JUMPDEST SWAP3 SWAP2 POP POP JUMP JUMPDEST PUSH1 0x0 DUP3 PUSH1 0x1F DUP4 ADD SLT PUSH2 0xF2D JUMPI PUSH2 0xF2C PUSH2 0x19D6 JUMP JUMPDEST JUMPDEST DUP2 CALLDATALOAD PUSH2 0xF3D DUP5 DUP3 PUSH1 0x20 DUP7 ADD PUSH2 0xEC1 JUMP JUMPDEST SWAP2 POP POP SWAP3 SWAP2 POP POP JUMP JUMPDEST PUSH1 0x0 DUP2 CALLDATALOAD SWAP1 POP PUSH2 0xF55 DUP2 PUSH2 0x1A8D JUMP JUMPDEST SWAP3 SWAP2 POP POP JUMP JUMPDEST PUSH1 0x0 DUP1 PUSH1 0x40 DUP4 DUP6 SUB SLT ISZERO PUSH2 0xF72 JUMPI PUSH2 0xF71 PUSH2 0x19E5 JUMP JUMPDEST JUMPDEST PUSH1 0x0 PUSH2 0xF80 DUP6 DUP3 DUP7 ADD PUSH2 0xF03 JUMP JUMPDEST SWAP3 POP POP PUSH1 0x20 DUP4 ADD CALLDATALOAD PUSH8 0xFFFFFFFFFFFFFFFF DUP2 GT ISZERO PUSH2 0xFA1 JUMPI PUSH2 0xFA0 PUSH2 0x19E0 JUMP JUMPDEST JUMPDEST PUSH2 0xFAD DUP6 DUP3 DUP7 ADD PUSH2 0xF18 JUMP JUMPDEST SWAP2 POP POP SWAP3 POP SWAP3 SWAP1 POP JUMP JUMPDEST PUSH1 0x0 DUP1 PUSH1 0x40 DUP4 DUP6 SUB SLT ISZERO PUSH2 0xFCE JUMPI PUSH2 0xFCD PUSH2 0x19E5 JUMP JUMPDEST JUMPDEST PUSH1 0x0 PUSH2 0xFDC DUP6 DUP3 DUP7 ADD PUSH2 0xF03 JUMP JUMPDEST SWAP3 POP POP PUSH1 0x20 PUSH2 0xFED DUP6 DUP3 DUP7 ADD PUSH2 0xF46 JUMP JUMPDEST SWAP2 POP POP SWAP3 POP SWAP3 SWAP1 POP JUMP JUMPDEST PUSH1 0x0 PUSH1 0x20 DUP3 DUP5 SUB SLT ISZERO PUSH2 0x100D JUMPI PUSH2 0x100C PUSH2 0x19E5 JUMP JUMPDEST JUMPDEST PUSH1 0x0 PUSH2 0x101B DUP5 DUP3 DUP6 ADD PUSH2 0xF46 JUMP JUMPDEST SWAP2 POP POP SWAP3 SWAP2 POP POP JUMP JUMPDEST PUSH1 0x0 PUSH2 0x1030 DUP4 DUP4 PUSH2 0x13CE JUMP JUMPDEST PUSH1 0x40 DUP4 ADD SWAP1 POP SWAP3 SWAP2 POP POP JUMP JUMPDEST PUSH1 0x0 PUSH2 0x1048 DUP4 DUP4 PUSH2 0x13FD JUMP JUMPDEST SWAP1 POP SWAP3 SWAP2 POP POP JUMP JUMPDEST PUSH1 0x0 PUSH2 0x105C DUP4 DUP4 PUSH2 0x1467 JUMP JUMPDEST PUSH1 0x40 DUP4 ADD SWAP1 POP SWAP3 SWAP2 POP POP JUMP JUMPDEST PUSH1 0x0 PUSH2 0x1074 DUP4 DUP4 PUSH2 0x1496 JUMP JUMPDEST SWAP1 POP SWAP3 SWAP2 POP POP JUMP JUMPDEST PUSH1 0x0 PUSH2 0x1088 DUP4 DUP4 PUSH2 0x1507 JUMP JUMPDEST PUSH1 0x40 DUP4 ADD SWAP1 POP SWAP3 SWAP2 POP POP JUMP JUMPDEST PUSH1 0x0 PUSH2 0x10A0 DUP4 DUP4 PUSH2 0x1536 JUMP JUMPDEST PUSH1 0x20 DUP4 ADD SWAP1 POP SWAP3 SWAP2 POP POP JUMP JUMPDEST PUSH2 0x10B5 DUP2 PUSH2 0x17E4 JUMP JUMPDEST DUP3 MSTORE POP POP JUMP JUMPDEST PUSH1 0x0 PUSH2 0x10C6 DUP3 PUSH2 0x16C1 JUMP JUMPDEST PUSH2 0x10D0 DUP2 DUP6 PUSH2 0x175C JUMP JUMPDEST SWAP4 POP PUSH2 0x10DB DUP4 PUSH2 0x1661 JUMP JUMPDEST DUP1 PUSH1 0x0 JUMPDEST DUP4 DUP2 LT ISZERO PUSH2 0x110C JUMPI DUP2 MLOAD PUSH2 0x10F3 DUP9 DUP3 PUSH2 0x1024 JUMP JUMPDEST SWAP8 POP PUSH2 0x10FE DUP4 PUSH2 0x170E JUMP JUMPDEST SWAP3 POP POP PUSH1 0x1 DUP2 ADD SWAP1 POP PUSH2 0x10DF JUMP JUMPDEST POP DUP6 SWAP4 POP POP POP POP SWAP3 SWAP2 POP POP JUMP JUMPDEST PUSH1 0x0 PUSH2 0x1124 DUP3 PUSH2 0x16CC JUMP JUMPDEST PUSH2 0x112E DUP2 DUP6 PUSH2 0x176D JUMP JUMPDEST SWAP4 POP DUP4 PUSH1 0x20 DUP3 MUL DUP6 ADD PUSH2 0x1140 DUP6 PUSH2 0x1671 JUMP JUMPDEST DUP1 PUSH1 0x0 JUMPDEST DUP6 DUP2 LT ISZERO PUSH2 0x117C JUMPI DUP5 DUP5 SUB DUP10 MSTORE DUP2 MLOAD PUSH2 0x115D DUP6 DUP3 PUSH2 0x103C JUMP JUMPDEST SWAP5 POP PUSH2 0x1168 DUP4 PUSH2 0x171B JUMP JUMPDEST SWAP3 POP PUSH1 0x20 DUP11 ADD SWAP10 POP POP PUSH1 0x1 DUP2 ADD SWAP1 POP PUSH2 0x1144 JUMP JUMPDEST POP DUP3 SWAP8 POP DUP8 SWAP6 POP POP POP POP POP POP SWAP3 SWAP2 POP POP JUMP JUMPDEST PUSH1 0x0 PUSH2 0x1199 DUP3 PUSH2 0x16D7 JUMP JUMPDEST PUSH2 0x11A3 DUP2 DUP6 PUSH2 0x177E JUMP JUMPDEST SWAP4 POP PUSH2 0x11AE DUP4 PUSH2 0x1681 JUMP JUMPDEST DUP1 PUSH1 0x0 JUMPDEST DUP4 DUP2 LT ISZERO PUSH2 0x11DF JUMPI DUP2 MLOAD PUSH2 0x11C6 DUP9 DUP3 PUSH2 0x1050 JUMP JUMPDEST SWAP8 POP PUSH2 0x11D1 DUP4 PUSH2 0x1728 JUMP JUMPDEST SWAP3 POP POP PUSH1 0x1 DUP2 ADD SWAP1 POP PUSH2 0x11B2 JUMP JUMPDEST POP DUP6 SWAP4 POP POP POP POP SWAP3 SWAP2 POP POP JUMP JUMPDEST PUSH1 0x0 PUSH2 0x11F7 DUP3 PUSH2 0x16E2 JUMP JUMPDEST PUSH2 0x1201 DUP2 DUP6 PUSH2 0x178F JUMP JUMPDEST SWAP4 POP DUP4 PUSH1 0x20 DUP3 MUL DUP6 ADD PUSH2 0x1213 DUP6 PUSH2 0x1691 JUMP JUMPDEST DUP1 PUSH1 0x0 JUMPDEST DUP6 DUP2 LT ISZERO PUSH2 0x124F JUMPI DUP5 DUP5 SUB DUP10 MSTORE DUP2 MLOAD PUSH2 0x1230 DUP6 DUP3 PUSH2 0x1068 JUMP JUMPDEST SWAP5 POP PUSH2 0x123B DUP4 PUSH2 0x1735 JUMP JUMPDEST SWAP3 POP PUSH1 0x20 DUP11 ADD SWAP10 POP POP PUSH1 0x1 DUP2 ADD SWAP1 POP PUSH2 0x1217 JUMP JUMPDEST POP DUP3 SWAP8 POP DUP8 SWAP6 POP POP POP POP POP POP SWAP3 SWAP2 POP POP JUMP JUMPDEST PUSH1 0x0 PUSH2 0x126C DUP3 PUSH2 0x16ED JUMP JUMPDEST PUSH2 0x1276 DUP2 DUP6 PUSH2 0x17A0 JUMP JUMPDEST SWAP4 POP PUSH2 0x1281 DUP4 PUSH2 0x16A1 JUMP JUMPDEST DUP1 PUSH1 0x0 JUMPDEST DUP4 DUP2 LT ISZERO PUSH2 0x12B2 JUMPI DUP2 MLOAD PUSH2 0x1299 DUP9 DUP3 PUSH2 0x107C JUMP JUMPDEST SWAP8 POP PUSH2 0x12A4 DUP4 PUSH2 0x1742 JUMP JUMPDEST SWAP3 POP POP PUSH1 0x1 DUP2 ADD SWAP1 POP PUSH2 0x1285 JUMP JUMPDEST POP DUP6 SWAP4 POP POP POP POP SWAP3 SWAP2 POP POP JUMP JUMPDEST PUSH1 0x0 PUSH2 0x12CA DUP3 PUSH2 0x16F8 JUMP JUMPDEST PUSH2 0x12D4 DUP2 DUP6 PUSH2 0x17B1 JUMP JUMPDEST SWAP4 POP PUSH2 0x12DF DUP4 PUSH2 0x16B1 JUMP JUMPDEST DUP1 PUSH1 0x0 JUMPDEST DUP4 DUP2 LT ISZERO PUSH2 0x1310 JUMPI DUP2 MLOAD PUSH2 0x12F7 DUP9 DUP3 PUSH2 0x1094 JUMP JUMPDEST SWAP8 POP PUSH2 0x1302 DUP4 PUSH2 0x174F JUMP JUMPDEST SWAP3 POP POP PUSH1 0x1 DUP2 ADD SWAP1 POP PUSH2 0x12E3 JUMP JUMPDEST POP DUP6 SWAP4 POP POP POP POP SWAP3 SWAP2 POP POP JUMP JUMPDEST PUSH2 0x1326 DUP2 PUSH2 0x17F6 JUMP JUMPDEST DUP3 MSTORE POP POP JUMP JUMPDEST PUSH1 0x0 PUSH2 0x1337 DUP3 PUSH2 0x1703 JUMP JUMPDEST PUSH2 0x1341 DUP2 DUP6 PUSH2 0x17C2 JUMP JUMPDEST SWAP4 POP PUSH2 0x1351 DUP2 DUP6 PUSH1 0x20 DUP7 ADD PUSH2 0x183B JUMP JUMPDEST PUSH2 0x135A DUP2 PUSH2 0x19EA JUMP JUMPDEST DUP5 ADD SWAP2 POP POP SWAP3 SWAP2 POP POP JUMP JUMPDEST PUSH1 0x0 PUSH2 0x1372 PUSH1 0x16 DUP4 PUSH2 0x17D3 JUMP JUMPDEST SWAP2 POP PUSH2 0x137D DUP3 PUSH2 0x19FB JUMP JUMPDEST PUSH1 0x20 DUP3 ADD SWAP1 POP SWAP2 SWAP1 POP JUMP JUMPDEST PUSH1 0x0 PUSH2 0x1395 PUSH1 0x15 DUP4 PUSH2 0x17D3 JUMP JUMPDEST SWAP2 POP PUSH2 0x13A0 DUP3 PUSH2 0x1A24 JUMP JUMPDEST PUSH1 0x20 DUP3 ADD SWAP1 POP SWAP2 SWAP1 POP JUMP JUMPDEST PUSH1 0x0 PUSH2 0x13B8 PUSH1 0xC DUP4 PUSH2 0x17D3 JUMP JUMPDEST SWAP2 POP PUSH2 0x13C3 DUP3 PUSH2 0x1A4D JUMP JUMPDEST PUSH1 0x20 DUP3 ADD SWAP1 POP SWAP2 SWAP1 POP JUMP JUMPDEST PUSH1 0x40 DUP3 ADD PUSH1 0x0 DUP3 ADD MLOAD PUSH2 0x13E4 PUSH1 0x0 DUP6 ADD DUP3 PUSH2 0x10AC JUMP JUMPDEST POP PUSH1 0x20 DUP3 ADD MLOAD PUSH2 0x13F7 PUSH1 0x20 DUP6 ADD DUP3 PUSH2 0x131D JUMP JUMPDEST POP POP POP POP JUMP JUMPDEST PUSH1 0x0 PUSH1 0x80 DUP4 ADD PUSH1 0x0 DUP4 ADD MLOAD PUSH2 0x1415 PUSH1 0x0 DUP7 ADD DUP3 PUSH2 0x10AC JUMP JUMPDEST POP PUSH1 0x20 DUP4 ADD MLOAD PUSH2 0x1428 PUSH1 0x20 DUP7 ADD DUP3 PUSH2 0x1536 JUMP JUMPDEST POP PUSH1 0x40 DUP4 ADD MLOAD DUP5 DUP3 SUB PUSH1 0x40 DUP7 ADD MSTORE PUSH2 0x1440 DUP3 DUP3 PUSH2 0x10BB JUMP JUMPDEST SWAP2 POP POP PUSH1 0x60 DUP4 ADD MLOAD DUP5 DUP3 SUB PUSH1 0x60 DUP7 ADD MSTORE PUSH2 0x145A DUP3 DUP3 PUSH2 0x132C JUMP JUMPDEST SWAP2 POP POP DUP1 SWAP2 POP POP SWAP3 SWAP2 POP POP JUMP JUMPDEST PUSH1 0x40 DUP3 ADD PUSH1 0x0 DUP3 ADD MLOAD PUSH2 0x147D PUSH1 0x0 DUP6 ADD DUP3 PUSH2 0x10AC JUMP JUMPDEST POP PUSH1 0x20 DUP3 ADD MLOAD PUSH2 0x1490 PUSH1 0x20 DUP6 ADD DUP3 PUSH2 0x131D JUMP JUMPDEST POP POP POP POP JUMP JUMPDEST PUSH1 0x0 PUSH1 0x80 DUP4 ADD PUSH1 0x0 DUP4 ADD MLOAD PUSH2 0x14AE PUSH1 0x0 DUP7 ADD DUP3 PUSH2 0x10AC JUMP JUMPDEST POP PUSH1 0x20 DUP4 ADD MLOAD DUP5 DUP3 SUB PUSH1 0x20 DUP7 ADD MSTORE PUSH2 0x14C6 DUP3 DUP3 PUSH2 0x132C JUMP JUMPDEST SWAP2 POP POP PUSH1 0x40 DUP4 ADD MLOAD DUP5 DUP3 SUB PUSH1 0x40 DUP7 ADD MSTORE PUSH2 0x14E0 DUP3 DUP3 PUSH2 0x1119 JUMP JUMPDEST SWAP2 POP POP PUSH1 0x60 DUP4 ADD MLOAD DUP5 DUP3 SUB PUSH1 0x60 DUP7 ADD MSTORE PUSH2 0x14FA DUP3 DUP3 PUSH2 0x12BF JUMP JUMPDEST SWAP2 POP POP DUP1 SWAP2 POP POP SWAP3 SWAP2 POP POP JUMP JUMPDEST PUSH1 0x40 DUP3 ADD PUSH1 0x0 DUP3 ADD MLOAD PUSH2 0x151D PUSH1 0x0 DUP6 ADD DUP3 PUSH2 0x10AC JUMP JUMPDEST POP PUSH1 0x20 DUP3 ADD MLOAD PUSH2 0x1530 PUSH1 0x20 DUP6 ADD DUP3 PUSH2 0x1536 JUMP JUMPDEST POP POP POP POP JUMP JUMPDEST PUSH2 0x153F DUP2 PUSH2 0x1822 JUMP JUMPDEST DUP3 MSTORE POP POP JUMP JUMPDEST PUSH1 0x0 PUSH1 0x20 DUP3 ADD SWAP1 POP DUP2 DUP2 SUB PUSH1 0x0 DUP4 ADD MSTORE PUSH2 0x155F DUP2 DUP5 PUSH2 0x118E JUMP JUMPDEST SWAP1 POP SWAP3 SWAP2 POP POP JUMP JUMPDEST PUSH1 0x0 PUSH1 0x20 DUP3 ADD SWAP1 POP DUP2 DUP2 SUB PUSH1 0x0 DUP4 ADD MSTORE PUSH2 0x1581 DUP2 DUP5 PUSH2 0x11EC JUMP JUMPDEST SWAP1 POP SWAP3 SWAP2 POP POP JUMP JUMPDEST PUSH1 0x0 PUSH1 0x20 DUP3 ADD SWAP1 POP DUP2 DUP2 SUB PUSH1 0x0 DUP4 ADD MSTORE PUSH2 0x15A3 DUP2 DUP5 PUSH2 0x1261 JUMP JUMPDEST SWAP1 POP SWAP3 SWAP2 POP POP JUMP JUMPDEST PUSH1 0x0 PUSH1 0x20 DUP3 ADD SWAP1 POP DUP2 DUP2 SUB PUSH1 0x0 DUP4 ADD MSTORE PUSH2 0x15C4 DUP2 PUSH2 0x1365 JUMP JUMPDEST SWAP1 POP SWAP2 SWAP1 POP JUMP JUMPDEST PUSH1 0x0 PUSH1 0x20 DUP3 ADD SWAP1 POP DUP2 DUP2 SUB PUSH1 0x0 DUP4 ADD MSTORE PUSH2 0x15E4 DUP2 PUSH2 0x1388 JUMP JUMPDEST SWAP1 POP SWAP2 SWAP1 POP JUMP JUMPDEST PUSH1 0x0 PUSH1 0x20 DUP3 ADD SWAP1 POP DUP2 DUP2 SUB PUSH1 0x0 DUP4 ADD MSTORE PUSH2 0x1604 DUP2 PUSH2 0x13AB JUMP JUMPDEST SWAP1 POP SWAP2 SWAP1 POP JUMP JUMPDEST PUSH1 0x0 PUSH2 0x1615 PUSH2 0x1626 JUMP JUMPDEST SWAP1 POP PUSH2 0x1621 DUP3 DUP3 PUSH2 0x18A0 JUMP JUMPDEST SWAP2 SWAP1 POP JUMP JUMPDEST PUSH1 0x0 PUSH1 0x40 MLOAD SWAP1 POP SWAP1 JUMP JUMPDEST PUSH1 0x0 PUSH8 0xFFFFFFFFFFFFFFFF DUP3 GT ISZERO PUSH2 0x164B JUMPI PUSH2 0x164A PUSH2 0x19A7 JUMP JUMPDEST JUMPDEST PUSH2 0x1654 DUP3 PUSH2 0x19EA JUMP JUMPDEST SWAP1 POP PUSH1 0x20 DUP2 ADD SWAP1 POP SWAP2 SWAP1 POP JUMP JUMPDEST PUSH1 0x0 DUP2 SWAP1 POP PUSH1 0x20 DUP3 ADD SWAP1 POP SWAP2 SWAP1 POP JUMP JUMPDEST PUSH1 0x0 DUP2 SWAP1 POP PUSH1 0x20 DUP3 ADD SWAP1 POP SWAP2 SWAP1 POP JUMP JUMPDEST PUSH1 0x0 DUP2 SWAP1 POP PUSH1 0x20 DUP3 ADD SWAP1 POP SWAP2 SWAP1 POP JUMP JUMPDEST PUSH1 0x0 DUP2 SWAP1 POP PUSH1 0x20 DUP3 ADD SWAP1 POP SWAP2 SWAP1 POP JUMP JUMPDEST PUSH1 0x0 DUP2 SWAP1 POP PUSH1 0x20 DUP3 ADD SWAP1 POP SWAP2 SWAP1 POP JUMP JUMPDEST PUSH1 0x0 DUP2 SWAP1 POP PUSH1 0x20 DUP3 ADD SWAP1 POP SWAP2 SWAP1 POP JUMP JUMPDEST PUSH1 0x0 DUP2 MLOAD SWAP1 POP SWAP2 SWAP1 POP JUMP JUMPDEST PUSH1 0x0 DUP2 MLOAD SWAP1 POP SWAP2 SWAP1 POP JUMP JUMPDEST PUSH1 0x0 DUP2 MLOAD SWAP1 POP SWAP2 SWAP1 POP JUMP JUMPDEST PUSH1 0x0 DUP2 MLOAD SWAP1 POP SWAP2 SWAP1 POP JUMP JUMPDEST PUSH1 0x0 DUP2 MLOAD SWAP1 POP SWAP2 SWAP1 POP JUMP JUMPDEST PUSH1 0x0 DUP2 MLOAD SWAP1 POP SWAP2 SWAP1 POP JUMP JUMPDEST PUSH1 0x0 DUP2 MLOAD SWAP1 POP SWAP2 SWAP1 POP JUMP JUMPDEST PUSH1 0x0 PUSH1 0x20 DUP3 ADD SWAP1 POP SWAP2 SWAP1 POP JUMP JUMPDEST PUSH1 0x0 PUSH1 0x20 DUP3 ADD SWAP1 POP SWAP2 SWAP1 POP JUMP JUMPDEST PUSH1 0x0 PUSH1 0x20 DUP3 ADD SWAP1 POP SWAP2 SWAP1 POP JUMP JUMPDEST PUSH1 0x0 PUSH1 0x20 DUP3 ADD SWAP1 POP SWAP2 SWAP1 POP JUMP JUMPDEST PUSH1 0x0 PUSH1 0x20 DUP3 ADD SWAP1 POP SWAP2 SWAP1 POP JUMP JUMPDEST PUSH1 0x0 PUSH1 0x20 DUP3 ADD SWAP1 POP SWAP2 SWAP1 POP JUMP JUMPDEST PUSH1 0x0 DUP3 DUP3 MSTORE PUSH1 0x20 DUP3 ADD SWAP1 POP SWAP3 SWAP2 POP POP JUMP JUMPDEST PUSH1 0x0 DUP3 DUP3 MSTORE PUSH1 0x20 DUP3 ADD SWAP1 POP SWAP3 SWAP2 POP POP JUMP JUMPDEST PUSH1 0x0 DUP3 DUP3 MSTORE PUSH1 0x20 DUP3 ADD SWAP1 POP SWAP3 SWAP2 POP POP JUMP JUMPDEST PUSH1 0x0 DUP3 DUP3 MSTORE PUSH1 0x20 DUP3 ADD SWAP1 POP SWAP3 SWAP2 POP POP JUMP JUMPDEST PUSH1 0x0 DUP3 DUP3 MSTORE PUSH1 0x20 DUP3 ADD SWAP1 POP SWAP3 SWAP2 POP POP JUMP JUMPDEST PUSH1 0x0 DUP3 DUP3 MSTORE PUSH1 0x20 DUP3 ADD SWAP1 POP SWAP3 SWAP2 POP POP JUMP JUMPDEST PUSH1 0x0 DUP3 DUP3 MSTORE PUSH1 0x20 DUP3 ADD SWAP1 POP SWAP3 SWAP2 POP POP JUMP JUMPDEST PUSH1 0x0 DUP3 DUP3 MSTORE PUSH1 0x20 DUP3 ADD SWAP1 POP SWAP3 SWAP2 POP POP JUMP JUMPDEST PUSH1 0x0 PUSH2 0x17EF DUP3 PUSH2 0x1802 JUMP JUMPDEST SWAP1 POP SWAP2 SWAP1 POP JUMP JUMPDEST PUSH1 0x0 DUP2 ISZERO ISZERO SWAP1 POP SWAP2 SWAP1 POP JUMP JUMPDEST PUSH1 0x0 PUSH20 0xFFFFFFFFFFFFFFFFFFFFFFFFFFFFFFFFFFFFFFFF DUP3 AND SWAP1 POP SWAP2 SWAP1 POP JUMP JUMPDEST PUSH1 0x0 DUP2 SWAP1 POP SWAP2 SWAP1 POP JUMP JUMPDEST DUP3 DUP2 DUP4 CALLDATACOPY PUSH1 0x0 DUP4 DUP4 ADD MSTORE POP POP POP JUMP JUMPDEST PUSH1 0x0 JUMPDEST DUP4 DUP2 LT ISZERO PUSH2 0x1859 JUMPI DUP1 DUP3 ADD MLOAD DUP2 DUP5 ADD MSTORE PUSH1 0x20 DUP2 ADD SWAP1 POP PUSH2 0x183E JUMP JUMPDEST DUP4 DUP2 GT ISZERO PUSH2 0x1868 JUMPI PUSH1 0x0 DUP5 DUP5 ADD MSTORE JUMPDEST POP POP POP POP JUMP JUMPDEST PUSH1 0x0 PUSH1 0x2 DUP3 DIV SWAP1 POP PUSH1 0x1 DUP3 AND DUP1 PUSH2 0x1886 JUMPI PUSH1 0x7F DUP3 AND SWAP2 POP JUMPDEST PUSH1 0x20 DUP3 LT DUP2 EQ ISZERO PUSH2 0x189A JUMPI PUSH2 0x1899 PUSH2 0x1949 JUMP JUMPDEST JUMPDEST POP SWAP2 SWAP1 POP JUMP JUMPDEST PUSH2 0x18A9 DUP3 PUSH2 0x19EA JUMP JUMPDEST DUP2 ADD DUP2 DUP2 LT PUSH8 0xFFFFFFFFFFFFFFFF DUP3 GT OR ISZERO PUSH2 0x18C8 JUMPI PUSH2 0x18C7 PUSH2 0x19A7 JUMP JUMPDEST JUMPDEST DUP1 PUSH1 0x40 MSTORE POP POP POP JUMP JUMPDEST PUSH1 0x0 PUSH2 0x18DC DUP3 PUSH2 0x1822 JUMP JUMPDEST SWAP2 POP PUSH32 0xFFFFFFFFFFFFFFFFFFFFFFFFFFFFFFFFFFFFFFFFFFFFFFFFFFFFFFFFFFFFFFFF DUP3 EQ ISZERO PUSH2 0x190F JUMPI PUSH2 0x190E PUSH2 0x191A JUMP JUMPDEST JUMPDEST PUSH1 0x1 DUP3 ADD SWAP1 POP SWAP2 SWAP1 POP JUMP JUMPDEST PUSH32 0x4E487B7100000000000000000000000000000000000000000000000000000000 PUSH1 0x0 MSTORE PUSH1 0x11 PUSH1 0x4 MSTORE PUSH1 0x24 PUSH1 0x0 REVERT JUMPDEST PUSH32 0x4E487B7100000000000000000000000000000000000000000000000000000000 PUSH1 0x0 MSTORE PUSH1 0x22 PUSH1 0x4 MSTORE PUSH1 0x24 PUSH1 0x0 REVERT JUMPDEST PUSH32 0x4E487B7100000000000000000000000000000000000000000000000000000000 PUSH1 0x0 MSTORE PUSH1 0x32 PUSH1 0x4 MSTORE PUSH1 0x24 PUSH1 0x0 REVERT JUMPDEST PUSH32 0x4E487B7100000000000000000000000000000000000000000000000000000000 PUSH1 0x0 MSTORE PUSH1 0x41 PUSH1 0x4 MSTORE PUSH1 0x24 PUSH1 0x0 REVERT JUMPDEST PUSH1 0x0 DUP1 REVERT JUMPDEST PUSH1 0x0 DUP1 REVERT JUMPDEST PUSH1 0x0 DUP1 REVERT JUMPDEST PUSH1 0x0 DUP1 REVERT JUMPDEST PUSH1 0x0 PUSH1 0x1F NOT PUSH1 0x1F DUP4 ADD AND SWAP1 POP SWAP2 SWAP1 POP JUMP JUMPDEST PUSH32 0x5468697320726F6C652069736E27742065786973747300000000000000000000 PUSH1 0x0 DUP3 ADD MSTORE POP JUMP JUMPDEST PUSH32 0x5520616C72656164792072656769737465726564210000000000000000000000 PUSH1 0x0 DUP3 ADD MSTORE POP JUMP JUMPDEST PUSH32 0x53686F7020657869737473210000000000000000000000000000000000000000 PUSH1 0x0 DUP3 ADD MSTORE POP JUMP JUMPDEST PUSH2 0x1A7F DUP2 PUSH2 0x17E4 JUMP JUMPDEST DUP2 EQ PUSH2 0x1A8A JUMPI PUSH1 0x0 DUP1 REVERT JUMPDEST POP JUMP JUMPDEST PUSH2 0x1A96 DUP2 PUSH2 0x1822 JUMP JUMPDEST DUP2 EQ PUSH2 0x1AA1 JUMPI PUSH1 0x0 DUP1 REVERT JUMPDEST POP JUMP INVALID LOG2 PUSH5 0x6970667358 0x22 SLT KECCAK256 0xBD SWAP11 0xE6 0x2B GASLIMIT DUP5 PUSH24 0xCB16556A9C4D625982593323CB5EBED4F25046E892F6F46A SMOD PUSH5 0x736F6C6343 STOP ADDMOD SMOD STOP CALLER "
				},
				"gasEstimates": {
					"creation": {
						"codeDepositCost": "1374800",
						"executionCost": "1431",
						"totalCost": "1376231"
					},
					"external": {
						"addAdmin()": "166",
						"addShop(address,string)": "infinite",
						"regUser(address,uint256)": "infinite",
						"regUser(uint256)": "infinite",
						"view_Requests()": "infinite",
						"view_Shops()": "infinite",
						"view_Users()": "infinite"
					}
				},
				"methodIdentifiers": {
					"addAdmin()": "6d5aaf80",
					"addShop(address,string)": "1c618eb3",
					"regUser(address,uint256)": "53c9e62e",
					"regUser(uint256)": "8853b53e",
					"view_Requests()": "2bd2cd50",
					"view_Shops()": "240185b6",
					"view_Users()": "ad81f803"
				}
			},
			"storageLayout": {
				"storage": [
					{
						"astId": 52,
						"contract": "shop.sol:Shop",
						"label": "Shops",
						"offset": 0,
						"slot": "0",
						"type": "t_array(t_struct(shop)18_storage)dyn_storage"
					},
					{
						"astId": 56,
						"contract": "shop.sol:Shop",
						"label": "Users",
						"offset": 0,
						"slot": "1",
						"type": "t_array(t_struct(user)6_storage)dyn_storage"
					},
					{
						"astId": 60,
						"contract": "shop.sol:Shop",
						"label": "Requests",
						"offset": 0,
						"slot": "2",
						"type": "t_array(t_struct(request)23_storage)dyn_storage"
					}
				],
				"types": {
					"t_address": {
						"encoding": "inplace",
						"label": "address",
						"numberOfBytes": "20"
					},
					"t_array(t_struct(like)28_storage)dyn_storage": {
						"base": "t_struct(like)28_storage",
						"encoding": "dynamic_array",
						"label": "struct Shop.like[]",
						"numberOfBytes": "32"
					},
					"t_array(t_struct(mark)39_storage)dyn_storage": {
						"base": "t_struct(mark)39_storage",
						"encoding": "dynamic_array",
						"label": "struct Shop.mark[]",
						"numberOfBytes": "32"
					},
					"t_array(t_struct(request)23_storage)dyn_storage": {
						"base": "t_struct(request)23_storage",
						"encoding": "dynamic_array",
						"label": "struct Shop.request[]",
						"numberOfBytes": "32"
					},
					"t_array(t_struct(shop)18_storage)dyn_storage": {
						"base": "t_struct(shop)18_storage",
						"encoding": "dynamic_array",
						"label": "struct Shop.shop[]",
						"numberOfBytes": "32"
					},
					"t_array(t_struct(user)6_storage)dyn_storage": {
						"base": "t_struct(user)6_storage",
						"encoding": "dynamic_array",
						"label": "struct Shop.user[]",
						"numberOfBytes": "32"
					},
					"t_array(t_uint256)dyn_storage": {
						"base": "t_uint256",
						"encoding": "dynamic_array",
						"label": "uint256[]",
						"numberOfBytes": "32"
					},
					"t_bool": {
						"encoding": "inplace",
						"label": "bool",
						"numberOfBytes": "1"
					},
					"t_string_storage": {
						"encoding": "bytes",
						"label": "string",
						"numberOfBytes": "32"
					},
					"t_struct(like)28_storage": {
						"encoding": "inplace",
						"label": "struct Shop.like",
						"members": [
							{
								"astId": 25,
								"contract": "shop.sol:Shop",
								"label": "appraiser",
								"offset": 0,
								"slot": "0",
								"type": "t_address"
							},
							{
								"astId": 27,
								"contract": "shop.sol:Shop",
								"label": "isLiked",
								"offset": 20,
								"slot": "0",
								"type": "t_bool"
							}
						],
						"numberOfBytes": "32"
					},
					"t_struct(mark)39_storage": {
						"encoding": "inplace",
						"label": "struct Shop.mark",
						"members": [
							{
								"astId": 30,
								"contract": "shop.sol:Shop",
								"label": "appraiser",
								"offset": 0,
								"slot": "0",
								"type": "t_address"
							},
							{
								"astId": 32,
								"contract": "shop.sol:Shop",
								"label": "rating",
								"offset": 0,
								"slot": "1",
								"type": "t_uint256"
							},
							{
								"astId": 36,
								"contract": "shop.sol:Shop",
								"label": "likes",
								"offset": 0,
								"slot": "2",
								"type": "t_array(t_struct(like)28_storage)dyn_storage"
							},
							{
								"astId": 38,
								"contract": "shop.sol:Shop",
								"label": "description",
								"offset": 0,
								"slot": "3",
								"type": "t_string_storage"
							}
						],
						"numberOfBytes": "128"
					},
					"t_struct(request)23_storage": {
						"encoding": "inplace",
						"label": "struct Shop.request",
						"members": [
							{
								"astId": 20,
								"contract": "shop.sol:Shop",
								"label": "requester",
								"offset": 0,
								"slot": "0",
								"type": "t_address"
							},
							{
								"astId": 22,
								"contract": "shop.sol:Shop",
								"label": "status",
								"offset": 20,
								"slot": "0",
								"type": "t_bool"
							}
						],
						"numberOfBytes": "32"
					},
					"t_struct(shop)18_storage": {
						"encoding": "inplace",
						"label": "struct Shop.shop",
						"members": [
							{
								"astId": 8,
								"contract": "shop.sol:Shop",
								"label": "shop",
								"offset": 0,
								"slot": "0",
								"type": "t_address"
							},
							{
								"astId": 10,
								"contract": "shop.sol:Shop",
								"label": "city",
								"offset": 0,
								"slot": "1",
								"type": "t_string_storage"
							},
							{
								"astId": 14,
								"contract": "shop.sol:Shop",
								"label": "bookOfMarks",
								"offset": 0,
								"slot": "2",
								"type": "t_array(t_struct(mark)39_storage)dyn_storage"
							},
							{
								"astId": 17,
								"contract": "shop.sol:Shop",
								"label": "sellers",
								"offset": 0,
								"slot": "3",
								"type": "t_array(t_uint256)dyn_storage"
							}
						],
						"numberOfBytes": "128"
					},
					"t_struct(user)6_storage": {
						"encoding": "inplace",
						"label": "struct Shop.user",
						"members": [
							{
								"astId": 3,
								"contract": "shop.sol:Shop",
								"label": "user",
								"offset": 0,
								"slot": "0",
								"type": "t_address"
							},
							{
								"astId": 5,
								"contract": "shop.sol:Shop",
								"label": "role",
								"offset": 0,
								"slot": "1",
								"type": "t_uint256"
							}
						],
						"numberOfBytes": "64"
					},
					"t_uint256": {
						"encoding": "inplace",
						"label": "uint256",
						"numberOfBytes": "32"
					}
				}
			},
			"userdoc": {
				"kind": "user",
				"methods": {},
				"version": 1
			}
		}
	}
}