{
	"src/libs/shop.sol": {
		"Shop": {
			"abi": [
				{
					"inputs": [],
					"stateMutability": "nonpayable",
					"type": "constructor"
				},
				{
					"inputs": [
						{
							"internalType": "address",
							"name": "candidate",
							"type": "address"
						}
					],
					"name": "addAdmin",
					"outputs": [],
					"stateMutability": "nonpayable",
					"type": "function"
				},
				{
					"inputs": [
						{
							"internalType": "uint256",
							"name": "idShop",
							"type": "uint256"
						},
						{
							"internalType": "uint256",
							"name": "idMark",
							"type": "uint256"
						},
						{
							"internalType": "string",
							"name": "description",
							"type": "string"
						}
					],
					"name": "addComment",
					"outputs": [],
					"stateMutability": "nonpayable",
					"type": "function"
				},
				{
					"inputs": [
						{
							"internalType": "uint256",
							"name": "idShop",
							"type": "uint256"
						},
						{
							"internalType": "uint256",
							"name": "idMark",
							"type": "uint256"
						},
						{
							"internalType": "bool",
							"name": "isLiked",
							"type": "bool"
						}
					],
					"name": "addLike",
					"outputs": [],
					"stateMutability": "nonpayable",
					"type": "function"
				},
				{
					"inputs": [
						{
							"internalType": "uint256",
							"name": "idShop",
							"type": "uint256"
						},
						{
							"internalType": "uint256",
							"name": "idMark",
							"type": "uint256"
						},
						{
							"internalType": "uint256",
							"name": "idComment",
							"type": "uint256"
						},
						{
							"internalType": "bool",
							"name": "isLiked",
							"type": "bool"
						}
					],
					"name": "addLike",
					"outputs": [],
					"stateMutability": "nonpayable",
					"type": "function"
				},
				{
					"inputs": [
						{
							"internalType": "uint256",
							"name": "idShop",
							"type": "uint256"
						},
						{
							"internalType": "uint256",
							"name": "rating",
							"type": "uint256"
						},
						{
							"internalType": "string",
							"name": "description",
							"type": "string"
						}
					],
					"name": "addMark",
					"outputs": [],
					"stateMutability": "nonpayable",
					"type": "function"
				},
				{
					"inputs": [
						{
							"internalType": "address",
							"name": "newShop",
							"type": "address"
						},
						{
							"internalType": "string",
							"name": "city",
							"type": "string"
						}
					],
					"name": "addShop",
					"outputs": [],
					"stateMutability": "nonpayable",
					"type": "function"
				},
				{
					"inputs": [
						{
							"internalType": "uint256",
							"name": "idShop",
							"type": "uint256"
						}
					],
					"name": "deleteShop",
					"outputs": [],
					"stateMutability": "nonpayable",
					"type": "function"
				},
				{
					"inputs": [],
					"name": "globalSwitchRequest",
					"outputs": [],
					"stateMutability": "nonpayable",
					"type": "function"
				},
				{
					"inputs": [],
					"name": "regUser",
					"outputs": [],
					"stateMutability": "nonpayable",
					"type": "function"
				},
				{
					"inputs": [],
					"name": "switchToUser",
					"outputs": [],
					"stateMutability": "nonpayable",
					"type": "function"
				},
				{
					"inputs": [
						{
							"internalType": "uint256",
							"name": "idRequest",
							"type": "uint256"
						}
					],
					"name": "upToSeller",
					"outputs": [],
					"stateMutability": "nonpayable",
					"type": "function"
				},
				{
					"inputs": [],
					"name": "view_Requests",
					"outputs": [
						{
							"components": [
								{
									"internalType": "address",
									"name": "requester",
									"type": "address"
								},
								{
									"internalType": "bool",
									"name": "status",
									"type": "bool"
								}
							],
							"internalType": "struct Shop.request[]",
							"name": "",
							"type": "tuple[]"
						}
					],
					"stateMutability": "view",
					"type": "function"
				},
				{
					"inputs": [],
					"name": "view_Shops",
					"outputs": [
						{
							"components": [
								{
									"internalType": "address",
									"name": "shop",
									"type": "address"
								},
								{
									"internalType": "string",
									"name": "city",
									"type": "string"
								},
								{
									"components": [
										{
											"internalType": "address",
											"name": "appraiser",
											"type": "address"
										},
										{
											"internalType": "uint256",
											"name": "rating",
											"type": "uint256"
										},
										{
											"components": [
												{
													"internalType": "address",
													"name": "appraiser",
													"type": "address"
												},
												{
													"internalType": "bool",
													"name": "isLiked",
													"type": "bool"
												}
											],
											"internalType": "struct Shop.like[]",
											"name": "likes",
											"type": "tuple[]"
										},
										{
											"components": [
												{
													"internalType": "address",
													"name": "sender",
													"type": "address"
												},
												{
													"components": [
														{
															"internalType": "address",
															"name": "appraiser",
															"type": "address"
														},
														{
															"internalType": "bool",
															"name": "isLiked",
															"type": "bool"
														}
													],
													"internalType": "struct Shop.like[]",
													"name": "likes",
													"type": "tuple[]"
												},
												{
													"internalType": "string",
													"name": "description",
													"type": "string"
												}
											],
											"internalType": "struct Shop.comment[]",
											"name": "comments",
											"type": "tuple[]"
										},
										{
											"internalType": "string",
											"name": "description",
											"type": "string"
										}
									],
									"internalType": "struct Shop.mark[]",
									"name": "bookOfMarks",
									"type": "tuple[]"
								},
								{
									"internalType": "uint256[]",
									"name": "sellers",
									"type": "uint256[]"
								}
							],
							"internalType": "struct Shop.shop[]",
							"name": "",
							"type": "tuple[]"
						}
					],
					"stateMutability": "view",
					"type": "function"
				},
				{
					"inputs": [],
					"name": "view_Users",
					"outputs": [
						{
							"components": [
								{
									"internalType": "address",
									"name": "user",
									"type": "address"
								},
								{
									"internalType": "uint256",
									"name": "role",
									"type": "uint256"
								},
								{
									"internalType": "uint256",
									"name": "nowRole",
									"type": "uint256"
								}
							],
							"internalType": "struct Shop.user[]",
							"name": "",
							"type": "tuple[]"
						}
					],
					"stateMutability": "view",
					"type": "function"
				}
			],
			"devdoc": {
				"kind": "dev",
				"methods": {},
				"version": 1
			},
			"evm": {
				"assembly": "    /* \"src/libs/shop.sol\":76:7557  contract Shop {\r... */\n  mstore(0x40, 0x80)\n    /* \"src/libs/shop.sol\":851:1133  constructor() {\r... */\n  callvalue\n  dup1\n  iszero\n  tag_1\n  jumpi\n  0x00\n  dup1\n  revert\ntag_1:\n  pop\n    /* \"src/libs/shop.sol\":876:930  regUser(0x0ac6a47E90449Df6eECF99e27Ed9BAf8c358bca9, 0) */\n  tag_4\n    /* \"src/libs/shop.sol\":884:926  0x0ac6a47E90449Df6eECF99e27Ed9BAf8c358bca9 */\n  0x0ac6a47e90449df6eecf99e27ed9baf8c358bca9\n    /* \"src/libs/shop.sol\":928:929  0 */\n  0x00\n    /* \"src/libs/shop.sol\":876:883  regUser */\n  shl(0x20, tag_5)\n    /* \"src/libs/shop.sol\":876:930  regUser(0x0ac6a47E90449Df6eECF99e27Ed9BAf8c358bca9, 0) */\n  0x20\n  shr\n  jump\t// in\ntag_4:\n    /* \"src/libs/shop.sol\":941:995  regUser(0xa25B3d29531D6Cd15d9D3b6f387520AB371c1161, 1) */\n  tag_6\n    /* \"src/libs/shop.sol\":949:991  0xa25B3d29531D6Cd15d9D3b6f387520AB371c1161 */\n  0xa25b3d29531d6cd15d9d3b6f387520ab371c1161\n    /* \"src/libs/shop.sol\":993:994  1 */\n  0x01\n    /* \"src/libs/shop.sol\":941:948  regUser */\n  shl(0x20, tag_5)\n    /* \"src/libs/shop.sol\":941:995  regUser(0xa25B3d29531D6Cd15d9D3b6f387520AB371c1161, 1) */\n  0x20\n  shr\n  jump\t// in\ntag_6:\n    /* \"src/libs/shop.sol\":1006:1060  regUser(0xc54259cE11383c35D82Bd22FfD730F9764bC5a44, 2) */\n  tag_7\n    /* \"src/libs/shop.sol\":1014:1056  0xc54259cE11383c35D82Bd22FfD730F9764bC5a44 */\n  0xc54259ce11383c35d82bd22ffd730f9764bc5a44\n    /* \"src/libs/shop.sol\":1058:1059  2 */\n  0x02\n    /* \"src/libs/shop.sol\":1006:1013  regUser */\n  shl(0x20, tag_5)\n    /* \"src/libs/shop.sol\":1006:1060  regUser(0xc54259cE11383c35D82Bd22FfD730F9764bC5a44, 2) */\n  0x20\n  shr\n  jump\t// in\ntag_7:\n    /* \"src/libs/shop.sol\":1071:1125  regUser(0xf4eE813A8C8214FC058636E31e670213cFC183b5, 2) */\n  tag_8\n    /* \"src/libs/shop.sol\":1079:1121  0xf4eE813A8C8214FC058636E31e670213cFC183b5 */\n  0xf4ee813a8c8214fc058636e31e670213cfc183b5\n    /* \"src/libs/shop.sol\":1123:1124  2 */\n  0x02\n    /* \"src/libs/shop.sol\":1071:1078  regUser */\n  shl(0x20, tag_5)\n    /* \"src/libs/shop.sol\":1071:1125  regUser(0xf4eE813A8C8214FC058636E31e670213cFC183b5, 2) */\n  0x20\n  shr\n  jump\t// in\ntag_8:\n    /* \"src/libs/shop.sol\":76:7557  contract Shop {\r... */\n  jump(tag_9)\n    /* \"src/libs/shop.sol\":2688:2871  function regUser(address newUser, uint256 role) private isntReg(newUser) {\r... */\ntag_5:\n    /* \"src/libs/shop.sol\":2752:2759  newUser */\n  dup2\n    /* \"src/libs/shop.sol\":1612:1621  uint256 i */\n  0x00\n    /* \"src/libs/shop.sol\":1607:1735  for (uint256 i = 0; i < Users.length; i++) {\r... */\ntag_11:\n    /* \"src/libs/shop.sol\":1631:1636  Users */\n  0x01\n    /* \"src/libs/shop.sol\":1631:1643  Users.length */\n  dup1\n  sload\n  swap1\n  pop\n    /* \"src/libs/shop.sol\":1627:1628  i */\n  dup2\n    /* \"src/libs/shop.sol\":1627:1643  i < Users.length */\n  lt\n    /* \"src/libs/shop.sol\":1607:1735  for (uint256 i = 0; i < Users.length; i++) {\r... */\n  iszero\n  tag_12\n  jumpi\n    /* \"src/libs/shop.sol\":1690:1697  newUser */\n  dup2\n    /* \"src/libs/shop.sol\":1673:1697  Users[i].user != newUser */\n  0xffffffffffffffffffffffffffffffffffffffff\n  and\n    /* \"src/libs/shop.sol\":1673:1678  Users */\n  0x01\n    /* \"src/libs/shop.sol\":1679:1680  i */\n  dup3\n    /* \"src/libs/shop.sol\":1673:1681  Users[i] */\n  dup2\n  sload\n  dup2\n  lt\n  tag_14\n  jumpi\n  tag_15\n  tag_16\n  jump\t// in\ntag_15:\ntag_14:\n  swap1\n  0x00\n  mstore\n  keccak256(0x00, 0x20)\n  swap1\n  0x03\n  mul\n  add\n    /* \"src/libs/shop.sol\":1673:1686  Users[i].user */\n  0x00\n  add\n  0x00\n  swap1\n  sload\n  swap1\n  0x0100\n  exp\n  swap1\n  div\n  0xffffffffffffffffffffffffffffffffffffffff\n  and\n    /* \"src/libs/shop.sol\":1673:1697  Users[i].user != newUser */\n  0xffffffffffffffffffffffffffffffffffffffff\n  and\n  eq\n  iszero\n    /* \"src/libs/shop.sol\":1665:1723  require(Users[i].user != newUser, \"U already registered!\") */\n  tag_18\n  jumpi\n  mload(0x40)\n  0x08c379a000000000000000000000000000000000000000000000000000000000\n  dup2\n  mstore\n  0x04\n  add\n  tag_19\n  swap1\n  tag_20\n  jump\t// in\ntag_19:\n  mload(0x40)\n  dup1\n  swap2\n  sub\n  swap1\n  revert\ntag_18:\n    /* \"src/libs/shop.sol\":1645:1648  i++ */\n  dup1\n  dup1\n  tag_21\n  swap1\n  tag_22\n  jump\t// in\ntag_21:\n  swap2\n  pop\n  pop\n    /* \"src/libs/shop.sol\":1607:1735  for (uint256 i = 0; i < Users.length; i++) {\r... */\n  jump(tag_11)\ntag_12:\n  pop\n    /* \"src/libs/shop.sol\":2787:2788  3 */\n  0x03\n    /* \"src/libs/shop.sol\":2780:2784  role */\n  dup3\n    /* \"src/libs/shop.sol\":2780:2788  role < 3 */\n  lt\n    /* \"src/libs/shop.sol\":2772:2815  require(role < 3, \"This role isn't exists\") */\n  tag_24\n  jumpi\n  mload(0x40)\n  0x08c379a000000000000000000000000000000000000000000000000000000000\n  dup2\n  mstore\n  0x04\n  add\n  tag_25\n  swap1\n  tag_26\n  jump\t// in\ntag_25:\n  mload(0x40)\n  dup1\n  swap2\n  sub\n  swap1\n  revert\ntag_24:\n    /* \"src/libs/shop.sol\":2826:2831  Users */\n  0x01\n    /* \"src/libs/shop.sol\":2837:2862  user(newUser, role, role) */\n  mload(0x40)\n  dup1\n  0x60\n  add\n  0x40\n  mstore\n  dup1\n    /* \"src/libs/shop.sol\":2842:2849  newUser */\n  dup6\n    /* \"src/libs/shop.sol\":2837:2862  user(newUser, role, role) */\n  0xffffffffffffffffffffffffffffffffffffffff\n  and\n  dup2\n  mstore\n  0x20\n  add\n    /* \"src/libs/shop.sol\":2851:2855  role */\n  dup5\n    /* \"src/libs/shop.sol\":2837:2862  user(newUser, role, role) */\n  dup2\n  mstore\n  0x20\n  add\n    /* \"src/libs/shop.sol\":2857:2861  role */\n  dup5\n    /* \"src/libs/shop.sol\":2837:2862  user(newUser, role, role) */\n  dup2\n  mstore\n  pop\n    /* \"src/libs/shop.sol\":2826:2863  Users.push(user(newUser, role, role)) */\n  swap1\n  dup1\n  0x01\n  dup2\n  sload\n  add\n  dup1\n  dup3\n  sstore\n  dup1\n  swap2\n  pop\n  pop\n  0x01\n  swap1\n  sub\n  swap1\n  0x00\n  mstore\n  keccak256(0x00, 0x20)\n  swap1\n  0x03\n  mul\n  add\n  0x00\n  swap1\n  swap2\n  swap1\n  swap2\n  swap1\n  swap2\n  pop\n  0x00\n  dup3\n  add\n  mload\n  dup2\n  0x00\n  add\n  exp(0x0100, 0x00)\n  dup2\n  sload\n  dup2\n  0xffffffffffffffffffffffffffffffffffffffff\n  mul\n  not\n  and\n  swap1\n  dup4\n  0xffffffffffffffffffffffffffffffffffffffff\n  and\n  mul\n  or\n  swap1\n  sstore\n  pop\n  0x20\n  dup3\n  add\n  mload\n  dup2\n  0x01\n  add\n  sstore\n  0x40\n  dup3\n  add\n  mload\n  dup2\n  0x02\n  add\n  sstore\n  pop\n  pop\n    /* \"src/libs/shop.sol\":2688:2871  function regUser(address newUser, uint256 role) private isntReg(newUser) {\r... */\n  pop\n  pop\n  pop\n  jump\t// out\n    /* \"#utility.yul\":7:373   */\ntag_29:\n    /* \"#utility.yul\":149:152   */\n  0x00\n    /* \"#utility.yul\":170:237   */\n  tag_31\n    /* \"#utility.yul\":234:236   */\n  0x16\n    /* \"#utility.yul\":229:232   */\n  dup4\n    /* \"#utility.yul\":170:237   */\n  tag_32\n  jump\t// in\ntag_31:\n    /* \"#utility.yul\":163:237   */\n  swap2\n  pop\n    /* \"#utility.yul\":246:339   */\n  tag_33\n    /* \"#utility.yul\":335:338   */\n  dup3\n    /* \"#utility.yul\":246:339   */\n  tag_34\n  jump\t// in\ntag_33:\n    /* \"#utility.yul\":364:366   */\n  0x20\n    /* \"#utility.yul\":359:362   */\n  dup3\n    /* \"#utility.yul\":355:367   */\n  add\n    /* \"#utility.yul\":348:367   */\n  swap1\n  pop\n    /* \"#utility.yul\":7:373   */\n  swap2\n  swap1\n  pop\n  jump\t// out\n    /* \"#utility.yul\":379:745   */\ntag_35:\n    /* \"#utility.yul\":521:524   */\n  0x00\n    /* \"#utility.yul\":542:609   */\n  tag_37\n    /* \"#utility.yul\":606:608   */\n  0x15\n    /* \"#utility.yul\":601:604   */\n  dup4\n    /* \"#utility.yul\":542:609   */\n  tag_32\n  jump\t// in\ntag_37:\n    /* \"#utility.yul\":535:609   */\n  swap2\n  pop\n    /* \"#utility.yul\":618:711   */\n  tag_38\n    /* \"#utility.yul\":707:710   */\n  dup3\n    /* \"#utility.yul\":618:711   */\n  tag_39\n  jump\t// in\ntag_38:\n    /* \"#utility.yul\":736:738   */\n  0x20\n    /* \"#utility.yul\":731:734   */\n  dup3\n    /* \"#utility.yul\":727:739   */\n  add\n    /* \"#utility.yul\":720:739   */\n  swap1\n  pop\n    /* \"#utility.yul\":379:745   */\n  swap2\n  swap1\n  pop\n  jump\t// out\n    /* \"#utility.yul\":751:1170   */\ntag_26:\n    /* \"#utility.yul\":917:921   */\n  0x00\n    /* \"#utility.yul\":955:957   */\n  0x20\n    /* \"#utility.yul\":944:953   */\n  dup3\n    /* \"#utility.yul\":940:958   */\n  add\n    /* \"#utility.yul\":932:958   */\n  swap1\n  pop\n    /* \"#utility.yul\":1004:1013   */\n  dup2\n    /* \"#utility.yul\":998:1002   */\n  dup2\n    /* \"#utility.yul\":994:1014   */\n  sub\n    /* \"#utility.yul\":990:991   */\n  0x00\n    /* \"#utility.yul\":979:988   */\n  dup4\n    /* \"#utility.yul\":975:992   */\n  add\n    /* \"#utility.yul\":968:1015   */\n  mstore\n    /* \"#utility.yul\":1032:1163   */\n  tag_41\n    /* \"#utility.yul\":1158:1162   */\n  dup2\n    /* \"#utility.yul\":1032:1163   */\n  tag_29\n  jump\t// in\ntag_41:\n    /* \"#utility.yul\":1024:1163   */\n  swap1\n  pop\n    /* \"#utility.yul\":751:1170   */\n  swap2\n  swap1\n  pop\n  jump\t// out\n    /* \"#utility.yul\":1176:1595   */\ntag_20:\n    /* \"#utility.yul\":1342:1346   */\n  0x00\n    /* \"#utility.yul\":1380:1382   */\n  0x20\n    /* \"#utility.yul\":1369:1378   */\n  dup3\n    /* \"#utility.yul\":1365:1383   */\n  add\n    /* \"#utility.yul\":1357:1383   */\n  swap1\n  pop\n    /* \"#utility.yul\":1429:1438   */\n  dup2\n    /* \"#utility.yul\":1423:1427   */\n  dup2\n    /* \"#utility.yul\":1419:1439   */\n  sub\n    /* \"#utility.yul\":1415:1416   */\n  0x00\n    /* \"#utility.yul\":1404:1413   */\n  dup4\n    /* \"#utility.yul\":1400:1417   */\n  add\n    /* \"#utility.yul\":1393:1440   */\n  mstore\n    /* \"#utility.yul\":1457:1588   */\n  tag_43\n    /* \"#utility.yul\":1583:1587   */\n  dup2\n    /* \"#utility.yul\":1457:1588   */\n  tag_35\n  jump\t// in\ntag_43:\n    /* \"#utility.yul\":1449:1588   */\n  swap1\n  pop\n    /* \"#utility.yul\":1176:1595   */\n  swap2\n  swap1\n  pop\n  jump\t// out\n    /* \"#utility.yul\":1601:1770   */\ntag_32:\n    /* \"#utility.yul\":1685:1696   */\n  0x00\n    /* \"#utility.yul\":1719:1725   */\n  dup3\n    /* \"#utility.yul\":1714:1717   */\n  dup3\n    /* \"#utility.yul\":1707:1726   */\n  mstore\n    /* \"#utility.yul\":1759:1763   */\n  0x20\n    /* \"#utility.yul\":1754:1757   */\n  dup3\n    /* \"#utility.yul\":1750:1764   */\n  add\n    /* \"#utility.yul\":1735:1764   */\n  swap1\n  pop\n    /* \"#utility.yul\":1601:1770   */\n  swap3\n  swap2\n  pop\n  pop\n  jump\t// out\n    /* \"#utility.yul\":1776:1853   */\ntag_45:\n    /* \"#utility.yul\":1813:1820   */\n  0x00\n    /* \"#utility.yul\":1842:1847   */\n  dup2\n    /* \"#utility.yul\":1831:1847   */\n  swap1\n  pop\n    /* \"#utility.yul\":1776:1853   */\n  swap2\n  swap1\n  pop\n  jump\t// out\n    /* \"#utility.yul\":1859:2092   */\ntag_22:\n    /* \"#utility.yul\":1898:1901   */\n  0x00\n    /* \"#utility.yul\":1921:1945   */\n  tag_48\n    /* \"#utility.yul\":1939:1944   */\n  dup3\n    /* \"#utility.yul\":1921:1945   */\n  tag_45\n  jump\t// in\ntag_48:\n    /* \"#utility.yul\":1912:1945   */\n  swap2\n  pop\n    /* \"#utility.yul\":1967:2033   */\n  0xffffffffffffffffffffffffffffffffffffffffffffffffffffffffffffffff\n    /* \"#utility.yul\":1960:1965   */\n  dup3\n    /* \"#utility.yul\":1957:2034   */\n  eq\n    /* \"#utility.yul\":1954:2057   */\n  iszero\n  tag_49\n  jumpi\n    /* \"#utility.yul\":2037:2055   */\n  tag_50\n  tag_51\n  jump\t// in\ntag_50:\n    /* \"#utility.yul\":1954:2057   */\ntag_49:\n    /* \"#utility.yul\":2084:2085   */\n  0x01\n    /* \"#utility.yul\":2077:2082   */\n  dup3\n    /* \"#utility.yul\":2073:2086   */\n  add\n    /* \"#utility.yul\":2066:2086   */\n  swap1\n  pop\n    /* \"#utility.yul\":1859:2092   */\n  swap2\n  swap1\n  pop\n  jump\t// out\n    /* \"#utility.yul\":2098:2278   */\ntag_51:\n    /* \"#utility.yul\":2146:2223   */\n  0x4e487b7100000000000000000000000000000000000000000000000000000000\n    /* \"#utility.yul\":2143:2144   */\n  0x00\n    /* \"#utility.yul\":2136:2224   */\n  mstore\n    /* \"#utility.yul\":2243:2247   */\n  0x11\n    /* \"#utility.yul\":2240:2241   */\n  0x04\n    /* \"#utility.yul\":2233:2248   */\n  mstore\n    /* \"#utility.yul\":2267:2271   */\n  0x24\n    /* \"#utility.yul\":2264:2265   */\n  0x00\n    /* \"#utility.yul\":2257:2272   */\n  revert\n    /* \"#utility.yul\":2284:2464   */\ntag_16:\n    /* \"#utility.yul\":2332:2409   */\n  0x4e487b7100000000000000000000000000000000000000000000000000000000\n    /* \"#utility.yul\":2329:2330   */\n  0x00\n    /* \"#utility.yul\":2322:2410   */\n  mstore\n    /* \"#utility.yul\":2429:2433   */\n  0x32\n    /* \"#utility.yul\":2426:2427   */\n  0x04\n    /* \"#utility.yul\":2419:2434   */\n  mstore\n    /* \"#utility.yul\":2453:2457   */\n  0x24\n    /* \"#utility.yul\":2450:2451   */\n  0x00\n    /* \"#utility.yul\":2443:2458   */\n  revert\n    /* \"#utility.yul\":2470:2642   */\ntag_34:\n    /* \"#utility.yul\":2610:2634   */\n  0x5468697320726f6c652069736e27742065786973747300000000000000000000\n    /* \"#utility.yul\":2606:2607   */\n  0x00\n    /* \"#utility.yul\":2598:2604   */\n  dup3\n    /* \"#utility.yul\":2594:2608   */\n  add\n    /* \"#utility.yul\":2587:2635   */\n  mstore\n    /* \"#utility.yul\":2470:2642   */\n  pop\n  jump\t// out\n    /* \"#utility.yul\":2648:2819   */\ntag_39:\n    /* \"#utility.yul\":2788:2811   */\n  0x5520616c72656164792072656769737465726564210000000000000000000000\n    /* \"#utility.yul\":2784:2785   */\n  0x00\n    /* \"#utility.yul\":2776:2782   */\n  dup3\n    /* \"#utility.yul\":2772:2786   */\n  add\n    /* \"#utility.yul\":2765:2812   */\n  mstore\n    /* \"#utility.yul\":2648:2819   */\n  pop\n  jump\t// out\n    /* \"src/libs/shop.sol\":76:7557  contract Shop {\r... */\ntag_9:\n  dataSize(sub_0)\n  dup1\n  dataOffset(sub_0)\n  0x00\n  codecopy\n  0x00\n  return\nstop\n\nsub_0: assembly {\n        /* \"src/libs/shop.sol\":76:7557  contract Shop {\r... */\n      mstore(0x40, 0x80)\n      callvalue\n      dup1\n      iszero\n      tag_1\n      jumpi\n      0x00\n      dup1\n      revert\n    tag_1:\n      pop\n      jumpi(tag_2, lt(calldatasize, 0x04))\n      shr(0xe0, calldataload(0x00))\n      dup1\n      0x3efdebf1\n      gt\n      tag_17\n      jumpi\n      dup1\n      0x66b2f791\n      gt\n      tag_18\n      jumpi\n      dup1\n      0x66b2f791\n      eq\n      tag_13\n      jumpi\n      dup1\n      0x70480275\n      eq\n      tag_14\n      jumpi\n      dup1\n      0xab122ef5\n      eq\n      tag_15\n      jumpi\n      dup1\n      0xad81f803\n      eq\n      tag_16\n      jumpi\n      jump(tag_2)\n    tag_18:\n      dup1\n      0x3efdebf1\n      eq\n      tag_10\n      jumpi\n      dup1\n      0x4384a79f\n      eq\n      tag_11\n      jumpi\n      dup1\n      0x49b15962\n      eq\n      tag_12\n      jumpi\n      jump(tag_2)\n    tag_17:\n      dup1\n      0x240185b6\n      gt\n      tag_19\n      jumpi\n      dup1\n      0x240185b6\n      eq\n      tag_6\n      jumpi\n      dup1\n      0x2bd2cd50\n      eq\n      tag_7\n      jumpi\n      dup1\n      0x2e91d706\n      eq\n      tag_8\n      jumpi\n      dup1\n      0x3b95a23f\n      eq\n      tag_9\n      jumpi\n      jump(tag_2)\n    tag_19:\n      dup1\n      0x82f88e\n      eq\n      tag_3\n      jumpi\n      dup1\n      0x1a0550e3\n      eq\n      tag_4\n      jumpi\n      dup1\n      0x1c618eb3\n      eq\n      tag_5\n      jumpi\n    tag_2:\n      0x00\n      dup1\n      revert\n        /* \"src/libs/shop.sol\":6063:6683  function addMark(\r... */\n    tag_3:\n      tag_20\n      0x04\n      dup1\n      calldatasize\n      sub\n      dup2\n      add\n      swap1\n      tag_21\n      swap2\n      swap1\n      tag_22\n      jump\t// in\n    tag_21:\n      tag_23\n      jump\t// in\n    tag_20:\n      stop\n        /* \"src/libs/shop.sol\":4579:5018  function upToSeller(uint256 idRequest)\r... */\n    tag_4:\n      tag_24\n      0x04\n      dup1\n      calldatasize\n      sub\n      dup2\n      add\n      swap1\n      tag_25\n      swap2\n      swap1\n      tag_26\n      jump\t// in\n    tag_25:\n      tag_27\n      jump\t// in\n    tag_24:\n      stop\n        /* \"src/libs/shop.sol\":5409:5720  function addShop(address newShop, string memory city)\r... */\n    tag_5:\n      tag_28\n      0x04\n      dup1\n      calldatasize\n      sub\n      dup2\n      add\n      swap1\n      tag_29\n      swap2\n      swap1\n      tag_30\n      jump\t// in\n    tag_29:\n      tag_31\n      jump\t// in\n    tag_28:\n      stop\n        /* \"src/libs/shop.sol\":7256:7347  function view_Shops() public view returns (shop[] memory) {\r... */\n    tag_6:\n      tag_32\n      tag_33\n      jump\t// in\n    tag_32:\n      mload(0x40)\n      tag_34\n      swap2\n      swap1\n      tag_35\n      jump\t// in\n    tag_34:\n      mload(0x40)\n      dup1\n      swap2\n      sub\n      swap1\n      return\n        /* \"src/libs/shop.sol\":7454:7554  function view_Requests() public view returns (request[] memory) {\r... */\n    tag_7:\n      tag_36\n      tag_37\n      jump\t// in\n    tag_36:\n      mload(0x40)\n      tag_38\n      swap2\n      swap1\n      tag_39\n      jump\t// in\n    tag_38:\n      mload(0x40)\n      dup1\n      swap2\n      sub\n      swap1\n      return\n        /* \"src/libs/shop.sol\":3582:3985  function globalSwitchRequest() public {\r... */\n    tag_8:\n      tag_40\n      tag_41\n      jump\t// in\n    tag_40:\n      stop\n        /* \"src/libs/shop.sol\":2879:2978  function regUser() public isntReg(msg.sender) {\r... */\n    tag_9:\n      tag_42\n      tag_43\n      jump\t// in\n    tag_42:\n      stop\n        /* \"src/libs/shop.sol\":5728:6004  function deleteShop(uint256 idShop) public {\r... */\n    tag_10:\n      tag_44\n      0x04\n      dup1\n      calldatasize\n      sub\n      dup2\n      add\n      swap1\n      tag_45\n      swap2\n      swap1\n      tag_26\n      jump\t// in\n    tag_45:\n      tag_46\n      jump\t// in\n    tag_44:\n      stop\n        /* \"src/libs/shop.sol\":6691:6904  function addLike(\r... */\n    tag_11:\n      tag_47\n      0x04\n      dup1\n      calldatasize\n      sub\n      dup2\n      add\n      swap1\n      tag_48\n      swap2\n      swap1\n      tag_49\n      jump\t// in\n    tag_48:\n      tag_50\n      jump\t// in\n    tag_47:\n      stop\n        /* \"src/libs/shop.sol\":3058:3574  function switchToUser() public {\r... */\n    tag_12:\n      tag_51\n      tag_52\n      jump\t// in\n    tag_51:\n      stop\n        /* \"src/libs/shop.sol\":6912:7197  function addLike(\r... */\n    tag_13:\n      tag_53\n      0x04\n      dup1\n      calldatasize\n      sub\n      dup2\n      add\n      swap1\n      tag_54\n      swap2\n      swap1\n      tag_55\n      jump\t// in\n    tag_54:\n      tag_56\n      jump\t// in\n    tag_53:\n      stop\n        /* \"src/libs/shop.sol\":5026:5401  function addAdmin(address candidate)\r... */\n    tag_14:\n      tag_57\n      0x04\n      dup1\n      calldatasize\n      sub\n      dup2\n      add\n      swap1\n      tag_58\n      swap2\n      swap1\n      tag_59\n      jump\t// in\n    tag_58:\n      tag_60\n      jump\t// in\n    tag_57:\n      stop\n        /* \"src/libs/shop.sol\":3993:4527  function addComment(\r... */\n    tag_15:\n      tag_61\n      0x04\n      dup1\n      calldatasize\n      sub\n      dup2\n      add\n      swap1\n      tag_62\n      swap2\n      swap1\n      tag_22\n      jump\t// in\n    tag_62:\n      tag_63\n      jump\t// in\n    tag_61:\n      stop\n        /* \"src/libs/shop.sol\":7355:7446  function view_Users() public view returns (user[] memory) {\r... */\n    tag_16:\n      tag_64\n      tag_65\n      jump\t// in\n    tag_64:\n      mload(0x40)\n      tag_66\n      swap2\n      swap1\n      tag_67\n      jump\t// in\n    tag_66:\n      mload(0x40)\n      dup1\n      swap2\n      sub\n      swap1\n      return\n        /* \"src/libs/shop.sol\":6063:6683  function addMark(\r... */\n    tag_23:\n        /* \"src/libs/shop.sol\":6272:6277  Shops */\n      0x00\n        /* \"src/libs/shop.sol\":6278:6284  idShop */\n      dup4\n        /* \"src/libs/shop.sol\":6272:6285  Shops[idShop] */\n      dup2\n      sload\n      dup2\n      lt\n      tag_69\n      jumpi\n      tag_70\n      tag_71\n      jump\t// in\n    tag_70:\n    tag_69:\n      swap1\n      0x00\n      mstore\n      keccak256(0x00, 0x20)\n      swap1\n      0x04\n      mul\n      add\n        /* \"src/libs/shop.sol\":6272:6297  Shops[idShop].bookOfMarks */\n      0x02\n      add\n        /* \"src/libs/shop.sol\":6272:6304  Shops[idShop].bookOfMarks.push() */\n      0x01\n      dup2\n      0x01\n      dup2\n      sload\n      add\n      dup1\n      dup3\n      sstore\n      dup1\n      swap2\n      pop\n      pop\n      sub\n      swap1\n      0x00\n      mstore\n      keccak256(0x00, 0x20)\n      swap1\n      pop\n      pop\n        /* \"src/libs/shop.sol\":6419:6429  msg.sender */\n      caller\n        /* \"src/libs/shop.sol\":6315:6320  Shops */\n      0x00\n        /* \"src/libs/shop.sol\":6321:6327  idShop */\n      dup5\n        /* \"src/libs/shop.sol\":6315:6328  Shops[idShop] */\n      dup2\n      sload\n      dup2\n      lt\n      tag_74\n      jumpi\n      tag_75\n      tag_71\n      jump\t// in\n    tag_75:\n    tag_74:\n      swap1\n      0x00\n      mstore\n      keccak256(0x00, 0x20)\n      swap1\n      0x04\n      mul\n      add\n        /* \"src/libs/shop.sol\":6315:6354  Shops[idShop]\r... */\n      0x02\n      add\n        /* \"src/libs/shop.sol\":6390:6391  1 */\n      0x01\n        /* \"src/libs/shop.sol\":6355:6360  Shops */\n      0x00\n        /* \"src/libs/shop.sol\":6361:6367  idShop */\n      dup7\n        /* \"src/libs/shop.sol\":6355:6368  Shops[idShop] */\n      dup2\n      sload\n      dup2\n      lt\n      tag_77\n      jumpi\n      tag_78\n      tag_71\n      jump\t// in\n    tag_78:\n    tag_77:\n      swap1\n      0x00\n      mstore\n      keccak256(0x00, 0x20)\n      swap1\n      0x04\n      mul\n      add\n        /* \"src/libs/shop.sol\":6355:6380  Shops[idShop].bookOfMarks */\n      0x02\n      add\n        /* \"src/libs/shop.sol\":6355:6387  Shops[idShop].bookOfMarks.length */\n      dup1\n      sload\n      swap1\n      pop\n        /* \"src/libs/shop.sol\":6355:6391  Shops[idShop].bookOfMarks.length - 1 */\n      tag_80\n      swap2\n      swap1\n      tag_81\n      jump\t// in\n    tag_80:\n        /* \"src/libs/shop.sol\":6315:6392  Shops[idShop]\r... */\n      dup2\n      sload\n      dup2\n      lt\n      tag_82\n      jumpi\n      tag_83\n      tag_71\n      jump\t// in\n    tag_83:\n    tag_82:\n      swap1\n      0x00\n      mstore\n      keccak256(0x00, 0x20)\n      swap1\n      0x05\n      mul\n      add\n        /* \"src/libs/shop.sol\":6315:6416  Shops[idShop]\r... */\n      0x00\n      add\n      0x00\n        /* \"src/libs/shop.sol\":6315:6429  Shops[idShop]\r... */\n      0x0100\n      exp\n      dup2\n      sload\n      dup2\n      0xffffffffffffffffffffffffffffffffffffffff\n      mul\n      not\n      and\n      swap1\n      dup4\n      0xffffffffffffffffffffffffffffffffffffffff\n      and\n      mul\n      or\n      swap1\n      sstore\n      pop\n        /* \"src/libs/shop.sol\":6541:6547  rating */\n      dup2\n        /* \"src/libs/shop.sol\":6440:6445  Shops */\n      0x00\n        /* \"src/libs/shop.sol\":6446:6452  idShop */\n      dup5\n        /* \"src/libs/shop.sol\":6440:6453  Shops[idShop] */\n      dup2\n      sload\n      dup2\n      lt\n      tag_85\n      jumpi\n      tag_86\n      tag_71\n      jump\t// in\n    tag_86:\n    tag_85:\n      swap1\n      0x00\n      mstore\n      keccak256(0x00, 0x20)\n      swap1\n      0x04\n      mul\n      add\n        /* \"src/libs/shop.sol\":6440:6479  Shops[idShop]\r... */\n      0x02\n      add\n        /* \"src/libs/shop.sol\":6515:6516  1 */\n      0x01\n        /* \"src/libs/shop.sol\":6480:6485  Shops */\n      0x00\n        /* \"src/libs/shop.sol\":6486:6492  idShop */\n      dup7\n        /* \"src/libs/shop.sol\":6480:6493  Shops[idShop] */\n      dup2\n      sload\n      dup2\n      lt\n      tag_88\n      jumpi\n      tag_89\n      tag_71\n      jump\t// in\n    tag_89:\n    tag_88:\n      swap1\n      0x00\n      mstore\n      keccak256(0x00, 0x20)\n      swap1\n      0x04\n      mul\n      add\n        /* \"src/libs/shop.sol\":6480:6505  Shops[idShop].bookOfMarks */\n      0x02\n      add\n        /* \"src/libs/shop.sol\":6480:6512  Shops[idShop].bookOfMarks.length */\n      dup1\n      sload\n      swap1\n      pop\n        /* \"src/libs/shop.sol\":6480:6516  Shops[idShop].bookOfMarks.length - 1 */\n      tag_91\n      swap2\n      swap1\n      tag_81\n      jump\t// in\n    tag_91:\n        /* \"src/libs/shop.sol\":6440:6517  Shops[idShop]\r... */\n      dup2\n      sload\n      dup2\n      lt\n      tag_92\n      jumpi\n      tag_93\n      tag_71\n      jump\t// in\n    tag_93:\n    tag_92:\n      swap1\n      0x00\n      mstore\n      keccak256(0x00, 0x20)\n      swap1\n      0x05\n      mul\n      add\n        /* \"src/libs/shop.sol\":6440:6538  Shops[idShop]\r... */\n      0x01\n      add\n        /* \"src/libs/shop.sol\":6440:6547  Shops[idShop]\r... */\n      dup2\n      swap1\n      sstore\n      pop\n        /* \"src/libs/shop.sol\":6664:6675  description */\n      dup1\n        /* \"src/libs/shop.sol\":6558:6563  Shops */\n      0x00\n        /* \"src/libs/shop.sol\":6564:6570  idShop */\n      dup5\n        /* \"src/libs/shop.sol\":6558:6571  Shops[idShop] */\n      dup2\n      sload\n      dup2\n      lt\n      tag_95\n      jumpi\n      tag_96\n      tag_71\n      jump\t// in\n    tag_96:\n    tag_95:\n      swap1\n      0x00\n      mstore\n      keccak256(0x00, 0x20)\n      swap1\n      0x04\n      mul\n      add\n        /* \"src/libs/shop.sol\":6558:6597  Shops[idShop]\r... */\n      0x02\n      add\n        /* \"src/libs/shop.sol\":6633:6634  1 */\n      0x01\n        /* \"src/libs/shop.sol\":6598:6603  Shops */\n      0x00\n        /* \"src/libs/shop.sol\":6604:6610  idShop */\n      dup7\n        /* \"src/libs/shop.sol\":6598:6611  Shops[idShop] */\n      dup2\n      sload\n      dup2\n      lt\n      tag_98\n      jumpi\n      tag_99\n      tag_71\n      jump\t// in\n    tag_99:\n    tag_98:\n      swap1\n      0x00\n      mstore\n      keccak256(0x00, 0x20)\n      swap1\n      0x04\n      mul\n      add\n        /* \"src/libs/shop.sol\":6598:6623  Shops[idShop].bookOfMarks */\n      0x02\n      add\n        /* \"src/libs/shop.sol\":6598:6630  Shops[idShop].bookOfMarks.length */\n      dup1\n      sload\n      swap1\n      pop\n        /* \"src/libs/shop.sol\":6598:6634  Shops[idShop].bookOfMarks.length - 1 */\n      tag_101\n      swap2\n      swap1\n      tag_81\n      jump\t// in\n    tag_101:\n        /* \"src/libs/shop.sol\":6558:6635  Shops[idShop]\r... */\n      dup2\n      sload\n      dup2\n      lt\n      tag_102\n      jumpi\n      tag_103\n      tag_71\n      jump\t// in\n    tag_103:\n    tag_102:\n      swap1\n      0x00\n      mstore\n      keccak256(0x00, 0x20)\n      swap1\n      0x05\n      mul\n      add\n        /* \"src/libs/shop.sol\":6558:6661  Shops[idShop]\r... */\n      0x04\n      add\n        /* \"src/libs/shop.sol\":6558:6675  Shops[idShop]\r... */\n      swap1\n      dup1\n      mload\n      swap1\n      0x20\n      add\n      swap1\n      tag_105\n      swap3\n      swap2\n      swap1\n      tag_106\n      jump\t// in\n    tag_105:\n      pop\n        /* \"src/libs/shop.sol\":6063:6683  function addMark(\r... */\n      pop\n      pop\n      pop\n      jump\t// out\n        /* \"src/libs/shop.sol\":4579:5018  function upToSeller(uint256 idRequest)\r... */\n    tag_27:\n        /* \"src/libs/shop.sol\":4649:4659  msg.sender */\n      caller\n        /* \"src/libs/shop.sol\":1269:1285  bool isRegistred */\n      0x00\n        /* \"src/libs/shop.sol\":1309:1318  uint256 i */\n      dup1\n        /* \"src/libs/shop.sol\":1304:1481  for (uint256 i = 0; i < Users.length; i++) {\r... */\n    tag_108:\n        /* \"src/libs/shop.sol\":1328:1333  Users */\n      0x01\n        /* \"src/libs/shop.sol\":1328:1340  Users.length */\n      dup1\n      sload\n      swap1\n      pop\n        /* \"src/libs/shop.sol\":1324:1325  i */\n      dup2\n        /* \"src/libs/shop.sol\":1324:1340  i < Users.length */\n      lt\n        /* \"src/libs/shop.sol\":1304:1481  for (uint256 i = 0; i < Users.length; i++) {\r... */\n      iszero\n      tag_109\n      jumpi\n        /* \"src/libs/shop.sol\":1383:1391  someUser */\n      dup3\n        /* \"src/libs/shop.sol\":1366:1391  Users[i].user == someUser */\n      0xffffffffffffffffffffffffffffffffffffffff\n      and\n        /* \"src/libs/shop.sol\":1366:1371  Users */\n      0x01\n        /* \"src/libs/shop.sol\":1372:1373  i */\n      dup3\n        /* \"src/libs/shop.sol\":1366:1374  Users[i] */\n      dup2\n      sload\n      dup2\n      lt\n      tag_111\n      jumpi\n      tag_112\n      tag_71\n      jump\t// in\n    tag_112:\n    tag_111:\n      swap1\n      0x00\n      mstore\n      keccak256(0x00, 0x20)\n      swap1\n      0x03\n      mul\n      add\n        /* \"src/libs/shop.sol\":1366:1379  Users[i].user */\n      0x00\n      add\n      0x00\n      swap1\n      sload\n      swap1\n      0x0100\n      exp\n      swap1\n      div\n      0xffffffffffffffffffffffffffffffffffffffff\n      and\n        /* \"src/libs/shop.sol\":1366:1391  Users[i].user == someUser */\n      0xffffffffffffffffffffffffffffffffffffffff\n      and\n      eq\n        /* \"src/libs/shop.sol\":1362:1470  if (Users[i].user == someUser) {\r... */\n      iszero\n      tag_114\n      jumpi\n        /* \"src/libs/shop.sol\":1426:1430  true */\n      0x01\n        /* \"src/libs/shop.sol\":1412:1430  isRegistred = true */\n      swap2\n      pop\n        /* \"src/libs/shop.sol\":1449:1454  break */\n      jump(tag_109)\n        /* \"src/libs/shop.sol\":1362:1470  if (Users[i].user == someUser) {\r... */\n    tag_114:\n        /* \"src/libs/shop.sol\":1342:1345  i++ */\n      dup1\n      dup1\n      tag_115\n      swap1\n      tag_116\n      jump\t// in\n    tag_115:\n      swap2\n      pop\n      pop\n        /* \"src/libs/shop.sol\":1304:1481  for (uint256 i = 0; i < Users.length; i++) {\r... */\n      jump(tag_108)\n    tag_109:\n      pop\n        /* \"src/libs/shop.sol\":1500:1511  isRegistred */\n      dup1\n        /* \"src/libs/shop.sol\":1499:1511  !isRegistred */\n      iszero\n        /* \"src/libs/shop.sol\":1491:1534  require(!isRegistred, \"U isn't registred!\") */\n      tag_117\n      jumpi\n      mload(0x40)\n      0x08c379a000000000000000000000000000000000000000000000000000000000\n      dup2\n      mstore\n      0x04\n      add\n      tag_118\n      swap1\n      tag_119\n      jump\t// in\n    tag_118:\n      mload(0x40)\n      dup1\n      swap2\n      sub\n      swap1\n      revert\n    tag_117:\n        /* \"src/libs/shop.sol\":4678:4688  msg.sender */\n      caller\n        /* \"src/libs/shop.sol\":2139:2148  uint256 i */\n      0x00\n        /* \"src/libs/shop.sol\":2134:2340  for (uint256 i = 0; i < Users.length; i++) {\r... */\n    tag_121:\n        /* \"src/libs/shop.sol\":2158:2163  Users */\n      0x01\n        /* \"src/libs/shop.sol\":2158:2170  Users.length */\n      dup1\n      sload\n      swap1\n      pop\n        /* \"src/libs/shop.sol\":2154:2155  i */\n      dup2\n        /* \"src/libs/shop.sol\":2154:2170  i < Users.length */\n      lt\n        /* \"src/libs/shop.sol\":2134:2340  for (uint256 i = 0; i < Users.length; i++) {\r... */\n      iszero\n      tag_122\n      jumpi\n        /* \"src/libs/shop.sol\":2213:2220  newUser */\n      dup2\n        /* \"src/libs/shop.sol\":2196:2220  Users[i].user == newUser */\n      0xffffffffffffffffffffffffffffffffffffffff\n      and\n        /* \"src/libs/shop.sol\":2196:2201  Users */\n      0x01\n        /* \"src/libs/shop.sol\":2202:2203  i */\n      dup3\n        /* \"src/libs/shop.sol\":2196:2204  Users[i] */\n      dup2\n      sload\n      dup2\n      lt\n      tag_124\n      jumpi\n      tag_125\n      tag_71\n      jump\t// in\n    tag_125:\n    tag_124:\n      swap1\n      0x00\n      mstore\n      keccak256(0x00, 0x20)\n      swap1\n      0x03\n      mul\n      add\n        /* \"src/libs/shop.sol\":2196:2209  Users[i].user */\n      0x00\n      add\n      0x00\n      swap1\n      sload\n      swap1\n      0x0100\n      exp\n      swap1\n      div\n      0xffffffffffffffffffffffffffffffffffffffff\n      and\n        /* \"src/libs/shop.sol\":2196:2220  Users[i].user == newUser */\n      0xffffffffffffffffffffffffffffffffffffffff\n      and\n      eq\n        /* \"src/libs/shop.sol\":2192:2329  if (Users[i].user == newUser) {\r... */\n      iszero\n      tag_127\n      jumpi\n        /* \"src/libs/shop.sol\":2269:2270  0 */\n      0x00\n        /* \"src/libs/shop.sol\":2249:2254  Users */\n      0x01\n        /* \"src/libs/shop.sol\":2255:2256  i */\n      dup3\n        /* \"src/libs/shop.sol\":2249:2257  Users[i] */\n      dup2\n      sload\n      dup2\n      lt\n      tag_128\n      jumpi\n      tag_129\n      tag_71\n      jump\t// in\n    tag_129:\n    tag_128:\n      swap1\n      0x00\n      mstore\n      keccak256(0x00, 0x20)\n      swap1\n      0x03\n      mul\n      add\n        /* \"src/libs/shop.sol\":2249:2265  Users[i].nowRole */\n      0x02\n      add\n      sload\n        /* \"src/libs/shop.sol\":2249:2270  Users[i].nowRole == 0 */\n      eq\n        /* \"src/libs/shop.sol\":2241:2289  require(Users[i].nowRole == 0, \"U isn't admin!\") */\n      tag_131\n      jumpi\n      mload(0x40)\n      0x08c379a000000000000000000000000000000000000000000000000000000000\n      dup2\n      mstore\n      0x04\n      add\n      tag_132\n      swap1\n      tag_133\n      jump\t// in\n    tag_132:\n      mload(0x40)\n      dup1\n      swap2\n      sub\n      swap1\n      revert\n    tag_131:\n        /* \"src/libs/shop.sol\":2308:2313  break */\n      jump(tag_122)\n        /* \"src/libs/shop.sol\":2192:2329  if (Users[i].user == newUser) {\r... */\n    tag_127:\n        /* \"src/libs/shop.sol\":2172:2175  i++ */\n      dup1\n      dup1\n      tag_134\n      swap1\n      tag_116\n      jump\t// in\n    tag_134:\n      swap2\n      pop\n      pop\n        /* \"src/libs/shop.sol\":2134:2340  for (uint256 i = 0; i < Users.length; i++) {\r... */\n      jump(tag_121)\n    tag_122:\n      pop\n        /* \"src/libs/shop.sol\":4711:4720  uint256 i */\n      0x00\n        /* \"src/libs/shop.sol\":4706:5011  for (uint256 i = 0; i < Users.length; i++) {\r... */\n    tag_136:\n        /* \"src/libs/shop.sol\":4730:4735  Users */\n      0x01\n        /* \"src/libs/shop.sol\":4730:4742  Users.length */\n      dup1\n      sload\n      swap1\n      pop\n        /* \"src/libs/shop.sol\":4726:4727  i */\n      dup2\n        /* \"src/libs/shop.sol\":4726:4742  i < Users.length */\n      lt\n        /* \"src/libs/shop.sol\":4706:5011  for (uint256 i = 0; i < Users.length; i++) {\r... */\n      iszero\n      tag_137\n      jumpi\n        /* \"src/libs/shop.sol\":4785:4793  Requests */\n      0x02\n        /* \"src/libs/shop.sol\":4794:4803  idRequest */\n      dup6\n        /* \"src/libs/shop.sol\":4785:4804  Requests[idRequest] */\n      dup2\n      sload\n      dup2\n      lt\n      tag_139\n      jumpi\n      tag_140\n      tag_71\n      jump\t// in\n    tag_140:\n    tag_139:\n      swap1\n      0x00\n      mstore\n      keccak256(0x00, 0x20)\n      add\n        /* \"src/libs/shop.sol\":4785:4814  Requests[idRequest].requester */\n      0x00\n      add\n      0x00\n      swap1\n      sload\n      swap1\n      0x0100\n      exp\n      swap1\n      div\n      0xffffffffffffffffffffffffffffffffffffffff\n      and\n        /* \"src/libs/shop.sol\":4768:4814  Users[i].user == Requests[idRequest].requester */\n      0xffffffffffffffffffffffffffffffffffffffff\n      and\n        /* \"src/libs/shop.sol\":4768:4773  Users */\n      0x01\n        /* \"src/libs/shop.sol\":4774:4775  i */\n      dup3\n        /* \"src/libs/shop.sol\":4768:4776  Users[i] */\n      dup2\n      sload\n      dup2\n      lt\n      tag_142\n      jumpi\n      tag_143\n      tag_71\n      jump\t// in\n    tag_143:\n    tag_142:\n      swap1\n      0x00\n      mstore\n      keccak256(0x00, 0x20)\n      swap1\n      0x03\n      mul\n      add\n        /* \"src/libs/shop.sol\":4768:4781  Users[i].user */\n      0x00\n      add\n      0x00\n      swap1\n      sload\n      swap1\n      0x0100\n      exp\n      swap1\n      div\n      0xffffffffffffffffffffffffffffffffffffffff\n      and\n        /* \"src/libs/shop.sol\":4768:4814  Users[i].user == Requests[idRequest].requester */\n      0xffffffffffffffffffffffffffffffffffffffff\n      and\n      eq\n        /* \"src/libs/shop.sol\":4764:5000  if (Users[i].user == Requests[idRequest].requester) {\r... */\n      iszero\n      tag_145\n      jumpi\n        /* \"src/libs/shop.sol\":4856:4857  1 */\n      0x01\n        /* \"src/libs/shop.sol\":4839:4844  Users */\n      dup1\n        /* \"src/libs/shop.sol\":4845:4846  i */\n      dup3\n        /* \"src/libs/shop.sol\":4839:4847  Users[i] */\n      dup2\n      sload\n      dup2\n      lt\n      tag_146\n      jumpi\n      tag_147\n      tag_71\n      jump\t// in\n    tag_147:\n    tag_146:\n      swap1\n      0x00\n      mstore\n      keccak256(0x00, 0x20)\n      swap1\n      0x03\n      mul\n      add\n        /* \"src/libs/shop.sol\":4839:4852  Users[i].role */\n      0x01\n      add\n      sload\n        /* \"src/libs/shop.sol\":4839:4857  Users[i].role == 1 */\n      eq\n        /* \"src/libs/shop.sol\":4835:4985  if (Users[i].role == 1) {\r... */\n      iszero\n      tag_149\n      jumpi\n        /* \"src/libs/shop.sol\":4898:4899  2 */\n      0x02\n        /* \"src/libs/shop.sol\":4882:4887  Users */\n      0x01\n        /* \"src/libs/shop.sol\":4888:4889  i */\n      dup3\n        /* \"src/libs/shop.sol\":4882:4890  Users[i] */\n      dup2\n      sload\n      dup2\n      lt\n      tag_150\n      jumpi\n      tag_151\n      tag_71\n      jump\t// in\n    tag_151:\n    tag_150:\n      swap1\n      0x00\n      mstore\n      keccak256(0x00, 0x20)\n      swap1\n      0x03\n      mul\n      add\n        /* \"src/libs/shop.sol\":4882:4895  Users[i].role */\n      0x01\n      add\n        /* \"src/libs/shop.sol\":4882:4899  Users[i].role = 2 */\n      dup2\n      swap1\n      sstore\n      pop\n        /* \"src/libs/shop.sol\":4835:4985  if (Users[i].role == 1) {\r... */\n      jump(tag_153)\n    tag_149:\n        /* \"src/libs/shop.sol\":4964:4965  1 */\n      0x01\n        /* \"src/libs/shop.sol\":4948:4953  Users */\n      dup1\n        /* \"src/libs/shop.sol\":4954:4955  i */\n      dup3\n        /* \"src/libs/shop.sol\":4948:4956  Users[i] */\n      dup2\n      sload\n      dup2\n      lt\n      tag_154\n      jumpi\n      tag_155\n      tag_71\n      jump\t// in\n    tag_155:\n    tag_154:\n      swap1\n      0x00\n      mstore\n      keccak256(0x00, 0x20)\n      swap1\n      0x03\n      mul\n      add\n        /* \"src/libs/shop.sol\":4948:4961  Users[i].role */\n      0x01\n      add\n        /* \"src/libs/shop.sol\":4948:4965  Users[i].role = 1 */\n      dup2\n      swap1\n      sstore\n      pop\n        /* \"src/libs/shop.sol\":4835:4985  if (Users[i].role == 1) {\r... */\n    tag_153:\n        /* \"src/libs/shop.sol\":4764:5000  if (Users[i].user == Requests[idRequest].requester) {\r... */\n    tag_145:\n        /* \"src/libs/shop.sol\":4744:4747  i++ */\n      dup1\n      dup1\n      tag_157\n      swap1\n      tag_116\n      jump\t// in\n    tag_157:\n      swap2\n      pop\n      pop\n        /* \"src/libs/shop.sol\":4706:5011  for (uint256 i = 0; i < Users.length; i++) {\r... */\n      jump(tag_136)\n    tag_137:\n      pop\n        /* \"src/libs/shop.sol\":1545:1546  _ */\n      pop\n        /* \"src/libs/shop.sol\":1258:1554  {\r... */\n      pop\n        /* \"src/libs/shop.sol\":4579:5018  function upToSeller(uint256 idRequest)\r... */\n      pop\n      pop\n      jump\t// out\n        /* \"src/libs/shop.sol\":5409:5720  function addShop(address newShop, string memory city)\r... */\n    tag_31:\n        /* \"src/libs/shop.sol\":5494:5504  msg.sender */\n      caller\n        /* \"src/libs/shop.sol\":1269:1285  bool isRegistred */\n      0x00\n        /* \"src/libs/shop.sol\":1309:1318  uint256 i */\n      dup1\n        /* \"src/libs/shop.sol\":1304:1481  for (uint256 i = 0; i < Users.length; i++) {\r... */\n    tag_159:\n        /* \"src/libs/shop.sol\":1328:1333  Users */\n      0x01\n        /* \"src/libs/shop.sol\":1328:1340  Users.length */\n      dup1\n      sload\n      swap1\n      pop\n        /* \"src/libs/shop.sol\":1324:1325  i */\n      dup2\n        /* \"src/libs/shop.sol\":1324:1340  i < Users.length */\n      lt\n        /* \"src/libs/shop.sol\":1304:1481  for (uint256 i = 0; i < Users.length; i++) {\r... */\n      iszero\n      tag_160\n      jumpi\n        /* \"src/libs/shop.sol\":1383:1391  someUser */\n      dup3\n        /* \"src/libs/shop.sol\":1366:1391  Users[i].user == someUser */\n      0xffffffffffffffffffffffffffffffffffffffff\n      and\n        /* \"src/libs/shop.sol\":1366:1371  Users */\n      0x01\n        /* \"src/libs/shop.sol\":1372:1373  i */\n      dup3\n        /* \"src/libs/shop.sol\":1366:1374  Users[i] */\n      dup2\n      sload\n      dup2\n      lt\n      tag_162\n      jumpi\n      tag_163\n      tag_71\n      jump\t// in\n    tag_163:\n    tag_162:\n      swap1\n      0x00\n      mstore\n      keccak256(0x00, 0x20)\n      swap1\n      0x03\n      mul\n      add\n        /* \"src/libs/shop.sol\":1366:1379  Users[i].user */\n      0x00\n      add\n      0x00\n      swap1\n      sload\n      swap1\n      0x0100\n      exp\n      swap1\n      div\n      0xffffffffffffffffffffffffffffffffffffffff\n      and\n        /* \"src/libs/shop.sol\":1366:1391  Users[i].user == someUser */\n      0xffffffffffffffffffffffffffffffffffffffff\n      and\n      eq\n        /* \"src/libs/shop.sol\":1362:1470  if (Users[i].user == someUser) {\r... */\n      iszero\n      tag_165\n      jumpi\n        /* \"src/libs/shop.sol\":1426:1430  true */\n      0x01\n        /* \"src/libs/shop.sol\":1412:1430  isRegistred = true */\n      swap2\n      pop\n        /* \"src/libs/shop.sol\":1449:1454  break */\n      jump(tag_160)\n        /* \"src/libs/shop.sol\":1362:1470  if (Users[i].user == someUser) {\r... */\n    tag_165:\n        /* \"src/libs/shop.sol\":1342:1345  i++ */\n      dup1\n      dup1\n      tag_166\n      swap1\n      tag_116\n      jump\t// in\n    tag_166:\n      swap2\n      pop\n      pop\n        /* \"src/libs/shop.sol\":1304:1481  for (uint256 i = 0; i < Users.length; i++) {\r... */\n      jump(tag_159)\n    tag_160:\n      pop\n        /* \"src/libs/shop.sol\":1500:1511  isRegistred */\n      dup1\n        /* \"src/libs/shop.sol\":1499:1511  !isRegistred */\n      iszero\n        /* \"src/libs/shop.sol\":1491:1534  require(!isRegistred, \"U isn't registred!\") */\n      tag_167\n      jumpi\n      mload(0x40)\n      0x08c379a000000000000000000000000000000000000000000000000000000000\n      dup2\n      mstore\n      0x04\n      add\n      tag_168\n      swap1\n      tag_119\n      jump\t// in\n    tag_168:\n      mload(0x40)\n      dup1\n      swap2\n      sub\n      swap1\n      revert\n    tag_167:\n        /* \"src/libs/shop.sol\":5523:5533  msg.sender */\n      caller\n        /* \"src/libs/shop.sol\":2139:2148  uint256 i */\n      0x00\n        /* \"src/libs/shop.sol\":2134:2340  for (uint256 i = 0; i < Users.length; i++) {\r... */\n    tag_170:\n        /* \"src/libs/shop.sol\":2158:2163  Users */\n      0x01\n        /* \"src/libs/shop.sol\":2158:2170  Users.length */\n      dup1\n      sload\n      swap1\n      pop\n        /* \"src/libs/shop.sol\":2154:2155  i */\n      dup2\n        /* \"src/libs/shop.sol\":2154:2170  i < Users.length */\n      lt\n        /* \"src/libs/shop.sol\":2134:2340  for (uint256 i = 0; i < Users.length; i++) {\r... */\n      iszero\n      tag_171\n      jumpi\n        /* \"src/libs/shop.sol\":2213:2220  newUser */\n      dup2\n        /* \"src/libs/shop.sol\":2196:2220  Users[i].user == newUser */\n      0xffffffffffffffffffffffffffffffffffffffff\n      and\n        /* \"src/libs/shop.sol\":2196:2201  Users */\n      0x01\n        /* \"src/libs/shop.sol\":2202:2203  i */\n      dup3\n        /* \"src/libs/shop.sol\":2196:2204  Users[i] */\n      dup2\n      sload\n      dup2\n      lt\n      tag_173\n      jumpi\n      tag_174\n      tag_71\n      jump\t// in\n    tag_174:\n    tag_173:\n      swap1\n      0x00\n      mstore\n      keccak256(0x00, 0x20)\n      swap1\n      0x03\n      mul\n      add\n        /* \"src/libs/shop.sol\":2196:2209  Users[i].user */\n      0x00\n      add\n      0x00\n      swap1\n      sload\n      swap1\n      0x0100\n      exp\n      swap1\n      div\n      0xffffffffffffffffffffffffffffffffffffffff\n      and\n        /* \"src/libs/shop.sol\":2196:2220  Users[i].user == newUser */\n      0xffffffffffffffffffffffffffffffffffffffff\n      and\n      eq\n        /* \"src/libs/shop.sol\":2192:2329  if (Users[i].user == newUser) {\r... */\n      iszero\n      tag_176\n      jumpi\n        /* \"src/libs/shop.sol\":2269:2270  0 */\n      0x00\n        /* \"src/libs/shop.sol\":2249:2254  Users */\n      0x01\n        /* \"src/libs/shop.sol\":2255:2256  i */\n      dup3\n        /* \"src/libs/shop.sol\":2249:2257  Users[i] */\n      dup2\n      sload\n      dup2\n      lt\n      tag_177\n      jumpi\n      tag_178\n      tag_71\n      jump\t// in\n    tag_178:\n    tag_177:\n      swap1\n      0x00\n      mstore\n      keccak256(0x00, 0x20)\n      swap1\n      0x03\n      mul\n      add\n        /* \"src/libs/shop.sol\":2249:2265  Users[i].nowRole */\n      0x02\n      add\n      sload\n        /* \"src/libs/shop.sol\":2249:2270  Users[i].nowRole == 0 */\n      eq\n        /* \"src/libs/shop.sol\":2241:2289  require(Users[i].nowRole == 0, \"U isn't admin!\") */\n      tag_180\n      jumpi\n      mload(0x40)\n      0x08c379a000000000000000000000000000000000000000000000000000000000\n      dup2\n      mstore\n      0x04\n      add\n      tag_181\n      swap1\n      tag_133\n      jump\t// in\n    tag_181:\n      mload(0x40)\n      dup1\n      swap2\n      sub\n      swap1\n      revert\n    tag_180:\n        /* \"src/libs/shop.sol\":2308:2313  break */\n      jump(tag_171)\n        /* \"src/libs/shop.sol\":2192:2329  if (Users[i].user == newUser) {\r... */\n    tag_176:\n        /* \"src/libs/shop.sol\":2172:2175  i++ */\n      dup1\n      dup1\n      tag_182\n      swap1\n      tag_116\n      jump\t// in\n    tag_182:\n      swap2\n      pop\n      pop\n        /* \"src/libs/shop.sol\":2134:2340  for (uint256 i = 0; i < Users.length; i++) {\r... */\n      jump(tag_170)\n    tag_171:\n      pop\n        /* \"src/libs/shop.sol\":5552:5559  newShop */\n      dup5\n        /* \"src/libs/shop.sol\":1612:1621  uint256 i */\n      0x00\n        /* \"src/libs/shop.sol\":1607:1735  for (uint256 i = 0; i < Users.length; i++) {\r... */\n    tag_184:\n        /* \"src/libs/shop.sol\":1631:1636  Users */\n      0x01\n        /* \"src/libs/shop.sol\":1631:1643  Users.length */\n      dup1\n      sload\n      swap1\n      pop\n        /* \"src/libs/shop.sol\":1627:1628  i */\n      dup2\n        /* \"src/libs/shop.sol\":1627:1643  i < Users.length */\n      lt\n        /* \"src/libs/shop.sol\":1607:1735  for (uint256 i = 0; i < Users.length; i++) {\r... */\n      iszero\n      tag_185\n      jumpi\n        /* \"src/libs/shop.sol\":1690:1697  newUser */\n      dup2\n        /* \"src/libs/shop.sol\":1673:1697  Users[i].user != newUser */\n      0xffffffffffffffffffffffffffffffffffffffff\n      and\n        /* \"src/libs/shop.sol\":1673:1678  Users */\n      0x01\n        /* \"src/libs/shop.sol\":1679:1680  i */\n      dup3\n        /* \"src/libs/shop.sol\":1673:1681  Users[i] */\n      dup2\n      sload\n      dup2\n      lt\n      tag_187\n      jumpi\n      tag_188\n      tag_71\n      jump\t// in\n    tag_188:\n    tag_187:\n      swap1\n      0x00\n      mstore\n      keccak256(0x00, 0x20)\n      swap1\n      0x03\n      mul\n      add\n        /* \"src/libs/shop.sol\":1673:1686  Users[i].user */\n      0x00\n      add\n      0x00\n      swap1\n      sload\n      swap1\n      0x0100\n      exp\n      swap1\n      div\n      0xffffffffffffffffffffffffffffffffffffffff\n      and\n        /* \"src/libs/shop.sol\":1673:1697  Users[i].user != newUser */\n      0xffffffffffffffffffffffffffffffffffffffff\n      and\n      eq\n      iszero\n        /* \"src/libs/shop.sol\":1665:1723  require(Users[i].user != newUser, \"U already registered!\") */\n      tag_190\n      jumpi\n      mload(0x40)\n      0x08c379a000000000000000000000000000000000000000000000000000000000\n      dup2\n      mstore\n      0x04\n      add\n      tag_191\n      swap1\n      tag_192\n      jump\t// in\n    tag_191:\n      mload(0x40)\n      dup1\n      swap2\n      sub\n      swap1\n      revert\n    tag_190:\n        /* \"src/libs/shop.sol\":1645:1648  i++ */\n      dup1\n      dup1\n      tag_193\n      swap1\n      tag_116\n      jump\t// in\n    tag_193:\n      swap2\n      pop\n      pop\n        /* \"src/libs/shop.sol\":1607:1735  for (uint256 i = 0; i < Users.length; i++) {\r... */\n      jump(tag_184)\n    tag_185:\n      pop\n        /* \"src/libs/shop.sol\":5583:5590  newShop */\n      dup6\n        /* \"src/libs/shop.sol\":1817:1826  uint256 i */\n      0x00\n        /* \"src/libs/shop.sol\":1812:1933  for (uint256 i = 0; i < Users.length; i++) {\r... */\n    tag_195:\n        /* \"src/libs/shop.sol\":1836:1841  Users */\n      0x01\n        /* \"src/libs/shop.sol\":1836:1848  Users.length */\n      dup1\n      sload\n      swap1\n      pop\n        /* \"src/libs/shop.sol\":1832:1833  i */\n      dup2\n        /* \"src/libs/shop.sol\":1832:1848  i < Users.length */\n      lt\n        /* \"src/libs/shop.sol\":1812:1933  for (uint256 i = 0; i < Users.length; i++) {\r... */\n      iszero\n      tag_196\n      jumpi\n        /* \"src/libs/shop.sol\":1895:1902  newShop */\n      dup2\n        /* \"src/libs/shop.sol\":1878:1902  Users[i].user != newShop */\n      0xffffffffffffffffffffffffffffffffffffffff\n      and\n        /* \"src/libs/shop.sol\":1878:1883  Users */\n      0x01\n        /* \"src/libs/shop.sol\":1884:1885  i */\n      dup3\n        /* \"src/libs/shop.sol\":1878:1886  Users[i] */\n      dup2\n      sload\n      dup2\n      lt\n      tag_198\n      jumpi\n      tag_199\n      tag_71\n      jump\t// in\n    tag_199:\n    tag_198:\n      swap1\n      0x00\n      mstore\n      keccak256(0x00, 0x20)\n      swap1\n      0x03\n      mul\n      add\n        /* \"src/libs/shop.sol\":1878:1891  Users[i].user */\n      0x00\n      add\n      0x00\n      swap1\n      sload\n      swap1\n      0x0100\n      exp\n      swap1\n      div\n      0xffffffffffffffffffffffffffffffffffffffff\n      and\n        /* \"src/libs/shop.sol\":1878:1902  Users[i].user != newShop */\n      0xffffffffffffffffffffffffffffffffffffffff\n      and\n      eq\n      iszero\n        /* \"src/libs/shop.sol\":1870:1921  require(Users[i].user != newShop, \"It isn't shop!\") */\n      tag_201\n      jumpi\n      mload(0x40)\n      0x08c379a000000000000000000000000000000000000000000000000000000000\n      dup2\n      mstore\n      0x04\n      add\n      tag_202\n      swap1\n      tag_203\n      jump\t// in\n    tag_202:\n      mload(0x40)\n      dup1\n      swap2\n      sub\n      swap1\n      revert\n    tag_201:\n        /* \"src/libs/shop.sol\":1850:1853  i++ */\n      dup1\n      dup1\n      tag_204\n      swap1\n      tag_116\n      jump\t// in\n    tag_204:\n      swap2\n      pop\n      pop\n        /* \"src/libs/shop.sol\":1812:1933  for (uint256 i = 0; i < Users.length; i++) {\r... */\n      jump(tag_195)\n    tag_196:\n      pop\n        /* \"src/libs/shop.sol\":1948:1957  uint256 i */\n      0x00\n        /* \"src/libs/shop.sol\":1943:2062  for (uint256 i = 0; i < Shops.length; i++) {\r... */\n    tag_205:\n        /* \"src/libs/shop.sol\":1967:1972  Shops */\n      0x00\n        /* \"src/libs/shop.sol\":1967:1979  Shops.length */\n      dup1\n      sload\n      swap1\n      pop\n        /* \"src/libs/shop.sol\":1963:1964  i */\n      dup2\n        /* \"src/libs/shop.sol\":1963:1979  i < Shops.length */\n      lt\n        /* \"src/libs/shop.sol\":1943:2062  for (uint256 i = 0; i < Shops.length; i++) {\r... */\n      iszero\n      tag_206\n      jumpi\n        /* \"src/libs/shop.sol\":2026:2033  newShop */\n      dup2\n        /* \"src/libs/shop.sol\":2009:2033  Shops[i].shop != newShop */\n      0xffffffffffffffffffffffffffffffffffffffff\n      and\n        /* \"src/libs/shop.sol\":2009:2014  Shops */\n      0x00\n        /* \"src/libs/shop.sol\":2015:2016  i */\n      dup3\n        /* \"src/libs/shop.sol\":2009:2017  Shops[i] */\n      dup2\n      sload\n      dup2\n      lt\n      tag_208\n      jumpi\n      tag_209\n      tag_71\n      jump\t// in\n    tag_209:\n    tag_208:\n      swap1\n      0x00\n      mstore\n      keccak256(0x00, 0x20)\n      swap1\n      0x04\n      mul\n      add\n        /* \"src/libs/shop.sol\":2009:2022  Shops[i].shop */\n      0x00\n      add\n      0x00\n      swap1\n      sload\n      swap1\n      0x0100\n      exp\n      swap1\n      div\n      0xffffffffffffffffffffffffffffffffffffffff\n      and\n        /* \"src/libs/shop.sol\":2009:2033  Shops[i].shop != newShop */\n      0xffffffffffffffffffffffffffffffffffffffff\n      and\n      eq\n      iszero\n        /* \"src/libs/shop.sol\":2001:2050  require(Shops[i].shop != newShop, \"Shop exists!\") */\n      tag_211\n      jumpi\n      mload(0x40)\n      0x08c379a000000000000000000000000000000000000000000000000000000000\n      dup2\n      mstore\n      0x04\n      add\n      tag_212\n      swap1\n      tag_213\n      jump\t// in\n    tag_212:\n      mload(0x40)\n      dup1\n      swap2\n      sub\n      swap1\n      revert\n    tag_211:\n        /* \"src/libs/shop.sol\":1981:1984  i++ */\n      dup1\n      dup1\n      tag_214\n      swap1\n      tag_116\n      jump\t// in\n    tag_214:\n      swap2\n      pop\n      pop\n        /* \"src/libs/shop.sol\":1943:2062  for (uint256 i = 0; i < Shops.length; i++) {\r... */\n      jump(tag_205)\n    tag_206:\n      pop\n        /* \"src/libs/shop.sol\":5608:5630  shop storage localShop */\n      0x00\n        /* \"src/libs/shop.sol\":5633:5638  Shops */\n      dup1\n        /* \"src/libs/shop.sol\":5633:5645  Shops.push() */\n      0x01\n      dup2\n      0x01\n      dup2\n      sload\n      add\n      dup1\n      dup3\n      sstore\n      dup1\n      swap2\n      pop\n      pop\n      sub\n      swap1\n      0x00\n      mstore\n      keccak256(0x00, 0x20)\n      swap1\n      0x04\n      mul\n      add\n        /* \"src/libs/shop.sol\":5608:5645  shop storage localShop = Shops.push() */\n      swap1\n      pop\n        /* \"src/libs/shop.sol\":5673:5680  newShop */\n      dup8\n        /* \"src/libs/shop.sol\":5656:5665  localShop */\n      dup2\n        /* \"src/libs/shop.sol\":5656:5670  localShop.shop */\n      0x00\n      add\n      0x00\n        /* \"src/libs/shop.sol\":5656:5680  localShop.shop = newShop */\n      0x0100\n      exp\n      dup2\n      sload\n      dup2\n      0xffffffffffffffffffffffffffffffffffffffff\n      mul\n      not\n      and\n      swap1\n      dup4\n      0xffffffffffffffffffffffffffffffffffffffff\n      and\n      mul\n      or\n      swap1\n      sstore\n      pop\n        /* \"src/libs/shop.sol\":5708:5712  city */\n      dup7\n        /* \"src/libs/shop.sol\":5691:5700  localShop */\n      dup2\n        /* \"src/libs/shop.sol\":5691:5705  localShop.city */\n      0x01\n      add\n        /* \"src/libs/shop.sol\":5691:5712  localShop.city = city */\n      swap1\n      dup1\n      mload\n      swap1\n      0x20\n      add\n      swap1\n      tag_217\n      swap3\n      swap2\n      swap1\n      tag_106\n      jump\t// in\n    tag_217:\n      pop\n        /* \"src/libs/shop.sol\":5597:5720  {\r... */\n      pop\n        /* \"src/libs/shop.sol\":1745:1746  _ */\n      pop\n        /* \"src/libs/shop.sol\":2350:2351  _ */\n      pop\n        /* \"src/libs/shop.sol\":1545:1546  _ */\n      pop\n        /* \"src/libs/shop.sol\":1258:1554  {\r... */\n      pop\n        /* \"src/libs/shop.sol\":5409:5720  function addShop(address newShop, string memory city)\r... */\n      pop\n      pop\n      pop\n      jump\t// out\n        /* \"src/libs/shop.sol\":7256:7347  function view_Shops() public view returns (shop[] memory) {\r... */\n    tag_33:\n        /* \"src/libs/shop.sol\":7299:7312  shop[] memory */\n      0x60\n        /* \"src/libs/shop.sol\":7333:7338  Shops */\n      0x00\n        /* \"src/libs/shop.sol\":7325:7339  return (Shops) */\n      dup1\n      sload\n      dup1\n      0x20\n      mul\n      0x20\n      add\n      mload(0x40)\n      swap1\n      dup2\n      add\n      0x40\n      mstore\n      dup1\n      swap3\n      swap2\n      swap1\n      dup2\n      dup2\n      mstore\n      0x20\n      add\n      0x00\n      swap1\n    tag_219:\n      dup3\n      dup3\n      lt\n      iszero\n      tag_220\n      jumpi\n      dup4\n      dup3\n      swap1\n      0x00\n      mstore\n      keccak256(0x00, 0x20)\n      swap1\n      0x04\n      mul\n      add\n      mload(0x40)\n      dup1\n      0x80\n      add\n      0x40\n      mstore\n      swap1\n      dup2\n      0x00\n      dup3\n      add\n      0x00\n      swap1\n      sload\n      swap1\n      0x0100\n      exp\n      swap1\n      div\n      0xffffffffffffffffffffffffffffffffffffffff\n      and\n      0xffffffffffffffffffffffffffffffffffffffff\n      and\n      0xffffffffffffffffffffffffffffffffffffffff\n      and\n      dup2\n      mstore\n      0x20\n      add\n      0x01\n      dup3\n      add\n      dup1\n      sload\n      tag_222\n      swap1\n      tag_223\n      jump\t// in\n    tag_222:\n      dup1\n      0x1f\n      add\n      0x20\n      dup1\n      swap2\n      div\n      mul\n      0x20\n      add\n      mload(0x40)\n      swap1\n      dup2\n      add\n      0x40\n      mstore\n      dup1\n      swap3\n      swap2\n      swap1\n      dup2\n      dup2\n      mstore\n      0x20\n      add\n      dup3\n      dup1\n      sload\n      tag_224\n      swap1\n      tag_223\n      jump\t// in\n    tag_224:\n      dup1\n      iszero\n      tag_225\n      jumpi\n      dup1\n      0x1f\n      lt\n      tag_226\n      jumpi\n      0x0100\n      dup1\n      dup4\n      sload\n      div\n      mul\n      dup4\n      mstore\n      swap2\n      0x20\n      add\n      swap2\n      jump(tag_225)\n    tag_226:\n      dup3\n      add\n      swap2\n      swap1\n      0x00\n      mstore\n      keccak256(0x00, 0x20)\n      swap1\n    tag_227:\n      dup2\n      sload\n      dup2\n      mstore\n      swap1\n      0x01\n      add\n      swap1\n      0x20\n      add\n      dup1\n      dup4\n      gt\n      tag_227\n      jumpi\n      dup3\n      swap1\n      sub\n      0x1f\n      and\n      dup3\n      add\n      swap2\n    tag_225:\n      pop\n      pop\n      pop\n      pop\n      pop\n      dup2\n      mstore\n      0x20\n      add\n      0x02\n      dup3\n      add\n      dup1\n      sload\n      dup1\n      0x20\n      mul\n      0x20\n      add\n      mload(0x40)\n      swap1\n      dup2\n      add\n      0x40\n      mstore\n      dup1\n      swap3\n      swap2\n      swap1\n      dup2\n      dup2\n      mstore\n      0x20\n      add\n      0x00\n      swap1\n    tag_228:\n      dup3\n      dup3\n      lt\n      iszero\n      tag_229\n      jumpi\n      dup4\n      dup3\n      swap1\n      0x00\n      mstore\n      keccak256(0x00, 0x20)\n      swap1\n      0x05\n      mul\n      add\n      mload(0x40)\n      dup1\n      0xa0\n      add\n      0x40\n      mstore\n      swap1\n      dup2\n      0x00\n      dup3\n      add\n      0x00\n      swap1\n      sload\n      swap1\n      0x0100\n      exp\n      swap1\n      div\n      0xffffffffffffffffffffffffffffffffffffffff\n      and\n      0xffffffffffffffffffffffffffffffffffffffff\n      and\n      0xffffffffffffffffffffffffffffffffffffffff\n      and\n      dup2\n      mstore\n      0x20\n      add\n      0x01\n      dup3\n      add\n      sload\n      dup2\n      mstore\n      0x20\n      add\n      0x02\n      dup3\n      add\n      dup1\n      sload\n      dup1\n      0x20\n      mul\n      0x20\n      add\n      mload(0x40)\n      swap1\n      dup2\n      add\n      0x40\n      mstore\n      dup1\n      swap3\n      swap2\n      swap1\n      dup2\n      dup2\n      mstore\n      0x20\n      add\n      0x00\n      swap1\n    tag_231:\n      dup3\n      dup3\n      lt\n      iszero\n      tag_232\n      jumpi\n      dup4\n      dup3\n      swap1\n      0x00\n      mstore\n      keccak256(0x00, 0x20)\n      add\n      mload(0x40)\n      dup1\n      0x40\n      add\n      0x40\n      mstore\n      swap1\n      dup2\n      0x00\n      dup3\n      add\n      0x00\n      swap1\n      sload\n      swap1\n      0x0100\n      exp\n      swap1\n      div\n      0xffffffffffffffffffffffffffffffffffffffff\n      and\n      0xffffffffffffffffffffffffffffffffffffffff\n      and\n      0xffffffffffffffffffffffffffffffffffffffff\n      and\n      dup2\n      mstore\n      0x20\n      add\n      0x00\n      dup3\n      add\n      0x14\n      swap1\n      sload\n      swap1\n      0x0100\n      exp\n      swap1\n      div\n      0xff\n      and\n      iszero\n      iszero\n      iszero\n      iszero\n      dup2\n      mstore\n      pop\n      pop\n      dup2\n      mstore\n      0x20\n      add\n      swap1\n      0x01\n      add\n      swap1\n      jump(tag_231)\n    tag_232:\n      pop\n      pop\n      pop\n      pop\n      dup2\n      mstore\n      0x20\n      add\n      0x03\n      dup3\n      add\n      dup1\n      sload\n      dup1\n      0x20\n      mul\n      0x20\n      add\n      mload(0x40)\n      swap1\n      dup2\n      add\n      0x40\n      mstore\n      dup1\n      swap3\n      swap2\n      swap1\n      dup2\n      dup2\n      mstore\n      0x20\n      add\n      0x00\n      swap1\n    tag_234:\n      dup3\n      dup3\n      lt\n      iszero\n      tag_235\n      jumpi\n      dup4\n      dup3\n      swap1\n      0x00\n      mstore\n      keccak256(0x00, 0x20)\n      swap1\n      0x03\n      mul\n      add\n      mload(0x40)\n      dup1\n      0x60\n      add\n      0x40\n      mstore\n      swap1\n      dup2\n      0x00\n      dup3\n      add\n      0x00\n      swap1\n      sload\n      swap1\n      0x0100\n      exp\n      swap1\n      div\n      0xffffffffffffffffffffffffffffffffffffffff\n      and\n      0xffffffffffffffffffffffffffffffffffffffff\n      and\n      0xffffffffffffffffffffffffffffffffffffffff\n      and\n      dup2\n      mstore\n      0x20\n      add\n      0x01\n      dup3\n      add\n      dup1\n      sload\n      dup1\n      0x20\n      mul\n      0x20\n      add\n      mload(0x40)\n      swap1\n      dup2\n      add\n      0x40\n      mstore\n      dup1\n      swap3\n      swap2\n      swap1\n      dup2\n      dup2\n      mstore\n      0x20\n      add\n      0x00\n      swap1\n    tag_237:\n      dup3\n      dup3\n      lt\n      iszero\n      tag_238\n      jumpi\n      dup4\n      dup3\n      swap1\n      0x00\n      mstore\n      keccak256(0x00, 0x20)\n      add\n      mload(0x40)\n      dup1\n      0x40\n      add\n      0x40\n      mstore\n      swap1\n      dup2\n      0x00\n      dup3\n      add\n      0x00\n      swap1\n      sload\n      swap1\n      0x0100\n      exp\n      swap1\n      div\n      0xffffffffffffffffffffffffffffffffffffffff\n      and\n      0xffffffffffffffffffffffffffffffffffffffff\n      and\n      0xffffffffffffffffffffffffffffffffffffffff\n      and\n      dup2\n      mstore\n      0x20\n      add\n      0x00\n      dup3\n      add\n      0x14\n      swap1\n      sload\n      swap1\n      0x0100\n      exp\n      swap1\n      div\n      0xff\n      and\n      iszero\n      iszero\n      iszero\n      iszero\n      dup2\n      mstore\n      pop\n      pop\n      dup2\n      mstore\n      0x20\n      add\n      swap1\n      0x01\n      add\n      swap1\n      jump(tag_237)\n    tag_238:\n      pop\n      pop\n      pop\n      pop\n      dup2\n      mstore\n      0x20\n      add\n      0x02\n      dup3\n      add\n      dup1\n      sload\n      tag_240\n      swap1\n      tag_223\n      jump\t// in\n    tag_240:\n      dup1\n      0x1f\n      add\n      0x20\n      dup1\n      swap2\n      div\n      mul\n      0x20\n      add\n      mload(0x40)\n      swap1\n      dup2\n      add\n      0x40\n      mstore\n      dup1\n      swap3\n      swap2\n      swap1\n      dup2\n      dup2\n      mstore\n      0x20\n      add\n      dup3\n      dup1\n      sload\n      tag_241\n      swap1\n      tag_223\n      jump\t// in\n    tag_241:\n      dup1\n      iszero\n      tag_242\n      jumpi\n      dup1\n      0x1f\n      lt\n      tag_243\n      jumpi\n      0x0100\n      dup1\n      dup4\n      sload\n      div\n      mul\n      dup4\n      mstore\n      swap2\n      0x20\n      add\n      swap2\n      jump(tag_242)\n    tag_243:\n      dup3\n      add\n      swap2\n      swap1\n      0x00\n      mstore\n      keccak256(0x00, 0x20)\n      swap1\n    tag_244:\n      dup2\n      sload\n      dup2\n      mstore\n      swap1\n      0x01\n      add\n      swap1\n      0x20\n      add\n      dup1\n      dup4\n      gt\n      tag_244\n      jumpi\n      dup3\n      swap1\n      sub\n      0x1f\n      and\n      dup3\n      add\n      swap2\n    tag_242:\n      pop\n      pop\n      pop\n      pop\n      pop\n      dup2\n      mstore\n      pop\n      pop\n      dup2\n      mstore\n      0x20\n      add\n      swap1\n      0x01\n      add\n      swap1\n      jump(tag_234)\n    tag_235:\n      pop\n      pop\n      pop\n      pop\n      dup2\n      mstore\n      0x20\n      add\n      0x04\n      dup3\n      add\n      dup1\n      sload\n      tag_245\n      swap1\n      tag_223\n      jump\t// in\n    tag_245:\n      dup1\n      0x1f\n      add\n      0x20\n      dup1\n      swap2\n      div\n      mul\n      0x20\n      add\n      mload(0x40)\n      swap1\n      dup2\n      add\n      0x40\n      mstore\n      dup1\n      swap3\n      swap2\n      swap1\n      dup2\n      dup2\n      mstore\n      0x20\n      add\n      dup3\n      dup1\n      sload\n      tag_246\n      swap1\n      tag_223\n      jump\t// in\n    tag_246:\n      dup1\n      iszero\n      tag_247\n      jumpi\n      dup1\n      0x1f\n      lt\n      tag_248\n      jumpi\n      0x0100\n      dup1\n      dup4\n      sload\n      div\n      mul\n      dup4\n      mstore\n      swap2\n      0x20\n      add\n      swap2\n      jump(tag_247)\n    tag_248:\n      dup3\n      add\n      swap2\n      swap1\n      0x00\n      mstore\n      keccak256(0x00, 0x20)\n      swap1\n    tag_249:\n      dup2\n      sload\n      dup2\n      mstore\n      swap1\n      0x01\n      add\n      swap1\n      0x20\n      add\n      dup1\n      dup4\n      gt\n      tag_249\n      jumpi\n      dup3\n      swap1\n      sub\n      0x1f\n      and\n      dup3\n      add\n      swap2\n    tag_247:\n      pop\n      pop\n      pop\n      pop\n      pop\n      dup2\n      mstore\n      pop\n      pop\n      dup2\n      mstore\n      0x20\n      add\n      swap1\n      0x01\n      add\n      swap1\n      jump(tag_228)\n    tag_229:\n      pop\n      pop\n      pop\n      pop\n      dup2\n      mstore\n      0x20\n      add\n      0x03\n      dup3\n      add\n      dup1\n      sload\n      dup1\n      0x20\n      mul\n      0x20\n      add\n      mload(0x40)\n      swap1\n      dup2\n      add\n      0x40\n      mstore\n      dup1\n      swap3\n      swap2\n      swap1\n      dup2\n      dup2\n      mstore\n      0x20\n      add\n      dup3\n      dup1\n      sload\n      dup1\n      iszero\n      tag_250\n      jumpi\n      0x20\n      mul\n      dup3\n      add\n      swap2\n      swap1\n      0x00\n      mstore\n      keccak256(0x00, 0x20)\n      swap1\n    tag_251:\n      dup2\n      sload\n      dup2\n      mstore\n      0x20\n      add\n      swap1\n      0x01\n      add\n      swap1\n      dup1\n      dup4\n      gt\n      tag_251\n      jumpi\n    tag_250:\n      pop\n      pop\n      pop\n      pop\n      pop\n      dup2\n      mstore\n      pop\n      pop\n      dup2\n      mstore\n      0x20\n      add\n      swap1\n      0x01\n      add\n      swap1\n      jump(tag_219)\n    tag_220:\n      pop\n      pop\n      pop\n      pop\n      swap1\n      pop\n        /* \"src/libs/shop.sol\":7256:7347  function view_Shops() public view returns (shop[] memory) {\r... */\n      swap1\n      jump\t// out\n        /* \"src/libs/shop.sol\":7454:7554  function view_Requests() public view returns (request[] memory) {\r... */\n    tag_37:\n        /* \"src/libs/shop.sol\":7500:7516  request[] memory */\n      0x60\n        /* \"src/libs/shop.sol\":7537:7545  Requests */\n      0x02\n        /* \"src/libs/shop.sol\":7529:7546  return (Requests) */\n      dup1\n      sload\n      dup1\n      0x20\n      mul\n      0x20\n      add\n      mload(0x40)\n      swap1\n      dup2\n      add\n      0x40\n      mstore\n      dup1\n      swap3\n      swap2\n      swap1\n      dup2\n      dup2\n      mstore\n      0x20\n      add\n      0x00\n      swap1\n    tag_253:\n      dup3\n      dup3\n      lt\n      iszero\n      tag_254\n      jumpi\n      dup4\n      dup3\n      swap1\n      0x00\n      mstore\n      keccak256(0x00, 0x20)\n      add\n      mload(0x40)\n      dup1\n      0x40\n      add\n      0x40\n      mstore\n      swap1\n      dup2\n      0x00\n      dup3\n      add\n      0x00\n      swap1\n      sload\n      swap1\n      0x0100\n      exp\n      swap1\n      div\n      0xffffffffffffffffffffffffffffffffffffffff\n      and\n      0xffffffffffffffffffffffffffffffffffffffff\n      and\n      0xffffffffffffffffffffffffffffffffffffffff\n      and\n      dup2\n      mstore\n      0x20\n      add\n      0x00\n      dup3\n      add\n      0x14\n      swap1\n      sload\n      swap1\n      0x0100\n      exp\n      swap1\n      div\n      0xff\n      and\n      iszero\n      iszero\n      iszero\n      iszero\n      dup2\n      mstore\n      pop\n      pop\n      dup2\n      mstore\n      0x20\n      add\n      swap1\n      0x01\n      add\n      swap1\n      jump(tag_253)\n    tag_254:\n      pop\n      pop\n      pop\n      pop\n      swap1\n      pop\n        /* \"src/libs/shop.sol\":7454:7554  function view_Requests() public view returns (request[] memory) {\r... */\n      swap1\n      jump\t// out\n        /* \"src/libs/shop.sol\":3582:3985  function globalSwitchRequest() public {\r... */\n    tag_41:\n        /* \"src/libs/shop.sol\":3636:3645  uint256 i */\n      0x00\n        /* \"src/libs/shop.sol\":3631:3978  for (uint256 i = 0; i < Users.length; i++) {\r... */\n    tag_257:\n        /* \"src/libs/shop.sol\":3655:3660  Users */\n      0x01\n        /* \"src/libs/shop.sol\":3655:3667  Users.length */\n      dup1\n      sload\n      swap1\n      pop\n        /* \"src/libs/shop.sol\":3651:3652  i */\n      dup2\n        /* \"src/libs/shop.sol\":3651:3667  i < Users.length */\n      lt\n        /* \"src/libs/shop.sol\":3631:3978  for (uint256 i = 0; i < Users.length; i++) {\r... */\n      iszero\n      tag_258\n      jumpi\n        /* \"src/libs/shop.sol\":3714:3715  0 */\n      0x00\n        /* \"src/libs/shop.sol\":3697:3702  Users */\n      0x01\n        /* \"src/libs/shop.sol\":3703:3704  i */\n      dup3\n        /* \"src/libs/shop.sol\":3697:3705  Users[i] */\n      dup2\n      sload\n      dup2\n      lt\n      tag_260\n      jumpi\n      tag_261\n      tag_71\n      jump\t// in\n    tag_261:\n    tag_260:\n      swap1\n      0x00\n      mstore\n      keccak256(0x00, 0x20)\n      swap1\n      0x03\n      mul\n      add\n        /* \"src/libs/shop.sol\":3697:3710  Users[i].role */\n      0x01\n      add\n      sload\n        /* \"src/libs/shop.sol\":3697:3715  Users[i].role != 0 */\n      eq\n      iszero\n        /* \"src/libs/shop.sol\":3689:3723  require(Users[i].role != 0, \"101\") */\n      tag_263\n      jumpi\n      mload(0x40)\n      0x08c379a000000000000000000000000000000000000000000000000000000000\n      dup2\n      mstore\n      0x04\n      add\n      tag_264\n      swap1\n      tag_265\n      jump\t// in\n    tag_264:\n      mload(0x40)\n      dup1\n      swap2\n      sub\n      swap1\n      revert\n    tag_263:\n        /* \"src/libs/shop.sol\":3855:3865  msg.sender */\n      caller\n        /* \"src/libs/shop.sol\":3838:3865  Users[i].user == msg.sender */\n      0xffffffffffffffffffffffffffffffffffffffff\n      and\n        /* \"src/libs/shop.sol\":3838:3843  Users */\n      0x01\n        /* \"src/libs/shop.sol\":3844:3845  i */\n      dup3\n        /* \"src/libs/shop.sol\":3838:3846  Users[i] */\n      dup2\n      sload\n      dup2\n      lt\n      tag_266\n      jumpi\n      tag_267\n      tag_71\n      jump\t// in\n    tag_267:\n    tag_266:\n      swap1\n      0x00\n      mstore\n      keccak256(0x00, 0x20)\n      swap1\n      0x03\n      mul\n      add\n        /* \"src/libs/shop.sol\":3838:3851  Users[i].user */\n      0x00\n      add\n      0x00\n      swap1\n      sload\n      swap1\n      0x0100\n      exp\n      swap1\n      div\n      0xffffffffffffffffffffffffffffffffffffffff\n      and\n        /* \"src/libs/shop.sol\":3838:3865  Users[i].user == msg.sender */\n      0xffffffffffffffffffffffffffffffffffffffff\n      and\n      eq\n        /* \"src/libs/shop.sol\":3834:3967  if (Users[i].user == msg.sender) {\r... */\n      iszero\n      tag_269\n      jumpi\n        /* \"src/libs/shop.sol\":3886:3894  Requests */\n      0x02\n        /* \"src/libs/shop.sol\":3900:3926  request(msg.sender, false) */\n      mload(0x40)\n      dup1\n      0x40\n      add\n      0x40\n      mstore\n      dup1\n        /* \"src/libs/shop.sol\":3908:3918  msg.sender */\n      caller\n        /* \"src/libs/shop.sol\":3900:3926  request(msg.sender, false) */\n      0xffffffffffffffffffffffffffffffffffffffff\n      and\n      dup2\n      mstore\n      0x20\n      add\n        /* \"src/libs/shop.sol\":3920:3925  false */\n      0x00\n        /* \"src/libs/shop.sol\":3900:3926  request(msg.sender, false) */\n      iszero\n      iszero\n      dup2\n      mstore\n      pop\n        /* \"src/libs/shop.sol\":3886:3927  Requests.push(request(msg.sender, false)) */\n      swap1\n      dup1\n      0x01\n      dup2\n      sload\n      add\n      dup1\n      dup3\n      sstore\n      dup1\n      swap2\n      pop\n      pop\n      0x01\n      swap1\n      sub\n      swap1\n      0x00\n      mstore\n      keccak256(0x00, 0x20)\n      add\n      0x00\n      swap1\n      swap2\n      swap1\n      swap2\n      swap1\n      swap2\n      pop\n      0x00\n      dup3\n      add\n      mload\n      dup2\n      0x00\n      add\n      exp(0x0100, 0x00)\n      dup2\n      sload\n      dup2\n      0xffffffffffffffffffffffffffffffffffffffff\n      mul\n      not\n      and\n      swap1\n      dup4\n      0xffffffffffffffffffffffffffffffffffffffff\n      and\n      mul\n      or\n      swap1\n      sstore\n      pop\n      0x20\n      dup3\n      add\n      mload\n      dup2\n      0x00\n      add\n      exp(0x0100, 0x14)\n      dup2\n      sload\n      dup2\n      0xff\n      mul\n      not\n      and\n      swap1\n      dup4\n      iszero\n      iszero\n      mul\n      or\n      swap1\n      sstore\n      pop\n      pop\n      pop\n        /* \"src/libs/shop.sol\":3946:3951  break */\n      jump(tag_258)\n        /* \"src/libs/shop.sol\":3834:3967  if (Users[i].user == msg.sender) {\r... */\n    tag_269:\n        /* \"src/libs/shop.sol\":3669:3672  i++ */\n      dup1\n      dup1\n      tag_271\n      swap1\n      tag_116\n      jump\t// in\n    tag_271:\n      swap2\n      pop\n      pop\n        /* \"src/libs/shop.sol\":3631:3978  for (uint256 i = 0; i < Users.length; i++) {\r... */\n      jump(tag_257)\n    tag_258:\n      pop\n        /* \"src/libs/shop.sol\":3582:3985  function globalSwitchRequest() public {\r... */\n      jump\t// out\n        /* \"src/libs/shop.sol\":2879:2978  function regUser() public isntReg(msg.sender) {\r... */\n    tag_43:\n        /* \"src/libs/shop.sol\":2913:2923  msg.sender */\n      caller\n        /* \"src/libs/shop.sol\":1612:1621  uint256 i */\n      0x00\n        /* \"src/libs/shop.sol\":1607:1735  for (uint256 i = 0; i < Users.length; i++) {\r... */\n    tag_273:\n        /* \"src/libs/shop.sol\":1631:1636  Users */\n      0x01\n        /* \"src/libs/shop.sol\":1631:1643  Users.length */\n      dup1\n      sload\n      swap1\n      pop\n        /* \"src/libs/shop.sol\":1627:1628  i */\n      dup2\n        /* \"src/libs/shop.sol\":1627:1643  i < Users.length */\n      lt\n        /* \"src/libs/shop.sol\":1607:1735  for (uint256 i = 0; i < Users.length; i++) {\r... */\n      iszero\n      tag_274\n      jumpi\n        /* \"src/libs/shop.sol\":1690:1697  newUser */\n      dup2\n        /* \"src/libs/shop.sol\":1673:1697  Users[i].user != newUser */\n      0xffffffffffffffffffffffffffffffffffffffff\n      and\n        /* \"src/libs/shop.sol\":1673:1678  Users */\n      0x01\n        /* \"src/libs/shop.sol\":1679:1680  i */\n      dup3\n        /* \"src/libs/shop.sol\":1673:1681  Users[i] */\n      dup2\n      sload\n      dup2\n      lt\n      tag_276\n      jumpi\n      tag_277\n      tag_71\n      jump\t// in\n    tag_277:\n    tag_276:\n      swap1\n      0x00\n      mstore\n      keccak256(0x00, 0x20)\n      swap1\n      0x03\n      mul\n      add\n        /* \"src/libs/shop.sol\":1673:1686  Users[i].user */\n      0x00\n      add\n      0x00\n      swap1\n      sload\n      swap1\n      0x0100\n      exp\n      swap1\n      div\n      0xffffffffffffffffffffffffffffffffffffffff\n      and\n        /* \"src/libs/shop.sol\":1673:1697  Users[i].user != newUser */\n      0xffffffffffffffffffffffffffffffffffffffff\n      and\n      eq\n      iszero\n        /* \"src/libs/shop.sol\":1665:1723  require(Users[i].user != newUser, \"U already registered!\") */\n      tag_279\n      jumpi\n      mload(0x40)\n      0x08c379a000000000000000000000000000000000000000000000000000000000\n      dup2\n      mstore\n      0x04\n      add\n      tag_280\n      swap1\n      tag_192\n      jump\t// in\n    tag_280:\n      mload(0x40)\n      dup1\n      swap2\n      sub\n      swap1\n      revert\n    tag_279:\n        /* \"src/libs/shop.sol\":1645:1648  i++ */\n      dup1\n      dup1\n      tag_281\n      swap1\n      tag_116\n      jump\t// in\n    tag_281:\n      swap2\n      pop\n      pop\n        /* \"src/libs/shop.sol\":1607:1735  for (uint256 i = 0; i < Users.length; i++) {\r... */\n      jump(tag_273)\n    tag_274:\n      pop\n        /* \"src/libs/shop.sol\":2936:2941  Users */\n      0x01\n        /* \"src/libs/shop.sol\":2947:2969  user(msg.sender, 2, 2) */\n      mload(0x40)\n      dup1\n      0x60\n      add\n      0x40\n      mstore\n      dup1\n        /* \"src/libs/shop.sol\":2952:2962  msg.sender */\n      caller\n        /* \"src/libs/shop.sol\":2947:2969  user(msg.sender, 2, 2) */\n      0xffffffffffffffffffffffffffffffffffffffff\n      and\n      dup2\n      mstore\n      0x20\n      add\n        /* \"src/libs/shop.sol\":2964:2965  2 */\n      0x02\n        /* \"src/libs/shop.sol\":2947:2969  user(msg.sender, 2, 2) */\n      dup2\n      mstore\n      0x20\n      add\n        /* \"src/libs/shop.sol\":2967:2968  2 */\n      0x02\n        /* \"src/libs/shop.sol\":2947:2969  user(msg.sender, 2, 2) */\n      dup2\n      mstore\n      pop\n        /* \"src/libs/shop.sol\":2936:2970  Users.push(user(msg.sender, 2, 2)) */\n      swap1\n      dup1\n      0x01\n      dup2\n      sload\n      add\n      dup1\n      dup3\n      sstore\n      dup1\n      swap2\n      pop\n      pop\n      0x01\n      swap1\n      sub\n      swap1\n      0x00\n      mstore\n      keccak256(0x00, 0x20)\n      swap1\n      0x03\n      mul\n      add\n      0x00\n      swap1\n      swap2\n      swap1\n      swap2\n      swap1\n      swap2\n      pop\n      0x00\n      dup3\n      add\n      mload\n      dup2\n      0x00\n      add\n      exp(0x0100, 0x00)\n      dup2\n      sload\n      dup2\n      0xffffffffffffffffffffffffffffffffffffffff\n      mul\n      not\n      and\n      swap1\n      dup4\n      0xffffffffffffffffffffffffffffffffffffffff\n      and\n      mul\n      or\n      swap1\n      sstore\n      pop\n      0x20\n      dup3\n      add\n      mload\n      dup2\n      0x01\n      add\n      sstore\n      0x40\n      dup3\n      add\n      mload\n      dup2\n      0x02\n      add\n      sstore\n      pop\n      pop\n        /* \"src/libs/shop.sol\":2879:2978  function regUser() public isntReg(msg.sender) {\r... */\n      pop\n      jump\t// out\n        /* \"src/libs/shop.sol\":5728:6004  function deleteShop(uint256 idShop) public {\r... */\n    tag_46:\n        /* \"src/libs/shop.sol\":5787:5796  uint256 i */\n      0x00\n        /* \"src/libs/shop.sol\":5782:5966  for (uint256 i = 0; i < Shops[idShop].sellers.length; i++) {\r... */\n    tag_285:\n        /* \"src/libs/shop.sol\":5806:5811  Shops */\n      0x00\n        /* \"src/libs/shop.sol\":5812:5818  idShop */\n      dup3\n        /* \"src/libs/shop.sol\":5806:5819  Shops[idShop] */\n      dup2\n      sload\n      dup2\n      lt\n      tag_288\n      jumpi\n      tag_289\n      tag_71\n      jump\t// in\n    tag_289:\n    tag_288:\n      swap1\n      0x00\n      mstore\n      keccak256(0x00, 0x20)\n      swap1\n      0x04\n      mul\n      add\n        /* \"src/libs/shop.sol\":5806:5827  Shops[idShop].sellers */\n      0x03\n      add\n        /* \"src/libs/shop.sol\":5806:5834  Shops[idShop].sellers.length */\n      dup1\n      sload\n      swap1\n      pop\n        /* \"src/libs/shop.sol\":5802:5803  i */\n      dup2\n        /* \"src/libs/shop.sol\":5802:5834  i < Shops[idShop].sellers.length */\n      lt\n        /* \"src/libs/shop.sol\":5782:5966  for (uint256 i = 0; i < Shops[idShop].sellers.length; i++) {\r... */\n      iszero\n      tag_286\n      jumpi\n        /* \"src/libs/shop.sol\":5895:5896  2 */\n      0x02\n        /* \"src/libs/shop.sol\":5856:5861  Users */\n      0x01\n        /* \"src/libs/shop.sol\":5862:5867  Shops */\n      0x00\n        /* \"src/libs/shop.sol\":5868:5874  idShop */\n      dup5\n        /* \"src/libs/shop.sol\":5862:5875  Shops[idShop] */\n      dup2\n      sload\n      dup2\n      lt\n      tag_291\n      jumpi\n      tag_292\n      tag_71\n      jump\t// in\n    tag_292:\n    tag_291:\n      swap1\n      0x00\n      mstore\n      keccak256(0x00, 0x20)\n      swap1\n      0x04\n      mul\n      add\n        /* \"src/libs/shop.sol\":5862:5883  Shops[idShop].sellers */\n      0x03\n      add\n        /* \"src/libs/shop.sol\":5884:5885  i */\n      dup4\n        /* \"src/libs/shop.sol\":5862:5886  Shops[idShop].sellers[i] */\n      dup2\n      sload\n      dup2\n      lt\n      tag_294\n      jumpi\n      tag_295\n      tag_71\n      jump\t// in\n    tag_295:\n    tag_294:\n      swap1\n      0x00\n      mstore\n      keccak256(0x00, 0x20)\n      add\n      sload\n        /* \"src/libs/shop.sol\":5856:5887  Users[Shops[idShop].sellers[i]] */\n      dup2\n      sload\n      dup2\n      lt\n      tag_297\n      jumpi\n      tag_298\n      tag_71\n      jump\t// in\n    tag_298:\n    tag_297:\n      swap1\n      0x00\n      mstore\n      keccak256(0x00, 0x20)\n      swap1\n      0x03\n      mul\n      add\n        /* \"src/libs/shop.sol\":5856:5892  Users[Shops[idShop].sellers[i]].role */\n      0x01\n      add\n        /* \"src/libs/shop.sol\":5856:5896  Users[Shops[idShop].sellers[i]].role = 2 */\n      dup2\n      swap1\n      sstore\n      pop\n        /* \"src/libs/shop.sol\":5953:5954  2 */\n      0x02\n        /* \"src/libs/shop.sol\":5911:5916  Users */\n      0x01\n        /* \"src/libs/shop.sol\":5917:5922  Shops */\n      0x00\n        /* \"src/libs/shop.sol\":5923:5929  idShop */\n      dup5\n        /* \"src/libs/shop.sol\":5917:5930  Shops[idShop] */\n      dup2\n      sload\n      dup2\n      lt\n      tag_300\n      jumpi\n      tag_301\n      tag_71\n      jump\t// in\n    tag_301:\n    tag_300:\n      swap1\n      0x00\n      mstore\n      keccak256(0x00, 0x20)\n      swap1\n      0x04\n      mul\n      add\n        /* \"src/libs/shop.sol\":5917:5938  Shops[idShop].sellers */\n      0x03\n      add\n        /* \"src/libs/shop.sol\":5939:5940  i */\n      dup4\n        /* \"src/libs/shop.sol\":5917:5941  Shops[idShop].sellers[i] */\n      dup2\n      sload\n      dup2\n      lt\n      tag_303\n      jumpi\n      tag_304\n      tag_71\n      jump\t// in\n    tag_304:\n    tag_303:\n      swap1\n      0x00\n      mstore\n      keccak256(0x00, 0x20)\n      add\n      sload\n        /* \"src/libs/shop.sol\":5911:5942  Users[Shops[idShop].sellers[i]] */\n      dup2\n      sload\n      dup2\n      lt\n      tag_306\n      jumpi\n      tag_307\n      tag_71\n      jump\t// in\n    tag_307:\n    tag_306:\n      swap1\n      0x00\n      mstore\n      keccak256(0x00, 0x20)\n      swap1\n      0x03\n      mul\n      add\n        /* \"src/libs/shop.sol\":5911:5950  Users[Shops[idShop].sellers[i]].nowRole */\n      0x02\n      add\n        /* \"src/libs/shop.sol\":5911:5954  Users[Shops[idShop].sellers[i]].nowRole = 2 */\n      dup2\n      swap1\n      sstore\n      pop\n        /* \"src/libs/shop.sol\":5836:5839  i++ */\n      dup1\n      dup1\n      tag_309\n      swap1\n      tag_116\n      jump\t// in\n    tag_309:\n      swap2\n      pop\n      pop\n        /* \"src/libs/shop.sol\":5782:5966  for (uint256 i = 0; i < Shops[idShop].sellers.length; i++) {\r... */\n      jump(tag_285)\n    tag_286:\n      pop\n        /* \"src/libs/shop.sol\":5983:5988  Shops */\n      0x00\n        /* \"src/libs/shop.sol\":5989:5995  idShop */\n      dup2\n        /* \"src/libs/shop.sol\":5983:5996  Shops[idShop] */\n      dup2\n      sload\n      dup2\n      lt\n      tag_310\n      jumpi\n      tag_311\n      tag_71\n      jump\t// in\n    tag_311:\n    tag_310:\n      swap1\n      0x00\n      mstore\n      keccak256(0x00, 0x20)\n      swap1\n      0x04\n      mul\n      add\n      0x00\n        /* \"src/libs/shop.sol\":5976:5996  delete Shops[idShop] */\n      dup1\n      dup3\n      add\n      exp(0x0100, 0x00)\n      dup2\n      sload\n      swap1\n      0xffffffffffffffffffffffffffffffffffffffff\n      mul\n      not\n      and\n      swap1\n      sstore\n      0x01\n      dup3\n      add\n      0x00\n      tag_313\n      swap2\n      swap1\n      tag_314\n      jump\t// in\n    tag_313:\n      0x02\n      dup3\n      add\n      0x00\n      tag_315\n      swap2\n      swap1\n      tag_316\n      jump\t// in\n    tag_315:\n      0x03\n      dup3\n      add\n      0x00\n      tag_317\n      swap2\n      swap1\n      tag_318\n      jump\t// in\n    tag_317:\n      pop\n      pop\n        /* \"src/libs/shop.sol\":5728:6004  function deleteShop(uint256 idShop) public {\r... */\n      pop\n      jump\t// out\n        /* \"src/libs/shop.sol\":6691:6904  function addLike(\r... */\n    tag_50:\n        /* \"src/libs/shop.sol\":6802:6812  msg.sender */\n      caller\n        /* \"src/libs/shop.sol\":2416:2425  uint256 i */\n      0x00\n        /* \"src/libs/shop.sol\":2411:2614  for (uint256 i = 0; i < Users.length; i++) {\r... */\n    tag_320:\n        /* \"src/libs/shop.sol\":2435:2440  Users */\n      0x01\n        /* \"src/libs/shop.sol\":2435:2447  Users.length */\n      dup1\n      sload\n      swap1\n      pop\n        /* \"src/libs/shop.sol\":2431:2432  i */\n      dup2\n        /* \"src/libs/shop.sol\":2431:2447  i < Users.length */\n      lt\n        /* \"src/libs/shop.sol\":2411:2614  for (uint256 i = 0; i < Users.length; i++) {\r... */\n      iszero\n      tag_321\n      jumpi\n        /* \"src/libs/shop.sol\":2490:2497  newUser */\n      dup2\n        /* \"src/libs/shop.sol\":2473:2497  Users[i].user == newUser */\n      0xffffffffffffffffffffffffffffffffffffffff\n      and\n        /* \"src/libs/shop.sol\":2473:2478  Users */\n      0x01\n        /* \"src/libs/shop.sol\":2479:2480  i */\n      dup3\n        /* \"src/libs/shop.sol\":2473:2481  Users[i] */\n      dup2\n      sload\n      dup2\n      lt\n      tag_323\n      jumpi\n      tag_324\n      tag_71\n      jump\t// in\n    tag_324:\n    tag_323:\n      swap1\n      0x00\n      mstore\n      keccak256(0x00, 0x20)\n      swap1\n      0x03\n      mul\n      add\n        /* \"src/libs/shop.sol\":2473:2486  Users[i].user */\n      0x00\n      add\n      0x00\n      swap1\n      sload\n      swap1\n      0x0100\n      exp\n      swap1\n      div\n      0xffffffffffffffffffffffffffffffffffffffff\n      and\n        /* \"src/libs/shop.sol\":2473:2497  Users[i].user == newUser */\n      0xffffffffffffffffffffffffffffffffffffffff\n      and\n      eq\n        /* \"src/libs/shop.sol\":2469:2603  if (Users[i].user == newUser) {\r... */\n      iszero\n      tag_326\n      jumpi\n        /* \"src/libs/shop.sol\":2543:2544  2 */\n      0x02\n        /* \"src/libs/shop.sol\":2526:2531  Users */\n      0x01\n        /* \"src/libs/shop.sol\":2532:2533  i */\n      dup3\n        /* \"src/libs/shop.sol\":2526:2534  Users[i] */\n      dup2\n      sload\n      dup2\n      lt\n      tag_327\n      jumpi\n      tag_328\n      tag_71\n      jump\t// in\n    tag_328:\n    tag_327:\n      swap1\n      0x00\n      mstore\n      keccak256(0x00, 0x20)\n      swap1\n      0x03\n      mul\n      add\n        /* \"src/libs/shop.sol\":2526:2539  Users[i].role */\n      0x01\n      add\n      sload\n        /* \"src/libs/shop.sol\":2526:2544  Users[i].role == 2 */\n      eq\n        /* \"src/libs/shop.sol\":2518:2563  require(Users[i].role == 2, \"U isn't admin!\") */\n      tag_330\n      jumpi\n      mload(0x40)\n      0x08c379a000000000000000000000000000000000000000000000000000000000\n      dup2\n      mstore\n      0x04\n      add\n      tag_331\n      swap1\n      tag_133\n      jump\t// in\n    tag_331:\n      mload(0x40)\n      dup1\n      swap2\n      sub\n      swap1\n      revert\n    tag_330:\n        /* \"src/libs/shop.sol\":2582:2587  break */\n      jump(tag_321)\n        /* \"src/libs/shop.sol\":2469:2603  if (Users[i].user == newUser) {\r... */\n    tag_326:\n        /* \"src/libs/shop.sol\":2449:2452  i++ */\n      dup1\n      dup1\n      tag_332\n      swap1\n      tag_116\n      jump\t// in\n    tag_332:\n      swap2\n      pop\n      pop\n        /* \"src/libs/shop.sol\":2411:2614  for (uint256 i = 0; i < Users.length; i++) {\r... */\n      jump(tag_320)\n    tag_321:\n      pop\n        /* \"src/libs/shop.sol\":6825:6830  Shops */\n      0x00\n        /* \"src/libs/shop.sol\":6831:6837  idShop */\n      dup5\n        /* \"src/libs/shop.sol\":6825:6838  Shops[idShop] */\n      dup2\n      sload\n      dup2\n      lt\n      tag_334\n      jumpi\n      tag_335\n      tag_71\n      jump\t// in\n    tag_335:\n    tag_334:\n      swap1\n      0x00\n      mstore\n      keccak256(0x00, 0x20)\n      swap1\n      0x04\n      mul\n      add\n        /* \"src/libs/shop.sol\":6825:6850  Shops[idShop].bookOfMarks */\n      0x02\n      add\n        /* \"src/libs/shop.sol\":6851:6857  idMark */\n      dup4\n        /* \"src/libs/shop.sol\":6825:6858  Shops[idShop].bookOfMarks[idMark] */\n      dup2\n      sload\n      dup2\n      lt\n      tag_337\n      jumpi\n      tag_338\n      tag_71\n      jump\t// in\n    tag_338:\n    tag_337:\n      swap1\n      0x00\n      mstore\n      keccak256(0x00, 0x20)\n      swap1\n      0x05\n      mul\n      add\n        /* \"src/libs/shop.sol\":6825:6864  Shops[idShop].bookOfMarks[idMark].likes */\n      0x02\n      add\n        /* \"src/libs/shop.sol\":6870:6895  like(msg.sender, isLiked) */\n      mload(0x40)\n      dup1\n      0x40\n      add\n      0x40\n      mstore\n      dup1\n        /* \"src/libs/shop.sol\":6875:6885  msg.sender */\n      caller\n        /* \"src/libs/shop.sol\":6870:6895  like(msg.sender, isLiked) */\n      0xffffffffffffffffffffffffffffffffffffffff\n      and\n      dup2\n      mstore\n      0x20\n      add\n        /* \"src/libs/shop.sol\":6887:6894  isLiked */\n      dup5\n        /* \"src/libs/shop.sol\":6870:6895  like(msg.sender, isLiked) */\n      iszero\n      iszero\n      dup2\n      mstore\n      pop\n        /* \"src/libs/shop.sol\":6825:6896  Shops[idShop].bookOfMarks[idMark].likes.push(like(msg.sender, isLiked)) */\n      swap1\n      dup1\n      0x01\n      dup2\n      sload\n      add\n      dup1\n      dup3\n      sstore\n      dup1\n      swap2\n      pop\n      pop\n      0x01\n      swap1\n      sub\n      swap1\n      0x00\n      mstore\n      keccak256(0x00, 0x20)\n      add\n      0x00\n      swap1\n      swap2\n      swap1\n      swap2\n      swap1\n      swap2\n      pop\n      0x00\n      dup3\n      add\n      mload\n      dup2\n      0x00\n      add\n      exp(0x0100, 0x00)\n      dup2\n      sload\n      dup2\n      0xffffffffffffffffffffffffffffffffffffffff\n      mul\n      not\n      and\n      swap1\n      dup4\n      0xffffffffffffffffffffffffffffffffffffffff\n      and\n      mul\n      or\n      swap1\n      sstore\n      pop\n      0x20\n      dup3\n      add\n      mload\n      dup2\n      0x00\n      add\n      exp(0x0100, 0x14)\n      dup2\n      sload\n      dup2\n      0xff\n      mul\n      not\n      and\n      swap1\n      dup4\n      iszero\n      iszero\n      mul\n      or\n      swap1\n      sstore\n      pop\n      pop\n      pop\n        /* \"src/libs/shop.sol\":6691:6904  function addLike(\r... */\n      pop\n      pop\n      pop\n      pop\n      jump\t// out\n        /* \"src/libs/shop.sol\":3058:3574  function switchToUser() public {\r... */\n    tag_52:\n        /* \"src/libs/shop.sol\":3105:3114  uint256 i */\n      0x00\n        /* \"src/libs/shop.sol\":3100:3567  for (uint256 i = 0; i < Users.length; i++) {\r... */\n    tag_342:\n        /* \"src/libs/shop.sol\":3124:3129  Users */\n      0x01\n        /* \"src/libs/shop.sol\":3124:3136  Users.length */\n      dup1\n      sload\n      swap1\n      pop\n        /* \"src/libs/shop.sol\":3120:3121  i */\n      dup2\n        /* \"src/libs/shop.sol\":3120:3136  i < Users.length */\n      lt\n        /* \"src/libs/shop.sol\":3100:3567  for (uint256 i = 0; i < Users.length; i++) {\r... */\n      iszero\n      tag_343\n      jumpi\n        /* \"src/libs/shop.sol\":3183:3184  2 */\n      0x02\n        /* \"src/libs/shop.sol\":3166:3171  Users */\n      0x01\n        /* \"src/libs/shop.sol\":3172:3173  i */\n      dup3\n        /* \"src/libs/shop.sol\":3166:3174  Users[i] */\n      dup2\n      sload\n      dup2\n      lt\n      tag_345\n      jumpi\n      tag_346\n      tag_71\n      jump\t// in\n    tag_346:\n    tag_345:\n      swap1\n      0x00\n      mstore\n      keccak256(0x00, 0x20)\n      swap1\n      0x03\n      mul\n      add\n        /* \"src/libs/shop.sol\":3166:3179  Users[i].role */\n      0x01\n      add\n      sload\n        /* \"src/libs/shop.sol\":3166:3184  Users[i].role != 2 */\n      eq\n      iszero\n        /* \"src/libs/shop.sol\":3158:3192  require(Users[i].role != 2, \"100\") */\n      tag_348\n      jumpi\n      mload(0x40)\n      0x08c379a000000000000000000000000000000000000000000000000000000000\n      dup2\n      mstore\n      0x04\n      add\n      tag_349\n      swap1\n      tag_350\n      jump\t// in\n    tag_349:\n      mload(0x40)\n      dup1\n      swap2\n      sub\n      swap1\n      revert\n    tag_348:\n        /* \"src/libs/shop.sol\":3303:3313  msg.sender */\n      caller\n        /* \"src/libs/shop.sol\":3286:3313  Users[i].user == msg.sender */\n      0xffffffffffffffffffffffffffffffffffffffff\n      and\n        /* \"src/libs/shop.sol\":3286:3291  Users */\n      0x01\n        /* \"src/libs/shop.sol\":3292:3293  i */\n      dup3\n        /* \"src/libs/shop.sol\":3286:3294  Users[i] */\n      dup2\n      sload\n      dup2\n      lt\n      tag_351\n      jumpi\n      tag_352\n      tag_71\n      jump\t// in\n    tag_352:\n    tag_351:\n      swap1\n      0x00\n      mstore\n      keccak256(0x00, 0x20)\n      swap1\n      0x03\n      mul\n      add\n        /* \"src/libs/shop.sol\":3286:3299  Users[i].user */\n      0x00\n      add\n      0x00\n      swap1\n      sload\n      swap1\n      0x0100\n      exp\n      swap1\n      div\n      0xffffffffffffffffffffffffffffffffffffffff\n      and\n        /* \"src/libs/shop.sol\":3286:3313  Users[i].user == msg.sender */\n      0xffffffffffffffffffffffffffffffffffffffff\n      and\n      eq\n        /* \"src/libs/shop.sol\":3282:3556  if (Users[i].user == msg.sender) {\r... */\n      iszero\n      tag_354\n      jumpi\n        /* \"src/libs/shop.sol\":3355:3360  Users */\n      0x01\n        /* \"src/libs/shop.sol\":3361:3362  i */\n      dup2\n        /* \"src/libs/shop.sol\":3355:3363  Users[i] */\n      dup2\n      sload\n      dup2\n      lt\n      tag_355\n      jumpi\n      tag_356\n      tag_71\n      jump\t// in\n    tag_356:\n    tag_355:\n      swap1\n      0x00\n      mstore\n      keccak256(0x00, 0x20)\n      swap1\n      0x03\n      mul\n      add\n        /* \"src/libs/shop.sol\":3355:3371  Users[i].nowRole */\n      0x02\n      add\n      sload\n        /* \"src/libs/shop.sol\":3338:3343  Users */\n      0x01\n        /* \"src/libs/shop.sol\":3344:3345  i */\n      dup3\n        /* \"src/libs/shop.sol\":3338:3346  Users[i] */\n      dup2\n      sload\n      dup2\n      lt\n      tag_358\n      jumpi\n      tag_359\n      tag_71\n      jump\t// in\n    tag_359:\n    tag_358:\n      swap1\n      0x00\n      mstore\n      keccak256(0x00, 0x20)\n      swap1\n      0x03\n      mul\n      add\n        /* \"src/libs/shop.sol\":3338:3351  Users[i].role */\n      0x01\n      add\n      sload\n        /* \"src/libs/shop.sol\":3338:3371  Users[i].role == Users[i].nowRole */\n      eq\n        /* \"src/libs/shop.sol\":3334:3517  if (Users[i].role == Users[i].nowRole) {\r... */\n      iszero\n      tag_361\n      jumpi\n        /* \"src/libs/shop.sol\":3415:3416  2 */\n      0x02\n        /* \"src/libs/shop.sol\":3396:3401  Users */\n      0x01\n        /* \"src/libs/shop.sol\":3402:3403  i */\n      dup3\n        /* \"src/libs/shop.sol\":3396:3404  Users[i] */\n      dup2\n      sload\n      dup2\n      lt\n      tag_362\n      jumpi\n      tag_363\n      tag_71\n      jump\t// in\n    tag_363:\n    tag_362:\n      swap1\n      0x00\n      mstore\n      keccak256(0x00, 0x20)\n      swap1\n      0x03\n      mul\n      add\n        /* \"src/libs/shop.sol\":3396:3412  Users[i].nowRole */\n      0x02\n      add\n        /* \"src/libs/shop.sol\":3396:3416  Users[i].nowRole = 2 */\n      dup2\n      swap1\n      sstore\n      pop\n        /* \"src/libs/shop.sol\":3334:3517  if (Users[i].role == Users[i].nowRole) {\r... */\n      jump(tag_365)\n    tag_361:\n        /* \"src/libs/shop.sol\":3484:3489  Users */\n      0x01\n        /* \"src/libs/shop.sol\":3490:3491  i */\n      dup2\n        /* \"src/libs/shop.sol\":3484:3492  Users[i] */\n      dup2\n      sload\n      dup2\n      lt\n      tag_366\n      jumpi\n      tag_367\n      tag_71\n      jump\t// in\n    tag_367:\n    tag_366:\n      swap1\n      0x00\n      mstore\n      keccak256(0x00, 0x20)\n      swap1\n      0x03\n      mul\n      add\n        /* \"src/libs/shop.sol\":3484:3497  Users[i].role */\n      0x01\n      add\n      sload\n        /* \"src/libs/shop.sol\":3465:3470  Users */\n      0x01\n        /* \"src/libs/shop.sol\":3471:3472  i */\n      dup3\n        /* \"src/libs/shop.sol\":3465:3473  Users[i] */\n      dup2\n      sload\n      dup2\n      lt\n      tag_369\n      jumpi\n      tag_370\n      tag_71\n      jump\t// in\n    tag_370:\n    tag_369:\n      swap1\n      0x00\n      mstore\n      keccak256(0x00, 0x20)\n      swap1\n      0x03\n      mul\n      add\n        /* \"src/libs/shop.sol\":3465:3481  Users[i].nowRole */\n      0x02\n      add\n        /* \"src/libs/shop.sol\":3465:3497  Users[i].nowRole = Users[i].role */\n      dup2\n      swap1\n      sstore\n      pop\n        /* \"src/libs/shop.sol\":3334:3517  if (Users[i].role == Users[i].nowRole) {\r... */\n    tag_365:\n        /* \"src/libs/shop.sol\":3535:3540  break */\n      jump(tag_343)\n        /* \"src/libs/shop.sol\":3282:3556  if (Users[i].user == msg.sender) {\r... */\n    tag_354:\n        /* \"src/libs/shop.sol\":3138:3141  i++ */\n      dup1\n      dup1\n      tag_372\n      swap1\n      tag_116\n      jump\t// in\n    tag_372:\n      swap2\n      pop\n      pop\n        /* \"src/libs/shop.sol\":3100:3567  for (uint256 i = 0; i < Users.length; i++) {\r... */\n      jump(tag_342)\n    tag_343:\n      pop\n        /* \"src/libs/shop.sol\":3058:3574  function switchToUser() public {\r... */\n      jump\t// out\n        /* \"src/libs/shop.sol\":6912:7197  function addLike(\r... */\n    tag_56:\n        /* \"src/libs/shop.sol\":7051:7061  msg.sender */\n      caller\n        /* \"src/libs/shop.sol\":2416:2425  uint256 i */\n      0x00\n        /* \"src/libs/shop.sol\":2411:2614  for (uint256 i = 0; i < Users.length; i++) {\r... */\n    tag_374:\n        /* \"src/libs/shop.sol\":2435:2440  Users */\n      0x01\n        /* \"src/libs/shop.sol\":2435:2447  Users.length */\n      dup1\n      sload\n      swap1\n      pop\n        /* \"src/libs/shop.sol\":2431:2432  i */\n      dup2\n        /* \"src/libs/shop.sol\":2431:2447  i < Users.length */\n      lt\n        /* \"src/libs/shop.sol\":2411:2614  for (uint256 i = 0; i < Users.length; i++) {\r... */\n      iszero\n      tag_375\n      jumpi\n        /* \"src/libs/shop.sol\":2490:2497  newUser */\n      dup2\n        /* \"src/libs/shop.sol\":2473:2497  Users[i].user == newUser */\n      0xffffffffffffffffffffffffffffffffffffffff\n      and\n        /* \"src/libs/shop.sol\":2473:2478  Users */\n      0x01\n        /* \"src/libs/shop.sol\":2479:2480  i */\n      dup3\n        /* \"src/libs/shop.sol\":2473:2481  Users[i] */\n      dup2\n      sload\n      dup2\n      lt\n      tag_377\n      jumpi\n      tag_378\n      tag_71\n      jump\t// in\n    tag_378:\n    tag_377:\n      swap1\n      0x00\n      mstore\n      keccak256(0x00, 0x20)\n      swap1\n      0x03\n      mul\n      add\n        /* \"src/libs/shop.sol\":2473:2486  Users[i].user */\n      0x00\n      add\n      0x00\n      swap1\n      sload\n      swap1\n      0x0100\n      exp\n      swap1\n      div\n      0xffffffffffffffffffffffffffffffffffffffff\n      and\n        /* \"src/libs/shop.sol\":2473:2497  Users[i].user == newUser */\n      0xffffffffffffffffffffffffffffffffffffffff\n      and\n      eq\n        /* \"src/libs/shop.sol\":2469:2603  if (Users[i].user == newUser) {\r... */\n      iszero\n      tag_380\n      jumpi\n        /* \"src/libs/shop.sol\":2543:2544  2 */\n      0x02\n        /* \"src/libs/shop.sol\":2526:2531  Users */\n      0x01\n        /* \"src/libs/shop.sol\":2532:2533  i */\n      dup3\n        /* \"src/libs/shop.sol\":2526:2534  Users[i] */\n      dup2\n      sload\n      dup2\n      lt\n      tag_381\n      jumpi\n      tag_382\n      tag_71\n      jump\t// in\n    tag_382:\n    tag_381:\n      swap1\n      0x00\n      mstore\n      keccak256(0x00, 0x20)\n      swap1\n      0x03\n      mul\n      add\n        /* \"src/libs/shop.sol\":2526:2539  Users[i].role */\n      0x01\n      add\n      sload\n        /* \"src/libs/shop.sol\":2526:2544  Users[i].role == 2 */\n      eq\n        /* \"src/libs/shop.sol\":2518:2563  require(Users[i].role == 2, \"U isn't admin!\") */\n      tag_384\n      jumpi\n      mload(0x40)\n      0x08c379a000000000000000000000000000000000000000000000000000000000\n      dup2\n      mstore\n      0x04\n      add\n      tag_385\n      swap1\n      tag_133\n      jump\t// in\n    tag_385:\n      mload(0x40)\n      dup1\n      swap2\n      sub\n      swap1\n      revert\n    tag_384:\n        /* \"src/libs/shop.sol\":2582:2587  break */\n      jump(tag_375)\n        /* \"src/libs/shop.sol\":2469:2603  if (Users[i].user == newUser) {\r... */\n    tag_380:\n        /* \"src/libs/shop.sol\":2449:2452  i++ */\n      dup1\n      dup1\n      tag_386\n      swap1\n      tag_116\n      jump\t// in\n    tag_386:\n      swap2\n      pop\n      pop\n        /* \"src/libs/shop.sol\":2411:2614  for (uint256 i = 0; i < Users.length; i++) {\r... */\n      jump(tag_374)\n    tag_375:\n      pop\n        /* \"src/libs/shop.sol\":7074:7079  Shops */\n      0x00\n        /* \"src/libs/shop.sol\":7080:7086  idShop */\n      dup6\n        /* \"src/libs/shop.sol\":7074:7087  Shops[idShop] */\n      dup2\n      sload\n      dup2\n      lt\n      tag_388\n      jumpi\n      tag_389\n      tag_71\n      jump\t// in\n    tag_389:\n    tag_388:\n      swap1\n      0x00\n      mstore\n      keccak256(0x00, 0x20)\n      swap1\n      0x04\n      mul\n      add\n        /* \"src/libs/shop.sol\":7074:7099  Shops[idShop].bookOfMarks */\n      0x02\n      add\n        /* \"src/libs/shop.sol\":7100:7106  idMark */\n      dup5\n        /* \"src/libs/shop.sol\":7074:7107  Shops[idShop].bookOfMarks[idMark] */\n      dup2\n      sload\n      dup2\n      lt\n      tag_391\n      jumpi\n      tag_392\n      tag_71\n      jump\t// in\n    tag_392:\n    tag_391:\n      swap1\n      0x00\n      mstore\n      keccak256(0x00, 0x20)\n      swap1\n      0x05\n      mul\n      add\n        /* \"src/libs/shop.sol\":7074:7116  Shops[idShop].bookOfMarks[idMark].comments */\n      0x03\n      add\n        /* \"src/libs/shop.sol\":7117:7126  idComment */\n      dup4\n        /* \"src/libs/shop.sol\":7074:7127  Shops[idShop].bookOfMarks[idMark].comments[idComment] */\n      dup2\n      sload\n      dup2\n      lt\n      tag_394\n      jumpi\n      tag_395\n      tag_71\n      jump\t// in\n    tag_395:\n    tag_394:\n      swap1\n      0x00\n      mstore\n      keccak256(0x00, 0x20)\n      swap1\n      0x03\n      mul\n      add\n        /* \"src/libs/shop.sol\":7074:7133  Shops[idShop].bookOfMarks[idMark].comments[idComment].likes */\n      0x01\n      add\n        /* \"src/libs/shop.sol\":7153:7178  like(msg.sender, isLiked) */\n      mload(0x40)\n      dup1\n      0x40\n      add\n      0x40\n      mstore\n      dup1\n        /* \"src/libs/shop.sol\":7158:7168  msg.sender */\n      caller\n        /* \"src/libs/shop.sol\":7153:7178  like(msg.sender, isLiked) */\n      0xffffffffffffffffffffffffffffffffffffffff\n      and\n      dup2\n      mstore\n      0x20\n      add\n        /* \"src/libs/shop.sol\":7170:7177  isLiked */\n      dup5\n        /* \"src/libs/shop.sol\":7153:7178  like(msg.sender, isLiked) */\n      iszero\n      iszero\n      dup2\n      mstore\n      pop\n        /* \"src/libs/shop.sol\":7074:7189  Shops[idShop].bookOfMarks[idMark].comments[idComment].likes.push(\r... */\n      swap1\n      dup1\n      0x01\n      dup2\n      sload\n      add\n      dup1\n      dup3\n      sstore\n      dup1\n      swap2\n      pop\n      pop\n      0x01\n      swap1\n      sub\n      swap1\n      0x00\n      mstore\n      keccak256(0x00, 0x20)\n      add\n      0x00\n      swap1\n      swap2\n      swap1\n      swap2\n      swap1\n      swap2\n      pop\n      0x00\n      dup3\n      add\n      mload\n      dup2\n      0x00\n      add\n      exp(0x0100, 0x00)\n      dup2\n      sload\n      dup2\n      0xffffffffffffffffffffffffffffffffffffffff\n      mul\n      not\n      and\n      swap1\n      dup4\n      0xffffffffffffffffffffffffffffffffffffffff\n      and\n      mul\n      or\n      swap1\n      sstore\n      pop\n      0x20\n      dup3\n      add\n      mload\n      dup2\n      0x00\n      add\n      exp(0x0100, 0x14)\n      dup2\n      sload\n      dup2\n      0xff\n      mul\n      not\n      and\n      swap1\n      dup4\n      iszero\n      iszero\n      mul\n      or\n      swap1\n      sstore\n      pop\n      pop\n      pop\n        /* \"src/libs/shop.sol\":6912:7197  function addLike(\r... */\n      pop\n      pop\n      pop\n      pop\n      pop\n      jump\t// out\n        /* \"src/libs/shop.sol\":5026:5401  function addAdmin(address candidate)\r... */\n    tag_60:\n        /* \"src/libs/shop.sol\":5094:5104  msg.sender */\n      caller\n        /* \"src/libs/shop.sol\":1269:1285  bool isRegistred */\n      0x00\n        /* \"src/libs/shop.sol\":1309:1318  uint256 i */\n      dup1\n        /* \"src/libs/shop.sol\":1304:1481  for (uint256 i = 0; i < Users.length; i++) {\r... */\n    tag_399:\n        /* \"src/libs/shop.sol\":1328:1333  Users */\n      0x01\n        /* \"src/libs/shop.sol\":1328:1340  Users.length */\n      dup1\n      sload\n      swap1\n      pop\n        /* \"src/libs/shop.sol\":1324:1325  i */\n      dup2\n        /* \"src/libs/shop.sol\":1324:1340  i < Users.length */\n      lt\n        /* \"src/libs/shop.sol\":1304:1481  for (uint256 i = 0; i < Users.length; i++) {\r... */\n      iszero\n      tag_400\n      jumpi\n        /* \"src/libs/shop.sol\":1383:1391  someUser */\n      dup3\n        /* \"src/libs/shop.sol\":1366:1391  Users[i].user == someUser */\n      0xffffffffffffffffffffffffffffffffffffffff\n      and\n        /* \"src/libs/shop.sol\":1366:1371  Users */\n      0x01\n        /* \"src/libs/shop.sol\":1372:1373  i */\n      dup3\n        /* \"src/libs/shop.sol\":1366:1374  Users[i] */\n      dup2\n      sload\n      dup2\n      lt\n      tag_402\n      jumpi\n      tag_403\n      tag_71\n      jump\t// in\n    tag_403:\n    tag_402:\n      swap1\n      0x00\n      mstore\n      keccak256(0x00, 0x20)\n      swap1\n      0x03\n      mul\n      add\n        /* \"src/libs/shop.sol\":1366:1379  Users[i].user */\n      0x00\n      add\n      0x00\n      swap1\n      sload\n      swap1\n      0x0100\n      exp\n      swap1\n      div\n      0xffffffffffffffffffffffffffffffffffffffff\n      and\n        /* \"src/libs/shop.sol\":1366:1391  Users[i].user == someUser */\n      0xffffffffffffffffffffffffffffffffffffffff\n      and\n      eq\n        /* \"src/libs/shop.sol\":1362:1470  if (Users[i].user == someUser) {\r... */\n      iszero\n      tag_405\n      jumpi\n        /* \"src/libs/shop.sol\":1426:1430  true */\n      0x01\n        /* \"src/libs/shop.sol\":1412:1430  isRegistred = true */\n      swap2\n      pop\n        /* \"src/libs/shop.sol\":1449:1454  break */\n      jump(tag_400)\n        /* \"src/libs/shop.sol\":1362:1470  if (Users[i].user == someUser) {\r... */\n    tag_405:\n        /* \"src/libs/shop.sol\":1342:1345  i++ */\n      dup1\n      dup1\n      tag_406\n      swap1\n      tag_116\n      jump\t// in\n    tag_406:\n      swap2\n      pop\n      pop\n        /* \"src/libs/shop.sol\":1304:1481  for (uint256 i = 0; i < Users.length; i++) {\r... */\n      jump(tag_399)\n    tag_400:\n      pop\n        /* \"src/libs/shop.sol\":1500:1511  isRegistred */\n      dup1\n        /* \"src/libs/shop.sol\":1499:1511  !isRegistred */\n      iszero\n        /* \"src/libs/shop.sol\":1491:1534  require(!isRegistred, \"U isn't registred!\") */\n      tag_407\n      jumpi\n      mload(0x40)\n      0x08c379a000000000000000000000000000000000000000000000000000000000\n      dup2\n      mstore\n      0x04\n      add\n      tag_408\n      swap1\n      tag_119\n      jump\t// in\n    tag_408:\n      mload(0x40)\n      dup1\n      swap2\n      sub\n      swap1\n      revert\n    tag_407:\n        /* \"src/libs/shop.sol\":5123:5133  msg.sender */\n      caller\n        /* \"src/libs/shop.sol\":2139:2148  uint256 i */\n      0x00\n        /* \"src/libs/shop.sol\":2134:2340  for (uint256 i = 0; i < Users.length; i++) {\r... */\n    tag_410:\n        /* \"src/libs/shop.sol\":2158:2163  Users */\n      0x01\n        /* \"src/libs/shop.sol\":2158:2170  Users.length */\n      dup1\n      sload\n      swap1\n      pop\n        /* \"src/libs/shop.sol\":2154:2155  i */\n      dup2\n        /* \"src/libs/shop.sol\":2154:2170  i < Users.length */\n      lt\n        /* \"src/libs/shop.sol\":2134:2340  for (uint256 i = 0; i < Users.length; i++) {\r... */\n      iszero\n      tag_411\n      jumpi\n        /* \"src/libs/shop.sol\":2213:2220  newUser */\n      dup2\n        /* \"src/libs/shop.sol\":2196:2220  Users[i].user == newUser */\n      0xffffffffffffffffffffffffffffffffffffffff\n      and\n        /* \"src/libs/shop.sol\":2196:2201  Users */\n      0x01\n        /* \"src/libs/shop.sol\":2202:2203  i */\n      dup3\n        /* \"src/libs/shop.sol\":2196:2204  Users[i] */\n      dup2\n      sload\n      dup2\n      lt\n      tag_413\n      jumpi\n      tag_414\n      tag_71\n      jump\t// in\n    tag_414:\n    tag_413:\n      swap1\n      0x00\n      mstore\n      keccak256(0x00, 0x20)\n      swap1\n      0x03\n      mul\n      add\n        /* \"src/libs/shop.sol\":2196:2209  Users[i].user */\n      0x00\n      add\n      0x00\n      swap1\n      sload\n      swap1\n      0x0100\n      exp\n      swap1\n      div\n      0xffffffffffffffffffffffffffffffffffffffff\n      and\n        /* \"src/libs/shop.sol\":2196:2220  Users[i].user == newUser */\n      0xffffffffffffffffffffffffffffffffffffffff\n      and\n      eq\n        /* \"src/libs/shop.sol\":2192:2329  if (Users[i].user == newUser) {\r... */\n      iszero\n      tag_416\n      jumpi\n        /* \"src/libs/shop.sol\":2269:2270  0 */\n      0x00\n        /* \"src/libs/shop.sol\":2249:2254  Users */\n      0x01\n        /* \"src/libs/shop.sol\":2255:2256  i */\n      dup3\n        /* \"src/libs/shop.sol\":2249:2257  Users[i] */\n      dup2\n      sload\n      dup2\n      lt\n      tag_417\n      jumpi\n      tag_418\n      tag_71\n      jump\t// in\n    tag_418:\n    tag_417:\n      swap1\n      0x00\n      mstore\n      keccak256(0x00, 0x20)\n      swap1\n      0x03\n      mul\n      add\n        /* \"src/libs/shop.sol\":2249:2265  Users[i].nowRole */\n      0x02\n      add\n      sload\n        /* \"src/libs/shop.sol\":2249:2270  Users[i].nowRole == 0 */\n      eq\n        /* \"src/libs/shop.sol\":2241:2289  require(Users[i].nowRole == 0, \"U isn't admin!\") */\n      tag_420\n      jumpi\n      mload(0x40)\n      0x08c379a000000000000000000000000000000000000000000000000000000000\n      dup2\n      mstore\n      0x04\n      add\n      tag_421\n      swap1\n      tag_133\n      jump\t// in\n    tag_421:\n      mload(0x40)\n      dup1\n      swap2\n      sub\n      swap1\n      revert\n    tag_420:\n        /* \"src/libs/shop.sol\":2308:2313  break */\n      jump(tag_411)\n        /* \"src/libs/shop.sol\":2192:2329  if (Users[i].user == newUser) {\r... */\n    tag_416:\n        /* \"src/libs/shop.sol\":2172:2175  i++ */\n      dup1\n      dup1\n      tag_422\n      swap1\n      tag_116\n      jump\t// in\n    tag_422:\n      swap2\n      pop\n      pop\n        /* \"src/libs/shop.sol\":2134:2340  for (uint256 i = 0; i < Users.length; i++) {\r... */\n      jump(tag_410)\n    tag_411:\n      pop\n        /* \"src/libs/shop.sol\":5156:5165  uint256 i */\n      0x00\n        /* \"src/libs/shop.sol\":5151:5394  for (uint256 i = 0; i < Users.length; i++) {\r... */\n    tag_424:\n        /* \"src/libs/shop.sol\":5175:5180  Users */\n      0x01\n        /* \"src/libs/shop.sol\":5175:5187  Users.length */\n      dup1\n      sload\n      swap1\n      pop\n        /* \"src/libs/shop.sol\":5171:5172  i */\n      dup2\n        /* \"src/libs/shop.sol\":5171:5187  i < Users.length */\n      lt\n        /* \"src/libs/shop.sol\":5151:5394  for (uint256 i = 0; i < Users.length; i++) {\r... */\n      iszero\n      tag_425\n      jumpi\n        /* \"src/libs/shop.sol\":5230:5239  candidate */\n      dup5\n        /* \"src/libs/shop.sol\":5213:5239  Users[i].user == candidate */\n      0xffffffffffffffffffffffffffffffffffffffff\n      and\n        /* \"src/libs/shop.sol\":5213:5218  Users */\n      0x01\n        /* \"src/libs/shop.sol\":5219:5220  i */\n      dup3\n        /* \"src/libs/shop.sol\":5213:5221  Users[i] */\n      dup2\n      sload\n      dup2\n      lt\n      tag_427\n      jumpi\n      tag_428\n      tag_71\n      jump\t// in\n    tag_428:\n    tag_427:\n      swap1\n      0x00\n      mstore\n      keccak256(0x00, 0x20)\n      swap1\n      0x03\n      mul\n      add\n        /* \"src/libs/shop.sol\":5213:5226  Users[i].user */\n      0x00\n      add\n      0x00\n      swap1\n      sload\n      swap1\n      0x0100\n      exp\n      swap1\n      div\n      0xffffffffffffffffffffffffffffffffffffffff\n      and\n        /* \"src/libs/shop.sol\":5213:5239  Users[i].user == candidate */\n      0xffffffffffffffffffffffffffffffffffffffff\n      and\n      eq\n        /* \"src/libs/shop.sol\":5209:5383  if (Users[i].user == candidate) {\r... */\n      iszero\n      tag_430\n      jumpi\n        /* \"src/libs/shop.sol\":5285:5286  0 */\n      0x00\n        /* \"src/libs/shop.sol\":5268:5273  Users */\n      0x01\n        /* \"src/libs/shop.sol\":5274:5275  i */\n      dup3\n        /* \"src/libs/shop.sol\":5268:5276  Users[i] */\n      dup2\n      sload\n      dup2\n      lt\n      tag_431\n      jumpi\n      tag_432\n      tag_71\n      jump\t// in\n    tag_432:\n    tag_431:\n      swap1\n      0x00\n      mstore\n      keccak256(0x00, 0x20)\n      swap1\n      0x03\n      mul\n      add\n        /* \"src/libs/shop.sol\":5268:5281  Users[i].role */\n      0x01\n      add\n      sload\n        /* \"src/libs/shop.sol\":5268:5286  Users[i].role != 0 */\n      eq\n      iszero\n        /* \"src/libs/shop.sol\":5260:5307  require(Users[i].role != 0, \"U already admin!\") */\n      tag_434\n      jumpi\n      mload(0x40)\n      0x08c379a000000000000000000000000000000000000000000000000000000000\n      dup2\n      mstore\n      0x04\n      add\n      tag_435\n      swap1\n      tag_436\n      jump\t// in\n    tag_435:\n      mload(0x40)\n      dup1\n      swap2\n      sub\n      swap1\n      revert\n    tag_434:\n        /* \"src/libs/shop.sol\":5342:5343  0 */\n      0x00\n        /* \"src/libs/shop.sol\":5326:5331  Users */\n      0x01\n        /* \"src/libs/shop.sol\":5332:5333  i */\n      dup3\n        /* \"src/libs/shop.sol\":5326:5334  Users[i] */\n      dup2\n      sload\n      dup2\n      lt\n      tag_437\n      jumpi\n      tag_438\n      tag_71\n      jump\t// in\n    tag_438:\n    tag_437:\n      swap1\n      0x00\n      mstore\n      keccak256(0x00, 0x20)\n      swap1\n      0x03\n      mul\n      add\n        /* \"src/libs/shop.sol\":5326:5339  Users[i].role */\n      0x01\n      add\n        /* \"src/libs/shop.sol\":5326:5343  Users[i].role = 0 */\n      dup2\n      swap1\n      sstore\n      pop\n        /* \"src/libs/shop.sol\":5362:5367  break */\n      jump(tag_425)\n        /* \"src/libs/shop.sol\":5209:5383  if (Users[i].user == candidate) {\r... */\n    tag_430:\n        /* \"src/libs/shop.sol\":5189:5192  i++ */\n      dup1\n      dup1\n      tag_440\n      swap1\n      tag_116\n      jump\t// in\n    tag_440:\n      swap2\n      pop\n      pop\n        /* \"src/libs/shop.sol\":5151:5394  for (uint256 i = 0; i < Users.length; i++) {\r... */\n      jump(tag_424)\n    tag_425:\n      pop\n        /* \"src/libs/shop.sol\":1545:1546  _ */\n      pop\n        /* \"src/libs/shop.sol\":1258:1554  {\r... */\n      pop\n        /* \"src/libs/shop.sol\":5026:5401  function addAdmin(address candidate)\r... */\n      pop\n      pop\n      jump\t// out\n        /* \"src/libs/shop.sol\":3993:4527  function addComment(\r... */\n    tag_63:\n        /* \"src/libs/shop.sol\":4124:4129  Shops */\n      0x00\n        /* \"src/libs/shop.sol\":4130:4136  idShop */\n      dup4\n        /* \"src/libs/shop.sol\":4124:4137  Shops[idShop] */\n      dup2\n      sload\n      dup2\n      lt\n      tag_442\n      jumpi\n      tag_443\n      tag_71\n      jump\t// in\n    tag_443:\n    tag_442:\n      swap1\n      0x00\n      mstore\n      keccak256(0x00, 0x20)\n      swap1\n      0x04\n      mul\n      add\n        /* \"src/libs/shop.sol\":4124:4149  Shops[idShop].bookOfMarks */\n      0x02\n      add\n        /* \"src/libs/shop.sol\":4150:4156  idMark */\n      dup3\n        /* \"src/libs/shop.sol\":4124:4157  Shops[idShop].bookOfMarks[idMark] */\n      dup2\n      sload\n      dup2\n      lt\n      tag_445\n      jumpi\n      tag_446\n      tag_71\n      jump\t// in\n    tag_446:\n    tag_445:\n      swap1\n      0x00\n      mstore\n      keccak256(0x00, 0x20)\n      swap1\n      0x05\n      mul\n      add\n        /* \"src/libs/shop.sol\":4124:4166  Shops[idShop].bookOfMarks[idMark].comments */\n      0x03\n      add\n        /* \"src/libs/shop.sol\":4124:4173  Shops[idShop].bookOfMarks[idMark].comments.push() */\n      0x01\n      dup2\n      0x01\n      dup2\n      sload\n      add\n      dup1\n      dup3\n      sstore\n      dup1\n      swap2\n      pop\n      pop\n      sub\n      swap1\n      0x00\n      mstore\n      keccak256(0x00, 0x20)\n      swap1\n      pop\n      pop\n        /* \"src/libs/shop.sol\":4333:4343  msg.sender */\n      caller\n        /* \"src/libs/shop.sol\":4184:4189  Shops */\n      0x00\n        /* \"src/libs/shop.sol\":4190:4196  idShop */\n      dup5\n        /* \"src/libs/shop.sol\":4184:4197  Shops[idShop] */\n      dup2\n      sload\n      dup2\n      lt\n      tag_449\n      jumpi\n      tag_450\n      tag_71\n      jump\t// in\n    tag_450:\n    tag_449:\n      swap1\n      0x00\n      mstore\n      keccak256(0x00, 0x20)\n      swap1\n      0x04\n      mul\n      add\n        /* \"src/libs/shop.sol\":4184:4223  Shops[idShop]\r... */\n      0x02\n      add\n        /* \"src/libs/shop.sol\":4224:4230  idMark */\n      dup4\n        /* \"src/libs/shop.sol\":4184:4231  Shops[idShop]\r... */\n      dup2\n      sload\n      dup2\n      lt\n      tag_452\n      jumpi\n      tag_453\n      tag_71\n      jump\t// in\n    tag_453:\n    tag_452:\n      swap1\n      0x00\n      mstore\n      keccak256(0x00, 0x20)\n      swap1\n      0x05\n      mul\n      add\n        /* \"src/libs/shop.sol\":4184:4254  Shops[idShop]\r... */\n      0x03\n      add\n        /* \"src/libs/shop.sol\":4307:4308  1 */\n      0x01\n        /* \"src/libs/shop.sol\":4255:4260  Shops */\n      0x00\n        /* \"src/libs/shop.sol\":4261:4267  idShop */\n      dup7\n        /* \"src/libs/shop.sol\":4255:4268  Shops[idShop] */\n      dup2\n      sload\n      dup2\n      lt\n      tag_455\n      jumpi\n      tag_456\n      tag_71\n      jump\t// in\n    tag_456:\n    tag_455:\n      swap1\n      0x00\n      mstore\n      keccak256(0x00, 0x20)\n      swap1\n      0x04\n      mul\n      add\n        /* \"src/libs/shop.sol\":4255:4280  Shops[idShop].bookOfMarks */\n      0x02\n      add\n        /* \"src/libs/shop.sol\":4281:4287  idMark */\n      dup6\n        /* \"src/libs/shop.sol\":4255:4288  Shops[idShop].bookOfMarks[idMark] */\n      dup2\n      sload\n      dup2\n      lt\n      tag_458\n      jumpi\n      tag_459\n      tag_71\n      jump\t// in\n    tag_459:\n    tag_458:\n      swap1\n      0x00\n      mstore\n      keccak256(0x00, 0x20)\n      swap1\n      0x05\n      mul\n      add\n        /* \"src/libs/shop.sol\":4255:4297  Shops[idShop].bookOfMarks[idMark].comments */\n      0x03\n      add\n        /* \"src/libs/shop.sol\":4255:4304  Shops[idShop].bookOfMarks[idMark].comments.length */\n      dup1\n      sload\n      swap1\n      pop\n        /* \"src/libs/shop.sol\":4255:4308  Shops[idShop].bookOfMarks[idMark].comments.length - 1 */\n      tag_461\n      swap2\n      swap1\n      tag_81\n      jump\t// in\n    tag_461:\n        /* \"src/libs/shop.sol\":4184:4309  Shops[idShop]\r... */\n      dup2\n      sload\n      dup2\n      lt\n      tag_462\n      jumpi\n      tag_463\n      tag_71\n      jump\t// in\n    tag_463:\n    tag_462:\n      swap1\n      0x00\n      mstore\n      keccak256(0x00, 0x20)\n      swap1\n      0x03\n      mul\n      add\n        /* \"src/libs/shop.sol\":4184:4330  Shops[idShop]\r... */\n      0x00\n      add\n      0x00\n        /* \"src/libs/shop.sol\":4184:4343  Shops[idShop]\r... */\n      0x0100\n      exp\n      dup2\n      sload\n      dup2\n      0xffffffffffffffffffffffffffffffffffffffff\n      mul\n      not\n      and\n      swap1\n      dup4\n      0xffffffffffffffffffffffffffffffffffffffff\n      and\n      mul\n      or\n      swap1\n      sstore\n      pop\n        /* \"src/libs/shop.sol\":4508:4519  description */\n      dup1\n        /* \"src/libs/shop.sol\":4354:4359  Shops */\n      0x00\n        /* \"src/libs/shop.sol\":4360:4366  idShop */\n      dup5\n        /* \"src/libs/shop.sol\":4354:4367  Shops[idShop] */\n      dup2\n      sload\n      dup2\n      lt\n      tag_465\n      jumpi\n      tag_466\n      tag_71\n      jump\t// in\n    tag_466:\n    tag_465:\n      swap1\n      0x00\n      mstore\n      keccak256(0x00, 0x20)\n      swap1\n      0x04\n      mul\n      add\n        /* \"src/libs/shop.sol\":4354:4393  Shops[idShop]\r... */\n      0x02\n      add\n        /* \"src/libs/shop.sol\":4394:4400  idMark */\n      dup4\n        /* \"src/libs/shop.sol\":4354:4401  Shops[idShop]\r... */\n      dup2\n      sload\n      dup2\n      lt\n      tag_468\n      jumpi\n      tag_469\n      tag_71\n      jump\t// in\n    tag_469:\n    tag_468:\n      swap1\n      0x00\n      mstore\n      keccak256(0x00, 0x20)\n      swap1\n      0x05\n      mul\n      add\n        /* \"src/libs/shop.sol\":4354:4424  Shops[idShop]\r... */\n      0x03\n      add\n        /* \"src/libs/shop.sol\":4477:4478  1 */\n      0x01\n        /* \"src/libs/shop.sol\":4425:4430  Shops */\n      0x00\n        /* \"src/libs/shop.sol\":4431:4437  idShop */\n      dup7\n        /* \"src/libs/shop.sol\":4425:4438  Shops[idShop] */\n      dup2\n      sload\n      dup2\n      lt\n      tag_471\n      jumpi\n      tag_472\n      tag_71\n      jump\t// in\n    tag_472:\n    tag_471:\n      swap1\n      0x00\n      mstore\n      keccak256(0x00, 0x20)\n      swap1\n      0x04\n      mul\n      add\n        /* \"src/libs/shop.sol\":4425:4450  Shops[idShop].bookOfMarks */\n      0x02\n      add\n        /* \"src/libs/shop.sol\":4451:4457  idMark */\n      dup6\n        /* \"src/libs/shop.sol\":4425:4458  Shops[idShop].bookOfMarks[idMark] */\n      dup2\n      sload\n      dup2\n      lt\n      tag_474\n      jumpi\n      tag_475\n      tag_71\n      jump\t// in\n    tag_475:\n    tag_474:\n      swap1\n      0x00\n      mstore\n      keccak256(0x00, 0x20)\n      swap1\n      0x05\n      mul\n      add\n        /* \"src/libs/shop.sol\":4425:4467  Shops[idShop].bookOfMarks[idMark].comments */\n      0x03\n      add\n        /* \"src/libs/shop.sol\":4425:4474  Shops[idShop].bookOfMarks[idMark].comments.length */\n      dup1\n      sload\n      swap1\n      pop\n        /* \"src/libs/shop.sol\":4425:4478  Shops[idShop].bookOfMarks[idMark].comments.length - 1 */\n      tag_477\n      swap2\n      swap1\n      tag_81\n      jump\t// in\n    tag_477:\n        /* \"src/libs/shop.sol\":4354:4479  Shops[idShop]\r... */\n      dup2\n      sload\n      dup2\n      lt\n      tag_478\n      jumpi\n      tag_479\n      tag_71\n      jump\t// in\n    tag_479:\n    tag_478:\n      swap1\n      0x00\n      mstore\n      keccak256(0x00, 0x20)\n      swap1\n      0x03\n      mul\n      add\n        /* \"src/libs/shop.sol\":4354:4505  Shops[idShop]\r... */\n      0x02\n      add\n        /* \"src/libs/shop.sol\":4354:4519  Shops[idShop]\r... */\n      swap1\n      dup1\n      mload\n      swap1\n      0x20\n      add\n      swap1\n      tag_481\n      swap3\n      swap2\n      swap1\n      tag_106\n      jump\t// in\n    tag_481:\n      pop\n        /* \"src/libs/shop.sol\":3993:4527  function addComment(\r... */\n      pop\n      pop\n      pop\n      jump\t// out\n        /* \"src/libs/shop.sol\":7355:7446  function view_Users() public view returns (user[] memory) {\r... */\n    tag_65:\n        /* \"src/libs/shop.sol\":7398:7411  user[] memory */\n      0x60\n        /* \"src/libs/shop.sol\":7432:7437  Users */\n      0x01\n        /* \"src/libs/shop.sol\":7424:7438  return (Users) */\n      dup1\n      sload\n      dup1\n      0x20\n      mul\n      0x20\n      add\n      mload(0x40)\n      swap1\n      dup2\n      add\n      0x40\n      mstore\n      dup1\n      swap3\n      swap2\n      swap1\n      dup2\n      dup2\n      mstore\n      0x20\n      add\n      0x00\n      swap1\n    tag_483:\n      dup3\n      dup3\n      lt\n      iszero\n      tag_484\n      jumpi\n      dup4\n      dup3\n      swap1\n      0x00\n      mstore\n      keccak256(0x00, 0x20)\n      swap1\n      0x03\n      mul\n      add\n      mload(0x40)\n      dup1\n      0x60\n      add\n      0x40\n      mstore\n      swap1\n      dup2\n      0x00\n      dup3\n      add\n      0x00\n      swap1\n      sload\n      swap1\n      0x0100\n      exp\n      swap1\n      div\n      0xffffffffffffffffffffffffffffffffffffffff\n      and\n      0xffffffffffffffffffffffffffffffffffffffff\n      and\n      0xffffffffffffffffffffffffffffffffffffffff\n      and\n      dup2\n      mstore\n      0x20\n      add\n      0x01\n      dup3\n      add\n      sload\n      dup2\n      mstore\n      0x20\n      add\n      0x02\n      dup3\n      add\n      sload\n      dup2\n      mstore\n      pop\n      pop\n      dup2\n      mstore\n      0x20\n      add\n      swap1\n      0x01\n      add\n      swap1\n      jump(tag_483)\n    tag_484:\n      pop\n      pop\n      pop\n      pop\n      swap1\n      pop\n        /* \"src/libs/shop.sol\":7355:7446  function view_Users() public view returns (user[] memory) {\r... */\n      swap1\n      jump\t// out\n    tag_106:\n      dup3\n      dup1\n      sload\n      tag_486\n      swap1\n      tag_223\n      jump\t// in\n    tag_486:\n      swap1\n      0x00\n      mstore\n      keccak256(0x00, 0x20)\n      swap1\n      0x1f\n      add\n      0x20\n      swap1\n      div\n      dup2\n      add\n      swap3\n      dup3\n      tag_488\n      jumpi\n      0x00\n      dup6\n      sstore\n      jump(tag_487)\n    tag_488:\n      dup3\n      0x1f\n      lt\n      tag_489\n      jumpi\n      dup1\n      mload\n      not(0xff)\n      and\n      dup4\n      dup1\n      add\n      or\n      dup6\n      sstore\n      jump(tag_487)\n    tag_489:\n      dup3\n      dup1\n      add\n      0x01\n      add\n      dup6\n      sstore\n      dup3\n      iszero\n      tag_487\n      jumpi\n      swap2\n      dup3\n      add\n    tag_490:\n      dup3\n      dup2\n      gt\n      iszero\n      tag_491\n      jumpi\n      dup3\n      mload\n      dup3\n      sstore\n      swap2\n      0x20\n      add\n      swap2\n      swap1\n      0x01\n      add\n      swap1\n      jump(tag_490)\n    tag_491:\n    tag_487:\n      pop\n      swap1\n      pop\n      tag_492\n      swap2\n      swap1\n      tag_493\n      jump\t// in\n    tag_492:\n      pop\n      swap1\n      jump\t// out\n    tag_314:\n      pop\n      dup1\n      sload\n      tag_494\n      swap1\n      tag_223\n      jump\t// in\n    tag_494:\n      0x00\n      dup3\n      sstore\n      dup1\n      0x1f\n      lt\n      tag_496\n      jumpi\n      pop\n      jump(tag_495)\n    tag_496:\n      0x1f\n      add\n      0x20\n      swap1\n      div\n      swap1\n      0x00\n      mstore\n      keccak256(0x00, 0x20)\n      swap1\n      dup2\n      add\n      swap1\n      tag_497\n      swap2\n      swap1\n      tag_493\n      jump\t// in\n    tag_497:\n    tag_495:\n      pop\n      jump\t// out\n    tag_316:\n      pop\n      dup1\n      sload\n      0x00\n      dup3\n      sstore\n      0x05\n      mul\n      swap1\n      0x00\n      mstore\n      keccak256(0x00, 0x20)\n      swap1\n      dup2\n      add\n      swap1\n      tag_499\n      swap2\n      swap1\n      tag_500\n      jump\t// in\n    tag_499:\n      pop\n      jump\t// out\n    tag_318:\n      pop\n      dup1\n      sload\n      0x00\n      dup3\n      sstore\n      swap1\n      0x00\n      mstore\n      keccak256(0x00, 0x20)\n      swap1\n      dup2\n      add\n      swap1\n      tag_502\n      swap2\n      swap1\n      tag_493\n      jump\t// in\n    tag_502:\n      pop\n      jump\t// out\n    tag_493:\n    tag_503:\n      dup1\n      dup3\n      gt\n      iszero\n      tag_504\n      jumpi\n      0x00\n      dup2\n      0x00\n      swap1\n      sstore\n      pop\n      0x01\n      add\n      jump(tag_503)\n    tag_504:\n      pop\n      swap1\n      jump\t// out\n    tag_500:\n    tag_505:\n      dup1\n      dup3\n      gt\n      iszero\n      tag_506\n      jumpi\n      0x00\n      dup1\n      dup3\n      add\n      exp(0x0100, 0x00)\n      dup2\n      sload\n      swap1\n      0xffffffffffffffffffffffffffffffffffffffff\n      mul\n      not\n      and\n      swap1\n      sstore\n      0x01\n      dup3\n      add\n      0x00\n      swap1\n      sstore\n      0x02\n      dup3\n      add\n      0x00\n      tag_507\n      swap2\n      swap1\n      tag_508\n      jump\t// in\n    tag_507:\n      0x03\n      dup3\n      add\n      0x00\n      tag_509\n      swap2\n      swap1\n      tag_510\n      jump\t// in\n    tag_509:\n      0x04\n      dup3\n      add\n      0x00\n      tag_511\n      swap2\n      swap1\n      tag_314\n      jump\t// in\n    tag_511:\n      pop\n      0x05\n      add\n      jump(tag_505)\n    tag_506:\n      pop\n      swap1\n      jump\t// out\n    tag_508:\n      pop\n      dup1\n      sload\n      0x00\n      dup3\n      sstore\n      swap1\n      0x00\n      mstore\n      keccak256(0x00, 0x20)\n      swap1\n      dup2\n      add\n      swap1\n      tag_513\n      swap2\n      swap1\n      tag_514\n      jump\t// in\n    tag_513:\n      pop\n      jump\t// out\n    tag_510:\n      pop\n      dup1\n      sload\n      0x00\n      dup3\n      sstore\n      0x03\n      mul\n      swap1\n      0x00\n      mstore\n      keccak256(0x00, 0x20)\n      swap1\n      dup2\n      add\n      swap1\n      tag_516\n      swap2\n      swap1\n      tag_517\n      jump\t// in\n    tag_516:\n      pop\n      jump\t// out\n    tag_514:\n    tag_518:\n      dup1\n      dup3\n      gt\n      iszero\n      tag_519\n      jumpi\n      0x00\n      dup1\n      dup3\n      add\n      exp(0x0100, 0x00)\n      dup2\n      sload\n      swap1\n      0xffffffffffffffffffffffffffffffffffffffff\n      mul\n      not\n      and\n      swap1\n      sstore\n      0x00\n      dup3\n      add\n      exp(0x0100, 0x14)\n      dup2\n      sload\n      swap1\n      0xff\n      mul\n      not\n      and\n      swap1\n      sstore\n      pop\n      0x01\n      add\n      jump(tag_518)\n    tag_519:\n      pop\n      swap1\n      jump\t// out\n    tag_517:\n    tag_520:\n      dup1\n      dup3\n      gt\n      iszero\n      tag_521\n      jumpi\n      0x00\n      dup1\n      dup3\n      add\n      exp(0x0100, 0x00)\n      dup2\n      sload\n      swap1\n      0xffffffffffffffffffffffffffffffffffffffff\n      mul\n      not\n      and\n      swap1\n      sstore\n      0x01\n      dup3\n      add\n      0x00\n      tag_522\n      swap2\n      swap1\n      tag_508\n      jump\t// in\n    tag_522:\n      0x02\n      dup3\n      add\n      0x00\n      tag_523\n      swap2\n      swap1\n      tag_314\n      jump\t// in\n    tag_523:\n      pop\n      0x03\n      add\n      jump(tag_520)\n    tag_521:\n      pop\n      swap1\n      jump\t// out\n        /* \"#utility.yul\":7:419   */\n    tag_525:\n        /* \"#utility.yul\":85:90   */\n      0x00\n        /* \"#utility.yul\":110:176   */\n      tag_527\n        /* \"#utility.yul\":126:175   */\n      tag_528\n        /* \"#utility.yul\":168:174   */\n      dup5\n        /* \"#utility.yul\":126:175   */\n      tag_529\n      jump\t// in\n    tag_528:\n        /* \"#utility.yul\":110:176   */\n      tag_530\n      jump\t// in\n    tag_527:\n        /* \"#utility.yul\":101:176   */\n      swap1\n      pop\n        /* \"#utility.yul\":199:205   */\n      dup3\n        /* \"#utility.yul\":192:197   */\n      dup2\n        /* \"#utility.yul\":185:206   */\n      mstore\n        /* \"#utility.yul\":237:241   */\n      0x20\n        /* \"#utility.yul\":230:235   */\n      dup2\n        /* \"#utility.yul\":226:242   */\n      add\n        /* \"#utility.yul\":275:278   */\n      dup5\n        /* \"#utility.yul\":266:272   */\n      dup5\n        /* \"#utility.yul\":261:264   */\n      dup5\n        /* \"#utility.yul\":257:273   */\n      add\n        /* \"#utility.yul\":254:279   */\n      gt\n        /* \"#utility.yul\":251:363   */\n      iszero\n      tag_531\n      jumpi\n        /* \"#utility.yul\":282:361   */\n      tag_532\n      tag_533\n      jump\t// in\n    tag_532:\n        /* \"#utility.yul\":251:363   */\n    tag_531:\n        /* \"#utility.yul\":372:413   */\n      tag_534\n        /* \"#utility.yul\":406:412   */\n      dup5\n        /* \"#utility.yul\":401:404   */\n      dup3\n        /* \"#utility.yul\":396:399   */\n      dup6\n        /* \"#utility.yul\":372:413   */\n      tag_535\n      jump\t// in\n    tag_534:\n        /* \"#utility.yul\":91:419   */\n      pop\n        /* \"#utility.yul\":7:419   */\n      swap4\n      swap3\n      pop\n      pop\n      pop\n      jump\t// out\n        /* \"#utility.yul\":425:564   */\n    tag_536:\n        /* \"#utility.yul\":471:476   */\n      0x00\n        /* \"#utility.yul\":509:515   */\n      dup2\n        /* \"#utility.yul\":496:516   */\n      calldataload\n        /* \"#utility.yul\":487:516   */\n      swap1\n      pop\n        /* \"#utility.yul\":525:558   */\n      tag_538\n        /* \"#utility.yul\":552:557   */\n      dup2\n        /* \"#utility.yul\":525:558   */\n      tag_539\n      jump\t// in\n    tag_538:\n        /* \"#utility.yul\":425:564   */\n      swap3\n      swap2\n      pop\n      pop\n      jump\t// out\n        /* \"#utility.yul\":570:703   */\n    tag_540:\n        /* \"#utility.yul\":613:618   */\n      0x00\n        /* \"#utility.yul\":651:657   */\n      dup2\n        /* \"#utility.yul\":638:658   */\n      calldataload\n        /* \"#utility.yul\":629:658   */\n      swap1\n      pop\n        /* \"#utility.yul\":667:697   */\n      tag_542\n        /* \"#utility.yul\":691:696   */\n      dup2\n        /* \"#utility.yul\":667:697   */\n      tag_543\n      jump\t// in\n    tag_542:\n        /* \"#utility.yul\":570:703   */\n      swap3\n      swap2\n      pop\n      pop\n      jump\t// out\n        /* \"#utility.yul\":723:1063   */\n    tag_544:\n        /* \"#utility.yul\":779:784   */\n      0x00\n        /* \"#utility.yul\":828:831   */\n      dup3\n        /* \"#utility.yul\":821:825   */\n      0x1f\n        /* \"#utility.yul\":813:819   */\n      dup4\n        /* \"#utility.yul\":809:826   */\n      add\n        /* \"#utility.yul\":805:832   */\n      slt\n        /* \"#utility.yul\":795:917   */\n      tag_546\n      jumpi\n        /* \"#utility.yul\":836:915   */\n      tag_547\n      tag_548\n      jump\t// in\n    tag_547:\n        /* \"#utility.yul\":795:917   */\n    tag_546:\n        /* \"#utility.yul\":953:959   */\n      dup2\n        /* \"#utility.yul\":940:960   */\n      calldataload\n        /* \"#utility.yul\":978:1057   */\n      tag_549\n        /* \"#utility.yul\":1053:1056   */\n      dup5\n        /* \"#utility.yul\":1045:1051   */\n      dup3\n        /* \"#utility.yul\":1038:1042   */\n      0x20\n        /* \"#utility.yul\":1030:1036   */\n      dup7\n        /* \"#utility.yul\":1026:1043   */\n      add\n        /* \"#utility.yul\":978:1057   */\n      tag_525\n      jump\t// in\n    tag_549:\n        /* \"#utility.yul\":969:1057   */\n      swap2\n      pop\n        /* \"#utility.yul\":785:1063   */\n      pop\n        /* \"#utility.yul\":723:1063   */\n      swap3\n      swap2\n      pop\n      pop\n      jump\t// out\n        /* \"#utility.yul\":1069:1208   */\n    tag_550:\n        /* \"#utility.yul\":1115:1120   */\n      0x00\n        /* \"#utility.yul\":1153:1159   */\n      dup2\n        /* \"#utility.yul\":1140:1160   */\n      calldataload\n        /* \"#utility.yul\":1131:1160   */\n      swap1\n      pop\n        /* \"#utility.yul\":1169:1202   */\n      tag_552\n        /* \"#utility.yul\":1196:1201   */\n      dup2\n        /* \"#utility.yul\":1169:1202   */\n      tag_553\n      jump\t// in\n    tag_552:\n        /* \"#utility.yul\":1069:1208   */\n      swap3\n      swap2\n      pop\n      pop\n      jump\t// out\n        /* \"#utility.yul\":1214:1543   */\n    tag_59:\n        /* \"#utility.yul\":1273:1279   */\n      0x00\n        /* \"#utility.yul\":1322:1324   */\n      0x20\n        /* \"#utility.yul\":1310:1319   */\n      dup3\n        /* \"#utility.yul\":1301:1308   */\n      dup5\n        /* \"#utility.yul\":1297:1320   */\n      sub\n        /* \"#utility.yul\":1293:1325   */\n      slt\n        /* \"#utility.yul\":1290:1409   */\n      iszero\n      tag_555\n      jumpi\n        /* \"#utility.yul\":1328:1407   */\n      tag_556\n      tag_557\n      jump\t// in\n    tag_556:\n        /* \"#utility.yul\":1290:1409   */\n    tag_555:\n        /* \"#utility.yul\":1448:1449   */\n      0x00\n        /* \"#utility.yul\":1473:1526   */\n      tag_558\n        /* \"#utility.yul\":1518:1525   */\n      dup5\n        /* \"#utility.yul\":1509:1515   */\n      dup3\n        /* \"#utility.yul\":1498:1507   */\n      dup6\n        /* \"#utility.yul\":1494:1516   */\n      add\n        /* \"#utility.yul\":1473:1526   */\n      tag_536\n      jump\t// in\n    tag_558:\n        /* \"#utility.yul\":1463:1526   */\n      swap2\n      pop\n        /* \"#utility.yul\":1419:1536   */\n      pop\n        /* \"#utility.yul\":1214:1543   */\n      swap3\n      swap2\n      pop\n      pop\n      jump\t// out\n        /* \"#utility.yul\":1549:2203   */\n    tag_30:\n        /* \"#utility.yul\":1627:1633   */\n      0x00\n        /* \"#utility.yul\":1635:1641   */\n      dup1\n        /* \"#utility.yul\":1684:1686   */\n      0x40\n        /* \"#utility.yul\":1672:1681   */\n      dup4\n        /* \"#utility.yul\":1663:1670   */\n      dup6\n        /* \"#utility.yul\":1659:1682   */\n      sub\n        /* \"#utility.yul\":1655:1687   */\n      slt\n        /* \"#utility.yul\":1652:1771   */\n      iszero\n      tag_560\n      jumpi\n        /* \"#utility.yul\":1690:1769   */\n      tag_561\n      tag_557\n      jump\t// in\n    tag_561:\n        /* \"#utility.yul\":1652:1771   */\n    tag_560:\n        /* \"#utility.yul\":1810:1811   */\n      0x00\n        /* \"#utility.yul\":1835:1888   */\n      tag_562\n        /* \"#utility.yul\":1880:1887   */\n      dup6\n        /* \"#utility.yul\":1871:1877   */\n      dup3\n        /* \"#utility.yul\":1860:1869   */\n      dup7\n        /* \"#utility.yul\":1856:1878   */\n      add\n        /* \"#utility.yul\":1835:1888   */\n      tag_536\n      jump\t// in\n    tag_562:\n        /* \"#utility.yul\":1825:1888   */\n      swap3\n      pop\n        /* \"#utility.yul\":1781:1898   */\n      pop\n        /* \"#utility.yul\":1965:1967   */\n      0x20\n        /* \"#utility.yul\":1954:1963   */\n      dup4\n        /* \"#utility.yul\":1950:1968   */\n      add\n        /* \"#utility.yul\":1937:1969   */\n      calldataload\n        /* \"#utility.yul\":1996:2014   */\n      0xffffffffffffffff\n        /* \"#utility.yul\":1988:1994   */\n      dup2\n        /* \"#utility.yul\":1985:2015   */\n      gt\n        /* \"#utility.yul\":1982:2099   */\n      iszero\n      tag_563\n      jumpi\n        /* \"#utility.yul\":2018:2097   */\n      tag_564\n      tag_565\n      jump\t// in\n    tag_564:\n        /* \"#utility.yul\":1982:2099   */\n    tag_563:\n        /* \"#utility.yul\":2123:2186   */\n      tag_566\n        /* \"#utility.yul\":2178:2185   */\n      dup6\n        /* \"#utility.yul\":2169:2175   */\n      dup3\n        /* \"#utility.yul\":2158:2167   */\n      dup7\n        /* \"#utility.yul\":2154:2176   */\n      add\n        /* \"#utility.yul\":2123:2186   */\n      tag_544\n      jump\t// in\n    tag_566:\n        /* \"#utility.yul\":2113:2186   */\n      swap2\n      pop\n        /* \"#utility.yul\":1908:2196   */\n      pop\n        /* \"#utility.yul\":1549:2203   */\n      swap3\n      pop\n      swap3\n      swap1\n      pop\n      jump\t// out\n        /* \"#utility.yul\":2209:2538   */\n    tag_26:\n        /* \"#utility.yul\":2268:2274   */\n      0x00\n        /* \"#utility.yul\":2317:2319   */\n      0x20\n        /* \"#utility.yul\":2305:2314   */\n      dup3\n        /* \"#utility.yul\":2296:2303   */\n      dup5\n        /* \"#utility.yul\":2292:2315   */\n      sub\n        /* \"#utility.yul\":2288:2320   */\n      slt\n        /* \"#utility.yul\":2285:2404   */\n      iszero\n      tag_568\n      jumpi\n        /* \"#utility.yul\":2323:2402   */\n      tag_569\n      tag_557\n      jump\t// in\n    tag_569:\n        /* \"#utility.yul\":2285:2404   */\n    tag_568:\n        /* \"#utility.yul\":2443:2444   */\n      0x00\n        /* \"#utility.yul\":2468:2521   */\n      tag_570\n        /* \"#utility.yul\":2513:2520   */\n      dup5\n        /* \"#utility.yul\":2504:2510   */\n      dup3\n        /* \"#utility.yul\":2493:2502   */\n      dup6\n        /* \"#utility.yul\":2489:2511   */\n      add\n        /* \"#utility.yul\":2468:2521   */\n      tag_550\n      jump\t// in\n    tag_570:\n        /* \"#utility.yul\":2458:2521   */\n      swap2\n      pop\n        /* \"#utility.yul\":2414:2531   */\n      pop\n        /* \"#utility.yul\":2209:2538   */\n      swap3\n      swap2\n      pop\n      pop\n      jump\t// out\n        /* \"#utility.yul\":2544:3157   */\n    tag_49:\n        /* \"#utility.yul\":2618:2624   */\n      0x00\n        /* \"#utility.yul\":2626:2632   */\n      dup1\n        /* \"#utility.yul\":2634:2640   */\n      0x00\n        /* \"#utility.yul\":2683:2685   */\n      0x60\n        /* \"#utility.yul\":2671:2680   */\n      dup5\n        /* \"#utility.yul\":2662:2669   */\n      dup7\n        /* \"#utility.yul\":2658:2681   */\n      sub\n        /* \"#utility.yul\":2654:2686   */\n      slt\n        /* \"#utility.yul\":2651:2770   */\n      iszero\n      tag_572\n      jumpi\n        /* \"#utility.yul\":2689:2768   */\n      tag_573\n      tag_557\n      jump\t// in\n    tag_573:\n        /* \"#utility.yul\":2651:2770   */\n    tag_572:\n        /* \"#utility.yul\":2809:2810   */\n      0x00\n        /* \"#utility.yul\":2834:2887   */\n      tag_574\n        /* \"#utility.yul\":2879:2886   */\n      dup7\n        /* \"#utility.yul\":2870:2876   */\n      dup3\n        /* \"#utility.yul\":2859:2868   */\n      dup8\n        /* \"#utility.yul\":2855:2877   */\n      add\n        /* \"#utility.yul\":2834:2887   */\n      tag_550\n      jump\t// in\n    tag_574:\n        /* \"#utility.yul\":2824:2887   */\n      swap4\n      pop\n        /* \"#utility.yul\":2780:2897   */\n      pop\n        /* \"#utility.yul\":2936:2938   */\n      0x20\n        /* \"#utility.yul\":2962:3015   */\n      tag_575\n        /* \"#utility.yul\":3007:3014   */\n      dup7\n        /* \"#utility.yul\":2998:3004   */\n      dup3\n        /* \"#utility.yul\":2987:2996   */\n      dup8\n        /* \"#utility.yul\":2983:3005   */\n      add\n        /* \"#utility.yul\":2962:3015   */\n      tag_550\n      jump\t// in\n    tag_575:\n        /* \"#utility.yul\":2952:3015   */\n      swap3\n      pop\n        /* \"#utility.yul\":2907:3025   */\n      pop\n        /* \"#utility.yul\":3064:3066   */\n      0x40\n        /* \"#utility.yul\":3090:3140   */\n      tag_576\n        /* \"#utility.yul\":3132:3139   */\n      dup7\n        /* \"#utility.yul\":3123:3129   */\n      dup3\n        /* \"#utility.yul\":3112:3121   */\n      dup8\n        /* \"#utility.yul\":3108:3130   */\n      add\n        /* \"#utility.yul\":3090:3140   */\n      tag_540\n      jump\t// in\n    tag_576:\n        /* \"#utility.yul\":3080:3140   */\n      swap2\n      pop\n        /* \"#utility.yul\":3035:3150   */\n      pop\n        /* \"#utility.yul\":2544:3157   */\n      swap3\n      pop\n      swap3\n      pop\n      swap3\n      jump\t// out\n        /* \"#utility.yul\":3163:3962   */\n    tag_22:\n        /* \"#utility.yul\":3250:3256   */\n      0x00\n        /* \"#utility.yul\":3258:3264   */\n      dup1\n        /* \"#utility.yul\":3266:3272   */\n      0x00\n        /* \"#utility.yul\":3315:3317   */\n      0x60\n        /* \"#utility.yul\":3303:3312   */\n      dup5\n        /* \"#utility.yul\":3294:3301   */\n      dup7\n        /* \"#utility.yul\":3290:3313   */\n      sub\n        /* \"#utility.yul\":3286:3318   */\n      slt\n        /* \"#utility.yul\":3283:3402   */\n      iszero\n      tag_578\n      jumpi\n        /* \"#utility.yul\":3321:3400   */\n      tag_579\n      tag_557\n      jump\t// in\n    tag_579:\n        /* \"#utility.yul\":3283:3402   */\n    tag_578:\n        /* \"#utility.yul\":3441:3442   */\n      0x00\n        /* \"#utility.yul\":3466:3519   */\n      tag_580\n        /* \"#utility.yul\":3511:3518   */\n      dup7\n        /* \"#utility.yul\":3502:3508   */\n      dup3\n        /* \"#utility.yul\":3491:3500   */\n      dup8\n        /* \"#utility.yul\":3487:3509   */\n      add\n        /* \"#utility.yul\":3466:3519   */\n      tag_550\n      jump\t// in\n    tag_580:\n        /* \"#utility.yul\":3456:3519   */\n      swap4\n      pop\n        /* \"#utility.yul\":3412:3529   */\n      pop\n        /* \"#utility.yul\":3568:3570   */\n      0x20\n        /* \"#utility.yul\":3594:3647   */\n      tag_581\n        /* \"#utility.yul\":3639:3646   */\n      dup7\n        /* \"#utility.yul\":3630:3636   */\n      dup3\n        /* \"#utility.yul\":3619:3628   */\n      dup8\n        /* \"#utility.yul\":3615:3637   */\n      add\n        /* \"#utility.yul\":3594:3647   */\n      tag_550\n      jump\t// in\n    tag_581:\n        /* \"#utility.yul\":3584:3647   */\n      swap3\n      pop\n        /* \"#utility.yul\":3539:3657   */\n      pop\n        /* \"#utility.yul\":3724:3726   */\n      0x40\n        /* \"#utility.yul\":3713:3722   */\n      dup5\n        /* \"#utility.yul\":3709:3727   */\n      add\n        /* \"#utility.yul\":3696:3728   */\n      calldataload\n        /* \"#utility.yul\":3755:3773   */\n      0xffffffffffffffff\n        /* \"#utility.yul\":3747:3753   */\n      dup2\n        /* \"#utility.yul\":3744:3774   */\n      gt\n        /* \"#utility.yul\":3741:3858   */\n      iszero\n      tag_582\n      jumpi\n        /* \"#utility.yul\":3777:3856   */\n      tag_583\n      tag_565\n      jump\t// in\n    tag_583:\n        /* \"#utility.yul\":3741:3858   */\n    tag_582:\n        /* \"#utility.yul\":3882:3945   */\n      tag_584\n        /* \"#utility.yul\":3937:3944   */\n      dup7\n        /* \"#utility.yul\":3928:3934   */\n      dup3\n        /* \"#utility.yul\":3917:3926   */\n      dup8\n        /* \"#utility.yul\":3913:3935   */\n      add\n        /* \"#utility.yul\":3882:3945   */\n      tag_544\n      jump\t// in\n    tag_584:\n        /* \"#utility.yul\":3872:3945   */\n      swap2\n      pop\n        /* \"#utility.yul\":3667:3955   */\n      pop\n        /* \"#utility.yul\":3163:3962   */\n      swap3\n      pop\n      swap3\n      pop\n      swap3\n      jump\t// out\n        /* \"#utility.yul\":3968:4727   */\n    tag_55:\n        /* \"#utility.yul\":4051:4057   */\n      0x00\n        /* \"#utility.yul\":4059:4065   */\n      dup1\n        /* \"#utility.yul\":4067:4073   */\n      0x00\n        /* \"#utility.yul\":4075:4081   */\n      dup1\n        /* \"#utility.yul\":4124:4127   */\n      0x80\n        /* \"#utility.yul\":4112:4121   */\n      dup6\n        /* \"#utility.yul\":4103:4110   */\n      dup8\n        /* \"#utility.yul\":4099:4122   */\n      sub\n        /* \"#utility.yul\":4095:4128   */\n      slt\n        /* \"#utility.yul\":4092:4212   */\n      iszero\n      tag_586\n      jumpi\n        /* \"#utility.yul\":4131:4210   */\n      tag_587\n      tag_557\n      jump\t// in\n    tag_587:\n        /* \"#utility.yul\":4092:4212   */\n    tag_586:\n        /* \"#utility.yul\":4251:4252   */\n      0x00\n        /* \"#utility.yul\":4276:4329   */\n      tag_588\n        /* \"#utility.yul\":4321:4328   */\n      dup8\n        /* \"#utility.yul\":4312:4318   */\n      dup3\n        /* \"#utility.yul\":4301:4310   */\n      dup9\n        /* \"#utility.yul\":4297:4319   */\n      add\n        /* \"#utility.yul\":4276:4329   */\n      tag_550\n      jump\t// in\n    tag_588:\n        /* \"#utility.yul\":4266:4329   */\n      swap5\n      pop\n        /* \"#utility.yul\":4222:4339   */\n      pop\n        /* \"#utility.yul\":4378:4380   */\n      0x20\n        /* \"#utility.yul\":4404:4457   */\n      tag_589\n        /* \"#utility.yul\":4449:4456   */\n      dup8\n        /* \"#utility.yul\":4440:4446   */\n      dup3\n        /* \"#utility.yul\":4429:4438   */\n      dup9\n        /* \"#utility.yul\":4425:4447   */\n      add\n        /* \"#utility.yul\":4404:4457   */\n      tag_550\n      jump\t// in\n    tag_589:\n        /* \"#utility.yul\":4394:4457   */\n      swap4\n      pop\n        /* \"#utility.yul\":4349:4467   */\n      pop\n        /* \"#utility.yul\":4506:4508   */\n      0x40\n        /* \"#utility.yul\":4532:4585   */\n      tag_590\n        /* \"#utility.yul\":4577:4584   */\n      dup8\n        /* \"#utility.yul\":4568:4574   */\n      dup3\n        /* \"#utility.yul\":4557:4566   */\n      dup9\n        /* \"#utility.yul\":4553:4575   */\n      add\n        /* \"#utility.yul\":4532:4585   */\n      tag_550\n      jump\t// in\n    tag_590:\n        /* \"#utility.yul\":4522:4585   */\n      swap3\n      pop\n        /* \"#utility.yul\":4477:4595   */\n      pop\n        /* \"#utility.yul\":4634:4636   */\n      0x60\n        /* \"#utility.yul\":4660:4710   */\n      tag_591\n        /* \"#utility.yul\":4702:4709   */\n      dup8\n        /* \"#utility.yul\":4693:4699   */\n      dup3\n        /* \"#utility.yul\":4682:4691   */\n      dup9\n        /* \"#utility.yul\":4678:4700   */\n      add\n        /* \"#utility.yul\":4660:4710   */\n      tag_540\n      jump\t// in\n    tag_591:\n        /* \"#utility.yul\":4650:4710   */\n      swap2\n      pop\n        /* \"#utility.yul\":4605:4720   */\n      pop\n        /* \"#utility.yul\":3968:4727   */\n      swap3\n      swap6\n      swap2\n      swap5\n      pop\n      swap3\n      pop\n      jump\t// out\n        /* \"#utility.yul\":4733:4981   */\n    tag_592:\n        /* \"#utility.yul\":4848:4858   */\n      0x00\n        /* \"#utility.yul\":4883:4975   */\n      tag_594\n        /* \"#utility.yul\":4971:4974   */\n      dup4\n        /* \"#utility.yul\":4963:4969   */\n      dup4\n        /* \"#utility.yul\":4883:4975   */\n      tag_595\n      jump\t// in\n    tag_594:\n        /* \"#utility.yul\":4869:4975   */\n      swap1\n      pop\n        /* \"#utility.yul\":4733:4981   */\n      swap3\n      swap2\n      pop\n      pop\n      jump\t// out\n        /* \"#utility.yul\":4987:5246   */\n    tag_596:\n        /* \"#utility.yul\":5096:5106   */\n      0x00\n        /* \"#utility.yul\":5117:5203   */\n      tag_598\n        /* \"#utility.yul\":5199:5202   */\n      dup4\n        /* \"#utility.yul\":5191:5197   */\n      dup4\n        /* \"#utility.yul\":5117:5203   */\n      tag_599\n      jump\t// in\n    tag_598:\n        /* \"#utility.yul\":5235:5239   */\n      0x40\n        /* \"#utility.yul\":5230:5233   */\n      dup4\n        /* \"#utility.yul\":5226:5240   */\n      add\n        /* \"#utility.yul\":5212:5240   */\n      swap1\n      pop\n        /* \"#utility.yul\":4987:5246   */\n      swap3\n      swap2\n      pop\n      pop\n      jump\t// out\n        /* \"#utility.yul\":5252:5488   */\n    tag_600:\n        /* \"#utility.yul\":5361:5371   */\n      0x00\n        /* \"#utility.yul\":5396:5482   */\n      tag_602\n        /* \"#utility.yul\":5478:5481   */\n      dup4\n        /* \"#utility.yul\":5470:5476   */\n      dup4\n        /* \"#utility.yul\":5396:5482   */\n      tag_603\n      jump\t// in\n    tag_602:\n        /* \"#utility.yul\":5382:5482   */\n      swap1\n      pop\n        /* \"#utility.yul\":5252:5488   */\n      swap3\n      swap2\n      pop\n      pop\n      jump\t// out\n        /* \"#utility.yul\":5494:5765   */\n    tag_604:\n        /* \"#utility.yul\":5609:5619   */\n      0x00\n        /* \"#utility.yul\":5630:5722   */\n      tag_606\n        /* \"#utility.yul\":5718:5721   */\n      dup4\n        /* \"#utility.yul\":5710:5716   */\n      dup4\n        /* \"#utility.yul\":5630:5722   */\n      tag_607\n      jump\t// in\n    tag_606:\n        /* \"#utility.yul\":5754:5758   */\n      0x40\n        /* \"#utility.yul\":5749:5752   */\n      dup4\n        /* \"#utility.yul\":5745:5759   */\n      add\n        /* \"#utility.yul\":5731:5759   */\n      swap1\n      pop\n        /* \"#utility.yul\":5494:5765   */\n      swap3\n      swap2\n      pop\n      pop\n      jump\t// out\n        /* \"#utility.yul\":5771:6007   */\n    tag_608:\n        /* \"#utility.yul\":5880:5890   */\n      0x00\n        /* \"#utility.yul\":5915:6001   */\n      tag_610\n        /* \"#utility.yul\":5997:6000   */\n      dup4\n        /* \"#utility.yul\":5989:5995   */\n      dup4\n        /* \"#utility.yul\":5915:6001   */\n      tag_611\n      jump\t// in\n    tag_610:\n        /* \"#utility.yul\":5901:6001   */\n      swap1\n      pop\n        /* \"#utility.yul\":5771:6007   */\n      swap3\n      swap2\n      pop\n      pop\n      jump\t// out\n        /* \"#utility.yul\":6013:6268   */\n    tag_612:\n        /* \"#utility.yul\":6120:6130   */\n      0x00\n        /* \"#utility.yul\":6141:6225   */\n      tag_614\n        /* \"#utility.yul\":6221:6224   */\n      dup4\n        /* \"#utility.yul\":6213:6219   */\n      dup4\n        /* \"#utility.yul\":6141:6225   */\n      tag_615\n      jump\t// in\n    tag_614:\n        /* \"#utility.yul\":6257:6261   */\n      0x60\n        /* \"#utility.yul\":6252:6255   */\n      dup4\n        /* \"#utility.yul\":6248:6262   */\n      add\n        /* \"#utility.yul\":6234:6262   */\n      swap1\n      pop\n        /* \"#utility.yul\":6013:6268   */\n      swap3\n      swap2\n      pop\n      pop\n      jump\t// out\n        /* \"#utility.yul\":6274:6453   */\n    tag_616:\n        /* \"#utility.yul\":6343:6353   */\n      0x00\n        /* \"#utility.yul\":6364:6410   */\n      tag_618\n        /* \"#utility.yul\":6406:6409   */\n      dup4\n        /* \"#utility.yul\":6398:6404   */\n      dup4\n        /* \"#utility.yul\":6364:6410   */\n      tag_619\n      jump\t// in\n    tag_618:\n        /* \"#utility.yul\":6442:6446   */\n      0x20\n        /* \"#utility.yul\":6437:6440   */\n      dup4\n        /* \"#utility.yul\":6433:6447   */\n      add\n        /* \"#utility.yul\":6419:6447   */\n      swap1\n      pop\n        /* \"#utility.yul\":6274:6453   */\n      swap3\n      swap2\n      pop\n      pop\n      jump\t// out\n        /* \"#utility.yul\":6459:6567   */\n    tag_620:\n        /* \"#utility.yul\":6536:6560   */\n      tag_622\n        /* \"#utility.yul\":6554:6559   */\n      dup2\n        /* \"#utility.yul\":6536:6560   */\n      tag_623\n      jump\t// in\n    tag_622:\n        /* \"#utility.yul\":6531:6534   */\n      dup3\n        /* \"#utility.yul\":6524:6561   */\n      mstore\n        /* \"#utility.yul\":6459:6567   */\n      pop\n      pop\n      jump\t// out\n        /* \"#utility.yul\":6627:7702   */\n    tag_624:\n        /* \"#utility.yul\":6782:6785   */\n      0x00\n        /* \"#utility.yul\":6811:6888   */\n      tag_626\n        /* \"#utility.yul\":6882:6887   */\n      dup3\n        /* \"#utility.yul\":6811:6888   */\n      tag_627\n      jump\t// in\n    tag_626:\n        /* \"#utility.yul\":6904:7003   */\n      tag_628\n        /* \"#utility.yul\":6996:7002   */\n      dup2\n        /* \"#utility.yul\":6991:6994   */\n      dup6\n        /* \"#utility.yul\":6904:7003   */\n      tag_629\n      jump\t// in\n    tag_628:\n        /* \"#utility.yul\":6897:7003   */\n      swap4\n      pop\n        /* \"#utility.yul\":7029:7032   */\n      dup4\n        /* \"#utility.yul\":7074:7078   */\n      0x20\n        /* \"#utility.yul\":7066:7072   */\n      dup3\n        /* \"#utility.yul\":7062:7079   */\n      mul\n        /* \"#utility.yul\":7057:7060   */\n      dup6\n        /* \"#utility.yul\":7053:7080   */\n      add\n        /* \"#utility.yul\":7104:7183   */\n      tag_630\n        /* \"#utility.yul\":7177:7182   */\n      dup6\n        /* \"#utility.yul\":7104:7183   */\n      tag_631\n      jump\t// in\n    tag_630:\n        /* \"#utility.yul\":7206:7213   */\n      dup1\n        /* \"#utility.yul\":7237:7238   */\n      0x00\n        /* \"#utility.yul\":7222:7657   */\n    tag_632:\n        /* \"#utility.yul\":7247:7253   */\n      dup6\n        /* \"#utility.yul\":7244:7245   */\n      dup2\n        /* \"#utility.yul\":7241:7254   */\n      lt\n        /* \"#utility.yul\":7222:7657   */\n      iszero\n      tag_634\n      jumpi\n        /* \"#utility.yul\":7318:7327   */\n      dup5\n        /* \"#utility.yul\":7312:7316   */\n      dup5\n        /* \"#utility.yul\":7308:7328   */\n      sub\n        /* \"#utility.yul\":7303:7306   */\n      dup10\n        /* \"#utility.yul\":7296:7329   */\n      mstore\n        /* \"#utility.yul\":7369:7375   */\n      dup2\n        /* \"#utility.yul\":7363:7376   */\n      mload\n        /* \"#utility.yul\":7397:7507   */\n      tag_635\n        /* \"#utility.yul\":7502:7506   */\n      dup6\n        /* \"#utility.yul\":7487:7500   */\n      dup3\n        /* \"#utility.yul\":7397:7507   */\n      tag_592\n      jump\t// in\n    tag_635:\n        /* \"#utility.yul\":7389:7507   */\n      swap5\n      pop\n        /* \"#utility.yul\":7530:7613   */\n      tag_636\n        /* \"#utility.yul\":7606:7612   */\n      dup4\n        /* \"#utility.yul\":7530:7613   */\n      tag_637\n      jump\t// in\n    tag_636:\n        /* \"#utility.yul\":7520:7613   */\n      swap3\n      pop\n        /* \"#utility.yul\":7642:7646   */\n      0x20\n        /* \"#utility.yul\":7637:7640   */\n      dup11\n        /* \"#utility.yul\":7633:7647   */\n      add\n        /* \"#utility.yul\":7626:7647   */\n      swap10\n      pop\n        /* \"#utility.yul\":7282:7657   */\n      pop\n        /* \"#utility.yul\":7269:7270   */\n      0x01\n        /* \"#utility.yul\":7266:7267   */\n      dup2\n        /* \"#utility.yul\":7262:7271   */\n      add\n        /* \"#utility.yul\":7257:7271   */\n      swap1\n      pop\n        /* \"#utility.yul\":7222:7657   */\n      jump(tag_632)\n    tag_634:\n        /* \"#utility.yul\":7226:7240   */\n      pop\n        /* \"#utility.yul\":7673:7677   */\n      dup3\n        /* \"#utility.yul\":7666:7677   */\n      swap8\n      pop\n        /* \"#utility.yul\":7693:7696   */\n      dup8\n        /* \"#utility.yul\":7686:7696   */\n      swap6\n      pop\n        /* \"#utility.yul\":6787:7702   */\n      pop\n      pop\n      pop\n      pop\n      pop\n        /* \"#utility.yul\":6627:7702   */\n      swap3\n      swap2\n      pop\n      pop\n      jump\t// out\n        /* \"#utility.yul\":7756:8628   */\n    tag_638:\n        /* \"#utility.yul\":7905:7908   */\n      0x00\n        /* \"#utility.yul\":7934:8008   */\n      tag_640\n        /* \"#utility.yul\":8002:8007   */\n      dup3\n        /* \"#utility.yul\":7934:8008   */\n      tag_641\n      jump\t// in\n    tag_640:\n        /* \"#utility.yul\":8024:8120   */\n      tag_642\n        /* \"#utility.yul\":8113:8119   */\n      dup2\n        /* \"#utility.yul\":8108:8111   */\n      dup6\n        /* \"#utility.yul\":8024:8120   */\n      tag_643\n      jump\t// in\n    tag_642:\n        /* \"#utility.yul\":8017:8120   */\n      swap4\n      pop\n        /* \"#utility.yul\":8144:8220   */\n      tag_644\n        /* \"#utility.yul\":8214:8219   */\n      dup4\n        /* \"#utility.yul\":8144:8220   */\n      tag_645\n      jump\t// in\n    tag_644:\n        /* \"#utility.yul\":8243:8250   */\n      dup1\n        /* \"#utility.yul\":8274:8275   */\n      0x00\n        /* \"#utility.yul\":8259:8603   */\n    tag_646:\n        /* \"#utility.yul\":8284:8290   */\n      dup4\n        /* \"#utility.yul\":8281:8282   */\n      dup2\n        /* \"#utility.yul\":8278:8291   */\n      lt\n        /* \"#utility.yul\":8259:8603   */\n      iszero\n      tag_648\n      jumpi\n        /* \"#utility.yul\":8360:8366   */\n      dup2\n        /* \"#utility.yul\":8354:8367   */\n      mload\n        /* \"#utility.yul\":8387:8490   */\n      tag_649\n        /* \"#utility.yul\":8486:8489   */\n      dup9\n        /* \"#utility.yul\":8471:8484   */\n      dup3\n        /* \"#utility.yul\":8387:8490   */\n      tag_596\n      jump\t// in\n    tag_649:\n        /* \"#utility.yul\":8380:8490   */\n      swap8\n      pop\n        /* \"#utility.yul\":8513:8593   */\n      tag_650\n        /* \"#utility.yul\":8586:8592   */\n      dup4\n        /* \"#utility.yul\":8513:8593   */\n      tag_651\n      jump\t// in\n    tag_650:\n        /* \"#utility.yul\":8503:8593   */\n      swap3\n      pop\n        /* \"#utility.yul\":8319:8603   */\n      pop\n        /* \"#utility.yul\":8306:8307   */\n      0x01\n        /* \"#utility.yul\":8303:8304   */\n      dup2\n        /* \"#utility.yul\":8299:8308   */\n      add\n        /* \"#utility.yul\":8294:8308   */\n      swap1\n      pop\n        /* \"#utility.yul\":8259:8603   */\n      jump(tag_646)\n    tag_648:\n        /* \"#utility.yul\":8263:8277   */\n      pop\n        /* \"#utility.yul\":8619:8622   */\n      dup6\n        /* \"#utility.yul\":8612:8622   */\n      swap4\n      pop\n        /* \"#utility.yul\":7910:8628   */\n      pop\n      pop\n      pop\n        /* \"#utility.yul\":7756:8628   */\n      swap3\n      swap2\n      pop\n      pop\n      jump\t// out\n        /* \"#utility.yul\":8682:9733   */\n    tag_652:\n        /* \"#utility.yul\":8831:8834   */\n      0x00\n        /* \"#utility.yul\":8860:8934   */\n      tag_654\n        /* \"#utility.yul\":8928:8933   */\n      dup3\n        /* \"#utility.yul\":8860:8934   */\n      tag_655\n      jump\t// in\n    tag_654:\n        /* \"#utility.yul\":8950:9046   */\n      tag_656\n        /* \"#utility.yul\":9039:9045   */\n      dup2\n        /* \"#utility.yul\":9034:9037   */\n      dup6\n        /* \"#utility.yul\":8950:9046   */\n      tag_657\n      jump\t// in\n    tag_656:\n        /* \"#utility.yul\":8943:9046   */\n      swap4\n      pop\n        /* \"#utility.yul\":9072:9075   */\n      dup4\n        /* \"#utility.yul\":9117:9121   */\n      0x20\n        /* \"#utility.yul\":9109:9115   */\n      dup3\n        /* \"#utility.yul\":9105:9122   */\n      mul\n        /* \"#utility.yul\":9100:9103   */\n      dup6\n        /* \"#utility.yul\":9096:9123   */\n      add\n        /* \"#utility.yul\":9147:9223   */\n      tag_658\n        /* \"#utility.yul\":9217:9222   */\n      dup6\n        /* \"#utility.yul\":9147:9223   */\n      tag_659\n      jump\t// in\n    tag_658:\n        /* \"#utility.yul\":9246:9253   */\n      dup1\n        /* \"#utility.yul\":9277:9278   */\n      0x00\n        /* \"#utility.yul\":9262:9688   */\n    tag_660:\n        /* \"#utility.yul\":9287:9293   */\n      dup6\n        /* \"#utility.yul\":9284:9285   */\n      dup2\n        /* \"#utility.yul\":9281:9294   */\n      lt\n        /* \"#utility.yul\":9262:9688   */\n      iszero\n      tag_662\n      jumpi\n        /* \"#utility.yul\":9358:9367   */\n      dup5\n        /* \"#utility.yul\":9352:9356   */\n      dup5\n        /* \"#utility.yul\":9348:9368   */\n      sub\n        /* \"#utility.yul\":9343:9346   */\n      dup10\n        /* \"#utility.yul\":9336:9369   */\n      mstore\n        /* \"#utility.yul\":9409:9415   */\n      dup2\n        /* \"#utility.yul\":9403:9416   */\n      mload\n        /* \"#utility.yul\":9437:9541   */\n      tag_663\n        /* \"#utility.yul\":9536:9540   */\n      dup6\n        /* \"#utility.yul\":9521:9534   */\n      dup3\n        /* \"#utility.yul\":9437:9541   */\n      tag_600\n      jump\t// in\n    tag_663:\n        /* \"#utility.yul\":9429:9541   */\n      swap5\n      pop\n        /* \"#utility.yul\":9564:9644   */\n      tag_664\n        /* \"#utility.yul\":9637:9643   */\n      dup4\n        /* \"#utility.yul\":9564:9644   */\n      tag_665\n      jump\t// in\n    tag_664:\n        /* \"#utility.yul\":9554:9644   */\n      swap3\n      pop\n        /* \"#utility.yul\":9673:9677   */\n      0x20\n        /* \"#utility.yul\":9668:9671   */\n      dup11\n        /* \"#utility.yul\":9664:9678   */\n      add\n        /* \"#utility.yul\":9657:9678   */\n      swap10\n      pop\n        /* \"#utility.yul\":9322:9688   */\n      pop\n        /* \"#utility.yul\":9309:9310   */\n      0x01\n        /* \"#utility.yul\":9306:9307   */\n      dup2\n        /* \"#utility.yul\":9302:9311   */\n      add\n        /* \"#utility.yul\":9297:9311   */\n      swap1\n      pop\n        /* \"#utility.yul\":9262:9688   */\n      jump(tag_660)\n    tag_662:\n        /* \"#utility.yul\":9266:9280   */\n      pop\n        /* \"#utility.yul\":9704:9708   */\n      dup3\n        /* \"#utility.yul\":9697:9708   */\n      swap8\n      pop\n        /* \"#utility.yul\":9724:9727   */\n      dup8\n        /* \"#utility.yul\":9717:9727   */\n      swap6\n      pop\n        /* \"#utility.yul\":8836:9733   */\n      pop\n      pop\n      pop\n      pop\n      pop\n        /* \"#utility.yul\":8682:9733   */\n      swap3\n      swap2\n      pop\n      pop\n      jump\t// out\n        /* \"#utility.yul\":9793:10709   */\n    tag_666:\n        /* \"#utility.yul\":9958:9961   */\n      0x00\n        /* \"#utility.yul\":9987:10064   */\n      tag_668\n        /* \"#utility.yul\":10058:10063   */\n      dup3\n        /* \"#utility.yul\":9987:10064   */\n      tag_669\n      jump\t// in\n    tag_668:\n        /* \"#utility.yul\":10080:10189   */\n      tag_670\n        /* \"#utility.yul\":10182:10188   */\n      dup2\n        /* \"#utility.yul\":10177:10180   */\n      dup6\n        /* \"#utility.yul\":10080:10189   */\n      tag_671\n      jump\t// in\n    tag_670:\n        /* \"#utility.yul\":10073:10189   */\n      swap4\n      pop\n        /* \"#utility.yul\":10213:10292   */\n      tag_672\n        /* \"#utility.yul\":10286:10291   */\n      dup4\n        /* \"#utility.yul\":10213:10292   */\n      tag_673\n      jump\t// in\n    tag_672:\n        /* \"#utility.yul\":10315:10322   */\n      dup1\n        /* \"#utility.yul\":10346:10347   */\n      0x00\n        /* \"#utility.yul\":10331:10684   */\n    tag_674:\n        /* \"#utility.yul\":10356:10362   */\n      dup4\n        /* \"#utility.yul\":10353:10354   */\n      dup2\n        /* \"#utility.yul\":10350:10363   */\n      lt\n        /* \"#utility.yul\":10331:10684   */\n      iszero\n      tag_676\n      jumpi\n        /* \"#utility.yul\":10432:10438   */\n      dup2\n        /* \"#utility.yul\":10426:10439   */\n      mload\n        /* \"#utility.yul\":10459:10568   */\n      tag_677\n        /* \"#utility.yul\":10564:10567   */\n      dup9\n        /* \"#utility.yul\":10549:10562   */\n      dup3\n        /* \"#utility.yul\":10459:10568   */\n      tag_604\n      jump\t// in\n    tag_677:\n        /* \"#utility.yul\":10452:10568   */\n      swap8\n      pop\n        /* \"#utility.yul\":10591:10674   */\n      tag_678\n        /* \"#utility.yul\":10667:10673   */\n      dup4\n        /* \"#utility.yul\":10591:10674   */\n      tag_679\n      jump\t// in\n    tag_678:\n        /* \"#utility.yul\":10581:10674   */\n      swap3\n      pop\n        /* \"#utility.yul\":10391:10684   */\n      pop\n        /* \"#utility.yul\":10378:10379   */\n      0x01\n        /* \"#utility.yul\":10375:10376   */\n      dup2\n        /* \"#utility.yul\":10371:10380   */\n      add\n        /* \"#utility.yul\":10366:10380   */\n      swap1\n      pop\n        /* \"#utility.yul\":10331:10684   */\n      jump(tag_674)\n    tag_676:\n        /* \"#utility.yul\":10335:10349   */\n      pop\n        /* \"#utility.yul\":10700:10703   */\n      dup6\n        /* \"#utility.yul\":10693:10703   */\n      swap4\n      pop\n        /* \"#utility.yul\":9963:10709   */\n      pop\n      pop\n      pop\n        /* \"#utility.yul\":9793:10709   */\n      swap3\n      swap2\n      pop\n      pop\n      jump\t// out\n        /* \"#utility.yul\":10763:11834   */\n    tag_680:\n        /* \"#utility.yul\":10922:10925   */\n      0x00\n        /* \"#utility.yul\":10951:11025   */\n      tag_682\n        /* \"#utility.yul\":11019:11024   */\n      dup3\n        /* \"#utility.yul\":10951:11025   */\n      tag_683\n      jump\t// in\n    tag_682:\n        /* \"#utility.yul\":11041:11147   */\n      tag_684\n        /* \"#utility.yul\":11140:11146   */\n      dup2\n        /* \"#utility.yul\":11135:11138   */\n      dup6\n        /* \"#utility.yul\":11041:11147   */\n      tag_685\n      jump\t// in\n    tag_684:\n        /* \"#utility.yul\":11034:11147   */\n      swap4\n      pop\n        /* \"#utility.yul\":11173:11176   */\n      dup4\n        /* \"#utility.yul\":11218:11222   */\n      0x20\n        /* \"#utility.yul\":11210:11216   */\n      dup3\n        /* \"#utility.yul\":11206:11223   */\n      mul\n        /* \"#utility.yul\":11201:11204   */\n      dup6\n        /* \"#utility.yul\":11197:11224   */\n      add\n        /* \"#utility.yul\":11248:11324   */\n      tag_686\n        /* \"#utility.yul\":11318:11323   */\n      dup6\n        /* \"#utility.yul\":11248:11324   */\n      tag_687\n      jump\t// in\n    tag_686:\n        /* \"#utility.yul\":11347:11354   */\n      dup1\n        /* \"#utility.yul\":11378:11379   */\n      0x00\n        /* \"#utility.yul\":11363:11789   */\n    tag_688:\n        /* \"#utility.yul\":11388:11394   */\n      dup6\n        /* \"#utility.yul\":11385:11386   */\n      dup2\n        /* \"#utility.yul\":11382:11395   */\n      lt\n        /* \"#utility.yul\":11363:11789   */\n      iszero\n      tag_690\n      jumpi\n        /* \"#utility.yul\":11459:11468   */\n      dup5\n        /* \"#utility.yul\":11453:11457   */\n      dup5\n        /* \"#utility.yul\":11449:11469   */\n      sub\n        /* \"#utility.yul\":11444:11447   */\n      dup10\n        /* \"#utility.yul\":11437:11470   */\n      mstore\n        /* \"#utility.yul\":11510:11516   */\n      dup2\n        /* \"#utility.yul\":11504:11517   */\n      mload\n        /* \"#utility.yul\":11538:11642   */\n      tag_691\n        /* \"#utility.yul\":11637:11641   */\n      dup6\n        /* \"#utility.yul\":11622:11635   */\n      dup3\n        /* \"#utility.yul\":11538:11642   */\n      tag_608\n      jump\t// in\n    tag_691:\n        /* \"#utility.yul\":11530:11642   */\n      swap5\n      pop\n        /* \"#utility.yul\":11665:11745   */\n      tag_692\n        /* \"#utility.yul\":11738:11744   */\n      dup4\n        /* \"#utility.yul\":11665:11745   */\n      tag_693\n      jump\t// in\n    tag_692:\n        /* \"#utility.yul\":11655:11745   */\n      swap3\n      pop\n        /* \"#utility.yul\":11774:11778   */\n      0x20\n        /* \"#utility.yul\":11769:11772   */\n      dup11\n        /* \"#utility.yul\":11765:11779   */\n      add\n        /* \"#utility.yul\":11758:11779   */\n      swap10\n      pop\n        /* \"#utility.yul\":11423:11789   */\n      pop\n        /* \"#utility.yul\":11410:11411   */\n      0x01\n        /* \"#utility.yul\":11407:11408   */\n      dup2\n        /* \"#utility.yul\":11403:11412   */\n      add\n        /* \"#utility.yul\":11398:11412   */\n      swap1\n      pop\n        /* \"#utility.yul\":11363:11789   */\n      jump(tag_688)\n    tag_690:\n        /* \"#utility.yul\":11367:11381   */\n      pop\n        /* \"#utility.yul\":11805:11809   */\n      dup3\n        /* \"#utility.yul\":11798:11809   */\n      swap8\n      pop\n        /* \"#utility.yul\":11825:11828   */\n      dup8\n        /* \"#utility.yul\":11818:11828   */\n      swap6\n      pop\n        /* \"#utility.yul\":10927:11834   */\n      pop\n      pop\n      pop\n      pop\n      pop\n        /* \"#utility.yul\":10763:11834   */\n      swap3\n      swap2\n      pop\n      pop\n      jump\t// out\n        /* \"#utility.yul\":11888:12772   */\n    tag_694:\n        /* \"#utility.yul\":12045:12048   */\n      0x00\n        /* \"#utility.yul\":12074:12147   */\n      tag_696\n        /* \"#utility.yul\":12141:12146   */\n      dup3\n        /* \"#utility.yul\":12074:12147   */\n      tag_697\n      jump\t// in\n    tag_696:\n        /* \"#utility.yul\":12163:12268   */\n      tag_698\n        /* \"#utility.yul\":12261:12267   */\n      dup2\n        /* \"#utility.yul\":12256:12259   */\n      dup6\n        /* \"#utility.yul\":12163:12268   */\n      tag_699\n      jump\t// in\n    tag_698:\n        /* \"#utility.yul\":12156:12268   */\n      swap4\n      pop\n        /* \"#utility.yul\":12292:12367   */\n      tag_700\n        /* \"#utility.yul\":12361:12366   */\n      dup4\n        /* \"#utility.yul\":12292:12367   */\n      tag_701\n      jump\t// in\n    tag_700:\n        /* \"#utility.yul\":12390:12397   */\n      dup1\n        /* \"#utility.yul\":12421:12422   */\n      0x00\n        /* \"#utility.yul\":12406:12747   */\n    tag_702:\n        /* \"#utility.yul\":12431:12437   */\n      dup4\n        /* \"#utility.yul\":12428:12429   */\n      dup2\n        /* \"#utility.yul\":12425:12438   */\n      lt\n        /* \"#utility.yul\":12406:12747   */\n      iszero\n      tag_704\n      jumpi\n        /* \"#utility.yul\":12507:12513   */\n      dup2\n        /* \"#utility.yul\":12501:12514   */\n      mload\n        /* \"#utility.yul\":12534:12635   */\n      tag_705\n        /* \"#utility.yul\":12631:12634   */\n      dup9\n        /* \"#utility.yul\":12616:12629   */\n      dup3\n        /* \"#utility.yul\":12534:12635   */\n      tag_612\n      jump\t// in\n    tag_705:\n        /* \"#utility.yul\":12527:12635   */\n      swap8\n      pop\n        /* \"#utility.yul\":12658:12737   */\n      tag_706\n        /* \"#utility.yul\":12730:12736   */\n      dup4\n        /* \"#utility.yul\":12658:12737   */\n      tag_707\n      jump\t// in\n    tag_706:\n        /* \"#utility.yul\":12648:12737   */\n      swap3\n      pop\n        /* \"#utility.yul\":12466:12747   */\n      pop\n        /* \"#utility.yul\":12453:12454   */\n      0x01\n        /* \"#utility.yul\":12450:12451   */\n      dup2\n        /* \"#utility.yul\":12446:12455   */\n      add\n        /* \"#utility.yul\":12441:12455   */\n      swap1\n      pop\n        /* \"#utility.yul\":12406:12747   */\n      jump(tag_702)\n    tag_704:\n        /* \"#utility.yul\":12410:12424   */\n      pop\n        /* \"#utility.yul\":12763:12766   */\n      dup6\n        /* \"#utility.yul\":12756:12766   */\n      swap4\n      pop\n        /* \"#utility.yul\":12050:12772   */\n      pop\n      pop\n      pop\n        /* \"#utility.yul\":11888:12772   */\n      swap3\n      swap2\n      pop\n      pop\n      jump\t// out\n        /* \"#utility.yul\":12808:13520   */\n    tag_708:\n        /* \"#utility.yul\":12917:12920   */\n      0x00\n        /* \"#utility.yul\":12946:13000   */\n      tag_710\n        /* \"#utility.yul\":12994:12999   */\n      dup3\n        /* \"#utility.yul\":12946:13000   */\n      tag_711\n      jump\t// in\n    tag_710:\n        /* \"#utility.yul\":13016:13092   */\n      tag_712\n        /* \"#utility.yul\":13085:13091   */\n      dup2\n        /* \"#utility.yul\":13080:13083   */\n      dup6\n        /* \"#utility.yul\":13016:13092   */\n      tag_713\n      jump\t// in\n    tag_712:\n        /* \"#utility.yul\":13009:13092   */\n      swap4\n      pop\n        /* \"#utility.yul\":13116:13172   */\n      tag_714\n        /* \"#utility.yul\":13166:13171   */\n      dup4\n        /* \"#utility.yul\":13116:13172   */\n      tag_715\n      jump\t// in\n    tag_714:\n        /* \"#utility.yul\":13195:13202   */\n      dup1\n        /* \"#utility.yul\":13226:13227   */\n      0x00\n        /* \"#utility.yul\":13211:13495   */\n    tag_716:\n        /* \"#utility.yul\":13236:13242   */\n      dup4\n        /* \"#utility.yul\":13233:13234   */\n      dup2\n        /* \"#utility.yul\":13230:13243   */\n      lt\n        /* \"#utility.yul\":13211:13495   */\n      iszero\n      tag_718\n      jumpi\n        /* \"#utility.yul\":13312:13318   */\n      dup2\n        /* \"#utility.yul\":13306:13319   */\n      mload\n        /* \"#utility.yul\":13339:13402   */\n      tag_719\n        /* \"#utility.yul\":13398:13401   */\n      dup9\n        /* \"#utility.yul\":13383:13396   */\n      dup3\n        /* \"#utility.yul\":13339:13402   */\n      tag_616\n      jump\t// in\n    tag_719:\n        /* \"#utility.yul\":13332:13402   */\n      swap8\n      pop\n        /* \"#utility.yul\":13425:13485   */\n      tag_720\n        /* \"#utility.yul\":13478:13484   */\n      dup4\n        /* \"#utility.yul\":13425:13485   */\n      tag_721\n      jump\t// in\n    tag_720:\n        /* \"#utility.yul\":13415:13485   */\n      swap3\n      pop\n        /* \"#utility.yul\":13271:13495   */\n      pop\n        /* \"#utility.yul\":13258:13259   */\n      0x01\n        /* \"#utility.yul\":13255:13256   */\n      dup2\n        /* \"#utility.yul\":13251:13260   */\n      add\n        /* \"#utility.yul\":13246:13260   */\n      swap1\n      pop\n        /* \"#utility.yul\":13211:13495   */\n      jump(tag_716)\n    tag_718:\n        /* \"#utility.yul\":13215:13229   */\n      pop\n        /* \"#utility.yul\":13511:13514   */\n      dup6\n        /* \"#utility.yul\":13504:13514   */\n      swap4\n      pop\n        /* \"#utility.yul\":12922:13520   */\n      pop\n      pop\n      pop\n        /* \"#utility.yul\":12808:13520   */\n      swap3\n      swap2\n      pop\n      pop\n      jump\t// out\n        /* \"#utility.yul\":13526:13625   */\n    tag_722:\n        /* \"#utility.yul\":13597:13618   */\n      tag_724\n        /* \"#utility.yul\":13612:13617   */\n      dup2\n        /* \"#utility.yul\":13597:13618   */\n      tag_725\n      jump\t// in\n    tag_724:\n        /* \"#utility.yul\":13592:13595   */\n      dup3\n        /* \"#utility.yul\":13585:13619   */\n      mstore\n        /* \"#utility.yul\":13526:13625   */\n      pop\n      pop\n      jump\t// out\n        /* \"#utility.yul\":13631:13975   */\n    tag_726:\n        /* \"#utility.yul\":13709:13712   */\n      0x00\n        /* \"#utility.yul\":13737:13776   */\n      tag_728\n        /* \"#utility.yul\":13770:13775   */\n      dup3\n        /* \"#utility.yul\":13737:13776   */\n      tag_729\n      jump\t// in\n    tag_728:\n        /* \"#utility.yul\":13792:13853   */\n      tag_730\n        /* \"#utility.yul\":13846:13852   */\n      dup2\n        /* \"#utility.yul\":13841:13844   */\n      dup6\n        /* \"#utility.yul\":13792:13853   */\n      tag_731\n      jump\t// in\n    tag_730:\n        /* \"#utility.yul\":13785:13853   */\n      swap4\n      pop\n        /* \"#utility.yul\":13862:13914   */\n      tag_732\n        /* \"#utility.yul\":13907:13913   */\n      dup2\n        /* \"#utility.yul\":13902:13905   */\n      dup6\n        /* \"#utility.yul\":13895:13899   */\n      0x20\n        /* \"#utility.yul\":13888:13893   */\n      dup7\n        /* \"#utility.yul\":13884:13900   */\n      add\n        /* \"#utility.yul\":13862:13914   */\n      tag_733\n      jump\t// in\n    tag_732:\n        /* \"#utility.yul\":13939:13968   */\n      tag_734\n        /* \"#utility.yul\":13961:13967   */\n      dup2\n        /* \"#utility.yul\":13939:13968   */\n      tag_735\n      jump\t// in\n    tag_734:\n        /* \"#utility.yul\":13934:13937   */\n      dup5\n        /* \"#utility.yul\":13930:13969   */\n      add\n        /* \"#utility.yul\":13923:13969   */\n      swap2\n      pop\n        /* \"#utility.yul\":13713:13975   */\n      pop\n        /* \"#utility.yul\":13631:13975   */\n      swap3\n      swap2\n      pop\n      pop\n      jump\t// out\n        /* \"#utility.yul\":13981:14347   */\n    tag_736:\n        /* \"#utility.yul\":14123:14126   */\n      0x00\n        /* \"#utility.yul\":14144:14211   */\n      tag_738\n        /* \"#utility.yul\":14208:14210   */\n      0x0e\n        /* \"#utility.yul\":14203:14206   */\n      dup4\n        /* \"#utility.yul\":14144:14211   */\n      tag_739\n      jump\t// in\n    tag_738:\n        /* \"#utility.yul\":14137:14211   */\n      swap2\n      pop\n        /* \"#utility.yul\":14220:14313   */\n      tag_740\n        /* \"#utility.yul\":14309:14312   */\n      dup3\n        /* \"#utility.yul\":14220:14313   */\n      tag_741\n      jump\t// in\n    tag_740:\n        /* \"#utility.yul\":14338:14340   */\n      0x20\n        /* \"#utility.yul\":14333:14336   */\n      dup3\n        /* \"#utility.yul\":14329:14341   */\n      add\n        /* \"#utility.yul\":14322:14341   */\n      swap1\n      pop\n        /* \"#utility.yul\":13981:14347   */\n      swap2\n      swap1\n      pop\n      jump\t// out\n        /* \"#utility.yul\":14353:14718   */\n    tag_742:\n        /* \"#utility.yul\":14495:14498   */\n      0x00\n        /* \"#utility.yul\":14516:14582   */\n      tag_744\n        /* \"#utility.yul\":14580:14581   */\n      0x03\n        /* \"#utility.yul\":14575:14578   */\n      dup4\n        /* \"#utility.yul\":14516:14582   */\n      tag_739\n      jump\t// in\n    tag_744:\n        /* \"#utility.yul\":14509:14582   */\n      swap2\n      pop\n        /* \"#utility.yul\":14591:14684   */\n      tag_745\n        /* \"#utility.yul\":14680:14683   */\n      dup3\n        /* \"#utility.yul\":14591:14684   */\n      tag_746\n      jump\t// in\n    tag_745:\n        /* \"#utility.yul\":14709:14711   */\n      0x20\n        /* \"#utility.yul\":14704:14707   */\n      dup3\n        /* \"#utility.yul\":14700:14712   */\n      add\n        /* \"#utility.yul\":14693:14712   */\n      swap1\n      pop\n        /* \"#utility.yul\":14353:14718   */\n      swap2\n      swap1\n      pop\n      jump\t// out\n        /* \"#utility.yul\":14724:15090   */\n    tag_747:\n        /* \"#utility.yul\":14866:14869   */\n      0x00\n        /* \"#utility.yul\":14887:14954   */\n      tag_749\n        /* \"#utility.yul\":14951:14953   */\n      0x12\n        /* \"#utility.yul\":14946:14949   */\n      dup4\n        /* \"#utility.yul\":14887:14954   */\n      tag_739\n      jump\t// in\n    tag_749:\n        /* \"#utility.yul\":14880:14954   */\n      swap2\n      pop\n        /* \"#utility.yul\":14963:15056   */\n      tag_750\n        /* \"#utility.yul\":15052:15055   */\n      dup3\n        /* \"#utility.yul\":14963:15056   */\n      tag_751\n      jump\t// in\n    tag_750:\n        /* \"#utility.yul\":15081:15083   */\n      0x20\n        /* \"#utility.yul\":15076:15079   */\n      dup3\n        /* \"#utility.yul\":15072:15084   */\n      add\n        /* \"#utility.yul\":15065:15084   */\n      swap1\n      pop\n        /* \"#utility.yul\":14724:15090   */\n      swap2\n      swap1\n      pop\n      jump\t// out\n        /* \"#utility.yul\":15096:15462   */\n    tag_752:\n        /* \"#utility.yul\":15238:15241   */\n      0x00\n        /* \"#utility.yul\":15259:15326   */\n      tag_754\n        /* \"#utility.yul\":15323:15325   */\n      0x15\n        /* \"#utility.yul\":15318:15321   */\n      dup4\n        /* \"#utility.yul\":15259:15326   */\n      tag_739\n      jump\t// in\n    tag_754:\n        /* \"#utility.yul\":15252:15326   */\n      swap2\n      pop\n        /* \"#utility.yul\":15335:15428   */\n      tag_755\n        /* \"#utility.yul\":15424:15427   */\n      dup3\n        /* \"#utility.yul\":15335:15428   */\n      tag_756\n      jump\t// in\n    tag_755:\n        /* \"#utility.yul\":15453:15455   */\n      0x20\n        /* \"#utility.yul\":15448:15451   */\n      dup3\n        /* \"#utility.yul\":15444:15456   */\n      add\n        /* \"#utility.yul\":15437:15456   */\n      swap1\n      pop\n        /* \"#utility.yul\":15096:15462   */\n      swap2\n      swap1\n      pop\n      jump\t// out\n        /* \"#utility.yul\":15468:15834   */\n    tag_757:\n        /* \"#utility.yul\":15610:15613   */\n      0x00\n        /* \"#utility.yul\":15631:15698   */\n      tag_759\n        /* \"#utility.yul\":15695:15697   */\n      0x10\n        /* \"#utility.yul\":15690:15693   */\n      dup4\n        /* \"#utility.yul\":15631:15698   */\n      tag_739\n      jump\t// in\n    tag_759:\n        /* \"#utility.yul\":15624:15698   */\n      swap2\n      pop\n        /* \"#utility.yul\":15707:15800   */\n      tag_760\n        /* \"#utility.yul\":15796:15799   */\n      dup3\n        /* \"#utility.yul\":15707:15800   */\n      tag_761\n      jump\t// in\n    tag_760:\n        /* \"#utility.yul\":15825:15827   */\n      0x20\n        /* \"#utility.yul\":15820:15823   */\n      dup3\n        /* \"#utility.yul\":15816:15828   */\n      add\n        /* \"#utility.yul\":15809:15828   */\n      swap1\n      pop\n        /* \"#utility.yul\":15468:15834   */\n      swap2\n      swap1\n      pop\n      jump\t// out\n        /* \"#utility.yul\":15840:16206   */\n    tag_762:\n        /* \"#utility.yul\":15982:15985   */\n      0x00\n        /* \"#utility.yul\":16003:16070   */\n      tag_764\n        /* \"#utility.yul\":16067:16069   */\n      0x0e\n        /* \"#utility.yul\":16062:16065   */\n      dup4\n        /* \"#utility.yul\":16003:16070   */\n      tag_739\n      jump\t// in\n    tag_764:\n        /* \"#utility.yul\":15996:16070   */\n      swap2\n      pop\n        /* \"#utility.yul\":16079:16172   */\n      tag_765\n        /* \"#utility.yul\":16168:16171   */\n      dup3\n        /* \"#utility.yul\":16079:16172   */\n      tag_766\n      jump\t// in\n    tag_765:\n        /* \"#utility.yul\":16197:16199   */\n      0x20\n        /* \"#utility.yul\":16192:16195   */\n      dup3\n        /* \"#utility.yul\":16188:16200   */\n      add\n        /* \"#utility.yul\":16181:16200   */\n      swap1\n      pop\n        /* \"#utility.yul\":15840:16206   */\n      swap2\n      swap1\n      pop\n      jump\t// out\n        /* \"#utility.yul\":16212:16578   */\n    tag_767:\n        /* \"#utility.yul\":16354:16357   */\n      0x00\n        /* \"#utility.yul\":16375:16442   */\n      tag_769\n        /* \"#utility.yul\":16439:16441   */\n      0x0c\n        /* \"#utility.yul\":16434:16437   */\n      dup4\n        /* \"#utility.yul\":16375:16442   */\n      tag_739\n      jump\t// in\n    tag_769:\n        /* \"#utility.yul\":16368:16442   */\n      swap2\n      pop\n        /* \"#utility.yul\":16451:16544   */\n      tag_770\n        /* \"#utility.yul\":16540:16543   */\n      dup3\n        /* \"#utility.yul\":16451:16544   */\n      tag_771\n      jump\t// in\n    tag_770:\n        /* \"#utility.yul\":16569:16571   */\n      0x20\n        /* \"#utility.yul\":16564:16567   */\n      dup3\n        /* \"#utility.yul\":16560:16572   */\n      add\n        /* \"#utility.yul\":16553:16572   */\n      swap1\n      pop\n        /* \"#utility.yul\":16212:16578   */\n      swap2\n      swap1\n      pop\n      jump\t// out\n        /* \"#utility.yul\":16584:16949   */\n    tag_772:\n        /* \"#utility.yul\":16726:16729   */\n      0x00\n        /* \"#utility.yul\":16747:16813   */\n      tag_774\n        /* \"#utility.yul\":16811:16812   */\n      0x03\n        /* \"#utility.yul\":16806:16809   */\n      dup4\n        /* \"#utility.yul\":16747:16813   */\n      tag_739\n      jump\t// in\n    tag_774:\n        /* \"#utility.yul\":16740:16813   */\n      swap2\n      pop\n        /* \"#utility.yul\":16822:16915   */\n      tag_775\n        /* \"#utility.yul\":16911:16914   */\n      dup3\n        /* \"#utility.yul\":16822:16915   */\n      tag_776\n      jump\t// in\n    tag_775:\n        /* \"#utility.yul\":16940:16942   */\n      0x20\n        /* \"#utility.yul\":16935:16938   */\n      dup3\n        /* \"#utility.yul\":16931:16943   */\n      add\n        /* \"#utility.yul\":16924:16943   */\n      swap1\n      pop\n        /* \"#utility.yul\":16584:16949   */\n      swap2\n      swap1\n      pop\n      jump\t// out\n        /* \"#utility.yul\":17005:17922   */\n    tag_595:\n        /* \"#utility.yul\":17110:17113   */\n      0x00\n        /* \"#utility.yul\":17146:17150   */\n      0x60\n        /* \"#utility.yul\":17141:17144   */\n      dup4\n        /* \"#utility.yul\":17137:17151   */\n      add\n        /* \"#utility.yul\":17235:17239   */\n      0x00\n        /* \"#utility.yul\":17228:17233   */\n      dup4\n        /* \"#utility.yul\":17224:17240   */\n      add\n        /* \"#utility.yul\":17218:17241   */\n      mload\n        /* \"#utility.yul\":17254:17317   */\n      tag_778\n        /* \"#utility.yul\":17311:17315   */\n      0x00\n        /* \"#utility.yul\":17306:17309   */\n      dup7\n        /* \"#utility.yul\":17302:17316   */\n      add\n        /* \"#utility.yul\":17288:17300   */\n      dup3\n        /* \"#utility.yul\":17254:17317   */\n      tag_620\n      jump\t// in\n    tag_778:\n        /* \"#utility.yul\":17161:17327   */\n      pop\n        /* \"#utility.yul\":17410:17414   */\n      0x20\n        /* \"#utility.yul\":17403:17408   */\n      dup4\n        /* \"#utility.yul\":17399:17415   */\n      add\n        /* \"#utility.yul\":17393:17416   */\n      mload\n        /* \"#utility.yul\":17463:17466   */\n      dup5\n        /* \"#utility.yul\":17457:17461   */\n      dup3\n        /* \"#utility.yul\":17453:17467   */\n      sub\n        /* \"#utility.yul\":17446:17450   */\n      0x20\n        /* \"#utility.yul\":17441:17444   */\n      dup7\n        /* \"#utility.yul\":17437:17451   */\n      add\n        /* \"#utility.yul\":17430:17468   */\n      mstore\n        /* \"#utility.yul\":17489:17632   */\n      tag_779\n        /* \"#utility.yul\":17627:17631   */\n      dup3\n        /* \"#utility.yul\":17613:17625   */\n      dup3\n        /* \"#utility.yul\":17489:17632   */\n      tag_638\n      jump\t// in\n    tag_779:\n        /* \"#utility.yul\":17481:17632   */\n      swap2\n      pop\n        /* \"#utility.yul\":17337:17643   */\n      pop\n        /* \"#utility.yul\":17732:17736   */\n      0x40\n        /* \"#utility.yul\":17725:17730   */\n      dup4\n        /* \"#utility.yul\":17721:17737   */\n      add\n        /* \"#utility.yul\":17715:17738   */\n      mload\n        /* \"#utility.yul\":17785:17788   */\n      dup5\n        /* \"#utility.yul\":17779:17783   */\n      dup3\n        /* \"#utility.yul\":17775:17789   */\n      sub\n        /* \"#utility.yul\":17768:17772   */\n      0x40\n        /* \"#utility.yul\":17763:17766   */\n      dup7\n        /* \"#utility.yul\":17759:17773   */\n      add\n        /* \"#utility.yul\":17752:17790   */\n      mstore\n        /* \"#utility.yul\":17811:17884   */\n      tag_780\n        /* \"#utility.yul\":17879:17883   */\n      dup3\n        /* \"#utility.yul\":17865:17877   */\n      dup3\n        /* \"#utility.yul\":17811:17884   */\n      tag_726\n      jump\t// in\n    tag_780:\n        /* \"#utility.yul\":17803:17884   */\n      swap2\n      pop\n        /* \"#utility.yul\":17653:17895   */\n      pop\n        /* \"#utility.yul\":17912:17916   */\n      dup1\n        /* \"#utility.yul\":17905:17916   */\n      swap2\n      pop\n        /* \"#utility.yul\":17115:17922   */\n      pop\n        /* \"#utility.yul\":17005:17922   */\n      swap3\n      swap2\n      pop\n      pop\n      jump\t// out\n        /* \"#utility.yul\":17972:18461   */\n    tag_599:\n        /* \"#utility.yul\":18099:18103   */\n      0x40\n        /* \"#utility.yul\":18094:18097   */\n      dup3\n        /* \"#utility.yul\":18090:18104   */\n      add\n        /* \"#utility.yul\":18191:18195   */\n      0x00\n        /* \"#utility.yul\":18184:18189   */\n      dup3\n        /* \"#utility.yul\":18180:18196   */\n      add\n        /* \"#utility.yul\":18174:18197   */\n      mload\n        /* \"#utility.yul\":18210:18273   */\n      tag_782\n        /* \"#utility.yul\":18267:18271   */\n      0x00\n        /* \"#utility.yul\":18262:18265   */\n      dup6\n        /* \"#utility.yul\":18258:18272   */\n      add\n        /* \"#utility.yul\":18244:18256   */\n      dup3\n        /* \"#utility.yul\":18210:18273   */\n      tag_620\n      jump\t// in\n    tag_782:\n        /* \"#utility.yul\":18114:18283   */\n      pop\n        /* \"#utility.yul\":18368:18372   */\n      0x20\n        /* \"#utility.yul\":18361:18366   */\n      dup3\n        /* \"#utility.yul\":18357:18373   */\n      add\n        /* \"#utility.yul\":18351:18374   */\n      mload\n        /* \"#utility.yul\":18387:18444   */\n      tag_783\n        /* \"#utility.yul\":18438:18442   */\n      0x20\n        /* \"#utility.yul\":18433:18436   */\n      dup6\n        /* \"#utility.yul\":18429:18443   */\n      add\n        /* \"#utility.yul\":18415:18427   */\n      dup3\n        /* \"#utility.yul\":18387:18444   */\n      tag_722\n      jump\t// in\n    tag_783:\n        /* \"#utility.yul\":18293:18454   */\n      pop\n        /* \"#utility.yul\":18068:18461   */\n      pop\n        /* \"#utility.yul\":17972:18461   */\n      pop\n      pop\n      jump\t// out\n        /* \"#utility.yul\":18511:19926   */\n    tag_603:\n        /* \"#utility.yul\":18610:18613   */\n      0x00\n        /* \"#utility.yul\":18646:18650   */\n      0xa0\n        /* \"#utility.yul\":18641:18644   */\n      dup4\n        /* \"#utility.yul\":18637:18651   */\n      add\n        /* \"#utility.yul\":18738:18742   */\n      0x00\n        /* \"#utility.yul\":18731:18736   */\n      dup4\n        /* \"#utility.yul\":18727:18743   */\n      add\n        /* \"#utility.yul\":18721:18744   */\n      mload\n        /* \"#utility.yul\":18757:18820   */\n      tag_785\n        /* \"#utility.yul\":18814:18818   */\n      0x00\n        /* \"#utility.yul\":18809:18812   */\n      dup7\n        /* \"#utility.yul\":18805:18819   */\n      add\n        /* \"#utility.yul\":18791:18803   */\n      dup3\n        /* \"#utility.yul\":18757:18820   */\n      tag_620\n      jump\t// in\n    tag_785:\n        /* \"#utility.yul\":18661:18830   */\n      pop\n        /* \"#utility.yul\":18914:18918   */\n      0x20\n        /* \"#utility.yul\":18907:18912   */\n      dup4\n        /* \"#utility.yul\":18903:18919   */\n      add\n        /* \"#utility.yul\":18897:18920   */\n      mload\n        /* \"#utility.yul\":18933:18996   */\n      tag_786\n        /* \"#utility.yul\":18990:18994   */\n      0x20\n        /* \"#utility.yul\":18985:18988   */\n      dup7\n        /* \"#utility.yul\":18981:18995   */\n      add\n        /* \"#utility.yul\":18967:18979   */\n      dup3\n        /* \"#utility.yul\":18933:18996   */\n      tag_619\n      jump\t// in\n    tag_786:\n        /* \"#utility.yul\":18840:19006   */\n      pop\n        /* \"#utility.yul\":19089:19093   */\n      0x40\n        /* \"#utility.yul\":19082:19087   */\n      dup4\n        /* \"#utility.yul\":19078:19094   */\n      add\n        /* \"#utility.yul\":19072:19095   */\n      mload\n        /* \"#utility.yul\":19142:19145   */\n      dup5\n        /* \"#utility.yul\":19136:19140   */\n      dup3\n        /* \"#utility.yul\":19132:19146   */\n      sub\n        /* \"#utility.yul\":19125:19129   */\n      0x40\n        /* \"#utility.yul\":19120:19123   */\n      dup7\n        /* \"#utility.yul\":19116:19130   */\n      add\n        /* \"#utility.yul\":19109:19147   */\n      mstore\n        /* \"#utility.yul\":19168:19311   */\n      tag_787\n        /* \"#utility.yul\":19306:19310   */\n      dup3\n        /* \"#utility.yul\":19292:19304   */\n      dup3\n        /* \"#utility.yul\":19168:19311   */\n      tag_638\n      jump\t// in\n    tag_787:\n        /* \"#utility.yul\":19160:19311   */\n      swap2\n      pop\n        /* \"#utility.yul\":19016:19322   */\n      pop\n        /* \"#utility.yul\":19408:19412   */\n      0x60\n        /* \"#utility.yul\":19401:19406   */\n      dup4\n        /* \"#utility.yul\":19397:19413   */\n      add\n        /* \"#utility.yul\":19391:19414   */\n      mload\n        /* \"#utility.yul\":19461:19464   */\n      dup5\n        /* \"#utility.yul\":19455:19459   */\n      dup3\n        /* \"#utility.yul\":19451:19465   */\n      sub\n        /* \"#utility.yul\":19444:19448   */\n      0x60\n        /* \"#utility.yul\":19439:19442   */\n      dup7\n        /* \"#utility.yul\":19435:19449   */\n      add\n        /* \"#utility.yul\":19428:19466   */\n      mstore\n        /* \"#utility.yul\":19487:19636   */\n      tag_788\n        /* \"#utility.yul\":19631:19635   */\n      dup3\n        /* \"#utility.yul\":19617:19629   */\n      dup3\n        /* \"#utility.yul\":19487:19636   */\n      tag_624\n      jump\t// in\n    tag_788:\n        /* \"#utility.yul\":19479:19636   */\n      swap2\n      pop\n        /* \"#utility.yul\":19332:19647   */\n      pop\n        /* \"#utility.yul\":19736:19740   */\n      0x80\n        /* \"#utility.yul\":19729:19734   */\n      dup4\n        /* \"#utility.yul\":19725:19741   */\n      add\n        /* \"#utility.yul\":19719:19742   */\n      mload\n        /* \"#utility.yul\":19789:19792   */\n      dup5\n        /* \"#utility.yul\":19783:19787   */\n      dup3\n        /* \"#utility.yul\":19779:19793   */\n      sub\n        /* \"#utility.yul\":19772:19776   */\n      0x80\n        /* \"#utility.yul\":19767:19770   */\n      dup7\n        /* \"#utility.yul\":19763:19777   */\n      add\n        /* \"#utility.yul\":19756:19794   */\n      mstore\n        /* \"#utility.yul\":19815:19888   */\n      tag_789\n        /* \"#utility.yul\":19883:19887   */\n      dup3\n        /* \"#utility.yul\":19869:19881   */\n      dup3\n        /* \"#utility.yul\":19815:19888   */\n      tag_726\n      jump\t// in\n    tag_789:\n        /* \"#utility.yul\":19807:19888   */\n      swap2\n      pop\n        /* \"#utility.yul\":19657:19899   */\n      pop\n        /* \"#utility.yul\":19916:19920   */\n      dup1\n        /* \"#utility.yul\":19909:19920   */\n      swap2\n      pop\n        /* \"#utility.yul\":18615:19926   */\n      pop\n        /* \"#utility.yul\":18511:19926   */\n      swap3\n      swap2\n      pop\n      pop\n      jump\t// out\n        /* \"#utility.yul\":19982:20476   */\n    tag_607:\n        /* \"#utility.yul\":20115:20119   */\n      0x40\n        /* \"#utility.yul\":20110:20113   */\n      dup3\n        /* \"#utility.yul\":20106:20120   */\n      add\n        /* \"#utility.yul\":20207:20211   */\n      0x00\n        /* \"#utility.yul\":20200:20205   */\n      dup3\n        /* \"#utility.yul\":20196:20212   */\n      add\n        /* \"#utility.yul\":20190:20213   */\n      mload\n        /* \"#utility.yul\":20226:20289   */\n      tag_791\n        /* \"#utility.yul\":20283:20287   */\n      0x00\n        /* \"#utility.yul\":20278:20281   */\n      dup6\n        /* \"#utility.yul\":20274:20288   */\n      add\n        /* \"#utility.yul\":20260:20272   */\n      dup3\n        /* \"#utility.yul\":20226:20289   */\n      tag_620\n      jump\t// in\n    tag_791:\n        /* \"#utility.yul\":20130:20299   */\n      pop\n        /* \"#utility.yul\":20383:20387   */\n      0x20\n        /* \"#utility.yul\":20376:20381   */\n      dup3\n        /* \"#utility.yul\":20372:20388   */\n      add\n        /* \"#utility.yul\":20366:20389   */\n      mload\n        /* \"#utility.yul\":20402:20459   */\n      tag_792\n        /* \"#utility.yul\":20453:20457   */\n      0x20\n        /* \"#utility.yul\":20448:20451   */\n      dup6\n        /* \"#utility.yul\":20444:20458   */\n      add\n        /* \"#utility.yul\":20430:20442   */\n      dup3\n        /* \"#utility.yul\":20402:20459   */\n      tag_722\n      jump\t// in\n    tag_792:\n        /* \"#utility.yul\":20309:20469   */\n      pop\n        /* \"#utility.yul\":20084:20476   */\n      pop\n        /* \"#utility.yul\":19982:20476   */\n      pop\n      pop\n      jump\t// out\n        /* \"#utility.yul\":20526:21712   */\n    tag_611:\n        /* \"#utility.yul\":20625:20628   */\n      0x00\n        /* \"#utility.yul\":20661:20665   */\n      0x80\n        /* \"#utility.yul\":20656:20659   */\n      dup4\n        /* \"#utility.yul\":20652:20666   */\n      add\n        /* \"#utility.yul\":20748:20752   */\n      0x00\n        /* \"#utility.yul\":20741:20746   */\n      dup4\n        /* \"#utility.yul\":20737:20753   */\n      add\n        /* \"#utility.yul\":20731:20754   */\n      mload\n        /* \"#utility.yul\":20767:20830   */\n      tag_794\n        /* \"#utility.yul\":20824:20828   */\n      0x00\n        /* \"#utility.yul\":20819:20822   */\n      dup7\n        /* \"#utility.yul\":20815:20829   */\n      add\n        /* \"#utility.yul\":20801:20813   */\n      dup3\n        /* \"#utility.yul\":20767:20830   */\n      tag_620\n      jump\t// in\n    tag_794:\n        /* \"#utility.yul\":20676:20840   */\n      pop\n        /* \"#utility.yul\":20922:20926   */\n      0x20\n        /* \"#utility.yul\":20915:20920   */\n      dup4\n        /* \"#utility.yul\":20911:20927   */\n      add\n        /* \"#utility.yul\":20905:20928   */\n      mload\n        /* \"#utility.yul\":20975:20978   */\n      dup5\n        /* \"#utility.yul\":20969:20973   */\n      dup3\n        /* \"#utility.yul\":20965:20979   */\n      sub\n        /* \"#utility.yul\":20958:20962   */\n      0x20\n        /* \"#utility.yul\":20953:20956   */\n      dup7\n        /* \"#utility.yul\":20949:20963   */\n      add\n        /* \"#utility.yul\":20942:20980   */\n      mstore\n        /* \"#utility.yul\":21001:21074   */\n      tag_795\n        /* \"#utility.yul\":21069:21073   */\n      dup3\n        /* \"#utility.yul\":21055:21067   */\n      dup3\n        /* \"#utility.yul\":21001:21074   */\n      tag_726\n      jump\t// in\n    tag_795:\n        /* \"#utility.yul\":20993:21074   */\n      swap2\n      pop\n        /* \"#utility.yul\":20850:21085   */\n      pop\n        /* \"#utility.yul\":21174:21178   */\n      0x40\n        /* \"#utility.yul\":21167:21172   */\n      dup4\n        /* \"#utility.yul\":21163:21179   */\n      add\n        /* \"#utility.yul\":21157:21180   */\n      mload\n        /* \"#utility.yul\":21227:21230   */\n      dup5\n        /* \"#utility.yul\":21221:21225   */\n      dup3\n        /* \"#utility.yul\":21217:21231   */\n      sub\n        /* \"#utility.yul\":21210:21214   */\n      0x40\n        /* \"#utility.yul\":21205:21208   */\n      dup7\n        /* \"#utility.yul\":21201:21215   */\n      add\n        /* \"#utility.yul\":21194:21232   */\n      mstore\n        /* \"#utility.yul\":21253:21396   */\n      tag_796\n        /* \"#utility.yul\":21391:21395   */\n      dup3\n        /* \"#utility.yul\":21377:21389   */\n      dup3\n        /* \"#utility.yul\":21253:21396   */\n      tag_652\n      jump\t// in\n    tag_796:\n        /* \"#utility.yul\":21245:21396   */\n      swap2\n      pop\n        /* \"#utility.yul\":21095:21407   */\n      pop\n        /* \"#utility.yul\":21492:21496   */\n      0x60\n        /* \"#utility.yul\":21485:21490   */\n      dup4\n        /* \"#utility.yul\":21481:21497   */\n      add\n        /* \"#utility.yul\":21475:21498   */\n      mload\n        /* \"#utility.yul\":21545:21548   */\n      dup5\n        /* \"#utility.yul\":21539:21543   */\n      dup3\n        /* \"#utility.yul\":21535:21549   */\n      sub\n        /* \"#utility.yul\":21528:21532   */\n      0x60\n        /* \"#utility.yul\":21523:21526   */\n      dup7\n        /* \"#utility.yul\":21519:21533   */\n      add\n        /* \"#utility.yul\":21512:21550   */\n      mstore\n        /* \"#utility.yul\":21571:21674   */\n      tag_797\n        /* \"#utility.yul\":21669:21673   */\n      dup3\n        /* \"#utility.yul\":21655:21667   */\n      dup3\n        /* \"#utility.yul\":21571:21674   */\n      tag_708\n      jump\t// in\n    tag_797:\n        /* \"#utility.yul\":21563:21674   */\n      swap2\n      pop\n        /* \"#utility.yul\":21417:21685   */\n      pop\n        /* \"#utility.yul\":21702:21706   */\n      dup1\n        /* \"#utility.yul\":21695:21706   */\n      swap2\n      pop\n        /* \"#utility.yul\":20630:21712   */\n      pop\n        /* \"#utility.yul\":20526:21712   */\n      swap3\n      swap2\n      pop\n      pop\n      jump\t// out\n        /* \"#utility.yul\":21762:22424   */\n    tag_615:\n        /* \"#utility.yul\":21887:21891   */\n      0x60\n        /* \"#utility.yul\":21882:21885   */\n      dup3\n        /* \"#utility.yul\":21878:21892   */\n      add\n        /* \"#utility.yul\":21974:21978   */\n      0x00\n        /* \"#utility.yul\":21967:21972   */\n      dup3\n        /* \"#utility.yul\":21963:21979   */\n      add\n        /* \"#utility.yul\":21957:21980   */\n      mload\n        /* \"#utility.yul\":21993:22056   */\n      tag_799\n        /* \"#utility.yul\":22050:22054   */\n      0x00\n        /* \"#utility.yul\":22045:22048   */\n      dup6\n        /* \"#utility.yul\":22041:22055   */\n      add\n        /* \"#utility.yul\":22027:22039   */\n      dup3\n        /* \"#utility.yul\":21993:22056   */\n      tag_620\n      jump\t// in\n    tag_799:\n        /* \"#utility.yul\":21902:22066   */\n      pop\n        /* \"#utility.yul\":22148:22152   */\n      0x20\n        /* \"#utility.yul\":22141:22146   */\n      dup3\n        /* \"#utility.yul\":22137:22153   */\n      add\n        /* \"#utility.yul\":22131:22154   */\n      mload\n        /* \"#utility.yul\":22167:22230   */\n      tag_800\n        /* \"#utility.yul\":22224:22228   */\n      0x20\n        /* \"#utility.yul\":22219:22222   */\n      dup6\n        /* \"#utility.yul\":22215:22229   */\n      add\n        /* \"#utility.yul\":22201:22213   */\n      dup3\n        /* \"#utility.yul\":22167:22230   */\n      tag_619\n      jump\t// in\n    tag_800:\n        /* \"#utility.yul\":22076:22240   */\n      pop\n        /* \"#utility.yul\":22325:22329   */\n      0x40\n        /* \"#utility.yul\":22318:22323   */\n      dup3\n        /* \"#utility.yul\":22314:22330   */\n      add\n        /* \"#utility.yul\":22308:22331   */\n      mload\n        /* \"#utility.yul\":22344:22407   */\n      tag_801\n        /* \"#utility.yul\":22401:22405   */\n      0x40\n        /* \"#utility.yul\":22396:22399   */\n      dup6\n        /* \"#utility.yul\":22392:22406   */\n      add\n        /* \"#utility.yul\":22378:22390   */\n      dup3\n        /* \"#utility.yul\":22344:22407   */\n      tag_619\n      jump\t// in\n    tag_801:\n        /* \"#utility.yul\":22250:22417   */\n      pop\n        /* \"#utility.yul\":21856:22424   */\n      pop\n        /* \"#utility.yul\":21762:22424   */\n      pop\n      pop\n      jump\t// out\n        /* \"#utility.yul\":22430:22538   */\n    tag_619:\n        /* \"#utility.yul\":22507:22531   */\n      tag_803\n        /* \"#utility.yul\":22525:22530   */\n      dup2\n        /* \"#utility.yul\":22507:22531   */\n      tag_804\n      jump\t// in\n    tag_803:\n        /* \"#utility.yul\":22502:22505   */\n      dup3\n        /* \"#utility.yul\":22495:22532   */\n      mstore\n        /* \"#utility.yul\":22430:22538   */\n      pop\n      pop\n      jump\t// out\n        /* \"#utility.yul\":22544:23009   */\n    tag_39:\n        /* \"#utility.yul\":22733:22737   */\n      0x00\n        /* \"#utility.yul\":22771:22773   */\n      0x20\n        /* \"#utility.yul\":22760:22769   */\n      dup3\n        /* \"#utility.yul\":22756:22774   */\n      add\n        /* \"#utility.yul\":22748:22774   */\n      swap1\n      pop\n        /* \"#utility.yul\":22820:22829   */\n      dup2\n        /* \"#utility.yul\":22814:22818   */\n      dup2\n        /* \"#utility.yul\":22810:22830   */\n      sub\n        /* \"#utility.yul\":22806:22807   */\n      0x00\n        /* \"#utility.yul\":22795:22804   */\n      dup4\n        /* \"#utility.yul\":22791:22808   */\n      add\n        /* \"#utility.yul\":22784:22831   */\n      mstore\n        /* \"#utility.yul\":22848:23002   */\n      tag_806\n        /* \"#utility.yul\":22997:23001   */\n      dup2\n        /* \"#utility.yul\":22988:22994   */\n      dup5\n        /* \"#utility.yul\":22848:23002   */\n      tag_666\n      jump\t// in\n    tag_806:\n        /* \"#utility.yul\":22840:23002   */\n      swap1\n      pop\n        /* \"#utility.yul\":22544:23009   */\n      swap3\n      swap2\n      pop\n      pop\n      jump\t// out\n        /* \"#utility.yul\":23015:23468   */\n    tag_35:\n        /* \"#utility.yul\":23198:23202   */\n      0x00\n        /* \"#utility.yul\":23236:23238   */\n      0x20\n        /* \"#utility.yul\":23225:23234   */\n      dup3\n        /* \"#utility.yul\":23221:23239   */\n      add\n        /* \"#utility.yul\":23213:23239   */\n      swap1\n      pop\n        /* \"#utility.yul\":23285:23294   */\n      dup2\n        /* \"#utility.yul\":23279:23283   */\n      dup2\n        /* \"#utility.yul\":23275:23295   */\n      sub\n        /* \"#utility.yul\":23271:23272   */\n      0x00\n        /* \"#utility.yul\":23260:23269   */\n      dup4\n        /* \"#utility.yul\":23256:23273   */\n      add\n        /* \"#utility.yul\":23249:23296   */\n      mstore\n        /* \"#utility.yul\":23313:23461   */\n      tag_808\n        /* \"#utility.yul\":23456:23460   */\n      dup2\n        /* \"#utility.yul\":23447:23453   */\n      dup5\n        /* \"#utility.yul\":23313:23461   */\n      tag_680\n      jump\t// in\n    tag_808:\n        /* \"#utility.yul\":23305:23461   */\n      swap1\n      pop\n        /* \"#utility.yul\":23015:23468   */\n      swap3\n      swap2\n      pop\n      pop\n      jump\t// out\n        /* \"#utility.yul\":23474:23923   */\n    tag_67:\n        /* \"#utility.yul\":23655:23659   */\n      0x00\n        /* \"#utility.yul\":23693:23695   */\n      0x20\n        /* \"#utility.yul\":23682:23691   */\n      dup3\n        /* \"#utility.yul\":23678:23696   */\n      add\n        /* \"#utility.yul\":23670:23696   */\n      swap1\n      pop\n        /* \"#utility.yul\":23742:23751   */\n      dup2\n        /* \"#utility.yul\":23736:23740   */\n      dup2\n        /* \"#utility.yul\":23732:23752   */\n      sub\n        /* \"#utility.yul\":23728:23729   */\n      0x00\n        /* \"#utility.yul\":23717:23726   */\n      dup4\n        /* \"#utility.yul\":23713:23730   */\n      add\n        /* \"#utility.yul\":23706:23753   */\n      mstore\n        /* \"#utility.yul\":23770:23916   */\n      tag_810\n        /* \"#utility.yul\":23911:23915   */\n      dup2\n        /* \"#utility.yul\":23902:23908   */\n      dup5\n        /* \"#utility.yul\":23770:23916   */\n      tag_694\n      jump\t// in\n    tag_810:\n        /* \"#utility.yul\":23762:23916   */\n      swap1\n      pop\n        /* \"#utility.yul\":23474:23923   */\n      swap3\n      swap2\n      pop\n      pop\n      jump\t// out\n        /* \"#utility.yul\":23929:24348   */\n    tag_133:\n        /* \"#utility.yul\":24095:24099   */\n      0x00\n        /* \"#utility.yul\":24133:24135   */\n      0x20\n        /* \"#utility.yul\":24122:24131   */\n      dup3\n        /* \"#utility.yul\":24118:24136   */\n      add\n        /* \"#utility.yul\":24110:24136   */\n      swap1\n      pop\n        /* \"#utility.yul\":24182:24191   */\n      dup2\n        /* \"#utility.yul\":24176:24180   */\n      dup2\n        /* \"#utility.yul\":24172:24192   */\n      sub\n        /* \"#utility.yul\":24168:24169   */\n      0x00\n        /* \"#utility.yul\":24157:24166   */\n      dup4\n        /* \"#utility.yul\":24153:24170   */\n      add\n        /* \"#utility.yul\":24146:24193   */\n      mstore\n        /* \"#utility.yul\":24210:24341   */\n      tag_812\n        /* \"#utility.yul\":24336:24340   */\n      dup2\n        /* \"#utility.yul\":24210:24341   */\n      tag_736\n      jump\t// in\n    tag_812:\n        /* \"#utility.yul\":24202:24341   */\n      swap1\n      pop\n        /* \"#utility.yul\":23929:24348   */\n      swap2\n      swap1\n      pop\n      jump\t// out\n        /* \"#utility.yul\":24354:24773   */\n    tag_350:\n        /* \"#utility.yul\":24520:24524   */\n      0x00\n        /* \"#utility.yul\":24558:24560   */\n      0x20\n        /* \"#utility.yul\":24547:24556   */\n      dup3\n        /* \"#utility.yul\":24543:24561   */\n      add\n        /* \"#utility.yul\":24535:24561   */\n      swap1\n      pop\n        /* \"#utility.yul\":24607:24616   */\n      dup2\n        /* \"#utility.yul\":24601:24605   */\n      dup2\n        /* \"#utility.yul\":24597:24617   */\n      sub\n        /* \"#utility.yul\":24593:24594   */\n      0x00\n        /* \"#utility.yul\":24582:24591   */\n      dup4\n        /* \"#utility.yul\":24578:24595   */\n      add\n        /* \"#utility.yul\":24571:24618   */\n      mstore\n        /* \"#utility.yul\":24635:24766   */\n      tag_814\n        /* \"#utility.yul\":24761:24765   */\n      dup2\n        /* \"#utility.yul\":24635:24766   */\n      tag_742\n      jump\t// in\n    tag_814:\n        /* \"#utility.yul\":24627:24766   */\n      swap1\n      pop\n        /* \"#utility.yul\":24354:24773   */\n      swap2\n      swap1\n      pop\n      jump\t// out\n        /* \"#utility.yul\":24779:25198   */\n    tag_119:\n        /* \"#utility.yul\":24945:24949   */\n      0x00\n        /* \"#utility.yul\":24983:24985   */\n      0x20\n        /* \"#utility.yul\":24972:24981   */\n      dup3\n        /* \"#utility.yul\":24968:24986   */\n      add\n        /* \"#utility.yul\":24960:24986   */\n      swap1\n      pop\n        /* \"#utility.yul\":25032:25041   */\n      dup2\n        /* \"#utility.yul\":25026:25030   */\n      dup2\n        /* \"#utility.yul\":25022:25042   */\n      sub\n        /* \"#utility.yul\":25018:25019   */\n      0x00\n        /* \"#utility.yul\":25007:25016   */\n      dup4\n        /* \"#utility.yul\":25003:25020   */\n      add\n        /* \"#utility.yul\":24996:25043   */\n      mstore\n        /* \"#utility.yul\":25060:25191   */\n      tag_816\n        /* \"#utility.yul\":25186:25190   */\n      dup2\n        /* \"#utility.yul\":25060:25191   */\n      tag_747\n      jump\t// in\n    tag_816:\n        /* \"#utility.yul\":25052:25191   */\n      swap1\n      pop\n        /* \"#utility.yul\":24779:25198   */\n      swap2\n      swap1\n      pop\n      jump\t// out\n        /* \"#utility.yul\":25204:25623   */\n    tag_192:\n        /* \"#utility.yul\":25370:25374   */\n      0x00\n        /* \"#utility.yul\":25408:25410   */\n      0x20\n        /* \"#utility.yul\":25397:25406   */\n      dup3\n        /* \"#utility.yul\":25393:25411   */\n      add\n        /* \"#utility.yul\":25385:25411   */\n      swap1\n      pop\n        /* \"#utility.yul\":25457:25466   */\n      dup2\n        /* \"#utility.yul\":25451:25455   */\n      dup2\n        /* \"#utility.yul\":25447:25467   */\n      sub\n        /* \"#utility.yul\":25443:25444   */\n      0x00\n        /* \"#utility.yul\":25432:25441   */\n      dup4\n        /* \"#utility.yul\":25428:25445   */\n      add\n        /* \"#utility.yul\":25421:25468   */\n      mstore\n        /* \"#utility.yul\":25485:25616   */\n      tag_818\n        /* \"#utility.yul\":25611:25615   */\n      dup2\n        /* \"#utility.yul\":25485:25616   */\n      tag_752\n      jump\t// in\n    tag_818:\n        /* \"#utility.yul\":25477:25616   */\n      swap1\n      pop\n        /* \"#utility.yul\":25204:25623   */\n      swap2\n      swap1\n      pop\n      jump\t// out\n        /* \"#utility.yul\":25629:26048   */\n    tag_436:\n        /* \"#utility.yul\":25795:25799   */\n      0x00\n        /* \"#utility.yul\":25833:25835   */\n      0x20\n        /* \"#utility.yul\":25822:25831   */\n      dup3\n        /* \"#utility.yul\":25818:25836   */\n      add\n        /* \"#utility.yul\":25810:25836   */\n      swap1\n      pop\n        /* \"#utility.yul\":25882:25891   */\n      dup2\n        /* \"#utility.yul\":25876:25880   */\n      dup2\n        /* \"#utility.yul\":25872:25892   */\n      sub\n        /* \"#utility.yul\":25868:25869   */\n      0x00\n        /* \"#utility.yul\":25857:25866   */\n      dup4\n        /* \"#utility.yul\":25853:25870   */\n      add\n        /* \"#utility.yul\":25846:25893   */\n      mstore\n        /* \"#utility.yul\":25910:26041   */\n      tag_820\n        /* \"#utility.yul\":26036:26040   */\n      dup2\n        /* \"#utility.yul\":25910:26041   */\n      tag_757\n      jump\t// in\n    tag_820:\n        /* \"#utility.yul\":25902:26041   */\n      swap1\n      pop\n        /* \"#utility.yul\":25629:26048   */\n      swap2\n      swap1\n      pop\n      jump\t// out\n        /* \"#utility.yul\":26054:26473   */\n    tag_203:\n        /* \"#utility.yul\":26220:26224   */\n      0x00\n        /* \"#utility.yul\":26258:26260   */\n      0x20\n        /* \"#utility.yul\":26247:26256   */\n      dup3\n        /* \"#utility.yul\":26243:26261   */\n      add\n        /* \"#utility.yul\":26235:26261   */\n      swap1\n      pop\n        /* \"#utility.yul\":26307:26316   */\n      dup2\n        /* \"#utility.yul\":26301:26305   */\n      dup2\n        /* \"#utility.yul\":26297:26317   */\n      sub\n        /* \"#utility.yul\":26293:26294   */\n      0x00\n        /* \"#utility.yul\":26282:26291   */\n      dup4\n        /* \"#utility.yul\":26278:26295   */\n      add\n        /* \"#utility.yul\":26271:26318   */\n      mstore\n        /* \"#utility.yul\":26335:26466   */\n      tag_822\n        /* \"#utility.yul\":26461:26465   */\n      dup2\n        /* \"#utility.yul\":26335:26466   */\n      tag_762\n      jump\t// in\n    tag_822:\n        /* \"#utility.yul\":26327:26466   */\n      swap1\n      pop\n        /* \"#utility.yul\":26054:26473   */\n      swap2\n      swap1\n      pop\n      jump\t// out\n        /* \"#utility.yul\":26479:26898   */\n    tag_213:\n        /* \"#utility.yul\":26645:26649   */\n      0x00\n        /* \"#utility.yul\":26683:26685   */\n      0x20\n        /* \"#utility.yul\":26672:26681   */\n      dup3\n        /* \"#utility.yul\":26668:26686   */\n      add\n        /* \"#utility.yul\":26660:26686   */\n      swap1\n      pop\n        /* \"#utility.yul\":26732:26741   */\n      dup2\n        /* \"#utility.yul\":26726:26730   */\n      dup2\n        /* \"#utility.yul\":26722:26742   */\n      sub\n        /* \"#utility.yul\":26718:26719   */\n      0x00\n        /* \"#utility.yul\":26707:26716   */\n      dup4\n        /* \"#utility.yul\":26703:26720   */\n      add\n        /* \"#utility.yul\":26696:26743   */\n      mstore\n        /* \"#utility.yul\":26760:26891   */\n      tag_824\n        /* \"#utility.yul\":26886:26890   */\n      dup2\n        /* \"#utility.yul\":26760:26891   */\n      tag_767\n      jump\t// in\n    tag_824:\n        /* \"#utility.yul\":26752:26891   */\n      swap1\n      pop\n        /* \"#utility.yul\":26479:26898   */\n      swap2\n      swap1\n      pop\n      jump\t// out\n        /* \"#utility.yul\":26904:27323   */\n    tag_265:\n        /* \"#utility.yul\":27070:27074   */\n      0x00\n        /* \"#utility.yul\":27108:27110   */\n      0x20\n        /* \"#utility.yul\":27097:27106   */\n      dup3\n        /* \"#utility.yul\":27093:27111   */\n      add\n        /* \"#utility.yul\":27085:27111   */\n      swap1\n      pop\n        /* \"#utility.yul\":27157:27166   */\n      dup2\n        /* \"#utility.yul\":27151:27155   */\n      dup2\n        /* \"#utility.yul\":27147:27167   */\n      sub\n        /* \"#utility.yul\":27143:27144   */\n      0x00\n        /* \"#utility.yul\":27132:27141   */\n      dup4\n        /* \"#utility.yul\":27128:27145   */\n      add\n        /* \"#utility.yul\":27121:27168   */\n      mstore\n        /* \"#utility.yul\":27185:27316   */\n      tag_826\n        /* \"#utility.yul\":27311:27315   */\n      dup2\n        /* \"#utility.yul\":27185:27316   */\n      tag_772\n      jump\t// in\n    tag_826:\n        /* \"#utility.yul\":27177:27316   */\n      swap1\n      pop\n        /* \"#utility.yul\":26904:27323   */\n      swap2\n      swap1\n      pop\n      jump\t// out\n        /* \"#utility.yul\":27329:27458   */\n    tag_530:\n        /* \"#utility.yul\":27363:27369   */\n      0x00\n        /* \"#utility.yul\":27390:27410   */\n      tag_828\n      tag_829\n      jump\t// in\n    tag_828:\n        /* \"#utility.yul\":27380:27410   */\n      swap1\n      pop\n        /* \"#utility.yul\":27419:27452   */\n      tag_830\n        /* \"#utility.yul\":27447:27451   */\n      dup3\n        /* \"#utility.yul\":27439:27445   */\n      dup3\n        /* \"#utility.yul\":27419:27452   */\n      tag_831\n      jump\t// in\n    tag_830:\n        /* \"#utility.yul\":27329:27458   */\n      swap2\n      swap1\n      pop\n      jump\t// out\n        /* \"#utility.yul\":27464:27539   */\n    tag_829:\n        /* \"#utility.yul\":27497:27503   */\n      0x00\n        /* \"#utility.yul\":27530:27532   */\n      0x40\n        /* \"#utility.yul\":27524:27533   */\n      mload\n        /* \"#utility.yul\":27514:27533   */\n      swap1\n      pop\n        /* \"#utility.yul\":27464:27539   */\n      swap1\n      jump\t// out\n        /* \"#utility.yul\":27545:27853   */\n    tag_529:\n        /* \"#utility.yul\":27607:27611   */\n      0x00\n        /* \"#utility.yul\":27697:27715   */\n      0xffffffffffffffff\n        /* \"#utility.yul\":27689:27695   */\n      dup3\n        /* \"#utility.yul\":27686:27716   */\n      gt\n        /* \"#utility.yul\":27683:27739   */\n      iszero\n      tag_834\n      jumpi\n        /* \"#utility.yul\":27719:27737   */\n      tag_835\n      tag_836\n      jump\t// in\n    tag_835:\n        /* \"#utility.yul\":27683:27739   */\n    tag_834:\n        /* \"#utility.yul\":27757:27786   */\n      tag_837\n        /* \"#utility.yul\":27779:27785   */\n      dup3\n        /* \"#utility.yul\":27757:27786   */\n      tag_735\n      jump\t// in\n    tag_837:\n        /* \"#utility.yul\":27749:27786   */\n      swap1\n      pop\n        /* \"#utility.yul\":27841:27845   */\n      0x20\n        /* \"#utility.yul\":27835:27839   */\n      dup2\n        /* \"#utility.yul\":27831:27846   */\n      add\n        /* \"#utility.yul\":27823:27846   */\n      swap1\n      pop\n        /* \"#utility.yul\":27545:27853   */\n      swap2\n      swap1\n      pop\n      jump\t// out\n        /* \"#utility.yul\":27859:28014   */\n    tag_631:\n        /* \"#utility.yul\":27949:27953   */\n      0x00\n        /* \"#utility.yul\":27972:27975   */\n      dup2\n        /* \"#utility.yul\":27964:27975   */\n      swap1\n      pop\n        /* \"#utility.yul\":28002:28006   */\n      0x20\n        /* \"#utility.yul\":27997:28000   */\n      dup3\n        /* \"#utility.yul\":27993:28007   */\n      add\n        /* \"#utility.yul\":27985:28007   */\n      swap1\n      pop\n        /* \"#utility.yul\":27859:28014   */\n      swap2\n      swap1\n      pop\n      jump\t// out\n        /* \"#utility.yul\":28020:28172   */\n    tag_645:\n        /* \"#utility.yul\":28107:28111   */\n      0x00\n        /* \"#utility.yul\":28130:28133   */\n      dup2\n        /* \"#utility.yul\":28122:28133   */\n      swap1\n      pop\n        /* \"#utility.yul\":28160:28164   */\n      0x20\n        /* \"#utility.yul\":28155:28158   */\n      dup3\n        /* \"#utility.yul\":28151:28165   */\n      add\n        /* \"#utility.yul\":28143:28165   */\n      swap1\n      pop\n        /* \"#utility.yul\":28020:28172   */\n      swap2\n      swap1\n      pop\n      jump\t// out\n        /* \"#utility.yul\":28178:28330   */\n    tag_659:\n        /* \"#utility.yul\":28265:28269   */\n      0x00\n        /* \"#utility.yul\":28288:28291   */\n      dup2\n        /* \"#utility.yul\":28280:28291   */\n      swap1\n      pop\n        /* \"#utility.yul\":28318:28322   */\n      0x20\n        /* \"#utility.yul\":28313:28316   */\n      dup3\n        /* \"#utility.yul\":28309:28323   */\n      add\n        /* \"#utility.yul\":28301:28323   */\n      swap1\n      pop\n        /* \"#utility.yul\":28178:28330   */\n      swap2\n      swap1\n      pop\n      jump\t// out\n        /* \"#utility.yul\":28336:28491   */\n    tag_673:\n        /* \"#utility.yul\":28426:28430   */\n      0x00\n        /* \"#utility.yul\":28449:28452   */\n      dup2\n        /* \"#utility.yul\":28441:28452   */\n      swap1\n      pop\n        /* \"#utility.yul\":28479:28483   */\n      0x20\n        /* \"#utility.yul\":28474:28477   */\n      dup3\n        /* \"#utility.yul\":28470:28484   */\n      add\n        /* \"#utility.yul\":28462:28484   */\n      swap1\n      pop\n        /* \"#utility.yul\":28336:28491   */\n      swap2\n      swap1\n      pop\n      jump\t// out\n        /* \"#utility.yul\":28497:28649   */\n    tag_687:\n        /* \"#utility.yul\":28584:28588   */\n      0x00\n        /* \"#utility.yul\":28607:28610   */\n      dup2\n        /* \"#utility.yul\":28599:28610   */\n      swap1\n      pop\n        /* \"#utility.yul\":28637:28641   */\n      0x20\n        /* \"#utility.yul\":28632:28635   */\n      dup3\n        /* \"#utility.yul\":28628:28642   */\n      add\n        /* \"#utility.yul\":28620:28642   */\n      swap1\n      pop\n        /* \"#utility.yul\":28497:28649   */\n      swap2\n      swap1\n      pop\n      jump\t// out\n        /* \"#utility.yul\":28655:28806   */\n    tag_701:\n        /* \"#utility.yul\":28741:28745   */\n      0x00\n        /* \"#utility.yul\":28764:28767   */\n      dup2\n        /* \"#utility.yul\":28756:28767   */\n      swap1\n      pop\n        /* \"#utility.yul\":28794:28798   */\n      0x20\n        /* \"#utility.yul\":28789:28792   */\n      dup3\n        /* \"#utility.yul\":28785:28799   */\n      add\n        /* \"#utility.yul\":28777:28799   */\n      swap1\n      pop\n        /* \"#utility.yul\":28655:28806   */\n      swap2\n      swap1\n      pop\n      jump\t// out\n        /* \"#utility.yul\":28812:28944   */\n    tag_715:\n        /* \"#utility.yul\":28879:28883   */\n      0x00\n        /* \"#utility.yul\":28902:28905   */\n      dup2\n        /* \"#utility.yul\":28894:28905   */\n      swap1\n      pop\n        /* \"#utility.yul\":28932:28936   */\n      0x20\n        /* \"#utility.yul\":28927:28930   */\n      dup3\n        /* \"#utility.yul\":28923:28937   */\n      add\n        /* \"#utility.yul\":28915:28937   */\n      swap1\n      pop\n        /* \"#utility.yul\":28812:28944   */\n      swap2\n      swap1\n      pop\n      jump\t// out\n        /* \"#utility.yul\":28950:29087   */\n    tag_627:\n        /* \"#utility.yul\":29040:29046   */\n      0x00\n        /* \"#utility.yul\":29074:29079   */\n      dup2\n        /* \"#utility.yul\":29068:29080   */\n      mload\n        /* \"#utility.yul\":29058:29080   */\n      swap1\n      pop\n        /* \"#utility.yul\":28950:29087   */\n      swap2\n      swap1\n      pop\n      jump\t// out\n        /* \"#utility.yul\":29093:29227   */\n    tag_641:\n        /* \"#utility.yul\":29180:29186   */\n      0x00\n        /* \"#utility.yul\":29214:29219   */\n      dup2\n        /* \"#utility.yul\":29208:29220   */\n      mload\n        /* \"#utility.yul\":29198:29220   */\n      swap1\n      pop\n        /* \"#utility.yul\":29093:29227   */\n      swap2\n      swap1\n      pop\n      jump\t// out\n        /* \"#utility.yul\":29233:29367   */\n    tag_655:\n        /* \"#utility.yul\":29320:29326   */\n      0x00\n        /* \"#utility.yul\":29354:29359   */\n      dup2\n        /* \"#utility.yul\":29348:29360   */\n      mload\n        /* \"#utility.yul\":29338:29360   */\n      swap1\n      pop\n        /* \"#utility.yul\":29233:29367   */\n      swap2\n      swap1\n      pop\n      jump\t// out\n        /* \"#utility.yul\":29373:29510   */\n    tag_669:\n        /* \"#utility.yul\":29463:29469   */\n      0x00\n        /* \"#utility.yul\":29497:29502   */\n      dup2\n        /* \"#utility.yul\":29491:29503   */\n      mload\n        /* \"#utility.yul\":29481:29503   */\n      swap1\n      pop\n        /* \"#utility.yul\":29373:29510   */\n      swap2\n      swap1\n      pop\n      jump\t// out\n        /* \"#utility.yul\":29516:29650   */\n    tag_683:\n        /* \"#utility.yul\":29603:29609   */\n      0x00\n        /* \"#utility.yul\":29637:29642   */\n      dup2\n        /* \"#utility.yul\":29631:29643   */\n      mload\n        /* \"#utility.yul\":29621:29643   */\n      swap1\n      pop\n        /* \"#utility.yul\":29516:29650   */\n      swap2\n      swap1\n      pop\n      jump\t// out\n        /* \"#utility.yul\":29656:29789   */\n    tag_697:\n        /* \"#utility.yul\":29742:29748   */\n      0x00\n        /* \"#utility.yul\":29776:29781   */\n      dup2\n        /* \"#utility.yul\":29770:29782   */\n      mload\n        /* \"#utility.yul\":29760:29782   */\n      swap1\n      pop\n        /* \"#utility.yul\":29656:29789   */\n      swap2\n      swap1\n      pop\n      jump\t// out\n        /* \"#utility.yul\":29795:29909   */\n    tag_711:\n        /* \"#utility.yul\":29862:29868   */\n      0x00\n        /* \"#utility.yul\":29896:29901   */\n      dup2\n        /* \"#utility.yul\":29890:29902   */\n      mload\n        /* \"#utility.yul\":29880:29902   */\n      swap1\n      pop\n        /* \"#utility.yul\":29795:29909   */\n      swap2\n      swap1\n      pop\n      jump\t// out\n        /* \"#utility.yul\":29915:30014   */\n    tag_729:\n        /* \"#utility.yul\":29967:29973   */\n      0x00\n        /* \"#utility.yul\":30001:30006   */\n      dup2\n        /* \"#utility.yul\":29995:30007   */\n      mload\n        /* \"#utility.yul\":29985:30007   */\n      swap1\n      pop\n        /* \"#utility.yul\":29915:30014   */\n      swap2\n      swap1\n      pop\n      jump\t// out\n        /* \"#utility.yul\":30020:30156   */\n    tag_637:\n        /* \"#utility.yul\":30113:30117   */\n      0x00\n        /* \"#utility.yul\":30145:30149   */\n      0x20\n        /* \"#utility.yul\":30140:30143   */\n      dup3\n        /* \"#utility.yul\":30136:30150   */\n      add\n        /* \"#utility.yul\":30128:30150   */\n      swap1\n      pop\n        /* \"#utility.yul\":30020:30156   */\n      swap2\n      swap1\n      pop\n      jump\t// out\n        /* \"#utility.yul\":30162:30295   */\n    tag_651:\n        /* \"#utility.yul\":30252:30256   */\n      0x00\n        /* \"#utility.yul\":30284:30288   */\n      0x20\n        /* \"#utility.yul\":30279:30282   */\n      dup3\n        /* \"#utility.yul\":30275:30289   */\n      add\n        /* \"#utility.yul\":30267:30289   */\n      swap1\n      pop\n        /* \"#utility.yul\":30162:30295   */\n      swap2\n      swap1\n      pop\n      jump\t// out\n        /* \"#utility.yul\":30301:30434   */\n    tag_665:\n        /* \"#utility.yul\":30391:30395   */\n      0x00\n        /* \"#utility.yul\":30423:30427   */\n      0x20\n        /* \"#utility.yul\":30418:30421   */\n      dup3\n        /* \"#utility.yul\":30414:30428   */\n      add\n        /* \"#utility.yul\":30406:30428   */\n      swap1\n      pop\n        /* \"#utility.yul\":30301:30434   */\n      swap2\n      swap1\n      pop\n      jump\t// out\n        /* \"#utility.yul\":30440:30576   */\n    tag_679:\n        /* \"#utility.yul\":30533:30537   */\n      0x00\n        /* \"#utility.yul\":30565:30569   */\n      0x20\n        /* \"#utility.yul\":30560:30563   */\n      dup3\n        /* \"#utility.yul\":30556:30570   */\n      add\n        /* \"#utility.yul\":30548:30570   */\n      swap1\n      pop\n        /* \"#utility.yul\":30440:30576   */\n      swap2\n      swap1\n      pop\n      jump\t// out\n        /* \"#utility.yul\":30582:30715   */\n    tag_693:\n        /* \"#utility.yul\":30672:30676   */\n      0x00\n        /* \"#utility.yul\":30704:30708   */\n      0x20\n        /* \"#utility.yul\":30699:30702   */\n      dup3\n        /* \"#utility.yul\":30695:30709   */\n      add\n        /* \"#utility.yul\":30687:30709   */\n      swap1\n      pop\n        /* \"#utility.yul\":30582:30715   */\n      swap2\n      swap1\n      pop\n      jump\t// out\n        /* \"#utility.yul\":30721:30853   */\n    tag_707:\n        /* \"#utility.yul\":30810:30814   */\n      0x00\n        /* \"#utility.yul\":30842:30846   */\n      0x20\n        /* \"#utility.yul\":30837:30840   */\n      dup3\n        /* \"#utility.yul\":30833:30847   */\n      add\n        /* \"#utility.yul\":30825:30847   */\n      swap1\n      pop\n        /* \"#utility.yul\":30721:30853   */\n      swap2\n      swap1\n      pop\n      jump\t// out\n        /* \"#utility.yul\":30859:30972   */\n    tag_721:\n        /* \"#utility.yul\":30929:30933   */\n      0x00\n        /* \"#utility.yul\":30961:30965   */\n      0x20\n        /* \"#utility.yul\":30956:30959   */\n      dup3\n        /* \"#utility.yul\":30952:30966   */\n      add\n        /* \"#utility.yul\":30944:30966   */\n      swap1\n      pop\n        /* \"#utility.yul\":30859:30972   */\n      swap2\n      swap1\n      pop\n      jump\t// out\n        /* \"#utility.yul\":30978:31175   */\n    tag_629:\n        /* \"#utility.yul\":31090:31101   */\n      0x00\n        /* \"#utility.yul\":31124:31130   */\n      dup3\n        /* \"#utility.yul\":31119:31122   */\n      dup3\n        /* \"#utility.yul\":31112:31131   */\n      mstore\n        /* \"#utility.yul\":31164:31168   */\n      0x20\n        /* \"#utility.yul\":31159:31162   */\n      dup3\n        /* \"#utility.yul\":31155:31169   */\n      add\n        /* \"#utility.yul\":31140:31169   */\n      swap1\n      pop\n        /* \"#utility.yul\":30978:31175   */\n      swap3\n      swap2\n      pop\n      pop\n      jump\t// out\n        /* \"#utility.yul\":31181:31375   */\n    tag_643:\n        /* \"#utility.yul\":31290:31301   */\n      0x00\n        /* \"#utility.yul\":31324:31330   */\n      dup3\n        /* \"#utility.yul\":31319:31322   */\n      dup3\n        /* \"#utility.yul\":31312:31331   */\n      mstore\n        /* \"#utility.yul\":31364:31368   */\n      0x20\n        /* \"#utility.yul\":31359:31362   */\n      dup3\n        /* \"#utility.yul\":31355:31369   */\n      add\n        /* \"#utility.yul\":31340:31369   */\n      swap1\n      pop\n        /* \"#utility.yul\":31181:31375   */\n      swap3\n      swap2\n      pop\n      pop\n      jump\t// out\n        /* \"#utility.yul\":31381:31575   */\n    tag_657:\n        /* \"#utility.yul\":31490:31501   */\n      0x00\n        /* \"#utility.yul\":31524:31530   */\n      dup3\n        /* \"#utility.yul\":31519:31522   */\n      dup3\n        /* \"#utility.yul\":31512:31531   */\n      mstore\n        /* \"#utility.yul\":31564:31568   */\n      0x20\n        /* \"#utility.yul\":31559:31562   */\n      dup3\n        /* \"#utility.yul\":31555:31569   */\n      add\n        /* \"#utility.yul\":31540:31569   */\n      swap1\n      pop\n        /* \"#utility.yul\":31381:31575   */\n      swap3\n      swap2\n      pop\n      pop\n      jump\t// out\n        /* \"#utility.yul\":31581:31788   */\n    tag_671:\n        /* \"#utility.yul\":31703:31714   */\n      0x00\n        /* \"#utility.yul\":31737:31743   */\n      dup3\n        /* \"#utility.yul\":31732:31735   */\n      dup3\n        /* \"#utility.yul\":31725:31744   */\n      mstore\n        /* \"#utility.yul\":31777:31781   */\n      0x20\n        /* \"#utility.yul\":31772:31775   */\n      dup3\n        /* \"#utility.yul\":31768:31782   */\n      add\n        /* \"#utility.yul\":31753:31782   */\n      swap1\n      pop\n        /* \"#utility.yul\":31581:31788   */\n      swap3\n      swap2\n      pop\n      pop\n      jump\t// out\n        /* \"#utility.yul\":31794:31998   */\n    tag_685:\n        /* \"#utility.yul\":31913:31924   */\n      0x00\n        /* \"#utility.yul\":31947:31953   */\n      dup3\n        /* \"#utility.yul\":31942:31945   */\n      dup3\n        /* \"#utility.yul\":31935:31954   */\n      mstore\n        /* \"#utility.yul\":31987:31991   */\n      0x20\n        /* \"#utility.yul\":31982:31985   */\n      dup3\n        /* \"#utility.yul\":31978:31992   */\n      add\n        /* \"#utility.yul\":31963:31992   */\n      swap1\n      pop\n        /* \"#utility.yul\":31794:31998   */\n      swap3\n      swap2\n      pop\n      pop\n      jump\t// out\n        /* \"#utility.yul\":32004:32207   */\n    tag_699:\n        /* \"#utility.yul\":32122:32133   */\n      0x00\n        /* \"#utility.yul\":32156:32162   */\n      dup3\n        /* \"#utility.yul\":32151:32154   */\n      dup3\n        /* \"#utility.yul\":32144:32163   */\n      mstore\n        /* \"#utility.yul\":32196:32200   */\n      0x20\n        /* \"#utility.yul\":32191:32194   */\n      dup3\n        /* \"#utility.yul\":32187:32201   */\n      add\n        /* \"#utility.yul\":32172:32201   */\n      swap1\n      pop\n        /* \"#utility.yul\":32004:32207   */\n      swap3\n      swap2\n      pop\n      pop\n      jump\t// out\n        /* \"#utility.yul\":32213:32387   */\n    tag_713:\n        /* \"#utility.yul\":32302:32313   */\n      0x00\n        /* \"#utility.yul\":32336:32342   */\n      dup3\n        /* \"#utility.yul\":32331:32334   */\n      dup3\n        /* \"#utility.yul\":32324:32343   */\n      mstore\n        /* \"#utility.yul\":32376:32380   */\n      0x20\n        /* \"#utility.yul\":32371:32374   */\n      dup3\n        /* \"#utility.yul\":32367:32381   */\n      add\n        /* \"#utility.yul\":32352:32381   */\n      swap1\n      pop\n        /* \"#utility.yul\":32213:32387   */\n      swap3\n      swap2\n      pop\n      pop\n      jump\t// out\n        /* \"#utility.yul\":32393:32552   */\n    tag_731:\n        /* \"#utility.yul\":32467:32478   */\n      0x00\n        /* \"#utility.yul\":32501:32507   */\n      dup3\n        /* \"#utility.yul\":32496:32499   */\n      dup3\n        /* \"#utility.yul\":32489:32508   */\n      mstore\n        /* \"#utility.yul\":32541:32545   */\n      0x20\n        /* \"#utility.yul\":32536:32539   */\n      dup3\n        /* \"#utility.yul\":32532:32546   */\n      add\n        /* \"#utility.yul\":32517:32546   */\n      swap1\n      pop\n        /* \"#utility.yul\":32393:32552   */\n      swap3\n      swap2\n      pop\n      pop\n      jump\t// out\n        /* \"#utility.yul\":32558:32727   */\n    tag_739:\n        /* \"#utility.yul\":32642:32653   */\n      0x00\n        /* \"#utility.yul\":32676:32682   */\n      dup3\n        /* \"#utility.yul\":32671:32674   */\n      dup3\n        /* \"#utility.yul\":32664:32683   */\n      mstore\n        /* \"#utility.yul\":32716:32720   */\n      0x20\n        /* \"#utility.yul\":32711:32714   */\n      dup3\n        /* \"#utility.yul\":32707:32721   */\n      add\n        /* \"#utility.yul\":32692:32721   */\n      swap1\n      pop\n        /* \"#utility.yul\":32558:32727   */\n      swap3\n      swap2\n      pop\n      pop\n      jump\t// out\n        /* \"#utility.yul\":32733:32924   */\n    tag_81:\n        /* \"#utility.yul\":32773:32777   */\n      0x00\n        /* \"#utility.yul\":32793:32813   */\n      tag_870\n        /* \"#utility.yul\":32811:32812   */\n      dup3\n        /* \"#utility.yul\":32793:32813   */\n      tag_804\n      jump\t// in\n    tag_870:\n        /* \"#utility.yul\":32788:32813   */\n      swap2\n      pop\n        /* \"#utility.yul\":32827:32847   */\n      tag_871\n        /* \"#utility.yul\":32845:32846   */\n      dup4\n        /* \"#utility.yul\":32827:32847   */\n      tag_804\n      jump\t// in\n    tag_871:\n        /* \"#utility.yul\":32822:32847   */\n      swap3\n      pop\n        /* \"#utility.yul\":32866:32867   */\n      dup3\n        /* \"#utility.yul\":32863:32864   */\n      dup3\n        /* \"#utility.yul\":32860:32868   */\n      lt\n        /* \"#utility.yul\":32857:32891   */\n      iszero\n      tag_872\n      jumpi\n        /* \"#utility.yul\":32871:32889   */\n      tag_873\n      tag_874\n      jump\t// in\n    tag_873:\n        /* \"#utility.yul\":32857:32891   */\n    tag_872:\n        /* \"#utility.yul\":32916:32917   */\n      dup3\n        /* \"#utility.yul\":32913:32914   */\n      dup3\n        /* \"#utility.yul\":32909:32918   */\n      sub\n        /* \"#utility.yul\":32901:32918   */\n      swap1\n      pop\n        /* \"#utility.yul\":32733:32924   */\n      swap3\n      swap2\n      pop\n      pop\n      jump\t// out\n        /* \"#utility.yul\":32930:33026   */\n    tag_623:\n        /* \"#utility.yul\":32967:32974   */\n      0x00\n        /* \"#utility.yul\":32996:33020   */\n      tag_876\n        /* \"#utility.yul\":33014:33019   */\n      dup3\n        /* \"#utility.yul\":32996:33020   */\n      tag_877\n      jump\t// in\n    tag_876:\n        /* \"#utility.yul\":32985:33020   */\n      swap1\n      pop\n        /* \"#utility.yul\":32930:33026   */\n      swap2\n      swap1\n      pop\n      jump\t// out\n        /* \"#utility.yul\":33032:33122   */\n    tag_725:\n        /* \"#utility.yul\":33066:33073   */\n      0x00\n        /* \"#utility.yul\":33109:33114   */\n      dup2\n        /* \"#utility.yul\":33102:33115   */\n      iszero\n        /* \"#utility.yul\":33095:33116   */\n      iszero\n        /* \"#utility.yul\":33084:33116   */\n      swap1\n      pop\n        /* \"#utility.yul\":33032:33122   */\n      swap2\n      swap1\n      pop\n      jump\t// out\n        /* \"#utility.yul\":33128:33254   */\n    tag_877:\n        /* \"#utility.yul\":33165:33172   */\n      0x00\n        /* \"#utility.yul\":33205:33247   */\n      0xffffffffffffffffffffffffffffffffffffffff\n        /* \"#utility.yul\":33198:33203   */\n      dup3\n        /* \"#utility.yul\":33194:33248   */\n      and\n        /* \"#utility.yul\":33183:33248   */\n      swap1\n      pop\n        /* \"#utility.yul\":33128:33254   */\n      swap2\n      swap1\n      pop\n      jump\t// out\n        /* \"#utility.yul\":33260:33337   */\n    tag_804:\n        /* \"#utility.yul\":33297:33304   */\n      0x00\n        /* \"#utility.yul\":33326:33331   */\n      dup2\n        /* \"#utility.yul\":33315:33331   */\n      swap1\n      pop\n        /* \"#utility.yul\":33260:33337   */\n      swap2\n      swap1\n      pop\n      jump\t// out\n        /* \"#utility.yul\":33343:33497   */\n    tag_535:\n        /* \"#utility.yul\":33427:33433   */\n      dup3\n        /* \"#utility.yul\":33422:33425   */\n      dup2\n        /* \"#utility.yul\":33417:33420   */\n      dup4\n        /* \"#utility.yul\":33404:33434   */\n      calldatacopy\n        /* \"#utility.yul\":33489:33490   */\n      0x00\n        /* \"#utility.yul\":33480:33486   */\n      dup4\n        /* \"#utility.yul\":33475:33478   */\n      dup4\n        /* \"#utility.yul\":33471:33487   */\n      add\n        /* \"#utility.yul\":33464:33491   */\n      mstore\n        /* \"#utility.yul\":33343:33497   */\n      pop\n      pop\n      pop\n      jump\t// out\n        /* \"#utility.yul\":33503:33810   */\n    tag_733:\n        /* \"#utility.yul\":33571:33572   */\n      0x00\n        /* \"#utility.yul\":33581:33694   */\n    tag_883:\n        /* \"#utility.yul\":33595:33601   */\n      dup4\n        /* \"#utility.yul\":33592:33593   */\n      dup2\n        /* \"#utility.yul\":33589:33602   */\n      lt\n        /* \"#utility.yul\":33581:33694   */\n      iszero\n      tag_885\n      jumpi\n        /* \"#utility.yul\":33680:33681   */\n      dup1\n        /* \"#utility.yul\":33675:33678   */\n      dup3\n        /* \"#utility.yul\":33671:33682   */\n      add\n        /* \"#utility.yul\":33665:33683   */\n      mload\n        /* \"#utility.yul\":33661:33662   */\n      dup2\n        /* \"#utility.yul\":33656:33659   */\n      dup5\n        /* \"#utility.yul\":33652:33663   */\n      add\n        /* \"#utility.yul\":33645:33684   */\n      mstore\n        /* \"#utility.yul\":33617:33619   */\n      0x20\n        /* \"#utility.yul\":33614:33615   */\n      dup2\n        /* \"#utility.yul\":33610:33620   */\n      add\n        /* \"#utility.yul\":33605:33620   */\n      swap1\n      pop\n        /* \"#utility.yul\":33581:33694   */\n      jump(tag_883)\n    tag_885:\n        /* \"#utility.yul\":33712:33718   */\n      dup4\n        /* \"#utility.yul\":33709:33710   */\n      dup2\n        /* \"#utility.yul\":33706:33719   */\n      gt\n        /* \"#utility.yul\":33703:33804   */\n      iszero\n      tag_886\n      jumpi\n        /* \"#utility.yul\":33792:33793   */\n      0x00\n        /* \"#utility.yul\":33783:33789   */\n      dup5\n        /* \"#utility.yul\":33778:33781   */\n      dup5\n        /* \"#utility.yul\":33774:33790   */\n      add\n        /* \"#utility.yul\":33767:33794   */\n      mstore\n        /* \"#utility.yul\":33703:33804   */\n    tag_886:\n        /* \"#utility.yul\":33552:33810   */\n      pop\n        /* \"#utility.yul\":33503:33810   */\n      pop\n      pop\n      pop\n      jump\t// out\n        /* \"#utility.yul\":33816:34136   */\n    tag_223:\n        /* \"#utility.yul\":33860:33866   */\n      0x00\n        /* \"#utility.yul\":33897:33898   */\n      0x02\n        /* \"#utility.yul\":33891:33895   */\n      dup3\n        /* \"#utility.yul\":33887:33899   */\n      div\n        /* \"#utility.yul\":33877:33899   */\n      swap1\n      pop\n        /* \"#utility.yul\":33944:33945   */\n      0x01\n        /* \"#utility.yul\":33938:33942   */\n      dup3\n        /* \"#utility.yul\":33934:33946   */\n      and\n        /* \"#utility.yul\":33965:33983   */\n      dup1\n        /* \"#utility.yul\":33955:34036   */\n      tag_888\n      jumpi\n        /* \"#utility.yul\":34021:34025   */\n      0x7f\n        /* \"#utility.yul\":34013:34019   */\n      dup3\n        /* \"#utility.yul\":34009:34026   */\n      and\n        /* \"#utility.yul\":33999:34026   */\n      swap2\n      pop\n        /* \"#utility.yul\":33955:34036   */\n    tag_888:\n        /* \"#utility.yul\":34083:34085   */\n      0x20\n        /* \"#utility.yul\":34075:34081   */\n      dup3\n        /* \"#utility.yul\":34072:34086   */\n      lt\n        /* \"#utility.yul\":34052:34070   */\n      dup2\n        /* \"#utility.yul\":34049:34087   */\n      eq\n        /* \"#utility.yul\":34046:34130   */\n      iszero\n      tag_889\n      jumpi\n        /* \"#utility.yul\":34102:34120   */\n      tag_890\n      tag_891\n      jump\t// in\n    tag_890:\n        /* \"#utility.yul\":34046:34130   */\n    tag_889:\n        /* \"#utility.yul\":33867:34136   */\n      pop\n        /* \"#utility.yul\":33816:34136   */\n      swap2\n      swap1\n      pop\n      jump\t// out\n        /* \"#utility.yul\":34142:34423   */\n    tag_831:\n        /* \"#utility.yul\":34225:34252   */\n      tag_893\n        /* \"#utility.yul\":34247:34251   */\n      dup3\n        /* \"#utility.yul\":34225:34252   */\n      tag_735\n      jump\t// in\n    tag_893:\n        /* \"#utility.yul\":34217:34223   */\n      dup2\n        /* \"#utility.yul\":34213:34253   */\n      add\n        /* \"#utility.yul\":34355:34361   */\n      dup2\n        /* \"#utility.yul\":34343:34353   */\n      dup2\n        /* \"#utility.yul\":34340:34362   */\n      lt\n        /* \"#utility.yul\":34319:34337   */\n      0xffffffffffffffff\n        /* \"#utility.yul\":34307:34317   */\n      dup3\n        /* \"#utility.yul\":34304:34338   */\n      gt\n        /* \"#utility.yul\":34301:34363   */\n      or\n        /* \"#utility.yul\":34298:34386   */\n      iszero\n      tag_894\n      jumpi\n        /* \"#utility.yul\":34366:34384   */\n      tag_895\n      tag_836\n      jump\t// in\n    tag_895:\n        /* \"#utility.yul\":34298:34386   */\n    tag_894:\n        /* \"#utility.yul\":34406:34416   */\n      dup1\n        /* \"#utility.yul\":34402:34404   */\n      0x40\n        /* \"#utility.yul\":34395:34417   */\n      mstore\n        /* \"#utility.yul\":34185:34423   */\n      pop\n        /* \"#utility.yul\":34142:34423   */\n      pop\n      pop\n      jump\t// out\n        /* \"#utility.yul\":34429:34662   */\n    tag_116:\n        /* \"#utility.yul\":34468:34471   */\n      0x00\n        /* \"#utility.yul\":34491:34515   */\n      tag_897\n        /* \"#utility.yul\":34509:34514   */\n      dup3\n        /* \"#utility.yul\":34491:34515   */\n      tag_804\n      jump\t// in\n    tag_897:\n        /* \"#utility.yul\":34482:34515   */\n      swap2\n      pop\n        /* \"#utility.yul\":34537:34603   */\n      0xffffffffffffffffffffffffffffffffffffffffffffffffffffffffffffffff\n        /* \"#utility.yul\":34530:34535   */\n      dup3\n        /* \"#utility.yul\":34527:34604   */\n      eq\n        /* \"#utility.yul\":34524:34627   */\n      iszero\n      tag_898\n      jumpi\n        /* \"#utility.yul\":34607:34625   */\n      tag_899\n      tag_874\n      jump\t// in\n    tag_899:\n        /* \"#utility.yul\":34524:34627   */\n    tag_898:\n        /* \"#utility.yul\":34654:34655   */\n      0x01\n        /* \"#utility.yul\":34647:34652   */\n      dup3\n        /* \"#utility.yul\":34643:34656   */\n      add\n        /* \"#utility.yul\":34636:34656   */\n      swap1\n      pop\n        /* \"#utility.yul\":34429:34662   */\n      swap2\n      swap1\n      pop\n      jump\t// out\n        /* \"#utility.yul\":34668:34848   */\n    tag_874:\n        /* \"#utility.yul\":34716:34793   */\n      0x4e487b7100000000000000000000000000000000000000000000000000000000\n        /* \"#utility.yul\":34713:34714   */\n      0x00\n        /* \"#utility.yul\":34706:34794   */\n      mstore\n        /* \"#utility.yul\":34813:34817   */\n      0x11\n        /* \"#utility.yul\":34810:34811   */\n      0x04\n        /* \"#utility.yul\":34803:34818   */\n      mstore\n        /* \"#utility.yul\":34837:34841   */\n      0x24\n        /* \"#utility.yul\":34834:34835   */\n      0x00\n        /* \"#utility.yul\":34827:34842   */\n      revert\n        /* \"#utility.yul\":34854:35034   */\n    tag_891:\n        /* \"#utility.yul\":34902:34979   */\n      0x4e487b7100000000000000000000000000000000000000000000000000000000\n        /* \"#utility.yul\":34899:34900   */\n      0x00\n        /* \"#utility.yul\":34892:34980   */\n      mstore\n        /* \"#utility.yul\":34999:35003   */\n      0x22\n        /* \"#utility.yul\":34996:34997   */\n      0x04\n        /* \"#utility.yul\":34989:35004   */\n      mstore\n        /* \"#utility.yul\":35023:35027   */\n      0x24\n        /* \"#utility.yul\":35020:35021   */\n      0x00\n        /* \"#utility.yul\":35013:35028   */\n      revert\n        /* \"#utility.yul\":35040:35220   */\n    tag_71:\n        /* \"#utility.yul\":35088:35165   */\n      0x4e487b7100000000000000000000000000000000000000000000000000000000\n        /* \"#utility.yul\":35085:35086   */\n      0x00\n        /* \"#utility.yul\":35078:35166   */\n      mstore\n        /* \"#utility.yul\":35185:35189   */\n      0x32\n        /* \"#utility.yul\":35182:35183   */\n      0x04\n        /* \"#utility.yul\":35175:35190   */\n      mstore\n        /* \"#utility.yul\":35209:35213   */\n      0x24\n        /* \"#utility.yul\":35206:35207   */\n      0x00\n        /* \"#utility.yul\":35199:35214   */\n      revert\n        /* \"#utility.yul\":35226:35406   */\n    tag_836:\n        /* \"#utility.yul\":35274:35351   */\n      0x4e487b7100000000000000000000000000000000000000000000000000000000\n        /* \"#utility.yul\":35271:35272   */\n      0x00\n        /* \"#utility.yul\":35264:35352   */\n      mstore\n        /* \"#utility.yul\":35371:35375   */\n      0x41\n        /* \"#utility.yul\":35368:35369   */\n      0x04\n        /* \"#utility.yul\":35361:35376   */\n      mstore\n        /* \"#utility.yul\":35395:35399   */\n      0x24\n        /* \"#utility.yul\":35392:35393   */\n      0x00\n        /* \"#utility.yul\":35385:35400   */\n      revert\n        /* \"#utility.yul\":35412:35529   */\n    tag_548:\n        /* \"#utility.yul\":35521:35522   */\n      0x00\n        /* \"#utility.yul\":35518:35519   */\n      dup1\n        /* \"#utility.yul\":35511:35523   */\n      revert\n        /* \"#utility.yul\":35535:35652   */\n    tag_533:\n        /* \"#utility.yul\":35644:35645   */\n      0x00\n        /* \"#utility.yul\":35641:35642   */\n      dup1\n        /* \"#utility.yul\":35634:35646   */\n      revert\n        /* \"#utility.yul\":35658:35775   */\n    tag_565:\n        /* \"#utility.yul\":35767:35768   */\n      0x00\n        /* \"#utility.yul\":35764:35765   */\n      dup1\n        /* \"#utility.yul\":35757:35769   */\n      revert\n        /* \"#utility.yul\":35781:35898   */\n    tag_557:\n        /* \"#utility.yul\":35890:35891   */\n      0x00\n        /* \"#utility.yul\":35887:35888   */\n      dup1\n        /* \"#utility.yul\":35880:35892   */\n      revert\n        /* \"#utility.yul\":35904:36006   */\n    tag_735:\n        /* \"#utility.yul\":35945:35951   */\n      0x00\n        /* \"#utility.yul\":35996:35998   */\n      0x1f\n        /* \"#utility.yul\":35992:35999   */\n      not\n        /* \"#utility.yul\":35987:35989   */\n      0x1f\n        /* \"#utility.yul\":35980:35985   */\n      dup4\n        /* \"#utility.yul\":35976:35990   */\n      add\n        /* \"#utility.yul\":35972:36000   */\n      and\n        /* \"#utility.yul\":35962:36000   */\n      swap1\n      pop\n        /* \"#utility.yul\":35904:36006   */\n      swap2\n      swap1\n      pop\n      jump\t// out\n        /* \"#utility.yul\":36012:36176   */\n    tag_741:\n        /* \"#utility.yul\":36152:36168   */\n      0x552069736e27742061646d696e21000000000000000000000000000000000000\n        /* \"#utility.yul\":36148:36149   */\n      0x00\n        /* \"#utility.yul\":36140:36146   */\n      dup3\n        /* \"#utility.yul\":36136:36150   */\n      add\n        /* \"#utility.yul\":36129:36169   */\n      mstore\n        /* \"#utility.yul\":36012:36176   */\n      pop\n      jump\t// out\n        /* \"#utility.yul\":36182:36335   */\n    tag_746:\n        /* \"#utility.yul\":36322:36327   */\n      0x3130300000000000000000000000000000000000000000000000000000000000\n        /* \"#utility.yul\":36318:36319   */\n      0x00\n        /* \"#utility.yul\":36310:36316   */\n      dup3\n        /* \"#utility.yul\":36306:36320   */\n      add\n        /* \"#utility.yul\":36299:36328   */\n      mstore\n        /* \"#utility.yul\":36182:36335   */\n      pop\n      jump\t// out\n        /* \"#utility.yul\":36341:36509   */\n    tag_751:\n        /* \"#utility.yul\":36481:36501   */\n      0x552069736e277420726567697374726564210000000000000000000000000000\n        /* \"#utility.yul\":36477:36478   */\n      0x00\n        /* \"#utility.yul\":36469:36475   */\n      dup3\n        /* \"#utility.yul\":36465:36479   */\n      add\n        /* \"#utility.yul\":36458:36502   */\n      mstore\n        /* \"#utility.yul\":36341:36509   */\n      pop\n      jump\t// out\n        /* \"#utility.yul\":36515:36686   */\n    tag_756:\n        /* \"#utility.yul\":36655:36678   */\n      0x5520616c72656164792072656769737465726564210000000000000000000000\n        /* \"#utility.yul\":36651:36652   */\n      0x00\n        /* \"#utility.yul\":36643:36649   */\n      dup3\n        /* \"#utility.yul\":36639:36653   */\n      add\n        /* \"#utility.yul\":36632:36679   */\n      mstore\n        /* \"#utility.yul\":36515:36686   */\n      pop\n      jump\t// out\n        /* \"#utility.yul\":36692:36858   */\n    tag_761:\n        /* \"#utility.yul\":36832:36850   */\n      0x5520616c72656164792061646d696e2100000000000000000000000000000000\n        /* \"#utility.yul\":36828:36829   */\n      0x00\n        /* \"#utility.yul\":36820:36826   */\n      dup3\n        /* \"#utility.yul\":36816:36830   */\n      add\n        /* \"#utility.yul\":36809:36851   */\n      mstore\n        /* \"#utility.yul\":36692:36858   */\n      pop\n      jump\t// out\n        /* \"#utility.yul\":36864:37028   */\n    tag_766:\n        /* \"#utility.yul\":37004:37020   */\n      0x49742069736e27742073686f7021000000000000000000000000000000000000\n        /* \"#utility.yul\":37000:37001   */\n      0x00\n        /* \"#utility.yul\":36992:36998   */\n      dup3\n        /* \"#utility.yul\":36988:37002   */\n      add\n        /* \"#utility.yul\":36981:37021   */\n      mstore\n        /* \"#utility.yul\":36864:37028   */\n      pop\n      jump\t// out\n        /* \"#utility.yul\":37034:37196   */\n    tag_771:\n        /* \"#utility.yul\":37174:37188   */\n      0x53686f7020657869737473210000000000000000000000000000000000000000\n        /* \"#utility.yul\":37170:37171   */\n      0x00\n        /* \"#utility.yul\":37162:37168   */\n      dup3\n        /* \"#utility.yul\":37158:37172   */\n      add\n        /* \"#utility.yul\":37151:37189   */\n      mstore\n        /* \"#utility.yul\":37034:37196   */\n      pop\n      jump\t// out\n        /* \"#utility.yul\":37202:37355   */\n    tag_776:\n        /* \"#utility.yul\":37342:37347   */\n      0x3130310000000000000000000000000000000000000000000000000000000000\n        /* \"#utility.yul\":37338:37339   */\n      0x00\n        /* \"#utility.yul\":37330:37336   */\n      dup3\n        /* \"#utility.yul\":37326:37340   */\n      add\n        /* \"#utility.yul\":37319:37348   */\n      mstore\n        /* \"#utility.yul\":37202:37355   */\n      pop\n      jump\t// out\n        /* \"#utility.yul\":37361:37483   */\n    tag_539:\n        /* \"#utility.yul\":37434:37458   */\n      tag_918\n        /* \"#utility.yul\":37452:37457   */\n      dup2\n        /* \"#utility.yul\":37434:37458   */\n      tag_623\n      jump\t// in\n    tag_918:\n        /* \"#utility.yul\":37427:37432   */\n      dup2\n        /* \"#utility.yul\":37424:37459   */\n      eq\n        /* \"#utility.yul\":37414:37477   */\n      tag_919\n      jumpi\n        /* \"#utility.yul\":37473:37474   */\n      0x00\n        /* \"#utility.yul\":37470:37471   */\n      dup1\n        /* \"#utility.yul\":37463:37475   */\n      revert\n        /* \"#utility.yul\":37414:37477   */\n    tag_919:\n        /* \"#utility.yul\":37361:37483   */\n      pop\n      jump\t// out\n        /* \"#utility.yul\":37489:37605   */\n    tag_543:\n        /* \"#utility.yul\":37559:37580   */\n      tag_921\n        /* \"#utility.yul\":37574:37579   */\n      dup2\n        /* \"#utility.yul\":37559:37580   */\n      tag_725\n      jump\t// in\n    tag_921:\n        /* \"#utility.yul\":37552:37557   */\n      dup2\n        /* \"#utility.yul\":37549:37581   */\n      eq\n        /* \"#utility.yul\":37539:37599   */\n      tag_922\n      jumpi\n        /* \"#utility.yul\":37595:37596   */\n      0x00\n        /* \"#utility.yul\":37592:37593   */\n      dup1\n        /* \"#utility.yul\":37585:37597   */\n      revert\n        /* \"#utility.yul\":37539:37599   */\n    tag_922:\n        /* \"#utility.yul\":37489:37605   */\n      pop\n      jump\t// out\n        /* \"#utility.yul\":37611:37733   */\n    tag_553:\n        /* \"#utility.yul\":37684:37708   */\n      tag_924\n        /* \"#utility.yul\":37702:37707   */\n      dup2\n        /* \"#utility.yul\":37684:37708   */\n      tag_804\n      jump\t// in\n    tag_924:\n        /* \"#utility.yul\":37677:37682   */\n      dup2\n        /* \"#utility.yul\":37674:37709   */\n      eq\n        /* \"#utility.yul\":37664:37727   */\n      tag_925\n      jumpi\n        /* \"#utility.yul\":37723:37724   */\n      0x00\n        /* \"#utility.yul\":37720:37721   */\n      dup1\n        /* \"#utility.yul\":37713:37725   */\n      revert\n        /* \"#utility.yul\":37664:37727   */\n    tag_925:\n        /* \"#utility.yul\":37611:37733   */\n      pop\n      jump\t// out\n\n    auxdata: 0xa2646970667358221220c3c62ba00d834c11034e0ad26e2052847e9acf4404d0c8cb229ab00460fa3e7e64736f6c63430008070033\n}\n",
				"bytecode": {
					"linkReferences": {},
					"object": "60806040523480156200001157600080fd5b5062000039730ac6a47e90449df6eecf99e27ed9baf8c358bca96000620000b460201b60201c565b6200006073a25b3d29531d6cd15d9d3b6f387520ab371c11616001620000b460201b60201c565b6200008773c54259ce11383c35d82bd22ffd730f9764bc5a446002620000b460201b60201c565b620000ae73f4ee813a8c8214fc058636e31e670213cfc183b56002620000b460201b60201c565b62000446565b8160005b60018054905081101562000196578173ffffffffffffffffffffffffffffffffffffffff1660018281548110620000f457620000f3620003c5565b5b906000526020600020906003020160000160009054906101000a900473ffffffffffffffffffffffffffffffffffffffff1673ffffffffffffffffffffffffffffffffffffffff16141562000180576040517f08c379a000000000000000000000000000000000000000000000000000000000815260040162000177906200030b565b60405180910390fd5b80806200018d9062000348565b915050620000b8565b5060038210620001dd576040517f08c379a0000000000000000000000000000000000000000000000000000000008152600401620001d490620002e9565b60405180910390fd5b600160405180606001604052808573ffffffffffffffffffffffffffffffffffffffff16815260200184815260200184815250908060018154018082558091505060019003906000526020600020906003020160009091909190915060008201518160000160006101000a81548173ffffffffffffffffffffffffffffffffffffffff021916908373ffffffffffffffffffffffffffffffffffffffff16021790555060208201518160010155604082015181600201555050505050565b6000620002aa6016836200032d565b9150620002b782620003f4565b602082019050919050565b6000620002d16015836200032d565b9150620002de826200041d565b602082019050919050565b6000602082019050818103600083015262000304816200029b565b9050919050565b600060208201905081810360008301526200032681620002c2565b9050919050565b600082825260208201905092915050565b6000819050919050565b600062000355826200033e565b91507fffffffffffffffffffffffffffffffffffffffffffffffffffffffffffffffff8214156200038b576200038a62000396565b5b600182019050919050565b7f4e487b7100000000000000000000000000000000000000000000000000000000600052601160045260246000fd5b7f4e487b7100000000000000000000000000000000000000000000000000000000600052603260045260246000fd5b7f5468697320726f6c652069736e27742065786973747300000000000000000000600082015250565b7f5520616c72656164792072656769737465726564210000000000000000000000600082015250565b61384580620004566000396000f3fe608060405234801561001057600080fd5b50600436106100e95760003560e01c80633efdebf11161008c57806366b2f7911161006657806366b2f791146101d457806370480275146101f0578063ab122ef51461020c578063ad81f80314610228576100e9565b80633efdebf1146101925780634384a79f146101ae57806349b15962146101ca576100e9565b8063240185b6116100c8578063240185b6146101425780632bd2cd50146101605780632e91d7061461017e5780633b95a23f14610188576100e9565b806282f88e146100ee5780631a0550e31461010a5780631c618eb314610126575b600080fd5b6101086004803603810190610103919061290c565b610246565b005b610124600480360381019061011f919061288c565b610459565b005b610140600480360381019061013b9190612830565b6107ba565b005b61014a610cc1565b60405161015791906130e1565b60405180910390f35b610168611290565b60405161017591906130bf565b60405180910390f35b61018661135c565b005b610190611527565b005b6101ac60048036038101906101a7919061288c565b6116be565b005b6101c860048036038101906101c391906128b9565b61185c565b005b6101d2611a70565b005b6101ee60048036038101906101e9919061297b565b611c4f565b005b61020a60048036038101906102059190612803565b611e87565b005b6102266004803603810190610221919061290c565b6121b7565b005b6102306123f8565b60405161023d9190613103565b60405180910390f35b6000838154811061025a576102596135ff565b5b906000526020600020906004020160020160018160018154018082558091505003906000526020600020905050336000848154811061029c5761029b6135ff565b5b90600052602060002090600402016002016001600086815481106102c3576102c26135ff565b5b9060005260206000209060040201600201805490506102e29190613437565b815481106102f3576102f26135ff565b5b906000526020600020906005020160000160006101000a81548173ffffffffffffffffffffffffffffffffffffffff021916908373ffffffffffffffffffffffffffffffffffffffff1602179055508160008481548110610357576103566135ff565b5b906000526020600020906004020160020160016000868154811061037e5761037d6135ff565b5b90600052602060002090600402016002018054905061039d9190613437565b815481106103ae576103ad6135ff565b5b90600052602060002090600502016001018190555080600084815481106103d8576103d76135ff565b5b90600052602060002090600402016002016001600086815481106103ff576103fe6135ff565b5b90600052602060002090600402016002018054905061041e9190613437565b8154811061042f5761042e6135ff565b5b906000526020600020906005020160040190805190602001906104539291906124c1565b50505050565b336000805b600180549050811015610500578273ffffffffffffffffffffffffffffffffffffffff1660018281548110610496576104956135ff565b5b906000526020600020906003020160000160009054906101000a900473ffffffffffffffffffffffffffffffffffffffff1673ffffffffffffffffffffffffffffffffffffffff1614156104ed5760019150610500565b80806104f890613558565b91505061045e565b508015610542576040517f08c379a000000000000000000000000000000000000000000000000000000000815260040161053990613165565b60405180910390fd5b3360005b60018054905081101561064c578173ffffffffffffffffffffffffffffffffffffffff166001828154811061057e5761057d6135ff565b5b906000526020600020906003020160000160009054906101000a900473ffffffffffffffffffffffffffffffffffffffff1673ffffffffffffffffffffffffffffffffffffffff161415610639576000600182815481106105e2576105e16135ff565b5b90600052602060002090600302016002015414610634576040517f08c379a000000000000000000000000000000000000000000000000000000000815260040161062b90613125565b60405180910390fd5b61064c565b808061064490613558565b915050610546565b5060005b6001805490508110156107b35760028581548110610671576106706135ff565b5b9060005260206000200160000160009054906101000a900473ffffffffffffffffffffffffffffffffffffffff1673ffffffffffffffffffffffffffffffffffffffff16600182815481106106c9576106c86135ff565b5b906000526020600020906003020160000160009054906101000a900473ffffffffffffffffffffffffffffffffffffffff1673ffffffffffffffffffffffffffffffffffffffff1614156107a057600180828154811061072c5761072b6135ff565b5b90600052602060002090600302016001015414156107745760026001828154811061075a576107596135ff565b5b90600052602060002090600302016001018190555061079f565b6001808281548110610789576107886135ff565b5b9060005260206000209060030201600101819055505b5b80806107ab90613558565b915050610650565b5050505050565b336000805b600180549050811015610861578273ffffffffffffffffffffffffffffffffffffffff16600182815481106107f7576107f66135ff565b5b906000526020600020906003020160000160009054906101000a900473ffffffffffffffffffffffffffffffffffffffff1673ffffffffffffffffffffffffffffffffffffffff16141561084e5760019150610861565b808061085990613558565b9150506107bf565b5080156108a3576040517f08c379a000000000000000000000000000000000000000000000000000000000815260040161089a90613165565b60405180910390fd5b3360005b6001805490508110156109ad578173ffffffffffffffffffffffffffffffffffffffff16600182815481106108df576108de6135ff565b5b906000526020600020906003020160000160009054906101000a900473ffffffffffffffffffffffffffffffffffffffff1673ffffffffffffffffffffffffffffffffffffffff16141561099a57600060018281548110610943576109426135ff565b5b90600052602060002090600302016002015414610995576040517f08c379a000000000000000000000000000000000000000000000000000000000815260040161098c90613125565b60405180910390fd5b6109ad565b80806109a590613558565b9150506108a7565b508460005b600180549050811015610a86578173ffffffffffffffffffffffffffffffffffffffff16600182815481106109ea576109e96135ff565b5b906000526020600020906003020160000160009054906101000a900473ffffffffffffffffffffffffffffffffffffffff1673ffffffffffffffffffffffffffffffffffffffff161415610a73576040517f08c379a0000000000000000000000000000000000000000000000000000000008152600401610a6a90613185565b60405180910390fd5b8080610a7e90613558565b9150506109b2565b508560005b600180549050811015610b5f578173ffffffffffffffffffffffffffffffffffffffff1660018281548110610ac357610ac26135ff565b5b906000526020600020906003020160000160009054906101000a900473ffffffffffffffffffffffffffffffffffffffff1673ffffffffffffffffffffffffffffffffffffffff161415610b4c576040517f08c379a0000000000000000000000000000000000000000000000000000000008152600401610b43906131c5565b60405180910390fd5b8080610b5790613558565b915050610a8b565b5060005b600080549050811015610c37578173ffffffffffffffffffffffffffffffffffffffff1660008281548110610b9b57610b9a6135ff565b5b906000526020600020906004020160000160009054906101000a900473ffffffffffffffffffffffffffffffffffffffff1673ffffffffffffffffffffffffffffffffffffffff161415610c24576040517f08c379a0000000000000000000000000000000000000000000000000000000008152600401610c1b906131e5565b60405180910390fd5b8080610c2f90613558565b915050610b63565b506000806001816001815401808255809150500390600052602060002090600402019050878160000160006101000a81548173ffffffffffffffffffffffffffffffffffffffff021916908373ffffffffffffffffffffffffffffffffffffffff16021790555086816001019080519060200190610cb69291906124c1565b505050505050505050565b60606000805480602002602001604051908101604052809291908181526020016000905b8282101561128757838290600052602060002090600402016040518060800160405290816000820160009054906101000a900473ffffffffffffffffffffffffffffffffffffffff1673ffffffffffffffffffffffffffffffffffffffff1673ffffffffffffffffffffffffffffffffffffffff168152602001600182018054610d6e906134f5565b80601f0160208091040260200160405190810160405280929190818152602001828054610d9a906134f5565b8015610de75780601f10610dbc57610100808354040283529160200191610de7565b820191906000526020600020905b815481529060010190602001808311610dca57829003601f168201915b5050505050815260200160028201805480602002602001604051908101604052809291908181526020016000905b8282101561121857838290600052602060002090600502016040518060a00160405290816000820160009054906101000a900473ffffffffffffffffffffffffffffffffffffffff1673ffffffffffffffffffffffffffffffffffffffff1673ffffffffffffffffffffffffffffffffffffffff1681526020016001820154815260200160028201805480602002602001604051908101604052809291908181526020016000905b82821015610f5c578382906000526020600020016040518060400160405290816000820160009054906101000a900473ffffffffffffffffffffffffffffffffffffffff1673ffffffffffffffffffffffffffffffffffffffff1673ffffffffffffffffffffffffffffffffffffffff1681526020016000820160149054906101000a900460ff16151515158152505081526020019060010190610ebd565b50505050815260200160038201805480602002602001604051908101604052809291908181526020016000905b8282101561116f57838290600052602060002090600302016040518060600160405290816000820160009054906101000a900473ffffffffffffffffffffffffffffffffffffffff1673ffffffffffffffffffffffffffffffffffffffff1673ffffffffffffffffffffffffffffffffffffffff16815260200160018201805480602002602001604051908101604052809291908181526020016000905b828210156110c6578382906000526020600020016040518060400160405290816000820160009054906101000a900473ffffffffffffffffffffffffffffffffffffffff1673ffffffffffffffffffffffffffffffffffffffff1673ffffffffffffffffffffffffffffffffffffffff1681526020016000820160149054906101000a900460ff16151515158152505081526020019060010190611027565b5050505081526020016002820180546110de906134f5565b80601f016020809104026020016040519081016040528092919081815260200182805461110a906134f5565b80156111575780601f1061112c57610100808354040283529160200191611157565b820191906000526020600020905b81548152906001019060200180831161113a57829003601f168201915b50505050508152505081526020019060010190610f89565b505050508152602001600482018054611187906134f5565b80601f01602080910402602001604051908101604052809291908181526020018280546111b3906134f5565b80156112005780601f106111d557610100808354040283529160200191611200565b820191906000526020600020905b8154815290600101906020018083116111e357829003601f168201915b50505050508152505081526020019060010190610e15565b5050505081526020016003820180548060200260200160405190810160405280929190818152602001828054801561126f57602002820191906000526020600020905b81548152602001906001019080831161125b575b50505050508152505081526020019060010190610ce5565b50505050905090565b60606002805480602002602001604051908101604052809291908181526020016000905b82821015611353578382906000526020600020016040518060400160405290816000820160009054906101000a900473ffffffffffffffffffffffffffffffffffffffff1673ffffffffffffffffffffffffffffffffffffffff1673ffffffffffffffffffffffffffffffffffffffff1681526020016000820160149054906101000a900460ff161515151581525050815260200190600101906112b4565b50505050905090565b60005b60018054905081101561152457600060018281548110611382576113816135ff565b5b90600052602060002090600302016001015414156113d5576040517f08c379a00000000000000000000000000000000000000000000000000000000081526004016113cc90613205565b60405180910390fd5b3373ffffffffffffffffffffffffffffffffffffffff1660018281548110611400576113ff6135ff565b5b906000526020600020906003020160000160009054906101000a900473ffffffffffffffffffffffffffffffffffffffff1673ffffffffffffffffffffffffffffffffffffffff16141561151157600260405180604001604052803373ffffffffffffffffffffffffffffffffffffffff168152602001600015158152509080600181540180825580915050600190039060005260206000200160009091909190915060008201518160000160006101000a81548173ffffffffffffffffffffffffffffffffffffffff021916908373ffffffffffffffffffffffffffffffffffffffff16021790555060208201518160000160146101000a81548160ff0219169083151502179055505050611524565b808061151c90613558565b91505061135f565b50565b3360005b6001805490508110156115ff578173ffffffffffffffffffffffffffffffffffffffff1660018281548110611563576115626135ff565b5b906000526020600020906003020160000160009054906101000a900473ffffffffffffffffffffffffffffffffffffffff1673ffffffffffffffffffffffffffffffffffffffff1614156115ec576040517f08c379a00000000000000000000000000000000000000000000000000000000081526004016115e390613185565b60405180910390fd5b80806115f790613558565b91505061152b565b50600160405180606001604052803373ffffffffffffffffffffffffffffffffffffffff168152602001600281526020016002815250908060018154018082558091505060019003906000526020600020906003020160009091909190915060008201518160000160006101000a81548173ffffffffffffffffffffffffffffffffffffffff021916908373ffffffffffffffffffffffffffffffffffffffff1602179055506020820151816001015560408201518160020155505050565b60005b600082815481106116d5576116d46135ff565b5b9060005260206000209060040201600301805490508110156117dc576002600160008481548110611709576117086135ff565b5b9060005260206000209060040201600301838154811061172c5761172b6135ff565b5b906000526020600020015481548110611748576117476135ff565b5b9060005260206000209060030201600101819055506002600160008481548110611775576117746135ff565b5b90600052602060002090600402016003018381548110611798576117976135ff565b5b9060005260206000200154815481106117b4576117b36135ff565b5b90600052602060002090600302016002018190555080806117d490613558565b9150506116c1565b50600081815481106117f1576117f06135ff565b5b9060005260206000209060040201600080820160006101000a81549073ffffffffffffffffffffffffffffffffffffffff02191690556001820160006118379190612547565b6002820160006118479190612587565b60038201600061185791906125ab565b505050565b3360005b600180549050811015611966578173ffffffffffffffffffffffffffffffffffffffff1660018281548110611898576118976135ff565b5b906000526020600020906003020160000160009054906101000a900473ffffffffffffffffffffffffffffffffffffffff1673ffffffffffffffffffffffffffffffffffffffff161415611953576002600182815481106118fc576118fb6135ff565b5b9060005260206000209060030201600101541461194e576040517f08c379a000000000000000000000000000000000000000000000000000000000815260040161194590613125565b60405180910390fd5b611966565b808061195e90613558565b915050611860565b506000848154811061197b5761197a6135ff565b5b9060005260206000209060040201600201838154811061199e5761199d6135ff565b5b906000526020600020906005020160020160405180604001604052803373ffffffffffffffffffffffffffffffffffffffff1681526020018415158152509080600181540180825580915050600190039060005260206000200160009091909190915060008201518160000160006101000a81548173ffffffffffffffffffffffffffffffffffffffff021916908373ffffffffffffffffffffffffffffffffffffffff16021790555060208201518160000160146101000a81548160ff021916908315150217905550505050505050565b60005b600180549050811015611c4c57600260018281548110611a9657611a956135ff565b5b9060005260206000209060030201600101541415611ae9576040517f08c379a0000000000000000000000000000000000000000000000000000000008152600401611ae090613145565b60405180910390fd5b3373ffffffffffffffffffffffffffffffffffffffff1660018281548110611b1457611b136135ff565b5b906000526020600020906003020160000160009054906101000a900473ffffffffffffffffffffffffffffffffffffffff1673ffffffffffffffffffffffffffffffffffffffff161415611c395760018181548110611b7657611b756135ff565b5b90600052602060002090600302016002015460018281548110611b9c57611b9b6135ff565b5b9060005260206000209060030201600101541415611be457600260018281548110611bca57611bc96135ff565b5b906000526020600020906003020160020181905550611c34565b60018181548110611bf857611bf76135ff565b5b90600052602060002090600302016001015460018281548110611c1e57611c1d6135ff565b5b9060005260206000209060030201600201819055505b611c4c565b8080611c4490613558565b915050611a73565b50565b3360005b600180549050811015611d59578173ffffffffffffffffffffffffffffffffffffffff1660018281548110611c8b57611c8a6135ff565b5b906000526020600020906003020160000160009054906101000a900473ffffffffffffffffffffffffffffffffffffffff1673ffffffffffffffffffffffffffffffffffffffff161415611d4657600260018281548110611cef57611cee6135ff565b5b90600052602060002090600302016001015414611d41576040517f08c379a0000000000000000000000000000000000000000000000000000000008152600401611d3890613125565b60405180910390fd5b611d59565b8080611d5190613558565b915050611c53565b5060008581548110611d6e57611d6d6135ff565b5b90600052602060002090600402016002018481548110611d9157611d906135ff565b5b90600052602060002090600502016003018381548110611db457611db36135ff565b5b906000526020600020906003020160010160405180604001604052803373ffffffffffffffffffffffffffffffffffffffff1681526020018415158152509080600181540180825580915050600190039060005260206000200160009091909190915060008201518160000160006101000a81548173ffffffffffffffffffffffffffffffffffffffff021916908373ffffffffffffffffffffffffffffffffffffffff16021790555060208201518160000160146101000a81548160ff02191690831515021790555050505050505050565b336000805b600180549050811015611f2e578273ffffffffffffffffffffffffffffffffffffffff1660018281548110611ec457611ec36135ff565b5b906000526020600020906003020160000160009054906101000a900473ffffffffffffffffffffffffffffffffffffffff1673ffffffffffffffffffffffffffffffffffffffff161415611f1b5760019150611f2e565b8080611f2690613558565b915050611e8c565b508015611f70576040517f08c379a0000000000000000000000000000000000000000000000000000000008152600401611f6790613165565b60405180910390fd5b3360005b60018054905081101561207a578173ffffffffffffffffffffffffffffffffffffffff1660018281548110611fac57611fab6135ff565b5b906000526020600020906003020160000160009054906101000a900473ffffffffffffffffffffffffffffffffffffffff1673ffffffffffffffffffffffffffffffffffffffff161415612067576000600182815481106120105761200f6135ff565b5b90600052602060002090600302016002015414612062576040517f08c379a000000000000000000000000000000000000000000000000000000000815260040161205990613125565b60405180910390fd5b61207a565b808061207290613558565b915050611f74565b5060005b6001805490508110156121b0578473ffffffffffffffffffffffffffffffffffffffff16600182815481106120b6576120b56135ff565b5b906000526020600020906003020160000160009054906101000a900473ffffffffffffffffffffffffffffffffffffffff1673ffffffffffffffffffffffffffffffffffffffff16141561219d5760006001828154811061211a576121196135ff565b5b906000526020600020906003020160010154141561216d576040517f08c379a0000000000000000000000000000000000000000000000000000000008152600401612164906131a5565b60405180910390fd5b600060018281548110612183576121826135ff565b5b9060005260206000209060030201600101819055506121b0565b80806121a890613558565b91505061207e565b5050505050565b600083815481106121cb576121ca6135ff565b5b906000526020600020906004020160020182815481106121ee576121ed6135ff565b5b90600052602060002090600502016003016001816001815401808255809150500390600052602060002090505033600084815481106122305761222f6135ff565b5b90600052602060002090600402016002018381548110612253576122526135ff565b5b906000526020600020906005020160030160016000868154811061227a576122796135ff565b5b9060005260206000209060040201600201858154811061229d5761229c6135ff565b5b9060005260206000209060050201600301805490506122bc9190613437565b815481106122cd576122cc6135ff565b5b906000526020600020906003020160000160006101000a81548173ffffffffffffffffffffffffffffffffffffffff021916908373ffffffffffffffffffffffffffffffffffffffff1602179055508060008481548110612331576123306135ff565b5b90600052602060002090600402016002018381548110612354576123536135ff565b5b906000526020600020906005020160030160016000868154811061237b5761237a6135ff565b5b9060005260206000209060040201600201858154811061239e5761239d6135ff565b5b9060005260206000209060050201600301805490506123bd9190613437565b815481106123ce576123cd6135ff565b5b906000526020600020906003020160020190805190602001906123f29291906124c1565b50505050565b60606001805480602002602001604051908101604052809291908181526020016000905b828210156124b857838290600052602060002090600302016040518060600160405290816000820160009054906101000a900473ffffffffffffffffffffffffffffffffffffffff1673ffffffffffffffffffffffffffffffffffffffff1673ffffffffffffffffffffffffffffffffffffffff168152602001600182015481526020016002820154815250508152602001906001019061241c565b50505050905090565b8280546124cd906134f5565b90600052602060002090601f0160209004810192826124ef5760008555612536565b82601f1061250857805160ff1916838001178555612536565b82800160010185558215612536579182015b8281111561253557825182559160200191906001019061251a565b5b50905061254391906125cc565b5090565b508054612553906134f5565b6000825580601f106125655750612584565b601f01602090049060005260206000209081019061258391906125cc565b5b50565b50805460008255600502906000526020600020908101906125a891906125e9565b50565b50805460008255906000526020600020908101906125c991906125cc565b50565b5b808211156125e55760008160009055506001016125cd565b5090565b5b8082111561265b57600080820160006101000a81549073ffffffffffffffffffffffffffffffffffffffff02191690556001820160009055600282016000612632919061265f565b6003820160006126429190612680565b6004820160006126529190612547565b506005016125ea565b5090565b508054600082559060005260206000209081019061267d91906126a4565b50565b50805460008255600302906000526020600020908101906126a191906126f6565b50565b5b808211156126f257600080820160006101000a81549073ffffffffffffffffffffffffffffffffffffffff02191690556000820160146101000a81549060ff0219169055506001016126a5565b5090565b5b8082111561275057600080820160006101000a81549073ffffffffffffffffffffffffffffffffffffffff0219169055600182016000612737919061265f565b6002820160006127479190612547565b506003016126f7565b5090565b60006127676127628461324a565b613225565b90508281526020810184848401111561278357612782613662565b5b61278e8482856134b3565b509392505050565b6000813590506127a5816137ca565b92915050565b6000813590506127ba816137e1565b92915050565b600082601f8301126127d5576127d461365d565b5b81356127e5848260208601612754565b91505092915050565b6000813590506127fd816137f8565b92915050565b6000602082840312156128195761281861366c565b5b600061282784828501612796565b91505092915050565b600080604083850312156128475761284661366c565b5b600061285585828601612796565b925050602083013567ffffffffffffffff81111561287657612875613667565b5b612882858286016127c0565b9150509250929050565b6000602082840312156128a2576128a161366c565b5b60006128b0848285016127ee565b91505092915050565b6000806000606084860312156128d2576128d161366c565b5b60006128e0868287016127ee565b93505060206128f1868287016127ee565b9250506040612902868287016127ab565b9150509250925092565b6000806000606084860312156129255761292461366c565b5b6000612933868287016127ee565b9350506020612944868287016127ee565b925050604084013567ffffffffffffffff81111561296557612964613667565b5b612971868287016127c0565b9150509250925092565b600080600080608085870312156129955761299461366c565b5b60006129a3878288016127ee565b94505060206129b4878288016127ee565b93505060406129c5878288016127ee565b92505060606129d6878288016127ab565b91505092959194509250565b60006129ee8383612ec4565b905092915050565b6000612a028383612f1b565b60408301905092915050565b6000612a1a8383612f4a565b905092915050565b6000612a2e8383612fce565b60408301905092915050565b6000612a468383612ffd565b905092915050565b6000612a5a838361306e565b60608301905092915050565b6000612a7283836130b0565b60208301905092915050565b612a878161346b565b82525050565b6000612a98826132eb565b612aa2818561339e565b935083602082028501612ab48561327b565b8060005b85811015612af05784840389528151612ad185826129e2565b9450612adc83613343565b925060208a01995050600181019050612ab8565b50829750879550505050505092915050565b6000612b0d826132f6565b612b1781856133af565b9350612b228361328b565b8060005b83811015612b53578151612b3a88826129f6565b9750612b4583613350565b925050600181019050612b26565b5085935050505092915050565b6000612b6b82613301565b612b7581856133c0565b935083602082028501612b878561329b565b8060005b85811015612bc35784840389528151612ba48582612a0e565b9450612baf8361335d565b925060208a01995050600181019050612b8b565b50829750879550505050505092915050565b6000612be08261330c565b612bea81856133d1565b9350612bf5836132ab565b8060005b83811015612c26578151612c0d8882612a22565b9750612c188361336a565b925050600181019050612bf9565b5085935050505092915050565b6000612c3e82613317565b612c4881856133e2565b935083602082028501612c5a856132bb565b8060005b85811015612c965784840389528151612c778582612a3a565b9450612c8283613377565b925060208a01995050600181019050612c5e565b50829750879550505050505092915050565b6000612cb382613322565b612cbd81856133f3565b9350612cc8836132cb565b8060005b83811015612cf9578151612ce08882612a4e565b9750612ceb83613384565b925050600181019050612ccc565b5085935050505092915050565b6000612d118261332d565b612d1b8185613404565b9350612d26836132db565b8060005b83811015612d57578151612d3e8882612a66565b9750612d4983613391565b925050600181019050612d2a565b5085935050505092915050565b612d6d8161347d565b82525050565b6000612d7e82613338565b612d888185613415565b9350612d988185602086016134c2565b612da181613671565b840191505092915050565b6000612db9600e83613426565b9150612dc482613682565b602082019050919050565b6000612ddc600383613426565b9150612de7826136ab565b602082019050919050565b6000612dff601283613426565b9150612e0a826136d4565b602082019050919050565b6000612e22601583613426565b9150612e2d826136fd565b602082019050919050565b6000612e45601083613426565b9150612e5082613726565b602082019050919050565b6000612e68600e83613426565b9150612e738261374f565b602082019050919050565b6000612e8b600c83613426565b9150612e9682613778565b602082019050919050565b6000612eae600383613426565b9150612eb9826137a1565b602082019050919050565b6000606083016000830151612edc6000860182612a7e565b5060208301518482036020860152612ef48282612b02565b91505060408301518482036040860152612f0e8282612d73565b9150508091505092915050565b604082016000820151612f316000850182612a7e565b506020820151612f446020850182612d64565b50505050565b600060a083016000830151612f626000860182612a7e565b506020830151612f7560208601826130b0565b5060408301518482036040860152612f8d8282612b02565b91505060608301518482036060860152612fa78282612a8d565b91505060808301518482036080860152612fc18282612d73565b9150508091505092915050565b604082016000820151612fe46000850182612a7e565b506020820151612ff76020850182612d64565b50505050565b60006080830160008301516130156000860182612a7e565b506020830151848203602086015261302d8282612d73565b915050604083015184820360408601526130478282612b60565b915050606083015184820360608601526130618282612d06565b9150508091505092915050565b6060820160008201516130846000850182612a7e565b50602082015161309760208501826130b0565b5060408201516130aa60408501826130b0565b50505050565b6130b9816134a9565b82525050565b600060208201905081810360008301526130d98184612bd5565b905092915050565b600060208201905081810360008301526130fb8184612c33565b905092915050565b6000602082019050818103600083015261311d8184612ca8565b905092915050565b6000602082019050818103600083015261313e81612dac565b9050919050565b6000602082019050818103600083015261315e81612dcf565b9050919050565b6000602082019050818103600083015261317e81612df2565b9050919050565b6000602082019050818103600083015261319e81612e15565b9050919050565b600060208201905081810360008301526131be81612e38565b9050919050565b600060208201905081810360008301526131de81612e5b565b9050919050565b600060208201905081810360008301526131fe81612e7e565b9050919050565b6000602082019050818103600083015261321e81612ea1565b9050919050565b600061322f613240565b905061323b8282613527565b919050565b6000604051905090565b600067ffffffffffffffff8211156132655761326461362e565b5b61326e82613671565b9050602081019050919050565b6000819050602082019050919050565b6000819050602082019050919050565b6000819050602082019050919050565b6000819050602082019050919050565b6000819050602082019050919050565b6000819050602082019050919050565b6000819050602082019050919050565b600081519050919050565b600081519050919050565b600081519050919050565b600081519050919050565b600081519050919050565b600081519050919050565b600081519050919050565b600081519050919050565b6000602082019050919050565b6000602082019050919050565b6000602082019050919050565b6000602082019050919050565b6000602082019050919050565b6000602082019050919050565b6000602082019050919050565b600082825260208201905092915050565b600082825260208201905092915050565b600082825260208201905092915050565b600082825260208201905092915050565b600082825260208201905092915050565b600082825260208201905092915050565b600082825260208201905092915050565b600082825260208201905092915050565b600082825260208201905092915050565b6000613442826134a9565b915061344d836134a9565b9250828210156134605761345f6135a1565b5b828203905092915050565b600061347682613489565b9050919050565b60008115159050919050565b600073ffffffffffffffffffffffffffffffffffffffff82169050919050565b6000819050919050565b82818337600083830152505050565b60005b838110156134e05780820151818401526020810190506134c5565b838111156134ef576000848401525b50505050565b6000600282049050600182168061350d57607f821691505b60208210811415613521576135206135d0565b5b50919050565b61353082613671565b810181811067ffffffffffffffff8211171561354f5761354e61362e565b5b80604052505050565b6000613563826134a9565b91507fffffffffffffffffffffffffffffffffffffffffffffffffffffffffffffffff821415613596576135956135a1565b5b600182019050919050565b7f4e487b7100000000000000000000000000000000000000000000000000000000600052601160045260246000fd5b7f4e487b7100000000000000000000000000000000000000000000000000000000600052602260045260246000fd5b7f4e487b7100000000000000000000000000000000000000000000000000000000600052603260045260246000fd5b7f4e487b7100000000000000000000000000000000000000000000000000000000600052604160045260246000fd5b600080fd5b600080fd5b600080fd5b600080fd5b6000601f19601f8301169050919050565b7f552069736e27742061646d696e21000000000000000000000000000000000000600082015250565b7f3130300000000000000000000000000000000000000000000000000000000000600082015250565b7f552069736e277420726567697374726564210000000000000000000000000000600082015250565b7f5520616c72656164792072656769737465726564210000000000000000000000600082015250565b7f5520616c72656164792061646d696e2100000000000000000000000000000000600082015250565b7f49742069736e27742073686f7021000000000000000000000000000000000000600082015250565b7f53686f7020657869737473210000000000000000000000000000000000000000600082015250565b7f3130310000000000000000000000000000000000000000000000000000000000600082015250565b6137d38161346b565b81146137de57600080fd5b50565b6137ea8161347d565b81146137f557600080fd5b50565b613801816134a9565b811461380c57600080fd5b5056fea2646970667358221220c3c62ba00d834c11034e0ad26e2052847e9acf4404d0c8cb229ab00460fa3e7e64736f6c63430008070033",
					"opcodes": "PUSH1 0x80 PUSH1 0x40 MSTORE CALLVALUE DUP1 ISZERO PUSH3 0x11 JUMPI PUSH1 0x0 DUP1 REVERT JUMPDEST POP PUSH3 0x39 PUSH20 0xAC6A47E90449DF6EECF99E27ED9BAF8C358BCA9 PUSH1 0x0 PUSH3 0xB4 PUSH1 0x20 SHL PUSH1 0x20 SHR JUMP JUMPDEST PUSH3 0x60 PUSH20 0xA25B3D29531D6CD15D9D3B6F387520AB371C1161 PUSH1 0x1 PUSH3 0xB4 PUSH1 0x20 SHL PUSH1 0x20 SHR JUMP JUMPDEST PUSH3 0x87 PUSH20 0xC54259CE11383C35D82BD22FFD730F9764BC5A44 PUSH1 0x2 PUSH3 0xB4 PUSH1 0x20 SHL PUSH1 0x20 SHR JUMP JUMPDEST PUSH3 0xAE PUSH20 0xF4EE813A8C8214FC058636E31E670213CFC183B5 PUSH1 0x2 PUSH3 0xB4 PUSH1 0x20 SHL PUSH1 0x20 SHR JUMP JUMPDEST PUSH3 0x446 JUMP JUMPDEST DUP2 PUSH1 0x0 JUMPDEST PUSH1 0x1 DUP1 SLOAD SWAP1 POP DUP2 LT ISZERO PUSH3 0x196 JUMPI DUP2 PUSH20 0xFFFFFFFFFFFFFFFFFFFFFFFFFFFFFFFFFFFFFFFF AND PUSH1 0x1 DUP3 DUP2 SLOAD DUP2 LT PUSH3 0xF4 JUMPI PUSH3 0xF3 PUSH3 0x3C5 JUMP JUMPDEST JUMPDEST SWAP1 PUSH1 0x0 MSTORE PUSH1 0x20 PUSH1 0x0 KECCAK256 SWAP1 PUSH1 0x3 MUL ADD PUSH1 0x0 ADD PUSH1 0x0 SWAP1 SLOAD SWAP1 PUSH2 0x100 EXP SWAP1 DIV PUSH20 0xFFFFFFFFFFFFFFFFFFFFFFFFFFFFFFFFFFFFFFFF AND PUSH20 0xFFFFFFFFFFFFFFFFFFFFFFFFFFFFFFFFFFFFFFFF AND EQ ISZERO PUSH3 0x180 JUMPI PUSH1 0x40 MLOAD PUSH32 0x8C379A000000000000000000000000000000000000000000000000000000000 DUP2 MSTORE PUSH1 0x4 ADD PUSH3 0x177 SWAP1 PUSH3 0x30B JUMP JUMPDEST PUSH1 0x40 MLOAD DUP1 SWAP2 SUB SWAP1 REVERT JUMPDEST DUP1 DUP1 PUSH3 0x18D SWAP1 PUSH3 0x348 JUMP JUMPDEST SWAP2 POP POP PUSH3 0xB8 JUMP JUMPDEST POP PUSH1 0x3 DUP3 LT PUSH3 0x1DD JUMPI PUSH1 0x40 MLOAD PUSH32 0x8C379A000000000000000000000000000000000000000000000000000000000 DUP2 MSTORE PUSH1 0x4 ADD PUSH3 0x1D4 SWAP1 PUSH3 0x2E9 JUMP JUMPDEST PUSH1 0x40 MLOAD DUP1 SWAP2 SUB SWAP1 REVERT JUMPDEST PUSH1 0x1 PUSH1 0x40 MLOAD DUP1 PUSH1 0x60 ADD PUSH1 0x40 MSTORE DUP1 DUP6 PUSH20 0xFFFFFFFFFFFFFFFFFFFFFFFFFFFFFFFFFFFFFFFF AND DUP2 MSTORE PUSH1 0x20 ADD DUP5 DUP2 MSTORE PUSH1 0x20 ADD DUP5 DUP2 MSTORE POP SWAP1 DUP1 PUSH1 0x1 DUP2 SLOAD ADD DUP1 DUP3 SSTORE DUP1 SWAP2 POP POP PUSH1 0x1 SWAP1 SUB SWAP1 PUSH1 0x0 MSTORE PUSH1 0x20 PUSH1 0x0 KECCAK256 SWAP1 PUSH1 0x3 MUL ADD PUSH1 0x0 SWAP1 SWAP2 SWAP1 SWAP2 SWAP1 SWAP2 POP PUSH1 0x0 DUP3 ADD MLOAD DUP2 PUSH1 0x0 ADD PUSH1 0x0 PUSH2 0x100 EXP DUP2 SLOAD DUP2 PUSH20 0xFFFFFFFFFFFFFFFFFFFFFFFFFFFFFFFFFFFFFFFF MUL NOT AND SWAP1 DUP4 PUSH20 0xFFFFFFFFFFFFFFFFFFFFFFFFFFFFFFFFFFFFFFFF AND MUL OR SWAP1 SSTORE POP PUSH1 0x20 DUP3 ADD MLOAD DUP2 PUSH1 0x1 ADD SSTORE PUSH1 0x40 DUP3 ADD MLOAD DUP2 PUSH1 0x2 ADD SSTORE POP POP POP POP POP JUMP JUMPDEST PUSH1 0x0 PUSH3 0x2AA PUSH1 0x16 DUP4 PUSH3 0x32D JUMP JUMPDEST SWAP2 POP PUSH3 0x2B7 DUP3 PUSH3 0x3F4 JUMP JUMPDEST PUSH1 0x20 DUP3 ADD SWAP1 POP SWAP2 SWAP1 POP JUMP JUMPDEST PUSH1 0x0 PUSH3 0x2D1 PUSH1 0x15 DUP4 PUSH3 0x32D JUMP JUMPDEST SWAP2 POP PUSH3 0x2DE DUP3 PUSH3 0x41D JUMP JUMPDEST PUSH1 0x20 DUP3 ADD SWAP1 POP SWAP2 SWAP1 POP JUMP JUMPDEST PUSH1 0x0 PUSH1 0x20 DUP3 ADD SWAP1 POP DUP2 DUP2 SUB PUSH1 0x0 DUP4 ADD MSTORE PUSH3 0x304 DUP2 PUSH3 0x29B JUMP JUMPDEST SWAP1 POP SWAP2 SWAP1 POP JUMP JUMPDEST PUSH1 0x0 PUSH1 0x20 DUP3 ADD SWAP1 POP DUP2 DUP2 SUB PUSH1 0x0 DUP4 ADD MSTORE PUSH3 0x326 DUP2 PUSH3 0x2C2 JUMP JUMPDEST SWAP1 POP SWAP2 SWAP1 POP JUMP JUMPDEST PUSH1 0x0 DUP3 DUP3 MSTORE PUSH1 0x20 DUP3 ADD SWAP1 POP SWAP3 SWAP2 POP POP JUMP JUMPDEST PUSH1 0x0 DUP2 SWAP1 POP SWAP2 SWAP1 POP JUMP JUMPDEST PUSH1 0x0 PUSH3 0x355 DUP3 PUSH3 0x33E JUMP JUMPDEST SWAP2 POP PUSH32 0xFFFFFFFFFFFFFFFFFFFFFFFFFFFFFFFFFFFFFFFFFFFFFFFFFFFFFFFFFFFFFFFF DUP3 EQ ISZERO PUSH3 0x38B JUMPI PUSH3 0x38A PUSH3 0x396 JUMP JUMPDEST JUMPDEST PUSH1 0x1 DUP3 ADD SWAP1 POP SWAP2 SWAP1 POP JUMP JUMPDEST PUSH32 0x4E487B7100000000000000000000000000000000000000000000000000000000 PUSH1 0x0 MSTORE PUSH1 0x11 PUSH1 0x4 MSTORE PUSH1 0x24 PUSH1 0x0 REVERT JUMPDEST PUSH32 0x4E487B7100000000000000000000000000000000000000000000000000000000 PUSH1 0x0 MSTORE PUSH1 0x32 PUSH1 0x4 MSTORE PUSH1 0x24 PUSH1 0x0 REVERT JUMPDEST PUSH32 0x5468697320726F6C652069736E27742065786973747300000000000000000000 PUSH1 0x0 DUP3 ADD MSTORE POP JUMP JUMPDEST PUSH32 0x5520616C72656164792072656769737465726564210000000000000000000000 PUSH1 0x0 DUP3 ADD MSTORE POP JUMP JUMPDEST PUSH2 0x3845 DUP1 PUSH3 0x456 PUSH1 0x0 CODECOPY PUSH1 0x0 RETURN INVALID PUSH1 0x80 PUSH1 0x40 MSTORE CALLVALUE DUP1 ISZERO PUSH2 0x10 JUMPI PUSH1 0x0 DUP1 REVERT JUMPDEST POP PUSH1 0x4 CALLDATASIZE LT PUSH2 0xE9 JUMPI PUSH1 0x0 CALLDATALOAD PUSH1 0xE0 SHR DUP1 PUSH4 0x3EFDEBF1 GT PUSH2 0x8C JUMPI DUP1 PUSH4 0x66B2F791 GT PUSH2 0x66 JUMPI DUP1 PUSH4 0x66B2F791 EQ PUSH2 0x1D4 JUMPI DUP1 PUSH4 0x70480275 EQ PUSH2 0x1F0 JUMPI DUP1 PUSH4 0xAB122EF5 EQ PUSH2 0x20C JUMPI DUP1 PUSH4 0xAD81F803 EQ PUSH2 0x228 JUMPI PUSH2 0xE9 JUMP JUMPDEST DUP1 PUSH4 0x3EFDEBF1 EQ PUSH2 0x192 JUMPI DUP1 PUSH4 0x4384A79F EQ PUSH2 0x1AE JUMPI DUP1 PUSH4 0x49B15962 EQ PUSH2 0x1CA JUMPI PUSH2 0xE9 JUMP JUMPDEST DUP1 PUSH4 0x240185B6 GT PUSH2 0xC8 JUMPI DUP1 PUSH4 0x240185B6 EQ PUSH2 0x142 JUMPI DUP1 PUSH4 0x2BD2CD50 EQ PUSH2 0x160 JUMPI DUP1 PUSH4 0x2E91D706 EQ PUSH2 0x17E JUMPI DUP1 PUSH4 0x3B95A23F EQ PUSH2 0x188 JUMPI PUSH2 0xE9 JUMP JUMPDEST DUP1 PUSH3 0x82F88E EQ PUSH2 0xEE JUMPI DUP1 PUSH4 0x1A0550E3 EQ PUSH2 0x10A JUMPI DUP1 PUSH4 0x1C618EB3 EQ PUSH2 0x126 JUMPI JUMPDEST PUSH1 0x0 DUP1 REVERT JUMPDEST PUSH2 0x108 PUSH1 0x4 DUP1 CALLDATASIZE SUB DUP2 ADD SWAP1 PUSH2 0x103 SWAP2 SWAP1 PUSH2 0x290C JUMP JUMPDEST PUSH2 0x246 JUMP JUMPDEST STOP JUMPDEST PUSH2 0x124 PUSH1 0x4 DUP1 CALLDATASIZE SUB DUP2 ADD SWAP1 PUSH2 0x11F SWAP2 SWAP1 PUSH2 0x288C JUMP JUMPDEST PUSH2 0x459 JUMP JUMPDEST STOP JUMPDEST PUSH2 0x140 PUSH1 0x4 DUP1 CALLDATASIZE SUB DUP2 ADD SWAP1 PUSH2 0x13B SWAP2 SWAP1 PUSH2 0x2830 JUMP JUMPDEST PUSH2 0x7BA JUMP JUMPDEST STOP JUMPDEST PUSH2 0x14A PUSH2 0xCC1 JUMP JUMPDEST PUSH1 0x40 MLOAD PUSH2 0x157 SWAP2 SWAP1 PUSH2 0x30E1 JUMP JUMPDEST PUSH1 0x40 MLOAD DUP1 SWAP2 SUB SWAP1 RETURN JUMPDEST PUSH2 0x168 PUSH2 0x1290 JUMP JUMPDEST PUSH1 0x40 MLOAD PUSH2 0x175 SWAP2 SWAP1 PUSH2 0x30BF JUMP JUMPDEST PUSH1 0x40 MLOAD DUP1 SWAP2 SUB SWAP1 RETURN JUMPDEST PUSH2 0x186 PUSH2 0x135C JUMP JUMPDEST STOP JUMPDEST PUSH2 0x190 PUSH2 0x1527 JUMP JUMPDEST STOP JUMPDEST PUSH2 0x1AC PUSH1 0x4 DUP1 CALLDATASIZE SUB DUP2 ADD SWAP1 PUSH2 0x1A7 SWAP2 SWAP1 PUSH2 0x288C JUMP JUMPDEST PUSH2 0x16BE JUMP JUMPDEST STOP JUMPDEST PUSH2 0x1C8 PUSH1 0x4 DUP1 CALLDATASIZE SUB DUP2 ADD SWAP1 PUSH2 0x1C3 SWAP2 SWAP1 PUSH2 0x28B9 JUMP JUMPDEST PUSH2 0x185C JUMP JUMPDEST STOP JUMPDEST PUSH2 0x1D2 PUSH2 0x1A70 JUMP JUMPDEST STOP JUMPDEST PUSH2 0x1EE PUSH1 0x4 DUP1 CALLDATASIZE SUB DUP2 ADD SWAP1 PUSH2 0x1E9 SWAP2 SWAP1 PUSH2 0x297B JUMP JUMPDEST PUSH2 0x1C4F JUMP JUMPDEST STOP JUMPDEST PUSH2 0x20A PUSH1 0x4 DUP1 CALLDATASIZE SUB DUP2 ADD SWAP1 PUSH2 0x205 SWAP2 SWAP1 PUSH2 0x2803 JUMP JUMPDEST PUSH2 0x1E87 JUMP JUMPDEST STOP JUMPDEST PUSH2 0x226 PUSH1 0x4 DUP1 CALLDATASIZE SUB DUP2 ADD SWAP1 PUSH2 0x221 SWAP2 SWAP1 PUSH2 0x290C JUMP JUMPDEST PUSH2 0x21B7 JUMP JUMPDEST STOP JUMPDEST PUSH2 0x230 PUSH2 0x23F8 JUMP JUMPDEST PUSH1 0x40 MLOAD PUSH2 0x23D SWAP2 SWAP1 PUSH2 0x3103 JUMP JUMPDEST PUSH1 0x40 MLOAD DUP1 SWAP2 SUB SWAP1 RETURN JUMPDEST PUSH1 0x0 DUP4 DUP2 SLOAD DUP2 LT PUSH2 0x25A JUMPI PUSH2 0x259 PUSH2 0x35FF JUMP JUMPDEST JUMPDEST SWAP1 PUSH1 0x0 MSTORE PUSH1 0x20 PUSH1 0x0 KECCAK256 SWAP1 PUSH1 0x4 MUL ADD PUSH1 0x2 ADD PUSH1 0x1 DUP2 PUSH1 0x1 DUP2 SLOAD ADD DUP1 DUP3 SSTORE DUP1 SWAP2 POP POP SUB SWAP1 PUSH1 0x0 MSTORE PUSH1 0x20 PUSH1 0x0 KECCAK256 SWAP1 POP POP CALLER PUSH1 0x0 DUP5 DUP2 SLOAD DUP2 LT PUSH2 0x29C JUMPI PUSH2 0x29B PUSH2 0x35FF JUMP JUMPDEST JUMPDEST SWAP1 PUSH1 0x0 MSTORE PUSH1 0x20 PUSH1 0x0 KECCAK256 SWAP1 PUSH1 0x4 MUL ADD PUSH1 0x2 ADD PUSH1 0x1 PUSH1 0x0 DUP7 DUP2 SLOAD DUP2 LT PUSH2 0x2C3 JUMPI PUSH2 0x2C2 PUSH2 0x35FF JUMP JUMPDEST JUMPDEST SWAP1 PUSH1 0x0 MSTORE PUSH1 0x20 PUSH1 0x0 KECCAK256 SWAP1 PUSH1 0x4 MUL ADD PUSH1 0x2 ADD DUP1 SLOAD SWAP1 POP PUSH2 0x2E2 SWAP2 SWAP1 PUSH2 0x3437 JUMP JUMPDEST DUP2 SLOAD DUP2 LT PUSH2 0x2F3 JUMPI PUSH2 0x2F2 PUSH2 0x35FF JUMP JUMPDEST JUMPDEST SWAP1 PUSH1 0x0 MSTORE PUSH1 0x20 PUSH1 0x0 KECCAK256 SWAP1 PUSH1 0x5 MUL ADD PUSH1 0x0 ADD PUSH1 0x0 PUSH2 0x100 EXP DUP2 SLOAD DUP2 PUSH20 0xFFFFFFFFFFFFFFFFFFFFFFFFFFFFFFFFFFFFFFFF MUL NOT AND SWAP1 DUP4 PUSH20 0xFFFFFFFFFFFFFFFFFFFFFFFFFFFFFFFFFFFFFFFF AND MUL OR SWAP1 SSTORE POP DUP2 PUSH1 0x0 DUP5 DUP2 SLOAD DUP2 LT PUSH2 0x357 JUMPI PUSH2 0x356 PUSH2 0x35FF JUMP JUMPDEST JUMPDEST SWAP1 PUSH1 0x0 MSTORE PUSH1 0x20 PUSH1 0x0 KECCAK256 SWAP1 PUSH1 0x4 MUL ADD PUSH1 0x2 ADD PUSH1 0x1 PUSH1 0x0 DUP7 DUP2 SLOAD DUP2 LT PUSH2 0x37E JUMPI PUSH2 0x37D PUSH2 0x35FF JUMP JUMPDEST JUMPDEST SWAP1 PUSH1 0x0 MSTORE PUSH1 0x20 PUSH1 0x0 KECCAK256 SWAP1 PUSH1 0x4 MUL ADD PUSH1 0x2 ADD DUP1 SLOAD SWAP1 POP PUSH2 0x39D SWAP2 SWAP1 PUSH2 0x3437 JUMP JUMPDEST DUP2 SLOAD DUP2 LT PUSH2 0x3AE JUMPI PUSH2 0x3AD PUSH2 0x35FF JUMP JUMPDEST JUMPDEST SWAP1 PUSH1 0x0 MSTORE PUSH1 0x20 PUSH1 0x0 KECCAK256 SWAP1 PUSH1 0x5 MUL ADD PUSH1 0x1 ADD DUP2 SWAP1 SSTORE POP DUP1 PUSH1 0x0 DUP5 DUP2 SLOAD DUP2 LT PUSH2 0x3D8 JUMPI PUSH2 0x3D7 PUSH2 0x35FF JUMP JUMPDEST JUMPDEST SWAP1 PUSH1 0x0 MSTORE PUSH1 0x20 PUSH1 0x0 KECCAK256 SWAP1 PUSH1 0x4 MUL ADD PUSH1 0x2 ADD PUSH1 0x1 PUSH1 0x0 DUP7 DUP2 SLOAD DUP2 LT PUSH2 0x3FF JUMPI PUSH2 0x3FE PUSH2 0x35FF JUMP JUMPDEST JUMPDEST SWAP1 PUSH1 0x0 MSTORE PUSH1 0x20 PUSH1 0x0 KECCAK256 SWAP1 PUSH1 0x4 MUL ADD PUSH1 0x2 ADD DUP1 SLOAD SWAP1 POP PUSH2 0x41E SWAP2 SWAP1 PUSH2 0x3437 JUMP JUMPDEST DUP2 SLOAD DUP2 LT PUSH2 0x42F JUMPI PUSH2 0x42E PUSH2 0x35FF JUMP JUMPDEST JUMPDEST SWAP1 PUSH1 0x0 MSTORE PUSH1 0x20 PUSH1 0x0 KECCAK256 SWAP1 PUSH1 0x5 MUL ADD PUSH1 0x4 ADD SWAP1 DUP1 MLOAD SWAP1 PUSH1 0x20 ADD SWAP1 PUSH2 0x453 SWAP3 SWAP2 SWAP1 PUSH2 0x24C1 JUMP JUMPDEST POP POP POP POP JUMP JUMPDEST CALLER PUSH1 0x0 DUP1 JUMPDEST PUSH1 0x1 DUP1 SLOAD SWAP1 POP DUP2 LT ISZERO PUSH2 0x500 JUMPI DUP3 PUSH20 0xFFFFFFFFFFFFFFFFFFFFFFFFFFFFFFFFFFFFFFFF AND PUSH1 0x1 DUP3 DUP2 SLOAD DUP2 LT PUSH2 0x496 JUMPI PUSH2 0x495 PUSH2 0x35FF JUMP JUMPDEST JUMPDEST SWAP1 PUSH1 0x0 MSTORE PUSH1 0x20 PUSH1 0x0 KECCAK256 SWAP1 PUSH1 0x3 MUL ADD PUSH1 0x0 ADD PUSH1 0x0 SWAP1 SLOAD SWAP1 PUSH2 0x100 EXP SWAP1 DIV PUSH20 0xFFFFFFFFFFFFFFFFFFFFFFFFFFFFFFFFFFFFFFFF AND PUSH20 0xFFFFFFFFFFFFFFFFFFFFFFFFFFFFFFFFFFFFFFFF AND EQ ISZERO PUSH2 0x4ED JUMPI PUSH1 0x1 SWAP2 POP PUSH2 0x500 JUMP JUMPDEST DUP1 DUP1 PUSH2 0x4F8 SWAP1 PUSH2 0x3558 JUMP JUMPDEST SWAP2 POP POP PUSH2 0x45E JUMP JUMPDEST POP DUP1 ISZERO PUSH2 0x542 JUMPI PUSH1 0x40 MLOAD PUSH32 0x8C379A000000000000000000000000000000000000000000000000000000000 DUP2 MSTORE PUSH1 0x4 ADD PUSH2 0x539 SWAP1 PUSH2 0x3165 JUMP JUMPDEST PUSH1 0x40 MLOAD DUP1 SWAP2 SUB SWAP1 REVERT JUMPDEST CALLER PUSH1 0x0 JUMPDEST PUSH1 0x1 DUP1 SLOAD SWAP1 POP DUP2 LT ISZERO PUSH2 0x64C JUMPI DUP2 PUSH20 0xFFFFFFFFFFFFFFFFFFFFFFFFFFFFFFFFFFFFFFFF AND PUSH1 0x1 DUP3 DUP2 SLOAD DUP2 LT PUSH2 0x57E JUMPI PUSH2 0x57D PUSH2 0x35FF JUMP JUMPDEST JUMPDEST SWAP1 PUSH1 0x0 MSTORE PUSH1 0x20 PUSH1 0x0 KECCAK256 SWAP1 PUSH1 0x3 MUL ADD PUSH1 0x0 ADD PUSH1 0x0 SWAP1 SLOAD SWAP1 PUSH2 0x100 EXP SWAP1 DIV PUSH20 0xFFFFFFFFFFFFFFFFFFFFFFFFFFFFFFFFFFFFFFFF AND PUSH20 0xFFFFFFFFFFFFFFFFFFFFFFFFFFFFFFFFFFFFFFFF AND EQ ISZERO PUSH2 0x639 JUMPI PUSH1 0x0 PUSH1 0x1 DUP3 DUP2 SLOAD DUP2 LT PUSH2 0x5E2 JUMPI PUSH2 0x5E1 PUSH2 0x35FF JUMP JUMPDEST JUMPDEST SWAP1 PUSH1 0x0 MSTORE PUSH1 0x20 PUSH1 0x0 KECCAK256 SWAP1 PUSH1 0x3 MUL ADD PUSH1 0x2 ADD SLOAD EQ PUSH2 0x634 JUMPI PUSH1 0x40 MLOAD PUSH32 0x8C379A000000000000000000000000000000000000000000000000000000000 DUP2 MSTORE PUSH1 0x4 ADD PUSH2 0x62B SWAP1 PUSH2 0x3125 JUMP JUMPDEST PUSH1 0x40 MLOAD DUP1 SWAP2 SUB SWAP1 REVERT JUMPDEST PUSH2 0x64C JUMP JUMPDEST DUP1 DUP1 PUSH2 0x644 SWAP1 PUSH2 0x3558 JUMP JUMPDEST SWAP2 POP POP PUSH2 0x546 JUMP JUMPDEST POP PUSH1 0x0 JUMPDEST PUSH1 0x1 DUP1 SLOAD SWAP1 POP DUP2 LT ISZERO PUSH2 0x7B3 JUMPI PUSH1 0x2 DUP6 DUP2 SLOAD DUP2 LT PUSH2 0x671 JUMPI PUSH2 0x670 PUSH2 0x35FF JUMP JUMPDEST JUMPDEST SWAP1 PUSH1 0x0 MSTORE PUSH1 0x20 PUSH1 0x0 KECCAK256 ADD PUSH1 0x0 ADD PUSH1 0x0 SWAP1 SLOAD SWAP1 PUSH2 0x100 EXP SWAP1 DIV PUSH20 0xFFFFFFFFFFFFFFFFFFFFFFFFFFFFFFFFFFFFFFFF AND PUSH20 0xFFFFFFFFFFFFFFFFFFFFFFFFFFFFFFFFFFFFFFFF AND PUSH1 0x1 DUP3 DUP2 SLOAD DUP2 LT PUSH2 0x6C9 JUMPI PUSH2 0x6C8 PUSH2 0x35FF JUMP JUMPDEST JUMPDEST SWAP1 PUSH1 0x0 MSTORE PUSH1 0x20 PUSH1 0x0 KECCAK256 SWAP1 PUSH1 0x3 MUL ADD PUSH1 0x0 ADD PUSH1 0x0 SWAP1 SLOAD SWAP1 PUSH2 0x100 EXP SWAP1 DIV PUSH20 0xFFFFFFFFFFFFFFFFFFFFFFFFFFFFFFFFFFFFFFFF AND PUSH20 0xFFFFFFFFFFFFFFFFFFFFFFFFFFFFFFFFFFFFFFFF AND EQ ISZERO PUSH2 0x7A0 JUMPI PUSH1 0x1 DUP1 DUP3 DUP2 SLOAD DUP2 LT PUSH2 0x72C JUMPI PUSH2 0x72B PUSH2 0x35FF JUMP JUMPDEST JUMPDEST SWAP1 PUSH1 0x0 MSTORE PUSH1 0x20 PUSH1 0x0 KECCAK256 SWAP1 PUSH1 0x3 MUL ADD PUSH1 0x1 ADD SLOAD EQ ISZERO PUSH2 0x774 JUMPI PUSH1 0x2 PUSH1 0x1 DUP3 DUP2 SLOAD DUP2 LT PUSH2 0x75A JUMPI PUSH2 0x759 PUSH2 0x35FF JUMP JUMPDEST JUMPDEST SWAP1 PUSH1 0x0 MSTORE PUSH1 0x20 PUSH1 0x0 KECCAK256 SWAP1 PUSH1 0x3 MUL ADD PUSH1 0x1 ADD DUP2 SWAP1 SSTORE POP PUSH2 0x79F JUMP JUMPDEST PUSH1 0x1 DUP1 DUP3 DUP2 SLOAD DUP2 LT PUSH2 0x789 JUMPI PUSH2 0x788 PUSH2 0x35FF JUMP JUMPDEST JUMPDEST SWAP1 PUSH1 0x0 MSTORE PUSH1 0x20 PUSH1 0x0 KECCAK256 SWAP1 PUSH1 0x3 MUL ADD PUSH1 0x1 ADD DUP2 SWAP1 SSTORE POP JUMPDEST JUMPDEST DUP1 DUP1 PUSH2 0x7AB SWAP1 PUSH2 0x3558 JUMP JUMPDEST SWAP2 POP POP PUSH2 0x650 JUMP JUMPDEST POP POP POP POP POP JUMP JUMPDEST CALLER PUSH1 0x0 DUP1 JUMPDEST PUSH1 0x1 DUP1 SLOAD SWAP1 POP DUP2 LT ISZERO PUSH2 0x861 JUMPI DUP3 PUSH20 0xFFFFFFFFFFFFFFFFFFFFFFFFFFFFFFFFFFFFFFFF AND PUSH1 0x1 DUP3 DUP2 SLOAD DUP2 LT PUSH2 0x7F7 JUMPI PUSH2 0x7F6 PUSH2 0x35FF JUMP JUMPDEST JUMPDEST SWAP1 PUSH1 0x0 MSTORE PUSH1 0x20 PUSH1 0x0 KECCAK256 SWAP1 PUSH1 0x3 MUL ADD PUSH1 0x0 ADD PUSH1 0x0 SWAP1 SLOAD SWAP1 PUSH2 0x100 EXP SWAP1 DIV PUSH20 0xFFFFFFFFFFFFFFFFFFFFFFFFFFFFFFFFFFFFFFFF AND PUSH20 0xFFFFFFFFFFFFFFFFFFFFFFFFFFFFFFFFFFFFFFFF AND EQ ISZERO PUSH2 0x84E JUMPI PUSH1 0x1 SWAP2 POP PUSH2 0x861 JUMP JUMPDEST DUP1 DUP1 PUSH2 0x859 SWAP1 PUSH2 0x3558 JUMP JUMPDEST SWAP2 POP POP PUSH2 0x7BF JUMP JUMPDEST POP DUP1 ISZERO PUSH2 0x8A3 JUMPI PUSH1 0x40 MLOAD PUSH32 0x8C379A000000000000000000000000000000000000000000000000000000000 DUP2 MSTORE PUSH1 0x4 ADD PUSH2 0x89A SWAP1 PUSH2 0x3165 JUMP JUMPDEST PUSH1 0x40 MLOAD DUP1 SWAP2 SUB SWAP1 REVERT JUMPDEST CALLER PUSH1 0x0 JUMPDEST PUSH1 0x1 DUP1 SLOAD SWAP1 POP DUP2 LT ISZERO PUSH2 0x9AD JUMPI DUP2 PUSH20 0xFFFFFFFFFFFFFFFFFFFFFFFFFFFFFFFFFFFFFFFF AND PUSH1 0x1 DUP3 DUP2 SLOAD DUP2 LT PUSH2 0x8DF JUMPI PUSH2 0x8DE PUSH2 0x35FF JUMP JUMPDEST JUMPDEST SWAP1 PUSH1 0x0 MSTORE PUSH1 0x20 PUSH1 0x0 KECCAK256 SWAP1 PUSH1 0x3 MUL ADD PUSH1 0x0 ADD PUSH1 0x0 SWAP1 SLOAD SWAP1 PUSH2 0x100 EXP SWAP1 DIV PUSH20 0xFFFFFFFFFFFFFFFFFFFFFFFFFFFFFFFFFFFFFFFF AND PUSH20 0xFFFFFFFFFFFFFFFFFFFFFFFFFFFFFFFFFFFFFFFF AND EQ ISZERO PUSH2 0x99A JUMPI PUSH1 0x0 PUSH1 0x1 DUP3 DUP2 SLOAD DUP2 LT PUSH2 0x943 JUMPI PUSH2 0x942 PUSH2 0x35FF JUMP JUMPDEST JUMPDEST SWAP1 PUSH1 0x0 MSTORE PUSH1 0x20 PUSH1 0x0 KECCAK256 SWAP1 PUSH1 0x3 MUL ADD PUSH1 0x2 ADD SLOAD EQ PUSH2 0x995 JUMPI PUSH1 0x40 MLOAD PUSH32 0x8C379A000000000000000000000000000000000000000000000000000000000 DUP2 MSTORE PUSH1 0x4 ADD PUSH2 0x98C SWAP1 PUSH2 0x3125 JUMP JUMPDEST PUSH1 0x40 MLOAD DUP1 SWAP2 SUB SWAP1 REVERT JUMPDEST PUSH2 0x9AD JUMP JUMPDEST DUP1 DUP1 PUSH2 0x9A5 SWAP1 PUSH2 0x3558 JUMP JUMPDEST SWAP2 POP POP PUSH2 0x8A7 JUMP JUMPDEST POP DUP5 PUSH1 0x0 JUMPDEST PUSH1 0x1 DUP1 SLOAD SWAP1 POP DUP2 LT ISZERO PUSH2 0xA86 JUMPI DUP2 PUSH20 0xFFFFFFFFFFFFFFFFFFFFFFFFFFFFFFFFFFFFFFFF AND PUSH1 0x1 DUP3 DUP2 SLOAD DUP2 LT PUSH2 0x9EA JUMPI PUSH2 0x9E9 PUSH2 0x35FF JUMP JUMPDEST JUMPDEST SWAP1 PUSH1 0x0 MSTORE PUSH1 0x20 PUSH1 0x0 KECCAK256 SWAP1 PUSH1 0x3 MUL ADD PUSH1 0x0 ADD PUSH1 0x0 SWAP1 SLOAD SWAP1 PUSH2 0x100 EXP SWAP1 DIV PUSH20 0xFFFFFFFFFFFFFFFFFFFFFFFFFFFFFFFFFFFFFFFF AND PUSH20 0xFFFFFFFFFFFFFFFFFFFFFFFFFFFFFFFFFFFFFFFF AND EQ ISZERO PUSH2 0xA73 JUMPI PUSH1 0x40 MLOAD PUSH32 0x8C379A000000000000000000000000000000000000000000000000000000000 DUP2 MSTORE PUSH1 0x4 ADD PUSH2 0xA6A SWAP1 PUSH2 0x3185 JUMP JUMPDEST PUSH1 0x40 MLOAD DUP1 SWAP2 SUB SWAP1 REVERT JUMPDEST DUP1 DUP1 PUSH2 0xA7E SWAP1 PUSH2 0x3558 JUMP JUMPDEST SWAP2 POP POP PUSH2 0x9B2 JUMP JUMPDEST POP DUP6 PUSH1 0x0 JUMPDEST PUSH1 0x1 DUP1 SLOAD SWAP1 POP DUP2 LT ISZERO PUSH2 0xB5F JUMPI DUP2 PUSH20 0xFFFFFFFFFFFFFFFFFFFFFFFFFFFFFFFFFFFFFFFF AND PUSH1 0x1 DUP3 DUP2 SLOAD DUP2 LT PUSH2 0xAC3 JUMPI PUSH2 0xAC2 PUSH2 0x35FF JUMP JUMPDEST JUMPDEST SWAP1 PUSH1 0x0 MSTORE PUSH1 0x20 PUSH1 0x0 KECCAK256 SWAP1 PUSH1 0x3 MUL ADD PUSH1 0x0 ADD PUSH1 0x0 SWAP1 SLOAD SWAP1 PUSH2 0x100 EXP SWAP1 DIV PUSH20 0xFFFFFFFFFFFFFFFFFFFFFFFFFFFFFFFFFFFFFFFF AND PUSH20 0xFFFFFFFFFFFFFFFFFFFFFFFFFFFFFFFFFFFFFFFF AND EQ ISZERO PUSH2 0xB4C JUMPI PUSH1 0x40 MLOAD PUSH32 0x8C379A000000000000000000000000000000000000000000000000000000000 DUP2 MSTORE PUSH1 0x4 ADD PUSH2 0xB43 SWAP1 PUSH2 0x31C5 JUMP JUMPDEST PUSH1 0x40 MLOAD DUP1 SWAP2 SUB SWAP1 REVERT JUMPDEST DUP1 DUP1 PUSH2 0xB57 SWAP1 PUSH2 0x3558 JUMP JUMPDEST SWAP2 POP POP PUSH2 0xA8B JUMP JUMPDEST POP PUSH1 0x0 JUMPDEST PUSH1 0x0 DUP1 SLOAD SWAP1 POP DUP2 LT ISZERO PUSH2 0xC37 JUMPI DUP2 PUSH20 0xFFFFFFFFFFFFFFFFFFFFFFFFFFFFFFFFFFFFFFFF AND PUSH1 0x0 DUP3 DUP2 SLOAD DUP2 LT PUSH2 0xB9B JUMPI PUSH2 0xB9A PUSH2 0x35FF JUMP JUMPDEST JUMPDEST SWAP1 PUSH1 0x0 MSTORE PUSH1 0x20 PUSH1 0x0 KECCAK256 SWAP1 PUSH1 0x4 MUL ADD PUSH1 0x0 ADD PUSH1 0x0 SWAP1 SLOAD SWAP1 PUSH2 0x100 EXP SWAP1 DIV PUSH20 0xFFFFFFFFFFFFFFFFFFFFFFFFFFFFFFFFFFFFFFFF AND PUSH20 0xFFFFFFFFFFFFFFFFFFFFFFFFFFFFFFFFFFFFFFFF AND EQ ISZERO PUSH2 0xC24 JUMPI PUSH1 0x40 MLOAD PUSH32 0x8C379A000000000000000000000000000000000000000000000000000000000 DUP2 MSTORE PUSH1 0x4 ADD PUSH2 0xC1B SWAP1 PUSH2 0x31E5 JUMP JUMPDEST PUSH1 0x40 MLOAD DUP1 SWAP2 SUB SWAP1 REVERT JUMPDEST DUP1 DUP1 PUSH2 0xC2F SWAP1 PUSH2 0x3558 JUMP JUMPDEST SWAP2 POP POP PUSH2 0xB63 JUMP JUMPDEST POP PUSH1 0x0 DUP1 PUSH1 0x1 DUP2 PUSH1 0x1 DUP2 SLOAD ADD DUP1 DUP3 SSTORE DUP1 SWAP2 POP POP SUB SWAP1 PUSH1 0x0 MSTORE PUSH1 0x20 PUSH1 0x0 KECCAK256 SWAP1 PUSH1 0x4 MUL ADD SWAP1 POP DUP8 DUP2 PUSH1 0x0 ADD PUSH1 0x0 PUSH2 0x100 EXP DUP2 SLOAD DUP2 PUSH20 0xFFFFFFFFFFFFFFFFFFFFFFFFFFFFFFFFFFFFFFFF MUL NOT AND SWAP1 DUP4 PUSH20 0xFFFFFFFFFFFFFFFFFFFFFFFFFFFFFFFFFFFFFFFF AND MUL OR SWAP1 SSTORE POP DUP7 DUP2 PUSH1 0x1 ADD SWAP1 DUP1 MLOAD SWAP1 PUSH1 0x20 ADD SWAP1 PUSH2 0xCB6 SWAP3 SWAP2 SWAP1 PUSH2 0x24C1 JUMP JUMPDEST POP POP POP POP POP POP POP POP POP JUMP JUMPDEST PUSH1 0x60 PUSH1 0x0 DUP1 SLOAD DUP1 PUSH1 0x20 MUL PUSH1 0x20 ADD PUSH1 0x40 MLOAD SWAP1 DUP2 ADD PUSH1 0x40 MSTORE DUP1 SWAP3 SWAP2 SWAP1 DUP2 DUP2 MSTORE PUSH1 0x20 ADD PUSH1 0x0 SWAP1 JUMPDEST DUP3 DUP3 LT ISZERO PUSH2 0x1287 JUMPI DUP4 DUP3 SWAP1 PUSH1 0x0 MSTORE PUSH1 0x20 PUSH1 0x0 KECCAK256 SWAP1 PUSH1 0x4 MUL ADD PUSH1 0x40 MLOAD DUP1 PUSH1 0x80 ADD PUSH1 0x40 MSTORE SWAP1 DUP2 PUSH1 0x0 DUP3 ADD PUSH1 0x0 SWAP1 SLOAD SWAP1 PUSH2 0x100 EXP SWAP1 DIV PUSH20 0xFFFFFFFFFFFFFFFFFFFFFFFFFFFFFFFFFFFFFFFF AND PUSH20 0xFFFFFFFFFFFFFFFFFFFFFFFFFFFFFFFFFFFFFFFF AND PUSH20 0xFFFFFFFFFFFFFFFFFFFFFFFFFFFFFFFFFFFFFFFF AND DUP2 MSTORE PUSH1 0x20 ADD PUSH1 0x1 DUP3 ADD DUP1 SLOAD PUSH2 0xD6E SWAP1 PUSH2 0x34F5 JUMP JUMPDEST DUP1 PUSH1 0x1F ADD PUSH1 0x20 DUP1 SWAP2 DIV MUL PUSH1 0x20 ADD PUSH1 0x40 MLOAD SWAP1 DUP2 ADD PUSH1 0x40 MSTORE DUP1 SWAP3 SWAP2 SWAP1 DUP2 DUP2 MSTORE PUSH1 0x20 ADD DUP3 DUP1 SLOAD PUSH2 0xD9A SWAP1 PUSH2 0x34F5 JUMP JUMPDEST DUP1 ISZERO PUSH2 0xDE7 JUMPI DUP1 PUSH1 0x1F LT PUSH2 0xDBC JUMPI PUSH2 0x100 DUP1 DUP4 SLOAD DIV MUL DUP4 MSTORE SWAP2 PUSH1 0x20 ADD SWAP2 PUSH2 0xDE7 JUMP JUMPDEST DUP3 ADD SWAP2 SWAP1 PUSH1 0x0 MSTORE PUSH1 0x20 PUSH1 0x0 KECCAK256 SWAP1 JUMPDEST DUP2 SLOAD DUP2 MSTORE SWAP1 PUSH1 0x1 ADD SWAP1 PUSH1 0x20 ADD DUP1 DUP4 GT PUSH2 0xDCA JUMPI DUP3 SWAP1 SUB PUSH1 0x1F AND DUP3 ADD SWAP2 JUMPDEST POP POP POP POP POP DUP2 MSTORE PUSH1 0x20 ADD PUSH1 0x2 DUP3 ADD DUP1 SLOAD DUP1 PUSH1 0x20 MUL PUSH1 0x20 ADD PUSH1 0x40 MLOAD SWAP1 DUP2 ADD PUSH1 0x40 MSTORE DUP1 SWAP3 SWAP2 SWAP1 DUP2 DUP2 MSTORE PUSH1 0x20 ADD PUSH1 0x0 SWAP1 JUMPDEST DUP3 DUP3 LT ISZERO PUSH2 0x1218 JUMPI DUP4 DUP3 SWAP1 PUSH1 0x0 MSTORE PUSH1 0x20 PUSH1 0x0 KECCAK256 SWAP1 PUSH1 0x5 MUL ADD PUSH1 0x40 MLOAD DUP1 PUSH1 0xA0 ADD PUSH1 0x40 MSTORE SWAP1 DUP2 PUSH1 0x0 DUP3 ADD PUSH1 0x0 SWAP1 SLOAD SWAP1 PUSH2 0x100 EXP SWAP1 DIV PUSH20 0xFFFFFFFFFFFFFFFFFFFFFFFFFFFFFFFFFFFFFFFF AND PUSH20 0xFFFFFFFFFFFFFFFFFFFFFFFFFFFFFFFFFFFFFFFF AND PUSH20 0xFFFFFFFFFFFFFFFFFFFFFFFFFFFFFFFFFFFFFFFF AND DUP2 MSTORE PUSH1 0x20 ADD PUSH1 0x1 DUP3 ADD SLOAD DUP2 MSTORE PUSH1 0x20 ADD PUSH1 0x2 DUP3 ADD DUP1 SLOAD DUP1 PUSH1 0x20 MUL PUSH1 0x20 ADD PUSH1 0x40 MLOAD SWAP1 DUP2 ADD PUSH1 0x40 MSTORE DUP1 SWAP3 SWAP2 SWAP1 DUP2 DUP2 MSTORE PUSH1 0x20 ADD PUSH1 0x0 SWAP1 JUMPDEST DUP3 DUP3 LT ISZERO PUSH2 0xF5C JUMPI DUP4 DUP3 SWAP1 PUSH1 0x0 MSTORE PUSH1 0x20 PUSH1 0x0 KECCAK256 ADD PUSH1 0x40 MLOAD DUP1 PUSH1 0x40 ADD PUSH1 0x40 MSTORE SWAP1 DUP2 PUSH1 0x0 DUP3 ADD PUSH1 0x0 SWAP1 SLOAD SWAP1 PUSH2 0x100 EXP SWAP1 DIV PUSH20 0xFFFFFFFFFFFFFFFFFFFFFFFFFFFFFFFFFFFFFFFF AND PUSH20 0xFFFFFFFFFFFFFFFFFFFFFFFFFFFFFFFFFFFFFFFF AND PUSH20 0xFFFFFFFFFFFFFFFFFFFFFFFFFFFFFFFFFFFFFFFF AND DUP2 MSTORE PUSH1 0x20 ADD PUSH1 0x0 DUP3 ADD PUSH1 0x14 SWAP1 SLOAD SWAP1 PUSH2 0x100 EXP SWAP1 DIV PUSH1 0xFF AND ISZERO ISZERO ISZERO ISZERO DUP2 MSTORE POP POP DUP2 MSTORE PUSH1 0x20 ADD SWAP1 PUSH1 0x1 ADD SWAP1 PUSH2 0xEBD JUMP JUMPDEST POP POP POP POP DUP2 MSTORE PUSH1 0x20 ADD PUSH1 0x3 DUP3 ADD DUP1 SLOAD DUP1 PUSH1 0x20 MUL PUSH1 0x20 ADD PUSH1 0x40 MLOAD SWAP1 DUP2 ADD PUSH1 0x40 MSTORE DUP1 SWAP3 SWAP2 SWAP1 DUP2 DUP2 MSTORE PUSH1 0x20 ADD PUSH1 0x0 SWAP1 JUMPDEST DUP3 DUP3 LT ISZERO PUSH2 0x116F JUMPI DUP4 DUP3 SWAP1 PUSH1 0x0 MSTORE PUSH1 0x20 PUSH1 0x0 KECCAK256 SWAP1 PUSH1 0x3 MUL ADD PUSH1 0x40 MLOAD DUP1 PUSH1 0x60 ADD PUSH1 0x40 MSTORE SWAP1 DUP2 PUSH1 0x0 DUP3 ADD PUSH1 0x0 SWAP1 SLOAD SWAP1 PUSH2 0x100 EXP SWAP1 DIV PUSH20 0xFFFFFFFFFFFFFFFFFFFFFFFFFFFFFFFFFFFFFFFF AND PUSH20 0xFFFFFFFFFFFFFFFFFFFFFFFFFFFFFFFFFFFFFFFF AND PUSH20 0xFFFFFFFFFFFFFFFFFFFFFFFFFFFFFFFFFFFFFFFF AND DUP2 MSTORE PUSH1 0x20 ADD PUSH1 0x1 DUP3 ADD DUP1 SLOAD DUP1 PUSH1 0x20 MUL PUSH1 0x20 ADD PUSH1 0x40 MLOAD SWAP1 DUP2 ADD PUSH1 0x40 MSTORE DUP1 SWAP3 SWAP2 SWAP1 DUP2 DUP2 MSTORE PUSH1 0x20 ADD PUSH1 0x0 SWAP1 JUMPDEST DUP3 DUP3 LT ISZERO PUSH2 0x10C6 JUMPI DUP4 DUP3 SWAP1 PUSH1 0x0 MSTORE PUSH1 0x20 PUSH1 0x0 KECCAK256 ADD PUSH1 0x40 MLOAD DUP1 PUSH1 0x40 ADD PUSH1 0x40 MSTORE SWAP1 DUP2 PUSH1 0x0 DUP3 ADD PUSH1 0x0 SWAP1 SLOAD SWAP1 PUSH2 0x100 EXP SWAP1 DIV PUSH20 0xFFFFFFFFFFFFFFFFFFFFFFFFFFFFFFFFFFFFFFFF AND PUSH20 0xFFFFFFFFFFFFFFFFFFFFFFFFFFFFFFFFFFFFFFFF AND PUSH20 0xFFFFFFFFFFFFFFFFFFFFFFFFFFFFFFFFFFFFFFFF AND DUP2 MSTORE PUSH1 0x20 ADD PUSH1 0x0 DUP3 ADD PUSH1 0x14 SWAP1 SLOAD SWAP1 PUSH2 0x100 EXP SWAP1 DIV PUSH1 0xFF AND ISZERO ISZERO ISZERO ISZERO DUP2 MSTORE POP POP DUP2 MSTORE PUSH1 0x20 ADD SWAP1 PUSH1 0x1 ADD SWAP1 PUSH2 0x1027 JUMP JUMPDEST POP POP POP POP DUP2 MSTORE PUSH1 0x20 ADD PUSH1 0x2 DUP3 ADD DUP1 SLOAD PUSH2 0x10DE SWAP1 PUSH2 0x34F5 JUMP JUMPDEST DUP1 PUSH1 0x1F ADD PUSH1 0x20 DUP1 SWAP2 DIV MUL PUSH1 0x20 ADD PUSH1 0x40 MLOAD SWAP1 DUP2 ADD PUSH1 0x40 MSTORE DUP1 SWAP3 SWAP2 SWAP1 DUP2 DUP2 MSTORE PUSH1 0x20 ADD DUP3 DUP1 SLOAD PUSH2 0x110A SWAP1 PUSH2 0x34F5 JUMP JUMPDEST DUP1 ISZERO PUSH2 0x1157 JUMPI DUP1 PUSH1 0x1F LT PUSH2 0x112C JUMPI PUSH2 0x100 DUP1 DUP4 SLOAD DIV MUL DUP4 MSTORE SWAP2 PUSH1 0x20 ADD SWAP2 PUSH2 0x1157 JUMP JUMPDEST DUP3 ADD SWAP2 SWAP1 PUSH1 0x0 MSTORE PUSH1 0x20 PUSH1 0x0 KECCAK256 SWAP1 JUMPDEST DUP2 SLOAD DUP2 MSTORE SWAP1 PUSH1 0x1 ADD SWAP1 PUSH1 0x20 ADD DUP1 DUP4 GT PUSH2 0x113A JUMPI DUP3 SWAP1 SUB PUSH1 0x1F AND DUP3 ADD SWAP2 JUMPDEST POP POP POP POP POP DUP2 MSTORE POP POP DUP2 MSTORE PUSH1 0x20 ADD SWAP1 PUSH1 0x1 ADD SWAP1 PUSH2 0xF89 JUMP JUMPDEST POP POP POP POP DUP2 MSTORE PUSH1 0x20 ADD PUSH1 0x4 DUP3 ADD DUP1 SLOAD PUSH2 0x1187 SWAP1 PUSH2 0x34F5 JUMP JUMPDEST DUP1 PUSH1 0x1F ADD PUSH1 0x20 DUP1 SWAP2 DIV MUL PUSH1 0x20 ADD PUSH1 0x40 MLOAD SWAP1 DUP2 ADD PUSH1 0x40 MSTORE DUP1 SWAP3 SWAP2 SWAP1 DUP2 DUP2 MSTORE PUSH1 0x20 ADD DUP3 DUP1 SLOAD PUSH2 0x11B3 SWAP1 PUSH2 0x34F5 JUMP JUMPDEST DUP1 ISZERO PUSH2 0x1200 JUMPI DUP1 PUSH1 0x1F LT PUSH2 0x11D5 JUMPI PUSH2 0x100 DUP1 DUP4 SLOAD DIV MUL DUP4 MSTORE SWAP2 PUSH1 0x20 ADD SWAP2 PUSH2 0x1200 JUMP JUMPDEST DUP3 ADD SWAP2 SWAP1 PUSH1 0x0 MSTORE PUSH1 0x20 PUSH1 0x0 KECCAK256 SWAP1 JUMPDEST DUP2 SLOAD DUP2 MSTORE SWAP1 PUSH1 0x1 ADD SWAP1 PUSH1 0x20 ADD DUP1 DUP4 GT PUSH2 0x11E3 JUMPI DUP3 SWAP1 SUB PUSH1 0x1F AND DUP3 ADD SWAP2 JUMPDEST POP POP POP POP POP DUP2 MSTORE POP POP DUP2 MSTORE PUSH1 0x20 ADD SWAP1 PUSH1 0x1 ADD SWAP1 PUSH2 0xE15 JUMP JUMPDEST POP POP POP POP DUP2 MSTORE PUSH1 0x20 ADD PUSH1 0x3 DUP3 ADD DUP1 SLOAD DUP1 PUSH1 0x20 MUL PUSH1 0x20 ADD PUSH1 0x40 MLOAD SWAP1 DUP2 ADD PUSH1 0x40 MSTORE DUP1 SWAP3 SWAP2 SWAP1 DUP2 DUP2 MSTORE PUSH1 0x20 ADD DUP3 DUP1 SLOAD DUP1 ISZERO PUSH2 0x126F JUMPI PUSH1 0x20 MUL DUP3 ADD SWAP2 SWAP1 PUSH1 0x0 MSTORE PUSH1 0x20 PUSH1 0x0 KECCAK256 SWAP1 JUMPDEST DUP2 SLOAD DUP2 MSTORE PUSH1 0x20 ADD SWAP1 PUSH1 0x1 ADD SWAP1 DUP1 DUP4 GT PUSH2 0x125B JUMPI JUMPDEST POP POP POP POP POP DUP2 MSTORE POP POP DUP2 MSTORE PUSH1 0x20 ADD SWAP1 PUSH1 0x1 ADD SWAP1 PUSH2 0xCE5 JUMP JUMPDEST POP POP POP POP SWAP1 POP SWAP1 JUMP JUMPDEST PUSH1 0x60 PUSH1 0x2 DUP1 SLOAD DUP1 PUSH1 0x20 MUL PUSH1 0x20 ADD PUSH1 0x40 MLOAD SWAP1 DUP2 ADD PUSH1 0x40 MSTORE DUP1 SWAP3 SWAP2 SWAP1 DUP2 DUP2 MSTORE PUSH1 0x20 ADD PUSH1 0x0 SWAP1 JUMPDEST DUP3 DUP3 LT ISZERO PUSH2 0x1353 JUMPI DUP4 DUP3 SWAP1 PUSH1 0x0 MSTORE PUSH1 0x20 PUSH1 0x0 KECCAK256 ADD PUSH1 0x40 MLOAD DUP1 PUSH1 0x40 ADD PUSH1 0x40 MSTORE SWAP1 DUP2 PUSH1 0x0 DUP3 ADD PUSH1 0x0 SWAP1 SLOAD SWAP1 PUSH2 0x100 EXP SWAP1 DIV PUSH20 0xFFFFFFFFFFFFFFFFFFFFFFFFFFFFFFFFFFFFFFFF AND PUSH20 0xFFFFFFFFFFFFFFFFFFFFFFFFFFFFFFFFFFFFFFFF AND PUSH20 0xFFFFFFFFFFFFFFFFFFFFFFFFFFFFFFFFFFFFFFFF AND DUP2 MSTORE PUSH1 0x20 ADD PUSH1 0x0 DUP3 ADD PUSH1 0x14 SWAP1 SLOAD SWAP1 PUSH2 0x100 EXP SWAP1 DIV PUSH1 0xFF AND ISZERO ISZERO ISZERO ISZERO DUP2 MSTORE POP POP DUP2 MSTORE PUSH1 0x20 ADD SWAP1 PUSH1 0x1 ADD SWAP1 PUSH2 0x12B4 JUMP JUMPDEST POP POP POP POP SWAP1 POP SWAP1 JUMP JUMPDEST PUSH1 0x0 JUMPDEST PUSH1 0x1 DUP1 SLOAD SWAP1 POP DUP2 LT ISZERO PUSH2 0x1524 JUMPI PUSH1 0x0 PUSH1 0x1 DUP3 DUP2 SLOAD DUP2 LT PUSH2 0x1382 JUMPI PUSH2 0x1381 PUSH2 0x35FF JUMP JUMPDEST JUMPDEST SWAP1 PUSH1 0x0 MSTORE PUSH1 0x20 PUSH1 0x0 KECCAK256 SWAP1 PUSH1 0x3 MUL ADD PUSH1 0x1 ADD SLOAD EQ ISZERO PUSH2 0x13D5 JUMPI PUSH1 0x40 MLOAD PUSH32 0x8C379A000000000000000000000000000000000000000000000000000000000 DUP2 MSTORE PUSH1 0x4 ADD PUSH2 0x13CC SWAP1 PUSH2 0x3205 JUMP JUMPDEST PUSH1 0x40 MLOAD DUP1 SWAP2 SUB SWAP1 REVERT JUMPDEST CALLER PUSH20 0xFFFFFFFFFFFFFFFFFFFFFFFFFFFFFFFFFFFFFFFF AND PUSH1 0x1 DUP3 DUP2 SLOAD DUP2 LT PUSH2 0x1400 JUMPI PUSH2 0x13FF PUSH2 0x35FF JUMP JUMPDEST JUMPDEST SWAP1 PUSH1 0x0 MSTORE PUSH1 0x20 PUSH1 0x0 KECCAK256 SWAP1 PUSH1 0x3 MUL ADD PUSH1 0x0 ADD PUSH1 0x0 SWAP1 SLOAD SWAP1 PUSH2 0x100 EXP SWAP1 DIV PUSH20 0xFFFFFFFFFFFFFFFFFFFFFFFFFFFFFFFFFFFFFFFF AND PUSH20 0xFFFFFFFFFFFFFFFFFFFFFFFFFFFFFFFFFFFFFFFF AND EQ ISZERO PUSH2 0x1511 JUMPI PUSH1 0x2 PUSH1 0x40 MLOAD DUP1 PUSH1 0x40 ADD PUSH1 0x40 MSTORE DUP1 CALLER PUSH20 0xFFFFFFFFFFFFFFFFFFFFFFFFFFFFFFFFFFFFFFFF AND DUP2 MSTORE PUSH1 0x20 ADD PUSH1 0x0 ISZERO ISZERO DUP2 MSTORE POP SWAP1 DUP1 PUSH1 0x1 DUP2 SLOAD ADD DUP1 DUP3 SSTORE DUP1 SWAP2 POP POP PUSH1 0x1 SWAP1 SUB SWAP1 PUSH1 0x0 MSTORE PUSH1 0x20 PUSH1 0x0 KECCAK256 ADD PUSH1 0x0 SWAP1 SWAP2 SWAP1 SWAP2 SWAP1 SWAP2 POP PUSH1 0x0 DUP3 ADD MLOAD DUP2 PUSH1 0x0 ADD PUSH1 0x0 PUSH2 0x100 EXP DUP2 SLOAD DUP2 PUSH20 0xFFFFFFFFFFFFFFFFFFFFFFFFFFFFFFFFFFFFFFFF MUL NOT AND SWAP1 DUP4 PUSH20 0xFFFFFFFFFFFFFFFFFFFFFFFFFFFFFFFFFFFFFFFF AND MUL OR SWAP1 SSTORE POP PUSH1 0x20 DUP3 ADD MLOAD DUP2 PUSH1 0x0 ADD PUSH1 0x14 PUSH2 0x100 EXP DUP2 SLOAD DUP2 PUSH1 0xFF MUL NOT AND SWAP1 DUP4 ISZERO ISZERO MUL OR SWAP1 SSTORE POP POP POP PUSH2 0x1524 JUMP JUMPDEST DUP1 DUP1 PUSH2 0x151C SWAP1 PUSH2 0x3558 JUMP JUMPDEST SWAP2 POP POP PUSH2 0x135F JUMP JUMPDEST POP JUMP JUMPDEST CALLER PUSH1 0x0 JUMPDEST PUSH1 0x1 DUP1 SLOAD SWAP1 POP DUP2 LT ISZERO PUSH2 0x15FF JUMPI DUP2 PUSH20 0xFFFFFFFFFFFFFFFFFFFFFFFFFFFFFFFFFFFFFFFF AND PUSH1 0x1 DUP3 DUP2 SLOAD DUP2 LT PUSH2 0x1563 JUMPI PUSH2 0x1562 PUSH2 0x35FF JUMP JUMPDEST JUMPDEST SWAP1 PUSH1 0x0 MSTORE PUSH1 0x20 PUSH1 0x0 KECCAK256 SWAP1 PUSH1 0x3 MUL ADD PUSH1 0x0 ADD PUSH1 0x0 SWAP1 SLOAD SWAP1 PUSH2 0x100 EXP SWAP1 DIV PUSH20 0xFFFFFFFFFFFFFFFFFFFFFFFFFFFFFFFFFFFFFFFF AND PUSH20 0xFFFFFFFFFFFFFFFFFFFFFFFFFFFFFFFFFFFFFFFF AND EQ ISZERO PUSH2 0x15EC JUMPI PUSH1 0x40 MLOAD PUSH32 0x8C379A000000000000000000000000000000000000000000000000000000000 DUP2 MSTORE PUSH1 0x4 ADD PUSH2 0x15E3 SWAP1 PUSH2 0x3185 JUMP JUMPDEST PUSH1 0x40 MLOAD DUP1 SWAP2 SUB SWAP1 REVERT JUMPDEST DUP1 DUP1 PUSH2 0x15F7 SWAP1 PUSH2 0x3558 JUMP JUMPDEST SWAP2 POP POP PUSH2 0x152B JUMP JUMPDEST POP PUSH1 0x1 PUSH1 0x40 MLOAD DUP1 PUSH1 0x60 ADD PUSH1 0x40 MSTORE DUP1 CALLER PUSH20 0xFFFFFFFFFFFFFFFFFFFFFFFFFFFFFFFFFFFFFFFF AND DUP2 MSTORE PUSH1 0x20 ADD PUSH1 0x2 DUP2 MSTORE PUSH1 0x20 ADD PUSH1 0x2 DUP2 MSTORE POP SWAP1 DUP1 PUSH1 0x1 DUP2 SLOAD ADD DUP1 DUP3 SSTORE DUP1 SWAP2 POP POP PUSH1 0x1 SWAP1 SUB SWAP1 PUSH1 0x0 MSTORE PUSH1 0x20 PUSH1 0x0 KECCAK256 SWAP1 PUSH1 0x3 MUL ADD PUSH1 0x0 SWAP1 SWAP2 SWAP1 SWAP2 SWAP1 SWAP2 POP PUSH1 0x0 DUP3 ADD MLOAD DUP2 PUSH1 0x0 ADD PUSH1 0x0 PUSH2 0x100 EXP DUP2 SLOAD DUP2 PUSH20 0xFFFFFFFFFFFFFFFFFFFFFFFFFFFFFFFFFFFFFFFF MUL NOT AND SWAP1 DUP4 PUSH20 0xFFFFFFFFFFFFFFFFFFFFFFFFFFFFFFFFFFFFFFFF AND MUL OR SWAP1 SSTORE POP PUSH1 0x20 DUP3 ADD MLOAD DUP2 PUSH1 0x1 ADD SSTORE PUSH1 0x40 DUP3 ADD MLOAD DUP2 PUSH1 0x2 ADD SSTORE POP POP POP JUMP JUMPDEST PUSH1 0x0 JUMPDEST PUSH1 0x0 DUP3 DUP2 SLOAD DUP2 LT PUSH2 0x16D5 JUMPI PUSH2 0x16D4 PUSH2 0x35FF JUMP JUMPDEST JUMPDEST SWAP1 PUSH1 0x0 MSTORE PUSH1 0x20 PUSH1 0x0 KECCAK256 SWAP1 PUSH1 0x4 MUL ADD PUSH1 0x3 ADD DUP1 SLOAD SWAP1 POP DUP2 LT ISZERO PUSH2 0x17DC JUMPI PUSH1 0x2 PUSH1 0x1 PUSH1 0x0 DUP5 DUP2 SLOAD DUP2 LT PUSH2 0x1709 JUMPI PUSH2 0x1708 PUSH2 0x35FF JUMP JUMPDEST JUMPDEST SWAP1 PUSH1 0x0 MSTORE PUSH1 0x20 PUSH1 0x0 KECCAK256 SWAP1 PUSH1 0x4 MUL ADD PUSH1 0x3 ADD DUP4 DUP2 SLOAD DUP2 LT PUSH2 0x172C JUMPI PUSH2 0x172B PUSH2 0x35FF JUMP JUMPDEST JUMPDEST SWAP1 PUSH1 0x0 MSTORE PUSH1 0x20 PUSH1 0x0 KECCAK256 ADD SLOAD DUP2 SLOAD DUP2 LT PUSH2 0x1748 JUMPI PUSH2 0x1747 PUSH2 0x35FF JUMP JUMPDEST JUMPDEST SWAP1 PUSH1 0x0 MSTORE PUSH1 0x20 PUSH1 0x0 KECCAK256 SWAP1 PUSH1 0x3 MUL ADD PUSH1 0x1 ADD DUP2 SWAP1 SSTORE POP PUSH1 0x2 PUSH1 0x1 PUSH1 0x0 DUP5 DUP2 SLOAD DUP2 LT PUSH2 0x1775 JUMPI PUSH2 0x1774 PUSH2 0x35FF JUMP JUMPDEST JUMPDEST SWAP1 PUSH1 0x0 MSTORE PUSH1 0x20 PUSH1 0x0 KECCAK256 SWAP1 PUSH1 0x4 MUL ADD PUSH1 0x3 ADD DUP4 DUP2 SLOAD DUP2 LT PUSH2 0x1798 JUMPI PUSH2 0x1797 PUSH2 0x35FF JUMP JUMPDEST JUMPDEST SWAP1 PUSH1 0x0 MSTORE PUSH1 0x20 PUSH1 0x0 KECCAK256 ADD SLOAD DUP2 SLOAD DUP2 LT PUSH2 0x17B4 JUMPI PUSH2 0x17B3 PUSH2 0x35FF JUMP JUMPDEST JUMPDEST SWAP1 PUSH1 0x0 MSTORE PUSH1 0x20 PUSH1 0x0 KECCAK256 SWAP1 PUSH1 0x3 MUL ADD PUSH1 0x2 ADD DUP2 SWAP1 SSTORE POP DUP1 DUP1 PUSH2 0x17D4 SWAP1 PUSH2 0x3558 JUMP JUMPDEST SWAP2 POP POP PUSH2 0x16C1 JUMP JUMPDEST POP PUSH1 0x0 DUP2 DUP2 SLOAD DUP2 LT PUSH2 0x17F1 JUMPI PUSH2 0x17F0 PUSH2 0x35FF JUMP JUMPDEST JUMPDEST SWAP1 PUSH1 0x0 MSTORE PUSH1 0x20 PUSH1 0x0 KECCAK256 SWAP1 PUSH1 0x4 MUL ADD PUSH1 0x0 DUP1 DUP3 ADD PUSH1 0x0 PUSH2 0x100 EXP DUP2 SLOAD SWAP1 PUSH20 0xFFFFFFFFFFFFFFFFFFFFFFFFFFFFFFFFFFFFFFFF MUL NOT AND SWAP1 SSTORE PUSH1 0x1 DUP3 ADD PUSH1 0x0 PUSH2 0x1837 SWAP2 SWAP1 PUSH2 0x2547 JUMP JUMPDEST PUSH1 0x2 DUP3 ADD PUSH1 0x0 PUSH2 0x1847 SWAP2 SWAP1 PUSH2 0x2587 JUMP JUMPDEST PUSH1 0x3 DUP3 ADD PUSH1 0x0 PUSH2 0x1857 SWAP2 SWAP1 PUSH2 0x25AB JUMP JUMPDEST POP POP POP JUMP JUMPDEST CALLER PUSH1 0x0 JUMPDEST PUSH1 0x1 DUP1 SLOAD SWAP1 POP DUP2 LT ISZERO PUSH2 0x1966 JUMPI DUP2 PUSH20 0xFFFFFFFFFFFFFFFFFFFFFFFFFFFFFFFFFFFFFFFF AND PUSH1 0x1 DUP3 DUP2 SLOAD DUP2 LT PUSH2 0x1898 JUMPI PUSH2 0x1897 PUSH2 0x35FF JUMP JUMPDEST JUMPDEST SWAP1 PUSH1 0x0 MSTORE PUSH1 0x20 PUSH1 0x0 KECCAK256 SWAP1 PUSH1 0x3 MUL ADD PUSH1 0x0 ADD PUSH1 0x0 SWAP1 SLOAD SWAP1 PUSH2 0x100 EXP SWAP1 DIV PUSH20 0xFFFFFFFFFFFFFFFFFFFFFFFFFFFFFFFFFFFFFFFF AND PUSH20 0xFFFFFFFFFFFFFFFFFFFFFFFFFFFFFFFFFFFFFFFF AND EQ ISZERO PUSH2 0x1953 JUMPI PUSH1 0x2 PUSH1 0x1 DUP3 DUP2 SLOAD DUP2 LT PUSH2 0x18FC JUMPI PUSH2 0x18FB PUSH2 0x35FF JUMP JUMPDEST JUMPDEST SWAP1 PUSH1 0x0 MSTORE PUSH1 0x20 PUSH1 0x0 KECCAK256 SWAP1 PUSH1 0x3 MUL ADD PUSH1 0x1 ADD SLOAD EQ PUSH2 0x194E JUMPI PUSH1 0x40 MLOAD PUSH32 0x8C379A000000000000000000000000000000000000000000000000000000000 DUP2 MSTORE PUSH1 0x4 ADD PUSH2 0x1945 SWAP1 PUSH2 0x3125 JUMP JUMPDEST PUSH1 0x40 MLOAD DUP1 SWAP2 SUB SWAP1 REVERT JUMPDEST PUSH2 0x1966 JUMP JUMPDEST DUP1 DUP1 PUSH2 0x195E SWAP1 PUSH2 0x3558 JUMP JUMPDEST SWAP2 POP POP PUSH2 0x1860 JUMP JUMPDEST POP PUSH1 0x0 DUP5 DUP2 SLOAD DUP2 LT PUSH2 0x197B JUMPI PUSH2 0x197A PUSH2 0x35FF JUMP JUMPDEST JUMPDEST SWAP1 PUSH1 0x0 MSTORE PUSH1 0x20 PUSH1 0x0 KECCAK256 SWAP1 PUSH1 0x4 MUL ADD PUSH1 0x2 ADD DUP4 DUP2 SLOAD DUP2 LT PUSH2 0x199E JUMPI PUSH2 0x199D PUSH2 0x35FF JUMP JUMPDEST JUMPDEST SWAP1 PUSH1 0x0 MSTORE PUSH1 0x20 PUSH1 0x0 KECCAK256 SWAP1 PUSH1 0x5 MUL ADD PUSH1 0x2 ADD PUSH1 0x40 MLOAD DUP1 PUSH1 0x40 ADD PUSH1 0x40 MSTORE DUP1 CALLER PUSH20 0xFFFFFFFFFFFFFFFFFFFFFFFFFFFFFFFFFFFFFFFF AND DUP2 MSTORE PUSH1 0x20 ADD DUP5 ISZERO ISZERO DUP2 MSTORE POP SWAP1 DUP1 PUSH1 0x1 DUP2 SLOAD ADD DUP1 DUP3 SSTORE DUP1 SWAP2 POP POP PUSH1 0x1 SWAP1 SUB SWAP1 PUSH1 0x0 MSTORE PUSH1 0x20 PUSH1 0x0 KECCAK256 ADD PUSH1 0x0 SWAP1 SWAP2 SWAP1 SWAP2 SWAP1 SWAP2 POP PUSH1 0x0 DUP3 ADD MLOAD DUP2 PUSH1 0x0 ADD PUSH1 0x0 PUSH2 0x100 EXP DUP2 SLOAD DUP2 PUSH20 0xFFFFFFFFFFFFFFFFFFFFFFFFFFFFFFFFFFFFFFFF MUL NOT AND SWAP1 DUP4 PUSH20 0xFFFFFFFFFFFFFFFFFFFFFFFFFFFFFFFFFFFFFFFF AND MUL OR SWAP1 SSTORE POP PUSH1 0x20 DUP3 ADD MLOAD DUP2 PUSH1 0x0 ADD PUSH1 0x14 PUSH2 0x100 EXP DUP2 SLOAD DUP2 PUSH1 0xFF MUL NOT AND SWAP1 DUP4 ISZERO ISZERO MUL OR SWAP1 SSTORE POP POP POP POP POP POP POP JUMP JUMPDEST PUSH1 0x0 JUMPDEST PUSH1 0x1 DUP1 SLOAD SWAP1 POP DUP2 LT ISZERO PUSH2 0x1C4C JUMPI PUSH1 0x2 PUSH1 0x1 DUP3 DUP2 SLOAD DUP2 LT PUSH2 0x1A96 JUMPI PUSH2 0x1A95 PUSH2 0x35FF JUMP JUMPDEST JUMPDEST SWAP1 PUSH1 0x0 MSTORE PUSH1 0x20 PUSH1 0x0 KECCAK256 SWAP1 PUSH1 0x3 MUL ADD PUSH1 0x1 ADD SLOAD EQ ISZERO PUSH2 0x1AE9 JUMPI PUSH1 0x40 MLOAD PUSH32 0x8C379A000000000000000000000000000000000000000000000000000000000 DUP2 MSTORE PUSH1 0x4 ADD PUSH2 0x1AE0 SWAP1 PUSH2 0x3145 JUMP JUMPDEST PUSH1 0x40 MLOAD DUP1 SWAP2 SUB SWAP1 REVERT JUMPDEST CALLER PUSH20 0xFFFFFFFFFFFFFFFFFFFFFFFFFFFFFFFFFFFFFFFF AND PUSH1 0x1 DUP3 DUP2 SLOAD DUP2 LT PUSH2 0x1B14 JUMPI PUSH2 0x1B13 PUSH2 0x35FF JUMP JUMPDEST JUMPDEST SWAP1 PUSH1 0x0 MSTORE PUSH1 0x20 PUSH1 0x0 KECCAK256 SWAP1 PUSH1 0x3 MUL ADD PUSH1 0x0 ADD PUSH1 0x0 SWAP1 SLOAD SWAP1 PUSH2 0x100 EXP SWAP1 DIV PUSH20 0xFFFFFFFFFFFFFFFFFFFFFFFFFFFFFFFFFFFFFFFF AND PUSH20 0xFFFFFFFFFFFFFFFFFFFFFFFFFFFFFFFFFFFFFFFF AND EQ ISZERO PUSH2 0x1C39 JUMPI PUSH1 0x1 DUP2 DUP2 SLOAD DUP2 LT PUSH2 0x1B76 JUMPI PUSH2 0x1B75 PUSH2 0x35FF JUMP JUMPDEST JUMPDEST SWAP1 PUSH1 0x0 MSTORE PUSH1 0x20 PUSH1 0x0 KECCAK256 SWAP1 PUSH1 0x3 MUL ADD PUSH1 0x2 ADD SLOAD PUSH1 0x1 DUP3 DUP2 SLOAD DUP2 LT PUSH2 0x1B9C JUMPI PUSH2 0x1B9B PUSH2 0x35FF JUMP JUMPDEST JUMPDEST SWAP1 PUSH1 0x0 MSTORE PUSH1 0x20 PUSH1 0x0 KECCAK256 SWAP1 PUSH1 0x3 MUL ADD PUSH1 0x1 ADD SLOAD EQ ISZERO PUSH2 0x1BE4 JUMPI PUSH1 0x2 PUSH1 0x1 DUP3 DUP2 SLOAD DUP2 LT PUSH2 0x1BCA JUMPI PUSH2 0x1BC9 PUSH2 0x35FF JUMP JUMPDEST JUMPDEST SWAP1 PUSH1 0x0 MSTORE PUSH1 0x20 PUSH1 0x0 KECCAK256 SWAP1 PUSH1 0x3 MUL ADD PUSH1 0x2 ADD DUP2 SWAP1 SSTORE POP PUSH2 0x1C34 JUMP JUMPDEST PUSH1 0x1 DUP2 DUP2 SLOAD DUP2 LT PUSH2 0x1BF8 JUMPI PUSH2 0x1BF7 PUSH2 0x35FF JUMP JUMPDEST JUMPDEST SWAP1 PUSH1 0x0 MSTORE PUSH1 0x20 PUSH1 0x0 KECCAK256 SWAP1 PUSH1 0x3 MUL ADD PUSH1 0x1 ADD SLOAD PUSH1 0x1 DUP3 DUP2 SLOAD DUP2 LT PUSH2 0x1C1E JUMPI PUSH2 0x1C1D PUSH2 0x35FF JUMP JUMPDEST JUMPDEST SWAP1 PUSH1 0x0 MSTORE PUSH1 0x20 PUSH1 0x0 KECCAK256 SWAP1 PUSH1 0x3 MUL ADD PUSH1 0x2 ADD DUP2 SWAP1 SSTORE POP JUMPDEST PUSH2 0x1C4C JUMP JUMPDEST DUP1 DUP1 PUSH2 0x1C44 SWAP1 PUSH2 0x3558 JUMP JUMPDEST SWAP2 POP POP PUSH2 0x1A73 JUMP JUMPDEST POP JUMP JUMPDEST CALLER PUSH1 0x0 JUMPDEST PUSH1 0x1 DUP1 SLOAD SWAP1 POP DUP2 LT ISZERO PUSH2 0x1D59 JUMPI DUP2 PUSH20 0xFFFFFFFFFFFFFFFFFFFFFFFFFFFFFFFFFFFFFFFF AND PUSH1 0x1 DUP3 DUP2 SLOAD DUP2 LT PUSH2 0x1C8B JUMPI PUSH2 0x1C8A PUSH2 0x35FF JUMP JUMPDEST JUMPDEST SWAP1 PUSH1 0x0 MSTORE PUSH1 0x20 PUSH1 0x0 KECCAK256 SWAP1 PUSH1 0x3 MUL ADD PUSH1 0x0 ADD PUSH1 0x0 SWAP1 SLOAD SWAP1 PUSH2 0x100 EXP SWAP1 DIV PUSH20 0xFFFFFFFFFFFFFFFFFFFFFFFFFFFFFFFFFFFFFFFF AND PUSH20 0xFFFFFFFFFFFFFFFFFFFFFFFFFFFFFFFFFFFFFFFF AND EQ ISZERO PUSH2 0x1D46 JUMPI PUSH1 0x2 PUSH1 0x1 DUP3 DUP2 SLOAD DUP2 LT PUSH2 0x1CEF JUMPI PUSH2 0x1CEE PUSH2 0x35FF JUMP JUMPDEST JUMPDEST SWAP1 PUSH1 0x0 MSTORE PUSH1 0x20 PUSH1 0x0 KECCAK256 SWAP1 PUSH1 0x3 MUL ADD PUSH1 0x1 ADD SLOAD EQ PUSH2 0x1D41 JUMPI PUSH1 0x40 MLOAD PUSH32 0x8C379A000000000000000000000000000000000000000000000000000000000 DUP2 MSTORE PUSH1 0x4 ADD PUSH2 0x1D38 SWAP1 PUSH2 0x3125 JUMP JUMPDEST PUSH1 0x40 MLOAD DUP1 SWAP2 SUB SWAP1 REVERT JUMPDEST PUSH2 0x1D59 JUMP JUMPDEST DUP1 DUP1 PUSH2 0x1D51 SWAP1 PUSH2 0x3558 JUMP JUMPDEST SWAP2 POP POP PUSH2 0x1C53 JUMP JUMPDEST POP PUSH1 0x0 DUP6 DUP2 SLOAD DUP2 LT PUSH2 0x1D6E JUMPI PUSH2 0x1D6D PUSH2 0x35FF JUMP JUMPDEST JUMPDEST SWAP1 PUSH1 0x0 MSTORE PUSH1 0x20 PUSH1 0x0 KECCAK256 SWAP1 PUSH1 0x4 MUL ADD PUSH1 0x2 ADD DUP5 DUP2 SLOAD DUP2 LT PUSH2 0x1D91 JUMPI PUSH2 0x1D90 PUSH2 0x35FF JUMP JUMPDEST JUMPDEST SWAP1 PUSH1 0x0 MSTORE PUSH1 0x20 PUSH1 0x0 KECCAK256 SWAP1 PUSH1 0x5 MUL ADD PUSH1 0x3 ADD DUP4 DUP2 SLOAD DUP2 LT PUSH2 0x1DB4 JUMPI PUSH2 0x1DB3 PUSH2 0x35FF JUMP JUMPDEST JUMPDEST SWAP1 PUSH1 0x0 MSTORE PUSH1 0x20 PUSH1 0x0 KECCAK256 SWAP1 PUSH1 0x3 MUL ADD PUSH1 0x1 ADD PUSH1 0x40 MLOAD DUP1 PUSH1 0x40 ADD PUSH1 0x40 MSTORE DUP1 CALLER PUSH20 0xFFFFFFFFFFFFFFFFFFFFFFFFFFFFFFFFFFFFFFFF AND DUP2 MSTORE PUSH1 0x20 ADD DUP5 ISZERO ISZERO DUP2 MSTORE POP SWAP1 DUP1 PUSH1 0x1 DUP2 SLOAD ADD DUP1 DUP3 SSTORE DUP1 SWAP2 POP POP PUSH1 0x1 SWAP1 SUB SWAP1 PUSH1 0x0 MSTORE PUSH1 0x20 PUSH1 0x0 KECCAK256 ADD PUSH1 0x0 SWAP1 SWAP2 SWAP1 SWAP2 SWAP1 SWAP2 POP PUSH1 0x0 DUP3 ADD MLOAD DUP2 PUSH1 0x0 ADD PUSH1 0x0 PUSH2 0x100 EXP DUP2 SLOAD DUP2 PUSH20 0xFFFFFFFFFFFFFFFFFFFFFFFFFFFFFFFFFFFFFFFF MUL NOT AND SWAP1 DUP4 PUSH20 0xFFFFFFFFFFFFFFFFFFFFFFFFFFFFFFFFFFFFFFFF AND MUL OR SWAP1 SSTORE POP PUSH1 0x20 DUP3 ADD MLOAD DUP2 PUSH1 0x0 ADD PUSH1 0x14 PUSH2 0x100 EXP DUP2 SLOAD DUP2 PUSH1 0xFF MUL NOT AND SWAP1 DUP4 ISZERO ISZERO MUL OR SWAP1 SSTORE POP POP POP POP POP POP POP POP JUMP JUMPDEST CALLER PUSH1 0x0 DUP1 JUMPDEST PUSH1 0x1 DUP1 SLOAD SWAP1 POP DUP2 LT ISZERO PUSH2 0x1F2E JUMPI DUP3 PUSH20 0xFFFFFFFFFFFFFFFFFFFFFFFFFFFFFFFFFFFFFFFF AND PUSH1 0x1 DUP3 DUP2 SLOAD DUP2 LT PUSH2 0x1EC4 JUMPI PUSH2 0x1EC3 PUSH2 0x35FF JUMP JUMPDEST JUMPDEST SWAP1 PUSH1 0x0 MSTORE PUSH1 0x20 PUSH1 0x0 KECCAK256 SWAP1 PUSH1 0x3 MUL ADD PUSH1 0x0 ADD PUSH1 0x0 SWAP1 SLOAD SWAP1 PUSH2 0x100 EXP SWAP1 DIV PUSH20 0xFFFFFFFFFFFFFFFFFFFFFFFFFFFFFFFFFFFFFFFF AND PUSH20 0xFFFFFFFFFFFFFFFFFFFFFFFFFFFFFFFFFFFFFFFF AND EQ ISZERO PUSH2 0x1F1B JUMPI PUSH1 0x1 SWAP2 POP PUSH2 0x1F2E JUMP JUMPDEST DUP1 DUP1 PUSH2 0x1F26 SWAP1 PUSH2 0x3558 JUMP JUMPDEST SWAP2 POP POP PUSH2 0x1E8C JUMP JUMPDEST POP DUP1 ISZERO PUSH2 0x1F70 JUMPI PUSH1 0x40 MLOAD PUSH32 0x8C379A000000000000000000000000000000000000000000000000000000000 DUP2 MSTORE PUSH1 0x4 ADD PUSH2 0x1F67 SWAP1 PUSH2 0x3165 JUMP JUMPDEST PUSH1 0x40 MLOAD DUP1 SWAP2 SUB SWAP1 REVERT JUMPDEST CALLER PUSH1 0x0 JUMPDEST PUSH1 0x1 DUP1 SLOAD SWAP1 POP DUP2 LT ISZERO PUSH2 0x207A JUMPI DUP2 PUSH20 0xFFFFFFFFFFFFFFFFFFFFFFFFFFFFFFFFFFFFFFFF AND PUSH1 0x1 DUP3 DUP2 SLOAD DUP2 LT PUSH2 0x1FAC JUMPI PUSH2 0x1FAB PUSH2 0x35FF JUMP JUMPDEST JUMPDEST SWAP1 PUSH1 0x0 MSTORE PUSH1 0x20 PUSH1 0x0 KECCAK256 SWAP1 PUSH1 0x3 MUL ADD PUSH1 0x0 ADD PUSH1 0x0 SWAP1 SLOAD SWAP1 PUSH2 0x100 EXP SWAP1 DIV PUSH20 0xFFFFFFFFFFFFFFFFFFFFFFFFFFFFFFFFFFFFFFFF AND PUSH20 0xFFFFFFFFFFFFFFFFFFFFFFFFFFFFFFFFFFFFFFFF AND EQ ISZERO PUSH2 0x2067 JUMPI PUSH1 0x0 PUSH1 0x1 DUP3 DUP2 SLOAD DUP2 LT PUSH2 0x2010 JUMPI PUSH2 0x200F PUSH2 0x35FF JUMP JUMPDEST JUMPDEST SWAP1 PUSH1 0x0 MSTORE PUSH1 0x20 PUSH1 0x0 KECCAK256 SWAP1 PUSH1 0x3 MUL ADD PUSH1 0x2 ADD SLOAD EQ PUSH2 0x2062 JUMPI PUSH1 0x40 MLOAD PUSH32 0x8C379A000000000000000000000000000000000000000000000000000000000 DUP2 MSTORE PUSH1 0x4 ADD PUSH2 0x2059 SWAP1 PUSH2 0x3125 JUMP JUMPDEST PUSH1 0x40 MLOAD DUP1 SWAP2 SUB SWAP1 REVERT JUMPDEST PUSH2 0x207A JUMP JUMPDEST DUP1 DUP1 PUSH2 0x2072 SWAP1 PUSH2 0x3558 JUMP JUMPDEST SWAP2 POP POP PUSH2 0x1F74 JUMP JUMPDEST POP PUSH1 0x0 JUMPDEST PUSH1 0x1 DUP1 SLOAD SWAP1 POP DUP2 LT ISZERO PUSH2 0x21B0 JUMPI DUP5 PUSH20 0xFFFFFFFFFFFFFFFFFFFFFFFFFFFFFFFFFFFFFFFF AND PUSH1 0x1 DUP3 DUP2 SLOAD DUP2 LT PUSH2 0x20B6 JUMPI PUSH2 0x20B5 PUSH2 0x35FF JUMP JUMPDEST JUMPDEST SWAP1 PUSH1 0x0 MSTORE PUSH1 0x20 PUSH1 0x0 KECCAK256 SWAP1 PUSH1 0x3 MUL ADD PUSH1 0x0 ADD PUSH1 0x0 SWAP1 SLOAD SWAP1 PUSH2 0x100 EXP SWAP1 DIV PUSH20 0xFFFFFFFFFFFFFFFFFFFFFFFFFFFFFFFFFFFFFFFF AND PUSH20 0xFFFFFFFFFFFFFFFFFFFFFFFFFFFFFFFFFFFFFFFF AND EQ ISZERO PUSH2 0x219D JUMPI PUSH1 0x0 PUSH1 0x1 DUP3 DUP2 SLOAD DUP2 LT PUSH2 0x211A JUMPI PUSH2 0x2119 PUSH2 0x35FF JUMP JUMPDEST JUMPDEST SWAP1 PUSH1 0x0 MSTORE PUSH1 0x20 PUSH1 0x0 KECCAK256 SWAP1 PUSH1 0x3 MUL ADD PUSH1 0x1 ADD SLOAD EQ ISZERO PUSH2 0x216D JUMPI PUSH1 0x40 MLOAD PUSH32 0x8C379A000000000000000000000000000000000000000000000000000000000 DUP2 MSTORE PUSH1 0x4 ADD PUSH2 0x2164 SWAP1 PUSH2 0x31A5 JUMP JUMPDEST PUSH1 0x40 MLOAD DUP1 SWAP2 SUB SWAP1 REVERT JUMPDEST PUSH1 0x0 PUSH1 0x1 DUP3 DUP2 SLOAD DUP2 LT PUSH2 0x2183 JUMPI PUSH2 0x2182 PUSH2 0x35FF JUMP JUMPDEST JUMPDEST SWAP1 PUSH1 0x0 MSTORE PUSH1 0x20 PUSH1 0x0 KECCAK256 SWAP1 PUSH1 0x3 MUL ADD PUSH1 0x1 ADD DUP2 SWAP1 SSTORE POP PUSH2 0x21B0 JUMP JUMPDEST DUP1 DUP1 PUSH2 0x21A8 SWAP1 PUSH2 0x3558 JUMP JUMPDEST SWAP2 POP POP PUSH2 0x207E JUMP JUMPDEST POP POP POP POP POP JUMP JUMPDEST PUSH1 0x0 DUP4 DUP2 SLOAD DUP2 LT PUSH2 0x21CB JUMPI PUSH2 0x21CA PUSH2 0x35FF JUMP JUMPDEST JUMPDEST SWAP1 PUSH1 0x0 MSTORE PUSH1 0x20 PUSH1 0x0 KECCAK256 SWAP1 PUSH1 0x4 MUL ADD PUSH1 0x2 ADD DUP3 DUP2 SLOAD DUP2 LT PUSH2 0x21EE JUMPI PUSH2 0x21ED PUSH2 0x35FF JUMP JUMPDEST JUMPDEST SWAP1 PUSH1 0x0 MSTORE PUSH1 0x20 PUSH1 0x0 KECCAK256 SWAP1 PUSH1 0x5 MUL ADD PUSH1 0x3 ADD PUSH1 0x1 DUP2 PUSH1 0x1 DUP2 SLOAD ADD DUP1 DUP3 SSTORE DUP1 SWAP2 POP POP SUB SWAP1 PUSH1 0x0 MSTORE PUSH1 0x20 PUSH1 0x0 KECCAK256 SWAP1 POP POP CALLER PUSH1 0x0 DUP5 DUP2 SLOAD DUP2 LT PUSH2 0x2230 JUMPI PUSH2 0x222F PUSH2 0x35FF JUMP JUMPDEST JUMPDEST SWAP1 PUSH1 0x0 MSTORE PUSH1 0x20 PUSH1 0x0 KECCAK256 SWAP1 PUSH1 0x4 MUL ADD PUSH1 0x2 ADD DUP4 DUP2 SLOAD DUP2 LT PUSH2 0x2253 JUMPI PUSH2 0x2252 PUSH2 0x35FF JUMP JUMPDEST JUMPDEST SWAP1 PUSH1 0x0 MSTORE PUSH1 0x20 PUSH1 0x0 KECCAK256 SWAP1 PUSH1 0x5 MUL ADD PUSH1 0x3 ADD PUSH1 0x1 PUSH1 0x0 DUP7 DUP2 SLOAD DUP2 LT PUSH2 0x227A JUMPI PUSH2 0x2279 PUSH2 0x35FF JUMP JUMPDEST JUMPDEST SWAP1 PUSH1 0x0 MSTORE PUSH1 0x20 PUSH1 0x0 KECCAK256 SWAP1 PUSH1 0x4 MUL ADD PUSH1 0x2 ADD DUP6 DUP2 SLOAD DUP2 LT PUSH2 0x229D JUMPI PUSH2 0x229C PUSH2 0x35FF JUMP JUMPDEST JUMPDEST SWAP1 PUSH1 0x0 MSTORE PUSH1 0x20 PUSH1 0x0 KECCAK256 SWAP1 PUSH1 0x5 MUL ADD PUSH1 0x3 ADD DUP1 SLOAD SWAP1 POP PUSH2 0x22BC SWAP2 SWAP1 PUSH2 0x3437 JUMP JUMPDEST DUP2 SLOAD DUP2 LT PUSH2 0x22CD JUMPI PUSH2 0x22CC PUSH2 0x35FF JUMP JUMPDEST JUMPDEST SWAP1 PUSH1 0x0 MSTORE PUSH1 0x20 PUSH1 0x0 KECCAK256 SWAP1 PUSH1 0x3 MUL ADD PUSH1 0x0 ADD PUSH1 0x0 PUSH2 0x100 EXP DUP2 SLOAD DUP2 PUSH20 0xFFFFFFFFFFFFFFFFFFFFFFFFFFFFFFFFFFFFFFFF MUL NOT AND SWAP1 DUP4 PUSH20 0xFFFFFFFFFFFFFFFFFFFFFFFFFFFFFFFFFFFFFFFF AND MUL OR SWAP1 SSTORE POP DUP1 PUSH1 0x0 DUP5 DUP2 SLOAD DUP2 LT PUSH2 0x2331 JUMPI PUSH2 0x2330 PUSH2 0x35FF JUMP JUMPDEST JUMPDEST SWAP1 PUSH1 0x0 MSTORE PUSH1 0x20 PUSH1 0x0 KECCAK256 SWAP1 PUSH1 0x4 MUL ADD PUSH1 0x2 ADD DUP4 DUP2 SLOAD DUP2 LT PUSH2 0x2354 JUMPI PUSH2 0x2353 PUSH2 0x35FF JUMP JUMPDEST JUMPDEST SWAP1 PUSH1 0x0 MSTORE PUSH1 0x20 PUSH1 0x0 KECCAK256 SWAP1 PUSH1 0x5 MUL ADD PUSH1 0x3 ADD PUSH1 0x1 PUSH1 0x0 DUP7 DUP2 SLOAD DUP2 LT PUSH2 0x237B JUMPI PUSH2 0x237A PUSH2 0x35FF JUMP JUMPDEST JUMPDEST SWAP1 PUSH1 0x0 MSTORE PUSH1 0x20 PUSH1 0x0 KECCAK256 SWAP1 PUSH1 0x4 MUL ADD PUSH1 0x2 ADD DUP6 DUP2 SLOAD DUP2 LT PUSH2 0x239E JUMPI PUSH2 0x239D PUSH2 0x35FF JUMP JUMPDEST JUMPDEST SWAP1 PUSH1 0x0 MSTORE PUSH1 0x20 PUSH1 0x0 KECCAK256 SWAP1 PUSH1 0x5 MUL ADD PUSH1 0x3 ADD DUP1 SLOAD SWAP1 POP PUSH2 0x23BD SWAP2 SWAP1 PUSH2 0x3437 JUMP JUMPDEST DUP2 SLOAD DUP2 LT PUSH2 0x23CE JUMPI PUSH2 0x23CD PUSH2 0x35FF JUMP JUMPDEST JUMPDEST SWAP1 PUSH1 0x0 MSTORE PUSH1 0x20 PUSH1 0x0 KECCAK256 SWAP1 PUSH1 0x3 MUL ADD PUSH1 0x2 ADD SWAP1 DUP1 MLOAD SWAP1 PUSH1 0x20 ADD SWAP1 PUSH2 0x23F2 SWAP3 SWAP2 SWAP1 PUSH2 0x24C1 JUMP JUMPDEST POP POP POP POP JUMP JUMPDEST PUSH1 0x60 PUSH1 0x1 DUP1 SLOAD DUP1 PUSH1 0x20 MUL PUSH1 0x20 ADD PUSH1 0x40 MLOAD SWAP1 DUP2 ADD PUSH1 0x40 MSTORE DUP1 SWAP3 SWAP2 SWAP1 DUP2 DUP2 MSTORE PUSH1 0x20 ADD PUSH1 0x0 SWAP1 JUMPDEST DUP3 DUP3 LT ISZERO PUSH2 0x24B8 JUMPI DUP4 DUP3 SWAP1 PUSH1 0x0 MSTORE PUSH1 0x20 PUSH1 0x0 KECCAK256 SWAP1 PUSH1 0x3 MUL ADD PUSH1 0x40 MLOAD DUP1 PUSH1 0x60 ADD PUSH1 0x40 MSTORE SWAP1 DUP2 PUSH1 0x0 DUP3 ADD PUSH1 0x0 SWAP1 SLOAD SWAP1 PUSH2 0x100 EXP SWAP1 DIV PUSH20 0xFFFFFFFFFFFFFFFFFFFFFFFFFFFFFFFFFFFFFFFF AND PUSH20 0xFFFFFFFFFFFFFFFFFFFFFFFFFFFFFFFFFFFFFFFF AND PUSH20 0xFFFFFFFFFFFFFFFFFFFFFFFFFFFFFFFFFFFFFFFF AND DUP2 MSTORE PUSH1 0x20 ADD PUSH1 0x1 DUP3 ADD SLOAD DUP2 MSTORE PUSH1 0x20 ADD PUSH1 0x2 DUP3 ADD SLOAD DUP2 MSTORE POP POP DUP2 MSTORE PUSH1 0x20 ADD SWAP1 PUSH1 0x1 ADD SWAP1 PUSH2 0x241C JUMP JUMPDEST POP POP POP POP SWAP1 POP SWAP1 JUMP JUMPDEST DUP3 DUP1 SLOAD PUSH2 0x24CD SWAP1 PUSH2 0x34F5 JUMP JUMPDEST SWAP1 PUSH1 0x0 MSTORE PUSH1 0x20 PUSH1 0x0 KECCAK256 SWAP1 PUSH1 0x1F ADD PUSH1 0x20 SWAP1 DIV DUP2 ADD SWAP3 DUP3 PUSH2 0x24EF JUMPI PUSH1 0x0 DUP6 SSTORE PUSH2 0x2536 JUMP JUMPDEST DUP3 PUSH1 0x1F LT PUSH2 0x2508 JUMPI DUP1 MLOAD PUSH1 0xFF NOT AND DUP4 DUP1 ADD OR DUP6 SSTORE PUSH2 0x2536 JUMP JUMPDEST DUP3 DUP1 ADD PUSH1 0x1 ADD DUP6 SSTORE DUP3 ISZERO PUSH2 0x2536 JUMPI SWAP2 DUP3 ADD JUMPDEST DUP3 DUP2 GT ISZERO PUSH2 0x2535 JUMPI DUP3 MLOAD DUP3 SSTORE SWAP2 PUSH1 0x20 ADD SWAP2 SWAP1 PUSH1 0x1 ADD SWAP1 PUSH2 0x251A JUMP JUMPDEST JUMPDEST POP SWAP1 POP PUSH2 0x2543 SWAP2 SWAP1 PUSH2 0x25CC JUMP JUMPDEST POP SWAP1 JUMP JUMPDEST POP DUP1 SLOAD PUSH2 0x2553 SWAP1 PUSH2 0x34F5 JUMP JUMPDEST PUSH1 0x0 DUP3 SSTORE DUP1 PUSH1 0x1F LT PUSH2 0x2565 JUMPI POP PUSH2 0x2584 JUMP JUMPDEST PUSH1 0x1F ADD PUSH1 0x20 SWAP1 DIV SWAP1 PUSH1 0x0 MSTORE PUSH1 0x20 PUSH1 0x0 KECCAK256 SWAP1 DUP2 ADD SWAP1 PUSH2 0x2583 SWAP2 SWAP1 PUSH2 0x25CC JUMP JUMPDEST JUMPDEST POP JUMP JUMPDEST POP DUP1 SLOAD PUSH1 0x0 DUP3 SSTORE PUSH1 0x5 MUL SWAP1 PUSH1 0x0 MSTORE PUSH1 0x20 PUSH1 0x0 KECCAK256 SWAP1 DUP2 ADD SWAP1 PUSH2 0x25A8 SWAP2 SWAP1 PUSH2 0x25E9 JUMP JUMPDEST POP JUMP JUMPDEST POP DUP1 SLOAD PUSH1 0x0 DUP3 SSTORE SWAP1 PUSH1 0x0 MSTORE PUSH1 0x20 PUSH1 0x0 KECCAK256 SWAP1 DUP2 ADD SWAP1 PUSH2 0x25C9 SWAP2 SWAP1 PUSH2 0x25CC JUMP JUMPDEST POP JUMP JUMPDEST JUMPDEST DUP1 DUP3 GT ISZERO PUSH2 0x25E5 JUMPI PUSH1 0x0 DUP2 PUSH1 0x0 SWAP1 SSTORE POP PUSH1 0x1 ADD PUSH2 0x25CD JUMP JUMPDEST POP SWAP1 JUMP JUMPDEST JUMPDEST DUP1 DUP3 GT ISZERO PUSH2 0x265B JUMPI PUSH1 0x0 DUP1 DUP3 ADD PUSH1 0x0 PUSH2 0x100 EXP DUP2 SLOAD SWAP1 PUSH20 0xFFFFFFFFFFFFFFFFFFFFFFFFFFFFFFFFFFFFFFFF MUL NOT AND SWAP1 SSTORE PUSH1 0x1 DUP3 ADD PUSH1 0x0 SWAP1 SSTORE PUSH1 0x2 DUP3 ADD PUSH1 0x0 PUSH2 0x2632 SWAP2 SWAP1 PUSH2 0x265F JUMP JUMPDEST PUSH1 0x3 DUP3 ADD PUSH1 0x0 PUSH2 0x2642 SWAP2 SWAP1 PUSH2 0x2680 JUMP JUMPDEST PUSH1 0x4 DUP3 ADD PUSH1 0x0 PUSH2 0x2652 SWAP2 SWAP1 PUSH2 0x2547 JUMP JUMPDEST POP PUSH1 0x5 ADD PUSH2 0x25EA JUMP JUMPDEST POP SWAP1 JUMP JUMPDEST POP DUP1 SLOAD PUSH1 0x0 DUP3 SSTORE SWAP1 PUSH1 0x0 MSTORE PUSH1 0x20 PUSH1 0x0 KECCAK256 SWAP1 DUP2 ADD SWAP1 PUSH2 0x267D SWAP2 SWAP1 PUSH2 0x26A4 JUMP JUMPDEST POP JUMP JUMPDEST POP DUP1 SLOAD PUSH1 0x0 DUP3 SSTORE PUSH1 0x3 MUL SWAP1 PUSH1 0x0 MSTORE PUSH1 0x20 PUSH1 0x0 KECCAK256 SWAP1 DUP2 ADD SWAP1 PUSH2 0x26A1 SWAP2 SWAP1 PUSH2 0x26F6 JUMP JUMPDEST POP JUMP JUMPDEST JUMPDEST DUP1 DUP3 GT ISZERO PUSH2 0x26F2 JUMPI PUSH1 0x0 DUP1 DUP3 ADD PUSH1 0x0 PUSH2 0x100 EXP DUP2 SLOAD SWAP1 PUSH20 0xFFFFFFFFFFFFFFFFFFFFFFFFFFFFFFFFFFFFFFFF MUL NOT AND SWAP1 SSTORE PUSH1 0x0 DUP3 ADD PUSH1 0x14 PUSH2 0x100 EXP DUP2 SLOAD SWAP1 PUSH1 0xFF MUL NOT AND SWAP1 SSTORE POP PUSH1 0x1 ADD PUSH2 0x26A5 JUMP JUMPDEST POP SWAP1 JUMP JUMPDEST JUMPDEST DUP1 DUP3 GT ISZERO PUSH2 0x2750 JUMPI PUSH1 0x0 DUP1 DUP3 ADD PUSH1 0x0 PUSH2 0x100 EXP DUP2 SLOAD SWAP1 PUSH20 0xFFFFFFFFFFFFFFFFFFFFFFFFFFFFFFFFFFFFFFFF MUL NOT AND SWAP1 SSTORE PUSH1 0x1 DUP3 ADD PUSH1 0x0 PUSH2 0x2737 SWAP2 SWAP1 PUSH2 0x265F JUMP JUMPDEST PUSH1 0x2 DUP3 ADD PUSH1 0x0 PUSH2 0x2747 SWAP2 SWAP1 PUSH2 0x2547 JUMP JUMPDEST POP PUSH1 0x3 ADD PUSH2 0x26F7 JUMP JUMPDEST POP SWAP1 JUMP JUMPDEST PUSH1 0x0 PUSH2 0x2767 PUSH2 0x2762 DUP5 PUSH2 0x324A JUMP JUMPDEST PUSH2 0x3225 JUMP JUMPDEST SWAP1 POP DUP3 DUP2 MSTORE PUSH1 0x20 DUP2 ADD DUP5 DUP5 DUP5 ADD GT ISZERO PUSH2 0x2783 JUMPI PUSH2 0x2782 PUSH2 0x3662 JUMP JUMPDEST JUMPDEST PUSH2 0x278E DUP5 DUP3 DUP6 PUSH2 0x34B3 JUMP JUMPDEST POP SWAP4 SWAP3 POP POP POP JUMP JUMPDEST PUSH1 0x0 DUP2 CALLDATALOAD SWAP1 POP PUSH2 0x27A5 DUP2 PUSH2 0x37CA JUMP JUMPDEST SWAP3 SWAP2 POP POP JUMP JUMPDEST PUSH1 0x0 DUP2 CALLDATALOAD SWAP1 POP PUSH2 0x27BA DUP2 PUSH2 0x37E1 JUMP JUMPDEST SWAP3 SWAP2 POP POP JUMP JUMPDEST PUSH1 0x0 DUP3 PUSH1 0x1F DUP4 ADD SLT PUSH2 0x27D5 JUMPI PUSH2 0x27D4 PUSH2 0x365D JUMP JUMPDEST JUMPDEST DUP2 CALLDATALOAD PUSH2 0x27E5 DUP5 DUP3 PUSH1 0x20 DUP7 ADD PUSH2 0x2754 JUMP JUMPDEST SWAP2 POP POP SWAP3 SWAP2 POP POP JUMP JUMPDEST PUSH1 0x0 DUP2 CALLDATALOAD SWAP1 POP PUSH2 0x27FD DUP2 PUSH2 0x37F8 JUMP JUMPDEST SWAP3 SWAP2 POP POP JUMP JUMPDEST PUSH1 0x0 PUSH1 0x20 DUP3 DUP5 SUB SLT ISZERO PUSH2 0x2819 JUMPI PUSH2 0x2818 PUSH2 0x366C JUMP JUMPDEST JUMPDEST PUSH1 0x0 PUSH2 0x2827 DUP5 DUP3 DUP6 ADD PUSH2 0x2796 JUMP JUMPDEST SWAP2 POP POP SWAP3 SWAP2 POP POP JUMP JUMPDEST PUSH1 0x0 DUP1 PUSH1 0x40 DUP4 DUP6 SUB SLT ISZERO PUSH2 0x2847 JUMPI PUSH2 0x2846 PUSH2 0x366C JUMP JUMPDEST JUMPDEST PUSH1 0x0 PUSH2 0x2855 DUP6 DUP3 DUP7 ADD PUSH2 0x2796 JUMP JUMPDEST SWAP3 POP POP PUSH1 0x20 DUP4 ADD CALLDATALOAD PUSH8 0xFFFFFFFFFFFFFFFF DUP2 GT ISZERO PUSH2 0x2876 JUMPI PUSH2 0x2875 PUSH2 0x3667 JUMP JUMPDEST JUMPDEST PUSH2 0x2882 DUP6 DUP3 DUP7 ADD PUSH2 0x27C0 JUMP JUMPDEST SWAP2 POP POP SWAP3 POP SWAP3 SWAP1 POP JUMP JUMPDEST PUSH1 0x0 PUSH1 0x20 DUP3 DUP5 SUB SLT ISZERO PUSH2 0x28A2 JUMPI PUSH2 0x28A1 PUSH2 0x366C JUMP JUMPDEST JUMPDEST PUSH1 0x0 PUSH2 0x28B0 DUP5 DUP3 DUP6 ADD PUSH2 0x27EE JUMP JUMPDEST SWAP2 POP POP SWAP3 SWAP2 POP POP JUMP JUMPDEST PUSH1 0x0 DUP1 PUSH1 0x0 PUSH1 0x60 DUP5 DUP7 SUB SLT ISZERO PUSH2 0x28D2 JUMPI PUSH2 0x28D1 PUSH2 0x366C JUMP JUMPDEST JUMPDEST PUSH1 0x0 PUSH2 0x28E0 DUP7 DUP3 DUP8 ADD PUSH2 0x27EE JUMP JUMPDEST SWAP4 POP POP PUSH1 0x20 PUSH2 0x28F1 DUP7 DUP3 DUP8 ADD PUSH2 0x27EE JUMP JUMPDEST SWAP3 POP POP PUSH1 0x40 PUSH2 0x2902 DUP7 DUP3 DUP8 ADD PUSH2 0x27AB JUMP JUMPDEST SWAP2 POP POP SWAP3 POP SWAP3 POP SWAP3 JUMP JUMPDEST PUSH1 0x0 DUP1 PUSH1 0x0 PUSH1 0x60 DUP5 DUP7 SUB SLT ISZERO PUSH2 0x2925 JUMPI PUSH2 0x2924 PUSH2 0x366C JUMP JUMPDEST JUMPDEST PUSH1 0x0 PUSH2 0x2933 DUP7 DUP3 DUP8 ADD PUSH2 0x27EE JUMP JUMPDEST SWAP4 POP POP PUSH1 0x20 PUSH2 0x2944 DUP7 DUP3 DUP8 ADD PUSH2 0x27EE JUMP JUMPDEST SWAP3 POP POP PUSH1 0x40 DUP5 ADD CALLDATALOAD PUSH8 0xFFFFFFFFFFFFFFFF DUP2 GT ISZERO PUSH2 0x2965 JUMPI PUSH2 0x2964 PUSH2 0x3667 JUMP JUMPDEST JUMPDEST PUSH2 0x2971 DUP7 DUP3 DUP8 ADD PUSH2 0x27C0 JUMP JUMPDEST SWAP2 POP POP SWAP3 POP SWAP3 POP SWAP3 JUMP JUMPDEST PUSH1 0x0 DUP1 PUSH1 0x0 DUP1 PUSH1 0x80 DUP6 DUP8 SUB SLT ISZERO PUSH2 0x2995 JUMPI PUSH2 0x2994 PUSH2 0x366C JUMP JUMPDEST JUMPDEST PUSH1 0x0 PUSH2 0x29A3 DUP8 DUP3 DUP9 ADD PUSH2 0x27EE JUMP JUMPDEST SWAP5 POP POP PUSH1 0x20 PUSH2 0x29B4 DUP8 DUP3 DUP9 ADD PUSH2 0x27EE JUMP JUMPDEST SWAP4 POP POP PUSH1 0x40 PUSH2 0x29C5 DUP8 DUP3 DUP9 ADD PUSH2 0x27EE JUMP JUMPDEST SWAP3 POP POP PUSH1 0x60 PUSH2 0x29D6 DUP8 DUP3 DUP9 ADD PUSH2 0x27AB JUMP JUMPDEST SWAP2 POP POP SWAP3 SWAP6 SWAP2 SWAP5 POP SWAP3 POP JUMP JUMPDEST PUSH1 0x0 PUSH2 0x29EE DUP4 DUP4 PUSH2 0x2EC4 JUMP JUMPDEST SWAP1 POP SWAP3 SWAP2 POP POP JUMP JUMPDEST PUSH1 0x0 PUSH2 0x2A02 DUP4 DUP4 PUSH2 0x2F1B JUMP JUMPDEST PUSH1 0x40 DUP4 ADD SWAP1 POP SWAP3 SWAP2 POP POP JUMP JUMPDEST PUSH1 0x0 PUSH2 0x2A1A DUP4 DUP4 PUSH2 0x2F4A JUMP JUMPDEST SWAP1 POP SWAP3 SWAP2 POP POP JUMP JUMPDEST PUSH1 0x0 PUSH2 0x2A2E DUP4 DUP4 PUSH2 0x2FCE JUMP JUMPDEST PUSH1 0x40 DUP4 ADD SWAP1 POP SWAP3 SWAP2 POP POP JUMP JUMPDEST PUSH1 0x0 PUSH2 0x2A46 DUP4 DUP4 PUSH2 0x2FFD JUMP JUMPDEST SWAP1 POP SWAP3 SWAP2 POP POP JUMP JUMPDEST PUSH1 0x0 PUSH2 0x2A5A DUP4 DUP4 PUSH2 0x306E JUMP JUMPDEST PUSH1 0x60 DUP4 ADD SWAP1 POP SWAP3 SWAP2 POP POP JUMP JUMPDEST PUSH1 0x0 PUSH2 0x2A72 DUP4 DUP4 PUSH2 0x30B0 JUMP JUMPDEST PUSH1 0x20 DUP4 ADD SWAP1 POP SWAP3 SWAP2 POP POP JUMP JUMPDEST PUSH2 0x2A87 DUP2 PUSH2 0x346B JUMP JUMPDEST DUP3 MSTORE POP POP JUMP JUMPDEST PUSH1 0x0 PUSH2 0x2A98 DUP3 PUSH2 0x32EB JUMP JUMPDEST PUSH2 0x2AA2 DUP2 DUP6 PUSH2 0x339E JUMP JUMPDEST SWAP4 POP DUP4 PUSH1 0x20 DUP3 MUL DUP6 ADD PUSH2 0x2AB4 DUP6 PUSH2 0x327B JUMP JUMPDEST DUP1 PUSH1 0x0 JUMPDEST DUP6 DUP2 LT ISZERO PUSH2 0x2AF0 JUMPI DUP5 DUP5 SUB DUP10 MSTORE DUP2 MLOAD PUSH2 0x2AD1 DUP6 DUP3 PUSH2 0x29E2 JUMP JUMPDEST SWAP5 POP PUSH2 0x2ADC DUP4 PUSH2 0x3343 JUMP JUMPDEST SWAP3 POP PUSH1 0x20 DUP11 ADD SWAP10 POP POP PUSH1 0x1 DUP2 ADD SWAP1 POP PUSH2 0x2AB8 JUMP JUMPDEST POP DUP3 SWAP8 POP DUP8 SWAP6 POP POP POP POP POP POP SWAP3 SWAP2 POP POP JUMP JUMPDEST PUSH1 0x0 PUSH2 0x2B0D DUP3 PUSH2 0x32F6 JUMP JUMPDEST PUSH2 0x2B17 DUP2 DUP6 PUSH2 0x33AF JUMP JUMPDEST SWAP4 POP PUSH2 0x2B22 DUP4 PUSH2 0x328B JUMP JUMPDEST DUP1 PUSH1 0x0 JUMPDEST DUP4 DUP2 LT ISZERO PUSH2 0x2B53 JUMPI DUP2 MLOAD PUSH2 0x2B3A DUP9 DUP3 PUSH2 0x29F6 JUMP JUMPDEST SWAP8 POP PUSH2 0x2B45 DUP4 PUSH2 0x3350 JUMP JUMPDEST SWAP3 POP POP PUSH1 0x1 DUP2 ADD SWAP1 POP PUSH2 0x2B26 JUMP JUMPDEST POP DUP6 SWAP4 POP POP POP POP SWAP3 SWAP2 POP POP JUMP JUMPDEST PUSH1 0x0 PUSH2 0x2B6B DUP3 PUSH2 0x3301 JUMP JUMPDEST PUSH2 0x2B75 DUP2 DUP6 PUSH2 0x33C0 JUMP JUMPDEST SWAP4 POP DUP4 PUSH1 0x20 DUP3 MUL DUP6 ADD PUSH2 0x2B87 DUP6 PUSH2 0x329B JUMP JUMPDEST DUP1 PUSH1 0x0 JUMPDEST DUP6 DUP2 LT ISZERO PUSH2 0x2BC3 JUMPI DUP5 DUP5 SUB DUP10 MSTORE DUP2 MLOAD PUSH2 0x2BA4 DUP6 DUP3 PUSH2 0x2A0E JUMP JUMPDEST SWAP5 POP PUSH2 0x2BAF DUP4 PUSH2 0x335D JUMP JUMPDEST SWAP3 POP PUSH1 0x20 DUP11 ADD SWAP10 POP POP PUSH1 0x1 DUP2 ADD SWAP1 POP PUSH2 0x2B8B JUMP JUMPDEST POP DUP3 SWAP8 POP DUP8 SWAP6 POP POP POP POP POP POP SWAP3 SWAP2 POP POP JUMP JUMPDEST PUSH1 0x0 PUSH2 0x2BE0 DUP3 PUSH2 0x330C JUMP JUMPDEST PUSH2 0x2BEA DUP2 DUP6 PUSH2 0x33D1 JUMP JUMPDEST SWAP4 POP PUSH2 0x2BF5 DUP4 PUSH2 0x32AB JUMP JUMPDEST DUP1 PUSH1 0x0 JUMPDEST DUP4 DUP2 LT ISZERO PUSH2 0x2C26 JUMPI DUP2 MLOAD PUSH2 0x2C0D DUP9 DUP3 PUSH2 0x2A22 JUMP JUMPDEST SWAP8 POP PUSH2 0x2C18 DUP4 PUSH2 0x336A JUMP JUMPDEST SWAP3 POP POP PUSH1 0x1 DUP2 ADD SWAP1 POP PUSH2 0x2BF9 JUMP JUMPDEST POP DUP6 SWAP4 POP POP POP POP SWAP3 SWAP2 POP POP JUMP JUMPDEST PUSH1 0x0 PUSH2 0x2C3E DUP3 PUSH2 0x3317 JUMP JUMPDEST PUSH2 0x2C48 DUP2 DUP6 PUSH2 0x33E2 JUMP JUMPDEST SWAP4 POP DUP4 PUSH1 0x20 DUP3 MUL DUP6 ADD PUSH2 0x2C5A DUP6 PUSH2 0x32BB JUMP JUMPDEST DUP1 PUSH1 0x0 JUMPDEST DUP6 DUP2 LT ISZERO PUSH2 0x2C96 JUMPI DUP5 DUP5 SUB DUP10 MSTORE DUP2 MLOAD PUSH2 0x2C77 DUP6 DUP3 PUSH2 0x2A3A JUMP JUMPDEST SWAP5 POP PUSH2 0x2C82 DUP4 PUSH2 0x3377 JUMP JUMPDEST SWAP3 POP PUSH1 0x20 DUP11 ADD SWAP10 POP POP PUSH1 0x1 DUP2 ADD SWAP1 POP PUSH2 0x2C5E JUMP JUMPDEST POP DUP3 SWAP8 POP DUP8 SWAP6 POP POP POP POP POP POP SWAP3 SWAP2 POP POP JUMP JUMPDEST PUSH1 0x0 PUSH2 0x2CB3 DUP3 PUSH2 0x3322 JUMP JUMPDEST PUSH2 0x2CBD DUP2 DUP6 PUSH2 0x33F3 JUMP JUMPDEST SWAP4 POP PUSH2 0x2CC8 DUP4 PUSH2 0x32CB JUMP JUMPDEST DUP1 PUSH1 0x0 JUMPDEST DUP4 DUP2 LT ISZERO PUSH2 0x2CF9 JUMPI DUP2 MLOAD PUSH2 0x2CE0 DUP9 DUP3 PUSH2 0x2A4E JUMP JUMPDEST SWAP8 POP PUSH2 0x2CEB DUP4 PUSH2 0x3384 JUMP JUMPDEST SWAP3 POP POP PUSH1 0x1 DUP2 ADD SWAP1 POP PUSH2 0x2CCC JUMP JUMPDEST POP DUP6 SWAP4 POP POP POP POP SWAP3 SWAP2 POP POP JUMP JUMPDEST PUSH1 0x0 PUSH2 0x2D11 DUP3 PUSH2 0x332D JUMP JUMPDEST PUSH2 0x2D1B DUP2 DUP6 PUSH2 0x3404 JUMP JUMPDEST SWAP4 POP PUSH2 0x2D26 DUP4 PUSH2 0x32DB JUMP JUMPDEST DUP1 PUSH1 0x0 JUMPDEST DUP4 DUP2 LT ISZERO PUSH2 0x2D57 JUMPI DUP2 MLOAD PUSH2 0x2D3E DUP9 DUP3 PUSH2 0x2A66 JUMP JUMPDEST SWAP8 POP PUSH2 0x2D49 DUP4 PUSH2 0x3391 JUMP JUMPDEST SWAP3 POP POP PUSH1 0x1 DUP2 ADD SWAP1 POP PUSH2 0x2D2A JUMP JUMPDEST POP DUP6 SWAP4 POP POP POP POP SWAP3 SWAP2 POP POP JUMP JUMPDEST PUSH2 0x2D6D DUP2 PUSH2 0x347D JUMP JUMPDEST DUP3 MSTORE POP POP JUMP JUMPDEST PUSH1 0x0 PUSH2 0x2D7E DUP3 PUSH2 0x3338 JUMP JUMPDEST PUSH2 0x2D88 DUP2 DUP6 PUSH2 0x3415 JUMP JUMPDEST SWAP4 POP PUSH2 0x2D98 DUP2 DUP6 PUSH1 0x20 DUP7 ADD PUSH2 0x34C2 JUMP JUMPDEST PUSH2 0x2DA1 DUP2 PUSH2 0x3671 JUMP JUMPDEST DUP5 ADD SWAP2 POP POP SWAP3 SWAP2 POP POP JUMP JUMPDEST PUSH1 0x0 PUSH2 0x2DB9 PUSH1 0xE DUP4 PUSH2 0x3426 JUMP JUMPDEST SWAP2 POP PUSH2 0x2DC4 DUP3 PUSH2 0x3682 JUMP JUMPDEST PUSH1 0x20 DUP3 ADD SWAP1 POP SWAP2 SWAP1 POP JUMP JUMPDEST PUSH1 0x0 PUSH2 0x2DDC PUSH1 0x3 DUP4 PUSH2 0x3426 JUMP JUMPDEST SWAP2 POP PUSH2 0x2DE7 DUP3 PUSH2 0x36AB JUMP JUMPDEST PUSH1 0x20 DUP3 ADD SWAP1 POP SWAP2 SWAP1 POP JUMP JUMPDEST PUSH1 0x0 PUSH2 0x2DFF PUSH1 0x12 DUP4 PUSH2 0x3426 JUMP JUMPDEST SWAP2 POP PUSH2 0x2E0A DUP3 PUSH2 0x36D4 JUMP JUMPDEST PUSH1 0x20 DUP3 ADD SWAP1 POP SWAP2 SWAP1 POP JUMP JUMPDEST PUSH1 0x0 PUSH2 0x2E22 PUSH1 0x15 DUP4 PUSH2 0x3426 JUMP JUMPDEST SWAP2 POP PUSH2 0x2E2D DUP3 PUSH2 0x36FD JUMP JUMPDEST PUSH1 0x20 DUP3 ADD SWAP1 POP SWAP2 SWAP1 POP JUMP JUMPDEST PUSH1 0x0 PUSH2 0x2E45 PUSH1 0x10 DUP4 PUSH2 0x3426 JUMP JUMPDEST SWAP2 POP PUSH2 0x2E50 DUP3 PUSH2 0x3726 JUMP JUMPDEST PUSH1 0x20 DUP3 ADD SWAP1 POP SWAP2 SWAP1 POP JUMP JUMPDEST PUSH1 0x0 PUSH2 0x2E68 PUSH1 0xE DUP4 PUSH2 0x3426 JUMP JUMPDEST SWAP2 POP PUSH2 0x2E73 DUP3 PUSH2 0x374F JUMP JUMPDEST PUSH1 0x20 DUP3 ADD SWAP1 POP SWAP2 SWAP1 POP JUMP JUMPDEST PUSH1 0x0 PUSH2 0x2E8B PUSH1 0xC DUP4 PUSH2 0x3426 JUMP JUMPDEST SWAP2 POP PUSH2 0x2E96 DUP3 PUSH2 0x3778 JUMP JUMPDEST PUSH1 0x20 DUP3 ADD SWAP1 POP SWAP2 SWAP1 POP JUMP JUMPDEST PUSH1 0x0 PUSH2 0x2EAE PUSH1 0x3 DUP4 PUSH2 0x3426 JUMP JUMPDEST SWAP2 POP PUSH2 0x2EB9 DUP3 PUSH2 0x37A1 JUMP JUMPDEST PUSH1 0x20 DUP3 ADD SWAP1 POP SWAP2 SWAP1 POP JUMP JUMPDEST PUSH1 0x0 PUSH1 0x60 DUP4 ADD PUSH1 0x0 DUP4 ADD MLOAD PUSH2 0x2EDC PUSH1 0x0 DUP7 ADD DUP3 PUSH2 0x2A7E JUMP JUMPDEST POP PUSH1 0x20 DUP4 ADD MLOAD DUP5 DUP3 SUB PUSH1 0x20 DUP7 ADD MSTORE PUSH2 0x2EF4 DUP3 DUP3 PUSH2 0x2B02 JUMP JUMPDEST SWAP2 POP POP PUSH1 0x40 DUP4 ADD MLOAD DUP5 DUP3 SUB PUSH1 0x40 DUP7 ADD MSTORE PUSH2 0x2F0E DUP3 DUP3 PUSH2 0x2D73 JUMP JUMPDEST SWAP2 POP POP DUP1 SWAP2 POP POP SWAP3 SWAP2 POP POP JUMP JUMPDEST PUSH1 0x40 DUP3 ADD PUSH1 0x0 DUP3 ADD MLOAD PUSH2 0x2F31 PUSH1 0x0 DUP6 ADD DUP3 PUSH2 0x2A7E JUMP JUMPDEST POP PUSH1 0x20 DUP3 ADD MLOAD PUSH2 0x2F44 PUSH1 0x20 DUP6 ADD DUP3 PUSH2 0x2D64 JUMP JUMPDEST POP POP POP POP JUMP JUMPDEST PUSH1 0x0 PUSH1 0xA0 DUP4 ADD PUSH1 0x0 DUP4 ADD MLOAD PUSH2 0x2F62 PUSH1 0x0 DUP7 ADD DUP3 PUSH2 0x2A7E JUMP JUMPDEST POP PUSH1 0x20 DUP4 ADD MLOAD PUSH2 0x2F75 PUSH1 0x20 DUP7 ADD DUP3 PUSH2 0x30B0 JUMP JUMPDEST POP PUSH1 0x40 DUP4 ADD MLOAD DUP5 DUP3 SUB PUSH1 0x40 DUP7 ADD MSTORE PUSH2 0x2F8D DUP3 DUP3 PUSH2 0x2B02 JUMP JUMPDEST SWAP2 POP POP PUSH1 0x60 DUP4 ADD MLOAD DUP5 DUP3 SUB PUSH1 0x60 DUP7 ADD MSTORE PUSH2 0x2FA7 DUP3 DUP3 PUSH2 0x2A8D JUMP JUMPDEST SWAP2 POP POP PUSH1 0x80 DUP4 ADD MLOAD DUP5 DUP3 SUB PUSH1 0x80 DUP7 ADD MSTORE PUSH2 0x2FC1 DUP3 DUP3 PUSH2 0x2D73 JUMP JUMPDEST SWAP2 POP POP DUP1 SWAP2 POP POP SWAP3 SWAP2 POP POP JUMP JUMPDEST PUSH1 0x40 DUP3 ADD PUSH1 0x0 DUP3 ADD MLOAD PUSH2 0x2FE4 PUSH1 0x0 DUP6 ADD DUP3 PUSH2 0x2A7E JUMP JUMPDEST POP PUSH1 0x20 DUP3 ADD MLOAD PUSH2 0x2FF7 PUSH1 0x20 DUP6 ADD DUP3 PUSH2 0x2D64 JUMP JUMPDEST POP POP POP POP JUMP JUMPDEST PUSH1 0x0 PUSH1 0x80 DUP4 ADD PUSH1 0x0 DUP4 ADD MLOAD PUSH2 0x3015 PUSH1 0x0 DUP7 ADD DUP3 PUSH2 0x2A7E JUMP JUMPDEST POP PUSH1 0x20 DUP4 ADD MLOAD DUP5 DUP3 SUB PUSH1 0x20 DUP7 ADD MSTORE PUSH2 0x302D DUP3 DUP3 PUSH2 0x2D73 JUMP JUMPDEST SWAP2 POP POP PUSH1 0x40 DUP4 ADD MLOAD DUP5 DUP3 SUB PUSH1 0x40 DUP7 ADD MSTORE PUSH2 0x3047 DUP3 DUP3 PUSH2 0x2B60 JUMP JUMPDEST SWAP2 POP POP PUSH1 0x60 DUP4 ADD MLOAD DUP5 DUP3 SUB PUSH1 0x60 DUP7 ADD MSTORE PUSH2 0x3061 DUP3 DUP3 PUSH2 0x2D06 JUMP JUMPDEST SWAP2 POP POP DUP1 SWAP2 POP POP SWAP3 SWAP2 POP POP JUMP JUMPDEST PUSH1 0x60 DUP3 ADD PUSH1 0x0 DUP3 ADD MLOAD PUSH2 0x3084 PUSH1 0x0 DUP6 ADD DUP3 PUSH2 0x2A7E JUMP JUMPDEST POP PUSH1 0x20 DUP3 ADD MLOAD PUSH2 0x3097 PUSH1 0x20 DUP6 ADD DUP3 PUSH2 0x30B0 JUMP JUMPDEST POP PUSH1 0x40 DUP3 ADD MLOAD PUSH2 0x30AA PUSH1 0x40 DUP6 ADD DUP3 PUSH2 0x30B0 JUMP JUMPDEST POP POP POP POP JUMP JUMPDEST PUSH2 0x30B9 DUP2 PUSH2 0x34A9 JUMP JUMPDEST DUP3 MSTORE POP POP JUMP JUMPDEST PUSH1 0x0 PUSH1 0x20 DUP3 ADD SWAP1 POP DUP2 DUP2 SUB PUSH1 0x0 DUP4 ADD MSTORE PUSH2 0x30D9 DUP2 DUP5 PUSH2 0x2BD5 JUMP JUMPDEST SWAP1 POP SWAP3 SWAP2 POP POP JUMP JUMPDEST PUSH1 0x0 PUSH1 0x20 DUP3 ADD SWAP1 POP DUP2 DUP2 SUB PUSH1 0x0 DUP4 ADD MSTORE PUSH2 0x30FB DUP2 DUP5 PUSH2 0x2C33 JUMP JUMPDEST SWAP1 POP SWAP3 SWAP2 POP POP JUMP JUMPDEST PUSH1 0x0 PUSH1 0x20 DUP3 ADD SWAP1 POP DUP2 DUP2 SUB PUSH1 0x0 DUP4 ADD MSTORE PUSH2 0x311D DUP2 DUP5 PUSH2 0x2CA8 JUMP JUMPDEST SWAP1 POP SWAP3 SWAP2 POP POP JUMP JUMPDEST PUSH1 0x0 PUSH1 0x20 DUP3 ADD SWAP1 POP DUP2 DUP2 SUB PUSH1 0x0 DUP4 ADD MSTORE PUSH2 0x313E DUP2 PUSH2 0x2DAC JUMP JUMPDEST SWAP1 POP SWAP2 SWAP1 POP JUMP JUMPDEST PUSH1 0x0 PUSH1 0x20 DUP3 ADD SWAP1 POP DUP2 DUP2 SUB PUSH1 0x0 DUP4 ADD MSTORE PUSH2 0x315E DUP2 PUSH2 0x2DCF JUMP JUMPDEST SWAP1 POP SWAP2 SWAP1 POP JUMP JUMPDEST PUSH1 0x0 PUSH1 0x20 DUP3 ADD SWAP1 POP DUP2 DUP2 SUB PUSH1 0x0 DUP4 ADD MSTORE PUSH2 0x317E DUP2 PUSH2 0x2DF2 JUMP JUMPDEST SWAP1 POP SWAP2 SWAP1 POP JUMP JUMPDEST PUSH1 0x0 PUSH1 0x20 DUP3 ADD SWAP1 POP DUP2 DUP2 SUB PUSH1 0x0 DUP4 ADD MSTORE PUSH2 0x319E DUP2 PUSH2 0x2E15 JUMP JUMPDEST SWAP1 POP SWAP2 SWAP1 POP JUMP JUMPDEST PUSH1 0x0 PUSH1 0x20 DUP3 ADD SWAP1 POP DUP2 DUP2 SUB PUSH1 0x0 DUP4 ADD MSTORE PUSH2 0x31BE DUP2 PUSH2 0x2E38 JUMP JUMPDEST SWAP1 POP SWAP2 SWAP1 POP JUMP JUMPDEST PUSH1 0x0 PUSH1 0x20 DUP3 ADD SWAP1 POP DUP2 DUP2 SUB PUSH1 0x0 DUP4 ADD MSTORE PUSH2 0x31DE DUP2 PUSH2 0x2E5B JUMP JUMPDEST SWAP1 POP SWAP2 SWAP1 POP JUMP JUMPDEST PUSH1 0x0 PUSH1 0x20 DUP3 ADD SWAP1 POP DUP2 DUP2 SUB PUSH1 0x0 DUP4 ADD MSTORE PUSH2 0x31FE DUP2 PUSH2 0x2E7E JUMP JUMPDEST SWAP1 POP SWAP2 SWAP1 POP JUMP JUMPDEST PUSH1 0x0 PUSH1 0x20 DUP3 ADD SWAP1 POP DUP2 DUP2 SUB PUSH1 0x0 DUP4 ADD MSTORE PUSH2 0x321E DUP2 PUSH2 0x2EA1 JUMP JUMPDEST SWAP1 POP SWAP2 SWAP1 POP JUMP JUMPDEST PUSH1 0x0 PUSH2 0x322F PUSH2 0x3240 JUMP JUMPDEST SWAP1 POP PUSH2 0x323B DUP3 DUP3 PUSH2 0x3527 JUMP JUMPDEST SWAP2 SWAP1 POP JUMP JUMPDEST PUSH1 0x0 PUSH1 0x40 MLOAD SWAP1 POP SWAP1 JUMP JUMPDEST PUSH1 0x0 PUSH8 0xFFFFFFFFFFFFFFFF DUP3 GT ISZERO PUSH2 0x3265 JUMPI PUSH2 0x3264 PUSH2 0x362E JUMP JUMPDEST JUMPDEST PUSH2 0x326E DUP3 PUSH2 0x3671 JUMP JUMPDEST SWAP1 POP PUSH1 0x20 DUP2 ADD SWAP1 POP SWAP2 SWAP1 POP JUMP JUMPDEST PUSH1 0x0 DUP2 SWAP1 POP PUSH1 0x20 DUP3 ADD SWAP1 POP SWAP2 SWAP1 POP JUMP JUMPDEST PUSH1 0x0 DUP2 SWAP1 POP PUSH1 0x20 DUP3 ADD SWAP1 POP SWAP2 SWAP1 POP JUMP JUMPDEST PUSH1 0x0 DUP2 SWAP1 POP PUSH1 0x20 DUP3 ADD SWAP1 POP SWAP2 SWAP1 POP JUMP JUMPDEST PUSH1 0x0 DUP2 SWAP1 POP PUSH1 0x20 DUP3 ADD SWAP1 POP SWAP2 SWAP1 POP JUMP JUMPDEST PUSH1 0x0 DUP2 SWAP1 POP PUSH1 0x20 DUP3 ADD SWAP1 POP SWAP2 SWAP1 POP JUMP JUMPDEST PUSH1 0x0 DUP2 SWAP1 POP PUSH1 0x20 DUP3 ADD SWAP1 POP SWAP2 SWAP1 POP JUMP JUMPDEST PUSH1 0x0 DUP2 SWAP1 POP PUSH1 0x20 DUP3 ADD SWAP1 POP SWAP2 SWAP1 POP JUMP JUMPDEST PUSH1 0x0 DUP2 MLOAD SWAP1 POP SWAP2 SWAP1 POP JUMP JUMPDEST PUSH1 0x0 DUP2 MLOAD SWAP1 POP SWAP2 SWAP1 POP JUMP JUMPDEST PUSH1 0x0 DUP2 MLOAD SWAP1 POP SWAP2 SWAP1 POP JUMP JUMPDEST PUSH1 0x0 DUP2 MLOAD SWAP1 POP SWAP2 SWAP1 POP JUMP JUMPDEST PUSH1 0x0 DUP2 MLOAD SWAP1 POP SWAP2 SWAP1 POP JUMP JUMPDEST PUSH1 0x0 DUP2 MLOAD SWAP1 POP SWAP2 SWAP1 POP JUMP JUMPDEST PUSH1 0x0 DUP2 MLOAD SWAP1 POP SWAP2 SWAP1 POP JUMP JUMPDEST PUSH1 0x0 DUP2 MLOAD SWAP1 POP SWAP2 SWAP1 POP JUMP JUMPDEST PUSH1 0x0 PUSH1 0x20 DUP3 ADD SWAP1 POP SWAP2 SWAP1 POP JUMP JUMPDEST PUSH1 0x0 PUSH1 0x20 DUP3 ADD SWAP1 POP SWAP2 SWAP1 POP JUMP JUMPDEST PUSH1 0x0 PUSH1 0x20 DUP3 ADD SWAP1 POP SWAP2 SWAP1 POP JUMP JUMPDEST PUSH1 0x0 PUSH1 0x20 DUP3 ADD SWAP1 POP SWAP2 SWAP1 POP JUMP JUMPDEST PUSH1 0x0 PUSH1 0x20 DUP3 ADD SWAP1 POP SWAP2 SWAP1 POP JUMP JUMPDEST PUSH1 0x0 PUSH1 0x20 DUP3 ADD SWAP1 POP SWAP2 SWAP1 POP JUMP JUMPDEST PUSH1 0x0 PUSH1 0x20 DUP3 ADD SWAP1 POP SWAP2 SWAP1 POP JUMP JUMPDEST PUSH1 0x0 DUP3 DUP3 MSTORE PUSH1 0x20 DUP3 ADD SWAP1 POP SWAP3 SWAP2 POP POP JUMP JUMPDEST PUSH1 0x0 DUP3 DUP3 MSTORE PUSH1 0x20 DUP3 ADD SWAP1 POP SWAP3 SWAP2 POP POP JUMP JUMPDEST PUSH1 0x0 DUP3 DUP3 MSTORE PUSH1 0x20 DUP3 ADD SWAP1 POP SWAP3 SWAP2 POP POP JUMP JUMPDEST PUSH1 0x0 DUP3 DUP3 MSTORE PUSH1 0x20 DUP3 ADD SWAP1 POP SWAP3 SWAP2 POP POP JUMP JUMPDEST PUSH1 0x0 DUP3 DUP3 MSTORE PUSH1 0x20 DUP3 ADD SWAP1 POP SWAP3 SWAP2 POP POP JUMP JUMPDEST PUSH1 0x0 DUP3 DUP3 MSTORE PUSH1 0x20 DUP3 ADD SWAP1 POP SWAP3 SWAP2 POP POP JUMP JUMPDEST PUSH1 0x0 DUP3 DUP3 MSTORE PUSH1 0x20 DUP3 ADD SWAP1 POP SWAP3 SWAP2 POP POP JUMP JUMPDEST PUSH1 0x0 DUP3 DUP3 MSTORE PUSH1 0x20 DUP3 ADD SWAP1 POP SWAP3 SWAP2 POP POP JUMP JUMPDEST PUSH1 0x0 DUP3 DUP3 MSTORE PUSH1 0x20 DUP3 ADD SWAP1 POP SWAP3 SWAP2 POP POP JUMP JUMPDEST PUSH1 0x0 PUSH2 0x3442 DUP3 PUSH2 0x34A9 JUMP JUMPDEST SWAP2 POP PUSH2 0x344D DUP4 PUSH2 0x34A9 JUMP JUMPDEST SWAP3 POP DUP3 DUP3 LT ISZERO PUSH2 0x3460 JUMPI PUSH2 0x345F PUSH2 0x35A1 JUMP JUMPDEST JUMPDEST DUP3 DUP3 SUB SWAP1 POP SWAP3 SWAP2 POP POP JUMP JUMPDEST PUSH1 0x0 PUSH2 0x3476 DUP3 PUSH2 0x3489 JUMP JUMPDEST SWAP1 POP SWAP2 SWAP1 POP JUMP JUMPDEST PUSH1 0x0 DUP2 ISZERO ISZERO SWAP1 POP SWAP2 SWAP1 POP JUMP JUMPDEST PUSH1 0x0 PUSH20 0xFFFFFFFFFFFFFFFFFFFFFFFFFFFFFFFFFFFFFFFF DUP3 AND SWAP1 POP SWAP2 SWAP1 POP JUMP JUMPDEST PUSH1 0x0 DUP2 SWAP1 POP SWAP2 SWAP1 POP JUMP JUMPDEST DUP3 DUP2 DUP4 CALLDATACOPY PUSH1 0x0 DUP4 DUP4 ADD MSTORE POP POP POP JUMP JUMPDEST PUSH1 0x0 JUMPDEST DUP4 DUP2 LT ISZERO PUSH2 0x34E0 JUMPI DUP1 DUP3 ADD MLOAD DUP2 DUP5 ADD MSTORE PUSH1 0x20 DUP2 ADD SWAP1 POP PUSH2 0x34C5 JUMP JUMPDEST DUP4 DUP2 GT ISZERO PUSH2 0x34EF JUMPI PUSH1 0x0 DUP5 DUP5 ADD MSTORE JUMPDEST POP POP POP POP JUMP JUMPDEST PUSH1 0x0 PUSH1 0x2 DUP3 DIV SWAP1 POP PUSH1 0x1 DUP3 AND DUP1 PUSH2 0x350D JUMPI PUSH1 0x7F DUP3 AND SWAP2 POP JUMPDEST PUSH1 0x20 DUP3 LT DUP2 EQ ISZERO PUSH2 0x3521 JUMPI PUSH2 0x3520 PUSH2 0x35D0 JUMP JUMPDEST JUMPDEST POP SWAP2 SWAP1 POP JUMP JUMPDEST PUSH2 0x3530 DUP3 PUSH2 0x3671 JUMP JUMPDEST DUP2 ADD DUP2 DUP2 LT PUSH8 0xFFFFFFFFFFFFFFFF DUP3 GT OR ISZERO PUSH2 0x354F JUMPI PUSH2 0x354E PUSH2 0x362E JUMP JUMPDEST JUMPDEST DUP1 PUSH1 0x40 MSTORE POP POP POP JUMP JUMPDEST PUSH1 0x0 PUSH2 0x3563 DUP3 PUSH2 0x34A9 JUMP JUMPDEST SWAP2 POP PUSH32 0xFFFFFFFFFFFFFFFFFFFFFFFFFFFFFFFFFFFFFFFFFFFFFFFFFFFFFFFFFFFFFFFF DUP3 EQ ISZERO PUSH2 0x3596 JUMPI PUSH2 0x3595 PUSH2 0x35A1 JUMP JUMPDEST JUMPDEST PUSH1 0x1 DUP3 ADD SWAP1 POP SWAP2 SWAP1 POP JUMP JUMPDEST PUSH32 0x4E487B7100000000000000000000000000000000000000000000000000000000 PUSH1 0x0 MSTORE PUSH1 0x11 PUSH1 0x4 MSTORE PUSH1 0x24 PUSH1 0x0 REVERT JUMPDEST PUSH32 0x4E487B7100000000000000000000000000000000000000000000000000000000 PUSH1 0x0 MSTORE PUSH1 0x22 PUSH1 0x4 MSTORE PUSH1 0x24 PUSH1 0x0 REVERT JUMPDEST PUSH32 0x4E487B7100000000000000000000000000000000000000000000000000000000 PUSH1 0x0 MSTORE PUSH1 0x32 PUSH1 0x4 MSTORE PUSH1 0x24 PUSH1 0x0 REVERT JUMPDEST PUSH32 0x4E487B7100000000000000000000000000000000000000000000000000000000 PUSH1 0x0 MSTORE PUSH1 0x41 PUSH1 0x4 MSTORE PUSH1 0x24 PUSH1 0x0 REVERT JUMPDEST PUSH1 0x0 DUP1 REVERT JUMPDEST PUSH1 0x0 DUP1 REVERT JUMPDEST PUSH1 0x0 DUP1 REVERT JUMPDEST PUSH1 0x0 DUP1 REVERT JUMPDEST PUSH1 0x0 PUSH1 0x1F NOT PUSH1 0x1F DUP4 ADD AND SWAP1 POP SWAP2 SWAP1 POP JUMP JUMPDEST PUSH32 0x552069736E27742061646D696E21000000000000000000000000000000000000 PUSH1 0x0 DUP3 ADD MSTORE POP JUMP JUMPDEST PUSH32 0x3130300000000000000000000000000000000000000000000000000000000000 PUSH1 0x0 DUP3 ADD MSTORE POP JUMP JUMPDEST PUSH32 0x552069736E277420726567697374726564210000000000000000000000000000 PUSH1 0x0 DUP3 ADD MSTORE POP JUMP JUMPDEST PUSH32 0x5520616C72656164792072656769737465726564210000000000000000000000 PUSH1 0x0 DUP3 ADD MSTORE POP JUMP JUMPDEST PUSH32 0x5520616C72656164792061646D696E2100000000000000000000000000000000 PUSH1 0x0 DUP3 ADD MSTORE POP JUMP JUMPDEST PUSH32 0x49742069736E27742073686F7021000000000000000000000000000000000000 PUSH1 0x0 DUP3 ADD MSTORE POP JUMP JUMPDEST PUSH32 0x53686F7020657869737473210000000000000000000000000000000000000000 PUSH1 0x0 DUP3 ADD MSTORE POP JUMP JUMPDEST PUSH32 0x3130310000000000000000000000000000000000000000000000000000000000 PUSH1 0x0 DUP3 ADD MSTORE POP JUMP JUMPDEST PUSH2 0x37D3 DUP2 PUSH2 0x346B JUMP JUMPDEST DUP2 EQ PUSH2 0x37DE JUMPI PUSH1 0x0 DUP1 REVERT JUMPDEST POP JUMP JUMPDEST PUSH2 0x37EA DUP2 PUSH2 0x347D JUMP JUMPDEST DUP2 EQ PUSH2 0x37F5 JUMPI PUSH1 0x0 DUP1 REVERT JUMPDEST POP JUMP JUMPDEST PUSH2 0x3801 DUP2 PUSH2 0x34A9 JUMP JUMPDEST DUP2 EQ PUSH2 0x380C JUMPI PUSH1 0x0 DUP1 REVERT JUMPDEST POP JUMP INVALID LOG2 PUSH5 0x6970667358 0x22 SLT KECCAK256 0xC3 0xC6 0x2B LOG0 0xD DUP4 0x4C GT SUB 0x4E EXP 0xD2 PUSH15 0x2052847E9ACF4404D0C8CB229AB004 PUSH1 0xFA RETURNDATACOPY PUSH31 0x64736F6C634300080700330000000000000000000000000000000000000000 "
				},
				"gasEstimates": {
					"creation": {
						"codeDepositCost": "2881000",
						"executionCost": "infinite",
						"totalCost": "infinite"
					},
					"external": {
						"addAdmin(address)": "infinite",
						"addComment(uint256,uint256,string)": "infinite",
						"addLike(uint256,uint256,bool)": "infinite",
						"addLike(uint256,uint256,uint256,bool)": "infinite",
						"addMark(uint256,uint256,string)": "infinite",
						"addShop(address,string)": "infinite",
						"deleteShop(uint256)": "infinite",
						"globalSwitchRequest()": "infinite",
						"regUser()": "infinite",
						"switchToUser()": "infinite",
						"upToSeller(uint256)": "infinite",
						"view_Requests()": "infinite",
						"view_Shops()": "infinite",
						"view_Users()": "infinite"
					},
					"internal": {
						"regUser(address,uint256)": "infinite"
					}
				},
				"methodIdentifiers": {
					"addAdmin(address)": "70480275",
					"addComment(uint256,uint256,string)": "ab122ef5",
					"addLike(uint256,uint256,bool)": "4384a79f",
					"addLike(uint256,uint256,uint256,bool)": "66b2f791",
					"addMark(uint256,uint256,string)": "0082f88e",
					"addShop(address,string)": "1c618eb3",
					"deleteShop(uint256)": "3efdebf1",
					"globalSwitchRequest()": "2e91d706",
					"regUser()": "3b95a23f",
					"switchToUser()": "49b15962",
					"upToSeller(uint256)": "1a0550e3",
					"view_Requests()": "2bd2cd50",
					"view_Shops()": "240185b6",
					"view_Users()": "ad81f803"
				}
			},
			"storageLayout": {
				"storage": [
					{
						"astId": 58,
						"contract": "src/libs/shop.sol:Shop",
						"label": "Shops",
						"offset": 0,
						"slot": "0",
						"type": "t_array(t_struct(shop)20_storage)dyn_storage"
					},
					{
						"astId": 62,
						"contract": "src/libs/shop.sol:Shop",
						"label": "Users",
						"offset": 0,
						"slot": "1",
						"type": "t_array(t_struct(user)8_storage)dyn_storage"
					},
					{
						"astId": 66,
						"contract": "src/libs/shop.sol:Shop",
						"label": "Requests",
						"offset": 0,
						"slot": "2",
						"type": "t_array(t_struct(request)25_storage)dyn_storage"
					}
				],
				"types": {
					"t_address": {
						"encoding": "inplace",
						"label": "address",
						"numberOfBytes": "20"
					},
					"t_array(t_struct(comment)54_storage)dyn_storage": {
						"base": "t_struct(comment)54_storage",
						"encoding": "dynamic_array",
						"label": "struct Shop.comment[]",
						"numberOfBytes": "32"
					},
					"t_array(t_struct(like)30_storage)dyn_storage": {
						"base": "t_struct(like)30_storage",
						"encoding": "dynamic_array",
						"label": "struct Shop.like[]",
						"numberOfBytes": "32"
					},
					"t_array(t_struct(mark)45_storage)dyn_storage": {
						"base": "t_struct(mark)45_storage",
						"encoding": "dynamic_array",
						"label": "struct Shop.mark[]",
						"numberOfBytes": "32"
					},
					"t_array(t_struct(request)25_storage)dyn_storage": {
						"base": "t_struct(request)25_storage",
						"encoding": "dynamic_array",
						"label": "struct Shop.request[]",
						"numberOfBytes": "32"
					},
					"t_array(t_struct(shop)20_storage)dyn_storage": {
						"base": "t_struct(shop)20_storage",
						"encoding": "dynamic_array",
						"label": "struct Shop.shop[]",
						"numberOfBytes": "32"
					},
					"t_array(t_struct(user)8_storage)dyn_storage": {
						"base": "t_struct(user)8_storage",
						"encoding": "dynamic_array",
						"label": "struct Shop.user[]",
						"numberOfBytes": "32"
					},
					"t_array(t_uint256)dyn_storage": {
						"base": "t_uint256",
						"encoding": "dynamic_array",
						"label": "uint256[]",
						"numberOfBytes": "32"
					},
					"t_bool": {
						"encoding": "inplace",
						"label": "bool",
						"numberOfBytes": "1"
					},
					"t_string_storage": {
						"encoding": "bytes",
						"label": "string",
						"numberOfBytes": "32"
					},
					"t_struct(comment)54_storage": {
						"encoding": "inplace",
						"label": "struct Shop.comment",
						"members": [
							{
								"astId": 47,
								"contract": "src/libs/shop.sol:Shop",
								"label": "sender",
								"offset": 0,
								"slot": "0",
								"type": "t_address"
							},
							{
								"astId": 51,
								"contract": "src/libs/shop.sol:Shop",
								"label": "likes",
								"offset": 0,
								"slot": "1",
								"type": "t_array(t_struct(like)30_storage)dyn_storage"
							},
							{
								"astId": 53,
								"contract": "src/libs/shop.sol:Shop",
								"label": "description",
								"offset": 0,
								"slot": "2",
								"type": "t_string_storage"
							}
						],
						"numberOfBytes": "96"
					},
					"t_struct(like)30_storage": {
						"encoding": "inplace",
						"label": "struct Shop.like",
						"members": [
							{
								"astId": 27,
								"contract": "src/libs/shop.sol:Shop",
								"label": "appraiser",
								"offset": 0,
								"slot": "0",
								"type": "t_address"
							},
							{
								"astId": 29,
								"contract": "src/libs/shop.sol:Shop",
								"label": "isLiked",
								"offset": 20,
								"slot": "0",
								"type": "t_bool"
							}
						],
						"numberOfBytes": "32"
					},
					"t_struct(mark)45_storage": {
						"encoding": "inplace",
						"label": "struct Shop.mark",
						"members": [
							{
								"astId": 32,
								"contract": "src/libs/shop.sol:Shop",
								"label": "appraiser",
								"offset": 0,
								"slot": "0",
								"type": "t_address"
							},
							{
								"astId": 34,
								"contract": "src/libs/shop.sol:Shop",
								"label": "rating",
								"offset": 0,
								"slot": "1",
								"type": "t_uint256"
							},
							{
								"astId": 38,
								"contract": "src/libs/shop.sol:Shop",
								"label": "likes",
								"offset": 0,
								"slot": "2",
								"type": "t_array(t_struct(like)30_storage)dyn_storage"
							},
							{
								"astId": 42,
								"contract": "src/libs/shop.sol:Shop",
								"label": "comments",
								"offset": 0,
								"slot": "3",
								"type": "t_array(t_struct(comment)54_storage)dyn_storage"
							},
							{
								"astId": 44,
								"contract": "src/libs/shop.sol:Shop",
								"label": "description",
								"offset": 0,
								"slot": "4",
								"type": "t_string_storage"
							}
						],
						"numberOfBytes": "160"
					},
					"t_struct(request)25_storage": {
						"encoding": "inplace",
						"label": "struct Shop.request",
						"members": [
							{
								"astId": 22,
								"contract": "src/libs/shop.sol:Shop",
								"label": "requester",
								"offset": 0,
								"slot": "0",
								"type": "t_address"
							},
							{
								"astId": 24,
								"contract": "src/libs/shop.sol:Shop",
								"label": "status",
								"offset": 20,
								"slot": "0",
								"type": "t_bool"
							}
						],
						"numberOfBytes": "32"
					},
					"t_struct(shop)20_storage": {
						"encoding": "inplace",
						"label": "struct Shop.shop",
						"members": [
							{
								"astId": 10,
								"contract": "src/libs/shop.sol:Shop",
								"label": "shop",
								"offset": 0,
								"slot": "0",
								"type": "t_address"
							},
							{
								"astId": 12,
								"contract": "src/libs/shop.sol:Shop",
								"label": "city",
								"offset": 0,
								"slot": "1",
								"type": "t_string_storage"
							},
							{
								"astId": 16,
								"contract": "src/libs/shop.sol:Shop",
								"label": "bookOfMarks",
								"offset": 0,
								"slot": "2",
								"type": "t_array(t_struct(mark)45_storage)dyn_storage"
							},
							{
								"astId": 19,
								"contract": "src/libs/shop.sol:Shop",
								"label": "sellers",
								"offset": 0,
								"slot": "3",
								"type": "t_array(t_uint256)dyn_storage"
							}
						],
						"numberOfBytes": "128"
					},
					"t_struct(user)8_storage": {
						"encoding": "inplace",
						"label": "struct Shop.user",
						"members": [
							{
								"astId": 3,
								"contract": "src/libs/shop.sol:Shop",
								"label": "user",
								"offset": 0,
								"slot": "0",
								"type": "t_address"
							},
							{
								"astId": 5,
								"contract": "src/libs/shop.sol:Shop",
								"label": "role",
								"offset": 0,
								"slot": "1",
								"type": "t_uint256"
							},
							{
								"astId": 7,
								"contract": "src/libs/shop.sol:Shop",
								"label": "nowRole",
								"offset": 0,
								"slot": "2",
								"type": "t_uint256"
							}
						],
						"numberOfBytes": "96"
					},
					"t_uint256": {
						"encoding": "inplace",
						"label": "uint256",
						"numberOfBytes": "32"
					}
				}
			},
			"userdoc": {
				"kind": "user",
				"methods": {},
				"version": 1
			}
		}
	}
}