{
	"src/libs/shop.sol": {
		"Shop": {
			"abi": [
				{
					"inputs": [],
					"stateMutability": "nonpayable",
					"type": "constructor"
				},
				{
					"inputs": [
						{
							"internalType": "address",
							"name": "candidate",
							"type": "address"
						}
					],
					"name": "addAdmin",
					"outputs": [],
					"stateMutability": "nonpayable",
					"type": "function"
				},
				{
					"inputs": [
						{
							"internalType": "uint256",
							"name": "idShop",
							"type": "uint256"
						},
						{
							"internalType": "uint256",
							"name": "idMark",
							"type": "uint256"
						},
						{
							"internalType": "string",
							"name": "description",
							"type": "string"
						}
					],
					"name": "addComment",
					"outputs": [],
					"stateMutability": "nonpayable",
					"type": "function"
				},
				{
					"inputs": [
						{
							"internalType": "uint256",
							"name": "idShop",
							"type": "uint256"
						},
						{
							"internalType": "uint256",
							"name": "idMark",
							"type": "uint256"
						},
						{
							"internalType": "bool",
							"name": "isLiked",
							"type": "bool"
						}
					],
					"name": "addLike",
					"outputs": [],
					"stateMutability": "nonpayable",
					"type": "function"
				},
				{
					"inputs": [
						{
							"internalType": "uint256",
							"name": "idShop",
							"type": "uint256"
						},
						{
							"internalType": "uint256",
							"name": "idMark",
							"type": "uint256"
						},
						{
							"internalType": "uint256",
							"name": "idComment",
							"type": "uint256"
						},
						{
							"internalType": "bool",
							"name": "isLiked",
							"type": "bool"
						}
					],
					"name": "addLike",
					"outputs": [],
					"stateMutability": "nonpayable",
					"type": "function"
				},
				{
					"inputs": [
						{
							"internalType": "uint256",
							"name": "idShop",
							"type": "uint256"
						},
						{
							"internalType": "uint256",
							"name": "rating",
							"type": "uint256"
						},
						{
							"internalType": "string",
							"name": "description",
							"type": "string"
						}
					],
					"name": "addMark",
					"outputs": [],
					"stateMutability": "nonpayable",
					"type": "function"
				},
				{
					"inputs": [
						{
							"internalType": "address",
							"name": "newShop",
							"type": "address"
						},
						{
							"internalType": "string",
							"name": "city",
							"type": "string"
						}
					],
					"name": "addShop",
					"outputs": [],
					"stateMutability": "nonpayable",
					"type": "function"
				},
				{
					"inputs": [
						{
							"internalType": "uint256",
							"name": "idShop",
							"type": "uint256"
						}
					],
					"name": "deleteShop",
					"outputs": [],
					"stateMutability": "nonpayable",
					"type": "function"
				},
				{
					"inputs": [],
					"name": "globalSwitchRequest",
					"outputs": [],
					"stateMutability": "nonpayable",
					"type": "function"
				},
				{
					"inputs": [],
					"name": "regUser",
					"outputs": [],
					"stateMutability": "nonpayable",
					"type": "function"
				},
				{
					"inputs": [],
					"name": "switchToUser",
					"outputs": [],
					"stateMutability": "nonpayable",
					"type": "function"
				},
				{
					"inputs": [
						{
							"internalType": "uint256",
							"name": "idRequest",
							"type": "uint256"
						}
					],
					"name": "upToSeller",
					"outputs": [],
					"stateMutability": "nonpayable",
					"type": "function"
				},
				{
					"inputs": [],
					"name": "view_Requests",
					"outputs": [
						{
							"components": [
								{
									"internalType": "address",
									"name": "requester",
									"type": "address"
								},
								{
									"internalType": "bool",
									"name": "status",
									"type": "bool"
								}
							],
							"internalType": "struct Shop.request[]",
							"name": "",
							"type": "tuple[]"
						}
					],
					"stateMutability": "view",
					"type": "function"
				},
				{
					"inputs": [],
					"name": "view_Shops",
					"outputs": [
						{
							"components": [
								{
									"internalType": "address",
									"name": "shop",
									"type": "address"
								},
								{
									"internalType": "string",
									"name": "city",
									"type": "string"
								},
								{
									"components": [
										{
											"internalType": "address",
											"name": "appraiser",
											"type": "address"
										},
										{
											"internalType": "uint256",
											"name": "rating",
											"type": "uint256"
										},
										{
											"components": [
												{
													"internalType": "address",
													"name": "appraiser",
													"type": "address"
												},
												{
													"internalType": "bool",
													"name": "isLiked",
													"type": "bool"
												}
											],
											"internalType": "struct Shop.like[]",
											"name": "likes",
											"type": "tuple[]"
										},
										{
											"components": [
												{
													"internalType": "address",
													"name": "sender",
													"type": "address"
												},
												{
													"components": [
														{
															"internalType": "address",
															"name": "appraiser",
															"type": "address"
														},
														{
															"internalType": "bool",
															"name": "isLiked",
															"type": "bool"
														}
													],
													"internalType": "struct Shop.like[]",
													"name": "likes",
													"type": "tuple[]"
												},
												{
													"internalType": "string",
													"name": "description",
													"type": "string"
												}
											],
											"internalType": "struct Shop.comment[]",
											"name": "comments",
											"type": "tuple[]"
										},
										{
											"internalType": "string",
											"name": "description",
											"type": "string"
										}
									],
									"internalType": "struct Shop.mark[]",
									"name": "bookOfMarks",
									"type": "tuple[]"
								},
								{
									"internalType": "uint256[]",
									"name": "sellers",
									"type": "uint256[]"
								}
							],
							"internalType": "struct Shop.shop[]",
							"name": "",
							"type": "tuple[]"
						}
					],
					"stateMutability": "view",
					"type": "function"
				},
				{
					"inputs": [],
					"name": "view_Users",
					"outputs": [
						{
							"components": [
								{
									"internalType": "address",
									"name": "user",
									"type": "address"
								},
								{
									"internalType": "uint256",
									"name": "role",
									"type": "uint256"
								},
								{
									"internalType": "uint256",
									"name": "nowRole",
									"type": "uint256"
								}
							],
							"internalType": "struct Shop.user[]",
							"name": "",
							"type": "tuple[]"
						}
					],
					"stateMutability": "view",
					"type": "function"
				}
			],
			"devdoc": {
				"kind": "dev",
				"methods": {},
				"version": 1
			},
			"evm": {
				"assembly": "    /* \"src/libs/shop.sol\":76:7795  contract Shop {\r... */\n  mstore(0x40, 0x80)\n    /* \"src/libs/shop.sol\":851:1133  constructor() {\r... */\n  callvalue\n  dup1\n  iszero\n  tag_1\n  jumpi\n  0x00\n  dup1\n  revert\ntag_1:\n  pop\n    /* \"src/libs/shop.sol\":876:930  regUser(0x2EEb8e636d2B7bF006AEf7DF63C1B388C3d0bB5E, 0) */\n  tag_4\n    /* \"src/libs/shop.sol\":884:926  0x2EEb8e636d2B7bF006AEf7DF63C1B388C3d0bB5E */\n  0x2eeb8e636d2b7bf006aef7df63c1b388c3d0bb5e\n    /* \"src/libs/shop.sol\":928:929  0 */\n  0x00\n    /* \"src/libs/shop.sol\":876:883  regUser */\n  shl(0x20, tag_5)\n    /* \"src/libs/shop.sol\":876:930  regUser(0x2EEb8e636d2B7bF006AEf7DF63C1B388C3d0bB5E, 0) */\n  0x20\n  shr\n  jump\t// in\ntag_4:\n    /* \"src/libs/shop.sol\":941:995  regUser(0x55cC20d0CdDFED1f06b669A8Ff6ebA58218bbbd7, 1) */\n  tag_6\n    /* \"src/libs/shop.sol\":949:991  0x55cC20d0CdDFED1f06b669A8Ff6ebA58218bbbd7 */\n  0x55cc20d0cddfed1f06b669a8ff6eba58218bbbd7\n    /* \"src/libs/shop.sol\":993:994  1 */\n  0x01\n    /* \"src/libs/shop.sol\":941:948  regUser */\n  shl(0x20, tag_5)\n    /* \"src/libs/shop.sol\":941:995  regUser(0x55cC20d0CdDFED1f06b669A8Ff6ebA58218bbbd7, 1) */\n  0x20\n  shr\n  jump\t// in\ntag_6:\n    /* \"src/libs/shop.sol\":1006:1060  regUser(0x55cC20d0CdDFED1f06b669A8Ff6ebA58218bbbd7, 2) */\n  tag_7\n    /* \"src/libs/shop.sol\":1014:1056  0x55cC20d0CdDFED1f06b669A8Ff6ebA58218bbbd7 */\n  0x55cc20d0cddfed1f06b669a8ff6eba58218bbbd7\n    /* \"src/libs/shop.sol\":1058:1059  2 */\n  0x02\n    /* \"src/libs/shop.sol\":1006:1013  regUser */\n  shl(0x20, tag_5)\n    /* \"src/libs/shop.sol\":1006:1060  regUser(0x55cC20d0CdDFED1f06b669A8Ff6ebA58218bbbd7, 2) */\n  0x20\n  shr\n  jump\t// in\ntag_7:\n    /* \"src/libs/shop.sol\":1071:1125  regUser(0xf4eE813A8C8214FC058636E31e670213cFC183b5, 2) */\n  tag_8\n    /* \"src/libs/shop.sol\":1079:1121  0xf4eE813A8C8214FC058636E31e670213cFC183b5 */\n  0xf4ee813a8c8214fc058636e31e670213cfc183b5\n    /* \"src/libs/shop.sol\":1123:1124  2 */\n  0x02\n    /* \"src/libs/shop.sol\":1071:1078  regUser */\n  shl(0x20, tag_5)\n    /* \"src/libs/shop.sol\":1071:1125  regUser(0xf4eE813A8C8214FC058636E31e670213cFC183b5, 2) */\n  0x20\n  shr\n  jump\t// in\ntag_8:\n    /* \"src/libs/shop.sol\":76:7795  contract Shop {\r... */\n  jump(tag_9)\n    /* \"src/libs/shop.sol\":2879:3092  function regUser(address newUser, uint256 role) private isntReg(newUser) {\r... */\ntag_5:\n    /* \"src/libs/shop.sol\":2943:2950  newUser */\n  dup2\n    /* \"src/libs/shop.sol\":1642:1651  uint256 i */\n  0x00\n    /* \"src/libs/shop.sol\":1637:1794  for (uint256 i = 0; i < Users.length; i++) {\r... */\ntag_11:\n    /* \"src/libs/shop.sol\":1661:1666  Users */\n  0x01\n    /* \"src/libs/shop.sol\":1661:1673  Users.length */\n  dup1\n  sload\n  swap1\n  pop\n    /* \"src/libs/shop.sol\":1657:1658  i */\n  dup2\n    /* \"src/libs/shop.sol\":1657:1673  i < Users.length */\n  lt\n    /* \"src/libs/shop.sol\":1637:1794  for (uint256 i = 0; i < Users.length; i++) {\r... */\n  iszero\n  tag_12\n  jumpi\n    /* \"src/libs/shop.sol\":1720:1727  newUser */\n  dup2\n    /* \"src/libs/shop.sol\":1703:1727  Users[i].user != newUser */\n  0xffffffffffffffffffffffffffffffffffffffff\n  and\n    /* \"src/libs/shop.sol\":1703:1708  Users */\n  0x01\n    /* \"src/libs/shop.sol\":1709:1710  i */\n  dup3\n    /* \"src/libs/shop.sol\":1703:1711  Users[i] */\n  dup2\n  sload\n  dup2\n  lt\n  tag_14\n  jumpi\n  tag_15\n  tag_16\n  jump\t// in\ntag_15:\ntag_14:\n  swap1\n  0x00\n  mstore\n  keccak256(0x00, 0x20)\n  swap1\n  0x03\n  mul\n  add\n    /* \"src/libs/shop.sol\":1703:1716  Users[i].user */\n  0x00\n  add\n  0x00\n  swap1\n  sload\n  swap1\n  0x0100\n  exp\n  swap1\n  div\n  0xffffffffffffffffffffffffffffffffffffffff\n  and\n    /* \"src/libs/shop.sol\":1703:1727  Users[i].user != newUser */\n  0xffffffffffffffffffffffffffffffffffffffff\n  and\n  eq\n  iszero\n    /* \"src/libs/shop.sol\":1695:1735  require(Users[i].user != newUser, \"201\") */\n  tag_18\n  jumpi\n  mload(0x40)\n  0x08c379a000000000000000000000000000000000000000000000000000000000\n  dup2\n  mstore\n  0x04\n  add\n  tag_19\n  swap1\n  tag_20\n  jump\t// in\ntag_19:\n  mload(0x40)\n  dup1\n  swap2\n  sub\n  swap1\n  revert\ntag_18:\n    /* \"src/libs/shop.sol\":1675:1678  i++ */\n  dup1\n  dup1\n  tag_21\n  swap1\n  tag_22\n  jump\t// in\ntag_21:\n  swap2\n  pop\n  pop\n    /* \"src/libs/shop.sol\":1637:1794  for (uint256 i = 0; i < Users.length; i++) {\r... */\n  jump(tag_11)\ntag_12:\n  pop\n    /* \"src/libs/shop.sol\":2978:2979  3 */\n  0x03\n    /* \"src/libs/shop.sol\":2971:2975  role */\n  dup3\n    /* \"src/libs/shop.sol\":2971:2979  role < 3 */\n  lt\n    /* \"src/libs/shop.sol\":2963:2987  require(role < 3, \"102\") */\n  tag_24\n  jumpi\n  mload(0x40)\n  0x08c379a000000000000000000000000000000000000000000000000000000000\n  dup2\n  mstore\n  0x04\n  add\n  tag_25\n  swap1\n  tag_26\n  jump\t// in\ntag_25:\n  mload(0x40)\n  dup1\n  swap2\n  sub\n  swap1\n  revert\ntag_24:\n    /* \"src/libs/shop.sol\":3047:3052  Users */\n  0x01\n    /* \"src/libs/shop.sol\":3058:3083  user(newUser, role, role) */\n  mload(0x40)\n  dup1\n  0x60\n  add\n  0x40\n  mstore\n  dup1\n    /* \"src/libs/shop.sol\":3063:3070  newUser */\n  dup6\n    /* \"src/libs/shop.sol\":3058:3083  user(newUser, role, role) */\n  0xffffffffffffffffffffffffffffffffffffffff\n  and\n  dup2\n  mstore\n  0x20\n  add\n    /* \"src/libs/shop.sol\":3072:3076  role */\n  dup5\n    /* \"src/libs/shop.sol\":3058:3083  user(newUser, role, role) */\n  dup2\n  mstore\n  0x20\n  add\n    /* \"src/libs/shop.sol\":3078:3082  role */\n  dup5\n    /* \"src/libs/shop.sol\":3058:3083  user(newUser, role, role) */\n  dup2\n  mstore\n  pop\n    /* \"src/libs/shop.sol\":3047:3084  Users.push(user(newUser, role, role)) */\n  swap1\n  dup1\n  0x01\n  dup2\n  sload\n  add\n  dup1\n  dup3\n  sstore\n  dup1\n  swap2\n  pop\n  pop\n  0x01\n  swap1\n  sub\n  swap1\n  0x00\n  mstore\n  keccak256(0x00, 0x20)\n  swap1\n  0x03\n  mul\n  add\n  0x00\n  swap1\n  swap2\n  swap1\n  swap2\n  swap1\n  swap2\n  pop\n  0x00\n  dup3\n  add\n  mload\n  dup2\n  0x00\n  add\n  exp(0x0100, 0x00)\n  dup2\n  sload\n  dup2\n  0xffffffffffffffffffffffffffffffffffffffff\n  mul\n  not\n  and\n  swap1\n  dup4\n  0xffffffffffffffffffffffffffffffffffffffff\n  and\n  mul\n  or\n  swap1\n  sstore\n  pop\n  0x20\n  dup3\n  add\n  mload\n  dup2\n  0x01\n  add\n  sstore\n  0x40\n  dup3\n  add\n  mload\n  dup2\n  0x02\n  add\n  sstore\n  pop\n  pop\n    /* \"src/libs/shop.sol\":2879:3092  function regUser(address newUser, uint256 role) private isntReg(newUser) {\r... */\n  pop\n  pop\n  pop\n  jump\t// out\n    /* \"#utility.yul\":7:372   */\ntag_29:\n    /* \"#utility.yul\":149:152   */\n  0x00\n    /* \"#utility.yul\":170:236   */\n  tag_31\n    /* \"#utility.yul\":234:235   */\n  0x03\n    /* \"#utility.yul\":229:232   */\n  dup4\n    /* \"#utility.yul\":170:236   */\n  tag_32\n  jump\t// in\ntag_31:\n    /* \"#utility.yul\":163:236   */\n  swap2\n  pop\n    /* \"#utility.yul\":245:338   */\n  tag_33\n    /* \"#utility.yul\":334:337   */\n  dup3\n    /* \"#utility.yul\":245:338   */\n  tag_34\n  jump\t// in\ntag_33:\n    /* \"#utility.yul\":363:365   */\n  0x20\n    /* \"#utility.yul\":358:361   */\n  dup3\n    /* \"#utility.yul\":354:366   */\n  add\n    /* \"#utility.yul\":347:366   */\n  swap1\n  pop\n    /* \"#utility.yul\":7:372   */\n  swap2\n  swap1\n  pop\n  jump\t// out\n    /* \"#utility.yul\":378:743   */\ntag_35:\n    /* \"#utility.yul\":520:523   */\n  0x00\n    /* \"#utility.yul\":541:607   */\n  tag_37\n    /* \"#utility.yul\":605:606   */\n  0x03\n    /* \"#utility.yul\":600:603   */\n  dup4\n    /* \"#utility.yul\":541:607   */\n  tag_32\n  jump\t// in\ntag_37:\n    /* \"#utility.yul\":534:607   */\n  swap2\n  pop\n    /* \"#utility.yul\":616:709   */\n  tag_38\n    /* \"#utility.yul\":705:708   */\n  dup3\n    /* \"#utility.yul\":616:709   */\n  tag_39\n  jump\t// in\ntag_38:\n    /* \"#utility.yul\":734:736   */\n  0x20\n    /* \"#utility.yul\":729:732   */\n  dup3\n    /* \"#utility.yul\":725:737   */\n  add\n    /* \"#utility.yul\":718:737   */\n  swap1\n  pop\n    /* \"#utility.yul\":378:743   */\n  swap2\n  swap1\n  pop\n  jump\t// out\n    /* \"#utility.yul\":749:1168   */\ntag_26:\n    /* \"#utility.yul\":915:919   */\n  0x00\n    /* \"#utility.yul\":953:955   */\n  0x20\n    /* \"#utility.yul\":942:951   */\n  dup3\n    /* \"#utility.yul\":938:956   */\n  add\n    /* \"#utility.yul\":930:956   */\n  swap1\n  pop\n    /* \"#utility.yul\":1002:1011   */\n  dup2\n    /* \"#utility.yul\":996:1000   */\n  dup2\n    /* \"#utility.yul\":992:1012   */\n  sub\n    /* \"#utility.yul\":988:989   */\n  0x00\n    /* \"#utility.yul\":977:986   */\n  dup4\n    /* \"#utility.yul\":973:990   */\n  add\n    /* \"#utility.yul\":966:1013   */\n  mstore\n    /* \"#utility.yul\":1030:1161   */\n  tag_41\n    /* \"#utility.yul\":1156:1160   */\n  dup2\n    /* \"#utility.yul\":1030:1161   */\n  tag_29\n  jump\t// in\ntag_41:\n    /* \"#utility.yul\":1022:1161   */\n  swap1\n  pop\n    /* \"#utility.yul\":749:1168   */\n  swap2\n  swap1\n  pop\n  jump\t// out\n    /* \"#utility.yul\":1174:1593   */\ntag_20:\n    /* \"#utility.yul\":1340:1344   */\n  0x00\n    /* \"#utility.yul\":1378:1380   */\n  0x20\n    /* \"#utility.yul\":1367:1376   */\n  dup3\n    /* \"#utility.yul\":1363:1381   */\n  add\n    /* \"#utility.yul\":1355:1381   */\n  swap1\n  pop\n    /* \"#utility.yul\":1427:1436   */\n  dup2\n    /* \"#utility.yul\":1421:1425   */\n  dup2\n    /* \"#utility.yul\":1417:1437   */\n  sub\n    /* \"#utility.yul\":1413:1414   */\n  0x00\n    /* \"#utility.yul\":1402:1411   */\n  dup4\n    /* \"#utility.yul\":1398:1415   */\n  add\n    /* \"#utility.yul\":1391:1438   */\n  mstore\n    /* \"#utility.yul\":1455:1586   */\n  tag_43\n    /* \"#utility.yul\":1581:1585   */\n  dup2\n    /* \"#utility.yul\":1455:1586   */\n  tag_35\n  jump\t// in\ntag_43:\n    /* \"#utility.yul\":1447:1586   */\n  swap1\n  pop\n    /* \"#utility.yul\":1174:1593   */\n  swap2\n  swap1\n  pop\n  jump\t// out\n    /* \"#utility.yul\":1599:1768   */\ntag_32:\n    /* \"#utility.yul\":1683:1694   */\n  0x00\n    /* \"#utility.yul\":1717:1723   */\n  dup3\n    /* \"#utility.yul\":1712:1715   */\n  dup3\n    /* \"#utility.yul\":1705:1724   */\n  mstore\n    /* \"#utility.yul\":1757:1761   */\n  0x20\n    /* \"#utility.yul\":1752:1755   */\n  dup3\n    /* \"#utility.yul\":1748:1762   */\n  add\n    /* \"#utility.yul\":1733:1762   */\n  swap1\n  pop\n    /* \"#utility.yul\":1599:1768   */\n  swap3\n  swap2\n  pop\n  pop\n  jump\t// out\n    /* \"#utility.yul\":1774:1851   */\ntag_45:\n    /* \"#utility.yul\":1811:1818   */\n  0x00\n    /* \"#utility.yul\":1840:1845   */\n  dup2\n    /* \"#utility.yul\":1829:1845   */\n  swap1\n  pop\n    /* \"#utility.yul\":1774:1851   */\n  swap2\n  swap1\n  pop\n  jump\t// out\n    /* \"#utility.yul\":1857:2090   */\ntag_22:\n    /* \"#utility.yul\":1896:1899   */\n  0x00\n    /* \"#utility.yul\":1919:1943   */\n  tag_48\n    /* \"#utility.yul\":1937:1942   */\n  dup3\n    /* \"#utility.yul\":1919:1943   */\n  tag_45\n  jump\t// in\ntag_48:\n    /* \"#utility.yul\":1910:1943   */\n  swap2\n  pop\n    /* \"#utility.yul\":1965:2031   */\n  0xffffffffffffffffffffffffffffffffffffffffffffffffffffffffffffffff\n    /* \"#utility.yul\":1958:1963   */\n  dup3\n    /* \"#utility.yul\":1955:2032   */\n  eq\n    /* \"#utility.yul\":1952:2055   */\n  iszero\n  tag_49\n  jumpi\n    /* \"#utility.yul\":2035:2053   */\n  tag_50\n  tag_51\n  jump\t// in\ntag_50:\n    /* \"#utility.yul\":1952:2055   */\ntag_49:\n    /* \"#utility.yul\":2082:2083   */\n  0x01\n    /* \"#utility.yul\":2075:2080   */\n  dup3\n    /* \"#utility.yul\":2071:2084   */\n  add\n    /* \"#utility.yul\":2064:2084   */\n  swap1\n  pop\n    /* \"#utility.yul\":1857:2090   */\n  swap2\n  swap1\n  pop\n  jump\t// out\n    /* \"#utility.yul\":2096:2276   */\ntag_51:\n    /* \"#utility.yul\":2144:2221   */\n  0x4e487b7100000000000000000000000000000000000000000000000000000000\n    /* \"#utility.yul\":2141:2142   */\n  0x00\n    /* \"#utility.yul\":2134:2222   */\n  mstore\n    /* \"#utility.yul\":2241:2245   */\n  0x11\n    /* \"#utility.yul\":2238:2239   */\n  0x04\n    /* \"#utility.yul\":2231:2246   */\n  mstore\n    /* \"#utility.yul\":2265:2269   */\n  0x24\n    /* \"#utility.yul\":2262:2263   */\n  0x00\n    /* \"#utility.yul\":2255:2270   */\n  revert\n    /* \"#utility.yul\":2282:2462   */\ntag_16:\n    /* \"#utility.yul\":2330:2407   */\n  0x4e487b7100000000000000000000000000000000000000000000000000000000\n    /* \"#utility.yul\":2327:2328   */\n  0x00\n    /* \"#utility.yul\":2320:2408   */\n  mstore\n    /* \"#utility.yul\":2427:2431   */\n  0x32\n    /* \"#utility.yul\":2424:2425   */\n  0x04\n    /* \"#utility.yul\":2417:2432   */\n  mstore\n    /* \"#utility.yul\":2451:2455   */\n  0x24\n    /* \"#utility.yul\":2448:2449   */\n  0x00\n    /* \"#utility.yul\":2441:2456   */\n  revert\n    /* \"#utility.yul\":2468:2621   */\ntag_34:\n    /* \"#utility.yul\":2608:2613   */\n  0x3130320000000000000000000000000000000000000000000000000000000000\n    /* \"#utility.yul\":2604:2605   */\n  0x00\n    /* \"#utility.yul\":2596:2602   */\n  dup3\n    /* \"#utility.yul\":2592:2606   */\n  add\n    /* \"#utility.yul\":2585:2614   */\n  mstore\n    /* \"#utility.yul\":2468:2621   */\n  pop\n  jump\t// out\n    /* \"#utility.yul\":2627:2780   */\ntag_39:\n    /* \"#utility.yul\":2767:2772   */\n  0x3230310000000000000000000000000000000000000000000000000000000000\n    /* \"#utility.yul\":2763:2764   */\n  0x00\n    /* \"#utility.yul\":2755:2761   */\n  dup3\n    /* \"#utility.yul\":2751:2765   */\n  add\n    /* \"#utility.yul\":2744:2773   */\n  mstore\n    /* \"#utility.yul\":2627:2780   */\n  pop\n  jump\t// out\n    /* \"src/libs/shop.sol\":76:7795  contract Shop {\r... */\ntag_9:\n  dataSize(sub_0)\n  dup1\n  dataOffset(sub_0)\n  0x00\n  codecopy\n  0x00\n  return\nstop\n\nsub_0: assembly {\n        /* \"src/libs/shop.sol\":76:7795  contract Shop {\r... */\n      mstore(0x40, 0x80)\n      callvalue\n      dup1\n      iszero\n      tag_1\n      jumpi\n      0x00\n      dup1\n      revert\n    tag_1:\n      pop\n      jumpi(tag_2, lt(calldatasize, 0x04))\n      shr(0xe0, calldataload(0x00))\n      dup1\n      0x3efdebf1\n      gt\n      tag_17\n      jumpi\n      dup1\n      0x66b2f791\n      gt\n      tag_18\n      jumpi\n      dup1\n      0x66b2f791\n      eq\n      tag_13\n      jumpi\n      dup1\n      0x70480275\n      eq\n      tag_14\n      jumpi\n      dup1\n      0xab122ef5\n      eq\n      tag_15\n      jumpi\n      dup1\n      0xad81f803\n      eq\n      tag_16\n      jumpi\n      jump(tag_2)\n    tag_18:\n      dup1\n      0x3efdebf1\n      eq\n      tag_10\n      jumpi\n      dup1\n      0x4384a79f\n      eq\n      tag_11\n      jumpi\n      dup1\n      0x49b15962\n      eq\n      tag_12\n      jumpi\n      jump(tag_2)\n    tag_17:\n      dup1\n      0x240185b6\n      gt\n      tag_19\n      jumpi\n      dup1\n      0x240185b6\n      eq\n      tag_6\n      jumpi\n      dup1\n      0x2bd2cd50\n      eq\n      tag_7\n      jumpi\n      dup1\n      0x2e91d706\n      eq\n      tag_8\n      jumpi\n      dup1\n      0x3b95a23f\n      eq\n      tag_9\n      jumpi\n      jump(tag_2)\n    tag_19:\n      dup1\n      0x82f88e\n      eq\n      tag_3\n      jumpi\n      dup1\n      0x1a0550e3\n      eq\n      tag_4\n      jumpi\n      dup1\n      0x1c618eb3\n      eq\n      tag_5\n      jumpi\n    tag_2:\n      0x00\n      dup1\n      revert\n        /* \"src/libs/shop.sol\":6301:6921  function addMark(\r... */\n    tag_3:\n      tag_20\n      0x04\n      dup1\n      calldatasize\n      sub\n      dup2\n      add\n      swap1\n      tag_21\n      swap2\n      swap1\n      tag_22\n      jump\t// in\n    tag_21:\n      tag_23\n      jump\t// in\n    tag_20:\n      stop\n        /* \"src/libs/shop.sol\":4817:5256  function upToSeller(uint256 idRequest)\r... */\n    tag_4:\n      tag_24\n      0x04\n      dup1\n      calldatasize\n      sub\n      dup2\n      add\n      swap1\n      tag_25\n      swap2\n      swap1\n      tag_26\n      jump\t// in\n    tag_25:\n      tag_27\n      jump\t// in\n    tag_24:\n      stop\n        /* \"src/libs/shop.sol\":5647:5958  function addShop(address newShop, string memory city)\r... */\n    tag_5:\n      tag_28\n      0x04\n      dup1\n      calldatasize\n      sub\n      dup2\n      add\n      swap1\n      tag_29\n      swap2\n      swap1\n      tag_30\n      jump\t// in\n    tag_29:\n      tag_31\n      jump\t// in\n    tag_28:\n      stop\n        /* \"src/libs/shop.sol\":7494:7585  function view_Shops() public view returns (shop[] memory) {\r... */\n    tag_6:\n      tag_32\n      tag_33\n      jump\t// in\n    tag_32:\n      mload(0x40)\n      tag_34\n      swap2\n      swap1\n      tag_35\n      jump\t// in\n    tag_34:\n      mload(0x40)\n      dup1\n      swap2\n      sub\n      swap1\n      return\n        /* \"src/libs/shop.sol\":7692:7792  function view_Requests() public view returns (request[] memory) {\r... */\n    tag_7:\n      tag_36\n      tag_37\n      jump\t// in\n    tag_36:\n      mload(0x40)\n      tag_38\n      swap2\n      swap1\n      tag_39\n      jump\t// in\n    tag_38:\n      mload(0x40)\n      dup1\n      swap2\n      sub\n      swap1\n      return\n        /* \"src/libs/shop.sol\":3803:4223  function globalSwitchRequest() public {\r... */\n    tag_8:\n      tag_40\n      tag_41\n      jump\t// in\n    tag_40:\n      stop\n        /* \"src/libs/shop.sol\":3100:3199  function regUser() public isntReg(msg.sender) {\r... */\n    tag_9:\n      tag_42\n      tag_43\n      jump\t// in\n    tag_42:\n      stop\n        /* \"src/libs/shop.sol\":5966:6242  function deleteShop(uint256 idShop) public {\r... */\n    tag_10:\n      tag_44\n      0x04\n      dup1\n      calldatasize\n      sub\n      dup2\n      add\n      swap1\n      tag_45\n      swap2\n      swap1\n      tag_26\n      jump\t// in\n    tag_45:\n      tag_46\n      jump\t// in\n    tag_44:\n      stop\n        /* \"src/libs/shop.sol\":6929:7142  function addLike(\r... */\n    tag_11:\n      tag_47\n      0x04\n      dup1\n      calldatasize\n      sub\n      dup2\n      add\n      swap1\n      tag_48\n      swap2\n      swap1\n      tag_49\n      jump\t// in\n    tag_48:\n      tag_50\n      jump\t// in\n    tag_47:\n      stop\n        /* \"src/libs/shop.sol\":3279:3795  function switchToUser() public {\r... */\n    tag_12:\n      tag_51\n      tag_52\n      jump\t// in\n    tag_51:\n      stop\n        /* \"src/libs/shop.sol\":7150:7435  function addLike(\r... */\n    tag_13:\n      tag_53\n      0x04\n      dup1\n      calldatasize\n      sub\n      dup2\n      add\n      swap1\n      tag_54\n      swap2\n      swap1\n      tag_55\n      jump\t// in\n    tag_54:\n      tag_56\n      jump\t// in\n    tag_53:\n      stop\n        /* \"src/libs/shop.sol\":5264:5639  function addAdmin(address candidate)\r... */\n    tag_14:\n      tag_57\n      0x04\n      dup1\n      calldatasize\n      sub\n      dup2\n      add\n      swap1\n      tag_58\n      swap2\n      swap1\n      tag_59\n      jump\t// in\n    tag_58:\n      tag_60\n      jump\t// in\n    tag_57:\n      stop\n        /* \"src/libs/shop.sol\":4231:4765  function addComment(\r... */\n    tag_15:\n      tag_61\n      0x04\n      dup1\n      calldatasize\n      sub\n      dup2\n      add\n      swap1\n      tag_62\n      swap2\n      swap1\n      tag_22\n      jump\t// in\n    tag_62:\n      tag_63\n      jump\t// in\n    tag_61:\n      stop\n        /* \"src/libs/shop.sol\":7593:7684  function view_Users() public view returns (user[] memory) {\r... */\n    tag_16:\n      tag_64\n      tag_65\n      jump\t// in\n    tag_64:\n      mload(0x40)\n      tag_66\n      swap2\n      swap1\n      tag_67\n      jump\t// in\n    tag_66:\n      mload(0x40)\n      dup1\n      swap2\n      sub\n      swap1\n      return\n        /* \"src/libs/shop.sol\":6301:6921  function addMark(\r... */\n    tag_23:\n        /* \"src/libs/shop.sol\":6510:6515  Shops */\n      0x00\n        /* \"src/libs/shop.sol\":6516:6522  idShop */\n      dup4\n        /* \"src/libs/shop.sol\":6510:6523  Shops[idShop] */\n      dup2\n      sload\n      dup2\n      lt\n      tag_69\n      jumpi\n      tag_70\n      tag_71\n      jump\t// in\n    tag_70:\n    tag_69:\n      swap1\n      0x00\n      mstore\n      keccak256(0x00, 0x20)\n      swap1\n      0x04\n      mul\n      add\n        /* \"src/libs/shop.sol\":6510:6535  Shops[idShop].bookOfMarks */\n      0x02\n      add\n        /* \"src/libs/shop.sol\":6510:6542  Shops[idShop].bookOfMarks.push() */\n      0x01\n      dup2\n      0x01\n      dup2\n      sload\n      add\n      dup1\n      dup3\n      sstore\n      dup1\n      swap2\n      pop\n      pop\n      sub\n      swap1\n      0x00\n      mstore\n      keccak256(0x00, 0x20)\n      swap1\n      pop\n      pop\n        /* \"src/libs/shop.sol\":6657:6667  msg.sender */\n      caller\n        /* \"src/libs/shop.sol\":6553:6558  Shops */\n      0x00\n        /* \"src/libs/shop.sol\":6559:6565  idShop */\n      dup5\n        /* \"src/libs/shop.sol\":6553:6566  Shops[idShop] */\n      dup2\n      sload\n      dup2\n      lt\n      tag_74\n      jumpi\n      tag_75\n      tag_71\n      jump\t// in\n    tag_75:\n    tag_74:\n      swap1\n      0x00\n      mstore\n      keccak256(0x00, 0x20)\n      swap1\n      0x04\n      mul\n      add\n        /* \"src/libs/shop.sol\":6553:6592  Shops[idShop]\r... */\n      0x02\n      add\n        /* \"src/libs/shop.sol\":6628:6629  1 */\n      0x01\n        /* \"src/libs/shop.sol\":6593:6598  Shops */\n      0x00\n        /* \"src/libs/shop.sol\":6599:6605  idShop */\n      dup7\n        /* \"src/libs/shop.sol\":6593:6606  Shops[idShop] */\n      dup2\n      sload\n      dup2\n      lt\n      tag_77\n      jumpi\n      tag_78\n      tag_71\n      jump\t// in\n    tag_78:\n    tag_77:\n      swap1\n      0x00\n      mstore\n      keccak256(0x00, 0x20)\n      swap1\n      0x04\n      mul\n      add\n        /* \"src/libs/shop.sol\":6593:6618  Shops[idShop].bookOfMarks */\n      0x02\n      add\n        /* \"src/libs/shop.sol\":6593:6625  Shops[idShop].bookOfMarks.length */\n      dup1\n      sload\n      swap1\n      pop\n        /* \"src/libs/shop.sol\":6593:6629  Shops[idShop].bookOfMarks.length - 1 */\n      tag_80\n      swap2\n      swap1\n      tag_81\n      jump\t// in\n    tag_80:\n        /* \"src/libs/shop.sol\":6553:6630  Shops[idShop]\r... */\n      dup2\n      sload\n      dup2\n      lt\n      tag_82\n      jumpi\n      tag_83\n      tag_71\n      jump\t// in\n    tag_83:\n    tag_82:\n      swap1\n      0x00\n      mstore\n      keccak256(0x00, 0x20)\n      swap1\n      0x05\n      mul\n      add\n        /* \"src/libs/shop.sol\":6553:6654  Shops[idShop]\r... */\n      0x00\n      add\n      0x00\n        /* \"src/libs/shop.sol\":6553:6667  Shops[idShop]\r... */\n      0x0100\n      exp\n      dup2\n      sload\n      dup2\n      0xffffffffffffffffffffffffffffffffffffffff\n      mul\n      not\n      and\n      swap1\n      dup4\n      0xffffffffffffffffffffffffffffffffffffffff\n      and\n      mul\n      or\n      swap1\n      sstore\n      pop\n        /* \"src/libs/shop.sol\":6779:6785  rating */\n      dup2\n        /* \"src/libs/shop.sol\":6678:6683  Shops */\n      0x00\n        /* \"src/libs/shop.sol\":6684:6690  idShop */\n      dup5\n        /* \"src/libs/shop.sol\":6678:6691  Shops[idShop] */\n      dup2\n      sload\n      dup2\n      lt\n      tag_85\n      jumpi\n      tag_86\n      tag_71\n      jump\t// in\n    tag_86:\n    tag_85:\n      swap1\n      0x00\n      mstore\n      keccak256(0x00, 0x20)\n      swap1\n      0x04\n      mul\n      add\n        /* \"src/libs/shop.sol\":6678:6717  Shops[idShop]\r... */\n      0x02\n      add\n        /* \"src/libs/shop.sol\":6753:6754  1 */\n      0x01\n        /* \"src/libs/shop.sol\":6718:6723  Shops */\n      0x00\n        /* \"src/libs/shop.sol\":6724:6730  idShop */\n      dup7\n        /* \"src/libs/shop.sol\":6718:6731  Shops[idShop] */\n      dup2\n      sload\n      dup2\n      lt\n      tag_88\n      jumpi\n      tag_89\n      tag_71\n      jump\t// in\n    tag_89:\n    tag_88:\n      swap1\n      0x00\n      mstore\n      keccak256(0x00, 0x20)\n      swap1\n      0x04\n      mul\n      add\n        /* \"src/libs/shop.sol\":6718:6743  Shops[idShop].bookOfMarks */\n      0x02\n      add\n        /* \"src/libs/shop.sol\":6718:6750  Shops[idShop].bookOfMarks.length */\n      dup1\n      sload\n      swap1\n      pop\n        /* \"src/libs/shop.sol\":6718:6754  Shops[idShop].bookOfMarks.length - 1 */\n      tag_91\n      swap2\n      swap1\n      tag_81\n      jump\t// in\n    tag_91:\n        /* \"src/libs/shop.sol\":6678:6755  Shops[idShop]\r... */\n      dup2\n      sload\n      dup2\n      lt\n      tag_92\n      jumpi\n      tag_93\n      tag_71\n      jump\t// in\n    tag_93:\n    tag_92:\n      swap1\n      0x00\n      mstore\n      keccak256(0x00, 0x20)\n      swap1\n      0x05\n      mul\n      add\n        /* \"src/libs/shop.sol\":6678:6776  Shops[idShop]\r... */\n      0x01\n      add\n        /* \"src/libs/shop.sol\":6678:6785  Shops[idShop]\r... */\n      dup2\n      swap1\n      sstore\n      pop\n        /* \"src/libs/shop.sol\":6902:6913  description */\n      dup1\n        /* \"src/libs/shop.sol\":6796:6801  Shops */\n      0x00\n        /* \"src/libs/shop.sol\":6802:6808  idShop */\n      dup5\n        /* \"src/libs/shop.sol\":6796:6809  Shops[idShop] */\n      dup2\n      sload\n      dup2\n      lt\n      tag_95\n      jumpi\n      tag_96\n      tag_71\n      jump\t// in\n    tag_96:\n    tag_95:\n      swap1\n      0x00\n      mstore\n      keccak256(0x00, 0x20)\n      swap1\n      0x04\n      mul\n      add\n        /* \"src/libs/shop.sol\":6796:6835  Shops[idShop]\r... */\n      0x02\n      add\n        /* \"src/libs/shop.sol\":6871:6872  1 */\n      0x01\n        /* \"src/libs/shop.sol\":6836:6841  Shops */\n      0x00\n        /* \"src/libs/shop.sol\":6842:6848  idShop */\n      dup7\n        /* \"src/libs/shop.sol\":6836:6849  Shops[idShop] */\n      dup2\n      sload\n      dup2\n      lt\n      tag_98\n      jumpi\n      tag_99\n      tag_71\n      jump\t// in\n    tag_99:\n    tag_98:\n      swap1\n      0x00\n      mstore\n      keccak256(0x00, 0x20)\n      swap1\n      0x04\n      mul\n      add\n        /* \"src/libs/shop.sol\":6836:6861  Shops[idShop].bookOfMarks */\n      0x02\n      add\n        /* \"src/libs/shop.sol\":6836:6868  Shops[idShop].bookOfMarks.length */\n      dup1\n      sload\n      swap1\n      pop\n        /* \"src/libs/shop.sol\":6836:6872  Shops[idShop].bookOfMarks.length - 1 */\n      tag_101\n      swap2\n      swap1\n      tag_81\n      jump\t// in\n    tag_101:\n        /* \"src/libs/shop.sol\":6796:6873  Shops[idShop]\r... */\n      dup2\n      sload\n      dup2\n      lt\n      tag_102\n      jumpi\n      tag_103\n      tag_71\n      jump\t// in\n    tag_103:\n    tag_102:\n      swap1\n      0x00\n      mstore\n      keccak256(0x00, 0x20)\n      swap1\n      0x05\n      mul\n      add\n        /* \"src/libs/shop.sol\":6796:6899  Shops[idShop]\r... */\n      0x04\n      add\n        /* \"src/libs/shop.sol\":6796:6913  Shops[idShop]\r... */\n      swap1\n      dup1\n      mload\n      swap1\n      0x20\n      add\n      swap1\n      tag_105\n      swap3\n      swap2\n      swap1\n      tag_106\n      jump\t// in\n    tag_105:\n      pop\n        /* \"src/libs/shop.sol\":6301:6921  function addMark(\r... */\n      pop\n      pop\n      pop\n      jump\t// out\n        /* \"src/libs/shop.sol\":4817:5256  function upToSeller(uint256 idRequest)\r... */\n    tag_27:\n        /* \"src/libs/shop.sol\":4887:4897  msg.sender */\n      caller\n        /* \"src/libs/shop.sol\":1269:1285  bool isRegistred */\n      0x00\n        /* \"src/libs/shop.sol\":1309:1318  uint256 i */\n      dup1\n        /* \"src/libs/shop.sol\":1304:1481  for (uint256 i = 0; i < Users.length; i++) {\r... */\n    tag_108:\n        /* \"src/libs/shop.sol\":1328:1333  Users */\n      0x01\n        /* \"src/libs/shop.sol\":1328:1340  Users.length */\n      dup1\n      sload\n      swap1\n      pop\n        /* \"src/libs/shop.sol\":1324:1325  i */\n      dup2\n        /* \"src/libs/shop.sol\":1324:1340  i < Users.length */\n      lt\n        /* \"src/libs/shop.sol\":1304:1481  for (uint256 i = 0; i < Users.length; i++) {\r... */\n      iszero\n      tag_109\n      jumpi\n        /* \"src/libs/shop.sol\":1383:1391  someUser */\n      dup3\n        /* \"src/libs/shop.sol\":1366:1391  Users[i].user == someUser */\n      0xffffffffffffffffffffffffffffffffffffffff\n      and\n        /* \"src/libs/shop.sol\":1366:1371  Users */\n      0x01\n        /* \"src/libs/shop.sol\":1372:1373  i */\n      dup3\n        /* \"src/libs/shop.sol\":1366:1374  Users[i] */\n      dup2\n      sload\n      dup2\n      lt\n      tag_111\n      jumpi\n      tag_112\n      tag_71\n      jump\t// in\n    tag_112:\n    tag_111:\n      swap1\n      0x00\n      mstore\n      keccak256(0x00, 0x20)\n      swap1\n      0x03\n      mul\n      add\n        /* \"src/libs/shop.sol\":1366:1379  Users[i].user */\n      0x00\n      add\n      0x00\n      swap1\n      sload\n      swap1\n      0x0100\n      exp\n      swap1\n      div\n      0xffffffffffffffffffffffffffffffffffffffff\n      and\n        /* \"src/libs/shop.sol\":1366:1391  Users[i].user == someUser */\n      0xffffffffffffffffffffffffffffffffffffffff\n      and\n      eq\n        /* \"src/libs/shop.sol\":1362:1470  if (Users[i].user == someUser) {\r... */\n      iszero\n      tag_114\n      jumpi\n        /* \"src/libs/shop.sol\":1426:1430  true */\n      0x01\n        /* \"src/libs/shop.sol\":1412:1430  isRegistred = true */\n      swap2\n      pop\n        /* \"src/libs/shop.sol\":1449:1454  break */\n      jump(tag_109)\n        /* \"src/libs/shop.sol\":1362:1470  if (Users[i].user == someUser) {\r... */\n    tag_114:\n        /* \"src/libs/shop.sol\":1342:1345  i++ */\n      dup1\n      dup1\n      tag_115\n      swap1\n      tag_116\n      jump\t// in\n    tag_115:\n      swap2\n      pop\n      pop\n        /* \"src/libs/shop.sol\":1304:1481  for (uint256 i = 0; i < Users.length; i++) {\r... */\n      jump(tag_108)\n    tag_109:\n      pop\n        /* \"src/libs/shop.sol\":1500:1511  isRegistred */\n      dup1\n        /* \"src/libs/shop.sol\":1499:1511  !isRegistred */\n      iszero\n        /* \"src/libs/shop.sol\":1491:1519  require(!isRegistred, \"200\") */\n      tag_117\n      jumpi\n      mload(0x40)\n      0x08c379a000000000000000000000000000000000000000000000000000000000\n      dup2\n      mstore\n      0x04\n      add\n      tag_118\n      swap1\n      tag_119\n      jump\t// in\n    tag_118:\n      mload(0x40)\n      dup1\n      swap2\n      sub\n      swap1\n      revert\n    tag_117:\n        /* \"src/libs/shop.sol\":4916:4926  msg.sender */\n      caller\n        /* \"src/libs/shop.sol\":2198:2207  uint256 i */\n      0x00\n        /* \"src/libs/shop.sol\":2193:2467  for (uint256 i = 0; i < Users.length; i++) {\r... */\n    tag_121:\n        /* \"src/libs/shop.sol\":2217:2222  Users */\n      0x01\n        /* \"src/libs/shop.sol\":2217:2229  Users.length */\n      dup1\n      sload\n      swap1\n      pop\n        /* \"src/libs/shop.sol\":2213:2214  i */\n      dup2\n        /* \"src/libs/shop.sol\":2213:2229  i < Users.length */\n      lt\n        /* \"src/libs/shop.sol\":2193:2467  for (uint256 i = 0; i < Users.length; i++) {\r... */\n      iszero\n      tag_122\n      jumpi\n        /* \"src/libs/shop.sol\":2272:2279  newUser */\n      dup2\n        /* \"src/libs/shop.sol\":2255:2279  Users[i].user == newUser */\n      0xffffffffffffffffffffffffffffffffffffffff\n      and\n        /* \"src/libs/shop.sol\":2255:2260  Users */\n      0x01\n        /* \"src/libs/shop.sol\":2261:2262  i */\n      dup3\n        /* \"src/libs/shop.sol\":2255:2263  Users[i] */\n      dup2\n      sload\n      dup2\n      lt\n      tag_124\n      jumpi\n      tag_125\n      tag_71\n      jump\t// in\n    tag_125:\n    tag_124:\n      swap1\n      0x00\n      mstore\n      keccak256(0x00, 0x20)\n      swap1\n      0x03\n      mul\n      add\n        /* \"src/libs/shop.sol\":2255:2268  Users[i].user */\n      0x00\n      add\n      0x00\n      swap1\n      sload\n      swap1\n      0x0100\n      exp\n      swap1\n      div\n      0xffffffffffffffffffffffffffffffffffffffff\n      and\n        /* \"src/libs/shop.sol\":2255:2279  Users[i].user == newUser */\n      0xffffffffffffffffffffffffffffffffffffffff\n      and\n      eq\n        /* \"src/libs/shop.sol\":2251:2456  if (Users[i].user == newUser) {\r... */\n      iszero\n      tag_127\n      jumpi\n        /* \"src/libs/shop.sol\":2328:2329  0 */\n      0x00\n        /* \"src/libs/shop.sol\":2308:2313  Users */\n      0x01\n        /* \"src/libs/shop.sol\":2314:2315  i */\n      dup3\n        /* \"src/libs/shop.sol\":2308:2316  Users[i] */\n      dup2\n      sload\n      dup2\n      lt\n      tag_128\n      jumpi\n      tag_129\n      tag_71\n      jump\t// in\n    tag_129:\n    tag_128:\n      swap1\n      0x00\n      mstore\n      keccak256(0x00, 0x20)\n      swap1\n      0x03\n      mul\n      add\n        /* \"src/libs/shop.sol\":2308:2324  Users[i].nowRole */\n      0x02\n      add\n      sload\n        /* \"src/libs/shop.sol\":2308:2329  Users[i].nowRole == 0 */\n      eq\n        /* \"src/libs/shop.sol\":2300:2337  require(Users[i].nowRole == 0, \"100\") */\n      tag_131\n      jumpi\n      mload(0x40)\n      0x08c379a000000000000000000000000000000000000000000000000000000000\n      dup2\n      mstore\n      0x04\n      add\n      tag_132\n      swap1\n      tag_133\n      jump\t// in\n    tag_132:\n      mload(0x40)\n      dup1\n      swap2\n      sub\n      swap1\n      revert\n    tag_131:\n        /* \"src/libs/shop.sol\":2435:2440  break */\n      jump(tag_122)\n        /* \"src/libs/shop.sol\":2251:2456  if (Users[i].user == newUser) {\r... */\n    tag_127:\n        /* \"src/libs/shop.sol\":2231:2234  i++ */\n      dup1\n      dup1\n      tag_134\n      swap1\n      tag_116\n      jump\t// in\n    tag_134:\n      swap2\n      pop\n      pop\n        /* \"src/libs/shop.sol\":2193:2467  for (uint256 i = 0; i < Users.length; i++) {\r... */\n      jump(tag_121)\n    tag_122:\n      pop\n        /* \"src/libs/shop.sol\":4949:4958  uint256 i */\n      0x00\n        /* \"src/libs/shop.sol\":4944:5249  for (uint256 i = 0; i < Users.length; i++) {\r... */\n    tag_136:\n        /* \"src/libs/shop.sol\":4968:4973  Users */\n      0x01\n        /* \"src/libs/shop.sol\":4968:4980  Users.length */\n      dup1\n      sload\n      swap1\n      pop\n        /* \"src/libs/shop.sol\":4964:4965  i */\n      dup2\n        /* \"src/libs/shop.sol\":4964:4980  i < Users.length */\n      lt\n        /* \"src/libs/shop.sol\":4944:5249  for (uint256 i = 0; i < Users.length; i++) {\r... */\n      iszero\n      tag_137\n      jumpi\n        /* \"src/libs/shop.sol\":5023:5031  Requests */\n      0x02\n        /* \"src/libs/shop.sol\":5032:5041  idRequest */\n      dup6\n        /* \"src/libs/shop.sol\":5023:5042  Requests[idRequest] */\n      dup2\n      sload\n      dup2\n      lt\n      tag_139\n      jumpi\n      tag_140\n      tag_71\n      jump\t// in\n    tag_140:\n    tag_139:\n      swap1\n      0x00\n      mstore\n      keccak256(0x00, 0x20)\n      add\n        /* \"src/libs/shop.sol\":5023:5052  Requests[idRequest].requester */\n      0x00\n      add\n      0x00\n      swap1\n      sload\n      swap1\n      0x0100\n      exp\n      swap1\n      div\n      0xffffffffffffffffffffffffffffffffffffffff\n      and\n        /* \"src/libs/shop.sol\":5006:5052  Users[i].user == Requests[idRequest].requester */\n      0xffffffffffffffffffffffffffffffffffffffff\n      and\n        /* \"src/libs/shop.sol\":5006:5011  Users */\n      0x01\n        /* \"src/libs/shop.sol\":5012:5013  i */\n      dup3\n        /* \"src/libs/shop.sol\":5006:5014  Users[i] */\n      dup2\n      sload\n      dup2\n      lt\n      tag_142\n      jumpi\n      tag_143\n      tag_71\n      jump\t// in\n    tag_143:\n    tag_142:\n      swap1\n      0x00\n      mstore\n      keccak256(0x00, 0x20)\n      swap1\n      0x03\n      mul\n      add\n        /* \"src/libs/shop.sol\":5006:5019  Users[i].user */\n      0x00\n      add\n      0x00\n      swap1\n      sload\n      swap1\n      0x0100\n      exp\n      swap1\n      div\n      0xffffffffffffffffffffffffffffffffffffffff\n      and\n        /* \"src/libs/shop.sol\":5006:5052  Users[i].user == Requests[idRequest].requester */\n      0xffffffffffffffffffffffffffffffffffffffff\n      and\n      eq\n        /* \"src/libs/shop.sol\":5002:5238  if (Users[i].user == Requests[idRequest].requester) {\r... */\n      iszero\n      tag_145\n      jumpi\n        /* \"src/libs/shop.sol\":5094:5095  1 */\n      0x01\n        /* \"src/libs/shop.sol\":5077:5082  Users */\n      dup1\n        /* \"src/libs/shop.sol\":5083:5084  i */\n      dup3\n        /* \"src/libs/shop.sol\":5077:5085  Users[i] */\n      dup2\n      sload\n      dup2\n      lt\n      tag_146\n      jumpi\n      tag_147\n      tag_71\n      jump\t// in\n    tag_147:\n    tag_146:\n      swap1\n      0x00\n      mstore\n      keccak256(0x00, 0x20)\n      swap1\n      0x03\n      mul\n      add\n        /* \"src/libs/shop.sol\":5077:5090  Users[i].role */\n      0x01\n      add\n      sload\n        /* \"src/libs/shop.sol\":5077:5095  Users[i].role == 1 */\n      eq\n        /* \"src/libs/shop.sol\":5073:5223  if (Users[i].role == 1) {\r... */\n      iszero\n      tag_149\n      jumpi\n        /* \"src/libs/shop.sol\":5136:5137  2 */\n      0x02\n        /* \"src/libs/shop.sol\":5120:5125  Users */\n      0x01\n        /* \"src/libs/shop.sol\":5126:5127  i */\n      dup3\n        /* \"src/libs/shop.sol\":5120:5128  Users[i] */\n      dup2\n      sload\n      dup2\n      lt\n      tag_150\n      jumpi\n      tag_151\n      tag_71\n      jump\t// in\n    tag_151:\n    tag_150:\n      swap1\n      0x00\n      mstore\n      keccak256(0x00, 0x20)\n      swap1\n      0x03\n      mul\n      add\n        /* \"src/libs/shop.sol\":5120:5133  Users[i].role */\n      0x01\n      add\n        /* \"src/libs/shop.sol\":5120:5137  Users[i].role = 2 */\n      dup2\n      swap1\n      sstore\n      pop\n        /* \"src/libs/shop.sol\":5073:5223  if (Users[i].role == 1) {\r... */\n      jump(tag_153)\n    tag_149:\n        /* \"src/libs/shop.sol\":5202:5203  1 */\n      0x01\n        /* \"src/libs/shop.sol\":5186:5191  Users */\n      dup1\n        /* \"src/libs/shop.sol\":5192:5193  i */\n      dup3\n        /* \"src/libs/shop.sol\":5186:5194  Users[i] */\n      dup2\n      sload\n      dup2\n      lt\n      tag_154\n      jumpi\n      tag_155\n      tag_71\n      jump\t// in\n    tag_155:\n    tag_154:\n      swap1\n      0x00\n      mstore\n      keccak256(0x00, 0x20)\n      swap1\n      0x03\n      mul\n      add\n        /* \"src/libs/shop.sol\":5186:5199  Users[i].role */\n      0x01\n      add\n        /* \"src/libs/shop.sol\":5186:5203  Users[i].role = 1 */\n      dup2\n      swap1\n      sstore\n      pop\n        /* \"src/libs/shop.sol\":5073:5223  if (Users[i].role == 1) {\r... */\n    tag_153:\n        /* \"src/libs/shop.sol\":5002:5238  if (Users[i].user == Requests[idRequest].requester) {\r... */\n    tag_145:\n        /* \"src/libs/shop.sol\":4982:4985  i++ */\n      dup1\n      dup1\n      tag_157\n      swap1\n      tag_116\n      jump\t// in\n    tag_157:\n      swap2\n      pop\n      pop\n        /* \"src/libs/shop.sol\":4944:5249  for (uint256 i = 0; i < Users.length; i++) {\r... */\n      jump(tag_136)\n    tag_137:\n      pop\n        /* \"src/libs/shop.sol\":1575:1576  _ */\n      pop\n        /* \"src/libs/shop.sol\":1258:1584  {\r... */\n      pop\n        /* \"src/libs/shop.sol\":4817:5256  function upToSeller(uint256 idRequest)\r... */\n      pop\n      pop\n      jump\t// out\n        /* \"src/libs/shop.sol\":5647:5958  function addShop(address newShop, string memory city)\r... */\n    tag_31:\n        /* \"src/libs/shop.sol\":5732:5742  msg.sender */\n      caller\n        /* \"src/libs/shop.sol\":1269:1285  bool isRegistred */\n      0x00\n        /* \"src/libs/shop.sol\":1309:1318  uint256 i */\n      dup1\n        /* \"src/libs/shop.sol\":1304:1481  for (uint256 i = 0; i < Users.length; i++) {\r... */\n    tag_159:\n        /* \"src/libs/shop.sol\":1328:1333  Users */\n      0x01\n        /* \"src/libs/shop.sol\":1328:1340  Users.length */\n      dup1\n      sload\n      swap1\n      pop\n        /* \"src/libs/shop.sol\":1324:1325  i */\n      dup2\n        /* \"src/libs/shop.sol\":1324:1340  i < Users.length */\n      lt\n        /* \"src/libs/shop.sol\":1304:1481  for (uint256 i = 0; i < Users.length; i++) {\r... */\n      iszero\n      tag_160\n      jumpi\n        /* \"src/libs/shop.sol\":1383:1391  someUser */\n      dup3\n        /* \"src/libs/shop.sol\":1366:1391  Users[i].user == someUser */\n      0xffffffffffffffffffffffffffffffffffffffff\n      and\n        /* \"src/libs/shop.sol\":1366:1371  Users */\n      0x01\n        /* \"src/libs/shop.sol\":1372:1373  i */\n      dup3\n        /* \"src/libs/shop.sol\":1366:1374  Users[i] */\n      dup2\n      sload\n      dup2\n      lt\n      tag_162\n      jumpi\n      tag_163\n      tag_71\n      jump\t// in\n    tag_163:\n    tag_162:\n      swap1\n      0x00\n      mstore\n      keccak256(0x00, 0x20)\n      swap1\n      0x03\n      mul\n      add\n        /* \"src/libs/shop.sol\":1366:1379  Users[i].user */\n      0x00\n      add\n      0x00\n      swap1\n      sload\n      swap1\n      0x0100\n      exp\n      swap1\n      div\n      0xffffffffffffffffffffffffffffffffffffffff\n      and\n        /* \"src/libs/shop.sol\":1366:1391  Users[i].user == someUser */\n      0xffffffffffffffffffffffffffffffffffffffff\n      and\n      eq\n        /* \"src/libs/shop.sol\":1362:1470  if (Users[i].user == someUser) {\r... */\n      iszero\n      tag_165\n      jumpi\n        /* \"src/libs/shop.sol\":1426:1430  true */\n      0x01\n        /* \"src/libs/shop.sol\":1412:1430  isRegistred = true */\n      swap2\n      pop\n        /* \"src/libs/shop.sol\":1449:1454  break */\n      jump(tag_160)\n        /* \"src/libs/shop.sol\":1362:1470  if (Users[i].user == someUser) {\r... */\n    tag_165:\n        /* \"src/libs/shop.sol\":1342:1345  i++ */\n      dup1\n      dup1\n      tag_166\n      swap1\n      tag_116\n      jump\t// in\n    tag_166:\n      swap2\n      pop\n      pop\n        /* \"src/libs/shop.sol\":1304:1481  for (uint256 i = 0; i < Users.length; i++) {\r... */\n      jump(tag_159)\n    tag_160:\n      pop\n        /* \"src/libs/shop.sol\":1500:1511  isRegistred */\n      dup1\n        /* \"src/libs/shop.sol\":1499:1511  !isRegistred */\n      iszero\n        /* \"src/libs/shop.sol\":1491:1519  require(!isRegistred, \"200\") */\n      tag_167\n      jumpi\n      mload(0x40)\n      0x08c379a000000000000000000000000000000000000000000000000000000000\n      dup2\n      mstore\n      0x04\n      add\n      tag_168\n      swap1\n      tag_119\n      jump\t// in\n    tag_168:\n      mload(0x40)\n      dup1\n      swap2\n      sub\n      swap1\n      revert\n    tag_167:\n        /* \"src/libs/shop.sol\":5761:5771  msg.sender */\n      caller\n        /* \"src/libs/shop.sol\":2198:2207  uint256 i */\n      0x00\n        /* \"src/libs/shop.sol\":2193:2467  for (uint256 i = 0; i < Users.length; i++) {\r... */\n    tag_170:\n        /* \"src/libs/shop.sol\":2217:2222  Users */\n      0x01\n        /* \"src/libs/shop.sol\":2217:2229  Users.length */\n      dup1\n      sload\n      swap1\n      pop\n        /* \"src/libs/shop.sol\":2213:2214  i */\n      dup2\n        /* \"src/libs/shop.sol\":2213:2229  i < Users.length */\n      lt\n        /* \"src/libs/shop.sol\":2193:2467  for (uint256 i = 0; i < Users.length; i++) {\r... */\n      iszero\n      tag_171\n      jumpi\n        /* \"src/libs/shop.sol\":2272:2279  newUser */\n      dup2\n        /* \"src/libs/shop.sol\":2255:2279  Users[i].user == newUser */\n      0xffffffffffffffffffffffffffffffffffffffff\n      and\n        /* \"src/libs/shop.sol\":2255:2260  Users */\n      0x01\n        /* \"src/libs/shop.sol\":2261:2262  i */\n      dup3\n        /* \"src/libs/shop.sol\":2255:2263  Users[i] */\n      dup2\n      sload\n      dup2\n      lt\n      tag_173\n      jumpi\n      tag_174\n      tag_71\n      jump\t// in\n    tag_174:\n    tag_173:\n      swap1\n      0x00\n      mstore\n      keccak256(0x00, 0x20)\n      swap1\n      0x03\n      mul\n      add\n        /* \"src/libs/shop.sol\":2255:2268  Users[i].user */\n      0x00\n      add\n      0x00\n      swap1\n      sload\n      swap1\n      0x0100\n      exp\n      swap1\n      div\n      0xffffffffffffffffffffffffffffffffffffffff\n      and\n        /* \"src/libs/shop.sol\":2255:2279  Users[i].user == newUser */\n      0xffffffffffffffffffffffffffffffffffffffff\n      and\n      eq\n        /* \"src/libs/shop.sol\":2251:2456  if (Users[i].user == newUser) {\r... */\n      iszero\n      tag_176\n      jumpi\n        /* \"src/libs/shop.sol\":2328:2329  0 */\n      0x00\n        /* \"src/libs/shop.sol\":2308:2313  Users */\n      0x01\n        /* \"src/libs/shop.sol\":2314:2315  i */\n      dup3\n        /* \"src/libs/shop.sol\":2308:2316  Users[i] */\n      dup2\n      sload\n      dup2\n      lt\n      tag_177\n      jumpi\n      tag_178\n      tag_71\n      jump\t// in\n    tag_178:\n    tag_177:\n      swap1\n      0x00\n      mstore\n      keccak256(0x00, 0x20)\n      swap1\n      0x03\n      mul\n      add\n        /* \"src/libs/shop.sol\":2308:2324  Users[i].nowRole */\n      0x02\n      add\n      sload\n        /* \"src/libs/shop.sol\":2308:2329  Users[i].nowRole == 0 */\n      eq\n        /* \"src/libs/shop.sol\":2300:2337  require(Users[i].nowRole == 0, \"100\") */\n      tag_180\n      jumpi\n      mload(0x40)\n      0x08c379a000000000000000000000000000000000000000000000000000000000\n      dup2\n      mstore\n      0x04\n      add\n      tag_181\n      swap1\n      tag_133\n      jump\t// in\n    tag_181:\n      mload(0x40)\n      dup1\n      swap2\n      sub\n      swap1\n      revert\n    tag_180:\n        /* \"src/libs/shop.sol\":2435:2440  break */\n      jump(tag_171)\n        /* \"src/libs/shop.sol\":2251:2456  if (Users[i].user == newUser) {\r... */\n    tag_176:\n        /* \"src/libs/shop.sol\":2231:2234  i++ */\n      dup1\n      dup1\n      tag_182\n      swap1\n      tag_116\n      jump\t// in\n    tag_182:\n      swap2\n      pop\n      pop\n        /* \"src/libs/shop.sol\":2193:2467  for (uint256 i = 0; i < Users.length; i++) {\r... */\n      jump(tag_170)\n    tag_171:\n      pop\n        /* \"src/libs/shop.sol\":5790:5797  newShop */\n      dup5\n        /* \"src/libs/shop.sol\":1642:1651  uint256 i */\n      0x00\n        /* \"src/libs/shop.sol\":1637:1794  for (uint256 i = 0; i < Users.length; i++) {\r... */\n    tag_184:\n        /* \"src/libs/shop.sol\":1661:1666  Users */\n      0x01\n        /* \"src/libs/shop.sol\":1661:1673  Users.length */\n      dup1\n      sload\n      swap1\n      pop\n        /* \"src/libs/shop.sol\":1657:1658  i */\n      dup2\n        /* \"src/libs/shop.sol\":1657:1673  i < Users.length */\n      lt\n        /* \"src/libs/shop.sol\":1637:1794  for (uint256 i = 0; i < Users.length; i++) {\r... */\n      iszero\n      tag_185\n      jumpi\n        /* \"src/libs/shop.sol\":1720:1727  newUser */\n      dup2\n        /* \"src/libs/shop.sol\":1703:1727  Users[i].user != newUser */\n      0xffffffffffffffffffffffffffffffffffffffff\n      and\n        /* \"src/libs/shop.sol\":1703:1708  Users */\n      0x01\n        /* \"src/libs/shop.sol\":1709:1710  i */\n      dup3\n        /* \"src/libs/shop.sol\":1703:1711  Users[i] */\n      dup2\n      sload\n      dup2\n      lt\n      tag_187\n      jumpi\n      tag_188\n      tag_71\n      jump\t// in\n    tag_188:\n    tag_187:\n      swap1\n      0x00\n      mstore\n      keccak256(0x00, 0x20)\n      swap1\n      0x03\n      mul\n      add\n        /* \"src/libs/shop.sol\":1703:1716  Users[i].user */\n      0x00\n      add\n      0x00\n      swap1\n      sload\n      swap1\n      0x0100\n      exp\n      swap1\n      div\n      0xffffffffffffffffffffffffffffffffffffffff\n      and\n        /* \"src/libs/shop.sol\":1703:1727  Users[i].user != newUser */\n      0xffffffffffffffffffffffffffffffffffffffff\n      and\n      eq\n      iszero\n        /* \"src/libs/shop.sol\":1695:1735  require(Users[i].user != newUser, \"201\") */\n      tag_190\n      jumpi\n      mload(0x40)\n      0x08c379a000000000000000000000000000000000000000000000000000000000\n      dup2\n      mstore\n      0x04\n      add\n      tag_191\n      swap1\n      tag_192\n      jump\t// in\n    tag_191:\n      mload(0x40)\n      dup1\n      swap2\n      sub\n      swap1\n      revert\n    tag_190:\n        /* \"src/libs/shop.sol\":1675:1678  i++ */\n      dup1\n      dup1\n      tag_193\n      swap1\n      tag_116\n      jump\t// in\n    tag_193:\n      swap2\n      pop\n      pop\n        /* \"src/libs/shop.sol\":1637:1794  for (uint256 i = 0; i < Users.length; i++) {\r... */\n      jump(tag_184)\n    tag_185:\n      pop\n        /* \"src/libs/shop.sol\":5821:5828  newShop */\n      dup6\n        /* \"src/libs/shop.sol\":1876:1885  uint256 i */\n      0x00\n        /* \"src/libs/shop.sol\":1871:1992  for (uint256 i = 0; i < Users.length; i++) {\r... */\n    tag_195:\n        /* \"src/libs/shop.sol\":1895:1900  Users */\n      0x01\n        /* \"src/libs/shop.sol\":1895:1907  Users.length */\n      dup1\n      sload\n      swap1\n      pop\n        /* \"src/libs/shop.sol\":1891:1892  i */\n      dup2\n        /* \"src/libs/shop.sol\":1891:1907  i < Users.length */\n      lt\n        /* \"src/libs/shop.sol\":1871:1992  for (uint256 i = 0; i < Users.length; i++) {\r... */\n      iszero\n      tag_196\n      jumpi\n        /* \"src/libs/shop.sol\":1954:1961  newShop */\n      dup2\n        /* \"src/libs/shop.sol\":1937:1961  Users[i].user != newShop */\n      0xffffffffffffffffffffffffffffffffffffffff\n      and\n        /* \"src/libs/shop.sol\":1937:1942  Users */\n      0x01\n        /* \"src/libs/shop.sol\":1943:1944  i */\n      dup3\n        /* \"src/libs/shop.sol\":1937:1945  Users[i] */\n      dup2\n      sload\n      dup2\n      lt\n      tag_198\n      jumpi\n      tag_199\n      tag_71\n      jump\t// in\n    tag_199:\n    tag_198:\n      swap1\n      0x00\n      mstore\n      keccak256(0x00, 0x20)\n      swap1\n      0x03\n      mul\n      add\n        /* \"src/libs/shop.sol\":1937:1950  Users[i].user */\n      0x00\n      add\n      0x00\n      swap1\n      sload\n      swap1\n      0x0100\n      exp\n      swap1\n      div\n      0xffffffffffffffffffffffffffffffffffffffff\n      and\n        /* \"src/libs/shop.sol\":1937:1961  Users[i].user != newShop */\n      0xffffffffffffffffffffffffffffffffffffffff\n      and\n      eq\n      iszero\n        /* \"src/libs/shop.sol\":1929:1980  require(Users[i].user != newShop, \"It isn't shop!\") */\n      tag_201\n      jumpi\n      mload(0x40)\n      0x08c379a000000000000000000000000000000000000000000000000000000000\n      dup2\n      mstore\n      0x04\n      add\n      tag_202\n      swap1\n      tag_203\n      jump\t// in\n    tag_202:\n      mload(0x40)\n      dup1\n      swap2\n      sub\n      swap1\n      revert\n    tag_201:\n        /* \"src/libs/shop.sol\":1909:1912  i++ */\n      dup1\n      dup1\n      tag_204\n      swap1\n      tag_116\n      jump\t// in\n    tag_204:\n      swap2\n      pop\n      pop\n        /* \"src/libs/shop.sol\":1871:1992  for (uint256 i = 0; i < Users.length; i++) {\r... */\n      jump(tag_195)\n    tag_196:\n      pop\n        /* \"src/libs/shop.sol\":2007:2016  uint256 i */\n      0x00\n        /* \"src/libs/shop.sol\":2002:2121  for (uint256 i = 0; i < Shops.length; i++) {\r... */\n    tag_205:\n        /* \"src/libs/shop.sol\":2026:2031  Shops */\n      0x00\n        /* \"src/libs/shop.sol\":2026:2038  Shops.length */\n      dup1\n      sload\n      swap1\n      pop\n        /* \"src/libs/shop.sol\":2022:2023  i */\n      dup2\n        /* \"src/libs/shop.sol\":2022:2038  i < Shops.length */\n      lt\n        /* \"src/libs/shop.sol\":2002:2121  for (uint256 i = 0; i < Shops.length; i++) {\r... */\n      iszero\n      tag_206\n      jumpi\n        /* \"src/libs/shop.sol\":2085:2092  newShop */\n      dup2\n        /* \"src/libs/shop.sol\":2068:2092  Shops[i].shop != newShop */\n      0xffffffffffffffffffffffffffffffffffffffff\n      and\n        /* \"src/libs/shop.sol\":2068:2073  Shops */\n      0x00\n        /* \"src/libs/shop.sol\":2074:2075  i */\n      dup3\n        /* \"src/libs/shop.sol\":2068:2076  Shops[i] */\n      dup2\n      sload\n      dup2\n      lt\n      tag_208\n      jumpi\n      tag_209\n      tag_71\n      jump\t// in\n    tag_209:\n    tag_208:\n      swap1\n      0x00\n      mstore\n      keccak256(0x00, 0x20)\n      swap1\n      0x04\n      mul\n      add\n        /* \"src/libs/shop.sol\":2068:2081  Shops[i].shop */\n      0x00\n      add\n      0x00\n      swap1\n      sload\n      swap1\n      0x0100\n      exp\n      swap1\n      div\n      0xffffffffffffffffffffffffffffffffffffffff\n      and\n        /* \"src/libs/shop.sol\":2068:2092  Shops[i].shop != newShop */\n      0xffffffffffffffffffffffffffffffffffffffff\n      and\n      eq\n      iszero\n        /* \"src/libs/shop.sol\":2060:2109  require(Shops[i].shop != newShop, \"Shop exists!\") */\n      tag_211\n      jumpi\n      mload(0x40)\n      0x08c379a000000000000000000000000000000000000000000000000000000000\n      dup2\n      mstore\n      0x04\n      add\n      tag_212\n      swap1\n      tag_213\n      jump\t// in\n    tag_212:\n      mload(0x40)\n      dup1\n      swap2\n      sub\n      swap1\n      revert\n    tag_211:\n        /* \"src/libs/shop.sol\":2040:2043  i++ */\n      dup1\n      dup1\n      tag_214\n      swap1\n      tag_116\n      jump\t// in\n    tag_214:\n      swap2\n      pop\n      pop\n        /* \"src/libs/shop.sol\":2002:2121  for (uint256 i = 0; i < Shops.length; i++) {\r... */\n      jump(tag_205)\n    tag_206:\n      pop\n        /* \"src/libs/shop.sol\":5846:5868  shop storage localShop */\n      0x00\n        /* \"src/libs/shop.sol\":5871:5876  Shops */\n      dup1\n        /* \"src/libs/shop.sol\":5871:5883  Shops.push() */\n      0x01\n      dup2\n      0x01\n      dup2\n      sload\n      add\n      dup1\n      dup3\n      sstore\n      dup1\n      swap2\n      pop\n      pop\n      sub\n      swap1\n      0x00\n      mstore\n      keccak256(0x00, 0x20)\n      swap1\n      0x04\n      mul\n      add\n        /* \"src/libs/shop.sol\":5846:5883  shop storage localShop = Shops.push() */\n      swap1\n      pop\n        /* \"src/libs/shop.sol\":5911:5918  newShop */\n      dup8\n        /* \"src/libs/shop.sol\":5894:5903  localShop */\n      dup2\n        /* \"src/libs/shop.sol\":5894:5908  localShop.shop */\n      0x00\n      add\n      0x00\n        /* \"src/libs/shop.sol\":5894:5918  localShop.shop = newShop */\n      0x0100\n      exp\n      dup2\n      sload\n      dup2\n      0xffffffffffffffffffffffffffffffffffffffff\n      mul\n      not\n      and\n      swap1\n      dup4\n      0xffffffffffffffffffffffffffffffffffffffff\n      and\n      mul\n      or\n      swap1\n      sstore\n      pop\n        /* \"src/libs/shop.sol\":5946:5950  city */\n      dup7\n        /* \"src/libs/shop.sol\":5929:5938  localShop */\n      dup2\n        /* \"src/libs/shop.sol\":5929:5943  localShop.city */\n      0x01\n      add\n        /* \"src/libs/shop.sol\":5929:5950  localShop.city = city */\n      swap1\n      dup1\n      mload\n      swap1\n      0x20\n      add\n      swap1\n      tag_217\n      swap3\n      swap2\n      swap1\n      tag_106\n      jump\t// in\n    tag_217:\n      pop\n        /* \"src/libs/shop.sol\":5835:5958  {\r... */\n      pop\n        /* \"src/libs/shop.sol\":1804:1805  _ */\n      pop\n        /* \"src/libs/shop.sol\":2477:2478  _ */\n      pop\n        /* \"src/libs/shop.sol\":1575:1576  _ */\n      pop\n        /* \"src/libs/shop.sol\":1258:1584  {\r... */\n      pop\n        /* \"src/libs/shop.sol\":5647:5958  function addShop(address newShop, string memory city)\r... */\n      pop\n      pop\n      pop\n      jump\t// out\n        /* \"src/libs/shop.sol\":7494:7585  function view_Shops() public view returns (shop[] memory) {\r... */\n    tag_33:\n        /* \"src/libs/shop.sol\":7537:7550  shop[] memory */\n      0x60\n        /* \"src/libs/shop.sol\":7571:7576  Shops */\n      0x00\n        /* \"src/libs/shop.sol\":7563:7577  return (Shops) */\n      dup1\n      sload\n      dup1\n      0x20\n      mul\n      0x20\n      add\n      mload(0x40)\n      swap1\n      dup2\n      add\n      0x40\n      mstore\n      dup1\n      swap3\n      swap2\n      swap1\n      dup2\n      dup2\n      mstore\n      0x20\n      add\n      0x00\n      swap1\n    tag_219:\n      dup3\n      dup3\n      lt\n      iszero\n      tag_220\n      jumpi\n      dup4\n      dup3\n      swap1\n      0x00\n      mstore\n      keccak256(0x00, 0x20)\n      swap1\n      0x04\n      mul\n      add\n      mload(0x40)\n      dup1\n      0x80\n      add\n      0x40\n      mstore\n      swap1\n      dup2\n      0x00\n      dup3\n      add\n      0x00\n      swap1\n      sload\n      swap1\n      0x0100\n      exp\n      swap1\n      div\n      0xffffffffffffffffffffffffffffffffffffffff\n      and\n      0xffffffffffffffffffffffffffffffffffffffff\n      and\n      0xffffffffffffffffffffffffffffffffffffffff\n      and\n      dup2\n      mstore\n      0x20\n      add\n      0x01\n      dup3\n      add\n      dup1\n      sload\n      tag_222\n      swap1\n      tag_223\n      jump\t// in\n    tag_222:\n      dup1\n      0x1f\n      add\n      0x20\n      dup1\n      swap2\n      div\n      mul\n      0x20\n      add\n      mload(0x40)\n      swap1\n      dup2\n      add\n      0x40\n      mstore\n      dup1\n      swap3\n      swap2\n      swap1\n      dup2\n      dup2\n      mstore\n      0x20\n      add\n      dup3\n      dup1\n      sload\n      tag_224\n      swap1\n      tag_223\n      jump\t// in\n    tag_224:\n      dup1\n      iszero\n      tag_225\n      jumpi\n      dup1\n      0x1f\n      lt\n      tag_226\n      jumpi\n      0x0100\n      dup1\n      dup4\n      sload\n      div\n      mul\n      dup4\n      mstore\n      swap2\n      0x20\n      add\n      swap2\n      jump(tag_225)\n    tag_226:\n      dup3\n      add\n      swap2\n      swap1\n      0x00\n      mstore\n      keccak256(0x00, 0x20)\n      swap1\n    tag_227:\n      dup2\n      sload\n      dup2\n      mstore\n      swap1\n      0x01\n      add\n      swap1\n      0x20\n      add\n      dup1\n      dup4\n      gt\n      tag_227\n      jumpi\n      dup3\n      swap1\n      sub\n      0x1f\n      and\n      dup3\n      add\n      swap2\n    tag_225:\n      pop\n      pop\n      pop\n      pop\n      pop\n      dup2\n      mstore\n      0x20\n      add\n      0x02\n      dup3\n      add\n      dup1\n      sload\n      dup1\n      0x20\n      mul\n      0x20\n      add\n      mload(0x40)\n      swap1\n      dup2\n      add\n      0x40\n      mstore\n      dup1\n      swap3\n      swap2\n      swap1\n      dup2\n      dup2\n      mstore\n      0x20\n      add\n      0x00\n      swap1\n    tag_228:\n      dup3\n      dup3\n      lt\n      iszero\n      tag_229\n      jumpi\n      dup4\n      dup3\n      swap1\n      0x00\n      mstore\n      keccak256(0x00, 0x20)\n      swap1\n      0x05\n      mul\n      add\n      mload(0x40)\n      dup1\n      0xa0\n      add\n      0x40\n      mstore\n      swap1\n      dup2\n      0x00\n      dup3\n      add\n      0x00\n      swap1\n      sload\n      swap1\n      0x0100\n      exp\n      swap1\n      div\n      0xffffffffffffffffffffffffffffffffffffffff\n      and\n      0xffffffffffffffffffffffffffffffffffffffff\n      and\n      0xffffffffffffffffffffffffffffffffffffffff\n      and\n      dup2\n      mstore\n      0x20\n      add\n      0x01\n      dup3\n      add\n      sload\n      dup2\n      mstore\n      0x20\n      add\n      0x02\n      dup3\n      add\n      dup1\n      sload\n      dup1\n      0x20\n      mul\n      0x20\n      add\n      mload(0x40)\n      swap1\n      dup2\n      add\n      0x40\n      mstore\n      dup1\n      swap3\n      swap2\n      swap1\n      dup2\n      dup2\n      mstore\n      0x20\n      add\n      0x00\n      swap1\n    tag_231:\n      dup3\n      dup3\n      lt\n      iszero\n      tag_232\n      jumpi\n      dup4\n      dup3\n      swap1\n      0x00\n      mstore\n      keccak256(0x00, 0x20)\n      add\n      mload(0x40)\n      dup1\n      0x40\n      add\n      0x40\n      mstore\n      swap1\n      dup2\n      0x00\n      dup3\n      add\n      0x00\n      swap1\n      sload\n      swap1\n      0x0100\n      exp\n      swap1\n      div\n      0xffffffffffffffffffffffffffffffffffffffff\n      and\n      0xffffffffffffffffffffffffffffffffffffffff\n      and\n      0xffffffffffffffffffffffffffffffffffffffff\n      and\n      dup2\n      mstore\n      0x20\n      add\n      0x00\n      dup3\n      add\n      0x14\n      swap1\n      sload\n      swap1\n      0x0100\n      exp\n      swap1\n      div\n      0xff\n      and\n      iszero\n      iszero\n      iszero\n      iszero\n      dup2\n      mstore\n      pop\n      pop\n      dup2\n      mstore\n      0x20\n      add\n      swap1\n      0x01\n      add\n      swap1\n      jump(tag_231)\n    tag_232:\n      pop\n      pop\n      pop\n      pop\n      dup2\n      mstore\n      0x20\n      add\n      0x03\n      dup3\n      add\n      dup1\n      sload\n      dup1\n      0x20\n      mul\n      0x20\n      add\n      mload(0x40)\n      swap1\n      dup2\n      add\n      0x40\n      mstore\n      dup1\n      swap3\n      swap2\n      swap1\n      dup2\n      dup2\n      mstore\n      0x20\n      add\n      0x00\n      swap1\n    tag_234:\n      dup3\n      dup3\n      lt\n      iszero\n      tag_235\n      jumpi\n      dup4\n      dup3\n      swap1\n      0x00\n      mstore\n      keccak256(0x00, 0x20)\n      swap1\n      0x03\n      mul\n      add\n      mload(0x40)\n      dup1\n      0x60\n      add\n      0x40\n      mstore\n      swap1\n      dup2\n      0x00\n      dup3\n      add\n      0x00\n      swap1\n      sload\n      swap1\n      0x0100\n      exp\n      swap1\n      div\n      0xffffffffffffffffffffffffffffffffffffffff\n      and\n      0xffffffffffffffffffffffffffffffffffffffff\n      and\n      0xffffffffffffffffffffffffffffffffffffffff\n      and\n      dup2\n      mstore\n      0x20\n      add\n      0x01\n      dup3\n      add\n      dup1\n      sload\n      dup1\n      0x20\n      mul\n      0x20\n      add\n      mload(0x40)\n      swap1\n      dup2\n      add\n      0x40\n      mstore\n      dup1\n      swap3\n      swap2\n      swap1\n      dup2\n      dup2\n      mstore\n      0x20\n      add\n      0x00\n      swap1\n    tag_237:\n      dup3\n      dup3\n      lt\n      iszero\n      tag_238\n      jumpi\n      dup4\n      dup3\n      swap1\n      0x00\n      mstore\n      keccak256(0x00, 0x20)\n      add\n      mload(0x40)\n      dup1\n      0x40\n      add\n      0x40\n      mstore\n      swap1\n      dup2\n      0x00\n      dup3\n      add\n      0x00\n      swap1\n      sload\n      swap1\n      0x0100\n      exp\n      swap1\n      div\n      0xffffffffffffffffffffffffffffffffffffffff\n      and\n      0xffffffffffffffffffffffffffffffffffffffff\n      and\n      0xffffffffffffffffffffffffffffffffffffffff\n      and\n      dup2\n      mstore\n      0x20\n      add\n      0x00\n      dup3\n      add\n      0x14\n      swap1\n      sload\n      swap1\n      0x0100\n      exp\n      swap1\n      div\n      0xff\n      and\n      iszero\n      iszero\n      iszero\n      iszero\n      dup2\n      mstore\n      pop\n      pop\n      dup2\n      mstore\n      0x20\n      add\n      swap1\n      0x01\n      add\n      swap1\n      jump(tag_237)\n    tag_238:\n      pop\n      pop\n      pop\n      pop\n      dup2\n      mstore\n      0x20\n      add\n      0x02\n      dup3\n      add\n      dup1\n      sload\n      tag_240\n      swap1\n      tag_223\n      jump\t// in\n    tag_240:\n      dup1\n      0x1f\n      add\n      0x20\n      dup1\n      swap2\n      div\n      mul\n      0x20\n      add\n      mload(0x40)\n      swap1\n      dup2\n      add\n      0x40\n      mstore\n      dup1\n      swap3\n      swap2\n      swap1\n      dup2\n      dup2\n      mstore\n      0x20\n      add\n      dup3\n      dup1\n      sload\n      tag_241\n      swap1\n      tag_223\n      jump\t// in\n    tag_241:\n      dup1\n      iszero\n      tag_242\n      jumpi\n      dup1\n      0x1f\n      lt\n      tag_243\n      jumpi\n      0x0100\n      dup1\n      dup4\n      sload\n      div\n      mul\n      dup4\n      mstore\n      swap2\n      0x20\n      add\n      swap2\n      jump(tag_242)\n    tag_243:\n      dup3\n      add\n      swap2\n      swap1\n      0x00\n      mstore\n      keccak256(0x00, 0x20)\n      swap1\n    tag_244:\n      dup2\n      sload\n      dup2\n      mstore\n      swap1\n      0x01\n      add\n      swap1\n      0x20\n      add\n      dup1\n      dup4\n      gt\n      tag_244\n      jumpi\n      dup3\n      swap1\n      sub\n      0x1f\n      and\n      dup3\n      add\n      swap2\n    tag_242:\n      pop\n      pop\n      pop\n      pop\n      pop\n      dup2\n      mstore\n      pop\n      pop\n      dup2\n      mstore\n      0x20\n      add\n      swap1\n      0x01\n      add\n      swap1\n      jump(tag_234)\n    tag_235:\n      pop\n      pop\n      pop\n      pop\n      dup2\n      mstore\n      0x20\n      add\n      0x04\n      dup3\n      add\n      dup1\n      sload\n      tag_245\n      swap1\n      tag_223\n      jump\t// in\n    tag_245:\n      dup1\n      0x1f\n      add\n      0x20\n      dup1\n      swap2\n      div\n      mul\n      0x20\n      add\n      mload(0x40)\n      swap1\n      dup2\n      add\n      0x40\n      mstore\n      dup1\n      swap3\n      swap2\n      swap1\n      dup2\n      dup2\n      mstore\n      0x20\n      add\n      dup3\n      dup1\n      sload\n      tag_246\n      swap1\n      tag_223\n      jump\t// in\n    tag_246:\n      dup1\n      iszero\n      tag_247\n      jumpi\n      dup1\n      0x1f\n      lt\n      tag_248\n      jumpi\n      0x0100\n      dup1\n      dup4\n      sload\n      div\n      mul\n      dup4\n      mstore\n      swap2\n      0x20\n      add\n      swap2\n      jump(tag_247)\n    tag_248:\n      dup3\n      add\n      swap2\n      swap1\n      0x00\n      mstore\n      keccak256(0x00, 0x20)\n      swap1\n    tag_249:\n      dup2\n      sload\n      dup2\n      mstore\n      swap1\n      0x01\n      add\n      swap1\n      0x20\n      add\n      dup1\n      dup4\n      gt\n      tag_249\n      jumpi\n      dup3\n      swap1\n      sub\n      0x1f\n      and\n      dup3\n      add\n      swap2\n    tag_247:\n      pop\n      pop\n      pop\n      pop\n      pop\n      dup2\n      mstore\n      pop\n      pop\n      dup2\n      mstore\n      0x20\n      add\n      swap1\n      0x01\n      add\n      swap1\n      jump(tag_228)\n    tag_229:\n      pop\n      pop\n      pop\n      pop\n      dup2\n      mstore\n      0x20\n      add\n      0x03\n      dup3\n      add\n      dup1\n      sload\n      dup1\n      0x20\n      mul\n      0x20\n      add\n      mload(0x40)\n      swap1\n      dup2\n      add\n      0x40\n      mstore\n      dup1\n      swap3\n      swap2\n      swap1\n      dup2\n      dup2\n      mstore\n      0x20\n      add\n      dup3\n      dup1\n      sload\n      dup1\n      iszero\n      tag_250\n      jumpi\n      0x20\n      mul\n      dup3\n      add\n      swap2\n      swap1\n      0x00\n      mstore\n      keccak256(0x00, 0x20)\n      swap1\n    tag_251:\n      dup2\n      sload\n      dup2\n      mstore\n      0x20\n      add\n      swap1\n      0x01\n      add\n      swap1\n      dup1\n      dup4\n      gt\n      tag_251\n      jumpi\n    tag_250:\n      pop\n      pop\n      pop\n      pop\n      pop\n      dup2\n      mstore\n      pop\n      pop\n      dup2\n      mstore\n      0x20\n      add\n      swap1\n      0x01\n      add\n      swap1\n      jump(tag_219)\n    tag_220:\n      pop\n      pop\n      pop\n      pop\n      swap1\n      pop\n        /* \"src/libs/shop.sol\":7494:7585  function view_Shops() public view returns (shop[] memory) {\r... */\n      swap1\n      jump\t// out\n        /* \"src/libs/shop.sol\":7692:7792  function view_Requests() public view returns (request[] memory) {\r... */\n    tag_37:\n        /* \"src/libs/shop.sol\":7738:7754  request[] memory */\n      0x60\n        /* \"src/libs/shop.sol\":7775:7783  Requests */\n      0x02\n        /* \"src/libs/shop.sol\":7767:7784  return (Requests) */\n      dup1\n      sload\n      dup1\n      0x20\n      mul\n      0x20\n      add\n      mload(0x40)\n      swap1\n      dup2\n      add\n      0x40\n      mstore\n      dup1\n      swap3\n      swap2\n      swap1\n      dup2\n      dup2\n      mstore\n      0x20\n      add\n      0x00\n      swap1\n    tag_253:\n      dup3\n      dup3\n      lt\n      iszero\n      tag_254\n      jumpi\n      dup4\n      dup3\n      swap1\n      0x00\n      mstore\n      keccak256(0x00, 0x20)\n      add\n      mload(0x40)\n      dup1\n      0x40\n      add\n      0x40\n      mstore\n      swap1\n      dup2\n      0x00\n      dup3\n      add\n      0x00\n      swap1\n      sload\n      swap1\n      0x0100\n      exp\n      swap1\n      div\n      0xffffffffffffffffffffffffffffffffffffffff\n      and\n      0xffffffffffffffffffffffffffffffffffffffff\n      and\n      0xffffffffffffffffffffffffffffffffffffffff\n      and\n      dup2\n      mstore\n      0x20\n      add\n      0x00\n      dup3\n      add\n      0x14\n      swap1\n      sload\n      swap1\n      0x0100\n      exp\n      swap1\n      div\n      0xff\n      and\n      iszero\n      iszero\n      iszero\n      iszero\n      dup2\n      mstore\n      pop\n      pop\n      dup2\n      mstore\n      0x20\n      add\n      swap1\n      0x01\n      add\n      swap1\n      jump(tag_253)\n    tag_254:\n      pop\n      pop\n      pop\n      pop\n      swap1\n      pop\n        /* \"src/libs/shop.sol\":7692:7792  function view_Requests() public view returns (request[] memory) {\r... */\n      swap1\n      jump\t// out\n        /* \"src/libs/shop.sol\":3803:4223  function globalSwitchRequest() public {\r... */\n    tag_41:\n        /* \"src/libs/shop.sol\":3857:3866  uint256 i */\n      0x00\n        /* \"src/libs/shop.sol\":3852:4216  for (uint256 i = 0; i < Users.length; i++) {\r... */\n    tag_257:\n        /* \"src/libs/shop.sol\":3876:3881  Users */\n      0x01\n        /* \"src/libs/shop.sol\":3876:3888  Users.length */\n      dup1\n      sload\n      swap1\n      pop\n        /* \"src/libs/shop.sol\":3872:3873  i */\n      dup2\n        /* \"src/libs/shop.sol\":3872:3888  i < Users.length */\n      lt\n        /* \"src/libs/shop.sol\":3852:4216  for (uint256 i = 0; i < Users.length; i++) {\r... */\n      iszero\n      tag_258\n      jumpi\n        /* \"src/libs/shop.sol\":3935:3936  0 */\n      0x00\n        /* \"src/libs/shop.sol\":3918:3923  Users */\n      0x01\n        /* \"src/libs/shop.sol\":3924:3925  i */\n      dup3\n        /* \"src/libs/shop.sol\":3918:3926  Users[i] */\n      dup2\n      sload\n      dup2\n      lt\n      tag_260\n      jumpi\n      tag_261\n      tag_71\n      jump\t// in\n    tag_261:\n    tag_260:\n      swap1\n      0x00\n      mstore\n      keccak256(0x00, 0x20)\n      swap1\n      0x03\n      mul\n      add\n        /* \"src/libs/shop.sol\":3918:3931  Users[i].role */\n      0x01\n      add\n      sload\n        /* \"src/libs/shop.sol\":3918:3936  Users[i].role != 0 */\n      eq\n      iszero\n        /* \"src/libs/shop.sol\":3910:3944  require(Users[i].role != 0, \"104\") */\n      tag_263\n      jumpi\n      mload(0x40)\n      0x08c379a000000000000000000000000000000000000000000000000000000000\n      dup2\n      mstore\n      0x04\n      add\n      tag_264\n      swap1\n      tag_265\n      jump\t// in\n    tag_264:\n      mload(0x40)\n      dup1\n      swap2\n      sub\n      swap1\n      revert\n    tag_263:\n        /* \"src/libs/shop.sol\":4093:4103  msg.sender */\n      caller\n        /* \"src/libs/shop.sol\":4076:4103  Users[i].user == msg.sender */\n      0xffffffffffffffffffffffffffffffffffffffff\n      and\n        /* \"src/libs/shop.sol\":4076:4081  Users */\n      0x01\n        /* \"src/libs/shop.sol\":4082:4083  i */\n      dup3\n        /* \"src/libs/shop.sol\":4076:4084  Users[i] */\n      dup2\n      sload\n      dup2\n      lt\n      tag_266\n      jumpi\n      tag_267\n      tag_71\n      jump\t// in\n    tag_267:\n    tag_266:\n      swap1\n      0x00\n      mstore\n      keccak256(0x00, 0x20)\n      swap1\n      0x03\n      mul\n      add\n        /* \"src/libs/shop.sol\":4076:4089  Users[i].user */\n      0x00\n      add\n      0x00\n      swap1\n      sload\n      swap1\n      0x0100\n      exp\n      swap1\n      div\n      0xffffffffffffffffffffffffffffffffffffffff\n      and\n        /* \"src/libs/shop.sol\":4076:4103  Users[i].user == msg.sender */\n      0xffffffffffffffffffffffffffffffffffffffff\n      and\n      eq\n        /* \"src/libs/shop.sol\":4072:4205  if (Users[i].user == msg.sender) {\r... */\n      iszero\n      tag_269\n      jumpi\n        /* \"src/libs/shop.sol\":4124:4132  Requests */\n      0x02\n        /* \"src/libs/shop.sol\":4138:4164  request(msg.sender, false) */\n      mload(0x40)\n      dup1\n      0x40\n      add\n      0x40\n      mstore\n      dup1\n        /* \"src/libs/shop.sol\":4146:4156  msg.sender */\n      caller\n        /* \"src/libs/shop.sol\":4138:4164  request(msg.sender, false) */\n      0xffffffffffffffffffffffffffffffffffffffff\n      and\n      dup2\n      mstore\n      0x20\n      add\n        /* \"src/libs/shop.sol\":4158:4163  false */\n      0x00\n        /* \"src/libs/shop.sol\":4138:4164  request(msg.sender, false) */\n      iszero\n      iszero\n      dup2\n      mstore\n      pop\n        /* \"src/libs/shop.sol\":4124:4165  Requests.push(request(msg.sender, false)) */\n      swap1\n      dup1\n      0x01\n      dup2\n      sload\n      add\n      dup1\n      dup3\n      sstore\n      dup1\n      swap2\n      pop\n      pop\n      0x01\n      swap1\n      sub\n      swap1\n      0x00\n      mstore\n      keccak256(0x00, 0x20)\n      add\n      0x00\n      swap1\n      swap2\n      swap1\n      swap2\n      swap1\n      swap2\n      pop\n      0x00\n      dup3\n      add\n      mload\n      dup2\n      0x00\n      add\n      exp(0x0100, 0x00)\n      dup2\n      sload\n      dup2\n      0xffffffffffffffffffffffffffffffffffffffff\n      mul\n      not\n      and\n      swap1\n      dup4\n      0xffffffffffffffffffffffffffffffffffffffff\n      and\n      mul\n      or\n      swap1\n      sstore\n      pop\n      0x20\n      dup3\n      add\n      mload\n      dup2\n      0x00\n      add\n      exp(0x0100, 0x14)\n      dup2\n      sload\n      dup2\n      0xff\n      mul\n      not\n      and\n      swap1\n      dup4\n      iszero\n      iszero\n      mul\n      or\n      swap1\n      sstore\n      pop\n      pop\n      pop\n        /* \"src/libs/shop.sol\":4184:4189  break */\n      jump(tag_258)\n        /* \"src/libs/shop.sol\":4072:4205  if (Users[i].user == msg.sender) {\r... */\n    tag_269:\n        /* \"src/libs/shop.sol\":3890:3893  i++ */\n      dup1\n      dup1\n      tag_271\n      swap1\n      tag_116\n      jump\t// in\n    tag_271:\n      swap2\n      pop\n      pop\n        /* \"src/libs/shop.sol\":3852:4216  for (uint256 i = 0; i < Users.length; i++) {\r... */\n      jump(tag_257)\n    tag_258:\n      pop\n        /* \"src/libs/shop.sol\":3803:4223  function globalSwitchRequest() public {\r... */\n      jump\t// out\n        /* \"src/libs/shop.sol\":3100:3199  function regUser() public isntReg(msg.sender) {\r... */\n    tag_43:\n        /* \"src/libs/shop.sol\":3134:3144  msg.sender */\n      caller\n        /* \"src/libs/shop.sol\":1642:1651  uint256 i */\n      0x00\n        /* \"src/libs/shop.sol\":1637:1794  for (uint256 i = 0; i < Users.length; i++) {\r... */\n    tag_273:\n        /* \"src/libs/shop.sol\":1661:1666  Users */\n      0x01\n        /* \"src/libs/shop.sol\":1661:1673  Users.length */\n      dup1\n      sload\n      swap1\n      pop\n        /* \"src/libs/shop.sol\":1657:1658  i */\n      dup2\n        /* \"src/libs/shop.sol\":1657:1673  i < Users.length */\n      lt\n        /* \"src/libs/shop.sol\":1637:1794  for (uint256 i = 0; i < Users.length; i++) {\r... */\n      iszero\n      tag_274\n      jumpi\n        /* \"src/libs/shop.sol\":1720:1727  newUser */\n      dup2\n        /* \"src/libs/shop.sol\":1703:1727  Users[i].user != newUser */\n      0xffffffffffffffffffffffffffffffffffffffff\n      and\n        /* \"src/libs/shop.sol\":1703:1708  Users */\n      0x01\n        /* \"src/libs/shop.sol\":1709:1710  i */\n      dup3\n        /* \"src/libs/shop.sol\":1703:1711  Users[i] */\n      dup2\n      sload\n      dup2\n      lt\n      tag_276\n      jumpi\n      tag_277\n      tag_71\n      jump\t// in\n    tag_277:\n    tag_276:\n      swap1\n      0x00\n      mstore\n      keccak256(0x00, 0x20)\n      swap1\n      0x03\n      mul\n      add\n        /* \"src/libs/shop.sol\":1703:1716  Users[i].user */\n      0x00\n      add\n      0x00\n      swap1\n      sload\n      swap1\n      0x0100\n      exp\n      swap1\n      div\n      0xffffffffffffffffffffffffffffffffffffffff\n      and\n        /* \"src/libs/shop.sol\":1703:1727  Users[i].user != newUser */\n      0xffffffffffffffffffffffffffffffffffffffff\n      and\n      eq\n      iszero\n        /* \"src/libs/shop.sol\":1695:1735  require(Users[i].user != newUser, \"201\") */\n      tag_279\n      jumpi\n      mload(0x40)\n      0x08c379a000000000000000000000000000000000000000000000000000000000\n      dup2\n      mstore\n      0x04\n      add\n      tag_280\n      swap1\n      tag_192\n      jump\t// in\n    tag_280:\n      mload(0x40)\n      dup1\n      swap2\n      sub\n      swap1\n      revert\n    tag_279:\n        /* \"src/libs/shop.sol\":1675:1678  i++ */\n      dup1\n      dup1\n      tag_281\n      swap1\n      tag_116\n      jump\t// in\n    tag_281:\n      swap2\n      pop\n      pop\n        /* \"src/libs/shop.sol\":1637:1794  for (uint256 i = 0; i < Users.length; i++) {\r... */\n      jump(tag_273)\n    tag_274:\n      pop\n        /* \"src/libs/shop.sol\":3157:3162  Users */\n      0x01\n        /* \"src/libs/shop.sol\":3168:3190  user(msg.sender, 2, 2) */\n      mload(0x40)\n      dup1\n      0x60\n      add\n      0x40\n      mstore\n      dup1\n        /* \"src/libs/shop.sol\":3173:3183  msg.sender */\n      caller\n        /* \"src/libs/shop.sol\":3168:3190  user(msg.sender, 2, 2) */\n      0xffffffffffffffffffffffffffffffffffffffff\n      and\n      dup2\n      mstore\n      0x20\n      add\n        /* \"src/libs/shop.sol\":3185:3186  2 */\n      0x02\n        /* \"src/libs/shop.sol\":3168:3190  user(msg.sender, 2, 2) */\n      dup2\n      mstore\n      0x20\n      add\n        /* \"src/libs/shop.sol\":3188:3189  2 */\n      0x02\n        /* \"src/libs/shop.sol\":3168:3190  user(msg.sender, 2, 2) */\n      dup2\n      mstore\n      pop\n        /* \"src/libs/shop.sol\":3157:3191  Users.push(user(msg.sender, 2, 2)) */\n      swap1\n      dup1\n      0x01\n      dup2\n      sload\n      add\n      dup1\n      dup3\n      sstore\n      dup1\n      swap2\n      pop\n      pop\n      0x01\n      swap1\n      sub\n      swap1\n      0x00\n      mstore\n      keccak256(0x00, 0x20)\n      swap1\n      0x03\n      mul\n      add\n      0x00\n      swap1\n      swap2\n      swap1\n      swap2\n      swap1\n      swap2\n      pop\n      0x00\n      dup3\n      add\n      mload\n      dup2\n      0x00\n      add\n      exp(0x0100, 0x00)\n      dup2\n      sload\n      dup2\n      0xffffffffffffffffffffffffffffffffffffffff\n      mul\n      not\n      and\n      swap1\n      dup4\n      0xffffffffffffffffffffffffffffffffffffffff\n      and\n      mul\n      or\n      swap1\n      sstore\n      pop\n      0x20\n      dup3\n      add\n      mload\n      dup2\n      0x01\n      add\n      sstore\n      0x40\n      dup3\n      add\n      mload\n      dup2\n      0x02\n      add\n      sstore\n      pop\n      pop\n        /* \"src/libs/shop.sol\":3100:3199  function regUser() public isntReg(msg.sender) {\r... */\n      pop\n      jump\t// out\n        /* \"src/libs/shop.sol\":5966:6242  function deleteShop(uint256 idShop) public {\r... */\n    tag_46:\n        /* \"src/libs/shop.sol\":6025:6034  uint256 i */\n      0x00\n        /* \"src/libs/shop.sol\":6020:6204  for (uint256 i = 0; i < Shops[idShop].sellers.length; i++) {\r... */\n    tag_285:\n        /* \"src/libs/shop.sol\":6044:6049  Shops */\n      0x00\n        /* \"src/libs/shop.sol\":6050:6056  idShop */\n      dup3\n        /* \"src/libs/shop.sol\":6044:6057  Shops[idShop] */\n      dup2\n      sload\n      dup2\n      lt\n      tag_288\n      jumpi\n      tag_289\n      tag_71\n      jump\t// in\n    tag_289:\n    tag_288:\n      swap1\n      0x00\n      mstore\n      keccak256(0x00, 0x20)\n      swap1\n      0x04\n      mul\n      add\n        /* \"src/libs/shop.sol\":6044:6065  Shops[idShop].sellers */\n      0x03\n      add\n        /* \"src/libs/shop.sol\":6044:6072  Shops[idShop].sellers.length */\n      dup1\n      sload\n      swap1\n      pop\n        /* \"src/libs/shop.sol\":6040:6041  i */\n      dup2\n        /* \"src/libs/shop.sol\":6040:6072  i < Shops[idShop].sellers.length */\n      lt\n        /* \"src/libs/shop.sol\":6020:6204  for (uint256 i = 0; i < Shops[idShop].sellers.length; i++) {\r... */\n      iszero\n      tag_286\n      jumpi\n        /* \"src/libs/shop.sol\":6133:6134  2 */\n      0x02\n        /* \"src/libs/shop.sol\":6094:6099  Users */\n      0x01\n        /* \"src/libs/shop.sol\":6100:6105  Shops */\n      0x00\n        /* \"src/libs/shop.sol\":6106:6112  idShop */\n      dup5\n        /* \"src/libs/shop.sol\":6100:6113  Shops[idShop] */\n      dup2\n      sload\n      dup2\n      lt\n      tag_291\n      jumpi\n      tag_292\n      tag_71\n      jump\t// in\n    tag_292:\n    tag_291:\n      swap1\n      0x00\n      mstore\n      keccak256(0x00, 0x20)\n      swap1\n      0x04\n      mul\n      add\n        /* \"src/libs/shop.sol\":6100:6121  Shops[idShop].sellers */\n      0x03\n      add\n        /* \"src/libs/shop.sol\":6122:6123  i */\n      dup4\n        /* \"src/libs/shop.sol\":6100:6124  Shops[idShop].sellers[i] */\n      dup2\n      sload\n      dup2\n      lt\n      tag_294\n      jumpi\n      tag_295\n      tag_71\n      jump\t// in\n    tag_295:\n    tag_294:\n      swap1\n      0x00\n      mstore\n      keccak256(0x00, 0x20)\n      add\n      sload\n        /* \"src/libs/shop.sol\":6094:6125  Users[Shops[idShop].sellers[i]] */\n      dup2\n      sload\n      dup2\n      lt\n      tag_297\n      jumpi\n      tag_298\n      tag_71\n      jump\t// in\n    tag_298:\n    tag_297:\n      swap1\n      0x00\n      mstore\n      keccak256(0x00, 0x20)\n      swap1\n      0x03\n      mul\n      add\n        /* \"src/libs/shop.sol\":6094:6130  Users[Shops[idShop].sellers[i]].role */\n      0x01\n      add\n        /* \"src/libs/shop.sol\":6094:6134  Users[Shops[idShop].sellers[i]].role = 2 */\n      dup2\n      swap1\n      sstore\n      pop\n        /* \"src/libs/shop.sol\":6191:6192  2 */\n      0x02\n        /* \"src/libs/shop.sol\":6149:6154  Users */\n      0x01\n        /* \"src/libs/shop.sol\":6155:6160  Shops */\n      0x00\n        /* \"src/libs/shop.sol\":6161:6167  idShop */\n      dup5\n        /* \"src/libs/shop.sol\":6155:6168  Shops[idShop] */\n      dup2\n      sload\n      dup2\n      lt\n      tag_300\n      jumpi\n      tag_301\n      tag_71\n      jump\t// in\n    tag_301:\n    tag_300:\n      swap1\n      0x00\n      mstore\n      keccak256(0x00, 0x20)\n      swap1\n      0x04\n      mul\n      add\n        /* \"src/libs/shop.sol\":6155:6176  Shops[idShop].sellers */\n      0x03\n      add\n        /* \"src/libs/shop.sol\":6177:6178  i */\n      dup4\n        /* \"src/libs/shop.sol\":6155:6179  Shops[idShop].sellers[i] */\n      dup2\n      sload\n      dup2\n      lt\n      tag_303\n      jumpi\n      tag_304\n      tag_71\n      jump\t// in\n    tag_304:\n    tag_303:\n      swap1\n      0x00\n      mstore\n      keccak256(0x00, 0x20)\n      add\n      sload\n        /* \"src/libs/shop.sol\":6149:6180  Users[Shops[idShop].sellers[i]] */\n      dup2\n      sload\n      dup2\n      lt\n      tag_306\n      jumpi\n      tag_307\n      tag_71\n      jump\t// in\n    tag_307:\n    tag_306:\n      swap1\n      0x00\n      mstore\n      keccak256(0x00, 0x20)\n      swap1\n      0x03\n      mul\n      add\n        /* \"src/libs/shop.sol\":6149:6188  Users[Shops[idShop].sellers[i]].nowRole */\n      0x02\n      add\n        /* \"src/libs/shop.sol\":6149:6192  Users[Shops[idShop].sellers[i]].nowRole = 2 */\n      dup2\n      swap1\n      sstore\n      pop\n        /* \"src/libs/shop.sol\":6074:6077  i++ */\n      dup1\n      dup1\n      tag_309\n      swap1\n      tag_116\n      jump\t// in\n    tag_309:\n      swap2\n      pop\n      pop\n        /* \"src/libs/shop.sol\":6020:6204  for (uint256 i = 0; i < Shops[idShop].sellers.length; i++) {\r... */\n      jump(tag_285)\n    tag_286:\n      pop\n        /* \"src/libs/shop.sol\":6221:6226  Shops */\n      0x00\n        /* \"src/libs/shop.sol\":6227:6233  idShop */\n      dup2\n        /* \"src/libs/shop.sol\":6221:6234  Shops[idShop] */\n      dup2\n      sload\n      dup2\n      lt\n      tag_310\n      jumpi\n      tag_311\n      tag_71\n      jump\t// in\n    tag_311:\n    tag_310:\n      swap1\n      0x00\n      mstore\n      keccak256(0x00, 0x20)\n      swap1\n      0x04\n      mul\n      add\n      0x00\n        /* \"src/libs/shop.sol\":6214:6234  delete Shops[idShop] */\n      dup1\n      dup3\n      add\n      exp(0x0100, 0x00)\n      dup2\n      sload\n      swap1\n      0xffffffffffffffffffffffffffffffffffffffff\n      mul\n      not\n      and\n      swap1\n      sstore\n      0x01\n      dup3\n      add\n      0x00\n      tag_313\n      swap2\n      swap1\n      tag_314\n      jump\t// in\n    tag_313:\n      0x02\n      dup3\n      add\n      0x00\n      tag_315\n      swap2\n      swap1\n      tag_316\n      jump\t// in\n    tag_315:\n      0x03\n      dup3\n      add\n      0x00\n      tag_317\n      swap2\n      swap1\n      tag_318\n      jump\t// in\n    tag_317:\n      pop\n      pop\n        /* \"src/libs/shop.sol\":5966:6242  function deleteShop(uint256 idShop) public {\r... */\n      pop\n      jump\t// out\n        /* \"src/libs/shop.sol\":6929:7142  function addLike(\r... */\n    tag_50:\n        /* \"src/libs/shop.sol\":7040:7050  msg.sender */\n      caller\n        /* \"src/libs/shop.sol\":2543:2552  uint256 i */\n      0x00\n        /* \"src/libs/shop.sol\":2538:2805  for (uint256 i = 0; i < Users.length; i++) {\r... */\n    tag_320:\n        /* \"src/libs/shop.sol\":2562:2567  Users */\n      0x01\n        /* \"src/libs/shop.sol\":2562:2574  Users.length */\n      dup1\n      sload\n      swap1\n      pop\n        /* \"src/libs/shop.sol\":2558:2559  i */\n      dup2\n        /* \"src/libs/shop.sol\":2558:2574  i < Users.length */\n      lt\n        /* \"src/libs/shop.sol\":2538:2805  for (uint256 i = 0; i < Users.length; i++) {\r... */\n      iszero\n      tag_321\n      jumpi\n        /* \"src/libs/shop.sol\":2617:2624  newUser */\n      dup2\n        /* \"src/libs/shop.sol\":2600:2624  Users[i].user == newUser */\n      0xffffffffffffffffffffffffffffffffffffffff\n      and\n        /* \"src/libs/shop.sol\":2600:2605  Users */\n      0x01\n        /* \"src/libs/shop.sol\":2606:2607  i */\n      dup3\n        /* \"src/libs/shop.sol\":2600:2608  Users[i] */\n      dup2\n      sload\n      dup2\n      lt\n      tag_323\n      jumpi\n      tag_324\n      tag_71\n      jump\t// in\n    tag_324:\n    tag_323:\n      swap1\n      0x00\n      mstore\n      keccak256(0x00, 0x20)\n      swap1\n      0x03\n      mul\n      add\n        /* \"src/libs/shop.sol\":2600:2613  Users[i].user */\n      0x00\n      add\n      0x00\n      swap1\n      sload\n      swap1\n      0x0100\n      exp\n      swap1\n      div\n      0xffffffffffffffffffffffffffffffffffffffff\n      and\n        /* \"src/libs/shop.sol\":2600:2624  Users[i].user == newUser */\n      0xffffffffffffffffffffffffffffffffffffffff\n      and\n      eq\n        /* \"src/libs/shop.sol\":2596:2794  if (Users[i].user == newUser) {\r... */\n      iszero\n      tag_326\n      jumpi\n        /* \"src/libs/shop.sol\":2670:2671  2 */\n      0x02\n        /* \"src/libs/shop.sol\":2653:2658  Users */\n      0x01\n        /* \"src/libs/shop.sol\":2659:2660  i */\n      dup3\n        /* \"src/libs/shop.sol\":2653:2661  Users[i] */\n      dup2\n      sload\n      dup2\n      lt\n      tag_327\n      jumpi\n      tag_328\n      tag_71\n      jump\t// in\n    tag_328:\n    tag_327:\n      swap1\n      0x00\n      mstore\n      keccak256(0x00, 0x20)\n      swap1\n      0x03\n      mul\n      add\n        /* \"src/libs/shop.sol\":2653:2666  Users[i].role */\n      0x01\n      add\n      sload\n        /* \"src/libs/shop.sol\":2653:2671  Users[i].role == 2 */\n      eq\n        /* \"src/libs/shop.sol\":2645:2679  require(Users[i].role == 2, \"101\") */\n      tag_330\n      jumpi\n      mload(0x40)\n      0x08c379a000000000000000000000000000000000000000000000000000000000\n      dup2\n      mstore\n      0x04\n      add\n      tag_331\n      swap1\n      tag_332\n      jump\t// in\n    tag_331:\n      mload(0x40)\n      dup1\n      swap2\n      sub\n      swap1\n      revert\n    tag_330:\n        /* \"src/libs/shop.sol\":2773:2778  break */\n      jump(tag_321)\n        /* \"src/libs/shop.sol\":2596:2794  if (Users[i].user == newUser) {\r... */\n    tag_326:\n        /* \"src/libs/shop.sol\":2576:2579  i++ */\n      dup1\n      dup1\n      tag_333\n      swap1\n      tag_116\n      jump\t// in\n    tag_333:\n      swap2\n      pop\n      pop\n        /* \"src/libs/shop.sol\":2538:2805  for (uint256 i = 0; i < Users.length; i++) {\r... */\n      jump(tag_320)\n    tag_321:\n      pop\n        /* \"src/libs/shop.sol\":7063:7068  Shops */\n      0x00\n        /* \"src/libs/shop.sol\":7069:7075  idShop */\n      dup5\n        /* \"src/libs/shop.sol\":7063:7076  Shops[idShop] */\n      dup2\n      sload\n      dup2\n      lt\n      tag_335\n      jumpi\n      tag_336\n      tag_71\n      jump\t// in\n    tag_336:\n    tag_335:\n      swap1\n      0x00\n      mstore\n      keccak256(0x00, 0x20)\n      swap1\n      0x04\n      mul\n      add\n        /* \"src/libs/shop.sol\":7063:7088  Shops[idShop].bookOfMarks */\n      0x02\n      add\n        /* \"src/libs/shop.sol\":7089:7095  idMark */\n      dup4\n        /* \"src/libs/shop.sol\":7063:7096  Shops[idShop].bookOfMarks[idMark] */\n      dup2\n      sload\n      dup2\n      lt\n      tag_338\n      jumpi\n      tag_339\n      tag_71\n      jump\t// in\n    tag_339:\n    tag_338:\n      swap1\n      0x00\n      mstore\n      keccak256(0x00, 0x20)\n      swap1\n      0x05\n      mul\n      add\n        /* \"src/libs/shop.sol\":7063:7102  Shops[idShop].bookOfMarks[idMark].likes */\n      0x02\n      add\n        /* \"src/libs/shop.sol\":7108:7133  like(msg.sender, isLiked) */\n      mload(0x40)\n      dup1\n      0x40\n      add\n      0x40\n      mstore\n      dup1\n        /* \"src/libs/shop.sol\":7113:7123  msg.sender */\n      caller\n        /* \"src/libs/shop.sol\":7108:7133  like(msg.sender, isLiked) */\n      0xffffffffffffffffffffffffffffffffffffffff\n      and\n      dup2\n      mstore\n      0x20\n      add\n        /* \"src/libs/shop.sol\":7125:7132  isLiked */\n      dup5\n        /* \"src/libs/shop.sol\":7108:7133  like(msg.sender, isLiked) */\n      iszero\n      iszero\n      dup2\n      mstore\n      pop\n        /* \"src/libs/shop.sol\":7063:7134  Shops[idShop].bookOfMarks[idMark].likes.push(like(msg.sender, isLiked)) */\n      swap1\n      dup1\n      0x01\n      dup2\n      sload\n      add\n      dup1\n      dup3\n      sstore\n      dup1\n      swap2\n      pop\n      pop\n      0x01\n      swap1\n      sub\n      swap1\n      0x00\n      mstore\n      keccak256(0x00, 0x20)\n      add\n      0x00\n      swap1\n      swap2\n      swap1\n      swap2\n      swap1\n      swap2\n      pop\n      0x00\n      dup3\n      add\n      mload\n      dup2\n      0x00\n      add\n      exp(0x0100, 0x00)\n      dup2\n      sload\n      dup2\n      0xffffffffffffffffffffffffffffffffffffffff\n      mul\n      not\n      and\n      swap1\n      dup4\n      0xffffffffffffffffffffffffffffffffffffffff\n      and\n      mul\n      or\n      swap1\n      sstore\n      pop\n      0x20\n      dup3\n      add\n      mload\n      dup2\n      0x00\n      add\n      exp(0x0100, 0x14)\n      dup2\n      sload\n      dup2\n      0xff\n      mul\n      not\n      and\n      swap1\n      dup4\n      iszero\n      iszero\n      mul\n      or\n      swap1\n      sstore\n      pop\n      pop\n      pop\n        /* \"src/libs/shop.sol\":6929:7142  function addLike(\r... */\n      pop\n      pop\n      pop\n      pop\n      jump\t// out\n        /* \"src/libs/shop.sol\":3279:3795  function switchToUser() public {\r... */\n    tag_52:\n        /* \"src/libs/shop.sol\":3326:3335  uint256 i */\n      0x00\n        /* \"src/libs/shop.sol\":3321:3788  for (uint256 i = 0; i < Users.length; i++) {\r... */\n    tag_343:\n        /* \"src/libs/shop.sol\":3345:3350  Users */\n      0x01\n        /* \"src/libs/shop.sol\":3345:3357  Users.length */\n      dup1\n      sload\n      swap1\n      pop\n        /* \"src/libs/shop.sol\":3341:3342  i */\n      dup2\n        /* \"src/libs/shop.sol\":3341:3357  i < Users.length */\n      lt\n        /* \"src/libs/shop.sol\":3321:3788  for (uint256 i = 0; i < Users.length; i++) {\r... */\n      iszero\n      tag_344\n      jumpi\n        /* \"src/libs/shop.sol\":3404:3405  2 */\n      0x02\n        /* \"src/libs/shop.sol\":3387:3392  Users */\n      0x01\n        /* \"src/libs/shop.sol\":3393:3394  i */\n      dup3\n        /* \"src/libs/shop.sol\":3387:3395  Users[i] */\n      dup2\n      sload\n      dup2\n      lt\n      tag_346\n      jumpi\n      tag_347\n      tag_71\n      jump\t// in\n    tag_347:\n    tag_346:\n      swap1\n      0x00\n      mstore\n      keccak256(0x00, 0x20)\n      swap1\n      0x03\n      mul\n      add\n        /* \"src/libs/shop.sol\":3387:3400  Users[i].role */\n      0x01\n      add\n      sload\n        /* \"src/libs/shop.sol\":3387:3405  Users[i].role != 2 */\n      eq\n      iszero\n        /* \"src/libs/shop.sol\":3379:3413  require(Users[i].role != 2, \"103\") */\n      tag_349\n      jumpi\n      mload(0x40)\n      0x08c379a000000000000000000000000000000000000000000000000000000000\n      dup2\n      mstore\n      0x04\n      add\n      tag_350\n      swap1\n      tag_351\n      jump\t// in\n    tag_350:\n      mload(0x40)\n      dup1\n      swap2\n      sub\n      swap1\n      revert\n    tag_349:\n        /* \"src/libs/shop.sol\":3524:3534  msg.sender */\n      caller\n        /* \"src/libs/shop.sol\":3507:3534  Users[i].user == msg.sender */\n      0xffffffffffffffffffffffffffffffffffffffff\n      and\n        /* \"src/libs/shop.sol\":3507:3512  Users */\n      0x01\n        /* \"src/libs/shop.sol\":3513:3514  i */\n      dup3\n        /* \"src/libs/shop.sol\":3507:3515  Users[i] */\n      dup2\n      sload\n      dup2\n      lt\n      tag_352\n      jumpi\n      tag_353\n      tag_71\n      jump\t// in\n    tag_353:\n    tag_352:\n      swap1\n      0x00\n      mstore\n      keccak256(0x00, 0x20)\n      swap1\n      0x03\n      mul\n      add\n        /* \"src/libs/shop.sol\":3507:3520  Users[i].user */\n      0x00\n      add\n      0x00\n      swap1\n      sload\n      swap1\n      0x0100\n      exp\n      swap1\n      div\n      0xffffffffffffffffffffffffffffffffffffffff\n      and\n        /* \"src/libs/shop.sol\":3507:3534  Users[i].user == msg.sender */\n      0xffffffffffffffffffffffffffffffffffffffff\n      and\n      eq\n        /* \"src/libs/shop.sol\":3503:3777  if (Users[i].user == msg.sender) {\r... */\n      iszero\n      tag_355\n      jumpi\n        /* \"src/libs/shop.sol\":3576:3581  Users */\n      0x01\n        /* \"src/libs/shop.sol\":3582:3583  i */\n      dup2\n        /* \"src/libs/shop.sol\":3576:3584  Users[i] */\n      dup2\n      sload\n      dup2\n      lt\n      tag_356\n      jumpi\n      tag_357\n      tag_71\n      jump\t// in\n    tag_357:\n    tag_356:\n      swap1\n      0x00\n      mstore\n      keccak256(0x00, 0x20)\n      swap1\n      0x03\n      mul\n      add\n        /* \"src/libs/shop.sol\":3576:3592  Users[i].nowRole */\n      0x02\n      add\n      sload\n        /* \"src/libs/shop.sol\":3559:3564  Users */\n      0x01\n        /* \"src/libs/shop.sol\":3565:3566  i */\n      dup3\n        /* \"src/libs/shop.sol\":3559:3567  Users[i] */\n      dup2\n      sload\n      dup2\n      lt\n      tag_359\n      jumpi\n      tag_360\n      tag_71\n      jump\t// in\n    tag_360:\n    tag_359:\n      swap1\n      0x00\n      mstore\n      keccak256(0x00, 0x20)\n      swap1\n      0x03\n      mul\n      add\n        /* \"src/libs/shop.sol\":3559:3572  Users[i].role */\n      0x01\n      add\n      sload\n        /* \"src/libs/shop.sol\":3559:3592  Users[i].role == Users[i].nowRole */\n      eq\n        /* \"src/libs/shop.sol\":3555:3738  if (Users[i].role == Users[i].nowRole) {\r... */\n      iszero\n      tag_362\n      jumpi\n        /* \"src/libs/shop.sol\":3636:3637  2 */\n      0x02\n        /* \"src/libs/shop.sol\":3617:3622  Users */\n      0x01\n        /* \"src/libs/shop.sol\":3623:3624  i */\n      dup3\n        /* \"src/libs/shop.sol\":3617:3625  Users[i] */\n      dup2\n      sload\n      dup2\n      lt\n      tag_363\n      jumpi\n      tag_364\n      tag_71\n      jump\t// in\n    tag_364:\n    tag_363:\n      swap1\n      0x00\n      mstore\n      keccak256(0x00, 0x20)\n      swap1\n      0x03\n      mul\n      add\n        /* \"src/libs/shop.sol\":3617:3633  Users[i].nowRole */\n      0x02\n      add\n        /* \"src/libs/shop.sol\":3617:3637  Users[i].nowRole = 2 */\n      dup2\n      swap1\n      sstore\n      pop\n        /* \"src/libs/shop.sol\":3555:3738  if (Users[i].role == Users[i].nowRole) {\r... */\n      jump(tag_366)\n    tag_362:\n        /* \"src/libs/shop.sol\":3705:3710  Users */\n      0x01\n        /* \"src/libs/shop.sol\":3711:3712  i */\n      dup2\n        /* \"src/libs/shop.sol\":3705:3713  Users[i] */\n      dup2\n      sload\n      dup2\n      lt\n      tag_367\n      jumpi\n      tag_368\n      tag_71\n      jump\t// in\n    tag_368:\n    tag_367:\n      swap1\n      0x00\n      mstore\n      keccak256(0x00, 0x20)\n      swap1\n      0x03\n      mul\n      add\n        /* \"src/libs/shop.sol\":3705:3718  Users[i].role */\n      0x01\n      add\n      sload\n        /* \"src/libs/shop.sol\":3686:3691  Users */\n      0x01\n        /* \"src/libs/shop.sol\":3692:3693  i */\n      dup3\n        /* \"src/libs/shop.sol\":3686:3694  Users[i] */\n      dup2\n      sload\n      dup2\n      lt\n      tag_370\n      jumpi\n      tag_371\n      tag_71\n      jump\t// in\n    tag_371:\n    tag_370:\n      swap1\n      0x00\n      mstore\n      keccak256(0x00, 0x20)\n      swap1\n      0x03\n      mul\n      add\n        /* \"src/libs/shop.sol\":3686:3702  Users[i].nowRole */\n      0x02\n      add\n        /* \"src/libs/shop.sol\":3686:3718  Users[i].nowRole = Users[i].role */\n      dup2\n      swap1\n      sstore\n      pop\n        /* \"src/libs/shop.sol\":3555:3738  if (Users[i].role == Users[i].nowRole) {\r... */\n    tag_366:\n        /* \"src/libs/shop.sol\":3756:3761  break */\n      jump(tag_344)\n        /* \"src/libs/shop.sol\":3503:3777  if (Users[i].user == msg.sender) {\r... */\n    tag_355:\n        /* \"src/libs/shop.sol\":3359:3362  i++ */\n      dup1\n      dup1\n      tag_373\n      swap1\n      tag_116\n      jump\t// in\n    tag_373:\n      swap2\n      pop\n      pop\n        /* \"src/libs/shop.sol\":3321:3788  for (uint256 i = 0; i < Users.length; i++) {\r... */\n      jump(tag_343)\n    tag_344:\n      pop\n        /* \"src/libs/shop.sol\":3279:3795  function switchToUser() public {\r... */\n      jump\t// out\n        /* \"src/libs/shop.sol\":7150:7435  function addLike(\r... */\n    tag_56:\n        /* \"src/libs/shop.sol\":7289:7299  msg.sender */\n      caller\n        /* \"src/libs/shop.sol\":2543:2552  uint256 i */\n      0x00\n        /* \"src/libs/shop.sol\":2538:2805  for (uint256 i = 0; i < Users.length; i++) {\r... */\n    tag_375:\n        /* \"src/libs/shop.sol\":2562:2567  Users */\n      0x01\n        /* \"src/libs/shop.sol\":2562:2574  Users.length */\n      dup1\n      sload\n      swap1\n      pop\n        /* \"src/libs/shop.sol\":2558:2559  i */\n      dup2\n        /* \"src/libs/shop.sol\":2558:2574  i < Users.length */\n      lt\n        /* \"src/libs/shop.sol\":2538:2805  for (uint256 i = 0; i < Users.length; i++) {\r... */\n      iszero\n      tag_376\n      jumpi\n        /* \"src/libs/shop.sol\":2617:2624  newUser */\n      dup2\n        /* \"src/libs/shop.sol\":2600:2624  Users[i].user == newUser */\n      0xffffffffffffffffffffffffffffffffffffffff\n      and\n        /* \"src/libs/shop.sol\":2600:2605  Users */\n      0x01\n        /* \"src/libs/shop.sol\":2606:2607  i */\n      dup3\n        /* \"src/libs/shop.sol\":2600:2608  Users[i] */\n      dup2\n      sload\n      dup2\n      lt\n      tag_378\n      jumpi\n      tag_379\n      tag_71\n      jump\t// in\n    tag_379:\n    tag_378:\n      swap1\n      0x00\n      mstore\n      keccak256(0x00, 0x20)\n      swap1\n      0x03\n      mul\n      add\n        /* \"src/libs/shop.sol\":2600:2613  Users[i].user */\n      0x00\n      add\n      0x00\n      swap1\n      sload\n      swap1\n      0x0100\n      exp\n      swap1\n      div\n      0xffffffffffffffffffffffffffffffffffffffff\n      and\n        /* \"src/libs/shop.sol\":2600:2624  Users[i].user == newUser */\n      0xffffffffffffffffffffffffffffffffffffffff\n      and\n      eq\n        /* \"src/libs/shop.sol\":2596:2794  if (Users[i].user == newUser) {\r... */\n      iszero\n      tag_381\n      jumpi\n        /* \"src/libs/shop.sol\":2670:2671  2 */\n      0x02\n        /* \"src/libs/shop.sol\":2653:2658  Users */\n      0x01\n        /* \"src/libs/shop.sol\":2659:2660  i */\n      dup3\n        /* \"src/libs/shop.sol\":2653:2661  Users[i] */\n      dup2\n      sload\n      dup2\n      lt\n      tag_382\n      jumpi\n      tag_383\n      tag_71\n      jump\t// in\n    tag_383:\n    tag_382:\n      swap1\n      0x00\n      mstore\n      keccak256(0x00, 0x20)\n      swap1\n      0x03\n      mul\n      add\n        /* \"src/libs/shop.sol\":2653:2666  Users[i].role */\n      0x01\n      add\n      sload\n        /* \"src/libs/shop.sol\":2653:2671  Users[i].role == 2 */\n      eq\n        /* \"src/libs/shop.sol\":2645:2679  require(Users[i].role == 2, \"101\") */\n      tag_385\n      jumpi\n      mload(0x40)\n      0x08c379a000000000000000000000000000000000000000000000000000000000\n      dup2\n      mstore\n      0x04\n      add\n      tag_386\n      swap1\n      tag_332\n      jump\t// in\n    tag_386:\n      mload(0x40)\n      dup1\n      swap2\n      sub\n      swap1\n      revert\n    tag_385:\n        /* \"src/libs/shop.sol\":2773:2778  break */\n      jump(tag_376)\n        /* \"src/libs/shop.sol\":2596:2794  if (Users[i].user == newUser) {\r... */\n    tag_381:\n        /* \"src/libs/shop.sol\":2576:2579  i++ */\n      dup1\n      dup1\n      tag_387\n      swap1\n      tag_116\n      jump\t// in\n    tag_387:\n      swap2\n      pop\n      pop\n        /* \"src/libs/shop.sol\":2538:2805  for (uint256 i = 0; i < Users.length; i++) {\r... */\n      jump(tag_375)\n    tag_376:\n      pop\n        /* \"src/libs/shop.sol\":7312:7317  Shops */\n      0x00\n        /* \"src/libs/shop.sol\":7318:7324  idShop */\n      dup6\n        /* \"src/libs/shop.sol\":7312:7325  Shops[idShop] */\n      dup2\n      sload\n      dup2\n      lt\n      tag_389\n      jumpi\n      tag_390\n      tag_71\n      jump\t// in\n    tag_390:\n    tag_389:\n      swap1\n      0x00\n      mstore\n      keccak256(0x00, 0x20)\n      swap1\n      0x04\n      mul\n      add\n        /* \"src/libs/shop.sol\":7312:7337  Shops[idShop].bookOfMarks */\n      0x02\n      add\n        /* \"src/libs/shop.sol\":7338:7344  idMark */\n      dup5\n        /* \"src/libs/shop.sol\":7312:7345  Shops[idShop].bookOfMarks[idMark] */\n      dup2\n      sload\n      dup2\n      lt\n      tag_392\n      jumpi\n      tag_393\n      tag_71\n      jump\t// in\n    tag_393:\n    tag_392:\n      swap1\n      0x00\n      mstore\n      keccak256(0x00, 0x20)\n      swap1\n      0x05\n      mul\n      add\n        /* \"src/libs/shop.sol\":7312:7354  Shops[idShop].bookOfMarks[idMark].comments */\n      0x03\n      add\n        /* \"src/libs/shop.sol\":7355:7364  idComment */\n      dup4\n        /* \"src/libs/shop.sol\":7312:7365  Shops[idShop].bookOfMarks[idMark].comments[idComment] */\n      dup2\n      sload\n      dup2\n      lt\n      tag_395\n      jumpi\n      tag_396\n      tag_71\n      jump\t// in\n    tag_396:\n    tag_395:\n      swap1\n      0x00\n      mstore\n      keccak256(0x00, 0x20)\n      swap1\n      0x03\n      mul\n      add\n        /* \"src/libs/shop.sol\":7312:7371  Shops[idShop].bookOfMarks[idMark].comments[idComment].likes */\n      0x01\n      add\n        /* \"src/libs/shop.sol\":7391:7416  like(msg.sender, isLiked) */\n      mload(0x40)\n      dup1\n      0x40\n      add\n      0x40\n      mstore\n      dup1\n        /* \"src/libs/shop.sol\":7396:7406  msg.sender */\n      caller\n        /* \"src/libs/shop.sol\":7391:7416  like(msg.sender, isLiked) */\n      0xffffffffffffffffffffffffffffffffffffffff\n      and\n      dup2\n      mstore\n      0x20\n      add\n        /* \"src/libs/shop.sol\":7408:7415  isLiked */\n      dup5\n        /* \"src/libs/shop.sol\":7391:7416  like(msg.sender, isLiked) */\n      iszero\n      iszero\n      dup2\n      mstore\n      pop\n        /* \"src/libs/shop.sol\":7312:7427  Shops[idShop].bookOfMarks[idMark].comments[idComment].likes.push(\r... */\n      swap1\n      dup1\n      0x01\n      dup2\n      sload\n      add\n      dup1\n      dup3\n      sstore\n      dup1\n      swap2\n      pop\n      pop\n      0x01\n      swap1\n      sub\n      swap1\n      0x00\n      mstore\n      keccak256(0x00, 0x20)\n      add\n      0x00\n      swap1\n      swap2\n      swap1\n      swap2\n      swap1\n      swap2\n      pop\n      0x00\n      dup3\n      add\n      mload\n      dup2\n      0x00\n      add\n      exp(0x0100, 0x00)\n      dup2\n      sload\n      dup2\n      0xffffffffffffffffffffffffffffffffffffffff\n      mul\n      not\n      and\n      swap1\n      dup4\n      0xffffffffffffffffffffffffffffffffffffffff\n      and\n      mul\n      or\n      swap1\n      sstore\n      pop\n      0x20\n      dup3\n      add\n      mload\n      dup2\n      0x00\n      add\n      exp(0x0100, 0x14)\n      dup2\n      sload\n      dup2\n      0xff\n      mul\n      not\n      and\n      swap1\n      dup4\n      iszero\n      iszero\n      mul\n      or\n      swap1\n      sstore\n      pop\n      pop\n      pop\n        /* \"src/libs/shop.sol\":7150:7435  function addLike(\r... */\n      pop\n      pop\n      pop\n      pop\n      pop\n      jump\t// out\n        /* \"src/libs/shop.sol\":5264:5639  function addAdmin(address candidate)\r... */\n    tag_60:\n        /* \"src/libs/shop.sol\":5332:5342  msg.sender */\n      caller\n        /* \"src/libs/shop.sol\":1269:1285  bool isRegistred */\n      0x00\n        /* \"src/libs/shop.sol\":1309:1318  uint256 i */\n      dup1\n        /* \"src/libs/shop.sol\":1304:1481  for (uint256 i = 0; i < Users.length; i++) {\r... */\n    tag_400:\n        /* \"src/libs/shop.sol\":1328:1333  Users */\n      0x01\n        /* \"src/libs/shop.sol\":1328:1340  Users.length */\n      dup1\n      sload\n      swap1\n      pop\n        /* \"src/libs/shop.sol\":1324:1325  i */\n      dup2\n        /* \"src/libs/shop.sol\":1324:1340  i < Users.length */\n      lt\n        /* \"src/libs/shop.sol\":1304:1481  for (uint256 i = 0; i < Users.length; i++) {\r... */\n      iszero\n      tag_401\n      jumpi\n        /* \"src/libs/shop.sol\":1383:1391  someUser */\n      dup3\n        /* \"src/libs/shop.sol\":1366:1391  Users[i].user == someUser */\n      0xffffffffffffffffffffffffffffffffffffffff\n      and\n        /* \"src/libs/shop.sol\":1366:1371  Users */\n      0x01\n        /* \"src/libs/shop.sol\":1372:1373  i */\n      dup3\n        /* \"src/libs/shop.sol\":1366:1374  Users[i] */\n      dup2\n      sload\n      dup2\n      lt\n      tag_403\n      jumpi\n      tag_404\n      tag_71\n      jump\t// in\n    tag_404:\n    tag_403:\n      swap1\n      0x00\n      mstore\n      keccak256(0x00, 0x20)\n      swap1\n      0x03\n      mul\n      add\n        /* \"src/libs/shop.sol\":1366:1379  Users[i].user */\n      0x00\n      add\n      0x00\n      swap1\n      sload\n      swap1\n      0x0100\n      exp\n      swap1\n      div\n      0xffffffffffffffffffffffffffffffffffffffff\n      and\n        /* \"src/libs/shop.sol\":1366:1391  Users[i].user == someUser */\n      0xffffffffffffffffffffffffffffffffffffffff\n      and\n      eq\n        /* \"src/libs/shop.sol\":1362:1470  if (Users[i].user == someUser) {\r... */\n      iszero\n      tag_406\n      jumpi\n        /* \"src/libs/shop.sol\":1426:1430  true */\n      0x01\n        /* \"src/libs/shop.sol\":1412:1430  isRegistred = true */\n      swap2\n      pop\n        /* \"src/libs/shop.sol\":1449:1454  break */\n      jump(tag_401)\n        /* \"src/libs/shop.sol\":1362:1470  if (Users[i].user == someUser) {\r... */\n    tag_406:\n        /* \"src/libs/shop.sol\":1342:1345  i++ */\n      dup1\n      dup1\n      tag_407\n      swap1\n      tag_116\n      jump\t// in\n    tag_407:\n      swap2\n      pop\n      pop\n        /* \"src/libs/shop.sol\":1304:1481  for (uint256 i = 0; i < Users.length; i++) {\r... */\n      jump(tag_400)\n    tag_401:\n      pop\n        /* \"src/libs/shop.sol\":1500:1511  isRegistred */\n      dup1\n        /* \"src/libs/shop.sol\":1499:1511  !isRegistred */\n      iszero\n        /* \"src/libs/shop.sol\":1491:1519  require(!isRegistred, \"200\") */\n      tag_408\n      jumpi\n      mload(0x40)\n      0x08c379a000000000000000000000000000000000000000000000000000000000\n      dup2\n      mstore\n      0x04\n      add\n      tag_409\n      swap1\n      tag_119\n      jump\t// in\n    tag_409:\n      mload(0x40)\n      dup1\n      swap2\n      sub\n      swap1\n      revert\n    tag_408:\n        /* \"src/libs/shop.sol\":5361:5371  msg.sender */\n      caller\n        /* \"src/libs/shop.sol\":2198:2207  uint256 i */\n      0x00\n        /* \"src/libs/shop.sol\":2193:2467  for (uint256 i = 0; i < Users.length; i++) {\r... */\n    tag_411:\n        /* \"src/libs/shop.sol\":2217:2222  Users */\n      0x01\n        /* \"src/libs/shop.sol\":2217:2229  Users.length */\n      dup1\n      sload\n      swap1\n      pop\n        /* \"src/libs/shop.sol\":2213:2214  i */\n      dup2\n        /* \"src/libs/shop.sol\":2213:2229  i < Users.length */\n      lt\n        /* \"src/libs/shop.sol\":2193:2467  for (uint256 i = 0; i < Users.length; i++) {\r... */\n      iszero\n      tag_412\n      jumpi\n        /* \"src/libs/shop.sol\":2272:2279  newUser */\n      dup2\n        /* \"src/libs/shop.sol\":2255:2279  Users[i].user == newUser */\n      0xffffffffffffffffffffffffffffffffffffffff\n      and\n        /* \"src/libs/shop.sol\":2255:2260  Users */\n      0x01\n        /* \"src/libs/shop.sol\":2261:2262  i */\n      dup3\n        /* \"src/libs/shop.sol\":2255:2263  Users[i] */\n      dup2\n      sload\n      dup2\n      lt\n      tag_414\n      jumpi\n      tag_415\n      tag_71\n      jump\t// in\n    tag_415:\n    tag_414:\n      swap1\n      0x00\n      mstore\n      keccak256(0x00, 0x20)\n      swap1\n      0x03\n      mul\n      add\n        /* \"src/libs/shop.sol\":2255:2268  Users[i].user */\n      0x00\n      add\n      0x00\n      swap1\n      sload\n      swap1\n      0x0100\n      exp\n      swap1\n      div\n      0xffffffffffffffffffffffffffffffffffffffff\n      and\n        /* \"src/libs/shop.sol\":2255:2279  Users[i].user == newUser */\n      0xffffffffffffffffffffffffffffffffffffffff\n      and\n      eq\n        /* \"src/libs/shop.sol\":2251:2456  if (Users[i].user == newUser) {\r... */\n      iszero\n      tag_417\n      jumpi\n        /* \"src/libs/shop.sol\":2328:2329  0 */\n      0x00\n        /* \"src/libs/shop.sol\":2308:2313  Users */\n      0x01\n        /* \"src/libs/shop.sol\":2314:2315  i */\n      dup3\n        /* \"src/libs/shop.sol\":2308:2316  Users[i] */\n      dup2\n      sload\n      dup2\n      lt\n      tag_418\n      jumpi\n      tag_419\n      tag_71\n      jump\t// in\n    tag_419:\n    tag_418:\n      swap1\n      0x00\n      mstore\n      keccak256(0x00, 0x20)\n      swap1\n      0x03\n      mul\n      add\n        /* \"src/libs/shop.sol\":2308:2324  Users[i].nowRole */\n      0x02\n      add\n      sload\n        /* \"src/libs/shop.sol\":2308:2329  Users[i].nowRole == 0 */\n      eq\n        /* \"src/libs/shop.sol\":2300:2337  require(Users[i].nowRole == 0, \"100\") */\n      tag_421\n      jumpi\n      mload(0x40)\n      0x08c379a000000000000000000000000000000000000000000000000000000000\n      dup2\n      mstore\n      0x04\n      add\n      tag_422\n      swap1\n      tag_133\n      jump\t// in\n    tag_422:\n      mload(0x40)\n      dup1\n      swap2\n      sub\n      swap1\n      revert\n    tag_421:\n        /* \"src/libs/shop.sol\":2435:2440  break */\n      jump(tag_412)\n        /* \"src/libs/shop.sol\":2251:2456  if (Users[i].user == newUser) {\r... */\n    tag_417:\n        /* \"src/libs/shop.sol\":2231:2234  i++ */\n      dup1\n      dup1\n      tag_423\n      swap1\n      tag_116\n      jump\t// in\n    tag_423:\n      swap2\n      pop\n      pop\n        /* \"src/libs/shop.sol\":2193:2467  for (uint256 i = 0; i < Users.length; i++) {\r... */\n      jump(tag_411)\n    tag_412:\n      pop\n        /* \"src/libs/shop.sol\":5394:5403  uint256 i */\n      0x00\n        /* \"src/libs/shop.sol\":5389:5632  for (uint256 i = 0; i < Users.length; i++) {\r... */\n    tag_425:\n        /* \"src/libs/shop.sol\":5413:5418  Users */\n      0x01\n        /* \"src/libs/shop.sol\":5413:5425  Users.length */\n      dup1\n      sload\n      swap1\n      pop\n        /* \"src/libs/shop.sol\":5409:5410  i */\n      dup2\n        /* \"src/libs/shop.sol\":5409:5425  i < Users.length */\n      lt\n        /* \"src/libs/shop.sol\":5389:5632  for (uint256 i = 0; i < Users.length; i++) {\r... */\n      iszero\n      tag_426\n      jumpi\n        /* \"src/libs/shop.sol\":5468:5477  candidate */\n      dup5\n        /* \"src/libs/shop.sol\":5451:5477  Users[i].user == candidate */\n      0xffffffffffffffffffffffffffffffffffffffff\n      and\n        /* \"src/libs/shop.sol\":5451:5456  Users */\n      0x01\n        /* \"src/libs/shop.sol\":5457:5458  i */\n      dup3\n        /* \"src/libs/shop.sol\":5451:5459  Users[i] */\n      dup2\n      sload\n      dup2\n      lt\n      tag_428\n      jumpi\n      tag_429\n      tag_71\n      jump\t// in\n    tag_429:\n    tag_428:\n      swap1\n      0x00\n      mstore\n      keccak256(0x00, 0x20)\n      swap1\n      0x03\n      mul\n      add\n        /* \"src/libs/shop.sol\":5451:5464  Users[i].user */\n      0x00\n      add\n      0x00\n      swap1\n      sload\n      swap1\n      0x0100\n      exp\n      swap1\n      div\n      0xffffffffffffffffffffffffffffffffffffffff\n      and\n        /* \"src/libs/shop.sol\":5451:5477  Users[i].user == candidate */\n      0xffffffffffffffffffffffffffffffffffffffff\n      and\n      eq\n        /* \"src/libs/shop.sol\":5447:5621  if (Users[i].user == candidate) {\r... */\n      iszero\n      tag_431\n      jumpi\n        /* \"src/libs/shop.sol\":5523:5524  0 */\n      0x00\n        /* \"src/libs/shop.sol\":5506:5511  Users */\n      0x01\n        /* \"src/libs/shop.sol\":5512:5513  i */\n      dup3\n        /* \"src/libs/shop.sol\":5506:5514  Users[i] */\n      dup2\n      sload\n      dup2\n      lt\n      tag_432\n      jumpi\n      tag_433\n      tag_71\n      jump\t// in\n    tag_433:\n    tag_432:\n      swap1\n      0x00\n      mstore\n      keccak256(0x00, 0x20)\n      swap1\n      0x03\n      mul\n      add\n        /* \"src/libs/shop.sol\":5506:5519  Users[i].role */\n      0x01\n      add\n      sload\n        /* \"src/libs/shop.sol\":5506:5524  Users[i].role != 0 */\n      eq\n      iszero\n        /* \"src/libs/shop.sol\":5498:5545  require(Users[i].role != 0, \"U already admin!\") */\n      tag_435\n      jumpi\n      mload(0x40)\n      0x08c379a000000000000000000000000000000000000000000000000000000000\n      dup2\n      mstore\n      0x04\n      add\n      tag_436\n      swap1\n      tag_437\n      jump\t// in\n    tag_436:\n      mload(0x40)\n      dup1\n      swap2\n      sub\n      swap1\n      revert\n    tag_435:\n        /* \"src/libs/shop.sol\":5580:5581  0 */\n      0x00\n        /* \"src/libs/shop.sol\":5564:5569  Users */\n      0x01\n        /* \"src/libs/shop.sol\":5570:5571  i */\n      dup3\n        /* \"src/libs/shop.sol\":5564:5572  Users[i] */\n      dup2\n      sload\n      dup2\n      lt\n      tag_438\n      jumpi\n      tag_439\n      tag_71\n      jump\t// in\n    tag_439:\n    tag_438:\n      swap1\n      0x00\n      mstore\n      keccak256(0x00, 0x20)\n      swap1\n      0x03\n      mul\n      add\n        /* \"src/libs/shop.sol\":5564:5577  Users[i].role */\n      0x01\n      add\n        /* \"src/libs/shop.sol\":5564:5581  Users[i].role = 0 */\n      dup2\n      swap1\n      sstore\n      pop\n        /* \"src/libs/shop.sol\":5600:5605  break */\n      jump(tag_426)\n        /* \"src/libs/shop.sol\":5447:5621  if (Users[i].user == candidate) {\r... */\n    tag_431:\n        /* \"src/libs/shop.sol\":5427:5430  i++ */\n      dup1\n      dup1\n      tag_441\n      swap1\n      tag_116\n      jump\t// in\n    tag_441:\n      swap2\n      pop\n      pop\n        /* \"src/libs/shop.sol\":5389:5632  for (uint256 i = 0; i < Users.length; i++) {\r... */\n      jump(tag_425)\n    tag_426:\n      pop\n        /* \"src/libs/shop.sol\":1575:1576  _ */\n      pop\n        /* \"src/libs/shop.sol\":1258:1584  {\r... */\n      pop\n        /* \"src/libs/shop.sol\":5264:5639  function addAdmin(address candidate)\r... */\n      pop\n      pop\n      jump\t// out\n        /* \"src/libs/shop.sol\":4231:4765  function addComment(\r... */\n    tag_63:\n        /* \"src/libs/shop.sol\":4362:4367  Shops */\n      0x00\n        /* \"src/libs/shop.sol\":4368:4374  idShop */\n      dup4\n        /* \"src/libs/shop.sol\":4362:4375  Shops[idShop] */\n      dup2\n      sload\n      dup2\n      lt\n      tag_443\n      jumpi\n      tag_444\n      tag_71\n      jump\t// in\n    tag_444:\n    tag_443:\n      swap1\n      0x00\n      mstore\n      keccak256(0x00, 0x20)\n      swap1\n      0x04\n      mul\n      add\n        /* \"src/libs/shop.sol\":4362:4387  Shops[idShop].bookOfMarks */\n      0x02\n      add\n        /* \"src/libs/shop.sol\":4388:4394  idMark */\n      dup3\n        /* \"src/libs/shop.sol\":4362:4395  Shops[idShop].bookOfMarks[idMark] */\n      dup2\n      sload\n      dup2\n      lt\n      tag_446\n      jumpi\n      tag_447\n      tag_71\n      jump\t// in\n    tag_447:\n    tag_446:\n      swap1\n      0x00\n      mstore\n      keccak256(0x00, 0x20)\n      swap1\n      0x05\n      mul\n      add\n        /* \"src/libs/shop.sol\":4362:4404  Shops[idShop].bookOfMarks[idMark].comments */\n      0x03\n      add\n        /* \"src/libs/shop.sol\":4362:4411  Shops[idShop].bookOfMarks[idMark].comments.push() */\n      0x01\n      dup2\n      0x01\n      dup2\n      sload\n      add\n      dup1\n      dup3\n      sstore\n      dup1\n      swap2\n      pop\n      pop\n      sub\n      swap1\n      0x00\n      mstore\n      keccak256(0x00, 0x20)\n      swap1\n      pop\n      pop\n        /* \"src/libs/shop.sol\":4571:4581  msg.sender */\n      caller\n        /* \"src/libs/shop.sol\":4422:4427  Shops */\n      0x00\n        /* \"src/libs/shop.sol\":4428:4434  idShop */\n      dup5\n        /* \"src/libs/shop.sol\":4422:4435  Shops[idShop] */\n      dup2\n      sload\n      dup2\n      lt\n      tag_450\n      jumpi\n      tag_451\n      tag_71\n      jump\t// in\n    tag_451:\n    tag_450:\n      swap1\n      0x00\n      mstore\n      keccak256(0x00, 0x20)\n      swap1\n      0x04\n      mul\n      add\n        /* \"src/libs/shop.sol\":4422:4461  Shops[idShop]\r... */\n      0x02\n      add\n        /* \"src/libs/shop.sol\":4462:4468  idMark */\n      dup4\n        /* \"src/libs/shop.sol\":4422:4469  Shops[idShop]\r... */\n      dup2\n      sload\n      dup2\n      lt\n      tag_453\n      jumpi\n      tag_454\n      tag_71\n      jump\t// in\n    tag_454:\n    tag_453:\n      swap1\n      0x00\n      mstore\n      keccak256(0x00, 0x20)\n      swap1\n      0x05\n      mul\n      add\n        /* \"src/libs/shop.sol\":4422:4492  Shops[idShop]\r... */\n      0x03\n      add\n        /* \"src/libs/shop.sol\":4545:4546  1 */\n      0x01\n        /* \"src/libs/shop.sol\":4493:4498  Shops */\n      0x00\n        /* \"src/libs/shop.sol\":4499:4505  idShop */\n      dup7\n        /* \"src/libs/shop.sol\":4493:4506  Shops[idShop] */\n      dup2\n      sload\n      dup2\n      lt\n      tag_456\n      jumpi\n      tag_457\n      tag_71\n      jump\t// in\n    tag_457:\n    tag_456:\n      swap1\n      0x00\n      mstore\n      keccak256(0x00, 0x20)\n      swap1\n      0x04\n      mul\n      add\n        /* \"src/libs/shop.sol\":4493:4518  Shops[idShop].bookOfMarks */\n      0x02\n      add\n        /* \"src/libs/shop.sol\":4519:4525  idMark */\n      dup6\n        /* \"src/libs/shop.sol\":4493:4526  Shops[idShop].bookOfMarks[idMark] */\n      dup2\n      sload\n      dup2\n      lt\n      tag_459\n      jumpi\n      tag_460\n      tag_71\n      jump\t// in\n    tag_460:\n    tag_459:\n      swap1\n      0x00\n      mstore\n      keccak256(0x00, 0x20)\n      swap1\n      0x05\n      mul\n      add\n        /* \"src/libs/shop.sol\":4493:4535  Shops[idShop].bookOfMarks[idMark].comments */\n      0x03\n      add\n        /* \"src/libs/shop.sol\":4493:4542  Shops[idShop].bookOfMarks[idMark].comments.length */\n      dup1\n      sload\n      swap1\n      pop\n        /* \"src/libs/shop.sol\":4493:4546  Shops[idShop].bookOfMarks[idMark].comments.length - 1 */\n      tag_462\n      swap2\n      swap1\n      tag_81\n      jump\t// in\n    tag_462:\n        /* \"src/libs/shop.sol\":4422:4547  Shops[idShop]\r... */\n      dup2\n      sload\n      dup2\n      lt\n      tag_463\n      jumpi\n      tag_464\n      tag_71\n      jump\t// in\n    tag_464:\n    tag_463:\n      swap1\n      0x00\n      mstore\n      keccak256(0x00, 0x20)\n      swap1\n      0x03\n      mul\n      add\n        /* \"src/libs/shop.sol\":4422:4568  Shops[idShop]\r... */\n      0x00\n      add\n      0x00\n        /* \"src/libs/shop.sol\":4422:4581  Shops[idShop]\r... */\n      0x0100\n      exp\n      dup2\n      sload\n      dup2\n      0xffffffffffffffffffffffffffffffffffffffff\n      mul\n      not\n      and\n      swap1\n      dup4\n      0xffffffffffffffffffffffffffffffffffffffff\n      and\n      mul\n      or\n      swap1\n      sstore\n      pop\n        /* \"src/libs/shop.sol\":4746:4757  description */\n      dup1\n        /* \"src/libs/shop.sol\":4592:4597  Shops */\n      0x00\n        /* \"src/libs/shop.sol\":4598:4604  idShop */\n      dup5\n        /* \"src/libs/shop.sol\":4592:4605  Shops[idShop] */\n      dup2\n      sload\n      dup2\n      lt\n      tag_466\n      jumpi\n      tag_467\n      tag_71\n      jump\t// in\n    tag_467:\n    tag_466:\n      swap1\n      0x00\n      mstore\n      keccak256(0x00, 0x20)\n      swap1\n      0x04\n      mul\n      add\n        /* \"src/libs/shop.sol\":4592:4631  Shops[idShop]\r... */\n      0x02\n      add\n        /* \"src/libs/shop.sol\":4632:4638  idMark */\n      dup4\n        /* \"src/libs/shop.sol\":4592:4639  Shops[idShop]\r... */\n      dup2\n      sload\n      dup2\n      lt\n      tag_469\n      jumpi\n      tag_470\n      tag_71\n      jump\t// in\n    tag_470:\n    tag_469:\n      swap1\n      0x00\n      mstore\n      keccak256(0x00, 0x20)\n      swap1\n      0x05\n      mul\n      add\n        /* \"src/libs/shop.sol\":4592:4662  Shops[idShop]\r... */\n      0x03\n      add\n        /* \"src/libs/shop.sol\":4715:4716  1 */\n      0x01\n        /* \"src/libs/shop.sol\":4663:4668  Shops */\n      0x00\n        /* \"src/libs/shop.sol\":4669:4675  idShop */\n      dup7\n        /* \"src/libs/shop.sol\":4663:4676  Shops[idShop] */\n      dup2\n      sload\n      dup2\n      lt\n      tag_472\n      jumpi\n      tag_473\n      tag_71\n      jump\t// in\n    tag_473:\n    tag_472:\n      swap1\n      0x00\n      mstore\n      keccak256(0x00, 0x20)\n      swap1\n      0x04\n      mul\n      add\n        /* \"src/libs/shop.sol\":4663:4688  Shops[idShop].bookOfMarks */\n      0x02\n      add\n        /* \"src/libs/shop.sol\":4689:4695  idMark */\n      dup6\n        /* \"src/libs/shop.sol\":4663:4696  Shops[idShop].bookOfMarks[idMark] */\n      dup2\n      sload\n      dup2\n      lt\n      tag_475\n      jumpi\n      tag_476\n      tag_71\n      jump\t// in\n    tag_476:\n    tag_475:\n      swap1\n      0x00\n      mstore\n      keccak256(0x00, 0x20)\n      swap1\n      0x05\n      mul\n      add\n        /* \"src/libs/shop.sol\":4663:4705  Shops[idShop].bookOfMarks[idMark].comments */\n      0x03\n      add\n        /* \"src/libs/shop.sol\":4663:4712  Shops[idShop].bookOfMarks[idMark].comments.length */\n      dup1\n      sload\n      swap1\n      pop\n        /* \"src/libs/shop.sol\":4663:4716  Shops[idShop].bookOfMarks[idMark].comments.length - 1 */\n      tag_478\n      swap2\n      swap1\n      tag_81\n      jump\t// in\n    tag_478:\n        /* \"src/libs/shop.sol\":4592:4717  Shops[idShop]\r... */\n      dup2\n      sload\n      dup2\n      lt\n      tag_479\n      jumpi\n      tag_480\n      tag_71\n      jump\t// in\n    tag_480:\n    tag_479:\n      swap1\n      0x00\n      mstore\n      keccak256(0x00, 0x20)\n      swap1\n      0x03\n      mul\n      add\n        /* \"src/libs/shop.sol\":4592:4743  Shops[idShop]\r... */\n      0x02\n      add\n        /* \"src/libs/shop.sol\":4592:4757  Shops[idShop]\r... */\n      swap1\n      dup1\n      mload\n      swap1\n      0x20\n      add\n      swap1\n      tag_482\n      swap3\n      swap2\n      swap1\n      tag_106\n      jump\t// in\n    tag_482:\n      pop\n        /* \"src/libs/shop.sol\":4231:4765  function addComment(\r... */\n      pop\n      pop\n      pop\n      jump\t// out\n        /* \"src/libs/shop.sol\":7593:7684  function view_Users() public view returns (user[] memory) {\r... */\n    tag_65:\n        /* \"src/libs/shop.sol\":7636:7649  user[] memory */\n      0x60\n        /* \"src/libs/shop.sol\":7670:7675  Users */\n      0x01\n        /* \"src/libs/shop.sol\":7662:7676  return (Users) */\n      dup1\n      sload\n      dup1\n      0x20\n      mul\n      0x20\n      add\n      mload(0x40)\n      swap1\n      dup2\n      add\n      0x40\n      mstore\n      dup1\n      swap3\n      swap2\n      swap1\n      dup2\n      dup2\n      mstore\n      0x20\n      add\n      0x00\n      swap1\n    tag_484:\n      dup3\n      dup3\n      lt\n      iszero\n      tag_485\n      jumpi\n      dup4\n      dup3\n      swap1\n      0x00\n      mstore\n      keccak256(0x00, 0x20)\n      swap1\n      0x03\n      mul\n      add\n      mload(0x40)\n      dup1\n      0x60\n      add\n      0x40\n      mstore\n      swap1\n      dup2\n      0x00\n      dup3\n      add\n      0x00\n      swap1\n      sload\n      swap1\n      0x0100\n      exp\n      swap1\n      div\n      0xffffffffffffffffffffffffffffffffffffffff\n      and\n      0xffffffffffffffffffffffffffffffffffffffff\n      and\n      0xffffffffffffffffffffffffffffffffffffffff\n      and\n      dup2\n      mstore\n      0x20\n      add\n      0x01\n      dup3\n      add\n      sload\n      dup2\n      mstore\n      0x20\n      add\n      0x02\n      dup3\n      add\n      sload\n      dup2\n      mstore\n      pop\n      pop\n      dup2\n      mstore\n      0x20\n      add\n      swap1\n      0x01\n      add\n      swap1\n      jump(tag_484)\n    tag_485:\n      pop\n      pop\n      pop\n      pop\n      swap1\n      pop\n        /* \"src/libs/shop.sol\":7593:7684  function view_Users() public view returns (user[] memory) {\r... */\n      swap1\n      jump\t// out\n    tag_106:\n      dup3\n      dup1\n      sload\n      tag_487\n      swap1\n      tag_223\n      jump\t// in\n    tag_487:\n      swap1\n      0x00\n      mstore\n      keccak256(0x00, 0x20)\n      swap1\n      0x1f\n      add\n      0x20\n      swap1\n      div\n      dup2\n      add\n      swap3\n      dup3\n      tag_489\n      jumpi\n      0x00\n      dup6\n      sstore\n      jump(tag_488)\n    tag_489:\n      dup3\n      0x1f\n      lt\n      tag_490\n      jumpi\n      dup1\n      mload\n      not(0xff)\n      and\n      dup4\n      dup1\n      add\n      or\n      dup6\n      sstore\n      jump(tag_488)\n    tag_490:\n      dup3\n      dup1\n      add\n      0x01\n      add\n      dup6\n      sstore\n      dup3\n      iszero\n      tag_488\n      jumpi\n      swap2\n      dup3\n      add\n    tag_491:\n      dup3\n      dup2\n      gt\n      iszero\n      tag_492\n      jumpi\n      dup3\n      mload\n      dup3\n      sstore\n      swap2\n      0x20\n      add\n      swap2\n      swap1\n      0x01\n      add\n      swap1\n      jump(tag_491)\n    tag_492:\n    tag_488:\n      pop\n      swap1\n      pop\n      tag_493\n      swap2\n      swap1\n      tag_494\n      jump\t// in\n    tag_493:\n      pop\n      swap1\n      jump\t// out\n    tag_314:\n      pop\n      dup1\n      sload\n      tag_495\n      swap1\n      tag_223\n      jump\t// in\n    tag_495:\n      0x00\n      dup3\n      sstore\n      dup1\n      0x1f\n      lt\n      tag_497\n      jumpi\n      pop\n      jump(tag_496)\n    tag_497:\n      0x1f\n      add\n      0x20\n      swap1\n      div\n      swap1\n      0x00\n      mstore\n      keccak256(0x00, 0x20)\n      swap1\n      dup2\n      add\n      swap1\n      tag_498\n      swap2\n      swap1\n      tag_494\n      jump\t// in\n    tag_498:\n    tag_496:\n      pop\n      jump\t// out\n    tag_316:\n      pop\n      dup1\n      sload\n      0x00\n      dup3\n      sstore\n      0x05\n      mul\n      swap1\n      0x00\n      mstore\n      keccak256(0x00, 0x20)\n      swap1\n      dup2\n      add\n      swap1\n      tag_500\n      swap2\n      swap1\n      tag_501\n      jump\t// in\n    tag_500:\n      pop\n      jump\t// out\n    tag_318:\n      pop\n      dup1\n      sload\n      0x00\n      dup3\n      sstore\n      swap1\n      0x00\n      mstore\n      keccak256(0x00, 0x20)\n      swap1\n      dup2\n      add\n      swap1\n      tag_503\n      swap2\n      swap1\n      tag_494\n      jump\t// in\n    tag_503:\n      pop\n      jump\t// out\n    tag_494:\n    tag_504:\n      dup1\n      dup3\n      gt\n      iszero\n      tag_505\n      jumpi\n      0x00\n      dup2\n      0x00\n      swap1\n      sstore\n      pop\n      0x01\n      add\n      jump(tag_504)\n    tag_505:\n      pop\n      swap1\n      jump\t// out\n    tag_501:\n    tag_506:\n      dup1\n      dup3\n      gt\n      iszero\n      tag_507\n      jumpi\n      0x00\n      dup1\n      dup3\n      add\n      exp(0x0100, 0x00)\n      dup2\n      sload\n      swap1\n      0xffffffffffffffffffffffffffffffffffffffff\n      mul\n      not\n      and\n      swap1\n      sstore\n      0x01\n      dup3\n      add\n      0x00\n      swap1\n      sstore\n      0x02\n      dup3\n      add\n      0x00\n      tag_508\n      swap2\n      swap1\n      tag_509\n      jump\t// in\n    tag_508:\n      0x03\n      dup3\n      add\n      0x00\n      tag_510\n      swap2\n      swap1\n      tag_511\n      jump\t// in\n    tag_510:\n      0x04\n      dup3\n      add\n      0x00\n      tag_512\n      swap2\n      swap1\n      tag_314\n      jump\t// in\n    tag_512:\n      pop\n      0x05\n      add\n      jump(tag_506)\n    tag_507:\n      pop\n      swap1\n      jump\t// out\n    tag_509:\n      pop\n      dup1\n      sload\n      0x00\n      dup3\n      sstore\n      swap1\n      0x00\n      mstore\n      keccak256(0x00, 0x20)\n      swap1\n      dup2\n      add\n      swap1\n      tag_514\n      swap2\n      swap1\n      tag_515\n      jump\t// in\n    tag_514:\n      pop\n      jump\t// out\n    tag_511:\n      pop\n      dup1\n      sload\n      0x00\n      dup3\n      sstore\n      0x03\n      mul\n      swap1\n      0x00\n      mstore\n      keccak256(0x00, 0x20)\n      swap1\n      dup2\n      add\n      swap1\n      tag_517\n      swap2\n      swap1\n      tag_518\n      jump\t// in\n    tag_517:\n      pop\n      jump\t// out\n    tag_515:\n    tag_519:\n      dup1\n      dup3\n      gt\n      iszero\n      tag_520\n      jumpi\n      0x00\n      dup1\n      dup3\n      add\n      exp(0x0100, 0x00)\n      dup2\n      sload\n      swap1\n      0xffffffffffffffffffffffffffffffffffffffff\n      mul\n      not\n      and\n      swap1\n      sstore\n      0x00\n      dup3\n      add\n      exp(0x0100, 0x14)\n      dup2\n      sload\n      swap1\n      0xff\n      mul\n      not\n      and\n      swap1\n      sstore\n      pop\n      0x01\n      add\n      jump(tag_519)\n    tag_520:\n      pop\n      swap1\n      jump\t// out\n    tag_518:\n    tag_521:\n      dup1\n      dup3\n      gt\n      iszero\n      tag_522\n      jumpi\n      0x00\n      dup1\n      dup3\n      add\n      exp(0x0100, 0x00)\n      dup2\n      sload\n      swap1\n      0xffffffffffffffffffffffffffffffffffffffff\n      mul\n      not\n      and\n      swap1\n      sstore\n      0x01\n      dup3\n      add\n      0x00\n      tag_523\n      swap2\n      swap1\n      tag_509\n      jump\t// in\n    tag_523:\n      0x02\n      dup3\n      add\n      0x00\n      tag_524\n      swap2\n      swap1\n      tag_314\n      jump\t// in\n    tag_524:\n      pop\n      0x03\n      add\n      jump(tag_521)\n    tag_522:\n      pop\n      swap1\n      jump\t// out\n        /* \"#utility.yul\":7:419   */\n    tag_526:\n        /* \"#utility.yul\":85:90   */\n      0x00\n        /* \"#utility.yul\":110:176   */\n      tag_528\n        /* \"#utility.yul\":126:175   */\n      tag_529\n        /* \"#utility.yul\":168:174   */\n      dup5\n        /* \"#utility.yul\":126:175   */\n      tag_530\n      jump\t// in\n    tag_529:\n        /* \"#utility.yul\":110:176   */\n      tag_531\n      jump\t// in\n    tag_528:\n        /* \"#utility.yul\":101:176   */\n      swap1\n      pop\n        /* \"#utility.yul\":199:205   */\n      dup3\n        /* \"#utility.yul\":192:197   */\n      dup2\n        /* \"#utility.yul\":185:206   */\n      mstore\n        /* \"#utility.yul\":237:241   */\n      0x20\n        /* \"#utility.yul\":230:235   */\n      dup2\n        /* \"#utility.yul\":226:242   */\n      add\n        /* \"#utility.yul\":275:278   */\n      dup5\n        /* \"#utility.yul\":266:272   */\n      dup5\n        /* \"#utility.yul\":261:264   */\n      dup5\n        /* \"#utility.yul\":257:273   */\n      add\n        /* \"#utility.yul\":254:279   */\n      gt\n        /* \"#utility.yul\":251:363   */\n      iszero\n      tag_532\n      jumpi\n        /* \"#utility.yul\":282:361   */\n      tag_533\n      tag_534\n      jump\t// in\n    tag_533:\n        /* \"#utility.yul\":251:363   */\n    tag_532:\n        /* \"#utility.yul\":372:413   */\n      tag_535\n        /* \"#utility.yul\":406:412   */\n      dup5\n        /* \"#utility.yul\":401:404   */\n      dup3\n        /* \"#utility.yul\":396:399   */\n      dup6\n        /* \"#utility.yul\":372:413   */\n      tag_536\n      jump\t// in\n    tag_535:\n        /* \"#utility.yul\":91:419   */\n      pop\n        /* \"#utility.yul\":7:419   */\n      swap4\n      swap3\n      pop\n      pop\n      pop\n      jump\t// out\n        /* \"#utility.yul\":425:564   */\n    tag_537:\n        /* \"#utility.yul\":471:476   */\n      0x00\n        /* \"#utility.yul\":509:515   */\n      dup2\n        /* \"#utility.yul\":496:516   */\n      calldataload\n        /* \"#utility.yul\":487:516   */\n      swap1\n      pop\n        /* \"#utility.yul\":525:558   */\n      tag_539\n        /* \"#utility.yul\":552:557   */\n      dup2\n        /* \"#utility.yul\":525:558   */\n      tag_540\n      jump\t// in\n    tag_539:\n        /* \"#utility.yul\":425:564   */\n      swap3\n      swap2\n      pop\n      pop\n      jump\t// out\n        /* \"#utility.yul\":570:703   */\n    tag_541:\n        /* \"#utility.yul\":613:618   */\n      0x00\n        /* \"#utility.yul\":651:657   */\n      dup2\n        /* \"#utility.yul\":638:658   */\n      calldataload\n        /* \"#utility.yul\":629:658   */\n      swap1\n      pop\n        /* \"#utility.yul\":667:697   */\n      tag_543\n        /* \"#utility.yul\":691:696   */\n      dup2\n        /* \"#utility.yul\":667:697   */\n      tag_544\n      jump\t// in\n    tag_543:\n        /* \"#utility.yul\":570:703   */\n      swap3\n      swap2\n      pop\n      pop\n      jump\t// out\n        /* \"#utility.yul\":723:1063   */\n    tag_545:\n        /* \"#utility.yul\":779:784   */\n      0x00\n        /* \"#utility.yul\":828:831   */\n      dup3\n        /* \"#utility.yul\":821:825   */\n      0x1f\n        /* \"#utility.yul\":813:819   */\n      dup4\n        /* \"#utility.yul\":809:826   */\n      add\n        /* \"#utility.yul\":805:832   */\n      slt\n        /* \"#utility.yul\":795:917   */\n      tag_547\n      jumpi\n        /* \"#utility.yul\":836:915   */\n      tag_548\n      tag_549\n      jump\t// in\n    tag_548:\n        /* \"#utility.yul\":795:917   */\n    tag_547:\n        /* \"#utility.yul\":953:959   */\n      dup2\n        /* \"#utility.yul\":940:960   */\n      calldataload\n        /* \"#utility.yul\":978:1057   */\n      tag_550\n        /* \"#utility.yul\":1053:1056   */\n      dup5\n        /* \"#utility.yul\":1045:1051   */\n      dup3\n        /* \"#utility.yul\":1038:1042   */\n      0x20\n        /* \"#utility.yul\":1030:1036   */\n      dup7\n        /* \"#utility.yul\":1026:1043   */\n      add\n        /* \"#utility.yul\":978:1057   */\n      tag_526\n      jump\t// in\n    tag_550:\n        /* \"#utility.yul\":969:1057   */\n      swap2\n      pop\n        /* \"#utility.yul\":785:1063   */\n      pop\n        /* \"#utility.yul\":723:1063   */\n      swap3\n      swap2\n      pop\n      pop\n      jump\t// out\n        /* \"#utility.yul\":1069:1208   */\n    tag_551:\n        /* \"#utility.yul\":1115:1120   */\n      0x00\n        /* \"#utility.yul\":1153:1159   */\n      dup2\n        /* \"#utility.yul\":1140:1160   */\n      calldataload\n        /* \"#utility.yul\":1131:1160   */\n      swap1\n      pop\n        /* \"#utility.yul\":1169:1202   */\n      tag_553\n        /* \"#utility.yul\":1196:1201   */\n      dup2\n        /* \"#utility.yul\":1169:1202   */\n      tag_554\n      jump\t// in\n    tag_553:\n        /* \"#utility.yul\":1069:1208   */\n      swap3\n      swap2\n      pop\n      pop\n      jump\t// out\n        /* \"#utility.yul\":1214:1543   */\n    tag_59:\n        /* \"#utility.yul\":1273:1279   */\n      0x00\n        /* \"#utility.yul\":1322:1324   */\n      0x20\n        /* \"#utility.yul\":1310:1319   */\n      dup3\n        /* \"#utility.yul\":1301:1308   */\n      dup5\n        /* \"#utility.yul\":1297:1320   */\n      sub\n        /* \"#utility.yul\":1293:1325   */\n      slt\n        /* \"#utility.yul\":1290:1409   */\n      iszero\n      tag_556\n      jumpi\n        /* \"#utility.yul\":1328:1407   */\n      tag_557\n      tag_558\n      jump\t// in\n    tag_557:\n        /* \"#utility.yul\":1290:1409   */\n    tag_556:\n        /* \"#utility.yul\":1448:1449   */\n      0x00\n        /* \"#utility.yul\":1473:1526   */\n      tag_559\n        /* \"#utility.yul\":1518:1525   */\n      dup5\n        /* \"#utility.yul\":1509:1515   */\n      dup3\n        /* \"#utility.yul\":1498:1507   */\n      dup6\n        /* \"#utility.yul\":1494:1516   */\n      add\n        /* \"#utility.yul\":1473:1526   */\n      tag_537\n      jump\t// in\n    tag_559:\n        /* \"#utility.yul\":1463:1526   */\n      swap2\n      pop\n        /* \"#utility.yul\":1419:1536   */\n      pop\n        /* \"#utility.yul\":1214:1543   */\n      swap3\n      swap2\n      pop\n      pop\n      jump\t// out\n        /* \"#utility.yul\":1549:2203   */\n    tag_30:\n        /* \"#utility.yul\":1627:1633   */\n      0x00\n        /* \"#utility.yul\":1635:1641   */\n      dup1\n        /* \"#utility.yul\":1684:1686   */\n      0x40\n        /* \"#utility.yul\":1672:1681   */\n      dup4\n        /* \"#utility.yul\":1663:1670   */\n      dup6\n        /* \"#utility.yul\":1659:1682   */\n      sub\n        /* \"#utility.yul\":1655:1687   */\n      slt\n        /* \"#utility.yul\":1652:1771   */\n      iszero\n      tag_561\n      jumpi\n        /* \"#utility.yul\":1690:1769   */\n      tag_562\n      tag_558\n      jump\t// in\n    tag_562:\n        /* \"#utility.yul\":1652:1771   */\n    tag_561:\n        /* \"#utility.yul\":1810:1811   */\n      0x00\n        /* \"#utility.yul\":1835:1888   */\n      tag_563\n        /* \"#utility.yul\":1880:1887   */\n      dup6\n        /* \"#utility.yul\":1871:1877   */\n      dup3\n        /* \"#utility.yul\":1860:1869   */\n      dup7\n        /* \"#utility.yul\":1856:1878   */\n      add\n        /* \"#utility.yul\":1835:1888   */\n      tag_537\n      jump\t// in\n    tag_563:\n        /* \"#utility.yul\":1825:1888   */\n      swap3\n      pop\n        /* \"#utility.yul\":1781:1898   */\n      pop\n        /* \"#utility.yul\":1965:1967   */\n      0x20\n        /* \"#utility.yul\":1954:1963   */\n      dup4\n        /* \"#utility.yul\":1950:1968   */\n      add\n        /* \"#utility.yul\":1937:1969   */\n      calldataload\n        /* \"#utility.yul\":1996:2014   */\n      0xffffffffffffffff\n        /* \"#utility.yul\":1988:1994   */\n      dup2\n        /* \"#utility.yul\":1985:2015   */\n      gt\n        /* \"#utility.yul\":1982:2099   */\n      iszero\n      tag_564\n      jumpi\n        /* \"#utility.yul\":2018:2097   */\n      tag_565\n      tag_566\n      jump\t// in\n    tag_565:\n        /* \"#utility.yul\":1982:2099   */\n    tag_564:\n        /* \"#utility.yul\":2123:2186   */\n      tag_567\n        /* \"#utility.yul\":2178:2185   */\n      dup6\n        /* \"#utility.yul\":2169:2175   */\n      dup3\n        /* \"#utility.yul\":2158:2167   */\n      dup7\n        /* \"#utility.yul\":2154:2176   */\n      add\n        /* \"#utility.yul\":2123:2186   */\n      tag_545\n      jump\t// in\n    tag_567:\n        /* \"#utility.yul\":2113:2186   */\n      swap2\n      pop\n        /* \"#utility.yul\":1908:2196   */\n      pop\n        /* \"#utility.yul\":1549:2203   */\n      swap3\n      pop\n      swap3\n      swap1\n      pop\n      jump\t// out\n        /* \"#utility.yul\":2209:2538   */\n    tag_26:\n        /* \"#utility.yul\":2268:2274   */\n      0x00\n        /* \"#utility.yul\":2317:2319   */\n      0x20\n        /* \"#utility.yul\":2305:2314   */\n      dup3\n        /* \"#utility.yul\":2296:2303   */\n      dup5\n        /* \"#utility.yul\":2292:2315   */\n      sub\n        /* \"#utility.yul\":2288:2320   */\n      slt\n        /* \"#utility.yul\":2285:2404   */\n      iszero\n      tag_569\n      jumpi\n        /* \"#utility.yul\":2323:2402   */\n      tag_570\n      tag_558\n      jump\t// in\n    tag_570:\n        /* \"#utility.yul\":2285:2404   */\n    tag_569:\n        /* \"#utility.yul\":2443:2444   */\n      0x00\n        /* \"#utility.yul\":2468:2521   */\n      tag_571\n        /* \"#utility.yul\":2513:2520   */\n      dup5\n        /* \"#utility.yul\":2504:2510   */\n      dup3\n        /* \"#utility.yul\":2493:2502   */\n      dup6\n        /* \"#utility.yul\":2489:2511   */\n      add\n        /* \"#utility.yul\":2468:2521   */\n      tag_551\n      jump\t// in\n    tag_571:\n        /* \"#utility.yul\":2458:2521   */\n      swap2\n      pop\n        /* \"#utility.yul\":2414:2531   */\n      pop\n        /* \"#utility.yul\":2209:2538   */\n      swap3\n      swap2\n      pop\n      pop\n      jump\t// out\n        /* \"#utility.yul\":2544:3157   */\n    tag_49:\n        /* \"#utility.yul\":2618:2624   */\n      0x00\n        /* \"#utility.yul\":2626:2632   */\n      dup1\n        /* \"#utility.yul\":2634:2640   */\n      0x00\n        /* \"#utility.yul\":2683:2685   */\n      0x60\n        /* \"#utility.yul\":2671:2680   */\n      dup5\n        /* \"#utility.yul\":2662:2669   */\n      dup7\n        /* \"#utility.yul\":2658:2681   */\n      sub\n        /* \"#utility.yul\":2654:2686   */\n      slt\n        /* \"#utility.yul\":2651:2770   */\n      iszero\n      tag_573\n      jumpi\n        /* \"#utility.yul\":2689:2768   */\n      tag_574\n      tag_558\n      jump\t// in\n    tag_574:\n        /* \"#utility.yul\":2651:2770   */\n    tag_573:\n        /* \"#utility.yul\":2809:2810   */\n      0x00\n        /* \"#utility.yul\":2834:2887   */\n      tag_575\n        /* \"#utility.yul\":2879:2886   */\n      dup7\n        /* \"#utility.yul\":2870:2876   */\n      dup3\n        /* \"#utility.yul\":2859:2868   */\n      dup8\n        /* \"#utility.yul\":2855:2877   */\n      add\n        /* \"#utility.yul\":2834:2887   */\n      tag_551\n      jump\t// in\n    tag_575:\n        /* \"#utility.yul\":2824:2887   */\n      swap4\n      pop\n        /* \"#utility.yul\":2780:2897   */\n      pop\n        /* \"#utility.yul\":2936:2938   */\n      0x20\n        /* \"#utility.yul\":2962:3015   */\n      tag_576\n        /* \"#utility.yul\":3007:3014   */\n      dup7\n        /* \"#utility.yul\":2998:3004   */\n      dup3\n        /* \"#utility.yul\":2987:2996   */\n      dup8\n        /* \"#utility.yul\":2983:3005   */\n      add\n        /* \"#utility.yul\":2962:3015   */\n      tag_551\n      jump\t// in\n    tag_576:\n        /* \"#utility.yul\":2952:3015   */\n      swap3\n      pop\n        /* \"#utility.yul\":2907:3025   */\n      pop\n        /* \"#utility.yul\":3064:3066   */\n      0x40\n        /* \"#utility.yul\":3090:3140   */\n      tag_577\n        /* \"#utility.yul\":3132:3139   */\n      dup7\n        /* \"#utility.yul\":3123:3129   */\n      dup3\n        /* \"#utility.yul\":3112:3121   */\n      dup8\n        /* \"#utility.yul\":3108:3130   */\n      add\n        /* \"#utility.yul\":3090:3140   */\n      tag_541\n      jump\t// in\n    tag_577:\n        /* \"#utility.yul\":3080:3140   */\n      swap2\n      pop\n        /* \"#utility.yul\":3035:3150   */\n      pop\n        /* \"#utility.yul\":2544:3157   */\n      swap3\n      pop\n      swap3\n      pop\n      swap3\n      jump\t// out\n        /* \"#utility.yul\":3163:3962   */\n    tag_22:\n        /* \"#utility.yul\":3250:3256   */\n      0x00\n        /* \"#utility.yul\":3258:3264   */\n      dup1\n        /* \"#utility.yul\":3266:3272   */\n      0x00\n        /* \"#utility.yul\":3315:3317   */\n      0x60\n        /* \"#utility.yul\":3303:3312   */\n      dup5\n        /* \"#utility.yul\":3294:3301   */\n      dup7\n        /* \"#utility.yul\":3290:3313   */\n      sub\n        /* \"#utility.yul\":3286:3318   */\n      slt\n        /* \"#utility.yul\":3283:3402   */\n      iszero\n      tag_579\n      jumpi\n        /* \"#utility.yul\":3321:3400   */\n      tag_580\n      tag_558\n      jump\t// in\n    tag_580:\n        /* \"#utility.yul\":3283:3402   */\n    tag_579:\n        /* \"#utility.yul\":3441:3442   */\n      0x00\n        /* \"#utility.yul\":3466:3519   */\n      tag_581\n        /* \"#utility.yul\":3511:3518   */\n      dup7\n        /* \"#utility.yul\":3502:3508   */\n      dup3\n        /* \"#utility.yul\":3491:3500   */\n      dup8\n        /* \"#utility.yul\":3487:3509   */\n      add\n        /* \"#utility.yul\":3466:3519   */\n      tag_551\n      jump\t// in\n    tag_581:\n        /* \"#utility.yul\":3456:3519   */\n      swap4\n      pop\n        /* \"#utility.yul\":3412:3529   */\n      pop\n        /* \"#utility.yul\":3568:3570   */\n      0x20\n        /* \"#utility.yul\":3594:3647   */\n      tag_582\n        /* \"#utility.yul\":3639:3646   */\n      dup7\n        /* \"#utility.yul\":3630:3636   */\n      dup3\n        /* \"#utility.yul\":3619:3628   */\n      dup8\n        /* \"#utility.yul\":3615:3637   */\n      add\n        /* \"#utility.yul\":3594:3647   */\n      tag_551\n      jump\t// in\n    tag_582:\n        /* \"#utility.yul\":3584:3647   */\n      swap3\n      pop\n        /* \"#utility.yul\":3539:3657   */\n      pop\n        /* \"#utility.yul\":3724:3726   */\n      0x40\n        /* \"#utility.yul\":3713:3722   */\n      dup5\n        /* \"#utility.yul\":3709:3727   */\n      add\n        /* \"#utility.yul\":3696:3728   */\n      calldataload\n        /* \"#utility.yul\":3755:3773   */\n      0xffffffffffffffff\n        /* \"#utility.yul\":3747:3753   */\n      dup2\n        /* \"#utility.yul\":3744:3774   */\n      gt\n        /* \"#utility.yul\":3741:3858   */\n      iszero\n      tag_583\n      jumpi\n        /* \"#utility.yul\":3777:3856   */\n      tag_584\n      tag_566\n      jump\t// in\n    tag_584:\n        /* \"#utility.yul\":3741:3858   */\n    tag_583:\n        /* \"#utility.yul\":3882:3945   */\n      tag_585\n        /* \"#utility.yul\":3937:3944   */\n      dup7\n        /* \"#utility.yul\":3928:3934   */\n      dup3\n        /* \"#utility.yul\":3917:3926   */\n      dup8\n        /* \"#utility.yul\":3913:3935   */\n      add\n        /* \"#utility.yul\":3882:3945   */\n      tag_545\n      jump\t// in\n    tag_585:\n        /* \"#utility.yul\":3872:3945   */\n      swap2\n      pop\n        /* \"#utility.yul\":3667:3955   */\n      pop\n        /* \"#utility.yul\":3163:3962   */\n      swap3\n      pop\n      swap3\n      pop\n      swap3\n      jump\t// out\n        /* \"#utility.yul\":3968:4727   */\n    tag_55:\n        /* \"#utility.yul\":4051:4057   */\n      0x00\n        /* \"#utility.yul\":4059:4065   */\n      dup1\n        /* \"#utility.yul\":4067:4073   */\n      0x00\n        /* \"#utility.yul\":4075:4081   */\n      dup1\n        /* \"#utility.yul\":4124:4127   */\n      0x80\n        /* \"#utility.yul\":4112:4121   */\n      dup6\n        /* \"#utility.yul\":4103:4110   */\n      dup8\n        /* \"#utility.yul\":4099:4122   */\n      sub\n        /* \"#utility.yul\":4095:4128   */\n      slt\n        /* \"#utility.yul\":4092:4212   */\n      iszero\n      tag_587\n      jumpi\n        /* \"#utility.yul\":4131:4210   */\n      tag_588\n      tag_558\n      jump\t// in\n    tag_588:\n        /* \"#utility.yul\":4092:4212   */\n    tag_587:\n        /* \"#utility.yul\":4251:4252   */\n      0x00\n        /* \"#utility.yul\":4276:4329   */\n      tag_589\n        /* \"#utility.yul\":4321:4328   */\n      dup8\n        /* \"#utility.yul\":4312:4318   */\n      dup3\n        /* \"#utility.yul\":4301:4310   */\n      dup9\n        /* \"#utility.yul\":4297:4319   */\n      add\n        /* \"#utility.yul\":4276:4329   */\n      tag_551\n      jump\t// in\n    tag_589:\n        /* \"#utility.yul\":4266:4329   */\n      swap5\n      pop\n        /* \"#utility.yul\":4222:4339   */\n      pop\n        /* \"#utility.yul\":4378:4380   */\n      0x20\n        /* \"#utility.yul\":4404:4457   */\n      tag_590\n        /* \"#utility.yul\":4449:4456   */\n      dup8\n        /* \"#utility.yul\":4440:4446   */\n      dup3\n        /* \"#utility.yul\":4429:4438   */\n      dup9\n        /* \"#utility.yul\":4425:4447   */\n      add\n        /* \"#utility.yul\":4404:4457   */\n      tag_551\n      jump\t// in\n    tag_590:\n        /* \"#utility.yul\":4394:4457   */\n      swap4\n      pop\n        /* \"#utility.yul\":4349:4467   */\n      pop\n        /* \"#utility.yul\":4506:4508   */\n      0x40\n        /* \"#utility.yul\":4532:4585   */\n      tag_591\n        /* \"#utility.yul\":4577:4584   */\n      dup8\n        /* \"#utility.yul\":4568:4574   */\n      dup3\n        /* \"#utility.yul\":4557:4566   */\n      dup9\n        /* \"#utility.yul\":4553:4575   */\n      add\n        /* \"#utility.yul\":4532:4585   */\n      tag_551\n      jump\t// in\n    tag_591:\n        /* \"#utility.yul\":4522:4585   */\n      swap3\n      pop\n        /* \"#utility.yul\":4477:4595   */\n      pop\n        /* \"#utility.yul\":4634:4636   */\n      0x60\n        /* \"#utility.yul\":4660:4710   */\n      tag_592\n        /* \"#utility.yul\":4702:4709   */\n      dup8\n        /* \"#utility.yul\":4693:4699   */\n      dup3\n        /* \"#utility.yul\":4682:4691   */\n      dup9\n        /* \"#utility.yul\":4678:4700   */\n      add\n        /* \"#utility.yul\":4660:4710   */\n      tag_541\n      jump\t// in\n    tag_592:\n        /* \"#utility.yul\":4650:4710   */\n      swap2\n      pop\n        /* \"#utility.yul\":4605:4720   */\n      pop\n        /* \"#utility.yul\":3968:4727   */\n      swap3\n      swap6\n      swap2\n      swap5\n      pop\n      swap3\n      pop\n      jump\t// out\n        /* \"#utility.yul\":4733:4981   */\n    tag_593:\n        /* \"#utility.yul\":4848:4858   */\n      0x00\n        /* \"#utility.yul\":4883:4975   */\n      tag_595\n        /* \"#utility.yul\":4971:4974   */\n      dup4\n        /* \"#utility.yul\":4963:4969   */\n      dup4\n        /* \"#utility.yul\":4883:4975   */\n      tag_596\n      jump\t// in\n    tag_595:\n        /* \"#utility.yul\":4869:4975   */\n      swap1\n      pop\n        /* \"#utility.yul\":4733:4981   */\n      swap3\n      swap2\n      pop\n      pop\n      jump\t// out\n        /* \"#utility.yul\":4987:5246   */\n    tag_597:\n        /* \"#utility.yul\":5096:5106   */\n      0x00\n        /* \"#utility.yul\":5117:5203   */\n      tag_599\n        /* \"#utility.yul\":5199:5202   */\n      dup4\n        /* \"#utility.yul\":5191:5197   */\n      dup4\n        /* \"#utility.yul\":5117:5203   */\n      tag_600\n      jump\t// in\n    tag_599:\n        /* \"#utility.yul\":5235:5239   */\n      0x40\n        /* \"#utility.yul\":5230:5233   */\n      dup4\n        /* \"#utility.yul\":5226:5240   */\n      add\n        /* \"#utility.yul\":5212:5240   */\n      swap1\n      pop\n        /* \"#utility.yul\":4987:5246   */\n      swap3\n      swap2\n      pop\n      pop\n      jump\t// out\n        /* \"#utility.yul\":5252:5488   */\n    tag_601:\n        /* \"#utility.yul\":5361:5371   */\n      0x00\n        /* \"#utility.yul\":5396:5482   */\n      tag_603\n        /* \"#utility.yul\":5478:5481   */\n      dup4\n        /* \"#utility.yul\":5470:5476   */\n      dup4\n        /* \"#utility.yul\":5396:5482   */\n      tag_604\n      jump\t// in\n    tag_603:\n        /* \"#utility.yul\":5382:5482   */\n      swap1\n      pop\n        /* \"#utility.yul\":5252:5488   */\n      swap3\n      swap2\n      pop\n      pop\n      jump\t// out\n        /* \"#utility.yul\":5494:5765   */\n    tag_605:\n        /* \"#utility.yul\":5609:5619   */\n      0x00\n        /* \"#utility.yul\":5630:5722   */\n      tag_607\n        /* \"#utility.yul\":5718:5721   */\n      dup4\n        /* \"#utility.yul\":5710:5716   */\n      dup4\n        /* \"#utility.yul\":5630:5722   */\n      tag_608\n      jump\t// in\n    tag_607:\n        /* \"#utility.yul\":5754:5758   */\n      0x40\n        /* \"#utility.yul\":5749:5752   */\n      dup4\n        /* \"#utility.yul\":5745:5759   */\n      add\n        /* \"#utility.yul\":5731:5759   */\n      swap1\n      pop\n        /* \"#utility.yul\":5494:5765   */\n      swap3\n      swap2\n      pop\n      pop\n      jump\t// out\n        /* \"#utility.yul\":5771:6007   */\n    tag_609:\n        /* \"#utility.yul\":5880:5890   */\n      0x00\n        /* \"#utility.yul\":5915:6001   */\n      tag_611\n        /* \"#utility.yul\":5997:6000   */\n      dup4\n        /* \"#utility.yul\":5989:5995   */\n      dup4\n        /* \"#utility.yul\":5915:6001   */\n      tag_612\n      jump\t// in\n    tag_611:\n        /* \"#utility.yul\":5901:6001   */\n      swap1\n      pop\n        /* \"#utility.yul\":5771:6007   */\n      swap3\n      swap2\n      pop\n      pop\n      jump\t// out\n        /* \"#utility.yul\":6013:6268   */\n    tag_613:\n        /* \"#utility.yul\":6120:6130   */\n      0x00\n        /* \"#utility.yul\":6141:6225   */\n      tag_615\n        /* \"#utility.yul\":6221:6224   */\n      dup4\n        /* \"#utility.yul\":6213:6219   */\n      dup4\n        /* \"#utility.yul\":6141:6225   */\n      tag_616\n      jump\t// in\n    tag_615:\n        /* \"#utility.yul\":6257:6261   */\n      0x60\n        /* \"#utility.yul\":6252:6255   */\n      dup4\n        /* \"#utility.yul\":6248:6262   */\n      add\n        /* \"#utility.yul\":6234:6262   */\n      swap1\n      pop\n        /* \"#utility.yul\":6013:6268   */\n      swap3\n      swap2\n      pop\n      pop\n      jump\t// out\n        /* \"#utility.yul\":6274:6453   */\n    tag_617:\n        /* \"#utility.yul\":6343:6353   */\n      0x00\n        /* \"#utility.yul\":6364:6410   */\n      tag_619\n        /* \"#utility.yul\":6406:6409   */\n      dup4\n        /* \"#utility.yul\":6398:6404   */\n      dup4\n        /* \"#utility.yul\":6364:6410   */\n      tag_620\n      jump\t// in\n    tag_619:\n        /* \"#utility.yul\":6442:6446   */\n      0x20\n        /* \"#utility.yul\":6437:6440   */\n      dup4\n        /* \"#utility.yul\":6433:6447   */\n      add\n        /* \"#utility.yul\":6419:6447   */\n      swap1\n      pop\n        /* \"#utility.yul\":6274:6453   */\n      swap3\n      swap2\n      pop\n      pop\n      jump\t// out\n        /* \"#utility.yul\":6459:6567   */\n    tag_621:\n        /* \"#utility.yul\":6536:6560   */\n      tag_623\n        /* \"#utility.yul\":6554:6559   */\n      dup2\n        /* \"#utility.yul\":6536:6560   */\n      tag_624\n      jump\t// in\n    tag_623:\n        /* \"#utility.yul\":6531:6534   */\n      dup3\n        /* \"#utility.yul\":6524:6561   */\n      mstore\n        /* \"#utility.yul\":6459:6567   */\n      pop\n      pop\n      jump\t// out\n        /* \"#utility.yul\":6627:7702   */\n    tag_625:\n        /* \"#utility.yul\":6782:6785   */\n      0x00\n        /* \"#utility.yul\":6811:6888   */\n      tag_627\n        /* \"#utility.yul\":6882:6887   */\n      dup3\n        /* \"#utility.yul\":6811:6888   */\n      tag_628\n      jump\t// in\n    tag_627:\n        /* \"#utility.yul\":6904:7003   */\n      tag_629\n        /* \"#utility.yul\":6996:7002   */\n      dup2\n        /* \"#utility.yul\":6991:6994   */\n      dup6\n        /* \"#utility.yul\":6904:7003   */\n      tag_630\n      jump\t// in\n    tag_629:\n        /* \"#utility.yul\":6897:7003   */\n      swap4\n      pop\n        /* \"#utility.yul\":7029:7032   */\n      dup4\n        /* \"#utility.yul\":7074:7078   */\n      0x20\n        /* \"#utility.yul\":7066:7072   */\n      dup3\n        /* \"#utility.yul\":7062:7079   */\n      mul\n        /* \"#utility.yul\":7057:7060   */\n      dup6\n        /* \"#utility.yul\":7053:7080   */\n      add\n        /* \"#utility.yul\":7104:7183   */\n      tag_631\n        /* \"#utility.yul\":7177:7182   */\n      dup6\n        /* \"#utility.yul\":7104:7183   */\n      tag_632\n      jump\t// in\n    tag_631:\n        /* \"#utility.yul\":7206:7213   */\n      dup1\n        /* \"#utility.yul\":7237:7238   */\n      0x00\n        /* \"#utility.yul\":7222:7657   */\n    tag_633:\n        /* \"#utility.yul\":7247:7253   */\n      dup6\n        /* \"#utility.yul\":7244:7245   */\n      dup2\n        /* \"#utility.yul\":7241:7254   */\n      lt\n        /* \"#utility.yul\":7222:7657   */\n      iszero\n      tag_635\n      jumpi\n        /* \"#utility.yul\":7318:7327   */\n      dup5\n        /* \"#utility.yul\":7312:7316   */\n      dup5\n        /* \"#utility.yul\":7308:7328   */\n      sub\n        /* \"#utility.yul\":7303:7306   */\n      dup10\n        /* \"#utility.yul\":7296:7329   */\n      mstore\n        /* \"#utility.yul\":7369:7375   */\n      dup2\n        /* \"#utility.yul\":7363:7376   */\n      mload\n        /* \"#utility.yul\":7397:7507   */\n      tag_636\n        /* \"#utility.yul\":7502:7506   */\n      dup6\n        /* \"#utility.yul\":7487:7500   */\n      dup3\n        /* \"#utility.yul\":7397:7507   */\n      tag_593\n      jump\t// in\n    tag_636:\n        /* \"#utility.yul\":7389:7507   */\n      swap5\n      pop\n        /* \"#utility.yul\":7530:7613   */\n      tag_637\n        /* \"#utility.yul\":7606:7612   */\n      dup4\n        /* \"#utility.yul\":7530:7613   */\n      tag_638\n      jump\t// in\n    tag_637:\n        /* \"#utility.yul\":7520:7613   */\n      swap3\n      pop\n        /* \"#utility.yul\":7642:7646   */\n      0x20\n        /* \"#utility.yul\":7637:7640   */\n      dup11\n        /* \"#utility.yul\":7633:7647   */\n      add\n        /* \"#utility.yul\":7626:7647   */\n      swap10\n      pop\n        /* \"#utility.yul\":7282:7657   */\n      pop\n        /* \"#utility.yul\":7269:7270   */\n      0x01\n        /* \"#utility.yul\":7266:7267   */\n      dup2\n        /* \"#utility.yul\":7262:7271   */\n      add\n        /* \"#utility.yul\":7257:7271   */\n      swap1\n      pop\n        /* \"#utility.yul\":7222:7657   */\n      jump(tag_633)\n    tag_635:\n        /* \"#utility.yul\":7226:7240   */\n      pop\n        /* \"#utility.yul\":7673:7677   */\n      dup3\n        /* \"#utility.yul\":7666:7677   */\n      swap8\n      pop\n        /* \"#utility.yul\":7693:7696   */\n      dup8\n        /* \"#utility.yul\":7686:7696   */\n      swap6\n      pop\n        /* \"#utility.yul\":6787:7702   */\n      pop\n      pop\n      pop\n      pop\n      pop\n        /* \"#utility.yul\":6627:7702   */\n      swap3\n      swap2\n      pop\n      pop\n      jump\t// out\n        /* \"#utility.yul\":7756:8628   */\n    tag_639:\n        /* \"#utility.yul\":7905:7908   */\n      0x00\n        /* \"#utility.yul\":7934:8008   */\n      tag_641\n        /* \"#utility.yul\":8002:8007   */\n      dup3\n        /* \"#utility.yul\":7934:8008   */\n      tag_642\n      jump\t// in\n    tag_641:\n        /* \"#utility.yul\":8024:8120   */\n      tag_643\n        /* \"#utility.yul\":8113:8119   */\n      dup2\n        /* \"#utility.yul\":8108:8111   */\n      dup6\n        /* \"#utility.yul\":8024:8120   */\n      tag_644\n      jump\t// in\n    tag_643:\n        /* \"#utility.yul\":8017:8120   */\n      swap4\n      pop\n        /* \"#utility.yul\":8144:8220   */\n      tag_645\n        /* \"#utility.yul\":8214:8219   */\n      dup4\n        /* \"#utility.yul\":8144:8220   */\n      tag_646\n      jump\t// in\n    tag_645:\n        /* \"#utility.yul\":8243:8250   */\n      dup1\n        /* \"#utility.yul\":8274:8275   */\n      0x00\n        /* \"#utility.yul\":8259:8603   */\n    tag_647:\n        /* \"#utility.yul\":8284:8290   */\n      dup4\n        /* \"#utility.yul\":8281:8282   */\n      dup2\n        /* \"#utility.yul\":8278:8291   */\n      lt\n        /* \"#utility.yul\":8259:8603   */\n      iszero\n      tag_649\n      jumpi\n        /* \"#utility.yul\":8360:8366   */\n      dup2\n        /* \"#utility.yul\":8354:8367   */\n      mload\n        /* \"#utility.yul\":8387:8490   */\n      tag_650\n        /* \"#utility.yul\":8486:8489   */\n      dup9\n        /* \"#utility.yul\":8471:8484   */\n      dup3\n        /* \"#utility.yul\":8387:8490   */\n      tag_597\n      jump\t// in\n    tag_650:\n        /* \"#utility.yul\":8380:8490   */\n      swap8\n      pop\n        /* \"#utility.yul\":8513:8593   */\n      tag_651\n        /* \"#utility.yul\":8586:8592   */\n      dup4\n        /* \"#utility.yul\":8513:8593   */\n      tag_652\n      jump\t// in\n    tag_651:\n        /* \"#utility.yul\":8503:8593   */\n      swap3\n      pop\n        /* \"#utility.yul\":8319:8603   */\n      pop\n        /* \"#utility.yul\":8306:8307   */\n      0x01\n        /* \"#utility.yul\":8303:8304   */\n      dup2\n        /* \"#utility.yul\":8299:8308   */\n      add\n        /* \"#utility.yul\":8294:8308   */\n      swap1\n      pop\n        /* \"#utility.yul\":8259:8603   */\n      jump(tag_647)\n    tag_649:\n        /* \"#utility.yul\":8263:8277   */\n      pop\n        /* \"#utility.yul\":8619:8622   */\n      dup6\n        /* \"#utility.yul\":8612:8622   */\n      swap4\n      pop\n        /* \"#utility.yul\":7910:8628   */\n      pop\n      pop\n      pop\n        /* \"#utility.yul\":7756:8628   */\n      swap3\n      swap2\n      pop\n      pop\n      jump\t// out\n        /* \"#utility.yul\":8682:9733   */\n    tag_653:\n        /* \"#utility.yul\":8831:8834   */\n      0x00\n        /* \"#utility.yul\":8860:8934   */\n      tag_655\n        /* \"#utility.yul\":8928:8933   */\n      dup3\n        /* \"#utility.yul\":8860:8934   */\n      tag_656\n      jump\t// in\n    tag_655:\n        /* \"#utility.yul\":8950:9046   */\n      tag_657\n        /* \"#utility.yul\":9039:9045   */\n      dup2\n        /* \"#utility.yul\":9034:9037   */\n      dup6\n        /* \"#utility.yul\":8950:9046   */\n      tag_658\n      jump\t// in\n    tag_657:\n        /* \"#utility.yul\":8943:9046   */\n      swap4\n      pop\n        /* \"#utility.yul\":9072:9075   */\n      dup4\n        /* \"#utility.yul\":9117:9121   */\n      0x20\n        /* \"#utility.yul\":9109:9115   */\n      dup3\n        /* \"#utility.yul\":9105:9122   */\n      mul\n        /* \"#utility.yul\":9100:9103   */\n      dup6\n        /* \"#utility.yul\":9096:9123   */\n      add\n        /* \"#utility.yul\":9147:9223   */\n      tag_659\n        /* \"#utility.yul\":9217:9222   */\n      dup6\n        /* \"#utility.yul\":9147:9223   */\n      tag_660\n      jump\t// in\n    tag_659:\n        /* \"#utility.yul\":9246:9253   */\n      dup1\n        /* \"#utility.yul\":9277:9278   */\n      0x00\n        /* \"#utility.yul\":9262:9688   */\n    tag_661:\n        /* \"#utility.yul\":9287:9293   */\n      dup6\n        /* \"#utility.yul\":9284:9285   */\n      dup2\n        /* \"#utility.yul\":9281:9294   */\n      lt\n        /* \"#utility.yul\":9262:9688   */\n      iszero\n      tag_663\n      jumpi\n        /* \"#utility.yul\":9358:9367   */\n      dup5\n        /* \"#utility.yul\":9352:9356   */\n      dup5\n        /* \"#utility.yul\":9348:9368   */\n      sub\n        /* \"#utility.yul\":9343:9346   */\n      dup10\n        /* \"#utility.yul\":9336:9369   */\n      mstore\n        /* \"#utility.yul\":9409:9415   */\n      dup2\n        /* \"#utility.yul\":9403:9416   */\n      mload\n        /* \"#utility.yul\":9437:9541   */\n      tag_664\n        /* \"#utility.yul\":9536:9540   */\n      dup6\n        /* \"#utility.yul\":9521:9534   */\n      dup3\n        /* \"#utility.yul\":9437:9541   */\n      tag_601\n      jump\t// in\n    tag_664:\n        /* \"#utility.yul\":9429:9541   */\n      swap5\n      pop\n        /* \"#utility.yul\":9564:9644   */\n      tag_665\n        /* \"#utility.yul\":9637:9643   */\n      dup4\n        /* \"#utility.yul\":9564:9644   */\n      tag_666\n      jump\t// in\n    tag_665:\n        /* \"#utility.yul\":9554:9644   */\n      swap3\n      pop\n        /* \"#utility.yul\":9673:9677   */\n      0x20\n        /* \"#utility.yul\":9668:9671   */\n      dup11\n        /* \"#utility.yul\":9664:9678   */\n      add\n        /* \"#utility.yul\":9657:9678   */\n      swap10\n      pop\n        /* \"#utility.yul\":9322:9688   */\n      pop\n        /* \"#utility.yul\":9309:9310   */\n      0x01\n        /* \"#utility.yul\":9306:9307   */\n      dup2\n        /* \"#utility.yul\":9302:9311   */\n      add\n        /* \"#utility.yul\":9297:9311   */\n      swap1\n      pop\n        /* \"#utility.yul\":9262:9688   */\n      jump(tag_661)\n    tag_663:\n        /* \"#utility.yul\":9266:9280   */\n      pop\n        /* \"#utility.yul\":9704:9708   */\n      dup3\n        /* \"#utility.yul\":9697:9708   */\n      swap8\n      pop\n        /* \"#utility.yul\":9724:9727   */\n      dup8\n        /* \"#utility.yul\":9717:9727   */\n      swap6\n      pop\n        /* \"#utility.yul\":8836:9733   */\n      pop\n      pop\n      pop\n      pop\n      pop\n        /* \"#utility.yul\":8682:9733   */\n      swap3\n      swap2\n      pop\n      pop\n      jump\t// out\n        /* \"#utility.yul\":9793:10709   */\n    tag_667:\n        /* \"#utility.yul\":9958:9961   */\n      0x00\n        /* \"#utility.yul\":9987:10064   */\n      tag_669\n        /* \"#utility.yul\":10058:10063   */\n      dup3\n        /* \"#utility.yul\":9987:10064   */\n      tag_670\n      jump\t// in\n    tag_669:\n        /* \"#utility.yul\":10080:10189   */\n      tag_671\n        /* \"#utility.yul\":10182:10188   */\n      dup2\n        /* \"#utility.yul\":10177:10180   */\n      dup6\n        /* \"#utility.yul\":10080:10189   */\n      tag_672\n      jump\t// in\n    tag_671:\n        /* \"#utility.yul\":10073:10189   */\n      swap4\n      pop\n        /* \"#utility.yul\":10213:10292   */\n      tag_673\n        /* \"#utility.yul\":10286:10291   */\n      dup4\n        /* \"#utility.yul\":10213:10292   */\n      tag_674\n      jump\t// in\n    tag_673:\n        /* \"#utility.yul\":10315:10322   */\n      dup1\n        /* \"#utility.yul\":10346:10347   */\n      0x00\n        /* \"#utility.yul\":10331:10684   */\n    tag_675:\n        /* \"#utility.yul\":10356:10362   */\n      dup4\n        /* \"#utility.yul\":10353:10354   */\n      dup2\n        /* \"#utility.yul\":10350:10363   */\n      lt\n        /* \"#utility.yul\":10331:10684   */\n      iszero\n      tag_677\n      jumpi\n        /* \"#utility.yul\":10432:10438   */\n      dup2\n        /* \"#utility.yul\":10426:10439   */\n      mload\n        /* \"#utility.yul\":10459:10568   */\n      tag_678\n        /* \"#utility.yul\":10564:10567   */\n      dup9\n        /* \"#utility.yul\":10549:10562   */\n      dup3\n        /* \"#utility.yul\":10459:10568   */\n      tag_605\n      jump\t// in\n    tag_678:\n        /* \"#utility.yul\":10452:10568   */\n      swap8\n      pop\n        /* \"#utility.yul\":10591:10674   */\n      tag_679\n        /* \"#utility.yul\":10667:10673   */\n      dup4\n        /* \"#utility.yul\":10591:10674   */\n      tag_680\n      jump\t// in\n    tag_679:\n        /* \"#utility.yul\":10581:10674   */\n      swap3\n      pop\n        /* \"#utility.yul\":10391:10684   */\n      pop\n        /* \"#utility.yul\":10378:10379   */\n      0x01\n        /* \"#utility.yul\":10375:10376   */\n      dup2\n        /* \"#utility.yul\":10371:10380   */\n      add\n        /* \"#utility.yul\":10366:10380   */\n      swap1\n      pop\n        /* \"#utility.yul\":10331:10684   */\n      jump(tag_675)\n    tag_677:\n        /* \"#utility.yul\":10335:10349   */\n      pop\n        /* \"#utility.yul\":10700:10703   */\n      dup6\n        /* \"#utility.yul\":10693:10703   */\n      swap4\n      pop\n        /* \"#utility.yul\":9963:10709   */\n      pop\n      pop\n      pop\n        /* \"#utility.yul\":9793:10709   */\n      swap3\n      swap2\n      pop\n      pop\n      jump\t// out\n        /* \"#utility.yul\":10763:11834   */\n    tag_681:\n        /* \"#utility.yul\":10922:10925   */\n      0x00\n        /* \"#utility.yul\":10951:11025   */\n      tag_683\n        /* \"#utility.yul\":11019:11024   */\n      dup3\n        /* \"#utility.yul\":10951:11025   */\n      tag_684\n      jump\t// in\n    tag_683:\n        /* \"#utility.yul\":11041:11147   */\n      tag_685\n        /* \"#utility.yul\":11140:11146   */\n      dup2\n        /* \"#utility.yul\":11135:11138   */\n      dup6\n        /* \"#utility.yul\":11041:11147   */\n      tag_686\n      jump\t// in\n    tag_685:\n        /* \"#utility.yul\":11034:11147   */\n      swap4\n      pop\n        /* \"#utility.yul\":11173:11176   */\n      dup4\n        /* \"#utility.yul\":11218:11222   */\n      0x20\n        /* \"#utility.yul\":11210:11216   */\n      dup3\n        /* \"#utility.yul\":11206:11223   */\n      mul\n        /* \"#utility.yul\":11201:11204   */\n      dup6\n        /* \"#utility.yul\":11197:11224   */\n      add\n        /* \"#utility.yul\":11248:11324   */\n      tag_687\n        /* \"#utility.yul\":11318:11323   */\n      dup6\n        /* \"#utility.yul\":11248:11324   */\n      tag_688\n      jump\t// in\n    tag_687:\n        /* \"#utility.yul\":11347:11354   */\n      dup1\n        /* \"#utility.yul\":11378:11379   */\n      0x00\n        /* \"#utility.yul\":11363:11789   */\n    tag_689:\n        /* \"#utility.yul\":11388:11394   */\n      dup6\n        /* \"#utility.yul\":11385:11386   */\n      dup2\n        /* \"#utility.yul\":11382:11395   */\n      lt\n        /* \"#utility.yul\":11363:11789   */\n      iszero\n      tag_691\n      jumpi\n        /* \"#utility.yul\":11459:11468   */\n      dup5\n        /* \"#utility.yul\":11453:11457   */\n      dup5\n        /* \"#utility.yul\":11449:11469   */\n      sub\n        /* \"#utility.yul\":11444:11447   */\n      dup10\n        /* \"#utility.yul\":11437:11470   */\n      mstore\n        /* \"#utility.yul\":11510:11516   */\n      dup2\n        /* \"#utility.yul\":11504:11517   */\n      mload\n        /* \"#utility.yul\":11538:11642   */\n      tag_692\n        /* \"#utility.yul\":11637:11641   */\n      dup6\n        /* \"#utility.yul\":11622:11635   */\n      dup3\n        /* \"#utility.yul\":11538:11642   */\n      tag_609\n      jump\t// in\n    tag_692:\n        /* \"#utility.yul\":11530:11642   */\n      swap5\n      pop\n        /* \"#utility.yul\":11665:11745   */\n      tag_693\n        /* \"#utility.yul\":11738:11744   */\n      dup4\n        /* \"#utility.yul\":11665:11745   */\n      tag_694\n      jump\t// in\n    tag_693:\n        /* \"#utility.yul\":11655:11745   */\n      swap3\n      pop\n        /* \"#utility.yul\":11774:11778   */\n      0x20\n        /* \"#utility.yul\":11769:11772   */\n      dup11\n        /* \"#utility.yul\":11765:11779   */\n      add\n        /* \"#utility.yul\":11758:11779   */\n      swap10\n      pop\n        /* \"#utility.yul\":11423:11789   */\n      pop\n        /* \"#utility.yul\":11410:11411   */\n      0x01\n        /* \"#utility.yul\":11407:11408   */\n      dup2\n        /* \"#utility.yul\":11403:11412   */\n      add\n        /* \"#utility.yul\":11398:11412   */\n      swap1\n      pop\n        /* \"#utility.yul\":11363:11789   */\n      jump(tag_689)\n    tag_691:\n        /* \"#utility.yul\":11367:11381   */\n      pop\n        /* \"#utility.yul\":11805:11809   */\n      dup3\n        /* \"#utility.yul\":11798:11809   */\n      swap8\n      pop\n        /* \"#utility.yul\":11825:11828   */\n      dup8\n        /* \"#utility.yul\":11818:11828   */\n      swap6\n      pop\n        /* \"#utility.yul\":10927:11834   */\n      pop\n      pop\n      pop\n      pop\n      pop\n        /* \"#utility.yul\":10763:11834   */\n      swap3\n      swap2\n      pop\n      pop\n      jump\t// out\n        /* \"#utility.yul\":11888:12772   */\n    tag_695:\n        /* \"#utility.yul\":12045:12048   */\n      0x00\n        /* \"#utility.yul\":12074:12147   */\n      tag_697\n        /* \"#utility.yul\":12141:12146   */\n      dup3\n        /* \"#utility.yul\":12074:12147   */\n      tag_698\n      jump\t// in\n    tag_697:\n        /* \"#utility.yul\":12163:12268   */\n      tag_699\n        /* \"#utility.yul\":12261:12267   */\n      dup2\n        /* \"#utility.yul\":12256:12259   */\n      dup6\n        /* \"#utility.yul\":12163:12268   */\n      tag_700\n      jump\t// in\n    tag_699:\n        /* \"#utility.yul\":12156:12268   */\n      swap4\n      pop\n        /* \"#utility.yul\":12292:12367   */\n      tag_701\n        /* \"#utility.yul\":12361:12366   */\n      dup4\n        /* \"#utility.yul\":12292:12367   */\n      tag_702\n      jump\t// in\n    tag_701:\n        /* \"#utility.yul\":12390:12397   */\n      dup1\n        /* \"#utility.yul\":12421:12422   */\n      0x00\n        /* \"#utility.yul\":12406:12747   */\n    tag_703:\n        /* \"#utility.yul\":12431:12437   */\n      dup4\n        /* \"#utility.yul\":12428:12429   */\n      dup2\n        /* \"#utility.yul\":12425:12438   */\n      lt\n        /* \"#utility.yul\":12406:12747   */\n      iszero\n      tag_705\n      jumpi\n        /* \"#utility.yul\":12507:12513   */\n      dup2\n        /* \"#utility.yul\":12501:12514   */\n      mload\n        /* \"#utility.yul\":12534:12635   */\n      tag_706\n        /* \"#utility.yul\":12631:12634   */\n      dup9\n        /* \"#utility.yul\":12616:12629   */\n      dup3\n        /* \"#utility.yul\":12534:12635   */\n      tag_613\n      jump\t// in\n    tag_706:\n        /* \"#utility.yul\":12527:12635   */\n      swap8\n      pop\n        /* \"#utility.yul\":12658:12737   */\n      tag_707\n        /* \"#utility.yul\":12730:12736   */\n      dup4\n        /* \"#utility.yul\":12658:12737   */\n      tag_708\n      jump\t// in\n    tag_707:\n        /* \"#utility.yul\":12648:12737   */\n      swap3\n      pop\n        /* \"#utility.yul\":12466:12747   */\n      pop\n        /* \"#utility.yul\":12453:12454   */\n      0x01\n        /* \"#utility.yul\":12450:12451   */\n      dup2\n        /* \"#utility.yul\":12446:12455   */\n      add\n        /* \"#utility.yul\":12441:12455   */\n      swap1\n      pop\n        /* \"#utility.yul\":12406:12747   */\n      jump(tag_703)\n    tag_705:\n        /* \"#utility.yul\":12410:12424   */\n      pop\n        /* \"#utility.yul\":12763:12766   */\n      dup6\n        /* \"#utility.yul\":12756:12766   */\n      swap4\n      pop\n        /* \"#utility.yul\":12050:12772   */\n      pop\n      pop\n      pop\n        /* \"#utility.yul\":11888:12772   */\n      swap3\n      swap2\n      pop\n      pop\n      jump\t// out\n        /* \"#utility.yul\":12808:13520   */\n    tag_709:\n        /* \"#utility.yul\":12917:12920   */\n      0x00\n        /* \"#utility.yul\":12946:13000   */\n      tag_711\n        /* \"#utility.yul\":12994:12999   */\n      dup3\n        /* \"#utility.yul\":12946:13000   */\n      tag_712\n      jump\t// in\n    tag_711:\n        /* \"#utility.yul\":13016:13092   */\n      tag_713\n        /* \"#utility.yul\":13085:13091   */\n      dup2\n        /* \"#utility.yul\":13080:13083   */\n      dup6\n        /* \"#utility.yul\":13016:13092   */\n      tag_714\n      jump\t// in\n    tag_713:\n        /* \"#utility.yul\":13009:13092   */\n      swap4\n      pop\n        /* \"#utility.yul\":13116:13172   */\n      tag_715\n        /* \"#utility.yul\":13166:13171   */\n      dup4\n        /* \"#utility.yul\":13116:13172   */\n      tag_716\n      jump\t// in\n    tag_715:\n        /* \"#utility.yul\":13195:13202   */\n      dup1\n        /* \"#utility.yul\":13226:13227   */\n      0x00\n        /* \"#utility.yul\":13211:13495   */\n    tag_717:\n        /* \"#utility.yul\":13236:13242   */\n      dup4\n        /* \"#utility.yul\":13233:13234   */\n      dup2\n        /* \"#utility.yul\":13230:13243   */\n      lt\n        /* \"#utility.yul\":13211:13495   */\n      iszero\n      tag_719\n      jumpi\n        /* \"#utility.yul\":13312:13318   */\n      dup2\n        /* \"#utility.yul\":13306:13319   */\n      mload\n        /* \"#utility.yul\":13339:13402   */\n      tag_720\n        /* \"#utility.yul\":13398:13401   */\n      dup9\n        /* \"#utility.yul\":13383:13396   */\n      dup3\n        /* \"#utility.yul\":13339:13402   */\n      tag_617\n      jump\t// in\n    tag_720:\n        /* \"#utility.yul\":13332:13402   */\n      swap8\n      pop\n        /* \"#utility.yul\":13425:13485   */\n      tag_721\n        /* \"#utility.yul\":13478:13484   */\n      dup4\n        /* \"#utility.yul\":13425:13485   */\n      tag_722\n      jump\t// in\n    tag_721:\n        /* \"#utility.yul\":13415:13485   */\n      swap3\n      pop\n        /* \"#utility.yul\":13271:13495   */\n      pop\n        /* \"#utility.yul\":13258:13259   */\n      0x01\n        /* \"#utility.yul\":13255:13256   */\n      dup2\n        /* \"#utility.yul\":13251:13260   */\n      add\n        /* \"#utility.yul\":13246:13260   */\n      swap1\n      pop\n        /* \"#utility.yul\":13211:13495   */\n      jump(tag_717)\n    tag_719:\n        /* \"#utility.yul\":13215:13229   */\n      pop\n        /* \"#utility.yul\":13511:13514   */\n      dup6\n        /* \"#utility.yul\":13504:13514   */\n      swap4\n      pop\n        /* \"#utility.yul\":12922:13520   */\n      pop\n      pop\n      pop\n        /* \"#utility.yul\":12808:13520   */\n      swap3\n      swap2\n      pop\n      pop\n      jump\t// out\n        /* \"#utility.yul\":13526:13625   */\n    tag_723:\n        /* \"#utility.yul\":13597:13618   */\n      tag_725\n        /* \"#utility.yul\":13612:13617   */\n      dup2\n        /* \"#utility.yul\":13597:13618   */\n      tag_726\n      jump\t// in\n    tag_725:\n        /* \"#utility.yul\":13592:13595   */\n      dup3\n        /* \"#utility.yul\":13585:13619   */\n      mstore\n        /* \"#utility.yul\":13526:13625   */\n      pop\n      pop\n      jump\t// out\n        /* \"#utility.yul\":13631:13975   */\n    tag_727:\n        /* \"#utility.yul\":13709:13712   */\n      0x00\n        /* \"#utility.yul\":13737:13776   */\n      tag_729\n        /* \"#utility.yul\":13770:13775   */\n      dup3\n        /* \"#utility.yul\":13737:13776   */\n      tag_730\n      jump\t// in\n    tag_729:\n        /* \"#utility.yul\":13792:13853   */\n      tag_731\n        /* \"#utility.yul\":13846:13852   */\n      dup2\n        /* \"#utility.yul\":13841:13844   */\n      dup6\n        /* \"#utility.yul\":13792:13853   */\n      tag_732\n      jump\t// in\n    tag_731:\n        /* \"#utility.yul\":13785:13853   */\n      swap4\n      pop\n        /* \"#utility.yul\":13862:13914   */\n      tag_733\n        /* \"#utility.yul\":13907:13913   */\n      dup2\n        /* \"#utility.yul\":13902:13905   */\n      dup6\n        /* \"#utility.yul\":13895:13899   */\n      0x20\n        /* \"#utility.yul\":13888:13893   */\n      dup7\n        /* \"#utility.yul\":13884:13900   */\n      add\n        /* \"#utility.yul\":13862:13914   */\n      tag_734\n      jump\t// in\n    tag_733:\n        /* \"#utility.yul\":13939:13968   */\n      tag_735\n        /* \"#utility.yul\":13961:13967   */\n      dup2\n        /* \"#utility.yul\":13939:13968   */\n      tag_736\n      jump\t// in\n    tag_735:\n        /* \"#utility.yul\":13934:13937   */\n      dup5\n        /* \"#utility.yul\":13930:13969   */\n      add\n        /* \"#utility.yul\":13923:13969   */\n      swap2\n      pop\n        /* \"#utility.yul\":13713:13975   */\n      pop\n        /* \"#utility.yul\":13631:13975   */\n      swap3\n      swap2\n      pop\n      pop\n      jump\t// out\n        /* \"#utility.yul\":13981:14346   */\n    tag_737:\n        /* \"#utility.yul\":14123:14126   */\n      0x00\n        /* \"#utility.yul\":14144:14210   */\n      tag_739\n        /* \"#utility.yul\":14208:14209   */\n      0x03\n        /* \"#utility.yul\":14203:14206   */\n      dup4\n        /* \"#utility.yul\":14144:14210   */\n      tag_740\n      jump\t// in\n    tag_739:\n        /* \"#utility.yul\":14137:14210   */\n      swap2\n      pop\n        /* \"#utility.yul\":14219:14312   */\n      tag_741\n        /* \"#utility.yul\":14308:14311   */\n      dup3\n        /* \"#utility.yul\":14219:14312   */\n      tag_742\n      jump\t// in\n    tag_741:\n        /* \"#utility.yul\":14337:14339   */\n      0x20\n        /* \"#utility.yul\":14332:14335   */\n      dup3\n        /* \"#utility.yul\":14328:14340   */\n      add\n        /* \"#utility.yul\":14321:14340   */\n      swap1\n      pop\n        /* \"#utility.yul\":13981:14346   */\n      swap2\n      swap1\n      pop\n      jump\t// out\n        /* \"#utility.yul\":14352:14717   */\n    tag_743:\n        /* \"#utility.yul\":14494:14497   */\n      0x00\n        /* \"#utility.yul\":14515:14581   */\n      tag_745\n        /* \"#utility.yul\":14579:14580   */\n      0x03\n        /* \"#utility.yul\":14574:14577   */\n      dup4\n        /* \"#utility.yul\":14515:14581   */\n      tag_740\n      jump\t// in\n    tag_745:\n        /* \"#utility.yul\":14508:14581   */\n      swap2\n      pop\n        /* \"#utility.yul\":14590:14683   */\n      tag_746\n        /* \"#utility.yul\":14679:14682   */\n      dup3\n        /* \"#utility.yul\":14590:14683   */\n      tag_747\n      jump\t// in\n    tag_746:\n        /* \"#utility.yul\":14708:14710   */\n      0x20\n        /* \"#utility.yul\":14703:14706   */\n      dup3\n        /* \"#utility.yul\":14699:14711   */\n      add\n        /* \"#utility.yul\":14692:14711   */\n      swap1\n      pop\n        /* \"#utility.yul\":14352:14717   */\n      swap2\n      swap1\n      pop\n      jump\t// out\n        /* \"#utility.yul\":14723:15088   */\n    tag_748:\n        /* \"#utility.yul\":14865:14868   */\n      0x00\n        /* \"#utility.yul\":14886:14952   */\n      tag_750\n        /* \"#utility.yul\":14950:14951   */\n      0x03\n        /* \"#utility.yul\":14945:14948   */\n      dup4\n        /* \"#utility.yul\":14886:14952   */\n      tag_740\n      jump\t// in\n    tag_750:\n        /* \"#utility.yul\":14879:14952   */\n      swap2\n      pop\n        /* \"#utility.yul\":14961:15054   */\n      tag_751\n        /* \"#utility.yul\":15050:15053   */\n      dup3\n        /* \"#utility.yul\":14961:15054   */\n      tag_752\n      jump\t// in\n    tag_751:\n        /* \"#utility.yul\":15079:15081   */\n      0x20\n        /* \"#utility.yul\":15074:15077   */\n      dup3\n        /* \"#utility.yul\":15070:15082   */\n      add\n        /* \"#utility.yul\":15063:15082   */\n      swap1\n      pop\n        /* \"#utility.yul\":14723:15088   */\n      swap2\n      swap1\n      pop\n      jump\t// out\n        /* \"#utility.yul\":15094:15460   */\n    tag_753:\n        /* \"#utility.yul\":15236:15239   */\n      0x00\n        /* \"#utility.yul\":15257:15324   */\n      tag_755\n        /* \"#utility.yul\":15321:15323   */\n      0x10\n        /* \"#utility.yul\":15316:15319   */\n      dup4\n        /* \"#utility.yul\":15257:15324   */\n      tag_740\n      jump\t// in\n    tag_755:\n        /* \"#utility.yul\":15250:15324   */\n      swap2\n      pop\n        /* \"#utility.yul\":15333:15426   */\n      tag_756\n        /* \"#utility.yul\":15422:15425   */\n      dup3\n        /* \"#utility.yul\":15333:15426   */\n      tag_757\n      jump\t// in\n    tag_756:\n        /* \"#utility.yul\":15451:15453   */\n      0x20\n        /* \"#utility.yul\":15446:15449   */\n      dup3\n        /* \"#utility.yul\":15442:15454   */\n      add\n        /* \"#utility.yul\":15435:15454   */\n      swap1\n      pop\n        /* \"#utility.yul\":15094:15460   */\n      swap2\n      swap1\n      pop\n      jump\t// out\n        /* \"#utility.yul\":15466:15832   */\n    tag_758:\n        /* \"#utility.yul\":15608:15611   */\n      0x00\n        /* \"#utility.yul\":15629:15696   */\n      tag_760\n        /* \"#utility.yul\":15693:15695   */\n      0x0e\n        /* \"#utility.yul\":15688:15691   */\n      dup4\n        /* \"#utility.yul\":15629:15696   */\n      tag_740\n      jump\t// in\n    tag_760:\n        /* \"#utility.yul\":15622:15696   */\n      swap2\n      pop\n        /* \"#utility.yul\":15705:15798   */\n      tag_761\n        /* \"#utility.yul\":15794:15797   */\n      dup3\n        /* \"#utility.yul\":15705:15798   */\n      tag_762\n      jump\t// in\n    tag_761:\n        /* \"#utility.yul\":15823:15825   */\n      0x20\n        /* \"#utility.yul\":15818:15821   */\n      dup3\n        /* \"#utility.yul\":15814:15826   */\n      add\n        /* \"#utility.yul\":15807:15826   */\n      swap1\n      pop\n        /* \"#utility.yul\":15466:15832   */\n      swap2\n      swap1\n      pop\n      jump\t// out\n        /* \"#utility.yul\":15838:16203   */\n    tag_763:\n        /* \"#utility.yul\":15980:15983   */\n      0x00\n        /* \"#utility.yul\":16001:16067   */\n      tag_765\n        /* \"#utility.yul\":16065:16066   */\n      0x03\n        /* \"#utility.yul\":16060:16063   */\n      dup4\n        /* \"#utility.yul\":16001:16067   */\n      tag_740\n      jump\t// in\n    tag_765:\n        /* \"#utility.yul\":15994:16067   */\n      swap2\n      pop\n        /* \"#utility.yul\":16076:16169   */\n      tag_766\n        /* \"#utility.yul\":16165:16168   */\n      dup3\n        /* \"#utility.yul\":16076:16169   */\n      tag_767\n      jump\t// in\n    tag_766:\n        /* \"#utility.yul\":16194:16196   */\n      0x20\n        /* \"#utility.yul\":16189:16192   */\n      dup3\n        /* \"#utility.yul\":16185:16197   */\n      add\n        /* \"#utility.yul\":16178:16197   */\n      swap1\n      pop\n        /* \"#utility.yul\":15838:16203   */\n      swap2\n      swap1\n      pop\n      jump\t// out\n        /* \"#utility.yul\":16209:16574   */\n    tag_768:\n        /* \"#utility.yul\":16351:16354   */\n      0x00\n        /* \"#utility.yul\":16372:16438   */\n      tag_770\n        /* \"#utility.yul\":16436:16437   */\n      0x03\n        /* \"#utility.yul\":16431:16434   */\n      dup4\n        /* \"#utility.yul\":16372:16438   */\n      tag_740\n      jump\t// in\n    tag_770:\n        /* \"#utility.yul\":16365:16438   */\n      swap2\n      pop\n        /* \"#utility.yul\":16447:16540   */\n      tag_771\n        /* \"#utility.yul\":16536:16539   */\n      dup3\n        /* \"#utility.yul\":16447:16540   */\n      tag_772\n      jump\t// in\n    tag_771:\n        /* \"#utility.yul\":16565:16567   */\n      0x20\n        /* \"#utility.yul\":16560:16563   */\n      dup3\n        /* \"#utility.yul\":16556:16568   */\n      add\n        /* \"#utility.yul\":16549:16568   */\n      swap1\n      pop\n        /* \"#utility.yul\":16209:16574   */\n      swap2\n      swap1\n      pop\n      jump\t// out\n        /* \"#utility.yul\":16580:16946   */\n    tag_773:\n        /* \"#utility.yul\":16722:16725   */\n      0x00\n        /* \"#utility.yul\":16743:16810   */\n      tag_775\n        /* \"#utility.yul\":16807:16809   */\n      0x0c\n        /* \"#utility.yul\":16802:16805   */\n      dup4\n        /* \"#utility.yul\":16743:16810   */\n      tag_740\n      jump\t// in\n    tag_775:\n        /* \"#utility.yul\":16736:16810   */\n      swap2\n      pop\n        /* \"#utility.yul\":16819:16912   */\n      tag_776\n        /* \"#utility.yul\":16908:16911   */\n      dup3\n        /* \"#utility.yul\":16819:16912   */\n      tag_777\n      jump\t// in\n    tag_776:\n        /* \"#utility.yul\":16937:16939   */\n      0x20\n        /* \"#utility.yul\":16932:16935   */\n      dup3\n        /* \"#utility.yul\":16928:16940   */\n      add\n        /* \"#utility.yul\":16921:16940   */\n      swap1\n      pop\n        /* \"#utility.yul\":16580:16946   */\n      swap2\n      swap1\n      pop\n      jump\t// out\n        /* \"#utility.yul\":16952:17317   */\n    tag_778:\n        /* \"#utility.yul\":17094:17097   */\n      0x00\n        /* \"#utility.yul\":17115:17181   */\n      tag_780\n        /* \"#utility.yul\":17179:17180   */\n      0x03\n        /* \"#utility.yul\":17174:17177   */\n      dup4\n        /* \"#utility.yul\":17115:17181   */\n      tag_740\n      jump\t// in\n    tag_780:\n        /* \"#utility.yul\":17108:17181   */\n      swap2\n      pop\n        /* \"#utility.yul\":17190:17283   */\n      tag_781\n        /* \"#utility.yul\":17279:17282   */\n      dup3\n        /* \"#utility.yul\":17190:17283   */\n      tag_782\n      jump\t// in\n    tag_781:\n        /* \"#utility.yul\":17308:17310   */\n      0x20\n        /* \"#utility.yul\":17303:17306   */\n      dup3\n        /* \"#utility.yul\":17299:17311   */\n      add\n        /* \"#utility.yul\":17292:17311   */\n      swap1\n      pop\n        /* \"#utility.yul\":16952:17317   */\n      swap2\n      swap1\n      pop\n      jump\t// out\n        /* \"#utility.yul\":17373:18290   */\n    tag_596:\n        /* \"#utility.yul\":17478:17481   */\n      0x00\n        /* \"#utility.yul\":17514:17518   */\n      0x60\n        /* \"#utility.yul\":17509:17512   */\n      dup4\n        /* \"#utility.yul\":17505:17519   */\n      add\n        /* \"#utility.yul\":17603:17607   */\n      0x00\n        /* \"#utility.yul\":17596:17601   */\n      dup4\n        /* \"#utility.yul\":17592:17608   */\n      add\n        /* \"#utility.yul\":17586:17609   */\n      mload\n        /* \"#utility.yul\":17622:17685   */\n      tag_784\n        /* \"#utility.yul\":17679:17683   */\n      0x00\n        /* \"#utility.yul\":17674:17677   */\n      dup7\n        /* \"#utility.yul\":17670:17684   */\n      add\n        /* \"#utility.yul\":17656:17668   */\n      dup3\n        /* \"#utility.yul\":17622:17685   */\n      tag_621\n      jump\t// in\n    tag_784:\n        /* \"#utility.yul\":17529:17695   */\n      pop\n        /* \"#utility.yul\":17778:17782   */\n      0x20\n        /* \"#utility.yul\":17771:17776   */\n      dup4\n        /* \"#utility.yul\":17767:17783   */\n      add\n        /* \"#utility.yul\":17761:17784   */\n      mload\n        /* \"#utility.yul\":17831:17834   */\n      dup5\n        /* \"#utility.yul\":17825:17829   */\n      dup3\n        /* \"#utility.yul\":17821:17835   */\n      sub\n        /* \"#utility.yul\":17814:17818   */\n      0x20\n        /* \"#utility.yul\":17809:17812   */\n      dup7\n        /* \"#utility.yul\":17805:17819   */\n      add\n        /* \"#utility.yul\":17798:17836   */\n      mstore\n        /* \"#utility.yul\":17857:18000   */\n      tag_785\n        /* \"#utility.yul\":17995:17999   */\n      dup3\n        /* \"#utility.yul\":17981:17993   */\n      dup3\n        /* \"#utility.yul\":17857:18000   */\n      tag_639\n      jump\t// in\n    tag_785:\n        /* \"#utility.yul\":17849:18000   */\n      swap2\n      pop\n        /* \"#utility.yul\":17705:18011   */\n      pop\n        /* \"#utility.yul\":18100:18104   */\n      0x40\n        /* \"#utility.yul\":18093:18098   */\n      dup4\n        /* \"#utility.yul\":18089:18105   */\n      add\n        /* \"#utility.yul\":18083:18106   */\n      mload\n        /* \"#utility.yul\":18153:18156   */\n      dup5\n        /* \"#utility.yul\":18147:18151   */\n      dup3\n        /* \"#utility.yul\":18143:18157   */\n      sub\n        /* \"#utility.yul\":18136:18140   */\n      0x40\n        /* \"#utility.yul\":18131:18134   */\n      dup7\n        /* \"#utility.yul\":18127:18141   */\n      add\n        /* \"#utility.yul\":18120:18158   */\n      mstore\n        /* \"#utility.yul\":18179:18252   */\n      tag_786\n        /* \"#utility.yul\":18247:18251   */\n      dup3\n        /* \"#utility.yul\":18233:18245   */\n      dup3\n        /* \"#utility.yul\":18179:18252   */\n      tag_727\n      jump\t// in\n    tag_786:\n        /* \"#utility.yul\":18171:18252   */\n      swap2\n      pop\n        /* \"#utility.yul\":18021:18263   */\n      pop\n        /* \"#utility.yul\":18280:18284   */\n      dup1\n        /* \"#utility.yul\":18273:18284   */\n      swap2\n      pop\n        /* \"#utility.yul\":17483:18290   */\n      pop\n        /* \"#utility.yul\":17373:18290   */\n      swap3\n      swap2\n      pop\n      pop\n      jump\t// out\n        /* \"#utility.yul\":18340:18829   */\n    tag_600:\n        /* \"#utility.yul\":18467:18471   */\n      0x40\n        /* \"#utility.yul\":18462:18465   */\n      dup3\n        /* \"#utility.yul\":18458:18472   */\n      add\n        /* \"#utility.yul\":18559:18563   */\n      0x00\n        /* \"#utility.yul\":18552:18557   */\n      dup3\n        /* \"#utility.yul\":18548:18564   */\n      add\n        /* \"#utility.yul\":18542:18565   */\n      mload\n        /* \"#utility.yul\":18578:18641   */\n      tag_788\n        /* \"#utility.yul\":18635:18639   */\n      0x00\n        /* \"#utility.yul\":18630:18633   */\n      dup6\n        /* \"#utility.yul\":18626:18640   */\n      add\n        /* \"#utility.yul\":18612:18624   */\n      dup3\n        /* \"#utility.yul\":18578:18641   */\n      tag_621\n      jump\t// in\n    tag_788:\n        /* \"#utility.yul\":18482:18651   */\n      pop\n        /* \"#utility.yul\":18736:18740   */\n      0x20\n        /* \"#utility.yul\":18729:18734   */\n      dup3\n        /* \"#utility.yul\":18725:18741   */\n      add\n        /* \"#utility.yul\":18719:18742   */\n      mload\n        /* \"#utility.yul\":18755:18812   */\n      tag_789\n        /* \"#utility.yul\":18806:18810   */\n      0x20\n        /* \"#utility.yul\":18801:18804   */\n      dup6\n        /* \"#utility.yul\":18797:18811   */\n      add\n        /* \"#utility.yul\":18783:18795   */\n      dup3\n        /* \"#utility.yul\":18755:18812   */\n      tag_723\n      jump\t// in\n    tag_789:\n        /* \"#utility.yul\":18661:18822   */\n      pop\n        /* \"#utility.yul\":18436:18829   */\n      pop\n        /* \"#utility.yul\":18340:18829   */\n      pop\n      pop\n      jump\t// out\n        /* \"#utility.yul\":18879:20294   */\n    tag_604:\n        /* \"#utility.yul\":18978:18981   */\n      0x00\n        /* \"#utility.yul\":19014:19018   */\n      0xa0\n        /* \"#utility.yul\":19009:19012   */\n      dup4\n        /* \"#utility.yul\":19005:19019   */\n      add\n        /* \"#utility.yul\":19106:19110   */\n      0x00\n        /* \"#utility.yul\":19099:19104   */\n      dup4\n        /* \"#utility.yul\":19095:19111   */\n      add\n        /* \"#utility.yul\":19089:19112   */\n      mload\n        /* \"#utility.yul\":19125:19188   */\n      tag_791\n        /* \"#utility.yul\":19182:19186   */\n      0x00\n        /* \"#utility.yul\":19177:19180   */\n      dup7\n        /* \"#utility.yul\":19173:19187   */\n      add\n        /* \"#utility.yul\":19159:19171   */\n      dup3\n        /* \"#utility.yul\":19125:19188   */\n      tag_621\n      jump\t// in\n    tag_791:\n        /* \"#utility.yul\":19029:19198   */\n      pop\n        /* \"#utility.yul\":19282:19286   */\n      0x20\n        /* \"#utility.yul\":19275:19280   */\n      dup4\n        /* \"#utility.yul\":19271:19287   */\n      add\n        /* \"#utility.yul\":19265:19288   */\n      mload\n        /* \"#utility.yul\":19301:19364   */\n      tag_792\n        /* \"#utility.yul\":19358:19362   */\n      0x20\n        /* \"#utility.yul\":19353:19356   */\n      dup7\n        /* \"#utility.yul\":19349:19363   */\n      add\n        /* \"#utility.yul\":19335:19347   */\n      dup3\n        /* \"#utility.yul\":19301:19364   */\n      tag_620\n      jump\t// in\n    tag_792:\n        /* \"#utility.yul\":19208:19374   */\n      pop\n        /* \"#utility.yul\":19457:19461   */\n      0x40\n        /* \"#utility.yul\":19450:19455   */\n      dup4\n        /* \"#utility.yul\":19446:19462   */\n      add\n        /* \"#utility.yul\":19440:19463   */\n      mload\n        /* \"#utility.yul\":19510:19513   */\n      dup5\n        /* \"#utility.yul\":19504:19508   */\n      dup3\n        /* \"#utility.yul\":19500:19514   */\n      sub\n        /* \"#utility.yul\":19493:19497   */\n      0x40\n        /* \"#utility.yul\":19488:19491   */\n      dup7\n        /* \"#utility.yul\":19484:19498   */\n      add\n        /* \"#utility.yul\":19477:19515   */\n      mstore\n        /* \"#utility.yul\":19536:19679   */\n      tag_793\n        /* \"#utility.yul\":19674:19678   */\n      dup3\n        /* \"#utility.yul\":19660:19672   */\n      dup3\n        /* \"#utility.yul\":19536:19679   */\n      tag_639\n      jump\t// in\n    tag_793:\n        /* \"#utility.yul\":19528:19679   */\n      swap2\n      pop\n        /* \"#utility.yul\":19384:19690   */\n      pop\n        /* \"#utility.yul\":19776:19780   */\n      0x60\n        /* \"#utility.yul\":19769:19774   */\n      dup4\n        /* \"#utility.yul\":19765:19781   */\n      add\n        /* \"#utility.yul\":19759:19782   */\n      mload\n        /* \"#utility.yul\":19829:19832   */\n      dup5\n        /* \"#utility.yul\":19823:19827   */\n      dup3\n        /* \"#utility.yul\":19819:19833   */\n      sub\n        /* \"#utility.yul\":19812:19816   */\n      0x60\n        /* \"#utility.yul\":19807:19810   */\n      dup7\n        /* \"#utility.yul\":19803:19817   */\n      add\n        /* \"#utility.yul\":19796:19834   */\n      mstore\n        /* \"#utility.yul\":19855:20004   */\n      tag_794\n        /* \"#utility.yul\":19999:20003   */\n      dup3\n        /* \"#utility.yul\":19985:19997   */\n      dup3\n        /* \"#utility.yul\":19855:20004   */\n      tag_625\n      jump\t// in\n    tag_794:\n        /* \"#utility.yul\":19847:20004   */\n      swap2\n      pop\n        /* \"#utility.yul\":19700:20015   */\n      pop\n        /* \"#utility.yul\":20104:20108   */\n      0x80\n        /* \"#utility.yul\":20097:20102   */\n      dup4\n        /* \"#utility.yul\":20093:20109   */\n      add\n        /* \"#utility.yul\":20087:20110   */\n      mload\n        /* \"#utility.yul\":20157:20160   */\n      dup5\n        /* \"#utility.yul\":20151:20155   */\n      dup3\n        /* \"#utility.yul\":20147:20161   */\n      sub\n        /* \"#utility.yul\":20140:20144   */\n      0x80\n        /* \"#utility.yul\":20135:20138   */\n      dup7\n        /* \"#utility.yul\":20131:20145   */\n      add\n        /* \"#utility.yul\":20124:20162   */\n      mstore\n        /* \"#utility.yul\":20183:20256   */\n      tag_795\n        /* \"#utility.yul\":20251:20255   */\n      dup3\n        /* \"#utility.yul\":20237:20249   */\n      dup3\n        /* \"#utility.yul\":20183:20256   */\n      tag_727\n      jump\t// in\n    tag_795:\n        /* \"#utility.yul\":20175:20256   */\n      swap2\n      pop\n        /* \"#utility.yul\":20025:20267   */\n      pop\n        /* \"#utility.yul\":20284:20288   */\n      dup1\n        /* \"#utility.yul\":20277:20288   */\n      swap2\n      pop\n        /* \"#utility.yul\":18983:20294   */\n      pop\n        /* \"#utility.yul\":18879:20294   */\n      swap3\n      swap2\n      pop\n      pop\n      jump\t// out\n        /* \"#utility.yul\":20350:20844   */\n    tag_608:\n        /* \"#utility.yul\":20483:20487   */\n      0x40\n        /* \"#utility.yul\":20478:20481   */\n      dup3\n        /* \"#utility.yul\":20474:20488   */\n      add\n        /* \"#utility.yul\":20575:20579   */\n      0x00\n        /* \"#utility.yul\":20568:20573   */\n      dup3\n        /* \"#utility.yul\":20564:20580   */\n      add\n        /* \"#utility.yul\":20558:20581   */\n      mload\n        /* \"#utility.yul\":20594:20657   */\n      tag_797\n        /* \"#utility.yul\":20651:20655   */\n      0x00\n        /* \"#utility.yul\":20646:20649   */\n      dup6\n        /* \"#utility.yul\":20642:20656   */\n      add\n        /* \"#utility.yul\":20628:20640   */\n      dup3\n        /* \"#utility.yul\":20594:20657   */\n      tag_621\n      jump\t// in\n    tag_797:\n        /* \"#utility.yul\":20498:20667   */\n      pop\n        /* \"#utility.yul\":20751:20755   */\n      0x20\n        /* \"#utility.yul\":20744:20749   */\n      dup3\n        /* \"#utility.yul\":20740:20756   */\n      add\n        /* \"#utility.yul\":20734:20757   */\n      mload\n        /* \"#utility.yul\":20770:20827   */\n      tag_798\n        /* \"#utility.yul\":20821:20825   */\n      0x20\n        /* \"#utility.yul\":20816:20819   */\n      dup6\n        /* \"#utility.yul\":20812:20826   */\n      add\n        /* \"#utility.yul\":20798:20810   */\n      dup3\n        /* \"#utility.yul\":20770:20827   */\n      tag_723\n      jump\t// in\n    tag_798:\n        /* \"#utility.yul\":20677:20837   */\n      pop\n        /* \"#utility.yul\":20452:20844   */\n      pop\n        /* \"#utility.yul\":20350:20844   */\n      pop\n      pop\n      jump\t// out\n        /* \"#utility.yul\":20894:22080   */\n    tag_612:\n        /* \"#utility.yul\":20993:20996   */\n      0x00\n        /* \"#utility.yul\":21029:21033   */\n      0x80\n        /* \"#utility.yul\":21024:21027   */\n      dup4\n        /* \"#utility.yul\":21020:21034   */\n      add\n        /* \"#utility.yul\":21116:21120   */\n      0x00\n        /* \"#utility.yul\":21109:21114   */\n      dup4\n        /* \"#utility.yul\":21105:21121   */\n      add\n        /* \"#utility.yul\":21099:21122   */\n      mload\n        /* \"#utility.yul\":21135:21198   */\n      tag_800\n        /* \"#utility.yul\":21192:21196   */\n      0x00\n        /* \"#utility.yul\":21187:21190   */\n      dup7\n        /* \"#utility.yul\":21183:21197   */\n      add\n        /* \"#utility.yul\":21169:21181   */\n      dup3\n        /* \"#utility.yul\":21135:21198   */\n      tag_621\n      jump\t// in\n    tag_800:\n        /* \"#utility.yul\":21044:21208   */\n      pop\n        /* \"#utility.yul\":21290:21294   */\n      0x20\n        /* \"#utility.yul\":21283:21288   */\n      dup4\n        /* \"#utility.yul\":21279:21295   */\n      add\n        /* \"#utility.yul\":21273:21296   */\n      mload\n        /* \"#utility.yul\":21343:21346   */\n      dup5\n        /* \"#utility.yul\":21337:21341   */\n      dup3\n        /* \"#utility.yul\":21333:21347   */\n      sub\n        /* \"#utility.yul\":21326:21330   */\n      0x20\n        /* \"#utility.yul\":21321:21324   */\n      dup7\n        /* \"#utility.yul\":21317:21331   */\n      add\n        /* \"#utility.yul\":21310:21348   */\n      mstore\n        /* \"#utility.yul\":21369:21442   */\n      tag_801\n        /* \"#utility.yul\":21437:21441   */\n      dup3\n        /* \"#utility.yul\":21423:21435   */\n      dup3\n        /* \"#utility.yul\":21369:21442   */\n      tag_727\n      jump\t// in\n    tag_801:\n        /* \"#utility.yul\":21361:21442   */\n      swap2\n      pop\n        /* \"#utility.yul\":21218:21453   */\n      pop\n        /* \"#utility.yul\":21542:21546   */\n      0x40\n        /* \"#utility.yul\":21535:21540   */\n      dup4\n        /* \"#utility.yul\":21531:21547   */\n      add\n        /* \"#utility.yul\":21525:21548   */\n      mload\n        /* \"#utility.yul\":21595:21598   */\n      dup5\n        /* \"#utility.yul\":21589:21593   */\n      dup3\n        /* \"#utility.yul\":21585:21599   */\n      sub\n        /* \"#utility.yul\":21578:21582   */\n      0x40\n        /* \"#utility.yul\":21573:21576   */\n      dup7\n        /* \"#utility.yul\":21569:21583   */\n      add\n        /* \"#utility.yul\":21562:21600   */\n      mstore\n        /* \"#utility.yul\":21621:21764   */\n      tag_802\n        /* \"#utility.yul\":21759:21763   */\n      dup3\n        /* \"#utility.yul\":21745:21757   */\n      dup3\n        /* \"#utility.yul\":21621:21764   */\n      tag_653\n      jump\t// in\n    tag_802:\n        /* \"#utility.yul\":21613:21764   */\n      swap2\n      pop\n        /* \"#utility.yul\":21463:21775   */\n      pop\n        /* \"#utility.yul\":21860:21864   */\n      0x60\n        /* \"#utility.yul\":21853:21858   */\n      dup4\n        /* \"#utility.yul\":21849:21865   */\n      add\n        /* \"#utility.yul\":21843:21866   */\n      mload\n        /* \"#utility.yul\":21913:21916   */\n      dup5\n        /* \"#utility.yul\":21907:21911   */\n      dup3\n        /* \"#utility.yul\":21903:21917   */\n      sub\n        /* \"#utility.yul\":21896:21900   */\n      0x60\n        /* \"#utility.yul\":21891:21894   */\n      dup7\n        /* \"#utility.yul\":21887:21901   */\n      add\n        /* \"#utility.yul\":21880:21918   */\n      mstore\n        /* \"#utility.yul\":21939:22042   */\n      tag_803\n        /* \"#utility.yul\":22037:22041   */\n      dup3\n        /* \"#utility.yul\":22023:22035   */\n      dup3\n        /* \"#utility.yul\":21939:22042   */\n      tag_709\n      jump\t// in\n    tag_803:\n        /* \"#utility.yul\":21931:22042   */\n      swap2\n      pop\n        /* \"#utility.yul\":21785:22053   */\n      pop\n        /* \"#utility.yul\":22070:22074   */\n      dup1\n        /* \"#utility.yul\":22063:22074   */\n      swap2\n      pop\n        /* \"#utility.yul\":20998:22080   */\n      pop\n        /* \"#utility.yul\":20894:22080   */\n      swap3\n      swap2\n      pop\n      pop\n      jump\t// out\n        /* \"#utility.yul\":22130:22792   */\n    tag_616:\n        /* \"#utility.yul\":22255:22259   */\n      0x60\n        /* \"#utility.yul\":22250:22253   */\n      dup3\n        /* \"#utility.yul\":22246:22260   */\n      add\n        /* \"#utility.yul\":22342:22346   */\n      0x00\n        /* \"#utility.yul\":22335:22340   */\n      dup3\n        /* \"#utility.yul\":22331:22347   */\n      add\n        /* \"#utility.yul\":22325:22348   */\n      mload\n        /* \"#utility.yul\":22361:22424   */\n      tag_805\n        /* \"#utility.yul\":22418:22422   */\n      0x00\n        /* \"#utility.yul\":22413:22416   */\n      dup6\n        /* \"#utility.yul\":22409:22423   */\n      add\n        /* \"#utility.yul\":22395:22407   */\n      dup3\n        /* \"#utility.yul\":22361:22424   */\n      tag_621\n      jump\t// in\n    tag_805:\n        /* \"#utility.yul\":22270:22434   */\n      pop\n        /* \"#utility.yul\":22516:22520   */\n      0x20\n        /* \"#utility.yul\":22509:22514   */\n      dup3\n        /* \"#utility.yul\":22505:22521   */\n      add\n        /* \"#utility.yul\":22499:22522   */\n      mload\n        /* \"#utility.yul\":22535:22598   */\n      tag_806\n        /* \"#utility.yul\":22592:22596   */\n      0x20\n        /* \"#utility.yul\":22587:22590   */\n      dup6\n        /* \"#utility.yul\":22583:22597   */\n      add\n        /* \"#utility.yul\":22569:22581   */\n      dup3\n        /* \"#utility.yul\":22535:22598   */\n      tag_620\n      jump\t// in\n    tag_806:\n        /* \"#utility.yul\":22444:22608   */\n      pop\n        /* \"#utility.yul\":22693:22697   */\n      0x40\n        /* \"#utility.yul\":22686:22691   */\n      dup3\n        /* \"#utility.yul\":22682:22698   */\n      add\n        /* \"#utility.yul\":22676:22699   */\n      mload\n        /* \"#utility.yul\":22712:22775   */\n      tag_807\n        /* \"#utility.yul\":22769:22773   */\n      0x40\n        /* \"#utility.yul\":22764:22767   */\n      dup6\n        /* \"#utility.yul\":22760:22774   */\n      add\n        /* \"#utility.yul\":22746:22758   */\n      dup3\n        /* \"#utility.yul\":22712:22775   */\n      tag_620\n      jump\t// in\n    tag_807:\n        /* \"#utility.yul\":22618:22785   */\n      pop\n        /* \"#utility.yul\":22224:22792   */\n      pop\n        /* \"#utility.yul\":22130:22792   */\n      pop\n      pop\n      jump\t// out\n        /* \"#utility.yul\":22798:22906   */\n    tag_620:\n        /* \"#utility.yul\":22875:22899   */\n      tag_809\n        /* \"#utility.yul\":22893:22898   */\n      dup2\n        /* \"#utility.yul\":22875:22899   */\n      tag_810\n      jump\t// in\n    tag_809:\n        /* \"#utility.yul\":22870:22873   */\n      dup3\n        /* \"#utility.yul\":22863:22900   */\n      mstore\n        /* \"#utility.yul\":22798:22906   */\n      pop\n      pop\n      jump\t// out\n        /* \"#utility.yul\":22912:23377   */\n    tag_39:\n        /* \"#utility.yul\":23101:23105   */\n      0x00\n        /* \"#utility.yul\":23139:23141   */\n      0x20\n        /* \"#utility.yul\":23128:23137   */\n      dup3\n        /* \"#utility.yul\":23124:23142   */\n      add\n        /* \"#utility.yul\":23116:23142   */\n      swap1\n      pop\n        /* \"#utility.yul\":23188:23197   */\n      dup2\n        /* \"#utility.yul\":23182:23186   */\n      dup2\n        /* \"#utility.yul\":23178:23198   */\n      sub\n        /* \"#utility.yul\":23174:23175   */\n      0x00\n        /* \"#utility.yul\":23163:23172   */\n      dup4\n        /* \"#utility.yul\":23159:23176   */\n      add\n        /* \"#utility.yul\":23152:23199   */\n      mstore\n        /* \"#utility.yul\":23216:23370   */\n      tag_812\n        /* \"#utility.yul\":23365:23369   */\n      dup2\n        /* \"#utility.yul\":23356:23362   */\n      dup5\n        /* \"#utility.yul\":23216:23370   */\n      tag_667\n      jump\t// in\n    tag_812:\n        /* \"#utility.yul\":23208:23370   */\n      swap1\n      pop\n        /* \"#utility.yul\":22912:23377   */\n      swap3\n      swap2\n      pop\n      pop\n      jump\t// out\n        /* \"#utility.yul\":23383:23836   */\n    tag_35:\n        /* \"#utility.yul\":23566:23570   */\n      0x00\n        /* \"#utility.yul\":23604:23606   */\n      0x20\n        /* \"#utility.yul\":23593:23602   */\n      dup3\n        /* \"#utility.yul\":23589:23607   */\n      add\n        /* \"#utility.yul\":23581:23607   */\n      swap1\n      pop\n        /* \"#utility.yul\":23653:23662   */\n      dup2\n        /* \"#utility.yul\":23647:23651   */\n      dup2\n        /* \"#utility.yul\":23643:23663   */\n      sub\n        /* \"#utility.yul\":23639:23640   */\n      0x00\n        /* \"#utility.yul\":23628:23637   */\n      dup4\n        /* \"#utility.yul\":23624:23641   */\n      add\n        /* \"#utility.yul\":23617:23664   */\n      mstore\n        /* \"#utility.yul\":23681:23829   */\n      tag_814\n        /* \"#utility.yul\":23824:23828   */\n      dup2\n        /* \"#utility.yul\":23815:23821   */\n      dup5\n        /* \"#utility.yul\":23681:23829   */\n      tag_681\n      jump\t// in\n    tag_814:\n        /* \"#utility.yul\":23673:23829   */\n      swap1\n      pop\n        /* \"#utility.yul\":23383:23836   */\n      swap3\n      swap2\n      pop\n      pop\n      jump\t// out\n        /* \"#utility.yul\":23842:24291   */\n    tag_67:\n        /* \"#utility.yul\":24023:24027   */\n      0x00\n        /* \"#utility.yul\":24061:24063   */\n      0x20\n        /* \"#utility.yul\":24050:24059   */\n      dup3\n        /* \"#utility.yul\":24046:24064   */\n      add\n        /* \"#utility.yul\":24038:24064   */\n      swap1\n      pop\n        /* \"#utility.yul\":24110:24119   */\n      dup2\n        /* \"#utility.yul\":24104:24108   */\n      dup2\n        /* \"#utility.yul\":24100:24120   */\n      sub\n        /* \"#utility.yul\":24096:24097   */\n      0x00\n        /* \"#utility.yul\":24085:24094   */\n      dup4\n        /* \"#utility.yul\":24081:24098   */\n      add\n        /* \"#utility.yul\":24074:24121   */\n      mstore\n        /* \"#utility.yul\":24138:24284   */\n      tag_816\n        /* \"#utility.yul\":24279:24283   */\n      dup2\n        /* \"#utility.yul\":24270:24276   */\n      dup5\n        /* \"#utility.yul\":24138:24284   */\n      tag_695\n      jump\t// in\n    tag_816:\n        /* \"#utility.yul\":24130:24284   */\n      swap1\n      pop\n        /* \"#utility.yul\":23842:24291   */\n      swap3\n      swap2\n      pop\n      pop\n      jump\t// out\n        /* \"#utility.yul\":24297:24716   */\n    tag_265:\n        /* \"#utility.yul\":24463:24467   */\n      0x00\n        /* \"#utility.yul\":24501:24503   */\n      0x20\n        /* \"#utility.yul\":24490:24499   */\n      dup3\n        /* \"#utility.yul\":24486:24504   */\n      add\n        /* \"#utility.yul\":24478:24504   */\n      swap1\n      pop\n        /* \"#utility.yul\":24550:24559   */\n      dup2\n        /* \"#utility.yul\":24544:24548   */\n      dup2\n        /* \"#utility.yul\":24540:24560   */\n      sub\n        /* \"#utility.yul\":24536:24537   */\n      0x00\n        /* \"#utility.yul\":24525:24534   */\n      dup4\n        /* \"#utility.yul\":24521:24538   */\n      add\n        /* \"#utility.yul\":24514:24561   */\n      mstore\n        /* \"#utility.yul\":24578:24709   */\n      tag_818\n        /* \"#utility.yul\":24704:24708   */\n      dup2\n        /* \"#utility.yul\":24578:24709   */\n      tag_737\n      jump\t// in\n    tag_818:\n        /* \"#utility.yul\":24570:24709   */\n      swap1\n      pop\n        /* \"#utility.yul\":24297:24716   */\n      swap2\n      swap1\n      pop\n      jump\t// out\n        /* \"#utility.yul\":24722:25141   */\n    tag_133:\n        /* \"#utility.yul\":24888:24892   */\n      0x00\n        /* \"#utility.yul\":24926:24928   */\n      0x20\n        /* \"#utility.yul\":24915:24924   */\n      dup3\n        /* \"#utility.yul\":24911:24929   */\n      add\n        /* \"#utility.yul\":24903:24929   */\n      swap1\n      pop\n        /* \"#utility.yul\":24975:24984   */\n      dup2\n        /* \"#utility.yul\":24969:24973   */\n      dup2\n        /* \"#utility.yul\":24965:24985   */\n      sub\n        /* \"#utility.yul\":24961:24962   */\n      0x00\n        /* \"#utility.yul\":24950:24959   */\n      dup4\n        /* \"#utility.yul\":24946:24963   */\n      add\n        /* \"#utility.yul\":24939:24986   */\n      mstore\n        /* \"#utility.yul\":25003:25134   */\n      tag_820\n        /* \"#utility.yul\":25129:25133   */\n      dup2\n        /* \"#utility.yul\":25003:25134   */\n      tag_743\n      jump\t// in\n    tag_820:\n        /* \"#utility.yul\":24995:25134   */\n      swap1\n      pop\n        /* \"#utility.yul\":24722:25141   */\n      swap2\n      swap1\n      pop\n      jump\t// out\n        /* \"#utility.yul\":25147:25566   */\n    tag_192:\n        /* \"#utility.yul\":25313:25317   */\n      0x00\n        /* \"#utility.yul\":25351:25353   */\n      0x20\n        /* \"#utility.yul\":25340:25349   */\n      dup3\n        /* \"#utility.yul\":25336:25354   */\n      add\n        /* \"#utility.yul\":25328:25354   */\n      swap1\n      pop\n        /* \"#utility.yul\":25400:25409   */\n      dup2\n        /* \"#utility.yul\":25394:25398   */\n      dup2\n        /* \"#utility.yul\":25390:25410   */\n      sub\n        /* \"#utility.yul\":25386:25387   */\n      0x00\n        /* \"#utility.yul\":25375:25384   */\n      dup4\n        /* \"#utility.yul\":25371:25388   */\n      add\n        /* \"#utility.yul\":25364:25411   */\n      mstore\n        /* \"#utility.yul\":25428:25559   */\n      tag_822\n        /* \"#utility.yul\":25554:25558   */\n      dup2\n        /* \"#utility.yul\":25428:25559   */\n      tag_748\n      jump\t// in\n    tag_822:\n        /* \"#utility.yul\":25420:25559   */\n      swap1\n      pop\n        /* \"#utility.yul\":25147:25566   */\n      swap2\n      swap1\n      pop\n      jump\t// out\n        /* \"#utility.yul\":25572:25991   */\n    tag_437:\n        /* \"#utility.yul\":25738:25742   */\n      0x00\n        /* \"#utility.yul\":25776:25778   */\n      0x20\n        /* \"#utility.yul\":25765:25774   */\n      dup3\n        /* \"#utility.yul\":25761:25779   */\n      add\n        /* \"#utility.yul\":25753:25779   */\n      swap1\n      pop\n        /* \"#utility.yul\":25825:25834   */\n      dup2\n        /* \"#utility.yul\":25819:25823   */\n      dup2\n        /* \"#utility.yul\":25815:25835   */\n      sub\n        /* \"#utility.yul\":25811:25812   */\n      0x00\n        /* \"#utility.yul\":25800:25809   */\n      dup4\n        /* \"#utility.yul\":25796:25813   */\n      add\n        /* \"#utility.yul\":25789:25836   */\n      mstore\n        /* \"#utility.yul\":25853:25984   */\n      tag_824\n        /* \"#utility.yul\":25979:25983   */\n      dup2\n        /* \"#utility.yul\":25853:25984   */\n      tag_753\n      jump\t// in\n    tag_824:\n        /* \"#utility.yul\":25845:25984   */\n      swap1\n      pop\n        /* \"#utility.yul\":25572:25991   */\n      swap2\n      swap1\n      pop\n      jump\t// out\n        /* \"#utility.yul\":25997:26416   */\n    tag_203:\n        /* \"#utility.yul\":26163:26167   */\n      0x00\n        /* \"#utility.yul\":26201:26203   */\n      0x20\n        /* \"#utility.yul\":26190:26199   */\n      dup3\n        /* \"#utility.yul\":26186:26204   */\n      add\n        /* \"#utility.yul\":26178:26204   */\n      swap1\n      pop\n        /* \"#utility.yul\":26250:26259   */\n      dup2\n        /* \"#utility.yul\":26244:26248   */\n      dup2\n        /* \"#utility.yul\":26240:26260   */\n      sub\n        /* \"#utility.yul\":26236:26237   */\n      0x00\n        /* \"#utility.yul\":26225:26234   */\n      dup4\n        /* \"#utility.yul\":26221:26238   */\n      add\n        /* \"#utility.yul\":26214:26261   */\n      mstore\n        /* \"#utility.yul\":26278:26409   */\n      tag_826\n        /* \"#utility.yul\":26404:26408   */\n      dup2\n        /* \"#utility.yul\":26278:26409   */\n      tag_758\n      jump\t// in\n    tag_826:\n        /* \"#utility.yul\":26270:26409   */\n      swap1\n      pop\n        /* \"#utility.yul\":25997:26416   */\n      swap2\n      swap1\n      pop\n      jump\t// out\n        /* \"#utility.yul\":26422:26841   */\n    tag_351:\n        /* \"#utility.yul\":26588:26592   */\n      0x00\n        /* \"#utility.yul\":26626:26628   */\n      0x20\n        /* \"#utility.yul\":26615:26624   */\n      dup3\n        /* \"#utility.yul\":26611:26629   */\n      add\n        /* \"#utility.yul\":26603:26629   */\n      swap1\n      pop\n        /* \"#utility.yul\":26675:26684   */\n      dup2\n        /* \"#utility.yul\":26669:26673   */\n      dup2\n        /* \"#utility.yul\":26665:26685   */\n      sub\n        /* \"#utility.yul\":26661:26662   */\n      0x00\n        /* \"#utility.yul\":26650:26659   */\n      dup4\n        /* \"#utility.yul\":26646:26663   */\n      add\n        /* \"#utility.yul\":26639:26686   */\n      mstore\n        /* \"#utility.yul\":26703:26834   */\n      tag_828\n        /* \"#utility.yul\":26829:26833   */\n      dup2\n        /* \"#utility.yul\":26703:26834   */\n      tag_763\n      jump\t// in\n    tag_828:\n        /* \"#utility.yul\":26695:26834   */\n      swap1\n      pop\n        /* \"#utility.yul\":26422:26841   */\n      swap2\n      swap1\n      pop\n      jump\t// out\n        /* \"#utility.yul\":26847:27266   */\n    tag_119:\n        /* \"#utility.yul\":27013:27017   */\n      0x00\n        /* \"#utility.yul\":27051:27053   */\n      0x20\n        /* \"#utility.yul\":27040:27049   */\n      dup3\n        /* \"#utility.yul\":27036:27054   */\n      add\n        /* \"#utility.yul\":27028:27054   */\n      swap1\n      pop\n        /* \"#utility.yul\":27100:27109   */\n      dup2\n        /* \"#utility.yul\":27094:27098   */\n      dup2\n        /* \"#utility.yul\":27090:27110   */\n      sub\n        /* \"#utility.yul\":27086:27087   */\n      0x00\n        /* \"#utility.yul\":27075:27084   */\n      dup4\n        /* \"#utility.yul\":27071:27088   */\n      add\n        /* \"#utility.yul\":27064:27111   */\n      mstore\n        /* \"#utility.yul\":27128:27259   */\n      tag_830\n        /* \"#utility.yul\":27254:27258   */\n      dup2\n        /* \"#utility.yul\":27128:27259   */\n      tag_768\n      jump\t// in\n    tag_830:\n        /* \"#utility.yul\":27120:27259   */\n      swap1\n      pop\n        /* \"#utility.yul\":26847:27266   */\n      swap2\n      swap1\n      pop\n      jump\t// out\n        /* \"#utility.yul\":27272:27691   */\n    tag_213:\n        /* \"#utility.yul\":27438:27442   */\n      0x00\n        /* \"#utility.yul\":27476:27478   */\n      0x20\n        /* \"#utility.yul\":27465:27474   */\n      dup3\n        /* \"#utility.yul\":27461:27479   */\n      add\n        /* \"#utility.yul\":27453:27479   */\n      swap1\n      pop\n        /* \"#utility.yul\":27525:27534   */\n      dup2\n        /* \"#utility.yul\":27519:27523   */\n      dup2\n        /* \"#utility.yul\":27515:27535   */\n      sub\n        /* \"#utility.yul\":27511:27512   */\n      0x00\n        /* \"#utility.yul\":27500:27509   */\n      dup4\n        /* \"#utility.yul\":27496:27513   */\n      add\n        /* \"#utility.yul\":27489:27536   */\n      mstore\n        /* \"#utility.yul\":27553:27684   */\n      tag_832\n        /* \"#utility.yul\":27679:27683   */\n      dup2\n        /* \"#utility.yul\":27553:27684   */\n      tag_773\n      jump\t// in\n    tag_832:\n        /* \"#utility.yul\":27545:27684   */\n      swap1\n      pop\n        /* \"#utility.yul\":27272:27691   */\n      swap2\n      swap1\n      pop\n      jump\t// out\n        /* \"#utility.yul\":27697:28116   */\n    tag_332:\n        /* \"#utility.yul\":27863:27867   */\n      0x00\n        /* \"#utility.yul\":27901:27903   */\n      0x20\n        /* \"#utility.yul\":27890:27899   */\n      dup3\n        /* \"#utility.yul\":27886:27904   */\n      add\n        /* \"#utility.yul\":27878:27904   */\n      swap1\n      pop\n        /* \"#utility.yul\":27950:27959   */\n      dup2\n        /* \"#utility.yul\":27944:27948   */\n      dup2\n        /* \"#utility.yul\":27940:27960   */\n      sub\n        /* \"#utility.yul\":27936:27937   */\n      0x00\n        /* \"#utility.yul\":27925:27934   */\n      dup4\n        /* \"#utility.yul\":27921:27938   */\n      add\n        /* \"#utility.yul\":27914:27961   */\n      mstore\n        /* \"#utility.yul\":27978:28109   */\n      tag_834\n        /* \"#utility.yul\":28104:28108   */\n      dup2\n        /* \"#utility.yul\":27978:28109   */\n      tag_778\n      jump\t// in\n    tag_834:\n        /* \"#utility.yul\":27970:28109   */\n      swap1\n      pop\n        /* \"#utility.yul\":27697:28116   */\n      swap2\n      swap1\n      pop\n      jump\t// out\n        /* \"#utility.yul\":28122:28251   */\n    tag_531:\n        /* \"#utility.yul\":28156:28162   */\n      0x00\n        /* \"#utility.yul\":28183:28203   */\n      tag_836\n      tag_837\n      jump\t// in\n    tag_836:\n        /* \"#utility.yul\":28173:28203   */\n      swap1\n      pop\n        /* \"#utility.yul\":28212:28245   */\n      tag_838\n        /* \"#utility.yul\":28240:28244   */\n      dup3\n        /* \"#utility.yul\":28232:28238   */\n      dup3\n        /* \"#utility.yul\":28212:28245   */\n      tag_839\n      jump\t// in\n    tag_838:\n        /* \"#utility.yul\":28122:28251   */\n      swap2\n      swap1\n      pop\n      jump\t// out\n        /* \"#utility.yul\":28257:28332   */\n    tag_837:\n        /* \"#utility.yul\":28290:28296   */\n      0x00\n        /* \"#utility.yul\":28323:28325   */\n      0x40\n        /* \"#utility.yul\":28317:28326   */\n      mload\n        /* \"#utility.yul\":28307:28326   */\n      swap1\n      pop\n        /* \"#utility.yul\":28257:28332   */\n      swap1\n      jump\t// out\n        /* \"#utility.yul\":28338:28646   */\n    tag_530:\n        /* \"#utility.yul\":28400:28404   */\n      0x00\n        /* \"#utility.yul\":28490:28508   */\n      0xffffffffffffffff\n        /* \"#utility.yul\":28482:28488   */\n      dup3\n        /* \"#utility.yul\":28479:28509   */\n      gt\n        /* \"#utility.yul\":28476:28532   */\n      iszero\n      tag_842\n      jumpi\n        /* \"#utility.yul\":28512:28530   */\n      tag_843\n      tag_844\n      jump\t// in\n    tag_843:\n        /* \"#utility.yul\":28476:28532   */\n    tag_842:\n        /* \"#utility.yul\":28550:28579   */\n      tag_845\n        /* \"#utility.yul\":28572:28578   */\n      dup3\n        /* \"#utility.yul\":28550:28579   */\n      tag_736\n      jump\t// in\n    tag_845:\n        /* \"#utility.yul\":28542:28579   */\n      swap1\n      pop\n        /* \"#utility.yul\":28634:28638   */\n      0x20\n        /* \"#utility.yul\":28628:28632   */\n      dup2\n        /* \"#utility.yul\":28624:28639   */\n      add\n        /* \"#utility.yul\":28616:28639   */\n      swap1\n      pop\n        /* \"#utility.yul\":28338:28646   */\n      swap2\n      swap1\n      pop\n      jump\t// out\n        /* \"#utility.yul\":28652:28807   */\n    tag_632:\n        /* \"#utility.yul\":28742:28746   */\n      0x00\n        /* \"#utility.yul\":28765:28768   */\n      dup2\n        /* \"#utility.yul\":28757:28768   */\n      swap1\n      pop\n        /* \"#utility.yul\":28795:28799   */\n      0x20\n        /* \"#utility.yul\":28790:28793   */\n      dup3\n        /* \"#utility.yul\":28786:28800   */\n      add\n        /* \"#utility.yul\":28778:28800   */\n      swap1\n      pop\n        /* \"#utility.yul\":28652:28807   */\n      swap2\n      swap1\n      pop\n      jump\t// out\n        /* \"#utility.yul\":28813:28965   */\n    tag_646:\n        /* \"#utility.yul\":28900:28904   */\n      0x00\n        /* \"#utility.yul\":28923:28926   */\n      dup2\n        /* \"#utility.yul\":28915:28926   */\n      swap1\n      pop\n        /* \"#utility.yul\":28953:28957   */\n      0x20\n        /* \"#utility.yul\":28948:28951   */\n      dup3\n        /* \"#utility.yul\":28944:28958   */\n      add\n        /* \"#utility.yul\":28936:28958   */\n      swap1\n      pop\n        /* \"#utility.yul\":28813:28965   */\n      swap2\n      swap1\n      pop\n      jump\t// out\n        /* \"#utility.yul\":28971:29123   */\n    tag_660:\n        /* \"#utility.yul\":29058:29062   */\n      0x00\n        /* \"#utility.yul\":29081:29084   */\n      dup2\n        /* \"#utility.yul\":29073:29084   */\n      swap1\n      pop\n        /* \"#utility.yul\":29111:29115   */\n      0x20\n        /* \"#utility.yul\":29106:29109   */\n      dup3\n        /* \"#utility.yul\":29102:29116   */\n      add\n        /* \"#utility.yul\":29094:29116   */\n      swap1\n      pop\n        /* \"#utility.yul\":28971:29123   */\n      swap2\n      swap1\n      pop\n      jump\t// out\n        /* \"#utility.yul\":29129:29284   */\n    tag_674:\n        /* \"#utility.yul\":29219:29223   */\n      0x00\n        /* \"#utility.yul\":29242:29245   */\n      dup2\n        /* \"#utility.yul\":29234:29245   */\n      swap1\n      pop\n        /* \"#utility.yul\":29272:29276   */\n      0x20\n        /* \"#utility.yul\":29267:29270   */\n      dup3\n        /* \"#utility.yul\":29263:29277   */\n      add\n        /* \"#utility.yul\":29255:29277   */\n      swap1\n      pop\n        /* \"#utility.yul\":29129:29284   */\n      swap2\n      swap1\n      pop\n      jump\t// out\n        /* \"#utility.yul\":29290:29442   */\n    tag_688:\n        /* \"#utility.yul\":29377:29381   */\n      0x00\n        /* \"#utility.yul\":29400:29403   */\n      dup2\n        /* \"#utility.yul\":29392:29403   */\n      swap1\n      pop\n        /* \"#utility.yul\":29430:29434   */\n      0x20\n        /* \"#utility.yul\":29425:29428   */\n      dup3\n        /* \"#utility.yul\":29421:29435   */\n      add\n        /* \"#utility.yul\":29413:29435   */\n      swap1\n      pop\n        /* \"#utility.yul\":29290:29442   */\n      swap2\n      swap1\n      pop\n      jump\t// out\n        /* \"#utility.yul\":29448:29599   */\n    tag_702:\n        /* \"#utility.yul\":29534:29538   */\n      0x00\n        /* \"#utility.yul\":29557:29560   */\n      dup2\n        /* \"#utility.yul\":29549:29560   */\n      swap1\n      pop\n        /* \"#utility.yul\":29587:29591   */\n      0x20\n        /* \"#utility.yul\":29582:29585   */\n      dup3\n        /* \"#utility.yul\":29578:29592   */\n      add\n        /* \"#utility.yul\":29570:29592   */\n      swap1\n      pop\n        /* \"#utility.yul\":29448:29599   */\n      swap2\n      swap1\n      pop\n      jump\t// out\n        /* \"#utility.yul\":29605:29737   */\n    tag_716:\n        /* \"#utility.yul\":29672:29676   */\n      0x00\n        /* \"#utility.yul\":29695:29698   */\n      dup2\n        /* \"#utility.yul\":29687:29698   */\n      swap1\n      pop\n        /* \"#utility.yul\":29725:29729   */\n      0x20\n        /* \"#utility.yul\":29720:29723   */\n      dup3\n        /* \"#utility.yul\":29716:29730   */\n      add\n        /* \"#utility.yul\":29708:29730   */\n      swap1\n      pop\n        /* \"#utility.yul\":29605:29737   */\n      swap2\n      swap1\n      pop\n      jump\t// out\n        /* \"#utility.yul\":29743:29880   */\n    tag_628:\n        /* \"#utility.yul\":29833:29839   */\n      0x00\n        /* \"#utility.yul\":29867:29872   */\n      dup2\n        /* \"#utility.yul\":29861:29873   */\n      mload\n        /* \"#utility.yul\":29851:29873   */\n      swap1\n      pop\n        /* \"#utility.yul\":29743:29880   */\n      swap2\n      swap1\n      pop\n      jump\t// out\n        /* \"#utility.yul\":29886:30020   */\n    tag_642:\n        /* \"#utility.yul\":29973:29979   */\n      0x00\n        /* \"#utility.yul\":30007:30012   */\n      dup2\n        /* \"#utility.yul\":30001:30013   */\n      mload\n        /* \"#utility.yul\":29991:30013   */\n      swap1\n      pop\n        /* \"#utility.yul\":29886:30020   */\n      swap2\n      swap1\n      pop\n      jump\t// out\n        /* \"#utility.yul\":30026:30160   */\n    tag_656:\n        /* \"#utility.yul\":30113:30119   */\n      0x00\n        /* \"#utility.yul\":30147:30152   */\n      dup2\n        /* \"#utility.yul\":30141:30153   */\n      mload\n        /* \"#utility.yul\":30131:30153   */\n      swap1\n      pop\n        /* \"#utility.yul\":30026:30160   */\n      swap2\n      swap1\n      pop\n      jump\t// out\n        /* \"#utility.yul\":30166:30303   */\n    tag_670:\n        /* \"#utility.yul\":30256:30262   */\n      0x00\n        /* \"#utility.yul\":30290:30295   */\n      dup2\n        /* \"#utility.yul\":30284:30296   */\n      mload\n        /* \"#utility.yul\":30274:30296   */\n      swap1\n      pop\n        /* \"#utility.yul\":30166:30303   */\n      swap2\n      swap1\n      pop\n      jump\t// out\n        /* \"#utility.yul\":30309:30443   */\n    tag_684:\n        /* \"#utility.yul\":30396:30402   */\n      0x00\n        /* \"#utility.yul\":30430:30435   */\n      dup2\n        /* \"#utility.yul\":30424:30436   */\n      mload\n        /* \"#utility.yul\":30414:30436   */\n      swap1\n      pop\n        /* \"#utility.yul\":30309:30443   */\n      swap2\n      swap1\n      pop\n      jump\t// out\n        /* \"#utility.yul\":30449:30582   */\n    tag_698:\n        /* \"#utility.yul\":30535:30541   */\n      0x00\n        /* \"#utility.yul\":30569:30574   */\n      dup2\n        /* \"#utility.yul\":30563:30575   */\n      mload\n        /* \"#utility.yul\":30553:30575   */\n      swap1\n      pop\n        /* \"#utility.yul\":30449:30582   */\n      swap2\n      swap1\n      pop\n      jump\t// out\n        /* \"#utility.yul\":30588:30702   */\n    tag_712:\n        /* \"#utility.yul\":30655:30661   */\n      0x00\n        /* \"#utility.yul\":30689:30694   */\n      dup2\n        /* \"#utility.yul\":30683:30695   */\n      mload\n        /* \"#utility.yul\":30673:30695   */\n      swap1\n      pop\n        /* \"#utility.yul\":30588:30702   */\n      swap2\n      swap1\n      pop\n      jump\t// out\n        /* \"#utility.yul\":30708:30807   */\n    tag_730:\n        /* \"#utility.yul\":30760:30766   */\n      0x00\n        /* \"#utility.yul\":30794:30799   */\n      dup2\n        /* \"#utility.yul\":30788:30800   */\n      mload\n        /* \"#utility.yul\":30778:30800   */\n      swap1\n      pop\n        /* \"#utility.yul\":30708:30807   */\n      swap2\n      swap1\n      pop\n      jump\t// out\n        /* \"#utility.yul\":30813:30949   */\n    tag_638:\n        /* \"#utility.yul\":30906:30910   */\n      0x00\n        /* \"#utility.yul\":30938:30942   */\n      0x20\n        /* \"#utility.yul\":30933:30936   */\n      dup3\n        /* \"#utility.yul\":30929:30943   */\n      add\n        /* \"#utility.yul\":30921:30943   */\n      swap1\n      pop\n        /* \"#utility.yul\":30813:30949   */\n      swap2\n      swap1\n      pop\n      jump\t// out\n        /* \"#utility.yul\":30955:31088   */\n    tag_652:\n        /* \"#utility.yul\":31045:31049   */\n      0x00\n        /* \"#utility.yul\":31077:31081   */\n      0x20\n        /* \"#utility.yul\":31072:31075   */\n      dup3\n        /* \"#utility.yul\":31068:31082   */\n      add\n        /* \"#utility.yul\":31060:31082   */\n      swap1\n      pop\n        /* \"#utility.yul\":30955:31088   */\n      swap2\n      swap1\n      pop\n      jump\t// out\n        /* \"#utility.yul\":31094:31227   */\n    tag_666:\n        /* \"#utility.yul\":31184:31188   */\n      0x00\n        /* \"#utility.yul\":31216:31220   */\n      0x20\n        /* \"#utility.yul\":31211:31214   */\n      dup3\n        /* \"#utility.yul\":31207:31221   */\n      add\n        /* \"#utility.yul\":31199:31221   */\n      swap1\n      pop\n        /* \"#utility.yul\":31094:31227   */\n      swap2\n      swap1\n      pop\n      jump\t// out\n        /* \"#utility.yul\":31233:31369   */\n    tag_680:\n        /* \"#utility.yul\":31326:31330   */\n      0x00\n        /* \"#utility.yul\":31358:31362   */\n      0x20\n        /* \"#utility.yul\":31353:31356   */\n      dup3\n        /* \"#utility.yul\":31349:31363   */\n      add\n        /* \"#utility.yul\":31341:31363   */\n      swap1\n      pop\n        /* \"#utility.yul\":31233:31369   */\n      swap2\n      swap1\n      pop\n      jump\t// out\n        /* \"#utility.yul\":31375:31508   */\n    tag_694:\n        /* \"#utility.yul\":31465:31469   */\n      0x00\n        /* \"#utility.yul\":31497:31501   */\n      0x20\n        /* \"#utility.yul\":31492:31495   */\n      dup3\n        /* \"#utility.yul\":31488:31502   */\n      add\n        /* \"#utility.yul\":31480:31502   */\n      swap1\n      pop\n        /* \"#utility.yul\":31375:31508   */\n      swap2\n      swap1\n      pop\n      jump\t// out\n        /* \"#utility.yul\":31514:31646   */\n    tag_708:\n        /* \"#utility.yul\":31603:31607   */\n      0x00\n        /* \"#utility.yul\":31635:31639   */\n      0x20\n        /* \"#utility.yul\":31630:31633   */\n      dup3\n        /* \"#utility.yul\":31626:31640   */\n      add\n        /* \"#utility.yul\":31618:31640   */\n      swap1\n      pop\n        /* \"#utility.yul\":31514:31646   */\n      swap2\n      swap1\n      pop\n      jump\t// out\n        /* \"#utility.yul\":31652:31765   */\n    tag_722:\n        /* \"#utility.yul\":31722:31726   */\n      0x00\n        /* \"#utility.yul\":31754:31758   */\n      0x20\n        /* \"#utility.yul\":31749:31752   */\n      dup3\n        /* \"#utility.yul\":31745:31759   */\n      add\n        /* \"#utility.yul\":31737:31759   */\n      swap1\n      pop\n        /* \"#utility.yul\":31652:31765   */\n      swap2\n      swap1\n      pop\n      jump\t// out\n        /* \"#utility.yul\":31771:31968   */\n    tag_630:\n        /* \"#utility.yul\":31883:31894   */\n      0x00\n        /* \"#utility.yul\":31917:31923   */\n      dup3\n        /* \"#utility.yul\":31912:31915   */\n      dup3\n        /* \"#utility.yul\":31905:31924   */\n      mstore\n        /* \"#utility.yul\":31957:31961   */\n      0x20\n        /* \"#utility.yul\":31952:31955   */\n      dup3\n        /* \"#utility.yul\":31948:31962   */\n      add\n        /* \"#utility.yul\":31933:31962   */\n      swap1\n      pop\n        /* \"#utility.yul\":31771:31968   */\n      swap3\n      swap2\n      pop\n      pop\n      jump\t// out\n        /* \"#utility.yul\":31974:32168   */\n    tag_644:\n        /* \"#utility.yul\":32083:32094   */\n      0x00\n        /* \"#utility.yul\":32117:32123   */\n      dup3\n        /* \"#utility.yul\":32112:32115   */\n      dup3\n        /* \"#utility.yul\":32105:32124   */\n      mstore\n        /* \"#utility.yul\":32157:32161   */\n      0x20\n        /* \"#utility.yul\":32152:32155   */\n      dup3\n        /* \"#utility.yul\":32148:32162   */\n      add\n        /* \"#utility.yul\":32133:32162   */\n      swap1\n      pop\n        /* \"#utility.yul\":31974:32168   */\n      swap3\n      swap2\n      pop\n      pop\n      jump\t// out\n        /* \"#utility.yul\":32174:32368   */\n    tag_658:\n        /* \"#utility.yul\":32283:32294   */\n      0x00\n        /* \"#utility.yul\":32317:32323   */\n      dup3\n        /* \"#utility.yul\":32312:32315   */\n      dup3\n        /* \"#utility.yul\":32305:32324   */\n      mstore\n        /* \"#utility.yul\":32357:32361   */\n      0x20\n        /* \"#utility.yul\":32352:32355   */\n      dup3\n        /* \"#utility.yul\":32348:32362   */\n      add\n        /* \"#utility.yul\":32333:32362   */\n      swap1\n      pop\n        /* \"#utility.yul\":32174:32368   */\n      swap3\n      swap2\n      pop\n      pop\n      jump\t// out\n        /* \"#utility.yul\":32374:32581   */\n    tag_672:\n        /* \"#utility.yul\":32496:32507   */\n      0x00\n        /* \"#utility.yul\":32530:32536   */\n      dup3\n        /* \"#utility.yul\":32525:32528   */\n      dup3\n        /* \"#utility.yul\":32518:32537   */\n      mstore\n        /* \"#utility.yul\":32570:32574   */\n      0x20\n        /* \"#utility.yul\":32565:32568   */\n      dup3\n        /* \"#utility.yul\":32561:32575   */\n      add\n        /* \"#utility.yul\":32546:32575   */\n      swap1\n      pop\n        /* \"#utility.yul\":32374:32581   */\n      swap3\n      swap2\n      pop\n      pop\n      jump\t// out\n        /* \"#utility.yul\":32587:32791   */\n    tag_686:\n        /* \"#utility.yul\":32706:32717   */\n      0x00\n        /* \"#utility.yul\":32740:32746   */\n      dup3\n        /* \"#utility.yul\":32735:32738   */\n      dup3\n        /* \"#utility.yul\":32728:32747   */\n      mstore\n        /* \"#utility.yul\":32780:32784   */\n      0x20\n        /* \"#utility.yul\":32775:32778   */\n      dup3\n        /* \"#utility.yul\":32771:32785   */\n      add\n        /* \"#utility.yul\":32756:32785   */\n      swap1\n      pop\n        /* \"#utility.yul\":32587:32791   */\n      swap3\n      swap2\n      pop\n      pop\n      jump\t// out\n        /* \"#utility.yul\":32797:33000   */\n    tag_700:\n        /* \"#utility.yul\":32915:32926   */\n      0x00\n        /* \"#utility.yul\":32949:32955   */\n      dup3\n        /* \"#utility.yul\":32944:32947   */\n      dup3\n        /* \"#utility.yul\":32937:32956   */\n      mstore\n        /* \"#utility.yul\":32989:32993   */\n      0x20\n        /* \"#utility.yul\":32984:32987   */\n      dup3\n        /* \"#utility.yul\":32980:32994   */\n      add\n        /* \"#utility.yul\":32965:32994   */\n      swap1\n      pop\n        /* \"#utility.yul\":32797:33000   */\n      swap3\n      swap2\n      pop\n      pop\n      jump\t// out\n        /* \"#utility.yul\":33006:33180   */\n    tag_714:\n        /* \"#utility.yul\":33095:33106   */\n      0x00\n        /* \"#utility.yul\":33129:33135   */\n      dup3\n        /* \"#utility.yul\":33124:33127   */\n      dup3\n        /* \"#utility.yul\":33117:33136   */\n      mstore\n        /* \"#utility.yul\":33169:33173   */\n      0x20\n        /* \"#utility.yul\":33164:33167   */\n      dup3\n        /* \"#utility.yul\":33160:33174   */\n      add\n        /* \"#utility.yul\":33145:33174   */\n      swap1\n      pop\n        /* \"#utility.yul\":33006:33180   */\n      swap3\n      swap2\n      pop\n      pop\n      jump\t// out\n        /* \"#utility.yul\":33186:33345   */\n    tag_732:\n        /* \"#utility.yul\":33260:33271   */\n      0x00\n        /* \"#utility.yul\":33294:33300   */\n      dup3\n        /* \"#utility.yul\":33289:33292   */\n      dup3\n        /* \"#utility.yul\":33282:33301   */\n      mstore\n        /* \"#utility.yul\":33334:33338   */\n      0x20\n        /* \"#utility.yul\":33329:33332   */\n      dup3\n        /* \"#utility.yul\":33325:33339   */\n      add\n        /* \"#utility.yul\":33310:33339   */\n      swap1\n      pop\n        /* \"#utility.yul\":33186:33345   */\n      swap3\n      swap2\n      pop\n      pop\n      jump\t// out\n        /* \"#utility.yul\":33351:33520   */\n    tag_740:\n        /* \"#utility.yul\":33435:33446   */\n      0x00\n        /* \"#utility.yul\":33469:33475   */\n      dup3\n        /* \"#utility.yul\":33464:33467   */\n      dup3\n        /* \"#utility.yul\":33457:33476   */\n      mstore\n        /* \"#utility.yul\":33509:33513   */\n      0x20\n        /* \"#utility.yul\":33504:33507   */\n      dup3\n        /* \"#utility.yul\":33500:33514   */\n      add\n        /* \"#utility.yul\":33485:33514   */\n      swap1\n      pop\n        /* \"#utility.yul\":33351:33520   */\n      swap3\n      swap2\n      pop\n      pop\n      jump\t// out\n        /* \"#utility.yul\":33526:33717   */\n    tag_81:\n        /* \"#utility.yul\":33566:33570   */\n      0x00\n        /* \"#utility.yul\":33586:33606   */\n      tag_878\n        /* \"#utility.yul\":33604:33605   */\n      dup3\n        /* \"#utility.yul\":33586:33606   */\n      tag_810\n      jump\t// in\n    tag_878:\n        /* \"#utility.yul\":33581:33606   */\n      swap2\n      pop\n        /* \"#utility.yul\":33620:33640   */\n      tag_879\n        /* \"#utility.yul\":33638:33639   */\n      dup4\n        /* \"#utility.yul\":33620:33640   */\n      tag_810\n      jump\t// in\n    tag_879:\n        /* \"#utility.yul\":33615:33640   */\n      swap3\n      pop\n        /* \"#utility.yul\":33659:33660   */\n      dup3\n        /* \"#utility.yul\":33656:33657   */\n      dup3\n        /* \"#utility.yul\":33653:33661   */\n      lt\n        /* \"#utility.yul\":33650:33684   */\n      iszero\n      tag_880\n      jumpi\n        /* \"#utility.yul\":33664:33682   */\n      tag_881\n      tag_882\n      jump\t// in\n    tag_881:\n        /* \"#utility.yul\":33650:33684   */\n    tag_880:\n        /* \"#utility.yul\":33709:33710   */\n      dup3\n        /* \"#utility.yul\":33706:33707   */\n      dup3\n        /* \"#utility.yul\":33702:33711   */\n      sub\n        /* \"#utility.yul\":33694:33711   */\n      swap1\n      pop\n        /* \"#utility.yul\":33526:33717   */\n      swap3\n      swap2\n      pop\n      pop\n      jump\t// out\n        /* \"#utility.yul\":33723:33819   */\n    tag_624:\n        /* \"#utility.yul\":33760:33767   */\n      0x00\n        /* \"#utility.yul\":33789:33813   */\n      tag_884\n        /* \"#utility.yul\":33807:33812   */\n      dup3\n        /* \"#utility.yul\":33789:33813   */\n      tag_885\n      jump\t// in\n    tag_884:\n        /* \"#utility.yul\":33778:33813   */\n      swap1\n      pop\n        /* \"#utility.yul\":33723:33819   */\n      swap2\n      swap1\n      pop\n      jump\t// out\n        /* \"#utility.yul\":33825:33915   */\n    tag_726:\n        /* \"#utility.yul\":33859:33866   */\n      0x00\n        /* \"#utility.yul\":33902:33907   */\n      dup2\n        /* \"#utility.yul\":33895:33908   */\n      iszero\n        /* \"#utility.yul\":33888:33909   */\n      iszero\n        /* \"#utility.yul\":33877:33909   */\n      swap1\n      pop\n        /* \"#utility.yul\":33825:33915   */\n      swap2\n      swap1\n      pop\n      jump\t// out\n        /* \"#utility.yul\":33921:34047   */\n    tag_885:\n        /* \"#utility.yul\":33958:33965   */\n      0x00\n        /* \"#utility.yul\":33998:34040   */\n      0xffffffffffffffffffffffffffffffffffffffff\n        /* \"#utility.yul\":33991:33996   */\n      dup3\n        /* \"#utility.yul\":33987:34041   */\n      and\n        /* \"#utility.yul\":33976:34041   */\n      swap1\n      pop\n        /* \"#utility.yul\":33921:34047   */\n      swap2\n      swap1\n      pop\n      jump\t// out\n        /* \"#utility.yul\":34053:34130   */\n    tag_810:\n        /* \"#utility.yul\":34090:34097   */\n      0x00\n        /* \"#utility.yul\":34119:34124   */\n      dup2\n        /* \"#utility.yul\":34108:34124   */\n      swap1\n      pop\n        /* \"#utility.yul\":34053:34130   */\n      swap2\n      swap1\n      pop\n      jump\t// out\n        /* \"#utility.yul\":34136:34290   */\n    tag_536:\n        /* \"#utility.yul\":34220:34226   */\n      dup3\n        /* \"#utility.yul\":34215:34218   */\n      dup2\n        /* \"#utility.yul\":34210:34213   */\n      dup4\n        /* \"#utility.yul\":34197:34227   */\n      calldatacopy\n        /* \"#utility.yul\":34282:34283   */\n      0x00\n        /* \"#utility.yul\":34273:34279   */\n      dup4\n        /* \"#utility.yul\":34268:34271   */\n      dup4\n        /* \"#utility.yul\":34264:34280   */\n      add\n        /* \"#utility.yul\":34257:34284   */\n      mstore\n        /* \"#utility.yul\":34136:34290   */\n      pop\n      pop\n      pop\n      jump\t// out\n        /* \"#utility.yul\":34296:34603   */\n    tag_734:\n        /* \"#utility.yul\":34364:34365   */\n      0x00\n        /* \"#utility.yul\":34374:34487   */\n    tag_891:\n        /* \"#utility.yul\":34388:34394   */\n      dup4\n        /* \"#utility.yul\":34385:34386   */\n      dup2\n        /* \"#utility.yul\":34382:34395   */\n      lt\n        /* \"#utility.yul\":34374:34487   */\n      iszero\n      tag_893\n      jumpi\n        /* \"#utility.yul\":34473:34474   */\n      dup1\n        /* \"#utility.yul\":34468:34471   */\n      dup3\n        /* \"#utility.yul\":34464:34475   */\n      add\n        /* \"#utility.yul\":34458:34476   */\n      mload\n        /* \"#utility.yul\":34454:34455   */\n      dup2\n        /* \"#utility.yul\":34449:34452   */\n      dup5\n        /* \"#utility.yul\":34445:34456   */\n      add\n        /* \"#utility.yul\":34438:34477   */\n      mstore\n        /* \"#utility.yul\":34410:34412   */\n      0x20\n        /* \"#utility.yul\":34407:34408   */\n      dup2\n        /* \"#utility.yul\":34403:34413   */\n      add\n        /* \"#utility.yul\":34398:34413   */\n      swap1\n      pop\n        /* \"#utility.yul\":34374:34487   */\n      jump(tag_891)\n    tag_893:\n        /* \"#utility.yul\":34505:34511   */\n      dup4\n        /* \"#utility.yul\":34502:34503   */\n      dup2\n        /* \"#utility.yul\":34499:34512   */\n      gt\n        /* \"#utility.yul\":34496:34597   */\n      iszero\n      tag_894\n      jumpi\n        /* \"#utility.yul\":34585:34586   */\n      0x00\n        /* \"#utility.yul\":34576:34582   */\n      dup5\n        /* \"#utility.yul\":34571:34574   */\n      dup5\n        /* \"#utility.yul\":34567:34583   */\n      add\n        /* \"#utility.yul\":34560:34587   */\n      mstore\n        /* \"#utility.yul\":34496:34597   */\n    tag_894:\n        /* \"#utility.yul\":34345:34603   */\n      pop\n        /* \"#utility.yul\":34296:34603   */\n      pop\n      pop\n      pop\n      jump\t// out\n        /* \"#utility.yul\":34609:34929   */\n    tag_223:\n        /* \"#utility.yul\":34653:34659   */\n      0x00\n        /* \"#utility.yul\":34690:34691   */\n      0x02\n        /* \"#utility.yul\":34684:34688   */\n      dup3\n        /* \"#utility.yul\":34680:34692   */\n      div\n        /* \"#utility.yul\":34670:34692   */\n      swap1\n      pop\n        /* \"#utility.yul\":34737:34738   */\n      0x01\n        /* \"#utility.yul\":34731:34735   */\n      dup3\n        /* \"#utility.yul\":34727:34739   */\n      and\n        /* \"#utility.yul\":34758:34776   */\n      dup1\n        /* \"#utility.yul\":34748:34829   */\n      tag_896\n      jumpi\n        /* \"#utility.yul\":34814:34818   */\n      0x7f\n        /* \"#utility.yul\":34806:34812   */\n      dup3\n        /* \"#utility.yul\":34802:34819   */\n      and\n        /* \"#utility.yul\":34792:34819   */\n      swap2\n      pop\n        /* \"#utility.yul\":34748:34829   */\n    tag_896:\n        /* \"#utility.yul\":34876:34878   */\n      0x20\n        /* \"#utility.yul\":34868:34874   */\n      dup3\n        /* \"#utility.yul\":34865:34879   */\n      lt\n        /* \"#utility.yul\":34845:34863   */\n      dup2\n        /* \"#utility.yul\":34842:34880   */\n      eq\n        /* \"#utility.yul\":34839:34923   */\n      iszero\n      tag_897\n      jumpi\n        /* \"#utility.yul\":34895:34913   */\n      tag_898\n      tag_899\n      jump\t// in\n    tag_898:\n        /* \"#utility.yul\":34839:34923   */\n    tag_897:\n        /* \"#utility.yul\":34660:34929   */\n      pop\n        /* \"#utility.yul\":34609:34929   */\n      swap2\n      swap1\n      pop\n      jump\t// out\n        /* \"#utility.yul\":34935:35216   */\n    tag_839:\n        /* \"#utility.yul\":35018:35045   */\n      tag_901\n        /* \"#utility.yul\":35040:35044   */\n      dup3\n        /* \"#utility.yul\":35018:35045   */\n      tag_736\n      jump\t// in\n    tag_901:\n        /* \"#utility.yul\":35010:35016   */\n      dup2\n        /* \"#utility.yul\":35006:35046   */\n      add\n        /* \"#utility.yul\":35148:35154   */\n      dup2\n        /* \"#utility.yul\":35136:35146   */\n      dup2\n        /* \"#utility.yul\":35133:35155   */\n      lt\n        /* \"#utility.yul\":35112:35130   */\n      0xffffffffffffffff\n        /* \"#utility.yul\":35100:35110   */\n      dup3\n        /* \"#utility.yul\":35097:35131   */\n      gt\n        /* \"#utility.yul\":35094:35156   */\n      or\n        /* \"#utility.yul\":35091:35179   */\n      iszero\n      tag_902\n      jumpi\n        /* \"#utility.yul\":35159:35177   */\n      tag_903\n      tag_844\n      jump\t// in\n    tag_903:\n        /* \"#utility.yul\":35091:35179   */\n    tag_902:\n        /* \"#utility.yul\":35199:35209   */\n      dup1\n        /* \"#utility.yul\":35195:35197   */\n      0x40\n        /* \"#utility.yul\":35188:35210   */\n      mstore\n        /* \"#utility.yul\":34978:35216   */\n      pop\n        /* \"#utility.yul\":34935:35216   */\n      pop\n      pop\n      jump\t// out\n        /* \"#utility.yul\":35222:35455   */\n    tag_116:\n        /* \"#utility.yul\":35261:35264   */\n      0x00\n        /* \"#utility.yul\":35284:35308   */\n      tag_905\n        /* \"#utility.yul\":35302:35307   */\n      dup3\n        /* \"#utility.yul\":35284:35308   */\n      tag_810\n      jump\t// in\n    tag_905:\n        /* \"#utility.yul\":35275:35308   */\n      swap2\n      pop\n        /* \"#utility.yul\":35330:35396   */\n      0xffffffffffffffffffffffffffffffffffffffffffffffffffffffffffffffff\n        /* \"#utility.yul\":35323:35328   */\n      dup3\n        /* \"#utility.yul\":35320:35397   */\n      eq\n        /* \"#utility.yul\":35317:35420   */\n      iszero\n      tag_906\n      jumpi\n        /* \"#utility.yul\":35400:35418   */\n      tag_907\n      tag_882\n      jump\t// in\n    tag_907:\n        /* \"#utility.yul\":35317:35420   */\n    tag_906:\n        /* \"#utility.yul\":35447:35448   */\n      0x01\n        /* \"#utility.yul\":35440:35445   */\n      dup3\n        /* \"#utility.yul\":35436:35449   */\n      add\n        /* \"#utility.yul\":35429:35449   */\n      swap1\n      pop\n        /* \"#utility.yul\":35222:35455   */\n      swap2\n      swap1\n      pop\n      jump\t// out\n        /* \"#utility.yul\":35461:35641   */\n    tag_882:\n        /* \"#utility.yul\":35509:35586   */\n      0x4e487b7100000000000000000000000000000000000000000000000000000000\n        /* \"#utility.yul\":35506:35507   */\n      0x00\n        /* \"#utility.yul\":35499:35587   */\n      mstore\n        /* \"#utility.yul\":35606:35610   */\n      0x11\n        /* \"#utility.yul\":35603:35604   */\n      0x04\n        /* \"#utility.yul\":35596:35611   */\n      mstore\n        /* \"#utility.yul\":35630:35634   */\n      0x24\n        /* \"#utility.yul\":35627:35628   */\n      0x00\n        /* \"#utility.yul\":35620:35635   */\n      revert\n        /* \"#utility.yul\":35647:35827   */\n    tag_899:\n        /* \"#utility.yul\":35695:35772   */\n      0x4e487b7100000000000000000000000000000000000000000000000000000000\n        /* \"#utility.yul\":35692:35693   */\n      0x00\n        /* \"#utility.yul\":35685:35773   */\n      mstore\n        /* \"#utility.yul\":35792:35796   */\n      0x22\n        /* \"#utility.yul\":35789:35790   */\n      0x04\n        /* \"#utility.yul\":35782:35797   */\n      mstore\n        /* \"#utility.yul\":35816:35820   */\n      0x24\n        /* \"#utility.yul\":35813:35814   */\n      0x00\n        /* \"#utility.yul\":35806:35821   */\n      revert\n        /* \"#utility.yul\":35833:36013   */\n    tag_71:\n        /* \"#utility.yul\":35881:35958   */\n      0x4e487b7100000000000000000000000000000000000000000000000000000000\n        /* \"#utility.yul\":35878:35879   */\n      0x00\n        /* \"#utility.yul\":35871:35959   */\n      mstore\n        /* \"#utility.yul\":35978:35982   */\n      0x32\n        /* \"#utility.yul\":35975:35976   */\n      0x04\n        /* \"#utility.yul\":35968:35983   */\n      mstore\n        /* \"#utility.yul\":36002:36006   */\n      0x24\n        /* \"#utility.yul\":35999:36000   */\n      0x00\n        /* \"#utility.yul\":35992:36007   */\n      revert\n        /* \"#utility.yul\":36019:36199   */\n    tag_844:\n        /* \"#utility.yul\":36067:36144   */\n      0x4e487b7100000000000000000000000000000000000000000000000000000000\n        /* \"#utility.yul\":36064:36065   */\n      0x00\n        /* \"#utility.yul\":36057:36145   */\n      mstore\n        /* \"#utility.yul\":36164:36168   */\n      0x41\n        /* \"#utility.yul\":36161:36162   */\n      0x04\n        /* \"#utility.yul\":36154:36169   */\n      mstore\n        /* \"#utility.yul\":36188:36192   */\n      0x24\n        /* \"#utility.yul\":36185:36186   */\n      0x00\n        /* \"#utility.yul\":36178:36193   */\n      revert\n        /* \"#utility.yul\":36205:36322   */\n    tag_549:\n        /* \"#utility.yul\":36314:36315   */\n      0x00\n        /* \"#utility.yul\":36311:36312   */\n      dup1\n        /* \"#utility.yul\":36304:36316   */\n      revert\n        /* \"#utility.yul\":36328:36445   */\n    tag_534:\n        /* \"#utility.yul\":36437:36438   */\n      0x00\n        /* \"#utility.yul\":36434:36435   */\n      dup1\n        /* \"#utility.yul\":36427:36439   */\n      revert\n        /* \"#utility.yul\":36451:36568   */\n    tag_566:\n        /* \"#utility.yul\":36560:36561   */\n      0x00\n        /* \"#utility.yul\":36557:36558   */\n      dup1\n        /* \"#utility.yul\":36550:36562   */\n      revert\n        /* \"#utility.yul\":36574:36691   */\n    tag_558:\n        /* \"#utility.yul\":36683:36684   */\n      0x00\n        /* \"#utility.yul\":36680:36681   */\n      dup1\n        /* \"#utility.yul\":36673:36685   */\n      revert\n        /* \"#utility.yul\":36697:36799   */\n    tag_736:\n        /* \"#utility.yul\":36738:36744   */\n      0x00\n        /* \"#utility.yul\":36789:36791   */\n      0x1f\n        /* \"#utility.yul\":36785:36792   */\n      not\n        /* \"#utility.yul\":36780:36782   */\n      0x1f\n        /* \"#utility.yul\":36773:36778   */\n      dup4\n        /* \"#utility.yul\":36769:36783   */\n      add\n        /* \"#utility.yul\":36765:36793   */\n      and\n        /* \"#utility.yul\":36755:36793   */\n      swap1\n      pop\n        /* \"#utility.yul\":36697:36799   */\n      swap2\n      swap1\n      pop\n      jump\t// out\n        /* \"#utility.yul\":36805:36958   */\n    tag_742:\n        /* \"#utility.yul\":36945:36950   */\n      0x3130340000000000000000000000000000000000000000000000000000000000\n        /* \"#utility.yul\":36941:36942   */\n      0x00\n        /* \"#utility.yul\":36933:36939   */\n      dup3\n        /* \"#utility.yul\":36929:36943   */\n      add\n        /* \"#utility.yul\":36922:36951   */\n      mstore\n        /* \"#utility.yul\":36805:36958   */\n      pop\n      jump\t// out\n        /* \"#utility.yul\":36964:37117   */\n    tag_747:\n        /* \"#utility.yul\":37104:37109   */\n      0x3130300000000000000000000000000000000000000000000000000000000000\n        /* \"#utility.yul\":37100:37101   */\n      0x00\n        /* \"#utility.yul\":37092:37098   */\n      dup3\n        /* \"#utility.yul\":37088:37102   */\n      add\n        /* \"#utility.yul\":37081:37110   */\n      mstore\n        /* \"#utility.yul\":36964:37117   */\n      pop\n      jump\t// out\n        /* \"#utility.yul\":37123:37276   */\n    tag_752:\n        /* \"#utility.yul\":37263:37268   */\n      0x3230310000000000000000000000000000000000000000000000000000000000\n        /* \"#utility.yul\":37259:37260   */\n      0x00\n        /* \"#utility.yul\":37251:37257   */\n      dup3\n        /* \"#utility.yul\":37247:37261   */\n      add\n        /* \"#utility.yul\":37240:37269   */\n      mstore\n        /* \"#utility.yul\":37123:37276   */\n      pop\n      jump\t// out\n        /* \"#utility.yul\":37282:37448   */\n    tag_757:\n        /* \"#utility.yul\":37422:37440   */\n      0x5520616c72656164792061646d696e2100000000000000000000000000000000\n        /* \"#utility.yul\":37418:37419   */\n      0x00\n        /* \"#utility.yul\":37410:37416   */\n      dup3\n        /* \"#utility.yul\":37406:37420   */\n      add\n        /* \"#utility.yul\":37399:37441   */\n      mstore\n        /* \"#utility.yul\":37282:37448   */\n      pop\n      jump\t// out\n        /* \"#utility.yul\":37454:37618   */\n    tag_762:\n        /* \"#utility.yul\":37594:37610   */\n      0x49742069736e27742073686f7021000000000000000000000000000000000000\n        /* \"#utility.yul\":37590:37591   */\n      0x00\n        /* \"#utility.yul\":37582:37588   */\n      dup3\n        /* \"#utility.yul\":37578:37592   */\n      add\n        /* \"#utility.yul\":37571:37611   */\n      mstore\n        /* \"#utility.yul\":37454:37618   */\n      pop\n      jump\t// out\n        /* \"#utility.yul\":37624:37777   */\n    tag_767:\n        /* \"#utility.yul\":37764:37769   */\n      0x3130330000000000000000000000000000000000000000000000000000000000\n        /* \"#utility.yul\":37760:37761   */\n      0x00\n        /* \"#utility.yul\":37752:37758   */\n      dup3\n        /* \"#utility.yul\":37748:37762   */\n      add\n        /* \"#utility.yul\":37741:37770   */\n      mstore\n        /* \"#utility.yul\":37624:37777   */\n      pop\n      jump\t// out\n        /* \"#utility.yul\":37783:37936   */\n    tag_772:\n        /* \"#utility.yul\":37923:37928   */\n      0x3230300000000000000000000000000000000000000000000000000000000000\n        /* \"#utility.yul\":37919:37920   */\n      0x00\n        /* \"#utility.yul\":37911:37917   */\n      dup3\n        /* \"#utility.yul\":37907:37921   */\n      add\n        /* \"#utility.yul\":37900:37929   */\n      mstore\n        /* \"#utility.yul\":37783:37936   */\n      pop\n      jump\t// out\n        /* \"#utility.yul\":37942:38104   */\n    tag_777:\n        /* \"#utility.yul\":38082:38096   */\n      0x53686f7020657869737473210000000000000000000000000000000000000000\n        /* \"#utility.yul\":38078:38079   */\n      0x00\n        /* \"#utility.yul\":38070:38076   */\n      dup3\n        /* \"#utility.yul\":38066:38080   */\n      add\n        /* \"#utility.yul\":38059:38097   */\n      mstore\n        /* \"#utility.yul\":37942:38104   */\n      pop\n      jump\t// out\n        /* \"#utility.yul\":38110:38263   */\n    tag_782:\n        /* \"#utility.yul\":38250:38255   */\n      0x3130310000000000000000000000000000000000000000000000000000000000\n        /* \"#utility.yul\":38246:38247   */\n      0x00\n        /* \"#utility.yul\":38238:38244   */\n      dup3\n        /* \"#utility.yul\":38234:38248   */\n      add\n        /* \"#utility.yul\":38227:38256   */\n      mstore\n        /* \"#utility.yul\":38110:38263   */\n      pop\n      jump\t// out\n        /* \"#utility.yul\":38269:38391   */\n    tag_540:\n        /* \"#utility.yul\":38342:38366   */\n      tag_927\n        /* \"#utility.yul\":38360:38365   */\n      dup2\n        /* \"#utility.yul\":38342:38366   */\n      tag_624\n      jump\t// in\n    tag_927:\n        /* \"#utility.yul\":38335:38340   */\n      dup2\n        /* \"#utility.yul\":38332:38367   */\n      eq\n        /* \"#utility.yul\":38322:38385   */\n      tag_928\n      jumpi\n        /* \"#utility.yul\":38381:38382   */\n      0x00\n        /* \"#utility.yul\":38378:38379   */\n      dup1\n        /* \"#utility.yul\":38371:38383   */\n      revert\n        /* \"#utility.yul\":38322:38385   */\n    tag_928:\n        /* \"#utility.yul\":38269:38391   */\n      pop\n      jump\t// out\n        /* \"#utility.yul\":38397:38513   */\n    tag_544:\n        /* \"#utility.yul\":38467:38488   */\n      tag_930\n        /* \"#utility.yul\":38482:38487   */\n      dup2\n        /* \"#utility.yul\":38467:38488   */\n      tag_726\n      jump\t// in\n    tag_930:\n        /* \"#utility.yul\":38460:38465   */\n      dup2\n        /* \"#utility.yul\":38457:38489   */\n      eq\n        /* \"#utility.yul\":38447:38507   */\n      tag_931\n      jumpi\n        /* \"#utility.yul\":38503:38504   */\n      0x00\n        /* \"#utility.yul\":38500:38501   */\n      dup1\n        /* \"#utility.yul\":38493:38505   */\n      revert\n        /* \"#utility.yul\":38447:38507   */\n    tag_931:\n        /* \"#utility.yul\":38397:38513   */\n      pop\n      jump\t// out\n        /* \"#utility.yul\":38519:38641   */\n    tag_554:\n        /* \"#utility.yul\":38592:38616   */\n      tag_933\n        /* \"#utility.yul\":38610:38615   */\n      dup2\n        /* \"#utility.yul\":38592:38616   */\n      tag_810\n      jump\t// in\n    tag_933:\n        /* \"#utility.yul\":38585:38590   */\n      dup2\n        /* \"#utility.yul\":38582:38617   */\n      eq\n        /* \"#utility.yul\":38572:38635   */\n      tag_934\n      jumpi\n        /* \"#utility.yul\":38631:38632   */\n      0x00\n        /* \"#utility.yul\":38628:38629   */\n      dup1\n        /* \"#utility.yul\":38621:38633   */\n      revert\n        /* \"#utility.yul\":38572:38635   */\n    tag_934:\n        /* \"#utility.yul\":38519:38641   */\n      pop\n      jump\t// out\n\n    auxdata: 0xa2646970667358221220cafdaac6fe3a3fa78a08adbbddaed8e2794d0bba298b68619d335c87ee895cb864736f6c63430008070033\n}\n",
				"bytecode": {
					"linkReferences": {},
					"object": "60806040523480156200001157600080fd5b5062000039732eeb8e636d2b7bf006aef7df63c1b388c3d0bb5e6000620000b460201b60201c565b620000607355cc20d0cddfed1f06b669a8ff6eba58218bbbd76001620000b460201b60201c565b620000877355cc20d0cddfed1f06b669a8ff6eba58218bbbd76002620000b460201b60201c565b620000ae73f4ee813a8c8214fc058636e31e670213cfc183b56002620000b460201b60201c565b62000446565b8160005b60018054905081101562000196578173ffffffffffffffffffffffffffffffffffffffff1660018281548110620000f457620000f3620003c5565b5b906000526020600020906003020160000160009054906101000a900473ffffffffffffffffffffffffffffffffffffffff1673ffffffffffffffffffffffffffffffffffffffff16141562000180576040517f08c379a000000000000000000000000000000000000000000000000000000000815260040162000177906200030b565b60405180910390fd5b80806200018d9062000348565b915050620000b8565b5060038210620001dd576040517f08c379a0000000000000000000000000000000000000000000000000000000008152600401620001d490620002e9565b60405180910390fd5b600160405180606001604052808573ffffffffffffffffffffffffffffffffffffffff16815260200184815260200184815250908060018154018082558091505060019003906000526020600020906003020160009091909190915060008201518160000160006101000a81548173ffffffffffffffffffffffffffffffffffffffff021916908373ffffffffffffffffffffffffffffffffffffffff16021790555060208201518160010155604082015181600201555050505050565b6000620002aa6003836200032d565b9150620002b782620003f4565b602082019050919050565b6000620002d16003836200032d565b9150620002de826200041d565b602082019050919050565b6000602082019050818103600083015262000304816200029b565b9050919050565b600060208201905081810360008301526200032681620002c2565b9050919050565b600082825260208201905092915050565b6000819050919050565b600062000355826200033e565b91507fffffffffffffffffffffffffffffffffffffffffffffffffffffffffffffffff8214156200038b576200038a62000396565b5b600182019050919050565b7f4e487b7100000000000000000000000000000000000000000000000000000000600052601160045260246000fd5b7f4e487b7100000000000000000000000000000000000000000000000000000000600052603260045260246000fd5b7f3130320000000000000000000000000000000000000000000000000000000000600082015250565b7f3230310000000000000000000000000000000000000000000000000000000000600082015250565b6138b180620004566000396000f3fe608060405234801561001057600080fd5b50600436106100e95760003560e01c80633efdebf11161008c57806366b2f7911161006657806366b2f791146101d457806370480275146101f0578063ab122ef51461020c578063ad81f80314610228576100e9565b80633efdebf1146101925780634384a79f146101ae57806349b15962146101ca576100e9565b8063240185b6116100c8578063240185b6146101425780632bd2cd50146101605780632e91d7061461017e5780633b95a23f14610188576100e9565b806282f88e146100ee5780631a0550e31461010a5780631c618eb314610126575b600080fd5b6101086004803603810190610103919061290c565b610246565b005b610124600480360381019061011f919061288c565b610459565b005b610140600480360381019061013b9190612830565b6107ba565b005b61014a610cc1565b6040516101579190613104565b60405180910390f35b610168611290565b60405161017591906130e2565b60405180910390f35b61018661135c565b005b610190611527565b005b6101ac60048036038101906101a7919061288c565b6116be565b005b6101c860048036038101906101c391906128b9565b61185c565b005b6101d2611a70565b005b6101ee60048036038101906101e9919061297b565b611c4f565b005b61020a60048036038101906102059190612803565b611e87565b005b6102266004803603810190610221919061290c565b6121b7565b005b6102306123f8565b60405161023d9190613126565b60405180910390f35b6000838154811061025a57610259613642565b5b906000526020600020906004020160020160018160018154018082558091505003906000526020600020905050336000848154811061029c5761029b613642565b5b90600052602060002090600402016002016001600086815481106102c3576102c2613642565b5b9060005260206000209060040201600201805490506102e2919061347a565b815481106102f3576102f2613642565b5b906000526020600020906005020160000160006101000a81548173ffffffffffffffffffffffffffffffffffffffff021916908373ffffffffffffffffffffffffffffffffffffffff160217905550816000848154811061035757610356613642565b5b906000526020600020906004020160020160016000868154811061037e5761037d613642565b5b90600052602060002090600402016002018054905061039d919061347a565b815481106103ae576103ad613642565b5b90600052602060002090600502016001018190555080600084815481106103d8576103d7613642565b5b90600052602060002090600402016002016001600086815481106103ff576103fe613642565b5b90600052602060002090600402016002018054905061041e919061347a565b8154811061042f5761042e613642565b5b906000526020600020906005020160040190805190602001906104539291906124c1565b50505050565b336000805b600180549050811015610500578273ffffffffffffffffffffffffffffffffffffffff166001828154811061049657610495613642565b5b906000526020600020906003020160000160009054906101000a900473ffffffffffffffffffffffffffffffffffffffff1673ffffffffffffffffffffffffffffffffffffffff1614156104ed5760019150610500565b80806104f89061359b565b91505061045e565b508015610542576040517f08c379a000000000000000000000000000000000000000000000000000000000815260040161053990613208565b60405180910390fd5b3360005b60018054905081101561064c578173ffffffffffffffffffffffffffffffffffffffff166001828154811061057e5761057d613642565b5b906000526020600020906003020160000160009054906101000a900473ffffffffffffffffffffffffffffffffffffffff1673ffffffffffffffffffffffffffffffffffffffff161415610639576000600182815481106105e2576105e1613642565b5b90600052602060002090600302016002015414610634576040517f08c379a000000000000000000000000000000000000000000000000000000000815260040161062b90613168565b60405180910390fd5b61064c565b80806106449061359b565b915050610546565b5060005b6001805490508110156107b3576002858154811061067157610670613642565b5b9060005260206000200160000160009054906101000a900473ffffffffffffffffffffffffffffffffffffffff1673ffffffffffffffffffffffffffffffffffffffff16600182815481106106c9576106c8613642565b5b906000526020600020906003020160000160009054906101000a900473ffffffffffffffffffffffffffffffffffffffff1673ffffffffffffffffffffffffffffffffffffffff1614156107a057600180828154811061072c5761072b613642565b5b90600052602060002090600302016001015414156107745760026001828154811061075a57610759613642565b5b90600052602060002090600302016001018190555061079f565b600180828154811061078957610788613642565b5b9060005260206000209060030201600101819055505b5b80806107ab9061359b565b915050610650565b5050505050565b336000805b600180549050811015610861578273ffffffffffffffffffffffffffffffffffffffff16600182815481106107f7576107f6613642565b5b906000526020600020906003020160000160009054906101000a900473ffffffffffffffffffffffffffffffffffffffff1673ffffffffffffffffffffffffffffffffffffffff16141561084e5760019150610861565b80806108599061359b565b9150506107bf565b5080156108a3576040517f08c379a000000000000000000000000000000000000000000000000000000000815260040161089a90613208565b60405180910390fd5b3360005b6001805490508110156109ad578173ffffffffffffffffffffffffffffffffffffffff16600182815481106108df576108de613642565b5b906000526020600020906003020160000160009054906101000a900473ffffffffffffffffffffffffffffffffffffffff1673ffffffffffffffffffffffffffffffffffffffff16141561099a5760006001828154811061094357610942613642565b5b90600052602060002090600302016002015414610995576040517f08c379a000000000000000000000000000000000000000000000000000000000815260040161098c90613168565b60405180910390fd5b6109ad565b80806109a59061359b565b9150506108a7565b508460005b600180549050811015610a86578173ffffffffffffffffffffffffffffffffffffffff16600182815481106109ea576109e9613642565b5b906000526020600020906003020160000160009054906101000a900473ffffffffffffffffffffffffffffffffffffffff1673ffffffffffffffffffffffffffffffffffffffff161415610a73576040517f08c379a0000000000000000000000000000000000000000000000000000000008152600401610a6a90613188565b60405180910390fd5b8080610a7e9061359b565b9150506109b2565b508560005b600180549050811015610b5f578173ffffffffffffffffffffffffffffffffffffffff1660018281548110610ac357610ac2613642565b5b906000526020600020906003020160000160009054906101000a900473ffffffffffffffffffffffffffffffffffffffff1673ffffffffffffffffffffffffffffffffffffffff161415610b4c576040517f08c379a0000000000000000000000000000000000000000000000000000000008152600401610b43906131c8565b60405180910390fd5b8080610b579061359b565b915050610a8b565b5060005b600080549050811015610c37578173ffffffffffffffffffffffffffffffffffffffff1660008281548110610b9b57610b9a613642565b5b906000526020600020906004020160000160009054906101000a900473ffffffffffffffffffffffffffffffffffffffff1673ffffffffffffffffffffffffffffffffffffffff161415610c24576040517f08c379a0000000000000000000000000000000000000000000000000000000008152600401610c1b90613228565b60405180910390fd5b8080610c2f9061359b565b915050610b63565b506000806001816001815401808255809150500390600052602060002090600402019050878160000160006101000a81548173ffffffffffffffffffffffffffffffffffffffff021916908373ffffffffffffffffffffffffffffffffffffffff16021790555086816001019080519060200190610cb69291906124c1565b505050505050505050565b60606000805480602002602001604051908101604052809291908181526020016000905b8282101561128757838290600052602060002090600402016040518060800160405290816000820160009054906101000a900473ffffffffffffffffffffffffffffffffffffffff1673ffffffffffffffffffffffffffffffffffffffff1673ffffffffffffffffffffffffffffffffffffffff168152602001600182018054610d6e90613538565b80601f0160208091040260200160405190810160405280929190818152602001828054610d9a90613538565b8015610de75780601f10610dbc57610100808354040283529160200191610de7565b820191906000526020600020905b815481529060010190602001808311610dca57829003601f168201915b5050505050815260200160028201805480602002602001604051908101604052809291908181526020016000905b8282101561121857838290600052602060002090600502016040518060a00160405290816000820160009054906101000a900473ffffffffffffffffffffffffffffffffffffffff1673ffffffffffffffffffffffffffffffffffffffff1673ffffffffffffffffffffffffffffffffffffffff1681526020016001820154815260200160028201805480602002602001604051908101604052809291908181526020016000905b82821015610f5c578382906000526020600020016040518060400160405290816000820160009054906101000a900473ffffffffffffffffffffffffffffffffffffffff1673ffffffffffffffffffffffffffffffffffffffff1673ffffffffffffffffffffffffffffffffffffffff1681526020016000820160149054906101000a900460ff16151515158152505081526020019060010190610ebd565b50505050815260200160038201805480602002602001604051908101604052809291908181526020016000905b8282101561116f57838290600052602060002090600302016040518060600160405290816000820160009054906101000a900473ffffffffffffffffffffffffffffffffffffffff1673ffffffffffffffffffffffffffffffffffffffff1673ffffffffffffffffffffffffffffffffffffffff16815260200160018201805480602002602001604051908101604052809291908181526020016000905b828210156110c6578382906000526020600020016040518060400160405290816000820160009054906101000a900473ffffffffffffffffffffffffffffffffffffffff1673ffffffffffffffffffffffffffffffffffffffff1673ffffffffffffffffffffffffffffffffffffffff1681526020016000820160149054906101000a900460ff16151515158152505081526020019060010190611027565b5050505081526020016002820180546110de90613538565b80601f016020809104026020016040519081016040528092919081815260200182805461110a90613538565b80156111575780601f1061112c57610100808354040283529160200191611157565b820191906000526020600020905b81548152906001019060200180831161113a57829003601f168201915b50505050508152505081526020019060010190610f89565b50505050815260200160048201805461118790613538565b80601f01602080910402602001604051908101604052809291908181526020018280546111b390613538565b80156112005780601f106111d557610100808354040283529160200191611200565b820191906000526020600020905b8154815290600101906020018083116111e357829003601f168201915b50505050508152505081526020019060010190610e15565b5050505081526020016003820180548060200260200160405190810160405280929190818152602001828054801561126f57602002820191906000526020600020905b81548152602001906001019080831161125b575b50505050508152505081526020019060010190610ce5565b50505050905090565b60606002805480602002602001604051908101604052809291908181526020016000905b82821015611353578382906000526020600020016040518060400160405290816000820160009054906101000a900473ffffffffffffffffffffffffffffffffffffffff1673ffffffffffffffffffffffffffffffffffffffff1673ffffffffffffffffffffffffffffffffffffffff1681526020016000820160149054906101000a900460ff161515151581525050815260200190600101906112b4565b50505050905090565b60005b6001805490508110156115245760006001828154811061138257611381613642565b5b90600052602060002090600302016001015414156113d5576040517f08c379a00000000000000000000000000000000000000000000000000000000081526004016113cc90613148565b60405180910390fd5b3373ffffffffffffffffffffffffffffffffffffffff1660018281548110611400576113ff613642565b5b906000526020600020906003020160000160009054906101000a900473ffffffffffffffffffffffffffffffffffffffff1673ffffffffffffffffffffffffffffffffffffffff16141561151157600260405180604001604052803373ffffffffffffffffffffffffffffffffffffffff168152602001600015158152509080600181540180825580915050600190039060005260206000200160009091909190915060008201518160000160006101000a81548173ffffffffffffffffffffffffffffffffffffffff021916908373ffffffffffffffffffffffffffffffffffffffff16021790555060208201518160000160146101000a81548160ff0219169083151502179055505050611524565b808061151c9061359b565b91505061135f565b50565b3360005b6001805490508110156115ff578173ffffffffffffffffffffffffffffffffffffffff166001828154811061156357611562613642565b5b906000526020600020906003020160000160009054906101000a900473ffffffffffffffffffffffffffffffffffffffff1673ffffffffffffffffffffffffffffffffffffffff1614156115ec576040517f08c379a00000000000000000000000000000000000000000000000000000000081526004016115e390613188565b60405180910390fd5b80806115f79061359b565b91505061152b565b50600160405180606001604052803373ffffffffffffffffffffffffffffffffffffffff168152602001600281526020016002815250908060018154018082558091505060019003906000526020600020906003020160009091909190915060008201518160000160006101000a81548173ffffffffffffffffffffffffffffffffffffffff021916908373ffffffffffffffffffffffffffffffffffffffff1602179055506020820151816001015560408201518160020155505050565b60005b600082815481106116d5576116d4613642565b5b9060005260206000209060040201600301805490508110156117dc57600260016000848154811061170957611708613642565b5b9060005260206000209060040201600301838154811061172c5761172b613642565b5b90600052602060002001548154811061174857611747613642565b5b906000526020600020906003020160010181905550600260016000848154811061177557611774613642565b5b9060005260206000209060040201600301838154811061179857611797613642565b5b9060005260206000200154815481106117b4576117b3613642565b5b90600052602060002090600302016002018190555080806117d49061359b565b9150506116c1565b50600081815481106117f1576117f0613642565b5b9060005260206000209060040201600080820160006101000a81549073ffffffffffffffffffffffffffffffffffffffff02191690556001820160006118379190612547565b6002820160006118479190612587565b60038201600061185791906125ab565b505050565b3360005b600180549050811015611966578173ffffffffffffffffffffffffffffffffffffffff166001828154811061189857611897613642565b5b906000526020600020906003020160000160009054906101000a900473ffffffffffffffffffffffffffffffffffffffff1673ffffffffffffffffffffffffffffffffffffffff161415611953576002600182815481106118fc576118fb613642565b5b9060005260206000209060030201600101541461194e576040517f08c379a000000000000000000000000000000000000000000000000000000000815260040161194590613248565b60405180910390fd5b611966565b808061195e9061359b565b915050611860565b506000848154811061197b5761197a613642565b5b9060005260206000209060040201600201838154811061199e5761199d613642565b5b906000526020600020906005020160020160405180604001604052803373ffffffffffffffffffffffffffffffffffffffff1681526020018415158152509080600181540180825580915050600190039060005260206000200160009091909190915060008201518160000160006101000a81548173ffffffffffffffffffffffffffffffffffffffff021916908373ffffffffffffffffffffffffffffffffffffffff16021790555060208201518160000160146101000a81548160ff021916908315150217905550505050505050565b60005b600180549050811015611c4c57600260018281548110611a9657611a95613642565b5b9060005260206000209060030201600101541415611ae9576040517f08c379a0000000000000000000000000000000000000000000000000000000008152600401611ae0906131e8565b60405180910390fd5b3373ffffffffffffffffffffffffffffffffffffffff1660018281548110611b1457611b13613642565b5b906000526020600020906003020160000160009054906101000a900473ffffffffffffffffffffffffffffffffffffffff1673ffffffffffffffffffffffffffffffffffffffff161415611c395760018181548110611b7657611b75613642565b5b90600052602060002090600302016002015460018281548110611b9c57611b9b613642565b5b9060005260206000209060030201600101541415611be457600260018281548110611bca57611bc9613642565b5b906000526020600020906003020160020181905550611c34565b60018181548110611bf857611bf7613642565b5b90600052602060002090600302016001015460018281548110611c1e57611c1d613642565b5b9060005260206000209060030201600201819055505b611c4c565b8080611c449061359b565b915050611a73565b50565b3360005b600180549050811015611d59578173ffffffffffffffffffffffffffffffffffffffff1660018281548110611c8b57611c8a613642565b5b906000526020600020906003020160000160009054906101000a900473ffffffffffffffffffffffffffffffffffffffff1673ffffffffffffffffffffffffffffffffffffffff161415611d4657600260018281548110611cef57611cee613642565b5b90600052602060002090600302016001015414611d41576040517f08c379a0000000000000000000000000000000000000000000000000000000008152600401611d3890613248565b60405180910390fd5b611d59565b8080611d519061359b565b915050611c53565b5060008581548110611d6e57611d6d613642565b5b90600052602060002090600402016002018481548110611d9157611d90613642565b5b90600052602060002090600502016003018381548110611db457611db3613642565b5b906000526020600020906003020160010160405180604001604052803373ffffffffffffffffffffffffffffffffffffffff1681526020018415158152509080600181540180825580915050600190039060005260206000200160009091909190915060008201518160000160006101000a81548173ffffffffffffffffffffffffffffffffffffffff021916908373ffffffffffffffffffffffffffffffffffffffff16021790555060208201518160000160146101000a81548160ff02191690831515021790555050505050505050565b336000805b600180549050811015611f2e578273ffffffffffffffffffffffffffffffffffffffff1660018281548110611ec457611ec3613642565b5b906000526020600020906003020160000160009054906101000a900473ffffffffffffffffffffffffffffffffffffffff1673ffffffffffffffffffffffffffffffffffffffff161415611f1b5760019150611f2e565b8080611f269061359b565b915050611e8c565b508015611f70576040517f08c379a0000000000000000000000000000000000000000000000000000000008152600401611f6790613208565b60405180910390fd5b3360005b60018054905081101561207a578173ffffffffffffffffffffffffffffffffffffffff1660018281548110611fac57611fab613642565b5b906000526020600020906003020160000160009054906101000a900473ffffffffffffffffffffffffffffffffffffffff1673ffffffffffffffffffffffffffffffffffffffff161415612067576000600182815481106120105761200f613642565b5b90600052602060002090600302016002015414612062576040517f08c379a000000000000000000000000000000000000000000000000000000000815260040161205990613168565b60405180910390fd5b61207a565b80806120729061359b565b915050611f74565b5060005b6001805490508110156121b0578473ffffffffffffffffffffffffffffffffffffffff16600182815481106120b6576120b5613642565b5b906000526020600020906003020160000160009054906101000a900473ffffffffffffffffffffffffffffffffffffffff1673ffffffffffffffffffffffffffffffffffffffff16141561219d5760006001828154811061211a57612119613642565b5b906000526020600020906003020160010154141561216d576040517f08c379a0000000000000000000000000000000000000000000000000000000008152600401612164906131a8565b60405180910390fd5b60006001828154811061218357612182613642565b5b9060005260206000209060030201600101819055506121b0565b80806121a89061359b565b91505061207e565b5050505050565b600083815481106121cb576121ca613642565b5b906000526020600020906004020160020182815481106121ee576121ed613642565b5b90600052602060002090600502016003016001816001815401808255809150500390600052602060002090505033600084815481106122305761222f613642565b5b9060005260206000209060040201600201838154811061225357612252613642565b5b906000526020600020906005020160030160016000868154811061227a57612279613642565b5b9060005260206000209060040201600201858154811061229d5761229c613642565b5b9060005260206000209060050201600301805490506122bc919061347a565b815481106122cd576122cc613642565b5b906000526020600020906003020160000160006101000a81548173ffffffffffffffffffffffffffffffffffffffff021916908373ffffffffffffffffffffffffffffffffffffffff160217905550806000848154811061233157612330613642565b5b9060005260206000209060040201600201838154811061235457612353613642565b5b906000526020600020906005020160030160016000868154811061237b5761237a613642565b5b9060005260206000209060040201600201858154811061239e5761239d613642565b5b9060005260206000209060050201600301805490506123bd919061347a565b815481106123ce576123cd613642565b5b906000526020600020906003020160020190805190602001906123f29291906124c1565b50505050565b60606001805480602002602001604051908101604052809291908181526020016000905b828210156124b857838290600052602060002090600302016040518060600160405290816000820160009054906101000a900473ffffffffffffffffffffffffffffffffffffffff1673ffffffffffffffffffffffffffffffffffffffff1673ffffffffffffffffffffffffffffffffffffffff168152602001600182015481526020016002820154815250508152602001906001019061241c565b50505050905090565b8280546124cd90613538565b90600052602060002090601f0160209004810192826124ef5760008555612536565b82601f1061250857805160ff1916838001178555612536565b82800160010185558215612536579182015b8281111561253557825182559160200191906001019061251a565b5b50905061254391906125cc565b5090565b50805461255390613538565b6000825580601f106125655750612584565b601f01602090049060005260206000209081019061258391906125cc565b5b50565b50805460008255600502906000526020600020908101906125a891906125e9565b50565b50805460008255906000526020600020908101906125c991906125cc565b50565b5b808211156125e55760008160009055506001016125cd565b5090565b5b8082111561265b57600080820160006101000a81549073ffffffffffffffffffffffffffffffffffffffff02191690556001820160009055600282016000612632919061265f565b6003820160006126429190612680565b6004820160006126529190612547565b506005016125ea565b5090565b508054600082559060005260206000209081019061267d91906126a4565b50565b50805460008255600302906000526020600020908101906126a191906126f6565b50565b5b808211156126f257600080820160006101000a81549073ffffffffffffffffffffffffffffffffffffffff02191690556000820160146101000a81549060ff0219169055506001016126a5565b5090565b5b8082111561275057600080820160006101000a81549073ffffffffffffffffffffffffffffffffffffffff0219169055600182016000612737919061265f565b6002820160006127479190612547565b506003016126f7565b5090565b60006127676127628461328d565b613268565b905082815260208101848484011115612783576127826136a5565b5b61278e8482856134f6565b509392505050565b6000813590506127a581613836565b92915050565b6000813590506127ba8161384d565b92915050565b600082601f8301126127d5576127d46136a0565b5b81356127e5848260208601612754565b91505092915050565b6000813590506127fd81613864565b92915050565b600060208284031215612819576128186136af565b5b600061282784828501612796565b91505092915050565b60008060408385031215612847576128466136af565b5b600061285585828601612796565b925050602083013567ffffffffffffffff811115612876576128756136aa565b5b612882858286016127c0565b9150509250929050565b6000602082840312156128a2576128a16136af565b5b60006128b0848285016127ee565b91505092915050565b6000806000606084860312156128d2576128d16136af565b5b60006128e0868287016127ee565b93505060206128f1868287016127ee565b9250506040612902868287016127ab565b9150509250925092565b600080600060608486031215612925576129246136af565b5b6000612933868287016127ee565b9350506020612944868287016127ee565b925050604084013567ffffffffffffffff811115612965576129646136aa565b5b612971868287016127c0565b9150509250925092565b60008060008060808587031215612995576129946136af565b5b60006129a3878288016127ee565b94505060206129b4878288016127ee565b93505060406129c5878288016127ee565b92505060606129d6878288016127ab565b91505092959194509250565b60006129ee8383612ee7565b905092915050565b6000612a028383612f3e565b60408301905092915050565b6000612a1a8383612f6d565b905092915050565b6000612a2e8383612ff1565b60408301905092915050565b6000612a468383613020565b905092915050565b6000612a5a8383613091565b60608301905092915050565b6000612a7283836130d3565b60208301905092915050565b612a87816134ae565b82525050565b6000612a988261332e565b612aa281856133e1565b935083602082028501612ab4856132be565b8060005b85811015612af05784840389528151612ad185826129e2565b9450612adc83613386565b925060208a01995050600181019050612ab8565b50829750879550505050505092915050565b6000612b0d82613339565b612b1781856133f2565b9350612b22836132ce565b8060005b83811015612b53578151612b3a88826129f6565b9750612b4583613393565b925050600181019050612b26565b5085935050505092915050565b6000612b6b82613344565b612b758185613403565b935083602082028501612b87856132de565b8060005b85811015612bc35784840389528151612ba48582612a0e565b9450612baf836133a0565b925060208a01995050600181019050612b8b565b50829750879550505050505092915050565b6000612be08261334f565b612bea8185613414565b9350612bf5836132ee565b8060005b83811015612c26578151612c0d8882612a22565b9750612c18836133ad565b925050600181019050612bf9565b5085935050505092915050565b6000612c3e8261335a565b612c488185613425565b935083602082028501612c5a856132fe565b8060005b85811015612c965784840389528151612c778582612a3a565b9450612c82836133ba565b925060208a01995050600181019050612c5e565b50829750879550505050505092915050565b6000612cb382613365565b612cbd8185613436565b9350612cc88361330e565b8060005b83811015612cf9578151612ce08882612a4e565b9750612ceb836133c7565b925050600181019050612ccc565b5085935050505092915050565b6000612d1182613370565b612d1b8185613447565b9350612d268361331e565b8060005b83811015612d57578151612d3e8882612a66565b9750612d49836133d4565b925050600181019050612d2a565b5085935050505092915050565b612d6d816134c0565b82525050565b6000612d7e8261337b565b612d888185613458565b9350612d98818560208601613505565b612da1816136b4565b840191505092915050565b6000612db9600383613469565b9150612dc4826136c5565b602082019050919050565b6000612ddc600383613469565b9150612de7826136ee565b602082019050919050565b6000612dff600383613469565b9150612e0a82613717565b602082019050919050565b6000612e22601083613469565b9150612e2d82613740565b602082019050919050565b6000612e45600e83613469565b9150612e5082613769565b602082019050919050565b6000612e68600383613469565b9150612e7382613792565b602082019050919050565b6000612e8b600383613469565b9150612e96826137bb565b602082019050919050565b6000612eae600c83613469565b9150612eb9826137e4565b602082019050919050565b6000612ed1600383613469565b9150612edc8261380d565b602082019050919050565b6000606083016000830151612eff6000860182612a7e565b5060208301518482036020860152612f178282612b02565b91505060408301518482036040860152612f318282612d73565b9150508091505092915050565b604082016000820151612f546000850182612a7e565b506020820151612f676020850182612d64565b50505050565b600060a083016000830151612f856000860182612a7e565b506020830151612f9860208601826130d3565b5060408301518482036040860152612fb08282612b02565b91505060608301518482036060860152612fca8282612a8d565b91505060808301518482036080860152612fe48282612d73565b9150508091505092915050565b6040820160008201516130076000850182612a7e565b50602082015161301a6020850182612d64565b50505050565b60006080830160008301516130386000860182612a7e565b50602083015184820360208601526130508282612d73565b9150506040830151848203604086015261306a8282612b60565b915050606083015184820360608601526130848282612d06565b9150508091505092915050565b6060820160008201516130a76000850182612a7e565b5060208201516130ba60208501826130d3565b5060408201516130cd60408501826130d3565b50505050565b6130dc816134ec565b82525050565b600060208201905081810360008301526130fc8184612bd5565b905092915050565b6000602082019050818103600083015261311e8184612c33565b905092915050565b600060208201905081810360008301526131408184612ca8565b905092915050565b6000602082019050818103600083015261316181612dac565b9050919050565b6000602082019050818103600083015261318181612dcf565b9050919050565b600060208201905081810360008301526131a181612df2565b9050919050565b600060208201905081810360008301526131c181612e15565b9050919050565b600060208201905081810360008301526131e181612e38565b9050919050565b6000602082019050818103600083015261320181612e5b565b9050919050565b6000602082019050818103600083015261322181612e7e565b9050919050565b6000602082019050818103600083015261324181612ea1565b9050919050565b6000602082019050818103600083015261326181612ec4565b9050919050565b6000613272613283565b905061327e828261356a565b919050565b6000604051905090565b600067ffffffffffffffff8211156132a8576132a7613671565b5b6132b1826136b4565b9050602081019050919050565b6000819050602082019050919050565b6000819050602082019050919050565b6000819050602082019050919050565b6000819050602082019050919050565b6000819050602082019050919050565b6000819050602082019050919050565b6000819050602082019050919050565b600081519050919050565b600081519050919050565b600081519050919050565b600081519050919050565b600081519050919050565b600081519050919050565b600081519050919050565b600081519050919050565b6000602082019050919050565b6000602082019050919050565b6000602082019050919050565b6000602082019050919050565b6000602082019050919050565b6000602082019050919050565b6000602082019050919050565b600082825260208201905092915050565b600082825260208201905092915050565b600082825260208201905092915050565b600082825260208201905092915050565b600082825260208201905092915050565b600082825260208201905092915050565b600082825260208201905092915050565b600082825260208201905092915050565b600082825260208201905092915050565b6000613485826134ec565b9150613490836134ec565b9250828210156134a3576134a26135e4565b5b828203905092915050565b60006134b9826134cc565b9050919050565b60008115159050919050565b600073ffffffffffffffffffffffffffffffffffffffff82169050919050565b6000819050919050565b82818337600083830152505050565b60005b83811015613523578082015181840152602081019050613508565b83811115613532576000848401525b50505050565b6000600282049050600182168061355057607f821691505b6020821081141561356457613563613613565b5b50919050565b613573826136b4565b810181811067ffffffffffffffff8211171561359257613591613671565b5b80604052505050565b60006135a6826134ec565b91507fffffffffffffffffffffffffffffffffffffffffffffffffffffffffffffffff8214156135d9576135d86135e4565b5b600182019050919050565b7f4e487b7100000000000000000000000000000000000000000000000000000000600052601160045260246000fd5b7f4e487b7100000000000000000000000000000000000000000000000000000000600052602260045260246000fd5b7f4e487b7100000000000000000000000000000000000000000000000000000000600052603260045260246000fd5b7f4e487b7100000000000000000000000000000000000000000000000000000000600052604160045260246000fd5b600080fd5b600080fd5b600080fd5b600080fd5b6000601f19601f8301169050919050565b7f3130340000000000000000000000000000000000000000000000000000000000600082015250565b7f3130300000000000000000000000000000000000000000000000000000000000600082015250565b7f3230310000000000000000000000000000000000000000000000000000000000600082015250565b7f5520616c72656164792061646d696e2100000000000000000000000000000000600082015250565b7f49742069736e27742073686f7021000000000000000000000000000000000000600082015250565b7f3130330000000000000000000000000000000000000000000000000000000000600082015250565b7f3230300000000000000000000000000000000000000000000000000000000000600082015250565b7f53686f7020657869737473210000000000000000000000000000000000000000600082015250565b7f3130310000000000000000000000000000000000000000000000000000000000600082015250565b61383f816134ae565b811461384a57600080fd5b50565b613856816134c0565b811461386157600080fd5b50565b61386d816134ec565b811461387857600080fd5b5056fea2646970667358221220cafdaac6fe3a3fa78a08adbbddaed8e2794d0bba298b68619d335c87ee895cb864736f6c63430008070033",
					"opcodes": "PUSH1 0x80 PUSH1 0x40 MSTORE CALLVALUE DUP1 ISZERO PUSH3 0x11 JUMPI PUSH1 0x0 DUP1 REVERT JUMPDEST POP PUSH3 0x39 PUSH20 0x2EEB8E636D2B7BF006AEF7DF63C1B388C3D0BB5E PUSH1 0x0 PUSH3 0xB4 PUSH1 0x20 SHL PUSH1 0x20 SHR JUMP JUMPDEST PUSH3 0x60 PUSH20 0x55CC20D0CDDFED1F06B669A8FF6EBA58218BBBD7 PUSH1 0x1 PUSH3 0xB4 PUSH1 0x20 SHL PUSH1 0x20 SHR JUMP JUMPDEST PUSH3 0x87 PUSH20 0x55CC20D0CDDFED1F06B669A8FF6EBA58218BBBD7 PUSH1 0x2 PUSH3 0xB4 PUSH1 0x20 SHL PUSH1 0x20 SHR JUMP JUMPDEST PUSH3 0xAE PUSH20 0xF4EE813A8C8214FC058636E31E670213CFC183B5 PUSH1 0x2 PUSH3 0xB4 PUSH1 0x20 SHL PUSH1 0x20 SHR JUMP JUMPDEST PUSH3 0x446 JUMP JUMPDEST DUP2 PUSH1 0x0 JUMPDEST PUSH1 0x1 DUP1 SLOAD SWAP1 POP DUP2 LT ISZERO PUSH3 0x196 JUMPI DUP2 PUSH20 0xFFFFFFFFFFFFFFFFFFFFFFFFFFFFFFFFFFFFFFFF AND PUSH1 0x1 DUP3 DUP2 SLOAD DUP2 LT PUSH3 0xF4 JUMPI PUSH3 0xF3 PUSH3 0x3C5 JUMP JUMPDEST JUMPDEST SWAP1 PUSH1 0x0 MSTORE PUSH1 0x20 PUSH1 0x0 KECCAK256 SWAP1 PUSH1 0x3 MUL ADD PUSH1 0x0 ADD PUSH1 0x0 SWAP1 SLOAD SWAP1 PUSH2 0x100 EXP SWAP1 DIV PUSH20 0xFFFFFFFFFFFFFFFFFFFFFFFFFFFFFFFFFFFFFFFF AND PUSH20 0xFFFFFFFFFFFFFFFFFFFFFFFFFFFFFFFFFFFFFFFF AND EQ ISZERO PUSH3 0x180 JUMPI PUSH1 0x40 MLOAD PUSH32 0x8C379A000000000000000000000000000000000000000000000000000000000 DUP2 MSTORE PUSH1 0x4 ADD PUSH3 0x177 SWAP1 PUSH3 0x30B JUMP JUMPDEST PUSH1 0x40 MLOAD DUP1 SWAP2 SUB SWAP1 REVERT JUMPDEST DUP1 DUP1 PUSH3 0x18D SWAP1 PUSH3 0x348 JUMP JUMPDEST SWAP2 POP POP PUSH3 0xB8 JUMP JUMPDEST POP PUSH1 0x3 DUP3 LT PUSH3 0x1DD JUMPI PUSH1 0x40 MLOAD PUSH32 0x8C379A000000000000000000000000000000000000000000000000000000000 DUP2 MSTORE PUSH1 0x4 ADD PUSH3 0x1D4 SWAP1 PUSH3 0x2E9 JUMP JUMPDEST PUSH1 0x40 MLOAD DUP1 SWAP2 SUB SWAP1 REVERT JUMPDEST PUSH1 0x1 PUSH1 0x40 MLOAD DUP1 PUSH1 0x60 ADD PUSH1 0x40 MSTORE DUP1 DUP6 PUSH20 0xFFFFFFFFFFFFFFFFFFFFFFFFFFFFFFFFFFFFFFFF AND DUP2 MSTORE PUSH1 0x20 ADD DUP5 DUP2 MSTORE PUSH1 0x20 ADD DUP5 DUP2 MSTORE POP SWAP1 DUP1 PUSH1 0x1 DUP2 SLOAD ADD DUP1 DUP3 SSTORE DUP1 SWAP2 POP POP PUSH1 0x1 SWAP1 SUB SWAP1 PUSH1 0x0 MSTORE PUSH1 0x20 PUSH1 0x0 KECCAK256 SWAP1 PUSH1 0x3 MUL ADD PUSH1 0x0 SWAP1 SWAP2 SWAP1 SWAP2 SWAP1 SWAP2 POP PUSH1 0x0 DUP3 ADD MLOAD DUP2 PUSH1 0x0 ADD PUSH1 0x0 PUSH2 0x100 EXP DUP2 SLOAD DUP2 PUSH20 0xFFFFFFFFFFFFFFFFFFFFFFFFFFFFFFFFFFFFFFFF MUL NOT AND SWAP1 DUP4 PUSH20 0xFFFFFFFFFFFFFFFFFFFFFFFFFFFFFFFFFFFFFFFF AND MUL OR SWAP1 SSTORE POP PUSH1 0x20 DUP3 ADD MLOAD DUP2 PUSH1 0x1 ADD SSTORE PUSH1 0x40 DUP3 ADD MLOAD DUP2 PUSH1 0x2 ADD SSTORE POP POP POP POP POP JUMP JUMPDEST PUSH1 0x0 PUSH3 0x2AA PUSH1 0x3 DUP4 PUSH3 0x32D JUMP JUMPDEST SWAP2 POP PUSH3 0x2B7 DUP3 PUSH3 0x3F4 JUMP JUMPDEST PUSH1 0x20 DUP3 ADD SWAP1 POP SWAP2 SWAP1 POP JUMP JUMPDEST PUSH1 0x0 PUSH3 0x2D1 PUSH1 0x3 DUP4 PUSH3 0x32D JUMP JUMPDEST SWAP2 POP PUSH3 0x2DE DUP3 PUSH3 0x41D JUMP JUMPDEST PUSH1 0x20 DUP3 ADD SWAP1 POP SWAP2 SWAP1 POP JUMP JUMPDEST PUSH1 0x0 PUSH1 0x20 DUP3 ADD SWAP1 POP DUP2 DUP2 SUB PUSH1 0x0 DUP4 ADD MSTORE PUSH3 0x304 DUP2 PUSH3 0x29B JUMP JUMPDEST SWAP1 POP SWAP2 SWAP1 POP JUMP JUMPDEST PUSH1 0x0 PUSH1 0x20 DUP3 ADD SWAP1 POP DUP2 DUP2 SUB PUSH1 0x0 DUP4 ADD MSTORE PUSH3 0x326 DUP2 PUSH3 0x2C2 JUMP JUMPDEST SWAP1 POP SWAP2 SWAP1 POP JUMP JUMPDEST PUSH1 0x0 DUP3 DUP3 MSTORE PUSH1 0x20 DUP3 ADD SWAP1 POP SWAP3 SWAP2 POP POP JUMP JUMPDEST PUSH1 0x0 DUP2 SWAP1 POP SWAP2 SWAP1 POP JUMP JUMPDEST PUSH1 0x0 PUSH3 0x355 DUP3 PUSH3 0x33E JUMP JUMPDEST SWAP2 POP PUSH32 0xFFFFFFFFFFFFFFFFFFFFFFFFFFFFFFFFFFFFFFFFFFFFFFFFFFFFFFFFFFFFFFFF DUP3 EQ ISZERO PUSH3 0x38B JUMPI PUSH3 0x38A PUSH3 0x396 JUMP JUMPDEST JUMPDEST PUSH1 0x1 DUP3 ADD SWAP1 POP SWAP2 SWAP1 POP JUMP JUMPDEST PUSH32 0x4E487B7100000000000000000000000000000000000000000000000000000000 PUSH1 0x0 MSTORE PUSH1 0x11 PUSH1 0x4 MSTORE PUSH1 0x24 PUSH1 0x0 REVERT JUMPDEST PUSH32 0x4E487B7100000000000000000000000000000000000000000000000000000000 PUSH1 0x0 MSTORE PUSH1 0x32 PUSH1 0x4 MSTORE PUSH1 0x24 PUSH1 0x0 REVERT JUMPDEST PUSH32 0x3130320000000000000000000000000000000000000000000000000000000000 PUSH1 0x0 DUP3 ADD MSTORE POP JUMP JUMPDEST PUSH32 0x3230310000000000000000000000000000000000000000000000000000000000 PUSH1 0x0 DUP3 ADD MSTORE POP JUMP JUMPDEST PUSH2 0x38B1 DUP1 PUSH3 0x456 PUSH1 0x0 CODECOPY PUSH1 0x0 RETURN INVALID PUSH1 0x80 PUSH1 0x40 MSTORE CALLVALUE DUP1 ISZERO PUSH2 0x10 JUMPI PUSH1 0x0 DUP1 REVERT JUMPDEST POP PUSH1 0x4 CALLDATASIZE LT PUSH2 0xE9 JUMPI PUSH1 0x0 CALLDATALOAD PUSH1 0xE0 SHR DUP1 PUSH4 0x3EFDEBF1 GT PUSH2 0x8C JUMPI DUP1 PUSH4 0x66B2F791 GT PUSH2 0x66 JUMPI DUP1 PUSH4 0x66B2F791 EQ PUSH2 0x1D4 JUMPI DUP1 PUSH4 0x70480275 EQ PUSH2 0x1F0 JUMPI DUP1 PUSH4 0xAB122EF5 EQ PUSH2 0x20C JUMPI DUP1 PUSH4 0xAD81F803 EQ PUSH2 0x228 JUMPI PUSH2 0xE9 JUMP JUMPDEST DUP1 PUSH4 0x3EFDEBF1 EQ PUSH2 0x192 JUMPI DUP1 PUSH4 0x4384A79F EQ PUSH2 0x1AE JUMPI DUP1 PUSH4 0x49B15962 EQ PUSH2 0x1CA JUMPI PUSH2 0xE9 JUMP JUMPDEST DUP1 PUSH4 0x240185B6 GT PUSH2 0xC8 JUMPI DUP1 PUSH4 0x240185B6 EQ PUSH2 0x142 JUMPI DUP1 PUSH4 0x2BD2CD50 EQ PUSH2 0x160 JUMPI DUP1 PUSH4 0x2E91D706 EQ PUSH2 0x17E JUMPI DUP1 PUSH4 0x3B95A23F EQ PUSH2 0x188 JUMPI PUSH2 0xE9 JUMP JUMPDEST DUP1 PUSH3 0x82F88E EQ PUSH2 0xEE JUMPI DUP1 PUSH4 0x1A0550E3 EQ PUSH2 0x10A JUMPI DUP1 PUSH4 0x1C618EB3 EQ PUSH2 0x126 JUMPI JUMPDEST PUSH1 0x0 DUP1 REVERT JUMPDEST PUSH2 0x108 PUSH1 0x4 DUP1 CALLDATASIZE SUB DUP2 ADD SWAP1 PUSH2 0x103 SWAP2 SWAP1 PUSH2 0x290C JUMP JUMPDEST PUSH2 0x246 JUMP JUMPDEST STOP JUMPDEST PUSH2 0x124 PUSH1 0x4 DUP1 CALLDATASIZE SUB DUP2 ADD SWAP1 PUSH2 0x11F SWAP2 SWAP1 PUSH2 0x288C JUMP JUMPDEST PUSH2 0x459 JUMP JUMPDEST STOP JUMPDEST PUSH2 0x140 PUSH1 0x4 DUP1 CALLDATASIZE SUB DUP2 ADD SWAP1 PUSH2 0x13B SWAP2 SWAP1 PUSH2 0x2830 JUMP JUMPDEST PUSH2 0x7BA JUMP JUMPDEST STOP JUMPDEST PUSH2 0x14A PUSH2 0xCC1 JUMP JUMPDEST PUSH1 0x40 MLOAD PUSH2 0x157 SWAP2 SWAP1 PUSH2 0x3104 JUMP JUMPDEST PUSH1 0x40 MLOAD DUP1 SWAP2 SUB SWAP1 RETURN JUMPDEST PUSH2 0x168 PUSH2 0x1290 JUMP JUMPDEST PUSH1 0x40 MLOAD PUSH2 0x175 SWAP2 SWAP1 PUSH2 0x30E2 JUMP JUMPDEST PUSH1 0x40 MLOAD DUP1 SWAP2 SUB SWAP1 RETURN JUMPDEST PUSH2 0x186 PUSH2 0x135C JUMP JUMPDEST STOP JUMPDEST PUSH2 0x190 PUSH2 0x1527 JUMP JUMPDEST STOP JUMPDEST PUSH2 0x1AC PUSH1 0x4 DUP1 CALLDATASIZE SUB DUP2 ADD SWAP1 PUSH2 0x1A7 SWAP2 SWAP1 PUSH2 0x288C JUMP JUMPDEST PUSH2 0x16BE JUMP JUMPDEST STOP JUMPDEST PUSH2 0x1C8 PUSH1 0x4 DUP1 CALLDATASIZE SUB DUP2 ADD SWAP1 PUSH2 0x1C3 SWAP2 SWAP1 PUSH2 0x28B9 JUMP JUMPDEST PUSH2 0x185C JUMP JUMPDEST STOP JUMPDEST PUSH2 0x1D2 PUSH2 0x1A70 JUMP JUMPDEST STOP JUMPDEST PUSH2 0x1EE PUSH1 0x4 DUP1 CALLDATASIZE SUB DUP2 ADD SWAP1 PUSH2 0x1E9 SWAP2 SWAP1 PUSH2 0x297B JUMP JUMPDEST PUSH2 0x1C4F JUMP JUMPDEST STOP JUMPDEST PUSH2 0x20A PUSH1 0x4 DUP1 CALLDATASIZE SUB DUP2 ADD SWAP1 PUSH2 0x205 SWAP2 SWAP1 PUSH2 0x2803 JUMP JUMPDEST PUSH2 0x1E87 JUMP JUMPDEST STOP JUMPDEST PUSH2 0x226 PUSH1 0x4 DUP1 CALLDATASIZE SUB DUP2 ADD SWAP1 PUSH2 0x221 SWAP2 SWAP1 PUSH2 0x290C JUMP JUMPDEST PUSH2 0x21B7 JUMP JUMPDEST STOP JUMPDEST PUSH2 0x230 PUSH2 0x23F8 JUMP JUMPDEST PUSH1 0x40 MLOAD PUSH2 0x23D SWAP2 SWAP1 PUSH2 0x3126 JUMP JUMPDEST PUSH1 0x40 MLOAD DUP1 SWAP2 SUB SWAP1 RETURN JUMPDEST PUSH1 0x0 DUP4 DUP2 SLOAD DUP2 LT PUSH2 0x25A JUMPI PUSH2 0x259 PUSH2 0x3642 JUMP JUMPDEST JUMPDEST SWAP1 PUSH1 0x0 MSTORE PUSH1 0x20 PUSH1 0x0 KECCAK256 SWAP1 PUSH1 0x4 MUL ADD PUSH1 0x2 ADD PUSH1 0x1 DUP2 PUSH1 0x1 DUP2 SLOAD ADD DUP1 DUP3 SSTORE DUP1 SWAP2 POP POP SUB SWAP1 PUSH1 0x0 MSTORE PUSH1 0x20 PUSH1 0x0 KECCAK256 SWAP1 POP POP CALLER PUSH1 0x0 DUP5 DUP2 SLOAD DUP2 LT PUSH2 0x29C JUMPI PUSH2 0x29B PUSH2 0x3642 JUMP JUMPDEST JUMPDEST SWAP1 PUSH1 0x0 MSTORE PUSH1 0x20 PUSH1 0x0 KECCAK256 SWAP1 PUSH1 0x4 MUL ADD PUSH1 0x2 ADD PUSH1 0x1 PUSH1 0x0 DUP7 DUP2 SLOAD DUP2 LT PUSH2 0x2C3 JUMPI PUSH2 0x2C2 PUSH2 0x3642 JUMP JUMPDEST JUMPDEST SWAP1 PUSH1 0x0 MSTORE PUSH1 0x20 PUSH1 0x0 KECCAK256 SWAP1 PUSH1 0x4 MUL ADD PUSH1 0x2 ADD DUP1 SLOAD SWAP1 POP PUSH2 0x2E2 SWAP2 SWAP1 PUSH2 0x347A JUMP JUMPDEST DUP2 SLOAD DUP2 LT PUSH2 0x2F3 JUMPI PUSH2 0x2F2 PUSH2 0x3642 JUMP JUMPDEST JUMPDEST SWAP1 PUSH1 0x0 MSTORE PUSH1 0x20 PUSH1 0x0 KECCAK256 SWAP1 PUSH1 0x5 MUL ADD PUSH1 0x0 ADD PUSH1 0x0 PUSH2 0x100 EXP DUP2 SLOAD DUP2 PUSH20 0xFFFFFFFFFFFFFFFFFFFFFFFFFFFFFFFFFFFFFFFF MUL NOT AND SWAP1 DUP4 PUSH20 0xFFFFFFFFFFFFFFFFFFFFFFFFFFFFFFFFFFFFFFFF AND MUL OR SWAP1 SSTORE POP DUP2 PUSH1 0x0 DUP5 DUP2 SLOAD DUP2 LT PUSH2 0x357 JUMPI PUSH2 0x356 PUSH2 0x3642 JUMP JUMPDEST JUMPDEST SWAP1 PUSH1 0x0 MSTORE PUSH1 0x20 PUSH1 0x0 KECCAK256 SWAP1 PUSH1 0x4 MUL ADD PUSH1 0x2 ADD PUSH1 0x1 PUSH1 0x0 DUP7 DUP2 SLOAD DUP2 LT PUSH2 0x37E JUMPI PUSH2 0x37D PUSH2 0x3642 JUMP JUMPDEST JUMPDEST SWAP1 PUSH1 0x0 MSTORE PUSH1 0x20 PUSH1 0x0 KECCAK256 SWAP1 PUSH1 0x4 MUL ADD PUSH1 0x2 ADD DUP1 SLOAD SWAP1 POP PUSH2 0x39D SWAP2 SWAP1 PUSH2 0x347A JUMP JUMPDEST DUP2 SLOAD DUP2 LT PUSH2 0x3AE JUMPI PUSH2 0x3AD PUSH2 0x3642 JUMP JUMPDEST JUMPDEST SWAP1 PUSH1 0x0 MSTORE PUSH1 0x20 PUSH1 0x0 KECCAK256 SWAP1 PUSH1 0x5 MUL ADD PUSH1 0x1 ADD DUP2 SWAP1 SSTORE POP DUP1 PUSH1 0x0 DUP5 DUP2 SLOAD DUP2 LT PUSH2 0x3D8 JUMPI PUSH2 0x3D7 PUSH2 0x3642 JUMP JUMPDEST JUMPDEST SWAP1 PUSH1 0x0 MSTORE PUSH1 0x20 PUSH1 0x0 KECCAK256 SWAP1 PUSH1 0x4 MUL ADD PUSH1 0x2 ADD PUSH1 0x1 PUSH1 0x0 DUP7 DUP2 SLOAD DUP2 LT PUSH2 0x3FF JUMPI PUSH2 0x3FE PUSH2 0x3642 JUMP JUMPDEST JUMPDEST SWAP1 PUSH1 0x0 MSTORE PUSH1 0x20 PUSH1 0x0 KECCAK256 SWAP1 PUSH1 0x4 MUL ADD PUSH1 0x2 ADD DUP1 SLOAD SWAP1 POP PUSH2 0x41E SWAP2 SWAP1 PUSH2 0x347A JUMP JUMPDEST DUP2 SLOAD DUP2 LT PUSH2 0x42F JUMPI PUSH2 0x42E PUSH2 0x3642 JUMP JUMPDEST JUMPDEST SWAP1 PUSH1 0x0 MSTORE PUSH1 0x20 PUSH1 0x0 KECCAK256 SWAP1 PUSH1 0x5 MUL ADD PUSH1 0x4 ADD SWAP1 DUP1 MLOAD SWAP1 PUSH1 0x20 ADD SWAP1 PUSH2 0x453 SWAP3 SWAP2 SWAP1 PUSH2 0x24C1 JUMP JUMPDEST POP POP POP POP JUMP JUMPDEST CALLER PUSH1 0x0 DUP1 JUMPDEST PUSH1 0x1 DUP1 SLOAD SWAP1 POP DUP2 LT ISZERO PUSH2 0x500 JUMPI DUP3 PUSH20 0xFFFFFFFFFFFFFFFFFFFFFFFFFFFFFFFFFFFFFFFF AND PUSH1 0x1 DUP3 DUP2 SLOAD DUP2 LT PUSH2 0x496 JUMPI PUSH2 0x495 PUSH2 0x3642 JUMP JUMPDEST JUMPDEST SWAP1 PUSH1 0x0 MSTORE PUSH1 0x20 PUSH1 0x0 KECCAK256 SWAP1 PUSH1 0x3 MUL ADD PUSH1 0x0 ADD PUSH1 0x0 SWAP1 SLOAD SWAP1 PUSH2 0x100 EXP SWAP1 DIV PUSH20 0xFFFFFFFFFFFFFFFFFFFFFFFFFFFFFFFFFFFFFFFF AND PUSH20 0xFFFFFFFFFFFFFFFFFFFFFFFFFFFFFFFFFFFFFFFF AND EQ ISZERO PUSH2 0x4ED JUMPI PUSH1 0x1 SWAP2 POP PUSH2 0x500 JUMP JUMPDEST DUP1 DUP1 PUSH2 0x4F8 SWAP1 PUSH2 0x359B JUMP JUMPDEST SWAP2 POP POP PUSH2 0x45E JUMP JUMPDEST POP DUP1 ISZERO PUSH2 0x542 JUMPI PUSH1 0x40 MLOAD PUSH32 0x8C379A000000000000000000000000000000000000000000000000000000000 DUP2 MSTORE PUSH1 0x4 ADD PUSH2 0x539 SWAP1 PUSH2 0x3208 JUMP JUMPDEST PUSH1 0x40 MLOAD DUP1 SWAP2 SUB SWAP1 REVERT JUMPDEST CALLER PUSH1 0x0 JUMPDEST PUSH1 0x1 DUP1 SLOAD SWAP1 POP DUP2 LT ISZERO PUSH2 0x64C JUMPI DUP2 PUSH20 0xFFFFFFFFFFFFFFFFFFFFFFFFFFFFFFFFFFFFFFFF AND PUSH1 0x1 DUP3 DUP2 SLOAD DUP2 LT PUSH2 0x57E JUMPI PUSH2 0x57D PUSH2 0x3642 JUMP JUMPDEST JUMPDEST SWAP1 PUSH1 0x0 MSTORE PUSH1 0x20 PUSH1 0x0 KECCAK256 SWAP1 PUSH1 0x3 MUL ADD PUSH1 0x0 ADD PUSH1 0x0 SWAP1 SLOAD SWAP1 PUSH2 0x100 EXP SWAP1 DIV PUSH20 0xFFFFFFFFFFFFFFFFFFFFFFFFFFFFFFFFFFFFFFFF AND PUSH20 0xFFFFFFFFFFFFFFFFFFFFFFFFFFFFFFFFFFFFFFFF AND EQ ISZERO PUSH2 0x639 JUMPI PUSH1 0x0 PUSH1 0x1 DUP3 DUP2 SLOAD DUP2 LT PUSH2 0x5E2 JUMPI PUSH2 0x5E1 PUSH2 0x3642 JUMP JUMPDEST JUMPDEST SWAP1 PUSH1 0x0 MSTORE PUSH1 0x20 PUSH1 0x0 KECCAK256 SWAP1 PUSH1 0x3 MUL ADD PUSH1 0x2 ADD SLOAD EQ PUSH2 0x634 JUMPI PUSH1 0x40 MLOAD PUSH32 0x8C379A000000000000000000000000000000000000000000000000000000000 DUP2 MSTORE PUSH1 0x4 ADD PUSH2 0x62B SWAP1 PUSH2 0x3168 JUMP JUMPDEST PUSH1 0x40 MLOAD DUP1 SWAP2 SUB SWAP1 REVERT JUMPDEST PUSH2 0x64C JUMP JUMPDEST DUP1 DUP1 PUSH2 0x644 SWAP1 PUSH2 0x359B JUMP JUMPDEST SWAP2 POP POP PUSH2 0x546 JUMP JUMPDEST POP PUSH1 0x0 JUMPDEST PUSH1 0x1 DUP1 SLOAD SWAP1 POP DUP2 LT ISZERO PUSH2 0x7B3 JUMPI PUSH1 0x2 DUP6 DUP2 SLOAD DUP2 LT PUSH2 0x671 JUMPI PUSH2 0x670 PUSH2 0x3642 JUMP JUMPDEST JUMPDEST SWAP1 PUSH1 0x0 MSTORE PUSH1 0x20 PUSH1 0x0 KECCAK256 ADD PUSH1 0x0 ADD PUSH1 0x0 SWAP1 SLOAD SWAP1 PUSH2 0x100 EXP SWAP1 DIV PUSH20 0xFFFFFFFFFFFFFFFFFFFFFFFFFFFFFFFFFFFFFFFF AND PUSH20 0xFFFFFFFFFFFFFFFFFFFFFFFFFFFFFFFFFFFFFFFF AND PUSH1 0x1 DUP3 DUP2 SLOAD DUP2 LT PUSH2 0x6C9 JUMPI PUSH2 0x6C8 PUSH2 0x3642 JUMP JUMPDEST JUMPDEST SWAP1 PUSH1 0x0 MSTORE PUSH1 0x20 PUSH1 0x0 KECCAK256 SWAP1 PUSH1 0x3 MUL ADD PUSH1 0x0 ADD PUSH1 0x0 SWAP1 SLOAD SWAP1 PUSH2 0x100 EXP SWAP1 DIV PUSH20 0xFFFFFFFFFFFFFFFFFFFFFFFFFFFFFFFFFFFFFFFF AND PUSH20 0xFFFFFFFFFFFFFFFFFFFFFFFFFFFFFFFFFFFFFFFF AND EQ ISZERO PUSH2 0x7A0 JUMPI PUSH1 0x1 DUP1 DUP3 DUP2 SLOAD DUP2 LT PUSH2 0x72C JUMPI PUSH2 0x72B PUSH2 0x3642 JUMP JUMPDEST JUMPDEST SWAP1 PUSH1 0x0 MSTORE PUSH1 0x20 PUSH1 0x0 KECCAK256 SWAP1 PUSH1 0x3 MUL ADD PUSH1 0x1 ADD SLOAD EQ ISZERO PUSH2 0x774 JUMPI PUSH1 0x2 PUSH1 0x1 DUP3 DUP2 SLOAD DUP2 LT PUSH2 0x75A JUMPI PUSH2 0x759 PUSH2 0x3642 JUMP JUMPDEST JUMPDEST SWAP1 PUSH1 0x0 MSTORE PUSH1 0x20 PUSH1 0x0 KECCAK256 SWAP1 PUSH1 0x3 MUL ADD PUSH1 0x1 ADD DUP2 SWAP1 SSTORE POP PUSH2 0x79F JUMP JUMPDEST PUSH1 0x1 DUP1 DUP3 DUP2 SLOAD DUP2 LT PUSH2 0x789 JUMPI PUSH2 0x788 PUSH2 0x3642 JUMP JUMPDEST JUMPDEST SWAP1 PUSH1 0x0 MSTORE PUSH1 0x20 PUSH1 0x0 KECCAK256 SWAP1 PUSH1 0x3 MUL ADD PUSH1 0x1 ADD DUP2 SWAP1 SSTORE POP JUMPDEST JUMPDEST DUP1 DUP1 PUSH2 0x7AB SWAP1 PUSH2 0x359B JUMP JUMPDEST SWAP2 POP POP PUSH2 0x650 JUMP JUMPDEST POP POP POP POP POP JUMP JUMPDEST CALLER PUSH1 0x0 DUP1 JUMPDEST PUSH1 0x1 DUP1 SLOAD SWAP1 POP DUP2 LT ISZERO PUSH2 0x861 JUMPI DUP3 PUSH20 0xFFFFFFFFFFFFFFFFFFFFFFFFFFFFFFFFFFFFFFFF AND PUSH1 0x1 DUP3 DUP2 SLOAD DUP2 LT PUSH2 0x7F7 JUMPI PUSH2 0x7F6 PUSH2 0x3642 JUMP JUMPDEST JUMPDEST SWAP1 PUSH1 0x0 MSTORE PUSH1 0x20 PUSH1 0x0 KECCAK256 SWAP1 PUSH1 0x3 MUL ADD PUSH1 0x0 ADD PUSH1 0x0 SWAP1 SLOAD SWAP1 PUSH2 0x100 EXP SWAP1 DIV PUSH20 0xFFFFFFFFFFFFFFFFFFFFFFFFFFFFFFFFFFFFFFFF AND PUSH20 0xFFFFFFFFFFFFFFFFFFFFFFFFFFFFFFFFFFFFFFFF AND EQ ISZERO PUSH2 0x84E JUMPI PUSH1 0x1 SWAP2 POP PUSH2 0x861 JUMP JUMPDEST DUP1 DUP1 PUSH2 0x859 SWAP1 PUSH2 0x359B JUMP JUMPDEST SWAP2 POP POP PUSH2 0x7BF JUMP JUMPDEST POP DUP1 ISZERO PUSH2 0x8A3 JUMPI PUSH1 0x40 MLOAD PUSH32 0x8C379A000000000000000000000000000000000000000000000000000000000 DUP2 MSTORE PUSH1 0x4 ADD PUSH2 0x89A SWAP1 PUSH2 0x3208 JUMP JUMPDEST PUSH1 0x40 MLOAD DUP1 SWAP2 SUB SWAP1 REVERT JUMPDEST CALLER PUSH1 0x0 JUMPDEST PUSH1 0x1 DUP1 SLOAD SWAP1 POP DUP2 LT ISZERO PUSH2 0x9AD JUMPI DUP2 PUSH20 0xFFFFFFFFFFFFFFFFFFFFFFFFFFFFFFFFFFFFFFFF AND PUSH1 0x1 DUP3 DUP2 SLOAD DUP2 LT PUSH2 0x8DF JUMPI PUSH2 0x8DE PUSH2 0x3642 JUMP JUMPDEST JUMPDEST SWAP1 PUSH1 0x0 MSTORE PUSH1 0x20 PUSH1 0x0 KECCAK256 SWAP1 PUSH1 0x3 MUL ADD PUSH1 0x0 ADD PUSH1 0x0 SWAP1 SLOAD SWAP1 PUSH2 0x100 EXP SWAP1 DIV PUSH20 0xFFFFFFFFFFFFFFFFFFFFFFFFFFFFFFFFFFFFFFFF AND PUSH20 0xFFFFFFFFFFFFFFFFFFFFFFFFFFFFFFFFFFFFFFFF AND EQ ISZERO PUSH2 0x99A JUMPI PUSH1 0x0 PUSH1 0x1 DUP3 DUP2 SLOAD DUP2 LT PUSH2 0x943 JUMPI PUSH2 0x942 PUSH2 0x3642 JUMP JUMPDEST JUMPDEST SWAP1 PUSH1 0x0 MSTORE PUSH1 0x20 PUSH1 0x0 KECCAK256 SWAP1 PUSH1 0x3 MUL ADD PUSH1 0x2 ADD SLOAD EQ PUSH2 0x995 JUMPI PUSH1 0x40 MLOAD PUSH32 0x8C379A000000000000000000000000000000000000000000000000000000000 DUP2 MSTORE PUSH1 0x4 ADD PUSH2 0x98C SWAP1 PUSH2 0x3168 JUMP JUMPDEST PUSH1 0x40 MLOAD DUP1 SWAP2 SUB SWAP1 REVERT JUMPDEST PUSH2 0x9AD JUMP JUMPDEST DUP1 DUP1 PUSH2 0x9A5 SWAP1 PUSH2 0x359B JUMP JUMPDEST SWAP2 POP POP PUSH2 0x8A7 JUMP JUMPDEST POP DUP5 PUSH1 0x0 JUMPDEST PUSH1 0x1 DUP1 SLOAD SWAP1 POP DUP2 LT ISZERO PUSH2 0xA86 JUMPI DUP2 PUSH20 0xFFFFFFFFFFFFFFFFFFFFFFFFFFFFFFFFFFFFFFFF AND PUSH1 0x1 DUP3 DUP2 SLOAD DUP2 LT PUSH2 0x9EA JUMPI PUSH2 0x9E9 PUSH2 0x3642 JUMP JUMPDEST JUMPDEST SWAP1 PUSH1 0x0 MSTORE PUSH1 0x20 PUSH1 0x0 KECCAK256 SWAP1 PUSH1 0x3 MUL ADD PUSH1 0x0 ADD PUSH1 0x0 SWAP1 SLOAD SWAP1 PUSH2 0x100 EXP SWAP1 DIV PUSH20 0xFFFFFFFFFFFFFFFFFFFFFFFFFFFFFFFFFFFFFFFF AND PUSH20 0xFFFFFFFFFFFFFFFFFFFFFFFFFFFFFFFFFFFFFFFF AND EQ ISZERO PUSH2 0xA73 JUMPI PUSH1 0x40 MLOAD PUSH32 0x8C379A000000000000000000000000000000000000000000000000000000000 DUP2 MSTORE PUSH1 0x4 ADD PUSH2 0xA6A SWAP1 PUSH2 0x3188 JUMP JUMPDEST PUSH1 0x40 MLOAD DUP1 SWAP2 SUB SWAP1 REVERT JUMPDEST DUP1 DUP1 PUSH2 0xA7E SWAP1 PUSH2 0x359B JUMP JUMPDEST SWAP2 POP POP PUSH2 0x9B2 JUMP JUMPDEST POP DUP6 PUSH1 0x0 JUMPDEST PUSH1 0x1 DUP1 SLOAD SWAP1 POP DUP2 LT ISZERO PUSH2 0xB5F JUMPI DUP2 PUSH20 0xFFFFFFFFFFFFFFFFFFFFFFFFFFFFFFFFFFFFFFFF AND PUSH1 0x1 DUP3 DUP2 SLOAD DUP2 LT PUSH2 0xAC3 JUMPI PUSH2 0xAC2 PUSH2 0x3642 JUMP JUMPDEST JUMPDEST SWAP1 PUSH1 0x0 MSTORE PUSH1 0x20 PUSH1 0x0 KECCAK256 SWAP1 PUSH1 0x3 MUL ADD PUSH1 0x0 ADD PUSH1 0x0 SWAP1 SLOAD SWAP1 PUSH2 0x100 EXP SWAP1 DIV PUSH20 0xFFFFFFFFFFFFFFFFFFFFFFFFFFFFFFFFFFFFFFFF AND PUSH20 0xFFFFFFFFFFFFFFFFFFFFFFFFFFFFFFFFFFFFFFFF AND EQ ISZERO PUSH2 0xB4C JUMPI PUSH1 0x40 MLOAD PUSH32 0x8C379A000000000000000000000000000000000000000000000000000000000 DUP2 MSTORE PUSH1 0x4 ADD PUSH2 0xB43 SWAP1 PUSH2 0x31C8 JUMP JUMPDEST PUSH1 0x40 MLOAD DUP1 SWAP2 SUB SWAP1 REVERT JUMPDEST DUP1 DUP1 PUSH2 0xB57 SWAP1 PUSH2 0x359B JUMP JUMPDEST SWAP2 POP POP PUSH2 0xA8B JUMP JUMPDEST POP PUSH1 0x0 JUMPDEST PUSH1 0x0 DUP1 SLOAD SWAP1 POP DUP2 LT ISZERO PUSH2 0xC37 JUMPI DUP2 PUSH20 0xFFFFFFFFFFFFFFFFFFFFFFFFFFFFFFFFFFFFFFFF AND PUSH1 0x0 DUP3 DUP2 SLOAD DUP2 LT PUSH2 0xB9B JUMPI PUSH2 0xB9A PUSH2 0x3642 JUMP JUMPDEST JUMPDEST SWAP1 PUSH1 0x0 MSTORE PUSH1 0x20 PUSH1 0x0 KECCAK256 SWAP1 PUSH1 0x4 MUL ADD PUSH1 0x0 ADD PUSH1 0x0 SWAP1 SLOAD SWAP1 PUSH2 0x100 EXP SWAP1 DIV PUSH20 0xFFFFFFFFFFFFFFFFFFFFFFFFFFFFFFFFFFFFFFFF AND PUSH20 0xFFFFFFFFFFFFFFFFFFFFFFFFFFFFFFFFFFFFFFFF AND EQ ISZERO PUSH2 0xC24 JUMPI PUSH1 0x40 MLOAD PUSH32 0x8C379A000000000000000000000000000000000000000000000000000000000 DUP2 MSTORE PUSH1 0x4 ADD PUSH2 0xC1B SWAP1 PUSH2 0x3228 JUMP JUMPDEST PUSH1 0x40 MLOAD DUP1 SWAP2 SUB SWAP1 REVERT JUMPDEST DUP1 DUP1 PUSH2 0xC2F SWAP1 PUSH2 0x359B JUMP JUMPDEST SWAP2 POP POP PUSH2 0xB63 JUMP JUMPDEST POP PUSH1 0x0 DUP1 PUSH1 0x1 DUP2 PUSH1 0x1 DUP2 SLOAD ADD DUP1 DUP3 SSTORE DUP1 SWAP2 POP POP SUB SWAP1 PUSH1 0x0 MSTORE PUSH1 0x20 PUSH1 0x0 KECCAK256 SWAP1 PUSH1 0x4 MUL ADD SWAP1 POP DUP8 DUP2 PUSH1 0x0 ADD PUSH1 0x0 PUSH2 0x100 EXP DUP2 SLOAD DUP2 PUSH20 0xFFFFFFFFFFFFFFFFFFFFFFFFFFFFFFFFFFFFFFFF MUL NOT AND SWAP1 DUP4 PUSH20 0xFFFFFFFFFFFFFFFFFFFFFFFFFFFFFFFFFFFFFFFF AND MUL OR SWAP1 SSTORE POP DUP7 DUP2 PUSH1 0x1 ADD SWAP1 DUP1 MLOAD SWAP1 PUSH1 0x20 ADD SWAP1 PUSH2 0xCB6 SWAP3 SWAP2 SWAP1 PUSH2 0x24C1 JUMP JUMPDEST POP POP POP POP POP POP POP POP POP JUMP JUMPDEST PUSH1 0x60 PUSH1 0x0 DUP1 SLOAD DUP1 PUSH1 0x20 MUL PUSH1 0x20 ADD PUSH1 0x40 MLOAD SWAP1 DUP2 ADD PUSH1 0x40 MSTORE DUP1 SWAP3 SWAP2 SWAP1 DUP2 DUP2 MSTORE PUSH1 0x20 ADD PUSH1 0x0 SWAP1 JUMPDEST DUP3 DUP3 LT ISZERO PUSH2 0x1287 JUMPI DUP4 DUP3 SWAP1 PUSH1 0x0 MSTORE PUSH1 0x20 PUSH1 0x0 KECCAK256 SWAP1 PUSH1 0x4 MUL ADD PUSH1 0x40 MLOAD DUP1 PUSH1 0x80 ADD PUSH1 0x40 MSTORE SWAP1 DUP2 PUSH1 0x0 DUP3 ADD PUSH1 0x0 SWAP1 SLOAD SWAP1 PUSH2 0x100 EXP SWAP1 DIV PUSH20 0xFFFFFFFFFFFFFFFFFFFFFFFFFFFFFFFFFFFFFFFF AND PUSH20 0xFFFFFFFFFFFFFFFFFFFFFFFFFFFFFFFFFFFFFFFF AND PUSH20 0xFFFFFFFFFFFFFFFFFFFFFFFFFFFFFFFFFFFFFFFF AND DUP2 MSTORE PUSH1 0x20 ADD PUSH1 0x1 DUP3 ADD DUP1 SLOAD PUSH2 0xD6E SWAP1 PUSH2 0x3538 JUMP JUMPDEST DUP1 PUSH1 0x1F ADD PUSH1 0x20 DUP1 SWAP2 DIV MUL PUSH1 0x20 ADD PUSH1 0x40 MLOAD SWAP1 DUP2 ADD PUSH1 0x40 MSTORE DUP1 SWAP3 SWAP2 SWAP1 DUP2 DUP2 MSTORE PUSH1 0x20 ADD DUP3 DUP1 SLOAD PUSH2 0xD9A SWAP1 PUSH2 0x3538 JUMP JUMPDEST DUP1 ISZERO PUSH2 0xDE7 JUMPI DUP1 PUSH1 0x1F LT PUSH2 0xDBC JUMPI PUSH2 0x100 DUP1 DUP4 SLOAD DIV MUL DUP4 MSTORE SWAP2 PUSH1 0x20 ADD SWAP2 PUSH2 0xDE7 JUMP JUMPDEST DUP3 ADD SWAP2 SWAP1 PUSH1 0x0 MSTORE PUSH1 0x20 PUSH1 0x0 KECCAK256 SWAP1 JUMPDEST DUP2 SLOAD DUP2 MSTORE SWAP1 PUSH1 0x1 ADD SWAP1 PUSH1 0x20 ADD DUP1 DUP4 GT PUSH2 0xDCA JUMPI DUP3 SWAP1 SUB PUSH1 0x1F AND DUP3 ADD SWAP2 JUMPDEST POP POP POP POP POP DUP2 MSTORE PUSH1 0x20 ADD PUSH1 0x2 DUP3 ADD DUP1 SLOAD DUP1 PUSH1 0x20 MUL PUSH1 0x20 ADD PUSH1 0x40 MLOAD SWAP1 DUP2 ADD PUSH1 0x40 MSTORE DUP1 SWAP3 SWAP2 SWAP1 DUP2 DUP2 MSTORE PUSH1 0x20 ADD PUSH1 0x0 SWAP1 JUMPDEST DUP3 DUP3 LT ISZERO PUSH2 0x1218 JUMPI DUP4 DUP3 SWAP1 PUSH1 0x0 MSTORE PUSH1 0x20 PUSH1 0x0 KECCAK256 SWAP1 PUSH1 0x5 MUL ADD PUSH1 0x40 MLOAD DUP1 PUSH1 0xA0 ADD PUSH1 0x40 MSTORE SWAP1 DUP2 PUSH1 0x0 DUP3 ADD PUSH1 0x0 SWAP1 SLOAD SWAP1 PUSH2 0x100 EXP SWAP1 DIV PUSH20 0xFFFFFFFFFFFFFFFFFFFFFFFFFFFFFFFFFFFFFFFF AND PUSH20 0xFFFFFFFFFFFFFFFFFFFFFFFFFFFFFFFFFFFFFFFF AND PUSH20 0xFFFFFFFFFFFFFFFFFFFFFFFFFFFFFFFFFFFFFFFF AND DUP2 MSTORE PUSH1 0x20 ADD PUSH1 0x1 DUP3 ADD SLOAD DUP2 MSTORE PUSH1 0x20 ADD PUSH1 0x2 DUP3 ADD DUP1 SLOAD DUP1 PUSH1 0x20 MUL PUSH1 0x20 ADD PUSH1 0x40 MLOAD SWAP1 DUP2 ADD PUSH1 0x40 MSTORE DUP1 SWAP3 SWAP2 SWAP1 DUP2 DUP2 MSTORE PUSH1 0x20 ADD PUSH1 0x0 SWAP1 JUMPDEST DUP3 DUP3 LT ISZERO PUSH2 0xF5C JUMPI DUP4 DUP3 SWAP1 PUSH1 0x0 MSTORE PUSH1 0x20 PUSH1 0x0 KECCAK256 ADD PUSH1 0x40 MLOAD DUP1 PUSH1 0x40 ADD PUSH1 0x40 MSTORE SWAP1 DUP2 PUSH1 0x0 DUP3 ADD PUSH1 0x0 SWAP1 SLOAD SWAP1 PUSH2 0x100 EXP SWAP1 DIV PUSH20 0xFFFFFFFFFFFFFFFFFFFFFFFFFFFFFFFFFFFFFFFF AND PUSH20 0xFFFFFFFFFFFFFFFFFFFFFFFFFFFFFFFFFFFFFFFF AND PUSH20 0xFFFFFFFFFFFFFFFFFFFFFFFFFFFFFFFFFFFFFFFF AND DUP2 MSTORE PUSH1 0x20 ADD PUSH1 0x0 DUP3 ADD PUSH1 0x14 SWAP1 SLOAD SWAP1 PUSH2 0x100 EXP SWAP1 DIV PUSH1 0xFF AND ISZERO ISZERO ISZERO ISZERO DUP2 MSTORE POP POP DUP2 MSTORE PUSH1 0x20 ADD SWAP1 PUSH1 0x1 ADD SWAP1 PUSH2 0xEBD JUMP JUMPDEST POP POP POP POP DUP2 MSTORE PUSH1 0x20 ADD PUSH1 0x3 DUP3 ADD DUP1 SLOAD DUP1 PUSH1 0x20 MUL PUSH1 0x20 ADD PUSH1 0x40 MLOAD SWAP1 DUP2 ADD PUSH1 0x40 MSTORE DUP1 SWAP3 SWAP2 SWAP1 DUP2 DUP2 MSTORE PUSH1 0x20 ADD PUSH1 0x0 SWAP1 JUMPDEST DUP3 DUP3 LT ISZERO PUSH2 0x116F JUMPI DUP4 DUP3 SWAP1 PUSH1 0x0 MSTORE PUSH1 0x20 PUSH1 0x0 KECCAK256 SWAP1 PUSH1 0x3 MUL ADD PUSH1 0x40 MLOAD DUP1 PUSH1 0x60 ADD PUSH1 0x40 MSTORE SWAP1 DUP2 PUSH1 0x0 DUP3 ADD PUSH1 0x0 SWAP1 SLOAD SWAP1 PUSH2 0x100 EXP SWAP1 DIV PUSH20 0xFFFFFFFFFFFFFFFFFFFFFFFFFFFFFFFFFFFFFFFF AND PUSH20 0xFFFFFFFFFFFFFFFFFFFFFFFFFFFFFFFFFFFFFFFF AND PUSH20 0xFFFFFFFFFFFFFFFFFFFFFFFFFFFFFFFFFFFFFFFF AND DUP2 MSTORE PUSH1 0x20 ADD PUSH1 0x1 DUP3 ADD DUP1 SLOAD DUP1 PUSH1 0x20 MUL PUSH1 0x20 ADD PUSH1 0x40 MLOAD SWAP1 DUP2 ADD PUSH1 0x40 MSTORE DUP1 SWAP3 SWAP2 SWAP1 DUP2 DUP2 MSTORE PUSH1 0x20 ADD PUSH1 0x0 SWAP1 JUMPDEST DUP3 DUP3 LT ISZERO PUSH2 0x10C6 JUMPI DUP4 DUP3 SWAP1 PUSH1 0x0 MSTORE PUSH1 0x20 PUSH1 0x0 KECCAK256 ADD PUSH1 0x40 MLOAD DUP1 PUSH1 0x40 ADD PUSH1 0x40 MSTORE SWAP1 DUP2 PUSH1 0x0 DUP3 ADD PUSH1 0x0 SWAP1 SLOAD SWAP1 PUSH2 0x100 EXP SWAP1 DIV PUSH20 0xFFFFFFFFFFFFFFFFFFFFFFFFFFFFFFFFFFFFFFFF AND PUSH20 0xFFFFFFFFFFFFFFFFFFFFFFFFFFFFFFFFFFFFFFFF AND PUSH20 0xFFFFFFFFFFFFFFFFFFFFFFFFFFFFFFFFFFFFFFFF AND DUP2 MSTORE PUSH1 0x20 ADD PUSH1 0x0 DUP3 ADD PUSH1 0x14 SWAP1 SLOAD SWAP1 PUSH2 0x100 EXP SWAP1 DIV PUSH1 0xFF AND ISZERO ISZERO ISZERO ISZERO DUP2 MSTORE POP POP DUP2 MSTORE PUSH1 0x20 ADD SWAP1 PUSH1 0x1 ADD SWAP1 PUSH2 0x1027 JUMP JUMPDEST POP POP POP POP DUP2 MSTORE PUSH1 0x20 ADD PUSH1 0x2 DUP3 ADD DUP1 SLOAD PUSH2 0x10DE SWAP1 PUSH2 0x3538 JUMP JUMPDEST DUP1 PUSH1 0x1F ADD PUSH1 0x20 DUP1 SWAP2 DIV MUL PUSH1 0x20 ADD PUSH1 0x40 MLOAD SWAP1 DUP2 ADD PUSH1 0x40 MSTORE DUP1 SWAP3 SWAP2 SWAP1 DUP2 DUP2 MSTORE PUSH1 0x20 ADD DUP3 DUP1 SLOAD PUSH2 0x110A SWAP1 PUSH2 0x3538 JUMP JUMPDEST DUP1 ISZERO PUSH2 0x1157 JUMPI DUP1 PUSH1 0x1F LT PUSH2 0x112C JUMPI PUSH2 0x100 DUP1 DUP4 SLOAD DIV MUL DUP4 MSTORE SWAP2 PUSH1 0x20 ADD SWAP2 PUSH2 0x1157 JUMP JUMPDEST DUP3 ADD SWAP2 SWAP1 PUSH1 0x0 MSTORE PUSH1 0x20 PUSH1 0x0 KECCAK256 SWAP1 JUMPDEST DUP2 SLOAD DUP2 MSTORE SWAP1 PUSH1 0x1 ADD SWAP1 PUSH1 0x20 ADD DUP1 DUP4 GT PUSH2 0x113A JUMPI DUP3 SWAP1 SUB PUSH1 0x1F AND DUP3 ADD SWAP2 JUMPDEST POP POP POP POP POP DUP2 MSTORE POP POP DUP2 MSTORE PUSH1 0x20 ADD SWAP1 PUSH1 0x1 ADD SWAP1 PUSH2 0xF89 JUMP JUMPDEST POP POP POP POP DUP2 MSTORE PUSH1 0x20 ADD PUSH1 0x4 DUP3 ADD DUP1 SLOAD PUSH2 0x1187 SWAP1 PUSH2 0x3538 JUMP JUMPDEST DUP1 PUSH1 0x1F ADD PUSH1 0x20 DUP1 SWAP2 DIV MUL PUSH1 0x20 ADD PUSH1 0x40 MLOAD SWAP1 DUP2 ADD PUSH1 0x40 MSTORE DUP1 SWAP3 SWAP2 SWAP1 DUP2 DUP2 MSTORE PUSH1 0x20 ADD DUP3 DUP1 SLOAD PUSH2 0x11B3 SWAP1 PUSH2 0x3538 JUMP JUMPDEST DUP1 ISZERO PUSH2 0x1200 JUMPI DUP1 PUSH1 0x1F LT PUSH2 0x11D5 JUMPI PUSH2 0x100 DUP1 DUP4 SLOAD DIV MUL DUP4 MSTORE SWAP2 PUSH1 0x20 ADD SWAP2 PUSH2 0x1200 JUMP JUMPDEST DUP3 ADD SWAP2 SWAP1 PUSH1 0x0 MSTORE PUSH1 0x20 PUSH1 0x0 KECCAK256 SWAP1 JUMPDEST DUP2 SLOAD DUP2 MSTORE SWAP1 PUSH1 0x1 ADD SWAP1 PUSH1 0x20 ADD DUP1 DUP4 GT PUSH2 0x11E3 JUMPI DUP3 SWAP1 SUB PUSH1 0x1F AND DUP3 ADD SWAP2 JUMPDEST POP POP POP POP POP DUP2 MSTORE POP POP DUP2 MSTORE PUSH1 0x20 ADD SWAP1 PUSH1 0x1 ADD SWAP1 PUSH2 0xE15 JUMP JUMPDEST POP POP POP POP DUP2 MSTORE PUSH1 0x20 ADD PUSH1 0x3 DUP3 ADD DUP1 SLOAD DUP1 PUSH1 0x20 MUL PUSH1 0x20 ADD PUSH1 0x40 MLOAD SWAP1 DUP2 ADD PUSH1 0x40 MSTORE DUP1 SWAP3 SWAP2 SWAP1 DUP2 DUP2 MSTORE PUSH1 0x20 ADD DUP3 DUP1 SLOAD DUP1 ISZERO PUSH2 0x126F JUMPI PUSH1 0x20 MUL DUP3 ADD SWAP2 SWAP1 PUSH1 0x0 MSTORE PUSH1 0x20 PUSH1 0x0 KECCAK256 SWAP1 JUMPDEST DUP2 SLOAD DUP2 MSTORE PUSH1 0x20 ADD SWAP1 PUSH1 0x1 ADD SWAP1 DUP1 DUP4 GT PUSH2 0x125B JUMPI JUMPDEST POP POP POP POP POP DUP2 MSTORE POP POP DUP2 MSTORE PUSH1 0x20 ADD SWAP1 PUSH1 0x1 ADD SWAP1 PUSH2 0xCE5 JUMP JUMPDEST POP POP POP POP SWAP1 POP SWAP1 JUMP JUMPDEST PUSH1 0x60 PUSH1 0x2 DUP1 SLOAD DUP1 PUSH1 0x20 MUL PUSH1 0x20 ADD PUSH1 0x40 MLOAD SWAP1 DUP2 ADD PUSH1 0x40 MSTORE DUP1 SWAP3 SWAP2 SWAP1 DUP2 DUP2 MSTORE PUSH1 0x20 ADD PUSH1 0x0 SWAP1 JUMPDEST DUP3 DUP3 LT ISZERO PUSH2 0x1353 JUMPI DUP4 DUP3 SWAP1 PUSH1 0x0 MSTORE PUSH1 0x20 PUSH1 0x0 KECCAK256 ADD PUSH1 0x40 MLOAD DUP1 PUSH1 0x40 ADD PUSH1 0x40 MSTORE SWAP1 DUP2 PUSH1 0x0 DUP3 ADD PUSH1 0x0 SWAP1 SLOAD SWAP1 PUSH2 0x100 EXP SWAP1 DIV PUSH20 0xFFFFFFFFFFFFFFFFFFFFFFFFFFFFFFFFFFFFFFFF AND PUSH20 0xFFFFFFFFFFFFFFFFFFFFFFFFFFFFFFFFFFFFFFFF AND PUSH20 0xFFFFFFFFFFFFFFFFFFFFFFFFFFFFFFFFFFFFFFFF AND DUP2 MSTORE PUSH1 0x20 ADD PUSH1 0x0 DUP3 ADD PUSH1 0x14 SWAP1 SLOAD SWAP1 PUSH2 0x100 EXP SWAP1 DIV PUSH1 0xFF AND ISZERO ISZERO ISZERO ISZERO DUP2 MSTORE POP POP DUP2 MSTORE PUSH1 0x20 ADD SWAP1 PUSH1 0x1 ADD SWAP1 PUSH2 0x12B4 JUMP JUMPDEST POP POP POP POP SWAP1 POP SWAP1 JUMP JUMPDEST PUSH1 0x0 JUMPDEST PUSH1 0x1 DUP1 SLOAD SWAP1 POP DUP2 LT ISZERO PUSH2 0x1524 JUMPI PUSH1 0x0 PUSH1 0x1 DUP3 DUP2 SLOAD DUP2 LT PUSH2 0x1382 JUMPI PUSH2 0x1381 PUSH2 0x3642 JUMP JUMPDEST JUMPDEST SWAP1 PUSH1 0x0 MSTORE PUSH1 0x20 PUSH1 0x0 KECCAK256 SWAP1 PUSH1 0x3 MUL ADD PUSH1 0x1 ADD SLOAD EQ ISZERO PUSH2 0x13D5 JUMPI PUSH1 0x40 MLOAD PUSH32 0x8C379A000000000000000000000000000000000000000000000000000000000 DUP2 MSTORE PUSH1 0x4 ADD PUSH2 0x13CC SWAP1 PUSH2 0x3148 JUMP JUMPDEST PUSH1 0x40 MLOAD DUP1 SWAP2 SUB SWAP1 REVERT JUMPDEST CALLER PUSH20 0xFFFFFFFFFFFFFFFFFFFFFFFFFFFFFFFFFFFFFFFF AND PUSH1 0x1 DUP3 DUP2 SLOAD DUP2 LT PUSH2 0x1400 JUMPI PUSH2 0x13FF PUSH2 0x3642 JUMP JUMPDEST JUMPDEST SWAP1 PUSH1 0x0 MSTORE PUSH1 0x20 PUSH1 0x0 KECCAK256 SWAP1 PUSH1 0x3 MUL ADD PUSH1 0x0 ADD PUSH1 0x0 SWAP1 SLOAD SWAP1 PUSH2 0x100 EXP SWAP1 DIV PUSH20 0xFFFFFFFFFFFFFFFFFFFFFFFFFFFFFFFFFFFFFFFF AND PUSH20 0xFFFFFFFFFFFFFFFFFFFFFFFFFFFFFFFFFFFFFFFF AND EQ ISZERO PUSH2 0x1511 JUMPI PUSH1 0x2 PUSH1 0x40 MLOAD DUP1 PUSH1 0x40 ADD PUSH1 0x40 MSTORE DUP1 CALLER PUSH20 0xFFFFFFFFFFFFFFFFFFFFFFFFFFFFFFFFFFFFFFFF AND DUP2 MSTORE PUSH1 0x20 ADD PUSH1 0x0 ISZERO ISZERO DUP2 MSTORE POP SWAP1 DUP1 PUSH1 0x1 DUP2 SLOAD ADD DUP1 DUP3 SSTORE DUP1 SWAP2 POP POP PUSH1 0x1 SWAP1 SUB SWAP1 PUSH1 0x0 MSTORE PUSH1 0x20 PUSH1 0x0 KECCAK256 ADD PUSH1 0x0 SWAP1 SWAP2 SWAP1 SWAP2 SWAP1 SWAP2 POP PUSH1 0x0 DUP3 ADD MLOAD DUP2 PUSH1 0x0 ADD PUSH1 0x0 PUSH2 0x100 EXP DUP2 SLOAD DUP2 PUSH20 0xFFFFFFFFFFFFFFFFFFFFFFFFFFFFFFFFFFFFFFFF MUL NOT AND SWAP1 DUP4 PUSH20 0xFFFFFFFFFFFFFFFFFFFFFFFFFFFFFFFFFFFFFFFF AND MUL OR SWAP1 SSTORE POP PUSH1 0x20 DUP3 ADD MLOAD DUP2 PUSH1 0x0 ADD PUSH1 0x14 PUSH2 0x100 EXP DUP2 SLOAD DUP2 PUSH1 0xFF MUL NOT AND SWAP1 DUP4 ISZERO ISZERO MUL OR SWAP1 SSTORE POP POP POP PUSH2 0x1524 JUMP JUMPDEST DUP1 DUP1 PUSH2 0x151C SWAP1 PUSH2 0x359B JUMP JUMPDEST SWAP2 POP POP PUSH2 0x135F JUMP JUMPDEST POP JUMP JUMPDEST CALLER PUSH1 0x0 JUMPDEST PUSH1 0x1 DUP1 SLOAD SWAP1 POP DUP2 LT ISZERO PUSH2 0x15FF JUMPI DUP2 PUSH20 0xFFFFFFFFFFFFFFFFFFFFFFFFFFFFFFFFFFFFFFFF AND PUSH1 0x1 DUP3 DUP2 SLOAD DUP2 LT PUSH2 0x1563 JUMPI PUSH2 0x1562 PUSH2 0x3642 JUMP JUMPDEST JUMPDEST SWAP1 PUSH1 0x0 MSTORE PUSH1 0x20 PUSH1 0x0 KECCAK256 SWAP1 PUSH1 0x3 MUL ADD PUSH1 0x0 ADD PUSH1 0x0 SWAP1 SLOAD SWAP1 PUSH2 0x100 EXP SWAP1 DIV PUSH20 0xFFFFFFFFFFFFFFFFFFFFFFFFFFFFFFFFFFFFFFFF AND PUSH20 0xFFFFFFFFFFFFFFFFFFFFFFFFFFFFFFFFFFFFFFFF AND EQ ISZERO PUSH2 0x15EC JUMPI PUSH1 0x40 MLOAD PUSH32 0x8C379A000000000000000000000000000000000000000000000000000000000 DUP2 MSTORE PUSH1 0x4 ADD PUSH2 0x15E3 SWAP1 PUSH2 0x3188 JUMP JUMPDEST PUSH1 0x40 MLOAD DUP1 SWAP2 SUB SWAP1 REVERT JUMPDEST DUP1 DUP1 PUSH2 0x15F7 SWAP1 PUSH2 0x359B JUMP JUMPDEST SWAP2 POP POP PUSH2 0x152B JUMP JUMPDEST POP PUSH1 0x1 PUSH1 0x40 MLOAD DUP1 PUSH1 0x60 ADD PUSH1 0x40 MSTORE DUP1 CALLER PUSH20 0xFFFFFFFFFFFFFFFFFFFFFFFFFFFFFFFFFFFFFFFF AND DUP2 MSTORE PUSH1 0x20 ADD PUSH1 0x2 DUP2 MSTORE PUSH1 0x20 ADD PUSH1 0x2 DUP2 MSTORE POP SWAP1 DUP1 PUSH1 0x1 DUP2 SLOAD ADD DUP1 DUP3 SSTORE DUP1 SWAP2 POP POP PUSH1 0x1 SWAP1 SUB SWAP1 PUSH1 0x0 MSTORE PUSH1 0x20 PUSH1 0x0 KECCAK256 SWAP1 PUSH1 0x3 MUL ADD PUSH1 0x0 SWAP1 SWAP2 SWAP1 SWAP2 SWAP1 SWAP2 POP PUSH1 0x0 DUP3 ADD MLOAD DUP2 PUSH1 0x0 ADD PUSH1 0x0 PUSH2 0x100 EXP DUP2 SLOAD DUP2 PUSH20 0xFFFFFFFFFFFFFFFFFFFFFFFFFFFFFFFFFFFFFFFF MUL NOT AND SWAP1 DUP4 PUSH20 0xFFFFFFFFFFFFFFFFFFFFFFFFFFFFFFFFFFFFFFFF AND MUL OR SWAP1 SSTORE POP PUSH1 0x20 DUP3 ADD MLOAD DUP2 PUSH1 0x1 ADD SSTORE PUSH1 0x40 DUP3 ADD MLOAD DUP2 PUSH1 0x2 ADD SSTORE POP POP POP JUMP JUMPDEST PUSH1 0x0 JUMPDEST PUSH1 0x0 DUP3 DUP2 SLOAD DUP2 LT PUSH2 0x16D5 JUMPI PUSH2 0x16D4 PUSH2 0x3642 JUMP JUMPDEST JUMPDEST SWAP1 PUSH1 0x0 MSTORE PUSH1 0x20 PUSH1 0x0 KECCAK256 SWAP1 PUSH1 0x4 MUL ADD PUSH1 0x3 ADD DUP1 SLOAD SWAP1 POP DUP2 LT ISZERO PUSH2 0x17DC JUMPI PUSH1 0x2 PUSH1 0x1 PUSH1 0x0 DUP5 DUP2 SLOAD DUP2 LT PUSH2 0x1709 JUMPI PUSH2 0x1708 PUSH2 0x3642 JUMP JUMPDEST JUMPDEST SWAP1 PUSH1 0x0 MSTORE PUSH1 0x20 PUSH1 0x0 KECCAK256 SWAP1 PUSH1 0x4 MUL ADD PUSH1 0x3 ADD DUP4 DUP2 SLOAD DUP2 LT PUSH2 0x172C JUMPI PUSH2 0x172B PUSH2 0x3642 JUMP JUMPDEST JUMPDEST SWAP1 PUSH1 0x0 MSTORE PUSH1 0x20 PUSH1 0x0 KECCAK256 ADD SLOAD DUP2 SLOAD DUP2 LT PUSH2 0x1748 JUMPI PUSH2 0x1747 PUSH2 0x3642 JUMP JUMPDEST JUMPDEST SWAP1 PUSH1 0x0 MSTORE PUSH1 0x20 PUSH1 0x0 KECCAK256 SWAP1 PUSH1 0x3 MUL ADD PUSH1 0x1 ADD DUP2 SWAP1 SSTORE POP PUSH1 0x2 PUSH1 0x1 PUSH1 0x0 DUP5 DUP2 SLOAD DUP2 LT PUSH2 0x1775 JUMPI PUSH2 0x1774 PUSH2 0x3642 JUMP JUMPDEST JUMPDEST SWAP1 PUSH1 0x0 MSTORE PUSH1 0x20 PUSH1 0x0 KECCAK256 SWAP1 PUSH1 0x4 MUL ADD PUSH1 0x3 ADD DUP4 DUP2 SLOAD DUP2 LT PUSH2 0x1798 JUMPI PUSH2 0x1797 PUSH2 0x3642 JUMP JUMPDEST JUMPDEST SWAP1 PUSH1 0x0 MSTORE PUSH1 0x20 PUSH1 0x0 KECCAK256 ADD SLOAD DUP2 SLOAD DUP2 LT PUSH2 0x17B4 JUMPI PUSH2 0x17B3 PUSH2 0x3642 JUMP JUMPDEST JUMPDEST SWAP1 PUSH1 0x0 MSTORE PUSH1 0x20 PUSH1 0x0 KECCAK256 SWAP1 PUSH1 0x3 MUL ADD PUSH1 0x2 ADD DUP2 SWAP1 SSTORE POP DUP1 DUP1 PUSH2 0x17D4 SWAP1 PUSH2 0x359B JUMP JUMPDEST SWAP2 POP POP PUSH2 0x16C1 JUMP JUMPDEST POP PUSH1 0x0 DUP2 DUP2 SLOAD DUP2 LT PUSH2 0x17F1 JUMPI PUSH2 0x17F0 PUSH2 0x3642 JUMP JUMPDEST JUMPDEST SWAP1 PUSH1 0x0 MSTORE PUSH1 0x20 PUSH1 0x0 KECCAK256 SWAP1 PUSH1 0x4 MUL ADD PUSH1 0x0 DUP1 DUP3 ADD PUSH1 0x0 PUSH2 0x100 EXP DUP2 SLOAD SWAP1 PUSH20 0xFFFFFFFFFFFFFFFFFFFFFFFFFFFFFFFFFFFFFFFF MUL NOT AND SWAP1 SSTORE PUSH1 0x1 DUP3 ADD PUSH1 0x0 PUSH2 0x1837 SWAP2 SWAP1 PUSH2 0x2547 JUMP JUMPDEST PUSH1 0x2 DUP3 ADD PUSH1 0x0 PUSH2 0x1847 SWAP2 SWAP1 PUSH2 0x2587 JUMP JUMPDEST PUSH1 0x3 DUP3 ADD PUSH1 0x0 PUSH2 0x1857 SWAP2 SWAP1 PUSH2 0x25AB JUMP JUMPDEST POP POP POP JUMP JUMPDEST CALLER PUSH1 0x0 JUMPDEST PUSH1 0x1 DUP1 SLOAD SWAP1 POP DUP2 LT ISZERO PUSH2 0x1966 JUMPI DUP2 PUSH20 0xFFFFFFFFFFFFFFFFFFFFFFFFFFFFFFFFFFFFFFFF AND PUSH1 0x1 DUP3 DUP2 SLOAD DUP2 LT PUSH2 0x1898 JUMPI PUSH2 0x1897 PUSH2 0x3642 JUMP JUMPDEST JUMPDEST SWAP1 PUSH1 0x0 MSTORE PUSH1 0x20 PUSH1 0x0 KECCAK256 SWAP1 PUSH1 0x3 MUL ADD PUSH1 0x0 ADD PUSH1 0x0 SWAP1 SLOAD SWAP1 PUSH2 0x100 EXP SWAP1 DIV PUSH20 0xFFFFFFFFFFFFFFFFFFFFFFFFFFFFFFFFFFFFFFFF AND PUSH20 0xFFFFFFFFFFFFFFFFFFFFFFFFFFFFFFFFFFFFFFFF AND EQ ISZERO PUSH2 0x1953 JUMPI PUSH1 0x2 PUSH1 0x1 DUP3 DUP2 SLOAD DUP2 LT PUSH2 0x18FC JUMPI PUSH2 0x18FB PUSH2 0x3642 JUMP JUMPDEST JUMPDEST SWAP1 PUSH1 0x0 MSTORE PUSH1 0x20 PUSH1 0x0 KECCAK256 SWAP1 PUSH1 0x3 MUL ADD PUSH1 0x1 ADD SLOAD EQ PUSH2 0x194E JUMPI PUSH1 0x40 MLOAD PUSH32 0x8C379A000000000000000000000000000000000000000000000000000000000 DUP2 MSTORE PUSH1 0x4 ADD PUSH2 0x1945 SWAP1 PUSH2 0x3248 JUMP JUMPDEST PUSH1 0x40 MLOAD DUP1 SWAP2 SUB SWAP1 REVERT JUMPDEST PUSH2 0x1966 JUMP JUMPDEST DUP1 DUP1 PUSH2 0x195E SWAP1 PUSH2 0x359B JUMP JUMPDEST SWAP2 POP POP PUSH2 0x1860 JUMP JUMPDEST POP PUSH1 0x0 DUP5 DUP2 SLOAD DUP2 LT PUSH2 0x197B JUMPI PUSH2 0x197A PUSH2 0x3642 JUMP JUMPDEST JUMPDEST SWAP1 PUSH1 0x0 MSTORE PUSH1 0x20 PUSH1 0x0 KECCAK256 SWAP1 PUSH1 0x4 MUL ADD PUSH1 0x2 ADD DUP4 DUP2 SLOAD DUP2 LT PUSH2 0x199E JUMPI PUSH2 0x199D PUSH2 0x3642 JUMP JUMPDEST JUMPDEST SWAP1 PUSH1 0x0 MSTORE PUSH1 0x20 PUSH1 0x0 KECCAK256 SWAP1 PUSH1 0x5 MUL ADD PUSH1 0x2 ADD PUSH1 0x40 MLOAD DUP1 PUSH1 0x40 ADD PUSH1 0x40 MSTORE DUP1 CALLER PUSH20 0xFFFFFFFFFFFFFFFFFFFFFFFFFFFFFFFFFFFFFFFF AND DUP2 MSTORE PUSH1 0x20 ADD DUP5 ISZERO ISZERO DUP2 MSTORE POP SWAP1 DUP1 PUSH1 0x1 DUP2 SLOAD ADD DUP1 DUP3 SSTORE DUP1 SWAP2 POP POP PUSH1 0x1 SWAP1 SUB SWAP1 PUSH1 0x0 MSTORE PUSH1 0x20 PUSH1 0x0 KECCAK256 ADD PUSH1 0x0 SWAP1 SWAP2 SWAP1 SWAP2 SWAP1 SWAP2 POP PUSH1 0x0 DUP3 ADD MLOAD DUP2 PUSH1 0x0 ADD PUSH1 0x0 PUSH2 0x100 EXP DUP2 SLOAD DUP2 PUSH20 0xFFFFFFFFFFFFFFFFFFFFFFFFFFFFFFFFFFFFFFFF MUL NOT AND SWAP1 DUP4 PUSH20 0xFFFFFFFFFFFFFFFFFFFFFFFFFFFFFFFFFFFFFFFF AND MUL OR SWAP1 SSTORE POP PUSH1 0x20 DUP3 ADD MLOAD DUP2 PUSH1 0x0 ADD PUSH1 0x14 PUSH2 0x100 EXP DUP2 SLOAD DUP2 PUSH1 0xFF MUL NOT AND SWAP1 DUP4 ISZERO ISZERO MUL OR SWAP1 SSTORE POP POP POP POP POP POP POP JUMP JUMPDEST PUSH1 0x0 JUMPDEST PUSH1 0x1 DUP1 SLOAD SWAP1 POP DUP2 LT ISZERO PUSH2 0x1C4C JUMPI PUSH1 0x2 PUSH1 0x1 DUP3 DUP2 SLOAD DUP2 LT PUSH2 0x1A96 JUMPI PUSH2 0x1A95 PUSH2 0x3642 JUMP JUMPDEST JUMPDEST SWAP1 PUSH1 0x0 MSTORE PUSH1 0x20 PUSH1 0x0 KECCAK256 SWAP1 PUSH1 0x3 MUL ADD PUSH1 0x1 ADD SLOAD EQ ISZERO PUSH2 0x1AE9 JUMPI PUSH1 0x40 MLOAD PUSH32 0x8C379A000000000000000000000000000000000000000000000000000000000 DUP2 MSTORE PUSH1 0x4 ADD PUSH2 0x1AE0 SWAP1 PUSH2 0x31E8 JUMP JUMPDEST PUSH1 0x40 MLOAD DUP1 SWAP2 SUB SWAP1 REVERT JUMPDEST CALLER PUSH20 0xFFFFFFFFFFFFFFFFFFFFFFFFFFFFFFFFFFFFFFFF AND PUSH1 0x1 DUP3 DUP2 SLOAD DUP2 LT PUSH2 0x1B14 JUMPI PUSH2 0x1B13 PUSH2 0x3642 JUMP JUMPDEST JUMPDEST SWAP1 PUSH1 0x0 MSTORE PUSH1 0x20 PUSH1 0x0 KECCAK256 SWAP1 PUSH1 0x3 MUL ADD PUSH1 0x0 ADD PUSH1 0x0 SWAP1 SLOAD SWAP1 PUSH2 0x100 EXP SWAP1 DIV PUSH20 0xFFFFFFFFFFFFFFFFFFFFFFFFFFFFFFFFFFFFFFFF AND PUSH20 0xFFFFFFFFFFFFFFFFFFFFFFFFFFFFFFFFFFFFFFFF AND EQ ISZERO PUSH2 0x1C39 JUMPI PUSH1 0x1 DUP2 DUP2 SLOAD DUP2 LT PUSH2 0x1B76 JUMPI PUSH2 0x1B75 PUSH2 0x3642 JUMP JUMPDEST JUMPDEST SWAP1 PUSH1 0x0 MSTORE PUSH1 0x20 PUSH1 0x0 KECCAK256 SWAP1 PUSH1 0x3 MUL ADD PUSH1 0x2 ADD SLOAD PUSH1 0x1 DUP3 DUP2 SLOAD DUP2 LT PUSH2 0x1B9C JUMPI PUSH2 0x1B9B PUSH2 0x3642 JUMP JUMPDEST JUMPDEST SWAP1 PUSH1 0x0 MSTORE PUSH1 0x20 PUSH1 0x0 KECCAK256 SWAP1 PUSH1 0x3 MUL ADD PUSH1 0x1 ADD SLOAD EQ ISZERO PUSH2 0x1BE4 JUMPI PUSH1 0x2 PUSH1 0x1 DUP3 DUP2 SLOAD DUP2 LT PUSH2 0x1BCA JUMPI PUSH2 0x1BC9 PUSH2 0x3642 JUMP JUMPDEST JUMPDEST SWAP1 PUSH1 0x0 MSTORE PUSH1 0x20 PUSH1 0x0 KECCAK256 SWAP1 PUSH1 0x3 MUL ADD PUSH1 0x2 ADD DUP2 SWAP1 SSTORE POP PUSH2 0x1C34 JUMP JUMPDEST PUSH1 0x1 DUP2 DUP2 SLOAD DUP2 LT PUSH2 0x1BF8 JUMPI PUSH2 0x1BF7 PUSH2 0x3642 JUMP JUMPDEST JUMPDEST SWAP1 PUSH1 0x0 MSTORE PUSH1 0x20 PUSH1 0x0 KECCAK256 SWAP1 PUSH1 0x3 MUL ADD PUSH1 0x1 ADD SLOAD PUSH1 0x1 DUP3 DUP2 SLOAD DUP2 LT PUSH2 0x1C1E JUMPI PUSH2 0x1C1D PUSH2 0x3642 JUMP JUMPDEST JUMPDEST SWAP1 PUSH1 0x0 MSTORE PUSH1 0x20 PUSH1 0x0 KECCAK256 SWAP1 PUSH1 0x3 MUL ADD PUSH1 0x2 ADD DUP2 SWAP1 SSTORE POP JUMPDEST PUSH2 0x1C4C JUMP JUMPDEST DUP1 DUP1 PUSH2 0x1C44 SWAP1 PUSH2 0x359B JUMP JUMPDEST SWAP2 POP POP PUSH2 0x1A73 JUMP JUMPDEST POP JUMP JUMPDEST CALLER PUSH1 0x0 JUMPDEST PUSH1 0x1 DUP1 SLOAD SWAP1 POP DUP2 LT ISZERO PUSH2 0x1D59 JUMPI DUP2 PUSH20 0xFFFFFFFFFFFFFFFFFFFFFFFFFFFFFFFFFFFFFFFF AND PUSH1 0x1 DUP3 DUP2 SLOAD DUP2 LT PUSH2 0x1C8B JUMPI PUSH2 0x1C8A PUSH2 0x3642 JUMP JUMPDEST JUMPDEST SWAP1 PUSH1 0x0 MSTORE PUSH1 0x20 PUSH1 0x0 KECCAK256 SWAP1 PUSH1 0x3 MUL ADD PUSH1 0x0 ADD PUSH1 0x0 SWAP1 SLOAD SWAP1 PUSH2 0x100 EXP SWAP1 DIV PUSH20 0xFFFFFFFFFFFFFFFFFFFFFFFFFFFFFFFFFFFFFFFF AND PUSH20 0xFFFFFFFFFFFFFFFFFFFFFFFFFFFFFFFFFFFFFFFF AND EQ ISZERO PUSH2 0x1D46 JUMPI PUSH1 0x2 PUSH1 0x1 DUP3 DUP2 SLOAD DUP2 LT PUSH2 0x1CEF JUMPI PUSH2 0x1CEE PUSH2 0x3642 JUMP JUMPDEST JUMPDEST SWAP1 PUSH1 0x0 MSTORE PUSH1 0x20 PUSH1 0x0 KECCAK256 SWAP1 PUSH1 0x3 MUL ADD PUSH1 0x1 ADD SLOAD EQ PUSH2 0x1D41 JUMPI PUSH1 0x40 MLOAD PUSH32 0x8C379A000000000000000000000000000000000000000000000000000000000 DUP2 MSTORE PUSH1 0x4 ADD PUSH2 0x1D38 SWAP1 PUSH2 0x3248 JUMP JUMPDEST PUSH1 0x40 MLOAD DUP1 SWAP2 SUB SWAP1 REVERT JUMPDEST PUSH2 0x1D59 JUMP JUMPDEST DUP1 DUP1 PUSH2 0x1D51 SWAP1 PUSH2 0x359B JUMP JUMPDEST SWAP2 POP POP PUSH2 0x1C53 JUMP JUMPDEST POP PUSH1 0x0 DUP6 DUP2 SLOAD DUP2 LT PUSH2 0x1D6E JUMPI PUSH2 0x1D6D PUSH2 0x3642 JUMP JUMPDEST JUMPDEST SWAP1 PUSH1 0x0 MSTORE PUSH1 0x20 PUSH1 0x0 KECCAK256 SWAP1 PUSH1 0x4 MUL ADD PUSH1 0x2 ADD DUP5 DUP2 SLOAD DUP2 LT PUSH2 0x1D91 JUMPI PUSH2 0x1D90 PUSH2 0x3642 JUMP JUMPDEST JUMPDEST SWAP1 PUSH1 0x0 MSTORE PUSH1 0x20 PUSH1 0x0 KECCAK256 SWAP1 PUSH1 0x5 MUL ADD PUSH1 0x3 ADD DUP4 DUP2 SLOAD DUP2 LT PUSH2 0x1DB4 JUMPI PUSH2 0x1DB3 PUSH2 0x3642 JUMP JUMPDEST JUMPDEST SWAP1 PUSH1 0x0 MSTORE PUSH1 0x20 PUSH1 0x0 KECCAK256 SWAP1 PUSH1 0x3 MUL ADD PUSH1 0x1 ADD PUSH1 0x40 MLOAD DUP1 PUSH1 0x40 ADD PUSH1 0x40 MSTORE DUP1 CALLER PUSH20 0xFFFFFFFFFFFFFFFFFFFFFFFFFFFFFFFFFFFFFFFF AND DUP2 MSTORE PUSH1 0x20 ADD DUP5 ISZERO ISZERO DUP2 MSTORE POP SWAP1 DUP1 PUSH1 0x1 DUP2 SLOAD ADD DUP1 DUP3 SSTORE DUP1 SWAP2 POP POP PUSH1 0x1 SWAP1 SUB SWAP1 PUSH1 0x0 MSTORE PUSH1 0x20 PUSH1 0x0 KECCAK256 ADD PUSH1 0x0 SWAP1 SWAP2 SWAP1 SWAP2 SWAP1 SWAP2 POP PUSH1 0x0 DUP3 ADD MLOAD DUP2 PUSH1 0x0 ADD PUSH1 0x0 PUSH2 0x100 EXP DUP2 SLOAD DUP2 PUSH20 0xFFFFFFFFFFFFFFFFFFFFFFFFFFFFFFFFFFFFFFFF MUL NOT AND SWAP1 DUP4 PUSH20 0xFFFFFFFFFFFFFFFFFFFFFFFFFFFFFFFFFFFFFFFF AND MUL OR SWAP1 SSTORE POP PUSH1 0x20 DUP3 ADD MLOAD DUP2 PUSH1 0x0 ADD PUSH1 0x14 PUSH2 0x100 EXP DUP2 SLOAD DUP2 PUSH1 0xFF MUL NOT AND SWAP1 DUP4 ISZERO ISZERO MUL OR SWAP1 SSTORE POP POP POP POP POP POP POP POP JUMP JUMPDEST CALLER PUSH1 0x0 DUP1 JUMPDEST PUSH1 0x1 DUP1 SLOAD SWAP1 POP DUP2 LT ISZERO PUSH2 0x1F2E JUMPI DUP3 PUSH20 0xFFFFFFFFFFFFFFFFFFFFFFFFFFFFFFFFFFFFFFFF AND PUSH1 0x1 DUP3 DUP2 SLOAD DUP2 LT PUSH2 0x1EC4 JUMPI PUSH2 0x1EC3 PUSH2 0x3642 JUMP JUMPDEST JUMPDEST SWAP1 PUSH1 0x0 MSTORE PUSH1 0x20 PUSH1 0x0 KECCAK256 SWAP1 PUSH1 0x3 MUL ADD PUSH1 0x0 ADD PUSH1 0x0 SWAP1 SLOAD SWAP1 PUSH2 0x100 EXP SWAP1 DIV PUSH20 0xFFFFFFFFFFFFFFFFFFFFFFFFFFFFFFFFFFFFFFFF AND PUSH20 0xFFFFFFFFFFFFFFFFFFFFFFFFFFFFFFFFFFFFFFFF AND EQ ISZERO PUSH2 0x1F1B JUMPI PUSH1 0x1 SWAP2 POP PUSH2 0x1F2E JUMP JUMPDEST DUP1 DUP1 PUSH2 0x1F26 SWAP1 PUSH2 0x359B JUMP JUMPDEST SWAP2 POP POP PUSH2 0x1E8C JUMP JUMPDEST POP DUP1 ISZERO PUSH2 0x1F70 JUMPI PUSH1 0x40 MLOAD PUSH32 0x8C379A000000000000000000000000000000000000000000000000000000000 DUP2 MSTORE PUSH1 0x4 ADD PUSH2 0x1F67 SWAP1 PUSH2 0x3208 JUMP JUMPDEST PUSH1 0x40 MLOAD DUP1 SWAP2 SUB SWAP1 REVERT JUMPDEST CALLER PUSH1 0x0 JUMPDEST PUSH1 0x1 DUP1 SLOAD SWAP1 POP DUP2 LT ISZERO PUSH2 0x207A JUMPI DUP2 PUSH20 0xFFFFFFFFFFFFFFFFFFFFFFFFFFFFFFFFFFFFFFFF AND PUSH1 0x1 DUP3 DUP2 SLOAD DUP2 LT PUSH2 0x1FAC JUMPI PUSH2 0x1FAB PUSH2 0x3642 JUMP JUMPDEST JUMPDEST SWAP1 PUSH1 0x0 MSTORE PUSH1 0x20 PUSH1 0x0 KECCAK256 SWAP1 PUSH1 0x3 MUL ADD PUSH1 0x0 ADD PUSH1 0x0 SWAP1 SLOAD SWAP1 PUSH2 0x100 EXP SWAP1 DIV PUSH20 0xFFFFFFFFFFFFFFFFFFFFFFFFFFFFFFFFFFFFFFFF AND PUSH20 0xFFFFFFFFFFFFFFFFFFFFFFFFFFFFFFFFFFFFFFFF AND EQ ISZERO PUSH2 0x2067 JUMPI PUSH1 0x0 PUSH1 0x1 DUP3 DUP2 SLOAD DUP2 LT PUSH2 0x2010 JUMPI PUSH2 0x200F PUSH2 0x3642 JUMP JUMPDEST JUMPDEST SWAP1 PUSH1 0x0 MSTORE PUSH1 0x20 PUSH1 0x0 KECCAK256 SWAP1 PUSH1 0x3 MUL ADD PUSH1 0x2 ADD SLOAD EQ PUSH2 0x2062 JUMPI PUSH1 0x40 MLOAD PUSH32 0x8C379A000000000000000000000000000000000000000000000000000000000 DUP2 MSTORE PUSH1 0x4 ADD PUSH2 0x2059 SWAP1 PUSH2 0x3168 JUMP JUMPDEST PUSH1 0x40 MLOAD DUP1 SWAP2 SUB SWAP1 REVERT JUMPDEST PUSH2 0x207A JUMP JUMPDEST DUP1 DUP1 PUSH2 0x2072 SWAP1 PUSH2 0x359B JUMP JUMPDEST SWAP2 POP POP PUSH2 0x1F74 JUMP JUMPDEST POP PUSH1 0x0 JUMPDEST PUSH1 0x1 DUP1 SLOAD SWAP1 POP DUP2 LT ISZERO PUSH2 0x21B0 JUMPI DUP5 PUSH20 0xFFFFFFFFFFFFFFFFFFFFFFFFFFFFFFFFFFFFFFFF AND PUSH1 0x1 DUP3 DUP2 SLOAD DUP2 LT PUSH2 0x20B6 JUMPI PUSH2 0x20B5 PUSH2 0x3642 JUMP JUMPDEST JUMPDEST SWAP1 PUSH1 0x0 MSTORE PUSH1 0x20 PUSH1 0x0 KECCAK256 SWAP1 PUSH1 0x3 MUL ADD PUSH1 0x0 ADD PUSH1 0x0 SWAP1 SLOAD SWAP1 PUSH2 0x100 EXP SWAP1 DIV PUSH20 0xFFFFFFFFFFFFFFFFFFFFFFFFFFFFFFFFFFFFFFFF AND PUSH20 0xFFFFFFFFFFFFFFFFFFFFFFFFFFFFFFFFFFFFFFFF AND EQ ISZERO PUSH2 0x219D JUMPI PUSH1 0x0 PUSH1 0x1 DUP3 DUP2 SLOAD DUP2 LT PUSH2 0x211A JUMPI PUSH2 0x2119 PUSH2 0x3642 JUMP JUMPDEST JUMPDEST SWAP1 PUSH1 0x0 MSTORE PUSH1 0x20 PUSH1 0x0 KECCAK256 SWAP1 PUSH1 0x3 MUL ADD PUSH1 0x1 ADD SLOAD EQ ISZERO PUSH2 0x216D JUMPI PUSH1 0x40 MLOAD PUSH32 0x8C379A000000000000000000000000000000000000000000000000000000000 DUP2 MSTORE PUSH1 0x4 ADD PUSH2 0x2164 SWAP1 PUSH2 0x31A8 JUMP JUMPDEST PUSH1 0x40 MLOAD DUP1 SWAP2 SUB SWAP1 REVERT JUMPDEST PUSH1 0x0 PUSH1 0x1 DUP3 DUP2 SLOAD DUP2 LT PUSH2 0x2183 JUMPI PUSH2 0x2182 PUSH2 0x3642 JUMP JUMPDEST JUMPDEST SWAP1 PUSH1 0x0 MSTORE PUSH1 0x20 PUSH1 0x0 KECCAK256 SWAP1 PUSH1 0x3 MUL ADD PUSH1 0x1 ADD DUP2 SWAP1 SSTORE POP PUSH2 0x21B0 JUMP JUMPDEST DUP1 DUP1 PUSH2 0x21A8 SWAP1 PUSH2 0x359B JUMP JUMPDEST SWAP2 POP POP PUSH2 0x207E JUMP JUMPDEST POP POP POP POP POP JUMP JUMPDEST PUSH1 0x0 DUP4 DUP2 SLOAD DUP2 LT PUSH2 0x21CB JUMPI PUSH2 0x21CA PUSH2 0x3642 JUMP JUMPDEST JUMPDEST SWAP1 PUSH1 0x0 MSTORE PUSH1 0x20 PUSH1 0x0 KECCAK256 SWAP1 PUSH1 0x4 MUL ADD PUSH1 0x2 ADD DUP3 DUP2 SLOAD DUP2 LT PUSH2 0x21EE JUMPI PUSH2 0x21ED PUSH2 0x3642 JUMP JUMPDEST JUMPDEST SWAP1 PUSH1 0x0 MSTORE PUSH1 0x20 PUSH1 0x0 KECCAK256 SWAP1 PUSH1 0x5 MUL ADD PUSH1 0x3 ADD PUSH1 0x1 DUP2 PUSH1 0x1 DUP2 SLOAD ADD DUP1 DUP3 SSTORE DUP1 SWAP2 POP POP SUB SWAP1 PUSH1 0x0 MSTORE PUSH1 0x20 PUSH1 0x0 KECCAK256 SWAP1 POP POP CALLER PUSH1 0x0 DUP5 DUP2 SLOAD DUP2 LT PUSH2 0x2230 JUMPI PUSH2 0x222F PUSH2 0x3642 JUMP JUMPDEST JUMPDEST SWAP1 PUSH1 0x0 MSTORE PUSH1 0x20 PUSH1 0x0 KECCAK256 SWAP1 PUSH1 0x4 MUL ADD PUSH1 0x2 ADD DUP4 DUP2 SLOAD DUP2 LT PUSH2 0x2253 JUMPI PUSH2 0x2252 PUSH2 0x3642 JUMP JUMPDEST JUMPDEST SWAP1 PUSH1 0x0 MSTORE PUSH1 0x20 PUSH1 0x0 KECCAK256 SWAP1 PUSH1 0x5 MUL ADD PUSH1 0x3 ADD PUSH1 0x1 PUSH1 0x0 DUP7 DUP2 SLOAD DUP2 LT PUSH2 0x227A JUMPI PUSH2 0x2279 PUSH2 0x3642 JUMP JUMPDEST JUMPDEST SWAP1 PUSH1 0x0 MSTORE PUSH1 0x20 PUSH1 0x0 KECCAK256 SWAP1 PUSH1 0x4 MUL ADD PUSH1 0x2 ADD DUP6 DUP2 SLOAD DUP2 LT PUSH2 0x229D JUMPI PUSH2 0x229C PUSH2 0x3642 JUMP JUMPDEST JUMPDEST SWAP1 PUSH1 0x0 MSTORE PUSH1 0x20 PUSH1 0x0 KECCAK256 SWAP1 PUSH1 0x5 MUL ADD PUSH1 0x3 ADD DUP1 SLOAD SWAP1 POP PUSH2 0x22BC SWAP2 SWAP1 PUSH2 0x347A JUMP JUMPDEST DUP2 SLOAD DUP2 LT PUSH2 0x22CD JUMPI PUSH2 0x22CC PUSH2 0x3642 JUMP JUMPDEST JUMPDEST SWAP1 PUSH1 0x0 MSTORE PUSH1 0x20 PUSH1 0x0 KECCAK256 SWAP1 PUSH1 0x3 MUL ADD PUSH1 0x0 ADD PUSH1 0x0 PUSH2 0x100 EXP DUP2 SLOAD DUP2 PUSH20 0xFFFFFFFFFFFFFFFFFFFFFFFFFFFFFFFFFFFFFFFF MUL NOT AND SWAP1 DUP4 PUSH20 0xFFFFFFFFFFFFFFFFFFFFFFFFFFFFFFFFFFFFFFFF AND MUL OR SWAP1 SSTORE POP DUP1 PUSH1 0x0 DUP5 DUP2 SLOAD DUP2 LT PUSH2 0x2331 JUMPI PUSH2 0x2330 PUSH2 0x3642 JUMP JUMPDEST JUMPDEST SWAP1 PUSH1 0x0 MSTORE PUSH1 0x20 PUSH1 0x0 KECCAK256 SWAP1 PUSH1 0x4 MUL ADD PUSH1 0x2 ADD DUP4 DUP2 SLOAD DUP2 LT PUSH2 0x2354 JUMPI PUSH2 0x2353 PUSH2 0x3642 JUMP JUMPDEST JUMPDEST SWAP1 PUSH1 0x0 MSTORE PUSH1 0x20 PUSH1 0x0 KECCAK256 SWAP1 PUSH1 0x5 MUL ADD PUSH1 0x3 ADD PUSH1 0x1 PUSH1 0x0 DUP7 DUP2 SLOAD DUP2 LT PUSH2 0x237B JUMPI PUSH2 0x237A PUSH2 0x3642 JUMP JUMPDEST JUMPDEST SWAP1 PUSH1 0x0 MSTORE PUSH1 0x20 PUSH1 0x0 KECCAK256 SWAP1 PUSH1 0x4 MUL ADD PUSH1 0x2 ADD DUP6 DUP2 SLOAD DUP2 LT PUSH2 0x239E JUMPI PUSH2 0x239D PUSH2 0x3642 JUMP JUMPDEST JUMPDEST SWAP1 PUSH1 0x0 MSTORE PUSH1 0x20 PUSH1 0x0 KECCAK256 SWAP1 PUSH1 0x5 MUL ADD PUSH1 0x3 ADD DUP1 SLOAD SWAP1 POP PUSH2 0x23BD SWAP2 SWAP1 PUSH2 0x347A JUMP JUMPDEST DUP2 SLOAD DUP2 LT PUSH2 0x23CE JUMPI PUSH2 0x23CD PUSH2 0x3642 JUMP JUMPDEST JUMPDEST SWAP1 PUSH1 0x0 MSTORE PUSH1 0x20 PUSH1 0x0 KECCAK256 SWAP1 PUSH1 0x3 MUL ADD PUSH1 0x2 ADD SWAP1 DUP1 MLOAD SWAP1 PUSH1 0x20 ADD SWAP1 PUSH2 0x23F2 SWAP3 SWAP2 SWAP1 PUSH2 0x24C1 JUMP JUMPDEST POP POP POP POP JUMP JUMPDEST PUSH1 0x60 PUSH1 0x1 DUP1 SLOAD DUP1 PUSH1 0x20 MUL PUSH1 0x20 ADD PUSH1 0x40 MLOAD SWAP1 DUP2 ADD PUSH1 0x40 MSTORE DUP1 SWAP3 SWAP2 SWAP1 DUP2 DUP2 MSTORE PUSH1 0x20 ADD PUSH1 0x0 SWAP1 JUMPDEST DUP3 DUP3 LT ISZERO PUSH2 0x24B8 JUMPI DUP4 DUP3 SWAP1 PUSH1 0x0 MSTORE PUSH1 0x20 PUSH1 0x0 KECCAK256 SWAP1 PUSH1 0x3 MUL ADD PUSH1 0x40 MLOAD DUP1 PUSH1 0x60 ADD PUSH1 0x40 MSTORE SWAP1 DUP2 PUSH1 0x0 DUP3 ADD PUSH1 0x0 SWAP1 SLOAD SWAP1 PUSH2 0x100 EXP SWAP1 DIV PUSH20 0xFFFFFFFFFFFFFFFFFFFFFFFFFFFFFFFFFFFFFFFF AND PUSH20 0xFFFFFFFFFFFFFFFFFFFFFFFFFFFFFFFFFFFFFFFF AND PUSH20 0xFFFFFFFFFFFFFFFFFFFFFFFFFFFFFFFFFFFFFFFF AND DUP2 MSTORE PUSH1 0x20 ADD PUSH1 0x1 DUP3 ADD SLOAD DUP2 MSTORE PUSH1 0x20 ADD PUSH1 0x2 DUP3 ADD SLOAD DUP2 MSTORE POP POP DUP2 MSTORE PUSH1 0x20 ADD SWAP1 PUSH1 0x1 ADD SWAP1 PUSH2 0x241C JUMP JUMPDEST POP POP POP POP SWAP1 POP SWAP1 JUMP JUMPDEST DUP3 DUP1 SLOAD PUSH2 0x24CD SWAP1 PUSH2 0x3538 JUMP JUMPDEST SWAP1 PUSH1 0x0 MSTORE PUSH1 0x20 PUSH1 0x0 KECCAK256 SWAP1 PUSH1 0x1F ADD PUSH1 0x20 SWAP1 DIV DUP2 ADD SWAP3 DUP3 PUSH2 0x24EF JUMPI PUSH1 0x0 DUP6 SSTORE PUSH2 0x2536 JUMP JUMPDEST DUP3 PUSH1 0x1F LT PUSH2 0x2508 JUMPI DUP1 MLOAD PUSH1 0xFF NOT AND DUP4 DUP1 ADD OR DUP6 SSTORE PUSH2 0x2536 JUMP JUMPDEST DUP3 DUP1 ADD PUSH1 0x1 ADD DUP6 SSTORE DUP3 ISZERO PUSH2 0x2536 JUMPI SWAP2 DUP3 ADD JUMPDEST DUP3 DUP2 GT ISZERO PUSH2 0x2535 JUMPI DUP3 MLOAD DUP3 SSTORE SWAP2 PUSH1 0x20 ADD SWAP2 SWAP1 PUSH1 0x1 ADD SWAP1 PUSH2 0x251A JUMP JUMPDEST JUMPDEST POP SWAP1 POP PUSH2 0x2543 SWAP2 SWAP1 PUSH2 0x25CC JUMP JUMPDEST POP SWAP1 JUMP JUMPDEST POP DUP1 SLOAD PUSH2 0x2553 SWAP1 PUSH2 0x3538 JUMP JUMPDEST PUSH1 0x0 DUP3 SSTORE DUP1 PUSH1 0x1F LT PUSH2 0x2565 JUMPI POP PUSH2 0x2584 JUMP JUMPDEST PUSH1 0x1F ADD PUSH1 0x20 SWAP1 DIV SWAP1 PUSH1 0x0 MSTORE PUSH1 0x20 PUSH1 0x0 KECCAK256 SWAP1 DUP2 ADD SWAP1 PUSH2 0x2583 SWAP2 SWAP1 PUSH2 0x25CC JUMP JUMPDEST JUMPDEST POP JUMP JUMPDEST POP DUP1 SLOAD PUSH1 0x0 DUP3 SSTORE PUSH1 0x5 MUL SWAP1 PUSH1 0x0 MSTORE PUSH1 0x20 PUSH1 0x0 KECCAK256 SWAP1 DUP2 ADD SWAP1 PUSH2 0x25A8 SWAP2 SWAP1 PUSH2 0x25E9 JUMP JUMPDEST POP JUMP JUMPDEST POP DUP1 SLOAD PUSH1 0x0 DUP3 SSTORE SWAP1 PUSH1 0x0 MSTORE PUSH1 0x20 PUSH1 0x0 KECCAK256 SWAP1 DUP2 ADD SWAP1 PUSH2 0x25C9 SWAP2 SWAP1 PUSH2 0x25CC JUMP JUMPDEST POP JUMP JUMPDEST JUMPDEST DUP1 DUP3 GT ISZERO PUSH2 0x25E5 JUMPI PUSH1 0x0 DUP2 PUSH1 0x0 SWAP1 SSTORE POP PUSH1 0x1 ADD PUSH2 0x25CD JUMP JUMPDEST POP SWAP1 JUMP JUMPDEST JUMPDEST DUP1 DUP3 GT ISZERO PUSH2 0x265B JUMPI PUSH1 0x0 DUP1 DUP3 ADD PUSH1 0x0 PUSH2 0x100 EXP DUP2 SLOAD SWAP1 PUSH20 0xFFFFFFFFFFFFFFFFFFFFFFFFFFFFFFFFFFFFFFFF MUL NOT AND SWAP1 SSTORE PUSH1 0x1 DUP3 ADD PUSH1 0x0 SWAP1 SSTORE PUSH1 0x2 DUP3 ADD PUSH1 0x0 PUSH2 0x2632 SWAP2 SWAP1 PUSH2 0x265F JUMP JUMPDEST PUSH1 0x3 DUP3 ADD PUSH1 0x0 PUSH2 0x2642 SWAP2 SWAP1 PUSH2 0x2680 JUMP JUMPDEST PUSH1 0x4 DUP3 ADD PUSH1 0x0 PUSH2 0x2652 SWAP2 SWAP1 PUSH2 0x2547 JUMP JUMPDEST POP PUSH1 0x5 ADD PUSH2 0x25EA JUMP JUMPDEST POP SWAP1 JUMP JUMPDEST POP DUP1 SLOAD PUSH1 0x0 DUP3 SSTORE SWAP1 PUSH1 0x0 MSTORE PUSH1 0x20 PUSH1 0x0 KECCAK256 SWAP1 DUP2 ADD SWAP1 PUSH2 0x267D SWAP2 SWAP1 PUSH2 0x26A4 JUMP JUMPDEST POP JUMP JUMPDEST POP DUP1 SLOAD PUSH1 0x0 DUP3 SSTORE PUSH1 0x3 MUL SWAP1 PUSH1 0x0 MSTORE PUSH1 0x20 PUSH1 0x0 KECCAK256 SWAP1 DUP2 ADD SWAP1 PUSH2 0x26A1 SWAP2 SWAP1 PUSH2 0x26F6 JUMP JUMPDEST POP JUMP JUMPDEST JUMPDEST DUP1 DUP3 GT ISZERO PUSH2 0x26F2 JUMPI PUSH1 0x0 DUP1 DUP3 ADD PUSH1 0x0 PUSH2 0x100 EXP DUP2 SLOAD SWAP1 PUSH20 0xFFFFFFFFFFFFFFFFFFFFFFFFFFFFFFFFFFFFFFFF MUL NOT AND SWAP1 SSTORE PUSH1 0x0 DUP3 ADD PUSH1 0x14 PUSH2 0x100 EXP DUP2 SLOAD SWAP1 PUSH1 0xFF MUL NOT AND SWAP1 SSTORE POP PUSH1 0x1 ADD PUSH2 0x26A5 JUMP JUMPDEST POP SWAP1 JUMP JUMPDEST JUMPDEST DUP1 DUP3 GT ISZERO PUSH2 0x2750 JUMPI PUSH1 0x0 DUP1 DUP3 ADD PUSH1 0x0 PUSH2 0x100 EXP DUP2 SLOAD SWAP1 PUSH20 0xFFFFFFFFFFFFFFFFFFFFFFFFFFFFFFFFFFFFFFFF MUL NOT AND SWAP1 SSTORE PUSH1 0x1 DUP3 ADD PUSH1 0x0 PUSH2 0x2737 SWAP2 SWAP1 PUSH2 0x265F JUMP JUMPDEST PUSH1 0x2 DUP3 ADD PUSH1 0x0 PUSH2 0x2747 SWAP2 SWAP1 PUSH2 0x2547 JUMP JUMPDEST POP PUSH1 0x3 ADD PUSH2 0x26F7 JUMP JUMPDEST POP SWAP1 JUMP JUMPDEST PUSH1 0x0 PUSH2 0x2767 PUSH2 0x2762 DUP5 PUSH2 0x328D JUMP JUMPDEST PUSH2 0x3268 JUMP JUMPDEST SWAP1 POP DUP3 DUP2 MSTORE PUSH1 0x20 DUP2 ADD DUP5 DUP5 DUP5 ADD GT ISZERO PUSH2 0x2783 JUMPI PUSH2 0x2782 PUSH2 0x36A5 JUMP JUMPDEST JUMPDEST PUSH2 0x278E DUP5 DUP3 DUP6 PUSH2 0x34F6 JUMP JUMPDEST POP SWAP4 SWAP3 POP POP POP JUMP JUMPDEST PUSH1 0x0 DUP2 CALLDATALOAD SWAP1 POP PUSH2 0x27A5 DUP2 PUSH2 0x3836 JUMP JUMPDEST SWAP3 SWAP2 POP POP JUMP JUMPDEST PUSH1 0x0 DUP2 CALLDATALOAD SWAP1 POP PUSH2 0x27BA DUP2 PUSH2 0x384D JUMP JUMPDEST SWAP3 SWAP2 POP POP JUMP JUMPDEST PUSH1 0x0 DUP3 PUSH1 0x1F DUP4 ADD SLT PUSH2 0x27D5 JUMPI PUSH2 0x27D4 PUSH2 0x36A0 JUMP JUMPDEST JUMPDEST DUP2 CALLDATALOAD PUSH2 0x27E5 DUP5 DUP3 PUSH1 0x20 DUP7 ADD PUSH2 0x2754 JUMP JUMPDEST SWAP2 POP POP SWAP3 SWAP2 POP POP JUMP JUMPDEST PUSH1 0x0 DUP2 CALLDATALOAD SWAP1 POP PUSH2 0x27FD DUP2 PUSH2 0x3864 JUMP JUMPDEST SWAP3 SWAP2 POP POP JUMP JUMPDEST PUSH1 0x0 PUSH1 0x20 DUP3 DUP5 SUB SLT ISZERO PUSH2 0x2819 JUMPI PUSH2 0x2818 PUSH2 0x36AF JUMP JUMPDEST JUMPDEST PUSH1 0x0 PUSH2 0x2827 DUP5 DUP3 DUP6 ADD PUSH2 0x2796 JUMP JUMPDEST SWAP2 POP POP SWAP3 SWAP2 POP POP JUMP JUMPDEST PUSH1 0x0 DUP1 PUSH1 0x40 DUP4 DUP6 SUB SLT ISZERO PUSH2 0x2847 JUMPI PUSH2 0x2846 PUSH2 0x36AF JUMP JUMPDEST JUMPDEST PUSH1 0x0 PUSH2 0x2855 DUP6 DUP3 DUP7 ADD PUSH2 0x2796 JUMP JUMPDEST SWAP3 POP POP PUSH1 0x20 DUP4 ADD CALLDATALOAD PUSH8 0xFFFFFFFFFFFFFFFF DUP2 GT ISZERO PUSH2 0x2876 JUMPI PUSH2 0x2875 PUSH2 0x36AA JUMP JUMPDEST JUMPDEST PUSH2 0x2882 DUP6 DUP3 DUP7 ADD PUSH2 0x27C0 JUMP JUMPDEST SWAP2 POP POP SWAP3 POP SWAP3 SWAP1 POP JUMP JUMPDEST PUSH1 0x0 PUSH1 0x20 DUP3 DUP5 SUB SLT ISZERO PUSH2 0x28A2 JUMPI PUSH2 0x28A1 PUSH2 0x36AF JUMP JUMPDEST JUMPDEST PUSH1 0x0 PUSH2 0x28B0 DUP5 DUP3 DUP6 ADD PUSH2 0x27EE JUMP JUMPDEST SWAP2 POP POP SWAP3 SWAP2 POP POP JUMP JUMPDEST PUSH1 0x0 DUP1 PUSH1 0x0 PUSH1 0x60 DUP5 DUP7 SUB SLT ISZERO PUSH2 0x28D2 JUMPI PUSH2 0x28D1 PUSH2 0x36AF JUMP JUMPDEST JUMPDEST PUSH1 0x0 PUSH2 0x28E0 DUP7 DUP3 DUP8 ADD PUSH2 0x27EE JUMP JUMPDEST SWAP4 POP POP PUSH1 0x20 PUSH2 0x28F1 DUP7 DUP3 DUP8 ADD PUSH2 0x27EE JUMP JUMPDEST SWAP3 POP POP PUSH1 0x40 PUSH2 0x2902 DUP7 DUP3 DUP8 ADD PUSH2 0x27AB JUMP JUMPDEST SWAP2 POP POP SWAP3 POP SWAP3 POP SWAP3 JUMP JUMPDEST PUSH1 0x0 DUP1 PUSH1 0x0 PUSH1 0x60 DUP5 DUP7 SUB SLT ISZERO PUSH2 0x2925 JUMPI PUSH2 0x2924 PUSH2 0x36AF JUMP JUMPDEST JUMPDEST PUSH1 0x0 PUSH2 0x2933 DUP7 DUP3 DUP8 ADD PUSH2 0x27EE JUMP JUMPDEST SWAP4 POP POP PUSH1 0x20 PUSH2 0x2944 DUP7 DUP3 DUP8 ADD PUSH2 0x27EE JUMP JUMPDEST SWAP3 POP POP PUSH1 0x40 DUP5 ADD CALLDATALOAD PUSH8 0xFFFFFFFFFFFFFFFF DUP2 GT ISZERO PUSH2 0x2965 JUMPI PUSH2 0x2964 PUSH2 0x36AA JUMP JUMPDEST JUMPDEST PUSH2 0x2971 DUP7 DUP3 DUP8 ADD PUSH2 0x27C0 JUMP JUMPDEST SWAP2 POP POP SWAP3 POP SWAP3 POP SWAP3 JUMP JUMPDEST PUSH1 0x0 DUP1 PUSH1 0x0 DUP1 PUSH1 0x80 DUP6 DUP8 SUB SLT ISZERO PUSH2 0x2995 JUMPI PUSH2 0x2994 PUSH2 0x36AF JUMP JUMPDEST JUMPDEST PUSH1 0x0 PUSH2 0x29A3 DUP8 DUP3 DUP9 ADD PUSH2 0x27EE JUMP JUMPDEST SWAP5 POP POP PUSH1 0x20 PUSH2 0x29B4 DUP8 DUP3 DUP9 ADD PUSH2 0x27EE JUMP JUMPDEST SWAP4 POP POP PUSH1 0x40 PUSH2 0x29C5 DUP8 DUP3 DUP9 ADD PUSH2 0x27EE JUMP JUMPDEST SWAP3 POP POP PUSH1 0x60 PUSH2 0x29D6 DUP8 DUP3 DUP9 ADD PUSH2 0x27AB JUMP JUMPDEST SWAP2 POP POP SWAP3 SWAP6 SWAP2 SWAP5 POP SWAP3 POP JUMP JUMPDEST PUSH1 0x0 PUSH2 0x29EE DUP4 DUP4 PUSH2 0x2EE7 JUMP JUMPDEST SWAP1 POP SWAP3 SWAP2 POP POP JUMP JUMPDEST PUSH1 0x0 PUSH2 0x2A02 DUP4 DUP4 PUSH2 0x2F3E JUMP JUMPDEST PUSH1 0x40 DUP4 ADD SWAP1 POP SWAP3 SWAP2 POP POP JUMP JUMPDEST PUSH1 0x0 PUSH2 0x2A1A DUP4 DUP4 PUSH2 0x2F6D JUMP JUMPDEST SWAP1 POP SWAP3 SWAP2 POP POP JUMP JUMPDEST PUSH1 0x0 PUSH2 0x2A2E DUP4 DUP4 PUSH2 0x2FF1 JUMP JUMPDEST PUSH1 0x40 DUP4 ADD SWAP1 POP SWAP3 SWAP2 POP POP JUMP JUMPDEST PUSH1 0x0 PUSH2 0x2A46 DUP4 DUP4 PUSH2 0x3020 JUMP JUMPDEST SWAP1 POP SWAP3 SWAP2 POP POP JUMP JUMPDEST PUSH1 0x0 PUSH2 0x2A5A DUP4 DUP4 PUSH2 0x3091 JUMP JUMPDEST PUSH1 0x60 DUP4 ADD SWAP1 POP SWAP3 SWAP2 POP POP JUMP JUMPDEST PUSH1 0x0 PUSH2 0x2A72 DUP4 DUP4 PUSH2 0x30D3 JUMP JUMPDEST PUSH1 0x20 DUP4 ADD SWAP1 POP SWAP3 SWAP2 POP POP JUMP JUMPDEST PUSH2 0x2A87 DUP2 PUSH2 0x34AE JUMP JUMPDEST DUP3 MSTORE POP POP JUMP JUMPDEST PUSH1 0x0 PUSH2 0x2A98 DUP3 PUSH2 0x332E JUMP JUMPDEST PUSH2 0x2AA2 DUP2 DUP6 PUSH2 0x33E1 JUMP JUMPDEST SWAP4 POP DUP4 PUSH1 0x20 DUP3 MUL DUP6 ADD PUSH2 0x2AB4 DUP6 PUSH2 0x32BE JUMP JUMPDEST DUP1 PUSH1 0x0 JUMPDEST DUP6 DUP2 LT ISZERO PUSH2 0x2AF0 JUMPI DUP5 DUP5 SUB DUP10 MSTORE DUP2 MLOAD PUSH2 0x2AD1 DUP6 DUP3 PUSH2 0x29E2 JUMP JUMPDEST SWAP5 POP PUSH2 0x2ADC DUP4 PUSH2 0x3386 JUMP JUMPDEST SWAP3 POP PUSH1 0x20 DUP11 ADD SWAP10 POP POP PUSH1 0x1 DUP2 ADD SWAP1 POP PUSH2 0x2AB8 JUMP JUMPDEST POP DUP3 SWAP8 POP DUP8 SWAP6 POP POP POP POP POP POP SWAP3 SWAP2 POP POP JUMP JUMPDEST PUSH1 0x0 PUSH2 0x2B0D DUP3 PUSH2 0x3339 JUMP JUMPDEST PUSH2 0x2B17 DUP2 DUP6 PUSH2 0x33F2 JUMP JUMPDEST SWAP4 POP PUSH2 0x2B22 DUP4 PUSH2 0x32CE JUMP JUMPDEST DUP1 PUSH1 0x0 JUMPDEST DUP4 DUP2 LT ISZERO PUSH2 0x2B53 JUMPI DUP2 MLOAD PUSH2 0x2B3A DUP9 DUP3 PUSH2 0x29F6 JUMP JUMPDEST SWAP8 POP PUSH2 0x2B45 DUP4 PUSH2 0x3393 JUMP JUMPDEST SWAP3 POP POP PUSH1 0x1 DUP2 ADD SWAP1 POP PUSH2 0x2B26 JUMP JUMPDEST POP DUP6 SWAP4 POP POP POP POP SWAP3 SWAP2 POP POP JUMP JUMPDEST PUSH1 0x0 PUSH2 0x2B6B DUP3 PUSH2 0x3344 JUMP JUMPDEST PUSH2 0x2B75 DUP2 DUP6 PUSH2 0x3403 JUMP JUMPDEST SWAP4 POP DUP4 PUSH1 0x20 DUP3 MUL DUP6 ADD PUSH2 0x2B87 DUP6 PUSH2 0x32DE JUMP JUMPDEST DUP1 PUSH1 0x0 JUMPDEST DUP6 DUP2 LT ISZERO PUSH2 0x2BC3 JUMPI DUP5 DUP5 SUB DUP10 MSTORE DUP2 MLOAD PUSH2 0x2BA4 DUP6 DUP3 PUSH2 0x2A0E JUMP JUMPDEST SWAP5 POP PUSH2 0x2BAF DUP4 PUSH2 0x33A0 JUMP JUMPDEST SWAP3 POP PUSH1 0x20 DUP11 ADD SWAP10 POP POP PUSH1 0x1 DUP2 ADD SWAP1 POP PUSH2 0x2B8B JUMP JUMPDEST POP DUP3 SWAP8 POP DUP8 SWAP6 POP POP POP POP POP POP SWAP3 SWAP2 POP POP JUMP JUMPDEST PUSH1 0x0 PUSH2 0x2BE0 DUP3 PUSH2 0x334F JUMP JUMPDEST PUSH2 0x2BEA DUP2 DUP6 PUSH2 0x3414 JUMP JUMPDEST SWAP4 POP PUSH2 0x2BF5 DUP4 PUSH2 0x32EE JUMP JUMPDEST DUP1 PUSH1 0x0 JUMPDEST DUP4 DUP2 LT ISZERO PUSH2 0x2C26 JUMPI DUP2 MLOAD PUSH2 0x2C0D DUP9 DUP3 PUSH2 0x2A22 JUMP JUMPDEST SWAP8 POP PUSH2 0x2C18 DUP4 PUSH2 0x33AD JUMP JUMPDEST SWAP3 POP POP PUSH1 0x1 DUP2 ADD SWAP1 POP PUSH2 0x2BF9 JUMP JUMPDEST POP DUP6 SWAP4 POP POP POP POP SWAP3 SWAP2 POP POP JUMP JUMPDEST PUSH1 0x0 PUSH2 0x2C3E DUP3 PUSH2 0x335A JUMP JUMPDEST PUSH2 0x2C48 DUP2 DUP6 PUSH2 0x3425 JUMP JUMPDEST SWAP4 POP DUP4 PUSH1 0x20 DUP3 MUL DUP6 ADD PUSH2 0x2C5A DUP6 PUSH2 0x32FE JUMP JUMPDEST DUP1 PUSH1 0x0 JUMPDEST DUP6 DUP2 LT ISZERO PUSH2 0x2C96 JUMPI DUP5 DUP5 SUB DUP10 MSTORE DUP2 MLOAD PUSH2 0x2C77 DUP6 DUP3 PUSH2 0x2A3A JUMP JUMPDEST SWAP5 POP PUSH2 0x2C82 DUP4 PUSH2 0x33BA JUMP JUMPDEST SWAP3 POP PUSH1 0x20 DUP11 ADD SWAP10 POP POP PUSH1 0x1 DUP2 ADD SWAP1 POP PUSH2 0x2C5E JUMP JUMPDEST POP DUP3 SWAP8 POP DUP8 SWAP6 POP POP POP POP POP POP SWAP3 SWAP2 POP POP JUMP JUMPDEST PUSH1 0x0 PUSH2 0x2CB3 DUP3 PUSH2 0x3365 JUMP JUMPDEST PUSH2 0x2CBD DUP2 DUP6 PUSH2 0x3436 JUMP JUMPDEST SWAP4 POP PUSH2 0x2CC8 DUP4 PUSH2 0x330E JUMP JUMPDEST DUP1 PUSH1 0x0 JUMPDEST DUP4 DUP2 LT ISZERO PUSH2 0x2CF9 JUMPI DUP2 MLOAD PUSH2 0x2CE0 DUP9 DUP3 PUSH2 0x2A4E JUMP JUMPDEST SWAP8 POP PUSH2 0x2CEB DUP4 PUSH2 0x33C7 JUMP JUMPDEST SWAP3 POP POP PUSH1 0x1 DUP2 ADD SWAP1 POP PUSH2 0x2CCC JUMP JUMPDEST POP DUP6 SWAP4 POP POP POP POP SWAP3 SWAP2 POP POP JUMP JUMPDEST PUSH1 0x0 PUSH2 0x2D11 DUP3 PUSH2 0x3370 JUMP JUMPDEST PUSH2 0x2D1B DUP2 DUP6 PUSH2 0x3447 JUMP JUMPDEST SWAP4 POP PUSH2 0x2D26 DUP4 PUSH2 0x331E JUMP JUMPDEST DUP1 PUSH1 0x0 JUMPDEST DUP4 DUP2 LT ISZERO PUSH2 0x2D57 JUMPI DUP2 MLOAD PUSH2 0x2D3E DUP9 DUP3 PUSH2 0x2A66 JUMP JUMPDEST SWAP8 POP PUSH2 0x2D49 DUP4 PUSH2 0x33D4 JUMP JUMPDEST SWAP3 POP POP PUSH1 0x1 DUP2 ADD SWAP1 POP PUSH2 0x2D2A JUMP JUMPDEST POP DUP6 SWAP4 POP POP POP POP SWAP3 SWAP2 POP POP JUMP JUMPDEST PUSH2 0x2D6D DUP2 PUSH2 0x34C0 JUMP JUMPDEST DUP3 MSTORE POP POP JUMP JUMPDEST PUSH1 0x0 PUSH2 0x2D7E DUP3 PUSH2 0x337B JUMP JUMPDEST PUSH2 0x2D88 DUP2 DUP6 PUSH2 0x3458 JUMP JUMPDEST SWAP4 POP PUSH2 0x2D98 DUP2 DUP6 PUSH1 0x20 DUP7 ADD PUSH2 0x3505 JUMP JUMPDEST PUSH2 0x2DA1 DUP2 PUSH2 0x36B4 JUMP JUMPDEST DUP5 ADD SWAP2 POP POP SWAP3 SWAP2 POP POP JUMP JUMPDEST PUSH1 0x0 PUSH2 0x2DB9 PUSH1 0x3 DUP4 PUSH2 0x3469 JUMP JUMPDEST SWAP2 POP PUSH2 0x2DC4 DUP3 PUSH2 0x36C5 JUMP JUMPDEST PUSH1 0x20 DUP3 ADD SWAP1 POP SWAP2 SWAP1 POP JUMP JUMPDEST PUSH1 0x0 PUSH2 0x2DDC PUSH1 0x3 DUP4 PUSH2 0x3469 JUMP JUMPDEST SWAP2 POP PUSH2 0x2DE7 DUP3 PUSH2 0x36EE JUMP JUMPDEST PUSH1 0x20 DUP3 ADD SWAP1 POP SWAP2 SWAP1 POP JUMP JUMPDEST PUSH1 0x0 PUSH2 0x2DFF PUSH1 0x3 DUP4 PUSH2 0x3469 JUMP JUMPDEST SWAP2 POP PUSH2 0x2E0A DUP3 PUSH2 0x3717 JUMP JUMPDEST PUSH1 0x20 DUP3 ADD SWAP1 POP SWAP2 SWAP1 POP JUMP JUMPDEST PUSH1 0x0 PUSH2 0x2E22 PUSH1 0x10 DUP4 PUSH2 0x3469 JUMP JUMPDEST SWAP2 POP PUSH2 0x2E2D DUP3 PUSH2 0x3740 JUMP JUMPDEST PUSH1 0x20 DUP3 ADD SWAP1 POP SWAP2 SWAP1 POP JUMP JUMPDEST PUSH1 0x0 PUSH2 0x2E45 PUSH1 0xE DUP4 PUSH2 0x3469 JUMP JUMPDEST SWAP2 POP PUSH2 0x2E50 DUP3 PUSH2 0x3769 JUMP JUMPDEST PUSH1 0x20 DUP3 ADD SWAP1 POP SWAP2 SWAP1 POP JUMP JUMPDEST PUSH1 0x0 PUSH2 0x2E68 PUSH1 0x3 DUP4 PUSH2 0x3469 JUMP JUMPDEST SWAP2 POP PUSH2 0x2E73 DUP3 PUSH2 0x3792 JUMP JUMPDEST PUSH1 0x20 DUP3 ADD SWAP1 POP SWAP2 SWAP1 POP JUMP JUMPDEST PUSH1 0x0 PUSH2 0x2E8B PUSH1 0x3 DUP4 PUSH2 0x3469 JUMP JUMPDEST SWAP2 POP PUSH2 0x2E96 DUP3 PUSH2 0x37BB JUMP JUMPDEST PUSH1 0x20 DUP3 ADD SWAP1 POP SWAP2 SWAP1 POP JUMP JUMPDEST PUSH1 0x0 PUSH2 0x2EAE PUSH1 0xC DUP4 PUSH2 0x3469 JUMP JUMPDEST SWAP2 POP PUSH2 0x2EB9 DUP3 PUSH2 0x37E4 JUMP JUMPDEST PUSH1 0x20 DUP3 ADD SWAP1 POP SWAP2 SWAP1 POP JUMP JUMPDEST PUSH1 0x0 PUSH2 0x2ED1 PUSH1 0x3 DUP4 PUSH2 0x3469 JUMP JUMPDEST SWAP2 POP PUSH2 0x2EDC DUP3 PUSH2 0x380D JUMP JUMPDEST PUSH1 0x20 DUP3 ADD SWAP1 POP SWAP2 SWAP1 POP JUMP JUMPDEST PUSH1 0x0 PUSH1 0x60 DUP4 ADD PUSH1 0x0 DUP4 ADD MLOAD PUSH2 0x2EFF PUSH1 0x0 DUP7 ADD DUP3 PUSH2 0x2A7E JUMP JUMPDEST POP PUSH1 0x20 DUP4 ADD MLOAD DUP5 DUP3 SUB PUSH1 0x20 DUP7 ADD MSTORE PUSH2 0x2F17 DUP3 DUP3 PUSH2 0x2B02 JUMP JUMPDEST SWAP2 POP POP PUSH1 0x40 DUP4 ADD MLOAD DUP5 DUP3 SUB PUSH1 0x40 DUP7 ADD MSTORE PUSH2 0x2F31 DUP3 DUP3 PUSH2 0x2D73 JUMP JUMPDEST SWAP2 POP POP DUP1 SWAP2 POP POP SWAP3 SWAP2 POP POP JUMP JUMPDEST PUSH1 0x40 DUP3 ADD PUSH1 0x0 DUP3 ADD MLOAD PUSH2 0x2F54 PUSH1 0x0 DUP6 ADD DUP3 PUSH2 0x2A7E JUMP JUMPDEST POP PUSH1 0x20 DUP3 ADD MLOAD PUSH2 0x2F67 PUSH1 0x20 DUP6 ADD DUP3 PUSH2 0x2D64 JUMP JUMPDEST POP POP POP POP JUMP JUMPDEST PUSH1 0x0 PUSH1 0xA0 DUP4 ADD PUSH1 0x0 DUP4 ADD MLOAD PUSH2 0x2F85 PUSH1 0x0 DUP7 ADD DUP3 PUSH2 0x2A7E JUMP JUMPDEST POP PUSH1 0x20 DUP4 ADD MLOAD PUSH2 0x2F98 PUSH1 0x20 DUP7 ADD DUP3 PUSH2 0x30D3 JUMP JUMPDEST POP PUSH1 0x40 DUP4 ADD MLOAD DUP5 DUP3 SUB PUSH1 0x40 DUP7 ADD MSTORE PUSH2 0x2FB0 DUP3 DUP3 PUSH2 0x2B02 JUMP JUMPDEST SWAP2 POP POP PUSH1 0x60 DUP4 ADD MLOAD DUP5 DUP3 SUB PUSH1 0x60 DUP7 ADD MSTORE PUSH2 0x2FCA DUP3 DUP3 PUSH2 0x2A8D JUMP JUMPDEST SWAP2 POP POP PUSH1 0x80 DUP4 ADD MLOAD DUP5 DUP3 SUB PUSH1 0x80 DUP7 ADD MSTORE PUSH2 0x2FE4 DUP3 DUP3 PUSH2 0x2D73 JUMP JUMPDEST SWAP2 POP POP DUP1 SWAP2 POP POP SWAP3 SWAP2 POP POP JUMP JUMPDEST PUSH1 0x40 DUP3 ADD PUSH1 0x0 DUP3 ADD MLOAD PUSH2 0x3007 PUSH1 0x0 DUP6 ADD DUP3 PUSH2 0x2A7E JUMP JUMPDEST POP PUSH1 0x20 DUP3 ADD MLOAD PUSH2 0x301A PUSH1 0x20 DUP6 ADD DUP3 PUSH2 0x2D64 JUMP JUMPDEST POP POP POP POP JUMP JUMPDEST PUSH1 0x0 PUSH1 0x80 DUP4 ADD PUSH1 0x0 DUP4 ADD MLOAD PUSH2 0x3038 PUSH1 0x0 DUP7 ADD DUP3 PUSH2 0x2A7E JUMP JUMPDEST POP PUSH1 0x20 DUP4 ADD MLOAD DUP5 DUP3 SUB PUSH1 0x20 DUP7 ADD MSTORE PUSH2 0x3050 DUP3 DUP3 PUSH2 0x2D73 JUMP JUMPDEST SWAP2 POP POP PUSH1 0x40 DUP4 ADD MLOAD DUP5 DUP3 SUB PUSH1 0x40 DUP7 ADD MSTORE PUSH2 0x306A DUP3 DUP3 PUSH2 0x2B60 JUMP JUMPDEST SWAP2 POP POP PUSH1 0x60 DUP4 ADD MLOAD DUP5 DUP3 SUB PUSH1 0x60 DUP7 ADD MSTORE PUSH2 0x3084 DUP3 DUP3 PUSH2 0x2D06 JUMP JUMPDEST SWAP2 POP POP DUP1 SWAP2 POP POP SWAP3 SWAP2 POP POP JUMP JUMPDEST PUSH1 0x60 DUP3 ADD PUSH1 0x0 DUP3 ADD MLOAD PUSH2 0x30A7 PUSH1 0x0 DUP6 ADD DUP3 PUSH2 0x2A7E JUMP JUMPDEST POP PUSH1 0x20 DUP3 ADD MLOAD PUSH2 0x30BA PUSH1 0x20 DUP6 ADD DUP3 PUSH2 0x30D3 JUMP JUMPDEST POP PUSH1 0x40 DUP3 ADD MLOAD PUSH2 0x30CD PUSH1 0x40 DUP6 ADD DUP3 PUSH2 0x30D3 JUMP JUMPDEST POP POP POP POP JUMP JUMPDEST PUSH2 0x30DC DUP2 PUSH2 0x34EC JUMP JUMPDEST DUP3 MSTORE POP POP JUMP JUMPDEST PUSH1 0x0 PUSH1 0x20 DUP3 ADD SWAP1 POP DUP2 DUP2 SUB PUSH1 0x0 DUP4 ADD MSTORE PUSH2 0x30FC DUP2 DUP5 PUSH2 0x2BD5 JUMP JUMPDEST SWAP1 POP SWAP3 SWAP2 POP POP JUMP JUMPDEST PUSH1 0x0 PUSH1 0x20 DUP3 ADD SWAP1 POP DUP2 DUP2 SUB PUSH1 0x0 DUP4 ADD MSTORE PUSH2 0x311E DUP2 DUP5 PUSH2 0x2C33 JUMP JUMPDEST SWAP1 POP SWAP3 SWAP2 POP POP JUMP JUMPDEST PUSH1 0x0 PUSH1 0x20 DUP3 ADD SWAP1 POP DUP2 DUP2 SUB PUSH1 0x0 DUP4 ADD MSTORE PUSH2 0x3140 DUP2 DUP5 PUSH2 0x2CA8 JUMP JUMPDEST SWAP1 POP SWAP3 SWAP2 POP POP JUMP JUMPDEST PUSH1 0x0 PUSH1 0x20 DUP3 ADD SWAP1 POP DUP2 DUP2 SUB PUSH1 0x0 DUP4 ADD MSTORE PUSH2 0x3161 DUP2 PUSH2 0x2DAC JUMP JUMPDEST SWAP1 POP SWAP2 SWAP1 POP JUMP JUMPDEST PUSH1 0x0 PUSH1 0x20 DUP3 ADD SWAP1 POP DUP2 DUP2 SUB PUSH1 0x0 DUP4 ADD MSTORE PUSH2 0x3181 DUP2 PUSH2 0x2DCF JUMP JUMPDEST SWAP1 POP SWAP2 SWAP1 POP JUMP JUMPDEST PUSH1 0x0 PUSH1 0x20 DUP3 ADD SWAP1 POP DUP2 DUP2 SUB PUSH1 0x0 DUP4 ADD MSTORE PUSH2 0x31A1 DUP2 PUSH2 0x2DF2 JUMP JUMPDEST SWAP1 POP SWAP2 SWAP1 POP JUMP JUMPDEST PUSH1 0x0 PUSH1 0x20 DUP3 ADD SWAP1 POP DUP2 DUP2 SUB PUSH1 0x0 DUP4 ADD MSTORE PUSH2 0x31C1 DUP2 PUSH2 0x2E15 JUMP JUMPDEST SWAP1 POP SWAP2 SWAP1 POP JUMP JUMPDEST PUSH1 0x0 PUSH1 0x20 DUP3 ADD SWAP1 POP DUP2 DUP2 SUB PUSH1 0x0 DUP4 ADD MSTORE PUSH2 0x31E1 DUP2 PUSH2 0x2E38 JUMP JUMPDEST SWAP1 POP SWAP2 SWAP1 POP JUMP JUMPDEST PUSH1 0x0 PUSH1 0x20 DUP3 ADD SWAP1 POP DUP2 DUP2 SUB PUSH1 0x0 DUP4 ADD MSTORE PUSH2 0x3201 DUP2 PUSH2 0x2E5B JUMP JUMPDEST SWAP1 POP SWAP2 SWAP1 POP JUMP JUMPDEST PUSH1 0x0 PUSH1 0x20 DUP3 ADD SWAP1 POP DUP2 DUP2 SUB PUSH1 0x0 DUP4 ADD MSTORE PUSH2 0x3221 DUP2 PUSH2 0x2E7E JUMP JUMPDEST SWAP1 POP SWAP2 SWAP1 POP JUMP JUMPDEST PUSH1 0x0 PUSH1 0x20 DUP3 ADD SWAP1 POP DUP2 DUP2 SUB PUSH1 0x0 DUP4 ADD MSTORE PUSH2 0x3241 DUP2 PUSH2 0x2EA1 JUMP JUMPDEST SWAP1 POP SWAP2 SWAP1 POP JUMP JUMPDEST PUSH1 0x0 PUSH1 0x20 DUP3 ADD SWAP1 POP DUP2 DUP2 SUB PUSH1 0x0 DUP4 ADD MSTORE PUSH2 0x3261 DUP2 PUSH2 0x2EC4 JUMP JUMPDEST SWAP1 POP SWAP2 SWAP1 POP JUMP JUMPDEST PUSH1 0x0 PUSH2 0x3272 PUSH2 0x3283 JUMP JUMPDEST SWAP1 POP PUSH2 0x327E DUP3 DUP3 PUSH2 0x356A JUMP JUMPDEST SWAP2 SWAP1 POP JUMP JUMPDEST PUSH1 0x0 PUSH1 0x40 MLOAD SWAP1 POP SWAP1 JUMP JUMPDEST PUSH1 0x0 PUSH8 0xFFFFFFFFFFFFFFFF DUP3 GT ISZERO PUSH2 0x32A8 JUMPI PUSH2 0x32A7 PUSH2 0x3671 JUMP JUMPDEST JUMPDEST PUSH2 0x32B1 DUP3 PUSH2 0x36B4 JUMP JUMPDEST SWAP1 POP PUSH1 0x20 DUP2 ADD SWAP1 POP SWAP2 SWAP1 POP JUMP JUMPDEST PUSH1 0x0 DUP2 SWAP1 POP PUSH1 0x20 DUP3 ADD SWAP1 POP SWAP2 SWAP1 POP JUMP JUMPDEST PUSH1 0x0 DUP2 SWAP1 POP PUSH1 0x20 DUP3 ADD SWAP1 POP SWAP2 SWAP1 POP JUMP JUMPDEST PUSH1 0x0 DUP2 SWAP1 POP PUSH1 0x20 DUP3 ADD SWAP1 POP SWAP2 SWAP1 POP JUMP JUMPDEST PUSH1 0x0 DUP2 SWAP1 POP PUSH1 0x20 DUP3 ADD SWAP1 POP SWAP2 SWAP1 POP JUMP JUMPDEST PUSH1 0x0 DUP2 SWAP1 POP PUSH1 0x20 DUP3 ADD SWAP1 POP SWAP2 SWAP1 POP JUMP JUMPDEST PUSH1 0x0 DUP2 SWAP1 POP PUSH1 0x20 DUP3 ADD SWAP1 POP SWAP2 SWAP1 POP JUMP JUMPDEST PUSH1 0x0 DUP2 SWAP1 POP PUSH1 0x20 DUP3 ADD SWAP1 POP SWAP2 SWAP1 POP JUMP JUMPDEST PUSH1 0x0 DUP2 MLOAD SWAP1 POP SWAP2 SWAP1 POP JUMP JUMPDEST PUSH1 0x0 DUP2 MLOAD SWAP1 POP SWAP2 SWAP1 POP JUMP JUMPDEST PUSH1 0x0 DUP2 MLOAD SWAP1 POP SWAP2 SWAP1 POP JUMP JUMPDEST PUSH1 0x0 DUP2 MLOAD SWAP1 POP SWAP2 SWAP1 POP JUMP JUMPDEST PUSH1 0x0 DUP2 MLOAD SWAP1 POP SWAP2 SWAP1 POP JUMP JUMPDEST PUSH1 0x0 DUP2 MLOAD SWAP1 POP SWAP2 SWAP1 POP JUMP JUMPDEST PUSH1 0x0 DUP2 MLOAD SWAP1 POP SWAP2 SWAP1 POP JUMP JUMPDEST PUSH1 0x0 DUP2 MLOAD SWAP1 POP SWAP2 SWAP1 POP JUMP JUMPDEST PUSH1 0x0 PUSH1 0x20 DUP3 ADD SWAP1 POP SWAP2 SWAP1 POP JUMP JUMPDEST PUSH1 0x0 PUSH1 0x20 DUP3 ADD SWAP1 POP SWAP2 SWAP1 POP JUMP JUMPDEST PUSH1 0x0 PUSH1 0x20 DUP3 ADD SWAP1 POP SWAP2 SWAP1 POP JUMP JUMPDEST PUSH1 0x0 PUSH1 0x20 DUP3 ADD SWAP1 POP SWAP2 SWAP1 POP JUMP JUMPDEST PUSH1 0x0 PUSH1 0x20 DUP3 ADD SWAP1 POP SWAP2 SWAP1 POP JUMP JUMPDEST PUSH1 0x0 PUSH1 0x20 DUP3 ADD SWAP1 POP SWAP2 SWAP1 POP JUMP JUMPDEST PUSH1 0x0 PUSH1 0x20 DUP3 ADD SWAP1 POP SWAP2 SWAP1 POP JUMP JUMPDEST PUSH1 0x0 DUP3 DUP3 MSTORE PUSH1 0x20 DUP3 ADD SWAP1 POP SWAP3 SWAP2 POP POP JUMP JUMPDEST PUSH1 0x0 DUP3 DUP3 MSTORE PUSH1 0x20 DUP3 ADD SWAP1 POP SWAP3 SWAP2 POP POP JUMP JUMPDEST PUSH1 0x0 DUP3 DUP3 MSTORE PUSH1 0x20 DUP3 ADD SWAP1 POP SWAP3 SWAP2 POP POP JUMP JUMPDEST PUSH1 0x0 DUP3 DUP3 MSTORE PUSH1 0x20 DUP3 ADD SWAP1 POP SWAP3 SWAP2 POP POP JUMP JUMPDEST PUSH1 0x0 DUP3 DUP3 MSTORE PUSH1 0x20 DUP3 ADD SWAP1 POP SWAP3 SWAP2 POP POP JUMP JUMPDEST PUSH1 0x0 DUP3 DUP3 MSTORE PUSH1 0x20 DUP3 ADD SWAP1 POP SWAP3 SWAP2 POP POP JUMP JUMPDEST PUSH1 0x0 DUP3 DUP3 MSTORE PUSH1 0x20 DUP3 ADD SWAP1 POP SWAP3 SWAP2 POP POP JUMP JUMPDEST PUSH1 0x0 DUP3 DUP3 MSTORE PUSH1 0x20 DUP3 ADD SWAP1 POP SWAP3 SWAP2 POP POP JUMP JUMPDEST PUSH1 0x0 DUP3 DUP3 MSTORE PUSH1 0x20 DUP3 ADD SWAP1 POP SWAP3 SWAP2 POP POP JUMP JUMPDEST PUSH1 0x0 PUSH2 0x3485 DUP3 PUSH2 0x34EC JUMP JUMPDEST SWAP2 POP PUSH2 0x3490 DUP4 PUSH2 0x34EC JUMP JUMPDEST SWAP3 POP DUP3 DUP3 LT ISZERO PUSH2 0x34A3 JUMPI PUSH2 0x34A2 PUSH2 0x35E4 JUMP JUMPDEST JUMPDEST DUP3 DUP3 SUB SWAP1 POP SWAP3 SWAP2 POP POP JUMP JUMPDEST PUSH1 0x0 PUSH2 0x34B9 DUP3 PUSH2 0x34CC JUMP JUMPDEST SWAP1 POP SWAP2 SWAP1 POP JUMP JUMPDEST PUSH1 0x0 DUP2 ISZERO ISZERO SWAP1 POP SWAP2 SWAP1 POP JUMP JUMPDEST PUSH1 0x0 PUSH20 0xFFFFFFFFFFFFFFFFFFFFFFFFFFFFFFFFFFFFFFFF DUP3 AND SWAP1 POP SWAP2 SWAP1 POP JUMP JUMPDEST PUSH1 0x0 DUP2 SWAP1 POP SWAP2 SWAP1 POP JUMP JUMPDEST DUP3 DUP2 DUP4 CALLDATACOPY PUSH1 0x0 DUP4 DUP4 ADD MSTORE POP POP POP JUMP JUMPDEST PUSH1 0x0 JUMPDEST DUP4 DUP2 LT ISZERO PUSH2 0x3523 JUMPI DUP1 DUP3 ADD MLOAD DUP2 DUP5 ADD MSTORE PUSH1 0x20 DUP2 ADD SWAP1 POP PUSH2 0x3508 JUMP JUMPDEST DUP4 DUP2 GT ISZERO PUSH2 0x3532 JUMPI PUSH1 0x0 DUP5 DUP5 ADD MSTORE JUMPDEST POP POP POP POP JUMP JUMPDEST PUSH1 0x0 PUSH1 0x2 DUP3 DIV SWAP1 POP PUSH1 0x1 DUP3 AND DUP1 PUSH2 0x3550 JUMPI PUSH1 0x7F DUP3 AND SWAP2 POP JUMPDEST PUSH1 0x20 DUP3 LT DUP2 EQ ISZERO PUSH2 0x3564 JUMPI PUSH2 0x3563 PUSH2 0x3613 JUMP JUMPDEST JUMPDEST POP SWAP2 SWAP1 POP JUMP JUMPDEST PUSH2 0x3573 DUP3 PUSH2 0x36B4 JUMP JUMPDEST DUP2 ADD DUP2 DUP2 LT PUSH8 0xFFFFFFFFFFFFFFFF DUP3 GT OR ISZERO PUSH2 0x3592 JUMPI PUSH2 0x3591 PUSH2 0x3671 JUMP JUMPDEST JUMPDEST DUP1 PUSH1 0x40 MSTORE POP POP POP JUMP JUMPDEST PUSH1 0x0 PUSH2 0x35A6 DUP3 PUSH2 0x34EC JUMP JUMPDEST SWAP2 POP PUSH32 0xFFFFFFFFFFFFFFFFFFFFFFFFFFFFFFFFFFFFFFFFFFFFFFFFFFFFFFFFFFFFFFFF DUP3 EQ ISZERO PUSH2 0x35D9 JUMPI PUSH2 0x35D8 PUSH2 0x35E4 JUMP JUMPDEST JUMPDEST PUSH1 0x1 DUP3 ADD SWAP1 POP SWAP2 SWAP1 POP JUMP JUMPDEST PUSH32 0x4E487B7100000000000000000000000000000000000000000000000000000000 PUSH1 0x0 MSTORE PUSH1 0x11 PUSH1 0x4 MSTORE PUSH1 0x24 PUSH1 0x0 REVERT JUMPDEST PUSH32 0x4E487B7100000000000000000000000000000000000000000000000000000000 PUSH1 0x0 MSTORE PUSH1 0x22 PUSH1 0x4 MSTORE PUSH1 0x24 PUSH1 0x0 REVERT JUMPDEST PUSH32 0x4E487B7100000000000000000000000000000000000000000000000000000000 PUSH1 0x0 MSTORE PUSH1 0x32 PUSH1 0x4 MSTORE PUSH1 0x24 PUSH1 0x0 REVERT JUMPDEST PUSH32 0x4E487B7100000000000000000000000000000000000000000000000000000000 PUSH1 0x0 MSTORE PUSH1 0x41 PUSH1 0x4 MSTORE PUSH1 0x24 PUSH1 0x0 REVERT JUMPDEST PUSH1 0x0 DUP1 REVERT JUMPDEST PUSH1 0x0 DUP1 REVERT JUMPDEST PUSH1 0x0 DUP1 REVERT JUMPDEST PUSH1 0x0 DUP1 REVERT JUMPDEST PUSH1 0x0 PUSH1 0x1F NOT PUSH1 0x1F DUP4 ADD AND SWAP1 POP SWAP2 SWAP1 POP JUMP JUMPDEST PUSH32 0x3130340000000000000000000000000000000000000000000000000000000000 PUSH1 0x0 DUP3 ADD MSTORE POP JUMP JUMPDEST PUSH32 0x3130300000000000000000000000000000000000000000000000000000000000 PUSH1 0x0 DUP3 ADD MSTORE POP JUMP JUMPDEST PUSH32 0x3230310000000000000000000000000000000000000000000000000000000000 PUSH1 0x0 DUP3 ADD MSTORE POP JUMP JUMPDEST PUSH32 0x5520616C72656164792061646D696E2100000000000000000000000000000000 PUSH1 0x0 DUP3 ADD MSTORE POP JUMP JUMPDEST PUSH32 0x49742069736E27742073686F7021000000000000000000000000000000000000 PUSH1 0x0 DUP3 ADD MSTORE POP JUMP JUMPDEST PUSH32 0x3130330000000000000000000000000000000000000000000000000000000000 PUSH1 0x0 DUP3 ADD MSTORE POP JUMP JUMPDEST PUSH32 0x3230300000000000000000000000000000000000000000000000000000000000 PUSH1 0x0 DUP3 ADD MSTORE POP JUMP JUMPDEST PUSH32 0x53686F7020657869737473210000000000000000000000000000000000000000 PUSH1 0x0 DUP3 ADD MSTORE POP JUMP JUMPDEST PUSH32 0x3130310000000000000000000000000000000000000000000000000000000000 PUSH1 0x0 DUP3 ADD MSTORE POP JUMP JUMPDEST PUSH2 0x383F DUP2 PUSH2 0x34AE JUMP JUMPDEST DUP2 EQ PUSH2 0x384A JUMPI PUSH1 0x0 DUP1 REVERT JUMPDEST POP JUMP JUMPDEST PUSH2 0x3856 DUP2 PUSH2 0x34C0 JUMP JUMPDEST DUP2 EQ PUSH2 0x3861 JUMPI PUSH1 0x0 DUP1 REVERT JUMPDEST POP JUMP JUMPDEST PUSH2 0x386D DUP2 PUSH2 0x34EC JUMP JUMPDEST DUP2 EQ PUSH2 0x3878 JUMPI PUSH1 0x0 DUP1 REVERT JUMPDEST POP JUMP INVALID LOG2 PUSH5 0x6970667358 0x22 SLT KECCAK256 0xCA REVERT 0xAA 0xC6 INVALID GASPRICE EXTCODEHASH 0xA7 DUP11 ADDMOD 0xAD 0xBB 0xDD 0xAE 0xD8 0xE2 PUSH26 0x4D0BBA298B68619D335C87EE895CB864736F6C63430008070033 "
				},
				"gasEstimates": {
					"creation": {
						"codeDepositCost": "2902600",
						"executionCost": "infinite",
						"totalCost": "infinite"
					},
					"external": {
						"addAdmin(address)": "infinite",
						"addComment(uint256,uint256,string)": "infinite",
						"addLike(uint256,uint256,bool)": "infinite",
						"addLike(uint256,uint256,uint256,bool)": "infinite",
						"addMark(uint256,uint256,string)": "infinite",
						"addShop(address,string)": "infinite",
						"deleteShop(uint256)": "infinite",
						"globalSwitchRequest()": "infinite",
						"regUser()": "infinite",
						"switchToUser()": "infinite",
						"upToSeller(uint256)": "infinite",
						"view_Requests()": "infinite",
						"view_Shops()": "infinite",
						"view_Users()": "infinite"
					},
					"internal": {
						"regUser(address,uint256)": "infinite"
					}
				},
				"methodIdentifiers": {
					"addAdmin(address)": "70480275",
					"addComment(uint256,uint256,string)": "ab122ef5",
					"addLike(uint256,uint256,bool)": "4384a79f",
					"addLike(uint256,uint256,uint256,bool)": "66b2f791",
					"addMark(uint256,uint256,string)": "0082f88e",
					"addShop(address,string)": "1c618eb3",
					"deleteShop(uint256)": "3efdebf1",
					"globalSwitchRequest()": "2e91d706",
					"regUser()": "3b95a23f",
					"switchToUser()": "49b15962",
					"upToSeller(uint256)": "1a0550e3",
					"view_Requests()": "2bd2cd50",
					"view_Shops()": "240185b6",
					"view_Users()": "ad81f803"
				}
			},
			"storageLayout": {
				"storage": [
					{
						"astId": 58,
						"contract": "src/libs/shop.sol:Shop",
						"label": "Shops",
						"offset": 0,
						"slot": "0",
						"type": "t_array(t_struct(shop)20_storage)dyn_storage"
					},
					{
						"astId": 62,
						"contract": "src/libs/shop.sol:Shop",
						"label": "Users",
						"offset": 0,
						"slot": "1",
						"type": "t_array(t_struct(user)8_storage)dyn_storage"
					},
					{
						"astId": 66,
						"contract": "src/libs/shop.sol:Shop",
						"label": "Requests",
						"offset": 0,
						"slot": "2",
						"type": "t_array(t_struct(request)25_storage)dyn_storage"
					}
				],
				"types": {
					"t_address": {
						"encoding": "inplace",
						"label": "address",
						"numberOfBytes": "20"
					},
					"t_array(t_struct(comment)54_storage)dyn_storage": {
						"base": "t_struct(comment)54_storage",
						"encoding": "dynamic_array",
						"label": "struct Shop.comment[]",
						"numberOfBytes": "32"
					},
					"t_array(t_struct(like)30_storage)dyn_storage": {
						"base": "t_struct(like)30_storage",
						"encoding": "dynamic_array",
						"label": "struct Shop.like[]",
						"numberOfBytes": "32"
					},
					"t_array(t_struct(mark)45_storage)dyn_storage": {
						"base": "t_struct(mark)45_storage",
						"encoding": "dynamic_array",
						"label": "struct Shop.mark[]",
						"numberOfBytes": "32"
					},
					"t_array(t_struct(request)25_storage)dyn_storage": {
						"base": "t_struct(request)25_storage",
						"encoding": "dynamic_array",
						"label": "struct Shop.request[]",
						"numberOfBytes": "32"
					},
					"t_array(t_struct(shop)20_storage)dyn_storage": {
						"base": "t_struct(shop)20_storage",
						"encoding": "dynamic_array",
						"label": "struct Shop.shop[]",
						"numberOfBytes": "32"
					},
					"t_array(t_struct(user)8_storage)dyn_storage": {
						"base": "t_struct(user)8_storage",
						"encoding": "dynamic_array",
						"label": "struct Shop.user[]",
						"numberOfBytes": "32"
					},
					"t_array(t_uint256)dyn_storage": {
						"base": "t_uint256",
						"encoding": "dynamic_array",
						"label": "uint256[]",
						"numberOfBytes": "32"
					},
					"t_bool": {
						"encoding": "inplace",
						"label": "bool",
						"numberOfBytes": "1"
					},
					"t_string_storage": {
						"encoding": "bytes",
						"label": "string",
						"numberOfBytes": "32"
					},
					"t_struct(comment)54_storage": {
						"encoding": "inplace",
						"label": "struct Shop.comment",
						"members": [
							{
								"astId": 47,
								"contract": "src/libs/shop.sol:Shop",
								"label": "sender",
								"offset": 0,
								"slot": "0",
								"type": "t_address"
							},
							{
								"astId": 51,
								"contract": "src/libs/shop.sol:Shop",
								"label": "likes",
								"offset": 0,
								"slot": "1",
								"type": "t_array(t_struct(like)30_storage)dyn_storage"
							},
							{
								"astId": 53,
								"contract": "src/libs/shop.sol:Shop",
								"label": "description",
								"offset": 0,
								"slot": "2",
								"type": "t_string_storage"
							}
						],
						"numberOfBytes": "96"
					},
					"t_struct(like)30_storage": {
						"encoding": "inplace",
						"label": "struct Shop.like",
						"members": [
							{
								"astId": 27,
								"contract": "src/libs/shop.sol:Shop",
								"label": "appraiser",
								"offset": 0,
								"slot": "0",
								"type": "t_address"
							},
							{
								"astId": 29,
								"contract": "src/libs/shop.sol:Shop",
								"label": "isLiked",
								"offset": 20,
								"slot": "0",
								"type": "t_bool"
							}
						],
						"numberOfBytes": "32"
					},
					"t_struct(mark)45_storage": {
						"encoding": "inplace",
						"label": "struct Shop.mark",
						"members": [
							{
								"astId": 32,
								"contract": "src/libs/shop.sol:Shop",
								"label": "appraiser",
								"offset": 0,
								"slot": "0",
								"type": "t_address"
							},
							{
								"astId": 34,
								"contract": "src/libs/shop.sol:Shop",
								"label": "rating",
								"offset": 0,
								"slot": "1",
								"type": "t_uint256"
							},
							{
								"astId": 38,
								"contract": "src/libs/shop.sol:Shop",
								"label": "likes",
								"offset": 0,
								"slot": "2",
								"type": "t_array(t_struct(like)30_storage)dyn_storage"
							},
							{
								"astId": 42,
								"contract": "src/libs/shop.sol:Shop",
								"label": "comments",
								"offset": 0,
								"slot": "3",
								"type": "t_array(t_struct(comment)54_storage)dyn_storage"
							},
							{
								"astId": 44,
								"contract": "src/libs/shop.sol:Shop",
								"label": "description",
								"offset": 0,
								"slot": "4",
								"type": "t_string_storage"
							}
						],
						"numberOfBytes": "160"
					},
					"t_struct(request)25_storage": {
						"encoding": "inplace",
						"label": "struct Shop.request",
						"members": [
							{
								"astId": 22,
								"contract": "src/libs/shop.sol:Shop",
								"label": "requester",
								"offset": 0,
								"slot": "0",
								"type": "t_address"
							},
							{
								"astId": 24,
								"contract": "src/libs/shop.sol:Shop",
								"label": "status",
								"offset": 20,
								"slot": "0",
								"type": "t_bool"
							}
						],
						"numberOfBytes": "32"
					},
					"t_struct(shop)20_storage": {
						"encoding": "inplace",
						"label": "struct Shop.shop",
						"members": [
							{
								"astId": 10,
								"contract": "src/libs/shop.sol:Shop",
								"label": "shop",
								"offset": 0,
								"slot": "0",
								"type": "t_address"
							},
							{
								"astId": 12,
								"contract": "src/libs/shop.sol:Shop",
								"label": "city",
								"offset": 0,
								"slot": "1",
								"type": "t_string_storage"
							},
							{
								"astId": 16,
								"contract": "src/libs/shop.sol:Shop",
								"label": "bookOfMarks",
								"offset": 0,
								"slot": "2",
								"type": "t_array(t_struct(mark)45_storage)dyn_storage"
							},
							{
								"astId": 19,
								"contract": "src/libs/shop.sol:Shop",
								"label": "sellers",
								"offset": 0,
								"slot": "3",
								"type": "t_array(t_uint256)dyn_storage"
							}
						],
						"numberOfBytes": "128"
					},
					"t_struct(user)8_storage": {
						"encoding": "inplace",
						"label": "struct Shop.user",
						"members": [
							{
								"astId": 3,
								"contract": "src/libs/shop.sol:Shop",
								"label": "user",
								"offset": 0,
								"slot": "0",
								"type": "t_address"
							},
							{
								"astId": 5,
								"contract": "src/libs/shop.sol:Shop",
								"label": "role",
								"offset": 0,
								"slot": "1",
								"type": "t_uint256"
							},
							{
								"astId": 7,
								"contract": "src/libs/shop.sol:Shop",
								"label": "nowRole",
								"offset": 0,
								"slot": "2",
								"type": "t_uint256"
							}
						],
						"numberOfBytes": "96"
					},
					"t_uint256": {
						"encoding": "inplace",
						"label": "uint256",
						"numberOfBytes": "32"
					}
				}
			},
			"userdoc": {
				"kind": "user",
				"methods": {},
				"version": 1
			}
		}
	}
}