{
	"src/libs/shop.sol": {
		"Shop": {
			"abi": [
				{
					"inputs": [],
					"stateMutability": "nonpayable",
					"type": "constructor"
				},
				{
					"inputs": [
						{
							"internalType": "address",
							"name": "candidate",
							"type": "address"
						}
					],
					"name": "addAdmin",
					"outputs": [],
					"stateMutability": "nonpayable",
					"type": "function"
				},
				{
					"inputs": [
						{
							"internalType": "uint256",
							"name": "idShop",
							"type": "uint256"
						},
						{
							"internalType": "uint256",
							"name": "idMark",
							"type": "uint256"
						},
						{
							"internalType": "string",
							"name": "description",
							"type": "string"
						}
					],
					"name": "addComment",
					"outputs": [],
					"stateMutability": "nonpayable",
					"type": "function"
				},
				{
					"inputs": [
						{
							"internalType": "uint256",
							"name": "idShop",
							"type": "uint256"
						},
						{
							"internalType": "uint256",
							"name": "idMark",
							"type": "uint256"
						},
						{
							"internalType": "bool",
							"name": "isLiked",
							"type": "bool"
						}
					],
					"name": "addLike",
					"outputs": [],
					"stateMutability": "nonpayable",
					"type": "function"
				},
				{
					"inputs": [
						{
							"internalType": "uint256",
							"name": "idShop",
							"type": "uint256"
						},
						{
							"internalType": "uint256",
							"name": "idMark",
							"type": "uint256"
						},
						{
							"internalType": "uint256",
							"name": "idComment",
							"type": "uint256"
						},
						{
							"internalType": "bool",
							"name": "isLiked",
							"type": "bool"
						}
					],
					"name": "addLike",
					"outputs": [],
					"stateMutability": "nonpayable",
					"type": "function"
				},
				{
					"inputs": [
						{
							"internalType": "uint256",
							"name": "idShop",
							"type": "uint256"
						},
						{
							"internalType": "uint256",
							"name": "rating",
							"type": "uint256"
						},
						{
							"internalType": "string",
							"name": "description",
							"type": "string"
						}
					],
					"name": "addMark",
					"outputs": [],
					"stateMutability": "nonpayable",
					"type": "function"
				},
				{
					"inputs": [
						{
							"internalType": "address",
							"name": "newShop",
							"type": "address"
						},
						{
							"internalType": "string",
							"name": "city",
							"type": "string"
						}
					],
					"name": "addShop",
					"outputs": [],
					"stateMutability": "nonpayable",
					"type": "function"
				},
				{
					"inputs": [
						{
							"internalType": "uint256",
							"name": "idShop",
							"type": "uint256"
						}
					],
					"name": "deleteShop",
					"outputs": [],
					"stateMutability": "nonpayable",
					"type": "function"
				},
				{
					"inputs": [
						{
							"internalType": "uint256",
							"name": "idRequest",
							"type": "uint256"
						}
					],
					"name": "downToUser",
					"outputs": [],
					"stateMutability": "nonpayable",
					"type": "function"
				},
				{
					"inputs": [],
					"name": "globalSwitchRequest",
					"outputs": [],
					"stateMutability": "nonpayable",
					"type": "function"
				},
				{
					"inputs": [],
					"name": "regUser",
					"outputs": [],
					"stateMutability": "nonpayable",
					"type": "function"
				},
				{
					"inputs": [
						{
							"internalType": "uint256",
							"name": "idShop",
							"type": "uint256"
						}
					],
					"name": "switchRequestFor",
					"outputs": [],
					"stateMutability": "nonpayable",
					"type": "function"
				},
				{
					"inputs": [],
					"name": "switchToUser",
					"outputs": [],
					"stateMutability": "nonpayable",
					"type": "function"
				},
				{
					"inputs": [
						{
							"internalType": "uint256",
							"name": "idRequest",
							"type": "uint256"
						}
					],
					"name": "upToSeller",
					"outputs": [],
					"stateMutability": "nonpayable",
					"type": "function"
				},
				{
					"inputs": [],
					"name": "view_Requests_Sellers",
					"outputs": [
						{
							"components": [
								{
									"internalType": "uint256",
									"name": "idRequester",
									"type": "uint256"
								},
								{
									"internalType": "bool",
									"name": "status",
									"type": "bool"
								}
							],
							"internalType": "struct Shop.requestForSeller[]",
							"name": "",
							"type": "tuple[]"
						}
					],
					"stateMutability": "view",
					"type": "function"
				},
				{
					"inputs": [],
					"name": "view_Requests_Users",
					"outputs": [
						{
							"components": [
								{
									"internalType": "uint256",
									"name": "idRequester",
									"type": "uint256"
								},
								{
									"internalType": "uint256",
									"name": "idShop",
									"type": "uint256"
								},
								{
									"internalType": "bool",
									"name": "status",
									"type": "bool"
								}
							],
							"internalType": "struct Shop.requestForUser[]",
							"name": "",
							"type": "tuple[]"
						}
					],
					"stateMutability": "view",
					"type": "function"
				},
				{
					"inputs": [],
					"name": "view_Shops",
					"outputs": [
						{
							"components": [
								{
									"internalType": "address",
									"name": "shop",
									"type": "address"
								},
								{
									"internalType": "string",
									"name": "city",
									"type": "string"
								},
								{
									"components": [
										{
											"internalType": "address",
											"name": "appraiser",
											"type": "address"
										},
										{
											"internalType": "uint256",
											"name": "rating",
											"type": "uint256"
										},
										{
											"components": [
												{
													"internalType": "address",
													"name": "appraiser",
													"type": "address"
												},
												{
													"internalType": "bool",
													"name": "isLiked",
													"type": "bool"
												}
											],
											"internalType": "struct Shop.like[]",
											"name": "likes",
											"type": "tuple[]"
										},
										{
											"components": [
												{
													"internalType": "address",
													"name": "sender",
													"type": "address"
												},
												{
													"components": [
														{
															"internalType": "address",
															"name": "appraiser",
															"type": "address"
														},
														{
															"internalType": "bool",
															"name": "isLiked",
															"type": "bool"
														}
													],
													"internalType": "struct Shop.like[]",
													"name": "likes",
													"type": "tuple[]"
												},
												{
													"internalType": "string",
													"name": "description",
													"type": "string"
												}
											],
											"internalType": "struct Shop.comment[]",
											"name": "comments",
											"type": "tuple[]"
										},
										{
											"internalType": "string",
											"name": "description",
											"type": "string"
										}
									],
									"internalType": "struct Shop.mark[]",
									"name": "bookOfMarks",
									"type": "tuple[]"
								},
								{
									"internalType": "uint256[]",
									"name": "sellers",
									"type": "uint256[]"
								}
							],
							"internalType": "struct Shop.shop[]",
							"name": "",
							"type": "tuple[]"
						}
					],
					"stateMutability": "view",
					"type": "function"
				},
				{
					"inputs": [],
					"name": "view_Users",
					"outputs": [
						{
							"components": [
								{
									"internalType": "address",
									"name": "user",
									"type": "address"
								},
								{
									"internalType": "uint256",
									"name": "role",
									"type": "uint256"
								},
								{
									"internalType": "uint256",
									"name": "nowRole",
									"type": "uint256"
								}
							],
							"internalType": "struct Shop.user[]",
							"name": "",
							"type": "tuple[]"
						}
					],
					"stateMutability": "view",
					"type": "function"
				}
			],
			"devdoc": {
				"kind": "dev",
				"methods": {},
				"version": 1
			},
			"evm": {
				"assembly": "    /* \"src/libs/shop.sol\":76:9230  contract Shop {\r... */\n  mstore(0x40, 0x80)\n    /* \"src/libs/shop.sol\":1036:1435  constructor() {\r... */\n  callvalue\n  dup1\n  iszero\n  tag_1\n  jumpi\n  0x00\n  dup1\n  revert\ntag_1:\n  pop\n    /* \"src/libs/shop.sol\":1061:1115  regUser(0x2EEb8e636d2B7bF006AEf7DF63C1B388C3d0bB5E, 0) */\n  tag_4\n    /* \"src/libs/shop.sol\":1069:1111  0x2EEb8e636d2B7bF006AEf7DF63C1B388C3d0bB5E */\n  0x2eeb8e636d2b7bf006aef7df63c1b388c3d0bb5e\n    /* \"src/libs/shop.sol\":1113:1114  0 */\n  0x00\n    /* \"src/libs/shop.sol\":1061:1068  regUser */\n  shl(0x20, tag_5)\n    /* \"src/libs/shop.sol\":1061:1115  regUser(0x2EEb8e636d2B7bF006AEf7DF63C1B388C3d0bB5E, 0) */\n  0x20\n  shr\n  jump\t// in\ntag_4:\n    /* \"src/libs/shop.sol\":1126:1180  regUser(0x55cC20d0CdDFED1f06b669A8Ff6ebA58218bbbd7, 1) */\n  tag_6\n    /* \"src/libs/shop.sol\":1134:1176  0x55cC20d0CdDFED1f06b669A8Ff6ebA58218bbbd7 */\n  0x55cc20d0cddfed1f06b669a8ff6eba58218bbbd7\n    /* \"src/libs/shop.sol\":1178:1179  1 */\n  0x01\n    /* \"src/libs/shop.sol\":1126:1133  regUser */\n  shl(0x20, tag_5)\n    /* \"src/libs/shop.sol\":1126:1180  regUser(0x55cC20d0CdDFED1f06b669A8Ff6ebA58218bbbd7, 1) */\n  0x20\n  shr\n  jump\t// in\ntag_6:\n    /* \"src/libs/shop.sol\":1191:1245  regUser(0xb033788a9a2A69e4d007b05Ad15893bA57f788C7, 2) */\n  tag_7\n    /* \"src/libs/shop.sol\":1199:1241  0xb033788a9a2A69e4d007b05Ad15893bA57f788C7 */\n  0xb033788a9a2a69e4d007b05ad15893ba57f788c7\n    /* \"src/libs/shop.sol\":1243:1244  2 */\n  0x02\n    /* \"src/libs/shop.sol\":1191:1198  regUser */\n  shl(0x20, tag_5)\n    /* \"src/libs/shop.sol\":1191:1245  regUser(0xb033788a9a2A69e4d007b05Ad15893bA57f788C7, 2) */\n  0x20\n  shr\n  jump\t// in\ntag_7:\n    /* \"src/libs/shop.sol\":1256:1310  regUser(0x692BEb097E09a1Fd74Dafa495705d9cBDCE84bf9, 2) */\n  tag_8\n    /* \"src/libs/shop.sol\":1264:1306  0x692BEb097E09a1Fd74Dafa495705d9cBDCE84bf9 */\n  0x692beb097e09a1fd74dafa495705d9cbdce84bf9\n    /* \"src/libs/shop.sol\":1308:1309  2 */\n  0x02\n    /* \"src/libs/shop.sol\":1256:1263  regUser */\n  shl(0x20, tag_5)\n    /* \"src/libs/shop.sol\":1256:1310  regUser(0x692BEb097E09a1Fd74Dafa495705d9cBDCE84bf9, 2) */\n  0x20\n  shr\n  jump\t// in\ntag_8:\n    /* \"src/libs/shop.sol\":1321:1379  addShop(0x3fe4252B00b1B6AA40b172410B02025Fb3BfA804, \"KLG\") */\n  tag_9\n    /* \"src/libs/shop.sol\":1329:1371  0x3fe4252B00b1B6AA40b172410B02025Fb3BfA804 */\n  0x3fe4252b00b1b6aa40b172410b02025fb3bfa804\n    /* \"src/libs/shop.sol\":1321:1379  addShop(0x3fe4252B00b1B6AA40b172410B02025Fb3BfA804, \"KLG\") */\n  mload(0x40)\n  dup1\n  0x40\n  add\n  0x40\n  mstore\n  dup1\n  0x03\n  dup2\n  mstore\n  0x20\n  add\n  0x4b4c470000000000000000000000000000000000000000000000000000000000\n  dup2\n  mstore\n  pop\n    /* \"src/libs/shop.sol\":1321:1328  addShop */\n  shl(0x20, tag_10)\n    /* \"src/libs/shop.sol\":1321:1379  addShop(0x3fe4252B00b1B6AA40b172410B02025Fb3BfA804, \"KLG\") */\n  0x20\n  shr\n  jump\t// in\ntag_9:\n    /* \"src/libs/shop.sol\":1390:1395  Shops */\n  0x00\n    /* \"src/libs/shop.sol\":1409:1410  1 */\n  0x01\n    /* \"src/libs/shop.sol\":1396:1401  Shops */\n  0x00\n    /* \"src/libs/shop.sol\":1396:1408  Shops.length */\n  dup1\n  sload\n  swap1\n  pop\n    /* \"src/libs/shop.sol\":1396:1410  Shops.length-1 */\n  tag_11\n  swap2\n  swap1\n  tag_12\n  jump\t// in\ntag_11:\n    /* \"src/libs/shop.sol\":1390:1411  Shops[Shops.length-1] */\n  dup2\n  sload\n  dup2\n  lt\n  tag_13\n  jumpi\n  tag_14\n  tag_15\n  jump\t// in\ntag_14:\ntag_13:\n  swap1\n  0x00\n  mstore\n  keccak256(0x00, 0x20)\n  swap1\n  0x04\n  mul\n  add\n    /* \"src/libs/shop.sol\":1390:1419  Shops[Shops.length-1].sellers */\n  0x03\n  add\n    /* \"src/libs/shop.sol\":1425:1426  1 */\n  0x01\n    /* \"src/libs/shop.sol\":1390:1427  Shops[Shops.length-1].sellers.push(1) */\n  swap1\n  dup1\n  0x01\n  dup2\n  sload\n  add\n  dup1\n  dup3\n  sstore\n  dup1\n  swap2\n  pop\n  pop\n  0x01\n  swap1\n  sub\n  swap1\n  0x00\n  mstore\n  keccak256(0x00, 0x20)\n  add\n  0x00\n  swap1\n  swap2\n  swap1\n  swap2\n  swap1\n  swap2\n  pop\n  sstore\n    /* \"src/libs/shop.sol\":76:9230  contract Shop {\r... */\n  jump(tag_18)\n    /* \"src/libs/shop.sol\":3178:3391  function regUser(address newUser, uint256 role) private isntReg(newUser) {\r... */\ntag_5:\n    /* \"src/libs/shop.sol\":3242:3249  newUser */\n  dup2\n    /* \"src/libs/shop.sol\":1943:1952  uint256 i */\n  0x00\n    /* \"src/libs/shop.sol\":1938:2095  for (uint256 i = 0; i < Users.length; i++) {\r... */\ntag_20:\n    /* \"src/libs/shop.sol\":1962:1967  Users */\n  0x01\n    /* \"src/libs/shop.sol\":1962:1974  Users.length */\n  dup1\n  sload\n  swap1\n  pop\n    /* \"src/libs/shop.sol\":1958:1959  i */\n  dup2\n    /* \"src/libs/shop.sol\":1958:1974  i < Users.length */\n  lt\n    /* \"src/libs/shop.sol\":1938:2095  for (uint256 i = 0; i < Users.length; i++) {\r... */\n  iszero\n  tag_21\n  jumpi\n    /* \"src/libs/shop.sol\":2021:2028  newUser */\n  dup2\n    /* \"src/libs/shop.sol\":2004:2028  Users[i].user != newUser */\n  0xffffffffffffffffffffffffffffffffffffffff\n  and\n    /* \"src/libs/shop.sol\":2004:2009  Users */\n  0x01\n    /* \"src/libs/shop.sol\":2010:2011  i */\n  dup3\n    /* \"src/libs/shop.sol\":2004:2012  Users[i] */\n  dup2\n  sload\n  dup2\n  lt\n  tag_23\n  jumpi\n  tag_24\n  tag_15\n  jump\t// in\ntag_24:\ntag_23:\n  swap1\n  0x00\n  mstore\n  keccak256(0x00, 0x20)\n  swap1\n  0x03\n  mul\n  add\n    /* \"src/libs/shop.sol\":2004:2017  Users[i].user */\n  0x00\n  add\n  0x00\n  swap1\n  sload\n  swap1\n  0x0100\n  exp\n  swap1\n  div\n  0xffffffffffffffffffffffffffffffffffffffff\n  and\n    /* \"src/libs/shop.sol\":2004:2028  Users[i].user != newUser */\n  0xffffffffffffffffffffffffffffffffffffffff\n  and\n  eq\n  iszero\n    /* \"src/libs/shop.sol\":1996:2036  require(Users[i].user != newUser, \"201\") */\n  tag_26\n  jumpi\n  mload(0x40)\n  0x08c379a000000000000000000000000000000000000000000000000000000000\n  dup2\n  mstore\n  0x04\n  add\n  tag_27\n  swap1\n  tag_28\n  jump\t// in\ntag_27:\n  mload(0x40)\n  dup1\n  swap2\n  sub\n  swap1\n  revert\ntag_26:\n    /* \"src/libs/shop.sol\":1976:1979  i++ */\n  dup1\n  dup1\n  tag_29\n  swap1\n  tag_30\n  jump\t// in\ntag_29:\n  swap2\n  pop\n  pop\n    /* \"src/libs/shop.sol\":1938:2095  for (uint256 i = 0; i < Users.length; i++) {\r... */\n  jump(tag_20)\ntag_21:\n  pop\n    /* \"src/libs/shop.sol\":3277:3278  3 */\n  0x03\n    /* \"src/libs/shop.sol\":3270:3274  role */\n  dup3\n    /* \"src/libs/shop.sol\":3270:3278  role < 3 */\n  lt\n    /* \"src/libs/shop.sol\":3262:3286  require(role < 3, \"102\") */\n  tag_32\n  jumpi\n  mload(0x40)\n  0x08c379a000000000000000000000000000000000000000000000000000000000\n  dup2\n  mstore\n  0x04\n  add\n  tag_33\n  swap1\n  tag_34\n  jump\t// in\ntag_33:\n  mload(0x40)\n  dup1\n  swap2\n  sub\n  swap1\n  revert\ntag_32:\n    /* \"src/libs/shop.sol\":3346:3351  Users */\n  0x01\n    /* \"src/libs/shop.sol\":3357:3382  user(newUser, role, role) */\n  mload(0x40)\n  dup1\n  0x60\n  add\n  0x40\n  mstore\n  dup1\n    /* \"src/libs/shop.sol\":3362:3369  newUser */\n  dup6\n    /* \"src/libs/shop.sol\":3357:3382  user(newUser, role, role) */\n  0xffffffffffffffffffffffffffffffffffffffff\n  and\n  dup2\n  mstore\n  0x20\n  add\n    /* \"src/libs/shop.sol\":3371:3375  role */\n  dup5\n    /* \"src/libs/shop.sol\":3357:3382  user(newUser, role, role) */\n  dup2\n  mstore\n  0x20\n  add\n    /* \"src/libs/shop.sol\":3377:3381  role */\n  dup5\n    /* \"src/libs/shop.sol\":3357:3382  user(newUser, role, role) */\n  dup2\n  mstore\n  pop\n    /* \"src/libs/shop.sol\":3346:3383  Users.push(user(newUser, role, role)) */\n  swap1\n  dup1\n  0x01\n  dup2\n  sload\n  add\n  dup1\n  dup3\n  sstore\n  dup1\n  swap2\n  pop\n  pop\n  0x01\n  swap1\n  sub\n  swap1\n  0x00\n  mstore\n  keccak256(0x00, 0x20)\n  swap1\n  0x03\n  mul\n  add\n  0x00\n  swap1\n  swap2\n  swap1\n  swap2\n  swap1\n  swap2\n  pop\n  0x00\n  dup3\n  add\n  mload\n  dup2\n  0x00\n  add\n  exp(0x0100, 0x00)\n  dup2\n  sload\n  dup2\n  0xffffffffffffffffffffffffffffffffffffffff\n  mul\n  not\n  and\n  swap1\n  dup4\n  0xffffffffffffffffffffffffffffffffffffffff\n  and\n  mul\n  or\n  swap1\n  sstore\n  pop\n  0x20\n  dup3\n  add\n  mload\n  dup2\n  0x01\n  add\n  sstore\n  0x40\n  dup3\n  add\n  mload\n  dup2\n  0x02\n  add\n  sstore\n  pop\n  pop\n    /* \"src/libs/shop.sol\":3178:3391  function regUser(address newUser, uint256 role) private isntReg(newUser) {\r... */\n  pop\n  pop\n  pop\n  jump\t// out\n    /* \"src/libs/shop.sol\":6862:7173  function addShop(address newShop, string memory city)\r... */\ntag_10:\n    /* \"src/libs/shop.sol\":6947:6957  msg.sender */\n  caller\n    /* \"src/libs/shop.sol\":1571:1587  bool isRegistred */\n  0x00\n    /* \"src/libs/shop.sol\":1611:1620  uint256 i */\n  dup1\n    /* \"src/libs/shop.sol\":1606:1783  for (uint256 i = 0; i < Users.length; i++) {\r... */\ntag_37:\n    /* \"src/libs/shop.sol\":1630:1635  Users */\n  0x01\n    /* \"src/libs/shop.sol\":1630:1642  Users.length */\n  dup1\n  sload\n  swap1\n  pop\n    /* \"src/libs/shop.sol\":1626:1627  i */\n  dup2\n    /* \"src/libs/shop.sol\":1626:1642  i < Users.length */\n  lt\n    /* \"src/libs/shop.sol\":1606:1783  for (uint256 i = 0; i < Users.length; i++) {\r... */\n  iszero\n  tag_38\n  jumpi\n    /* \"src/libs/shop.sol\":1685:1693  someUser */\n  dup3\n    /* \"src/libs/shop.sol\":1668:1693  Users[i].user == someUser */\n  0xffffffffffffffffffffffffffffffffffffffff\n  and\n    /* \"src/libs/shop.sol\":1668:1673  Users */\n  0x01\n    /* \"src/libs/shop.sol\":1674:1675  i */\n  dup3\n    /* \"src/libs/shop.sol\":1668:1676  Users[i] */\n  dup2\n  sload\n  dup2\n  lt\n  tag_40\n  jumpi\n  tag_41\n  tag_15\n  jump\t// in\ntag_41:\ntag_40:\n  swap1\n  0x00\n  mstore\n  keccak256(0x00, 0x20)\n  swap1\n  0x03\n  mul\n  add\n    /* \"src/libs/shop.sol\":1668:1681  Users[i].user */\n  0x00\n  add\n  0x00\n  swap1\n  sload\n  swap1\n  0x0100\n  exp\n  swap1\n  div\n  0xffffffffffffffffffffffffffffffffffffffff\n  and\n    /* \"src/libs/shop.sol\":1668:1693  Users[i].user == someUser */\n  0xffffffffffffffffffffffffffffffffffffffff\n  and\n  eq\n    /* \"src/libs/shop.sol\":1664:1772  if (Users[i].user == someUser) {\r... */\n  iszero\n  tag_43\n  jumpi\n    /* \"src/libs/shop.sol\":1728:1732  true */\n  0x01\n    /* \"src/libs/shop.sol\":1714:1732  isRegistred = true */\n  swap2\n  pop\n    /* \"src/libs/shop.sol\":1751:1756  break */\n  jump(tag_38)\n    /* \"src/libs/shop.sol\":1664:1772  if (Users[i].user == someUser) {\r... */\ntag_43:\n    /* \"src/libs/shop.sol\":1644:1647  i++ */\n  dup1\n  dup1\n  tag_44\n  swap1\n  tag_30\n  jump\t// in\ntag_44:\n  swap2\n  pop\n  pop\n    /* \"src/libs/shop.sol\":1606:1783  for (uint256 i = 0; i < Users.length; i++) {\r... */\n  jump(tag_37)\ntag_38:\n  pop\n    /* \"src/libs/shop.sol\":1801:1812  isRegistred */\n  dup1\n    /* \"src/libs/shop.sol\":1793:1820  require(isRegistred, \"200\") */\n  tag_45\n  jumpi\n  mload(0x40)\n  0x08c379a000000000000000000000000000000000000000000000000000000000\n  dup2\n  mstore\n  0x04\n  add\n  tag_46\n  swap1\n  tag_47\n  jump\t// in\ntag_46:\n  mload(0x40)\n  dup1\n  swap2\n  sub\n  swap1\n  revert\ntag_45:\n    /* \"src/libs/shop.sol\":6976:6986  msg.sender */\n  caller\n    /* \"src/libs/shop.sol\":2499:2508  uint256 i */\n  0x00\n    /* \"src/libs/shop.sol\":2494:2767  for (uint256 i = 0; i < Users.length; i++) {\r... */\ntag_49:\n    /* \"src/libs/shop.sol\":2518:2523  Users */\n  0x01\n    /* \"src/libs/shop.sol\":2518:2530  Users.length */\n  dup1\n  sload\n  swap1\n  pop\n    /* \"src/libs/shop.sol\":2514:2515  i */\n  dup2\n    /* \"src/libs/shop.sol\":2514:2530  i < Users.length */\n  lt\n    /* \"src/libs/shop.sol\":2494:2767  for (uint256 i = 0; i < Users.length; i++) {\r... */\n  iszero\n  tag_50\n  jumpi\n    /* \"src/libs/shop.sol\":2573:2580  newUser */\n  dup2\n    /* \"src/libs/shop.sol\":2556:2580  Users[i].user == newUser */\n  0xffffffffffffffffffffffffffffffffffffffff\n  and\n    /* \"src/libs/shop.sol\":2556:2561  Users */\n  0x01\n    /* \"src/libs/shop.sol\":2562:2563  i */\n  dup3\n    /* \"src/libs/shop.sol\":2556:2564  Users[i] */\n  dup2\n  sload\n  dup2\n  lt\n  tag_52\n  jumpi\n  tag_53\n  tag_15\n  jump\t// in\ntag_53:\ntag_52:\n  swap1\n  0x00\n  mstore\n  keccak256(0x00, 0x20)\n  swap1\n  0x03\n  mul\n  add\n    /* \"src/libs/shop.sol\":2556:2569  Users[i].user */\n  0x00\n  add\n  0x00\n  swap1\n  sload\n  swap1\n  0x0100\n  exp\n  swap1\n  div\n  0xffffffffffffffffffffffffffffffffffffffff\n  and\n    /* \"src/libs/shop.sol\":2556:2580  Users[i].user == newUser */\n  0xffffffffffffffffffffffffffffffffffffffff\n  and\n  eq\n    /* \"src/libs/shop.sol\":2552:2756  if (Users[i].user == newUser) {\r... */\n  iszero\n  tag_55\n  jumpi\n    /* \"src/libs/shop.sol\":2629:2630  0 */\n  0x00\n    /* \"src/libs/shop.sol\":2609:2614  Users */\n  0x01\n    /* \"src/libs/shop.sol\":2615:2616  i */\n  dup3\n    /* \"src/libs/shop.sol\":2609:2617  Users[i] */\n  dup2\n  sload\n  dup2\n  lt\n  tag_56\n  jumpi\n  tag_57\n  tag_15\n  jump\t// in\ntag_57:\ntag_56:\n  swap1\n  0x00\n  mstore\n  keccak256(0x00, 0x20)\n  swap1\n  0x03\n  mul\n  add\n    /* \"src/libs/shop.sol\":2609:2625  Users[i].nowRole */\n  0x02\n  add\n  sload\n    /* \"src/libs/shop.sol\":2609:2630  Users[i].nowRole == 0 */\n  eq\n    /* \"src/libs/shop.sol\":2601:2638  require(Users[i].nowRole == 0, \"100\") */\n  tag_59\n  jumpi\n  mload(0x40)\n  0x08c379a000000000000000000000000000000000000000000000000000000000\n  dup2\n  mstore\n  0x04\n  add\n  tag_60\n  swap1\n  tag_61\n  jump\t// in\ntag_60:\n  mload(0x40)\n  dup1\n  swap2\n  sub\n  swap1\n  revert\ntag_59:\n    /* \"src/libs/shop.sol\":2735:2740  break */\n  jump(tag_50)\n    /* \"src/libs/shop.sol\":2552:2756  if (Users[i].user == newUser) {\r... */\ntag_55:\n    /* \"src/libs/shop.sol\":2532:2535  i++ */\n  dup1\n  dup1\n  tag_62\n  swap1\n  tag_30\n  jump\t// in\ntag_62:\n  swap2\n  pop\n  pop\n    /* \"src/libs/shop.sol\":2494:2767  for (uint256 i = 0; i < Users.length; i++) {\r... */\n  jump(tag_49)\ntag_50:\n  pop\n    /* \"src/libs/shop.sol\":7005:7012  newShop */\n  dup5\n    /* \"src/libs/shop.sol\":1943:1952  uint256 i */\n  0x00\n    /* \"src/libs/shop.sol\":1938:2095  for (uint256 i = 0; i < Users.length; i++) {\r... */\ntag_64:\n    /* \"src/libs/shop.sol\":1962:1967  Users */\n  0x01\n    /* \"src/libs/shop.sol\":1962:1974  Users.length */\n  dup1\n  sload\n  swap1\n  pop\n    /* \"src/libs/shop.sol\":1958:1959  i */\n  dup2\n    /* \"src/libs/shop.sol\":1958:1974  i < Users.length */\n  lt\n    /* \"src/libs/shop.sol\":1938:2095  for (uint256 i = 0; i < Users.length; i++) {\r... */\n  iszero\n  tag_65\n  jumpi\n    /* \"src/libs/shop.sol\":2021:2028  newUser */\n  dup2\n    /* \"src/libs/shop.sol\":2004:2028  Users[i].user != newUser */\n  0xffffffffffffffffffffffffffffffffffffffff\n  and\n    /* \"src/libs/shop.sol\":2004:2009  Users */\n  0x01\n    /* \"src/libs/shop.sol\":2010:2011  i */\n  dup3\n    /* \"src/libs/shop.sol\":2004:2012  Users[i] */\n  dup2\n  sload\n  dup2\n  lt\n  tag_67\n  jumpi\n  tag_68\n  tag_15\n  jump\t// in\ntag_68:\ntag_67:\n  swap1\n  0x00\n  mstore\n  keccak256(0x00, 0x20)\n  swap1\n  0x03\n  mul\n  add\n    /* \"src/libs/shop.sol\":2004:2017  Users[i].user */\n  0x00\n  add\n  0x00\n  swap1\n  sload\n  swap1\n  0x0100\n  exp\n  swap1\n  div\n  0xffffffffffffffffffffffffffffffffffffffff\n  and\n    /* \"src/libs/shop.sol\":2004:2028  Users[i].user != newUser */\n  0xffffffffffffffffffffffffffffffffffffffff\n  and\n  eq\n  iszero\n    /* \"src/libs/shop.sol\":1996:2036  require(Users[i].user != newUser, \"201\") */\n  tag_70\n  jumpi\n  mload(0x40)\n  0x08c379a000000000000000000000000000000000000000000000000000000000\n  dup2\n  mstore\n  0x04\n  add\n  tag_71\n  swap1\n  tag_28\n  jump\t// in\ntag_71:\n  mload(0x40)\n  dup1\n  swap2\n  sub\n  swap1\n  revert\ntag_70:\n    /* \"src/libs/shop.sol\":1976:1979  i++ */\n  dup1\n  dup1\n  tag_72\n  swap1\n  tag_30\n  jump\t// in\ntag_72:\n  swap2\n  pop\n  pop\n    /* \"src/libs/shop.sol\":1938:2095  for (uint256 i = 0; i < Users.length; i++) {\r... */\n  jump(tag_64)\ntag_65:\n  pop\n    /* \"src/libs/shop.sol\":7036:7043  newShop */\n  dup6\n    /* \"src/libs/shop.sol\":2177:2186  uint256 i */\n  0x00\n    /* \"src/libs/shop.sol\":2172:2293  for (uint256 i = 0; i < Users.length; i++) {\r... */\ntag_74:\n    /* \"src/libs/shop.sol\":2196:2201  Users */\n  0x01\n    /* \"src/libs/shop.sol\":2196:2208  Users.length */\n  dup1\n  sload\n  swap1\n  pop\n    /* \"src/libs/shop.sol\":2192:2193  i */\n  dup2\n    /* \"src/libs/shop.sol\":2192:2208  i < Users.length */\n  lt\n    /* \"src/libs/shop.sol\":2172:2293  for (uint256 i = 0; i < Users.length; i++) {\r... */\n  iszero\n  tag_75\n  jumpi\n    /* \"src/libs/shop.sol\":2255:2262  newShop */\n  dup2\n    /* \"src/libs/shop.sol\":2238:2262  Users[i].user != newShop */\n  0xffffffffffffffffffffffffffffffffffffffff\n  and\n    /* \"src/libs/shop.sol\":2238:2243  Users */\n  0x01\n    /* \"src/libs/shop.sol\":2244:2245  i */\n  dup3\n    /* \"src/libs/shop.sol\":2238:2246  Users[i] */\n  dup2\n  sload\n  dup2\n  lt\n  tag_77\n  jumpi\n  tag_78\n  tag_15\n  jump\t// in\ntag_78:\ntag_77:\n  swap1\n  0x00\n  mstore\n  keccak256(0x00, 0x20)\n  swap1\n  0x03\n  mul\n  add\n    /* \"src/libs/shop.sol\":2238:2251  Users[i].user */\n  0x00\n  add\n  0x00\n  swap1\n  sload\n  swap1\n  0x0100\n  exp\n  swap1\n  div\n  0xffffffffffffffffffffffffffffffffffffffff\n  and\n    /* \"src/libs/shop.sol\":2238:2262  Users[i].user != newShop */\n  0xffffffffffffffffffffffffffffffffffffffff\n  and\n  eq\n  iszero\n    /* \"src/libs/shop.sol\":2230:2281  require(Users[i].user != newShop, \"It isn't shop!\") */\n  tag_80\n  jumpi\n  mload(0x40)\n  0x08c379a000000000000000000000000000000000000000000000000000000000\n  dup2\n  mstore\n  0x04\n  add\n  tag_81\n  swap1\n  tag_82\n  jump\t// in\ntag_81:\n  mload(0x40)\n  dup1\n  swap2\n  sub\n  swap1\n  revert\ntag_80:\n    /* \"src/libs/shop.sol\":2210:2213  i++ */\n  dup1\n  dup1\n  tag_83\n  swap1\n  tag_30\n  jump\t// in\ntag_83:\n  swap2\n  pop\n  pop\n    /* \"src/libs/shop.sol\":2172:2293  for (uint256 i = 0; i < Users.length; i++) {\r... */\n  jump(tag_74)\ntag_75:\n  pop\n    /* \"src/libs/shop.sol\":2308:2317  uint256 i */\n  0x00\n    /* \"src/libs/shop.sol\":2303:2422  for (uint256 i = 0; i < Shops.length; i++) {\r... */\ntag_84:\n    /* \"src/libs/shop.sol\":2327:2332  Shops */\n  0x00\n    /* \"src/libs/shop.sol\":2327:2339  Shops.length */\n  dup1\n  sload\n  swap1\n  pop\n    /* \"src/libs/shop.sol\":2323:2324  i */\n  dup2\n    /* \"src/libs/shop.sol\":2323:2339  i < Shops.length */\n  lt\n    /* \"src/libs/shop.sol\":2303:2422  for (uint256 i = 0; i < Shops.length; i++) {\r... */\n  iszero\n  tag_85\n  jumpi\n    /* \"src/libs/shop.sol\":2386:2393  newShop */\n  dup2\n    /* \"src/libs/shop.sol\":2369:2393  Shops[i].shop != newShop */\n  0xffffffffffffffffffffffffffffffffffffffff\n  and\n    /* \"src/libs/shop.sol\":2369:2374  Shops */\n  0x00\n    /* \"src/libs/shop.sol\":2375:2376  i */\n  dup3\n    /* \"src/libs/shop.sol\":2369:2377  Shops[i] */\n  dup2\n  sload\n  dup2\n  lt\n  tag_87\n  jumpi\n  tag_88\n  tag_15\n  jump\t// in\ntag_88:\ntag_87:\n  swap1\n  0x00\n  mstore\n  keccak256(0x00, 0x20)\n  swap1\n  0x04\n  mul\n  add\n    /* \"src/libs/shop.sol\":2369:2382  Shops[i].shop */\n  0x00\n  add\n  0x00\n  swap1\n  sload\n  swap1\n  0x0100\n  exp\n  swap1\n  div\n  0xffffffffffffffffffffffffffffffffffffffff\n  and\n    /* \"src/libs/shop.sol\":2369:2393  Shops[i].shop != newShop */\n  0xffffffffffffffffffffffffffffffffffffffff\n  and\n  eq\n  iszero\n    /* \"src/libs/shop.sol\":2361:2410  require(Shops[i].shop != newShop, \"Shop exists!\") */\n  tag_90\n  jumpi\n  mload(0x40)\n  0x08c379a000000000000000000000000000000000000000000000000000000000\n  dup2\n  mstore\n  0x04\n  add\n  tag_91\n  swap1\n  tag_92\n  jump\t// in\ntag_91:\n  mload(0x40)\n  dup1\n  swap2\n  sub\n  swap1\n  revert\ntag_90:\n    /* \"src/libs/shop.sol\":2341:2344  i++ */\n  dup1\n  dup1\n  tag_93\n  swap1\n  tag_30\n  jump\t// in\ntag_93:\n  swap2\n  pop\n  pop\n    /* \"src/libs/shop.sol\":2303:2422  for (uint256 i = 0; i < Shops.length; i++) {\r... */\n  jump(tag_84)\ntag_85:\n  pop\n    /* \"src/libs/shop.sol\":7061:7083  shop storage localShop */\n  0x00\n    /* \"src/libs/shop.sol\":7086:7091  Shops */\n  dup1\n    /* \"src/libs/shop.sol\":7086:7098  Shops.push() */\n  0x01\n  dup2\n  0x01\n  dup2\n  sload\n  add\n  dup1\n  dup3\n  sstore\n  dup1\n  swap2\n  pop\n  pop\n  sub\n  swap1\n  0x00\n  mstore\n  keccak256(0x00, 0x20)\n  swap1\n  0x04\n  mul\n  add\n    /* \"src/libs/shop.sol\":7061:7098  shop storage localShop = Shops.push() */\n  swap1\n  pop\n    /* \"src/libs/shop.sol\":7126:7133  newShop */\n  dup8\n    /* \"src/libs/shop.sol\":7109:7118  localShop */\n  dup2\n    /* \"src/libs/shop.sol\":7109:7123  localShop.shop */\n  0x00\n  add\n  0x00\n    /* \"src/libs/shop.sol\":7109:7133  localShop.shop = newShop */\n  0x0100\n  exp\n  dup2\n  sload\n  dup2\n  0xffffffffffffffffffffffffffffffffffffffff\n  mul\n  not\n  and\n  swap1\n  dup4\n  0xffffffffffffffffffffffffffffffffffffffff\n  and\n  mul\n  or\n  swap1\n  sstore\n  pop\n    /* \"src/libs/shop.sol\":7161:7165  city */\n  dup7\n    /* \"src/libs/shop.sol\":7144:7153  localShop */\n  dup2\n    /* \"src/libs/shop.sol\":7144:7158  localShop.city */\n  0x01\n  add\n    /* \"src/libs/shop.sol\":7144:7165  localShop.city = city */\n  swap1\n  dup1\n  mload\n  swap1\n  0x20\n  add\n  swap1\n  tag_96\n  swap3\n  swap2\n  swap1\n  tag_97\n  jump\t// in\ntag_96:\n  pop\n    /* \"src/libs/shop.sol\":7050:7173  {\r... */\n  pop\n    /* \"src/libs/shop.sol\":2105:2106  _ */\n  pop\n    /* \"src/libs/shop.sol\":2777:2778  _ */\n  pop\n    /* \"src/libs/shop.sol\":1876:1877  _ */\n  pop\n    /* \"src/libs/shop.sol\":1560:1885  {\r... */\n  pop\n    /* \"src/libs/shop.sol\":6862:7173  function addShop(address newShop, string memory city)\r... */\n  pop\n  pop\n  pop\n  jump\t// out\n    /* \"src/libs/shop.sol\":76:9230  contract Shop {\r... */\ntag_97:\n  dup3\n  dup1\n  sload\n  tag_98\n  swap1\n  tag_99\n  jump\t// in\ntag_98:\n  swap1\n  0x00\n  mstore\n  keccak256(0x00, 0x20)\n  swap1\n  0x1f\n  add\n  0x20\n  swap1\n  div\n  dup2\n  add\n  swap3\n  dup3\n  tag_101\n  jumpi\n  0x00\n  dup6\n  sstore\n  jump(tag_100)\ntag_101:\n  dup3\n  0x1f\n  lt\n  tag_102\n  jumpi\n  dup1\n  mload\n  not(0xff)\n  and\n  dup4\n  dup1\n  add\n  or\n  dup6\n  sstore\n  jump(tag_100)\ntag_102:\n  dup3\n  dup1\n  add\n  0x01\n  add\n  dup6\n  sstore\n  dup3\n  iszero\n  tag_100\n  jumpi\n  swap2\n  dup3\n  add\ntag_103:\n  dup3\n  dup2\n  gt\n  iszero\n  tag_104\n  jumpi\n  dup3\n  mload\n  dup3\n  sstore\n  swap2\n  0x20\n  add\n  swap2\n  swap1\n  0x01\n  add\n  swap1\n  jump(tag_103)\ntag_104:\ntag_100:\n  pop\n  swap1\n  pop\n  tag_105\n  swap2\n  swap1\n  tag_106\n  jump\t// in\ntag_105:\n  pop\n  swap1\n  jump\t// out\ntag_106:\ntag_107:\n  dup1\n  dup3\n  gt\n  iszero\n  tag_108\n  jumpi\n  0x00\n  dup2\n  0x00\n  swap1\n  sstore\n  pop\n  0x01\n  add\n  jump(tag_107)\ntag_108:\n  pop\n  swap1\n  jump\t// out\n    /* \"#utility.yul\":7:372   */\ntag_110:\n    /* \"#utility.yul\":149:152   */\n  0x00\n    /* \"#utility.yul\":170:236   */\n  tag_112\n    /* \"#utility.yul\":234:235   */\n  0x03\n    /* \"#utility.yul\":229:232   */\n  dup4\n    /* \"#utility.yul\":170:236   */\n  tag_113\n  jump\t// in\ntag_112:\n    /* \"#utility.yul\":163:236   */\n  swap2\n  pop\n    /* \"#utility.yul\":245:338   */\n  tag_114\n    /* \"#utility.yul\":334:337   */\n  dup3\n    /* \"#utility.yul\":245:338   */\n  tag_115\n  jump\t// in\ntag_114:\n    /* \"#utility.yul\":363:365   */\n  0x20\n    /* \"#utility.yul\":358:361   */\n  dup3\n    /* \"#utility.yul\":354:366   */\n  add\n    /* \"#utility.yul\":347:366   */\n  swap1\n  pop\n    /* \"#utility.yul\":7:372   */\n  swap2\n  swap1\n  pop\n  jump\t// out\n    /* \"#utility.yul\":378:743   */\ntag_116:\n    /* \"#utility.yul\":520:523   */\n  0x00\n    /* \"#utility.yul\":541:607   */\n  tag_118\n    /* \"#utility.yul\":605:606   */\n  0x03\n    /* \"#utility.yul\":600:603   */\n  dup4\n    /* \"#utility.yul\":541:607   */\n  tag_113\n  jump\t// in\ntag_118:\n    /* \"#utility.yul\":534:607   */\n  swap2\n  pop\n    /* \"#utility.yul\":616:709   */\n  tag_119\n    /* \"#utility.yul\":705:708   */\n  dup3\n    /* \"#utility.yul\":616:709   */\n  tag_120\n  jump\t// in\ntag_119:\n    /* \"#utility.yul\":734:736   */\n  0x20\n    /* \"#utility.yul\":729:732   */\n  dup3\n    /* \"#utility.yul\":725:737   */\n  add\n    /* \"#utility.yul\":718:737   */\n  swap1\n  pop\n    /* \"#utility.yul\":378:743   */\n  swap2\n  swap1\n  pop\n  jump\t// out\n    /* \"#utility.yul\":749:1114   */\ntag_121:\n    /* \"#utility.yul\":891:894   */\n  0x00\n    /* \"#utility.yul\":912:978   */\n  tag_123\n    /* \"#utility.yul\":976:977   */\n  0x03\n    /* \"#utility.yul\":971:974   */\n  dup4\n    /* \"#utility.yul\":912:978   */\n  tag_113\n  jump\t// in\ntag_123:\n    /* \"#utility.yul\":905:978   */\n  swap2\n  pop\n    /* \"#utility.yul\":987:1080   */\n  tag_124\n    /* \"#utility.yul\":1076:1079   */\n  dup3\n    /* \"#utility.yul\":987:1080   */\n  tag_125\n  jump\t// in\ntag_124:\n    /* \"#utility.yul\":1105:1107   */\n  0x20\n    /* \"#utility.yul\":1100:1103   */\n  dup3\n    /* \"#utility.yul\":1096:1108   */\n  add\n    /* \"#utility.yul\":1089:1108   */\n  swap1\n  pop\n    /* \"#utility.yul\":749:1114   */\n  swap2\n  swap1\n  pop\n  jump\t// out\n    /* \"#utility.yul\":1120:1486   */\ntag_126:\n    /* \"#utility.yul\":1262:1265   */\n  0x00\n    /* \"#utility.yul\":1283:1350   */\n  tag_128\n    /* \"#utility.yul\":1347:1349   */\n  0x0e\n    /* \"#utility.yul\":1342:1345   */\n  dup4\n    /* \"#utility.yul\":1283:1350   */\n  tag_113\n  jump\t// in\ntag_128:\n    /* \"#utility.yul\":1276:1350   */\n  swap2\n  pop\n    /* \"#utility.yul\":1359:1452   */\n  tag_129\n    /* \"#utility.yul\":1448:1451   */\n  dup3\n    /* \"#utility.yul\":1359:1452   */\n  tag_130\n  jump\t// in\ntag_129:\n    /* \"#utility.yul\":1477:1479   */\n  0x20\n    /* \"#utility.yul\":1472:1475   */\n  dup3\n    /* \"#utility.yul\":1468:1480   */\n  add\n    /* \"#utility.yul\":1461:1480   */\n  swap1\n  pop\n    /* \"#utility.yul\":1120:1486   */\n  swap2\n  swap1\n  pop\n  jump\t// out\n    /* \"#utility.yul\":1492:1857   */\ntag_131:\n    /* \"#utility.yul\":1634:1637   */\n  0x00\n    /* \"#utility.yul\":1655:1721   */\n  tag_133\n    /* \"#utility.yul\":1719:1720   */\n  0x03\n    /* \"#utility.yul\":1714:1717   */\n  dup4\n    /* \"#utility.yul\":1655:1721   */\n  tag_113\n  jump\t// in\ntag_133:\n    /* \"#utility.yul\":1648:1721   */\n  swap2\n  pop\n    /* \"#utility.yul\":1730:1823   */\n  tag_134\n    /* \"#utility.yul\":1819:1822   */\n  dup3\n    /* \"#utility.yul\":1730:1823   */\n  tag_135\n  jump\t// in\ntag_134:\n    /* \"#utility.yul\":1848:1850   */\n  0x20\n    /* \"#utility.yul\":1843:1846   */\n  dup3\n    /* \"#utility.yul\":1839:1851   */\n  add\n    /* \"#utility.yul\":1832:1851   */\n  swap1\n  pop\n    /* \"#utility.yul\":1492:1857   */\n  swap2\n  swap1\n  pop\n  jump\t// out\n    /* \"#utility.yul\":1863:2229   */\ntag_136:\n    /* \"#utility.yul\":2005:2008   */\n  0x00\n    /* \"#utility.yul\":2026:2093   */\n  tag_138\n    /* \"#utility.yul\":2090:2092   */\n  0x0c\n    /* \"#utility.yul\":2085:2088   */\n  dup4\n    /* \"#utility.yul\":2026:2093   */\n  tag_113\n  jump\t// in\ntag_138:\n    /* \"#utility.yul\":2019:2093   */\n  swap2\n  pop\n    /* \"#utility.yul\":2102:2195   */\n  tag_139\n    /* \"#utility.yul\":2191:2194   */\n  dup3\n    /* \"#utility.yul\":2102:2195   */\n  tag_140\n  jump\t// in\ntag_139:\n    /* \"#utility.yul\":2220:2222   */\n  0x20\n    /* \"#utility.yul\":2215:2218   */\n  dup3\n    /* \"#utility.yul\":2211:2223   */\n  add\n    /* \"#utility.yul\":2204:2223   */\n  swap1\n  pop\n    /* \"#utility.yul\":1863:2229   */\n  swap2\n  swap1\n  pop\n  jump\t// out\n    /* \"#utility.yul\":2235:2654   */\ntag_34:\n    /* \"#utility.yul\":2401:2405   */\n  0x00\n    /* \"#utility.yul\":2439:2441   */\n  0x20\n    /* \"#utility.yul\":2428:2437   */\n  dup3\n    /* \"#utility.yul\":2424:2442   */\n  add\n    /* \"#utility.yul\":2416:2442   */\n  swap1\n  pop\n    /* \"#utility.yul\":2488:2497   */\n  dup2\n    /* \"#utility.yul\":2482:2486   */\n  dup2\n    /* \"#utility.yul\":2478:2498   */\n  sub\n    /* \"#utility.yul\":2474:2475   */\n  0x00\n    /* \"#utility.yul\":2463:2472   */\n  dup4\n    /* \"#utility.yul\":2459:2476   */\n  add\n    /* \"#utility.yul\":2452:2499   */\n  mstore\n    /* \"#utility.yul\":2516:2647   */\n  tag_142\n    /* \"#utility.yul\":2642:2646   */\n  dup2\n    /* \"#utility.yul\":2516:2647   */\n  tag_110\n  jump\t// in\ntag_142:\n    /* \"#utility.yul\":2508:2647   */\n  swap1\n  pop\n    /* \"#utility.yul\":2235:2654   */\n  swap2\n  swap1\n  pop\n  jump\t// out\n    /* \"#utility.yul\":2660:3079   */\ntag_61:\n    /* \"#utility.yul\":2826:2830   */\n  0x00\n    /* \"#utility.yul\":2864:2866   */\n  0x20\n    /* \"#utility.yul\":2853:2862   */\n  dup3\n    /* \"#utility.yul\":2849:2867   */\n  add\n    /* \"#utility.yul\":2841:2867   */\n  swap1\n  pop\n    /* \"#utility.yul\":2913:2922   */\n  dup2\n    /* \"#utility.yul\":2907:2911   */\n  dup2\n    /* \"#utility.yul\":2903:2923   */\n  sub\n    /* \"#utility.yul\":2899:2900   */\n  0x00\n    /* \"#utility.yul\":2888:2897   */\n  dup4\n    /* \"#utility.yul\":2884:2901   */\n  add\n    /* \"#utility.yul\":2877:2924   */\n  mstore\n    /* \"#utility.yul\":2941:3072   */\n  tag_144\n    /* \"#utility.yul\":3067:3071   */\n  dup2\n    /* \"#utility.yul\":2941:3072   */\n  tag_116\n  jump\t// in\ntag_144:\n    /* \"#utility.yul\":2933:3072   */\n  swap1\n  pop\n    /* \"#utility.yul\":2660:3079   */\n  swap2\n  swap1\n  pop\n  jump\t// out\n    /* \"#utility.yul\":3085:3504   */\ntag_28:\n    /* \"#utility.yul\":3251:3255   */\n  0x00\n    /* \"#utility.yul\":3289:3291   */\n  0x20\n    /* \"#utility.yul\":3278:3287   */\n  dup3\n    /* \"#utility.yul\":3274:3292   */\n  add\n    /* \"#utility.yul\":3266:3292   */\n  swap1\n  pop\n    /* \"#utility.yul\":3338:3347   */\n  dup2\n    /* \"#utility.yul\":3332:3336   */\n  dup2\n    /* \"#utility.yul\":3328:3348   */\n  sub\n    /* \"#utility.yul\":3324:3325   */\n  0x00\n    /* \"#utility.yul\":3313:3322   */\n  dup4\n    /* \"#utility.yul\":3309:3326   */\n  add\n    /* \"#utility.yul\":3302:3349   */\n  mstore\n    /* \"#utility.yul\":3366:3497   */\n  tag_146\n    /* \"#utility.yul\":3492:3496   */\n  dup2\n    /* \"#utility.yul\":3366:3497   */\n  tag_121\n  jump\t// in\ntag_146:\n    /* \"#utility.yul\":3358:3497   */\n  swap1\n  pop\n    /* \"#utility.yul\":3085:3504   */\n  swap2\n  swap1\n  pop\n  jump\t// out\n    /* \"#utility.yul\":3510:3929   */\ntag_82:\n    /* \"#utility.yul\":3676:3680   */\n  0x00\n    /* \"#utility.yul\":3714:3716   */\n  0x20\n    /* \"#utility.yul\":3703:3712   */\n  dup3\n    /* \"#utility.yul\":3699:3717   */\n  add\n    /* \"#utility.yul\":3691:3717   */\n  swap1\n  pop\n    /* \"#utility.yul\":3763:3772   */\n  dup2\n    /* \"#utility.yul\":3757:3761   */\n  dup2\n    /* \"#utility.yul\":3753:3773   */\n  sub\n    /* \"#utility.yul\":3749:3750   */\n  0x00\n    /* \"#utility.yul\":3738:3747   */\n  dup4\n    /* \"#utility.yul\":3734:3751   */\n  add\n    /* \"#utility.yul\":3727:3774   */\n  mstore\n    /* \"#utility.yul\":3791:3922   */\n  tag_148\n    /* \"#utility.yul\":3917:3921   */\n  dup2\n    /* \"#utility.yul\":3791:3922   */\n  tag_126\n  jump\t// in\ntag_148:\n    /* \"#utility.yul\":3783:3922   */\n  swap1\n  pop\n    /* \"#utility.yul\":3510:3929   */\n  swap2\n  swap1\n  pop\n  jump\t// out\n    /* \"#utility.yul\":3935:4354   */\ntag_47:\n    /* \"#utility.yul\":4101:4105   */\n  0x00\n    /* \"#utility.yul\":4139:4141   */\n  0x20\n    /* \"#utility.yul\":4128:4137   */\n  dup3\n    /* \"#utility.yul\":4124:4142   */\n  add\n    /* \"#utility.yul\":4116:4142   */\n  swap1\n  pop\n    /* \"#utility.yul\":4188:4197   */\n  dup2\n    /* \"#utility.yul\":4182:4186   */\n  dup2\n    /* \"#utility.yul\":4178:4198   */\n  sub\n    /* \"#utility.yul\":4174:4175   */\n  0x00\n    /* \"#utility.yul\":4163:4172   */\n  dup4\n    /* \"#utility.yul\":4159:4176   */\n  add\n    /* \"#utility.yul\":4152:4199   */\n  mstore\n    /* \"#utility.yul\":4216:4347   */\n  tag_150\n    /* \"#utility.yul\":4342:4346   */\n  dup2\n    /* \"#utility.yul\":4216:4347   */\n  tag_131\n  jump\t// in\ntag_150:\n    /* \"#utility.yul\":4208:4347   */\n  swap1\n  pop\n    /* \"#utility.yul\":3935:4354   */\n  swap2\n  swap1\n  pop\n  jump\t// out\n    /* \"#utility.yul\":4360:4779   */\ntag_92:\n    /* \"#utility.yul\":4526:4530   */\n  0x00\n    /* \"#utility.yul\":4564:4566   */\n  0x20\n    /* \"#utility.yul\":4553:4562   */\n  dup3\n    /* \"#utility.yul\":4549:4567   */\n  add\n    /* \"#utility.yul\":4541:4567   */\n  swap1\n  pop\n    /* \"#utility.yul\":4613:4622   */\n  dup2\n    /* \"#utility.yul\":4607:4611   */\n  dup2\n    /* \"#utility.yul\":4603:4623   */\n  sub\n    /* \"#utility.yul\":4599:4600   */\n  0x00\n    /* \"#utility.yul\":4588:4597   */\n  dup4\n    /* \"#utility.yul\":4584:4601   */\n  add\n    /* \"#utility.yul\":4577:4624   */\n  mstore\n    /* \"#utility.yul\":4641:4772   */\n  tag_152\n    /* \"#utility.yul\":4767:4771   */\n  dup2\n    /* \"#utility.yul\":4641:4772   */\n  tag_136\n  jump\t// in\ntag_152:\n    /* \"#utility.yul\":4633:4772   */\n  swap1\n  pop\n    /* \"#utility.yul\":4360:4779   */\n  swap2\n  swap1\n  pop\n  jump\t// out\n    /* \"#utility.yul\":4785:4954   */\ntag_113:\n    /* \"#utility.yul\":4869:4880   */\n  0x00\n    /* \"#utility.yul\":4903:4909   */\n  dup3\n    /* \"#utility.yul\":4898:4901   */\n  dup3\n    /* \"#utility.yul\":4891:4910   */\n  mstore\n    /* \"#utility.yul\":4943:4947   */\n  0x20\n    /* \"#utility.yul\":4938:4941   */\n  dup3\n    /* \"#utility.yul\":4934:4948   */\n  add\n    /* \"#utility.yul\":4919:4948   */\n  swap1\n  pop\n    /* \"#utility.yul\":4785:4954   */\n  swap3\n  swap2\n  pop\n  pop\n  jump\t// out\n    /* \"#utility.yul\":4960:5151   */\ntag_12:\n    /* \"#utility.yul\":5000:5004   */\n  0x00\n    /* \"#utility.yul\":5020:5040   */\n  tag_155\n    /* \"#utility.yul\":5038:5039   */\n  dup3\n    /* \"#utility.yul\":5020:5040   */\n  tag_156\n  jump\t// in\ntag_155:\n    /* \"#utility.yul\":5015:5040   */\n  swap2\n  pop\n    /* \"#utility.yul\":5054:5074   */\n  tag_157\n    /* \"#utility.yul\":5072:5073   */\n  dup4\n    /* \"#utility.yul\":5054:5074   */\n  tag_156\n  jump\t// in\ntag_157:\n    /* \"#utility.yul\":5049:5074   */\n  swap3\n  pop\n    /* \"#utility.yul\":5093:5094   */\n  dup3\n    /* \"#utility.yul\":5090:5091   */\n  dup3\n    /* \"#utility.yul\":5087:5095   */\n  lt\n    /* \"#utility.yul\":5084:5118   */\n  iszero\n  tag_158\n  jumpi\n    /* \"#utility.yul\":5098:5116   */\n  tag_159\n  tag_160\n  jump\t// in\ntag_159:\n    /* \"#utility.yul\":5084:5118   */\ntag_158:\n    /* \"#utility.yul\":5143:5144   */\n  dup3\n    /* \"#utility.yul\":5140:5141   */\n  dup3\n    /* \"#utility.yul\":5136:5145   */\n  sub\n    /* \"#utility.yul\":5128:5145   */\n  swap1\n  pop\n    /* \"#utility.yul\":4960:5151   */\n  swap3\n  swap2\n  pop\n  pop\n  jump\t// out\n    /* \"#utility.yul\":5157:5234   */\ntag_156:\n    /* \"#utility.yul\":5194:5201   */\n  0x00\n    /* \"#utility.yul\":5223:5228   */\n  dup2\n    /* \"#utility.yul\":5212:5228   */\n  swap1\n  pop\n    /* \"#utility.yul\":5157:5234   */\n  swap2\n  swap1\n  pop\n  jump\t// out\n    /* \"#utility.yul\":5240:5560   */\ntag_99:\n    /* \"#utility.yul\":5284:5290   */\n  0x00\n    /* \"#utility.yul\":5321:5322   */\n  0x02\n    /* \"#utility.yul\":5315:5319   */\n  dup3\n    /* \"#utility.yul\":5311:5323   */\n  div\n    /* \"#utility.yul\":5301:5323   */\n  swap1\n  pop\n    /* \"#utility.yul\":5368:5369   */\n  0x01\n    /* \"#utility.yul\":5362:5366   */\n  dup3\n    /* \"#utility.yul\":5358:5370   */\n  and\n    /* \"#utility.yul\":5389:5407   */\n  dup1\n    /* \"#utility.yul\":5379:5460   */\n  tag_163\n  jumpi\n    /* \"#utility.yul\":5445:5449   */\n  0x7f\n    /* \"#utility.yul\":5437:5443   */\n  dup3\n    /* \"#utility.yul\":5433:5450   */\n  and\n    /* \"#utility.yul\":5423:5450   */\n  swap2\n  pop\n    /* \"#utility.yul\":5379:5460   */\ntag_163:\n    /* \"#utility.yul\":5507:5509   */\n  0x20\n    /* \"#utility.yul\":5499:5505   */\n  dup3\n    /* \"#utility.yul\":5496:5510   */\n  lt\n    /* \"#utility.yul\":5476:5494   */\n  dup2\n    /* \"#utility.yul\":5473:5511   */\n  eq\n    /* \"#utility.yul\":5470:5554   */\n  iszero\n  tag_164\n  jumpi\n    /* \"#utility.yul\":5526:5544   */\n  tag_165\n  tag_166\n  jump\t// in\ntag_165:\n    /* \"#utility.yul\":5470:5554   */\ntag_164:\n    /* \"#utility.yul\":5291:5560   */\n  pop\n    /* \"#utility.yul\":5240:5560   */\n  swap2\n  swap1\n  pop\n  jump\t// out\n    /* \"#utility.yul\":5566:5799   */\ntag_30:\n    /* \"#utility.yul\":5605:5608   */\n  0x00\n    /* \"#utility.yul\":5628:5652   */\n  tag_168\n    /* \"#utility.yul\":5646:5651   */\n  dup3\n    /* \"#utility.yul\":5628:5652   */\n  tag_156\n  jump\t// in\ntag_168:\n    /* \"#utility.yul\":5619:5652   */\n  swap2\n  pop\n    /* \"#utility.yul\":5674:5740   */\n  0xffffffffffffffffffffffffffffffffffffffffffffffffffffffffffffffff\n    /* \"#utility.yul\":5667:5672   */\n  dup3\n    /* \"#utility.yul\":5664:5741   */\n  eq\n    /* \"#utility.yul\":5661:5764   */\n  iszero\n  tag_169\n  jumpi\n    /* \"#utility.yul\":5744:5762   */\n  tag_170\n  tag_160\n  jump\t// in\ntag_170:\n    /* \"#utility.yul\":5661:5764   */\ntag_169:\n    /* \"#utility.yul\":5791:5792   */\n  0x01\n    /* \"#utility.yul\":5784:5789   */\n  dup3\n    /* \"#utility.yul\":5780:5793   */\n  add\n    /* \"#utility.yul\":5773:5793   */\n  swap1\n  pop\n    /* \"#utility.yul\":5566:5799   */\n  swap2\n  swap1\n  pop\n  jump\t// out\n    /* \"#utility.yul\":5805:5985   */\ntag_160:\n    /* \"#utility.yul\":5853:5930   */\n  0x4e487b7100000000000000000000000000000000000000000000000000000000\n    /* \"#utility.yul\":5850:5851   */\n  0x00\n    /* \"#utility.yul\":5843:5931   */\n  mstore\n    /* \"#utility.yul\":5950:5954   */\n  0x11\n    /* \"#utility.yul\":5947:5948   */\n  0x04\n    /* \"#utility.yul\":5940:5955   */\n  mstore\n    /* \"#utility.yul\":5974:5978   */\n  0x24\n    /* \"#utility.yul\":5971:5972   */\n  0x00\n    /* \"#utility.yul\":5964:5979   */\n  revert\n    /* \"#utility.yul\":5991:6171   */\ntag_166:\n    /* \"#utility.yul\":6039:6116   */\n  0x4e487b7100000000000000000000000000000000000000000000000000000000\n    /* \"#utility.yul\":6036:6037   */\n  0x00\n    /* \"#utility.yul\":6029:6117   */\n  mstore\n    /* \"#utility.yul\":6136:6140   */\n  0x22\n    /* \"#utility.yul\":6133:6134   */\n  0x04\n    /* \"#utility.yul\":6126:6141   */\n  mstore\n    /* \"#utility.yul\":6160:6164   */\n  0x24\n    /* \"#utility.yul\":6157:6158   */\n  0x00\n    /* \"#utility.yul\":6150:6165   */\n  revert\n    /* \"#utility.yul\":6177:6357   */\ntag_15:\n    /* \"#utility.yul\":6225:6302   */\n  0x4e487b7100000000000000000000000000000000000000000000000000000000\n    /* \"#utility.yul\":6222:6223   */\n  0x00\n    /* \"#utility.yul\":6215:6303   */\n  mstore\n    /* \"#utility.yul\":6322:6326   */\n  0x32\n    /* \"#utility.yul\":6319:6320   */\n  0x04\n    /* \"#utility.yul\":6312:6327   */\n  mstore\n    /* \"#utility.yul\":6346:6350   */\n  0x24\n    /* \"#utility.yul\":6343:6344   */\n  0x00\n    /* \"#utility.yul\":6336:6351   */\n  revert\n    /* \"#utility.yul\":6363:6516   */\ntag_115:\n    /* \"#utility.yul\":6503:6508   */\n  0x3130320000000000000000000000000000000000000000000000000000000000\n    /* \"#utility.yul\":6499:6500   */\n  0x00\n    /* \"#utility.yul\":6491:6497   */\n  dup3\n    /* \"#utility.yul\":6487:6501   */\n  add\n    /* \"#utility.yul\":6480:6509   */\n  mstore\n    /* \"#utility.yul\":6363:6516   */\n  pop\n  jump\t// out\n    /* \"#utility.yul\":6522:6675   */\ntag_120:\n    /* \"#utility.yul\":6662:6667   */\n  0x3130300000000000000000000000000000000000000000000000000000000000\n    /* \"#utility.yul\":6658:6659   */\n  0x00\n    /* \"#utility.yul\":6650:6656   */\n  dup3\n    /* \"#utility.yul\":6646:6660   */\n  add\n    /* \"#utility.yul\":6639:6668   */\n  mstore\n    /* \"#utility.yul\":6522:6675   */\n  pop\n  jump\t// out\n    /* \"#utility.yul\":6681:6834   */\ntag_125:\n    /* \"#utility.yul\":6821:6826   */\n  0x3230310000000000000000000000000000000000000000000000000000000000\n    /* \"#utility.yul\":6817:6818   */\n  0x00\n    /* \"#utility.yul\":6809:6815   */\n  dup3\n    /* \"#utility.yul\":6805:6819   */\n  add\n    /* \"#utility.yul\":6798:6827   */\n  mstore\n    /* \"#utility.yul\":6681:6834   */\n  pop\n  jump\t// out\n    /* \"#utility.yul\":6840:7004   */\ntag_130:\n    /* \"#utility.yul\":6980:6996   */\n  0x49742069736e27742073686f7021000000000000000000000000000000000000\n    /* \"#utility.yul\":6976:6977   */\n  0x00\n    /* \"#utility.yul\":6968:6974   */\n  dup3\n    /* \"#utility.yul\":6964:6978   */\n  add\n    /* \"#utility.yul\":6957:6997   */\n  mstore\n    /* \"#utility.yul\":6840:7004   */\n  pop\n  jump\t// out\n    /* \"#utility.yul\":7010:7163   */\ntag_135:\n    /* \"#utility.yul\":7150:7155   */\n  0x3230300000000000000000000000000000000000000000000000000000000000\n    /* \"#utility.yul\":7146:7147   */\n  0x00\n    /* \"#utility.yul\":7138:7144   */\n  dup3\n    /* \"#utility.yul\":7134:7148   */\n  add\n    /* \"#utility.yul\":7127:7156   */\n  mstore\n    /* \"#utility.yul\":7010:7163   */\n  pop\n  jump\t// out\n    /* \"#utility.yul\":7169:7331   */\ntag_140:\n    /* \"#utility.yul\":7309:7323   */\n  0x53686f7020657869737473210000000000000000000000000000000000000000\n    /* \"#utility.yul\":7305:7306   */\n  0x00\n    /* \"#utility.yul\":7297:7303   */\n  dup3\n    /* \"#utility.yul\":7293:7307   */\n  add\n    /* \"#utility.yul\":7286:7324   */\n  mstore\n    /* \"#utility.yul\":7169:7331   */\n  pop\n  jump\t// out\n    /* \"src/libs/shop.sol\":76:9230  contract Shop {\r... */\ntag_18:\n  dataSize(sub_0)\n  dup1\n  dataOffset(sub_0)\n  0x00\n  codecopy\n  0x00\n  return\nstop\n\nsub_0: assembly {\n        /* \"src/libs/shop.sol\":76:9230  contract Shop {\r... */\n      mstore(0x40, 0x80)\n      callvalue\n      dup1\n      iszero\n      tag_1\n      jumpi\n      0x00\n      dup1\n      revert\n    tag_1:\n      pop\n      jumpi(tag_2, lt(calldatasize, 0x04))\n      shr(0xe0, calldataload(0x00))\n      dup1\n      0x3efdebf1\n      gt\n      tag_20\n      jumpi\n      dup1\n      0x6b65750e\n      gt\n      tag_21\n      jumpi\n      dup1\n      0x6b65750e\n      eq\n      tag_15\n      jumpi\n      dup1\n      0x70480275\n      eq\n      tag_16\n      jumpi\n      dup1\n      0x8f055d8a\n      eq\n      tag_17\n      jumpi\n      dup1\n      0xab122ef5\n      eq\n      tag_18\n      jumpi\n      dup1\n      0xad81f803\n      eq\n      tag_19\n      jumpi\n      jump(tag_2)\n    tag_21:\n      dup1\n      0x3efdebf1\n      eq\n      tag_11\n      jumpi\n      dup1\n      0x4384a79f\n      eq\n      tag_12\n      jumpi\n      dup1\n      0x49b15962\n      eq\n      tag_13\n      jumpi\n      dup1\n      0x66b2f791\n      eq\n      tag_14\n      jumpi\n      jump(tag_2)\n    tag_20:\n      dup1\n      0x240185b6\n      gt\n      tag_22\n      jumpi\n      dup1\n      0x240185b6\n      eq\n      tag_7\n      jumpi\n      dup1\n      0x2e91d706\n      eq\n      tag_8\n      jumpi\n      dup1\n      0x329fb8d6\n      eq\n      tag_9\n      jumpi\n      dup1\n      0x3b95a23f\n      eq\n      tag_10\n      jumpi\n      jump(tag_2)\n    tag_22:\n      dup1\n      0x82f88e\n      eq\n      tag_3\n      jumpi\n      dup1\n      0x19e76680\n      eq\n      tag_4\n      jumpi\n      dup1\n      0x1a0550e3\n      eq\n      tag_5\n      jumpi\n      dup1\n      0x1c618eb3\n      eq\n      tag_6\n      jumpi\n    tag_2:\n      0x00\n      dup1\n      revert\n        /* \"src/libs/shop.sol\":7516:8136  function addMark(\r... */\n    tag_3:\n      tag_23\n      0x04\n      dup1\n      calldatasize\n      sub\n      dup2\n      add\n      swap1\n      tag_24\n      swap2\n      swap1\n      tag_25\n      jump\t// in\n    tag_24:\n      tag_26\n      jump\t// in\n    tag_23:\n      stop\n        /* \"src/libs/shop.sol\":4102:4550  function switchRequestFor(uint256 idShop) public {\r... */\n    tag_4:\n      tag_27\n      0x04\n      dup1\n      calldatasize\n      sub\n      dup2\n      add\n      swap1\n      tag_28\n      swap2\n      swap1\n      tag_29\n      jump\t// in\n    tag_28:\n      tag_30\n      jump\t// in\n    tag_27:\n      stop\n        /* \"src/libs/shop.sol\":5585:5905  function upToSeller(uint256 idRequest)\r... */\n    tag_5:\n      tag_31\n      0x04\n      dup1\n      calldatasize\n      sub\n      dup2\n      add\n      swap1\n      tag_32\n      swap2\n      swap1\n      tag_29\n      jump\t// in\n    tag_32:\n      tag_33\n      jump\t// in\n    tag_31:\n      stop\n        /* \"src/libs/shop.sol\":6862:7173  function addShop(address newShop, string memory city)\r... */\n    tag_6:\n      tag_34\n      0x04\n      dup1\n      calldatasize\n      sub\n      dup2\n      add\n      swap1\n      tag_35\n      swap2\n      swap1\n      tag_36\n      jump\t// in\n    tag_35:\n      tag_37\n      jump\t// in\n    tag_34:\n      stop\n        /* \"src/libs/shop.sol\":8709:8800  function view_Shops() public view returns (shop[] memory) {\r... */\n    tag_7:\n      tag_38\n      tag_39\n      jump\t// in\n    tag_38:\n      mload(0x40)\n      tag_40\n      swap2\n      swap1\n      tag_41\n      jump\t// in\n    tag_40:\n      mload(0x40)\n      dup1\n      swap2\n      sub\n      swap1\n      return\n        /* \"src/libs/shop.sol\":4558:4991  function globalSwitchRequest() public {\r... */\n    tag_8:\n      tag_42\n      tag_43\n      jump\t// in\n    tag_42:\n      stop\n        /* \"src/libs/shop.sol\":5913:6432  function downToUser(uint256 idRequest)\r... */\n    tag_9:\n      tag_44\n      0x04\n      dup1\n      calldatasize\n      sub\n      dup2\n      add\n      swap1\n      tag_45\n      swap2\n      swap1\n      tag_29\n      jump\t// in\n    tag_45:\n      tag_46\n      jump\t// in\n    tag_44:\n      stop\n        /* \"src/libs/shop.sol\":3399:3498  function regUser() public isntReg(msg.sender) {\r... */\n    tag_10:\n      tag_47\n      tag_48\n      jump\t// in\n    tag_47:\n      stop\n        /* \"src/libs/shop.sol\":7181:7457  function deleteShop(uint256 idShop) public {\r... */\n    tag_11:\n      tag_49\n      0x04\n      dup1\n      calldatasize\n      sub\n      dup2\n      add\n      swap1\n      tag_50\n      swap2\n      swap1\n      tag_29\n      jump\t// in\n    tag_50:\n      tag_51\n      jump\t// in\n    tag_49:\n      stop\n        /* \"src/libs/shop.sol\":8144:8357  function addLike(\r... */\n    tag_12:\n      tag_52\n      0x04\n      dup1\n      calldatasize\n      sub\n      dup2\n      add\n      swap1\n      tag_53\n      swap2\n      swap1\n      tag_54\n      jump\t// in\n    tag_53:\n      tag_55\n      jump\t// in\n    tag_52:\n      stop\n        /* \"src/libs/shop.sol\":3578:4094  function switchToUser() public {\r... */\n    tag_13:\n      tag_56\n      tag_57\n      jump\t// in\n    tag_56:\n      stop\n        /* \"src/libs/shop.sol\":8365:8650  function addLike(\r... */\n    tag_14:\n      tag_58\n      0x04\n      dup1\n      calldatasize\n      sub\n      dup2\n      add\n      swap1\n      tag_59\n      swap2\n      swap1\n      tag_60\n      jump\t// in\n    tag_59:\n      tag_61\n      jump\t// in\n    tag_58:\n      stop\n        /* \"src/libs/shop.sol\":8907:9066  function view_Requests_Sellers()\r... */\n    tag_15:\n      tag_62\n      tag_63\n      jump\t// in\n    tag_62:\n      mload(0x40)\n      tag_64\n      swap2\n      swap1\n      tag_65\n      jump\t// in\n    tag_64:\n      mload(0x40)\n      dup1\n      swap2\n      sub\n      swap1\n      return\n        /* \"src/libs/shop.sol\":6440:6854  function addAdmin(address candidate)\r... */\n    tag_16:\n      tag_66\n      0x04\n      dup1\n      calldatasize\n      sub\n      dup2\n      add\n      swap1\n      tag_67\n      swap2\n      swap1\n      tag_68\n      jump\t// in\n    tag_67:\n      tag_69\n      jump\t// in\n    tag_66:\n      stop\n        /* \"src/libs/shop.sol\":9074:9227  function view_Requests_Users()\r... */\n    tag_17:\n      tag_70\n      tag_71\n      jump\t// in\n    tag_70:\n      mload(0x40)\n      tag_72\n      swap2\n      swap1\n      tag_73\n      jump\t// in\n    tag_72:\n      mload(0x40)\n      dup1\n      swap2\n      sub\n      swap1\n      return\n        /* \"src/libs/shop.sol\":4999:5533  function addComment(\r... */\n    tag_18:\n      tag_74\n      0x04\n      dup1\n      calldatasize\n      sub\n      dup2\n      add\n      swap1\n      tag_75\n      swap2\n      swap1\n      tag_25\n      jump\t// in\n    tag_75:\n      tag_76\n      jump\t// in\n    tag_74:\n      stop\n        /* \"src/libs/shop.sol\":8808:8899  function view_Users() public view returns (user[] memory) {\r... */\n    tag_19:\n      tag_77\n      tag_78\n      jump\t// in\n    tag_77:\n      mload(0x40)\n      tag_79\n      swap2\n      swap1\n      tag_80\n      jump\t// in\n    tag_79:\n      mload(0x40)\n      dup1\n      swap2\n      sub\n      swap1\n      return\n        /* \"src/libs/shop.sol\":7516:8136  function addMark(\r... */\n    tag_26:\n        /* \"src/libs/shop.sol\":7725:7730  Shops */\n      0x00\n        /* \"src/libs/shop.sol\":7731:7737  idShop */\n      dup4\n        /* \"src/libs/shop.sol\":7725:7738  Shops[idShop] */\n      dup2\n      sload\n      dup2\n      lt\n      tag_82\n      jumpi\n      tag_83\n      tag_84\n      jump\t// in\n    tag_83:\n    tag_82:\n      swap1\n      0x00\n      mstore\n      keccak256(0x00, 0x20)\n      swap1\n      0x04\n      mul\n      add\n        /* \"src/libs/shop.sol\":7725:7750  Shops[idShop].bookOfMarks */\n      0x02\n      add\n        /* \"src/libs/shop.sol\":7725:7757  Shops[idShop].bookOfMarks.push() */\n      0x01\n      dup2\n      0x01\n      dup2\n      sload\n      add\n      dup1\n      dup3\n      sstore\n      dup1\n      swap2\n      pop\n      pop\n      sub\n      swap1\n      0x00\n      mstore\n      keccak256(0x00, 0x20)\n      swap1\n      pop\n      pop\n        /* \"src/libs/shop.sol\":7872:7882  msg.sender */\n      caller\n        /* \"src/libs/shop.sol\":7768:7773  Shops */\n      0x00\n        /* \"src/libs/shop.sol\":7774:7780  idShop */\n      dup5\n        /* \"src/libs/shop.sol\":7768:7781  Shops[idShop] */\n      dup2\n      sload\n      dup2\n      lt\n      tag_87\n      jumpi\n      tag_88\n      tag_84\n      jump\t// in\n    tag_88:\n    tag_87:\n      swap1\n      0x00\n      mstore\n      keccak256(0x00, 0x20)\n      swap1\n      0x04\n      mul\n      add\n        /* \"src/libs/shop.sol\":7768:7807  Shops[idShop]\r... */\n      0x02\n      add\n        /* \"src/libs/shop.sol\":7843:7844  1 */\n      0x01\n        /* \"src/libs/shop.sol\":7808:7813  Shops */\n      0x00\n        /* \"src/libs/shop.sol\":7814:7820  idShop */\n      dup7\n        /* \"src/libs/shop.sol\":7808:7821  Shops[idShop] */\n      dup2\n      sload\n      dup2\n      lt\n      tag_90\n      jumpi\n      tag_91\n      tag_84\n      jump\t// in\n    tag_91:\n    tag_90:\n      swap1\n      0x00\n      mstore\n      keccak256(0x00, 0x20)\n      swap1\n      0x04\n      mul\n      add\n        /* \"src/libs/shop.sol\":7808:7833  Shops[idShop].bookOfMarks */\n      0x02\n      add\n        /* \"src/libs/shop.sol\":7808:7840  Shops[idShop].bookOfMarks.length */\n      dup1\n      sload\n      swap1\n      pop\n        /* \"src/libs/shop.sol\":7808:7844  Shops[idShop].bookOfMarks.length - 1 */\n      tag_93\n      swap2\n      swap1\n      tag_94\n      jump\t// in\n    tag_93:\n        /* \"src/libs/shop.sol\":7768:7845  Shops[idShop]\r... */\n      dup2\n      sload\n      dup2\n      lt\n      tag_95\n      jumpi\n      tag_96\n      tag_84\n      jump\t// in\n    tag_96:\n    tag_95:\n      swap1\n      0x00\n      mstore\n      keccak256(0x00, 0x20)\n      swap1\n      0x05\n      mul\n      add\n        /* \"src/libs/shop.sol\":7768:7869  Shops[idShop]\r... */\n      0x00\n      add\n      0x00\n        /* \"src/libs/shop.sol\":7768:7882  Shops[idShop]\r... */\n      0x0100\n      exp\n      dup2\n      sload\n      dup2\n      0xffffffffffffffffffffffffffffffffffffffff\n      mul\n      not\n      and\n      swap1\n      dup4\n      0xffffffffffffffffffffffffffffffffffffffff\n      and\n      mul\n      or\n      swap1\n      sstore\n      pop\n        /* \"src/libs/shop.sol\":7994:8000  rating */\n      dup2\n        /* \"src/libs/shop.sol\":7893:7898  Shops */\n      0x00\n        /* \"src/libs/shop.sol\":7899:7905  idShop */\n      dup5\n        /* \"src/libs/shop.sol\":7893:7906  Shops[idShop] */\n      dup2\n      sload\n      dup2\n      lt\n      tag_98\n      jumpi\n      tag_99\n      tag_84\n      jump\t// in\n    tag_99:\n    tag_98:\n      swap1\n      0x00\n      mstore\n      keccak256(0x00, 0x20)\n      swap1\n      0x04\n      mul\n      add\n        /* \"src/libs/shop.sol\":7893:7932  Shops[idShop]\r... */\n      0x02\n      add\n        /* \"src/libs/shop.sol\":7968:7969  1 */\n      0x01\n        /* \"src/libs/shop.sol\":7933:7938  Shops */\n      0x00\n        /* \"src/libs/shop.sol\":7939:7945  idShop */\n      dup7\n        /* \"src/libs/shop.sol\":7933:7946  Shops[idShop] */\n      dup2\n      sload\n      dup2\n      lt\n      tag_101\n      jumpi\n      tag_102\n      tag_84\n      jump\t// in\n    tag_102:\n    tag_101:\n      swap1\n      0x00\n      mstore\n      keccak256(0x00, 0x20)\n      swap1\n      0x04\n      mul\n      add\n        /* \"src/libs/shop.sol\":7933:7958  Shops[idShop].bookOfMarks */\n      0x02\n      add\n        /* \"src/libs/shop.sol\":7933:7965  Shops[idShop].bookOfMarks.length */\n      dup1\n      sload\n      swap1\n      pop\n        /* \"src/libs/shop.sol\":7933:7969  Shops[idShop].bookOfMarks.length - 1 */\n      tag_104\n      swap2\n      swap1\n      tag_94\n      jump\t// in\n    tag_104:\n        /* \"src/libs/shop.sol\":7893:7970  Shops[idShop]\r... */\n      dup2\n      sload\n      dup2\n      lt\n      tag_105\n      jumpi\n      tag_106\n      tag_84\n      jump\t// in\n    tag_106:\n    tag_105:\n      swap1\n      0x00\n      mstore\n      keccak256(0x00, 0x20)\n      swap1\n      0x05\n      mul\n      add\n        /* \"src/libs/shop.sol\":7893:7991  Shops[idShop]\r... */\n      0x01\n      add\n        /* \"src/libs/shop.sol\":7893:8000  Shops[idShop]\r... */\n      dup2\n      swap1\n      sstore\n      pop\n        /* \"src/libs/shop.sol\":8117:8128  description */\n      dup1\n        /* \"src/libs/shop.sol\":8011:8016  Shops */\n      0x00\n        /* \"src/libs/shop.sol\":8017:8023  idShop */\n      dup5\n        /* \"src/libs/shop.sol\":8011:8024  Shops[idShop] */\n      dup2\n      sload\n      dup2\n      lt\n      tag_108\n      jumpi\n      tag_109\n      tag_84\n      jump\t// in\n    tag_109:\n    tag_108:\n      swap1\n      0x00\n      mstore\n      keccak256(0x00, 0x20)\n      swap1\n      0x04\n      mul\n      add\n        /* \"src/libs/shop.sol\":8011:8050  Shops[idShop]\r... */\n      0x02\n      add\n        /* \"src/libs/shop.sol\":8086:8087  1 */\n      0x01\n        /* \"src/libs/shop.sol\":8051:8056  Shops */\n      0x00\n        /* \"src/libs/shop.sol\":8057:8063  idShop */\n      dup7\n        /* \"src/libs/shop.sol\":8051:8064  Shops[idShop] */\n      dup2\n      sload\n      dup2\n      lt\n      tag_111\n      jumpi\n      tag_112\n      tag_84\n      jump\t// in\n    tag_112:\n    tag_111:\n      swap1\n      0x00\n      mstore\n      keccak256(0x00, 0x20)\n      swap1\n      0x04\n      mul\n      add\n        /* \"src/libs/shop.sol\":8051:8076  Shops[idShop].bookOfMarks */\n      0x02\n      add\n        /* \"src/libs/shop.sol\":8051:8083  Shops[idShop].bookOfMarks.length */\n      dup1\n      sload\n      swap1\n      pop\n        /* \"src/libs/shop.sol\":8051:8087  Shops[idShop].bookOfMarks.length - 1 */\n      tag_114\n      swap2\n      swap1\n      tag_94\n      jump\t// in\n    tag_114:\n        /* \"src/libs/shop.sol\":8011:8088  Shops[idShop]\r... */\n      dup2\n      sload\n      dup2\n      lt\n      tag_115\n      jumpi\n      tag_116\n      tag_84\n      jump\t// in\n    tag_116:\n    tag_115:\n      swap1\n      0x00\n      mstore\n      keccak256(0x00, 0x20)\n      swap1\n      0x05\n      mul\n      add\n        /* \"src/libs/shop.sol\":8011:8114  Shops[idShop]\r... */\n      0x04\n      add\n        /* \"src/libs/shop.sol\":8011:8128  Shops[idShop]\r... */\n      swap1\n      dup1\n      mload\n      swap1\n      0x20\n      add\n      swap1\n      tag_118\n      swap3\n      swap2\n      swap1\n      tag_119\n      jump\t// in\n    tag_118:\n      pop\n        /* \"src/libs/shop.sol\":7516:8136  function addMark(\r... */\n      pop\n      pop\n      pop\n      jump\t// out\n        /* \"src/libs/shop.sol\":4102:4550  function switchRequestFor(uint256 idShop) public {\r... */\n    tag_30:\n        /* \"src/libs/shop.sol\":4167:4176  uint256 i */\n      0x00\n        /* \"src/libs/shop.sol\":4162:4543  for (uint256 i = 0; i < Users.length; i++) {\r... */\n    tag_121:\n        /* \"src/libs/shop.sol\":4186:4191  Users */\n      0x01\n        /* \"src/libs/shop.sol\":4186:4198  Users.length */\n      dup1\n      sload\n      swap1\n      pop\n        /* \"src/libs/shop.sol\":4182:4183  i */\n      dup2\n        /* \"src/libs/shop.sol\":4182:4198  i < Users.length */\n      lt\n        /* \"src/libs/shop.sol\":4162:4543  for (uint256 i = 0; i < Users.length; i++) {\r... */\n      iszero\n      tag_122\n      jumpi\n        /* \"src/libs/shop.sol\":4241:4251  msg.sender */\n      caller\n        /* \"src/libs/shop.sol\":4224:4251  Users[i].user == msg.sender */\n      0xffffffffffffffffffffffffffffffffffffffff\n      and\n        /* \"src/libs/shop.sol\":4224:4229  Users */\n      0x01\n        /* \"src/libs/shop.sol\":4230:4231  i */\n      dup3\n        /* \"src/libs/shop.sol\":4224:4232  Users[i] */\n      dup2\n      sload\n      dup2\n      lt\n      tag_124\n      jumpi\n      tag_125\n      tag_84\n      jump\t// in\n    tag_125:\n    tag_124:\n      swap1\n      0x00\n      mstore\n      keccak256(0x00, 0x20)\n      swap1\n      0x03\n      mul\n      add\n        /* \"src/libs/shop.sol\":4224:4237  Users[i].user */\n      0x00\n      add\n      0x00\n      swap1\n      sload\n      swap1\n      0x0100\n      exp\n      swap1\n      div\n      0xffffffffffffffffffffffffffffffffffffffff\n      and\n        /* \"src/libs/shop.sol\":4224:4251  Users[i].user == msg.sender */\n      0xffffffffffffffffffffffffffffffffffffffff\n      and\n      eq\n        /* \"src/libs/shop.sol\":4220:4532  if (Users[i].user == msg.sender) {\r... */\n      iszero\n      tag_127\n      jumpi\n        /* \"src/libs/shop.sol\":4297:4298  0 */\n      0x00\n        /* \"src/libs/shop.sol\":4280:4285  Users */\n      0x01\n        /* \"src/libs/shop.sol\":4286:4287  i */\n      dup3\n        /* \"src/libs/shop.sol\":4280:4288  Users[i] */\n      dup2\n      sload\n      dup2\n      lt\n      tag_128\n      jumpi\n      tag_129\n      tag_84\n      jump\t// in\n    tag_129:\n    tag_128:\n      swap1\n      0x00\n      mstore\n      keccak256(0x00, 0x20)\n      swap1\n      0x03\n      mul\n      add\n        /* \"src/libs/shop.sol\":4280:4293  Users[i].role */\n      0x01\n      add\n      sload\n        /* \"src/libs/shop.sol\":4280:4298  Users[i].role != 0 */\n      eq\n      iszero\n        /* \"src/libs/shop.sol\":4272:4306  require(Users[i].role != 0, \"104\") */\n      tag_131\n      jumpi\n      mload(0x40)\n      0x08c379a000000000000000000000000000000000000000000000000000000000\n      dup2\n      mstore\n      0x04\n      add\n      tag_132\n      swap1\n      tag_133\n      jump\t// in\n    tag_132:\n      mload(0x40)\n      dup1\n      swap2\n      sub\n      swap1\n      revert\n    tag_131:\n        /* \"src/libs/shop.sol\":4437:4453  RequestsForUsers */\n      0x03\n        /* \"src/libs/shop.sol\":4459:4491  requestForUser(i, idShop, false) */\n      mload(0x40)\n      dup1\n      0x60\n      add\n      0x40\n      mstore\n      dup1\n        /* \"src/libs/shop.sol\":4474:4475  i */\n      dup4\n        /* \"src/libs/shop.sol\":4459:4491  requestForUser(i, idShop, false) */\n      dup2\n      mstore\n      0x20\n      add\n        /* \"src/libs/shop.sol\":4477:4483  idShop */\n      dup5\n        /* \"src/libs/shop.sol\":4459:4491  requestForUser(i, idShop, false) */\n      dup2\n      mstore\n      0x20\n      add\n        /* \"src/libs/shop.sol\":4485:4490  false */\n      0x00\n        /* \"src/libs/shop.sol\":4459:4491  requestForUser(i, idShop, false) */\n      iszero\n      iszero\n      dup2\n      mstore\n      pop\n        /* \"src/libs/shop.sol\":4437:4492  RequestsForUsers.push(requestForUser(i, idShop, false)) */\n      swap1\n      dup1\n      0x01\n      dup2\n      sload\n      add\n      dup1\n      dup3\n      sstore\n      dup1\n      swap2\n      pop\n      pop\n      0x01\n      swap1\n      sub\n      swap1\n      0x00\n      mstore\n      keccak256(0x00, 0x20)\n      swap1\n      0x03\n      mul\n      add\n      0x00\n      swap1\n      swap2\n      swap1\n      swap2\n      swap1\n      swap2\n      pop\n      0x00\n      dup3\n      add\n      mload\n      dup2\n      0x00\n      add\n      sstore\n      0x20\n      dup3\n      add\n      mload\n      dup2\n      0x01\n      add\n      sstore\n      0x40\n      dup3\n      add\n      mload\n      dup2\n      0x02\n      add\n      exp(0x0100, 0x00)\n      dup2\n      sload\n      dup2\n      0xff\n      mul\n      not\n      and\n      swap1\n      dup4\n      iszero\n      iszero\n      mul\n      or\n      swap1\n      sstore\n      pop\n      pop\n      pop\n        /* \"src/libs/shop.sol\":4511:4516  break */\n      jump(tag_122)\n        /* \"src/libs/shop.sol\":4220:4532  if (Users[i].user == msg.sender) {\r... */\n    tag_127:\n        /* \"src/libs/shop.sol\":4200:4203  i++ */\n      dup1\n      dup1\n      tag_135\n      swap1\n      tag_136\n      jump\t// in\n    tag_135:\n      swap2\n      pop\n      pop\n        /* \"src/libs/shop.sol\":4162:4543  for (uint256 i = 0; i < Users.length; i++) {\r... */\n      jump(tag_121)\n    tag_122:\n      pop\n        /* \"src/libs/shop.sol\":4102:4550  function switchRequestFor(uint256 idShop) public {\r... */\n      pop\n      jump\t// out\n        /* \"src/libs/shop.sol\":5585:5905  function upToSeller(uint256 idRequest)\r... */\n    tag_33:\n        /* \"src/libs/shop.sol\":5655:5665  msg.sender */\n      caller\n        /* \"src/libs/shop.sol\":1571:1587  bool isRegistred */\n      0x00\n        /* \"src/libs/shop.sol\":1611:1620  uint256 i */\n      dup1\n        /* \"src/libs/shop.sol\":1606:1783  for (uint256 i = 0; i < Users.length; i++) {\r... */\n    tag_138:\n        /* \"src/libs/shop.sol\":1630:1635  Users */\n      0x01\n        /* \"src/libs/shop.sol\":1630:1642  Users.length */\n      dup1\n      sload\n      swap1\n      pop\n        /* \"src/libs/shop.sol\":1626:1627  i */\n      dup2\n        /* \"src/libs/shop.sol\":1626:1642  i < Users.length */\n      lt\n        /* \"src/libs/shop.sol\":1606:1783  for (uint256 i = 0; i < Users.length; i++) {\r... */\n      iszero\n      tag_139\n      jumpi\n        /* \"src/libs/shop.sol\":1685:1693  someUser */\n      dup3\n        /* \"src/libs/shop.sol\":1668:1693  Users[i].user == someUser */\n      0xffffffffffffffffffffffffffffffffffffffff\n      and\n        /* \"src/libs/shop.sol\":1668:1673  Users */\n      0x01\n        /* \"src/libs/shop.sol\":1674:1675  i */\n      dup3\n        /* \"src/libs/shop.sol\":1668:1676  Users[i] */\n      dup2\n      sload\n      dup2\n      lt\n      tag_141\n      jumpi\n      tag_142\n      tag_84\n      jump\t// in\n    tag_142:\n    tag_141:\n      swap1\n      0x00\n      mstore\n      keccak256(0x00, 0x20)\n      swap1\n      0x03\n      mul\n      add\n        /* \"src/libs/shop.sol\":1668:1681  Users[i].user */\n      0x00\n      add\n      0x00\n      swap1\n      sload\n      swap1\n      0x0100\n      exp\n      swap1\n      div\n      0xffffffffffffffffffffffffffffffffffffffff\n      and\n        /* \"src/libs/shop.sol\":1668:1693  Users[i].user == someUser */\n      0xffffffffffffffffffffffffffffffffffffffff\n      and\n      eq\n        /* \"src/libs/shop.sol\":1664:1772  if (Users[i].user == someUser) {\r... */\n      iszero\n      tag_144\n      jumpi\n        /* \"src/libs/shop.sol\":1728:1732  true */\n      0x01\n        /* \"src/libs/shop.sol\":1714:1732  isRegistred = true */\n      swap2\n      pop\n        /* \"src/libs/shop.sol\":1751:1756  break */\n      jump(tag_139)\n        /* \"src/libs/shop.sol\":1664:1772  if (Users[i].user == someUser) {\r... */\n    tag_144:\n        /* \"src/libs/shop.sol\":1644:1647  i++ */\n      dup1\n      dup1\n      tag_145\n      swap1\n      tag_136\n      jump\t// in\n    tag_145:\n      swap2\n      pop\n      pop\n        /* \"src/libs/shop.sol\":1606:1783  for (uint256 i = 0; i < Users.length; i++) {\r... */\n      jump(tag_138)\n    tag_139:\n      pop\n        /* \"src/libs/shop.sol\":1801:1812  isRegistred */\n      dup1\n        /* \"src/libs/shop.sol\":1793:1820  require(isRegistred, \"200\") */\n      tag_146\n      jumpi\n      mload(0x40)\n      0x08c379a000000000000000000000000000000000000000000000000000000000\n      dup2\n      mstore\n      0x04\n      add\n      tag_147\n      swap1\n      tag_148\n      jump\t// in\n    tag_147:\n      mload(0x40)\n      dup1\n      swap2\n      sub\n      swap1\n      revert\n    tag_146:\n        /* \"src/libs/shop.sol\":5684:5694  msg.sender */\n      caller\n        /* \"src/libs/shop.sol\":2499:2508  uint256 i */\n      0x00\n        /* \"src/libs/shop.sol\":2494:2767  for (uint256 i = 0; i < Users.length; i++) {\r... */\n    tag_150:\n        /* \"src/libs/shop.sol\":2518:2523  Users */\n      0x01\n        /* \"src/libs/shop.sol\":2518:2530  Users.length */\n      dup1\n      sload\n      swap1\n      pop\n        /* \"src/libs/shop.sol\":2514:2515  i */\n      dup2\n        /* \"src/libs/shop.sol\":2514:2530  i < Users.length */\n      lt\n        /* \"src/libs/shop.sol\":2494:2767  for (uint256 i = 0; i < Users.length; i++) {\r... */\n      iszero\n      tag_151\n      jumpi\n        /* \"src/libs/shop.sol\":2573:2580  newUser */\n      dup2\n        /* \"src/libs/shop.sol\":2556:2580  Users[i].user == newUser */\n      0xffffffffffffffffffffffffffffffffffffffff\n      and\n        /* \"src/libs/shop.sol\":2556:2561  Users */\n      0x01\n        /* \"src/libs/shop.sol\":2562:2563  i */\n      dup3\n        /* \"src/libs/shop.sol\":2556:2564  Users[i] */\n      dup2\n      sload\n      dup2\n      lt\n      tag_153\n      jumpi\n      tag_154\n      tag_84\n      jump\t// in\n    tag_154:\n    tag_153:\n      swap1\n      0x00\n      mstore\n      keccak256(0x00, 0x20)\n      swap1\n      0x03\n      mul\n      add\n        /* \"src/libs/shop.sol\":2556:2569  Users[i].user */\n      0x00\n      add\n      0x00\n      swap1\n      sload\n      swap1\n      0x0100\n      exp\n      swap1\n      div\n      0xffffffffffffffffffffffffffffffffffffffff\n      and\n        /* \"src/libs/shop.sol\":2556:2580  Users[i].user == newUser */\n      0xffffffffffffffffffffffffffffffffffffffff\n      and\n      eq\n        /* \"src/libs/shop.sol\":2552:2756  if (Users[i].user == newUser) {\r... */\n      iszero\n      tag_156\n      jumpi\n        /* \"src/libs/shop.sol\":2629:2630  0 */\n      0x00\n        /* \"src/libs/shop.sol\":2609:2614  Users */\n      0x01\n        /* \"src/libs/shop.sol\":2615:2616  i */\n      dup3\n        /* \"src/libs/shop.sol\":2609:2617  Users[i] */\n      dup2\n      sload\n      dup2\n      lt\n      tag_157\n      jumpi\n      tag_158\n      tag_84\n      jump\t// in\n    tag_158:\n    tag_157:\n      swap1\n      0x00\n      mstore\n      keccak256(0x00, 0x20)\n      swap1\n      0x03\n      mul\n      add\n        /* \"src/libs/shop.sol\":2609:2625  Users[i].nowRole */\n      0x02\n      add\n      sload\n        /* \"src/libs/shop.sol\":2609:2630  Users[i].nowRole == 0 */\n      eq\n        /* \"src/libs/shop.sol\":2601:2638  require(Users[i].nowRole == 0, \"100\") */\n      tag_160\n      jumpi\n      mload(0x40)\n      0x08c379a000000000000000000000000000000000000000000000000000000000\n      dup2\n      mstore\n      0x04\n      add\n      tag_161\n      swap1\n      tag_162\n      jump\t// in\n    tag_161:\n      mload(0x40)\n      dup1\n      swap2\n      sub\n      swap1\n      revert\n    tag_160:\n        /* \"src/libs/shop.sol\":2735:2740  break */\n      jump(tag_151)\n        /* \"src/libs/shop.sol\":2552:2756  if (Users[i].user == newUser) {\r... */\n    tag_156:\n        /* \"src/libs/shop.sol\":2532:2535  i++ */\n      dup1\n      dup1\n      tag_163\n      swap1\n      tag_136\n      jump\t// in\n    tag_163:\n      swap2\n      pop\n      pop\n        /* \"src/libs/shop.sol\":2494:2767  for (uint256 i = 0; i < Users.length; i++) {\r... */\n      jump(tag_150)\n    tag_151:\n      pop\n        /* \"src/libs/shop.sol\":5766:5767  1 */\n      0x01\n        /* \"src/libs/shop.sol\":5712:5717  Users */\n      dup1\n        /* \"src/libs/shop.sol\":5718:5734  RequestsForUsers */\n      0x03\n        /* \"src/libs/shop.sol\":5735:5744  idRequest */\n      dup7\n        /* \"src/libs/shop.sol\":5718:5745  RequestsForUsers[idRequest] */\n      dup2\n      sload\n      dup2\n      lt\n      tag_165\n      jumpi\n      tag_166\n      tag_84\n      jump\t// in\n    tag_166:\n    tag_165:\n      swap1\n      0x00\n      mstore\n      keccak256(0x00, 0x20)\n      swap1\n      0x03\n      mul\n      add\n        /* \"src/libs/shop.sol\":5718:5757  RequestsForUsers[idRequest].idRequester */\n      0x00\n      add\n      sload\n        /* \"src/libs/shop.sol\":5712:5758  Users[RequestsForUsers[idRequest].idRequester] */\n      dup2\n      sload\n      dup2\n      lt\n      tag_168\n      jumpi\n      tag_169\n      tag_84\n      jump\t// in\n    tag_169:\n    tag_168:\n      swap1\n      0x00\n      mstore\n      keccak256(0x00, 0x20)\n      swap1\n      0x03\n      mul\n      add\n        /* \"src/libs/shop.sol\":5712:5763  Users[RequestsForUsers[idRequest].idRequester].role */\n      0x01\n      add\n        /* \"src/libs/shop.sol\":5712:5767  Users[RequestsForUsers[idRequest].idRequester].role = 1 */\n      dup2\n      swap1\n      sstore\n      pop\n        /* \"src/libs/shop.sol\":5778:5783  Shops */\n      0x00\n        /* \"src/libs/shop.sol\":5784:5800  RequestsForUsers */\n      0x03\n        /* \"src/libs/shop.sol\":5801:5810  idRequest */\n      dup6\n        /* \"src/libs/shop.sol\":5784:5811  RequestsForUsers[idRequest] */\n      dup2\n      sload\n      dup2\n      lt\n      tag_171\n      jumpi\n      tag_172\n      tag_84\n      jump\t// in\n    tag_172:\n    tag_171:\n      swap1\n      0x00\n      mstore\n      keccak256(0x00, 0x20)\n      swap1\n      0x03\n      mul\n      add\n        /* \"src/libs/shop.sol\":5784:5818  RequestsForUsers[idRequest].idShop */\n      0x01\n      add\n      sload\n        /* \"src/libs/shop.sol\":5778:5819  Shops[RequestsForUsers[idRequest].idShop] */\n      dup2\n      sload\n      dup2\n      lt\n      tag_174\n      jumpi\n      tag_175\n      tag_84\n      jump\t// in\n    tag_175:\n    tag_174:\n      swap1\n      0x00\n      mstore\n      keccak256(0x00, 0x20)\n      swap1\n      0x04\n      mul\n      add\n        /* \"src/libs/shop.sol\":5778:5827  Shops[RequestsForUsers[idRequest].idShop].sellers */\n      0x03\n      add\n        /* \"src/libs/shop.sol\":5847:5863  RequestsForUsers */\n      0x03\n        /* \"src/libs/shop.sol\":5864:5873  idRequest */\n      dup6\n        /* \"src/libs/shop.sol\":5847:5874  RequestsForUsers[idRequest] */\n      dup2\n      sload\n      dup2\n      lt\n      tag_177\n      jumpi\n      tag_178\n      tag_84\n      jump\t// in\n    tag_178:\n    tag_177:\n      swap1\n      0x00\n      mstore\n      keccak256(0x00, 0x20)\n      swap1\n      0x03\n      mul\n      add\n        /* \"src/libs/shop.sol\":5847:5886  RequestsForUsers[idRequest].idRequester */\n      0x00\n      add\n      sload\n        /* \"src/libs/shop.sol\":5778:5897  Shops[RequestsForUsers[idRequest].idShop].sellers.push(\r... */\n      swap1\n      dup1\n      0x01\n      dup2\n      sload\n      add\n      dup1\n      dup3\n      sstore\n      dup1\n      swap2\n      pop\n      pop\n      0x01\n      swap1\n      sub\n      swap1\n      0x00\n      mstore\n      keccak256(0x00, 0x20)\n      add\n      0x00\n      swap1\n      swap2\n      swap1\n      swap2\n      swap1\n      swap2\n      pop\n      sstore\n        /* \"src/libs/shop.sol\":1876:1877  _ */\n      pop\n        /* \"src/libs/shop.sol\":1560:1885  {\r... */\n      pop\n        /* \"src/libs/shop.sol\":5585:5905  function upToSeller(uint256 idRequest)\r... */\n      pop\n      pop\n      jump\t// out\n        /* \"src/libs/shop.sol\":6862:7173  function addShop(address newShop, string memory city)\r... */\n    tag_37:\n        /* \"src/libs/shop.sol\":6947:6957  msg.sender */\n      caller\n        /* \"src/libs/shop.sol\":1571:1587  bool isRegistred */\n      0x00\n        /* \"src/libs/shop.sol\":1611:1620  uint256 i */\n      dup1\n        /* \"src/libs/shop.sol\":1606:1783  for (uint256 i = 0; i < Users.length; i++) {\r... */\n    tag_182:\n        /* \"src/libs/shop.sol\":1630:1635  Users */\n      0x01\n        /* \"src/libs/shop.sol\":1630:1642  Users.length */\n      dup1\n      sload\n      swap1\n      pop\n        /* \"src/libs/shop.sol\":1626:1627  i */\n      dup2\n        /* \"src/libs/shop.sol\":1626:1642  i < Users.length */\n      lt\n        /* \"src/libs/shop.sol\":1606:1783  for (uint256 i = 0; i < Users.length; i++) {\r... */\n      iszero\n      tag_183\n      jumpi\n        /* \"src/libs/shop.sol\":1685:1693  someUser */\n      dup3\n        /* \"src/libs/shop.sol\":1668:1693  Users[i].user == someUser */\n      0xffffffffffffffffffffffffffffffffffffffff\n      and\n        /* \"src/libs/shop.sol\":1668:1673  Users */\n      0x01\n        /* \"src/libs/shop.sol\":1674:1675  i */\n      dup3\n        /* \"src/libs/shop.sol\":1668:1676  Users[i] */\n      dup2\n      sload\n      dup2\n      lt\n      tag_185\n      jumpi\n      tag_186\n      tag_84\n      jump\t// in\n    tag_186:\n    tag_185:\n      swap1\n      0x00\n      mstore\n      keccak256(0x00, 0x20)\n      swap1\n      0x03\n      mul\n      add\n        /* \"src/libs/shop.sol\":1668:1681  Users[i].user */\n      0x00\n      add\n      0x00\n      swap1\n      sload\n      swap1\n      0x0100\n      exp\n      swap1\n      div\n      0xffffffffffffffffffffffffffffffffffffffff\n      and\n        /* \"src/libs/shop.sol\":1668:1693  Users[i].user == someUser */\n      0xffffffffffffffffffffffffffffffffffffffff\n      and\n      eq\n        /* \"src/libs/shop.sol\":1664:1772  if (Users[i].user == someUser) {\r... */\n      iszero\n      tag_188\n      jumpi\n        /* \"src/libs/shop.sol\":1728:1732  true */\n      0x01\n        /* \"src/libs/shop.sol\":1714:1732  isRegistred = true */\n      swap2\n      pop\n        /* \"src/libs/shop.sol\":1751:1756  break */\n      jump(tag_183)\n        /* \"src/libs/shop.sol\":1664:1772  if (Users[i].user == someUser) {\r... */\n    tag_188:\n        /* \"src/libs/shop.sol\":1644:1647  i++ */\n      dup1\n      dup1\n      tag_189\n      swap1\n      tag_136\n      jump\t// in\n    tag_189:\n      swap2\n      pop\n      pop\n        /* \"src/libs/shop.sol\":1606:1783  for (uint256 i = 0; i < Users.length; i++) {\r... */\n      jump(tag_182)\n    tag_183:\n      pop\n        /* \"src/libs/shop.sol\":1801:1812  isRegistred */\n      dup1\n        /* \"src/libs/shop.sol\":1793:1820  require(isRegistred, \"200\") */\n      tag_190\n      jumpi\n      mload(0x40)\n      0x08c379a000000000000000000000000000000000000000000000000000000000\n      dup2\n      mstore\n      0x04\n      add\n      tag_191\n      swap1\n      tag_148\n      jump\t// in\n    tag_191:\n      mload(0x40)\n      dup1\n      swap2\n      sub\n      swap1\n      revert\n    tag_190:\n        /* \"src/libs/shop.sol\":6976:6986  msg.sender */\n      caller\n        /* \"src/libs/shop.sol\":2499:2508  uint256 i */\n      0x00\n        /* \"src/libs/shop.sol\":2494:2767  for (uint256 i = 0; i < Users.length; i++) {\r... */\n    tag_193:\n        /* \"src/libs/shop.sol\":2518:2523  Users */\n      0x01\n        /* \"src/libs/shop.sol\":2518:2530  Users.length */\n      dup1\n      sload\n      swap1\n      pop\n        /* \"src/libs/shop.sol\":2514:2515  i */\n      dup2\n        /* \"src/libs/shop.sol\":2514:2530  i < Users.length */\n      lt\n        /* \"src/libs/shop.sol\":2494:2767  for (uint256 i = 0; i < Users.length; i++) {\r... */\n      iszero\n      tag_194\n      jumpi\n        /* \"src/libs/shop.sol\":2573:2580  newUser */\n      dup2\n        /* \"src/libs/shop.sol\":2556:2580  Users[i].user == newUser */\n      0xffffffffffffffffffffffffffffffffffffffff\n      and\n        /* \"src/libs/shop.sol\":2556:2561  Users */\n      0x01\n        /* \"src/libs/shop.sol\":2562:2563  i */\n      dup3\n        /* \"src/libs/shop.sol\":2556:2564  Users[i] */\n      dup2\n      sload\n      dup2\n      lt\n      tag_196\n      jumpi\n      tag_197\n      tag_84\n      jump\t// in\n    tag_197:\n    tag_196:\n      swap1\n      0x00\n      mstore\n      keccak256(0x00, 0x20)\n      swap1\n      0x03\n      mul\n      add\n        /* \"src/libs/shop.sol\":2556:2569  Users[i].user */\n      0x00\n      add\n      0x00\n      swap1\n      sload\n      swap1\n      0x0100\n      exp\n      swap1\n      div\n      0xffffffffffffffffffffffffffffffffffffffff\n      and\n        /* \"src/libs/shop.sol\":2556:2580  Users[i].user == newUser */\n      0xffffffffffffffffffffffffffffffffffffffff\n      and\n      eq\n        /* \"src/libs/shop.sol\":2552:2756  if (Users[i].user == newUser) {\r... */\n      iszero\n      tag_199\n      jumpi\n        /* \"src/libs/shop.sol\":2629:2630  0 */\n      0x00\n        /* \"src/libs/shop.sol\":2609:2614  Users */\n      0x01\n        /* \"src/libs/shop.sol\":2615:2616  i */\n      dup3\n        /* \"src/libs/shop.sol\":2609:2617  Users[i] */\n      dup2\n      sload\n      dup2\n      lt\n      tag_200\n      jumpi\n      tag_201\n      tag_84\n      jump\t// in\n    tag_201:\n    tag_200:\n      swap1\n      0x00\n      mstore\n      keccak256(0x00, 0x20)\n      swap1\n      0x03\n      mul\n      add\n        /* \"src/libs/shop.sol\":2609:2625  Users[i].nowRole */\n      0x02\n      add\n      sload\n        /* \"src/libs/shop.sol\":2609:2630  Users[i].nowRole == 0 */\n      eq\n        /* \"src/libs/shop.sol\":2601:2638  require(Users[i].nowRole == 0, \"100\") */\n      tag_203\n      jumpi\n      mload(0x40)\n      0x08c379a000000000000000000000000000000000000000000000000000000000\n      dup2\n      mstore\n      0x04\n      add\n      tag_204\n      swap1\n      tag_162\n      jump\t// in\n    tag_204:\n      mload(0x40)\n      dup1\n      swap2\n      sub\n      swap1\n      revert\n    tag_203:\n        /* \"src/libs/shop.sol\":2735:2740  break */\n      jump(tag_194)\n        /* \"src/libs/shop.sol\":2552:2756  if (Users[i].user == newUser) {\r... */\n    tag_199:\n        /* \"src/libs/shop.sol\":2532:2535  i++ */\n      dup1\n      dup1\n      tag_205\n      swap1\n      tag_136\n      jump\t// in\n    tag_205:\n      swap2\n      pop\n      pop\n        /* \"src/libs/shop.sol\":2494:2767  for (uint256 i = 0; i < Users.length; i++) {\r... */\n      jump(tag_193)\n    tag_194:\n      pop\n        /* \"src/libs/shop.sol\":7005:7012  newShop */\n      dup5\n        /* \"src/libs/shop.sol\":1943:1952  uint256 i */\n      0x00\n        /* \"src/libs/shop.sol\":1938:2095  for (uint256 i = 0; i < Users.length; i++) {\r... */\n    tag_207:\n        /* \"src/libs/shop.sol\":1962:1967  Users */\n      0x01\n        /* \"src/libs/shop.sol\":1962:1974  Users.length */\n      dup1\n      sload\n      swap1\n      pop\n        /* \"src/libs/shop.sol\":1958:1959  i */\n      dup2\n        /* \"src/libs/shop.sol\":1958:1974  i < Users.length */\n      lt\n        /* \"src/libs/shop.sol\":1938:2095  for (uint256 i = 0; i < Users.length; i++) {\r... */\n      iszero\n      tag_208\n      jumpi\n        /* \"src/libs/shop.sol\":2021:2028  newUser */\n      dup2\n        /* \"src/libs/shop.sol\":2004:2028  Users[i].user != newUser */\n      0xffffffffffffffffffffffffffffffffffffffff\n      and\n        /* \"src/libs/shop.sol\":2004:2009  Users */\n      0x01\n        /* \"src/libs/shop.sol\":2010:2011  i */\n      dup3\n        /* \"src/libs/shop.sol\":2004:2012  Users[i] */\n      dup2\n      sload\n      dup2\n      lt\n      tag_210\n      jumpi\n      tag_211\n      tag_84\n      jump\t// in\n    tag_211:\n    tag_210:\n      swap1\n      0x00\n      mstore\n      keccak256(0x00, 0x20)\n      swap1\n      0x03\n      mul\n      add\n        /* \"src/libs/shop.sol\":2004:2017  Users[i].user */\n      0x00\n      add\n      0x00\n      swap1\n      sload\n      swap1\n      0x0100\n      exp\n      swap1\n      div\n      0xffffffffffffffffffffffffffffffffffffffff\n      and\n        /* \"src/libs/shop.sol\":2004:2028  Users[i].user != newUser */\n      0xffffffffffffffffffffffffffffffffffffffff\n      and\n      eq\n      iszero\n        /* \"src/libs/shop.sol\":1996:2036  require(Users[i].user != newUser, \"201\") */\n      tag_213\n      jumpi\n      mload(0x40)\n      0x08c379a000000000000000000000000000000000000000000000000000000000\n      dup2\n      mstore\n      0x04\n      add\n      tag_214\n      swap1\n      tag_215\n      jump\t// in\n    tag_214:\n      mload(0x40)\n      dup1\n      swap2\n      sub\n      swap1\n      revert\n    tag_213:\n        /* \"src/libs/shop.sol\":1976:1979  i++ */\n      dup1\n      dup1\n      tag_216\n      swap1\n      tag_136\n      jump\t// in\n    tag_216:\n      swap2\n      pop\n      pop\n        /* \"src/libs/shop.sol\":1938:2095  for (uint256 i = 0; i < Users.length; i++) {\r... */\n      jump(tag_207)\n    tag_208:\n      pop\n        /* \"src/libs/shop.sol\":7036:7043  newShop */\n      dup6\n        /* \"src/libs/shop.sol\":2177:2186  uint256 i */\n      0x00\n        /* \"src/libs/shop.sol\":2172:2293  for (uint256 i = 0; i < Users.length; i++) {\r... */\n    tag_218:\n        /* \"src/libs/shop.sol\":2196:2201  Users */\n      0x01\n        /* \"src/libs/shop.sol\":2196:2208  Users.length */\n      dup1\n      sload\n      swap1\n      pop\n        /* \"src/libs/shop.sol\":2192:2193  i */\n      dup2\n        /* \"src/libs/shop.sol\":2192:2208  i < Users.length */\n      lt\n        /* \"src/libs/shop.sol\":2172:2293  for (uint256 i = 0; i < Users.length; i++) {\r... */\n      iszero\n      tag_219\n      jumpi\n        /* \"src/libs/shop.sol\":2255:2262  newShop */\n      dup2\n        /* \"src/libs/shop.sol\":2238:2262  Users[i].user != newShop */\n      0xffffffffffffffffffffffffffffffffffffffff\n      and\n        /* \"src/libs/shop.sol\":2238:2243  Users */\n      0x01\n        /* \"src/libs/shop.sol\":2244:2245  i */\n      dup3\n        /* \"src/libs/shop.sol\":2238:2246  Users[i] */\n      dup2\n      sload\n      dup2\n      lt\n      tag_221\n      jumpi\n      tag_222\n      tag_84\n      jump\t// in\n    tag_222:\n    tag_221:\n      swap1\n      0x00\n      mstore\n      keccak256(0x00, 0x20)\n      swap1\n      0x03\n      mul\n      add\n        /* \"src/libs/shop.sol\":2238:2251  Users[i].user */\n      0x00\n      add\n      0x00\n      swap1\n      sload\n      swap1\n      0x0100\n      exp\n      swap1\n      div\n      0xffffffffffffffffffffffffffffffffffffffff\n      and\n        /* \"src/libs/shop.sol\":2238:2262  Users[i].user != newShop */\n      0xffffffffffffffffffffffffffffffffffffffff\n      and\n      eq\n      iszero\n        /* \"src/libs/shop.sol\":2230:2281  require(Users[i].user != newShop, \"It isn't shop!\") */\n      tag_224\n      jumpi\n      mload(0x40)\n      0x08c379a000000000000000000000000000000000000000000000000000000000\n      dup2\n      mstore\n      0x04\n      add\n      tag_225\n      swap1\n      tag_226\n      jump\t// in\n    tag_225:\n      mload(0x40)\n      dup1\n      swap2\n      sub\n      swap1\n      revert\n    tag_224:\n        /* \"src/libs/shop.sol\":2210:2213  i++ */\n      dup1\n      dup1\n      tag_227\n      swap1\n      tag_136\n      jump\t// in\n    tag_227:\n      swap2\n      pop\n      pop\n        /* \"src/libs/shop.sol\":2172:2293  for (uint256 i = 0; i < Users.length; i++) {\r... */\n      jump(tag_218)\n    tag_219:\n      pop\n        /* \"src/libs/shop.sol\":2308:2317  uint256 i */\n      0x00\n        /* \"src/libs/shop.sol\":2303:2422  for (uint256 i = 0; i < Shops.length; i++) {\r... */\n    tag_228:\n        /* \"src/libs/shop.sol\":2327:2332  Shops */\n      0x00\n        /* \"src/libs/shop.sol\":2327:2339  Shops.length */\n      dup1\n      sload\n      swap1\n      pop\n        /* \"src/libs/shop.sol\":2323:2324  i */\n      dup2\n        /* \"src/libs/shop.sol\":2323:2339  i < Shops.length */\n      lt\n        /* \"src/libs/shop.sol\":2303:2422  for (uint256 i = 0; i < Shops.length; i++) {\r... */\n      iszero\n      tag_229\n      jumpi\n        /* \"src/libs/shop.sol\":2386:2393  newShop */\n      dup2\n        /* \"src/libs/shop.sol\":2369:2393  Shops[i].shop != newShop */\n      0xffffffffffffffffffffffffffffffffffffffff\n      and\n        /* \"src/libs/shop.sol\":2369:2374  Shops */\n      0x00\n        /* \"src/libs/shop.sol\":2375:2376  i */\n      dup3\n        /* \"src/libs/shop.sol\":2369:2377  Shops[i] */\n      dup2\n      sload\n      dup2\n      lt\n      tag_231\n      jumpi\n      tag_232\n      tag_84\n      jump\t// in\n    tag_232:\n    tag_231:\n      swap1\n      0x00\n      mstore\n      keccak256(0x00, 0x20)\n      swap1\n      0x04\n      mul\n      add\n        /* \"src/libs/shop.sol\":2369:2382  Shops[i].shop */\n      0x00\n      add\n      0x00\n      swap1\n      sload\n      swap1\n      0x0100\n      exp\n      swap1\n      div\n      0xffffffffffffffffffffffffffffffffffffffff\n      and\n        /* \"src/libs/shop.sol\":2369:2393  Shops[i].shop != newShop */\n      0xffffffffffffffffffffffffffffffffffffffff\n      and\n      eq\n      iszero\n        /* \"src/libs/shop.sol\":2361:2410  require(Shops[i].shop != newShop, \"Shop exists!\") */\n      tag_234\n      jumpi\n      mload(0x40)\n      0x08c379a000000000000000000000000000000000000000000000000000000000\n      dup2\n      mstore\n      0x04\n      add\n      tag_235\n      swap1\n      tag_236\n      jump\t// in\n    tag_235:\n      mload(0x40)\n      dup1\n      swap2\n      sub\n      swap1\n      revert\n    tag_234:\n        /* \"src/libs/shop.sol\":2341:2344  i++ */\n      dup1\n      dup1\n      tag_237\n      swap1\n      tag_136\n      jump\t// in\n    tag_237:\n      swap2\n      pop\n      pop\n        /* \"src/libs/shop.sol\":2303:2422  for (uint256 i = 0; i < Shops.length; i++) {\r... */\n      jump(tag_228)\n    tag_229:\n      pop\n        /* \"src/libs/shop.sol\":7061:7083  shop storage localShop */\n      0x00\n        /* \"src/libs/shop.sol\":7086:7091  Shops */\n      dup1\n        /* \"src/libs/shop.sol\":7086:7098  Shops.push() */\n      0x01\n      dup2\n      0x01\n      dup2\n      sload\n      add\n      dup1\n      dup3\n      sstore\n      dup1\n      swap2\n      pop\n      pop\n      sub\n      swap1\n      0x00\n      mstore\n      keccak256(0x00, 0x20)\n      swap1\n      0x04\n      mul\n      add\n        /* \"src/libs/shop.sol\":7061:7098  shop storage localShop = Shops.push() */\n      swap1\n      pop\n        /* \"src/libs/shop.sol\":7126:7133  newShop */\n      dup8\n        /* \"src/libs/shop.sol\":7109:7118  localShop */\n      dup2\n        /* \"src/libs/shop.sol\":7109:7123  localShop.shop */\n      0x00\n      add\n      0x00\n        /* \"src/libs/shop.sol\":7109:7133  localShop.shop = newShop */\n      0x0100\n      exp\n      dup2\n      sload\n      dup2\n      0xffffffffffffffffffffffffffffffffffffffff\n      mul\n      not\n      and\n      swap1\n      dup4\n      0xffffffffffffffffffffffffffffffffffffffff\n      and\n      mul\n      or\n      swap1\n      sstore\n      pop\n        /* \"src/libs/shop.sol\":7161:7165  city */\n      dup7\n        /* \"src/libs/shop.sol\":7144:7153  localShop */\n      dup2\n        /* \"src/libs/shop.sol\":7144:7158  localShop.city */\n      0x01\n      add\n        /* \"src/libs/shop.sol\":7144:7165  localShop.city = city */\n      swap1\n      dup1\n      mload\n      swap1\n      0x20\n      add\n      swap1\n      tag_240\n      swap3\n      swap2\n      swap1\n      tag_119\n      jump\t// in\n    tag_240:\n      pop\n        /* \"src/libs/shop.sol\":7050:7173  {\r... */\n      pop\n        /* \"src/libs/shop.sol\":2105:2106  _ */\n      pop\n        /* \"src/libs/shop.sol\":2777:2778  _ */\n      pop\n        /* \"src/libs/shop.sol\":1876:1877  _ */\n      pop\n        /* \"src/libs/shop.sol\":1560:1885  {\r... */\n      pop\n        /* \"src/libs/shop.sol\":6862:7173  function addShop(address newShop, string memory city)\r... */\n      pop\n      pop\n      pop\n      jump\t// out\n        /* \"src/libs/shop.sol\":8709:8800  function view_Shops() public view returns (shop[] memory) {\r... */\n    tag_39:\n        /* \"src/libs/shop.sol\":8752:8765  shop[] memory */\n      0x60\n        /* \"src/libs/shop.sol\":8786:8791  Shops */\n      0x00\n        /* \"src/libs/shop.sol\":8778:8792  return (Shops) */\n      dup1\n      sload\n      dup1\n      0x20\n      mul\n      0x20\n      add\n      mload(0x40)\n      swap1\n      dup2\n      add\n      0x40\n      mstore\n      dup1\n      swap3\n      swap2\n      swap1\n      dup2\n      dup2\n      mstore\n      0x20\n      add\n      0x00\n      swap1\n    tag_242:\n      dup3\n      dup3\n      lt\n      iszero\n      tag_243\n      jumpi\n      dup4\n      dup3\n      swap1\n      0x00\n      mstore\n      keccak256(0x00, 0x20)\n      swap1\n      0x04\n      mul\n      add\n      mload(0x40)\n      dup1\n      0x80\n      add\n      0x40\n      mstore\n      swap1\n      dup2\n      0x00\n      dup3\n      add\n      0x00\n      swap1\n      sload\n      swap1\n      0x0100\n      exp\n      swap1\n      div\n      0xffffffffffffffffffffffffffffffffffffffff\n      and\n      0xffffffffffffffffffffffffffffffffffffffff\n      and\n      0xffffffffffffffffffffffffffffffffffffffff\n      and\n      dup2\n      mstore\n      0x20\n      add\n      0x01\n      dup3\n      add\n      dup1\n      sload\n      tag_245\n      swap1\n      tag_246\n      jump\t// in\n    tag_245:\n      dup1\n      0x1f\n      add\n      0x20\n      dup1\n      swap2\n      div\n      mul\n      0x20\n      add\n      mload(0x40)\n      swap1\n      dup2\n      add\n      0x40\n      mstore\n      dup1\n      swap3\n      swap2\n      swap1\n      dup2\n      dup2\n      mstore\n      0x20\n      add\n      dup3\n      dup1\n      sload\n      tag_247\n      swap1\n      tag_246\n      jump\t// in\n    tag_247:\n      dup1\n      iszero\n      tag_248\n      jumpi\n      dup1\n      0x1f\n      lt\n      tag_249\n      jumpi\n      0x0100\n      dup1\n      dup4\n      sload\n      div\n      mul\n      dup4\n      mstore\n      swap2\n      0x20\n      add\n      swap2\n      jump(tag_248)\n    tag_249:\n      dup3\n      add\n      swap2\n      swap1\n      0x00\n      mstore\n      keccak256(0x00, 0x20)\n      swap1\n    tag_250:\n      dup2\n      sload\n      dup2\n      mstore\n      swap1\n      0x01\n      add\n      swap1\n      0x20\n      add\n      dup1\n      dup4\n      gt\n      tag_250\n      jumpi\n      dup3\n      swap1\n      sub\n      0x1f\n      and\n      dup3\n      add\n      swap2\n    tag_248:\n      pop\n      pop\n      pop\n      pop\n      pop\n      dup2\n      mstore\n      0x20\n      add\n      0x02\n      dup3\n      add\n      dup1\n      sload\n      dup1\n      0x20\n      mul\n      0x20\n      add\n      mload(0x40)\n      swap1\n      dup2\n      add\n      0x40\n      mstore\n      dup1\n      swap3\n      swap2\n      swap1\n      dup2\n      dup2\n      mstore\n      0x20\n      add\n      0x00\n      swap1\n    tag_251:\n      dup3\n      dup3\n      lt\n      iszero\n      tag_252\n      jumpi\n      dup4\n      dup3\n      swap1\n      0x00\n      mstore\n      keccak256(0x00, 0x20)\n      swap1\n      0x05\n      mul\n      add\n      mload(0x40)\n      dup1\n      0xa0\n      add\n      0x40\n      mstore\n      swap1\n      dup2\n      0x00\n      dup3\n      add\n      0x00\n      swap1\n      sload\n      swap1\n      0x0100\n      exp\n      swap1\n      div\n      0xffffffffffffffffffffffffffffffffffffffff\n      and\n      0xffffffffffffffffffffffffffffffffffffffff\n      and\n      0xffffffffffffffffffffffffffffffffffffffff\n      and\n      dup2\n      mstore\n      0x20\n      add\n      0x01\n      dup3\n      add\n      sload\n      dup2\n      mstore\n      0x20\n      add\n      0x02\n      dup3\n      add\n      dup1\n      sload\n      dup1\n      0x20\n      mul\n      0x20\n      add\n      mload(0x40)\n      swap1\n      dup2\n      add\n      0x40\n      mstore\n      dup1\n      swap3\n      swap2\n      swap1\n      dup2\n      dup2\n      mstore\n      0x20\n      add\n      0x00\n      swap1\n    tag_254:\n      dup3\n      dup3\n      lt\n      iszero\n      tag_255\n      jumpi\n      dup4\n      dup3\n      swap1\n      0x00\n      mstore\n      keccak256(0x00, 0x20)\n      add\n      mload(0x40)\n      dup1\n      0x40\n      add\n      0x40\n      mstore\n      swap1\n      dup2\n      0x00\n      dup3\n      add\n      0x00\n      swap1\n      sload\n      swap1\n      0x0100\n      exp\n      swap1\n      div\n      0xffffffffffffffffffffffffffffffffffffffff\n      and\n      0xffffffffffffffffffffffffffffffffffffffff\n      and\n      0xffffffffffffffffffffffffffffffffffffffff\n      and\n      dup2\n      mstore\n      0x20\n      add\n      0x00\n      dup3\n      add\n      0x14\n      swap1\n      sload\n      swap1\n      0x0100\n      exp\n      swap1\n      div\n      0xff\n      and\n      iszero\n      iszero\n      iszero\n      iszero\n      dup2\n      mstore\n      pop\n      pop\n      dup2\n      mstore\n      0x20\n      add\n      swap1\n      0x01\n      add\n      swap1\n      jump(tag_254)\n    tag_255:\n      pop\n      pop\n      pop\n      pop\n      dup2\n      mstore\n      0x20\n      add\n      0x03\n      dup3\n      add\n      dup1\n      sload\n      dup1\n      0x20\n      mul\n      0x20\n      add\n      mload(0x40)\n      swap1\n      dup2\n      add\n      0x40\n      mstore\n      dup1\n      swap3\n      swap2\n      swap1\n      dup2\n      dup2\n      mstore\n      0x20\n      add\n      0x00\n      swap1\n    tag_257:\n      dup3\n      dup3\n      lt\n      iszero\n      tag_258\n      jumpi\n      dup4\n      dup3\n      swap1\n      0x00\n      mstore\n      keccak256(0x00, 0x20)\n      swap1\n      0x03\n      mul\n      add\n      mload(0x40)\n      dup1\n      0x60\n      add\n      0x40\n      mstore\n      swap1\n      dup2\n      0x00\n      dup3\n      add\n      0x00\n      swap1\n      sload\n      swap1\n      0x0100\n      exp\n      swap1\n      div\n      0xffffffffffffffffffffffffffffffffffffffff\n      and\n      0xffffffffffffffffffffffffffffffffffffffff\n      and\n      0xffffffffffffffffffffffffffffffffffffffff\n      and\n      dup2\n      mstore\n      0x20\n      add\n      0x01\n      dup3\n      add\n      dup1\n      sload\n      dup1\n      0x20\n      mul\n      0x20\n      add\n      mload(0x40)\n      swap1\n      dup2\n      add\n      0x40\n      mstore\n      dup1\n      swap3\n      swap2\n      swap1\n      dup2\n      dup2\n      mstore\n      0x20\n      add\n      0x00\n      swap1\n    tag_260:\n      dup3\n      dup3\n      lt\n      iszero\n      tag_261\n      jumpi\n      dup4\n      dup3\n      swap1\n      0x00\n      mstore\n      keccak256(0x00, 0x20)\n      add\n      mload(0x40)\n      dup1\n      0x40\n      add\n      0x40\n      mstore\n      swap1\n      dup2\n      0x00\n      dup3\n      add\n      0x00\n      swap1\n      sload\n      swap1\n      0x0100\n      exp\n      swap1\n      div\n      0xffffffffffffffffffffffffffffffffffffffff\n      and\n      0xffffffffffffffffffffffffffffffffffffffff\n      and\n      0xffffffffffffffffffffffffffffffffffffffff\n      and\n      dup2\n      mstore\n      0x20\n      add\n      0x00\n      dup3\n      add\n      0x14\n      swap1\n      sload\n      swap1\n      0x0100\n      exp\n      swap1\n      div\n      0xff\n      and\n      iszero\n      iszero\n      iszero\n      iszero\n      dup2\n      mstore\n      pop\n      pop\n      dup2\n      mstore\n      0x20\n      add\n      swap1\n      0x01\n      add\n      swap1\n      jump(tag_260)\n    tag_261:\n      pop\n      pop\n      pop\n      pop\n      dup2\n      mstore\n      0x20\n      add\n      0x02\n      dup3\n      add\n      dup1\n      sload\n      tag_263\n      swap1\n      tag_246\n      jump\t// in\n    tag_263:\n      dup1\n      0x1f\n      add\n      0x20\n      dup1\n      swap2\n      div\n      mul\n      0x20\n      add\n      mload(0x40)\n      swap1\n      dup2\n      add\n      0x40\n      mstore\n      dup1\n      swap3\n      swap2\n      swap1\n      dup2\n      dup2\n      mstore\n      0x20\n      add\n      dup3\n      dup1\n      sload\n      tag_264\n      swap1\n      tag_246\n      jump\t// in\n    tag_264:\n      dup1\n      iszero\n      tag_265\n      jumpi\n      dup1\n      0x1f\n      lt\n      tag_266\n      jumpi\n      0x0100\n      dup1\n      dup4\n      sload\n      div\n      mul\n      dup4\n      mstore\n      swap2\n      0x20\n      add\n      swap2\n      jump(tag_265)\n    tag_266:\n      dup3\n      add\n      swap2\n      swap1\n      0x00\n      mstore\n      keccak256(0x00, 0x20)\n      swap1\n    tag_267:\n      dup2\n      sload\n      dup2\n      mstore\n      swap1\n      0x01\n      add\n      swap1\n      0x20\n      add\n      dup1\n      dup4\n      gt\n      tag_267\n      jumpi\n      dup3\n      swap1\n      sub\n      0x1f\n      and\n      dup3\n      add\n      swap2\n    tag_265:\n      pop\n      pop\n      pop\n      pop\n      pop\n      dup2\n      mstore\n      pop\n      pop\n      dup2\n      mstore\n      0x20\n      add\n      swap1\n      0x01\n      add\n      swap1\n      jump(tag_257)\n    tag_258:\n      pop\n      pop\n      pop\n      pop\n      dup2\n      mstore\n      0x20\n      add\n      0x04\n      dup3\n      add\n      dup1\n      sload\n      tag_268\n      swap1\n      tag_246\n      jump\t// in\n    tag_268:\n      dup1\n      0x1f\n      add\n      0x20\n      dup1\n      swap2\n      div\n      mul\n      0x20\n      add\n      mload(0x40)\n      swap1\n      dup2\n      add\n      0x40\n      mstore\n      dup1\n      swap3\n      swap2\n      swap1\n      dup2\n      dup2\n      mstore\n      0x20\n      add\n      dup3\n      dup1\n      sload\n      tag_269\n      swap1\n      tag_246\n      jump\t// in\n    tag_269:\n      dup1\n      iszero\n      tag_270\n      jumpi\n      dup1\n      0x1f\n      lt\n      tag_271\n      jumpi\n      0x0100\n      dup1\n      dup4\n      sload\n      div\n      mul\n      dup4\n      mstore\n      swap2\n      0x20\n      add\n      swap2\n      jump(tag_270)\n    tag_271:\n      dup3\n      add\n      swap2\n      swap1\n      0x00\n      mstore\n      keccak256(0x00, 0x20)\n      swap1\n    tag_272:\n      dup2\n      sload\n      dup2\n      mstore\n      swap1\n      0x01\n      add\n      swap1\n      0x20\n      add\n      dup1\n      dup4\n      gt\n      tag_272\n      jumpi\n      dup3\n      swap1\n      sub\n      0x1f\n      and\n      dup3\n      add\n      swap2\n    tag_270:\n      pop\n      pop\n      pop\n      pop\n      pop\n      dup2\n      mstore\n      pop\n      pop\n      dup2\n      mstore\n      0x20\n      add\n      swap1\n      0x01\n      add\n      swap1\n      jump(tag_251)\n    tag_252:\n      pop\n      pop\n      pop\n      pop\n      dup2\n      mstore\n      0x20\n      add\n      0x03\n      dup3\n      add\n      dup1\n      sload\n      dup1\n      0x20\n      mul\n      0x20\n      add\n      mload(0x40)\n      swap1\n      dup2\n      add\n      0x40\n      mstore\n      dup1\n      swap3\n      swap2\n      swap1\n      dup2\n      dup2\n      mstore\n      0x20\n      add\n      dup3\n      dup1\n      sload\n      dup1\n      iszero\n      tag_273\n      jumpi\n      0x20\n      mul\n      dup3\n      add\n      swap2\n      swap1\n      0x00\n      mstore\n      keccak256(0x00, 0x20)\n      swap1\n    tag_274:\n      dup2\n      sload\n      dup2\n      mstore\n      0x20\n      add\n      swap1\n      0x01\n      add\n      swap1\n      dup1\n      dup4\n      gt\n      tag_274\n      jumpi\n    tag_273:\n      pop\n      pop\n      pop\n      pop\n      pop\n      dup2\n      mstore\n      pop\n      pop\n      dup2\n      mstore\n      0x20\n      add\n      swap1\n      0x01\n      add\n      swap1\n      jump(tag_242)\n    tag_243:\n      pop\n      pop\n      pop\n      pop\n      swap1\n      pop\n        /* \"src/libs/shop.sol\":8709:8800  function view_Shops() public view returns (shop[] memory) {\r... */\n      swap1\n      jump\t// out\n        /* \"src/libs/shop.sol\":4558:4991  function globalSwitchRequest() public {\r... */\n    tag_43:\n        /* \"src/libs/shop.sol\":4612:4621  uint256 i */\n      0x00\n        /* \"src/libs/shop.sol\":4607:4984  for (uint256 i = 0; i < Users.length; i++) {\r... */\n    tag_276:\n        /* \"src/libs/shop.sol\":4631:4636  Users */\n      0x01\n        /* \"src/libs/shop.sol\":4631:4643  Users.length */\n      dup1\n      sload\n      swap1\n      pop\n        /* \"src/libs/shop.sol\":4627:4628  i */\n      dup2\n        /* \"src/libs/shop.sol\":4627:4643  i < Users.length */\n      lt\n        /* \"src/libs/shop.sol\":4607:4984  for (uint256 i = 0; i < Users.length; i++) {\r... */\n      iszero\n      tag_277\n      jumpi\n        /* \"src/libs/shop.sol\":4686:4696  msg.sender */\n      caller\n        /* \"src/libs/shop.sol\":4669:4696  Users[i].user == msg.sender */\n      0xffffffffffffffffffffffffffffffffffffffff\n      and\n        /* \"src/libs/shop.sol\":4669:4674  Users */\n      0x01\n        /* \"src/libs/shop.sol\":4675:4676  i */\n      dup3\n        /* \"src/libs/shop.sol\":4669:4677  Users[i] */\n      dup2\n      sload\n      dup2\n      lt\n      tag_279\n      jumpi\n      tag_280\n      tag_84\n      jump\t// in\n    tag_280:\n    tag_279:\n      swap1\n      0x00\n      mstore\n      keccak256(0x00, 0x20)\n      swap1\n      0x03\n      mul\n      add\n        /* \"src/libs/shop.sol\":4669:4682  Users[i].user */\n      0x00\n      add\n      0x00\n      swap1\n      sload\n      swap1\n      0x0100\n      exp\n      swap1\n      div\n      0xffffffffffffffffffffffffffffffffffffffff\n      and\n        /* \"src/libs/shop.sol\":4669:4696  Users[i].user == msg.sender */\n      0xffffffffffffffffffffffffffffffffffffffff\n      and\n      eq\n        /* \"src/libs/shop.sol\":4665:4973  if (Users[i].user == msg.sender) {\r... */\n      iszero\n      tag_282\n      jumpi\n        /* \"src/libs/shop.sol\":4742:4743  0 */\n      0x00\n        /* \"src/libs/shop.sol\":4725:4730  Users */\n      0x01\n        /* \"src/libs/shop.sol\":4731:4732  i */\n      dup3\n        /* \"src/libs/shop.sol\":4725:4733  Users[i] */\n      dup2\n      sload\n      dup2\n      lt\n      tag_283\n      jumpi\n      tag_284\n      tag_84\n      jump\t// in\n    tag_284:\n    tag_283:\n      swap1\n      0x00\n      mstore\n      keccak256(0x00, 0x20)\n      swap1\n      0x03\n      mul\n      add\n        /* \"src/libs/shop.sol\":4725:4738  Users[i].role */\n      0x01\n      add\n      sload\n        /* \"src/libs/shop.sol\":4725:4743  Users[i].role != 0 */\n      eq\n      iszero\n        /* \"src/libs/shop.sol\":4717:4751  require(Users[i].role != 0, \"104\") */\n      tag_286\n      jumpi\n      mload(0x40)\n      0x08c379a000000000000000000000000000000000000000000000000000000000\n      dup2\n      mstore\n      0x04\n      add\n      tag_287\n      swap1\n      tag_133\n      jump\t// in\n    tag_287:\n      mload(0x40)\n      dup1\n      swap2\n      sub\n      swap1\n      revert\n    tag_286:\n        /* \"src/libs/shop.sol\":4882:4900  RequestsForSellers */\n      0x02\n        /* \"src/libs/shop.sol\":4906:4932  requestForSeller(i, false) */\n      mload(0x40)\n      dup1\n      0x40\n      add\n      0x40\n      mstore\n      dup1\n        /* \"src/libs/shop.sol\":4923:4924  i */\n      dup4\n        /* \"src/libs/shop.sol\":4906:4932  requestForSeller(i, false) */\n      dup2\n      mstore\n      0x20\n      add\n        /* \"src/libs/shop.sol\":4926:4931  false */\n      0x00\n        /* \"src/libs/shop.sol\":4906:4932  requestForSeller(i, false) */\n      iszero\n      iszero\n      dup2\n      mstore\n      pop\n        /* \"src/libs/shop.sol\":4882:4933  RequestsForSellers.push(requestForSeller(i, false)) */\n      swap1\n      dup1\n      0x01\n      dup2\n      sload\n      add\n      dup1\n      dup3\n      sstore\n      dup1\n      swap2\n      pop\n      pop\n      0x01\n      swap1\n      sub\n      swap1\n      0x00\n      mstore\n      keccak256(0x00, 0x20)\n      swap1\n      0x02\n      mul\n      add\n      0x00\n      swap1\n      swap2\n      swap1\n      swap2\n      swap1\n      swap2\n      pop\n      0x00\n      dup3\n      add\n      mload\n      dup2\n      0x00\n      add\n      sstore\n      0x20\n      dup3\n      add\n      mload\n      dup2\n      0x01\n      add\n      exp(0x0100, 0x00)\n      dup2\n      sload\n      dup2\n      0xff\n      mul\n      not\n      and\n      swap1\n      dup4\n      iszero\n      iszero\n      mul\n      or\n      swap1\n      sstore\n      pop\n      pop\n      pop\n        /* \"src/libs/shop.sol\":4952:4957  break */\n      jump(tag_277)\n        /* \"src/libs/shop.sol\":4665:4973  if (Users[i].user == msg.sender) {\r... */\n    tag_282:\n        /* \"src/libs/shop.sol\":4645:4648  i++ */\n      dup1\n      dup1\n      tag_289\n      swap1\n      tag_136\n      jump\t// in\n    tag_289:\n      swap2\n      pop\n      pop\n        /* \"src/libs/shop.sol\":4607:4984  for (uint256 i = 0; i < Users.length; i++) {\r... */\n      jump(tag_276)\n    tag_277:\n      pop\n        /* \"src/libs/shop.sol\":4558:4991  function globalSwitchRequest() public {\r... */\n      jump\t// out\n        /* \"src/libs/shop.sol\":5913:6432  function downToUser(uint256 idRequest)\r... */\n    tag_46:\n        /* \"src/libs/shop.sol\":5983:5993  msg.sender */\n      caller\n        /* \"src/libs/shop.sol\":1571:1587  bool isRegistred */\n      0x00\n        /* \"src/libs/shop.sol\":1611:1620  uint256 i */\n      dup1\n        /* \"src/libs/shop.sol\":1606:1783  for (uint256 i = 0; i < Users.length; i++) {\r... */\n    tag_291:\n        /* \"src/libs/shop.sol\":1630:1635  Users */\n      0x01\n        /* \"src/libs/shop.sol\":1630:1642  Users.length */\n      dup1\n      sload\n      swap1\n      pop\n        /* \"src/libs/shop.sol\":1626:1627  i */\n      dup2\n        /* \"src/libs/shop.sol\":1626:1642  i < Users.length */\n      lt\n        /* \"src/libs/shop.sol\":1606:1783  for (uint256 i = 0; i < Users.length; i++) {\r... */\n      iszero\n      tag_292\n      jumpi\n        /* \"src/libs/shop.sol\":1685:1693  someUser */\n      dup3\n        /* \"src/libs/shop.sol\":1668:1693  Users[i].user == someUser */\n      0xffffffffffffffffffffffffffffffffffffffff\n      and\n        /* \"src/libs/shop.sol\":1668:1673  Users */\n      0x01\n        /* \"src/libs/shop.sol\":1674:1675  i */\n      dup3\n        /* \"src/libs/shop.sol\":1668:1676  Users[i] */\n      dup2\n      sload\n      dup2\n      lt\n      tag_294\n      jumpi\n      tag_295\n      tag_84\n      jump\t// in\n    tag_295:\n    tag_294:\n      swap1\n      0x00\n      mstore\n      keccak256(0x00, 0x20)\n      swap1\n      0x03\n      mul\n      add\n        /* \"src/libs/shop.sol\":1668:1681  Users[i].user */\n      0x00\n      add\n      0x00\n      swap1\n      sload\n      swap1\n      0x0100\n      exp\n      swap1\n      div\n      0xffffffffffffffffffffffffffffffffffffffff\n      and\n        /* \"src/libs/shop.sol\":1668:1693  Users[i].user == someUser */\n      0xffffffffffffffffffffffffffffffffffffffff\n      and\n      eq\n        /* \"src/libs/shop.sol\":1664:1772  if (Users[i].user == someUser) {\r... */\n      iszero\n      tag_297\n      jumpi\n        /* \"src/libs/shop.sol\":1728:1732  true */\n      0x01\n        /* \"src/libs/shop.sol\":1714:1732  isRegistred = true */\n      swap2\n      pop\n        /* \"src/libs/shop.sol\":1751:1756  break */\n      jump(tag_292)\n        /* \"src/libs/shop.sol\":1664:1772  if (Users[i].user == someUser) {\r... */\n    tag_297:\n        /* \"src/libs/shop.sol\":1644:1647  i++ */\n      dup1\n      dup1\n      tag_298\n      swap1\n      tag_136\n      jump\t// in\n    tag_298:\n      swap2\n      pop\n      pop\n        /* \"src/libs/shop.sol\":1606:1783  for (uint256 i = 0; i < Users.length; i++) {\r... */\n      jump(tag_291)\n    tag_292:\n      pop\n        /* \"src/libs/shop.sol\":1801:1812  isRegistred */\n      dup1\n        /* \"src/libs/shop.sol\":1793:1820  require(isRegistred, \"200\") */\n      tag_299\n      jumpi\n      mload(0x40)\n      0x08c379a000000000000000000000000000000000000000000000000000000000\n      dup2\n      mstore\n      0x04\n      add\n      tag_300\n      swap1\n      tag_148\n      jump\t// in\n    tag_300:\n      mload(0x40)\n      dup1\n      swap2\n      sub\n      swap1\n      revert\n    tag_299:\n        /* \"src/libs/shop.sol\":6012:6022  msg.sender */\n      caller\n        /* \"src/libs/shop.sol\":2499:2508  uint256 i */\n      0x00\n        /* \"src/libs/shop.sol\":2494:2767  for (uint256 i = 0; i < Users.length; i++) {\r... */\n    tag_302:\n        /* \"src/libs/shop.sol\":2518:2523  Users */\n      0x01\n        /* \"src/libs/shop.sol\":2518:2530  Users.length */\n      dup1\n      sload\n      swap1\n      pop\n        /* \"src/libs/shop.sol\":2514:2515  i */\n      dup2\n        /* \"src/libs/shop.sol\":2514:2530  i < Users.length */\n      lt\n        /* \"src/libs/shop.sol\":2494:2767  for (uint256 i = 0; i < Users.length; i++) {\r... */\n      iszero\n      tag_303\n      jumpi\n        /* \"src/libs/shop.sol\":2573:2580  newUser */\n      dup2\n        /* \"src/libs/shop.sol\":2556:2580  Users[i].user == newUser */\n      0xffffffffffffffffffffffffffffffffffffffff\n      and\n        /* \"src/libs/shop.sol\":2556:2561  Users */\n      0x01\n        /* \"src/libs/shop.sol\":2562:2563  i */\n      dup3\n        /* \"src/libs/shop.sol\":2556:2564  Users[i] */\n      dup2\n      sload\n      dup2\n      lt\n      tag_305\n      jumpi\n      tag_306\n      tag_84\n      jump\t// in\n    tag_306:\n    tag_305:\n      swap1\n      0x00\n      mstore\n      keccak256(0x00, 0x20)\n      swap1\n      0x03\n      mul\n      add\n        /* \"src/libs/shop.sol\":2556:2569  Users[i].user */\n      0x00\n      add\n      0x00\n      swap1\n      sload\n      swap1\n      0x0100\n      exp\n      swap1\n      div\n      0xffffffffffffffffffffffffffffffffffffffff\n      and\n        /* \"src/libs/shop.sol\":2556:2580  Users[i].user == newUser */\n      0xffffffffffffffffffffffffffffffffffffffff\n      and\n      eq\n        /* \"src/libs/shop.sol\":2552:2756  if (Users[i].user == newUser) {\r... */\n      iszero\n      tag_308\n      jumpi\n        /* \"src/libs/shop.sol\":2629:2630  0 */\n      0x00\n        /* \"src/libs/shop.sol\":2609:2614  Users */\n      0x01\n        /* \"src/libs/shop.sol\":2615:2616  i */\n      dup3\n        /* \"src/libs/shop.sol\":2609:2617  Users[i] */\n      dup2\n      sload\n      dup2\n      lt\n      tag_309\n      jumpi\n      tag_310\n      tag_84\n      jump\t// in\n    tag_310:\n    tag_309:\n      swap1\n      0x00\n      mstore\n      keccak256(0x00, 0x20)\n      swap1\n      0x03\n      mul\n      add\n        /* \"src/libs/shop.sol\":2609:2625  Users[i].nowRole */\n      0x02\n      add\n      sload\n        /* \"src/libs/shop.sol\":2609:2630  Users[i].nowRole == 0 */\n      eq\n        /* \"src/libs/shop.sol\":2601:2638  require(Users[i].nowRole == 0, \"100\") */\n      tag_312\n      jumpi\n      mload(0x40)\n      0x08c379a000000000000000000000000000000000000000000000000000000000\n      dup2\n      mstore\n      0x04\n      add\n      tag_313\n      swap1\n      tag_162\n      jump\t// in\n    tag_313:\n      mload(0x40)\n      dup1\n      swap2\n      sub\n      swap1\n      revert\n    tag_312:\n        /* \"src/libs/shop.sol\":2735:2740  break */\n      jump(tag_303)\n        /* \"src/libs/shop.sol\":2552:2756  if (Users[i].user == newUser) {\r... */\n    tag_308:\n        /* \"src/libs/shop.sol\":2532:2535  i++ */\n      dup1\n      dup1\n      tag_314\n      swap1\n      tag_136\n      jump\t// in\n    tag_314:\n      swap2\n      pop\n      pop\n        /* \"src/libs/shop.sol\":2494:2767  for (uint256 i = 0; i < Users.length; i++) {\r... */\n      jump(tag_302)\n    tag_303:\n      pop\n        /* \"src/libs/shop.sol\":6045:6054  uint256 i */\n      0x00\n        /* \"src/libs/shop.sol\":6040:6425  for (uint256 i = 0; i < Shops.length; i++) {\r... */\n    tag_316:\n        /* \"src/libs/shop.sol\":6064:6069  Shops */\n      0x00\n        /* \"src/libs/shop.sol\":6064:6076  Shops.length */\n      dup1\n      sload\n      swap1\n      pop\n        /* \"src/libs/shop.sol\":6060:6061  i */\n      dup2\n        /* \"src/libs/shop.sol\":6060:6076  i < Shops.length */\n      lt\n        /* \"src/libs/shop.sol\":6040:6425  for (uint256 i = 0; i < Shops.length; i++) {\r... */\n      iszero\n      tag_317\n      jumpi\n        /* \"src/libs/shop.sol\":6103:6112  uint256 j */\n      0x00\n        /* \"src/libs/shop.sol\":6098:6414  for (uint256 j = 0; j < Shops[i].sellers.length; j++) {\r... */\n    tag_319:\n        /* \"src/libs/shop.sol\":6122:6127  Shops */\n      0x00\n        /* \"src/libs/shop.sol\":6128:6129  i */\n      dup3\n        /* \"src/libs/shop.sol\":6122:6130  Shops[i] */\n      dup2\n      sload\n      dup2\n      lt\n      tag_322\n      jumpi\n      tag_323\n      tag_84\n      jump\t// in\n    tag_323:\n    tag_322:\n      swap1\n      0x00\n      mstore\n      keccak256(0x00, 0x20)\n      swap1\n      0x04\n      mul\n      add\n        /* \"src/libs/shop.sol\":6122:6138  Shops[i].sellers */\n      0x03\n      add\n        /* \"src/libs/shop.sol\":6122:6145  Shops[i].sellers.length */\n      dup1\n      sload\n      swap1\n      pop\n        /* \"src/libs/shop.sol\":6118:6119  j */\n      dup2\n        /* \"src/libs/shop.sol\":6118:6145  j < Shops[i].sellers.length */\n      lt\n        /* \"src/libs/shop.sol\":6098:6414  for (uint256 j = 0; j < Shops[i].sellers.length; j++) {\r... */\n      iszero\n      tag_320\n      jumpi\n        /* \"src/libs/shop.sol\":6263:6268  Shops */\n      0x00\n        /* \"src/libs/shop.sol\":6269:6270  i */\n      dup3\n        /* \"src/libs/shop.sol\":6263:6271  Shops[i] */\n      dup2\n      sload\n      dup2\n      lt\n      tag_325\n      jumpi\n      tag_326\n      tag_84\n      jump\t// in\n    tag_326:\n    tag_325:\n      swap1\n      0x00\n      mstore\n      keccak256(0x00, 0x20)\n      swap1\n      0x04\n      mul\n      add\n        /* \"src/libs/shop.sol\":6263:6279  Shops[i].sellers */\n      0x03\n      add\n        /* \"src/libs/shop.sol\":6280:6281  j */\n      dup2\n        /* \"src/libs/shop.sol\":6263:6282  Shops[i].sellers[j] */\n      dup2\n      sload\n      dup2\n      lt\n      tag_328\n      jumpi\n      tag_329\n      tag_84\n      jump\t// in\n    tag_329:\n    tag_328:\n      swap1\n      0x00\n      mstore\n      keccak256(0x00, 0x20)\n      add\n      sload\n        /* \"src/libs/shop.sol\":6197:6215  RequestsForSellers */\n      0x02\n        /* \"src/libs/shop.sol\":6216:6225  idRequest */\n      dup8\n        /* \"src/libs/shop.sol\":6197:6226  RequestsForSellers[idRequest] */\n      dup2\n      sload\n      dup2\n      lt\n      tag_331\n      jumpi\n      tag_332\n      tag_84\n      jump\t// in\n    tag_332:\n    tag_331:\n      swap1\n      0x00\n      mstore\n      keccak256(0x00, 0x20)\n      swap1\n      0x02\n      mul\n      add\n        /* \"src/libs/shop.sol\":6197:6238  RequestsForSellers[idRequest].idRequester */\n      0x00\n      add\n      sload\n        /* \"src/libs/shop.sol\":6197:6282  RequestsForSellers[idRequest].idRequester ==\r... */\n      eq\n        /* \"src/libs/shop.sol\":6171:6399  if (\r... */\n      iszero\n      tag_334\n      jumpi\n        /* \"src/libs/shop.sol\":6332:6337  Shops */\n      0x00\n        /* \"src/libs/shop.sol\":6338:6339  i */\n      dup3\n        /* \"src/libs/shop.sol\":6332:6340  Shops[i] */\n      dup2\n      sload\n      dup2\n      lt\n      tag_335\n      jumpi\n      tag_336\n      tag_84\n      jump\t// in\n    tag_336:\n    tag_335:\n      swap1\n      0x00\n      mstore\n      keccak256(0x00, 0x20)\n      swap1\n      0x04\n      mul\n      add\n        /* \"src/libs/shop.sol\":6332:6348  Shops[i].sellers */\n      0x03\n      add\n        /* \"src/libs/shop.sol\":6349:6350  j */\n      dup2\n        /* \"src/libs/shop.sol\":6332:6351  Shops[i].sellers[j] */\n      dup2\n      sload\n      dup2\n      lt\n      tag_338\n      jumpi\n      tag_339\n      tag_84\n      jump\t// in\n    tag_339:\n    tag_338:\n      swap1\n      0x00\n      mstore\n      keccak256(0x00, 0x20)\n      add\n        /* \"src/libs/shop.sol\":6325:6351  delete Shops[i].sellers[j] */\n      0x00\n      swap1\n      sstore\n        /* \"src/libs/shop.sol\":6374:6379  break */\n      jump(tag_320)\n        /* \"src/libs/shop.sol\":6171:6399  if (\r... */\n    tag_334:\n        /* \"src/libs/shop.sol\":6147:6150  j++ */\n      dup1\n      dup1\n      tag_341\n      swap1\n      tag_136\n      jump\t// in\n    tag_341:\n      swap2\n      pop\n      pop\n        /* \"src/libs/shop.sol\":6098:6414  for (uint256 j = 0; j < Shops[i].sellers.length; j++) {\r... */\n      jump(tag_319)\n    tag_320:\n      pop\n        /* \"src/libs/shop.sol\":6078:6081  i++ */\n      dup1\n      dup1\n      tag_342\n      swap1\n      tag_136\n      jump\t// in\n    tag_342:\n      swap2\n      pop\n      pop\n        /* \"src/libs/shop.sol\":6040:6425  for (uint256 i = 0; i < Shops.length; i++) {\r... */\n      jump(tag_316)\n    tag_317:\n      pop\n        /* \"src/libs/shop.sol\":1876:1877  _ */\n      pop\n        /* \"src/libs/shop.sol\":1560:1885  {\r... */\n      pop\n        /* \"src/libs/shop.sol\":5913:6432  function downToUser(uint256 idRequest)\r... */\n      pop\n      pop\n      jump\t// out\n        /* \"src/libs/shop.sol\":3399:3498  function regUser() public isntReg(msg.sender) {\r... */\n    tag_48:\n        /* \"src/libs/shop.sol\":3433:3443  msg.sender */\n      caller\n        /* \"src/libs/shop.sol\":1943:1952  uint256 i */\n      0x00\n        /* \"src/libs/shop.sol\":1938:2095  for (uint256 i = 0; i < Users.length; i++) {\r... */\n    tag_344:\n        /* \"src/libs/shop.sol\":1962:1967  Users */\n      0x01\n        /* \"src/libs/shop.sol\":1962:1974  Users.length */\n      dup1\n      sload\n      swap1\n      pop\n        /* \"src/libs/shop.sol\":1958:1959  i */\n      dup2\n        /* \"src/libs/shop.sol\":1958:1974  i < Users.length */\n      lt\n        /* \"src/libs/shop.sol\":1938:2095  for (uint256 i = 0; i < Users.length; i++) {\r... */\n      iszero\n      tag_345\n      jumpi\n        /* \"src/libs/shop.sol\":2021:2028  newUser */\n      dup2\n        /* \"src/libs/shop.sol\":2004:2028  Users[i].user != newUser */\n      0xffffffffffffffffffffffffffffffffffffffff\n      and\n        /* \"src/libs/shop.sol\":2004:2009  Users */\n      0x01\n        /* \"src/libs/shop.sol\":2010:2011  i */\n      dup3\n        /* \"src/libs/shop.sol\":2004:2012  Users[i] */\n      dup2\n      sload\n      dup2\n      lt\n      tag_347\n      jumpi\n      tag_348\n      tag_84\n      jump\t// in\n    tag_348:\n    tag_347:\n      swap1\n      0x00\n      mstore\n      keccak256(0x00, 0x20)\n      swap1\n      0x03\n      mul\n      add\n        /* \"src/libs/shop.sol\":2004:2017  Users[i].user */\n      0x00\n      add\n      0x00\n      swap1\n      sload\n      swap1\n      0x0100\n      exp\n      swap1\n      div\n      0xffffffffffffffffffffffffffffffffffffffff\n      and\n        /* \"src/libs/shop.sol\":2004:2028  Users[i].user != newUser */\n      0xffffffffffffffffffffffffffffffffffffffff\n      and\n      eq\n      iszero\n        /* \"src/libs/shop.sol\":1996:2036  require(Users[i].user != newUser, \"201\") */\n      tag_350\n      jumpi\n      mload(0x40)\n      0x08c379a000000000000000000000000000000000000000000000000000000000\n      dup2\n      mstore\n      0x04\n      add\n      tag_351\n      swap1\n      tag_215\n      jump\t// in\n    tag_351:\n      mload(0x40)\n      dup1\n      swap2\n      sub\n      swap1\n      revert\n    tag_350:\n        /* \"src/libs/shop.sol\":1976:1979  i++ */\n      dup1\n      dup1\n      tag_352\n      swap1\n      tag_136\n      jump\t// in\n    tag_352:\n      swap2\n      pop\n      pop\n        /* \"src/libs/shop.sol\":1938:2095  for (uint256 i = 0; i < Users.length; i++) {\r... */\n      jump(tag_344)\n    tag_345:\n      pop\n        /* \"src/libs/shop.sol\":3456:3461  Users */\n      0x01\n        /* \"src/libs/shop.sol\":3467:3489  user(msg.sender, 2, 2) */\n      mload(0x40)\n      dup1\n      0x60\n      add\n      0x40\n      mstore\n      dup1\n        /* \"src/libs/shop.sol\":3472:3482  msg.sender */\n      caller\n        /* \"src/libs/shop.sol\":3467:3489  user(msg.sender, 2, 2) */\n      0xffffffffffffffffffffffffffffffffffffffff\n      and\n      dup2\n      mstore\n      0x20\n      add\n        /* \"src/libs/shop.sol\":3484:3485  2 */\n      0x02\n        /* \"src/libs/shop.sol\":3467:3489  user(msg.sender, 2, 2) */\n      dup2\n      mstore\n      0x20\n      add\n        /* \"src/libs/shop.sol\":3487:3488  2 */\n      0x02\n        /* \"src/libs/shop.sol\":3467:3489  user(msg.sender, 2, 2) */\n      dup2\n      mstore\n      pop\n        /* \"src/libs/shop.sol\":3456:3490  Users.push(user(msg.sender, 2, 2)) */\n      swap1\n      dup1\n      0x01\n      dup2\n      sload\n      add\n      dup1\n      dup3\n      sstore\n      dup1\n      swap2\n      pop\n      pop\n      0x01\n      swap1\n      sub\n      swap1\n      0x00\n      mstore\n      keccak256(0x00, 0x20)\n      swap1\n      0x03\n      mul\n      add\n      0x00\n      swap1\n      swap2\n      swap1\n      swap2\n      swap1\n      swap2\n      pop\n      0x00\n      dup3\n      add\n      mload\n      dup2\n      0x00\n      add\n      exp(0x0100, 0x00)\n      dup2\n      sload\n      dup2\n      0xffffffffffffffffffffffffffffffffffffffff\n      mul\n      not\n      and\n      swap1\n      dup4\n      0xffffffffffffffffffffffffffffffffffffffff\n      and\n      mul\n      or\n      swap1\n      sstore\n      pop\n      0x20\n      dup3\n      add\n      mload\n      dup2\n      0x01\n      add\n      sstore\n      0x40\n      dup3\n      add\n      mload\n      dup2\n      0x02\n      add\n      sstore\n      pop\n      pop\n        /* \"src/libs/shop.sol\":3399:3498  function regUser() public isntReg(msg.sender) {\r... */\n      pop\n      jump\t// out\n        /* \"src/libs/shop.sol\":7181:7457  function deleteShop(uint256 idShop) public {\r... */\n    tag_51:\n        /* \"src/libs/shop.sol\":7240:7249  uint256 i */\n      0x00\n        /* \"src/libs/shop.sol\":7235:7419  for (uint256 i = 0; i < Shops[idShop].sellers.length; i++) {\r... */\n    tag_356:\n        /* \"src/libs/shop.sol\":7259:7264  Shops */\n      0x00\n        /* \"src/libs/shop.sol\":7265:7271  idShop */\n      dup3\n        /* \"src/libs/shop.sol\":7259:7272  Shops[idShop] */\n      dup2\n      sload\n      dup2\n      lt\n      tag_359\n      jumpi\n      tag_360\n      tag_84\n      jump\t// in\n    tag_360:\n    tag_359:\n      swap1\n      0x00\n      mstore\n      keccak256(0x00, 0x20)\n      swap1\n      0x04\n      mul\n      add\n        /* \"src/libs/shop.sol\":7259:7280  Shops[idShop].sellers */\n      0x03\n      add\n        /* \"src/libs/shop.sol\":7259:7287  Shops[idShop].sellers.length */\n      dup1\n      sload\n      swap1\n      pop\n        /* \"src/libs/shop.sol\":7255:7256  i */\n      dup2\n        /* \"src/libs/shop.sol\":7255:7287  i < Shops[idShop].sellers.length */\n      lt\n        /* \"src/libs/shop.sol\":7235:7419  for (uint256 i = 0; i < Shops[idShop].sellers.length; i++) {\r... */\n      iszero\n      tag_357\n      jumpi\n        /* \"src/libs/shop.sol\":7348:7349  2 */\n      0x02\n        /* \"src/libs/shop.sol\":7309:7314  Users */\n      0x01\n        /* \"src/libs/shop.sol\":7315:7320  Shops */\n      0x00\n        /* \"src/libs/shop.sol\":7321:7327  idShop */\n      dup5\n        /* \"src/libs/shop.sol\":7315:7328  Shops[idShop] */\n      dup2\n      sload\n      dup2\n      lt\n      tag_362\n      jumpi\n      tag_363\n      tag_84\n      jump\t// in\n    tag_363:\n    tag_362:\n      swap1\n      0x00\n      mstore\n      keccak256(0x00, 0x20)\n      swap1\n      0x04\n      mul\n      add\n        /* \"src/libs/shop.sol\":7315:7336  Shops[idShop].sellers */\n      0x03\n      add\n        /* \"src/libs/shop.sol\":7337:7338  i */\n      dup4\n        /* \"src/libs/shop.sol\":7315:7339  Shops[idShop].sellers[i] */\n      dup2\n      sload\n      dup2\n      lt\n      tag_365\n      jumpi\n      tag_366\n      tag_84\n      jump\t// in\n    tag_366:\n    tag_365:\n      swap1\n      0x00\n      mstore\n      keccak256(0x00, 0x20)\n      add\n      sload\n        /* \"src/libs/shop.sol\":7309:7340  Users[Shops[idShop].sellers[i]] */\n      dup2\n      sload\n      dup2\n      lt\n      tag_368\n      jumpi\n      tag_369\n      tag_84\n      jump\t// in\n    tag_369:\n    tag_368:\n      swap1\n      0x00\n      mstore\n      keccak256(0x00, 0x20)\n      swap1\n      0x03\n      mul\n      add\n        /* \"src/libs/shop.sol\":7309:7345  Users[Shops[idShop].sellers[i]].role */\n      0x01\n      add\n        /* \"src/libs/shop.sol\":7309:7349  Users[Shops[idShop].sellers[i]].role = 2 */\n      dup2\n      swap1\n      sstore\n      pop\n        /* \"src/libs/shop.sol\":7406:7407  2 */\n      0x02\n        /* \"src/libs/shop.sol\":7364:7369  Users */\n      0x01\n        /* \"src/libs/shop.sol\":7370:7375  Shops */\n      0x00\n        /* \"src/libs/shop.sol\":7376:7382  idShop */\n      dup5\n        /* \"src/libs/shop.sol\":7370:7383  Shops[idShop] */\n      dup2\n      sload\n      dup2\n      lt\n      tag_371\n      jumpi\n      tag_372\n      tag_84\n      jump\t// in\n    tag_372:\n    tag_371:\n      swap1\n      0x00\n      mstore\n      keccak256(0x00, 0x20)\n      swap1\n      0x04\n      mul\n      add\n        /* \"src/libs/shop.sol\":7370:7391  Shops[idShop].sellers */\n      0x03\n      add\n        /* \"src/libs/shop.sol\":7392:7393  i */\n      dup4\n        /* \"src/libs/shop.sol\":7370:7394  Shops[idShop].sellers[i] */\n      dup2\n      sload\n      dup2\n      lt\n      tag_374\n      jumpi\n      tag_375\n      tag_84\n      jump\t// in\n    tag_375:\n    tag_374:\n      swap1\n      0x00\n      mstore\n      keccak256(0x00, 0x20)\n      add\n      sload\n        /* \"src/libs/shop.sol\":7364:7395  Users[Shops[idShop].sellers[i]] */\n      dup2\n      sload\n      dup2\n      lt\n      tag_377\n      jumpi\n      tag_378\n      tag_84\n      jump\t// in\n    tag_378:\n    tag_377:\n      swap1\n      0x00\n      mstore\n      keccak256(0x00, 0x20)\n      swap1\n      0x03\n      mul\n      add\n        /* \"src/libs/shop.sol\":7364:7403  Users[Shops[idShop].sellers[i]].nowRole */\n      0x02\n      add\n        /* \"src/libs/shop.sol\":7364:7407  Users[Shops[idShop].sellers[i]].nowRole = 2 */\n      dup2\n      swap1\n      sstore\n      pop\n        /* \"src/libs/shop.sol\":7289:7292  i++ */\n      dup1\n      dup1\n      tag_380\n      swap1\n      tag_136\n      jump\t// in\n    tag_380:\n      swap2\n      pop\n      pop\n        /* \"src/libs/shop.sol\":7235:7419  for (uint256 i = 0; i < Shops[idShop].sellers.length; i++) {\r... */\n      jump(tag_356)\n    tag_357:\n      pop\n        /* \"src/libs/shop.sol\":7436:7441  Shops */\n      0x00\n        /* \"src/libs/shop.sol\":7442:7448  idShop */\n      dup2\n        /* \"src/libs/shop.sol\":7436:7449  Shops[idShop] */\n      dup2\n      sload\n      dup2\n      lt\n      tag_381\n      jumpi\n      tag_382\n      tag_84\n      jump\t// in\n    tag_382:\n    tag_381:\n      swap1\n      0x00\n      mstore\n      keccak256(0x00, 0x20)\n      swap1\n      0x04\n      mul\n      add\n      0x00\n        /* \"src/libs/shop.sol\":7429:7449  delete Shops[idShop] */\n      dup1\n      dup3\n      add\n      exp(0x0100, 0x00)\n      dup2\n      sload\n      swap1\n      0xffffffffffffffffffffffffffffffffffffffff\n      mul\n      not\n      and\n      swap1\n      sstore\n      0x01\n      dup3\n      add\n      0x00\n      tag_384\n      swap2\n      swap1\n      tag_385\n      jump\t// in\n    tag_384:\n      0x02\n      dup3\n      add\n      0x00\n      tag_386\n      swap2\n      swap1\n      tag_387\n      jump\t// in\n    tag_386:\n      0x03\n      dup3\n      add\n      0x00\n      tag_388\n      swap2\n      swap1\n      tag_389\n      jump\t// in\n    tag_388:\n      pop\n      pop\n        /* \"src/libs/shop.sol\":7181:7457  function deleteShop(uint256 idShop) public {\r... */\n      pop\n      jump\t// out\n        /* \"src/libs/shop.sol\":8144:8357  function addLike(\r... */\n    tag_55:\n        /* \"src/libs/shop.sol\":8255:8265  msg.sender */\n      caller\n        /* \"src/libs/shop.sol\":2843:2852  uint256 i */\n      0x00\n        /* \"src/libs/shop.sol\":2838:3104  for (uint256 i = 0; i < Users.length; i++) {\r... */\n    tag_391:\n        /* \"src/libs/shop.sol\":2862:2867  Users */\n      0x01\n        /* \"src/libs/shop.sol\":2862:2874  Users.length */\n      dup1\n      sload\n      swap1\n      pop\n        /* \"src/libs/shop.sol\":2858:2859  i */\n      dup2\n        /* \"src/libs/shop.sol\":2858:2874  i < Users.length */\n      lt\n        /* \"src/libs/shop.sol\":2838:3104  for (uint256 i = 0; i < Users.length; i++) {\r... */\n      iszero\n      tag_392\n      jumpi\n        /* \"src/libs/shop.sol\":2917:2924  newUser */\n      dup2\n        /* \"src/libs/shop.sol\":2900:2924  Users[i].user == newUser */\n      0xffffffffffffffffffffffffffffffffffffffff\n      and\n        /* \"src/libs/shop.sol\":2900:2905  Users */\n      0x01\n        /* \"src/libs/shop.sol\":2906:2907  i */\n      dup3\n        /* \"src/libs/shop.sol\":2900:2908  Users[i] */\n      dup2\n      sload\n      dup2\n      lt\n      tag_394\n      jumpi\n      tag_395\n      tag_84\n      jump\t// in\n    tag_395:\n    tag_394:\n      swap1\n      0x00\n      mstore\n      keccak256(0x00, 0x20)\n      swap1\n      0x03\n      mul\n      add\n        /* \"src/libs/shop.sol\":2900:2913  Users[i].user */\n      0x00\n      add\n      0x00\n      swap1\n      sload\n      swap1\n      0x0100\n      exp\n      swap1\n      div\n      0xffffffffffffffffffffffffffffffffffffffff\n      and\n        /* \"src/libs/shop.sol\":2900:2924  Users[i].user == newUser */\n      0xffffffffffffffffffffffffffffffffffffffff\n      and\n      eq\n        /* \"src/libs/shop.sol\":2896:3093  if (Users[i].user == newUser) {\r... */\n      iszero\n      tag_397\n      jumpi\n        /* \"src/libs/shop.sol\":2970:2971  2 */\n      0x02\n        /* \"src/libs/shop.sol\":2953:2958  Users */\n      0x01\n        /* \"src/libs/shop.sol\":2959:2960  i */\n      dup3\n        /* \"src/libs/shop.sol\":2953:2961  Users[i] */\n      dup2\n      sload\n      dup2\n      lt\n      tag_398\n      jumpi\n      tag_399\n      tag_84\n      jump\t// in\n    tag_399:\n    tag_398:\n      swap1\n      0x00\n      mstore\n      keccak256(0x00, 0x20)\n      swap1\n      0x03\n      mul\n      add\n        /* \"src/libs/shop.sol\":2953:2966  Users[i].role */\n      0x01\n      add\n      sload\n        /* \"src/libs/shop.sol\":2953:2971  Users[i].role == 2 */\n      eq\n        /* \"src/libs/shop.sol\":2945:2979  require(Users[i].role == 2, \"101\") */\n      tag_401\n      jumpi\n      mload(0x40)\n      0x08c379a000000000000000000000000000000000000000000000000000000000\n      dup2\n      mstore\n      0x04\n      add\n      tag_402\n      swap1\n      tag_403\n      jump\t// in\n    tag_402:\n      mload(0x40)\n      dup1\n      swap2\n      sub\n      swap1\n      revert\n    tag_401:\n        /* \"src/libs/shop.sol\":3072:3077  break */\n      jump(tag_392)\n        /* \"src/libs/shop.sol\":2896:3093  if (Users[i].user == newUser) {\r... */\n    tag_397:\n        /* \"src/libs/shop.sol\":2876:2879  i++ */\n      dup1\n      dup1\n      tag_404\n      swap1\n      tag_136\n      jump\t// in\n    tag_404:\n      swap2\n      pop\n      pop\n        /* \"src/libs/shop.sol\":2838:3104  for (uint256 i = 0; i < Users.length; i++) {\r... */\n      jump(tag_391)\n    tag_392:\n      pop\n        /* \"src/libs/shop.sol\":8278:8283  Shops */\n      0x00\n        /* \"src/libs/shop.sol\":8284:8290  idShop */\n      dup5\n        /* \"src/libs/shop.sol\":8278:8291  Shops[idShop] */\n      dup2\n      sload\n      dup2\n      lt\n      tag_406\n      jumpi\n      tag_407\n      tag_84\n      jump\t// in\n    tag_407:\n    tag_406:\n      swap1\n      0x00\n      mstore\n      keccak256(0x00, 0x20)\n      swap1\n      0x04\n      mul\n      add\n        /* \"src/libs/shop.sol\":8278:8303  Shops[idShop].bookOfMarks */\n      0x02\n      add\n        /* \"src/libs/shop.sol\":8304:8310  idMark */\n      dup4\n        /* \"src/libs/shop.sol\":8278:8311  Shops[idShop].bookOfMarks[idMark] */\n      dup2\n      sload\n      dup2\n      lt\n      tag_409\n      jumpi\n      tag_410\n      tag_84\n      jump\t// in\n    tag_410:\n    tag_409:\n      swap1\n      0x00\n      mstore\n      keccak256(0x00, 0x20)\n      swap1\n      0x05\n      mul\n      add\n        /* \"src/libs/shop.sol\":8278:8317  Shops[idShop].bookOfMarks[idMark].likes */\n      0x02\n      add\n        /* \"src/libs/shop.sol\":8323:8348  like(msg.sender, isLiked) */\n      mload(0x40)\n      dup1\n      0x40\n      add\n      0x40\n      mstore\n      dup1\n        /* \"src/libs/shop.sol\":8328:8338  msg.sender */\n      caller\n        /* \"src/libs/shop.sol\":8323:8348  like(msg.sender, isLiked) */\n      0xffffffffffffffffffffffffffffffffffffffff\n      and\n      dup2\n      mstore\n      0x20\n      add\n        /* \"src/libs/shop.sol\":8340:8347  isLiked */\n      dup5\n        /* \"src/libs/shop.sol\":8323:8348  like(msg.sender, isLiked) */\n      iszero\n      iszero\n      dup2\n      mstore\n      pop\n        /* \"src/libs/shop.sol\":8278:8349  Shops[idShop].bookOfMarks[idMark].likes.push(like(msg.sender, isLiked)) */\n      swap1\n      dup1\n      0x01\n      dup2\n      sload\n      add\n      dup1\n      dup3\n      sstore\n      dup1\n      swap2\n      pop\n      pop\n      0x01\n      swap1\n      sub\n      swap1\n      0x00\n      mstore\n      keccak256(0x00, 0x20)\n      add\n      0x00\n      swap1\n      swap2\n      swap1\n      swap2\n      swap1\n      swap2\n      pop\n      0x00\n      dup3\n      add\n      mload\n      dup2\n      0x00\n      add\n      exp(0x0100, 0x00)\n      dup2\n      sload\n      dup2\n      0xffffffffffffffffffffffffffffffffffffffff\n      mul\n      not\n      and\n      swap1\n      dup4\n      0xffffffffffffffffffffffffffffffffffffffff\n      and\n      mul\n      or\n      swap1\n      sstore\n      pop\n      0x20\n      dup3\n      add\n      mload\n      dup2\n      0x00\n      add\n      exp(0x0100, 0x14)\n      dup2\n      sload\n      dup2\n      0xff\n      mul\n      not\n      and\n      swap1\n      dup4\n      iszero\n      iszero\n      mul\n      or\n      swap1\n      sstore\n      pop\n      pop\n      pop\n        /* \"src/libs/shop.sol\":8144:8357  function addLike(\r... */\n      pop\n      pop\n      pop\n      pop\n      jump\t// out\n        /* \"src/libs/shop.sol\":3578:4094  function switchToUser() public {\r... */\n    tag_57:\n        /* \"src/libs/shop.sol\":3625:3634  uint256 i */\n      0x00\n        /* \"src/libs/shop.sol\":3620:4087  for (uint256 i = 0; i < Users.length; i++) {\r... */\n    tag_414:\n        /* \"src/libs/shop.sol\":3644:3649  Users */\n      0x01\n        /* \"src/libs/shop.sol\":3644:3656  Users.length */\n      dup1\n      sload\n      swap1\n      pop\n        /* \"src/libs/shop.sol\":3640:3641  i */\n      dup2\n        /* \"src/libs/shop.sol\":3640:3656  i < Users.length */\n      lt\n        /* \"src/libs/shop.sol\":3620:4087  for (uint256 i = 0; i < Users.length; i++) {\r... */\n      iszero\n      tag_415\n      jumpi\n        /* \"src/libs/shop.sol\":3703:3704  2 */\n      0x02\n        /* \"src/libs/shop.sol\":3686:3691  Users */\n      0x01\n        /* \"src/libs/shop.sol\":3692:3693  i */\n      dup3\n        /* \"src/libs/shop.sol\":3686:3694  Users[i] */\n      dup2\n      sload\n      dup2\n      lt\n      tag_417\n      jumpi\n      tag_418\n      tag_84\n      jump\t// in\n    tag_418:\n    tag_417:\n      swap1\n      0x00\n      mstore\n      keccak256(0x00, 0x20)\n      swap1\n      0x03\n      mul\n      add\n        /* \"src/libs/shop.sol\":3686:3699  Users[i].role */\n      0x01\n      add\n      sload\n        /* \"src/libs/shop.sol\":3686:3704  Users[i].role != 2 */\n      eq\n      iszero\n        /* \"src/libs/shop.sol\":3678:3712  require(Users[i].role != 2, \"103\") */\n      tag_420\n      jumpi\n      mload(0x40)\n      0x08c379a000000000000000000000000000000000000000000000000000000000\n      dup2\n      mstore\n      0x04\n      add\n      tag_421\n      swap1\n      tag_422\n      jump\t// in\n    tag_421:\n      mload(0x40)\n      dup1\n      swap2\n      sub\n      swap1\n      revert\n    tag_420:\n        /* \"src/libs/shop.sol\":3823:3833  msg.sender */\n      caller\n        /* \"src/libs/shop.sol\":3806:3833  Users[i].user == msg.sender */\n      0xffffffffffffffffffffffffffffffffffffffff\n      and\n        /* \"src/libs/shop.sol\":3806:3811  Users */\n      0x01\n        /* \"src/libs/shop.sol\":3812:3813  i */\n      dup3\n        /* \"src/libs/shop.sol\":3806:3814  Users[i] */\n      dup2\n      sload\n      dup2\n      lt\n      tag_423\n      jumpi\n      tag_424\n      tag_84\n      jump\t// in\n    tag_424:\n    tag_423:\n      swap1\n      0x00\n      mstore\n      keccak256(0x00, 0x20)\n      swap1\n      0x03\n      mul\n      add\n        /* \"src/libs/shop.sol\":3806:3819  Users[i].user */\n      0x00\n      add\n      0x00\n      swap1\n      sload\n      swap1\n      0x0100\n      exp\n      swap1\n      div\n      0xffffffffffffffffffffffffffffffffffffffff\n      and\n        /* \"src/libs/shop.sol\":3806:3833  Users[i].user == msg.sender */\n      0xffffffffffffffffffffffffffffffffffffffff\n      and\n      eq\n        /* \"src/libs/shop.sol\":3802:4076  if (Users[i].user == msg.sender) {\r... */\n      iszero\n      tag_426\n      jumpi\n        /* \"src/libs/shop.sol\":3875:3880  Users */\n      0x01\n        /* \"src/libs/shop.sol\":3881:3882  i */\n      dup2\n        /* \"src/libs/shop.sol\":3875:3883  Users[i] */\n      dup2\n      sload\n      dup2\n      lt\n      tag_427\n      jumpi\n      tag_428\n      tag_84\n      jump\t// in\n    tag_428:\n    tag_427:\n      swap1\n      0x00\n      mstore\n      keccak256(0x00, 0x20)\n      swap1\n      0x03\n      mul\n      add\n        /* \"src/libs/shop.sol\":3875:3891  Users[i].nowRole */\n      0x02\n      add\n      sload\n        /* \"src/libs/shop.sol\":3858:3863  Users */\n      0x01\n        /* \"src/libs/shop.sol\":3864:3865  i */\n      dup3\n        /* \"src/libs/shop.sol\":3858:3866  Users[i] */\n      dup2\n      sload\n      dup2\n      lt\n      tag_430\n      jumpi\n      tag_431\n      tag_84\n      jump\t// in\n    tag_431:\n    tag_430:\n      swap1\n      0x00\n      mstore\n      keccak256(0x00, 0x20)\n      swap1\n      0x03\n      mul\n      add\n        /* \"src/libs/shop.sol\":3858:3871  Users[i].role */\n      0x01\n      add\n      sload\n        /* \"src/libs/shop.sol\":3858:3891  Users[i].role == Users[i].nowRole */\n      eq\n        /* \"src/libs/shop.sol\":3854:4037  if (Users[i].role == Users[i].nowRole) {\r... */\n      iszero\n      tag_433\n      jumpi\n        /* \"src/libs/shop.sol\":3935:3936  2 */\n      0x02\n        /* \"src/libs/shop.sol\":3916:3921  Users */\n      0x01\n        /* \"src/libs/shop.sol\":3922:3923  i */\n      dup3\n        /* \"src/libs/shop.sol\":3916:3924  Users[i] */\n      dup2\n      sload\n      dup2\n      lt\n      tag_434\n      jumpi\n      tag_435\n      tag_84\n      jump\t// in\n    tag_435:\n    tag_434:\n      swap1\n      0x00\n      mstore\n      keccak256(0x00, 0x20)\n      swap1\n      0x03\n      mul\n      add\n        /* \"src/libs/shop.sol\":3916:3932  Users[i].nowRole */\n      0x02\n      add\n        /* \"src/libs/shop.sol\":3916:3936  Users[i].nowRole = 2 */\n      dup2\n      swap1\n      sstore\n      pop\n        /* \"src/libs/shop.sol\":3854:4037  if (Users[i].role == Users[i].nowRole) {\r... */\n      jump(tag_437)\n    tag_433:\n        /* \"src/libs/shop.sol\":4004:4009  Users */\n      0x01\n        /* \"src/libs/shop.sol\":4010:4011  i */\n      dup2\n        /* \"src/libs/shop.sol\":4004:4012  Users[i] */\n      dup2\n      sload\n      dup2\n      lt\n      tag_438\n      jumpi\n      tag_439\n      tag_84\n      jump\t// in\n    tag_439:\n    tag_438:\n      swap1\n      0x00\n      mstore\n      keccak256(0x00, 0x20)\n      swap1\n      0x03\n      mul\n      add\n        /* \"src/libs/shop.sol\":4004:4017  Users[i].role */\n      0x01\n      add\n      sload\n        /* \"src/libs/shop.sol\":3985:3990  Users */\n      0x01\n        /* \"src/libs/shop.sol\":3991:3992  i */\n      dup3\n        /* \"src/libs/shop.sol\":3985:3993  Users[i] */\n      dup2\n      sload\n      dup2\n      lt\n      tag_441\n      jumpi\n      tag_442\n      tag_84\n      jump\t// in\n    tag_442:\n    tag_441:\n      swap1\n      0x00\n      mstore\n      keccak256(0x00, 0x20)\n      swap1\n      0x03\n      mul\n      add\n        /* \"src/libs/shop.sol\":3985:4001  Users[i].nowRole */\n      0x02\n      add\n        /* \"src/libs/shop.sol\":3985:4017  Users[i].nowRole = Users[i].role */\n      dup2\n      swap1\n      sstore\n      pop\n        /* \"src/libs/shop.sol\":3854:4037  if (Users[i].role == Users[i].nowRole) {\r... */\n    tag_437:\n        /* \"src/libs/shop.sol\":4055:4060  break */\n      jump(tag_415)\n        /* \"src/libs/shop.sol\":3802:4076  if (Users[i].user == msg.sender) {\r... */\n    tag_426:\n        /* \"src/libs/shop.sol\":3658:3661  i++ */\n      dup1\n      dup1\n      tag_444\n      swap1\n      tag_136\n      jump\t// in\n    tag_444:\n      swap2\n      pop\n      pop\n        /* \"src/libs/shop.sol\":3620:4087  for (uint256 i = 0; i < Users.length; i++) {\r... */\n      jump(tag_414)\n    tag_415:\n      pop\n        /* \"src/libs/shop.sol\":3578:4094  function switchToUser() public {\r... */\n      jump\t// out\n        /* \"src/libs/shop.sol\":8365:8650  function addLike(\r... */\n    tag_61:\n        /* \"src/libs/shop.sol\":8504:8514  msg.sender */\n      caller\n        /* \"src/libs/shop.sol\":2843:2852  uint256 i */\n      0x00\n        /* \"src/libs/shop.sol\":2838:3104  for (uint256 i = 0; i < Users.length; i++) {\r... */\n    tag_446:\n        /* \"src/libs/shop.sol\":2862:2867  Users */\n      0x01\n        /* \"src/libs/shop.sol\":2862:2874  Users.length */\n      dup1\n      sload\n      swap1\n      pop\n        /* \"src/libs/shop.sol\":2858:2859  i */\n      dup2\n        /* \"src/libs/shop.sol\":2858:2874  i < Users.length */\n      lt\n        /* \"src/libs/shop.sol\":2838:3104  for (uint256 i = 0; i < Users.length; i++) {\r... */\n      iszero\n      tag_447\n      jumpi\n        /* \"src/libs/shop.sol\":2917:2924  newUser */\n      dup2\n        /* \"src/libs/shop.sol\":2900:2924  Users[i].user == newUser */\n      0xffffffffffffffffffffffffffffffffffffffff\n      and\n        /* \"src/libs/shop.sol\":2900:2905  Users */\n      0x01\n        /* \"src/libs/shop.sol\":2906:2907  i */\n      dup3\n        /* \"src/libs/shop.sol\":2900:2908  Users[i] */\n      dup2\n      sload\n      dup2\n      lt\n      tag_449\n      jumpi\n      tag_450\n      tag_84\n      jump\t// in\n    tag_450:\n    tag_449:\n      swap1\n      0x00\n      mstore\n      keccak256(0x00, 0x20)\n      swap1\n      0x03\n      mul\n      add\n        /* \"src/libs/shop.sol\":2900:2913  Users[i].user */\n      0x00\n      add\n      0x00\n      swap1\n      sload\n      swap1\n      0x0100\n      exp\n      swap1\n      div\n      0xffffffffffffffffffffffffffffffffffffffff\n      and\n        /* \"src/libs/shop.sol\":2900:2924  Users[i].user == newUser */\n      0xffffffffffffffffffffffffffffffffffffffff\n      and\n      eq\n        /* \"src/libs/shop.sol\":2896:3093  if (Users[i].user == newUser) {\r... */\n      iszero\n      tag_452\n      jumpi\n        /* \"src/libs/shop.sol\":2970:2971  2 */\n      0x02\n        /* \"src/libs/shop.sol\":2953:2958  Users */\n      0x01\n        /* \"src/libs/shop.sol\":2959:2960  i */\n      dup3\n        /* \"src/libs/shop.sol\":2953:2961  Users[i] */\n      dup2\n      sload\n      dup2\n      lt\n      tag_453\n      jumpi\n      tag_454\n      tag_84\n      jump\t// in\n    tag_454:\n    tag_453:\n      swap1\n      0x00\n      mstore\n      keccak256(0x00, 0x20)\n      swap1\n      0x03\n      mul\n      add\n        /* \"src/libs/shop.sol\":2953:2966  Users[i].role */\n      0x01\n      add\n      sload\n        /* \"src/libs/shop.sol\":2953:2971  Users[i].role == 2 */\n      eq\n        /* \"src/libs/shop.sol\":2945:2979  require(Users[i].role == 2, \"101\") */\n      tag_456\n      jumpi\n      mload(0x40)\n      0x08c379a000000000000000000000000000000000000000000000000000000000\n      dup2\n      mstore\n      0x04\n      add\n      tag_457\n      swap1\n      tag_403\n      jump\t// in\n    tag_457:\n      mload(0x40)\n      dup1\n      swap2\n      sub\n      swap1\n      revert\n    tag_456:\n        /* \"src/libs/shop.sol\":3072:3077  break */\n      jump(tag_447)\n        /* \"src/libs/shop.sol\":2896:3093  if (Users[i].user == newUser) {\r... */\n    tag_452:\n        /* \"src/libs/shop.sol\":2876:2879  i++ */\n      dup1\n      dup1\n      tag_458\n      swap1\n      tag_136\n      jump\t// in\n    tag_458:\n      swap2\n      pop\n      pop\n        /* \"src/libs/shop.sol\":2838:3104  for (uint256 i = 0; i < Users.length; i++) {\r... */\n      jump(tag_446)\n    tag_447:\n      pop\n        /* \"src/libs/shop.sol\":8527:8532  Shops */\n      0x00\n        /* \"src/libs/shop.sol\":8533:8539  idShop */\n      dup6\n        /* \"src/libs/shop.sol\":8527:8540  Shops[idShop] */\n      dup2\n      sload\n      dup2\n      lt\n      tag_460\n      jumpi\n      tag_461\n      tag_84\n      jump\t// in\n    tag_461:\n    tag_460:\n      swap1\n      0x00\n      mstore\n      keccak256(0x00, 0x20)\n      swap1\n      0x04\n      mul\n      add\n        /* \"src/libs/shop.sol\":8527:8552  Shops[idShop].bookOfMarks */\n      0x02\n      add\n        /* \"src/libs/shop.sol\":8553:8559  idMark */\n      dup5\n        /* \"src/libs/shop.sol\":8527:8560  Shops[idShop].bookOfMarks[idMark] */\n      dup2\n      sload\n      dup2\n      lt\n      tag_463\n      jumpi\n      tag_464\n      tag_84\n      jump\t// in\n    tag_464:\n    tag_463:\n      swap1\n      0x00\n      mstore\n      keccak256(0x00, 0x20)\n      swap1\n      0x05\n      mul\n      add\n        /* \"src/libs/shop.sol\":8527:8569  Shops[idShop].bookOfMarks[idMark].comments */\n      0x03\n      add\n        /* \"src/libs/shop.sol\":8570:8579  idComment */\n      dup4\n        /* \"src/libs/shop.sol\":8527:8580  Shops[idShop].bookOfMarks[idMark].comments[idComment] */\n      dup2\n      sload\n      dup2\n      lt\n      tag_466\n      jumpi\n      tag_467\n      tag_84\n      jump\t// in\n    tag_467:\n    tag_466:\n      swap1\n      0x00\n      mstore\n      keccak256(0x00, 0x20)\n      swap1\n      0x03\n      mul\n      add\n        /* \"src/libs/shop.sol\":8527:8586  Shops[idShop].bookOfMarks[idMark].comments[idComment].likes */\n      0x01\n      add\n        /* \"src/libs/shop.sol\":8606:8631  like(msg.sender, isLiked) */\n      mload(0x40)\n      dup1\n      0x40\n      add\n      0x40\n      mstore\n      dup1\n        /* \"src/libs/shop.sol\":8611:8621  msg.sender */\n      caller\n        /* \"src/libs/shop.sol\":8606:8631  like(msg.sender, isLiked) */\n      0xffffffffffffffffffffffffffffffffffffffff\n      and\n      dup2\n      mstore\n      0x20\n      add\n        /* \"src/libs/shop.sol\":8623:8630  isLiked */\n      dup5\n        /* \"src/libs/shop.sol\":8606:8631  like(msg.sender, isLiked) */\n      iszero\n      iszero\n      dup2\n      mstore\n      pop\n        /* \"src/libs/shop.sol\":8527:8642  Shops[idShop].bookOfMarks[idMark].comments[idComment].likes.push(\r... */\n      swap1\n      dup1\n      0x01\n      dup2\n      sload\n      add\n      dup1\n      dup3\n      sstore\n      dup1\n      swap2\n      pop\n      pop\n      0x01\n      swap1\n      sub\n      swap1\n      0x00\n      mstore\n      keccak256(0x00, 0x20)\n      add\n      0x00\n      swap1\n      swap2\n      swap1\n      swap2\n      swap1\n      swap2\n      pop\n      0x00\n      dup3\n      add\n      mload\n      dup2\n      0x00\n      add\n      exp(0x0100, 0x00)\n      dup2\n      sload\n      dup2\n      0xffffffffffffffffffffffffffffffffffffffff\n      mul\n      not\n      and\n      swap1\n      dup4\n      0xffffffffffffffffffffffffffffffffffffffff\n      and\n      mul\n      or\n      swap1\n      sstore\n      pop\n      0x20\n      dup3\n      add\n      mload\n      dup2\n      0x00\n      add\n      exp(0x0100, 0x14)\n      dup2\n      sload\n      dup2\n      0xff\n      mul\n      not\n      and\n      swap1\n      dup4\n      iszero\n      iszero\n      mul\n      or\n      swap1\n      sstore\n      pop\n      pop\n      pop\n        /* \"src/libs/shop.sol\":8365:8650  function addLike(\r... */\n      pop\n      pop\n      pop\n      pop\n      pop\n      jump\t// out\n        /* \"src/libs/shop.sol\":8907:9066  function view_Requests_Sellers()\r... */\n    tag_63:\n        /* \"src/libs/shop.sol\":8988:9013  requestForSeller[] memory */\n      0x60\n        /* \"src/libs/shop.sol\":9039:9057  RequestsForSellers */\n      0x02\n        /* \"src/libs/shop.sol\":9031:9058  return (RequestsForSellers) */\n      dup1\n      sload\n      dup1\n      0x20\n      mul\n      0x20\n      add\n      mload(0x40)\n      swap1\n      dup2\n      add\n      0x40\n      mstore\n      dup1\n      swap3\n      swap2\n      swap1\n      dup2\n      dup2\n      mstore\n      0x20\n      add\n      0x00\n      swap1\n    tag_471:\n      dup3\n      dup3\n      lt\n      iszero\n      tag_472\n      jumpi\n      dup4\n      dup3\n      swap1\n      0x00\n      mstore\n      keccak256(0x00, 0x20)\n      swap1\n      0x02\n      mul\n      add\n      mload(0x40)\n      dup1\n      0x40\n      add\n      0x40\n      mstore\n      swap1\n      dup2\n      0x00\n      dup3\n      add\n      sload\n      dup2\n      mstore\n      0x20\n      add\n      0x01\n      dup3\n      add\n      0x00\n      swap1\n      sload\n      swap1\n      0x0100\n      exp\n      swap1\n      div\n      0xff\n      and\n      iszero\n      iszero\n      iszero\n      iszero\n      dup2\n      mstore\n      pop\n      pop\n      dup2\n      mstore\n      0x20\n      add\n      swap1\n      0x01\n      add\n      swap1\n      jump(tag_471)\n    tag_472:\n      pop\n      pop\n      pop\n      pop\n      swap1\n      pop\n        /* \"src/libs/shop.sol\":8907:9066  function view_Requests_Sellers()\r... */\n      swap1\n      jump\t// out\n        /* \"src/libs/shop.sol\":6440:6854  function addAdmin(address candidate)\r... */\n    tag_69:\n        /* \"src/libs/shop.sol\":6508:6518  msg.sender */\n      caller\n        /* \"src/libs/shop.sol\":1571:1587  bool isRegistred */\n      0x00\n        /* \"src/libs/shop.sol\":1611:1620  uint256 i */\n      dup1\n        /* \"src/libs/shop.sol\":1606:1783  for (uint256 i = 0; i < Users.length; i++) {\r... */\n    tag_475:\n        /* \"src/libs/shop.sol\":1630:1635  Users */\n      0x01\n        /* \"src/libs/shop.sol\":1630:1642  Users.length */\n      dup1\n      sload\n      swap1\n      pop\n        /* \"src/libs/shop.sol\":1626:1627  i */\n      dup2\n        /* \"src/libs/shop.sol\":1626:1642  i < Users.length */\n      lt\n        /* \"src/libs/shop.sol\":1606:1783  for (uint256 i = 0; i < Users.length; i++) {\r... */\n      iszero\n      tag_476\n      jumpi\n        /* \"src/libs/shop.sol\":1685:1693  someUser */\n      dup3\n        /* \"src/libs/shop.sol\":1668:1693  Users[i].user == someUser */\n      0xffffffffffffffffffffffffffffffffffffffff\n      and\n        /* \"src/libs/shop.sol\":1668:1673  Users */\n      0x01\n        /* \"src/libs/shop.sol\":1674:1675  i */\n      dup3\n        /* \"src/libs/shop.sol\":1668:1676  Users[i] */\n      dup2\n      sload\n      dup2\n      lt\n      tag_478\n      jumpi\n      tag_479\n      tag_84\n      jump\t// in\n    tag_479:\n    tag_478:\n      swap1\n      0x00\n      mstore\n      keccak256(0x00, 0x20)\n      swap1\n      0x03\n      mul\n      add\n        /* \"src/libs/shop.sol\":1668:1681  Users[i].user */\n      0x00\n      add\n      0x00\n      swap1\n      sload\n      swap1\n      0x0100\n      exp\n      swap1\n      div\n      0xffffffffffffffffffffffffffffffffffffffff\n      and\n        /* \"src/libs/shop.sol\":1668:1693  Users[i].user == someUser */\n      0xffffffffffffffffffffffffffffffffffffffff\n      and\n      eq\n        /* \"src/libs/shop.sol\":1664:1772  if (Users[i].user == someUser) {\r... */\n      iszero\n      tag_481\n      jumpi\n        /* \"src/libs/shop.sol\":1728:1732  true */\n      0x01\n        /* \"src/libs/shop.sol\":1714:1732  isRegistred = true */\n      swap2\n      pop\n        /* \"src/libs/shop.sol\":1751:1756  break */\n      jump(tag_476)\n        /* \"src/libs/shop.sol\":1664:1772  if (Users[i].user == someUser) {\r... */\n    tag_481:\n        /* \"src/libs/shop.sol\":1644:1647  i++ */\n      dup1\n      dup1\n      tag_482\n      swap1\n      tag_136\n      jump\t// in\n    tag_482:\n      swap2\n      pop\n      pop\n        /* \"src/libs/shop.sol\":1606:1783  for (uint256 i = 0; i < Users.length; i++) {\r... */\n      jump(tag_475)\n    tag_476:\n      pop\n        /* \"src/libs/shop.sol\":1801:1812  isRegistred */\n      dup1\n        /* \"src/libs/shop.sol\":1793:1820  require(isRegistred, \"200\") */\n      tag_483\n      jumpi\n      mload(0x40)\n      0x08c379a000000000000000000000000000000000000000000000000000000000\n      dup2\n      mstore\n      0x04\n      add\n      tag_484\n      swap1\n      tag_148\n      jump\t// in\n    tag_484:\n      mload(0x40)\n      dup1\n      swap2\n      sub\n      swap1\n      revert\n    tag_483:\n        /* \"src/libs/shop.sol\":6537:6547  msg.sender */\n      caller\n        /* \"src/libs/shop.sol\":2499:2508  uint256 i */\n      0x00\n        /* \"src/libs/shop.sol\":2494:2767  for (uint256 i = 0; i < Users.length; i++) {\r... */\n    tag_486:\n        /* \"src/libs/shop.sol\":2518:2523  Users */\n      0x01\n        /* \"src/libs/shop.sol\":2518:2530  Users.length */\n      dup1\n      sload\n      swap1\n      pop\n        /* \"src/libs/shop.sol\":2514:2515  i */\n      dup2\n        /* \"src/libs/shop.sol\":2514:2530  i < Users.length */\n      lt\n        /* \"src/libs/shop.sol\":2494:2767  for (uint256 i = 0; i < Users.length; i++) {\r... */\n      iszero\n      tag_487\n      jumpi\n        /* \"src/libs/shop.sol\":2573:2580  newUser */\n      dup2\n        /* \"src/libs/shop.sol\":2556:2580  Users[i].user == newUser */\n      0xffffffffffffffffffffffffffffffffffffffff\n      and\n        /* \"src/libs/shop.sol\":2556:2561  Users */\n      0x01\n        /* \"src/libs/shop.sol\":2562:2563  i */\n      dup3\n        /* \"src/libs/shop.sol\":2556:2564  Users[i] */\n      dup2\n      sload\n      dup2\n      lt\n      tag_489\n      jumpi\n      tag_490\n      tag_84\n      jump\t// in\n    tag_490:\n    tag_489:\n      swap1\n      0x00\n      mstore\n      keccak256(0x00, 0x20)\n      swap1\n      0x03\n      mul\n      add\n        /* \"src/libs/shop.sol\":2556:2569  Users[i].user */\n      0x00\n      add\n      0x00\n      swap1\n      sload\n      swap1\n      0x0100\n      exp\n      swap1\n      div\n      0xffffffffffffffffffffffffffffffffffffffff\n      and\n        /* \"src/libs/shop.sol\":2556:2580  Users[i].user == newUser */\n      0xffffffffffffffffffffffffffffffffffffffff\n      and\n      eq\n        /* \"src/libs/shop.sol\":2552:2756  if (Users[i].user == newUser) {\r... */\n      iszero\n      tag_492\n      jumpi\n        /* \"src/libs/shop.sol\":2629:2630  0 */\n      0x00\n        /* \"src/libs/shop.sol\":2609:2614  Users */\n      0x01\n        /* \"src/libs/shop.sol\":2615:2616  i */\n      dup3\n        /* \"src/libs/shop.sol\":2609:2617  Users[i] */\n      dup2\n      sload\n      dup2\n      lt\n      tag_493\n      jumpi\n      tag_494\n      tag_84\n      jump\t// in\n    tag_494:\n    tag_493:\n      swap1\n      0x00\n      mstore\n      keccak256(0x00, 0x20)\n      swap1\n      0x03\n      mul\n      add\n        /* \"src/libs/shop.sol\":2609:2625  Users[i].nowRole */\n      0x02\n      add\n      sload\n        /* \"src/libs/shop.sol\":2609:2630  Users[i].nowRole == 0 */\n      eq\n        /* \"src/libs/shop.sol\":2601:2638  require(Users[i].nowRole == 0, \"100\") */\n      tag_496\n      jumpi\n      mload(0x40)\n      0x08c379a000000000000000000000000000000000000000000000000000000000\n      dup2\n      mstore\n      0x04\n      add\n      tag_497\n      swap1\n      tag_162\n      jump\t// in\n    tag_497:\n      mload(0x40)\n      dup1\n      swap2\n      sub\n      swap1\n      revert\n    tag_496:\n        /* \"src/libs/shop.sol\":2735:2740  break */\n      jump(tag_487)\n        /* \"src/libs/shop.sol\":2552:2756  if (Users[i].user == newUser) {\r... */\n    tag_492:\n        /* \"src/libs/shop.sol\":2532:2535  i++ */\n      dup1\n      dup1\n      tag_498\n      swap1\n      tag_136\n      jump\t// in\n    tag_498:\n      swap2\n      pop\n      pop\n        /* \"src/libs/shop.sol\":2494:2767  for (uint256 i = 0; i < Users.length; i++) {\r... */\n      jump(tag_486)\n    tag_487:\n      pop\n        /* \"src/libs/shop.sol\":6570:6579  uint256 i */\n      0x00\n        /* \"src/libs/shop.sol\":6565:6847  for (uint256 i = 0; i < Users.length; i++) {\r... */\n    tag_500:\n        /* \"src/libs/shop.sol\":6589:6594  Users */\n      0x01\n        /* \"src/libs/shop.sol\":6589:6601  Users.length */\n      dup1\n      sload\n      swap1\n      pop\n        /* \"src/libs/shop.sol\":6585:6586  i */\n      dup2\n        /* \"src/libs/shop.sol\":6585:6601  i < Users.length */\n      lt\n        /* \"src/libs/shop.sol\":6565:6847  for (uint256 i = 0; i < Users.length; i++) {\r... */\n      iszero\n      tag_501\n      jumpi\n        /* \"src/libs/shop.sol\":6644:6653  candidate */\n      dup5\n        /* \"src/libs/shop.sol\":6627:6653  Users[i].user == candidate */\n      0xffffffffffffffffffffffffffffffffffffffff\n      and\n        /* \"src/libs/shop.sol\":6627:6632  Users */\n      0x01\n        /* \"src/libs/shop.sol\":6633:6634  i */\n      dup3\n        /* \"src/libs/shop.sol\":6627:6635  Users[i] */\n      dup2\n      sload\n      dup2\n      lt\n      tag_503\n      jumpi\n      tag_504\n      tag_84\n      jump\t// in\n    tag_504:\n    tag_503:\n      swap1\n      0x00\n      mstore\n      keccak256(0x00, 0x20)\n      swap1\n      0x03\n      mul\n      add\n        /* \"src/libs/shop.sol\":6627:6640  Users[i].user */\n      0x00\n      add\n      0x00\n      swap1\n      sload\n      swap1\n      0x0100\n      exp\n      swap1\n      div\n      0xffffffffffffffffffffffffffffffffffffffff\n      and\n        /* \"src/libs/shop.sol\":6627:6653  Users[i].user == candidate */\n      0xffffffffffffffffffffffffffffffffffffffff\n      and\n      eq\n        /* \"src/libs/shop.sol\":6623:6836  if (Users[i].user == candidate) {\r... */\n      iszero\n      tag_506\n      jumpi\n        /* \"src/libs/shop.sol\":6699:6700  0 */\n      0x00\n        /* \"src/libs/shop.sol\":6682:6687  Users */\n      0x01\n        /* \"src/libs/shop.sol\":6688:6689  i */\n      dup3\n        /* \"src/libs/shop.sol\":6682:6690  Users[i] */\n      dup2\n      sload\n      dup2\n      lt\n      tag_507\n      jumpi\n      tag_508\n      tag_84\n      jump\t// in\n    tag_508:\n    tag_507:\n      swap1\n      0x00\n      mstore\n      keccak256(0x00, 0x20)\n      swap1\n      0x03\n      mul\n      add\n        /* \"src/libs/shop.sol\":6682:6695  Users[i].role */\n      0x01\n      add\n      sload\n        /* \"src/libs/shop.sol\":6682:6700  Users[i].role != 0 */\n      eq\n      iszero\n        /* \"src/libs/shop.sol\":6674:6721  require(Users[i].role != 0, \"U already admin!\") */\n      tag_510\n      jumpi\n      mload(0x40)\n      0x08c379a000000000000000000000000000000000000000000000000000000000\n      dup2\n      mstore\n      0x04\n      add\n      tag_511\n      swap1\n      tag_512\n      jump\t// in\n    tag_511:\n      mload(0x40)\n      dup1\n      swap2\n      sub\n      swap1\n      revert\n    tag_510:\n        /* \"src/libs/shop.sol\":6756:6757  0 */\n      0x00\n        /* \"src/libs/shop.sol\":6740:6745  Users */\n      0x01\n        /* \"src/libs/shop.sol\":6746:6747  i */\n      dup3\n        /* \"src/libs/shop.sol\":6740:6748  Users[i] */\n      dup2\n      sload\n      dup2\n      lt\n      tag_513\n      jumpi\n      tag_514\n      tag_84\n      jump\t// in\n    tag_514:\n    tag_513:\n      swap1\n      0x00\n      mstore\n      keccak256(0x00, 0x20)\n      swap1\n      0x03\n      mul\n      add\n        /* \"src/libs/shop.sol\":6740:6753  Users[i].role */\n      0x01\n      add\n        /* \"src/libs/shop.sol\":6740:6757  Users[i].role = 0 */\n      dup2\n      swap1\n      sstore\n      pop\n        /* \"src/libs/shop.sol\":6795:6796  0 */\n      0x00\n        /* \"src/libs/shop.sol\":6776:6781  Users */\n      0x01\n        /* \"src/libs/shop.sol\":6782:6783  i */\n      dup3\n        /* \"src/libs/shop.sol\":6776:6784  Users[i] */\n      dup2\n      sload\n      dup2\n      lt\n      tag_516\n      jumpi\n      tag_517\n      tag_84\n      jump\t// in\n    tag_517:\n    tag_516:\n      swap1\n      0x00\n      mstore\n      keccak256(0x00, 0x20)\n      swap1\n      0x03\n      mul\n      add\n        /* \"src/libs/shop.sol\":6776:6792  Users[i].nowRole */\n      0x02\n      add\n        /* \"src/libs/shop.sol\":6776:6796  Users[i].nowRole = 0 */\n      dup2\n      swap1\n      sstore\n      pop\n        /* \"src/libs/shop.sol\":6815:6820  break */\n      jump(tag_501)\n        /* \"src/libs/shop.sol\":6623:6836  if (Users[i].user == candidate) {\r... */\n    tag_506:\n        /* \"src/libs/shop.sol\":6603:6606  i++ */\n      dup1\n      dup1\n      tag_519\n      swap1\n      tag_136\n      jump\t// in\n    tag_519:\n      swap2\n      pop\n      pop\n        /* \"src/libs/shop.sol\":6565:6847  for (uint256 i = 0; i < Users.length; i++) {\r... */\n      jump(tag_500)\n    tag_501:\n      pop\n        /* \"src/libs/shop.sol\":1876:1877  _ */\n      pop\n        /* \"src/libs/shop.sol\":1560:1885  {\r... */\n      pop\n        /* \"src/libs/shop.sol\":6440:6854  function addAdmin(address candidate)\r... */\n      pop\n      pop\n      jump\t// out\n        /* \"src/libs/shop.sol\":9074:9227  function view_Requests_Users()\r... */\n    tag_71:\n        /* \"src/libs/shop.sol\":9153:9176  requestForUser[] memory */\n      0x60\n        /* \"src/libs/shop.sol\":9202:9218  RequestsForUsers */\n      0x03\n        /* \"src/libs/shop.sol\":9194:9219  return (RequestsForUsers) */\n      dup1\n      sload\n      dup1\n      0x20\n      mul\n      0x20\n      add\n      mload(0x40)\n      swap1\n      dup2\n      add\n      0x40\n      mstore\n      dup1\n      swap3\n      swap2\n      swap1\n      dup2\n      dup2\n      mstore\n      0x20\n      add\n      0x00\n      swap1\n    tag_521:\n      dup3\n      dup3\n      lt\n      iszero\n      tag_522\n      jumpi\n      dup4\n      dup3\n      swap1\n      0x00\n      mstore\n      keccak256(0x00, 0x20)\n      swap1\n      0x03\n      mul\n      add\n      mload(0x40)\n      dup1\n      0x60\n      add\n      0x40\n      mstore\n      swap1\n      dup2\n      0x00\n      dup3\n      add\n      sload\n      dup2\n      mstore\n      0x20\n      add\n      0x01\n      dup3\n      add\n      sload\n      dup2\n      mstore\n      0x20\n      add\n      0x02\n      dup3\n      add\n      0x00\n      swap1\n      sload\n      swap1\n      0x0100\n      exp\n      swap1\n      div\n      0xff\n      and\n      iszero\n      iszero\n      iszero\n      iszero\n      dup2\n      mstore\n      pop\n      pop\n      dup2\n      mstore\n      0x20\n      add\n      swap1\n      0x01\n      add\n      swap1\n      jump(tag_521)\n    tag_522:\n      pop\n      pop\n      pop\n      pop\n      swap1\n      pop\n        /* \"src/libs/shop.sol\":9074:9227  function view_Requests_Users()\r... */\n      swap1\n      jump\t// out\n        /* \"src/libs/shop.sol\":4999:5533  function addComment(\r... */\n    tag_76:\n        /* \"src/libs/shop.sol\":5130:5135  Shops */\n      0x00\n        /* \"src/libs/shop.sol\":5136:5142  idShop */\n      dup4\n        /* \"src/libs/shop.sol\":5130:5143  Shops[idShop] */\n      dup2\n      sload\n      dup2\n      lt\n      tag_525\n      jumpi\n      tag_526\n      tag_84\n      jump\t// in\n    tag_526:\n    tag_525:\n      swap1\n      0x00\n      mstore\n      keccak256(0x00, 0x20)\n      swap1\n      0x04\n      mul\n      add\n        /* \"src/libs/shop.sol\":5130:5155  Shops[idShop].bookOfMarks */\n      0x02\n      add\n        /* \"src/libs/shop.sol\":5156:5162  idMark */\n      dup3\n        /* \"src/libs/shop.sol\":5130:5163  Shops[idShop].bookOfMarks[idMark] */\n      dup2\n      sload\n      dup2\n      lt\n      tag_528\n      jumpi\n      tag_529\n      tag_84\n      jump\t// in\n    tag_529:\n    tag_528:\n      swap1\n      0x00\n      mstore\n      keccak256(0x00, 0x20)\n      swap1\n      0x05\n      mul\n      add\n        /* \"src/libs/shop.sol\":5130:5172  Shops[idShop].bookOfMarks[idMark].comments */\n      0x03\n      add\n        /* \"src/libs/shop.sol\":5130:5179  Shops[idShop].bookOfMarks[idMark].comments.push() */\n      0x01\n      dup2\n      0x01\n      dup2\n      sload\n      add\n      dup1\n      dup3\n      sstore\n      dup1\n      swap2\n      pop\n      pop\n      sub\n      swap1\n      0x00\n      mstore\n      keccak256(0x00, 0x20)\n      swap1\n      pop\n      pop\n        /* \"src/libs/shop.sol\":5339:5349  msg.sender */\n      caller\n        /* \"src/libs/shop.sol\":5190:5195  Shops */\n      0x00\n        /* \"src/libs/shop.sol\":5196:5202  idShop */\n      dup5\n        /* \"src/libs/shop.sol\":5190:5203  Shops[idShop] */\n      dup2\n      sload\n      dup2\n      lt\n      tag_532\n      jumpi\n      tag_533\n      tag_84\n      jump\t// in\n    tag_533:\n    tag_532:\n      swap1\n      0x00\n      mstore\n      keccak256(0x00, 0x20)\n      swap1\n      0x04\n      mul\n      add\n        /* \"src/libs/shop.sol\":5190:5229  Shops[idShop]\r... */\n      0x02\n      add\n        /* \"src/libs/shop.sol\":5230:5236  idMark */\n      dup4\n        /* \"src/libs/shop.sol\":5190:5237  Shops[idShop]\r... */\n      dup2\n      sload\n      dup2\n      lt\n      tag_535\n      jumpi\n      tag_536\n      tag_84\n      jump\t// in\n    tag_536:\n    tag_535:\n      swap1\n      0x00\n      mstore\n      keccak256(0x00, 0x20)\n      swap1\n      0x05\n      mul\n      add\n        /* \"src/libs/shop.sol\":5190:5260  Shops[idShop]\r... */\n      0x03\n      add\n        /* \"src/libs/shop.sol\":5313:5314  1 */\n      0x01\n        /* \"src/libs/shop.sol\":5261:5266  Shops */\n      0x00\n        /* \"src/libs/shop.sol\":5267:5273  idShop */\n      dup7\n        /* \"src/libs/shop.sol\":5261:5274  Shops[idShop] */\n      dup2\n      sload\n      dup2\n      lt\n      tag_538\n      jumpi\n      tag_539\n      tag_84\n      jump\t// in\n    tag_539:\n    tag_538:\n      swap1\n      0x00\n      mstore\n      keccak256(0x00, 0x20)\n      swap1\n      0x04\n      mul\n      add\n        /* \"src/libs/shop.sol\":5261:5286  Shops[idShop].bookOfMarks */\n      0x02\n      add\n        /* \"src/libs/shop.sol\":5287:5293  idMark */\n      dup6\n        /* \"src/libs/shop.sol\":5261:5294  Shops[idShop].bookOfMarks[idMark] */\n      dup2\n      sload\n      dup2\n      lt\n      tag_541\n      jumpi\n      tag_542\n      tag_84\n      jump\t// in\n    tag_542:\n    tag_541:\n      swap1\n      0x00\n      mstore\n      keccak256(0x00, 0x20)\n      swap1\n      0x05\n      mul\n      add\n        /* \"src/libs/shop.sol\":5261:5303  Shops[idShop].bookOfMarks[idMark].comments */\n      0x03\n      add\n        /* \"src/libs/shop.sol\":5261:5310  Shops[idShop].bookOfMarks[idMark].comments.length */\n      dup1\n      sload\n      swap1\n      pop\n        /* \"src/libs/shop.sol\":5261:5314  Shops[idShop].bookOfMarks[idMark].comments.length - 1 */\n      tag_544\n      swap2\n      swap1\n      tag_94\n      jump\t// in\n    tag_544:\n        /* \"src/libs/shop.sol\":5190:5315  Shops[idShop]\r... */\n      dup2\n      sload\n      dup2\n      lt\n      tag_545\n      jumpi\n      tag_546\n      tag_84\n      jump\t// in\n    tag_546:\n    tag_545:\n      swap1\n      0x00\n      mstore\n      keccak256(0x00, 0x20)\n      swap1\n      0x03\n      mul\n      add\n        /* \"src/libs/shop.sol\":5190:5336  Shops[idShop]\r... */\n      0x00\n      add\n      0x00\n        /* \"src/libs/shop.sol\":5190:5349  Shops[idShop]\r... */\n      0x0100\n      exp\n      dup2\n      sload\n      dup2\n      0xffffffffffffffffffffffffffffffffffffffff\n      mul\n      not\n      and\n      swap1\n      dup4\n      0xffffffffffffffffffffffffffffffffffffffff\n      and\n      mul\n      or\n      swap1\n      sstore\n      pop\n        /* \"src/libs/shop.sol\":5514:5525  description */\n      dup1\n        /* \"src/libs/shop.sol\":5360:5365  Shops */\n      0x00\n        /* \"src/libs/shop.sol\":5366:5372  idShop */\n      dup5\n        /* \"src/libs/shop.sol\":5360:5373  Shops[idShop] */\n      dup2\n      sload\n      dup2\n      lt\n      tag_548\n      jumpi\n      tag_549\n      tag_84\n      jump\t// in\n    tag_549:\n    tag_548:\n      swap1\n      0x00\n      mstore\n      keccak256(0x00, 0x20)\n      swap1\n      0x04\n      mul\n      add\n        /* \"src/libs/shop.sol\":5360:5399  Shops[idShop]\r... */\n      0x02\n      add\n        /* \"src/libs/shop.sol\":5400:5406  idMark */\n      dup4\n        /* \"src/libs/shop.sol\":5360:5407  Shops[idShop]\r... */\n      dup2\n      sload\n      dup2\n      lt\n      tag_551\n      jumpi\n      tag_552\n      tag_84\n      jump\t// in\n    tag_552:\n    tag_551:\n      swap1\n      0x00\n      mstore\n      keccak256(0x00, 0x20)\n      swap1\n      0x05\n      mul\n      add\n        /* \"src/libs/shop.sol\":5360:5430  Shops[idShop]\r... */\n      0x03\n      add\n        /* \"src/libs/shop.sol\":5483:5484  1 */\n      0x01\n        /* \"src/libs/shop.sol\":5431:5436  Shops */\n      0x00\n        /* \"src/libs/shop.sol\":5437:5443  idShop */\n      dup7\n        /* \"src/libs/shop.sol\":5431:5444  Shops[idShop] */\n      dup2\n      sload\n      dup2\n      lt\n      tag_554\n      jumpi\n      tag_555\n      tag_84\n      jump\t// in\n    tag_555:\n    tag_554:\n      swap1\n      0x00\n      mstore\n      keccak256(0x00, 0x20)\n      swap1\n      0x04\n      mul\n      add\n        /* \"src/libs/shop.sol\":5431:5456  Shops[idShop].bookOfMarks */\n      0x02\n      add\n        /* \"src/libs/shop.sol\":5457:5463  idMark */\n      dup6\n        /* \"src/libs/shop.sol\":5431:5464  Shops[idShop].bookOfMarks[idMark] */\n      dup2\n      sload\n      dup2\n      lt\n      tag_557\n      jumpi\n      tag_558\n      tag_84\n      jump\t// in\n    tag_558:\n    tag_557:\n      swap1\n      0x00\n      mstore\n      keccak256(0x00, 0x20)\n      swap1\n      0x05\n      mul\n      add\n        /* \"src/libs/shop.sol\":5431:5473  Shops[idShop].bookOfMarks[idMark].comments */\n      0x03\n      add\n        /* \"src/libs/shop.sol\":5431:5480  Shops[idShop].bookOfMarks[idMark].comments.length */\n      dup1\n      sload\n      swap1\n      pop\n        /* \"src/libs/shop.sol\":5431:5484  Shops[idShop].bookOfMarks[idMark].comments.length - 1 */\n      tag_560\n      swap2\n      swap1\n      tag_94\n      jump\t// in\n    tag_560:\n        /* \"src/libs/shop.sol\":5360:5485  Shops[idShop]\r... */\n      dup2\n      sload\n      dup2\n      lt\n      tag_561\n      jumpi\n      tag_562\n      tag_84\n      jump\t// in\n    tag_562:\n    tag_561:\n      swap1\n      0x00\n      mstore\n      keccak256(0x00, 0x20)\n      swap1\n      0x03\n      mul\n      add\n        /* \"src/libs/shop.sol\":5360:5511  Shops[idShop]\r... */\n      0x02\n      add\n        /* \"src/libs/shop.sol\":5360:5525  Shops[idShop]\r... */\n      swap1\n      dup1\n      mload\n      swap1\n      0x20\n      add\n      swap1\n      tag_564\n      swap3\n      swap2\n      swap1\n      tag_119\n      jump\t// in\n    tag_564:\n      pop\n        /* \"src/libs/shop.sol\":4999:5533  function addComment(\r... */\n      pop\n      pop\n      pop\n      jump\t// out\n        /* \"src/libs/shop.sol\":8808:8899  function view_Users() public view returns (user[] memory) {\r... */\n    tag_78:\n        /* \"src/libs/shop.sol\":8851:8864  user[] memory */\n      0x60\n        /* \"src/libs/shop.sol\":8885:8890  Users */\n      0x01\n        /* \"src/libs/shop.sol\":8877:8891  return (Users) */\n      dup1\n      sload\n      dup1\n      0x20\n      mul\n      0x20\n      add\n      mload(0x40)\n      swap1\n      dup2\n      add\n      0x40\n      mstore\n      dup1\n      swap3\n      swap2\n      swap1\n      dup2\n      dup2\n      mstore\n      0x20\n      add\n      0x00\n      swap1\n    tag_566:\n      dup3\n      dup3\n      lt\n      iszero\n      tag_567\n      jumpi\n      dup4\n      dup3\n      swap1\n      0x00\n      mstore\n      keccak256(0x00, 0x20)\n      swap1\n      0x03\n      mul\n      add\n      mload(0x40)\n      dup1\n      0x60\n      add\n      0x40\n      mstore\n      swap1\n      dup2\n      0x00\n      dup3\n      add\n      0x00\n      swap1\n      sload\n      swap1\n      0x0100\n      exp\n      swap1\n      div\n      0xffffffffffffffffffffffffffffffffffffffff\n      and\n      0xffffffffffffffffffffffffffffffffffffffff\n      and\n      0xffffffffffffffffffffffffffffffffffffffff\n      and\n      dup2\n      mstore\n      0x20\n      add\n      0x01\n      dup3\n      add\n      sload\n      dup2\n      mstore\n      0x20\n      add\n      0x02\n      dup3\n      add\n      sload\n      dup2\n      mstore\n      pop\n      pop\n      dup2\n      mstore\n      0x20\n      add\n      swap1\n      0x01\n      add\n      swap1\n      jump(tag_566)\n    tag_567:\n      pop\n      pop\n      pop\n      pop\n      swap1\n      pop\n        /* \"src/libs/shop.sol\":8808:8899  function view_Users() public view returns (user[] memory) {\r... */\n      swap1\n      jump\t// out\n    tag_119:\n      dup3\n      dup1\n      sload\n      tag_569\n      swap1\n      tag_246\n      jump\t// in\n    tag_569:\n      swap1\n      0x00\n      mstore\n      keccak256(0x00, 0x20)\n      swap1\n      0x1f\n      add\n      0x20\n      swap1\n      div\n      dup2\n      add\n      swap3\n      dup3\n      tag_571\n      jumpi\n      0x00\n      dup6\n      sstore\n      jump(tag_570)\n    tag_571:\n      dup3\n      0x1f\n      lt\n      tag_572\n      jumpi\n      dup1\n      mload\n      not(0xff)\n      and\n      dup4\n      dup1\n      add\n      or\n      dup6\n      sstore\n      jump(tag_570)\n    tag_572:\n      dup3\n      dup1\n      add\n      0x01\n      add\n      dup6\n      sstore\n      dup3\n      iszero\n      tag_570\n      jumpi\n      swap2\n      dup3\n      add\n    tag_573:\n      dup3\n      dup2\n      gt\n      iszero\n      tag_574\n      jumpi\n      dup3\n      mload\n      dup3\n      sstore\n      swap2\n      0x20\n      add\n      swap2\n      swap1\n      0x01\n      add\n      swap1\n      jump(tag_573)\n    tag_574:\n    tag_570:\n      pop\n      swap1\n      pop\n      tag_575\n      swap2\n      swap1\n      tag_576\n      jump\t// in\n    tag_575:\n      pop\n      swap1\n      jump\t// out\n    tag_385:\n      pop\n      dup1\n      sload\n      tag_577\n      swap1\n      tag_246\n      jump\t// in\n    tag_577:\n      0x00\n      dup3\n      sstore\n      dup1\n      0x1f\n      lt\n      tag_579\n      jumpi\n      pop\n      jump(tag_578)\n    tag_579:\n      0x1f\n      add\n      0x20\n      swap1\n      div\n      swap1\n      0x00\n      mstore\n      keccak256(0x00, 0x20)\n      swap1\n      dup2\n      add\n      swap1\n      tag_580\n      swap2\n      swap1\n      tag_576\n      jump\t// in\n    tag_580:\n    tag_578:\n      pop\n      jump\t// out\n    tag_387:\n      pop\n      dup1\n      sload\n      0x00\n      dup3\n      sstore\n      0x05\n      mul\n      swap1\n      0x00\n      mstore\n      keccak256(0x00, 0x20)\n      swap1\n      dup2\n      add\n      swap1\n      tag_582\n      swap2\n      swap1\n      tag_583\n      jump\t// in\n    tag_582:\n      pop\n      jump\t// out\n    tag_389:\n      pop\n      dup1\n      sload\n      0x00\n      dup3\n      sstore\n      swap1\n      0x00\n      mstore\n      keccak256(0x00, 0x20)\n      swap1\n      dup2\n      add\n      swap1\n      tag_585\n      swap2\n      swap1\n      tag_576\n      jump\t// in\n    tag_585:\n      pop\n      jump\t// out\n    tag_576:\n    tag_586:\n      dup1\n      dup3\n      gt\n      iszero\n      tag_587\n      jumpi\n      0x00\n      dup2\n      0x00\n      swap1\n      sstore\n      pop\n      0x01\n      add\n      jump(tag_586)\n    tag_587:\n      pop\n      swap1\n      jump\t// out\n    tag_583:\n    tag_588:\n      dup1\n      dup3\n      gt\n      iszero\n      tag_589\n      jumpi\n      0x00\n      dup1\n      dup3\n      add\n      exp(0x0100, 0x00)\n      dup2\n      sload\n      swap1\n      0xffffffffffffffffffffffffffffffffffffffff\n      mul\n      not\n      and\n      swap1\n      sstore\n      0x01\n      dup3\n      add\n      0x00\n      swap1\n      sstore\n      0x02\n      dup3\n      add\n      0x00\n      tag_590\n      swap2\n      swap1\n      tag_591\n      jump\t// in\n    tag_590:\n      0x03\n      dup3\n      add\n      0x00\n      tag_592\n      swap2\n      swap1\n      tag_593\n      jump\t// in\n    tag_592:\n      0x04\n      dup3\n      add\n      0x00\n      tag_594\n      swap2\n      swap1\n      tag_385\n      jump\t// in\n    tag_594:\n      pop\n      0x05\n      add\n      jump(tag_588)\n    tag_589:\n      pop\n      swap1\n      jump\t// out\n    tag_591:\n      pop\n      dup1\n      sload\n      0x00\n      dup3\n      sstore\n      swap1\n      0x00\n      mstore\n      keccak256(0x00, 0x20)\n      swap1\n      dup2\n      add\n      swap1\n      tag_596\n      swap2\n      swap1\n      tag_597\n      jump\t// in\n    tag_596:\n      pop\n      jump\t// out\n    tag_593:\n      pop\n      dup1\n      sload\n      0x00\n      dup3\n      sstore\n      0x03\n      mul\n      swap1\n      0x00\n      mstore\n      keccak256(0x00, 0x20)\n      swap1\n      dup2\n      add\n      swap1\n      tag_599\n      swap2\n      swap1\n      tag_600\n      jump\t// in\n    tag_599:\n      pop\n      jump\t// out\n    tag_597:\n    tag_601:\n      dup1\n      dup3\n      gt\n      iszero\n      tag_602\n      jumpi\n      0x00\n      dup1\n      dup3\n      add\n      exp(0x0100, 0x00)\n      dup2\n      sload\n      swap1\n      0xffffffffffffffffffffffffffffffffffffffff\n      mul\n      not\n      and\n      swap1\n      sstore\n      0x00\n      dup3\n      add\n      exp(0x0100, 0x14)\n      dup2\n      sload\n      swap1\n      0xff\n      mul\n      not\n      and\n      swap1\n      sstore\n      pop\n      0x01\n      add\n      jump(tag_601)\n    tag_602:\n      pop\n      swap1\n      jump\t// out\n    tag_600:\n    tag_603:\n      dup1\n      dup3\n      gt\n      iszero\n      tag_604\n      jumpi\n      0x00\n      dup1\n      dup3\n      add\n      exp(0x0100, 0x00)\n      dup2\n      sload\n      swap1\n      0xffffffffffffffffffffffffffffffffffffffff\n      mul\n      not\n      and\n      swap1\n      sstore\n      0x01\n      dup3\n      add\n      0x00\n      tag_605\n      swap2\n      swap1\n      tag_591\n      jump\t// in\n    tag_605:\n      0x02\n      dup3\n      add\n      0x00\n      tag_606\n      swap2\n      swap1\n      tag_385\n      jump\t// in\n    tag_606:\n      pop\n      0x03\n      add\n      jump(tag_603)\n    tag_604:\n      pop\n      swap1\n      jump\t// out\n        /* \"#utility.yul\":7:419   */\n    tag_608:\n        /* \"#utility.yul\":85:90   */\n      0x00\n        /* \"#utility.yul\":110:176   */\n      tag_610\n        /* \"#utility.yul\":126:175   */\n      tag_611\n        /* \"#utility.yul\":168:174   */\n      dup5\n        /* \"#utility.yul\":126:175   */\n      tag_612\n      jump\t// in\n    tag_611:\n        /* \"#utility.yul\":110:176   */\n      tag_613\n      jump\t// in\n    tag_610:\n        /* \"#utility.yul\":101:176   */\n      swap1\n      pop\n        /* \"#utility.yul\":199:205   */\n      dup3\n        /* \"#utility.yul\":192:197   */\n      dup2\n        /* \"#utility.yul\":185:206   */\n      mstore\n        /* \"#utility.yul\":237:241   */\n      0x20\n        /* \"#utility.yul\":230:235   */\n      dup2\n        /* \"#utility.yul\":226:242   */\n      add\n        /* \"#utility.yul\":275:278   */\n      dup5\n        /* \"#utility.yul\":266:272   */\n      dup5\n        /* \"#utility.yul\":261:264   */\n      dup5\n        /* \"#utility.yul\":257:273   */\n      add\n        /* \"#utility.yul\":254:279   */\n      gt\n        /* \"#utility.yul\":251:363   */\n      iszero\n      tag_614\n      jumpi\n        /* \"#utility.yul\":282:361   */\n      tag_615\n      tag_616\n      jump\t// in\n    tag_615:\n        /* \"#utility.yul\":251:363   */\n    tag_614:\n        /* \"#utility.yul\":372:413   */\n      tag_617\n        /* \"#utility.yul\":406:412   */\n      dup5\n        /* \"#utility.yul\":401:404   */\n      dup3\n        /* \"#utility.yul\":396:399   */\n      dup6\n        /* \"#utility.yul\":372:413   */\n      tag_618\n      jump\t// in\n    tag_617:\n        /* \"#utility.yul\":91:419   */\n      pop\n        /* \"#utility.yul\":7:419   */\n      swap4\n      swap3\n      pop\n      pop\n      pop\n      jump\t// out\n        /* \"#utility.yul\":425:564   */\n    tag_619:\n        /* \"#utility.yul\":471:476   */\n      0x00\n        /* \"#utility.yul\":509:515   */\n      dup2\n        /* \"#utility.yul\":496:516   */\n      calldataload\n        /* \"#utility.yul\":487:516   */\n      swap1\n      pop\n        /* \"#utility.yul\":525:558   */\n      tag_621\n        /* \"#utility.yul\":552:557   */\n      dup2\n        /* \"#utility.yul\":525:558   */\n      tag_622\n      jump\t// in\n    tag_621:\n        /* \"#utility.yul\":425:564   */\n      swap3\n      swap2\n      pop\n      pop\n      jump\t// out\n        /* \"#utility.yul\":570:703   */\n    tag_623:\n        /* \"#utility.yul\":613:618   */\n      0x00\n        /* \"#utility.yul\":651:657   */\n      dup2\n        /* \"#utility.yul\":638:658   */\n      calldataload\n        /* \"#utility.yul\":629:658   */\n      swap1\n      pop\n        /* \"#utility.yul\":667:697   */\n      tag_625\n        /* \"#utility.yul\":691:696   */\n      dup2\n        /* \"#utility.yul\":667:697   */\n      tag_626\n      jump\t// in\n    tag_625:\n        /* \"#utility.yul\":570:703   */\n      swap3\n      swap2\n      pop\n      pop\n      jump\t// out\n        /* \"#utility.yul\":723:1063   */\n    tag_627:\n        /* \"#utility.yul\":779:784   */\n      0x00\n        /* \"#utility.yul\":828:831   */\n      dup3\n        /* \"#utility.yul\":821:825   */\n      0x1f\n        /* \"#utility.yul\":813:819   */\n      dup4\n        /* \"#utility.yul\":809:826   */\n      add\n        /* \"#utility.yul\":805:832   */\n      slt\n        /* \"#utility.yul\":795:917   */\n      tag_629\n      jumpi\n        /* \"#utility.yul\":836:915   */\n      tag_630\n      tag_631\n      jump\t// in\n    tag_630:\n        /* \"#utility.yul\":795:917   */\n    tag_629:\n        /* \"#utility.yul\":953:959   */\n      dup2\n        /* \"#utility.yul\":940:960   */\n      calldataload\n        /* \"#utility.yul\":978:1057   */\n      tag_632\n        /* \"#utility.yul\":1053:1056   */\n      dup5\n        /* \"#utility.yul\":1045:1051   */\n      dup3\n        /* \"#utility.yul\":1038:1042   */\n      0x20\n        /* \"#utility.yul\":1030:1036   */\n      dup7\n        /* \"#utility.yul\":1026:1043   */\n      add\n        /* \"#utility.yul\":978:1057   */\n      tag_608\n      jump\t// in\n    tag_632:\n        /* \"#utility.yul\":969:1057   */\n      swap2\n      pop\n        /* \"#utility.yul\":785:1063   */\n      pop\n        /* \"#utility.yul\":723:1063   */\n      swap3\n      swap2\n      pop\n      pop\n      jump\t// out\n        /* \"#utility.yul\":1069:1208   */\n    tag_633:\n        /* \"#utility.yul\":1115:1120   */\n      0x00\n        /* \"#utility.yul\":1153:1159   */\n      dup2\n        /* \"#utility.yul\":1140:1160   */\n      calldataload\n        /* \"#utility.yul\":1131:1160   */\n      swap1\n      pop\n        /* \"#utility.yul\":1169:1202   */\n      tag_635\n        /* \"#utility.yul\":1196:1201   */\n      dup2\n        /* \"#utility.yul\":1169:1202   */\n      tag_636\n      jump\t// in\n    tag_635:\n        /* \"#utility.yul\":1069:1208   */\n      swap3\n      swap2\n      pop\n      pop\n      jump\t// out\n        /* \"#utility.yul\":1214:1543   */\n    tag_68:\n        /* \"#utility.yul\":1273:1279   */\n      0x00\n        /* \"#utility.yul\":1322:1324   */\n      0x20\n        /* \"#utility.yul\":1310:1319   */\n      dup3\n        /* \"#utility.yul\":1301:1308   */\n      dup5\n        /* \"#utility.yul\":1297:1320   */\n      sub\n        /* \"#utility.yul\":1293:1325   */\n      slt\n        /* \"#utility.yul\":1290:1409   */\n      iszero\n      tag_638\n      jumpi\n        /* \"#utility.yul\":1328:1407   */\n      tag_639\n      tag_640\n      jump\t// in\n    tag_639:\n        /* \"#utility.yul\":1290:1409   */\n    tag_638:\n        /* \"#utility.yul\":1448:1449   */\n      0x00\n        /* \"#utility.yul\":1473:1526   */\n      tag_641\n        /* \"#utility.yul\":1518:1525   */\n      dup5\n        /* \"#utility.yul\":1509:1515   */\n      dup3\n        /* \"#utility.yul\":1498:1507   */\n      dup6\n        /* \"#utility.yul\":1494:1516   */\n      add\n        /* \"#utility.yul\":1473:1526   */\n      tag_619\n      jump\t// in\n    tag_641:\n        /* \"#utility.yul\":1463:1526   */\n      swap2\n      pop\n        /* \"#utility.yul\":1419:1536   */\n      pop\n        /* \"#utility.yul\":1214:1543   */\n      swap3\n      swap2\n      pop\n      pop\n      jump\t// out\n        /* \"#utility.yul\":1549:2203   */\n    tag_36:\n        /* \"#utility.yul\":1627:1633   */\n      0x00\n        /* \"#utility.yul\":1635:1641   */\n      dup1\n        /* \"#utility.yul\":1684:1686   */\n      0x40\n        /* \"#utility.yul\":1672:1681   */\n      dup4\n        /* \"#utility.yul\":1663:1670   */\n      dup6\n        /* \"#utility.yul\":1659:1682   */\n      sub\n        /* \"#utility.yul\":1655:1687   */\n      slt\n        /* \"#utility.yul\":1652:1771   */\n      iszero\n      tag_643\n      jumpi\n        /* \"#utility.yul\":1690:1769   */\n      tag_644\n      tag_640\n      jump\t// in\n    tag_644:\n        /* \"#utility.yul\":1652:1771   */\n    tag_643:\n        /* \"#utility.yul\":1810:1811   */\n      0x00\n        /* \"#utility.yul\":1835:1888   */\n      tag_645\n        /* \"#utility.yul\":1880:1887   */\n      dup6\n        /* \"#utility.yul\":1871:1877   */\n      dup3\n        /* \"#utility.yul\":1860:1869   */\n      dup7\n        /* \"#utility.yul\":1856:1878   */\n      add\n        /* \"#utility.yul\":1835:1888   */\n      tag_619\n      jump\t// in\n    tag_645:\n        /* \"#utility.yul\":1825:1888   */\n      swap3\n      pop\n        /* \"#utility.yul\":1781:1898   */\n      pop\n        /* \"#utility.yul\":1965:1967   */\n      0x20\n        /* \"#utility.yul\":1954:1963   */\n      dup4\n        /* \"#utility.yul\":1950:1968   */\n      add\n        /* \"#utility.yul\":1937:1969   */\n      calldataload\n        /* \"#utility.yul\":1996:2014   */\n      0xffffffffffffffff\n        /* \"#utility.yul\":1988:1994   */\n      dup2\n        /* \"#utility.yul\":1985:2015   */\n      gt\n        /* \"#utility.yul\":1982:2099   */\n      iszero\n      tag_646\n      jumpi\n        /* \"#utility.yul\":2018:2097   */\n      tag_647\n      tag_648\n      jump\t// in\n    tag_647:\n        /* \"#utility.yul\":1982:2099   */\n    tag_646:\n        /* \"#utility.yul\":2123:2186   */\n      tag_649\n        /* \"#utility.yul\":2178:2185   */\n      dup6\n        /* \"#utility.yul\":2169:2175   */\n      dup3\n        /* \"#utility.yul\":2158:2167   */\n      dup7\n        /* \"#utility.yul\":2154:2176   */\n      add\n        /* \"#utility.yul\":2123:2186   */\n      tag_627\n      jump\t// in\n    tag_649:\n        /* \"#utility.yul\":2113:2186   */\n      swap2\n      pop\n        /* \"#utility.yul\":1908:2196   */\n      pop\n        /* \"#utility.yul\":1549:2203   */\n      swap3\n      pop\n      swap3\n      swap1\n      pop\n      jump\t// out\n        /* \"#utility.yul\":2209:2538   */\n    tag_29:\n        /* \"#utility.yul\":2268:2274   */\n      0x00\n        /* \"#utility.yul\":2317:2319   */\n      0x20\n        /* \"#utility.yul\":2305:2314   */\n      dup3\n        /* \"#utility.yul\":2296:2303   */\n      dup5\n        /* \"#utility.yul\":2292:2315   */\n      sub\n        /* \"#utility.yul\":2288:2320   */\n      slt\n        /* \"#utility.yul\":2285:2404   */\n      iszero\n      tag_651\n      jumpi\n        /* \"#utility.yul\":2323:2402   */\n      tag_652\n      tag_640\n      jump\t// in\n    tag_652:\n        /* \"#utility.yul\":2285:2404   */\n    tag_651:\n        /* \"#utility.yul\":2443:2444   */\n      0x00\n        /* \"#utility.yul\":2468:2521   */\n      tag_653\n        /* \"#utility.yul\":2513:2520   */\n      dup5\n        /* \"#utility.yul\":2504:2510   */\n      dup3\n        /* \"#utility.yul\":2493:2502   */\n      dup6\n        /* \"#utility.yul\":2489:2511   */\n      add\n        /* \"#utility.yul\":2468:2521   */\n      tag_633\n      jump\t// in\n    tag_653:\n        /* \"#utility.yul\":2458:2521   */\n      swap2\n      pop\n        /* \"#utility.yul\":2414:2531   */\n      pop\n        /* \"#utility.yul\":2209:2538   */\n      swap3\n      swap2\n      pop\n      pop\n      jump\t// out\n        /* \"#utility.yul\":2544:3157   */\n    tag_54:\n        /* \"#utility.yul\":2618:2624   */\n      0x00\n        /* \"#utility.yul\":2626:2632   */\n      dup1\n        /* \"#utility.yul\":2634:2640   */\n      0x00\n        /* \"#utility.yul\":2683:2685   */\n      0x60\n        /* \"#utility.yul\":2671:2680   */\n      dup5\n        /* \"#utility.yul\":2662:2669   */\n      dup7\n        /* \"#utility.yul\":2658:2681   */\n      sub\n        /* \"#utility.yul\":2654:2686   */\n      slt\n        /* \"#utility.yul\":2651:2770   */\n      iszero\n      tag_655\n      jumpi\n        /* \"#utility.yul\":2689:2768   */\n      tag_656\n      tag_640\n      jump\t// in\n    tag_656:\n        /* \"#utility.yul\":2651:2770   */\n    tag_655:\n        /* \"#utility.yul\":2809:2810   */\n      0x00\n        /* \"#utility.yul\":2834:2887   */\n      tag_657\n        /* \"#utility.yul\":2879:2886   */\n      dup7\n        /* \"#utility.yul\":2870:2876   */\n      dup3\n        /* \"#utility.yul\":2859:2868   */\n      dup8\n        /* \"#utility.yul\":2855:2877   */\n      add\n        /* \"#utility.yul\":2834:2887   */\n      tag_633\n      jump\t// in\n    tag_657:\n        /* \"#utility.yul\":2824:2887   */\n      swap4\n      pop\n        /* \"#utility.yul\":2780:2897   */\n      pop\n        /* \"#utility.yul\":2936:2938   */\n      0x20\n        /* \"#utility.yul\":2962:3015   */\n      tag_658\n        /* \"#utility.yul\":3007:3014   */\n      dup7\n        /* \"#utility.yul\":2998:3004   */\n      dup3\n        /* \"#utility.yul\":2987:2996   */\n      dup8\n        /* \"#utility.yul\":2983:3005   */\n      add\n        /* \"#utility.yul\":2962:3015   */\n      tag_633\n      jump\t// in\n    tag_658:\n        /* \"#utility.yul\":2952:3015   */\n      swap3\n      pop\n        /* \"#utility.yul\":2907:3025   */\n      pop\n        /* \"#utility.yul\":3064:3066   */\n      0x40\n        /* \"#utility.yul\":3090:3140   */\n      tag_659\n        /* \"#utility.yul\":3132:3139   */\n      dup7\n        /* \"#utility.yul\":3123:3129   */\n      dup3\n        /* \"#utility.yul\":3112:3121   */\n      dup8\n        /* \"#utility.yul\":3108:3130   */\n      add\n        /* \"#utility.yul\":3090:3140   */\n      tag_623\n      jump\t// in\n    tag_659:\n        /* \"#utility.yul\":3080:3140   */\n      swap2\n      pop\n        /* \"#utility.yul\":3035:3150   */\n      pop\n        /* \"#utility.yul\":2544:3157   */\n      swap3\n      pop\n      swap3\n      pop\n      swap3\n      jump\t// out\n        /* \"#utility.yul\":3163:3962   */\n    tag_25:\n        /* \"#utility.yul\":3250:3256   */\n      0x00\n        /* \"#utility.yul\":3258:3264   */\n      dup1\n        /* \"#utility.yul\":3266:3272   */\n      0x00\n        /* \"#utility.yul\":3315:3317   */\n      0x60\n        /* \"#utility.yul\":3303:3312   */\n      dup5\n        /* \"#utility.yul\":3294:3301   */\n      dup7\n        /* \"#utility.yul\":3290:3313   */\n      sub\n        /* \"#utility.yul\":3286:3318   */\n      slt\n        /* \"#utility.yul\":3283:3402   */\n      iszero\n      tag_661\n      jumpi\n        /* \"#utility.yul\":3321:3400   */\n      tag_662\n      tag_640\n      jump\t// in\n    tag_662:\n        /* \"#utility.yul\":3283:3402   */\n    tag_661:\n        /* \"#utility.yul\":3441:3442   */\n      0x00\n        /* \"#utility.yul\":3466:3519   */\n      tag_663\n        /* \"#utility.yul\":3511:3518   */\n      dup7\n        /* \"#utility.yul\":3502:3508   */\n      dup3\n        /* \"#utility.yul\":3491:3500   */\n      dup8\n        /* \"#utility.yul\":3487:3509   */\n      add\n        /* \"#utility.yul\":3466:3519   */\n      tag_633\n      jump\t// in\n    tag_663:\n        /* \"#utility.yul\":3456:3519   */\n      swap4\n      pop\n        /* \"#utility.yul\":3412:3529   */\n      pop\n        /* \"#utility.yul\":3568:3570   */\n      0x20\n        /* \"#utility.yul\":3594:3647   */\n      tag_664\n        /* \"#utility.yul\":3639:3646   */\n      dup7\n        /* \"#utility.yul\":3630:3636   */\n      dup3\n        /* \"#utility.yul\":3619:3628   */\n      dup8\n        /* \"#utility.yul\":3615:3637   */\n      add\n        /* \"#utility.yul\":3594:3647   */\n      tag_633\n      jump\t// in\n    tag_664:\n        /* \"#utility.yul\":3584:3647   */\n      swap3\n      pop\n        /* \"#utility.yul\":3539:3657   */\n      pop\n        /* \"#utility.yul\":3724:3726   */\n      0x40\n        /* \"#utility.yul\":3713:3722   */\n      dup5\n        /* \"#utility.yul\":3709:3727   */\n      add\n        /* \"#utility.yul\":3696:3728   */\n      calldataload\n        /* \"#utility.yul\":3755:3773   */\n      0xffffffffffffffff\n        /* \"#utility.yul\":3747:3753   */\n      dup2\n        /* \"#utility.yul\":3744:3774   */\n      gt\n        /* \"#utility.yul\":3741:3858   */\n      iszero\n      tag_665\n      jumpi\n        /* \"#utility.yul\":3777:3856   */\n      tag_666\n      tag_648\n      jump\t// in\n    tag_666:\n        /* \"#utility.yul\":3741:3858   */\n    tag_665:\n        /* \"#utility.yul\":3882:3945   */\n      tag_667\n        /* \"#utility.yul\":3937:3944   */\n      dup7\n        /* \"#utility.yul\":3928:3934   */\n      dup3\n        /* \"#utility.yul\":3917:3926   */\n      dup8\n        /* \"#utility.yul\":3913:3935   */\n      add\n        /* \"#utility.yul\":3882:3945   */\n      tag_627\n      jump\t// in\n    tag_667:\n        /* \"#utility.yul\":3872:3945   */\n      swap2\n      pop\n        /* \"#utility.yul\":3667:3955   */\n      pop\n        /* \"#utility.yul\":3163:3962   */\n      swap3\n      pop\n      swap3\n      pop\n      swap3\n      jump\t// out\n        /* \"#utility.yul\":3968:4727   */\n    tag_60:\n        /* \"#utility.yul\":4051:4057   */\n      0x00\n        /* \"#utility.yul\":4059:4065   */\n      dup1\n        /* \"#utility.yul\":4067:4073   */\n      0x00\n        /* \"#utility.yul\":4075:4081   */\n      dup1\n        /* \"#utility.yul\":4124:4127   */\n      0x80\n        /* \"#utility.yul\":4112:4121   */\n      dup6\n        /* \"#utility.yul\":4103:4110   */\n      dup8\n        /* \"#utility.yul\":4099:4122   */\n      sub\n        /* \"#utility.yul\":4095:4128   */\n      slt\n        /* \"#utility.yul\":4092:4212   */\n      iszero\n      tag_669\n      jumpi\n        /* \"#utility.yul\":4131:4210   */\n      tag_670\n      tag_640\n      jump\t// in\n    tag_670:\n        /* \"#utility.yul\":4092:4212   */\n    tag_669:\n        /* \"#utility.yul\":4251:4252   */\n      0x00\n        /* \"#utility.yul\":4276:4329   */\n      tag_671\n        /* \"#utility.yul\":4321:4328   */\n      dup8\n        /* \"#utility.yul\":4312:4318   */\n      dup3\n        /* \"#utility.yul\":4301:4310   */\n      dup9\n        /* \"#utility.yul\":4297:4319   */\n      add\n        /* \"#utility.yul\":4276:4329   */\n      tag_633\n      jump\t// in\n    tag_671:\n        /* \"#utility.yul\":4266:4329   */\n      swap5\n      pop\n        /* \"#utility.yul\":4222:4339   */\n      pop\n        /* \"#utility.yul\":4378:4380   */\n      0x20\n        /* \"#utility.yul\":4404:4457   */\n      tag_672\n        /* \"#utility.yul\":4449:4456   */\n      dup8\n        /* \"#utility.yul\":4440:4446   */\n      dup3\n        /* \"#utility.yul\":4429:4438   */\n      dup9\n        /* \"#utility.yul\":4425:4447   */\n      add\n        /* \"#utility.yul\":4404:4457   */\n      tag_633\n      jump\t// in\n    tag_672:\n        /* \"#utility.yul\":4394:4457   */\n      swap4\n      pop\n        /* \"#utility.yul\":4349:4467   */\n      pop\n        /* \"#utility.yul\":4506:4508   */\n      0x40\n        /* \"#utility.yul\":4532:4585   */\n      tag_673\n        /* \"#utility.yul\":4577:4584   */\n      dup8\n        /* \"#utility.yul\":4568:4574   */\n      dup3\n        /* \"#utility.yul\":4557:4566   */\n      dup9\n        /* \"#utility.yul\":4553:4575   */\n      add\n        /* \"#utility.yul\":4532:4585   */\n      tag_633\n      jump\t// in\n    tag_673:\n        /* \"#utility.yul\":4522:4585   */\n      swap3\n      pop\n        /* \"#utility.yul\":4477:4595   */\n      pop\n        /* \"#utility.yul\":4634:4636   */\n      0x60\n        /* \"#utility.yul\":4660:4710   */\n      tag_674\n        /* \"#utility.yul\":4702:4709   */\n      dup8\n        /* \"#utility.yul\":4693:4699   */\n      dup3\n        /* \"#utility.yul\":4682:4691   */\n      dup9\n        /* \"#utility.yul\":4678:4700   */\n      add\n        /* \"#utility.yul\":4660:4710   */\n      tag_623\n      jump\t// in\n    tag_674:\n        /* \"#utility.yul\":4650:4710   */\n      swap2\n      pop\n        /* \"#utility.yul\":4605:4720   */\n      pop\n        /* \"#utility.yul\":3968:4727   */\n      swap3\n      swap6\n      swap2\n      swap5\n      pop\n      swap3\n      pop\n      jump\t// out\n        /* \"#utility.yul\":4733:4981   */\n    tag_675:\n        /* \"#utility.yul\":4848:4858   */\n      0x00\n        /* \"#utility.yul\":4883:4975   */\n      tag_677\n        /* \"#utility.yul\":4971:4974   */\n      dup4\n        /* \"#utility.yul\":4963:4969   */\n      dup4\n        /* \"#utility.yul\":4883:4975   */\n      tag_678\n      jump\t// in\n    tag_677:\n        /* \"#utility.yul\":4869:4975   */\n      swap1\n      pop\n        /* \"#utility.yul\":4733:4981   */\n      swap3\n      swap2\n      pop\n      pop\n      jump\t// out\n        /* \"#utility.yul\":4987:5246   */\n    tag_679:\n        /* \"#utility.yul\":5096:5106   */\n      0x00\n        /* \"#utility.yul\":5117:5203   */\n      tag_681\n        /* \"#utility.yul\":5199:5202   */\n      dup4\n        /* \"#utility.yul\":5191:5197   */\n      dup4\n        /* \"#utility.yul\":5117:5203   */\n      tag_682\n      jump\t// in\n    tag_681:\n        /* \"#utility.yul\":5235:5239   */\n      0x40\n        /* \"#utility.yul\":5230:5233   */\n      dup4\n        /* \"#utility.yul\":5226:5240   */\n      add\n        /* \"#utility.yul\":5212:5240   */\n      swap1\n      pop\n        /* \"#utility.yul\":4987:5246   */\n      swap3\n      swap2\n      pop\n      pop\n      jump\t// out\n        /* \"#utility.yul\":5252:5488   */\n    tag_683:\n        /* \"#utility.yul\":5361:5371   */\n      0x00\n        /* \"#utility.yul\":5396:5482   */\n      tag_685\n        /* \"#utility.yul\":5478:5481   */\n      dup4\n        /* \"#utility.yul\":5470:5476   */\n      dup4\n        /* \"#utility.yul\":5396:5482   */\n      tag_686\n      jump\t// in\n    tag_685:\n        /* \"#utility.yul\":5382:5482   */\n      swap1\n      pop\n        /* \"#utility.yul\":5252:5488   */\n      swap3\n      swap2\n      pop\n      pop\n      jump\t// out\n        /* \"#utility.yul\":5494:5801   */\n    tag_687:\n        /* \"#utility.yul\":5627:5637   */\n      0x00\n        /* \"#utility.yul\":5648:5758   */\n      tag_689\n        /* \"#utility.yul\":5754:5757   */\n      dup4\n        /* \"#utility.yul\":5746:5752   */\n      dup4\n        /* \"#utility.yul\":5648:5758   */\n      tag_690\n      jump\t// in\n    tag_689:\n        /* \"#utility.yul\":5790:5794   */\n      0x40\n        /* \"#utility.yul\":5785:5788   */\n      dup4\n        /* \"#utility.yul\":5781:5795   */\n      add\n        /* \"#utility.yul\":5767:5795   */\n      swap1\n      pop\n        /* \"#utility.yul\":5494:5801   */\n      swap3\n      swap2\n      pop\n      pop\n      jump\t// out\n        /* \"#utility.yul\":5807:6106   */\n    tag_691:\n        /* \"#utility.yul\":5936:5946   */\n      0x00\n        /* \"#utility.yul\":5957:6063   */\n      tag_693\n        /* \"#utility.yul\":6059:6062   */\n      dup4\n        /* \"#utility.yul\":6051:6057   */\n      dup4\n        /* \"#utility.yul\":5957:6063   */\n      tag_694\n      jump\t// in\n    tag_693:\n        /* \"#utility.yul\":6095:6099   */\n      0x60\n        /* \"#utility.yul\":6090:6093   */\n      dup4\n        /* \"#utility.yul\":6086:6100   */\n      add\n        /* \"#utility.yul\":6072:6100   */\n      swap1\n      pop\n        /* \"#utility.yul\":5807:6106   */\n      swap3\n      swap2\n      pop\n      pop\n      jump\t// out\n        /* \"#utility.yul\":6112:6348   */\n    tag_695:\n        /* \"#utility.yul\":6221:6231   */\n      0x00\n        /* \"#utility.yul\":6256:6342   */\n      tag_697\n        /* \"#utility.yul\":6338:6341   */\n      dup4\n        /* \"#utility.yul\":6330:6336   */\n      dup4\n        /* \"#utility.yul\":6256:6342   */\n      tag_698\n      jump\t// in\n    tag_697:\n        /* \"#utility.yul\":6242:6342   */\n      swap1\n      pop\n        /* \"#utility.yul\":6112:6348   */\n      swap3\n      swap2\n      pop\n      pop\n      jump\t// out\n        /* \"#utility.yul\":6354:6609   */\n    tag_699:\n        /* \"#utility.yul\":6461:6471   */\n      0x00\n        /* \"#utility.yul\":6482:6566   */\n      tag_701\n        /* \"#utility.yul\":6562:6565   */\n      dup4\n        /* \"#utility.yul\":6554:6560   */\n      dup4\n        /* \"#utility.yul\":6482:6566   */\n      tag_702\n      jump\t// in\n    tag_701:\n        /* \"#utility.yul\":6598:6602   */\n      0x60\n        /* \"#utility.yul\":6593:6596   */\n      dup4\n        /* \"#utility.yul\":6589:6603   */\n      add\n        /* \"#utility.yul\":6575:6603   */\n      swap1\n      pop\n        /* \"#utility.yul\":6354:6609   */\n      swap3\n      swap2\n      pop\n      pop\n      jump\t// out\n        /* \"#utility.yul\":6615:6794   */\n    tag_703:\n        /* \"#utility.yul\":6684:6694   */\n      0x00\n        /* \"#utility.yul\":6705:6751   */\n      tag_705\n        /* \"#utility.yul\":6747:6750   */\n      dup4\n        /* \"#utility.yul\":6739:6745   */\n      dup4\n        /* \"#utility.yul\":6705:6751   */\n      tag_706\n      jump\t// in\n    tag_705:\n        /* \"#utility.yul\":6783:6787   */\n      0x20\n        /* \"#utility.yul\":6778:6781   */\n      dup4\n        /* \"#utility.yul\":6774:6788   */\n      add\n        /* \"#utility.yul\":6760:6788   */\n      swap1\n      pop\n        /* \"#utility.yul\":6615:6794   */\n      swap3\n      swap2\n      pop\n      pop\n      jump\t// out\n        /* \"#utility.yul\":6800:6908   */\n    tag_707:\n        /* \"#utility.yul\":6877:6901   */\n      tag_709\n        /* \"#utility.yul\":6895:6900   */\n      dup2\n        /* \"#utility.yul\":6877:6901   */\n      tag_710\n      jump\t// in\n    tag_709:\n        /* \"#utility.yul\":6872:6875   */\n      dup3\n        /* \"#utility.yul\":6865:6902   */\n      mstore\n        /* \"#utility.yul\":6800:6908   */\n      pop\n      pop\n      jump\t// out\n        /* \"#utility.yul\":6968:8043   */\n    tag_711:\n        /* \"#utility.yul\":7123:7126   */\n      0x00\n        /* \"#utility.yul\":7152:7229   */\n      tag_713\n        /* \"#utility.yul\":7223:7228   */\n      dup3\n        /* \"#utility.yul\":7152:7229   */\n      tag_714\n      jump\t// in\n    tag_713:\n        /* \"#utility.yul\":7245:7344   */\n      tag_715\n        /* \"#utility.yul\":7337:7343   */\n      dup2\n        /* \"#utility.yul\":7332:7335   */\n      dup6\n        /* \"#utility.yul\":7245:7344   */\n      tag_716\n      jump\t// in\n    tag_715:\n        /* \"#utility.yul\":7238:7344   */\n      swap4\n      pop\n        /* \"#utility.yul\":7370:7373   */\n      dup4\n        /* \"#utility.yul\":7415:7419   */\n      0x20\n        /* \"#utility.yul\":7407:7413   */\n      dup3\n        /* \"#utility.yul\":7403:7420   */\n      mul\n        /* \"#utility.yul\":7398:7401   */\n      dup6\n        /* \"#utility.yul\":7394:7421   */\n      add\n        /* \"#utility.yul\":7445:7524   */\n      tag_717\n        /* \"#utility.yul\":7518:7523   */\n      dup6\n        /* \"#utility.yul\":7445:7524   */\n      tag_718\n      jump\t// in\n    tag_717:\n        /* \"#utility.yul\":7547:7554   */\n      dup1\n        /* \"#utility.yul\":7578:7579   */\n      0x00\n        /* \"#utility.yul\":7563:7998   */\n    tag_719:\n        /* \"#utility.yul\":7588:7594   */\n      dup6\n        /* \"#utility.yul\":7585:7586   */\n      dup2\n        /* \"#utility.yul\":7582:7595   */\n      lt\n        /* \"#utility.yul\":7563:7998   */\n      iszero\n      tag_721\n      jumpi\n        /* \"#utility.yul\":7659:7668   */\n      dup5\n        /* \"#utility.yul\":7653:7657   */\n      dup5\n        /* \"#utility.yul\":7649:7669   */\n      sub\n        /* \"#utility.yul\":7644:7647   */\n      dup10\n        /* \"#utility.yul\":7637:7670   */\n      mstore\n        /* \"#utility.yul\":7710:7716   */\n      dup2\n        /* \"#utility.yul\":7704:7717   */\n      mload\n        /* \"#utility.yul\":7738:7848   */\n      tag_722\n        /* \"#utility.yul\":7843:7847   */\n      dup6\n        /* \"#utility.yul\":7828:7841   */\n      dup3\n        /* \"#utility.yul\":7738:7848   */\n      tag_675\n      jump\t// in\n    tag_722:\n        /* \"#utility.yul\":7730:7848   */\n      swap5\n      pop\n        /* \"#utility.yul\":7871:7954   */\n      tag_723\n        /* \"#utility.yul\":7947:7953   */\n      dup4\n        /* \"#utility.yul\":7871:7954   */\n      tag_724\n      jump\t// in\n    tag_723:\n        /* \"#utility.yul\":7861:7954   */\n      swap3\n      pop\n        /* \"#utility.yul\":7983:7987   */\n      0x20\n        /* \"#utility.yul\":7978:7981   */\n      dup11\n        /* \"#utility.yul\":7974:7988   */\n      add\n        /* \"#utility.yul\":7967:7988   */\n      swap10\n      pop\n        /* \"#utility.yul\":7623:7998   */\n      pop\n        /* \"#utility.yul\":7610:7611   */\n      0x01\n        /* \"#utility.yul\":7607:7608   */\n      dup2\n        /* \"#utility.yul\":7603:7612   */\n      add\n        /* \"#utility.yul\":7598:7612   */\n      swap1\n      pop\n        /* \"#utility.yul\":7563:7998   */\n      jump(tag_719)\n    tag_721:\n        /* \"#utility.yul\":7567:7581   */\n      pop\n        /* \"#utility.yul\":8014:8018   */\n      dup3\n        /* \"#utility.yul\":8007:8018   */\n      swap8\n      pop\n        /* \"#utility.yul\":8034:8037   */\n      dup8\n        /* \"#utility.yul\":8027:8037   */\n      swap6\n      pop\n        /* \"#utility.yul\":7128:8043   */\n      pop\n      pop\n      pop\n      pop\n      pop\n        /* \"#utility.yul\":6968:8043   */\n      swap3\n      swap2\n      pop\n      pop\n      jump\t// out\n        /* \"#utility.yul\":8097:8969   */\n    tag_725:\n        /* \"#utility.yul\":8246:8249   */\n      0x00\n        /* \"#utility.yul\":8275:8349   */\n      tag_727\n        /* \"#utility.yul\":8343:8348   */\n      dup3\n        /* \"#utility.yul\":8275:8349   */\n      tag_728\n      jump\t// in\n    tag_727:\n        /* \"#utility.yul\":8365:8461   */\n      tag_729\n        /* \"#utility.yul\":8454:8460   */\n      dup2\n        /* \"#utility.yul\":8449:8452   */\n      dup6\n        /* \"#utility.yul\":8365:8461   */\n      tag_730\n      jump\t// in\n    tag_729:\n        /* \"#utility.yul\":8358:8461   */\n      swap4\n      pop\n        /* \"#utility.yul\":8485:8561   */\n      tag_731\n        /* \"#utility.yul\":8555:8560   */\n      dup4\n        /* \"#utility.yul\":8485:8561   */\n      tag_732\n      jump\t// in\n    tag_731:\n        /* \"#utility.yul\":8584:8591   */\n      dup1\n        /* \"#utility.yul\":8615:8616   */\n      0x00\n        /* \"#utility.yul\":8600:8944   */\n    tag_733:\n        /* \"#utility.yul\":8625:8631   */\n      dup4\n        /* \"#utility.yul\":8622:8623   */\n      dup2\n        /* \"#utility.yul\":8619:8632   */\n      lt\n        /* \"#utility.yul\":8600:8944   */\n      iszero\n      tag_735\n      jumpi\n        /* \"#utility.yul\":8701:8707   */\n      dup2\n        /* \"#utility.yul\":8695:8708   */\n      mload\n        /* \"#utility.yul\":8728:8831   */\n      tag_736\n        /* \"#utility.yul\":8827:8830   */\n      dup9\n        /* \"#utility.yul\":8812:8825   */\n      dup3\n        /* \"#utility.yul\":8728:8831   */\n      tag_679\n      jump\t// in\n    tag_736:\n        /* \"#utility.yul\":8721:8831   */\n      swap8\n      pop\n        /* \"#utility.yul\":8854:8934   */\n      tag_737\n        /* \"#utility.yul\":8927:8933   */\n      dup4\n        /* \"#utility.yul\":8854:8934   */\n      tag_738\n      jump\t// in\n    tag_737:\n        /* \"#utility.yul\":8844:8934   */\n      swap3\n      pop\n        /* \"#utility.yul\":8660:8944   */\n      pop\n        /* \"#utility.yul\":8647:8648   */\n      0x01\n        /* \"#utility.yul\":8644:8645   */\n      dup2\n        /* \"#utility.yul\":8640:8649   */\n      add\n        /* \"#utility.yul\":8635:8649   */\n      swap1\n      pop\n        /* \"#utility.yul\":8600:8944   */\n      jump(tag_733)\n    tag_735:\n        /* \"#utility.yul\":8604:8618   */\n      pop\n        /* \"#utility.yul\":8960:8963   */\n      dup6\n        /* \"#utility.yul\":8953:8963   */\n      swap4\n      pop\n        /* \"#utility.yul\":8251:8969   */\n      pop\n      pop\n      pop\n        /* \"#utility.yul\":8097:8969   */\n      swap3\n      swap2\n      pop\n      pop\n      jump\t// out\n        /* \"#utility.yul\":9023:10074   */\n    tag_739:\n        /* \"#utility.yul\":9172:9175   */\n      0x00\n        /* \"#utility.yul\":9201:9275   */\n      tag_741\n        /* \"#utility.yul\":9269:9274   */\n      dup3\n        /* \"#utility.yul\":9201:9275   */\n      tag_742\n      jump\t// in\n    tag_741:\n        /* \"#utility.yul\":9291:9387   */\n      tag_743\n        /* \"#utility.yul\":9380:9386   */\n      dup2\n        /* \"#utility.yul\":9375:9378   */\n      dup6\n        /* \"#utility.yul\":9291:9387   */\n      tag_744\n      jump\t// in\n    tag_743:\n        /* \"#utility.yul\":9284:9387   */\n      swap4\n      pop\n        /* \"#utility.yul\":9413:9416   */\n      dup4\n        /* \"#utility.yul\":9458:9462   */\n      0x20\n        /* \"#utility.yul\":9450:9456   */\n      dup3\n        /* \"#utility.yul\":9446:9463   */\n      mul\n        /* \"#utility.yul\":9441:9444   */\n      dup6\n        /* \"#utility.yul\":9437:9464   */\n      add\n        /* \"#utility.yul\":9488:9564   */\n      tag_745\n        /* \"#utility.yul\":9558:9563   */\n      dup6\n        /* \"#utility.yul\":9488:9564   */\n      tag_746\n      jump\t// in\n    tag_745:\n        /* \"#utility.yul\":9587:9594   */\n      dup1\n        /* \"#utility.yul\":9618:9619   */\n      0x00\n        /* \"#utility.yul\":9603:10029   */\n    tag_747:\n        /* \"#utility.yul\":9628:9634   */\n      dup6\n        /* \"#utility.yul\":9625:9626   */\n      dup2\n        /* \"#utility.yul\":9622:9635   */\n      lt\n        /* \"#utility.yul\":9603:10029   */\n      iszero\n      tag_749\n      jumpi\n        /* \"#utility.yul\":9699:9708   */\n      dup5\n        /* \"#utility.yul\":9693:9697   */\n      dup5\n        /* \"#utility.yul\":9689:9709   */\n      sub\n        /* \"#utility.yul\":9684:9687   */\n      dup10\n        /* \"#utility.yul\":9677:9710   */\n      mstore\n        /* \"#utility.yul\":9750:9756   */\n      dup2\n        /* \"#utility.yul\":9744:9757   */\n      mload\n        /* \"#utility.yul\":9778:9882   */\n      tag_750\n        /* \"#utility.yul\":9877:9881   */\n      dup6\n        /* \"#utility.yul\":9862:9875   */\n      dup3\n        /* \"#utility.yul\":9778:9882   */\n      tag_683\n      jump\t// in\n    tag_750:\n        /* \"#utility.yul\":9770:9882   */\n      swap5\n      pop\n        /* \"#utility.yul\":9905:9985   */\n      tag_751\n        /* \"#utility.yul\":9978:9984   */\n      dup4\n        /* \"#utility.yul\":9905:9985   */\n      tag_752\n      jump\t// in\n    tag_751:\n        /* \"#utility.yul\":9895:9985   */\n      swap3\n      pop\n        /* \"#utility.yul\":10014:10018   */\n      0x20\n        /* \"#utility.yul\":10009:10012   */\n      dup11\n        /* \"#utility.yul\":10005:10019   */\n      add\n        /* \"#utility.yul\":9998:10019   */\n      swap10\n      pop\n        /* \"#utility.yul\":9663:10029   */\n      pop\n        /* \"#utility.yul\":9650:9651   */\n      0x01\n        /* \"#utility.yul\":9647:9648   */\n      dup2\n        /* \"#utility.yul\":9643:9652   */\n      add\n        /* \"#utility.yul\":9638:9652   */\n      swap1\n      pop\n        /* \"#utility.yul\":9603:10029   */\n      jump(tag_747)\n    tag_749:\n        /* \"#utility.yul\":9607:9621   */\n      pop\n        /* \"#utility.yul\":10045:10049   */\n      dup3\n        /* \"#utility.yul\":10038:10049   */\n      swap8\n      pop\n        /* \"#utility.yul\":10065:10068   */\n      dup8\n        /* \"#utility.yul\":10058:10068   */\n      swap6\n      pop\n        /* \"#utility.yul\":9177:10074   */\n      pop\n      pop\n      pop\n      pop\n      pop\n        /* \"#utility.yul\":9023:10074   */\n      swap3\n      swap2\n      pop\n      pop\n      jump\t// out\n        /* \"#utility.yul\":10152:11140   */\n    tag_753:\n        /* \"#utility.yul\":10335:10338   */\n      0x00\n        /* \"#utility.yul\":10364:10450   */\n      tag_755\n        /* \"#utility.yul\":10444:10449   */\n      dup3\n        /* \"#utility.yul\":10364:10450   */\n      tag_756\n      jump\t// in\n    tag_755:\n        /* \"#utility.yul\":10466:10584   */\n      tag_757\n        /* \"#utility.yul\":10577:10583   */\n      dup2\n        /* \"#utility.yul\":10572:10575   */\n      dup6\n        /* \"#utility.yul\":10466:10584   */\n      tag_758\n      jump\t// in\n    tag_757:\n        /* \"#utility.yul\":10459:10584   */\n      swap4\n      pop\n        /* \"#utility.yul\":10608:10696   */\n      tag_759\n        /* \"#utility.yul\":10690:10695   */\n      dup4\n        /* \"#utility.yul\":10608:10696   */\n      tag_760\n      jump\t// in\n    tag_759:\n        /* \"#utility.yul\":10719:10726   */\n      dup1\n        /* \"#utility.yul\":10750:10751   */\n      0x00\n        /* \"#utility.yul\":10735:11115   */\n    tag_761:\n        /* \"#utility.yul\":10760:10766   */\n      dup4\n        /* \"#utility.yul\":10757:10758   */\n      dup2\n        /* \"#utility.yul\":10754:10767   */\n      lt\n        /* \"#utility.yul\":10735:11115   */\n      iszero\n      tag_763\n      jumpi\n        /* \"#utility.yul\":10836:10842   */\n      dup2\n        /* \"#utility.yul\":10830:10843   */\n      mload\n        /* \"#utility.yul\":10863:10990   */\n      tag_764\n        /* \"#utility.yul\":10986:10989   */\n      dup9\n        /* \"#utility.yul\":10971:10984   */\n      dup3\n        /* \"#utility.yul\":10863:10990   */\n      tag_687\n      jump\t// in\n    tag_764:\n        /* \"#utility.yul\":10856:10990   */\n      swap8\n      pop\n        /* \"#utility.yul\":11013:11105   */\n      tag_765\n        /* \"#utility.yul\":11098:11104   */\n      dup4\n        /* \"#utility.yul\":11013:11105   */\n      tag_766\n      jump\t// in\n    tag_765:\n        /* \"#utility.yul\":11003:11105   */\n      swap3\n      pop\n        /* \"#utility.yul\":10795:11115   */\n      pop\n        /* \"#utility.yul\":10782:10783   */\n      0x01\n        /* \"#utility.yul\":10779:10780   */\n      dup2\n        /* \"#utility.yul\":10775:10784   */\n      add\n        /* \"#utility.yul\":10770:10784   */\n      swap1\n      pop\n        /* \"#utility.yul\":10735:11115   */\n      jump(tag_761)\n    tag_763:\n        /* \"#utility.yul\":10739:10753   */\n      pop\n        /* \"#utility.yul\":11131:11134   */\n      dup6\n        /* \"#utility.yul\":11124:11134   */\n      swap4\n      pop\n        /* \"#utility.yul\":10340:11140   */\n      pop\n      pop\n      pop\n        /* \"#utility.yul\":10152:11140   */\n      swap3\n      swap2\n      pop\n      pop\n      jump\t// out\n        /* \"#utility.yul\":11214:12186   */\n    tag_767:\n        /* \"#utility.yul\":11393:11396   */\n      0x00\n        /* \"#utility.yul\":11422:11506   */\n      tag_769\n        /* \"#utility.yul\":11500:11505   */\n      dup3\n        /* \"#utility.yul\":11422:11506   */\n      tag_770\n      jump\t// in\n    tag_769:\n        /* \"#utility.yul\":11522:11638   */\n      tag_771\n        /* \"#utility.yul\":11631:11637   */\n      dup2\n        /* \"#utility.yul\":11626:11629   */\n      dup6\n        /* \"#utility.yul\":11522:11638   */\n      tag_772\n      jump\t// in\n    tag_771:\n        /* \"#utility.yul\":11515:11638   */\n      swap4\n      pop\n        /* \"#utility.yul\":11662:11748   */\n      tag_773\n        /* \"#utility.yul\":11742:11747   */\n      dup4\n        /* \"#utility.yul\":11662:11748   */\n      tag_774\n      jump\t// in\n    tag_773:\n        /* \"#utility.yul\":11771:11778   */\n      dup1\n        /* \"#utility.yul\":11802:11803   */\n      0x00\n        /* \"#utility.yul\":11787:12161   */\n    tag_775:\n        /* \"#utility.yul\":11812:11818   */\n      dup4\n        /* \"#utility.yul\":11809:11810   */\n      dup2\n        /* \"#utility.yul\":11806:11819   */\n      lt\n        /* \"#utility.yul\":11787:12161   */\n      iszero\n      tag_777\n      jumpi\n        /* \"#utility.yul\":11888:11894   */\n      dup2\n        /* \"#utility.yul\":11882:11895   */\n      mload\n        /* \"#utility.yul\":11915:12038   */\n      tag_778\n        /* \"#utility.yul\":12034:12037   */\n      dup9\n        /* \"#utility.yul\":12019:12032   */\n      dup3\n        /* \"#utility.yul\":11915:12038   */\n      tag_691\n      jump\t// in\n    tag_778:\n        /* \"#utility.yul\":11908:12038   */\n      swap8\n      pop\n        /* \"#utility.yul\":12061:12151   */\n      tag_779\n        /* \"#utility.yul\":12144:12150   */\n      dup4\n        /* \"#utility.yul\":12061:12151   */\n      tag_780\n      jump\t// in\n    tag_779:\n        /* \"#utility.yul\":12051:12151   */\n      swap3\n      pop\n        /* \"#utility.yul\":11847:12161   */\n      pop\n        /* \"#utility.yul\":11834:11835   */\n      0x01\n        /* \"#utility.yul\":11831:11832   */\n      dup2\n        /* \"#utility.yul\":11827:11836   */\n      add\n        /* \"#utility.yul\":11822:11836   */\n      swap1\n      pop\n        /* \"#utility.yul\":11787:12161   */\n      jump(tag_775)\n    tag_777:\n        /* \"#utility.yul\":11791:11805   */\n      pop\n        /* \"#utility.yul\":12177:12180   */\n      dup6\n        /* \"#utility.yul\":12170:12180   */\n      swap4\n      pop\n        /* \"#utility.yul\":11398:12186   */\n      pop\n      pop\n      pop\n        /* \"#utility.yul\":11214:12186   */\n      swap3\n      swap2\n      pop\n      pop\n      jump\t// out\n        /* \"#utility.yul\":12240:13311   */\n    tag_781:\n        /* \"#utility.yul\":12399:12402   */\n      0x00\n        /* \"#utility.yul\":12428:12502   */\n      tag_783\n        /* \"#utility.yul\":12496:12501   */\n      dup3\n        /* \"#utility.yul\":12428:12502   */\n      tag_784\n      jump\t// in\n    tag_783:\n        /* \"#utility.yul\":12518:12624   */\n      tag_785\n        /* \"#utility.yul\":12617:12623   */\n      dup2\n        /* \"#utility.yul\":12612:12615   */\n      dup6\n        /* \"#utility.yul\":12518:12624   */\n      tag_786\n      jump\t// in\n    tag_785:\n        /* \"#utility.yul\":12511:12624   */\n      swap4\n      pop\n        /* \"#utility.yul\":12650:12653   */\n      dup4\n        /* \"#utility.yul\":12695:12699   */\n      0x20\n        /* \"#utility.yul\":12687:12693   */\n      dup3\n        /* \"#utility.yul\":12683:12700   */\n      mul\n        /* \"#utility.yul\":12678:12681   */\n      dup6\n        /* \"#utility.yul\":12674:12701   */\n      add\n        /* \"#utility.yul\":12725:12801   */\n      tag_787\n        /* \"#utility.yul\":12795:12800   */\n      dup6\n        /* \"#utility.yul\":12725:12801   */\n      tag_788\n      jump\t// in\n    tag_787:\n        /* \"#utility.yul\":12824:12831   */\n      dup1\n        /* \"#utility.yul\":12855:12856   */\n      0x00\n        /* \"#utility.yul\":12840:13266   */\n    tag_789:\n        /* \"#utility.yul\":12865:12871   */\n      dup6\n        /* \"#utility.yul\":12862:12863   */\n      dup2\n        /* \"#utility.yul\":12859:12872   */\n      lt\n        /* \"#utility.yul\":12840:13266   */\n      iszero\n      tag_791\n      jumpi\n        /* \"#utility.yul\":12936:12945   */\n      dup5\n        /* \"#utility.yul\":12930:12934   */\n      dup5\n        /* \"#utility.yul\":12926:12946   */\n      sub\n        /* \"#utility.yul\":12921:12924   */\n      dup10\n        /* \"#utility.yul\":12914:12947   */\n      mstore\n        /* \"#utility.yul\":12987:12993   */\n      dup2\n        /* \"#utility.yul\":12981:12994   */\n      mload\n        /* \"#utility.yul\":13015:13119   */\n      tag_792\n        /* \"#utility.yul\":13114:13118   */\n      dup6\n        /* \"#utility.yul\":13099:13112   */\n      dup3\n        /* \"#utility.yul\":13015:13119   */\n      tag_695\n      jump\t// in\n    tag_792:\n        /* \"#utility.yul\":13007:13119   */\n      swap5\n      pop\n        /* \"#utility.yul\":13142:13222   */\n      tag_793\n        /* \"#utility.yul\":13215:13221   */\n      dup4\n        /* \"#utility.yul\":13142:13222   */\n      tag_794\n      jump\t// in\n    tag_793:\n        /* \"#utility.yul\":13132:13222   */\n      swap3\n      pop\n        /* \"#utility.yul\":13251:13255   */\n      0x20\n        /* \"#utility.yul\":13246:13249   */\n      dup11\n        /* \"#utility.yul\":13242:13256   */\n      add\n        /* \"#utility.yul\":13235:13256   */\n      swap10\n      pop\n        /* \"#utility.yul\":12900:13266   */\n      pop\n        /* \"#utility.yul\":12887:12888   */\n      0x01\n        /* \"#utility.yul\":12884:12885   */\n      dup2\n        /* \"#utility.yul\":12880:12889   */\n      add\n        /* \"#utility.yul\":12875:12889   */\n      swap1\n      pop\n        /* \"#utility.yul\":12840:13266   */\n      jump(tag_789)\n    tag_791:\n        /* \"#utility.yul\":12844:12858   */\n      pop\n        /* \"#utility.yul\":13282:13286   */\n      dup3\n        /* \"#utility.yul\":13275:13286   */\n      swap8\n      pop\n        /* \"#utility.yul\":13302:13305   */\n      dup8\n        /* \"#utility.yul\":13295:13305   */\n      swap6\n      pop\n        /* \"#utility.yul\":12404:13311   */\n      pop\n      pop\n      pop\n      pop\n      pop\n        /* \"#utility.yul\":12240:13311   */\n      swap3\n      swap2\n      pop\n      pop\n      jump\t// out\n        /* \"#utility.yul\":13365:14249   */\n    tag_795:\n        /* \"#utility.yul\":13522:13525   */\n      0x00\n        /* \"#utility.yul\":13551:13624   */\n      tag_797\n        /* \"#utility.yul\":13618:13623   */\n      dup3\n        /* \"#utility.yul\":13551:13624   */\n      tag_798\n      jump\t// in\n    tag_797:\n        /* \"#utility.yul\":13640:13745   */\n      tag_799\n        /* \"#utility.yul\":13738:13744   */\n      dup2\n        /* \"#utility.yul\":13733:13736   */\n      dup6\n        /* \"#utility.yul\":13640:13745   */\n      tag_800\n      jump\t// in\n    tag_799:\n        /* \"#utility.yul\":13633:13745   */\n      swap4\n      pop\n        /* \"#utility.yul\":13769:13844   */\n      tag_801\n        /* \"#utility.yul\":13838:13843   */\n      dup4\n        /* \"#utility.yul\":13769:13844   */\n      tag_802\n      jump\t// in\n    tag_801:\n        /* \"#utility.yul\":13867:13874   */\n      dup1\n        /* \"#utility.yul\":13898:13899   */\n      0x00\n        /* \"#utility.yul\":13883:14224   */\n    tag_803:\n        /* \"#utility.yul\":13908:13914   */\n      dup4\n        /* \"#utility.yul\":13905:13906   */\n      dup2\n        /* \"#utility.yul\":13902:13915   */\n      lt\n        /* \"#utility.yul\":13883:14224   */\n      iszero\n      tag_805\n      jumpi\n        /* \"#utility.yul\":13984:13990   */\n      dup2\n        /* \"#utility.yul\":13978:13991   */\n      mload\n        /* \"#utility.yul\":14011:14112   */\n      tag_806\n        /* \"#utility.yul\":14108:14111   */\n      dup9\n        /* \"#utility.yul\":14093:14106   */\n      dup3\n        /* \"#utility.yul\":14011:14112   */\n      tag_699\n      jump\t// in\n    tag_806:\n        /* \"#utility.yul\":14004:14112   */\n      swap8\n      pop\n        /* \"#utility.yul\":14135:14214   */\n      tag_807\n        /* \"#utility.yul\":14207:14213   */\n      dup4\n        /* \"#utility.yul\":14135:14214   */\n      tag_808\n      jump\t// in\n    tag_807:\n        /* \"#utility.yul\":14125:14214   */\n      swap3\n      pop\n        /* \"#utility.yul\":13943:14224   */\n      pop\n        /* \"#utility.yul\":13930:13931   */\n      0x01\n        /* \"#utility.yul\":13927:13928   */\n      dup2\n        /* \"#utility.yul\":13923:13932   */\n      add\n        /* \"#utility.yul\":13918:13932   */\n      swap1\n      pop\n        /* \"#utility.yul\":13883:14224   */\n      jump(tag_803)\n    tag_805:\n        /* \"#utility.yul\":13887:13901   */\n      pop\n        /* \"#utility.yul\":14240:14243   */\n      dup6\n        /* \"#utility.yul\":14233:14243   */\n      swap4\n      pop\n        /* \"#utility.yul\":13527:14249   */\n      pop\n      pop\n      pop\n        /* \"#utility.yul\":13365:14249   */\n      swap3\n      swap2\n      pop\n      pop\n      jump\t// out\n        /* \"#utility.yul\":14285:14997   */\n    tag_809:\n        /* \"#utility.yul\":14394:14397   */\n      0x00\n        /* \"#utility.yul\":14423:14477   */\n      tag_811\n        /* \"#utility.yul\":14471:14476   */\n      dup3\n        /* \"#utility.yul\":14423:14477   */\n      tag_812\n      jump\t// in\n    tag_811:\n        /* \"#utility.yul\":14493:14569   */\n      tag_813\n        /* \"#utility.yul\":14562:14568   */\n      dup2\n        /* \"#utility.yul\":14557:14560   */\n      dup6\n        /* \"#utility.yul\":14493:14569   */\n      tag_814\n      jump\t// in\n    tag_813:\n        /* \"#utility.yul\":14486:14569   */\n      swap4\n      pop\n        /* \"#utility.yul\":14593:14649   */\n      tag_815\n        /* \"#utility.yul\":14643:14648   */\n      dup4\n        /* \"#utility.yul\":14593:14649   */\n      tag_816\n      jump\t// in\n    tag_815:\n        /* \"#utility.yul\":14672:14679   */\n      dup1\n        /* \"#utility.yul\":14703:14704   */\n      0x00\n        /* \"#utility.yul\":14688:14972   */\n    tag_817:\n        /* \"#utility.yul\":14713:14719   */\n      dup4\n        /* \"#utility.yul\":14710:14711   */\n      dup2\n        /* \"#utility.yul\":14707:14720   */\n      lt\n        /* \"#utility.yul\":14688:14972   */\n      iszero\n      tag_819\n      jumpi\n        /* \"#utility.yul\":14789:14795   */\n      dup2\n        /* \"#utility.yul\":14783:14796   */\n      mload\n        /* \"#utility.yul\":14816:14879   */\n      tag_820\n        /* \"#utility.yul\":14875:14878   */\n      dup9\n        /* \"#utility.yul\":14860:14873   */\n      dup3\n        /* \"#utility.yul\":14816:14879   */\n      tag_703\n      jump\t// in\n    tag_820:\n        /* \"#utility.yul\":14809:14879   */\n      swap8\n      pop\n        /* \"#utility.yul\":14902:14962   */\n      tag_821\n        /* \"#utility.yul\":14955:14961   */\n      dup4\n        /* \"#utility.yul\":14902:14962   */\n      tag_822\n      jump\t// in\n    tag_821:\n        /* \"#utility.yul\":14892:14962   */\n      swap3\n      pop\n        /* \"#utility.yul\":14748:14972   */\n      pop\n        /* \"#utility.yul\":14735:14736   */\n      0x01\n        /* \"#utility.yul\":14732:14733   */\n      dup2\n        /* \"#utility.yul\":14728:14737   */\n      add\n        /* \"#utility.yul\":14723:14737   */\n      swap1\n      pop\n        /* \"#utility.yul\":14688:14972   */\n      jump(tag_817)\n    tag_819:\n        /* \"#utility.yul\":14692:14706   */\n      pop\n        /* \"#utility.yul\":14988:14991   */\n      dup6\n        /* \"#utility.yul\":14981:14991   */\n      swap4\n      pop\n        /* \"#utility.yul\":14399:14997   */\n      pop\n      pop\n      pop\n        /* \"#utility.yul\":14285:14997   */\n      swap3\n      swap2\n      pop\n      pop\n      jump\t// out\n        /* \"#utility.yul\":15003:15102   */\n    tag_823:\n        /* \"#utility.yul\":15074:15095   */\n      tag_825\n        /* \"#utility.yul\":15089:15094   */\n      dup2\n        /* \"#utility.yul\":15074:15095   */\n      tag_826\n      jump\t// in\n    tag_825:\n        /* \"#utility.yul\":15069:15072   */\n      dup3\n        /* \"#utility.yul\":15062:15096   */\n      mstore\n        /* \"#utility.yul\":15003:15102   */\n      pop\n      pop\n      jump\t// out\n        /* \"#utility.yul\":15108:15452   */\n    tag_827:\n        /* \"#utility.yul\":15186:15189   */\n      0x00\n        /* \"#utility.yul\":15214:15253   */\n      tag_829\n        /* \"#utility.yul\":15247:15252   */\n      dup3\n        /* \"#utility.yul\":15214:15253   */\n      tag_830\n      jump\t// in\n    tag_829:\n        /* \"#utility.yul\":15269:15330   */\n      tag_831\n        /* \"#utility.yul\":15323:15329   */\n      dup2\n        /* \"#utility.yul\":15318:15321   */\n      dup6\n        /* \"#utility.yul\":15269:15330   */\n      tag_832\n      jump\t// in\n    tag_831:\n        /* \"#utility.yul\":15262:15330   */\n      swap4\n      pop\n        /* \"#utility.yul\":15339:15391   */\n      tag_833\n        /* \"#utility.yul\":15384:15390   */\n      dup2\n        /* \"#utility.yul\":15379:15382   */\n      dup6\n        /* \"#utility.yul\":15372:15376   */\n      0x20\n        /* \"#utility.yul\":15365:15370   */\n      dup7\n        /* \"#utility.yul\":15361:15377   */\n      add\n        /* \"#utility.yul\":15339:15391   */\n      tag_834\n      jump\t// in\n    tag_833:\n        /* \"#utility.yul\":15416:15445   */\n      tag_835\n        /* \"#utility.yul\":15438:15444   */\n      dup2\n        /* \"#utility.yul\":15416:15445   */\n      tag_836\n      jump\t// in\n    tag_835:\n        /* \"#utility.yul\":15411:15414   */\n      dup5\n        /* \"#utility.yul\":15407:15446   */\n      add\n        /* \"#utility.yul\":15400:15446   */\n      swap2\n      pop\n        /* \"#utility.yul\":15190:15452   */\n      pop\n        /* \"#utility.yul\":15108:15452   */\n      swap3\n      swap2\n      pop\n      pop\n      jump\t// out\n        /* \"#utility.yul\":15458:15823   */\n    tag_837:\n        /* \"#utility.yul\":15600:15603   */\n      0x00\n        /* \"#utility.yul\":15621:15687   */\n      tag_839\n        /* \"#utility.yul\":15685:15686   */\n      0x03\n        /* \"#utility.yul\":15680:15683   */\n      dup4\n        /* \"#utility.yul\":15621:15687   */\n      tag_840\n      jump\t// in\n    tag_839:\n        /* \"#utility.yul\":15614:15687   */\n      swap2\n      pop\n        /* \"#utility.yul\":15696:15789   */\n      tag_841\n        /* \"#utility.yul\":15785:15788   */\n      dup3\n        /* \"#utility.yul\":15696:15789   */\n      tag_842\n      jump\t// in\n    tag_841:\n        /* \"#utility.yul\":15814:15816   */\n      0x20\n        /* \"#utility.yul\":15809:15812   */\n      dup3\n        /* \"#utility.yul\":15805:15817   */\n      add\n        /* \"#utility.yul\":15798:15817   */\n      swap1\n      pop\n        /* \"#utility.yul\":15458:15823   */\n      swap2\n      swap1\n      pop\n      jump\t// out\n        /* \"#utility.yul\":15829:16194   */\n    tag_843:\n        /* \"#utility.yul\":15971:15974   */\n      0x00\n        /* \"#utility.yul\":15992:16058   */\n      tag_845\n        /* \"#utility.yul\":16056:16057   */\n      0x03\n        /* \"#utility.yul\":16051:16054   */\n      dup4\n        /* \"#utility.yul\":15992:16058   */\n      tag_840\n      jump\t// in\n    tag_845:\n        /* \"#utility.yul\":15985:16058   */\n      swap2\n      pop\n        /* \"#utility.yul\":16067:16160   */\n      tag_846\n        /* \"#utility.yul\":16156:16159   */\n      dup3\n        /* \"#utility.yul\":16067:16160   */\n      tag_847\n      jump\t// in\n    tag_846:\n        /* \"#utility.yul\":16185:16187   */\n      0x20\n        /* \"#utility.yul\":16180:16183   */\n      dup3\n        /* \"#utility.yul\":16176:16188   */\n      add\n        /* \"#utility.yul\":16169:16188   */\n      swap1\n      pop\n        /* \"#utility.yul\":15829:16194   */\n      swap2\n      swap1\n      pop\n      jump\t// out\n        /* \"#utility.yul\":16200:16565   */\n    tag_848:\n        /* \"#utility.yul\":16342:16345   */\n      0x00\n        /* \"#utility.yul\":16363:16429   */\n      tag_850\n        /* \"#utility.yul\":16427:16428   */\n      0x03\n        /* \"#utility.yul\":16422:16425   */\n      dup4\n        /* \"#utility.yul\":16363:16429   */\n      tag_840\n      jump\t// in\n    tag_850:\n        /* \"#utility.yul\":16356:16429   */\n      swap2\n      pop\n        /* \"#utility.yul\":16438:16531   */\n      tag_851\n        /* \"#utility.yul\":16527:16530   */\n      dup3\n        /* \"#utility.yul\":16438:16531   */\n      tag_852\n      jump\t// in\n    tag_851:\n        /* \"#utility.yul\":16556:16558   */\n      0x20\n        /* \"#utility.yul\":16551:16554   */\n      dup3\n        /* \"#utility.yul\":16547:16559   */\n      add\n        /* \"#utility.yul\":16540:16559   */\n      swap1\n      pop\n        /* \"#utility.yul\":16200:16565   */\n      swap2\n      swap1\n      pop\n      jump\t// out\n        /* \"#utility.yul\":16571:16937   */\n    tag_853:\n        /* \"#utility.yul\":16713:16716   */\n      0x00\n        /* \"#utility.yul\":16734:16801   */\n      tag_855\n        /* \"#utility.yul\":16798:16800   */\n      0x10\n        /* \"#utility.yul\":16793:16796   */\n      dup4\n        /* \"#utility.yul\":16734:16801   */\n      tag_840\n      jump\t// in\n    tag_855:\n        /* \"#utility.yul\":16727:16801   */\n      swap2\n      pop\n        /* \"#utility.yul\":16810:16903   */\n      tag_856\n        /* \"#utility.yul\":16899:16902   */\n      dup3\n        /* \"#utility.yul\":16810:16903   */\n      tag_857\n      jump\t// in\n    tag_856:\n        /* \"#utility.yul\":16928:16930   */\n      0x20\n        /* \"#utility.yul\":16923:16926   */\n      dup3\n        /* \"#utility.yul\":16919:16931   */\n      add\n        /* \"#utility.yul\":16912:16931   */\n      swap1\n      pop\n        /* \"#utility.yul\":16571:16937   */\n      swap2\n      swap1\n      pop\n      jump\t// out\n        /* \"#utility.yul\":16943:17309   */\n    tag_858:\n        /* \"#utility.yul\":17085:17088   */\n      0x00\n        /* \"#utility.yul\":17106:17173   */\n      tag_860\n        /* \"#utility.yul\":17170:17172   */\n      0x0e\n        /* \"#utility.yul\":17165:17168   */\n      dup4\n        /* \"#utility.yul\":17106:17173   */\n      tag_840\n      jump\t// in\n    tag_860:\n        /* \"#utility.yul\":17099:17173   */\n      swap2\n      pop\n        /* \"#utility.yul\":17182:17275   */\n      tag_861\n        /* \"#utility.yul\":17271:17274   */\n      dup3\n        /* \"#utility.yul\":17182:17275   */\n      tag_862\n      jump\t// in\n    tag_861:\n        /* \"#utility.yul\":17300:17302   */\n      0x20\n        /* \"#utility.yul\":17295:17298   */\n      dup3\n        /* \"#utility.yul\":17291:17303   */\n      add\n        /* \"#utility.yul\":17284:17303   */\n      swap1\n      pop\n        /* \"#utility.yul\":16943:17309   */\n      swap2\n      swap1\n      pop\n      jump\t// out\n        /* \"#utility.yul\":17315:17680   */\n    tag_863:\n        /* \"#utility.yul\":17457:17460   */\n      0x00\n        /* \"#utility.yul\":17478:17544   */\n      tag_865\n        /* \"#utility.yul\":17542:17543   */\n      0x03\n        /* \"#utility.yul\":17537:17540   */\n      dup4\n        /* \"#utility.yul\":17478:17544   */\n      tag_840\n      jump\t// in\n    tag_865:\n        /* \"#utility.yul\":17471:17544   */\n      swap2\n      pop\n        /* \"#utility.yul\":17553:17646   */\n      tag_866\n        /* \"#utility.yul\":17642:17645   */\n      dup3\n        /* \"#utility.yul\":17553:17646   */\n      tag_867\n      jump\t// in\n    tag_866:\n        /* \"#utility.yul\":17671:17673   */\n      0x20\n        /* \"#utility.yul\":17666:17669   */\n      dup3\n        /* \"#utility.yul\":17662:17674   */\n      add\n        /* \"#utility.yul\":17655:17674   */\n      swap1\n      pop\n        /* \"#utility.yul\":17315:17680   */\n      swap2\n      swap1\n      pop\n      jump\t// out\n        /* \"#utility.yul\":17686:18051   */\n    tag_868:\n        /* \"#utility.yul\":17828:17831   */\n      0x00\n        /* \"#utility.yul\":17849:17915   */\n      tag_870\n        /* \"#utility.yul\":17913:17914   */\n      0x03\n        /* \"#utility.yul\":17908:17911   */\n      dup4\n        /* \"#utility.yul\":17849:17915   */\n      tag_840\n      jump\t// in\n    tag_870:\n        /* \"#utility.yul\":17842:17915   */\n      swap2\n      pop\n        /* \"#utility.yul\":17924:18017   */\n      tag_871\n        /* \"#utility.yul\":18013:18016   */\n      dup3\n        /* \"#utility.yul\":17924:18017   */\n      tag_872\n      jump\t// in\n    tag_871:\n        /* \"#utility.yul\":18042:18044   */\n      0x20\n        /* \"#utility.yul\":18037:18040   */\n      dup3\n        /* \"#utility.yul\":18033:18045   */\n      add\n        /* \"#utility.yul\":18026:18045   */\n      swap1\n      pop\n        /* \"#utility.yul\":17686:18051   */\n      swap2\n      swap1\n      pop\n      jump\t// out\n        /* \"#utility.yul\":18057:18423   */\n    tag_873:\n        /* \"#utility.yul\":18199:18202   */\n      0x00\n        /* \"#utility.yul\":18220:18287   */\n      tag_875\n        /* \"#utility.yul\":18284:18286   */\n      0x0c\n        /* \"#utility.yul\":18279:18282   */\n      dup4\n        /* \"#utility.yul\":18220:18287   */\n      tag_840\n      jump\t// in\n    tag_875:\n        /* \"#utility.yul\":18213:18287   */\n      swap2\n      pop\n        /* \"#utility.yul\":18296:18389   */\n      tag_876\n        /* \"#utility.yul\":18385:18388   */\n      dup3\n        /* \"#utility.yul\":18296:18389   */\n      tag_877\n      jump\t// in\n    tag_876:\n        /* \"#utility.yul\":18414:18416   */\n      0x20\n        /* \"#utility.yul\":18409:18412   */\n      dup3\n        /* \"#utility.yul\":18405:18417   */\n      add\n        /* \"#utility.yul\":18398:18417   */\n      swap1\n      pop\n        /* \"#utility.yul\":18057:18423   */\n      swap2\n      swap1\n      pop\n      jump\t// out\n        /* \"#utility.yul\":18429:18794   */\n    tag_878:\n        /* \"#utility.yul\":18571:18574   */\n      0x00\n        /* \"#utility.yul\":18592:18658   */\n      tag_880\n        /* \"#utility.yul\":18656:18657   */\n      0x03\n        /* \"#utility.yul\":18651:18654   */\n      dup4\n        /* \"#utility.yul\":18592:18658   */\n      tag_840\n      jump\t// in\n    tag_880:\n        /* \"#utility.yul\":18585:18658   */\n      swap2\n      pop\n        /* \"#utility.yul\":18667:18760   */\n      tag_881\n        /* \"#utility.yul\":18756:18759   */\n      dup3\n        /* \"#utility.yul\":18667:18760   */\n      tag_882\n      jump\t// in\n    tag_881:\n        /* \"#utility.yul\":18785:18787   */\n      0x20\n        /* \"#utility.yul\":18780:18783   */\n      dup3\n        /* \"#utility.yul\":18776:18788   */\n      add\n        /* \"#utility.yul\":18769:18788   */\n      swap1\n      pop\n        /* \"#utility.yul\":18429:18794   */\n      swap2\n      swap1\n      pop\n      jump\t// out\n        /* \"#utility.yul\":18850:19767   */\n    tag_678:\n        /* \"#utility.yul\":18955:18958   */\n      0x00\n        /* \"#utility.yul\":18991:18995   */\n      0x60\n        /* \"#utility.yul\":18986:18989   */\n      dup4\n        /* \"#utility.yul\":18982:18996   */\n      add\n        /* \"#utility.yul\":19080:19084   */\n      0x00\n        /* \"#utility.yul\":19073:19078   */\n      dup4\n        /* \"#utility.yul\":19069:19085   */\n      add\n        /* \"#utility.yul\":19063:19086   */\n      mload\n        /* \"#utility.yul\":19099:19162   */\n      tag_884\n        /* \"#utility.yul\":19156:19160   */\n      0x00\n        /* \"#utility.yul\":19151:19154   */\n      dup7\n        /* \"#utility.yul\":19147:19161   */\n      add\n        /* \"#utility.yul\":19133:19145   */\n      dup3\n        /* \"#utility.yul\":19099:19162   */\n      tag_707\n      jump\t// in\n    tag_884:\n        /* \"#utility.yul\":19006:19172   */\n      pop\n        /* \"#utility.yul\":19255:19259   */\n      0x20\n        /* \"#utility.yul\":19248:19253   */\n      dup4\n        /* \"#utility.yul\":19244:19260   */\n      add\n        /* \"#utility.yul\":19238:19261   */\n      mload\n        /* \"#utility.yul\":19308:19311   */\n      dup5\n        /* \"#utility.yul\":19302:19306   */\n      dup3\n        /* \"#utility.yul\":19298:19312   */\n      sub\n        /* \"#utility.yul\":19291:19295   */\n      0x20\n        /* \"#utility.yul\":19286:19289   */\n      dup7\n        /* \"#utility.yul\":19282:19296   */\n      add\n        /* \"#utility.yul\":19275:19313   */\n      mstore\n        /* \"#utility.yul\":19334:19477   */\n      tag_885\n        /* \"#utility.yul\":19472:19476   */\n      dup3\n        /* \"#utility.yul\":19458:19470   */\n      dup3\n        /* \"#utility.yul\":19334:19477   */\n      tag_725\n      jump\t// in\n    tag_885:\n        /* \"#utility.yul\":19326:19477   */\n      swap2\n      pop\n        /* \"#utility.yul\":19182:19488   */\n      pop\n        /* \"#utility.yul\":19577:19581   */\n      0x40\n        /* \"#utility.yul\":19570:19575   */\n      dup4\n        /* \"#utility.yul\":19566:19582   */\n      add\n        /* \"#utility.yul\":19560:19583   */\n      mload\n        /* \"#utility.yul\":19630:19633   */\n      dup5\n        /* \"#utility.yul\":19624:19628   */\n      dup3\n        /* \"#utility.yul\":19620:19634   */\n      sub\n        /* \"#utility.yul\":19613:19617   */\n      0x40\n        /* \"#utility.yul\":19608:19611   */\n      dup7\n        /* \"#utility.yul\":19604:19618   */\n      add\n        /* \"#utility.yul\":19597:19635   */\n      mstore\n        /* \"#utility.yul\":19656:19729   */\n      tag_886\n        /* \"#utility.yul\":19724:19728   */\n      dup3\n        /* \"#utility.yul\":19710:19722   */\n      dup3\n        /* \"#utility.yul\":19656:19729   */\n      tag_827\n      jump\t// in\n    tag_886:\n        /* \"#utility.yul\":19648:19729   */\n      swap2\n      pop\n        /* \"#utility.yul\":19498:19740   */\n      pop\n        /* \"#utility.yul\":19757:19761   */\n      dup1\n        /* \"#utility.yul\":19750:19761   */\n      swap2\n      pop\n        /* \"#utility.yul\":18960:19767   */\n      pop\n        /* \"#utility.yul\":18850:19767   */\n      swap3\n      swap2\n      pop\n      pop\n      jump\t// out\n        /* \"#utility.yul\":19817:20306   */\n    tag_682:\n        /* \"#utility.yul\":19944:19948   */\n      0x40\n        /* \"#utility.yul\":19939:19942   */\n      dup3\n        /* \"#utility.yul\":19935:19949   */\n      add\n        /* \"#utility.yul\":20036:20040   */\n      0x00\n        /* \"#utility.yul\":20029:20034   */\n      dup3\n        /* \"#utility.yul\":20025:20041   */\n      add\n        /* \"#utility.yul\":20019:20042   */\n      mload\n        /* \"#utility.yul\":20055:20118   */\n      tag_888\n        /* \"#utility.yul\":20112:20116   */\n      0x00\n        /* \"#utility.yul\":20107:20110   */\n      dup6\n        /* \"#utility.yul\":20103:20117   */\n      add\n        /* \"#utility.yul\":20089:20101   */\n      dup3\n        /* \"#utility.yul\":20055:20118   */\n      tag_707\n      jump\t// in\n    tag_888:\n        /* \"#utility.yul\":19959:20128   */\n      pop\n        /* \"#utility.yul\":20213:20217   */\n      0x20\n        /* \"#utility.yul\":20206:20211   */\n      dup3\n        /* \"#utility.yul\":20202:20218   */\n      add\n        /* \"#utility.yul\":20196:20219   */\n      mload\n        /* \"#utility.yul\":20232:20289   */\n      tag_889\n        /* \"#utility.yul\":20283:20287   */\n      0x20\n        /* \"#utility.yul\":20278:20281   */\n      dup6\n        /* \"#utility.yul\":20274:20288   */\n      add\n        /* \"#utility.yul\":20260:20272   */\n      dup3\n        /* \"#utility.yul\":20232:20289   */\n      tag_823\n      jump\t// in\n    tag_889:\n        /* \"#utility.yul\":20138:20299   */\n      pop\n        /* \"#utility.yul\":19913:20306   */\n      pop\n        /* \"#utility.yul\":19817:20306   */\n      pop\n      pop\n      jump\t// out\n        /* \"#utility.yul\":20356:21771   */\n    tag_686:\n        /* \"#utility.yul\":20455:20458   */\n      0x00\n        /* \"#utility.yul\":20491:20495   */\n      0xa0\n        /* \"#utility.yul\":20486:20489   */\n      dup4\n        /* \"#utility.yul\":20482:20496   */\n      add\n        /* \"#utility.yul\":20583:20587   */\n      0x00\n        /* \"#utility.yul\":20576:20581   */\n      dup4\n        /* \"#utility.yul\":20572:20588   */\n      add\n        /* \"#utility.yul\":20566:20589   */\n      mload\n        /* \"#utility.yul\":20602:20665   */\n      tag_891\n        /* \"#utility.yul\":20659:20663   */\n      0x00\n        /* \"#utility.yul\":20654:20657   */\n      dup7\n        /* \"#utility.yul\":20650:20664   */\n      add\n        /* \"#utility.yul\":20636:20648   */\n      dup3\n        /* \"#utility.yul\":20602:20665   */\n      tag_707\n      jump\t// in\n    tag_891:\n        /* \"#utility.yul\":20506:20675   */\n      pop\n        /* \"#utility.yul\":20759:20763   */\n      0x20\n        /* \"#utility.yul\":20752:20757   */\n      dup4\n        /* \"#utility.yul\":20748:20764   */\n      add\n        /* \"#utility.yul\":20742:20765   */\n      mload\n        /* \"#utility.yul\":20778:20841   */\n      tag_892\n        /* \"#utility.yul\":20835:20839   */\n      0x20\n        /* \"#utility.yul\":20830:20833   */\n      dup7\n        /* \"#utility.yul\":20826:20840   */\n      add\n        /* \"#utility.yul\":20812:20824   */\n      dup3\n        /* \"#utility.yul\":20778:20841   */\n      tag_706\n      jump\t// in\n    tag_892:\n        /* \"#utility.yul\":20685:20851   */\n      pop\n        /* \"#utility.yul\":20934:20938   */\n      0x40\n        /* \"#utility.yul\":20927:20932   */\n      dup4\n        /* \"#utility.yul\":20923:20939   */\n      add\n        /* \"#utility.yul\":20917:20940   */\n      mload\n        /* \"#utility.yul\":20987:20990   */\n      dup5\n        /* \"#utility.yul\":20981:20985   */\n      dup3\n        /* \"#utility.yul\":20977:20991   */\n      sub\n        /* \"#utility.yul\":20970:20974   */\n      0x40\n        /* \"#utility.yul\":20965:20968   */\n      dup7\n        /* \"#utility.yul\":20961:20975   */\n      add\n        /* \"#utility.yul\":20954:20992   */\n      mstore\n        /* \"#utility.yul\":21013:21156   */\n      tag_893\n        /* \"#utility.yul\":21151:21155   */\n      dup3\n        /* \"#utility.yul\":21137:21149   */\n      dup3\n        /* \"#utility.yul\":21013:21156   */\n      tag_725\n      jump\t// in\n    tag_893:\n        /* \"#utility.yul\":21005:21156   */\n      swap2\n      pop\n        /* \"#utility.yul\":20861:21167   */\n      pop\n        /* \"#utility.yul\":21253:21257   */\n      0x60\n        /* \"#utility.yul\":21246:21251   */\n      dup4\n        /* \"#utility.yul\":21242:21258   */\n      add\n        /* \"#utility.yul\":21236:21259   */\n      mload\n        /* \"#utility.yul\":21306:21309   */\n      dup5\n        /* \"#utility.yul\":21300:21304   */\n      dup3\n        /* \"#utility.yul\":21296:21310   */\n      sub\n        /* \"#utility.yul\":21289:21293   */\n      0x60\n        /* \"#utility.yul\":21284:21287   */\n      dup7\n        /* \"#utility.yul\":21280:21294   */\n      add\n        /* \"#utility.yul\":21273:21311   */\n      mstore\n        /* \"#utility.yul\":21332:21481   */\n      tag_894\n        /* \"#utility.yul\":21476:21480   */\n      dup3\n        /* \"#utility.yul\":21462:21474   */\n      dup3\n        /* \"#utility.yul\":21332:21481   */\n      tag_711\n      jump\t// in\n    tag_894:\n        /* \"#utility.yul\":21324:21481   */\n      swap2\n      pop\n        /* \"#utility.yul\":21177:21492   */\n      pop\n        /* \"#utility.yul\":21581:21585   */\n      0x80\n        /* \"#utility.yul\":21574:21579   */\n      dup4\n        /* \"#utility.yul\":21570:21586   */\n      add\n        /* \"#utility.yul\":21564:21587   */\n      mload\n        /* \"#utility.yul\":21634:21637   */\n      dup5\n        /* \"#utility.yul\":21628:21632   */\n      dup3\n        /* \"#utility.yul\":21624:21638   */\n      sub\n        /* \"#utility.yul\":21617:21621   */\n      0x80\n        /* \"#utility.yul\":21612:21615   */\n      dup7\n        /* \"#utility.yul\":21608:21622   */\n      add\n        /* \"#utility.yul\":21601:21639   */\n      mstore\n        /* \"#utility.yul\":21660:21733   */\n      tag_895\n        /* \"#utility.yul\":21728:21732   */\n      dup3\n        /* \"#utility.yul\":21714:21726   */\n      dup3\n        /* \"#utility.yul\":21660:21733   */\n      tag_827\n      jump\t// in\n    tag_895:\n        /* \"#utility.yul\":21652:21733   */\n      swap2\n      pop\n        /* \"#utility.yul\":21502:21744   */\n      pop\n        /* \"#utility.yul\":21761:21765   */\n      dup1\n        /* \"#utility.yul\":21754:21765   */\n      swap2\n      pop\n        /* \"#utility.yul\":20460:21771   */\n      pop\n        /* \"#utility.yul\":20356:21771   */\n      swap3\n      swap2\n      pop\n      pop\n      jump\t// out\n        /* \"#utility.yul\":21845:22359   */\n    tag_690:\n        /* \"#utility.yul\":21996:22000   */\n      0x40\n        /* \"#utility.yul\":21991:21994   */\n      dup3\n        /* \"#utility.yul\":21987:22001   */\n      add\n        /* \"#utility.yul\":22090:22094   */\n      0x00\n        /* \"#utility.yul\":22083:22088   */\n      dup3\n        /* \"#utility.yul\":22079:22095   */\n      add\n        /* \"#utility.yul\":22073:22096   */\n      mload\n        /* \"#utility.yul\":22109:22172   */\n      tag_897\n        /* \"#utility.yul\":22166:22170   */\n      0x00\n        /* \"#utility.yul\":22161:22164   */\n      dup6\n        /* \"#utility.yul\":22157:22171   */\n      add\n        /* \"#utility.yul\":22143:22155   */\n      dup3\n        /* \"#utility.yul\":22109:22172   */\n      tag_706\n      jump\t// in\n    tag_897:\n        /* \"#utility.yul\":22011:22182   */\n      pop\n        /* \"#utility.yul\":22266:22270   */\n      0x20\n        /* \"#utility.yul\":22259:22264   */\n      dup3\n        /* \"#utility.yul\":22255:22271   */\n      add\n        /* \"#utility.yul\":22249:22272   */\n      mload\n        /* \"#utility.yul\":22285:22342   */\n      tag_898\n        /* \"#utility.yul\":22336:22340   */\n      0x20\n        /* \"#utility.yul\":22331:22334   */\n      dup6\n        /* \"#utility.yul\":22327:22341   */\n      add\n        /* \"#utility.yul\":22313:22325   */\n      dup3\n        /* \"#utility.yul\":22285:22342   */\n      tag_823\n      jump\t// in\n    tag_898:\n        /* \"#utility.yul\":22192:22352   */\n      pop\n        /* \"#utility.yul\":21965:22359   */\n      pop\n        /* \"#utility.yul\":21845:22359   */\n      pop\n      pop\n      jump\t// out\n        /* \"#utility.yul\":22429:23115   */\n    tag_694:\n        /* \"#utility.yul\":22576:22580   */\n      0x60\n        /* \"#utility.yul\":22571:22574   */\n      dup3\n        /* \"#utility.yul\":22567:22581   */\n      add\n        /* \"#utility.yul\":22670:22674   */\n      0x00\n        /* \"#utility.yul\":22663:22668   */\n      dup3\n        /* \"#utility.yul\":22659:22675   */\n      add\n        /* \"#utility.yul\":22653:22676   */\n      mload\n        /* \"#utility.yul\":22689:22752   */\n      tag_900\n        /* \"#utility.yul\":22746:22750   */\n      0x00\n        /* \"#utility.yul\":22741:22744   */\n      dup6\n        /* \"#utility.yul\":22737:22751   */\n      add\n        /* \"#utility.yul\":22723:22735   */\n      dup3\n        /* \"#utility.yul\":22689:22752   */\n      tag_706\n      jump\t// in\n    tag_900:\n        /* \"#utility.yul\":22591:22762   */\n      pop\n        /* \"#utility.yul\":22846:22850   */\n      0x20\n        /* \"#utility.yul\":22839:22844   */\n      dup3\n        /* \"#utility.yul\":22835:22851   */\n      add\n        /* \"#utility.yul\":22829:22852   */\n      mload\n        /* \"#utility.yul\":22865:22928   */\n      tag_901\n        /* \"#utility.yul\":22922:22926   */\n      0x20\n        /* \"#utility.yul\":22917:22920   */\n      dup6\n        /* \"#utility.yul\":22913:22927   */\n      add\n        /* \"#utility.yul\":22899:22911   */\n      dup3\n        /* \"#utility.yul\":22865:22928   */\n      tag_706\n      jump\t// in\n    tag_901:\n        /* \"#utility.yul\":22772:22938   */\n      pop\n        /* \"#utility.yul\":23022:23026   */\n      0x40\n        /* \"#utility.yul\":23015:23020   */\n      dup3\n        /* \"#utility.yul\":23011:23027   */\n      add\n        /* \"#utility.yul\":23005:23028   */\n      mload\n        /* \"#utility.yul\":23041:23098   */\n      tag_902\n        /* \"#utility.yul\":23092:23096   */\n      0x40\n        /* \"#utility.yul\":23087:23090   */\n      dup6\n        /* \"#utility.yul\":23083:23097   */\n      add\n        /* \"#utility.yul\":23069:23081   */\n      dup3\n        /* \"#utility.yul\":23041:23098   */\n      tag_823\n      jump\t// in\n    tag_902:\n        /* \"#utility.yul\":22948:23108   */\n      pop\n        /* \"#utility.yul\":22545:23115   */\n      pop\n        /* \"#utility.yul\":22429:23115   */\n      pop\n      pop\n      jump\t// out\n        /* \"#utility.yul\":23165:24351   */\n    tag_698:\n        /* \"#utility.yul\":23264:23267   */\n      0x00\n        /* \"#utility.yul\":23300:23304   */\n      0x80\n        /* \"#utility.yul\":23295:23298   */\n      dup4\n        /* \"#utility.yul\":23291:23305   */\n      add\n        /* \"#utility.yul\":23387:23391   */\n      0x00\n        /* \"#utility.yul\":23380:23385   */\n      dup4\n        /* \"#utility.yul\":23376:23392   */\n      add\n        /* \"#utility.yul\":23370:23393   */\n      mload\n        /* \"#utility.yul\":23406:23469   */\n      tag_904\n        /* \"#utility.yul\":23463:23467   */\n      0x00\n        /* \"#utility.yul\":23458:23461   */\n      dup7\n        /* \"#utility.yul\":23454:23468   */\n      add\n        /* \"#utility.yul\":23440:23452   */\n      dup3\n        /* \"#utility.yul\":23406:23469   */\n      tag_707\n      jump\t// in\n    tag_904:\n        /* \"#utility.yul\":23315:23479   */\n      pop\n        /* \"#utility.yul\":23561:23565   */\n      0x20\n        /* \"#utility.yul\":23554:23559   */\n      dup4\n        /* \"#utility.yul\":23550:23566   */\n      add\n        /* \"#utility.yul\":23544:23567   */\n      mload\n        /* \"#utility.yul\":23614:23617   */\n      dup5\n        /* \"#utility.yul\":23608:23612   */\n      dup3\n        /* \"#utility.yul\":23604:23618   */\n      sub\n        /* \"#utility.yul\":23597:23601   */\n      0x20\n        /* \"#utility.yul\":23592:23595   */\n      dup7\n        /* \"#utility.yul\":23588:23602   */\n      add\n        /* \"#utility.yul\":23581:23619   */\n      mstore\n        /* \"#utility.yul\":23640:23713   */\n      tag_905\n        /* \"#utility.yul\":23708:23712   */\n      dup3\n        /* \"#utility.yul\":23694:23706   */\n      dup3\n        /* \"#utility.yul\":23640:23713   */\n      tag_827\n      jump\t// in\n    tag_905:\n        /* \"#utility.yul\":23632:23713   */\n      swap2\n      pop\n        /* \"#utility.yul\":23489:23724   */\n      pop\n        /* \"#utility.yul\":23813:23817   */\n      0x40\n        /* \"#utility.yul\":23806:23811   */\n      dup4\n        /* \"#utility.yul\":23802:23818   */\n      add\n        /* \"#utility.yul\":23796:23819   */\n      mload\n        /* \"#utility.yul\":23866:23869   */\n      dup5\n        /* \"#utility.yul\":23860:23864   */\n      dup3\n        /* \"#utility.yul\":23856:23870   */\n      sub\n        /* \"#utility.yul\":23849:23853   */\n      0x40\n        /* \"#utility.yul\":23844:23847   */\n      dup7\n        /* \"#utility.yul\":23840:23854   */\n      add\n        /* \"#utility.yul\":23833:23871   */\n      mstore\n        /* \"#utility.yul\":23892:24035   */\n      tag_906\n        /* \"#utility.yul\":24030:24034   */\n      dup3\n        /* \"#utility.yul\":24016:24028   */\n      dup3\n        /* \"#utility.yul\":23892:24035   */\n      tag_739\n      jump\t// in\n    tag_906:\n        /* \"#utility.yul\":23884:24035   */\n      swap2\n      pop\n        /* \"#utility.yul\":23734:24046   */\n      pop\n        /* \"#utility.yul\":24131:24135   */\n      0x60\n        /* \"#utility.yul\":24124:24129   */\n      dup4\n        /* \"#utility.yul\":24120:24136   */\n      add\n        /* \"#utility.yul\":24114:24137   */\n      mload\n        /* \"#utility.yul\":24184:24187   */\n      dup5\n        /* \"#utility.yul\":24178:24182   */\n      dup3\n        /* \"#utility.yul\":24174:24188   */\n      sub\n        /* \"#utility.yul\":24167:24171   */\n      0x60\n        /* \"#utility.yul\":24162:24165   */\n      dup7\n        /* \"#utility.yul\":24158:24172   */\n      add\n        /* \"#utility.yul\":24151:24189   */\n      mstore\n        /* \"#utility.yul\":24210:24313   */\n      tag_907\n        /* \"#utility.yul\":24308:24312   */\n      dup3\n        /* \"#utility.yul\":24294:24306   */\n      dup3\n        /* \"#utility.yul\":24210:24313   */\n      tag_809\n      jump\t// in\n    tag_907:\n        /* \"#utility.yul\":24202:24313   */\n      swap2\n      pop\n        /* \"#utility.yul\":24056:24324   */\n      pop\n        /* \"#utility.yul\":24341:24345   */\n      dup1\n        /* \"#utility.yul\":24334:24345   */\n      swap2\n      pop\n        /* \"#utility.yul\":23269:24351   */\n      pop\n        /* \"#utility.yul\":23165:24351   */\n      swap3\n      swap2\n      pop\n      pop\n      jump\t// out\n        /* \"#utility.yul\":24401:25063   */\n    tag_702:\n        /* \"#utility.yul\":24526:24530   */\n      0x60\n        /* \"#utility.yul\":24521:24524   */\n      dup3\n        /* \"#utility.yul\":24517:24531   */\n      add\n        /* \"#utility.yul\":24613:24617   */\n      0x00\n        /* \"#utility.yul\":24606:24611   */\n      dup3\n        /* \"#utility.yul\":24602:24618   */\n      add\n        /* \"#utility.yul\":24596:24619   */\n      mload\n        /* \"#utility.yul\":24632:24695   */\n      tag_909\n        /* \"#utility.yul\":24689:24693   */\n      0x00\n        /* \"#utility.yul\":24684:24687   */\n      dup6\n        /* \"#utility.yul\":24680:24694   */\n      add\n        /* \"#utility.yul\":24666:24678   */\n      dup3\n        /* \"#utility.yul\":24632:24695   */\n      tag_707\n      jump\t// in\n    tag_909:\n        /* \"#utility.yul\":24541:24705   */\n      pop\n        /* \"#utility.yul\":24787:24791   */\n      0x20\n        /* \"#utility.yul\":24780:24785   */\n      dup3\n        /* \"#utility.yul\":24776:24792   */\n      add\n        /* \"#utility.yul\":24770:24793   */\n      mload\n        /* \"#utility.yul\":24806:24869   */\n      tag_910\n        /* \"#utility.yul\":24863:24867   */\n      0x20\n        /* \"#utility.yul\":24858:24861   */\n      dup6\n        /* \"#utility.yul\":24854:24868   */\n      add\n        /* \"#utility.yul\":24840:24852   */\n      dup3\n        /* \"#utility.yul\":24806:24869   */\n      tag_706\n      jump\t// in\n    tag_910:\n        /* \"#utility.yul\":24715:24879   */\n      pop\n        /* \"#utility.yul\":24964:24968   */\n      0x40\n        /* \"#utility.yul\":24957:24962   */\n      dup3\n        /* \"#utility.yul\":24953:24969   */\n      add\n        /* \"#utility.yul\":24947:24970   */\n      mload\n        /* \"#utility.yul\":24983:25046   */\n      tag_911\n        /* \"#utility.yul\":25040:25044   */\n      0x40\n        /* \"#utility.yul\":25035:25038   */\n      dup6\n        /* \"#utility.yul\":25031:25045   */\n      add\n        /* \"#utility.yul\":25017:25029   */\n      dup3\n        /* \"#utility.yul\":24983:25046   */\n      tag_706\n      jump\t// in\n    tag_911:\n        /* \"#utility.yul\":24889:25056   */\n      pop\n        /* \"#utility.yul\":24495:25063   */\n      pop\n        /* \"#utility.yul\":24401:25063   */\n      pop\n      pop\n      jump\t// out\n        /* \"#utility.yul\":25069:25177   */\n    tag_706:\n        /* \"#utility.yul\":25146:25170   */\n      tag_913\n        /* \"#utility.yul\":25164:25169   */\n      dup2\n        /* \"#utility.yul\":25146:25170   */\n      tag_914\n      jump\t// in\n    tag_913:\n        /* \"#utility.yul\":25141:25144   */\n      dup3\n        /* \"#utility.yul\":25134:25171   */\n      mstore\n        /* \"#utility.yul\":25069:25177   */\n      pop\n      pop\n      jump\t// out\n        /* \"#utility.yul\":25183:25684   */\n    tag_65:\n        /* \"#utility.yul\":25390:25394   */\n      0x00\n        /* \"#utility.yul\":25428:25430   */\n      0x20\n        /* \"#utility.yul\":25417:25426   */\n      dup3\n        /* \"#utility.yul\":25413:25431   */\n      add\n        /* \"#utility.yul\":25405:25431   */\n      swap1\n      pop\n        /* \"#utility.yul\":25477:25486   */\n      dup2\n        /* \"#utility.yul\":25471:25475   */\n      dup2\n        /* \"#utility.yul\":25467:25487   */\n      sub\n        /* \"#utility.yul\":25463:25464   */\n      0x00\n        /* \"#utility.yul\":25452:25461   */\n      dup4\n        /* \"#utility.yul\":25448:25465   */\n      add\n        /* \"#utility.yul\":25441:25488   */\n      mstore\n        /* \"#utility.yul\":25505:25677   */\n      tag_916\n        /* \"#utility.yul\":25672:25676   */\n      dup2\n        /* \"#utility.yul\":25663:25669   */\n      dup5\n        /* \"#utility.yul\":25505:25677   */\n      tag_753\n      jump\t// in\n    tag_916:\n        /* \"#utility.yul\":25497:25677   */\n      swap1\n      pop\n        /* \"#utility.yul\":25183:25684   */\n      swap3\n      swap2\n      pop\n      pop\n      jump\t// out\n        /* \"#utility.yul\":25690:26183   */\n    tag_73:\n        /* \"#utility.yul\":25893:25897   */\n      0x00\n        /* \"#utility.yul\":25931:25933   */\n      0x20\n        /* \"#utility.yul\":25920:25929   */\n      dup3\n        /* \"#utility.yul\":25916:25934   */\n      add\n        /* \"#utility.yul\":25908:25934   */\n      swap1\n      pop\n        /* \"#utility.yul\":25980:25989   */\n      dup2\n        /* \"#utility.yul\":25974:25978   */\n      dup2\n        /* \"#utility.yul\":25970:25990   */\n      sub\n        /* \"#utility.yul\":25966:25967   */\n      0x00\n        /* \"#utility.yul\":25955:25964   */\n      dup4\n        /* \"#utility.yul\":25951:25968   */\n      add\n        /* \"#utility.yul\":25944:25991   */\n      mstore\n        /* \"#utility.yul\":26008:26176   */\n      tag_918\n        /* \"#utility.yul\":26171:26175   */\n      dup2\n        /* \"#utility.yul\":26162:26168   */\n      dup5\n        /* \"#utility.yul\":26008:26176   */\n      tag_767\n      jump\t// in\n    tag_918:\n        /* \"#utility.yul\":26000:26176   */\n      swap1\n      pop\n        /* \"#utility.yul\":25690:26183   */\n      swap3\n      swap2\n      pop\n      pop\n      jump\t// out\n        /* \"#utility.yul\":26189:26642   */\n    tag_41:\n        /* \"#utility.yul\":26372:26376   */\n      0x00\n        /* \"#utility.yul\":26410:26412   */\n      0x20\n        /* \"#utility.yul\":26399:26408   */\n      dup3\n        /* \"#utility.yul\":26395:26413   */\n      add\n        /* \"#utility.yul\":26387:26413   */\n      swap1\n      pop\n        /* \"#utility.yul\":26459:26468   */\n      dup2\n        /* \"#utility.yul\":26453:26457   */\n      dup2\n        /* \"#utility.yul\":26449:26469   */\n      sub\n        /* \"#utility.yul\":26445:26446   */\n      0x00\n        /* \"#utility.yul\":26434:26443   */\n      dup4\n        /* \"#utility.yul\":26430:26447   */\n      add\n        /* \"#utility.yul\":26423:26470   */\n      mstore\n        /* \"#utility.yul\":26487:26635   */\n      tag_920\n        /* \"#utility.yul\":26630:26634   */\n      dup2\n        /* \"#utility.yul\":26621:26627   */\n      dup5\n        /* \"#utility.yul\":26487:26635   */\n      tag_781\n      jump\t// in\n    tag_920:\n        /* \"#utility.yul\":26479:26635   */\n      swap1\n      pop\n        /* \"#utility.yul\":26189:26642   */\n      swap3\n      swap2\n      pop\n      pop\n      jump\t// out\n        /* \"#utility.yul\":26648:27097   */\n    tag_80:\n        /* \"#utility.yul\":26829:26833   */\n      0x00\n        /* \"#utility.yul\":26867:26869   */\n      0x20\n        /* \"#utility.yul\":26856:26865   */\n      dup3\n        /* \"#utility.yul\":26852:26870   */\n      add\n        /* \"#utility.yul\":26844:26870   */\n      swap1\n      pop\n        /* \"#utility.yul\":26916:26925   */\n      dup2\n        /* \"#utility.yul\":26910:26914   */\n      dup2\n        /* \"#utility.yul\":26906:26926   */\n      sub\n        /* \"#utility.yul\":26902:26903   */\n      0x00\n        /* \"#utility.yul\":26891:26900   */\n      dup4\n        /* \"#utility.yul\":26887:26904   */\n      add\n        /* \"#utility.yul\":26880:26927   */\n      mstore\n        /* \"#utility.yul\":26944:27090   */\n      tag_922\n        /* \"#utility.yul\":27085:27089   */\n      dup2\n        /* \"#utility.yul\":27076:27082   */\n      dup5\n        /* \"#utility.yul\":26944:27090   */\n      tag_795\n      jump\t// in\n    tag_922:\n        /* \"#utility.yul\":26936:27090   */\n      swap1\n      pop\n        /* \"#utility.yul\":26648:27097   */\n      swap3\n      swap2\n      pop\n      pop\n      jump\t// out\n        /* \"#utility.yul\":27103:27522   */\n    tag_133:\n        /* \"#utility.yul\":27269:27273   */\n      0x00\n        /* \"#utility.yul\":27307:27309   */\n      0x20\n        /* \"#utility.yul\":27296:27305   */\n      dup3\n        /* \"#utility.yul\":27292:27310   */\n      add\n        /* \"#utility.yul\":27284:27310   */\n      swap1\n      pop\n        /* \"#utility.yul\":27356:27365   */\n      dup2\n        /* \"#utility.yul\":27350:27354   */\n      dup2\n        /* \"#utility.yul\":27346:27366   */\n      sub\n        /* \"#utility.yul\":27342:27343   */\n      0x00\n        /* \"#utility.yul\":27331:27340   */\n      dup4\n        /* \"#utility.yul\":27327:27344   */\n      add\n        /* \"#utility.yul\":27320:27367   */\n      mstore\n        /* \"#utility.yul\":27384:27515   */\n      tag_924\n        /* \"#utility.yul\":27510:27514   */\n      dup2\n        /* \"#utility.yul\":27384:27515   */\n      tag_837\n      jump\t// in\n    tag_924:\n        /* \"#utility.yul\":27376:27515   */\n      swap1\n      pop\n        /* \"#utility.yul\":27103:27522   */\n      swap2\n      swap1\n      pop\n      jump\t// out\n        /* \"#utility.yul\":27528:27947   */\n    tag_162:\n        /* \"#utility.yul\":27694:27698   */\n      0x00\n        /* \"#utility.yul\":27732:27734   */\n      0x20\n        /* \"#utility.yul\":27721:27730   */\n      dup3\n        /* \"#utility.yul\":27717:27735   */\n      add\n        /* \"#utility.yul\":27709:27735   */\n      swap1\n      pop\n        /* \"#utility.yul\":27781:27790   */\n      dup2\n        /* \"#utility.yul\":27775:27779   */\n      dup2\n        /* \"#utility.yul\":27771:27791   */\n      sub\n        /* \"#utility.yul\":27767:27768   */\n      0x00\n        /* \"#utility.yul\":27756:27765   */\n      dup4\n        /* \"#utility.yul\":27752:27769   */\n      add\n        /* \"#utility.yul\":27745:27792   */\n      mstore\n        /* \"#utility.yul\":27809:27940   */\n      tag_926\n        /* \"#utility.yul\":27935:27939   */\n      dup2\n        /* \"#utility.yul\":27809:27940   */\n      tag_843\n      jump\t// in\n    tag_926:\n        /* \"#utility.yul\":27801:27940   */\n      swap1\n      pop\n        /* \"#utility.yul\":27528:27947   */\n      swap2\n      swap1\n      pop\n      jump\t// out\n        /* \"#utility.yul\":27953:28372   */\n    tag_215:\n        /* \"#utility.yul\":28119:28123   */\n      0x00\n        /* \"#utility.yul\":28157:28159   */\n      0x20\n        /* \"#utility.yul\":28146:28155   */\n      dup3\n        /* \"#utility.yul\":28142:28160   */\n      add\n        /* \"#utility.yul\":28134:28160   */\n      swap1\n      pop\n        /* \"#utility.yul\":28206:28215   */\n      dup2\n        /* \"#utility.yul\":28200:28204   */\n      dup2\n        /* \"#utility.yul\":28196:28216   */\n      sub\n        /* \"#utility.yul\":28192:28193   */\n      0x00\n        /* \"#utility.yul\":28181:28190   */\n      dup4\n        /* \"#utility.yul\":28177:28194   */\n      add\n        /* \"#utility.yul\":28170:28217   */\n      mstore\n        /* \"#utility.yul\":28234:28365   */\n      tag_928\n        /* \"#utility.yul\":28360:28364   */\n      dup2\n        /* \"#utility.yul\":28234:28365   */\n      tag_848\n      jump\t// in\n    tag_928:\n        /* \"#utility.yul\":28226:28365   */\n      swap1\n      pop\n        /* \"#utility.yul\":27953:28372   */\n      swap2\n      swap1\n      pop\n      jump\t// out\n        /* \"#utility.yul\":28378:28797   */\n    tag_512:\n        /* \"#utility.yul\":28544:28548   */\n      0x00\n        /* \"#utility.yul\":28582:28584   */\n      0x20\n        /* \"#utility.yul\":28571:28580   */\n      dup3\n        /* \"#utility.yul\":28567:28585   */\n      add\n        /* \"#utility.yul\":28559:28585   */\n      swap1\n      pop\n        /* \"#utility.yul\":28631:28640   */\n      dup2\n        /* \"#utility.yul\":28625:28629   */\n      dup2\n        /* \"#utility.yul\":28621:28641   */\n      sub\n        /* \"#utility.yul\":28617:28618   */\n      0x00\n        /* \"#utility.yul\":28606:28615   */\n      dup4\n        /* \"#utility.yul\":28602:28619   */\n      add\n        /* \"#utility.yul\":28595:28642   */\n      mstore\n        /* \"#utility.yul\":28659:28790   */\n      tag_930\n        /* \"#utility.yul\":28785:28789   */\n      dup2\n        /* \"#utility.yul\":28659:28790   */\n      tag_853\n      jump\t// in\n    tag_930:\n        /* \"#utility.yul\":28651:28790   */\n      swap1\n      pop\n        /* \"#utility.yul\":28378:28797   */\n      swap2\n      swap1\n      pop\n      jump\t// out\n        /* \"#utility.yul\":28803:29222   */\n    tag_226:\n        /* \"#utility.yul\":28969:28973   */\n      0x00\n        /* \"#utility.yul\":29007:29009   */\n      0x20\n        /* \"#utility.yul\":28996:29005   */\n      dup3\n        /* \"#utility.yul\":28992:29010   */\n      add\n        /* \"#utility.yul\":28984:29010   */\n      swap1\n      pop\n        /* \"#utility.yul\":29056:29065   */\n      dup2\n        /* \"#utility.yul\":29050:29054   */\n      dup2\n        /* \"#utility.yul\":29046:29066   */\n      sub\n        /* \"#utility.yul\":29042:29043   */\n      0x00\n        /* \"#utility.yul\":29031:29040   */\n      dup4\n        /* \"#utility.yul\":29027:29044   */\n      add\n        /* \"#utility.yul\":29020:29067   */\n      mstore\n        /* \"#utility.yul\":29084:29215   */\n      tag_932\n        /* \"#utility.yul\":29210:29214   */\n      dup2\n        /* \"#utility.yul\":29084:29215   */\n      tag_858\n      jump\t// in\n    tag_932:\n        /* \"#utility.yul\":29076:29215   */\n      swap1\n      pop\n        /* \"#utility.yul\":28803:29222   */\n      swap2\n      swap1\n      pop\n      jump\t// out\n        /* \"#utility.yul\":29228:29647   */\n    tag_422:\n        /* \"#utility.yul\":29394:29398   */\n      0x00\n        /* \"#utility.yul\":29432:29434   */\n      0x20\n        /* \"#utility.yul\":29421:29430   */\n      dup3\n        /* \"#utility.yul\":29417:29435   */\n      add\n        /* \"#utility.yul\":29409:29435   */\n      swap1\n      pop\n        /* \"#utility.yul\":29481:29490   */\n      dup2\n        /* \"#utility.yul\":29475:29479   */\n      dup2\n        /* \"#utility.yul\":29471:29491   */\n      sub\n        /* \"#utility.yul\":29467:29468   */\n      0x00\n        /* \"#utility.yul\":29456:29465   */\n      dup4\n        /* \"#utility.yul\":29452:29469   */\n      add\n        /* \"#utility.yul\":29445:29492   */\n      mstore\n        /* \"#utility.yul\":29509:29640   */\n      tag_934\n        /* \"#utility.yul\":29635:29639   */\n      dup2\n        /* \"#utility.yul\":29509:29640   */\n      tag_863\n      jump\t// in\n    tag_934:\n        /* \"#utility.yul\":29501:29640   */\n      swap1\n      pop\n        /* \"#utility.yul\":29228:29647   */\n      swap2\n      swap1\n      pop\n      jump\t// out\n        /* \"#utility.yul\":29653:30072   */\n    tag_148:\n        /* \"#utility.yul\":29819:29823   */\n      0x00\n        /* \"#utility.yul\":29857:29859   */\n      0x20\n        /* \"#utility.yul\":29846:29855   */\n      dup3\n        /* \"#utility.yul\":29842:29860   */\n      add\n        /* \"#utility.yul\":29834:29860   */\n      swap1\n      pop\n        /* \"#utility.yul\":29906:29915   */\n      dup2\n        /* \"#utility.yul\":29900:29904   */\n      dup2\n        /* \"#utility.yul\":29896:29916   */\n      sub\n        /* \"#utility.yul\":29892:29893   */\n      0x00\n        /* \"#utility.yul\":29881:29890   */\n      dup4\n        /* \"#utility.yul\":29877:29894   */\n      add\n        /* \"#utility.yul\":29870:29917   */\n      mstore\n        /* \"#utility.yul\":29934:30065   */\n      tag_936\n        /* \"#utility.yul\":30060:30064   */\n      dup2\n        /* \"#utility.yul\":29934:30065   */\n      tag_868\n      jump\t// in\n    tag_936:\n        /* \"#utility.yul\":29926:30065   */\n      swap1\n      pop\n        /* \"#utility.yul\":29653:30072   */\n      swap2\n      swap1\n      pop\n      jump\t// out\n        /* \"#utility.yul\":30078:30497   */\n    tag_236:\n        /* \"#utility.yul\":30244:30248   */\n      0x00\n        /* \"#utility.yul\":30282:30284   */\n      0x20\n        /* \"#utility.yul\":30271:30280   */\n      dup3\n        /* \"#utility.yul\":30267:30285   */\n      add\n        /* \"#utility.yul\":30259:30285   */\n      swap1\n      pop\n        /* \"#utility.yul\":30331:30340   */\n      dup2\n        /* \"#utility.yul\":30325:30329   */\n      dup2\n        /* \"#utility.yul\":30321:30341   */\n      sub\n        /* \"#utility.yul\":30317:30318   */\n      0x00\n        /* \"#utility.yul\":30306:30315   */\n      dup4\n        /* \"#utility.yul\":30302:30319   */\n      add\n        /* \"#utility.yul\":30295:30342   */\n      mstore\n        /* \"#utility.yul\":30359:30490   */\n      tag_938\n        /* \"#utility.yul\":30485:30489   */\n      dup2\n        /* \"#utility.yul\":30359:30490   */\n      tag_873\n      jump\t// in\n    tag_938:\n        /* \"#utility.yul\":30351:30490   */\n      swap1\n      pop\n        /* \"#utility.yul\":30078:30497   */\n      swap2\n      swap1\n      pop\n      jump\t// out\n        /* \"#utility.yul\":30503:30922   */\n    tag_403:\n        /* \"#utility.yul\":30669:30673   */\n      0x00\n        /* \"#utility.yul\":30707:30709   */\n      0x20\n        /* \"#utility.yul\":30696:30705   */\n      dup3\n        /* \"#utility.yul\":30692:30710   */\n      add\n        /* \"#utility.yul\":30684:30710   */\n      swap1\n      pop\n        /* \"#utility.yul\":30756:30765   */\n      dup2\n        /* \"#utility.yul\":30750:30754   */\n      dup2\n        /* \"#utility.yul\":30746:30766   */\n      sub\n        /* \"#utility.yul\":30742:30743   */\n      0x00\n        /* \"#utility.yul\":30731:30740   */\n      dup4\n        /* \"#utility.yul\":30727:30744   */\n      add\n        /* \"#utility.yul\":30720:30767   */\n      mstore\n        /* \"#utility.yul\":30784:30915   */\n      tag_940\n        /* \"#utility.yul\":30910:30914   */\n      dup2\n        /* \"#utility.yul\":30784:30915   */\n      tag_878\n      jump\t// in\n    tag_940:\n        /* \"#utility.yul\":30776:30915   */\n      swap1\n      pop\n        /* \"#utility.yul\":30503:30922   */\n      swap2\n      swap1\n      pop\n      jump\t// out\n        /* \"#utility.yul\":30928:31057   */\n    tag_613:\n        /* \"#utility.yul\":30962:30968   */\n      0x00\n        /* \"#utility.yul\":30989:31009   */\n      tag_942\n      tag_943\n      jump\t// in\n    tag_942:\n        /* \"#utility.yul\":30979:31009   */\n      swap1\n      pop\n        /* \"#utility.yul\":31018:31051   */\n      tag_944\n        /* \"#utility.yul\":31046:31050   */\n      dup3\n        /* \"#utility.yul\":31038:31044   */\n      dup3\n        /* \"#utility.yul\":31018:31051   */\n      tag_945\n      jump\t// in\n    tag_944:\n        /* \"#utility.yul\":30928:31057   */\n      swap2\n      swap1\n      pop\n      jump\t// out\n        /* \"#utility.yul\":31063:31138   */\n    tag_943:\n        /* \"#utility.yul\":31096:31102   */\n      0x00\n        /* \"#utility.yul\":31129:31131   */\n      0x40\n        /* \"#utility.yul\":31123:31132   */\n      mload\n        /* \"#utility.yul\":31113:31132   */\n      swap1\n      pop\n        /* \"#utility.yul\":31063:31138   */\n      swap1\n      jump\t// out\n        /* \"#utility.yul\":31144:31452   */\n    tag_612:\n        /* \"#utility.yul\":31206:31210   */\n      0x00\n        /* \"#utility.yul\":31296:31314   */\n      0xffffffffffffffff\n        /* \"#utility.yul\":31288:31294   */\n      dup3\n        /* \"#utility.yul\":31285:31315   */\n      gt\n        /* \"#utility.yul\":31282:31338   */\n      iszero\n      tag_948\n      jumpi\n        /* \"#utility.yul\":31318:31336   */\n      tag_949\n      tag_950\n      jump\t// in\n    tag_949:\n        /* \"#utility.yul\":31282:31338   */\n    tag_948:\n        /* \"#utility.yul\":31356:31385   */\n      tag_951\n        /* \"#utility.yul\":31378:31384   */\n      dup3\n        /* \"#utility.yul\":31356:31385   */\n      tag_836\n      jump\t// in\n    tag_951:\n        /* \"#utility.yul\":31348:31385   */\n      swap1\n      pop\n        /* \"#utility.yul\":31440:31444   */\n      0x20\n        /* \"#utility.yul\":31434:31438   */\n      dup2\n        /* \"#utility.yul\":31430:31445   */\n      add\n        /* \"#utility.yul\":31422:31445   */\n      swap1\n      pop\n        /* \"#utility.yul\":31144:31452   */\n      swap2\n      swap1\n      pop\n      jump\t// out\n        /* \"#utility.yul\":31458:31613   */\n    tag_718:\n        /* \"#utility.yul\":31548:31552   */\n      0x00\n        /* \"#utility.yul\":31571:31574   */\n      dup2\n        /* \"#utility.yul\":31563:31574   */\n      swap1\n      pop\n        /* \"#utility.yul\":31601:31605   */\n      0x20\n        /* \"#utility.yul\":31596:31599   */\n      dup3\n        /* \"#utility.yul\":31592:31606   */\n      add\n        /* \"#utility.yul\":31584:31606   */\n      swap1\n      pop\n        /* \"#utility.yul\":31458:31613   */\n      swap2\n      swap1\n      pop\n      jump\t// out\n        /* \"#utility.yul\":31619:31771   */\n    tag_732:\n        /* \"#utility.yul\":31706:31710   */\n      0x00\n        /* \"#utility.yul\":31729:31732   */\n      dup2\n        /* \"#utility.yul\":31721:31732   */\n      swap1\n      pop\n        /* \"#utility.yul\":31759:31763   */\n      0x20\n        /* \"#utility.yul\":31754:31757   */\n      dup3\n        /* \"#utility.yul\":31750:31764   */\n      add\n        /* \"#utility.yul\":31742:31764   */\n      swap1\n      pop\n        /* \"#utility.yul\":31619:31771   */\n      swap2\n      swap1\n      pop\n      jump\t// out\n        /* \"#utility.yul\":31777:31929   */\n    tag_746:\n        /* \"#utility.yul\":31864:31868   */\n      0x00\n        /* \"#utility.yul\":31887:31890   */\n      dup2\n        /* \"#utility.yul\":31879:31890   */\n      swap1\n      pop\n        /* \"#utility.yul\":31917:31921   */\n      0x20\n        /* \"#utility.yul\":31912:31915   */\n      dup3\n        /* \"#utility.yul\":31908:31922   */\n      add\n        /* \"#utility.yul\":31900:31922   */\n      swap1\n      pop\n        /* \"#utility.yul\":31777:31929   */\n      swap2\n      swap1\n      pop\n      jump\t// out\n        /* \"#utility.yul\":31935:32099   */\n    tag_760:\n        /* \"#utility.yul\":32034:32038   */\n      0x00\n        /* \"#utility.yul\":32057:32060   */\n      dup2\n        /* \"#utility.yul\":32049:32060   */\n      swap1\n      pop\n        /* \"#utility.yul\":32087:32091   */\n      0x20\n        /* \"#utility.yul\":32082:32085   */\n      dup3\n        /* \"#utility.yul\":32078:32092   */\n      add\n        /* \"#utility.yul\":32070:32092   */\n      swap1\n      pop\n        /* \"#utility.yul\":31935:32099   */\n      swap2\n      swap1\n      pop\n      jump\t// out\n        /* \"#utility.yul\":32105:32267   */\n    tag_774:\n        /* \"#utility.yul\":32202:32206   */\n      0x00\n        /* \"#utility.yul\":32225:32228   */\n      dup2\n        /* \"#utility.yul\":32217:32228   */\n      swap1\n      pop\n        /* \"#utility.yul\":32255:32259   */\n      0x20\n        /* \"#utility.yul\":32250:32253   */\n      dup3\n        /* \"#utility.yul\":32246:32260   */\n      add\n        /* \"#utility.yul\":32238:32260   */\n      swap1\n      pop\n        /* \"#utility.yul\":32105:32267   */\n      swap2\n      swap1\n      pop\n      jump\t// out\n        /* \"#utility.yul\":32273:32425   */\n    tag_788:\n        /* \"#utility.yul\":32360:32364   */\n      0x00\n        /* \"#utility.yul\":32383:32386   */\n      dup2\n        /* \"#utility.yul\":32375:32386   */\n      swap1\n      pop\n        /* \"#utility.yul\":32413:32417   */\n      0x20\n        /* \"#utility.yul\":32408:32411   */\n      dup3\n        /* \"#utility.yul\":32404:32418   */\n      add\n        /* \"#utility.yul\":32396:32418   */\n      swap1\n      pop\n        /* \"#utility.yul\":32273:32425   */\n      swap2\n      swap1\n      pop\n      jump\t// out\n        /* \"#utility.yul\":32431:32582   */\n    tag_802:\n        /* \"#utility.yul\":32517:32521   */\n      0x00\n        /* \"#utility.yul\":32540:32543   */\n      dup2\n        /* \"#utility.yul\":32532:32543   */\n      swap1\n      pop\n        /* \"#utility.yul\":32570:32574   */\n      0x20\n        /* \"#utility.yul\":32565:32568   */\n      dup3\n        /* \"#utility.yul\":32561:32575   */\n      add\n        /* \"#utility.yul\":32553:32575   */\n      swap1\n      pop\n        /* \"#utility.yul\":32431:32582   */\n      swap2\n      swap1\n      pop\n      jump\t// out\n        /* \"#utility.yul\":32588:32720   */\n    tag_816:\n        /* \"#utility.yul\":32655:32659   */\n      0x00\n        /* \"#utility.yul\":32678:32681   */\n      dup2\n        /* \"#utility.yul\":32670:32681   */\n      swap1\n      pop\n        /* \"#utility.yul\":32708:32712   */\n      0x20\n        /* \"#utility.yul\":32703:32706   */\n      dup3\n        /* \"#utility.yul\":32699:32713   */\n      add\n        /* \"#utility.yul\":32691:32713   */\n      swap1\n      pop\n        /* \"#utility.yul\":32588:32720   */\n      swap2\n      swap1\n      pop\n      jump\t// out\n        /* \"#utility.yul\":32726:32863   */\n    tag_714:\n        /* \"#utility.yul\":32816:32822   */\n      0x00\n        /* \"#utility.yul\":32850:32855   */\n      dup2\n        /* \"#utility.yul\":32844:32856   */\n      mload\n        /* \"#utility.yul\":32834:32856   */\n      swap1\n      pop\n        /* \"#utility.yul\":32726:32863   */\n      swap2\n      swap1\n      pop\n      jump\t// out\n        /* \"#utility.yul\":32869:33003   */\n    tag_728:\n        /* \"#utility.yul\":32956:32962   */\n      0x00\n        /* \"#utility.yul\":32990:32995   */\n      dup2\n        /* \"#utility.yul\":32984:32996   */\n      mload\n        /* \"#utility.yul\":32974:32996   */\n      swap1\n      pop\n        /* \"#utility.yul\":32869:33003   */\n      swap2\n      swap1\n      pop\n      jump\t// out\n        /* \"#utility.yul\":33009:33143   */\n    tag_742:\n        /* \"#utility.yul\":33096:33102   */\n      0x00\n        /* \"#utility.yul\":33130:33135   */\n      dup2\n        /* \"#utility.yul\":33124:33136   */\n      mload\n        /* \"#utility.yul\":33114:33136   */\n      swap1\n      pop\n        /* \"#utility.yul\":33009:33143   */\n      swap2\n      swap1\n      pop\n      jump\t// out\n        /* \"#utility.yul\":33149:33295   */\n    tag_756:\n        /* \"#utility.yul\":33248:33254   */\n      0x00\n        /* \"#utility.yul\":33282:33287   */\n      dup2\n        /* \"#utility.yul\":33276:33288   */\n      mload\n        /* \"#utility.yul\":33266:33288   */\n      swap1\n      pop\n        /* \"#utility.yul\":33149:33295   */\n      swap2\n      swap1\n      pop\n      jump\t// out\n        /* \"#utility.yul\":33301:33445   */\n    tag_770:\n        /* \"#utility.yul\":33398:33404   */\n      0x00\n        /* \"#utility.yul\":33432:33437   */\n      dup2\n        /* \"#utility.yul\":33426:33438   */\n      mload\n        /* \"#utility.yul\":33416:33438   */\n      swap1\n      pop\n        /* \"#utility.yul\":33301:33445   */\n      swap2\n      swap1\n      pop\n      jump\t// out\n        /* \"#utility.yul\":33451:33585   */\n    tag_784:\n        /* \"#utility.yul\":33538:33544   */\n      0x00\n        /* \"#utility.yul\":33572:33577   */\n      dup2\n        /* \"#utility.yul\":33566:33578   */\n      mload\n        /* \"#utility.yul\":33556:33578   */\n      swap1\n      pop\n        /* \"#utility.yul\":33451:33585   */\n      swap2\n      swap1\n      pop\n      jump\t// out\n        /* \"#utility.yul\":33591:33724   */\n    tag_798:\n        /* \"#utility.yul\":33677:33683   */\n      0x00\n        /* \"#utility.yul\":33711:33716   */\n      dup2\n        /* \"#utility.yul\":33705:33717   */\n      mload\n        /* \"#utility.yul\":33695:33717   */\n      swap1\n      pop\n        /* \"#utility.yul\":33591:33724   */\n      swap2\n      swap1\n      pop\n      jump\t// out\n        /* \"#utility.yul\":33730:33844   */\n    tag_812:\n        /* \"#utility.yul\":33797:33803   */\n      0x00\n        /* \"#utility.yul\":33831:33836   */\n      dup2\n        /* \"#utility.yul\":33825:33837   */\n      mload\n        /* \"#utility.yul\":33815:33837   */\n      swap1\n      pop\n        /* \"#utility.yul\":33730:33844   */\n      swap2\n      swap1\n      pop\n      jump\t// out\n        /* \"#utility.yul\":33850:33949   */\n    tag_830:\n        /* \"#utility.yul\":33902:33908   */\n      0x00\n        /* \"#utility.yul\":33936:33941   */\n      dup2\n        /* \"#utility.yul\":33930:33942   */\n      mload\n        /* \"#utility.yul\":33920:33942   */\n      swap1\n      pop\n        /* \"#utility.yul\":33850:33949   */\n      swap2\n      swap1\n      pop\n      jump\t// out\n        /* \"#utility.yul\":33955:34091   */\n    tag_724:\n        /* \"#utility.yul\":34048:34052   */\n      0x00\n        /* \"#utility.yul\":34080:34084   */\n      0x20\n        /* \"#utility.yul\":34075:34078   */\n      dup3\n        /* \"#utility.yul\":34071:34085   */\n      add\n        /* \"#utility.yul\":34063:34085   */\n      swap1\n      pop\n        /* \"#utility.yul\":33955:34091   */\n      swap2\n      swap1\n      pop\n      jump\t// out\n        /* \"#utility.yul\":34097:34230   */\n    tag_738:\n        /* \"#utility.yul\":34187:34191   */\n      0x00\n        /* \"#utility.yul\":34219:34223   */\n      0x20\n        /* \"#utility.yul\":34214:34217   */\n      dup3\n        /* \"#utility.yul\":34210:34224   */\n      add\n        /* \"#utility.yul\":34202:34224   */\n      swap1\n      pop\n        /* \"#utility.yul\":34097:34230   */\n      swap2\n      swap1\n      pop\n      jump\t// out\n        /* \"#utility.yul\":34236:34369   */\n    tag_752:\n        /* \"#utility.yul\":34326:34330   */\n      0x00\n        /* \"#utility.yul\":34358:34362   */\n      0x20\n        /* \"#utility.yul\":34353:34356   */\n      dup3\n        /* \"#utility.yul\":34349:34363   */\n      add\n        /* \"#utility.yul\":34341:34363   */\n      swap1\n      pop\n        /* \"#utility.yul\":34236:34369   */\n      swap2\n      swap1\n      pop\n      jump\t// out\n        /* \"#utility.yul\":34375:34520   */\n    tag_766:\n        /* \"#utility.yul\":34477:34481   */\n      0x00\n        /* \"#utility.yul\":34509:34513   */\n      0x20\n        /* \"#utility.yul\":34504:34507   */\n      dup3\n        /* \"#utility.yul\":34500:34514   */\n      add\n        /* \"#utility.yul\":34492:34514   */\n      swap1\n      pop\n        /* \"#utility.yul\":34375:34520   */\n      swap2\n      swap1\n      pop\n      jump\t// out\n        /* \"#utility.yul\":34526:34669   */\n    tag_780:\n        /* \"#utility.yul\":34626:34630   */\n      0x00\n        /* \"#utility.yul\":34658:34662   */\n      0x20\n        /* \"#utility.yul\":34653:34656   */\n      dup3\n        /* \"#utility.yul\":34649:34663   */\n      add\n        /* \"#utility.yul\":34641:34663   */\n      swap1\n      pop\n        /* \"#utility.yul\":34526:34669   */\n      swap2\n      swap1\n      pop\n      jump\t// out\n        /* \"#utility.yul\":34675:34808   */\n    tag_794:\n        /* \"#utility.yul\":34765:34769   */\n      0x00\n        /* \"#utility.yul\":34797:34801   */\n      0x20\n        /* \"#utility.yul\":34792:34795   */\n      dup3\n        /* \"#utility.yul\":34788:34802   */\n      add\n        /* \"#utility.yul\":34780:34802   */\n      swap1\n      pop\n        /* \"#utility.yul\":34675:34808   */\n      swap2\n      swap1\n      pop\n      jump\t// out\n        /* \"#utility.yul\":34814:34946   */\n    tag_808:\n        /* \"#utility.yul\":34903:34907   */\n      0x00\n        /* \"#utility.yul\":34935:34939   */\n      0x20\n        /* \"#utility.yul\":34930:34933   */\n      dup3\n        /* \"#utility.yul\":34926:34940   */\n      add\n        /* \"#utility.yul\":34918:34940   */\n      swap1\n      pop\n        /* \"#utility.yul\":34814:34946   */\n      swap2\n      swap1\n      pop\n      jump\t// out\n        /* \"#utility.yul\":34952:35065   */\n    tag_822:\n        /* \"#utility.yul\":35022:35026   */\n      0x00\n        /* \"#utility.yul\":35054:35058   */\n      0x20\n        /* \"#utility.yul\":35049:35052   */\n      dup3\n        /* \"#utility.yul\":35045:35059   */\n      add\n        /* \"#utility.yul\":35037:35059   */\n      swap1\n      pop\n        /* \"#utility.yul\":34952:35065   */\n      swap2\n      swap1\n      pop\n      jump\t// out\n        /* \"#utility.yul\":35071:35268   */\n    tag_716:\n        /* \"#utility.yul\":35183:35194   */\n      0x00\n        /* \"#utility.yul\":35217:35223   */\n      dup3\n        /* \"#utility.yul\":35212:35215   */\n      dup3\n        /* \"#utility.yul\":35205:35224   */\n      mstore\n        /* \"#utility.yul\":35257:35261   */\n      0x20\n        /* \"#utility.yul\":35252:35255   */\n      dup3\n        /* \"#utility.yul\":35248:35262   */\n      add\n        /* \"#utility.yul\":35233:35262   */\n      swap1\n      pop\n        /* \"#utility.yul\":35071:35268   */\n      swap3\n      swap2\n      pop\n      pop\n      jump\t// out\n        /* \"#utility.yul\":35274:35468   */\n    tag_730:\n        /* \"#utility.yul\":35383:35394   */\n      0x00\n        /* \"#utility.yul\":35417:35423   */\n      dup3\n        /* \"#utility.yul\":35412:35415   */\n      dup3\n        /* \"#utility.yul\":35405:35424   */\n      mstore\n        /* \"#utility.yul\":35457:35461   */\n      0x20\n        /* \"#utility.yul\":35452:35455   */\n      dup3\n        /* \"#utility.yul\":35448:35462   */\n      add\n        /* \"#utility.yul\":35433:35462   */\n      swap1\n      pop\n        /* \"#utility.yul\":35274:35468   */\n      swap3\n      swap2\n      pop\n      pop\n      jump\t// out\n        /* \"#utility.yul\":35474:35668   */\n    tag_744:\n        /* \"#utility.yul\":35583:35594   */\n      0x00\n        /* \"#utility.yul\":35617:35623   */\n      dup3\n        /* \"#utility.yul\":35612:35615   */\n      dup3\n        /* \"#utility.yul\":35605:35624   */\n      mstore\n        /* \"#utility.yul\":35657:35661   */\n      0x20\n        /* \"#utility.yul\":35652:35655   */\n      dup3\n        /* \"#utility.yul\":35648:35662   */\n      add\n        /* \"#utility.yul\":35633:35662   */\n      swap1\n      pop\n        /* \"#utility.yul\":35474:35668   */\n      swap3\n      swap2\n      pop\n      pop\n      jump\t// out\n        /* \"#utility.yul\":35674:35890   */\n    tag_758:\n        /* \"#utility.yul\":35805:35816   */\n      0x00\n        /* \"#utility.yul\":35839:35845   */\n      dup3\n        /* \"#utility.yul\":35834:35837   */\n      dup3\n        /* \"#utility.yul\":35827:35846   */\n      mstore\n        /* \"#utility.yul\":35879:35883   */\n      0x20\n        /* \"#utility.yul\":35874:35877   */\n      dup3\n        /* \"#utility.yul\":35870:35884   */\n      add\n        /* \"#utility.yul\":35855:35884   */\n      swap1\n      pop\n        /* \"#utility.yul\":35674:35890   */\n      swap3\n      swap2\n      pop\n      pop\n      jump\t// out\n        /* \"#utility.yul\":35896:36110   */\n    tag_772:\n        /* \"#utility.yul\":36025:36036   */\n      0x00\n        /* \"#utility.yul\":36059:36065   */\n      dup3\n        /* \"#utility.yul\":36054:36057   */\n      dup3\n        /* \"#utility.yul\":36047:36066   */\n      mstore\n        /* \"#utility.yul\":36099:36103   */\n      0x20\n        /* \"#utility.yul\":36094:36097   */\n      dup3\n        /* \"#utility.yul\":36090:36104   */\n      add\n        /* \"#utility.yul\":36075:36104   */\n      swap1\n      pop\n        /* \"#utility.yul\":35896:36110   */\n      swap3\n      swap2\n      pop\n      pop\n      jump\t// out\n        /* \"#utility.yul\":36116:36320   */\n    tag_786:\n        /* \"#utility.yul\":36235:36246   */\n      0x00\n        /* \"#utility.yul\":36269:36275   */\n      dup3\n        /* \"#utility.yul\":36264:36267   */\n      dup3\n        /* \"#utility.yul\":36257:36276   */\n      mstore\n        /* \"#utility.yul\":36309:36313   */\n      0x20\n        /* \"#utility.yul\":36304:36307   */\n      dup3\n        /* \"#utility.yul\":36300:36314   */\n      add\n        /* \"#utility.yul\":36285:36314   */\n      swap1\n      pop\n        /* \"#utility.yul\":36116:36320   */\n      swap3\n      swap2\n      pop\n      pop\n      jump\t// out\n        /* \"#utility.yul\":36326:36529   */\n    tag_800:\n        /* \"#utility.yul\":36444:36455   */\n      0x00\n        /* \"#utility.yul\":36478:36484   */\n      dup3\n        /* \"#utility.yul\":36473:36476   */\n      dup3\n        /* \"#utility.yul\":36466:36485   */\n      mstore\n        /* \"#utility.yul\":36518:36522   */\n      0x20\n        /* \"#utility.yul\":36513:36516   */\n      dup3\n        /* \"#utility.yul\":36509:36523   */\n      add\n        /* \"#utility.yul\":36494:36523   */\n      swap1\n      pop\n        /* \"#utility.yul\":36326:36529   */\n      swap3\n      swap2\n      pop\n      pop\n      jump\t// out\n        /* \"#utility.yul\":36535:36709   */\n    tag_814:\n        /* \"#utility.yul\":36624:36635   */\n      0x00\n        /* \"#utility.yul\":36658:36664   */\n      dup3\n        /* \"#utility.yul\":36653:36656   */\n      dup3\n        /* \"#utility.yul\":36646:36665   */\n      mstore\n        /* \"#utility.yul\":36698:36702   */\n      0x20\n        /* \"#utility.yul\":36693:36696   */\n      dup3\n        /* \"#utility.yul\":36689:36703   */\n      add\n        /* \"#utility.yul\":36674:36703   */\n      swap1\n      pop\n        /* \"#utility.yul\":36535:36709   */\n      swap3\n      swap2\n      pop\n      pop\n      jump\t// out\n        /* \"#utility.yul\":36715:36874   */\n    tag_832:\n        /* \"#utility.yul\":36789:36800   */\n      0x00\n        /* \"#utility.yul\":36823:36829   */\n      dup3\n        /* \"#utility.yul\":36818:36821   */\n      dup3\n        /* \"#utility.yul\":36811:36830   */\n      mstore\n        /* \"#utility.yul\":36863:36867   */\n      0x20\n        /* \"#utility.yul\":36858:36861   */\n      dup3\n        /* \"#utility.yul\":36854:36868   */\n      add\n        /* \"#utility.yul\":36839:36868   */\n      swap1\n      pop\n        /* \"#utility.yul\":36715:36874   */\n      swap3\n      swap2\n      pop\n      pop\n      jump\t// out\n        /* \"#utility.yul\":36880:37049   */\n    tag_840:\n        /* \"#utility.yul\":36964:36975   */\n      0x00\n        /* \"#utility.yul\":36998:37004   */\n      dup3\n        /* \"#utility.yul\":36993:36996   */\n      dup3\n        /* \"#utility.yul\":36986:37005   */\n      mstore\n        /* \"#utility.yul\":37038:37042   */\n      0x20\n        /* \"#utility.yul\":37033:37036   */\n      dup3\n        /* \"#utility.yul\":37029:37043   */\n      add\n        /* \"#utility.yul\":37014:37043   */\n      swap1\n      pop\n        /* \"#utility.yul\":36880:37049   */\n      swap3\n      swap2\n      pop\n      pop\n      jump\t// out\n        /* \"#utility.yul\":37055:37246   */\n    tag_94:\n        /* \"#utility.yul\":37095:37099   */\n      0x00\n        /* \"#utility.yul\":37115:37135   */\n      tag_988\n        /* \"#utility.yul\":37133:37134   */\n      dup3\n        /* \"#utility.yul\":37115:37135   */\n      tag_914\n      jump\t// in\n    tag_988:\n        /* \"#utility.yul\":37110:37135   */\n      swap2\n      pop\n        /* \"#utility.yul\":37149:37169   */\n      tag_989\n        /* \"#utility.yul\":37167:37168   */\n      dup4\n        /* \"#utility.yul\":37149:37169   */\n      tag_914\n      jump\t// in\n    tag_989:\n        /* \"#utility.yul\":37144:37169   */\n      swap3\n      pop\n        /* \"#utility.yul\":37188:37189   */\n      dup3\n        /* \"#utility.yul\":37185:37186   */\n      dup3\n        /* \"#utility.yul\":37182:37190   */\n      lt\n        /* \"#utility.yul\":37179:37213   */\n      iszero\n      tag_990\n      jumpi\n        /* \"#utility.yul\":37193:37211   */\n      tag_991\n      tag_992\n      jump\t// in\n    tag_991:\n        /* \"#utility.yul\":37179:37213   */\n    tag_990:\n        /* \"#utility.yul\":37238:37239   */\n      dup3\n        /* \"#utility.yul\":37235:37236   */\n      dup3\n        /* \"#utility.yul\":37231:37240   */\n      sub\n        /* \"#utility.yul\":37223:37240   */\n      swap1\n      pop\n        /* \"#utility.yul\":37055:37246   */\n      swap3\n      swap2\n      pop\n      pop\n      jump\t// out\n        /* \"#utility.yul\":37252:37348   */\n    tag_710:\n        /* \"#utility.yul\":37289:37296   */\n      0x00\n        /* \"#utility.yul\":37318:37342   */\n      tag_994\n        /* \"#utility.yul\":37336:37341   */\n      dup3\n        /* \"#utility.yul\":37318:37342   */\n      tag_995\n      jump\t// in\n    tag_994:\n        /* \"#utility.yul\":37307:37342   */\n      swap1\n      pop\n        /* \"#utility.yul\":37252:37348   */\n      swap2\n      swap1\n      pop\n      jump\t// out\n        /* \"#utility.yul\":37354:37444   */\n    tag_826:\n        /* \"#utility.yul\":37388:37395   */\n      0x00\n        /* \"#utility.yul\":37431:37436   */\n      dup2\n        /* \"#utility.yul\":37424:37437   */\n      iszero\n        /* \"#utility.yul\":37417:37438   */\n      iszero\n        /* \"#utility.yul\":37406:37438   */\n      swap1\n      pop\n        /* \"#utility.yul\":37354:37444   */\n      swap2\n      swap1\n      pop\n      jump\t// out\n        /* \"#utility.yul\":37450:37576   */\n    tag_995:\n        /* \"#utility.yul\":37487:37494   */\n      0x00\n        /* \"#utility.yul\":37527:37569   */\n      0xffffffffffffffffffffffffffffffffffffffff\n        /* \"#utility.yul\":37520:37525   */\n      dup3\n        /* \"#utility.yul\":37516:37570   */\n      and\n        /* \"#utility.yul\":37505:37570   */\n      swap1\n      pop\n        /* \"#utility.yul\":37450:37576   */\n      swap2\n      swap1\n      pop\n      jump\t// out\n        /* \"#utility.yul\":37582:37659   */\n    tag_914:\n        /* \"#utility.yul\":37619:37626   */\n      0x00\n        /* \"#utility.yul\":37648:37653   */\n      dup2\n        /* \"#utility.yul\":37637:37653   */\n      swap1\n      pop\n        /* \"#utility.yul\":37582:37659   */\n      swap2\n      swap1\n      pop\n      jump\t// out\n        /* \"#utility.yul\":37665:37819   */\n    tag_618:\n        /* \"#utility.yul\":37749:37755   */\n      dup3\n        /* \"#utility.yul\":37744:37747   */\n      dup2\n        /* \"#utility.yul\":37739:37742   */\n      dup4\n        /* \"#utility.yul\":37726:37756   */\n      calldatacopy\n        /* \"#utility.yul\":37811:37812   */\n      0x00\n        /* \"#utility.yul\":37802:37808   */\n      dup4\n        /* \"#utility.yul\":37797:37800   */\n      dup4\n        /* \"#utility.yul\":37793:37809   */\n      add\n        /* \"#utility.yul\":37786:37813   */\n      mstore\n        /* \"#utility.yul\":37665:37819   */\n      pop\n      pop\n      pop\n      jump\t// out\n        /* \"#utility.yul\":37825:38132   */\n    tag_834:\n        /* \"#utility.yul\":37893:37894   */\n      0x00\n        /* \"#utility.yul\":37903:38016   */\n    tag_1001:\n        /* \"#utility.yul\":37917:37923   */\n      dup4\n        /* \"#utility.yul\":37914:37915   */\n      dup2\n        /* \"#utility.yul\":37911:37924   */\n      lt\n        /* \"#utility.yul\":37903:38016   */\n      iszero\n      tag_1003\n      jumpi\n        /* \"#utility.yul\":38002:38003   */\n      dup1\n        /* \"#utility.yul\":37997:38000   */\n      dup3\n        /* \"#utility.yul\":37993:38004   */\n      add\n        /* \"#utility.yul\":37987:38005   */\n      mload\n        /* \"#utility.yul\":37983:37984   */\n      dup2\n        /* \"#utility.yul\":37978:37981   */\n      dup5\n        /* \"#utility.yul\":37974:37985   */\n      add\n        /* \"#utility.yul\":37967:38006   */\n      mstore\n        /* \"#utility.yul\":37939:37941   */\n      0x20\n        /* \"#utility.yul\":37936:37937   */\n      dup2\n        /* \"#utility.yul\":37932:37942   */\n      add\n        /* \"#utility.yul\":37927:37942   */\n      swap1\n      pop\n        /* \"#utility.yul\":37903:38016   */\n      jump(tag_1001)\n    tag_1003:\n        /* \"#utility.yul\":38034:38040   */\n      dup4\n        /* \"#utility.yul\":38031:38032   */\n      dup2\n        /* \"#utility.yul\":38028:38041   */\n      gt\n        /* \"#utility.yul\":38025:38126   */\n      iszero\n      tag_1004\n      jumpi\n        /* \"#utility.yul\":38114:38115   */\n      0x00\n        /* \"#utility.yul\":38105:38111   */\n      dup5\n        /* \"#utility.yul\":38100:38103   */\n      dup5\n        /* \"#utility.yul\":38096:38112   */\n      add\n        /* \"#utility.yul\":38089:38116   */\n      mstore\n        /* \"#utility.yul\":38025:38126   */\n    tag_1004:\n        /* \"#utility.yul\":37874:38132   */\n      pop\n        /* \"#utility.yul\":37825:38132   */\n      pop\n      pop\n      pop\n      jump\t// out\n        /* \"#utility.yul\":38138:38458   */\n    tag_246:\n        /* \"#utility.yul\":38182:38188   */\n      0x00\n        /* \"#utility.yul\":38219:38220   */\n      0x02\n        /* \"#utility.yul\":38213:38217   */\n      dup3\n        /* \"#utility.yul\":38209:38221   */\n      div\n        /* \"#utility.yul\":38199:38221   */\n      swap1\n      pop\n        /* \"#utility.yul\":38266:38267   */\n      0x01\n        /* \"#utility.yul\":38260:38264   */\n      dup3\n        /* \"#utility.yul\":38256:38268   */\n      and\n        /* \"#utility.yul\":38287:38305   */\n      dup1\n        /* \"#utility.yul\":38277:38358   */\n      tag_1006\n      jumpi\n        /* \"#utility.yul\":38343:38347   */\n      0x7f\n        /* \"#utility.yul\":38335:38341   */\n      dup3\n        /* \"#utility.yul\":38331:38348   */\n      and\n        /* \"#utility.yul\":38321:38348   */\n      swap2\n      pop\n        /* \"#utility.yul\":38277:38358   */\n    tag_1006:\n        /* \"#utility.yul\":38405:38407   */\n      0x20\n        /* \"#utility.yul\":38397:38403   */\n      dup3\n        /* \"#utility.yul\":38394:38408   */\n      lt\n        /* \"#utility.yul\":38374:38392   */\n      dup2\n        /* \"#utility.yul\":38371:38409   */\n      eq\n        /* \"#utility.yul\":38368:38452   */\n      iszero\n      tag_1007\n      jumpi\n        /* \"#utility.yul\":38424:38442   */\n      tag_1008\n      tag_1009\n      jump\t// in\n    tag_1008:\n        /* \"#utility.yul\":38368:38452   */\n    tag_1007:\n        /* \"#utility.yul\":38189:38458   */\n      pop\n        /* \"#utility.yul\":38138:38458   */\n      swap2\n      swap1\n      pop\n      jump\t// out\n        /* \"#utility.yul\":38464:38745   */\n    tag_945:\n        /* \"#utility.yul\":38547:38574   */\n      tag_1011\n        /* \"#utility.yul\":38569:38573   */\n      dup3\n        /* \"#utility.yul\":38547:38574   */\n      tag_836\n      jump\t// in\n    tag_1011:\n        /* \"#utility.yul\":38539:38545   */\n      dup2\n        /* \"#utility.yul\":38535:38575   */\n      add\n        /* \"#utility.yul\":38677:38683   */\n      dup2\n        /* \"#utility.yul\":38665:38675   */\n      dup2\n        /* \"#utility.yul\":38662:38684   */\n      lt\n        /* \"#utility.yul\":38641:38659   */\n      0xffffffffffffffff\n        /* \"#utility.yul\":38629:38639   */\n      dup3\n        /* \"#utility.yul\":38626:38660   */\n      gt\n        /* \"#utility.yul\":38623:38685   */\n      or\n        /* \"#utility.yul\":38620:38708   */\n      iszero\n      tag_1012\n      jumpi\n        /* \"#utility.yul\":38688:38706   */\n      tag_1013\n      tag_950\n      jump\t// in\n    tag_1013:\n        /* \"#utility.yul\":38620:38708   */\n    tag_1012:\n        /* \"#utility.yul\":38728:38738   */\n      dup1\n        /* \"#utility.yul\":38724:38726   */\n      0x40\n        /* \"#utility.yul\":38717:38739   */\n      mstore\n        /* \"#utility.yul\":38507:38745   */\n      pop\n        /* \"#utility.yul\":38464:38745   */\n      pop\n      pop\n      jump\t// out\n        /* \"#utility.yul\":38751:38984   */\n    tag_136:\n        /* \"#utility.yul\":38790:38793   */\n      0x00\n        /* \"#utility.yul\":38813:38837   */\n      tag_1015\n        /* \"#utility.yul\":38831:38836   */\n      dup3\n        /* \"#utility.yul\":38813:38837   */\n      tag_914\n      jump\t// in\n    tag_1015:\n        /* \"#utility.yul\":38804:38837   */\n      swap2\n      pop\n        /* \"#utility.yul\":38859:38925   */\n      0xffffffffffffffffffffffffffffffffffffffffffffffffffffffffffffffff\n        /* \"#utility.yul\":38852:38857   */\n      dup3\n        /* \"#utility.yul\":38849:38926   */\n      eq\n        /* \"#utility.yul\":38846:38949   */\n      iszero\n      tag_1016\n      jumpi\n        /* \"#utility.yul\":38929:38947   */\n      tag_1017\n      tag_992\n      jump\t// in\n    tag_1017:\n        /* \"#utility.yul\":38846:38949   */\n    tag_1016:\n        /* \"#utility.yul\":38976:38977   */\n      0x01\n        /* \"#utility.yul\":38969:38974   */\n      dup3\n        /* \"#utility.yul\":38965:38978   */\n      add\n        /* \"#utility.yul\":38958:38978   */\n      swap1\n      pop\n        /* \"#utility.yul\":38751:38984   */\n      swap2\n      swap1\n      pop\n      jump\t// out\n        /* \"#utility.yul\":38990:39170   */\n    tag_992:\n        /* \"#utility.yul\":39038:39115   */\n      0x4e487b7100000000000000000000000000000000000000000000000000000000\n        /* \"#utility.yul\":39035:39036   */\n      0x00\n        /* \"#utility.yul\":39028:39116   */\n      mstore\n        /* \"#utility.yul\":39135:39139   */\n      0x11\n        /* \"#utility.yul\":39132:39133   */\n      0x04\n        /* \"#utility.yul\":39125:39140   */\n      mstore\n        /* \"#utility.yul\":39159:39163   */\n      0x24\n        /* \"#utility.yul\":39156:39157   */\n      0x00\n        /* \"#utility.yul\":39149:39164   */\n      revert\n        /* \"#utility.yul\":39176:39356   */\n    tag_1009:\n        /* \"#utility.yul\":39224:39301   */\n      0x4e487b7100000000000000000000000000000000000000000000000000000000\n        /* \"#utility.yul\":39221:39222   */\n      0x00\n        /* \"#utility.yul\":39214:39302   */\n      mstore\n        /* \"#utility.yul\":39321:39325   */\n      0x22\n        /* \"#utility.yul\":39318:39319   */\n      0x04\n        /* \"#utility.yul\":39311:39326   */\n      mstore\n        /* \"#utility.yul\":39345:39349   */\n      0x24\n        /* \"#utility.yul\":39342:39343   */\n      0x00\n        /* \"#utility.yul\":39335:39350   */\n      revert\n        /* \"#utility.yul\":39362:39542   */\n    tag_84:\n        /* \"#utility.yul\":39410:39487   */\n      0x4e487b7100000000000000000000000000000000000000000000000000000000\n        /* \"#utility.yul\":39407:39408   */\n      0x00\n        /* \"#utility.yul\":39400:39488   */\n      mstore\n        /* \"#utility.yul\":39507:39511   */\n      0x32\n        /* \"#utility.yul\":39504:39505   */\n      0x04\n        /* \"#utility.yul\":39497:39512   */\n      mstore\n        /* \"#utility.yul\":39531:39535   */\n      0x24\n        /* \"#utility.yul\":39528:39529   */\n      0x00\n        /* \"#utility.yul\":39521:39536   */\n      revert\n        /* \"#utility.yul\":39548:39728   */\n    tag_950:\n        /* \"#utility.yul\":39596:39673   */\n      0x4e487b7100000000000000000000000000000000000000000000000000000000\n        /* \"#utility.yul\":39593:39594   */\n      0x00\n        /* \"#utility.yul\":39586:39674   */\n      mstore\n        /* \"#utility.yul\":39693:39697   */\n      0x41\n        /* \"#utility.yul\":39690:39691   */\n      0x04\n        /* \"#utility.yul\":39683:39698   */\n      mstore\n        /* \"#utility.yul\":39717:39721   */\n      0x24\n        /* \"#utility.yul\":39714:39715   */\n      0x00\n        /* \"#utility.yul\":39707:39722   */\n      revert\n        /* \"#utility.yul\":39734:39851   */\n    tag_631:\n        /* \"#utility.yul\":39843:39844   */\n      0x00\n        /* \"#utility.yul\":39840:39841   */\n      dup1\n        /* \"#utility.yul\":39833:39845   */\n      revert\n        /* \"#utility.yul\":39857:39974   */\n    tag_616:\n        /* \"#utility.yul\":39966:39967   */\n      0x00\n        /* \"#utility.yul\":39963:39964   */\n      dup1\n        /* \"#utility.yul\":39956:39968   */\n      revert\n        /* \"#utility.yul\":39980:40097   */\n    tag_648:\n        /* \"#utility.yul\":40089:40090   */\n      0x00\n        /* \"#utility.yul\":40086:40087   */\n      dup1\n        /* \"#utility.yul\":40079:40091   */\n      revert\n        /* \"#utility.yul\":40103:40220   */\n    tag_640:\n        /* \"#utility.yul\":40212:40213   */\n      0x00\n        /* \"#utility.yul\":40209:40210   */\n      dup1\n        /* \"#utility.yul\":40202:40214   */\n      revert\n        /* \"#utility.yul\":40226:40328   */\n    tag_836:\n        /* \"#utility.yul\":40267:40273   */\n      0x00\n        /* \"#utility.yul\":40318:40320   */\n      0x1f\n        /* \"#utility.yul\":40314:40321   */\n      not\n        /* \"#utility.yul\":40309:40311   */\n      0x1f\n        /* \"#utility.yul\":40302:40307   */\n      dup4\n        /* \"#utility.yul\":40298:40312   */\n      add\n        /* \"#utility.yul\":40294:40322   */\n      and\n        /* \"#utility.yul\":40284:40322   */\n      swap1\n      pop\n        /* \"#utility.yul\":40226:40328   */\n      swap2\n      swap1\n      pop\n      jump\t// out\n        /* \"#utility.yul\":40334:40487   */\n    tag_842:\n        /* \"#utility.yul\":40474:40479   */\n      0x3130340000000000000000000000000000000000000000000000000000000000\n        /* \"#utility.yul\":40470:40471   */\n      0x00\n        /* \"#utility.yul\":40462:40468   */\n      dup3\n        /* \"#utility.yul\":40458:40472   */\n      add\n        /* \"#utility.yul\":40451:40480   */\n      mstore\n        /* \"#utility.yul\":40334:40487   */\n      pop\n      jump\t// out\n        /* \"#utility.yul\":40493:40646   */\n    tag_847:\n        /* \"#utility.yul\":40633:40638   */\n      0x3130300000000000000000000000000000000000000000000000000000000000\n        /* \"#utility.yul\":40629:40630   */\n      0x00\n        /* \"#utility.yul\":40621:40627   */\n      dup3\n        /* \"#utility.yul\":40617:40631   */\n      add\n        /* \"#utility.yul\":40610:40639   */\n      mstore\n        /* \"#utility.yul\":40493:40646   */\n      pop\n      jump\t// out\n        /* \"#utility.yul\":40652:40805   */\n    tag_852:\n        /* \"#utility.yul\":40792:40797   */\n      0x3230310000000000000000000000000000000000000000000000000000000000\n        /* \"#utility.yul\":40788:40789   */\n      0x00\n        /* \"#utility.yul\":40780:40786   */\n      dup3\n        /* \"#utility.yul\":40776:40790   */\n      add\n        /* \"#utility.yul\":40769:40798   */\n      mstore\n        /* \"#utility.yul\":40652:40805   */\n      pop\n      jump\t// out\n        /* \"#utility.yul\":40811:40977   */\n    tag_857:\n        /* \"#utility.yul\":40951:40969   */\n      0x5520616c72656164792061646d696e2100000000000000000000000000000000\n        /* \"#utility.yul\":40947:40948   */\n      0x00\n        /* \"#utility.yul\":40939:40945   */\n      dup3\n        /* \"#utility.yul\":40935:40949   */\n      add\n        /* \"#utility.yul\":40928:40970   */\n      mstore\n        /* \"#utility.yul\":40811:40977   */\n      pop\n      jump\t// out\n        /* \"#utility.yul\":40983:41147   */\n    tag_862:\n        /* \"#utility.yul\":41123:41139   */\n      0x49742069736e27742073686f7021000000000000000000000000000000000000\n        /* \"#utility.yul\":41119:41120   */\n      0x00\n        /* \"#utility.yul\":41111:41117   */\n      dup3\n        /* \"#utility.yul\":41107:41121   */\n      add\n        /* \"#utility.yul\":41100:41140   */\n      mstore\n        /* \"#utility.yul\":40983:41147   */\n      pop\n      jump\t// out\n        /* \"#utility.yul\":41153:41306   */\n    tag_867:\n        /* \"#utility.yul\":41293:41298   */\n      0x3130330000000000000000000000000000000000000000000000000000000000\n        /* \"#utility.yul\":41289:41290   */\n      0x00\n        /* \"#utility.yul\":41281:41287   */\n      dup3\n        /* \"#utility.yul\":41277:41291   */\n      add\n        /* \"#utility.yul\":41270:41299   */\n      mstore\n        /* \"#utility.yul\":41153:41306   */\n      pop\n      jump\t// out\n        /* \"#utility.yul\":41312:41465   */\n    tag_872:\n        /* \"#utility.yul\":41452:41457   */\n      0x3230300000000000000000000000000000000000000000000000000000000000\n        /* \"#utility.yul\":41448:41449   */\n      0x00\n        /* \"#utility.yul\":41440:41446   */\n      dup3\n        /* \"#utility.yul\":41436:41450   */\n      add\n        /* \"#utility.yul\":41429:41458   */\n      mstore\n        /* \"#utility.yul\":41312:41465   */\n      pop\n      jump\t// out\n        /* \"#utility.yul\":41471:41633   */\n    tag_877:\n        /* \"#utility.yul\":41611:41625   */\n      0x53686f7020657869737473210000000000000000000000000000000000000000\n        /* \"#utility.yul\":41607:41608   */\n      0x00\n        /* \"#utility.yul\":41599:41605   */\n      dup3\n        /* \"#utility.yul\":41595:41609   */\n      add\n        /* \"#utility.yul\":41588:41626   */\n      mstore\n        /* \"#utility.yul\":41471:41633   */\n      pop\n      jump\t// out\n        /* \"#utility.yul\":41639:41792   */\n    tag_882:\n        /* \"#utility.yul\":41779:41784   */\n      0x3130310000000000000000000000000000000000000000000000000000000000\n        /* \"#utility.yul\":41775:41776   */\n      0x00\n        /* \"#utility.yul\":41767:41773   */\n      dup3\n        /* \"#utility.yul\":41763:41777   */\n      add\n        /* \"#utility.yul\":41756:41785   */\n      mstore\n        /* \"#utility.yul\":41639:41792   */\n      pop\n      jump\t// out\n        /* \"#utility.yul\":41798:41920   */\n    tag_622:\n        /* \"#utility.yul\":41871:41895   */\n      tag_1037\n        /* \"#utility.yul\":41889:41894   */\n      dup2\n        /* \"#utility.yul\":41871:41895   */\n      tag_710\n      jump\t// in\n    tag_1037:\n        /* \"#utility.yul\":41864:41869   */\n      dup2\n        /* \"#utility.yul\":41861:41896   */\n      eq\n        /* \"#utility.yul\":41851:41914   */\n      tag_1038\n      jumpi\n        /* \"#utility.yul\":41910:41911   */\n      0x00\n        /* \"#utility.yul\":41907:41908   */\n      dup1\n        /* \"#utility.yul\":41900:41912   */\n      revert\n        /* \"#utility.yul\":41851:41914   */\n    tag_1038:\n        /* \"#utility.yul\":41798:41920   */\n      pop\n      jump\t// out\n        /* \"#utility.yul\":41926:42042   */\n    tag_626:\n        /* \"#utility.yul\":41996:42017   */\n      tag_1040\n        /* \"#utility.yul\":42011:42016   */\n      dup2\n        /* \"#utility.yul\":41996:42017   */\n      tag_826\n      jump\t// in\n    tag_1040:\n        /* \"#utility.yul\":41989:41994   */\n      dup2\n        /* \"#utility.yul\":41986:42018   */\n      eq\n        /* \"#utility.yul\":41976:42036   */\n      tag_1041\n      jumpi\n        /* \"#utility.yul\":42032:42033   */\n      0x00\n        /* \"#utility.yul\":42029:42030   */\n      dup1\n        /* \"#utility.yul\":42022:42034   */\n      revert\n        /* \"#utility.yul\":41976:42036   */\n    tag_1041:\n        /* \"#utility.yul\":41926:42042   */\n      pop\n      jump\t// out\n        /* \"#utility.yul\":42048:42170   */\n    tag_636:\n        /* \"#utility.yul\":42121:42145   */\n      tag_1043\n        /* \"#utility.yul\":42139:42144   */\n      dup2\n        /* \"#utility.yul\":42121:42145   */\n      tag_914\n      jump\t// in\n    tag_1043:\n        /* \"#utility.yul\":42114:42119   */\n      dup2\n        /* \"#utility.yul\":42111:42146   */\n      eq\n        /* \"#utility.yul\":42101:42164   */\n      tag_1044\n      jumpi\n        /* \"#utility.yul\":42160:42161   */\n      0x00\n        /* \"#utility.yul\":42157:42158   */\n      dup1\n        /* \"#utility.yul\":42150:42162   */\n      revert\n        /* \"#utility.yul\":42101:42164   */\n    tag_1044:\n        /* \"#utility.yul\":42048:42170   */\n      pop\n      jump\t// out\n\n    auxdata: 0xa2646970667358221220ad217d184e19ec8d642514583359a5ac80caeec98a0290b8ce55383cf3fc765864736f6c63430008070033\n}\n",
				"bytecode": {
					"linkReferences": {},
					"object": "60806040523480156200001157600080fd5b5062000039732eeb8e636d2b7bf006aef7df63c1b388c3d0bb5e60006200017260201b60201c565b620000607355cc20d0cddfed1f06b669a8ff6eba58218bbbd760016200017260201b60201c565b6200008773b033788a9a2a69e4d007b05ad15893ba57f788c760026200017260201b60201c565b620000ae73692beb097e09a1fd74dafa495705d9cbdce84bf960026200017260201b60201c565b62000109733fe4252b00b1b6aa40b172410b02025fb3bfa8046040518060400160405280600381526020017f4b4c4700000000000000000000000000000000000000000000000000000000008152506200035960201b60201c565b600060016000805490506200011f919062000b11565b8154811062000133576200013262000c38565b5b90600052602060002090600402016003016001908060018154018082558091505060019003906000526020600020016000909190919091505562000d5d565b8160005b60018054905081101562000254578173ffffffffffffffffffffffffffffffffffffffff1660018281548110620001b257620001b162000c38565b5b906000526020600020906003020160000160009054906101000a900473ffffffffffffffffffffffffffffffffffffffff1673ffffffffffffffffffffffffffffffffffffffff1614156200023e576040517f08c379a0000000000000000000000000000000000000000000000000000000008152600401620002359062000a78565b60405180910390fd5b80806200024b9062000b8c565b91505062000176565b50600382106200029b576040517f08c379a0000000000000000000000000000000000000000000000000000000008152600401620002929062000a34565b60405180910390fd5b600160405180606001604052808573ffffffffffffffffffffffffffffffffffffffff16815260200184815260200184815250908060018154018082558091505060019003906000526020600020906003020160009091909190915060008201518160000160006101000a81548173ffffffffffffffffffffffffffffffffffffffff021916908373ffffffffffffffffffffffffffffffffffffffff16021790555060208201518160010155604082015181600201555050505050565b336000805b60018054905081101562000409578273ffffffffffffffffffffffffffffffffffffffff16600182815481106200039a576200039962000c38565b5b906000526020600020906003020160000160009054906101000a900473ffffffffffffffffffffffffffffffffffffffff1673ffffffffffffffffffffffffffffffffffffffff161415620003f3576001915062000409565b8080620004009062000b8c565b9150506200035e565b50806200044d576040517f08c379a0000000000000000000000000000000000000000000000000000000008152600401620004449062000abc565b60405180910390fd5b3360005b60018054905081101562000566578173ffffffffffffffffffffffffffffffffffffffff16600182815481106200048d576200048c62000c38565b5b906000526020600020906003020160000160009054906101000a900473ffffffffffffffffffffffffffffffffffffffff1673ffffffffffffffffffffffffffffffffffffffff1614156200055057600060018281548110620004f557620004f462000c38565b5b906000526020600020906003020160020154146200054a576040517f08c379a0000000000000000000000000000000000000000000000000000000008152600401620005419062000a56565b60405180910390fd5b62000566565b80806200055d9062000b8c565b91505062000451565b508460005b60018054905081101562000649578173ffffffffffffffffffffffffffffffffffffffff1660018281548110620005a757620005a662000c38565b5b906000526020600020906003020160000160009054906101000a900473ffffffffffffffffffffffffffffffffffffffff1673ffffffffffffffffffffffffffffffffffffffff16141562000633576040517f08c379a00000000000000000000000000000000000000000000000000000000081526004016200062a9062000a78565b60405180910390fd5b8080620006409062000b8c565b9150506200056b565b508560005b6001805490508110156200072c578173ffffffffffffffffffffffffffffffffffffffff16600182815481106200068a576200068962000c38565b5b906000526020600020906003020160000160009054906101000a900473ffffffffffffffffffffffffffffffffffffffff1673ffffffffffffffffffffffffffffffffffffffff16141562000716576040517f08c379a00000000000000000000000000000000000000000000000000000000081526004016200070d9062000a9a565b60405180910390fd5b8080620007239062000b8c565b9150506200064e565b5060005b6000805490508110156200080e578173ffffffffffffffffffffffffffffffffffffffff16600082815481106200076c576200076b62000c38565b5b906000526020600020906004020160000160009054906101000a900473ffffffffffffffffffffffffffffffffffffffff1673ffffffffffffffffffffffffffffffffffffffff161415620007f8576040517f08c379a0000000000000000000000000000000000000000000000000000000008152600401620007ef9062000ade565b60405180910390fd5b8080620008059062000b8c565b91505062000730565b506000806001816001815401808255809150500390600052602060002090600402019050878160000160006101000a81548173ffffffffffffffffffffffffffffffffffffffff021916908373ffffffffffffffffffffffffffffffffffffffff160217905550868160010190805190602001906200088f9291906200089a565b505050505050505050565b828054620008a89062000b56565b90600052602060002090601f016020900481019282620008cc576000855562000918565b82601f10620008e757805160ff191683800117855562000918565b8280016001018555821562000918579182015b8281111562000917578251825591602001919060010190620008fa565b5b5090506200092791906200092b565b5090565b5b80821115620009465760008160009055506001016200092c565b5090565b60006200095960038362000b00565b9150620009668262000c67565b602082019050919050565b60006200098060038362000b00565b91506200098d8262000c90565b602082019050919050565b6000620009a760038362000b00565b9150620009b48262000cb9565b602082019050919050565b6000620009ce600e8362000b00565b9150620009db8262000ce2565b602082019050919050565b6000620009f560038362000b00565b915062000a028262000d0b565b602082019050919050565b600062000a1c600c8362000b00565b915062000a298262000d34565b602082019050919050565b6000602082019050818103600083015262000a4f816200094a565b9050919050565b6000602082019050818103600083015262000a718162000971565b9050919050565b6000602082019050818103600083015262000a938162000998565b9050919050565b6000602082019050818103600083015262000ab581620009bf565b9050919050565b6000602082019050818103600083015262000ad781620009e6565b9050919050565b6000602082019050818103600083015262000af98162000a0d565b9050919050565b600082825260208201905092915050565b600062000b1e8262000b4c565b915062000b2b8362000b4c565b92508282101562000b415762000b4062000bda565b5b828203905092915050565b6000819050919050565b6000600282049050600182168062000b6f57607f821691505b6020821081141562000b865762000b8562000c09565b5b50919050565b600062000b998262000b4c565b91507fffffffffffffffffffffffffffffffffffffffffffffffffffffffffffffffff82141562000bcf5762000bce62000bda565b5b600182019050919050565b7f4e487b7100000000000000000000000000000000000000000000000000000000600052601160045260246000fd5b7f4e487b7100000000000000000000000000000000000000000000000000000000600052602260045260246000fd5b7f4e487b7100000000000000000000000000000000000000000000000000000000600052603260045260246000fd5b7f3130320000000000000000000000000000000000000000000000000000000000600082015250565b7f3130300000000000000000000000000000000000000000000000000000000000600082015250565b7f3230310000000000000000000000000000000000000000000000000000000000600082015250565b7f49742069736e27742073686f7021000000000000000000000000000000000000600082015250565b7f3230300000000000000000000000000000000000000000000000000000000000600082015250565b7f53686f7020657869737473210000000000000000000000000000000000000000600082015250565b613e818062000d6d6000396000f3fe608060405234801561001057600080fd5b506004361061010a5760003560e01c80633efdebf1116100a25780636b65750e116100715780636b65750e1461022b57806370480275146102495780638f055d8a14610265578063ab122ef514610283578063ad81f8031461029f5761010a565b80633efdebf1146101cd5780634384a79f146101e957806349b159621461020557806366b2f7911461020f5761010a565b8063240185b6116100de578063240185b61461017f5780632e91d7061461019d578063329fb8d6146101a75780633b95a23f146101c35761010a565b806282f88e1461010f57806319e766801461012b5780631a0550e3146101475780631c618eb314610163575b600080fd5b61012960048036038101906101249190612dc9565b6102bd565b005b61014560048036038101906101409190612d49565b6104d0565b005b610161600480360381019061015c9190612d49565b61065d565b005b61017d60048036038101906101789190612ced565b61093b565b005b610187610e41565b604051610194919061369b565b60405180910390f35b6101a5611410565b005b6101c160048036038101906101bc9190612d49565b61158c565b005b6101cb6118a8565b005b6101e760048036038101906101e29190612d49565b611a3f565b005b61020360048036038101906101fe9190612d76565b611bdd565b005b61020d611df1565b005b61022960048036038101906102249190612e38565b611fd0565b005b610233612208565b6040516102409190613657565b60405180910390f35b610263600480360381019061025e9190612cc0565b61228c565b005b61026d6125e6565b60405161027a9190613679565b60405180910390f35b61029d60048036038101906102989190612dc9565b612674565b005b6102a76128b5565b6040516102b491906136bd565b60405180910390f35b600083815481106102d1576102d0613c12565b5b906000526020600020906004020160020160018160018154018082558091505003906000526020600020905050336000848154811061031357610312613c12565b5b906000526020600020906004020160020160016000868154811061033a57610339613c12565b5b9060005260206000209060040201600201805490506103599190613a4a565b8154811061036a57610369613c12565b5b906000526020600020906005020160000160006101000a81548173ffffffffffffffffffffffffffffffffffffffff021916908373ffffffffffffffffffffffffffffffffffffffff16021790555081600084815481106103ce576103cd613c12565b5b90600052602060002090600402016002016001600086815481106103f5576103f4613c12565b5b9060005260206000209060040201600201805490506104149190613a4a565b8154811061042557610424613c12565b5b906000526020600020906005020160010181905550806000848154811061044f5761044e613c12565b5b906000526020600020906004020160020160016000868154811061047657610475613c12565b5b9060005260206000209060040201600201805490506104959190613a4a565b815481106104a6576104a5613c12565b5b906000526020600020906005020160040190805190602001906104ca92919061297e565b50505050565b60005b600180549050811015610659573373ffffffffffffffffffffffffffffffffffffffff166001828154811061050b5761050a613c12565b5b906000526020600020906003020160000160009054906101000a900473ffffffffffffffffffffffffffffffffffffffff1673ffffffffffffffffffffffffffffffffffffffff1614156106465760006001828154811061056f5761056e613c12565b5b90600052602060002090600302016001015414156105c2576040517f08c379a00000000000000000000000000000000000000000000000000000000081526004016105b9906136df565b60405180910390fd5b60036040518060600160405280838152602001848152602001600015158152509080600181540180825580915050600190039060005260206000209060030201600090919091909150600082015181600001556020820151816001015560408201518160020160006101000a81548160ff0219169083151502179055505050610659565b808061065190613b6b565b9150506104d3565b5050565b336000805b600180549050811015610704578273ffffffffffffffffffffffffffffffffffffffff166001828154811061069a57610699613c12565b5b906000526020600020906003020160000160009054906101000a900473ffffffffffffffffffffffffffffffffffffffff1673ffffffffffffffffffffffffffffffffffffffff1614156106f15760019150610704565b80806106fc90613b6b565b915050610662565b5080610745576040517f08c379a000000000000000000000000000000000000000000000000000000000815260040161073c9061379f565b60405180910390fd5b3360005b60018054905081101561084f578173ffffffffffffffffffffffffffffffffffffffff166001828154811061078157610780613c12565b5b906000526020600020906003020160000160009054906101000a900473ffffffffffffffffffffffffffffffffffffffff1673ffffffffffffffffffffffffffffffffffffffff16141561083c576000600182815481106107e5576107e4613c12565b5b90600052602060002090600302016002015414610837576040517f08c379a000000000000000000000000000000000000000000000000000000000815260040161082e906136ff565b60405180910390fd5b61084f565b808061084790613b6b565b915050610749565b506001806003868154811061086757610866613c12565b5b9060005260206000209060030201600001548154811061088a57610889613c12565b5b9060005260206000209060030201600101819055506000600385815481106108b5576108b4613c12565b5b906000526020600020906003020160010154815481106108d8576108d7613c12565b5b9060005260206000209060040201600301600385815481106108fd576108fc613c12565b5b906000526020600020906003020160000154908060018154018082558091505060019003906000526020600020016000909190919091505550505050565b336000805b6001805490508110156109e2578273ffffffffffffffffffffffffffffffffffffffff166001828154811061097857610977613c12565b5b906000526020600020906003020160000160009054906101000a900473ffffffffffffffffffffffffffffffffffffffff1673ffffffffffffffffffffffffffffffffffffffff1614156109cf57600191506109e2565b80806109da90613b6b565b915050610940565b5080610a23576040517f08c379a0000000000000000000000000000000000000000000000000000000008152600401610a1a9061379f565b60405180910390fd5b3360005b600180549050811015610b2d578173ffffffffffffffffffffffffffffffffffffffff1660018281548110610a5f57610a5e613c12565b5b906000526020600020906003020160000160009054906101000a900473ffffffffffffffffffffffffffffffffffffffff1673ffffffffffffffffffffffffffffffffffffffff161415610b1a57600060018281548110610ac357610ac2613c12565b5b90600052602060002090600302016002015414610b15576040517f08c379a0000000000000000000000000000000000000000000000000000000008152600401610b0c906136ff565b60405180910390fd5b610b2d565b8080610b2590613b6b565b915050610a27565b508460005b600180549050811015610c06578173ffffffffffffffffffffffffffffffffffffffff1660018281548110610b6a57610b69613c12565b5b906000526020600020906003020160000160009054906101000a900473ffffffffffffffffffffffffffffffffffffffff1673ffffffffffffffffffffffffffffffffffffffff161415610bf3576040517f08c379a0000000000000000000000000000000000000000000000000000000008152600401610bea9061371f565b60405180910390fd5b8080610bfe90613b6b565b915050610b32565b508560005b600180549050811015610cdf578173ffffffffffffffffffffffffffffffffffffffff1660018281548110610c4357610c42613c12565b5b906000526020600020906003020160000160009054906101000a900473ffffffffffffffffffffffffffffffffffffffff1673ffffffffffffffffffffffffffffffffffffffff161415610ccc576040517f08c379a0000000000000000000000000000000000000000000000000000000008152600401610cc39061375f565b60405180910390fd5b8080610cd790613b6b565b915050610c0b565b5060005b600080549050811015610db7578173ffffffffffffffffffffffffffffffffffffffff1660008281548110610d1b57610d1a613c12565b5b906000526020600020906004020160000160009054906101000a900473ffffffffffffffffffffffffffffffffffffffff1673ffffffffffffffffffffffffffffffffffffffff161415610da4576040517f08c379a0000000000000000000000000000000000000000000000000000000008152600401610d9b906137bf565b60405180910390fd5b8080610daf90613b6b565b915050610ce3565b506000806001816001815401808255809150500390600052602060002090600402019050878160000160006101000a81548173ffffffffffffffffffffffffffffffffffffffff021916908373ffffffffffffffffffffffffffffffffffffffff16021790555086816001019080519060200190610e3692919061297e565b505050505050505050565b60606000805480602002602001604051908101604052809291908181526020016000905b8282101561140757838290600052602060002090600402016040518060800160405290816000820160009054906101000a900473ffffffffffffffffffffffffffffffffffffffff1673ffffffffffffffffffffffffffffffffffffffff1673ffffffffffffffffffffffffffffffffffffffff168152602001600182018054610eee90613b08565b80601f0160208091040260200160405190810160405280929190818152602001828054610f1a90613b08565b8015610f675780601f10610f3c57610100808354040283529160200191610f67565b820191906000526020600020905b815481529060010190602001808311610f4a57829003601f168201915b5050505050815260200160028201805480602002602001604051908101604052809291908181526020016000905b8282101561139857838290600052602060002090600502016040518060a00160405290816000820160009054906101000a900473ffffffffffffffffffffffffffffffffffffffff1673ffffffffffffffffffffffffffffffffffffffff1673ffffffffffffffffffffffffffffffffffffffff1681526020016001820154815260200160028201805480602002602001604051908101604052809291908181526020016000905b828210156110dc578382906000526020600020016040518060400160405290816000820160009054906101000a900473ffffffffffffffffffffffffffffffffffffffff1673ffffffffffffffffffffffffffffffffffffffff1673ffffffffffffffffffffffffffffffffffffffff1681526020016000820160149054906101000a900460ff1615151515815250508152602001906001019061103d565b50505050815260200160038201805480602002602001604051908101604052809291908181526020016000905b828210156112ef57838290600052602060002090600302016040518060600160405290816000820160009054906101000a900473ffffffffffffffffffffffffffffffffffffffff1673ffffffffffffffffffffffffffffffffffffffff1673ffffffffffffffffffffffffffffffffffffffff16815260200160018201805480602002602001604051908101604052809291908181526020016000905b82821015611246578382906000526020600020016040518060400160405290816000820160009054906101000a900473ffffffffffffffffffffffffffffffffffffffff1673ffffffffffffffffffffffffffffffffffffffff1673ffffffffffffffffffffffffffffffffffffffff1681526020016000820160149054906101000a900460ff161515151581525050815260200190600101906111a7565b50505050815260200160028201805461125e90613b08565b80601f016020809104026020016040519081016040528092919081815260200182805461128a90613b08565b80156112d75780601f106112ac576101008083540402835291602001916112d7565b820191906000526020600020905b8154815290600101906020018083116112ba57829003601f168201915b50505050508152505081526020019060010190611109565b50505050815260200160048201805461130790613b08565b80601f016020809104026020016040519081016040528092919081815260200182805461133390613b08565b80156113805780601f1061135557610100808354040283529160200191611380565b820191906000526020600020905b81548152906001019060200180831161136357829003601f168201915b50505050508152505081526020019060010190610f95565b505050508152602001600382018054806020026020016040519081016040528092919081815260200182805480156113ef57602002820191906000526020600020905b8154815260200190600101908083116113db575b50505050508152505081526020019060010190610e65565b50505050905090565b60005b600180549050811015611589573373ffffffffffffffffffffffffffffffffffffffff166001828154811061144b5761144a613c12565b5b906000526020600020906003020160000160009054906101000a900473ffffffffffffffffffffffffffffffffffffffff1673ffffffffffffffffffffffffffffffffffffffff161415611576576000600182815481106114af576114ae613c12565b5b9060005260206000209060030201600101541415611502576040517f08c379a00000000000000000000000000000000000000000000000000000000081526004016114f9906136df565b60405180910390fd5b600260405180604001604052808381526020016000151581525090806001815401808255809150506001900390600052602060002090600202016000909190919091506000820151816000015560208201518160010160006101000a81548160ff0219169083151502179055505050611589565b808061158190613b6b565b915050611413565b50565b336000805b600180549050811015611633578273ffffffffffffffffffffffffffffffffffffffff16600182815481106115c9576115c8613c12565b5b906000526020600020906003020160000160009054906101000a900473ffffffffffffffffffffffffffffffffffffffff1673ffffffffffffffffffffffffffffffffffffffff1614156116205760019150611633565b808061162b90613b6b565b915050611591565b5080611674576040517f08c379a000000000000000000000000000000000000000000000000000000000815260040161166b9061379f565b60405180910390fd5b3360005b60018054905081101561177e578173ffffffffffffffffffffffffffffffffffffffff16600182815481106116b0576116af613c12565b5b906000526020600020906003020160000160009054906101000a900473ffffffffffffffffffffffffffffffffffffffff1673ffffffffffffffffffffffffffffffffffffffff16141561176b5760006001828154811061171457611713613c12565b5b90600052602060002090600302016002015414611766576040517f08c379a000000000000000000000000000000000000000000000000000000000815260040161175d906136ff565b60405180910390fd5b61177e565b808061177690613b6b565b915050611678565b5060005b6000805490508110156118a15760005b600082815481106117a6576117a5613c12565b5b90600052602060002090600402016003018054905081101561188d57600082815481106117d6576117d5613c12565b5b906000526020600020906004020160030181815481106117f9576117f8613c12565b5b90600052602060002001546002878154811061181857611817613c12565b5b906000526020600020906002020160000154141561187a576000828154811061184457611843613c12565b5b9060005260206000209060040201600301818154811061186757611866613c12565b5b906000526020600020016000905561188d565b808061188590613b6b565b915050611792565b50808061189990613b6b565b915050611782565b5050505050565b3360005b600180549050811015611980578173ffffffffffffffffffffffffffffffffffffffff16600182815481106118e4576118e3613c12565b5b906000526020600020906003020160000160009054906101000a900473ffffffffffffffffffffffffffffffffffffffff1673ffffffffffffffffffffffffffffffffffffffff16141561196d576040517f08c379a00000000000000000000000000000000000000000000000000000000081526004016119649061371f565b60405180910390fd5b808061197890613b6b565b9150506118ac565b50600160405180606001604052803373ffffffffffffffffffffffffffffffffffffffff168152602001600281526020016002815250908060018154018082558091505060019003906000526020600020906003020160009091909190915060008201518160000160006101000a81548173ffffffffffffffffffffffffffffffffffffffff021916908373ffffffffffffffffffffffffffffffffffffffff1602179055506020820151816001015560408201518160020155505050565b60005b60008281548110611a5657611a55613c12565b5b906000526020600020906004020160030180549050811015611b5d576002600160008481548110611a8a57611a89613c12565b5b90600052602060002090600402016003018381548110611aad57611aac613c12565b5b906000526020600020015481548110611ac957611ac8613c12565b5b9060005260206000209060030201600101819055506002600160008481548110611af657611af5613c12565b5b90600052602060002090600402016003018381548110611b1957611b18613c12565b5b906000526020600020015481548110611b3557611b34613c12565b5b9060005260206000209060030201600201819055508080611b5590613b6b565b915050611a42565b5060008181548110611b7257611b71613c12565b5b9060005260206000209060040201600080820160006101000a81549073ffffffffffffffffffffffffffffffffffffffff0219169055600182016000611bb89190612a04565b600282016000611bc89190612a44565b600382016000611bd89190612a68565b505050565b3360005b600180549050811015611ce7578173ffffffffffffffffffffffffffffffffffffffff1660018281548110611c1957611c18613c12565b5b906000526020600020906003020160000160009054906101000a900473ffffffffffffffffffffffffffffffffffffffff1673ffffffffffffffffffffffffffffffffffffffff161415611cd457600260018281548110611c7d57611c7c613c12565b5b90600052602060002090600302016001015414611ccf576040517f08c379a0000000000000000000000000000000000000000000000000000000008152600401611cc6906137df565b60405180910390fd5b611ce7565b8080611cdf90613b6b565b915050611be1565b5060008481548110611cfc57611cfb613c12565b5b90600052602060002090600402016002018381548110611d1f57611d1e613c12565b5b906000526020600020906005020160020160405180604001604052803373ffffffffffffffffffffffffffffffffffffffff1681526020018415158152509080600181540180825580915050600190039060005260206000200160009091909190915060008201518160000160006101000a81548173ffffffffffffffffffffffffffffffffffffffff021916908373ffffffffffffffffffffffffffffffffffffffff16021790555060208201518160000160146101000a81548160ff021916908315150217905550505050505050565b60005b600180549050811015611fcd57600260018281548110611e1757611e16613c12565b5b9060005260206000209060030201600101541415611e6a576040517f08c379a0000000000000000000000000000000000000000000000000000000008152600401611e619061377f565b60405180910390fd5b3373ffffffffffffffffffffffffffffffffffffffff1660018281548110611e9557611e94613c12565b5b906000526020600020906003020160000160009054906101000a900473ffffffffffffffffffffffffffffffffffffffff1673ffffffffffffffffffffffffffffffffffffffff161415611fba5760018181548110611ef757611ef6613c12565b5b90600052602060002090600302016002015460018281548110611f1d57611f1c613c12565b5b9060005260206000209060030201600101541415611f6557600260018281548110611f4b57611f4a613c12565b5b906000526020600020906003020160020181905550611fb5565b60018181548110611f7957611f78613c12565b5b90600052602060002090600302016001015460018281548110611f9f57611f9e613c12565b5b9060005260206000209060030201600201819055505b611fcd565b8080611fc590613b6b565b915050611df4565b50565b3360005b6001805490508110156120da578173ffffffffffffffffffffffffffffffffffffffff166001828154811061200c5761200b613c12565b5b906000526020600020906003020160000160009054906101000a900473ffffffffffffffffffffffffffffffffffffffff1673ffffffffffffffffffffffffffffffffffffffff1614156120c7576002600182815481106120705761206f613c12565b5b906000526020600020906003020160010154146120c2576040517f08c379a00000000000000000000000000000000000000000000000000000000081526004016120b9906137df565b60405180910390fd5b6120da565b80806120d290613b6b565b915050611fd4565b50600085815481106120ef576120ee613c12565b5b9060005260206000209060040201600201848154811061211257612111613c12565b5b9060005260206000209060050201600301838154811061213557612134613c12565b5b906000526020600020906003020160010160405180604001604052803373ffffffffffffffffffffffffffffffffffffffff1681526020018415158152509080600181540180825580915050600190039060005260206000200160009091909190915060008201518160000160006101000a81548173ffffffffffffffffffffffffffffffffffffffff021916908373ffffffffffffffffffffffffffffffffffffffff16021790555060208201518160000160146101000a81548160ff02191690831515021790555050505050505050565b60606002805480602002602001604051908101604052809291908181526020016000905b828210156122835783829060005260206000209060020201604051806040016040529081600082015481526020016001820160009054906101000a900460ff1615151515815250508152602001906001019061222c565b50505050905090565b336000805b600180549050811015612333578273ffffffffffffffffffffffffffffffffffffffff16600182815481106122c9576122c8613c12565b5b906000526020600020906003020160000160009054906101000a900473ffffffffffffffffffffffffffffffffffffffff1673ffffffffffffffffffffffffffffffffffffffff1614156123205760019150612333565b808061232b90613b6b565b915050612291565b5080612374576040517f08c379a000000000000000000000000000000000000000000000000000000000815260040161236b9061379f565b60405180910390fd5b3360005b60018054905081101561247e578173ffffffffffffffffffffffffffffffffffffffff16600182815481106123b0576123af613c12565b5b906000526020600020906003020160000160009054906101000a900473ffffffffffffffffffffffffffffffffffffffff1673ffffffffffffffffffffffffffffffffffffffff16141561246b5760006001828154811061241457612413613c12565b5b90600052602060002090600302016002015414612466576040517f08c379a000000000000000000000000000000000000000000000000000000000815260040161245d906136ff565b60405180910390fd5b61247e565b808061247690613b6b565b915050612378565b5060005b6001805490508110156125df578473ffffffffffffffffffffffffffffffffffffffff16600182815481106124ba576124b9613c12565b5b906000526020600020906003020160000160009054906101000a900473ffffffffffffffffffffffffffffffffffffffff1673ffffffffffffffffffffffffffffffffffffffff1614156125cc5760006001828154811061251e5761251d613c12565b5b9060005260206000209060030201600101541415612571576040517f08c379a00000000000000000000000000000000000000000000000000000000081526004016125689061373f565b60405180910390fd5b60006001828154811061258757612586613c12565b5b9060005260206000209060030201600101819055506000600182815481106125b2576125b1613c12565b5b9060005260206000209060030201600201819055506125df565b80806125d790613b6b565b915050612482565b5050505050565b60606003805480602002602001604051908101604052809291908181526020016000905b8282101561266b578382906000526020600020906003020160405180606001604052908160008201548152602001600182015481526020016002820160009054906101000a900460ff1615151515815250508152602001906001019061260a565b50505050905090565b6000838154811061268857612687613c12565b5b906000526020600020906004020160020182815481106126ab576126aa613c12565b5b90600052602060002090600502016003016001816001815401808255809150500390600052602060002090505033600084815481106126ed576126ec613c12565b5b906000526020600020906004020160020183815481106127105761270f613c12565b5b906000526020600020906005020160030160016000868154811061273757612736613c12565b5b9060005260206000209060040201600201858154811061275a57612759613c12565b5b9060005260206000209060050201600301805490506127799190613a4a565b8154811061278a57612789613c12565b5b906000526020600020906003020160000160006101000a81548173ffffffffffffffffffffffffffffffffffffffff021916908373ffffffffffffffffffffffffffffffffffffffff16021790555080600084815481106127ee576127ed613c12565b5b9060005260206000209060040201600201838154811061281157612810613c12565b5b906000526020600020906005020160030160016000868154811061283857612837613c12565b5b9060005260206000209060040201600201858154811061285b5761285a613c12565b5b90600052602060002090600502016003018054905061287a9190613a4a565b8154811061288b5761288a613c12565b5b906000526020600020906003020160020190805190602001906128af92919061297e565b50505050565b60606001805480602002602001604051908101604052809291908181526020016000905b8282101561297557838290600052602060002090600302016040518060600160405290816000820160009054906101000a900473ffffffffffffffffffffffffffffffffffffffff1673ffffffffffffffffffffffffffffffffffffffff1673ffffffffffffffffffffffffffffffffffffffff16815260200160018201548152602001600282015481525050815260200190600101906128d9565b50505050905090565b82805461298a90613b08565b90600052602060002090601f0160209004810192826129ac57600085556129f3565b82601f106129c557805160ff19168380011785556129f3565b828001600101855582156129f3579182015b828111156129f25782518255916020019190600101906129d7565b5b509050612a009190612a89565b5090565b508054612a1090613b08565b6000825580601f10612a225750612a41565b601f016020900490600052602060002090810190612a409190612a89565b5b50565b5080546000825560050290600052602060002090810190612a659190612aa6565b50565b5080546000825590600052602060002090810190612a869190612a89565b50565b5b80821115612aa2576000816000905550600101612a8a565b5090565b5b80821115612b1857600080820160006101000a81549073ffffffffffffffffffffffffffffffffffffffff02191690556001820160009055600282016000612aef9190612b1c565b600382016000612aff9190612b3d565b600482016000612b0f9190612a04565b50600501612aa7565b5090565b5080546000825590600052602060002090810190612b3a9190612b61565b50565b5080546000825560030290600052602060002090810190612b5e9190612bb3565b50565b5b80821115612baf57600080820160006101000a81549073ffffffffffffffffffffffffffffffffffffffff02191690556000820160146101000a81549060ff021916905550600101612b62565b5090565b5b80821115612c0d57600080820160006101000a81549073ffffffffffffffffffffffffffffffffffffffff0219169055600182016000612bf49190612b1c565b600282016000612c049190612a04565b50600301612bb4565b5090565b6000612c24612c1f84613824565b6137ff565b905082815260208101848484011115612c4057612c3f613c75565b5b612c4b848285613ac6565b509392505050565b600081359050612c6281613e06565b92915050565b600081359050612c7781613e1d565b92915050565b600082601f830112612c9257612c91613c70565b5b8135612ca2848260208601612c11565b91505092915050565b600081359050612cba81613e34565b92915050565b600060208284031215612cd657612cd5613c7f565b5b6000612ce484828501612c53565b91505092915050565b60008060408385031215612d0457612d03613c7f565b5b6000612d1285828601612c53565b925050602083013567ffffffffffffffff811115612d3357612d32613c7a565b5b612d3f85828601612c7d565b9150509250929050565b600060208284031215612d5f57612d5e613c7f565b5b6000612d6d84828501612cab565b91505092915050565b600080600060608486031215612d8f57612d8e613c7f565b5b6000612d9d86828701612cab565b9350506020612dae86828701612cab565b9250506040612dbf86828701612c68565b9150509250925092565b600080600060608486031215612de257612de1613c7f565b5b6000612df086828701612cab565b9350506020612e0186828701612cab565b925050604084013567ffffffffffffffff811115612e2257612e21613c7a565b5b612e2e86828701612c7d565b9150509250925092565b60008060008060808587031215612e5257612e51613c7f565b5b6000612e6087828801612cab565b9450506020612e7187828801612cab565b9350506040612e8287828801612cab565b9250506060612e9387828801612c68565b91505092959194509250565b6000612eab838361341a565b905092915050565b6000612ebf8383613471565b60408301905092915050565b6000612ed783836134a0565b905092915050565b6000612eeb8383613524565b60408301905092915050565b6000612f038383613553565b60608301905092915050565b6000612f1b8383613595565b905092915050565b6000612f2f8383613606565b60608301905092915050565b6000612f478383613648565b60208301905092915050565b612f5c81613a7e565b82525050565b6000612f6d826138d5565b612f7781856139a0565b935083602082028501612f8985613855565b8060005b85811015612fc55784840389528151612fa68582612e9f565b9450612fb183613938565b925060208a01995050600181019050612f8d565b50829750879550505050505092915050565b6000612fe2826138e0565b612fec81856139b1565b9350612ff783613865565b8060005b8381101561302857815161300f8882612eb3565b975061301a83613945565b925050600181019050612ffb565b5085935050505092915050565b6000613040826138eb565b61304a81856139c2565b93508360208202850161305c85613875565b8060005b8581101561309857848403895281516130798582612ecb565b945061308483613952565b925060208a01995050600181019050613060565b50829750879550505050505092915050565b60006130b5826138f6565b6130bf81856139d3565b93506130ca83613885565b8060005b838110156130fb5781516130e28882612edf565b97506130ed8361395f565b9250506001810190506130ce565b5085935050505092915050565b600061311382613901565b61311d81856139e4565b935061312883613895565b8060005b838110156131595781516131408882612ef7565b975061314b8361396c565b92505060018101905061312c565b5085935050505092915050565b60006131718261390c565b61317b81856139f5565b93508360208202850161318d856138a5565b8060005b858110156131c957848403895281516131aa8582612f0f565b94506131b583613979565b925060208a01995050600181019050613191565b50829750879550505050505092915050565b60006131e682613917565b6131f08185613a06565b93506131fb836138b5565b8060005b8381101561322c5781516132138882612f23565b975061321e83613986565b9250506001810190506131ff565b5085935050505092915050565b600061324482613922565b61324e8185613a17565b9350613259836138c5565b8060005b8381101561328a5781516132718882612f3b565b975061327c83613993565b92505060018101905061325d565b5085935050505092915050565b6132a081613a90565b82525050565b60006132b18261392d565b6132bb8185613a28565b93506132cb818560208601613ad5565b6132d481613c84565b840191505092915050565b60006132ec600383613a39565b91506132f782613c95565b602082019050919050565b600061330f600383613a39565b915061331a82613cbe565b602082019050919050565b6000613332600383613a39565b915061333d82613ce7565b602082019050919050565b6000613355601083613a39565b915061336082613d10565b602082019050919050565b6000613378600e83613a39565b915061338382613d39565b602082019050919050565b600061339b600383613a39565b91506133a682613d62565b602082019050919050565b60006133be600383613a39565b91506133c982613d8b565b602082019050919050565b60006133e1600c83613a39565b91506133ec82613db4565b602082019050919050565b6000613404600383613a39565b915061340f82613ddd565b602082019050919050565b60006060830160008301516134326000860182612f53565b506020830151848203602086015261344a8282612fd7565b9150506040830151848203604086015261346482826132a6565b9150508091505092915050565b6040820160008201516134876000850182612f53565b50602082015161349a6020850182613297565b50505050565b600060a0830160008301516134b86000860182612f53565b5060208301516134cb6020860182613648565b50604083015184820360408601526134e38282612fd7565b915050606083015184820360608601526134fd8282612f62565b9150506080830151848203608086015261351782826132a6565b9150508091505092915050565b60408201600082015161353a6000850182613648565b50602082015161354d6020850182613297565b50505050565b6060820160008201516135696000850182613648565b50602082015161357c6020850182613648565b50604082015161358f6040850182613297565b50505050565b60006080830160008301516135ad6000860182612f53565b50602083015184820360208601526135c582826132a6565b915050604083015184820360408601526135df8282613035565b915050606083015184820360608601526135f98282613239565b9150508091505092915050565b60608201600082015161361c6000850182612f53565b50602082015161362f6020850182613648565b5060408201516136426040850182613648565b50505050565b61365181613abc565b82525050565b6000602082019050818103600083015261367181846130aa565b905092915050565b600060208201905081810360008301526136938184613108565b905092915050565b600060208201905081810360008301526136b58184613166565b905092915050565b600060208201905081810360008301526136d781846131db565b905092915050565b600060208201905081810360008301526136f8816132df565b9050919050565b6000602082019050818103600083015261371881613302565b9050919050565b6000602082019050818103600083015261373881613325565b9050919050565b6000602082019050818103600083015261375881613348565b9050919050565b600060208201905081810360008301526137788161336b565b9050919050565b600060208201905081810360008301526137988161338e565b9050919050565b600060208201905081810360008301526137b8816133b1565b9050919050565b600060208201905081810360008301526137d8816133d4565b9050919050565b600060208201905081810360008301526137f8816133f7565b9050919050565b600061380961381a565b90506138158282613b3a565b919050565b6000604051905090565b600067ffffffffffffffff82111561383f5761383e613c41565b5b61384882613c84565b9050602081019050919050565b6000819050602082019050919050565b6000819050602082019050919050565b6000819050602082019050919050565b6000819050602082019050919050565b6000819050602082019050919050565b6000819050602082019050919050565b6000819050602082019050919050565b6000819050602082019050919050565b600081519050919050565b600081519050919050565b600081519050919050565b600081519050919050565b600081519050919050565b600081519050919050565b600081519050919050565b600081519050919050565b600081519050919050565b6000602082019050919050565b6000602082019050919050565b6000602082019050919050565b6000602082019050919050565b6000602082019050919050565b6000602082019050919050565b6000602082019050919050565b6000602082019050919050565b600082825260208201905092915050565b600082825260208201905092915050565b600082825260208201905092915050565b600082825260208201905092915050565b600082825260208201905092915050565b600082825260208201905092915050565b600082825260208201905092915050565b600082825260208201905092915050565b600082825260208201905092915050565b600082825260208201905092915050565b6000613a5582613abc565b9150613a6083613abc565b925082821015613a7357613a72613bb4565b5b828203905092915050565b6000613a8982613a9c565b9050919050565b60008115159050919050565b600073ffffffffffffffffffffffffffffffffffffffff82169050919050565b6000819050919050565b82818337600083830152505050565b60005b83811015613af3578082015181840152602081019050613ad8565b83811115613b02576000848401525b50505050565b60006002820490506001821680613b2057607f821691505b60208210811415613b3457613b33613be3565b5b50919050565b613b4382613c84565b810181811067ffffffffffffffff82111715613b6257613b61613c41565b5b80604052505050565b6000613b7682613abc565b91507fffffffffffffffffffffffffffffffffffffffffffffffffffffffffffffffff821415613ba957613ba8613bb4565b5b600182019050919050565b7f4e487b7100000000000000000000000000000000000000000000000000000000600052601160045260246000fd5b7f4e487b7100000000000000000000000000000000000000000000000000000000600052602260045260246000fd5b7f4e487b7100000000000000000000000000000000000000000000000000000000600052603260045260246000fd5b7f4e487b7100000000000000000000000000000000000000000000000000000000600052604160045260246000fd5b600080fd5b600080fd5b600080fd5b600080fd5b6000601f19601f8301169050919050565b7f3130340000000000000000000000000000000000000000000000000000000000600082015250565b7f3130300000000000000000000000000000000000000000000000000000000000600082015250565b7f3230310000000000000000000000000000000000000000000000000000000000600082015250565b7f5520616c72656164792061646d696e2100000000000000000000000000000000600082015250565b7f49742069736e27742073686f7021000000000000000000000000000000000000600082015250565b7f3130330000000000000000000000000000000000000000000000000000000000600082015250565b7f3230300000000000000000000000000000000000000000000000000000000000600082015250565b7f53686f7020657869737473210000000000000000000000000000000000000000600082015250565b7f3130310000000000000000000000000000000000000000000000000000000000600082015250565b613e0f81613a7e565b8114613e1a57600080fd5b50565b613e2681613a90565b8114613e3157600080fd5b50565b613e3d81613abc565b8114613e4857600080fd5b5056fea2646970667358221220ad217d184e19ec8d642514583359a5ac80caeec98a0290b8ce55383cf3fc765864736f6c63430008070033",
					"opcodes": "PUSH1 0x80 PUSH1 0x40 MSTORE CALLVALUE DUP1 ISZERO PUSH3 0x11 JUMPI PUSH1 0x0 DUP1 REVERT JUMPDEST POP PUSH3 0x39 PUSH20 0x2EEB8E636D2B7BF006AEF7DF63C1B388C3D0BB5E PUSH1 0x0 PUSH3 0x172 PUSH1 0x20 SHL PUSH1 0x20 SHR JUMP JUMPDEST PUSH3 0x60 PUSH20 0x55CC20D0CDDFED1F06B669A8FF6EBA58218BBBD7 PUSH1 0x1 PUSH3 0x172 PUSH1 0x20 SHL PUSH1 0x20 SHR JUMP JUMPDEST PUSH3 0x87 PUSH20 0xB033788A9A2A69E4D007B05AD15893BA57F788C7 PUSH1 0x2 PUSH3 0x172 PUSH1 0x20 SHL PUSH1 0x20 SHR JUMP JUMPDEST PUSH3 0xAE PUSH20 0x692BEB097E09A1FD74DAFA495705D9CBDCE84BF9 PUSH1 0x2 PUSH3 0x172 PUSH1 0x20 SHL PUSH1 0x20 SHR JUMP JUMPDEST PUSH3 0x109 PUSH20 0x3FE4252B00B1B6AA40B172410B02025FB3BFA804 PUSH1 0x40 MLOAD DUP1 PUSH1 0x40 ADD PUSH1 0x40 MSTORE DUP1 PUSH1 0x3 DUP2 MSTORE PUSH1 0x20 ADD PUSH32 0x4B4C470000000000000000000000000000000000000000000000000000000000 DUP2 MSTORE POP PUSH3 0x359 PUSH1 0x20 SHL PUSH1 0x20 SHR JUMP JUMPDEST PUSH1 0x0 PUSH1 0x1 PUSH1 0x0 DUP1 SLOAD SWAP1 POP PUSH3 0x11F SWAP2 SWAP1 PUSH3 0xB11 JUMP JUMPDEST DUP2 SLOAD DUP2 LT PUSH3 0x133 JUMPI PUSH3 0x132 PUSH3 0xC38 JUMP JUMPDEST JUMPDEST SWAP1 PUSH1 0x0 MSTORE PUSH1 0x20 PUSH1 0x0 KECCAK256 SWAP1 PUSH1 0x4 MUL ADD PUSH1 0x3 ADD PUSH1 0x1 SWAP1 DUP1 PUSH1 0x1 DUP2 SLOAD ADD DUP1 DUP3 SSTORE DUP1 SWAP2 POP POP PUSH1 0x1 SWAP1 SUB SWAP1 PUSH1 0x0 MSTORE PUSH1 0x20 PUSH1 0x0 KECCAK256 ADD PUSH1 0x0 SWAP1 SWAP2 SWAP1 SWAP2 SWAP1 SWAP2 POP SSTORE PUSH3 0xD5D JUMP JUMPDEST DUP2 PUSH1 0x0 JUMPDEST PUSH1 0x1 DUP1 SLOAD SWAP1 POP DUP2 LT ISZERO PUSH3 0x254 JUMPI DUP2 PUSH20 0xFFFFFFFFFFFFFFFFFFFFFFFFFFFFFFFFFFFFFFFF AND PUSH1 0x1 DUP3 DUP2 SLOAD DUP2 LT PUSH3 0x1B2 JUMPI PUSH3 0x1B1 PUSH3 0xC38 JUMP JUMPDEST JUMPDEST SWAP1 PUSH1 0x0 MSTORE PUSH1 0x20 PUSH1 0x0 KECCAK256 SWAP1 PUSH1 0x3 MUL ADD PUSH1 0x0 ADD PUSH1 0x0 SWAP1 SLOAD SWAP1 PUSH2 0x100 EXP SWAP1 DIV PUSH20 0xFFFFFFFFFFFFFFFFFFFFFFFFFFFFFFFFFFFFFFFF AND PUSH20 0xFFFFFFFFFFFFFFFFFFFFFFFFFFFFFFFFFFFFFFFF AND EQ ISZERO PUSH3 0x23E JUMPI PUSH1 0x40 MLOAD PUSH32 0x8C379A000000000000000000000000000000000000000000000000000000000 DUP2 MSTORE PUSH1 0x4 ADD PUSH3 0x235 SWAP1 PUSH3 0xA78 JUMP JUMPDEST PUSH1 0x40 MLOAD DUP1 SWAP2 SUB SWAP1 REVERT JUMPDEST DUP1 DUP1 PUSH3 0x24B SWAP1 PUSH3 0xB8C JUMP JUMPDEST SWAP2 POP POP PUSH3 0x176 JUMP JUMPDEST POP PUSH1 0x3 DUP3 LT PUSH3 0x29B JUMPI PUSH1 0x40 MLOAD PUSH32 0x8C379A000000000000000000000000000000000000000000000000000000000 DUP2 MSTORE PUSH1 0x4 ADD PUSH3 0x292 SWAP1 PUSH3 0xA34 JUMP JUMPDEST PUSH1 0x40 MLOAD DUP1 SWAP2 SUB SWAP1 REVERT JUMPDEST PUSH1 0x1 PUSH1 0x40 MLOAD DUP1 PUSH1 0x60 ADD PUSH1 0x40 MSTORE DUP1 DUP6 PUSH20 0xFFFFFFFFFFFFFFFFFFFFFFFFFFFFFFFFFFFFFFFF AND DUP2 MSTORE PUSH1 0x20 ADD DUP5 DUP2 MSTORE PUSH1 0x20 ADD DUP5 DUP2 MSTORE POP SWAP1 DUP1 PUSH1 0x1 DUP2 SLOAD ADD DUP1 DUP3 SSTORE DUP1 SWAP2 POP POP PUSH1 0x1 SWAP1 SUB SWAP1 PUSH1 0x0 MSTORE PUSH1 0x20 PUSH1 0x0 KECCAK256 SWAP1 PUSH1 0x3 MUL ADD PUSH1 0x0 SWAP1 SWAP2 SWAP1 SWAP2 SWAP1 SWAP2 POP PUSH1 0x0 DUP3 ADD MLOAD DUP2 PUSH1 0x0 ADD PUSH1 0x0 PUSH2 0x100 EXP DUP2 SLOAD DUP2 PUSH20 0xFFFFFFFFFFFFFFFFFFFFFFFFFFFFFFFFFFFFFFFF MUL NOT AND SWAP1 DUP4 PUSH20 0xFFFFFFFFFFFFFFFFFFFFFFFFFFFFFFFFFFFFFFFF AND MUL OR SWAP1 SSTORE POP PUSH1 0x20 DUP3 ADD MLOAD DUP2 PUSH1 0x1 ADD SSTORE PUSH1 0x40 DUP3 ADD MLOAD DUP2 PUSH1 0x2 ADD SSTORE POP POP POP POP POP JUMP JUMPDEST CALLER PUSH1 0x0 DUP1 JUMPDEST PUSH1 0x1 DUP1 SLOAD SWAP1 POP DUP2 LT ISZERO PUSH3 0x409 JUMPI DUP3 PUSH20 0xFFFFFFFFFFFFFFFFFFFFFFFFFFFFFFFFFFFFFFFF AND PUSH1 0x1 DUP3 DUP2 SLOAD DUP2 LT PUSH3 0x39A JUMPI PUSH3 0x399 PUSH3 0xC38 JUMP JUMPDEST JUMPDEST SWAP1 PUSH1 0x0 MSTORE PUSH1 0x20 PUSH1 0x0 KECCAK256 SWAP1 PUSH1 0x3 MUL ADD PUSH1 0x0 ADD PUSH1 0x0 SWAP1 SLOAD SWAP1 PUSH2 0x100 EXP SWAP1 DIV PUSH20 0xFFFFFFFFFFFFFFFFFFFFFFFFFFFFFFFFFFFFFFFF AND PUSH20 0xFFFFFFFFFFFFFFFFFFFFFFFFFFFFFFFFFFFFFFFF AND EQ ISZERO PUSH3 0x3F3 JUMPI PUSH1 0x1 SWAP2 POP PUSH3 0x409 JUMP JUMPDEST DUP1 DUP1 PUSH3 0x400 SWAP1 PUSH3 0xB8C JUMP JUMPDEST SWAP2 POP POP PUSH3 0x35E JUMP JUMPDEST POP DUP1 PUSH3 0x44D JUMPI PUSH1 0x40 MLOAD PUSH32 0x8C379A000000000000000000000000000000000000000000000000000000000 DUP2 MSTORE PUSH1 0x4 ADD PUSH3 0x444 SWAP1 PUSH3 0xABC JUMP JUMPDEST PUSH1 0x40 MLOAD DUP1 SWAP2 SUB SWAP1 REVERT JUMPDEST CALLER PUSH1 0x0 JUMPDEST PUSH1 0x1 DUP1 SLOAD SWAP1 POP DUP2 LT ISZERO PUSH3 0x566 JUMPI DUP2 PUSH20 0xFFFFFFFFFFFFFFFFFFFFFFFFFFFFFFFFFFFFFFFF AND PUSH1 0x1 DUP3 DUP2 SLOAD DUP2 LT PUSH3 0x48D JUMPI PUSH3 0x48C PUSH3 0xC38 JUMP JUMPDEST JUMPDEST SWAP1 PUSH1 0x0 MSTORE PUSH1 0x20 PUSH1 0x0 KECCAK256 SWAP1 PUSH1 0x3 MUL ADD PUSH1 0x0 ADD PUSH1 0x0 SWAP1 SLOAD SWAP1 PUSH2 0x100 EXP SWAP1 DIV PUSH20 0xFFFFFFFFFFFFFFFFFFFFFFFFFFFFFFFFFFFFFFFF AND PUSH20 0xFFFFFFFFFFFFFFFFFFFFFFFFFFFFFFFFFFFFFFFF AND EQ ISZERO PUSH3 0x550 JUMPI PUSH1 0x0 PUSH1 0x1 DUP3 DUP2 SLOAD DUP2 LT PUSH3 0x4F5 JUMPI PUSH3 0x4F4 PUSH3 0xC38 JUMP JUMPDEST JUMPDEST SWAP1 PUSH1 0x0 MSTORE PUSH1 0x20 PUSH1 0x0 KECCAK256 SWAP1 PUSH1 0x3 MUL ADD PUSH1 0x2 ADD SLOAD EQ PUSH3 0x54A JUMPI PUSH1 0x40 MLOAD PUSH32 0x8C379A000000000000000000000000000000000000000000000000000000000 DUP2 MSTORE PUSH1 0x4 ADD PUSH3 0x541 SWAP1 PUSH3 0xA56 JUMP JUMPDEST PUSH1 0x40 MLOAD DUP1 SWAP2 SUB SWAP1 REVERT JUMPDEST PUSH3 0x566 JUMP JUMPDEST DUP1 DUP1 PUSH3 0x55D SWAP1 PUSH3 0xB8C JUMP JUMPDEST SWAP2 POP POP PUSH3 0x451 JUMP JUMPDEST POP DUP5 PUSH1 0x0 JUMPDEST PUSH1 0x1 DUP1 SLOAD SWAP1 POP DUP2 LT ISZERO PUSH3 0x649 JUMPI DUP2 PUSH20 0xFFFFFFFFFFFFFFFFFFFFFFFFFFFFFFFFFFFFFFFF AND PUSH1 0x1 DUP3 DUP2 SLOAD DUP2 LT PUSH3 0x5A7 JUMPI PUSH3 0x5A6 PUSH3 0xC38 JUMP JUMPDEST JUMPDEST SWAP1 PUSH1 0x0 MSTORE PUSH1 0x20 PUSH1 0x0 KECCAK256 SWAP1 PUSH1 0x3 MUL ADD PUSH1 0x0 ADD PUSH1 0x0 SWAP1 SLOAD SWAP1 PUSH2 0x100 EXP SWAP1 DIV PUSH20 0xFFFFFFFFFFFFFFFFFFFFFFFFFFFFFFFFFFFFFFFF AND PUSH20 0xFFFFFFFFFFFFFFFFFFFFFFFFFFFFFFFFFFFFFFFF AND EQ ISZERO PUSH3 0x633 JUMPI PUSH1 0x40 MLOAD PUSH32 0x8C379A000000000000000000000000000000000000000000000000000000000 DUP2 MSTORE PUSH1 0x4 ADD PUSH3 0x62A SWAP1 PUSH3 0xA78 JUMP JUMPDEST PUSH1 0x40 MLOAD DUP1 SWAP2 SUB SWAP1 REVERT JUMPDEST DUP1 DUP1 PUSH3 0x640 SWAP1 PUSH3 0xB8C JUMP JUMPDEST SWAP2 POP POP PUSH3 0x56B JUMP JUMPDEST POP DUP6 PUSH1 0x0 JUMPDEST PUSH1 0x1 DUP1 SLOAD SWAP1 POP DUP2 LT ISZERO PUSH3 0x72C JUMPI DUP2 PUSH20 0xFFFFFFFFFFFFFFFFFFFFFFFFFFFFFFFFFFFFFFFF AND PUSH1 0x1 DUP3 DUP2 SLOAD DUP2 LT PUSH3 0x68A JUMPI PUSH3 0x689 PUSH3 0xC38 JUMP JUMPDEST JUMPDEST SWAP1 PUSH1 0x0 MSTORE PUSH1 0x20 PUSH1 0x0 KECCAK256 SWAP1 PUSH1 0x3 MUL ADD PUSH1 0x0 ADD PUSH1 0x0 SWAP1 SLOAD SWAP1 PUSH2 0x100 EXP SWAP1 DIV PUSH20 0xFFFFFFFFFFFFFFFFFFFFFFFFFFFFFFFFFFFFFFFF AND PUSH20 0xFFFFFFFFFFFFFFFFFFFFFFFFFFFFFFFFFFFFFFFF AND EQ ISZERO PUSH3 0x716 JUMPI PUSH1 0x40 MLOAD PUSH32 0x8C379A000000000000000000000000000000000000000000000000000000000 DUP2 MSTORE PUSH1 0x4 ADD PUSH3 0x70D SWAP1 PUSH3 0xA9A JUMP JUMPDEST PUSH1 0x40 MLOAD DUP1 SWAP2 SUB SWAP1 REVERT JUMPDEST DUP1 DUP1 PUSH3 0x723 SWAP1 PUSH3 0xB8C JUMP JUMPDEST SWAP2 POP POP PUSH3 0x64E JUMP JUMPDEST POP PUSH1 0x0 JUMPDEST PUSH1 0x0 DUP1 SLOAD SWAP1 POP DUP2 LT ISZERO PUSH3 0x80E JUMPI DUP2 PUSH20 0xFFFFFFFFFFFFFFFFFFFFFFFFFFFFFFFFFFFFFFFF AND PUSH1 0x0 DUP3 DUP2 SLOAD DUP2 LT PUSH3 0x76C JUMPI PUSH3 0x76B PUSH3 0xC38 JUMP JUMPDEST JUMPDEST SWAP1 PUSH1 0x0 MSTORE PUSH1 0x20 PUSH1 0x0 KECCAK256 SWAP1 PUSH1 0x4 MUL ADD PUSH1 0x0 ADD PUSH1 0x0 SWAP1 SLOAD SWAP1 PUSH2 0x100 EXP SWAP1 DIV PUSH20 0xFFFFFFFFFFFFFFFFFFFFFFFFFFFFFFFFFFFFFFFF AND PUSH20 0xFFFFFFFFFFFFFFFFFFFFFFFFFFFFFFFFFFFFFFFF AND EQ ISZERO PUSH3 0x7F8 JUMPI PUSH1 0x40 MLOAD PUSH32 0x8C379A000000000000000000000000000000000000000000000000000000000 DUP2 MSTORE PUSH1 0x4 ADD PUSH3 0x7EF SWAP1 PUSH3 0xADE JUMP JUMPDEST PUSH1 0x40 MLOAD DUP1 SWAP2 SUB SWAP1 REVERT JUMPDEST DUP1 DUP1 PUSH3 0x805 SWAP1 PUSH3 0xB8C JUMP JUMPDEST SWAP2 POP POP PUSH3 0x730 JUMP JUMPDEST POP PUSH1 0x0 DUP1 PUSH1 0x1 DUP2 PUSH1 0x1 DUP2 SLOAD ADD DUP1 DUP3 SSTORE DUP1 SWAP2 POP POP SUB SWAP1 PUSH1 0x0 MSTORE PUSH1 0x20 PUSH1 0x0 KECCAK256 SWAP1 PUSH1 0x4 MUL ADD SWAP1 POP DUP8 DUP2 PUSH1 0x0 ADD PUSH1 0x0 PUSH2 0x100 EXP DUP2 SLOAD DUP2 PUSH20 0xFFFFFFFFFFFFFFFFFFFFFFFFFFFFFFFFFFFFFFFF MUL NOT AND SWAP1 DUP4 PUSH20 0xFFFFFFFFFFFFFFFFFFFFFFFFFFFFFFFFFFFFFFFF AND MUL OR SWAP1 SSTORE POP DUP7 DUP2 PUSH1 0x1 ADD SWAP1 DUP1 MLOAD SWAP1 PUSH1 0x20 ADD SWAP1 PUSH3 0x88F SWAP3 SWAP2 SWAP1 PUSH3 0x89A JUMP JUMPDEST POP POP POP POP POP POP POP POP POP JUMP JUMPDEST DUP3 DUP1 SLOAD PUSH3 0x8A8 SWAP1 PUSH3 0xB56 JUMP JUMPDEST SWAP1 PUSH1 0x0 MSTORE PUSH1 0x20 PUSH1 0x0 KECCAK256 SWAP1 PUSH1 0x1F ADD PUSH1 0x20 SWAP1 DIV DUP2 ADD SWAP3 DUP3 PUSH3 0x8CC JUMPI PUSH1 0x0 DUP6 SSTORE PUSH3 0x918 JUMP JUMPDEST DUP3 PUSH1 0x1F LT PUSH3 0x8E7 JUMPI DUP1 MLOAD PUSH1 0xFF NOT AND DUP4 DUP1 ADD OR DUP6 SSTORE PUSH3 0x918 JUMP JUMPDEST DUP3 DUP1 ADD PUSH1 0x1 ADD DUP6 SSTORE DUP3 ISZERO PUSH3 0x918 JUMPI SWAP2 DUP3 ADD JUMPDEST DUP3 DUP2 GT ISZERO PUSH3 0x917 JUMPI DUP3 MLOAD DUP3 SSTORE SWAP2 PUSH1 0x20 ADD SWAP2 SWAP1 PUSH1 0x1 ADD SWAP1 PUSH3 0x8FA JUMP JUMPDEST JUMPDEST POP SWAP1 POP PUSH3 0x927 SWAP2 SWAP1 PUSH3 0x92B JUMP JUMPDEST POP SWAP1 JUMP JUMPDEST JUMPDEST DUP1 DUP3 GT ISZERO PUSH3 0x946 JUMPI PUSH1 0x0 DUP2 PUSH1 0x0 SWAP1 SSTORE POP PUSH1 0x1 ADD PUSH3 0x92C JUMP JUMPDEST POP SWAP1 JUMP JUMPDEST PUSH1 0x0 PUSH3 0x959 PUSH1 0x3 DUP4 PUSH3 0xB00 JUMP JUMPDEST SWAP2 POP PUSH3 0x966 DUP3 PUSH3 0xC67 JUMP JUMPDEST PUSH1 0x20 DUP3 ADD SWAP1 POP SWAP2 SWAP1 POP JUMP JUMPDEST PUSH1 0x0 PUSH3 0x980 PUSH1 0x3 DUP4 PUSH3 0xB00 JUMP JUMPDEST SWAP2 POP PUSH3 0x98D DUP3 PUSH3 0xC90 JUMP JUMPDEST PUSH1 0x20 DUP3 ADD SWAP1 POP SWAP2 SWAP1 POP JUMP JUMPDEST PUSH1 0x0 PUSH3 0x9A7 PUSH1 0x3 DUP4 PUSH3 0xB00 JUMP JUMPDEST SWAP2 POP PUSH3 0x9B4 DUP3 PUSH3 0xCB9 JUMP JUMPDEST PUSH1 0x20 DUP3 ADD SWAP1 POP SWAP2 SWAP1 POP JUMP JUMPDEST PUSH1 0x0 PUSH3 0x9CE PUSH1 0xE DUP4 PUSH3 0xB00 JUMP JUMPDEST SWAP2 POP PUSH3 0x9DB DUP3 PUSH3 0xCE2 JUMP JUMPDEST PUSH1 0x20 DUP3 ADD SWAP1 POP SWAP2 SWAP1 POP JUMP JUMPDEST PUSH1 0x0 PUSH3 0x9F5 PUSH1 0x3 DUP4 PUSH3 0xB00 JUMP JUMPDEST SWAP2 POP PUSH3 0xA02 DUP3 PUSH3 0xD0B JUMP JUMPDEST PUSH1 0x20 DUP3 ADD SWAP1 POP SWAP2 SWAP1 POP JUMP JUMPDEST PUSH1 0x0 PUSH3 0xA1C PUSH1 0xC DUP4 PUSH3 0xB00 JUMP JUMPDEST SWAP2 POP PUSH3 0xA29 DUP3 PUSH3 0xD34 JUMP JUMPDEST PUSH1 0x20 DUP3 ADD SWAP1 POP SWAP2 SWAP1 POP JUMP JUMPDEST PUSH1 0x0 PUSH1 0x20 DUP3 ADD SWAP1 POP DUP2 DUP2 SUB PUSH1 0x0 DUP4 ADD MSTORE PUSH3 0xA4F DUP2 PUSH3 0x94A JUMP JUMPDEST SWAP1 POP SWAP2 SWAP1 POP JUMP JUMPDEST PUSH1 0x0 PUSH1 0x20 DUP3 ADD SWAP1 POP DUP2 DUP2 SUB PUSH1 0x0 DUP4 ADD MSTORE PUSH3 0xA71 DUP2 PUSH3 0x971 JUMP JUMPDEST SWAP1 POP SWAP2 SWAP1 POP JUMP JUMPDEST PUSH1 0x0 PUSH1 0x20 DUP3 ADD SWAP1 POP DUP2 DUP2 SUB PUSH1 0x0 DUP4 ADD MSTORE PUSH3 0xA93 DUP2 PUSH3 0x998 JUMP JUMPDEST SWAP1 POP SWAP2 SWAP1 POP JUMP JUMPDEST PUSH1 0x0 PUSH1 0x20 DUP3 ADD SWAP1 POP DUP2 DUP2 SUB PUSH1 0x0 DUP4 ADD MSTORE PUSH3 0xAB5 DUP2 PUSH3 0x9BF JUMP JUMPDEST SWAP1 POP SWAP2 SWAP1 POP JUMP JUMPDEST PUSH1 0x0 PUSH1 0x20 DUP3 ADD SWAP1 POP DUP2 DUP2 SUB PUSH1 0x0 DUP4 ADD MSTORE PUSH3 0xAD7 DUP2 PUSH3 0x9E6 JUMP JUMPDEST SWAP1 POP SWAP2 SWAP1 POP JUMP JUMPDEST PUSH1 0x0 PUSH1 0x20 DUP3 ADD SWAP1 POP DUP2 DUP2 SUB PUSH1 0x0 DUP4 ADD MSTORE PUSH3 0xAF9 DUP2 PUSH3 0xA0D JUMP JUMPDEST SWAP1 POP SWAP2 SWAP1 POP JUMP JUMPDEST PUSH1 0x0 DUP3 DUP3 MSTORE PUSH1 0x20 DUP3 ADD SWAP1 POP SWAP3 SWAP2 POP POP JUMP JUMPDEST PUSH1 0x0 PUSH3 0xB1E DUP3 PUSH3 0xB4C JUMP JUMPDEST SWAP2 POP PUSH3 0xB2B DUP4 PUSH3 0xB4C JUMP JUMPDEST SWAP3 POP DUP3 DUP3 LT ISZERO PUSH3 0xB41 JUMPI PUSH3 0xB40 PUSH3 0xBDA JUMP JUMPDEST JUMPDEST DUP3 DUP3 SUB SWAP1 POP SWAP3 SWAP2 POP POP JUMP JUMPDEST PUSH1 0x0 DUP2 SWAP1 POP SWAP2 SWAP1 POP JUMP JUMPDEST PUSH1 0x0 PUSH1 0x2 DUP3 DIV SWAP1 POP PUSH1 0x1 DUP3 AND DUP1 PUSH3 0xB6F JUMPI PUSH1 0x7F DUP3 AND SWAP2 POP JUMPDEST PUSH1 0x20 DUP3 LT DUP2 EQ ISZERO PUSH3 0xB86 JUMPI PUSH3 0xB85 PUSH3 0xC09 JUMP JUMPDEST JUMPDEST POP SWAP2 SWAP1 POP JUMP JUMPDEST PUSH1 0x0 PUSH3 0xB99 DUP3 PUSH3 0xB4C JUMP JUMPDEST SWAP2 POP PUSH32 0xFFFFFFFFFFFFFFFFFFFFFFFFFFFFFFFFFFFFFFFFFFFFFFFFFFFFFFFFFFFFFFFF DUP3 EQ ISZERO PUSH3 0xBCF JUMPI PUSH3 0xBCE PUSH3 0xBDA JUMP JUMPDEST JUMPDEST PUSH1 0x1 DUP3 ADD SWAP1 POP SWAP2 SWAP1 POP JUMP JUMPDEST PUSH32 0x4E487B7100000000000000000000000000000000000000000000000000000000 PUSH1 0x0 MSTORE PUSH1 0x11 PUSH1 0x4 MSTORE PUSH1 0x24 PUSH1 0x0 REVERT JUMPDEST PUSH32 0x4E487B7100000000000000000000000000000000000000000000000000000000 PUSH1 0x0 MSTORE PUSH1 0x22 PUSH1 0x4 MSTORE PUSH1 0x24 PUSH1 0x0 REVERT JUMPDEST PUSH32 0x4E487B7100000000000000000000000000000000000000000000000000000000 PUSH1 0x0 MSTORE PUSH1 0x32 PUSH1 0x4 MSTORE PUSH1 0x24 PUSH1 0x0 REVERT JUMPDEST PUSH32 0x3130320000000000000000000000000000000000000000000000000000000000 PUSH1 0x0 DUP3 ADD MSTORE POP JUMP JUMPDEST PUSH32 0x3130300000000000000000000000000000000000000000000000000000000000 PUSH1 0x0 DUP3 ADD MSTORE POP JUMP JUMPDEST PUSH32 0x3230310000000000000000000000000000000000000000000000000000000000 PUSH1 0x0 DUP3 ADD MSTORE POP JUMP JUMPDEST PUSH32 0x49742069736E27742073686F7021000000000000000000000000000000000000 PUSH1 0x0 DUP3 ADD MSTORE POP JUMP JUMPDEST PUSH32 0x3230300000000000000000000000000000000000000000000000000000000000 PUSH1 0x0 DUP3 ADD MSTORE POP JUMP JUMPDEST PUSH32 0x53686F7020657869737473210000000000000000000000000000000000000000 PUSH1 0x0 DUP3 ADD MSTORE POP JUMP JUMPDEST PUSH2 0x3E81 DUP1 PUSH3 0xD6D PUSH1 0x0 CODECOPY PUSH1 0x0 RETURN INVALID PUSH1 0x80 PUSH1 0x40 MSTORE CALLVALUE DUP1 ISZERO PUSH2 0x10 JUMPI PUSH1 0x0 DUP1 REVERT JUMPDEST POP PUSH1 0x4 CALLDATASIZE LT PUSH2 0x10A JUMPI PUSH1 0x0 CALLDATALOAD PUSH1 0xE0 SHR DUP1 PUSH4 0x3EFDEBF1 GT PUSH2 0xA2 JUMPI DUP1 PUSH4 0x6B65750E GT PUSH2 0x71 JUMPI DUP1 PUSH4 0x6B65750E EQ PUSH2 0x22B JUMPI DUP1 PUSH4 0x70480275 EQ PUSH2 0x249 JUMPI DUP1 PUSH4 0x8F055D8A EQ PUSH2 0x265 JUMPI DUP1 PUSH4 0xAB122EF5 EQ PUSH2 0x283 JUMPI DUP1 PUSH4 0xAD81F803 EQ PUSH2 0x29F JUMPI PUSH2 0x10A JUMP JUMPDEST DUP1 PUSH4 0x3EFDEBF1 EQ PUSH2 0x1CD JUMPI DUP1 PUSH4 0x4384A79F EQ PUSH2 0x1E9 JUMPI DUP1 PUSH4 0x49B15962 EQ PUSH2 0x205 JUMPI DUP1 PUSH4 0x66B2F791 EQ PUSH2 0x20F JUMPI PUSH2 0x10A JUMP JUMPDEST DUP1 PUSH4 0x240185B6 GT PUSH2 0xDE JUMPI DUP1 PUSH4 0x240185B6 EQ PUSH2 0x17F JUMPI DUP1 PUSH4 0x2E91D706 EQ PUSH2 0x19D JUMPI DUP1 PUSH4 0x329FB8D6 EQ PUSH2 0x1A7 JUMPI DUP1 PUSH4 0x3B95A23F EQ PUSH2 0x1C3 JUMPI PUSH2 0x10A JUMP JUMPDEST DUP1 PUSH3 0x82F88E EQ PUSH2 0x10F JUMPI DUP1 PUSH4 0x19E76680 EQ PUSH2 0x12B JUMPI DUP1 PUSH4 0x1A0550E3 EQ PUSH2 0x147 JUMPI DUP1 PUSH4 0x1C618EB3 EQ PUSH2 0x163 JUMPI JUMPDEST PUSH1 0x0 DUP1 REVERT JUMPDEST PUSH2 0x129 PUSH1 0x4 DUP1 CALLDATASIZE SUB DUP2 ADD SWAP1 PUSH2 0x124 SWAP2 SWAP1 PUSH2 0x2DC9 JUMP JUMPDEST PUSH2 0x2BD JUMP JUMPDEST STOP JUMPDEST PUSH2 0x145 PUSH1 0x4 DUP1 CALLDATASIZE SUB DUP2 ADD SWAP1 PUSH2 0x140 SWAP2 SWAP1 PUSH2 0x2D49 JUMP JUMPDEST PUSH2 0x4D0 JUMP JUMPDEST STOP JUMPDEST PUSH2 0x161 PUSH1 0x4 DUP1 CALLDATASIZE SUB DUP2 ADD SWAP1 PUSH2 0x15C SWAP2 SWAP1 PUSH2 0x2D49 JUMP JUMPDEST PUSH2 0x65D JUMP JUMPDEST STOP JUMPDEST PUSH2 0x17D PUSH1 0x4 DUP1 CALLDATASIZE SUB DUP2 ADD SWAP1 PUSH2 0x178 SWAP2 SWAP1 PUSH2 0x2CED JUMP JUMPDEST PUSH2 0x93B JUMP JUMPDEST STOP JUMPDEST PUSH2 0x187 PUSH2 0xE41 JUMP JUMPDEST PUSH1 0x40 MLOAD PUSH2 0x194 SWAP2 SWAP1 PUSH2 0x369B JUMP JUMPDEST PUSH1 0x40 MLOAD DUP1 SWAP2 SUB SWAP1 RETURN JUMPDEST PUSH2 0x1A5 PUSH2 0x1410 JUMP JUMPDEST STOP JUMPDEST PUSH2 0x1C1 PUSH1 0x4 DUP1 CALLDATASIZE SUB DUP2 ADD SWAP1 PUSH2 0x1BC SWAP2 SWAP1 PUSH2 0x2D49 JUMP JUMPDEST PUSH2 0x158C JUMP JUMPDEST STOP JUMPDEST PUSH2 0x1CB PUSH2 0x18A8 JUMP JUMPDEST STOP JUMPDEST PUSH2 0x1E7 PUSH1 0x4 DUP1 CALLDATASIZE SUB DUP2 ADD SWAP1 PUSH2 0x1E2 SWAP2 SWAP1 PUSH2 0x2D49 JUMP JUMPDEST PUSH2 0x1A3F JUMP JUMPDEST STOP JUMPDEST PUSH2 0x203 PUSH1 0x4 DUP1 CALLDATASIZE SUB DUP2 ADD SWAP1 PUSH2 0x1FE SWAP2 SWAP1 PUSH2 0x2D76 JUMP JUMPDEST PUSH2 0x1BDD JUMP JUMPDEST STOP JUMPDEST PUSH2 0x20D PUSH2 0x1DF1 JUMP JUMPDEST STOP JUMPDEST PUSH2 0x229 PUSH1 0x4 DUP1 CALLDATASIZE SUB DUP2 ADD SWAP1 PUSH2 0x224 SWAP2 SWAP1 PUSH2 0x2E38 JUMP JUMPDEST PUSH2 0x1FD0 JUMP JUMPDEST STOP JUMPDEST PUSH2 0x233 PUSH2 0x2208 JUMP JUMPDEST PUSH1 0x40 MLOAD PUSH2 0x240 SWAP2 SWAP1 PUSH2 0x3657 JUMP JUMPDEST PUSH1 0x40 MLOAD DUP1 SWAP2 SUB SWAP1 RETURN JUMPDEST PUSH2 0x263 PUSH1 0x4 DUP1 CALLDATASIZE SUB DUP2 ADD SWAP1 PUSH2 0x25E SWAP2 SWAP1 PUSH2 0x2CC0 JUMP JUMPDEST PUSH2 0x228C JUMP JUMPDEST STOP JUMPDEST PUSH2 0x26D PUSH2 0x25E6 JUMP JUMPDEST PUSH1 0x40 MLOAD PUSH2 0x27A SWAP2 SWAP1 PUSH2 0x3679 JUMP JUMPDEST PUSH1 0x40 MLOAD DUP1 SWAP2 SUB SWAP1 RETURN JUMPDEST PUSH2 0x29D PUSH1 0x4 DUP1 CALLDATASIZE SUB DUP2 ADD SWAP1 PUSH2 0x298 SWAP2 SWAP1 PUSH2 0x2DC9 JUMP JUMPDEST PUSH2 0x2674 JUMP JUMPDEST STOP JUMPDEST PUSH2 0x2A7 PUSH2 0x28B5 JUMP JUMPDEST PUSH1 0x40 MLOAD PUSH2 0x2B4 SWAP2 SWAP1 PUSH2 0x36BD JUMP JUMPDEST PUSH1 0x40 MLOAD DUP1 SWAP2 SUB SWAP1 RETURN JUMPDEST PUSH1 0x0 DUP4 DUP2 SLOAD DUP2 LT PUSH2 0x2D1 JUMPI PUSH2 0x2D0 PUSH2 0x3C12 JUMP JUMPDEST JUMPDEST SWAP1 PUSH1 0x0 MSTORE PUSH1 0x20 PUSH1 0x0 KECCAK256 SWAP1 PUSH1 0x4 MUL ADD PUSH1 0x2 ADD PUSH1 0x1 DUP2 PUSH1 0x1 DUP2 SLOAD ADD DUP1 DUP3 SSTORE DUP1 SWAP2 POP POP SUB SWAP1 PUSH1 0x0 MSTORE PUSH1 0x20 PUSH1 0x0 KECCAK256 SWAP1 POP POP CALLER PUSH1 0x0 DUP5 DUP2 SLOAD DUP2 LT PUSH2 0x313 JUMPI PUSH2 0x312 PUSH2 0x3C12 JUMP JUMPDEST JUMPDEST SWAP1 PUSH1 0x0 MSTORE PUSH1 0x20 PUSH1 0x0 KECCAK256 SWAP1 PUSH1 0x4 MUL ADD PUSH1 0x2 ADD PUSH1 0x1 PUSH1 0x0 DUP7 DUP2 SLOAD DUP2 LT PUSH2 0x33A JUMPI PUSH2 0x339 PUSH2 0x3C12 JUMP JUMPDEST JUMPDEST SWAP1 PUSH1 0x0 MSTORE PUSH1 0x20 PUSH1 0x0 KECCAK256 SWAP1 PUSH1 0x4 MUL ADD PUSH1 0x2 ADD DUP1 SLOAD SWAP1 POP PUSH2 0x359 SWAP2 SWAP1 PUSH2 0x3A4A JUMP JUMPDEST DUP2 SLOAD DUP2 LT PUSH2 0x36A JUMPI PUSH2 0x369 PUSH2 0x3C12 JUMP JUMPDEST JUMPDEST SWAP1 PUSH1 0x0 MSTORE PUSH1 0x20 PUSH1 0x0 KECCAK256 SWAP1 PUSH1 0x5 MUL ADD PUSH1 0x0 ADD PUSH1 0x0 PUSH2 0x100 EXP DUP2 SLOAD DUP2 PUSH20 0xFFFFFFFFFFFFFFFFFFFFFFFFFFFFFFFFFFFFFFFF MUL NOT AND SWAP1 DUP4 PUSH20 0xFFFFFFFFFFFFFFFFFFFFFFFFFFFFFFFFFFFFFFFF AND MUL OR SWAP1 SSTORE POP DUP2 PUSH1 0x0 DUP5 DUP2 SLOAD DUP2 LT PUSH2 0x3CE JUMPI PUSH2 0x3CD PUSH2 0x3C12 JUMP JUMPDEST JUMPDEST SWAP1 PUSH1 0x0 MSTORE PUSH1 0x20 PUSH1 0x0 KECCAK256 SWAP1 PUSH1 0x4 MUL ADD PUSH1 0x2 ADD PUSH1 0x1 PUSH1 0x0 DUP7 DUP2 SLOAD DUP2 LT PUSH2 0x3F5 JUMPI PUSH2 0x3F4 PUSH2 0x3C12 JUMP JUMPDEST JUMPDEST SWAP1 PUSH1 0x0 MSTORE PUSH1 0x20 PUSH1 0x0 KECCAK256 SWAP1 PUSH1 0x4 MUL ADD PUSH1 0x2 ADD DUP1 SLOAD SWAP1 POP PUSH2 0x414 SWAP2 SWAP1 PUSH2 0x3A4A JUMP JUMPDEST DUP2 SLOAD DUP2 LT PUSH2 0x425 JUMPI PUSH2 0x424 PUSH2 0x3C12 JUMP JUMPDEST JUMPDEST SWAP1 PUSH1 0x0 MSTORE PUSH1 0x20 PUSH1 0x0 KECCAK256 SWAP1 PUSH1 0x5 MUL ADD PUSH1 0x1 ADD DUP2 SWAP1 SSTORE POP DUP1 PUSH1 0x0 DUP5 DUP2 SLOAD DUP2 LT PUSH2 0x44F JUMPI PUSH2 0x44E PUSH2 0x3C12 JUMP JUMPDEST JUMPDEST SWAP1 PUSH1 0x0 MSTORE PUSH1 0x20 PUSH1 0x0 KECCAK256 SWAP1 PUSH1 0x4 MUL ADD PUSH1 0x2 ADD PUSH1 0x1 PUSH1 0x0 DUP7 DUP2 SLOAD DUP2 LT PUSH2 0x476 JUMPI PUSH2 0x475 PUSH2 0x3C12 JUMP JUMPDEST JUMPDEST SWAP1 PUSH1 0x0 MSTORE PUSH1 0x20 PUSH1 0x0 KECCAK256 SWAP1 PUSH1 0x4 MUL ADD PUSH1 0x2 ADD DUP1 SLOAD SWAP1 POP PUSH2 0x495 SWAP2 SWAP1 PUSH2 0x3A4A JUMP JUMPDEST DUP2 SLOAD DUP2 LT PUSH2 0x4A6 JUMPI PUSH2 0x4A5 PUSH2 0x3C12 JUMP JUMPDEST JUMPDEST SWAP1 PUSH1 0x0 MSTORE PUSH1 0x20 PUSH1 0x0 KECCAK256 SWAP1 PUSH1 0x5 MUL ADD PUSH1 0x4 ADD SWAP1 DUP1 MLOAD SWAP1 PUSH1 0x20 ADD SWAP1 PUSH2 0x4CA SWAP3 SWAP2 SWAP1 PUSH2 0x297E JUMP JUMPDEST POP POP POP POP JUMP JUMPDEST PUSH1 0x0 JUMPDEST PUSH1 0x1 DUP1 SLOAD SWAP1 POP DUP2 LT ISZERO PUSH2 0x659 JUMPI CALLER PUSH20 0xFFFFFFFFFFFFFFFFFFFFFFFFFFFFFFFFFFFFFFFF AND PUSH1 0x1 DUP3 DUP2 SLOAD DUP2 LT PUSH2 0x50B JUMPI PUSH2 0x50A PUSH2 0x3C12 JUMP JUMPDEST JUMPDEST SWAP1 PUSH1 0x0 MSTORE PUSH1 0x20 PUSH1 0x0 KECCAK256 SWAP1 PUSH1 0x3 MUL ADD PUSH1 0x0 ADD PUSH1 0x0 SWAP1 SLOAD SWAP1 PUSH2 0x100 EXP SWAP1 DIV PUSH20 0xFFFFFFFFFFFFFFFFFFFFFFFFFFFFFFFFFFFFFFFF AND PUSH20 0xFFFFFFFFFFFFFFFFFFFFFFFFFFFFFFFFFFFFFFFF AND EQ ISZERO PUSH2 0x646 JUMPI PUSH1 0x0 PUSH1 0x1 DUP3 DUP2 SLOAD DUP2 LT PUSH2 0x56F JUMPI PUSH2 0x56E PUSH2 0x3C12 JUMP JUMPDEST JUMPDEST SWAP1 PUSH1 0x0 MSTORE PUSH1 0x20 PUSH1 0x0 KECCAK256 SWAP1 PUSH1 0x3 MUL ADD PUSH1 0x1 ADD SLOAD EQ ISZERO PUSH2 0x5C2 JUMPI PUSH1 0x40 MLOAD PUSH32 0x8C379A000000000000000000000000000000000000000000000000000000000 DUP2 MSTORE PUSH1 0x4 ADD PUSH2 0x5B9 SWAP1 PUSH2 0x36DF JUMP JUMPDEST PUSH1 0x40 MLOAD DUP1 SWAP2 SUB SWAP1 REVERT JUMPDEST PUSH1 0x3 PUSH1 0x40 MLOAD DUP1 PUSH1 0x60 ADD PUSH1 0x40 MSTORE DUP1 DUP4 DUP2 MSTORE PUSH1 0x20 ADD DUP5 DUP2 MSTORE PUSH1 0x20 ADD PUSH1 0x0 ISZERO ISZERO DUP2 MSTORE POP SWAP1 DUP1 PUSH1 0x1 DUP2 SLOAD ADD DUP1 DUP3 SSTORE DUP1 SWAP2 POP POP PUSH1 0x1 SWAP1 SUB SWAP1 PUSH1 0x0 MSTORE PUSH1 0x20 PUSH1 0x0 KECCAK256 SWAP1 PUSH1 0x3 MUL ADD PUSH1 0x0 SWAP1 SWAP2 SWAP1 SWAP2 SWAP1 SWAP2 POP PUSH1 0x0 DUP3 ADD MLOAD DUP2 PUSH1 0x0 ADD SSTORE PUSH1 0x20 DUP3 ADD MLOAD DUP2 PUSH1 0x1 ADD SSTORE PUSH1 0x40 DUP3 ADD MLOAD DUP2 PUSH1 0x2 ADD PUSH1 0x0 PUSH2 0x100 EXP DUP2 SLOAD DUP2 PUSH1 0xFF MUL NOT AND SWAP1 DUP4 ISZERO ISZERO MUL OR SWAP1 SSTORE POP POP POP PUSH2 0x659 JUMP JUMPDEST DUP1 DUP1 PUSH2 0x651 SWAP1 PUSH2 0x3B6B JUMP JUMPDEST SWAP2 POP POP PUSH2 0x4D3 JUMP JUMPDEST POP POP JUMP JUMPDEST CALLER PUSH1 0x0 DUP1 JUMPDEST PUSH1 0x1 DUP1 SLOAD SWAP1 POP DUP2 LT ISZERO PUSH2 0x704 JUMPI DUP3 PUSH20 0xFFFFFFFFFFFFFFFFFFFFFFFFFFFFFFFFFFFFFFFF AND PUSH1 0x1 DUP3 DUP2 SLOAD DUP2 LT PUSH2 0x69A JUMPI PUSH2 0x699 PUSH2 0x3C12 JUMP JUMPDEST JUMPDEST SWAP1 PUSH1 0x0 MSTORE PUSH1 0x20 PUSH1 0x0 KECCAK256 SWAP1 PUSH1 0x3 MUL ADD PUSH1 0x0 ADD PUSH1 0x0 SWAP1 SLOAD SWAP1 PUSH2 0x100 EXP SWAP1 DIV PUSH20 0xFFFFFFFFFFFFFFFFFFFFFFFFFFFFFFFFFFFFFFFF AND PUSH20 0xFFFFFFFFFFFFFFFFFFFFFFFFFFFFFFFFFFFFFFFF AND EQ ISZERO PUSH2 0x6F1 JUMPI PUSH1 0x1 SWAP2 POP PUSH2 0x704 JUMP JUMPDEST DUP1 DUP1 PUSH2 0x6FC SWAP1 PUSH2 0x3B6B JUMP JUMPDEST SWAP2 POP POP PUSH2 0x662 JUMP JUMPDEST POP DUP1 PUSH2 0x745 JUMPI PUSH1 0x40 MLOAD PUSH32 0x8C379A000000000000000000000000000000000000000000000000000000000 DUP2 MSTORE PUSH1 0x4 ADD PUSH2 0x73C SWAP1 PUSH2 0x379F JUMP JUMPDEST PUSH1 0x40 MLOAD DUP1 SWAP2 SUB SWAP1 REVERT JUMPDEST CALLER PUSH1 0x0 JUMPDEST PUSH1 0x1 DUP1 SLOAD SWAP1 POP DUP2 LT ISZERO PUSH2 0x84F JUMPI DUP2 PUSH20 0xFFFFFFFFFFFFFFFFFFFFFFFFFFFFFFFFFFFFFFFF AND PUSH1 0x1 DUP3 DUP2 SLOAD DUP2 LT PUSH2 0x781 JUMPI PUSH2 0x780 PUSH2 0x3C12 JUMP JUMPDEST JUMPDEST SWAP1 PUSH1 0x0 MSTORE PUSH1 0x20 PUSH1 0x0 KECCAK256 SWAP1 PUSH1 0x3 MUL ADD PUSH1 0x0 ADD PUSH1 0x0 SWAP1 SLOAD SWAP1 PUSH2 0x100 EXP SWAP1 DIV PUSH20 0xFFFFFFFFFFFFFFFFFFFFFFFFFFFFFFFFFFFFFFFF AND PUSH20 0xFFFFFFFFFFFFFFFFFFFFFFFFFFFFFFFFFFFFFFFF AND EQ ISZERO PUSH2 0x83C JUMPI PUSH1 0x0 PUSH1 0x1 DUP3 DUP2 SLOAD DUP2 LT PUSH2 0x7E5 JUMPI PUSH2 0x7E4 PUSH2 0x3C12 JUMP JUMPDEST JUMPDEST SWAP1 PUSH1 0x0 MSTORE PUSH1 0x20 PUSH1 0x0 KECCAK256 SWAP1 PUSH1 0x3 MUL ADD PUSH1 0x2 ADD SLOAD EQ PUSH2 0x837 JUMPI PUSH1 0x40 MLOAD PUSH32 0x8C379A000000000000000000000000000000000000000000000000000000000 DUP2 MSTORE PUSH1 0x4 ADD PUSH2 0x82E SWAP1 PUSH2 0x36FF JUMP JUMPDEST PUSH1 0x40 MLOAD DUP1 SWAP2 SUB SWAP1 REVERT JUMPDEST PUSH2 0x84F JUMP JUMPDEST DUP1 DUP1 PUSH2 0x847 SWAP1 PUSH2 0x3B6B JUMP JUMPDEST SWAP2 POP POP PUSH2 0x749 JUMP JUMPDEST POP PUSH1 0x1 DUP1 PUSH1 0x3 DUP7 DUP2 SLOAD DUP2 LT PUSH2 0x867 JUMPI PUSH2 0x866 PUSH2 0x3C12 JUMP JUMPDEST JUMPDEST SWAP1 PUSH1 0x0 MSTORE PUSH1 0x20 PUSH1 0x0 KECCAK256 SWAP1 PUSH1 0x3 MUL ADD PUSH1 0x0 ADD SLOAD DUP2 SLOAD DUP2 LT PUSH2 0x88A JUMPI PUSH2 0x889 PUSH2 0x3C12 JUMP JUMPDEST JUMPDEST SWAP1 PUSH1 0x0 MSTORE PUSH1 0x20 PUSH1 0x0 KECCAK256 SWAP1 PUSH1 0x3 MUL ADD PUSH1 0x1 ADD DUP2 SWAP1 SSTORE POP PUSH1 0x0 PUSH1 0x3 DUP6 DUP2 SLOAD DUP2 LT PUSH2 0x8B5 JUMPI PUSH2 0x8B4 PUSH2 0x3C12 JUMP JUMPDEST JUMPDEST SWAP1 PUSH1 0x0 MSTORE PUSH1 0x20 PUSH1 0x0 KECCAK256 SWAP1 PUSH1 0x3 MUL ADD PUSH1 0x1 ADD SLOAD DUP2 SLOAD DUP2 LT PUSH2 0x8D8 JUMPI PUSH2 0x8D7 PUSH2 0x3C12 JUMP JUMPDEST JUMPDEST SWAP1 PUSH1 0x0 MSTORE PUSH1 0x20 PUSH1 0x0 KECCAK256 SWAP1 PUSH1 0x4 MUL ADD PUSH1 0x3 ADD PUSH1 0x3 DUP6 DUP2 SLOAD DUP2 LT PUSH2 0x8FD JUMPI PUSH2 0x8FC PUSH2 0x3C12 JUMP JUMPDEST JUMPDEST SWAP1 PUSH1 0x0 MSTORE PUSH1 0x20 PUSH1 0x0 KECCAK256 SWAP1 PUSH1 0x3 MUL ADD PUSH1 0x0 ADD SLOAD SWAP1 DUP1 PUSH1 0x1 DUP2 SLOAD ADD DUP1 DUP3 SSTORE DUP1 SWAP2 POP POP PUSH1 0x1 SWAP1 SUB SWAP1 PUSH1 0x0 MSTORE PUSH1 0x20 PUSH1 0x0 KECCAK256 ADD PUSH1 0x0 SWAP1 SWAP2 SWAP1 SWAP2 SWAP1 SWAP2 POP SSTORE POP POP POP POP JUMP JUMPDEST CALLER PUSH1 0x0 DUP1 JUMPDEST PUSH1 0x1 DUP1 SLOAD SWAP1 POP DUP2 LT ISZERO PUSH2 0x9E2 JUMPI DUP3 PUSH20 0xFFFFFFFFFFFFFFFFFFFFFFFFFFFFFFFFFFFFFFFF AND PUSH1 0x1 DUP3 DUP2 SLOAD DUP2 LT PUSH2 0x978 JUMPI PUSH2 0x977 PUSH2 0x3C12 JUMP JUMPDEST JUMPDEST SWAP1 PUSH1 0x0 MSTORE PUSH1 0x20 PUSH1 0x0 KECCAK256 SWAP1 PUSH1 0x3 MUL ADD PUSH1 0x0 ADD PUSH1 0x0 SWAP1 SLOAD SWAP1 PUSH2 0x100 EXP SWAP1 DIV PUSH20 0xFFFFFFFFFFFFFFFFFFFFFFFFFFFFFFFFFFFFFFFF AND PUSH20 0xFFFFFFFFFFFFFFFFFFFFFFFFFFFFFFFFFFFFFFFF AND EQ ISZERO PUSH2 0x9CF JUMPI PUSH1 0x1 SWAP2 POP PUSH2 0x9E2 JUMP JUMPDEST DUP1 DUP1 PUSH2 0x9DA SWAP1 PUSH2 0x3B6B JUMP JUMPDEST SWAP2 POP POP PUSH2 0x940 JUMP JUMPDEST POP DUP1 PUSH2 0xA23 JUMPI PUSH1 0x40 MLOAD PUSH32 0x8C379A000000000000000000000000000000000000000000000000000000000 DUP2 MSTORE PUSH1 0x4 ADD PUSH2 0xA1A SWAP1 PUSH2 0x379F JUMP JUMPDEST PUSH1 0x40 MLOAD DUP1 SWAP2 SUB SWAP1 REVERT JUMPDEST CALLER PUSH1 0x0 JUMPDEST PUSH1 0x1 DUP1 SLOAD SWAP1 POP DUP2 LT ISZERO PUSH2 0xB2D JUMPI DUP2 PUSH20 0xFFFFFFFFFFFFFFFFFFFFFFFFFFFFFFFFFFFFFFFF AND PUSH1 0x1 DUP3 DUP2 SLOAD DUP2 LT PUSH2 0xA5F JUMPI PUSH2 0xA5E PUSH2 0x3C12 JUMP JUMPDEST JUMPDEST SWAP1 PUSH1 0x0 MSTORE PUSH1 0x20 PUSH1 0x0 KECCAK256 SWAP1 PUSH1 0x3 MUL ADD PUSH1 0x0 ADD PUSH1 0x0 SWAP1 SLOAD SWAP1 PUSH2 0x100 EXP SWAP1 DIV PUSH20 0xFFFFFFFFFFFFFFFFFFFFFFFFFFFFFFFFFFFFFFFF AND PUSH20 0xFFFFFFFFFFFFFFFFFFFFFFFFFFFFFFFFFFFFFFFF AND EQ ISZERO PUSH2 0xB1A JUMPI PUSH1 0x0 PUSH1 0x1 DUP3 DUP2 SLOAD DUP2 LT PUSH2 0xAC3 JUMPI PUSH2 0xAC2 PUSH2 0x3C12 JUMP JUMPDEST JUMPDEST SWAP1 PUSH1 0x0 MSTORE PUSH1 0x20 PUSH1 0x0 KECCAK256 SWAP1 PUSH1 0x3 MUL ADD PUSH1 0x2 ADD SLOAD EQ PUSH2 0xB15 JUMPI PUSH1 0x40 MLOAD PUSH32 0x8C379A000000000000000000000000000000000000000000000000000000000 DUP2 MSTORE PUSH1 0x4 ADD PUSH2 0xB0C SWAP1 PUSH2 0x36FF JUMP JUMPDEST PUSH1 0x40 MLOAD DUP1 SWAP2 SUB SWAP1 REVERT JUMPDEST PUSH2 0xB2D JUMP JUMPDEST DUP1 DUP1 PUSH2 0xB25 SWAP1 PUSH2 0x3B6B JUMP JUMPDEST SWAP2 POP POP PUSH2 0xA27 JUMP JUMPDEST POP DUP5 PUSH1 0x0 JUMPDEST PUSH1 0x1 DUP1 SLOAD SWAP1 POP DUP2 LT ISZERO PUSH2 0xC06 JUMPI DUP2 PUSH20 0xFFFFFFFFFFFFFFFFFFFFFFFFFFFFFFFFFFFFFFFF AND PUSH1 0x1 DUP3 DUP2 SLOAD DUP2 LT PUSH2 0xB6A JUMPI PUSH2 0xB69 PUSH2 0x3C12 JUMP JUMPDEST JUMPDEST SWAP1 PUSH1 0x0 MSTORE PUSH1 0x20 PUSH1 0x0 KECCAK256 SWAP1 PUSH1 0x3 MUL ADD PUSH1 0x0 ADD PUSH1 0x0 SWAP1 SLOAD SWAP1 PUSH2 0x100 EXP SWAP1 DIV PUSH20 0xFFFFFFFFFFFFFFFFFFFFFFFFFFFFFFFFFFFFFFFF AND PUSH20 0xFFFFFFFFFFFFFFFFFFFFFFFFFFFFFFFFFFFFFFFF AND EQ ISZERO PUSH2 0xBF3 JUMPI PUSH1 0x40 MLOAD PUSH32 0x8C379A000000000000000000000000000000000000000000000000000000000 DUP2 MSTORE PUSH1 0x4 ADD PUSH2 0xBEA SWAP1 PUSH2 0x371F JUMP JUMPDEST PUSH1 0x40 MLOAD DUP1 SWAP2 SUB SWAP1 REVERT JUMPDEST DUP1 DUP1 PUSH2 0xBFE SWAP1 PUSH2 0x3B6B JUMP JUMPDEST SWAP2 POP POP PUSH2 0xB32 JUMP JUMPDEST POP DUP6 PUSH1 0x0 JUMPDEST PUSH1 0x1 DUP1 SLOAD SWAP1 POP DUP2 LT ISZERO PUSH2 0xCDF JUMPI DUP2 PUSH20 0xFFFFFFFFFFFFFFFFFFFFFFFFFFFFFFFFFFFFFFFF AND PUSH1 0x1 DUP3 DUP2 SLOAD DUP2 LT PUSH2 0xC43 JUMPI PUSH2 0xC42 PUSH2 0x3C12 JUMP JUMPDEST JUMPDEST SWAP1 PUSH1 0x0 MSTORE PUSH1 0x20 PUSH1 0x0 KECCAK256 SWAP1 PUSH1 0x3 MUL ADD PUSH1 0x0 ADD PUSH1 0x0 SWAP1 SLOAD SWAP1 PUSH2 0x100 EXP SWAP1 DIV PUSH20 0xFFFFFFFFFFFFFFFFFFFFFFFFFFFFFFFFFFFFFFFF AND PUSH20 0xFFFFFFFFFFFFFFFFFFFFFFFFFFFFFFFFFFFFFFFF AND EQ ISZERO PUSH2 0xCCC JUMPI PUSH1 0x40 MLOAD PUSH32 0x8C379A000000000000000000000000000000000000000000000000000000000 DUP2 MSTORE PUSH1 0x4 ADD PUSH2 0xCC3 SWAP1 PUSH2 0x375F JUMP JUMPDEST PUSH1 0x40 MLOAD DUP1 SWAP2 SUB SWAP1 REVERT JUMPDEST DUP1 DUP1 PUSH2 0xCD7 SWAP1 PUSH2 0x3B6B JUMP JUMPDEST SWAP2 POP POP PUSH2 0xC0B JUMP JUMPDEST POP PUSH1 0x0 JUMPDEST PUSH1 0x0 DUP1 SLOAD SWAP1 POP DUP2 LT ISZERO PUSH2 0xDB7 JUMPI DUP2 PUSH20 0xFFFFFFFFFFFFFFFFFFFFFFFFFFFFFFFFFFFFFFFF AND PUSH1 0x0 DUP3 DUP2 SLOAD DUP2 LT PUSH2 0xD1B JUMPI PUSH2 0xD1A PUSH2 0x3C12 JUMP JUMPDEST JUMPDEST SWAP1 PUSH1 0x0 MSTORE PUSH1 0x20 PUSH1 0x0 KECCAK256 SWAP1 PUSH1 0x4 MUL ADD PUSH1 0x0 ADD PUSH1 0x0 SWAP1 SLOAD SWAP1 PUSH2 0x100 EXP SWAP1 DIV PUSH20 0xFFFFFFFFFFFFFFFFFFFFFFFFFFFFFFFFFFFFFFFF AND PUSH20 0xFFFFFFFFFFFFFFFFFFFFFFFFFFFFFFFFFFFFFFFF AND EQ ISZERO PUSH2 0xDA4 JUMPI PUSH1 0x40 MLOAD PUSH32 0x8C379A000000000000000000000000000000000000000000000000000000000 DUP2 MSTORE PUSH1 0x4 ADD PUSH2 0xD9B SWAP1 PUSH2 0x37BF JUMP JUMPDEST PUSH1 0x40 MLOAD DUP1 SWAP2 SUB SWAP1 REVERT JUMPDEST DUP1 DUP1 PUSH2 0xDAF SWAP1 PUSH2 0x3B6B JUMP JUMPDEST SWAP2 POP POP PUSH2 0xCE3 JUMP JUMPDEST POP PUSH1 0x0 DUP1 PUSH1 0x1 DUP2 PUSH1 0x1 DUP2 SLOAD ADD DUP1 DUP3 SSTORE DUP1 SWAP2 POP POP SUB SWAP1 PUSH1 0x0 MSTORE PUSH1 0x20 PUSH1 0x0 KECCAK256 SWAP1 PUSH1 0x4 MUL ADD SWAP1 POP DUP8 DUP2 PUSH1 0x0 ADD PUSH1 0x0 PUSH2 0x100 EXP DUP2 SLOAD DUP2 PUSH20 0xFFFFFFFFFFFFFFFFFFFFFFFFFFFFFFFFFFFFFFFF MUL NOT AND SWAP1 DUP4 PUSH20 0xFFFFFFFFFFFFFFFFFFFFFFFFFFFFFFFFFFFFFFFF AND MUL OR SWAP1 SSTORE POP DUP7 DUP2 PUSH1 0x1 ADD SWAP1 DUP1 MLOAD SWAP1 PUSH1 0x20 ADD SWAP1 PUSH2 0xE36 SWAP3 SWAP2 SWAP1 PUSH2 0x297E JUMP JUMPDEST POP POP POP POP POP POP POP POP POP JUMP JUMPDEST PUSH1 0x60 PUSH1 0x0 DUP1 SLOAD DUP1 PUSH1 0x20 MUL PUSH1 0x20 ADD PUSH1 0x40 MLOAD SWAP1 DUP2 ADD PUSH1 0x40 MSTORE DUP1 SWAP3 SWAP2 SWAP1 DUP2 DUP2 MSTORE PUSH1 0x20 ADD PUSH1 0x0 SWAP1 JUMPDEST DUP3 DUP3 LT ISZERO PUSH2 0x1407 JUMPI DUP4 DUP3 SWAP1 PUSH1 0x0 MSTORE PUSH1 0x20 PUSH1 0x0 KECCAK256 SWAP1 PUSH1 0x4 MUL ADD PUSH1 0x40 MLOAD DUP1 PUSH1 0x80 ADD PUSH1 0x40 MSTORE SWAP1 DUP2 PUSH1 0x0 DUP3 ADD PUSH1 0x0 SWAP1 SLOAD SWAP1 PUSH2 0x100 EXP SWAP1 DIV PUSH20 0xFFFFFFFFFFFFFFFFFFFFFFFFFFFFFFFFFFFFFFFF AND PUSH20 0xFFFFFFFFFFFFFFFFFFFFFFFFFFFFFFFFFFFFFFFF AND PUSH20 0xFFFFFFFFFFFFFFFFFFFFFFFFFFFFFFFFFFFFFFFF AND DUP2 MSTORE PUSH1 0x20 ADD PUSH1 0x1 DUP3 ADD DUP1 SLOAD PUSH2 0xEEE SWAP1 PUSH2 0x3B08 JUMP JUMPDEST DUP1 PUSH1 0x1F ADD PUSH1 0x20 DUP1 SWAP2 DIV MUL PUSH1 0x20 ADD PUSH1 0x40 MLOAD SWAP1 DUP2 ADD PUSH1 0x40 MSTORE DUP1 SWAP3 SWAP2 SWAP1 DUP2 DUP2 MSTORE PUSH1 0x20 ADD DUP3 DUP1 SLOAD PUSH2 0xF1A SWAP1 PUSH2 0x3B08 JUMP JUMPDEST DUP1 ISZERO PUSH2 0xF67 JUMPI DUP1 PUSH1 0x1F LT PUSH2 0xF3C JUMPI PUSH2 0x100 DUP1 DUP4 SLOAD DIV MUL DUP4 MSTORE SWAP2 PUSH1 0x20 ADD SWAP2 PUSH2 0xF67 JUMP JUMPDEST DUP3 ADD SWAP2 SWAP1 PUSH1 0x0 MSTORE PUSH1 0x20 PUSH1 0x0 KECCAK256 SWAP1 JUMPDEST DUP2 SLOAD DUP2 MSTORE SWAP1 PUSH1 0x1 ADD SWAP1 PUSH1 0x20 ADD DUP1 DUP4 GT PUSH2 0xF4A JUMPI DUP3 SWAP1 SUB PUSH1 0x1F AND DUP3 ADD SWAP2 JUMPDEST POP POP POP POP POP DUP2 MSTORE PUSH1 0x20 ADD PUSH1 0x2 DUP3 ADD DUP1 SLOAD DUP1 PUSH1 0x20 MUL PUSH1 0x20 ADD PUSH1 0x40 MLOAD SWAP1 DUP2 ADD PUSH1 0x40 MSTORE DUP1 SWAP3 SWAP2 SWAP1 DUP2 DUP2 MSTORE PUSH1 0x20 ADD PUSH1 0x0 SWAP1 JUMPDEST DUP3 DUP3 LT ISZERO PUSH2 0x1398 JUMPI DUP4 DUP3 SWAP1 PUSH1 0x0 MSTORE PUSH1 0x20 PUSH1 0x0 KECCAK256 SWAP1 PUSH1 0x5 MUL ADD PUSH1 0x40 MLOAD DUP1 PUSH1 0xA0 ADD PUSH1 0x40 MSTORE SWAP1 DUP2 PUSH1 0x0 DUP3 ADD PUSH1 0x0 SWAP1 SLOAD SWAP1 PUSH2 0x100 EXP SWAP1 DIV PUSH20 0xFFFFFFFFFFFFFFFFFFFFFFFFFFFFFFFFFFFFFFFF AND PUSH20 0xFFFFFFFFFFFFFFFFFFFFFFFFFFFFFFFFFFFFFFFF AND PUSH20 0xFFFFFFFFFFFFFFFFFFFFFFFFFFFFFFFFFFFFFFFF AND DUP2 MSTORE PUSH1 0x20 ADD PUSH1 0x1 DUP3 ADD SLOAD DUP2 MSTORE PUSH1 0x20 ADD PUSH1 0x2 DUP3 ADD DUP1 SLOAD DUP1 PUSH1 0x20 MUL PUSH1 0x20 ADD PUSH1 0x40 MLOAD SWAP1 DUP2 ADD PUSH1 0x40 MSTORE DUP1 SWAP3 SWAP2 SWAP1 DUP2 DUP2 MSTORE PUSH1 0x20 ADD PUSH1 0x0 SWAP1 JUMPDEST DUP3 DUP3 LT ISZERO PUSH2 0x10DC JUMPI DUP4 DUP3 SWAP1 PUSH1 0x0 MSTORE PUSH1 0x20 PUSH1 0x0 KECCAK256 ADD PUSH1 0x40 MLOAD DUP1 PUSH1 0x40 ADD PUSH1 0x40 MSTORE SWAP1 DUP2 PUSH1 0x0 DUP3 ADD PUSH1 0x0 SWAP1 SLOAD SWAP1 PUSH2 0x100 EXP SWAP1 DIV PUSH20 0xFFFFFFFFFFFFFFFFFFFFFFFFFFFFFFFFFFFFFFFF AND PUSH20 0xFFFFFFFFFFFFFFFFFFFFFFFFFFFFFFFFFFFFFFFF AND PUSH20 0xFFFFFFFFFFFFFFFFFFFFFFFFFFFFFFFFFFFFFFFF AND DUP2 MSTORE PUSH1 0x20 ADD PUSH1 0x0 DUP3 ADD PUSH1 0x14 SWAP1 SLOAD SWAP1 PUSH2 0x100 EXP SWAP1 DIV PUSH1 0xFF AND ISZERO ISZERO ISZERO ISZERO DUP2 MSTORE POP POP DUP2 MSTORE PUSH1 0x20 ADD SWAP1 PUSH1 0x1 ADD SWAP1 PUSH2 0x103D JUMP JUMPDEST POP POP POP POP DUP2 MSTORE PUSH1 0x20 ADD PUSH1 0x3 DUP3 ADD DUP1 SLOAD DUP1 PUSH1 0x20 MUL PUSH1 0x20 ADD PUSH1 0x40 MLOAD SWAP1 DUP2 ADD PUSH1 0x40 MSTORE DUP1 SWAP3 SWAP2 SWAP1 DUP2 DUP2 MSTORE PUSH1 0x20 ADD PUSH1 0x0 SWAP1 JUMPDEST DUP3 DUP3 LT ISZERO PUSH2 0x12EF JUMPI DUP4 DUP3 SWAP1 PUSH1 0x0 MSTORE PUSH1 0x20 PUSH1 0x0 KECCAK256 SWAP1 PUSH1 0x3 MUL ADD PUSH1 0x40 MLOAD DUP1 PUSH1 0x60 ADD PUSH1 0x40 MSTORE SWAP1 DUP2 PUSH1 0x0 DUP3 ADD PUSH1 0x0 SWAP1 SLOAD SWAP1 PUSH2 0x100 EXP SWAP1 DIV PUSH20 0xFFFFFFFFFFFFFFFFFFFFFFFFFFFFFFFFFFFFFFFF AND PUSH20 0xFFFFFFFFFFFFFFFFFFFFFFFFFFFFFFFFFFFFFFFF AND PUSH20 0xFFFFFFFFFFFFFFFFFFFFFFFFFFFFFFFFFFFFFFFF AND DUP2 MSTORE PUSH1 0x20 ADD PUSH1 0x1 DUP3 ADD DUP1 SLOAD DUP1 PUSH1 0x20 MUL PUSH1 0x20 ADD PUSH1 0x40 MLOAD SWAP1 DUP2 ADD PUSH1 0x40 MSTORE DUP1 SWAP3 SWAP2 SWAP1 DUP2 DUP2 MSTORE PUSH1 0x20 ADD PUSH1 0x0 SWAP1 JUMPDEST DUP3 DUP3 LT ISZERO PUSH2 0x1246 JUMPI DUP4 DUP3 SWAP1 PUSH1 0x0 MSTORE PUSH1 0x20 PUSH1 0x0 KECCAK256 ADD PUSH1 0x40 MLOAD DUP1 PUSH1 0x40 ADD PUSH1 0x40 MSTORE SWAP1 DUP2 PUSH1 0x0 DUP3 ADD PUSH1 0x0 SWAP1 SLOAD SWAP1 PUSH2 0x100 EXP SWAP1 DIV PUSH20 0xFFFFFFFFFFFFFFFFFFFFFFFFFFFFFFFFFFFFFFFF AND PUSH20 0xFFFFFFFFFFFFFFFFFFFFFFFFFFFFFFFFFFFFFFFF AND PUSH20 0xFFFFFFFFFFFFFFFFFFFFFFFFFFFFFFFFFFFFFFFF AND DUP2 MSTORE PUSH1 0x20 ADD PUSH1 0x0 DUP3 ADD PUSH1 0x14 SWAP1 SLOAD SWAP1 PUSH2 0x100 EXP SWAP1 DIV PUSH1 0xFF AND ISZERO ISZERO ISZERO ISZERO DUP2 MSTORE POP POP DUP2 MSTORE PUSH1 0x20 ADD SWAP1 PUSH1 0x1 ADD SWAP1 PUSH2 0x11A7 JUMP JUMPDEST POP POP POP POP DUP2 MSTORE PUSH1 0x20 ADD PUSH1 0x2 DUP3 ADD DUP1 SLOAD PUSH2 0x125E SWAP1 PUSH2 0x3B08 JUMP JUMPDEST DUP1 PUSH1 0x1F ADD PUSH1 0x20 DUP1 SWAP2 DIV MUL PUSH1 0x20 ADD PUSH1 0x40 MLOAD SWAP1 DUP2 ADD PUSH1 0x40 MSTORE DUP1 SWAP3 SWAP2 SWAP1 DUP2 DUP2 MSTORE PUSH1 0x20 ADD DUP3 DUP1 SLOAD PUSH2 0x128A SWAP1 PUSH2 0x3B08 JUMP JUMPDEST DUP1 ISZERO PUSH2 0x12D7 JUMPI DUP1 PUSH1 0x1F LT PUSH2 0x12AC JUMPI PUSH2 0x100 DUP1 DUP4 SLOAD DIV MUL DUP4 MSTORE SWAP2 PUSH1 0x20 ADD SWAP2 PUSH2 0x12D7 JUMP JUMPDEST DUP3 ADD SWAP2 SWAP1 PUSH1 0x0 MSTORE PUSH1 0x20 PUSH1 0x0 KECCAK256 SWAP1 JUMPDEST DUP2 SLOAD DUP2 MSTORE SWAP1 PUSH1 0x1 ADD SWAP1 PUSH1 0x20 ADD DUP1 DUP4 GT PUSH2 0x12BA JUMPI DUP3 SWAP1 SUB PUSH1 0x1F AND DUP3 ADD SWAP2 JUMPDEST POP POP POP POP POP DUP2 MSTORE POP POP DUP2 MSTORE PUSH1 0x20 ADD SWAP1 PUSH1 0x1 ADD SWAP1 PUSH2 0x1109 JUMP JUMPDEST POP POP POP POP DUP2 MSTORE PUSH1 0x20 ADD PUSH1 0x4 DUP3 ADD DUP1 SLOAD PUSH2 0x1307 SWAP1 PUSH2 0x3B08 JUMP JUMPDEST DUP1 PUSH1 0x1F ADD PUSH1 0x20 DUP1 SWAP2 DIV MUL PUSH1 0x20 ADD PUSH1 0x40 MLOAD SWAP1 DUP2 ADD PUSH1 0x40 MSTORE DUP1 SWAP3 SWAP2 SWAP1 DUP2 DUP2 MSTORE PUSH1 0x20 ADD DUP3 DUP1 SLOAD PUSH2 0x1333 SWAP1 PUSH2 0x3B08 JUMP JUMPDEST DUP1 ISZERO PUSH2 0x1380 JUMPI DUP1 PUSH1 0x1F LT PUSH2 0x1355 JUMPI PUSH2 0x100 DUP1 DUP4 SLOAD DIV MUL DUP4 MSTORE SWAP2 PUSH1 0x20 ADD SWAP2 PUSH2 0x1380 JUMP JUMPDEST DUP3 ADD SWAP2 SWAP1 PUSH1 0x0 MSTORE PUSH1 0x20 PUSH1 0x0 KECCAK256 SWAP1 JUMPDEST DUP2 SLOAD DUP2 MSTORE SWAP1 PUSH1 0x1 ADD SWAP1 PUSH1 0x20 ADD DUP1 DUP4 GT PUSH2 0x1363 JUMPI DUP3 SWAP1 SUB PUSH1 0x1F AND DUP3 ADD SWAP2 JUMPDEST POP POP POP POP POP DUP2 MSTORE POP POP DUP2 MSTORE PUSH1 0x20 ADD SWAP1 PUSH1 0x1 ADD SWAP1 PUSH2 0xF95 JUMP JUMPDEST POP POP POP POP DUP2 MSTORE PUSH1 0x20 ADD PUSH1 0x3 DUP3 ADD DUP1 SLOAD DUP1 PUSH1 0x20 MUL PUSH1 0x20 ADD PUSH1 0x40 MLOAD SWAP1 DUP2 ADD PUSH1 0x40 MSTORE DUP1 SWAP3 SWAP2 SWAP1 DUP2 DUP2 MSTORE PUSH1 0x20 ADD DUP3 DUP1 SLOAD DUP1 ISZERO PUSH2 0x13EF JUMPI PUSH1 0x20 MUL DUP3 ADD SWAP2 SWAP1 PUSH1 0x0 MSTORE PUSH1 0x20 PUSH1 0x0 KECCAK256 SWAP1 JUMPDEST DUP2 SLOAD DUP2 MSTORE PUSH1 0x20 ADD SWAP1 PUSH1 0x1 ADD SWAP1 DUP1 DUP4 GT PUSH2 0x13DB JUMPI JUMPDEST POP POP POP POP POP DUP2 MSTORE POP POP DUP2 MSTORE PUSH1 0x20 ADD SWAP1 PUSH1 0x1 ADD SWAP1 PUSH2 0xE65 JUMP JUMPDEST POP POP POP POP SWAP1 POP SWAP1 JUMP JUMPDEST PUSH1 0x0 JUMPDEST PUSH1 0x1 DUP1 SLOAD SWAP1 POP DUP2 LT ISZERO PUSH2 0x1589 JUMPI CALLER PUSH20 0xFFFFFFFFFFFFFFFFFFFFFFFFFFFFFFFFFFFFFFFF AND PUSH1 0x1 DUP3 DUP2 SLOAD DUP2 LT PUSH2 0x144B JUMPI PUSH2 0x144A PUSH2 0x3C12 JUMP JUMPDEST JUMPDEST SWAP1 PUSH1 0x0 MSTORE PUSH1 0x20 PUSH1 0x0 KECCAK256 SWAP1 PUSH1 0x3 MUL ADD PUSH1 0x0 ADD PUSH1 0x0 SWAP1 SLOAD SWAP1 PUSH2 0x100 EXP SWAP1 DIV PUSH20 0xFFFFFFFFFFFFFFFFFFFFFFFFFFFFFFFFFFFFFFFF AND PUSH20 0xFFFFFFFFFFFFFFFFFFFFFFFFFFFFFFFFFFFFFFFF AND EQ ISZERO PUSH2 0x1576 JUMPI PUSH1 0x0 PUSH1 0x1 DUP3 DUP2 SLOAD DUP2 LT PUSH2 0x14AF JUMPI PUSH2 0x14AE PUSH2 0x3C12 JUMP JUMPDEST JUMPDEST SWAP1 PUSH1 0x0 MSTORE PUSH1 0x20 PUSH1 0x0 KECCAK256 SWAP1 PUSH1 0x3 MUL ADD PUSH1 0x1 ADD SLOAD EQ ISZERO PUSH2 0x1502 JUMPI PUSH1 0x40 MLOAD PUSH32 0x8C379A000000000000000000000000000000000000000000000000000000000 DUP2 MSTORE PUSH1 0x4 ADD PUSH2 0x14F9 SWAP1 PUSH2 0x36DF JUMP JUMPDEST PUSH1 0x40 MLOAD DUP1 SWAP2 SUB SWAP1 REVERT JUMPDEST PUSH1 0x2 PUSH1 0x40 MLOAD DUP1 PUSH1 0x40 ADD PUSH1 0x40 MSTORE DUP1 DUP4 DUP2 MSTORE PUSH1 0x20 ADD PUSH1 0x0 ISZERO ISZERO DUP2 MSTORE POP SWAP1 DUP1 PUSH1 0x1 DUP2 SLOAD ADD DUP1 DUP3 SSTORE DUP1 SWAP2 POP POP PUSH1 0x1 SWAP1 SUB SWAP1 PUSH1 0x0 MSTORE PUSH1 0x20 PUSH1 0x0 KECCAK256 SWAP1 PUSH1 0x2 MUL ADD PUSH1 0x0 SWAP1 SWAP2 SWAP1 SWAP2 SWAP1 SWAP2 POP PUSH1 0x0 DUP3 ADD MLOAD DUP2 PUSH1 0x0 ADD SSTORE PUSH1 0x20 DUP3 ADD MLOAD DUP2 PUSH1 0x1 ADD PUSH1 0x0 PUSH2 0x100 EXP DUP2 SLOAD DUP2 PUSH1 0xFF MUL NOT AND SWAP1 DUP4 ISZERO ISZERO MUL OR SWAP1 SSTORE POP POP POP PUSH2 0x1589 JUMP JUMPDEST DUP1 DUP1 PUSH2 0x1581 SWAP1 PUSH2 0x3B6B JUMP JUMPDEST SWAP2 POP POP PUSH2 0x1413 JUMP JUMPDEST POP JUMP JUMPDEST CALLER PUSH1 0x0 DUP1 JUMPDEST PUSH1 0x1 DUP1 SLOAD SWAP1 POP DUP2 LT ISZERO PUSH2 0x1633 JUMPI DUP3 PUSH20 0xFFFFFFFFFFFFFFFFFFFFFFFFFFFFFFFFFFFFFFFF AND PUSH1 0x1 DUP3 DUP2 SLOAD DUP2 LT PUSH2 0x15C9 JUMPI PUSH2 0x15C8 PUSH2 0x3C12 JUMP JUMPDEST JUMPDEST SWAP1 PUSH1 0x0 MSTORE PUSH1 0x20 PUSH1 0x0 KECCAK256 SWAP1 PUSH1 0x3 MUL ADD PUSH1 0x0 ADD PUSH1 0x0 SWAP1 SLOAD SWAP1 PUSH2 0x100 EXP SWAP1 DIV PUSH20 0xFFFFFFFFFFFFFFFFFFFFFFFFFFFFFFFFFFFFFFFF AND PUSH20 0xFFFFFFFFFFFFFFFFFFFFFFFFFFFFFFFFFFFFFFFF AND EQ ISZERO PUSH2 0x1620 JUMPI PUSH1 0x1 SWAP2 POP PUSH2 0x1633 JUMP JUMPDEST DUP1 DUP1 PUSH2 0x162B SWAP1 PUSH2 0x3B6B JUMP JUMPDEST SWAP2 POP POP PUSH2 0x1591 JUMP JUMPDEST POP DUP1 PUSH2 0x1674 JUMPI PUSH1 0x40 MLOAD PUSH32 0x8C379A000000000000000000000000000000000000000000000000000000000 DUP2 MSTORE PUSH1 0x4 ADD PUSH2 0x166B SWAP1 PUSH2 0x379F JUMP JUMPDEST PUSH1 0x40 MLOAD DUP1 SWAP2 SUB SWAP1 REVERT JUMPDEST CALLER PUSH1 0x0 JUMPDEST PUSH1 0x1 DUP1 SLOAD SWAP1 POP DUP2 LT ISZERO PUSH2 0x177E JUMPI DUP2 PUSH20 0xFFFFFFFFFFFFFFFFFFFFFFFFFFFFFFFFFFFFFFFF AND PUSH1 0x1 DUP3 DUP2 SLOAD DUP2 LT PUSH2 0x16B0 JUMPI PUSH2 0x16AF PUSH2 0x3C12 JUMP JUMPDEST JUMPDEST SWAP1 PUSH1 0x0 MSTORE PUSH1 0x20 PUSH1 0x0 KECCAK256 SWAP1 PUSH1 0x3 MUL ADD PUSH1 0x0 ADD PUSH1 0x0 SWAP1 SLOAD SWAP1 PUSH2 0x100 EXP SWAP1 DIV PUSH20 0xFFFFFFFFFFFFFFFFFFFFFFFFFFFFFFFFFFFFFFFF AND PUSH20 0xFFFFFFFFFFFFFFFFFFFFFFFFFFFFFFFFFFFFFFFF AND EQ ISZERO PUSH2 0x176B JUMPI PUSH1 0x0 PUSH1 0x1 DUP3 DUP2 SLOAD DUP2 LT PUSH2 0x1714 JUMPI PUSH2 0x1713 PUSH2 0x3C12 JUMP JUMPDEST JUMPDEST SWAP1 PUSH1 0x0 MSTORE PUSH1 0x20 PUSH1 0x0 KECCAK256 SWAP1 PUSH1 0x3 MUL ADD PUSH1 0x2 ADD SLOAD EQ PUSH2 0x1766 JUMPI PUSH1 0x40 MLOAD PUSH32 0x8C379A000000000000000000000000000000000000000000000000000000000 DUP2 MSTORE PUSH1 0x4 ADD PUSH2 0x175D SWAP1 PUSH2 0x36FF JUMP JUMPDEST PUSH1 0x40 MLOAD DUP1 SWAP2 SUB SWAP1 REVERT JUMPDEST PUSH2 0x177E JUMP JUMPDEST DUP1 DUP1 PUSH2 0x1776 SWAP1 PUSH2 0x3B6B JUMP JUMPDEST SWAP2 POP POP PUSH2 0x1678 JUMP JUMPDEST POP PUSH1 0x0 JUMPDEST PUSH1 0x0 DUP1 SLOAD SWAP1 POP DUP2 LT ISZERO PUSH2 0x18A1 JUMPI PUSH1 0x0 JUMPDEST PUSH1 0x0 DUP3 DUP2 SLOAD DUP2 LT PUSH2 0x17A6 JUMPI PUSH2 0x17A5 PUSH2 0x3C12 JUMP JUMPDEST JUMPDEST SWAP1 PUSH1 0x0 MSTORE PUSH1 0x20 PUSH1 0x0 KECCAK256 SWAP1 PUSH1 0x4 MUL ADD PUSH1 0x3 ADD DUP1 SLOAD SWAP1 POP DUP2 LT ISZERO PUSH2 0x188D JUMPI PUSH1 0x0 DUP3 DUP2 SLOAD DUP2 LT PUSH2 0x17D6 JUMPI PUSH2 0x17D5 PUSH2 0x3C12 JUMP JUMPDEST JUMPDEST SWAP1 PUSH1 0x0 MSTORE PUSH1 0x20 PUSH1 0x0 KECCAK256 SWAP1 PUSH1 0x4 MUL ADD PUSH1 0x3 ADD DUP2 DUP2 SLOAD DUP2 LT PUSH2 0x17F9 JUMPI PUSH2 0x17F8 PUSH2 0x3C12 JUMP JUMPDEST JUMPDEST SWAP1 PUSH1 0x0 MSTORE PUSH1 0x20 PUSH1 0x0 KECCAK256 ADD SLOAD PUSH1 0x2 DUP8 DUP2 SLOAD DUP2 LT PUSH2 0x1818 JUMPI PUSH2 0x1817 PUSH2 0x3C12 JUMP JUMPDEST JUMPDEST SWAP1 PUSH1 0x0 MSTORE PUSH1 0x20 PUSH1 0x0 KECCAK256 SWAP1 PUSH1 0x2 MUL ADD PUSH1 0x0 ADD SLOAD EQ ISZERO PUSH2 0x187A JUMPI PUSH1 0x0 DUP3 DUP2 SLOAD DUP2 LT PUSH2 0x1844 JUMPI PUSH2 0x1843 PUSH2 0x3C12 JUMP JUMPDEST JUMPDEST SWAP1 PUSH1 0x0 MSTORE PUSH1 0x20 PUSH1 0x0 KECCAK256 SWAP1 PUSH1 0x4 MUL ADD PUSH1 0x3 ADD DUP2 DUP2 SLOAD DUP2 LT PUSH2 0x1867 JUMPI PUSH2 0x1866 PUSH2 0x3C12 JUMP JUMPDEST JUMPDEST SWAP1 PUSH1 0x0 MSTORE PUSH1 0x20 PUSH1 0x0 KECCAK256 ADD PUSH1 0x0 SWAP1 SSTORE PUSH2 0x188D JUMP JUMPDEST DUP1 DUP1 PUSH2 0x1885 SWAP1 PUSH2 0x3B6B JUMP JUMPDEST SWAP2 POP POP PUSH2 0x1792 JUMP JUMPDEST POP DUP1 DUP1 PUSH2 0x1899 SWAP1 PUSH2 0x3B6B JUMP JUMPDEST SWAP2 POP POP PUSH2 0x1782 JUMP JUMPDEST POP POP POP POP POP JUMP JUMPDEST CALLER PUSH1 0x0 JUMPDEST PUSH1 0x1 DUP1 SLOAD SWAP1 POP DUP2 LT ISZERO PUSH2 0x1980 JUMPI DUP2 PUSH20 0xFFFFFFFFFFFFFFFFFFFFFFFFFFFFFFFFFFFFFFFF AND PUSH1 0x1 DUP3 DUP2 SLOAD DUP2 LT PUSH2 0x18E4 JUMPI PUSH2 0x18E3 PUSH2 0x3C12 JUMP JUMPDEST JUMPDEST SWAP1 PUSH1 0x0 MSTORE PUSH1 0x20 PUSH1 0x0 KECCAK256 SWAP1 PUSH1 0x3 MUL ADD PUSH1 0x0 ADD PUSH1 0x0 SWAP1 SLOAD SWAP1 PUSH2 0x100 EXP SWAP1 DIV PUSH20 0xFFFFFFFFFFFFFFFFFFFFFFFFFFFFFFFFFFFFFFFF AND PUSH20 0xFFFFFFFFFFFFFFFFFFFFFFFFFFFFFFFFFFFFFFFF AND EQ ISZERO PUSH2 0x196D JUMPI PUSH1 0x40 MLOAD PUSH32 0x8C379A000000000000000000000000000000000000000000000000000000000 DUP2 MSTORE PUSH1 0x4 ADD PUSH2 0x1964 SWAP1 PUSH2 0x371F JUMP JUMPDEST PUSH1 0x40 MLOAD DUP1 SWAP2 SUB SWAP1 REVERT JUMPDEST DUP1 DUP1 PUSH2 0x1978 SWAP1 PUSH2 0x3B6B JUMP JUMPDEST SWAP2 POP POP PUSH2 0x18AC JUMP JUMPDEST POP PUSH1 0x1 PUSH1 0x40 MLOAD DUP1 PUSH1 0x60 ADD PUSH1 0x40 MSTORE DUP1 CALLER PUSH20 0xFFFFFFFFFFFFFFFFFFFFFFFFFFFFFFFFFFFFFFFF AND DUP2 MSTORE PUSH1 0x20 ADD PUSH1 0x2 DUP2 MSTORE PUSH1 0x20 ADD PUSH1 0x2 DUP2 MSTORE POP SWAP1 DUP1 PUSH1 0x1 DUP2 SLOAD ADD DUP1 DUP3 SSTORE DUP1 SWAP2 POP POP PUSH1 0x1 SWAP1 SUB SWAP1 PUSH1 0x0 MSTORE PUSH1 0x20 PUSH1 0x0 KECCAK256 SWAP1 PUSH1 0x3 MUL ADD PUSH1 0x0 SWAP1 SWAP2 SWAP1 SWAP2 SWAP1 SWAP2 POP PUSH1 0x0 DUP3 ADD MLOAD DUP2 PUSH1 0x0 ADD PUSH1 0x0 PUSH2 0x100 EXP DUP2 SLOAD DUP2 PUSH20 0xFFFFFFFFFFFFFFFFFFFFFFFFFFFFFFFFFFFFFFFF MUL NOT AND SWAP1 DUP4 PUSH20 0xFFFFFFFFFFFFFFFFFFFFFFFFFFFFFFFFFFFFFFFF AND MUL OR SWAP1 SSTORE POP PUSH1 0x20 DUP3 ADD MLOAD DUP2 PUSH1 0x1 ADD SSTORE PUSH1 0x40 DUP3 ADD MLOAD DUP2 PUSH1 0x2 ADD SSTORE POP POP POP JUMP JUMPDEST PUSH1 0x0 JUMPDEST PUSH1 0x0 DUP3 DUP2 SLOAD DUP2 LT PUSH2 0x1A56 JUMPI PUSH2 0x1A55 PUSH2 0x3C12 JUMP JUMPDEST JUMPDEST SWAP1 PUSH1 0x0 MSTORE PUSH1 0x20 PUSH1 0x0 KECCAK256 SWAP1 PUSH1 0x4 MUL ADD PUSH1 0x3 ADD DUP1 SLOAD SWAP1 POP DUP2 LT ISZERO PUSH2 0x1B5D JUMPI PUSH1 0x2 PUSH1 0x1 PUSH1 0x0 DUP5 DUP2 SLOAD DUP2 LT PUSH2 0x1A8A JUMPI PUSH2 0x1A89 PUSH2 0x3C12 JUMP JUMPDEST JUMPDEST SWAP1 PUSH1 0x0 MSTORE PUSH1 0x20 PUSH1 0x0 KECCAK256 SWAP1 PUSH1 0x4 MUL ADD PUSH1 0x3 ADD DUP4 DUP2 SLOAD DUP2 LT PUSH2 0x1AAD JUMPI PUSH2 0x1AAC PUSH2 0x3C12 JUMP JUMPDEST JUMPDEST SWAP1 PUSH1 0x0 MSTORE PUSH1 0x20 PUSH1 0x0 KECCAK256 ADD SLOAD DUP2 SLOAD DUP2 LT PUSH2 0x1AC9 JUMPI PUSH2 0x1AC8 PUSH2 0x3C12 JUMP JUMPDEST JUMPDEST SWAP1 PUSH1 0x0 MSTORE PUSH1 0x20 PUSH1 0x0 KECCAK256 SWAP1 PUSH1 0x3 MUL ADD PUSH1 0x1 ADD DUP2 SWAP1 SSTORE POP PUSH1 0x2 PUSH1 0x1 PUSH1 0x0 DUP5 DUP2 SLOAD DUP2 LT PUSH2 0x1AF6 JUMPI PUSH2 0x1AF5 PUSH2 0x3C12 JUMP JUMPDEST JUMPDEST SWAP1 PUSH1 0x0 MSTORE PUSH1 0x20 PUSH1 0x0 KECCAK256 SWAP1 PUSH1 0x4 MUL ADD PUSH1 0x3 ADD DUP4 DUP2 SLOAD DUP2 LT PUSH2 0x1B19 JUMPI PUSH2 0x1B18 PUSH2 0x3C12 JUMP JUMPDEST JUMPDEST SWAP1 PUSH1 0x0 MSTORE PUSH1 0x20 PUSH1 0x0 KECCAK256 ADD SLOAD DUP2 SLOAD DUP2 LT PUSH2 0x1B35 JUMPI PUSH2 0x1B34 PUSH2 0x3C12 JUMP JUMPDEST JUMPDEST SWAP1 PUSH1 0x0 MSTORE PUSH1 0x20 PUSH1 0x0 KECCAK256 SWAP1 PUSH1 0x3 MUL ADD PUSH1 0x2 ADD DUP2 SWAP1 SSTORE POP DUP1 DUP1 PUSH2 0x1B55 SWAP1 PUSH2 0x3B6B JUMP JUMPDEST SWAP2 POP POP PUSH2 0x1A42 JUMP JUMPDEST POP PUSH1 0x0 DUP2 DUP2 SLOAD DUP2 LT PUSH2 0x1B72 JUMPI PUSH2 0x1B71 PUSH2 0x3C12 JUMP JUMPDEST JUMPDEST SWAP1 PUSH1 0x0 MSTORE PUSH1 0x20 PUSH1 0x0 KECCAK256 SWAP1 PUSH1 0x4 MUL ADD PUSH1 0x0 DUP1 DUP3 ADD PUSH1 0x0 PUSH2 0x100 EXP DUP2 SLOAD SWAP1 PUSH20 0xFFFFFFFFFFFFFFFFFFFFFFFFFFFFFFFFFFFFFFFF MUL NOT AND SWAP1 SSTORE PUSH1 0x1 DUP3 ADD PUSH1 0x0 PUSH2 0x1BB8 SWAP2 SWAP1 PUSH2 0x2A04 JUMP JUMPDEST PUSH1 0x2 DUP3 ADD PUSH1 0x0 PUSH2 0x1BC8 SWAP2 SWAP1 PUSH2 0x2A44 JUMP JUMPDEST PUSH1 0x3 DUP3 ADD PUSH1 0x0 PUSH2 0x1BD8 SWAP2 SWAP1 PUSH2 0x2A68 JUMP JUMPDEST POP POP POP JUMP JUMPDEST CALLER PUSH1 0x0 JUMPDEST PUSH1 0x1 DUP1 SLOAD SWAP1 POP DUP2 LT ISZERO PUSH2 0x1CE7 JUMPI DUP2 PUSH20 0xFFFFFFFFFFFFFFFFFFFFFFFFFFFFFFFFFFFFFFFF AND PUSH1 0x1 DUP3 DUP2 SLOAD DUP2 LT PUSH2 0x1C19 JUMPI PUSH2 0x1C18 PUSH2 0x3C12 JUMP JUMPDEST JUMPDEST SWAP1 PUSH1 0x0 MSTORE PUSH1 0x20 PUSH1 0x0 KECCAK256 SWAP1 PUSH1 0x3 MUL ADD PUSH1 0x0 ADD PUSH1 0x0 SWAP1 SLOAD SWAP1 PUSH2 0x100 EXP SWAP1 DIV PUSH20 0xFFFFFFFFFFFFFFFFFFFFFFFFFFFFFFFFFFFFFFFF AND PUSH20 0xFFFFFFFFFFFFFFFFFFFFFFFFFFFFFFFFFFFFFFFF AND EQ ISZERO PUSH2 0x1CD4 JUMPI PUSH1 0x2 PUSH1 0x1 DUP3 DUP2 SLOAD DUP2 LT PUSH2 0x1C7D JUMPI PUSH2 0x1C7C PUSH2 0x3C12 JUMP JUMPDEST JUMPDEST SWAP1 PUSH1 0x0 MSTORE PUSH1 0x20 PUSH1 0x0 KECCAK256 SWAP1 PUSH1 0x3 MUL ADD PUSH1 0x1 ADD SLOAD EQ PUSH2 0x1CCF JUMPI PUSH1 0x40 MLOAD PUSH32 0x8C379A000000000000000000000000000000000000000000000000000000000 DUP2 MSTORE PUSH1 0x4 ADD PUSH2 0x1CC6 SWAP1 PUSH2 0x37DF JUMP JUMPDEST PUSH1 0x40 MLOAD DUP1 SWAP2 SUB SWAP1 REVERT JUMPDEST PUSH2 0x1CE7 JUMP JUMPDEST DUP1 DUP1 PUSH2 0x1CDF SWAP1 PUSH2 0x3B6B JUMP JUMPDEST SWAP2 POP POP PUSH2 0x1BE1 JUMP JUMPDEST POP PUSH1 0x0 DUP5 DUP2 SLOAD DUP2 LT PUSH2 0x1CFC JUMPI PUSH2 0x1CFB PUSH2 0x3C12 JUMP JUMPDEST JUMPDEST SWAP1 PUSH1 0x0 MSTORE PUSH1 0x20 PUSH1 0x0 KECCAK256 SWAP1 PUSH1 0x4 MUL ADD PUSH1 0x2 ADD DUP4 DUP2 SLOAD DUP2 LT PUSH2 0x1D1F JUMPI PUSH2 0x1D1E PUSH2 0x3C12 JUMP JUMPDEST JUMPDEST SWAP1 PUSH1 0x0 MSTORE PUSH1 0x20 PUSH1 0x0 KECCAK256 SWAP1 PUSH1 0x5 MUL ADD PUSH1 0x2 ADD PUSH1 0x40 MLOAD DUP1 PUSH1 0x40 ADD PUSH1 0x40 MSTORE DUP1 CALLER PUSH20 0xFFFFFFFFFFFFFFFFFFFFFFFFFFFFFFFFFFFFFFFF AND DUP2 MSTORE PUSH1 0x20 ADD DUP5 ISZERO ISZERO DUP2 MSTORE POP SWAP1 DUP1 PUSH1 0x1 DUP2 SLOAD ADD DUP1 DUP3 SSTORE DUP1 SWAP2 POP POP PUSH1 0x1 SWAP1 SUB SWAP1 PUSH1 0x0 MSTORE PUSH1 0x20 PUSH1 0x0 KECCAK256 ADD PUSH1 0x0 SWAP1 SWAP2 SWAP1 SWAP2 SWAP1 SWAP2 POP PUSH1 0x0 DUP3 ADD MLOAD DUP2 PUSH1 0x0 ADD PUSH1 0x0 PUSH2 0x100 EXP DUP2 SLOAD DUP2 PUSH20 0xFFFFFFFFFFFFFFFFFFFFFFFFFFFFFFFFFFFFFFFF MUL NOT AND SWAP1 DUP4 PUSH20 0xFFFFFFFFFFFFFFFFFFFFFFFFFFFFFFFFFFFFFFFF AND MUL OR SWAP1 SSTORE POP PUSH1 0x20 DUP3 ADD MLOAD DUP2 PUSH1 0x0 ADD PUSH1 0x14 PUSH2 0x100 EXP DUP2 SLOAD DUP2 PUSH1 0xFF MUL NOT AND SWAP1 DUP4 ISZERO ISZERO MUL OR SWAP1 SSTORE POP POP POP POP POP POP POP JUMP JUMPDEST PUSH1 0x0 JUMPDEST PUSH1 0x1 DUP1 SLOAD SWAP1 POP DUP2 LT ISZERO PUSH2 0x1FCD JUMPI PUSH1 0x2 PUSH1 0x1 DUP3 DUP2 SLOAD DUP2 LT PUSH2 0x1E17 JUMPI PUSH2 0x1E16 PUSH2 0x3C12 JUMP JUMPDEST JUMPDEST SWAP1 PUSH1 0x0 MSTORE PUSH1 0x20 PUSH1 0x0 KECCAK256 SWAP1 PUSH1 0x3 MUL ADD PUSH1 0x1 ADD SLOAD EQ ISZERO PUSH2 0x1E6A JUMPI PUSH1 0x40 MLOAD PUSH32 0x8C379A000000000000000000000000000000000000000000000000000000000 DUP2 MSTORE PUSH1 0x4 ADD PUSH2 0x1E61 SWAP1 PUSH2 0x377F JUMP JUMPDEST PUSH1 0x40 MLOAD DUP1 SWAP2 SUB SWAP1 REVERT JUMPDEST CALLER PUSH20 0xFFFFFFFFFFFFFFFFFFFFFFFFFFFFFFFFFFFFFFFF AND PUSH1 0x1 DUP3 DUP2 SLOAD DUP2 LT PUSH2 0x1E95 JUMPI PUSH2 0x1E94 PUSH2 0x3C12 JUMP JUMPDEST JUMPDEST SWAP1 PUSH1 0x0 MSTORE PUSH1 0x20 PUSH1 0x0 KECCAK256 SWAP1 PUSH1 0x3 MUL ADD PUSH1 0x0 ADD PUSH1 0x0 SWAP1 SLOAD SWAP1 PUSH2 0x100 EXP SWAP1 DIV PUSH20 0xFFFFFFFFFFFFFFFFFFFFFFFFFFFFFFFFFFFFFFFF AND PUSH20 0xFFFFFFFFFFFFFFFFFFFFFFFFFFFFFFFFFFFFFFFF AND EQ ISZERO PUSH2 0x1FBA JUMPI PUSH1 0x1 DUP2 DUP2 SLOAD DUP2 LT PUSH2 0x1EF7 JUMPI PUSH2 0x1EF6 PUSH2 0x3C12 JUMP JUMPDEST JUMPDEST SWAP1 PUSH1 0x0 MSTORE PUSH1 0x20 PUSH1 0x0 KECCAK256 SWAP1 PUSH1 0x3 MUL ADD PUSH1 0x2 ADD SLOAD PUSH1 0x1 DUP3 DUP2 SLOAD DUP2 LT PUSH2 0x1F1D JUMPI PUSH2 0x1F1C PUSH2 0x3C12 JUMP JUMPDEST JUMPDEST SWAP1 PUSH1 0x0 MSTORE PUSH1 0x20 PUSH1 0x0 KECCAK256 SWAP1 PUSH1 0x3 MUL ADD PUSH1 0x1 ADD SLOAD EQ ISZERO PUSH2 0x1F65 JUMPI PUSH1 0x2 PUSH1 0x1 DUP3 DUP2 SLOAD DUP2 LT PUSH2 0x1F4B JUMPI PUSH2 0x1F4A PUSH2 0x3C12 JUMP JUMPDEST JUMPDEST SWAP1 PUSH1 0x0 MSTORE PUSH1 0x20 PUSH1 0x0 KECCAK256 SWAP1 PUSH1 0x3 MUL ADD PUSH1 0x2 ADD DUP2 SWAP1 SSTORE POP PUSH2 0x1FB5 JUMP JUMPDEST PUSH1 0x1 DUP2 DUP2 SLOAD DUP2 LT PUSH2 0x1F79 JUMPI PUSH2 0x1F78 PUSH2 0x3C12 JUMP JUMPDEST JUMPDEST SWAP1 PUSH1 0x0 MSTORE PUSH1 0x20 PUSH1 0x0 KECCAK256 SWAP1 PUSH1 0x3 MUL ADD PUSH1 0x1 ADD SLOAD PUSH1 0x1 DUP3 DUP2 SLOAD DUP2 LT PUSH2 0x1F9F JUMPI PUSH2 0x1F9E PUSH2 0x3C12 JUMP JUMPDEST JUMPDEST SWAP1 PUSH1 0x0 MSTORE PUSH1 0x20 PUSH1 0x0 KECCAK256 SWAP1 PUSH1 0x3 MUL ADD PUSH1 0x2 ADD DUP2 SWAP1 SSTORE POP JUMPDEST PUSH2 0x1FCD JUMP JUMPDEST DUP1 DUP1 PUSH2 0x1FC5 SWAP1 PUSH2 0x3B6B JUMP JUMPDEST SWAP2 POP POP PUSH2 0x1DF4 JUMP JUMPDEST POP JUMP JUMPDEST CALLER PUSH1 0x0 JUMPDEST PUSH1 0x1 DUP1 SLOAD SWAP1 POP DUP2 LT ISZERO PUSH2 0x20DA JUMPI DUP2 PUSH20 0xFFFFFFFFFFFFFFFFFFFFFFFFFFFFFFFFFFFFFFFF AND PUSH1 0x1 DUP3 DUP2 SLOAD DUP2 LT PUSH2 0x200C JUMPI PUSH2 0x200B PUSH2 0x3C12 JUMP JUMPDEST JUMPDEST SWAP1 PUSH1 0x0 MSTORE PUSH1 0x20 PUSH1 0x0 KECCAK256 SWAP1 PUSH1 0x3 MUL ADD PUSH1 0x0 ADD PUSH1 0x0 SWAP1 SLOAD SWAP1 PUSH2 0x100 EXP SWAP1 DIV PUSH20 0xFFFFFFFFFFFFFFFFFFFFFFFFFFFFFFFFFFFFFFFF AND PUSH20 0xFFFFFFFFFFFFFFFFFFFFFFFFFFFFFFFFFFFFFFFF AND EQ ISZERO PUSH2 0x20C7 JUMPI PUSH1 0x2 PUSH1 0x1 DUP3 DUP2 SLOAD DUP2 LT PUSH2 0x2070 JUMPI PUSH2 0x206F PUSH2 0x3C12 JUMP JUMPDEST JUMPDEST SWAP1 PUSH1 0x0 MSTORE PUSH1 0x20 PUSH1 0x0 KECCAK256 SWAP1 PUSH1 0x3 MUL ADD PUSH1 0x1 ADD SLOAD EQ PUSH2 0x20C2 JUMPI PUSH1 0x40 MLOAD PUSH32 0x8C379A000000000000000000000000000000000000000000000000000000000 DUP2 MSTORE PUSH1 0x4 ADD PUSH2 0x20B9 SWAP1 PUSH2 0x37DF JUMP JUMPDEST PUSH1 0x40 MLOAD DUP1 SWAP2 SUB SWAP1 REVERT JUMPDEST PUSH2 0x20DA JUMP JUMPDEST DUP1 DUP1 PUSH2 0x20D2 SWAP1 PUSH2 0x3B6B JUMP JUMPDEST SWAP2 POP POP PUSH2 0x1FD4 JUMP JUMPDEST POP PUSH1 0x0 DUP6 DUP2 SLOAD DUP2 LT PUSH2 0x20EF JUMPI PUSH2 0x20EE PUSH2 0x3C12 JUMP JUMPDEST JUMPDEST SWAP1 PUSH1 0x0 MSTORE PUSH1 0x20 PUSH1 0x0 KECCAK256 SWAP1 PUSH1 0x4 MUL ADD PUSH1 0x2 ADD DUP5 DUP2 SLOAD DUP2 LT PUSH2 0x2112 JUMPI PUSH2 0x2111 PUSH2 0x3C12 JUMP JUMPDEST JUMPDEST SWAP1 PUSH1 0x0 MSTORE PUSH1 0x20 PUSH1 0x0 KECCAK256 SWAP1 PUSH1 0x5 MUL ADD PUSH1 0x3 ADD DUP4 DUP2 SLOAD DUP2 LT PUSH2 0x2135 JUMPI PUSH2 0x2134 PUSH2 0x3C12 JUMP JUMPDEST JUMPDEST SWAP1 PUSH1 0x0 MSTORE PUSH1 0x20 PUSH1 0x0 KECCAK256 SWAP1 PUSH1 0x3 MUL ADD PUSH1 0x1 ADD PUSH1 0x40 MLOAD DUP1 PUSH1 0x40 ADD PUSH1 0x40 MSTORE DUP1 CALLER PUSH20 0xFFFFFFFFFFFFFFFFFFFFFFFFFFFFFFFFFFFFFFFF AND DUP2 MSTORE PUSH1 0x20 ADD DUP5 ISZERO ISZERO DUP2 MSTORE POP SWAP1 DUP1 PUSH1 0x1 DUP2 SLOAD ADD DUP1 DUP3 SSTORE DUP1 SWAP2 POP POP PUSH1 0x1 SWAP1 SUB SWAP1 PUSH1 0x0 MSTORE PUSH1 0x20 PUSH1 0x0 KECCAK256 ADD PUSH1 0x0 SWAP1 SWAP2 SWAP1 SWAP2 SWAP1 SWAP2 POP PUSH1 0x0 DUP3 ADD MLOAD DUP2 PUSH1 0x0 ADD PUSH1 0x0 PUSH2 0x100 EXP DUP2 SLOAD DUP2 PUSH20 0xFFFFFFFFFFFFFFFFFFFFFFFFFFFFFFFFFFFFFFFF MUL NOT AND SWAP1 DUP4 PUSH20 0xFFFFFFFFFFFFFFFFFFFFFFFFFFFFFFFFFFFFFFFF AND MUL OR SWAP1 SSTORE POP PUSH1 0x20 DUP3 ADD MLOAD DUP2 PUSH1 0x0 ADD PUSH1 0x14 PUSH2 0x100 EXP DUP2 SLOAD DUP2 PUSH1 0xFF MUL NOT AND SWAP1 DUP4 ISZERO ISZERO MUL OR SWAP1 SSTORE POP POP POP POP POP POP POP POP JUMP JUMPDEST PUSH1 0x60 PUSH1 0x2 DUP1 SLOAD DUP1 PUSH1 0x20 MUL PUSH1 0x20 ADD PUSH1 0x40 MLOAD SWAP1 DUP2 ADD PUSH1 0x40 MSTORE DUP1 SWAP3 SWAP2 SWAP1 DUP2 DUP2 MSTORE PUSH1 0x20 ADD PUSH1 0x0 SWAP1 JUMPDEST DUP3 DUP3 LT ISZERO PUSH2 0x2283 JUMPI DUP4 DUP3 SWAP1 PUSH1 0x0 MSTORE PUSH1 0x20 PUSH1 0x0 KECCAK256 SWAP1 PUSH1 0x2 MUL ADD PUSH1 0x40 MLOAD DUP1 PUSH1 0x40 ADD PUSH1 0x40 MSTORE SWAP1 DUP2 PUSH1 0x0 DUP3 ADD SLOAD DUP2 MSTORE PUSH1 0x20 ADD PUSH1 0x1 DUP3 ADD PUSH1 0x0 SWAP1 SLOAD SWAP1 PUSH2 0x100 EXP SWAP1 DIV PUSH1 0xFF AND ISZERO ISZERO ISZERO ISZERO DUP2 MSTORE POP POP DUP2 MSTORE PUSH1 0x20 ADD SWAP1 PUSH1 0x1 ADD SWAP1 PUSH2 0x222C JUMP JUMPDEST POP POP POP POP SWAP1 POP SWAP1 JUMP JUMPDEST CALLER PUSH1 0x0 DUP1 JUMPDEST PUSH1 0x1 DUP1 SLOAD SWAP1 POP DUP2 LT ISZERO PUSH2 0x2333 JUMPI DUP3 PUSH20 0xFFFFFFFFFFFFFFFFFFFFFFFFFFFFFFFFFFFFFFFF AND PUSH1 0x1 DUP3 DUP2 SLOAD DUP2 LT PUSH2 0x22C9 JUMPI PUSH2 0x22C8 PUSH2 0x3C12 JUMP JUMPDEST JUMPDEST SWAP1 PUSH1 0x0 MSTORE PUSH1 0x20 PUSH1 0x0 KECCAK256 SWAP1 PUSH1 0x3 MUL ADD PUSH1 0x0 ADD PUSH1 0x0 SWAP1 SLOAD SWAP1 PUSH2 0x100 EXP SWAP1 DIV PUSH20 0xFFFFFFFFFFFFFFFFFFFFFFFFFFFFFFFFFFFFFFFF AND PUSH20 0xFFFFFFFFFFFFFFFFFFFFFFFFFFFFFFFFFFFFFFFF AND EQ ISZERO PUSH2 0x2320 JUMPI PUSH1 0x1 SWAP2 POP PUSH2 0x2333 JUMP JUMPDEST DUP1 DUP1 PUSH2 0x232B SWAP1 PUSH2 0x3B6B JUMP JUMPDEST SWAP2 POP POP PUSH2 0x2291 JUMP JUMPDEST POP DUP1 PUSH2 0x2374 JUMPI PUSH1 0x40 MLOAD PUSH32 0x8C379A000000000000000000000000000000000000000000000000000000000 DUP2 MSTORE PUSH1 0x4 ADD PUSH2 0x236B SWAP1 PUSH2 0x379F JUMP JUMPDEST PUSH1 0x40 MLOAD DUP1 SWAP2 SUB SWAP1 REVERT JUMPDEST CALLER PUSH1 0x0 JUMPDEST PUSH1 0x1 DUP1 SLOAD SWAP1 POP DUP2 LT ISZERO PUSH2 0x247E JUMPI DUP2 PUSH20 0xFFFFFFFFFFFFFFFFFFFFFFFFFFFFFFFFFFFFFFFF AND PUSH1 0x1 DUP3 DUP2 SLOAD DUP2 LT PUSH2 0x23B0 JUMPI PUSH2 0x23AF PUSH2 0x3C12 JUMP JUMPDEST JUMPDEST SWAP1 PUSH1 0x0 MSTORE PUSH1 0x20 PUSH1 0x0 KECCAK256 SWAP1 PUSH1 0x3 MUL ADD PUSH1 0x0 ADD PUSH1 0x0 SWAP1 SLOAD SWAP1 PUSH2 0x100 EXP SWAP1 DIV PUSH20 0xFFFFFFFFFFFFFFFFFFFFFFFFFFFFFFFFFFFFFFFF AND PUSH20 0xFFFFFFFFFFFFFFFFFFFFFFFFFFFFFFFFFFFFFFFF AND EQ ISZERO PUSH2 0x246B JUMPI PUSH1 0x0 PUSH1 0x1 DUP3 DUP2 SLOAD DUP2 LT PUSH2 0x2414 JUMPI PUSH2 0x2413 PUSH2 0x3C12 JUMP JUMPDEST JUMPDEST SWAP1 PUSH1 0x0 MSTORE PUSH1 0x20 PUSH1 0x0 KECCAK256 SWAP1 PUSH1 0x3 MUL ADD PUSH1 0x2 ADD SLOAD EQ PUSH2 0x2466 JUMPI PUSH1 0x40 MLOAD PUSH32 0x8C379A000000000000000000000000000000000000000000000000000000000 DUP2 MSTORE PUSH1 0x4 ADD PUSH2 0x245D SWAP1 PUSH2 0x36FF JUMP JUMPDEST PUSH1 0x40 MLOAD DUP1 SWAP2 SUB SWAP1 REVERT JUMPDEST PUSH2 0x247E JUMP JUMPDEST DUP1 DUP1 PUSH2 0x2476 SWAP1 PUSH2 0x3B6B JUMP JUMPDEST SWAP2 POP POP PUSH2 0x2378 JUMP JUMPDEST POP PUSH1 0x0 JUMPDEST PUSH1 0x1 DUP1 SLOAD SWAP1 POP DUP2 LT ISZERO PUSH2 0x25DF JUMPI DUP5 PUSH20 0xFFFFFFFFFFFFFFFFFFFFFFFFFFFFFFFFFFFFFFFF AND PUSH1 0x1 DUP3 DUP2 SLOAD DUP2 LT PUSH2 0x24BA JUMPI PUSH2 0x24B9 PUSH2 0x3C12 JUMP JUMPDEST JUMPDEST SWAP1 PUSH1 0x0 MSTORE PUSH1 0x20 PUSH1 0x0 KECCAK256 SWAP1 PUSH1 0x3 MUL ADD PUSH1 0x0 ADD PUSH1 0x0 SWAP1 SLOAD SWAP1 PUSH2 0x100 EXP SWAP1 DIV PUSH20 0xFFFFFFFFFFFFFFFFFFFFFFFFFFFFFFFFFFFFFFFF AND PUSH20 0xFFFFFFFFFFFFFFFFFFFFFFFFFFFFFFFFFFFFFFFF AND EQ ISZERO PUSH2 0x25CC JUMPI PUSH1 0x0 PUSH1 0x1 DUP3 DUP2 SLOAD DUP2 LT PUSH2 0x251E JUMPI PUSH2 0x251D PUSH2 0x3C12 JUMP JUMPDEST JUMPDEST SWAP1 PUSH1 0x0 MSTORE PUSH1 0x20 PUSH1 0x0 KECCAK256 SWAP1 PUSH1 0x3 MUL ADD PUSH1 0x1 ADD SLOAD EQ ISZERO PUSH2 0x2571 JUMPI PUSH1 0x40 MLOAD PUSH32 0x8C379A000000000000000000000000000000000000000000000000000000000 DUP2 MSTORE PUSH1 0x4 ADD PUSH2 0x2568 SWAP1 PUSH2 0x373F JUMP JUMPDEST PUSH1 0x40 MLOAD DUP1 SWAP2 SUB SWAP1 REVERT JUMPDEST PUSH1 0x0 PUSH1 0x1 DUP3 DUP2 SLOAD DUP2 LT PUSH2 0x2587 JUMPI PUSH2 0x2586 PUSH2 0x3C12 JUMP JUMPDEST JUMPDEST SWAP1 PUSH1 0x0 MSTORE PUSH1 0x20 PUSH1 0x0 KECCAK256 SWAP1 PUSH1 0x3 MUL ADD PUSH1 0x1 ADD DUP2 SWAP1 SSTORE POP PUSH1 0x0 PUSH1 0x1 DUP3 DUP2 SLOAD DUP2 LT PUSH2 0x25B2 JUMPI PUSH2 0x25B1 PUSH2 0x3C12 JUMP JUMPDEST JUMPDEST SWAP1 PUSH1 0x0 MSTORE PUSH1 0x20 PUSH1 0x0 KECCAK256 SWAP1 PUSH1 0x3 MUL ADD PUSH1 0x2 ADD DUP2 SWAP1 SSTORE POP PUSH2 0x25DF JUMP JUMPDEST DUP1 DUP1 PUSH2 0x25D7 SWAP1 PUSH2 0x3B6B JUMP JUMPDEST SWAP2 POP POP PUSH2 0x2482 JUMP JUMPDEST POP POP POP POP POP JUMP JUMPDEST PUSH1 0x60 PUSH1 0x3 DUP1 SLOAD DUP1 PUSH1 0x20 MUL PUSH1 0x20 ADD PUSH1 0x40 MLOAD SWAP1 DUP2 ADD PUSH1 0x40 MSTORE DUP1 SWAP3 SWAP2 SWAP1 DUP2 DUP2 MSTORE PUSH1 0x20 ADD PUSH1 0x0 SWAP1 JUMPDEST DUP3 DUP3 LT ISZERO PUSH2 0x266B JUMPI DUP4 DUP3 SWAP1 PUSH1 0x0 MSTORE PUSH1 0x20 PUSH1 0x0 KECCAK256 SWAP1 PUSH1 0x3 MUL ADD PUSH1 0x40 MLOAD DUP1 PUSH1 0x60 ADD PUSH1 0x40 MSTORE SWAP1 DUP2 PUSH1 0x0 DUP3 ADD SLOAD DUP2 MSTORE PUSH1 0x20 ADD PUSH1 0x1 DUP3 ADD SLOAD DUP2 MSTORE PUSH1 0x20 ADD PUSH1 0x2 DUP3 ADD PUSH1 0x0 SWAP1 SLOAD SWAP1 PUSH2 0x100 EXP SWAP1 DIV PUSH1 0xFF AND ISZERO ISZERO ISZERO ISZERO DUP2 MSTORE POP POP DUP2 MSTORE PUSH1 0x20 ADD SWAP1 PUSH1 0x1 ADD SWAP1 PUSH2 0x260A JUMP JUMPDEST POP POP POP POP SWAP1 POP SWAP1 JUMP JUMPDEST PUSH1 0x0 DUP4 DUP2 SLOAD DUP2 LT PUSH2 0x2688 JUMPI PUSH2 0x2687 PUSH2 0x3C12 JUMP JUMPDEST JUMPDEST SWAP1 PUSH1 0x0 MSTORE PUSH1 0x20 PUSH1 0x0 KECCAK256 SWAP1 PUSH1 0x4 MUL ADD PUSH1 0x2 ADD DUP3 DUP2 SLOAD DUP2 LT PUSH2 0x26AB JUMPI PUSH2 0x26AA PUSH2 0x3C12 JUMP JUMPDEST JUMPDEST SWAP1 PUSH1 0x0 MSTORE PUSH1 0x20 PUSH1 0x0 KECCAK256 SWAP1 PUSH1 0x5 MUL ADD PUSH1 0x3 ADD PUSH1 0x1 DUP2 PUSH1 0x1 DUP2 SLOAD ADD DUP1 DUP3 SSTORE DUP1 SWAP2 POP POP SUB SWAP1 PUSH1 0x0 MSTORE PUSH1 0x20 PUSH1 0x0 KECCAK256 SWAP1 POP POP CALLER PUSH1 0x0 DUP5 DUP2 SLOAD DUP2 LT PUSH2 0x26ED JUMPI PUSH2 0x26EC PUSH2 0x3C12 JUMP JUMPDEST JUMPDEST SWAP1 PUSH1 0x0 MSTORE PUSH1 0x20 PUSH1 0x0 KECCAK256 SWAP1 PUSH1 0x4 MUL ADD PUSH1 0x2 ADD DUP4 DUP2 SLOAD DUP2 LT PUSH2 0x2710 JUMPI PUSH2 0x270F PUSH2 0x3C12 JUMP JUMPDEST JUMPDEST SWAP1 PUSH1 0x0 MSTORE PUSH1 0x20 PUSH1 0x0 KECCAK256 SWAP1 PUSH1 0x5 MUL ADD PUSH1 0x3 ADD PUSH1 0x1 PUSH1 0x0 DUP7 DUP2 SLOAD DUP2 LT PUSH2 0x2737 JUMPI PUSH2 0x2736 PUSH2 0x3C12 JUMP JUMPDEST JUMPDEST SWAP1 PUSH1 0x0 MSTORE PUSH1 0x20 PUSH1 0x0 KECCAK256 SWAP1 PUSH1 0x4 MUL ADD PUSH1 0x2 ADD DUP6 DUP2 SLOAD DUP2 LT PUSH2 0x275A JUMPI PUSH2 0x2759 PUSH2 0x3C12 JUMP JUMPDEST JUMPDEST SWAP1 PUSH1 0x0 MSTORE PUSH1 0x20 PUSH1 0x0 KECCAK256 SWAP1 PUSH1 0x5 MUL ADD PUSH1 0x3 ADD DUP1 SLOAD SWAP1 POP PUSH2 0x2779 SWAP2 SWAP1 PUSH2 0x3A4A JUMP JUMPDEST DUP2 SLOAD DUP2 LT PUSH2 0x278A JUMPI PUSH2 0x2789 PUSH2 0x3C12 JUMP JUMPDEST JUMPDEST SWAP1 PUSH1 0x0 MSTORE PUSH1 0x20 PUSH1 0x0 KECCAK256 SWAP1 PUSH1 0x3 MUL ADD PUSH1 0x0 ADD PUSH1 0x0 PUSH2 0x100 EXP DUP2 SLOAD DUP2 PUSH20 0xFFFFFFFFFFFFFFFFFFFFFFFFFFFFFFFFFFFFFFFF MUL NOT AND SWAP1 DUP4 PUSH20 0xFFFFFFFFFFFFFFFFFFFFFFFFFFFFFFFFFFFFFFFF AND MUL OR SWAP1 SSTORE POP DUP1 PUSH1 0x0 DUP5 DUP2 SLOAD DUP2 LT PUSH2 0x27EE JUMPI PUSH2 0x27ED PUSH2 0x3C12 JUMP JUMPDEST JUMPDEST SWAP1 PUSH1 0x0 MSTORE PUSH1 0x20 PUSH1 0x0 KECCAK256 SWAP1 PUSH1 0x4 MUL ADD PUSH1 0x2 ADD DUP4 DUP2 SLOAD DUP2 LT PUSH2 0x2811 JUMPI PUSH2 0x2810 PUSH2 0x3C12 JUMP JUMPDEST JUMPDEST SWAP1 PUSH1 0x0 MSTORE PUSH1 0x20 PUSH1 0x0 KECCAK256 SWAP1 PUSH1 0x5 MUL ADD PUSH1 0x3 ADD PUSH1 0x1 PUSH1 0x0 DUP7 DUP2 SLOAD DUP2 LT PUSH2 0x2838 JUMPI PUSH2 0x2837 PUSH2 0x3C12 JUMP JUMPDEST JUMPDEST SWAP1 PUSH1 0x0 MSTORE PUSH1 0x20 PUSH1 0x0 KECCAK256 SWAP1 PUSH1 0x4 MUL ADD PUSH1 0x2 ADD DUP6 DUP2 SLOAD DUP2 LT PUSH2 0x285B JUMPI PUSH2 0x285A PUSH2 0x3C12 JUMP JUMPDEST JUMPDEST SWAP1 PUSH1 0x0 MSTORE PUSH1 0x20 PUSH1 0x0 KECCAK256 SWAP1 PUSH1 0x5 MUL ADD PUSH1 0x3 ADD DUP1 SLOAD SWAP1 POP PUSH2 0x287A SWAP2 SWAP1 PUSH2 0x3A4A JUMP JUMPDEST DUP2 SLOAD DUP2 LT PUSH2 0x288B JUMPI PUSH2 0x288A PUSH2 0x3C12 JUMP JUMPDEST JUMPDEST SWAP1 PUSH1 0x0 MSTORE PUSH1 0x20 PUSH1 0x0 KECCAK256 SWAP1 PUSH1 0x3 MUL ADD PUSH1 0x2 ADD SWAP1 DUP1 MLOAD SWAP1 PUSH1 0x20 ADD SWAP1 PUSH2 0x28AF SWAP3 SWAP2 SWAP1 PUSH2 0x297E JUMP JUMPDEST POP POP POP POP JUMP JUMPDEST PUSH1 0x60 PUSH1 0x1 DUP1 SLOAD DUP1 PUSH1 0x20 MUL PUSH1 0x20 ADD PUSH1 0x40 MLOAD SWAP1 DUP2 ADD PUSH1 0x40 MSTORE DUP1 SWAP3 SWAP2 SWAP1 DUP2 DUP2 MSTORE PUSH1 0x20 ADD PUSH1 0x0 SWAP1 JUMPDEST DUP3 DUP3 LT ISZERO PUSH2 0x2975 JUMPI DUP4 DUP3 SWAP1 PUSH1 0x0 MSTORE PUSH1 0x20 PUSH1 0x0 KECCAK256 SWAP1 PUSH1 0x3 MUL ADD PUSH1 0x40 MLOAD DUP1 PUSH1 0x60 ADD PUSH1 0x40 MSTORE SWAP1 DUP2 PUSH1 0x0 DUP3 ADD PUSH1 0x0 SWAP1 SLOAD SWAP1 PUSH2 0x100 EXP SWAP1 DIV PUSH20 0xFFFFFFFFFFFFFFFFFFFFFFFFFFFFFFFFFFFFFFFF AND PUSH20 0xFFFFFFFFFFFFFFFFFFFFFFFFFFFFFFFFFFFFFFFF AND PUSH20 0xFFFFFFFFFFFFFFFFFFFFFFFFFFFFFFFFFFFFFFFF AND DUP2 MSTORE PUSH1 0x20 ADD PUSH1 0x1 DUP3 ADD SLOAD DUP2 MSTORE PUSH1 0x20 ADD PUSH1 0x2 DUP3 ADD SLOAD DUP2 MSTORE POP POP DUP2 MSTORE PUSH1 0x20 ADD SWAP1 PUSH1 0x1 ADD SWAP1 PUSH2 0x28D9 JUMP JUMPDEST POP POP POP POP SWAP1 POP SWAP1 JUMP JUMPDEST DUP3 DUP1 SLOAD PUSH2 0x298A SWAP1 PUSH2 0x3B08 JUMP JUMPDEST SWAP1 PUSH1 0x0 MSTORE PUSH1 0x20 PUSH1 0x0 KECCAK256 SWAP1 PUSH1 0x1F ADD PUSH1 0x20 SWAP1 DIV DUP2 ADD SWAP3 DUP3 PUSH2 0x29AC JUMPI PUSH1 0x0 DUP6 SSTORE PUSH2 0x29F3 JUMP JUMPDEST DUP3 PUSH1 0x1F LT PUSH2 0x29C5 JUMPI DUP1 MLOAD PUSH1 0xFF NOT AND DUP4 DUP1 ADD OR DUP6 SSTORE PUSH2 0x29F3 JUMP JUMPDEST DUP3 DUP1 ADD PUSH1 0x1 ADD DUP6 SSTORE DUP3 ISZERO PUSH2 0x29F3 JUMPI SWAP2 DUP3 ADD JUMPDEST DUP3 DUP2 GT ISZERO PUSH2 0x29F2 JUMPI DUP3 MLOAD DUP3 SSTORE SWAP2 PUSH1 0x20 ADD SWAP2 SWAP1 PUSH1 0x1 ADD SWAP1 PUSH2 0x29D7 JUMP JUMPDEST JUMPDEST POP SWAP1 POP PUSH2 0x2A00 SWAP2 SWAP1 PUSH2 0x2A89 JUMP JUMPDEST POP SWAP1 JUMP JUMPDEST POP DUP1 SLOAD PUSH2 0x2A10 SWAP1 PUSH2 0x3B08 JUMP JUMPDEST PUSH1 0x0 DUP3 SSTORE DUP1 PUSH1 0x1F LT PUSH2 0x2A22 JUMPI POP PUSH2 0x2A41 JUMP JUMPDEST PUSH1 0x1F ADD PUSH1 0x20 SWAP1 DIV SWAP1 PUSH1 0x0 MSTORE PUSH1 0x20 PUSH1 0x0 KECCAK256 SWAP1 DUP2 ADD SWAP1 PUSH2 0x2A40 SWAP2 SWAP1 PUSH2 0x2A89 JUMP JUMPDEST JUMPDEST POP JUMP JUMPDEST POP DUP1 SLOAD PUSH1 0x0 DUP3 SSTORE PUSH1 0x5 MUL SWAP1 PUSH1 0x0 MSTORE PUSH1 0x20 PUSH1 0x0 KECCAK256 SWAP1 DUP2 ADD SWAP1 PUSH2 0x2A65 SWAP2 SWAP1 PUSH2 0x2AA6 JUMP JUMPDEST POP JUMP JUMPDEST POP DUP1 SLOAD PUSH1 0x0 DUP3 SSTORE SWAP1 PUSH1 0x0 MSTORE PUSH1 0x20 PUSH1 0x0 KECCAK256 SWAP1 DUP2 ADD SWAP1 PUSH2 0x2A86 SWAP2 SWAP1 PUSH2 0x2A89 JUMP JUMPDEST POP JUMP JUMPDEST JUMPDEST DUP1 DUP3 GT ISZERO PUSH2 0x2AA2 JUMPI PUSH1 0x0 DUP2 PUSH1 0x0 SWAP1 SSTORE POP PUSH1 0x1 ADD PUSH2 0x2A8A JUMP JUMPDEST POP SWAP1 JUMP JUMPDEST JUMPDEST DUP1 DUP3 GT ISZERO PUSH2 0x2B18 JUMPI PUSH1 0x0 DUP1 DUP3 ADD PUSH1 0x0 PUSH2 0x100 EXP DUP2 SLOAD SWAP1 PUSH20 0xFFFFFFFFFFFFFFFFFFFFFFFFFFFFFFFFFFFFFFFF MUL NOT AND SWAP1 SSTORE PUSH1 0x1 DUP3 ADD PUSH1 0x0 SWAP1 SSTORE PUSH1 0x2 DUP3 ADD PUSH1 0x0 PUSH2 0x2AEF SWAP2 SWAP1 PUSH2 0x2B1C JUMP JUMPDEST PUSH1 0x3 DUP3 ADD PUSH1 0x0 PUSH2 0x2AFF SWAP2 SWAP1 PUSH2 0x2B3D JUMP JUMPDEST PUSH1 0x4 DUP3 ADD PUSH1 0x0 PUSH2 0x2B0F SWAP2 SWAP1 PUSH2 0x2A04 JUMP JUMPDEST POP PUSH1 0x5 ADD PUSH2 0x2AA7 JUMP JUMPDEST POP SWAP1 JUMP JUMPDEST POP DUP1 SLOAD PUSH1 0x0 DUP3 SSTORE SWAP1 PUSH1 0x0 MSTORE PUSH1 0x20 PUSH1 0x0 KECCAK256 SWAP1 DUP2 ADD SWAP1 PUSH2 0x2B3A SWAP2 SWAP1 PUSH2 0x2B61 JUMP JUMPDEST POP JUMP JUMPDEST POP DUP1 SLOAD PUSH1 0x0 DUP3 SSTORE PUSH1 0x3 MUL SWAP1 PUSH1 0x0 MSTORE PUSH1 0x20 PUSH1 0x0 KECCAK256 SWAP1 DUP2 ADD SWAP1 PUSH2 0x2B5E SWAP2 SWAP1 PUSH2 0x2BB3 JUMP JUMPDEST POP JUMP JUMPDEST JUMPDEST DUP1 DUP3 GT ISZERO PUSH2 0x2BAF JUMPI PUSH1 0x0 DUP1 DUP3 ADD PUSH1 0x0 PUSH2 0x100 EXP DUP2 SLOAD SWAP1 PUSH20 0xFFFFFFFFFFFFFFFFFFFFFFFFFFFFFFFFFFFFFFFF MUL NOT AND SWAP1 SSTORE PUSH1 0x0 DUP3 ADD PUSH1 0x14 PUSH2 0x100 EXP DUP2 SLOAD SWAP1 PUSH1 0xFF MUL NOT AND SWAP1 SSTORE POP PUSH1 0x1 ADD PUSH2 0x2B62 JUMP JUMPDEST POP SWAP1 JUMP JUMPDEST JUMPDEST DUP1 DUP3 GT ISZERO PUSH2 0x2C0D JUMPI PUSH1 0x0 DUP1 DUP3 ADD PUSH1 0x0 PUSH2 0x100 EXP DUP2 SLOAD SWAP1 PUSH20 0xFFFFFFFFFFFFFFFFFFFFFFFFFFFFFFFFFFFFFFFF MUL NOT AND SWAP1 SSTORE PUSH1 0x1 DUP3 ADD PUSH1 0x0 PUSH2 0x2BF4 SWAP2 SWAP1 PUSH2 0x2B1C JUMP JUMPDEST PUSH1 0x2 DUP3 ADD PUSH1 0x0 PUSH2 0x2C04 SWAP2 SWAP1 PUSH2 0x2A04 JUMP JUMPDEST POP PUSH1 0x3 ADD PUSH2 0x2BB4 JUMP JUMPDEST POP SWAP1 JUMP JUMPDEST PUSH1 0x0 PUSH2 0x2C24 PUSH2 0x2C1F DUP5 PUSH2 0x3824 JUMP JUMPDEST PUSH2 0x37FF JUMP JUMPDEST SWAP1 POP DUP3 DUP2 MSTORE PUSH1 0x20 DUP2 ADD DUP5 DUP5 DUP5 ADD GT ISZERO PUSH2 0x2C40 JUMPI PUSH2 0x2C3F PUSH2 0x3C75 JUMP JUMPDEST JUMPDEST PUSH2 0x2C4B DUP5 DUP3 DUP6 PUSH2 0x3AC6 JUMP JUMPDEST POP SWAP4 SWAP3 POP POP POP JUMP JUMPDEST PUSH1 0x0 DUP2 CALLDATALOAD SWAP1 POP PUSH2 0x2C62 DUP2 PUSH2 0x3E06 JUMP JUMPDEST SWAP3 SWAP2 POP POP JUMP JUMPDEST PUSH1 0x0 DUP2 CALLDATALOAD SWAP1 POP PUSH2 0x2C77 DUP2 PUSH2 0x3E1D JUMP JUMPDEST SWAP3 SWAP2 POP POP JUMP JUMPDEST PUSH1 0x0 DUP3 PUSH1 0x1F DUP4 ADD SLT PUSH2 0x2C92 JUMPI PUSH2 0x2C91 PUSH2 0x3C70 JUMP JUMPDEST JUMPDEST DUP2 CALLDATALOAD PUSH2 0x2CA2 DUP5 DUP3 PUSH1 0x20 DUP7 ADD PUSH2 0x2C11 JUMP JUMPDEST SWAP2 POP POP SWAP3 SWAP2 POP POP JUMP JUMPDEST PUSH1 0x0 DUP2 CALLDATALOAD SWAP1 POP PUSH2 0x2CBA DUP2 PUSH2 0x3E34 JUMP JUMPDEST SWAP3 SWAP2 POP POP JUMP JUMPDEST PUSH1 0x0 PUSH1 0x20 DUP3 DUP5 SUB SLT ISZERO PUSH2 0x2CD6 JUMPI PUSH2 0x2CD5 PUSH2 0x3C7F JUMP JUMPDEST JUMPDEST PUSH1 0x0 PUSH2 0x2CE4 DUP5 DUP3 DUP6 ADD PUSH2 0x2C53 JUMP JUMPDEST SWAP2 POP POP SWAP3 SWAP2 POP POP JUMP JUMPDEST PUSH1 0x0 DUP1 PUSH1 0x40 DUP4 DUP6 SUB SLT ISZERO PUSH2 0x2D04 JUMPI PUSH2 0x2D03 PUSH2 0x3C7F JUMP JUMPDEST JUMPDEST PUSH1 0x0 PUSH2 0x2D12 DUP6 DUP3 DUP7 ADD PUSH2 0x2C53 JUMP JUMPDEST SWAP3 POP POP PUSH1 0x20 DUP4 ADD CALLDATALOAD PUSH8 0xFFFFFFFFFFFFFFFF DUP2 GT ISZERO PUSH2 0x2D33 JUMPI PUSH2 0x2D32 PUSH2 0x3C7A JUMP JUMPDEST JUMPDEST PUSH2 0x2D3F DUP6 DUP3 DUP7 ADD PUSH2 0x2C7D JUMP JUMPDEST SWAP2 POP POP SWAP3 POP SWAP3 SWAP1 POP JUMP JUMPDEST PUSH1 0x0 PUSH1 0x20 DUP3 DUP5 SUB SLT ISZERO PUSH2 0x2D5F JUMPI PUSH2 0x2D5E PUSH2 0x3C7F JUMP JUMPDEST JUMPDEST PUSH1 0x0 PUSH2 0x2D6D DUP5 DUP3 DUP6 ADD PUSH2 0x2CAB JUMP JUMPDEST SWAP2 POP POP SWAP3 SWAP2 POP POP JUMP JUMPDEST PUSH1 0x0 DUP1 PUSH1 0x0 PUSH1 0x60 DUP5 DUP7 SUB SLT ISZERO PUSH2 0x2D8F JUMPI PUSH2 0x2D8E PUSH2 0x3C7F JUMP JUMPDEST JUMPDEST PUSH1 0x0 PUSH2 0x2D9D DUP7 DUP3 DUP8 ADD PUSH2 0x2CAB JUMP JUMPDEST SWAP4 POP POP PUSH1 0x20 PUSH2 0x2DAE DUP7 DUP3 DUP8 ADD PUSH2 0x2CAB JUMP JUMPDEST SWAP3 POP POP PUSH1 0x40 PUSH2 0x2DBF DUP7 DUP3 DUP8 ADD PUSH2 0x2C68 JUMP JUMPDEST SWAP2 POP POP SWAP3 POP SWAP3 POP SWAP3 JUMP JUMPDEST PUSH1 0x0 DUP1 PUSH1 0x0 PUSH1 0x60 DUP5 DUP7 SUB SLT ISZERO PUSH2 0x2DE2 JUMPI PUSH2 0x2DE1 PUSH2 0x3C7F JUMP JUMPDEST JUMPDEST PUSH1 0x0 PUSH2 0x2DF0 DUP7 DUP3 DUP8 ADD PUSH2 0x2CAB JUMP JUMPDEST SWAP4 POP POP PUSH1 0x20 PUSH2 0x2E01 DUP7 DUP3 DUP8 ADD PUSH2 0x2CAB JUMP JUMPDEST SWAP3 POP POP PUSH1 0x40 DUP5 ADD CALLDATALOAD PUSH8 0xFFFFFFFFFFFFFFFF DUP2 GT ISZERO PUSH2 0x2E22 JUMPI PUSH2 0x2E21 PUSH2 0x3C7A JUMP JUMPDEST JUMPDEST PUSH2 0x2E2E DUP7 DUP3 DUP8 ADD PUSH2 0x2C7D JUMP JUMPDEST SWAP2 POP POP SWAP3 POP SWAP3 POP SWAP3 JUMP JUMPDEST PUSH1 0x0 DUP1 PUSH1 0x0 DUP1 PUSH1 0x80 DUP6 DUP8 SUB SLT ISZERO PUSH2 0x2E52 JUMPI PUSH2 0x2E51 PUSH2 0x3C7F JUMP JUMPDEST JUMPDEST PUSH1 0x0 PUSH2 0x2E60 DUP8 DUP3 DUP9 ADD PUSH2 0x2CAB JUMP JUMPDEST SWAP5 POP POP PUSH1 0x20 PUSH2 0x2E71 DUP8 DUP3 DUP9 ADD PUSH2 0x2CAB JUMP JUMPDEST SWAP4 POP POP PUSH1 0x40 PUSH2 0x2E82 DUP8 DUP3 DUP9 ADD PUSH2 0x2CAB JUMP JUMPDEST SWAP3 POP POP PUSH1 0x60 PUSH2 0x2E93 DUP8 DUP3 DUP9 ADD PUSH2 0x2C68 JUMP JUMPDEST SWAP2 POP POP SWAP3 SWAP6 SWAP2 SWAP5 POP SWAP3 POP JUMP JUMPDEST PUSH1 0x0 PUSH2 0x2EAB DUP4 DUP4 PUSH2 0x341A JUMP JUMPDEST SWAP1 POP SWAP3 SWAP2 POP POP JUMP JUMPDEST PUSH1 0x0 PUSH2 0x2EBF DUP4 DUP4 PUSH2 0x3471 JUMP JUMPDEST PUSH1 0x40 DUP4 ADD SWAP1 POP SWAP3 SWAP2 POP POP JUMP JUMPDEST PUSH1 0x0 PUSH2 0x2ED7 DUP4 DUP4 PUSH2 0x34A0 JUMP JUMPDEST SWAP1 POP SWAP3 SWAP2 POP POP JUMP JUMPDEST PUSH1 0x0 PUSH2 0x2EEB DUP4 DUP4 PUSH2 0x3524 JUMP JUMPDEST PUSH1 0x40 DUP4 ADD SWAP1 POP SWAP3 SWAP2 POP POP JUMP JUMPDEST PUSH1 0x0 PUSH2 0x2F03 DUP4 DUP4 PUSH2 0x3553 JUMP JUMPDEST PUSH1 0x60 DUP4 ADD SWAP1 POP SWAP3 SWAP2 POP POP JUMP JUMPDEST PUSH1 0x0 PUSH2 0x2F1B DUP4 DUP4 PUSH2 0x3595 JUMP JUMPDEST SWAP1 POP SWAP3 SWAP2 POP POP JUMP JUMPDEST PUSH1 0x0 PUSH2 0x2F2F DUP4 DUP4 PUSH2 0x3606 JUMP JUMPDEST PUSH1 0x60 DUP4 ADD SWAP1 POP SWAP3 SWAP2 POP POP JUMP JUMPDEST PUSH1 0x0 PUSH2 0x2F47 DUP4 DUP4 PUSH2 0x3648 JUMP JUMPDEST PUSH1 0x20 DUP4 ADD SWAP1 POP SWAP3 SWAP2 POP POP JUMP JUMPDEST PUSH2 0x2F5C DUP2 PUSH2 0x3A7E JUMP JUMPDEST DUP3 MSTORE POP POP JUMP JUMPDEST PUSH1 0x0 PUSH2 0x2F6D DUP3 PUSH2 0x38D5 JUMP JUMPDEST PUSH2 0x2F77 DUP2 DUP6 PUSH2 0x39A0 JUMP JUMPDEST SWAP4 POP DUP4 PUSH1 0x20 DUP3 MUL DUP6 ADD PUSH2 0x2F89 DUP6 PUSH2 0x3855 JUMP JUMPDEST DUP1 PUSH1 0x0 JUMPDEST DUP6 DUP2 LT ISZERO PUSH2 0x2FC5 JUMPI DUP5 DUP5 SUB DUP10 MSTORE DUP2 MLOAD PUSH2 0x2FA6 DUP6 DUP3 PUSH2 0x2E9F JUMP JUMPDEST SWAP5 POP PUSH2 0x2FB1 DUP4 PUSH2 0x3938 JUMP JUMPDEST SWAP3 POP PUSH1 0x20 DUP11 ADD SWAP10 POP POP PUSH1 0x1 DUP2 ADD SWAP1 POP PUSH2 0x2F8D JUMP JUMPDEST POP DUP3 SWAP8 POP DUP8 SWAP6 POP POP POP POP POP POP SWAP3 SWAP2 POP POP JUMP JUMPDEST PUSH1 0x0 PUSH2 0x2FE2 DUP3 PUSH2 0x38E0 JUMP JUMPDEST PUSH2 0x2FEC DUP2 DUP6 PUSH2 0x39B1 JUMP JUMPDEST SWAP4 POP PUSH2 0x2FF7 DUP4 PUSH2 0x3865 JUMP JUMPDEST DUP1 PUSH1 0x0 JUMPDEST DUP4 DUP2 LT ISZERO PUSH2 0x3028 JUMPI DUP2 MLOAD PUSH2 0x300F DUP9 DUP3 PUSH2 0x2EB3 JUMP JUMPDEST SWAP8 POP PUSH2 0x301A DUP4 PUSH2 0x3945 JUMP JUMPDEST SWAP3 POP POP PUSH1 0x1 DUP2 ADD SWAP1 POP PUSH2 0x2FFB JUMP JUMPDEST POP DUP6 SWAP4 POP POP POP POP SWAP3 SWAP2 POP POP JUMP JUMPDEST PUSH1 0x0 PUSH2 0x3040 DUP3 PUSH2 0x38EB JUMP JUMPDEST PUSH2 0x304A DUP2 DUP6 PUSH2 0x39C2 JUMP JUMPDEST SWAP4 POP DUP4 PUSH1 0x20 DUP3 MUL DUP6 ADD PUSH2 0x305C DUP6 PUSH2 0x3875 JUMP JUMPDEST DUP1 PUSH1 0x0 JUMPDEST DUP6 DUP2 LT ISZERO PUSH2 0x3098 JUMPI DUP5 DUP5 SUB DUP10 MSTORE DUP2 MLOAD PUSH2 0x3079 DUP6 DUP3 PUSH2 0x2ECB JUMP JUMPDEST SWAP5 POP PUSH2 0x3084 DUP4 PUSH2 0x3952 JUMP JUMPDEST SWAP3 POP PUSH1 0x20 DUP11 ADD SWAP10 POP POP PUSH1 0x1 DUP2 ADD SWAP1 POP PUSH2 0x3060 JUMP JUMPDEST POP DUP3 SWAP8 POP DUP8 SWAP6 POP POP POP POP POP POP SWAP3 SWAP2 POP POP JUMP JUMPDEST PUSH1 0x0 PUSH2 0x30B5 DUP3 PUSH2 0x38F6 JUMP JUMPDEST PUSH2 0x30BF DUP2 DUP6 PUSH2 0x39D3 JUMP JUMPDEST SWAP4 POP PUSH2 0x30CA DUP4 PUSH2 0x3885 JUMP JUMPDEST DUP1 PUSH1 0x0 JUMPDEST DUP4 DUP2 LT ISZERO PUSH2 0x30FB JUMPI DUP2 MLOAD PUSH2 0x30E2 DUP9 DUP3 PUSH2 0x2EDF JUMP JUMPDEST SWAP8 POP PUSH2 0x30ED DUP4 PUSH2 0x395F JUMP JUMPDEST SWAP3 POP POP PUSH1 0x1 DUP2 ADD SWAP1 POP PUSH2 0x30CE JUMP JUMPDEST POP DUP6 SWAP4 POP POP POP POP SWAP3 SWAP2 POP POP JUMP JUMPDEST PUSH1 0x0 PUSH2 0x3113 DUP3 PUSH2 0x3901 JUMP JUMPDEST PUSH2 0x311D DUP2 DUP6 PUSH2 0x39E4 JUMP JUMPDEST SWAP4 POP PUSH2 0x3128 DUP4 PUSH2 0x3895 JUMP JUMPDEST DUP1 PUSH1 0x0 JUMPDEST DUP4 DUP2 LT ISZERO PUSH2 0x3159 JUMPI DUP2 MLOAD PUSH2 0x3140 DUP9 DUP3 PUSH2 0x2EF7 JUMP JUMPDEST SWAP8 POP PUSH2 0x314B DUP4 PUSH2 0x396C JUMP JUMPDEST SWAP3 POP POP PUSH1 0x1 DUP2 ADD SWAP1 POP PUSH2 0x312C JUMP JUMPDEST POP DUP6 SWAP4 POP POP POP POP SWAP3 SWAP2 POP POP JUMP JUMPDEST PUSH1 0x0 PUSH2 0x3171 DUP3 PUSH2 0x390C JUMP JUMPDEST PUSH2 0x317B DUP2 DUP6 PUSH2 0x39F5 JUMP JUMPDEST SWAP4 POP DUP4 PUSH1 0x20 DUP3 MUL DUP6 ADD PUSH2 0x318D DUP6 PUSH2 0x38A5 JUMP JUMPDEST DUP1 PUSH1 0x0 JUMPDEST DUP6 DUP2 LT ISZERO PUSH2 0x31C9 JUMPI DUP5 DUP5 SUB DUP10 MSTORE DUP2 MLOAD PUSH2 0x31AA DUP6 DUP3 PUSH2 0x2F0F JUMP JUMPDEST SWAP5 POP PUSH2 0x31B5 DUP4 PUSH2 0x3979 JUMP JUMPDEST SWAP3 POP PUSH1 0x20 DUP11 ADD SWAP10 POP POP PUSH1 0x1 DUP2 ADD SWAP1 POP PUSH2 0x3191 JUMP JUMPDEST POP DUP3 SWAP8 POP DUP8 SWAP6 POP POP POP POP POP POP SWAP3 SWAP2 POP POP JUMP JUMPDEST PUSH1 0x0 PUSH2 0x31E6 DUP3 PUSH2 0x3917 JUMP JUMPDEST PUSH2 0x31F0 DUP2 DUP6 PUSH2 0x3A06 JUMP JUMPDEST SWAP4 POP PUSH2 0x31FB DUP4 PUSH2 0x38B5 JUMP JUMPDEST DUP1 PUSH1 0x0 JUMPDEST DUP4 DUP2 LT ISZERO PUSH2 0x322C JUMPI DUP2 MLOAD PUSH2 0x3213 DUP9 DUP3 PUSH2 0x2F23 JUMP JUMPDEST SWAP8 POP PUSH2 0x321E DUP4 PUSH2 0x3986 JUMP JUMPDEST SWAP3 POP POP PUSH1 0x1 DUP2 ADD SWAP1 POP PUSH2 0x31FF JUMP JUMPDEST POP DUP6 SWAP4 POP POP POP POP SWAP3 SWAP2 POP POP JUMP JUMPDEST PUSH1 0x0 PUSH2 0x3244 DUP3 PUSH2 0x3922 JUMP JUMPDEST PUSH2 0x324E DUP2 DUP6 PUSH2 0x3A17 JUMP JUMPDEST SWAP4 POP PUSH2 0x3259 DUP4 PUSH2 0x38C5 JUMP JUMPDEST DUP1 PUSH1 0x0 JUMPDEST DUP4 DUP2 LT ISZERO PUSH2 0x328A JUMPI DUP2 MLOAD PUSH2 0x3271 DUP9 DUP3 PUSH2 0x2F3B JUMP JUMPDEST SWAP8 POP PUSH2 0x327C DUP4 PUSH2 0x3993 JUMP JUMPDEST SWAP3 POP POP PUSH1 0x1 DUP2 ADD SWAP1 POP PUSH2 0x325D JUMP JUMPDEST POP DUP6 SWAP4 POP POP POP POP SWAP3 SWAP2 POP POP JUMP JUMPDEST PUSH2 0x32A0 DUP2 PUSH2 0x3A90 JUMP JUMPDEST DUP3 MSTORE POP POP JUMP JUMPDEST PUSH1 0x0 PUSH2 0x32B1 DUP3 PUSH2 0x392D JUMP JUMPDEST PUSH2 0x32BB DUP2 DUP6 PUSH2 0x3A28 JUMP JUMPDEST SWAP4 POP PUSH2 0x32CB DUP2 DUP6 PUSH1 0x20 DUP7 ADD PUSH2 0x3AD5 JUMP JUMPDEST PUSH2 0x32D4 DUP2 PUSH2 0x3C84 JUMP JUMPDEST DUP5 ADD SWAP2 POP POP SWAP3 SWAP2 POP POP JUMP JUMPDEST PUSH1 0x0 PUSH2 0x32EC PUSH1 0x3 DUP4 PUSH2 0x3A39 JUMP JUMPDEST SWAP2 POP PUSH2 0x32F7 DUP3 PUSH2 0x3C95 JUMP JUMPDEST PUSH1 0x20 DUP3 ADD SWAP1 POP SWAP2 SWAP1 POP JUMP JUMPDEST PUSH1 0x0 PUSH2 0x330F PUSH1 0x3 DUP4 PUSH2 0x3A39 JUMP JUMPDEST SWAP2 POP PUSH2 0x331A DUP3 PUSH2 0x3CBE JUMP JUMPDEST PUSH1 0x20 DUP3 ADD SWAP1 POP SWAP2 SWAP1 POP JUMP JUMPDEST PUSH1 0x0 PUSH2 0x3332 PUSH1 0x3 DUP4 PUSH2 0x3A39 JUMP JUMPDEST SWAP2 POP PUSH2 0x333D DUP3 PUSH2 0x3CE7 JUMP JUMPDEST PUSH1 0x20 DUP3 ADD SWAP1 POP SWAP2 SWAP1 POP JUMP JUMPDEST PUSH1 0x0 PUSH2 0x3355 PUSH1 0x10 DUP4 PUSH2 0x3A39 JUMP JUMPDEST SWAP2 POP PUSH2 0x3360 DUP3 PUSH2 0x3D10 JUMP JUMPDEST PUSH1 0x20 DUP3 ADD SWAP1 POP SWAP2 SWAP1 POP JUMP JUMPDEST PUSH1 0x0 PUSH2 0x3378 PUSH1 0xE DUP4 PUSH2 0x3A39 JUMP JUMPDEST SWAP2 POP PUSH2 0x3383 DUP3 PUSH2 0x3D39 JUMP JUMPDEST PUSH1 0x20 DUP3 ADD SWAP1 POP SWAP2 SWAP1 POP JUMP JUMPDEST PUSH1 0x0 PUSH2 0x339B PUSH1 0x3 DUP4 PUSH2 0x3A39 JUMP JUMPDEST SWAP2 POP PUSH2 0x33A6 DUP3 PUSH2 0x3D62 JUMP JUMPDEST PUSH1 0x20 DUP3 ADD SWAP1 POP SWAP2 SWAP1 POP JUMP JUMPDEST PUSH1 0x0 PUSH2 0x33BE PUSH1 0x3 DUP4 PUSH2 0x3A39 JUMP JUMPDEST SWAP2 POP PUSH2 0x33C9 DUP3 PUSH2 0x3D8B JUMP JUMPDEST PUSH1 0x20 DUP3 ADD SWAP1 POP SWAP2 SWAP1 POP JUMP JUMPDEST PUSH1 0x0 PUSH2 0x33E1 PUSH1 0xC DUP4 PUSH2 0x3A39 JUMP JUMPDEST SWAP2 POP PUSH2 0x33EC DUP3 PUSH2 0x3DB4 JUMP JUMPDEST PUSH1 0x20 DUP3 ADD SWAP1 POP SWAP2 SWAP1 POP JUMP JUMPDEST PUSH1 0x0 PUSH2 0x3404 PUSH1 0x3 DUP4 PUSH2 0x3A39 JUMP JUMPDEST SWAP2 POP PUSH2 0x340F DUP3 PUSH2 0x3DDD JUMP JUMPDEST PUSH1 0x20 DUP3 ADD SWAP1 POP SWAP2 SWAP1 POP JUMP JUMPDEST PUSH1 0x0 PUSH1 0x60 DUP4 ADD PUSH1 0x0 DUP4 ADD MLOAD PUSH2 0x3432 PUSH1 0x0 DUP7 ADD DUP3 PUSH2 0x2F53 JUMP JUMPDEST POP PUSH1 0x20 DUP4 ADD MLOAD DUP5 DUP3 SUB PUSH1 0x20 DUP7 ADD MSTORE PUSH2 0x344A DUP3 DUP3 PUSH2 0x2FD7 JUMP JUMPDEST SWAP2 POP POP PUSH1 0x40 DUP4 ADD MLOAD DUP5 DUP3 SUB PUSH1 0x40 DUP7 ADD MSTORE PUSH2 0x3464 DUP3 DUP3 PUSH2 0x32A6 JUMP JUMPDEST SWAP2 POP POP DUP1 SWAP2 POP POP SWAP3 SWAP2 POP POP JUMP JUMPDEST PUSH1 0x40 DUP3 ADD PUSH1 0x0 DUP3 ADD MLOAD PUSH2 0x3487 PUSH1 0x0 DUP6 ADD DUP3 PUSH2 0x2F53 JUMP JUMPDEST POP PUSH1 0x20 DUP3 ADD MLOAD PUSH2 0x349A PUSH1 0x20 DUP6 ADD DUP3 PUSH2 0x3297 JUMP JUMPDEST POP POP POP POP JUMP JUMPDEST PUSH1 0x0 PUSH1 0xA0 DUP4 ADD PUSH1 0x0 DUP4 ADD MLOAD PUSH2 0x34B8 PUSH1 0x0 DUP7 ADD DUP3 PUSH2 0x2F53 JUMP JUMPDEST POP PUSH1 0x20 DUP4 ADD MLOAD PUSH2 0x34CB PUSH1 0x20 DUP7 ADD DUP3 PUSH2 0x3648 JUMP JUMPDEST POP PUSH1 0x40 DUP4 ADD MLOAD DUP5 DUP3 SUB PUSH1 0x40 DUP7 ADD MSTORE PUSH2 0x34E3 DUP3 DUP3 PUSH2 0x2FD7 JUMP JUMPDEST SWAP2 POP POP PUSH1 0x60 DUP4 ADD MLOAD DUP5 DUP3 SUB PUSH1 0x60 DUP7 ADD MSTORE PUSH2 0x34FD DUP3 DUP3 PUSH2 0x2F62 JUMP JUMPDEST SWAP2 POP POP PUSH1 0x80 DUP4 ADD MLOAD DUP5 DUP3 SUB PUSH1 0x80 DUP7 ADD MSTORE PUSH2 0x3517 DUP3 DUP3 PUSH2 0x32A6 JUMP JUMPDEST SWAP2 POP POP DUP1 SWAP2 POP POP SWAP3 SWAP2 POP POP JUMP JUMPDEST PUSH1 0x40 DUP3 ADD PUSH1 0x0 DUP3 ADD MLOAD PUSH2 0x353A PUSH1 0x0 DUP6 ADD DUP3 PUSH2 0x3648 JUMP JUMPDEST POP PUSH1 0x20 DUP3 ADD MLOAD PUSH2 0x354D PUSH1 0x20 DUP6 ADD DUP3 PUSH2 0x3297 JUMP JUMPDEST POP POP POP POP JUMP JUMPDEST PUSH1 0x60 DUP3 ADD PUSH1 0x0 DUP3 ADD MLOAD PUSH2 0x3569 PUSH1 0x0 DUP6 ADD DUP3 PUSH2 0x3648 JUMP JUMPDEST POP PUSH1 0x20 DUP3 ADD MLOAD PUSH2 0x357C PUSH1 0x20 DUP6 ADD DUP3 PUSH2 0x3648 JUMP JUMPDEST POP PUSH1 0x40 DUP3 ADD MLOAD PUSH2 0x358F PUSH1 0x40 DUP6 ADD DUP3 PUSH2 0x3297 JUMP JUMPDEST POP POP POP POP JUMP JUMPDEST PUSH1 0x0 PUSH1 0x80 DUP4 ADD PUSH1 0x0 DUP4 ADD MLOAD PUSH2 0x35AD PUSH1 0x0 DUP7 ADD DUP3 PUSH2 0x2F53 JUMP JUMPDEST POP PUSH1 0x20 DUP4 ADD MLOAD DUP5 DUP3 SUB PUSH1 0x20 DUP7 ADD MSTORE PUSH2 0x35C5 DUP3 DUP3 PUSH2 0x32A6 JUMP JUMPDEST SWAP2 POP POP PUSH1 0x40 DUP4 ADD MLOAD DUP5 DUP3 SUB PUSH1 0x40 DUP7 ADD MSTORE PUSH2 0x35DF DUP3 DUP3 PUSH2 0x3035 JUMP JUMPDEST SWAP2 POP POP PUSH1 0x60 DUP4 ADD MLOAD DUP5 DUP3 SUB PUSH1 0x60 DUP7 ADD MSTORE PUSH2 0x35F9 DUP3 DUP3 PUSH2 0x3239 JUMP JUMPDEST SWAP2 POP POP DUP1 SWAP2 POP POP SWAP3 SWAP2 POP POP JUMP JUMPDEST PUSH1 0x60 DUP3 ADD PUSH1 0x0 DUP3 ADD MLOAD PUSH2 0x361C PUSH1 0x0 DUP6 ADD DUP3 PUSH2 0x2F53 JUMP JUMPDEST POP PUSH1 0x20 DUP3 ADD MLOAD PUSH2 0x362F PUSH1 0x20 DUP6 ADD DUP3 PUSH2 0x3648 JUMP JUMPDEST POP PUSH1 0x40 DUP3 ADD MLOAD PUSH2 0x3642 PUSH1 0x40 DUP6 ADD DUP3 PUSH2 0x3648 JUMP JUMPDEST POP POP POP POP JUMP JUMPDEST PUSH2 0x3651 DUP2 PUSH2 0x3ABC JUMP JUMPDEST DUP3 MSTORE POP POP JUMP JUMPDEST PUSH1 0x0 PUSH1 0x20 DUP3 ADD SWAP1 POP DUP2 DUP2 SUB PUSH1 0x0 DUP4 ADD MSTORE PUSH2 0x3671 DUP2 DUP5 PUSH2 0x30AA JUMP JUMPDEST SWAP1 POP SWAP3 SWAP2 POP POP JUMP JUMPDEST PUSH1 0x0 PUSH1 0x20 DUP3 ADD SWAP1 POP DUP2 DUP2 SUB PUSH1 0x0 DUP4 ADD MSTORE PUSH2 0x3693 DUP2 DUP5 PUSH2 0x3108 JUMP JUMPDEST SWAP1 POP SWAP3 SWAP2 POP POP JUMP JUMPDEST PUSH1 0x0 PUSH1 0x20 DUP3 ADD SWAP1 POP DUP2 DUP2 SUB PUSH1 0x0 DUP4 ADD MSTORE PUSH2 0x36B5 DUP2 DUP5 PUSH2 0x3166 JUMP JUMPDEST SWAP1 POP SWAP3 SWAP2 POP POP JUMP JUMPDEST PUSH1 0x0 PUSH1 0x20 DUP3 ADD SWAP1 POP DUP2 DUP2 SUB PUSH1 0x0 DUP4 ADD MSTORE PUSH2 0x36D7 DUP2 DUP5 PUSH2 0x31DB JUMP JUMPDEST SWAP1 POP SWAP3 SWAP2 POP POP JUMP JUMPDEST PUSH1 0x0 PUSH1 0x20 DUP3 ADD SWAP1 POP DUP2 DUP2 SUB PUSH1 0x0 DUP4 ADD MSTORE PUSH2 0x36F8 DUP2 PUSH2 0x32DF JUMP JUMPDEST SWAP1 POP SWAP2 SWAP1 POP JUMP JUMPDEST PUSH1 0x0 PUSH1 0x20 DUP3 ADD SWAP1 POP DUP2 DUP2 SUB PUSH1 0x0 DUP4 ADD MSTORE PUSH2 0x3718 DUP2 PUSH2 0x3302 JUMP JUMPDEST SWAP1 POP SWAP2 SWAP1 POP JUMP JUMPDEST PUSH1 0x0 PUSH1 0x20 DUP3 ADD SWAP1 POP DUP2 DUP2 SUB PUSH1 0x0 DUP4 ADD MSTORE PUSH2 0x3738 DUP2 PUSH2 0x3325 JUMP JUMPDEST SWAP1 POP SWAP2 SWAP1 POP JUMP JUMPDEST PUSH1 0x0 PUSH1 0x20 DUP3 ADD SWAP1 POP DUP2 DUP2 SUB PUSH1 0x0 DUP4 ADD MSTORE PUSH2 0x3758 DUP2 PUSH2 0x3348 JUMP JUMPDEST SWAP1 POP SWAP2 SWAP1 POP JUMP JUMPDEST PUSH1 0x0 PUSH1 0x20 DUP3 ADD SWAP1 POP DUP2 DUP2 SUB PUSH1 0x0 DUP4 ADD MSTORE PUSH2 0x3778 DUP2 PUSH2 0x336B JUMP JUMPDEST SWAP1 POP SWAP2 SWAP1 POP JUMP JUMPDEST PUSH1 0x0 PUSH1 0x20 DUP3 ADD SWAP1 POP DUP2 DUP2 SUB PUSH1 0x0 DUP4 ADD MSTORE PUSH2 0x3798 DUP2 PUSH2 0x338E JUMP JUMPDEST SWAP1 POP SWAP2 SWAP1 POP JUMP JUMPDEST PUSH1 0x0 PUSH1 0x20 DUP3 ADD SWAP1 POP DUP2 DUP2 SUB PUSH1 0x0 DUP4 ADD MSTORE PUSH2 0x37B8 DUP2 PUSH2 0x33B1 JUMP JUMPDEST SWAP1 POP SWAP2 SWAP1 POP JUMP JUMPDEST PUSH1 0x0 PUSH1 0x20 DUP3 ADD SWAP1 POP DUP2 DUP2 SUB PUSH1 0x0 DUP4 ADD MSTORE PUSH2 0x37D8 DUP2 PUSH2 0x33D4 JUMP JUMPDEST SWAP1 POP SWAP2 SWAP1 POP JUMP JUMPDEST PUSH1 0x0 PUSH1 0x20 DUP3 ADD SWAP1 POP DUP2 DUP2 SUB PUSH1 0x0 DUP4 ADD MSTORE PUSH2 0x37F8 DUP2 PUSH2 0x33F7 JUMP JUMPDEST SWAP1 POP SWAP2 SWAP1 POP JUMP JUMPDEST PUSH1 0x0 PUSH2 0x3809 PUSH2 0x381A JUMP JUMPDEST SWAP1 POP PUSH2 0x3815 DUP3 DUP3 PUSH2 0x3B3A JUMP JUMPDEST SWAP2 SWAP1 POP JUMP JUMPDEST PUSH1 0x0 PUSH1 0x40 MLOAD SWAP1 POP SWAP1 JUMP JUMPDEST PUSH1 0x0 PUSH8 0xFFFFFFFFFFFFFFFF DUP3 GT ISZERO PUSH2 0x383F JUMPI PUSH2 0x383E PUSH2 0x3C41 JUMP JUMPDEST JUMPDEST PUSH2 0x3848 DUP3 PUSH2 0x3C84 JUMP JUMPDEST SWAP1 POP PUSH1 0x20 DUP2 ADD SWAP1 POP SWAP2 SWAP1 POP JUMP JUMPDEST PUSH1 0x0 DUP2 SWAP1 POP PUSH1 0x20 DUP3 ADD SWAP1 POP SWAP2 SWAP1 POP JUMP JUMPDEST PUSH1 0x0 DUP2 SWAP1 POP PUSH1 0x20 DUP3 ADD SWAP1 POP SWAP2 SWAP1 POP JUMP JUMPDEST PUSH1 0x0 DUP2 SWAP1 POP PUSH1 0x20 DUP3 ADD SWAP1 POP SWAP2 SWAP1 POP JUMP JUMPDEST PUSH1 0x0 DUP2 SWAP1 POP PUSH1 0x20 DUP3 ADD SWAP1 POP SWAP2 SWAP1 POP JUMP JUMPDEST PUSH1 0x0 DUP2 SWAP1 POP PUSH1 0x20 DUP3 ADD SWAP1 POP SWAP2 SWAP1 POP JUMP JUMPDEST PUSH1 0x0 DUP2 SWAP1 POP PUSH1 0x20 DUP3 ADD SWAP1 POP SWAP2 SWAP1 POP JUMP JUMPDEST PUSH1 0x0 DUP2 SWAP1 POP PUSH1 0x20 DUP3 ADD SWAP1 POP SWAP2 SWAP1 POP JUMP JUMPDEST PUSH1 0x0 DUP2 SWAP1 POP PUSH1 0x20 DUP3 ADD SWAP1 POP SWAP2 SWAP1 POP JUMP JUMPDEST PUSH1 0x0 DUP2 MLOAD SWAP1 POP SWAP2 SWAP1 POP JUMP JUMPDEST PUSH1 0x0 DUP2 MLOAD SWAP1 POP SWAP2 SWAP1 POP JUMP JUMPDEST PUSH1 0x0 DUP2 MLOAD SWAP1 POP SWAP2 SWAP1 POP JUMP JUMPDEST PUSH1 0x0 DUP2 MLOAD SWAP1 POP SWAP2 SWAP1 POP JUMP JUMPDEST PUSH1 0x0 DUP2 MLOAD SWAP1 POP SWAP2 SWAP1 POP JUMP JUMPDEST PUSH1 0x0 DUP2 MLOAD SWAP1 POP SWAP2 SWAP1 POP JUMP JUMPDEST PUSH1 0x0 DUP2 MLOAD SWAP1 POP SWAP2 SWAP1 POP JUMP JUMPDEST PUSH1 0x0 DUP2 MLOAD SWAP1 POP SWAP2 SWAP1 POP JUMP JUMPDEST PUSH1 0x0 DUP2 MLOAD SWAP1 POP SWAP2 SWAP1 POP JUMP JUMPDEST PUSH1 0x0 PUSH1 0x20 DUP3 ADD SWAP1 POP SWAP2 SWAP1 POP JUMP JUMPDEST PUSH1 0x0 PUSH1 0x20 DUP3 ADD SWAP1 POP SWAP2 SWAP1 POP JUMP JUMPDEST PUSH1 0x0 PUSH1 0x20 DUP3 ADD SWAP1 POP SWAP2 SWAP1 POP JUMP JUMPDEST PUSH1 0x0 PUSH1 0x20 DUP3 ADD SWAP1 POP SWAP2 SWAP1 POP JUMP JUMPDEST PUSH1 0x0 PUSH1 0x20 DUP3 ADD SWAP1 POP SWAP2 SWAP1 POP JUMP JUMPDEST PUSH1 0x0 PUSH1 0x20 DUP3 ADD SWAP1 POP SWAP2 SWAP1 POP JUMP JUMPDEST PUSH1 0x0 PUSH1 0x20 DUP3 ADD SWAP1 POP SWAP2 SWAP1 POP JUMP JUMPDEST PUSH1 0x0 PUSH1 0x20 DUP3 ADD SWAP1 POP SWAP2 SWAP1 POP JUMP JUMPDEST PUSH1 0x0 DUP3 DUP3 MSTORE PUSH1 0x20 DUP3 ADD SWAP1 POP SWAP3 SWAP2 POP POP JUMP JUMPDEST PUSH1 0x0 DUP3 DUP3 MSTORE PUSH1 0x20 DUP3 ADD SWAP1 POP SWAP3 SWAP2 POP POP JUMP JUMPDEST PUSH1 0x0 DUP3 DUP3 MSTORE PUSH1 0x20 DUP3 ADD SWAP1 POP SWAP3 SWAP2 POP POP JUMP JUMPDEST PUSH1 0x0 DUP3 DUP3 MSTORE PUSH1 0x20 DUP3 ADD SWAP1 POP SWAP3 SWAP2 POP POP JUMP JUMPDEST PUSH1 0x0 DUP3 DUP3 MSTORE PUSH1 0x20 DUP3 ADD SWAP1 POP SWAP3 SWAP2 POP POP JUMP JUMPDEST PUSH1 0x0 DUP3 DUP3 MSTORE PUSH1 0x20 DUP3 ADD SWAP1 POP SWAP3 SWAP2 POP POP JUMP JUMPDEST PUSH1 0x0 DUP3 DUP3 MSTORE PUSH1 0x20 DUP3 ADD SWAP1 POP SWAP3 SWAP2 POP POP JUMP JUMPDEST PUSH1 0x0 DUP3 DUP3 MSTORE PUSH1 0x20 DUP3 ADD SWAP1 POP SWAP3 SWAP2 POP POP JUMP JUMPDEST PUSH1 0x0 DUP3 DUP3 MSTORE PUSH1 0x20 DUP3 ADD SWAP1 POP SWAP3 SWAP2 POP POP JUMP JUMPDEST PUSH1 0x0 DUP3 DUP3 MSTORE PUSH1 0x20 DUP3 ADD SWAP1 POP SWAP3 SWAP2 POP POP JUMP JUMPDEST PUSH1 0x0 PUSH2 0x3A55 DUP3 PUSH2 0x3ABC JUMP JUMPDEST SWAP2 POP PUSH2 0x3A60 DUP4 PUSH2 0x3ABC JUMP JUMPDEST SWAP3 POP DUP3 DUP3 LT ISZERO PUSH2 0x3A73 JUMPI PUSH2 0x3A72 PUSH2 0x3BB4 JUMP JUMPDEST JUMPDEST DUP3 DUP3 SUB SWAP1 POP SWAP3 SWAP2 POP POP JUMP JUMPDEST PUSH1 0x0 PUSH2 0x3A89 DUP3 PUSH2 0x3A9C JUMP JUMPDEST SWAP1 POP SWAP2 SWAP1 POP JUMP JUMPDEST PUSH1 0x0 DUP2 ISZERO ISZERO SWAP1 POP SWAP2 SWAP1 POP JUMP JUMPDEST PUSH1 0x0 PUSH20 0xFFFFFFFFFFFFFFFFFFFFFFFFFFFFFFFFFFFFFFFF DUP3 AND SWAP1 POP SWAP2 SWAP1 POP JUMP JUMPDEST PUSH1 0x0 DUP2 SWAP1 POP SWAP2 SWAP1 POP JUMP JUMPDEST DUP3 DUP2 DUP4 CALLDATACOPY PUSH1 0x0 DUP4 DUP4 ADD MSTORE POP POP POP JUMP JUMPDEST PUSH1 0x0 JUMPDEST DUP4 DUP2 LT ISZERO PUSH2 0x3AF3 JUMPI DUP1 DUP3 ADD MLOAD DUP2 DUP5 ADD MSTORE PUSH1 0x20 DUP2 ADD SWAP1 POP PUSH2 0x3AD8 JUMP JUMPDEST DUP4 DUP2 GT ISZERO PUSH2 0x3B02 JUMPI PUSH1 0x0 DUP5 DUP5 ADD MSTORE JUMPDEST POP POP POP POP JUMP JUMPDEST PUSH1 0x0 PUSH1 0x2 DUP3 DIV SWAP1 POP PUSH1 0x1 DUP3 AND DUP1 PUSH2 0x3B20 JUMPI PUSH1 0x7F DUP3 AND SWAP2 POP JUMPDEST PUSH1 0x20 DUP3 LT DUP2 EQ ISZERO PUSH2 0x3B34 JUMPI PUSH2 0x3B33 PUSH2 0x3BE3 JUMP JUMPDEST JUMPDEST POP SWAP2 SWAP1 POP JUMP JUMPDEST PUSH2 0x3B43 DUP3 PUSH2 0x3C84 JUMP JUMPDEST DUP2 ADD DUP2 DUP2 LT PUSH8 0xFFFFFFFFFFFFFFFF DUP3 GT OR ISZERO PUSH2 0x3B62 JUMPI PUSH2 0x3B61 PUSH2 0x3C41 JUMP JUMPDEST JUMPDEST DUP1 PUSH1 0x40 MSTORE POP POP POP JUMP JUMPDEST PUSH1 0x0 PUSH2 0x3B76 DUP3 PUSH2 0x3ABC JUMP JUMPDEST SWAP2 POP PUSH32 0xFFFFFFFFFFFFFFFFFFFFFFFFFFFFFFFFFFFFFFFFFFFFFFFFFFFFFFFFFFFFFFFF DUP3 EQ ISZERO PUSH2 0x3BA9 JUMPI PUSH2 0x3BA8 PUSH2 0x3BB4 JUMP JUMPDEST JUMPDEST PUSH1 0x1 DUP3 ADD SWAP1 POP SWAP2 SWAP1 POP JUMP JUMPDEST PUSH32 0x4E487B7100000000000000000000000000000000000000000000000000000000 PUSH1 0x0 MSTORE PUSH1 0x11 PUSH1 0x4 MSTORE PUSH1 0x24 PUSH1 0x0 REVERT JUMPDEST PUSH32 0x4E487B7100000000000000000000000000000000000000000000000000000000 PUSH1 0x0 MSTORE PUSH1 0x22 PUSH1 0x4 MSTORE PUSH1 0x24 PUSH1 0x0 REVERT JUMPDEST PUSH32 0x4E487B7100000000000000000000000000000000000000000000000000000000 PUSH1 0x0 MSTORE PUSH1 0x32 PUSH1 0x4 MSTORE PUSH1 0x24 PUSH1 0x0 REVERT JUMPDEST PUSH32 0x4E487B7100000000000000000000000000000000000000000000000000000000 PUSH1 0x0 MSTORE PUSH1 0x41 PUSH1 0x4 MSTORE PUSH1 0x24 PUSH1 0x0 REVERT JUMPDEST PUSH1 0x0 DUP1 REVERT JUMPDEST PUSH1 0x0 DUP1 REVERT JUMPDEST PUSH1 0x0 DUP1 REVERT JUMPDEST PUSH1 0x0 DUP1 REVERT JUMPDEST PUSH1 0x0 PUSH1 0x1F NOT PUSH1 0x1F DUP4 ADD AND SWAP1 POP SWAP2 SWAP1 POP JUMP JUMPDEST PUSH32 0x3130340000000000000000000000000000000000000000000000000000000000 PUSH1 0x0 DUP3 ADD MSTORE POP JUMP JUMPDEST PUSH32 0x3130300000000000000000000000000000000000000000000000000000000000 PUSH1 0x0 DUP3 ADD MSTORE POP JUMP JUMPDEST PUSH32 0x3230310000000000000000000000000000000000000000000000000000000000 PUSH1 0x0 DUP3 ADD MSTORE POP JUMP JUMPDEST PUSH32 0x5520616C72656164792061646D696E2100000000000000000000000000000000 PUSH1 0x0 DUP3 ADD MSTORE POP JUMP JUMPDEST PUSH32 0x49742069736E27742073686F7021000000000000000000000000000000000000 PUSH1 0x0 DUP3 ADD MSTORE POP JUMP JUMPDEST PUSH32 0x3130330000000000000000000000000000000000000000000000000000000000 PUSH1 0x0 DUP3 ADD MSTORE POP JUMP JUMPDEST PUSH32 0x3230300000000000000000000000000000000000000000000000000000000000 PUSH1 0x0 DUP3 ADD MSTORE POP JUMP JUMPDEST PUSH32 0x53686F7020657869737473210000000000000000000000000000000000000000 PUSH1 0x0 DUP3 ADD MSTORE POP JUMP JUMPDEST PUSH32 0x3130310000000000000000000000000000000000000000000000000000000000 PUSH1 0x0 DUP3 ADD MSTORE POP JUMP JUMPDEST PUSH2 0x3E0F DUP2 PUSH2 0x3A7E JUMP JUMPDEST DUP2 EQ PUSH2 0x3E1A JUMPI PUSH1 0x0 DUP1 REVERT JUMPDEST POP JUMP JUMPDEST PUSH2 0x3E26 DUP2 PUSH2 0x3A90 JUMP JUMPDEST DUP2 EQ PUSH2 0x3E31 JUMPI PUSH1 0x0 DUP1 REVERT JUMPDEST POP JUMP JUMPDEST PUSH2 0x3E3D DUP2 PUSH2 0x3ABC JUMP JUMPDEST DUP2 EQ PUSH2 0x3E48 JUMPI PUSH1 0x0 DUP1 REVERT JUMPDEST POP JUMP INVALID LOG2 PUSH5 0x6970667358 0x22 SLT KECCAK256 0xAD 0x21 PUSH30 0x184E19EC8D642514583359A5AC80CAEEC98A0290B8CE55383CF3FC765864 PUSH20 0x6F6C634300080700330000000000000000000000 "
				},
				"gasEstimates": {
					"creation": {
						"codeDepositCost": "3200200",
						"executionCost": "infinite",
						"totalCost": "infinite"
					},
					"external": {
						"addAdmin(address)": "infinite",
						"addComment(uint256,uint256,string)": "infinite",
						"addLike(uint256,uint256,bool)": "infinite",
						"addLike(uint256,uint256,uint256,bool)": "infinite",
						"addMark(uint256,uint256,string)": "infinite",
						"addShop(address,string)": "infinite",
						"deleteShop(uint256)": "infinite",
						"downToUser(uint256)": "infinite",
						"globalSwitchRequest()": "infinite",
						"regUser()": "infinite",
						"switchRequestFor(uint256)": "infinite",
						"switchToUser()": "infinite",
						"upToSeller(uint256)": "infinite",
						"view_Requests_Sellers()": "infinite",
						"view_Requests_Users()": "infinite",
						"view_Shops()": "infinite",
						"view_Users()": "infinite"
					},
					"internal": {
						"regUser(address,uint256)": "infinite"
					}
				},
				"methodIdentifiers": {
					"addAdmin(address)": "70480275",
					"addComment(uint256,uint256,string)": "ab122ef5",
					"addLike(uint256,uint256,bool)": "4384a79f",
					"addLike(uint256,uint256,uint256,bool)": "66b2f791",
					"addMark(uint256,uint256,string)": "0082f88e",
					"addShop(address,string)": "1c618eb3",
					"deleteShop(uint256)": "3efdebf1",
					"downToUser(uint256)": "329fb8d6",
					"globalSwitchRequest()": "2e91d706",
					"regUser()": "3b95a23f",
					"switchRequestFor(uint256)": "19e76680",
					"switchToUser()": "49b15962",
					"upToSeller(uint256)": "1a0550e3",
					"view_Requests_Sellers()": "6b65750e",
					"view_Requests_Users()": "8f055d8a",
					"view_Shops()": "240185b6",
					"view_Users()": "ad81f803"
				}
			},
			"storageLayout": {
				"storage": [
					{
						"astId": 65,
						"contract": "src/libs/shop.sol:Shop",
						"label": "Shops",
						"offset": 0,
						"slot": "0",
						"type": "t_array(t_struct(shop)20_storage)dyn_storage"
					},
					{
						"astId": 69,
						"contract": "src/libs/shop.sol:Shop",
						"label": "Users",
						"offset": 0,
						"slot": "1",
						"type": "t_array(t_struct(user)8_storage)dyn_storage"
					},
					{
						"astId": 73,
						"contract": "src/libs/shop.sol:Shop",
						"label": "RequestsForSellers",
						"offset": 0,
						"slot": "2",
						"type": "t_array(t_struct(requestForSeller)25_storage)dyn_storage"
					},
					{
						"astId": 77,
						"contract": "src/libs/shop.sol:Shop",
						"label": "RequestsForUsers",
						"offset": 0,
						"slot": "3",
						"type": "t_array(t_struct(requestForUser)32_storage)dyn_storage"
					}
				],
				"types": {
					"t_address": {
						"encoding": "inplace",
						"label": "address",
						"numberOfBytes": "20"
					},
					"t_array(t_struct(comment)61_storage)dyn_storage": {
						"base": "t_struct(comment)61_storage",
						"encoding": "dynamic_array",
						"label": "struct Shop.comment[]",
						"numberOfBytes": "32"
					},
					"t_array(t_struct(like)37_storage)dyn_storage": {
						"base": "t_struct(like)37_storage",
						"encoding": "dynamic_array",
						"label": "struct Shop.like[]",
						"numberOfBytes": "32"
					},
					"t_array(t_struct(mark)52_storage)dyn_storage": {
						"base": "t_struct(mark)52_storage",
						"encoding": "dynamic_array",
						"label": "struct Shop.mark[]",
						"numberOfBytes": "32"
					},
					"t_array(t_struct(requestForSeller)25_storage)dyn_storage": {
						"base": "t_struct(requestForSeller)25_storage",
						"encoding": "dynamic_array",
						"label": "struct Shop.requestForSeller[]",
						"numberOfBytes": "32"
					},
					"t_array(t_struct(requestForUser)32_storage)dyn_storage": {
						"base": "t_struct(requestForUser)32_storage",
						"encoding": "dynamic_array",
						"label": "struct Shop.requestForUser[]",
						"numberOfBytes": "32"
					},
					"t_array(t_struct(shop)20_storage)dyn_storage": {
						"base": "t_struct(shop)20_storage",
						"encoding": "dynamic_array",
						"label": "struct Shop.shop[]",
						"numberOfBytes": "32"
					},
					"t_array(t_struct(user)8_storage)dyn_storage": {
						"base": "t_struct(user)8_storage",
						"encoding": "dynamic_array",
						"label": "struct Shop.user[]",
						"numberOfBytes": "32"
					},
					"t_array(t_uint256)dyn_storage": {
						"base": "t_uint256",
						"encoding": "dynamic_array",
						"label": "uint256[]",
						"numberOfBytes": "32"
					},
					"t_bool": {
						"encoding": "inplace",
						"label": "bool",
						"numberOfBytes": "1"
					},
					"t_string_storage": {
						"encoding": "bytes",
						"label": "string",
						"numberOfBytes": "32"
					},
					"t_struct(comment)61_storage": {
						"encoding": "inplace",
						"label": "struct Shop.comment",
						"members": [
							{
								"astId": 54,
								"contract": "src/libs/shop.sol:Shop",
								"label": "sender",
								"offset": 0,
								"slot": "0",
								"type": "t_address"
							},
							{
								"astId": 58,
								"contract": "src/libs/shop.sol:Shop",
								"label": "likes",
								"offset": 0,
								"slot": "1",
								"type": "t_array(t_struct(like)37_storage)dyn_storage"
							},
							{
								"astId": 60,
								"contract": "src/libs/shop.sol:Shop",
								"label": "description",
								"offset": 0,
								"slot": "2",
								"type": "t_string_storage"
							}
						],
						"numberOfBytes": "96"
					},
					"t_struct(like)37_storage": {
						"encoding": "inplace",
						"label": "struct Shop.like",
						"members": [
							{
								"astId": 34,
								"contract": "src/libs/shop.sol:Shop",
								"label": "appraiser",
								"offset": 0,
								"slot": "0",
								"type": "t_address"
							},
							{
								"astId": 36,
								"contract": "src/libs/shop.sol:Shop",
								"label": "isLiked",
								"offset": 20,
								"slot": "0",
								"type": "t_bool"
							}
						],
						"numberOfBytes": "32"
					},
					"t_struct(mark)52_storage": {
						"encoding": "inplace",
						"label": "struct Shop.mark",
						"members": [
							{
								"astId": 39,
								"contract": "src/libs/shop.sol:Shop",
								"label": "appraiser",
								"offset": 0,
								"slot": "0",
								"type": "t_address"
							},
							{
								"astId": 41,
								"contract": "src/libs/shop.sol:Shop",
								"label": "rating",
								"offset": 0,
								"slot": "1",
								"type": "t_uint256"
							},
							{
								"astId": 45,
								"contract": "src/libs/shop.sol:Shop",
								"label": "likes",
								"offset": 0,
								"slot": "2",
								"type": "t_array(t_struct(like)37_storage)dyn_storage"
							},
							{
								"astId": 49,
								"contract": "src/libs/shop.sol:Shop",
								"label": "comments",
								"offset": 0,
								"slot": "3",
								"type": "t_array(t_struct(comment)61_storage)dyn_storage"
							},
							{
								"astId": 51,
								"contract": "src/libs/shop.sol:Shop",
								"label": "description",
								"offset": 0,
								"slot": "4",
								"type": "t_string_storage"
							}
						],
						"numberOfBytes": "160"
					},
					"t_struct(requestForSeller)25_storage": {
						"encoding": "inplace",
						"label": "struct Shop.requestForSeller",
						"members": [
							{
								"astId": 22,
								"contract": "src/libs/shop.sol:Shop",
								"label": "idRequester",
								"offset": 0,
								"slot": "0",
								"type": "t_uint256"
							},
							{
								"astId": 24,
								"contract": "src/libs/shop.sol:Shop",
								"label": "status",
								"offset": 0,
								"slot": "1",
								"type": "t_bool"
							}
						],
						"numberOfBytes": "64"
					},
					"t_struct(requestForUser)32_storage": {
						"encoding": "inplace",
						"label": "struct Shop.requestForUser",
						"members": [
							{
								"astId": 27,
								"contract": "src/libs/shop.sol:Shop",
								"label": "idRequester",
								"offset": 0,
								"slot": "0",
								"type": "t_uint256"
							},
							{
								"astId": 29,
								"contract": "src/libs/shop.sol:Shop",
								"label": "idShop",
								"offset": 0,
								"slot": "1",
								"type": "t_uint256"
							},
							{
								"astId": 31,
								"contract": "src/libs/shop.sol:Shop",
								"label": "status",
								"offset": 0,
								"slot": "2",
								"type": "t_bool"
							}
						],
						"numberOfBytes": "96"
					},
					"t_struct(shop)20_storage": {
						"encoding": "inplace",
						"label": "struct Shop.shop",
						"members": [
							{
								"astId": 10,
								"contract": "src/libs/shop.sol:Shop",
								"label": "shop",
								"offset": 0,
								"slot": "0",
								"type": "t_address"
							},
							{
								"astId": 12,
								"contract": "src/libs/shop.sol:Shop",
								"label": "city",
								"offset": 0,
								"slot": "1",
								"type": "t_string_storage"
							},
							{
								"astId": 16,
								"contract": "src/libs/shop.sol:Shop",
								"label": "bookOfMarks",
								"offset": 0,
								"slot": "2",
								"type": "t_array(t_struct(mark)52_storage)dyn_storage"
							},
							{
								"astId": 19,
								"contract": "src/libs/shop.sol:Shop",
								"label": "sellers",
								"offset": 0,
								"slot": "3",
								"type": "t_array(t_uint256)dyn_storage"
							}
						],
						"numberOfBytes": "128"
					},
					"t_struct(user)8_storage": {
						"encoding": "inplace",
						"label": "struct Shop.user",
						"members": [
							{
								"astId": 3,
								"contract": "src/libs/shop.sol:Shop",
								"label": "user",
								"offset": 0,
								"slot": "0",
								"type": "t_address"
							},
							{
								"astId": 5,
								"contract": "src/libs/shop.sol:Shop",
								"label": "role",
								"offset": 0,
								"slot": "1",
								"type": "t_uint256"
							},
							{
								"astId": 7,
								"contract": "src/libs/shop.sol:Shop",
								"label": "nowRole",
								"offset": 0,
								"slot": "2",
								"type": "t_uint256"
							}
						],
						"numberOfBytes": "96"
					},
					"t_uint256": {
						"encoding": "inplace",
						"label": "uint256",
						"numberOfBytes": "32"
					}
				}
			},
			"userdoc": {
				"kind": "user",
				"methods": {},
				"version": 1
			}
		}
	}
}