{
	"data": {
		"bytecode": {
			"linkReferences": {},
			"object": "60806040523480156200001157600080fd5b5062000039732eeb8e636d2b7bf006aef7df63c1b388c3d0bb5e60006200017260201b60201c565b620000607355cc20d0cddfed1f06b669a8ff6eba58218bbbd760016200017260201b60201c565b6200008773b033788a9a2a69e4d007b05ad15893ba57f788c760026200017260201b60201c565b620000ae73692beb097e09a1fd74dafa495705d9cbdce84bf960026200017260201b60201c565b62000109733fe4252b00b1b6aa40b172410b02025fb3bfa8046040518060400160405280600381526020017f4b4c4700000000000000000000000000000000000000000000000000000000008152506200035960201b60201c565b600060016000805490506200011f919062000b11565b8154811062000133576200013262000c38565b5b90600052602060002090600402016003016001908060018154018082558091505060019003906000526020600020016000909190919091505562000d5d565b8160005b60018054905081101562000254578173ffffffffffffffffffffffffffffffffffffffff1660018281548110620001b257620001b162000c38565b5b906000526020600020906003020160000160009054906101000a900473ffffffffffffffffffffffffffffffffffffffff1673ffffffffffffffffffffffffffffffffffffffff1614156200023e576040517f08c379a0000000000000000000000000000000000000000000000000000000008152600401620002359062000a78565b60405180910390fd5b80806200024b9062000b8c565b91505062000176565b50600382106200029b576040517f08c379a0000000000000000000000000000000000000000000000000000000008152600401620002929062000a34565b60405180910390fd5b600160405180606001604052808573ffffffffffffffffffffffffffffffffffffffff16815260200184815260200184815250908060018154018082558091505060019003906000526020600020906003020160009091909190915060008201518160000160006101000a81548173ffffffffffffffffffffffffffffffffffffffff021916908373ffffffffffffffffffffffffffffffffffffffff16021790555060208201518160010155604082015181600201555050505050565b336000805b60018054905081101562000409578273ffffffffffffffffffffffffffffffffffffffff16600182815481106200039a576200039962000c38565b5b906000526020600020906003020160000160009054906101000a900473ffffffffffffffffffffffffffffffffffffffff1673ffffffffffffffffffffffffffffffffffffffff161415620003f3576001915062000409565b8080620004009062000b8c565b9150506200035e565b50806200044d576040517f08c379a0000000000000000000000000000000000000000000000000000000008152600401620004449062000abc565b60405180910390fd5b3360005b60018054905081101562000566578173ffffffffffffffffffffffffffffffffffffffff16600182815481106200048d576200048c62000c38565b5b906000526020600020906003020160000160009054906101000a900473ffffffffffffffffffffffffffffffffffffffff1673ffffffffffffffffffffffffffffffffffffffff1614156200055057600060018281548110620004f557620004f462000c38565b5b906000526020600020906003020160020154146200054a576040517f08c379a0000000000000000000000000000000000000000000000000000000008152600401620005419062000a56565b60405180910390fd5b62000566565b80806200055d9062000b8c565b91505062000451565b508460005b60018054905081101562000649578173ffffffffffffffffffffffffffffffffffffffff1660018281548110620005a757620005a662000c38565b5b906000526020600020906003020160000160009054906101000a900473ffffffffffffffffffffffffffffffffffffffff1673ffffffffffffffffffffffffffffffffffffffff16141562000633576040517f08c379a00000000000000000000000000000000000000000000000000000000081526004016200062a9062000a78565b60405180910390fd5b8080620006409062000b8c565b9150506200056b565b508560005b6001805490508110156200072c578173ffffffffffffffffffffffffffffffffffffffff16600182815481106200068a576200068962000c38565b5b906000526020600020906003020160000160009054906101000a900473ffffffffffffffffffffffffffffffffffffffff1673ffffffffffffffffffffffffffffffffffffffff16141562000716576040517f08c379a00000000000000000000000000000000000000000000000000000000081526004016200070d9062000a9a565b60405180910390fd5b8080620007239062000b8c565b9150506200064e565b5060005b6000805490508110156200080e578173ffffffffffffffffffffffffffffffffffffffff16600082815481106200076c576200076b62000c38565b5b906000526020600020906004020160000160009054906101000a900473ffffffffffffffffffffffffffffffffffffffff1673ffffffffffffffffffffffffffffffffffffffff161415620007f8576040517f08c379a0000000000000000000000000000000000000000000000000000000008152600401620007ef9062000ade565b60405180910390fd5b8080620008059062000b8c565b91505062000730565b506000806001816001815401808255809150500390600052602060002090600402019050878160000160006101000a81548173ffffffffffffffffffffffffffffffffffffffff021916908373ffffffffffffffffffffffffffffffffffffffff160217905550868160010190805190602001906200088f9291906200089a565b505050505050505050565b828054620008a89062000b56565b90600052602060002090601f016020900481019282620008cc576000855562000918565b82601f10620008e757805160ff191683800117855562000918565b8280016001018555821562000918579182015b8281111562000917578251825591602001919060010190620008fa565b5b5090506200092791906200092b565b5090565b5b80821115620009465760008160009055506001016200092c565b5090565b60006200095960038362000b00565b9150620009668262000c67565b602082019050919050565b60006200098060038362000b00565b91506200098d8262000c90565b602082019050919050565b6000620009a760038362000b00565b9150620009b48262000cb9565b602082019050919050565b6000620009ce600e8362000b00565b9150620009db8262000ce2565b602082019050919050565b6000620009f560038362000b00565b915062000a028262000d0b565b602082019050919050565b600062000a1c600c8362000b00565b915062000a298262000d34565b602082019050919050565b6000602082019050818103600083015262000a4f816200094a565b9050919050565b6000602082019050818103600083015262000a718162000971565b9050919050565b6000602082019050818103600083015262000a938162000998565b9050919050565b6000602082019050818103600083015262000ab581620009bf565b9050919050565b6000602082019050818103600083015262000ad781620009e6565b9050919050565b6000602082019050818103600083015262000af98162000a0d565b9050919050565b600082825260208201905092915050565b600062000b1e8262000b4c565b915062000b2b8362000b4c565b92508282101562000b415762000b4062000bda565b5b828203905092915050565b6000819050919050565b6000600282049050600182168062000b6f57607f821691505b6020821081141562000b865762000b8562000c09565b5b50919050565b600062000b998262000b4c565b91507fffffffffffffffffffffffffffffffffffffffffffffffffffffffffffffffff82141562000bcf5762000bce62000bda565b5b600182019050919050565b7f4e487b7100000000000000000000000000000000000000000000000000000000600052601160045260246000fd5b7f4e487b7100000000000000000000000000000000000000000000000000000000600052602260045260246000fd5b7f4e487b7100000000000000000000000000000000000000000000000000000000600052603260045260246000fd5b7f3130320000000000000000000000000000000000000000000000000000000000600082015250565b7f3130300000000000000000000000000000000000000000000000000000000000600082015250565b7f3230310000000000000000000000000000000000000000000000000000000000600082015250565b7f49742069736e27742073686f7021000000000000000000000000000000000000600082015250565b7f3230300000000000000000000000000000000000000000000000000000000000600082015250565b7f53686f7020657869737473210000000000000000000000000000000000000000600082015250565b613efd8062000d6d6000396000f3fe608060405234801561001057600080fd5b506004361061010a5760003560e01c80633efdebf1116100a25780636b65750e116100715780636b65750e1461022b57806370480275146102495780638f055d8a14610265578063ab122ef514610283578063ad81f8031461029f5761010a565b80633efdebf1146101cd5780634384a79f146101e957806349b159621461020557806366b2f7911461020f5761010a565b8063240185b6116100de578063240185b61461017f5780632e91d7061461019d578063329fb8d6146101a75780633b95a23f146101c35761010a565b806282f88e1461010f5780631a0550e31461012b5780631c618eb3146101475780631c840be714610163575b600080fd5b61012960048036038101906101249190612e45565b6102bd565b005b61014560048036038101906101409190612dc5565b6104d0565b005b610161600480360381019061015c9190612d69565b6107ec565b005b61017d60048036038101906101789190612dc5565b610cf2565b005b610187610e7f565b6040516101949190613717565b60405180910390f35b6101a561144e565b005b6101c160048036038101906101bc9190612dc5565b6115ca565b005b6101cb611924565b005b6101e760048036038101906101e29190612dc5565b611abb565b005b61020360048036038101906101fe9190612df2565b611c59565b005b61020d611e6d565b005b61022960048036038101906102249190612eb4565b61204c565b005b610233612284565b60405161024091906136d3565b60405180910390f35b610263600480360381019061025e9190612d3c565b612308565b005b61026d612662565b60405161027a91906136f5565b60405180910390f35b61029d60048036038101906102989190612e45565b6126f0565b005b6102a7612931565b6040516102b49190613739565b60405180910390f35b600083815481106102d1576102d0613c8e565b5b906000526020600020906004020160020160018160018154018082558091505003906000526020600020905050336000848154811061031357610312613c8e565b5b906000526020600020906004020160020160016000868154811061033a57610339613c8e565b5b9060005260206000209060040201600201805490506103599190613ac6565b8154811061036a57610369613c8e565b5b906000526020600020906005020160000160006101000a81548173ffffffffffffffffffffffffffffffffffffffff021916908373ffffffffffffffffffffffffffffffffffffffff16021790555081600084815481106103ce576103cd613c8e565b5b90600052602060002090600402016002016001600086815481106103f5576103f4613c8e565b5b9060005260206000209060040201600201805490506104149190613ac6565b8154811061042557610424613c8e565b5b906000526020600020906005020160010181905550806000848154811061044f5761044e613c8e565b5b906000526020600020906004020160020160016000868154811061047657610475613c8e565b5b9060005260206000209060040201600201805490506104959190613ac6565b815481106104a6576104a5613c8e565b5b906000526020600020906005020160040190805190602001906104ca9291906129fa565b50505050565b336000805b600180549050811015610577578273ffffffffffffffffffffffffffffffffffffffff166001828154811061050d5761050c613c8e565b5b906000526020600020906003020160000160009054906101000a900473ffffffffffffffffffffffffffffffffffffffff1673ffffffffffffffffffffffffffffffffffffffff1614156105645760019150610577565b808061056f90613be7565b9150506104d5565b50806105b8576040517f08c379a00000000000000000000000000000000000000000000000000000000081526004016105af9061381b565b60405180910390fd5b3360005b6001805490508110156106c2578173ffffffffffffffffffffffffffffffffffffffff16600182815481106105f4576105f3613c8e565b5b906000526020600020906003020160000160009054906101000a900473ffffffffffffffffffffffffffffffffffffffff1673ffffffffffffffffffffffffffffffffffffffff1614156106af5760006001828154811061065857610657613c8e565b5b906000526020600020906003020160020154146106aa576040517f08c379a00000000000000000000000000000000000000000000000000000000081526004016106a19061377b565b60405180910390fd5b6106c2565b80806106ba90613be7565b9150506105bc565b50600180600386815481106106da576106d9613c8e565b5b906000526020600020906003020160000154815481106106fd576106fc613c8e565b5b90600052602060002090600302016001018190555060006003858154811061072857610727613c8e565b5b9060005260206000209060030201600101548154811061074b5761074a613c8e565b5b9060005260206000209060040201600301600385815481106107705761076f613c8e565b5b90600052602060002090600302016000015490806001815401808255809150506001900390600052602060002001600090919091909150556001600385815481106107be576107bd613c8e565b5b906000526020600020906003020160020160006101000a81548160ff02191690831515021790555050505050565b336000805b600180549050811015610893578273ffffffffffffffffffffffffffffffffffffffff166001828154811061082957610828613c8e565b5b906000526020600020906003020160000160009054906101000a900473ffffffffffffffffffffffffffffffffffffffff1673ffffffffffffffffffffffffffffffffffffffff1614156108805760019150610893565b808061088b90613be7565b9150506107f1565b50806108d4576040517f08c379a00000000000000000000000000000000000000000000000000000000081526004016108cb9061381b565b60405180910390fd5b3360005b6001805490508110156109de578173ffffffffffffffffffffffffffffffffffffffff16600182815481106109105761090f613c8e565b5b906000526020600020906003020160000160009054906101000a900473ffffffffffffffffffffffffffffffffffffffff1673ffffffffffffffffffffffffffffffffffffffff1614156109cb5760006001828154811061097457610973613c8e565b5b906000526020600020906003020160020154146109c6576040517f08c379a00000000000000000000000000000000000000000000000000000000081526004016109bd9061377b565b60405180910390fd5b6109de565b80806109d690613be7565b9150506108d8565b508460005b600180549050811015610ab7578173ffffffffffffffffffffffffffffffffffffffff1660018281548110610a1b57610a1a613c8e565b5b906000526020600020906003020160000160009054906101000a900473ffffffffffffffffffffffffffffffffffffffff1673ffffffffffffffffffffffffffffffffffffffff161415610aa4576040517f08c379a0000000000000000000000000000000000000000000000000000000008152600401610a9b9061379b565b60405180910390fd5b8080610aaf90613be7565b9150506109e3565b508560005b600180549050811015610b90578173ffffffffffffffffffffffffffffffffffffffff1660018281548110610af457610af3613c8e565b5b906000526020600020906003020160000160009054906101000a900473ffffffffffffffffffffffffffffffffffffffff1673ffffffffffffffffffffffffffffffffffffffff161415610b7d576040517f08c379a0000000000000000000000000000000000000000000000000000000008152600401610b74906137db565b60405180910390fd5b8080610b8890613be7565b915050610abc565b5060005b600080549050811015610c68578173ffffffffffffffffffffffffffffffffffffffff1660008281548110610bcc57610bcb613c8e565b5b906000526020600020906004020160000160009054906101000a900473ffffffffffffffffffffffffffffffffffffffff1673ffffffffffffffffffffffffffffffffffffffff161415610c55576040517f08c379a0000000000000000000000000000000000000000000000000000000008152600401610c4c9061383b565b60405180910390fd5b8080610c6090613be7565b915050610b94565b506000806001816001815401808255809150500390600052602060002090600402019050878160000160006101000a81548173ffffffffffffffffffffffffffffffffffffffff021916908373ffffffffffffffffffffffffffffffffffffffff16021790555086816001019080519060200190610ce79291906129fa565b505050505050505050565b60005b600180549050811015610e7b573373ffffffffffffffffffffffffffffffffffffffff1660018281548110610d2d57610d2c613c8e565b5b906000526020600020906003020160000160009054906101000a900473ffffffffffffffffffffffffffffffffffffffff1673ffffffffffffffffffffffffffffffffffffffff161415610e6857600060018281548110610d9157610d90613c8e565b5b9060005260206000209060030201600101541415610de4576040517f08c379a0000000000000000000000000000000000000000000000000000000008152600401610ddb9061375b565b60405180910390fd5b60036040518060600160405280838152602001848152602001600015158152509080600181540180825580915050600190039060005260206000209060030201600090919091909150600082015181600001556020820151816001015560408201518160020160006101000a81548160ff0219169083151502179055505050610e7b565b8080610e7390613be7565b915050610cf5565b5050565b60606000805480602002602001604051908101604052809291908181526020016000905b8282101561144557838290600052602060002090600402016040518060800160405290816000820160009054906101000a900473ffffffffffffffffffffffffffffffffffffffff1673ffffffffffffffffffffffffffffffffffffffff1673ffffffffffffffffffffffffffffffffffffffff168152602001600182018054610f2c90613b84565b80601f0160208091040260200160405190810160405280929190818152602001828054610f5890613b84565b8015610fa55780601f10610f7a57610100808354040283529160200191610fa5565b820191906000526020600020905b815481529060010190602001808311610f8857829003601f168201915b5050505050815260200160028201805480602002602001604051908101604052809291908181526020016000905b828210156113d657838290600052602060002090600502016040518060a00160405290816000820160009054906101000a900473ffffffffffffffffffffffffffffffffffffffff1673ffffffffffffffffffffffffffffffffffffffff1673ffffffffffffffffffffffffffffffffffffffff1681526020016001820154815260200160028201805480602002602001604051908101604052809291908181526020016000905b8282101561111a578382906000526020600020016040518060400160405290816000820160009054906101000a900473ffffffffffffffffffffffffffffffffffffffff1673ffffffffffffffffffffffffffffffffffffffff1673ffffffffffffffffffffffffffffffffffffffff1681526020016000820160149054906101000a900460ff1615151515815250508152602001906001019061107b565b50505050815260200160038201805480602002602001604051908101604052809291908181526020016000905b8282101561132d57838290600052602060002090600302016040518060600160405290816000820160009054906101000a900473ffffffffffffffffffffffffffffffffffffffff1673ffffffffffffffffffffffffffffffffffffffff1673ffffffffffffffffffffffffffffffffffffffff16815260200160018201805480602002602001604051908101604052809291908181526020016000905b82821015611284578382906000526020600020016040518060400160405290816000820160009054906101000a900473ffffffffffffffffffffffffffffffffffffffff1673ffffffffffffffffffffffffffffffffffffffff1673ffffffffffffffffffffffffffffffffffffffff1681526020016000820160149054906101000a900460ff161515151581525050815260200190600101906111e5565b50505050815260200160028201805461129c90613b84565b80601f01602080910402602001604051908101604052809291908181526020018280546112c890613b84565b80156113155780601f106112ea57610100808354040283529160200191611315565b820191906000526020600020905b8154815290600101906020018083116112f857829003601f168201915b50505050508152505081526020019060010190611147565b50505050815260200160048201805461134590613b84565b80601f016020809104026020016040519081016040528092919081815260200182805461137190613b84565b80156113be5780601f10611393576101008083540402835291602001916113be565b820191906000526020600020905b8154815290600101906020018083116113a157829003601f168201915b50505050508152505081526020019060010190610fd3565b5050505081526020016003820180548060200260200160405190810160405280929190818152602001828054801561142d57602002820191906000526020600020905b815481526020019060010190808311611419575b50505050508152505081526020019060010190610ea3565b50505050905090565b60005b6001805490508110156115c7573373ffffffffffffffffffffffffffffffffffffffff166001828154811061148957611488613c8e565b5b906000526020600020906003020160000160009054906101000a900473ffffffffffffffffffffffffffffffffffffffff1673ffffffffffffffffffffffffffffffffffffffff1614156115b4576000600182815481106114ed576114ec613c8e565b5b9060005260206000209060030201600101541415611540576040517f08c379a00000000000000000000000000000000000000000000000000000000081526004016115379061375b565b60405180910390fd5b600260405180604001604052808381526020016000151581525090806001815401808255809150506001900390600052602060002090600202016000909190919091506000820151816000015560208201518160010160006101000a81548160ff02191690831515021790555050506115c7565b80806115bf90613be7565b915050611451565b50565b336000805b600180549050811015611671578273ffffffffffffffffffffffffffffffffffffffff166001828154811061160757611606613c8e565b5b906000526020600020906003020160000160009054906101000a900473ffffffffffffffffffffffffffffffffffffffff1673ffffffffffffffffffffffffffffffffffffffff16141561165e5760019150611671565b808061166990613be7565b9150506115cf565b50806116b2576040517f08c379a00000000000000000000000000000000000000000000000000000000081526004016116a99061381b565b60405180910390fd5b3360005b6001805490508110156117bc578173ffffffffffffffffffffffffffffffffffffffff16600182815481106116ee576116ed613c8e565b5b906000526020600020906003020160000160009054906101000a900473ffffffffffffffffffffffffffffffffffffffff1673ffffffffffffffffffffffffffffffffffffffff1614156117a95760006001828154811061175257611751613c8e565b5b906000526020600020906003020160020154146117a4576040517f08c379a000000000000000000000000000000000000000000000000000000000815260040161179b9061377b565b60405180910390fd5b6117bc565b80806117b490613be7565b9150506116b6565b5060005b60008054905081101561191d5760005b600082815481106117e4576117e3613c8e565b5b906000526020600020906004020160030180549050811015611909576000828154811061181457611813613c8e565b5b9060005260206000209060040201600301818154811061183757611836613c8e565b5b90600052602060002001546002878154811061185657611855613c8e565b5b90600052602060002090600202016000015414156118f6576000828154811061188257611881613c8e565b5b906000526020600020906004020160030181815481106118a5576118a4613c8e565b5b90600052602060002001600090556001600387815481106118c9576118c8613c8e565b5b906000526020600020906003020160020160006101000a81548160ff021916908315150217905550611909565b808061190190613be7565b9150506117d0565b50808061191590613be7565b9150506117c0565b5050505050565b3360005b6001805490508110156119fc578173ffffffffffffffffffffffffffffffffffffffff16600182815481106119605761195f613c8e565b5b906000526020600020906003020160000160009054906101000a900473ffffffffffffffffffffffffffffffffffffffff1673ffffffffffffffffffffffffffffffffffffffff1614156119e9576040517f08c379a00000000000000000000000000000000000000000000000000000000081526004016119e09061379b565b60405180910390fd5b80806119f490613be7565b915050611928565b50600160405180606001604052803373ffffffffffffffffffffffffffffffffffffffff168152602001600281526020016002815250908060018154018082558091505060019003906000526020600020906003020160009091909190915060008201518160000160006101000a81548173ffffffffffffffffffffffffffffffffffffffff021916908373ffffffffffffffffffffffffffffffffffffffff1602179055506020820151816001015560408201518160020155505050565b60005b60008281548110611ad257611ad1613c8e565b5b906000526020600020906004020160030180549050811015611bd9576002600160008481548110611b0657611b05613c8e565b5b90600052602060002090600402016003018381548110611b2957611b28613c8e565b5b906000526020600020015481548110611b4557611b44613c8e565b5b9060005260206000209060030201600101819055506002600160008481548110611b7257611b71613c8e565b5b90600052602060002090600402016003018381548110611b9557611b94613c8e565b5b906000526020600020015481548110611bb157611bb0613c8e565b5b9060005260206000209060030201600201819055508080611bd190613be7565b915050611abe565b5060008181548110611bee57611bed613c8e565b5b9060005260206000209060040201600080820160006101000a81549073ffffffffffffffffffffffffffffffffffffffff0219169055600182016000611c349190612a80565b600282016000611c449190612ac0565b600382016000611c549190612ae4565b505050565b3360005b600180549050811015611d63578173ffffffffffffffffffffffffffffffffffffffff1660018281548110611c9557611c94613c8e565b5b906000526020600020906003020160000160009054906101000a900473ffffffffffffffffffffffffffffffffffffffff1673ffffffffffffffffffffffffffffffffffffffff161415611d5057600260018281548110611cf957611cf8613c8e565b5b90600052602060002090600302016001015414611d4b576040517f08c379a0000000000000000000000000000000000000000000000000000000008152600401611d429061385b565b60405180910390fd5b611d63565b8080611d5b90613be7565b915050611c5d565b5060008481548110611d7857611d77613c8e565b5b90600052602060002090600402016002018381548110611d9b57611d9a613c8e565b5b906000526020600020906005020160020160405180604001604052803373ffffffffffffffffffffffffffffffffffffffff1681526020018415158152509080600181540180825580915050600190039060005260206000200160009091909190915060008201518160000160006101000a81548173ffffffffffffffffffffffffffffffffffffffff021916908373ffffffffffffffffffffffffffffffffffffffff16021790555060208201518160000160146101000a81548160ff021916908315150217905550505050505050565b60005b600180549050811015612049573373ffffffffffffffffffffffffffffffffffffffff1660018281548110611ea857611ea7613c8e565b5b906000526020600020906003020160000160009054906101000a900473ffffffffffffffffffffffffffffffffffffffff1673ffffffffffffffffffffffffffffffffffffffff16141561203657600260018281548110611f0c57611f0b613c8e565b5b9060005260206000209060030201600101541415611f5f576040517f08c379a0000000000000000000000000000000000000000000000000000000008152600401611f56906137fb565b60405180910390fd5b60018181548110611f7357611f72613c8e565b5b90600052602060002090600302016002015460018281548110611f9957611f98613c8e565b5b9060005260206000209060030201600101541415611fe157600260018281548110611fc757611fc6613c8e565b5b906000526020600020906003020160020181905550612031565b60018181548110611ff557611ff4613c8e565b5b9060005260206000209060030201600101546001828154811061201b5761201a613c8e565b5b9060005260206000209060030201600201819055505b612049565b808061204190613be7565b915050611e70565b50565b3360005b600180549050811015612156578173ffffffffffffffffffffffffffffffffffffffff166001828154811061208857612087613c8e565b5b906000526020600020906003020160000160009054906101000a900473ffffffffffffffffffffffffffffffffffffffff1673ffffffffffffffffffffffffffffffffffffffff161415612143576002600182815481106120ec576120eb613c8e565b5b9060005260206000209060030201600101541461213e576040517f08c379a00000000000000000000000000000000000000000000000000000000081526004016121359061385b565b60405180910390fd5b612156565b808061214e90613be7565b915050612050565b506000858154811061216b5761216a613c8e565b5b9060005260206000209060040201600201848154811061218e5761218d613c8e565b5b906000526020600020906005020160030183815481106121b1576121b0613c8e565b5b906000526020600020906003020160010160405180604001604052803373ffffffffffffffffffffffffffffffffffffffff1681526020018415158152509080600181540180825580915050600190039060005260206000200160009091909190915060008201518160000160006101000a81548173ffffffffffffffffffffffffffffffffffffffff021916908373ffffffffffffffffffffffffffffffffffffffff16021790555060208201518160000160146101000a81548160ff02191690831515021790555050505050505050565b60606002805480602002602001604051908101604052809291908181526020016000905b828210156122ff5783829060005260206000209060020201604051806040016040529081600082015481526020016001820160009054906101000a900460ff161515151581525050815260200190600101906122a8565b50505050905090565b336000805b6001805490508110156123af578273ffffffffffffffffffffffffffffffffffffffff166001828154811061234557612344613c8e565b5b906000526020600020906003020160000160009054906101000a900473ffffffffffffffffffffffffffffffffffffffff1673ffffffffffffffffffffffffffffffffffffffff16141561239c57600191506123af565b80806123a790613be7565b91505061230d565b50806123f0576040517f08c379a00000000000000000000000000000000000000000000000000000000081526004016123e79061381b565b60405180910390fd5b3360005b6001805490508110156124fa578173ffffffffffffffffffffffffffffffffffffffff166001828154811061242c5761242b613c8e565b5b906000526020600020906003020160000160009054906101000a900473ffffffffffffffffffffffffffffffffffffffff1673ffffffffffffffffffffffffffffffffffffffff1614156124e7576000600182815481106124905761248f613c8e565b5b906000526020600020906003020160020154146124e2576040517f08c379a00000000000000000000000000000000000000000000000000000000081526004016124d99061377b565b60405180910390fd5b6124fa565b80806124f290613be7565b9150506123f4565b5060005b60018054905081101561265b578473ffffffffffffffffffffffffffffffffffffffff166001828154811061253657612535613c8e565b5b906000526020600020906003020160000160009054906101000a900473ffffffffffffffffffffffffffffffffffffffff1673ffffffffffffffffffffffffffffffffffffffff1614156126485760006001828154811061259a57612599613c8e565b5b90600052602060002090600302016001015414156125ed576040517f08c379a00000000000000000000000000000000000000000000000000000000081526004016125e4906137bb565b60405180910390fd5b60006001828154811061260357612602613c8e565b5b90600052602060002090600302016001018190555060006001828154811061262e5761262d613c8e565b5b90600052602060002090600302016002018190555061265b565b808061265390613be7565b9150506124fe565b5050505050565b60606003805480602002602001604051908101604052809291908181526020016000905b828210156126e7578382906000526020600020906003020160405180606001604052908160008201548152602001600182015481526020016002820160009054906101000a900460ff16151515158152505081526020019060010190612686565b50505050905090565b6000838154811061270457612703613c8e565b5b9060005260206000209060040201600201828154811061272757612726613c8e565b5b906000526020600020906005020160030160018160018154018082558091505003906000526020600020905050336000848154811061276957612768613c8e565b5b9060005260206000209060040201600201838154811061278c5761278b613c8e565b5b90600052602060002090600502016003016001600086815481106127b3576127b2613c8e565b5b906000526020600020906004020160020185815481106127d6576127d5613c8e565b5b9060005260206000209060050201600301805490506127f59190613ac6565b8154811061280657612805613c8e565b5b906000526020600020906003020160000160006101000a81548173ffffffffffffffffffffffffffffffffffffffff021916908373ffffffffffffffffffffffffffffffffffffffff160217905550806000848154811061286a57612869613c8e565b5b9060005260206000209060040201600201838154811061288d5761288c613c8e565b5b90600052602060002090600502016003016001600086815481106128b4576128b3613c8e565b5b906000526020600020906004020160020185815481106128d7576128d6613c8e565b5b9060005260206000209060050201600301805490506128f69190613ac6565b8154811061290757612906613c8e565b5b9060005260206000209060030201600201908051906020019061292b9291906129fa565b50505050565b60606001805480602002602001604051908101604052809291908181526020016000905b828210156129f157838290600052602060002090600302016040518060600160405290816000820160009054906101000a900473ffffffffffffffffffffffffffffffffffffffff1673ffffffffffffffffffffffffffffffffffffffff1673ffffffffffffffffffffffffffffffffffffffff1681526020016001820154815260200160028201548152505081526020019060010190612955565b50505050905090565b828054612a0690613b84565b90600052602060002090601f016020900481019282612a285760008555612a6f565b82601f10612a4157805160ff1916838001178555612a6f565b82800160010185558215612a6f579182015b82811115612a6e578251825591602001919060010190612a53565b5b509050612a7c9190612b05565b5090565b508054612a8c90613b84565b6000825580601f10612a9e5750612abd565b601f016020900490600052602060002090810190612abc9190612b05565b5b50565b5080546000825560050290600052602060002090810190612ae19190612b22565b50565b5080546000825590600052602060002090810190612b029190612b05565b50565b5b80821115612b1e576000816000905550600101612b06565b5090565b5b80821115612b9457600080820160006101000a81549073ffffffffffffffffffffffffffffffffffffffff02191690556001820160009055600282016000612b6b9190612b98565b600382016000612b7b9190612bb9565b600482016000612b8b9190612a80565b50600501612b23565b5090565b5080546000825590600052602060002090810190612bb69190612bdd565b50565b5080546000825560030290600052602060002090810190612bda9190612c2f565b50565b5b80821115612c2b57600080820160006101000a81549073ffffffffffffffffffffffffffffffffffffffff02191690556000820160146101000a81549060ff021916905550600101612bde565b5090565b5b80821115612c8957600080820160006101000a81549073ffffffffffffffffffffffffffffffffffffffff0219169055600182016000612c709190612b98565b600282016000612c809190612a80565b50600301612c30565b5090565b6000612ca0612c9b846138a0565b61387b565b905082815260208101848484011115612cbc57612cbb613cf1565b5b612cc7848285613b42565b509392505050565b600081359050612cde81613e82565b92915050565b600081359050612cf381613e99565b92915050565b600082601f830112612d0e57612d0d613cec565b5b8135612d1e848260208601612c8d565b91505092915050565b600081359050612d3681613eb0565b92915050565b600060208284031215612d5257612d51613cfb565b5b6000612d6084828501612ccf565b91505092915050565b60008060408385031215612d8057612d7f613cfb565b5b6000612d8e85828601612ccf565b925050602083013567ffffffffffffffff811115612daf57612dae613cf6565b5b612dbb85828601612cf9565b9150509250929050565b600060208284031215612ddb57612dda613cfb565b5b6000612de984828501612d27565b91505092915050565b600080600060608486031215612e0b57612e0a613cfb565b5b6000612e1986828701612d27565b9350506020612e2a86828701612d27565b9250506040612e3b86828701612ce4565b9150509250925092565b600080600060608486031215612e5e57612e5d613cfb565b5b6000612e6c86828701612d27565b9350506020612e7d86828701612d27565b925050604084013567ffffffffffffffff811115612e9e57612e9d613cf6565b5b612eaa86828701612cf9565b9150509250925092565b60008060008060808587031215612ece57612ecd613cfb565b5b6000612edc87828801612d27565b9450506020612eed87828801612d27565b9350506040612efe87828801612d27565b9250506060612f0f87828801612ce4565b91505092959194509250565b6000612f278383613496565b905092915050565b6000612f3b83836134ed565b60408301905092915050565b6000612f53838361351c565b905092915050565b6000612f6783836135a0565b60408301905092915050565b6000612f7f83836135cf565b60608301905092915050565b6000612f978383613611565b905092915050565b6000612fab8383613682565b60608301905092915050565b6000612fc383836136c4565b60208301905092915050565b612fd881613afa565b82525050565b6000612fe982613951565b612ff38185613a1c565b935083602082028501613005856138d1565b8060005b8581101561304157848403895281516130228582612f1b565b945061302d836139b4565b925060208a01995050600181019050613009565b50829750879550505050505092915050565b600061305e8261395c565b6130688185613a2d565b9350613073836138e1565b8060005b838110156130a457815161308b8882612f2f565b9750613096836139c1565b925050600181019050613077565b5085935050505092915050565b60006130bc82613967565b6130c68185613a3e565b9350836020820285016130d8856138f1565b8060005b8581101561311457848403895281516130f58582612f47565b9450613100836139ce565b925060208a019950506001810190506130dc565b50829750879550505050505092915050565b600061313182613972565b61313b8185613a4f565b935061314683613901565b8060005b8381101561317757815161315e8882612f5b565b9750613169836139db565b92505060018101905061314a565b5085935050505092915050565b600061318f8261397d565b6131998185613a60565b93506131a483613911565b8060005b838110156131d55781516131bc8882612f73565b97506131c7836139e8565b9250506001810190506131a8565b5085935050505092915050565b60006131ed82613988565b6131f78185613a71565b93508360208202850161320985613921565b8060005b8581101561324557848403895281516132268582612f8b565b9450613231836139f5565b925060208a0199505060018101905061320d565b50829750879550505050505092915050565b600061326282613993565b61326c8185613a82565b935061327783613931565b8060005b838110156132a857815161328f8882612f9f565b975061329a83613a02565b92505060018101905061327b565b5085935050505092915050565b60006132c08261399e565b6132ca8185613a93565b93506132d583613941565b8060005b838110156133065781516132ed8882612fb7565b97506132f883613a0f565b9250506001810190506132d9565b5085935050505092915050565b61331c81613b0c565b82525050565b600061332d826139a9565b6133378185613aa4565b9350613347818560208601613b51565b61335081613d00565b840191505092915050565b6000613368600383613ab5565b915061337382613d11565b602082019050919050565b600061338b600383613ab5565b915061339682613d3a565b602082019050919050565b60006133ae600383613ab5565b91506133b982613d63565b602082019050919050565b60006133d1601083613ab5565b91506133dc82613d8c565b602082019050919050565b60006133f4600e83613ab5565b91506133ff82613db5565b602082019050919050565b6000613417600383613ab5565b915061342282613dde565b602082019050919050565b600061343a600383613ab5565b915061344582613e07565b602082019050919050565b600061345d600c83613ab5565b915061346882613e30565b602082019050919050565b6000613480600383613ab5565b915061348b82613e59565b602082019050919050565b60006060830160008301516134ae6000860182612fcf565b50602083015184820360208601526134c68282613053565b915050604083015184820360408601526134e08282613322565b9150508091505092915050565b6040820160008201516135036000850182612fcf565b5060208201516135166020850182613313565b50505050565b600060a0830160008301516135346000860182612fcf565b50602083015161354760208601826136c4565b506040830151848203604086015261355f8282613053565b915050606083015184820360608601526135798282612fde565b915050608083015184820360808601526135938282613322565b9150508091505092915050565b6040820160008201516135b660008501826136c4565b5060208201516135c96020850182613313565b50505050565b6060820160008201516135e560008501826136c4565b5060208201516135f860208501826136c4565b50604082015161360b6040850182613313565b50505050565b60006080830160008301516136296000860182612fcf565b50602083015184820360208601526136418282613322565b9150506040830151848203604086015261365b82826130b1565b9150506060830151848203606086015261367582826132b5565b9150508091505092915050565b6060820160008201516136986000850182612fcf565b5060208201516136ab60208501826136c4565b5060408201516136be60408501826136c4565b50505050565b6136cd81613b38565b82525050565b600060208201905081810360008301526136ed8184613126565b905092915050565b6000602082019050818103600083015261370f8184613184565b905092915050565b6000602082019050818103600083015261373181846131e2565b905092915050565b600060208201905081810360008301526137538184613257565b905092915050565b600060208201905081810360008301526137748161335b565b9050919050565b600060208201905081810360008301526137948161337e565b9050919050565b600060208201905081810360008301526137b4816133a1565b9050919050565b600060208201905081810360008301526137d4816133c4565b9050919050565b600060208201905081810360008301526137f4816133e7565b9050919050565b600060208201905081810360008301526138148161340a565b9050919050565b600060208201905081810360008301526138348161342d565b9050919050565b6000602082019050818103600083015261385481613450565b9050919050565b6000602082019050818103600083015261387481613473565b9050919050565b6000613885613896565b90506138918282613bb6565b919050565b6000604051905090565b600067ffffffffffffffff8211156138bb576138ba613cbd565b5b6138c482613d00565b9050602081019050919050565b6000819050602082019050919050565b6000819050602082019050919050565b6000819050602082019050919050565b6000819050602082019050919050565b6000819050602082019050919050565b6000819050602082019050919050565b6000819050602082019050919050565b6000819050602082019050919050565b600081519050919050565b600081519050919050565b600081519050919050565b600081519050919050565b600081519050919050565b600081519050919050565b600081519050919050565b600081519050919050565b600081519050919050565b6000602082019050919050565b6000602082019050919050565b6000602082019050919050565b6000602082019050919050565b6000602082019050919050565b6000602082019050919050565b6000602082019050919050565b6000602082019050919050565b600082825260208201905092915050565b600082825260208201905092915050565b600082825260208201905092915050565b600082825260208201905092915050565b600082825260208201905092915050565b600082825260208201905092915050565b600082825260208201905092915050565b600082825260208201905092915050565b600082825260208201905092915050565b600082825260208201905092915050565b6000613ad182613b38565b9150613adc83613b38565b925082821015613aef57613aee613c30565b5b828203905092915050565b6000613b0582613b18565b9050919050565b60008115159050919050565b600073ffffffffffffffffffffffffffffffffffffffff82169050919050565b6000819050919050565b82818337600083830152505050565b60005b83811015613b6f578082015181840152602081019050613b54565b83811115613b7e576000848401525b50505050565b60006002820490506001821680613b9c57607f821691505b60208210811415613bb057613baf613c5f565b5b50919050565b613bbf82613d00565b810181811067ffffffffffffffff82111715613bde57613bdd613cbd565b5b80604052505050565b6000613bf282613b38565b91507fffffffffffffffffffffffffffffffffffffffffffffffffffffffffffffffff821415613c2557613c24613c30565b5b600182019050919050565b7f4e487b7100000000000000000000000000000000000000000000000000000000600052601160045260246000fd5b7f4e487b7100000000000000000000000000000000000000000000000000000000600052602260045260246000fd5b7f4e487b7100000000000000000000000000000000000000000000000000000000600052603260045260246000fd5b7f4e487b7100000000000000000000000000000000000000000000000000000000600052604160045260246000fd5b600080fd5b600080fd5b600080fd5b600080fd5b6000601f19601f8301169050919050565b7f3130340000000000000000000000000000000000000000000000000000000000600082015250565b7f3130300000000000000000000000000000000000000000000000000000000000600082015250565b7f3230310000000000000000000000000000000000000000000000000000000000600082015250565b7f5520616c72656164792061646d696e2100000000000000000000000000000000600082015250565b7f49742069736e27742073686f7021000000000000000000000000000000000000600082015250565b7f3130330000000000000000000000000000000000000000000000000000000000600082015250565b7f3230300000000000000000000000000000000000000000000000000000000000600082015250565b7f53686f7020657869737473210000000000000000000000000000000000000000600082015250565b7f3130310000000000000000000000000000000000000000000000000000000000600082015250565b613e8b81613afa565b8114613e9657600080fd5b50565b613ea281613b0c565b8114613ead57600080fd5b50565b613eb981613b38565b8114613ec457600080fd5b5056fea26469706673582212208dc2a30507101be40e2587017f111bec5dde572c7765112b079f4f43f7ee389e64736f6c63430008070033",
			"opcodes": "PUSH1 0x80 PUSH1 0x40 MSTORE CALLVALUE DUP1 ISZERO PUSH3 0x11 JUMPI PUSH1 0x0 DUP1 REVERT JUMPDEST POP PUSH3 0x39 PUSH20 0x2EEB8E636D2B7BF006AEF7DF63C1B388C3D0BB5E PUSH1 0x0 PUSH3 0x172 PUSH1 0x20 SHL PUSH1 0x20 SHR JUMP JUMPDEST PUSH3 0x60 PUSH20 0x55CC20D0CDDFED1F06B669A8FF6EBA58218BBBD7 PUSH1 0x1 PUSH3 0x172 PUSH1 0x20 SHL PUSH1 0x20 SHR JUMP JUMPDEST PUSH3 0x87 PUSH20 0xB033788A9A2A69E4D007B05AD15893BA57F788C7 PUSH1 0x2 PUSH3 0x172 PUSH1 0x20 SHL PUSH1 0x20 SHR JUMP JUMPDEST PUSH3 0xAE PUSH20 0x692BEB097E09A1FD74DAFA495705D9CBDCE84BF9 PUSH1 0x2 PUSH3 0x172 PUSH1 0x20 SHL PUSH1 0x20 SHR JUMP JUMPDEST PUSH3 0x109 PUSH20 0x3FE4252B00B1B6AA40B172410B02025FB3BFA804 PUSH1 0x40 MLOAD DUP1 PUSH1 0x40 ADD PUSH1 0x40 MSTORE DUP1 PUSH1 0x3 DUP2 MSTORE PUSH1 0x20 ADD PUSH32 0x4B4C470000000000000000000000000000000000000000000000000000000000 DUP2 MSTORE POP PUSH3 0x359 PUSH1 0x20 SHL PUSH1 0x20 SHR JUMP JUMPDEST PUSH1 0x0 PUSH1 0x1 PUSH1 0x0 DUP1 SLOAD SWAP1 POP PUSH3 0x11F SWAP2 SWAP1 PUSH3 0xB11 JUMP JUMPDEST DUP2 SLOAD DUP2 LT PUSH3 0x133 JUMPI PUSH3 0x132 PUSH3 0xC38 JUMP JUMPDEST JUMPDEST SWAP1 PUSH1 0x0 MSTORE PUSH1 0x20 PUSH1 0x0 KECCAK256 SWAP1 PUSH1 0x4 MUL ADD PUSH1 0x3 ADD PUSH1 0x1 SWAP1 DUP1 PUSH1 0x1 DUP2 SLOAD ADD DUP1 DUP3 SSTORE DUP1 SWAP2 POP POP PUSH1 0x1 SWAP1 SUB SWAP1 PUSH1 0x0 MSTORE PUSH1 0x20 PUSH1 0x0 KECCAK256 ADD PUSH1 0x0 SWAP1 SWAP2 SWAP1 SWAP2 SWAP1 SWAP2 POP SSTORE PUSH3 0xD5D JUMP JUMPDEST DUP2 PUSH1 0x0 JUMPDEST PUSH1 0x1 DUP1 SLOAD SWAP1 POP DUP2 LT ISZERO PUSH3 0x254 JUMPI DUP2 PUSH20 0xFFFFFFFFFFFFFFFFFFFFFFFFFFFFFFFFFFFFFFFF AND PUSH1 0x1 DUP3 DUP2 SLOAD DUP2 LT PUSH3 0x1B2 JUMPI PUSH3 0x1B1 PUSH3 0xC38 JUMP JUMPDEST JUMPDEST SWAP1 PUSH1 0x0 MSTORE PUSH1 0x20 PUSH1 0x0 KECCAK256 SWAP1 PUSH1 0x3 MUL ADD PUSH1 0x0 ADD PUSH1 0x0 SWAP1 SLOAD SWAP1 PUSH2 0x100 EXP SWAP1 DIV PUSH20 0xFFFFFFFFFFFFFFFFFFFFFFFFFFFFFFFFFFFFFFFF AND PUSH20 0xFFFFFFFFFFFFFFFFFFFFFFFFFFFFFFFFFFFFFFFF AND EQ ISZERO PUSH3 0x23E JUMPI PUSH1 0x40 MLOAD PUSH32 0x8C379A000000000000000000000000000000000000000000000000000000000 DUP2 MSTORE PUSH1 0x4 ADD PUSH3 0x235 SWAP1 PUSH3 0xA78 JUMP JUMPDEST PUSH1 0x40 MLOAD DUP1 SWAP2 SUB SWAP1 REVERT JUMPDEST DUP1 DUP1 PUSH3 0x24B SWAP1 PUSH3 0xB8C JUMP JUMPDEST SWAP2 POP POP PUSH3 0x176 JUMP JUMPDEST POP PUSH1 0x3 DUP3 LT PUSH3 0x29B JUMPI PUSH1 0x40 MLOAD PUSH32 0x8C379A000000000000000000000000000000000000000000000000000000000 DUP2 MSTORE PUSH1 0x4 ADD PUSH3 0x292 SWAP1 PUSH3 0xA34 JUMP JUMPDEST PUSH1 0x40 MLOAD DUP1 SWAP2 SUB SWAP1 REVERT JUMPDEST PUSH1 0x1 PUSH1 0x40 MLOAD DUP1 PUSH1 0x60 ADD PUSH1 0x40 MSTORE DUP1 DUP6 PUSH20 0xFFFFFFFFFFFFFFFFFFFFFFFFFFFFFFFFFFFFFFFF AND DUP2 MSTORE PUSH1 0x20 ADD DUP5 DUP2 MSTORE PUSH1 0x20 ADD DUP5 DUP2 MSTORE POP SWAP1 DUP1 PUSH1 0x1 DUP2 SLOAD ADD DUP1 DUP3 SSTORE DUP1 SWAP2 POP POP PUSH1 0x1 SWAP1 SUB SWAP1 PUSH1 0x0 MSTORE PUSH1 0x20 PUSH1 0x0 KECCAK256 SWAP1 PUSH1 0x3 MUL ADD PUSH1 0x0 SWAP1 SWAP2 SWAP1 SWAP2 SWAP1 SWAP2 POP PUSH1 0x0 DUP3 ADD MLOAD DUP2 PUSH1 0x0 ADD PUSH1 0x0 PUSH2 0x100 EXP DUP2 SLOAD DUP2 PUSH20 0xFFFFFFFFFFFFFFFFFFFFFFFFFFFFFFFFFFFFFFFF MUL NOT AND SWAP1 DUP4 PUSH20 0xFFFFFFFFFFFFFFFFFFFFFFFFFFFFFFFFFFFFFFFF AND MUL OR SWAP1 SSTORE POP PUSH1 0x20 DUP3 ADD MLOAD DUP2 PUSH1 0x1 ADD SSTORE PUSH1 0x40 DUP3 ADD MLOAD DUP2 PUSH1 0x2 ADD SSTORE POP POP POP POP POP JUMP JUMPDEST CALLER PUSH1 0x0 DUP1 JUMPDEST PUSH1 0x1 DUP1 SLOAD SWAP1 POP DUP2 LT ISZERO PUSH3 0x409 JUMPI DUP3 PUSH20 0xFFFFFFFFFFFFFFFFFFFFFFFFFFFFFFFFFFFFFFFF AND PUSH1 0x1 DUP3 DUP2 SLOAD DUP2 LT PUSH3 0x39A JUMPI PUSH3 0x399 PUSH3 0xC38 JUMP JUMPDEST JUMPDEST SWAP1 PUSH1 0x0 MSTORE PUSH1 0x20 PUSH1 0x0 KECCAK256 SWAP1 PUSH1 0x3 MUL ADD PUSH1 0x0 ADD PUSH1 0x0 SWAP1 SLOAD SWAP1 PUSH2 0x100 EXP SWAP1 DIV PUSH20 0xFFFFFFFFFFFFFFFFFFFFFFFFFFFFFFFFFFFFFFFF AND PUSH20 0xFFFFFFFFFFFFFFFFFFFFFFFFFFFFFFFFFFFFFFFF AND EQ ISZERO PUSH3 0x3F3 JUMPI PUSH1 0x1 SWAP2 POP PUSH3 0x409 JUMP JUMPDEST DUP1 DUP1 PUSH3 0x400 SWAP1 PUSH3 0xB8C JUMP JUMPDEST SWAP2 POP POP PUSH3 0x35E JUMP JUMPDEST POP DUP1 PUSH3 0x44D JUMPI PUSH1 0x40 MLOAD PUSH32 0x8C379A000000000000000000000000000000000000000000000000000000000 DUP2 MSTORE PUSH1 0x4 ADD PUSH3 0x444 SWAP1 PUSH3 0xABC JUMP JUMPDEST PUSH1 0x40 MLOAD DUP1 SWAP2 SUB SWAP1 REVERT JUMPDEST CALLER PUSH1 0x0 JUMPDEST PUSH1 0x1 DUP1 SLOAD SWAP1 POP DUP2 LT ISZERO PUSH3 0x566 JUMPI DUP2 PUSH20 0xFFFFFFFFFFFFFFFFFFFFFFFFFFFFFFFFFFFFFFFF AND PUSH1 0x1 DUP3 DUP2 SLOAD DUP2 LT PUSH3 0x48D JUMPI PUSH3 0x48C PUSH3 0xC38 JUMP JUMPDEST JUMPDEST SWAP1 PUSH1 0x0 MSTORE PUSH1 0x20 PUSH1 0x0 KECCAK256 SWAP1 PUSH1 0x3 MUL ADD PUSH1 0x0 ADD PUSH1 0x0 SWAP1 SLOAD SWAP1 PUSH2 0x100 EXP SWAP1 DIV PUSH20 0xFFFFFFFFFFFFFFFFFFFFFFFFFFFFFFFFFFFFFFFF AND PUSH20 0xFFFFFFFFFFFFFFFFFFFFFFFFFFFFFFFFFFFFFFFF AND EQ ISZERO PUSH3 0x550 JUMPI PUSH1 0x0 PUSH1 0x1 DUP3 DUP2 SLOAD DUP2 LT PUSH3 0x4F5 JUMPI PUSH3 0x4F4 PUSH3 0xC38 JUMP JUMPDEST JUMPDEST SWAP1 PUSH1 0x0 MSTORE PUSH1 0x20 PUSH1 0x0 KECCAK256 SWAP1 PUSH1 0x3 MUL ADD PUSH1 0x2 ADD SLOAD EQ PUSH3 0x54A JUMPI PUSH1 0x40 MLOAD PUSH32 0x8C379A000000000000000000000000000000000000000000000000000000000 DUP2 MSTORE PUSH1 0x4 ADD PUSH3 0x541 SWAP1 PUSH3 0xA56 JUMP JUMPDEST PUSH1 0x40 MLOAD DUP1 SWAP2 SUB SWAP1 REVERT JUMPDEST PUSH3 0x566 JUMP JUMPDEST DUP1 DUP1 PUSH3 0x55D SWAP1 PUSH3 0xB8C JUMP JUMPDEST SWAP2 POP POP PUSH3 0x451 JUMP JUMPDEST POP DUP5 PUSH1 0x0 JUMPDEST PUSH1 0x1 DUP1 SLOAD SWAP1 POP DUP2 LT ISZERO PUSH3 0x649 JUMPI DUP2 PUSH20 0xFFFFFFFFFFFFFFFFFFFFFFFFFFFFFFFFFFFFFFFF AND PUSH1 0x1 DUP3 DUP2 SLOAD DUP2 LT PUSH3 0x5A7 JUMPI PUSH3 0x5A6 PUSH3 0xC38 JUMP JUMPDEST JUMPDEST SWAP1 PUSH1 0x0 MSTORE PUSH1 0x20 PUSH1 0x0 KECCAK256 SWAP1 PUSH1 0x3 MUL ADD PUSH1 0x0 ADD PUSH1 0x0 SWAP1 SLOAD SWAP1 PUSH2 0x100 EXP SWAP1 DIV PUSH20 0xFFFFFFFFFFFFFFFFFFFFFFFFFFFFFFFFFFFFFFFF AND PUSH20 0xFFFFFFFFFFFFFFFFFFFFFFFFFFFFFFFFFFFFFFFF AND EQ ISZERO PUSH3 0x633 JUMPI PUSH1 0x40 MLOAD PUSH32 0x8C379A000000000000000000000000000000000000000000000000000000000 DUP2 MSTORE PUSH1 0x4 ADD PUSH3 0x62A SWAP1 PUSH3 0xA78 JUMP JUMPDEST PUSH1 0x40 MLOAD DUP1 SWAP2 SUB SWAP1 REVERT JUMPDEST DUP1 DUP1 PUSH3 0x640 SWAP1 PUSH3 0xB8C JUMP JUMPDEST SWAP2 POP POP PUSH3 0x56B JUMP JUMPDEST POP DUP6 PUSH1 0x0 JUMPDEST PUSH1 0x1 DUP1 SLOAD SWAP1 POP DUP2 LT ISZERO PUSH3 0x72C JUMPI DUP2 PUSH20 0xFFFFFFFFFFFFFFFFFFFFFFFFFFFFFFFFFFFFFFFF AND PUSH1 0x1 DUP3 DUP2 SLOAD DUP2 LT PUSH3 0x68A JUMPI PUSH3 0x689 PUSH3 0xC38 JUMP JUMPDEST JUMPDEST SWAP1 PUSH1 0x0 MSTORE PUSH1 0x20 PUSH1 0x0 KECCAK256 SWAP1 PUSH1 0x3 MUL ADD PUSH1 0x0 ADD PUSH1 0x0 SWAP1 SLOAD SWAP1 PUSH2 0x100 EXP SWAP1 DIV PUSH20 0xFFFFFFFFFFFFFFFFFFFFFFFFFFFFFFFFFFFFFFFF AND PUSH20 0xFFFFFFFFFFFFFFFFFFFFFFFFFFFFFFFFFFFFFFFF AND EQ ISZERO PUSH3 0x716 JUMPI PUSH1 0x40 MLOAD PUSH32 0x8C379A000000000000000000000000000000000000000000000000000000000 DUP2 MSTORE PUSH1 0x4 ADD PUSH3 0x70D SWAP1 PUSH3 0xA9A JUMP JUMPDEST PUSH1 0x40 MLOAD DUP1 SWAP2 SUB SWAP1 REVERT JUMPDEST DUP1 DUP1 PUSH3 0x723 SWAP1 PUSH3 0xB8C JUMP JUMPDEST SWAP2 POP POP PUSH3 0x64E JUMP JUMPDEST POP PUSH1 0x0 JUMPDEST PUSH1 0x0 DUP1 SLOAD SWAP1 POP DUP2 LT ISZERO PUSH3 0x80E JUMPI DUP2 PUSH20 0xFFFFFFFFFFFFFFFFFFFFFFFFFFFFFFFFFFFFFFFF AND PUSH1 0x0 DUP3 DUP2 SLOAD DUP2 LT PUSH3 0x76C JUMPI PUSH3 0x76B PUSH3 0xC38 JUMP JUMPDEST JUMPDEST SWAP1 PUSH1 0x0 MSTORE PUSH1 0x20 PUSH1 0x0 KECCAK256 SWAP1 PUSH1 0x4 MUL ADD PUSH1 0x0 ADD PUSH1 0x0 SWAP1 SLOAD SWAP1 PUSH2 0x100 EXP SWAP1 DIV PUSH20 0xFFFFFFFFFFFFFFFFFFFFFFFFFFFFFFFFFFFFFFFF AND PUSH20 0xFFFFFFFFFFFFFFFFFFFFFFFFFFFFFFFFFFFFFFFF AND EQ ISZERO PUSH3 0x7F8 JUMPI PUSH1 0x40 MLOAD PUSH32 0x8C379A000000000000000000000000000000000000000000000000000000000 DUP2 MSTORE PUSH1 0x4 ADD PUSH3 0x7EF SWAP1 PUSH3 0xADE JUMP JUMPDEST PUSH1 0x40 MLOAD DUP1 SWAP2 SUB SWAP1 REVERT JUMPDEST DUP1 DUP1 PUSH3 0x805 SWAP1 PUSH3 0xB8C JUMP JUMPDEST SWAP2 POP POP PUSH3 0x730 JUMP JUMPDEST POP PUSH1 0x0 DUP1 PUSH1 0x1 DUP2 PUSH1 0x1 DUP2 SLOAD ADD DUP1 DUP3 SSTORE DUP1 SWAP2 POP POP SUB SWAP1 PUSH1 0x0 MSTORE PUSH1 0x20 PUSH1 0x0 KECCAK256 SWAP1 PUSH1 0x4 MUL ADD SWAP1 POP DUP8 DUP2 PUSH1 0x0 ADD PUSH1 0x0 PUSH2 0x100 EXP DUP2 SLOAD DUP2 PUSH20 0xFFFFFFFFFFFFFFFFFFFFFFFFFFFFFFFFFFFFFFFF MUL NOT AND SWAP1 DUP4 PUSH20 0xFFFFFFFFFFFFFFFFFFFFFFFFFFFFFFFFFFFFFFFF AND MUL OR SWAP1 SSTORE POP DUP7 DUP2 PUSH1 0x1 ADD SWAP1 DUP1 MLOAD SWAP1 PUSH1 0x20 ADD SWAP1 PUSH3 0x88F SWAP3 SWAP2 SWAP1 PUSH3 0x89A JUMP JUMPDEST POP POP POP POP POP POP POP POP POP JUMP JUMPDEST DUP3 DUP1 SLOAD PUSH3 0x8A8 SWAP1 PUSH3 0xB56 JUMP JUMPDEST SWAP1 PUSH1 0x0 MSTORE PUSH1 0x20 PUSH1 0x0 KECCAK256 SWAP1 PUSH1 0x1F ADD PUSH1 0x20 SWAP1 DIV DUP2 ADD SWAP3 DUP3 PUSH3 0x8CC JUMPI PUSH1 0x0 DUP6 SSTORE PUSH3 0x918 JUMP JUMPDEST DUP3 PUSH1 0x1F LT PUSH3 0x8E7 JUMPI DUP1 MLOAD PUSH1 0xFF NOT AND DUP4 DUP1 ADD OR DUP6 SSTORE PUSH3 0x918 JUMP JUMPDEST DUP3 DUP1 ADD PUSH1 0x1 ADD DUP6 SSTORE DUP3 ISZERO PUSH3 0x918 JUMPI SWAP2 DUP3 ADD JUMPDEST DUP3 DUP2 GT ISZERO PUSH3 0x917 JUMPI DUP3 MLOAD DUP3 SSTORE SWAP2 PUSH1 0x20 ADD SWAP2 SWAP1 PUSH1 0x1 ADD SWAP1 PUSH3 0x8FA JUMP JUMPDEST JUMPDEST POP SWAP1 POP PUSH3 0x927 SWAP2 SWAP1 PUSH3 0x92B JUMP JUMPDEST POP SWAP1 JUMP JUMPDEST JUMPDEST DUP1 DUP3 GT ISZERO PUSH3 0x946 JUMPI PUSH1 0x0 DUP2 PUSH1 0x0 SWAP1 SSTORE POP PUSH1 0x1 ADD PUSH3 0x92C JUMP JUMPDEST POP SWAP1 JUMP JUMPDEST PUSH1 0x0 PUSH3 0x959 PUSH1 0x3 DUP4 PUSH3 0xB00 JUMP JUMPDEST SWAP2 POP PUSH3 0x966 DUP3 PUSH3 0xC67 JUMP JUMPDEST PUSH1 0x20 DUP3 ADD SWAP1 POP SWAP2 SWAP1 POP JUMP JUMPDEST PUSH1 0x0 PUSH3 0x980 PUSH1 0x3 DUP4 PUSH3 0xB00 JUMP JUMPDEST SWAP2 POP PUSH3 0x98D DUP3 PUSH3 0xC90 JUMP JUMPDEST PUSH1 0x20 DUP3 ADD SWAP1 POP SWAP2 SWAP1 POP JUMP JUMPDEST PUSH1 0x0 PUSH3 0x9A7 PUSH1 0x3 DUP4 PUSH3 0xB00 JUMP JUMPDEST SWAP2 POP PUSH3 0x9B4 DUP3 PUSH3 0xCB9 JUMP JUMPDEST PUSH1 0x20 DUP3 ADD SWAP1 POP SWAP2 SWAP1 POP JUMP JUMPDEST PUSH1 0x0 PUSH3 0x9CE PUSH1 0xE DUP4 PUSH3 0xB00 JUMP JUMPDEST SWAP2 POP PUSH3 0x9DB DUP3 PUSH3 0xCE2 JUMP JUMPDEST PUSH1 0x20 DUP3 ADD SWAP1 POP SWAP2 SWAP1 POP JUMP JUMPDEST PUSH1 0x0 PUSH3 0x9F5 PUSH1 0x3 DUP4 PUSH3 0xB00 JUMP JUMPDEST SWAP2 POP PUSH3 0xA02 DUP3 PUSH3 0xD0B JUMP JUMPDEST PUSH1 0x20 DUP3 ADD SWAP1 POP SWAP2 SWAP1 POP JUMP JUMPDEST PUSH1 0x0 PUSH3 0xA1C PUSH1 0xC DUP4 PUSH3 0xB00 JUMP JUMPDEST SWAP2 POP PUSH3 0xA29 DUP3 PUSH3 0xD34 JUMP JUMPDEST PUSH1 0x20 DUP3 ADD SWAP1 POP SWAP2 SWAP1 POP JUMP JUMPDEST PUSH1 0x0 PUSH1 0x20 DUP3 ADD SWAP1 POP DUP2 DUP2 SUB PUSH1 0x0 DUP4 ADD MSTORE PUSH3 0xA4F DUP2 PUSH3 0x94A JUMP JUMPDEST SWAP1 POP SWAP2 SWAP1 POP JUMP JUMPDEST PUSH1 0x0 PUSH1 0x20 DUP3 ADD SWAP1 POP DUP2 DUP2 SUB PUSH1 0x0 DUP4 ADD MSTORE PUSH3 0xA71 DUP2 PUSH3 0x971 JUMP JUMPDEST SWAP1 POP SWAP2 SWAP1 POP JUMP JUMPDEST PUSH1 0x0 PUSH1 0x20 DUP3 ADD SWAP1 POP DUP2 DUP2 SUB PUSH1 0x0 DUP4 ADD MSTORE PUSH3 0xA93 DUP2 PUSH3 0x998 JUMP JUMPDEST SWAP1 POP SWAP2 SWAP1 POP JUMP JUMPDEST PUSH1 0x0 PUSH1 0x20 DUP3 ADD SWAP1 POP DUP2 DUP2 SUB PUSH1 0x0 DUP4 ADD MSTORE PUSH3 0xAB5 DUP2 PUSH3 0x9BF JUMP JUMPDEST SWAP1 POP SWAP2 SWAP1 POP JUMP JUMPDEST PUSH1 0x0 PUSH1 0x20 DUP3 ADD SWAP1 POP DUP2 DUP2 SUB PUSH1 0x0 DUP4 ADD MSTORE PUSH3 0xAD7 DUP2 PUSH3 0x9E6 JUMP JUMPDEST SWAP1 POP SWAP2 SWAP1 POP JUMP JUMPDEST PUSH1 0x0 PUSH1 0x20 DUP3 ADD SWAP1 POP DUP2 DUP2 SUB PUSH1 0x0 DUP4 ADD MSTORE PUSH3 0xAF9 DUP2 PUSH3 0xA0D JUMP JUMPDEST SWAP1 POP SWAP2 SWAP1 POP JUMP JUMPDEST PUSH1 0x0 DUP3 DUP3 MSTORE PUSH1 0x20 DUP3 ADD SWAP1 POP SWAP3 SWAP2 POP POP JUMP JUMPDEST PUSH1 0x0 PUSH3 0xB1E DUP3 PUSH3 0xB4C JUMP JUMPDEST SWAP2 POP PUSH3 0xB2B DUP4 PUSH3 0xB4C JUMP JUMPDEST SWAP3 POP DUP3 DUP3 LT ISZERO PUSH3 0xB41 JUMPI PUSH3 0xB40 PUSH3 0xBDA JUMP JUMPDEST JUMPDEST DUP3 DUP3 SUB SWAP1 POP SWAP3 SWAP2 POP POP JUMP JUMPDEST PUSH1 0x0 DUP2 SWAP1 POP SWAP2 SWAP1 POP JUMP JUMPDEST PUSH1 0x0 PUSH1 0x2 DUP3 DIV SWAP1 POP PUSH1 0x1 DUP3 AND DUP1 PUSH3 0xB6F JUMPI PUSH1 0x7F DUP3 AND SWAP2 POP JUMPDEST PUSH1 0x20 DUP3 LT DUP2 EQ ISZERO PUSH3 0xB86 JUMPI PUSH3 0xB85 PUSH3 0xC09 JUMP JUMPDEST JUMPDEST POP SWAP2 SWAP1 POP JUMP JUMPDEST PUSH1 0x0 PUSH3 0xB99 DUP3 PUSH3 0xB4C JUMP JUMPDEST SWAP2 POP PUSH32 0xFFFFFFFFFFFFFFFFFFFFFFFFFFFFFFFFFFFFFFFFFFFFFFFFFFFFFFFFFFFFFFFF DUP3 EQ ISZERO PUSH3 0xBCF JUMPI PUSH3 0xBCE PUSH3 0xBDA JUMP JUMPDEST JUMPDEST PUSH1 0x1 DUP3 ADD SWAP1 POP SWAP2 SWAP1 POP JUMP JUMPDEST PUSH32 0x4E487B7100000000000000000000000000000000000000000000000000000000 PUSH1 0x0 MSTORE PUSH1 0x11 PUSH1 0x4 MSTORE PUSH1 0x24 PUSH1 0x0 REVERT JUMPDEST PUSH32 0x4E487B7100000000000000000000000000000000000000000000000000000000 PUSH1 0x0 MSTORE PUSH1 0x22 PUSH1 0x4 MSTORE PUSH1 0x24 PUSH1 0x0 REVERT JUMPDEST PUSH32 0x4E487B7100000000000000000000000000000000000000000000000000000000 PUSH1 0x0 MSTORE PUSH1 0x32 PUSH1 0x4 MSTORE PUSH1 0x24 PUSH1 0x0 REVERT JUMPDEST PUSH32 0x3130320000000000000000000000000000000000000000000000000000000000 PUSH1 0x0 DUP3 ADD MSTORE POP JUMP JUMPDEST PUSH32 0x3130300000000000000000000000000000000000000000000000000000000000 PUSH1 0x0 DUP3 ADD MSTORE POP JUMP JUMPDEST PUSH32 0x3230310000000000000000000000000000000000000000000000000000000000 PUSH1 0x0 DUP3 ADD MSTORE POP JUMP JUMPDEST PUSH32 0x49742069736E27742073686F7021000000000000000000000000000000000000 PUSH1 0x0 DUP3 ADD MSTORE POP JUMP JUMPDEST PUSH32 0x3230300000000000000000000000000000000000000000000000000000000000 PUSH1 0x0 DUP3 ADD MSTORE POP JUMP JUMPDEST PUSH32 0x53686F7020657869737473210000000000000000000000000000000000000000 PUSH1 0x0 DUP3 ADD MSTORE POP JUMP JUMPDEST PUSH2 0x3EFD DUP1 PUSH3 0xD6D PUSH1 0x0 CODECOPY PUSH1 0x0 RETURN INVALID PUSH1 0x80 PUSH1 0x40 MSTORE CALLVALUE DUP1 ISZERO PUSH2 0x10 JUMPI PUSH1 0x0 DUP1 REVERT JUMPDEST POP PUSH1 0x4 CALLDATASIZE LT PUSH2 0x10A JUMPI PUSH1 0x0 CALLDATALOAD PUSH1 0xE0 SHR DUP1 PUSH4 0x3EFDEBF1 GT PUSH2 0xA2 JUMPI DUP1 PUSH4 0x6B65750E GT PUSH2 0x71 JUMPI DUP1 PUSH4 0x6B65750E EQ PUSH2 0x22B JUMPI DUP1 PUSH4 0x70480275 EQ PUSH2 0x249 JUMPI DUP1 PUSH4 0x8F055D8A EQ PUSH2 0x265 JUMPI DUP1 PUSH4 0xAB122EF5 EQ PUSH2 0x283 JUMPI DUP1 PUSH4 0xAD81F803 EQ PUSH2 0x29F JUMPI PUSH2 0x10A JUMP JUMPDEST DUP1 PUSH4 0x3EFDEBF1 EQ PUSH2 0x1CD JUMPI DUP1 PUSH4 0x4384A79F EQ PUSH2 0x1E9 JUMPI DUP1 PUSH4 0x49B15962 EQ PUSH2 0x205 JUMPI DUP1 PUSH4 0x66B2F791 EQ PUSH2 0x20F JUMPI PUSH2 0x10A JUMP JUMPDEST DUP1 PUSH4 0x240185B6 GT PUSH2 0xDE JUMPI DUP1 PUSH4 0x240185B6 EQ PUSH2 0x17F JUMPI DUP1 PUSH4 0x2E91D706 EQ PUSH2 0x19D JUMPI DUP1 PUSH4 0x329FB8D6 EQ PUSH2 0x1A7 JUMPI DUP1 PUSH4 0x3B95A23F EQ PUSH2 0x1C3 JUMPI PUSH2 0x10A JUMP JUMPDEST DUP1 PUSH3 0x82F88E EQ PUSH2 0x10F JUMPI DUP1 PUSH4 0x1A0550E3 EQ PUSH2 0x12B JUMPI DUP1 PUSH4 0x1C618EB3 EQ PUSH2 0x147 JUMPI DUP1 PUSH4 0x1C840BE7 EQ PUSH2 0x163 JUMPI JUMPDEST PUSH1 0x0 DUP1 REVERT JUMPDEST PUSH2 0x129 PUSH1 0x4 DUP1 CALLDATASIZE SUB DUP2 ADD SWAP1 PUSH2 0x124 SWAP2 SWAP1 PUSH2 0x2E45 JUMP JUMPDEST PUSH2 0x2BD JUMP JUMPDEST STOP JUMPDEST PUSH2 0x145 PUSH1 0x4 DUP1 CALLDATASIZE SUB DUP2 ADD SWAP1 PUSH2 0x140 SWAP2 SWAP1 PUSH2 0x2DC5 JUMP JUMPDEST PUSH2 0x4D0 JUMP JUMPDEST STOP JUMPDEST PUSH2 0x161 PUSH1 0x4 DUP1 CALLDATASIZE SUB DUP2 ADD SWAP1 PUSH2 0x15C SWAP2 SWAP1 PUSH2 0x2D69 JUMP JUMPDEST PUSH2 0x7EC JUMP JUMPDEST STOP JUMPDEST PUSH2 0x17D PUSH1 0x4 DUP1 CALLDATASIZE SUB DUP2 ADD SWAP1 PUSH2 0x178 SWAP2 SWAP1 PUSH2 0x2DC5 JUMP JUMPDEST PUSH2 0xCF2 JUMP JUMPDEST STOP JUMPDEST PUSH2 0x187 PUSH2 0xE7F JUMP JUMPDEST PUSH1 0x40 MLOAD PUSH2 0x194 SWAP2 SWAP1 PUSH2 0x3717 JUMP JUMPDEST PUSH1 0x40 MLOAD DUP1 SWAP2 SUB SWAP1 RETURN JUMPDEST PUSH2 0x1A5 PUSH2 0x144E JUMP JUMPDEST STOP JUMPDEST PUSH2 0x1C1 PUSH1 0x4 DUP1 CALLDATASIZE SUB DUP2 ADD SWAP1 PUSH2 0x1BC SWAP2 SWAP1 PUSH2 0x2DC5 JUMP JUMPDEST PUSH2 0x15CA JUMP JUMPDEST STOP JUMPDEST PUSH2 0x1CB PUSH2 0x1924 JUMP JUMPDEST STOP JUMPDEST PUSH2 0x1E7 PUSH1 0x4 DUP1 CALLDATASIZE SUB DUP2 ADD SWAP1 PUSH2 0x1E2 SWAP2 SWAP1 PUSH2 0x2DC5 JUMP JUMPDEST PUSH2 0x1ABB JUMP JUMPDEST STOP JUMPDEST PUSH2 0x203 PUSH1 0x4 DUP1 CALLDATASIZE SUB DUP2 ADD SWAP1 PUSH2 0x1FE SWAP2 SWAP1 PUSH2 0x2DF2 JUMP JUMPDEST PUSH2 0x1C59 JUMP JUMPDEST STOP JUMPDEST PUSH2 0x20D PUSH2 0x1E6D JUMP JUMPDEST STOP JUMPDEST PUSH2 0x229 PUSH1 0x4 DUP1 CALLDATASIZE SUB DUP2 ADD SWAP1 PUSH2 0x224 SWAP2 SWAP1 PUSH2 0x2EB4 JUMP JUMPDEST PUSH2 0x204C JUMP JUMPDEST STOP JUMPDEST PUSH2 0x233 PUSH2 0x2284 JUMP JUMPDEST PUSH1 0x40 MLOAD PUSH2 0x240 SWAP2 SWAP1 PUSH2 0x36D3 JUMP JUMPDEST PUSH1 0x40 MLOAD DUP1 SWAP2 SUB SWAP1 RETURN JUMPDEST PUSH2 0x263 PUSH1 0x4 DUP1 CALLDATASIZE SUB DUP2 ADD SWAP1 PUSH2 0x25E SWAP2 SWAP1 PUSH2 0x2D3C JUMP JUMPDEST PUSH2 0x2308 JUMP JUMPDEST STOP JUMPDEST PUSH2 0x26D PUSH2 0x2662 JUMP JUMPDEST PUSH1 0x40 MLOAD PUSH2 0x27A SWAP2 SWAP1 PUSH2 0x36F5 JUMP JUMPDEST PUSH1 0x40 MLOAD DUP1 SWAP2 SUB SWAP1 RETURN JUMPDEST PUSH2 0x29D PUSH1 0x4 DUP1 CALLDATASIZE SUB DUP2 ADD SWAP1 PUSH2 0x298 SWAP2 SWAP1 PUSH2 0x2E45 JUMP JUMPDEST PUSH2 0x26F0 JUMP JUMPDEST STOP JUMPDEST PUSH2 0x2A7 PUSH2 0x2931 JUMP JUMPDEST PUSH1 0x40 MLOAD PUSH2 0x2B4 SWAP2 SWAP1 PUSH2 0x3739 JUMP JUMPDEST PUSH1 0x40 MLOAD DUP1 SWAP2 SUB SWAP1 RETURN JUMPDEST PUSH1 0x0 DUP4 DUP2 SLOAD DUP2 LT PUSH2 0x2D1 JUMPI PUSH2 0x2D0 PUSH2 0x3C8E JUMP JUMPDEST JUMPDEST SWAP1 PUSH1 0x0 MSTORE PUSH1 0x20 PUSH1 0x0 KECCAK256 SWAP1 PUSH1 0x4 MUL ADD PUSH1 0x2 ADD PUSH1 0x1 DUP2 PUSH1 0x1 DUP2 SLOAD ADD DUP1 DUP3 SSTORE DUP1 SWAP2 POP POP SUB SWAP1 PUSH1 0x0 MSTORE PUSH1 0x20 PUSH1 0x0 KECCAK256 SWAP1 POP POP CALLER PUSH1 0x0 DUP5 DUP2 SLOAD DUP2 LT PUSH2 0x313 JUMPI PUSH2 0x312 PUSH2 0x3C8E JUMP JUMPDEST JUMPDEST SWAP1 PUSH1 0x0 MSTORE PUSH1 0x20 PUSH1 0x0 KECCAK256 SWAP1 PUSH1 0x4 MUL ADD PUSH1 0x2 ADD PUSH1 0x1 PUSH1 0x0 DUP7 DUP2 SLOAD DUP2 LT PUSH2 0x33A JUMPI PUSH2 0x339 PUSH2 0x3C8E JUMP JUMPDEST JUMPDEST SWAP1 PUSH1 0x0 MSTORE PUSH1 0x20 PUSH1 0x0 KECCAK256 SWAP1 PUSH1 0x4 MUL ADD PUSH1 0x2 ADD DUP1 SLOAD SWAP1 POP PUSH2 0x359 SWAP2 SWAP1 PUSH2 0x3AC6 JUMP JUMPDEST DUP2 SLOAD DUP2 LT PUSH2 0x36A JUMPI PUSH2 0x369 PUSH2 0x3C8E JUMP JUMPDEST JUMPDEST SWAP1 PUSH1 0x0 MSTORE PUSH1 0x20 PUSH1 0x0 KECCAK256 SWAP1 PUSH1 0x5 MUL ADD PUSH1 0x0 ADD PUSH1 0x0 PUSH2 0x100 EXP DUP2 SLOAD DUP2 PUSH20 0xFFFFFFFFFFFFFFFFFFFFFFFFFFFFFFFFFFFFFFFF MUL NOT AND SWAP1 DUP4 PUSH20 0xFFFFFFFFFFFFFFFFFFFFFFFFFFFFFFFFFFFFFFFF AND MUL OR SWAP1 SSTORE POP DUP2 PUSH1 0x0 DUP5 DUP2 SLOAD DUP2 LT PUSH2 0x3CE JUMPI PUSH2 0x3CD PUSH2 0x3C8E JUMP JUMPDEST JUMPDEST SWAP1 PUSH1 0x0 MSTORE PUSH1 0x20 PUSH1 0x0 KECCAK256 SWAP1 PUSH1 0x4 MUL ADD PUSH1 0x2 ADD PUSH1 0x1 PUSH1 0x0 DUP7 DUP2 SLOAD DUP2 LT PUSH2 0x3F5 JUMPI PUSH2 0x3F4 PUSH2 0x3C8E JUMP JUMPDEST JUMPDEST SWAP1 PUSH1 0x0 MSTORE PUSH1 0x20 PUSH1 0x0 KECCAK256 SWAP1 PUSH1 0x4 MUL ADD PUSH1 0x2 ADD DUP1 SLOAD SWAP1 POP PUSH2 0x414 SWAP2 SWAP1 PUSH2 0x3AC6 JUMP JUMPDEST DUP2 SLOAD DUP2 LT PUSH2 0x425 JUMPI PUSH2 0x424 PUSH2 0x3C8E JUMP JUMPDEST JUMPDEST SWAP1 PUSH1 0x0 MSTORE PUSH1 0x20 PUSH1 0x0 KECCAK256 SWAP1 PUSH1 0x5 MUL ADD PUSH1 0x1 ADD DUP2 SWAP1 SSTORE POP DUP1 PUSH1 0x0 DUP5 DUP2 SLOAD DUP2 LT PUSH2 0x44F JUMPI PUSH2 0x44E PUSH2 0x3C8E JUMP JUMPDEST JUMPDEST SWAP1 PUSH1 0x0 MSTORE PUSH1 0x20 PUSH1 0x0 KECCAK256 SWAP1 PUSH1 0x4 MUL ADD PUSH1 0x2 ADD PUSH1 0x1 PUSH1 0x0 DUP7 DUP2 SLOAD DUP2 LT PUSH2 0x476 JUMPI PUSH2 0x475 PUSH2 0x3C8E JUMP JUMPDEST JUMPDEST SWAP1 PUSH1 0x0 MSTORE PUSH1 0x20 PUSH1 0x0 KECCAK256 SWAP1 PUSH1 0x4 MUL ADD PUSH1 0x2 ADD DUP1 SLOAD SWAP1 POP PUSH2 0x495 SWAP2 SWAP1 PUSH2 0x3AC6 JUMP JUMPDEST DUP2 SLOAD DUP2 LT PUSH2 0x4A6 JUMPI PUSH2 0x4A5 PUSH2 0x3C8E JUMP JUMPDEST JUMPDEST SWAP1 PUSH1 0x0 MSTORE PUSH1 0x20 PUSH1 0x0 KECCAK256 SWAP1 PUSH1 0x5 MUL ADD PUSH1 0x4 ADD SWAP1 DUP1 MLOAD SWAP1 PUSH1 0x20 ADD SWAP1 PUSH2 0x4CA SWAP3 SWAP2 SWAP1 PUSH2 0x29FA JUMP JUMPDEST POP POP POP POP JUMP JUMPDEST CALLER PUSH1 0x0 DUP1 JUMPDEST PUSH1 0x1 DUP1 SLOAD SWAP1 POP DUP2 LT ISZERO PUSH2 0x577 JUMPI DUP3 PUSH20 0xFFFFFFFFFFFFFFFFFFFFFFFFFFFFFFFFFFFFFFFF AND PUSH1 0x1 DUP3 DUP2 SLOAD DUP2 LT PUSH2 0x50D JUMPI PUSH2 0x50C PUSH2 0x3C8E JUMP JUMPDEST JUMPDEST SWAP1 PUSH1 0x0 MSTORE PUSH1 0x20 PUSH1 0x0 KECCAK256 SWAP1 PUSH1 0x3 MUL ADD PUSH1 0x0 ADD PUSH1 0x0 SWAP1 SLOAD SWAP1 PUSH2 0x100 EXP SWAP1 DIV PUSH20 0xFFFFFFFFFFFFFFFFFFFFFFFFFFFFFFFFFFFFFFFF AND PUSH20 0xFFFFFFFFFFFFFFFFFFFFFFFFFFFFFFFFFFFFFFFF AND EQ ISZERO PUSH2 0x564 JUMPI PUSH1 0x1 SWAP2 POP PUSH2 0x577 JUMP JUMPDEST DUP1 DUP1 PUSH2 0x56F SWAP1 PUSH2 0x3BE7 JUMP JUMPDEST SWAP2 POP POP PUSH2 0x4D5 JUMP JUMPDEST POP DUP1 PUSH2 0x5B8 JUMPI PUSH1 0x40 MLOAD PUSH32 0x8C379A000000000000000000000000000000000000000000000000000000000 DUP2 MSTORE PUSH1 0x4 ADD PUSH2 0x5AF SWAP1 PUSH2 0x381B JUMP JUMPDEST PUSH1 0x40 MLOAD DUP1 SWAP2 SUB SWAP1 REVERT JUMPDEST CALLER PUSH1 0x0 JUMPDEST PUSH1 0x1 DUP1 SLOAD SWAP1 POP DUP2 LT ISZERO PUSH2 0x6C2 JUMPI DUP2 PUSH20 0xFFFFFFFFFFFFFFFFFFFFFFFFFFFFFFFFFFFFFFFF AND PUSH1 0x1 DUP3 DUP2 SLOAD DUP2 LT PUSH2 0x5F4 JUMPI PUSH2 0x5F3 PUSH2 0x3C8E JUMP JUMPDEST JUMPDEST SWAP1 PUSH1 0x0 MSTORE PUSH1 0x20 PUSH1 0x0 KECCAK256 SWAP1 PUSH1 0x3 MUL ADD PUSH1 0x0 ADD PUSH1 0x0 SWAP1 SLOAD SWAP1 PUSH2 0x100 EXP SWAP1 DIV PUSH20 0xFFFFFFFFFFFFFFFFFFFFFFFFFFFFFFFFFFFFFFFF AND PUSH20 0xFFFFFFFFFFFFFFFFFFFFFFFFFFFFFFFFFFFFFFFF AND EQ ISZERO PUSH2 0x6AF JUMPI PUSH1 0x0 PUSH1 0x1 DUP3 DUP2 SLOAD DUP2 LT PUSH2 0x658 JUMPI PUSH2 0x657 PUSH2 0x3C8E JUMP JUMPDEST JUMPDEST SWAP1 PUSH1 0x0 MSTORE PUSH1 0x20 PUSH1 0x0 KECCAK256 SWAP1 PUSH1 0x3 MUL ADD PUSH1 0x2 ADD SLOAD EQ PUSH2 0x6AA JUMPI PUSH1 0x40 MLOAD PUSH32 0x8C379A000000000000000000000000000000000000000000000000000000000 DUP2 MSTORE PUSH1 0x4 ADD PUSH2 0x6A1 SWAP1 PUSH2 0x377B JUMP JUMPDEST PUSH1 0x40 MLOAD DUP1 SWAP2 SUB SWAP1 REVERT JUMPDEST PUSH2 0x6C2 JUMP JUMPDEST DUP1 DUP1 PUSH2 0x6BA SWAP1 PUSH2 0x3BE7 JUMP JUMPDEST SWAP2 POP POP PUSH2 0x5BC JUMP JUMPDEST POP PUSH1 0x1 DUP1 PUSH1 0x3 DUP7 DUP2 SLOAD DUP2 LT PUSH2 0x6DA JUMPI PUSH2 0x6D9 PUSH2 0x3C8E JUMP JUMPDEST JUMPDEST SWAP1 PUSH1 0x0 MSTORE PUSH1 0x20 PUSH1 0x0 KECCAK256 SWAP1 PUSH1 0x3 MUL ADD PUSH1 0x0 ADD SLOAD DUP2 SLOAD DUP2 LT PUSH2 0x6FD JUMPI PUSH2 0x6FC PUSH2 0x3C8E JUMP JUMPDEST JUMPDEST SWAP1 PUSH1 0x0 MSTORE PUSH1 0x20 PUSH1 0x0 KECCAK256 SWAP1 PUSH1 0x3 MUL ADD PUSH1 0x1 ADD DUP2 SWAP1 SSTORE POP PUSH1 0x0 PUSH1 0x3 DUP6 DUP2 SLOAD DUP2 LT PUSH2 0x728 JUMPI PUSH2 0x727 PUSH2 0x3C8E JUMP JUMPDEST JUMPDEST SWAP1 PUSH1 0x0 MSTORE PUSH1 0x20 PUSH1 0x0 KECCAK256 SWAP1 PUSH1 0x3 MUL ADD PUSH1 0x1 ADD SLOAD DUP2 SLOAD DUP2 LT PUSH2 0x74B JUMPI PUSH2 0x74A PUSH2 0x3C8E JUMP JUMPDEST JUMPDEST SWAP1 PUSH1 0x0 MSTORE PUSH1 0x20 PUSH1 0x0 KECCAK256 SWAP1 PUSH1 0x4 MUL ADD PUSH1 0x3 ADD PUSH1 0x3 DUP6 DUP2 SLOAD DUP2 LT PUSH2 0x770 JUMPI PUSH2 0x76F PUSH2 0x3C8E JUMP JUMPDEST JUMPDEST SWAP1 PUSH1 0x0 MSTORE PUSH1 0x20 PUSH1 0x0 KECCAK256 SWAP1 PUSH1 0x3 MUL ADD PUSH1 0x0 ADD SLOAD SWAP1 DUP1 PUSH1 0x1 DUP2 SLOAD ADD DUP1 DUP3 SSTORE DUP1 SWAP2 POP POP PUSH1 0x1 SWAP1 SUB SWAP1 PUSH1 0x0 MSTORE PUSH1 0x20 PUSH1 0x0 KECCAK256 ADD PUSH1 0x0 SWAP1 SWAP2 SWAP1 SWAP2 SWAP1 SWAP2 POP SSTORE PUSH1 0x1 PUSH1 0x3 DUP6 DUP2 SLOAD DUP2 LT PUSH2 0x7BE JUMPI PUSH2 0x7BD PUSH2 0x3C8E JUMP JUMPDEST JUMPDEST SWAP1 PUSH1 0x0 MSTORE PUSH1 0x20 PUSH1 0x0 KECCAK256 SWAP1 PUSH1 0x3 MUL ADD PUSH1 0x2 ADD PUSH1 0x0 PUSH2 0x100 EXP DUP2 SLOAD DUP2 PUSH1 0xFF MUL NOT AND SWAP1 DUP4 ISZERO ISZERO MUL OR SWAP1 SSTORE POP POP POP POP POP JUMP JUMPDEST CALLER PUSH1 0x0 DUP1 JUMPDEST PUSH1 0x1 DUP1 SLOAD SWAP1 POP DUP2 LT ISZERO PUSH2 0x893 JUMPI DUP3 PUSH20 0xFFFFFFFFFFFFFFFFFFFFFFFFFFFFFFFFFFFFFFFF AND PUSH1 0x1 DUP3 DUP2 SLOAD DUP2 LT PUSH2 0x829 JUMPI PUSH2 0x828 PUSH2 0x3C8E JUMP JUMPDEST JUMPDEST SWAP1 PUSH1 0x0 MSTORE PUSH1 0x20 PUSH1 0x0 KECCAK256 SWAP1 PUSH1 0x3 MUL ADD PUSH1 0x0 ADD PUSH1 0x0 SWAP1 SLOAD SWAP1 PUSH2 0x100 EXP SWAP1 DIV PUSH20 0xFFFFFFFFFFFFFFFFFFFFFFFFFFFFFFFFFFFFFFFF AND PUSH20 0xFFFFFFFFFFFFFFFFFFFFFFFFFFFFFFFFFFFFFFFF AND EQ ISZERO PUSH2 0x880 JUMPI PUSH1 0x1 SWAP2 POP PUSH2 0x893 JUMP JUMPDEST DUP1 DUP1 PUSH2 0x88B SWAP1 PUSH2 0x3BE7 JUMP JUMPDEST SWAP2 POP POP PUSH2 0x7F1 JUMP JUMPDEST POP DUP1 PUSH2 0x8D4 JUMPI PUSH1 0x40 MLOAD PUSH32 0x8C379A000000000000000000000000000000000000000000000000000000000 DUP2 MSTORE PUSH1 0x4 ADD PUSH2 0x8CB SWAP1 PUSH2 0x381B JUMP JUMPDEST PUSH1 0x40 MLOAD DUP1 SWAP2 SUB SWAP1 REVERT JUMPDEST CALLER PUSH1 0x0 JUMPDEST PUSH1 0x1 DUP1 SLOAD SWAP1 POP DUP2 LT ISZERO PUSH2 0x9DE JUMPI DUP2 PUSH20 0xFFFFFFFFFFFFFFFFFFFFFFFFFFFFFFFFFFFFFFFF AND PUSH1 0x1 DUP3 DUP2 SLOAD DUP2 LT PUSH2 0x910 JUMPI PUSH2 0x90F PUSH2 0x3C8E JUMP JUMPDEST JUMPDEST SWAP1 PUSH1 0x0 MSTORE PUSH1 0x20 PUSH1 0x0 KECCAK256 SWAP1 PUSH1 0x3 MUL ADD PUSH1 0x0 ADD PUSH1 0x0 SWAP1 SLOAD SWAP1 PUSH2 0x100 EXP SWAP1 DIV PUSH20 0xFFFFFFFFFFFFFFFFFFFFFFFFFFFFFFFFFFFFFFFF AND PUSH20 0xFFFFFFFFFFFFFFFFFFFFFFFFFFFFFFFFFFFFFFFF AND EQ ISZERO PUSH2 0x9CB JUMPI PUSH1 0x0 PUSH1 0x1 DUP3 DUP2 SLOAD DUP2 LT PUSH2 0x974 JUMPI PUSH2 0x973 PUSH2 0x3C8E JUMP JUMPDEST JUMPDEST SWAP1 PUSH1 0x0 MSTORE PUSH1 0x20 PUSH1 0x0 KECCAK256 SWAP1 PUSH1 0x3 MUL ADD PUSH1 0x2 ADD SLOAD EQ PUSH2 0x9C6 JUMPI PUSH1 0x40 MLOAD PUSH32 0x8C379A000000000000000000000000000000000000000000000000000000000 DUP2 MSTORE PUSH1 0x4 ADD PUSH2 0x9BD SWAP1 PUSH2 0x377B JUMP JUMPDEST PUSH1 0x40 MLOAD DUP1 SWAP2 SUB SWAP1 REVERT JUMPDEST PUSH2 0x9DE JUMP JUMPDEST DUP1 DUP1 PUSH2 0x9D6 SWAP1 PUSH2 0x3BE7 JUMP JUMPDEST SWAP2 POP POP PUSH2 0x8D8 JUMP JUMPDEST POP DUP5 PUSH1 0x0 JUMPDEST PUSH1 0x1 DUP1 SLOAD SWAP1 POP DUP2 LT ISZERO PUSH2 0xAB7 JUMPI DUP2 PUSH20 0xFFFFFFFFFFFFFFFFFFFFFFFFFFFFFFFFFFFFFFFF AND PUSH1 0x1 DUP3 DUP2 SLOAD DUP2 LT PUSH2 0xA1B JUMPI PUSH2 0xA1A PUSH2 0x3C8E JUMP JUMPDEST JUMPDEST SWAP1 PUSH1 0x0 MSTORE PUSH1 0x20 PUSH1 0x0 KECCAK256 SWAP1 PUSH1 0x3 MUL ADD PUSH1 0x0 ADD PUSH1 0x0 SWAP1 SLOAD SWAP1 PUSH2 0x100 EXP SWAP1 DIV PUSH20 0xFFFFFFFFFFFFFFFFFFFFFFFFFFFFFFFFFFFFFFFF AND PUSH20 0xFFFFFFFFFFFFFFFFFFFFFFFFFFFFFFFFFFFFFFFF AND EQ ISZERO PUSH2 0xAA4 JUMPI PUSH1 0x40 MLOAD PUSH32 0x8C379A000000000000000000000000000000000000000000000000000000000 DUP2 MSTORE PUSH1 0x4 ADD PUSH2 0xA9B SWAP1 PUSH2 0x379B JUMP JUMPDEST PUSH1 0x40 MLOAD DUP1 SWAP2 SUB SWAP1 REVERT JUMPDEST DUP1 DUP1 PUSH2 0xAAF SWAP1 PUSH2 0x3BE7 JUMP JUMPDEST SWAP2 POP POP PUSH2 0x9E3 JUMP JUMPDEST POP DUP6 PUSH1 0x0 JUMPDEST PUSH1 0x1 DUP1 SLOAD SWAP1 POP DUP2 LT ISZERO PUSH2 0xB90 JUMPI DUP2 PUSH20 0xFFFFFFFFFFFFFFFFFFFFFFFFFFFFFFFFFFFFFFFF AND PUSH1 0x1 DUP3 DUP2 SLOAD DUP2 LT PUSH2 0xAF4 JUMPI PUSH2 0xAF3 PUSH2 0x3C8E JUMP JUMPDEST JUMPDEST SWAP1 PUSH1 0x0 MSTORE PUSH1 0x20 PUSH1 0x0 KECCAK256 SWAP1 PUSH1 0x3 MUL ADD PUSH1 0x0 ADD PUSH1 0x0 SWAP1 SLOAD SWAP1 PUSH2 0x100 EXP SWAP1 DIV PUSH20 0xFFFFFFFFFFFFFFFFFFFFFFFFFFFFFFFFFFFFFFFF AND PUSH20 0xFFFFFFFFFFFFFFFFFFFFFFFFFFFFFFFFFFFFFFFF AND EQ ISZERO PUSH2 0xB7D JUMPI PUSH1 0x40 MLOAD PUSH32 0x8C379A000000000000000000000000000000000000000000000000000000000 DUP2 MSTORE PUSH1 0x4 ADD PUSH2 0xB74 SWAP1 PUSH2 0x37DB JUMP JUMPDEST PUSH1 0x40 MLOAD DUP1 SWAP2 SUB SWAP1 REVERT JUMPDEST DUP1 DUP1 PUSH2 0xB88 SWAP1 PUSH2 0x3BE7 JUMP JUMPDEST SWAP2 POP POP PUSH2 0xABC JUMP JUMPDEST POP PUSH1 0x0 JUMPDEST PUSH1 0x0 DUP1 SLOAD SWAP1 POP DUP2 LT ISZERO PUSH2 0xC68 JUMPI DUP2 PUSH20 0xFFFFFFFFFFFFFFFFFFFFFFFFFFFFFFFFFFFFFFFF AND PUSH1 0x0 DUP3 DUP2 SLOAD DUP2 LT PUSH2 0xBCC JUMPI PUSH2 0xBCB PUSH2 0x3C8E JUMP JUMPDEST JUMPDEST SWAP1 PUSH1 0x0 MSTORE PUSH1 0x20 PUSH1 0x0 KECCAK256 SWAP1 PUSH1 0x4 MUL ADD PUSH1 0x0 ADD PUSH1 0x0 SWAP1 SLOAD SWAP1 PUSH2 0x100 EXP SWAP1 DIV PUSH20 0xFFFFFFFFFFFFFFFFFFFFFFFFFFFFFFFFFFFFFFFF AND PUSH20 0xFFFFFFFFFFFFFFFFFFFFFFFFFFFFFFFFFFFFFFFF AND EQ ISZERO PUSH2 0xC55 JUMPI PUSH1 0x40 MLOAD PUSH32 0x8C379A000000000000000000000000000000000000000000000000000000000 DUP2 MSTORE PUSH1 0x4 ADD PUSH2 0xC4C SWAP1 PUSH2 0x383B JUMP JUMPDEST PUSH1 0x40 MLOAD DUP1 SWAP2 SUB SWAP1 REVERT JUMPDEST DUP1 DUP1 PUSH2 0xC60 SWAP1 PUSH2 0x3BE7 JUMP JUMPDEST SWAP2 POP POP PUSH2 0xB94 JUMP JUMPDEST POP PUSH1 0x0 DUP1 PUSH1 0x1 DUP2 PUSH1 0x1 DUP2 SLOAD ADD DUP1 DUP3 SSTORE DUP1 SWAP2 POP POP SUB SWAP1 PUSH1 0x0 MSTORE PUSH1 0x20 PUSH1 0x0 KECCAK256 SWAP1 PUSH1 0x4 MUL ADD SWAP1 POP DUP8 DUP2 PUSH1 0x0 ADD PUSH1 0x0 PUSH2 0x100 EXP DUP2 SLOAD DUP2 PUSH20 0xFFFFFFFFFFFFFFFFFFFFFFFFFFFFFFFFFFFFFFFF MUL NOT AND SWAP1 DUP4 PUSH20 0xFFFFFFFFFFFFFFFFFFFFFFFFFFFFFFFFFFFFFFFF AND MUL OR SWAP1 SSTORE POP DUP7 DUP2 PUSH1 0x1 ADD SWAP1 DUP1 MLOAD SWAP1 PUSH1 0x20 ADD SWAP1 PUSH2 0xCE7 SWAP3 SWAP2 SWAP1 PUSH2 0x29FA JUMP JUMPDEST POP POP POP POP POP POP POP POP POP JUMP JUMPDEST PUSH1 0x0 JUMPDEST PUSH1 0x1 DUP1 SLOAD SWAP1 POP DUP2 LT ISZERO PUSH2 0xE7B JUMPI CALLER PUSH20 0xFFFFFFFFFFFFFFFFFFFFFFFFFFFFFFFFFFFFFFFF AND PUSH1 0x1 DUP3 DUP2 SLOAD DUP2 LT PUSH2 0xD2D JUMPI PUSH2 0xD2C PUSH2 0x3C8E JUMP JUMPDEST JUMPDEST SWAP1 PUSH1 0x0 MSTORE PUSH1 0x20 PUSH1 0x0 KECCAK256 SWAP1 PUSH1 0x3 MUL ADD PUSH1 0x0 ADD PUSH1 0x0 SWAP1 SLOAD SWAP1 PUSH2 0x100 EXP SWAP1 DIV PUSH20 0xFFFFFFFFFFFFFFFFFFFFFFFFFFFFFFFFFFFFFFFF AND PUSH20 0xFFFFFFFFFFFFFFFFFFFFFFFFFFFFFFFFFFFFFFFF AND EQ ISZERO PUSH2 0xE68 JUMPI PUSH1 0x0 PUSH1 0x1 DUP3 DUP2 SLOAD DUP2 LT PUSH2 0xD91 JUMPI PUSH2 0xD90 PUSH2 0x3C8E JUMP JUMPDEST JUMPDEST SWAP1 PUSH1 0x0 MSTORE PUSH1 0x20 PUSH1 0x0 KECCAK256 SWAP1 PUSH1 0x3 MUL ADD PUSH1 0x1 ADD SLOAD EQ ISZERO PUSH2 0xDE4 JUMPI PUSH1 0x40 MLOAD PUSH32 0x8C379A000000000000000000000000000000000000000000000000000000000 DUP2 MSTORE PUSH1 0x4 ADD PUSH2 0xDDB SWAP1 PUSH2 0x375B JUMP JUMPDEST PUSH1 0x40 MLOAD DUP1 SWAP2 SUB SWAP1 REVERT JUMPDEST PUSH1 0x3 PUSH1 0x40 MLOAD DUP1 PUSH1 0x60 ADD PUSH1 0x40 MSTORE DUP1 DUP4 DUP2 MSTORE PUSH1 0x20 ADD DUP5 DUP2 MSTORE PUSH1 0x20 ADD PUSH1 0x0 ISZERO ISZERO DUP2 MSTORE POP SWAP1 DUP1 PUSH1 0x1 DUP2 SLOAD ADD DUP1 DUP3 SSTORE DUP1 SWAP2 POP POP PUSH1 0x1 SWAP1 SUB SWAP1 PUSH1 0x0 MSTORE PUSH1 0x20 PUSH1 0x0 KECCAK256 SWAP1 PUSH1 0x3 MUL ADD PUSH1 0x0 SWAP1 SWAP2 SWAP1 SWAP2 SWAP1 SWAP2 POP PUSH1 0x0 DUP3 ADD MLOAD DUP2 PUSH1 0x0 ADD SSTORE PUSH1 0x20 DUP3 ADD MLOAD DUP2 PUSH1 0x1 ADD SSTORE PUSH1 0x40 DUP3 ADD MLOAD DUP2 PUSH1 0x2 ADD PUSH1 0x0 PUSH2 0x100 EXP DUP2 SLOAD DUP2 PUSH1 0xFF MUL NOT AND SWAP1 DUP4 ISZERO ISZERO MUL OR SWAP1 SSTORE POP POP POP PUSH2 0xE7B JUMP JUMPDEST DUP1 DUP1 PUSH2 0xE73 SWAP1 PUSH2 0x3BE7 JUMP JUMPDEST SWAP2 POP POP PUSH2 0xCF5 JUMP JUMPDEST POP POP JUMP JUMPDEST PUSH1 0x60 PUSH1 0x0 DUP1 SLOAD DUP1 PUSH1 0x20 MUL PUSH1 0x20 ADD PUSH1 0x40 MLOAD SWAP1 DUP2 ADD PUSH1 0x40 MSTORE DUP1 SWAP3 SWAP2 SWAP1 DUP2 DUP2 MSTORE PUSH1 0x20 ADD PUSH1 0x0 SWAP1 JUMPDEST DUP3 DUP3 LT ISZERO PUSH2 0x1445 JUMPI DUP4 DUP3 SWAP1 PUSH1 0x0 MSTORE PUSH1 0x20 PUSH1 0x0 KECCAK256 SWAP1 PUSH1 0x4 MUL ADD PUSH1 0x40 MLOAD DUP1 PUSH1 0x80 ADD PUSH1 0x40 MSTORE SWAP1 DUP2 PUSH1 0x0 DUP3 ADD PUSH1 0x0 SWAP1 SLOAD SWAP1 PUSH2 0x100 EXP SWAP1 DIV PUSH20 0xFFFFFFFFFFFFFFFFFFFFFFFFFFFFFFFFFFFFFFFF AND PUSH20 0xFFFFFFFFFFFFFFFFFFFFFFFFFFFFFFFFFFFFFFFF AND PUSH20 0xFFFFFFFFFFFFFFFFFFFFFFFFFFFFFFFFFFFFFFFF AND DUP2 MSTORE PUSH1 0x20 ADD PUSH1 0x1 DUP3 ADD DUP1 SLOAD PUSH2 0xF2C SWAP1 PUSH2 0x3B84 JUMP JUMPDEST DUP1 PUSH1 0x1F ADD PUSH1 0x20 DUP1 SWAP2 DIV MUL PUSH1 0x20 ADD PUSH1 0x40 MLOAD SWAP1 DUP2 ADD PUSH1 0x40 MSTORE DUP1 SWAP3 SWAP2 SWAP1 DUP2 DUP2 MSTORE PUSH1 0x20 ADD DUP3 DUP1 SLOAD PUSH2 0xF58 SWAP1 PUSH2 0x3B84 JUMP JUMPDEST DUP1 ISZERO PUSH2 0xFA5 JUMPI DUP1 PUSH1 0x1F LT PUSH2 0xF7A JUMPI PUSH2 0x100 DUP1 DUP4 SLOAD DIV MUL DUP4 MSTORE SWAP2 PUSH1 0x20 ADD SWAP2 PUSH2 0xFA5 JUMP JUMPDEST DUP3 ADD SWAP2 SWAP1 PUSH1 0x0 MSTORE PUSH1 0x20 PUSH1 0x0 KECCAK256 SWAP1 JUMPDEST DUP2 SLOAD DUP2 MSTORE SWAP1 PUSH1 0x1 ADD SWAP1 PUSH1 0x20 ADD DUP1 DUP4 GT PUSH2 0xF88 JUMPI DUP3 SWAP1 SUB PUSH1 0x1F AND DUP3 ADD SWAP2 JUMPDEST POP POP POP POP POP DUP2 MSTORE PUSH1 0x20 ADD PUSH1 0x2 DUP3 ADD DUP1 SLOAD DUP1 PUSH1 0x20 MUL PUSH1 0x20 ADD PUSH1 0x40 MLOAD SWAP1 DUP2 ADD PUSH1 0x40 MSTORE DUP1 SWAP3 SWAP2 SWAP1 DUP2 DUP2 MSTORE PUSH1 0x20 ADD PUSH1 0x0 SWAP1 JUMPDEST DUP3 DUP3 LT ISZERO PUSH2 0x13D6 JUMPI DUP4 DUP3 SWAP1 PUSH1 0x0 MSTORE PUSH1 0x20 PUSH1 0x0 KECCAK256 SWAP1 PUSH1 0x5 MUL ADD PUSH1 0x40 MLOAD DUP1 PUSH1 0xA0 ADD PUSH1 0x40 MSTORE SWAP1 DUP2 PUSH1 0x0 DUP3 ADD PUSH1 0x0 SWAP1 SLOAD SWAP1 PUSH2 0x100 EXP SWAP1 DIV PUSH20 0xFFFFFFFFFFFFFFFFFFFFFFFFFFFFFFFFFFFFFFFF AND PUSH20 0xFFFFFFFFFFFFFFFFFFFFFFFFFFFFFFFFFFFFFFFF AND PUSH20 0xFFFFFFFFFFFFFFFFFFFFFFFFFFFFFFFFFFFFFFFF AND DUP2 MSTORE PUSH1 0x20 ADD PUSH1 0x1 DUP3 ADD SLOAD DUP2 MSTORE PUSH1 0x20 ADD PUSH1 0x2 DUP3 ADD DUP1 SLOAD DUP1 PUSH1 0x20 MUL PUSH1 0x20 ADD PUSH1 0x40 MLOAD SWAP1 DUP2 ADD PUSH1 0x40 MSTORE DUP1 SWAP3 SWAP2 SWAP1 DUP2 DUP2 MSTORE PUSH1 0x20 ADD PUSH1 0x0 SWAP1 JUMPDEST DUP3 DUP3 LT ISZERO PUSH2 0x111A JUMPI DUP4 DUP3 SWAP1 PUSH1 0x0 MSTORE PUSH1 0x20 PUSH1 0x0 KECCAK256 ADD PUSH1 0x40 MLOAD DUP1 PUSH1 0x40 ADD PUSH1 0x40 MSTORE SWAP1 DUP2 PUSH1 0x0 DUP3 ADD PUSH1 0x0 SWAP1 SLOAD SWAP1 PUSH2 0x100 EXP SWAP1 DIV PUSH20 0xFFFFFFFFFFFFFFFFFFFFFFFFFFFFFFFFFFFFFFFF AND PUSH20 0xFFFFFFFFFFFFFFFFFFFFFFFFFFFFFFFFFFFFFFFF AND PUSH20 0xFFFFFFFFFFFFFFFFFFFFFFFFFFFFFFFFFFFFFFFF AND DUP2 MSTORE PUSH1 0x20 ADD PUSH1 0x0 DUP3 ADD PUSH1 0x14 SWAP1 SLOAD SWAP1 PUSH2 0x100 EXP SWAP1 DIV PUSH1 0xFF AND ISZERO ISZERO ISZERO ISZERO DUP2 MSTORE POP POP DUP2 MSTORE PUSH1 0x20 ADD SWAP1 PUSH1 0x1 ADD SWAP1 PUSH2 0x107B JUMP JUMPDEST POP POP POP POP DUP2 MSTORE PUSH1 0x20 ADD PUSH1 0x3 DUP3 ADD DUP1 SLOAD DUP1 PUSH1 0x20 MUL PUSH1 0x20 ADD PUSH1 0x40 MLOAD SWAP1 DUP2 ADD PUSH1 0x40 MSTORE DUP1 SWAP3 SWAP2 SWAP1 DUP2 DUP2 MSTORE PUSH1 0x20 ADD PUSH1 0x0 SWAP1 JUMPDEST DUP3 DUP3 LT ISZERO PUSH2 0x132D JUMPI DUP4 DUP3 SWAP1 PUSH1 0x0 MSTORE PUSH1 0x20 PUSH1 0x0 KECCAK256 SWAP1 PUSH1 0x3 MUL ADD PUSH1 0x40 MLOAD DUP1 PUSH1 0x60 ADD PUSH1 0x40 MSTORE SWAP1 DUP2 PUSH1 0x0 DUP3 ADD PUSH1 0x0 SWAP1 SLOAD SWAP1 PUSH2 0x100 EXP SWAP1 DIV PUSH20 0xFFFFFFFFFFFFFFFFFFFFFFFFFFFFFFFFFFFFFFFF AND PUSH20 0xFFFFFFFFFFFFFFFFFFFFFFFFFFFFFFFFFFFFFFFF AND PUSH20 0xFFFFFFFFFFFFFFFFFFFFFFFFFFFFFFFFFFFFFFFF AND DUP2 MSTORE PUSH1 0x20 ADD PUSH1 0x1 DUP3 ADD DUP1 SLOAD DUP1 PUSH1 0x20 MUL PUSH1 0x20 ADD PUSH1 0x40 MLOAD SWAP1 DUP2 ADD PUSH1 0x40 MSTORE DUP1 SWAP3 SWAP2 SWAP1 DUP2 DUP2 MSTORE PUSH1 0x20 ADD PUSH1 0x0 SWAP1 JUMPDEST DUP3 DUP3 LT ISZERO PUSH2 0x1284 JUMPI DUP4 DUP3 SWAP1 PUSH1 0x0 MSTORE PUSH1 0x20 PUSH1 0x0 KECCAK256 ADD PUSH1 0x40 MLOAD DUP1 PUSH1 0x40 ADD PUSH1 0x40 MSTORE SWAP1 DUP2 PUSH1 0x0 DUP3 ADD PUSH1 0x0 SWAP1 SLOAD SWAP1 PUSH2 0x100 EXP SWAP1 DIV PUSH20 0xFFFFFFFFFFFFFFFFFFFFFFFFFFFFFFFFFFFFFFFF AND PUSH20 0xFFFFFFFFFFFFFFFFFFFFFFFFFFFFFFFFFFFFFFFF AND PUSH20 0xFFFFFFFFFFFFFFFFFFFFFFFFFFFFFFFFFFFFFFFF AND DUP2 MSTORE PUSH1 0x20 ADD PUSH1 0x0 DUP3 ADD PUSH1 0x14 SWAP1 SLOAD SWAP1 PUSH2 0x100 EXP SWAP1 DIV PUSH1 0xFF AND ISZERO ISZERO ISZERO ISZERO DUP2 MSTORE POP POP DUP2 MSTORE PUSH1 0x20 ADD SWAP1 PUSH1 0x1 ADD SWAP1 PUSH2 0x11E5 JUMP JUMPDEST POP POP POP POP DUP2 MSTORE PUSH1 0x20 ADD PUSH1 0x2 DUP3 ADD DUP1 SLOAD PUSH2 0x129C SWAP1 PUSH2 0x3B84 JUMP JUMPDEST DUP1 PUSH1 0x1F ADD PUSH1 0x20 DUP1 SWAP2 DIV MUL PUSH1 0x20 ADD PUSH1 0x40 MLOAD SWAP1 DUP2 ADD PUSH1 0x40 MSTORE DUP1 SWAP3 SWAP2 SWAP1 DUP2 DUP2 MSTORE PUSH1 0x20 ADD DUP3 DUP1 SLOAD PUSH2 0x12C8 SWAP1 PUSH2 0x3B84 JUMP JUMPDEST DUP1 ISZERO PUSH2 0x1315 JUMPI DUP1 PUSH1 0x1F LT PUSH2 0x12EA JUMPI PUSH2 0x100 DUP1 DUP4 SLOAD DIV MUL DUP4 MSTORE SWAP2 PUSH1 0x20 ADD SWAP2 PUSH2 0x1315 JUMP JUMPDEST DUP3 ADD SWAP2 SWAP1 PUSH1 0x0 MSTORE PUSH1 0x20 PUSH1 0x0 KECCAK256 SWAP1 JUMPDEST DUP2 SLOAD DUP2 MSTORE SWAP1 PUSH1 0x1 ADD SWAP1 PUSH1 0x20 ADD DUP1 DUP4 GT PUSH2 0x12F8 JUMPI DUP3 SWAP1 SUB PUSH1 0x1F AND DUP3 ADD SWAP2 JUMPDEST POP POP POP POP POP DUP2 MSTORE POP POP DUP2 MSTORE PUSH1 0x20 ADD SWAP1 PUSH1 0x1 ADD SWAP1 PUSH2 0x1147 JUMP JUMPDEST POP POP POP POP DUP2 MSTORE PUSH1 0x20 ADD PUSH1 0x4 DUP3 ADD DUP1 SLOAD PUSH2 0x1345 SWAP1 PUSH2 0x3B84 JUMP JUMPDEST DUP1 PUSH1 0x1F ADD PUSH1 0x20 DUP1 SWAP2 DIV MUL PUSH1 0x20 ADD PUSH1 0x40 MLOAD SWAP1 DUP2 ADD PUSH1 0x40 MSTORE DUP1 SWAP3 SWAP2 SWAP1 DUP2 DUP2 MSTORE PUSH1 0x20 ADD DUP3 DUP1 SLOAD PUSH2 0x1371 SWAP1 PUSH2 0x3B84 JUMP JUMPDEST DUP1 ISZERO PUSH2 0x13BE JUMPI DUP1 PUSH1 0x1F LT PUSH2 0x1393 JUMPI PUSH2 0x100 DUP1 DUP4 SLOAD DIV MUL DUP4 MSTORE SWAP2 PUSH1 0x20 ADD SWAP2 PUSH2 0x13BE JUMP JUMPDEST DUP3 ADD SWAP2 SWAP1 PUSH1 0x0 MSTORE PUSH1 0x20 PUSH1 0x0 KECCAK256 SWAP1 JUMPDEST DUP2 SLOAD DUP2 MSTORE SWAP1 PUSH1 0x1 ADD SWAP1 PUSH1 0x20 ADD DUP1 DUP4 GT PUSH2 0x13A1 JUMPI DUP3 SWAP1 SUB PUSH1 0x1F AND DUP3 ADD SWAP2 JUMPDEST POP POP POP POP POP DUP2 MSTORE POP POP DUP2 MSTORE PUSH1 0x20 ADD SWAP1 PUSH1 0x1 ADD SWAP1 PUSH2 0xFD3 JUMP JUMPDEST POP POP POP POP DUP2 MSTORE PUSH1 0x20 ADD PUSH1 0x3 DUP3 ADD DUP1 SLOAD DUP1 PUSH1 0x20 MUL PUSH1 0x20 ADD PUSH1 0x40 MLOAD SWAP1 DUP2 ADD PUSH1 0x40 MSTORE DUP1 SWAP3 SWAP2 SWAP1 DUP2 DUP2 MSTORE PUSH1 0x20 ADD DUP3 DUP1 SLOAD DUP1 ISZERO PUSH2 0x142D JUMPI PUSH1 0x20 MUL DUP3 ADD SWAP2 SWAP1 PUSH1 0x0 MSTORE PUSH1 0x20 PUSH1 0x0 KECCAK256 SWAP1 JUMPDEST DUP2 SLOAD DUP2 MSTORE PUSH1 0x20 ADD SWAP1 PUSH1 0x1 ADD SWAP1 DUP1 DUP4 GT PUSH2 0x1419 JUMPI JUMPDEST POP POP POP POP POP DUP2 MSTORE POP POP DUP2 MSTORE PUSH1 0x20 ADD SWAP1 PUSH1 0x1 ADD SWAP1 PUSH2 0xEA3 JUMP JUMPDEST POP POP POP POP SWAP1 POP SWAP1 JUMP JUMPDEST PUSH1 0x0 JUMPDEST PUSH1 0x1 DUP1 SLOAD SWAP1 POP DUP2 LT ISZERO PUSH2 0x15C7 JUMPI CALLER PUSH20 0xFFFFFFFFFFFFFFFFFFFFFFFFFFFFFFFFFFFFFFFF AND PUSH1 0x1 DUP3 DUP2 SLOAD DUP2 LT PUSH2 0x1489 JUMPI PUSH2 0x1488 PUSH2 0x3C8E JUMP JUMPDEST JUMPDEST SWAP1 PUSH1 0x0 MSTORE PUSH1 0x20 PUSH1 0x0 KECCAK256 SWAP1 PUSH1 0x3 MUL ADD PUSH1 0x0 ADD PUSH1 0x0 SWAP1 SLOAD SWAP1 PUSH2 0x100 EXP SWAP1 DIV PUSH20 0xFFFFFFFFFFFFFFFFFFFFFFFFFFFFFFFFFFFFFFFF AND PUSH20 0xFFFFFFFFFFFFFFFFFFFFFFFFFFFFFFFFFFFFFFFF AND EQ ISZERO PUSH2 0x15B4 JUMPI PUSH1 0x0 PUSH1 0x1 DUP3 DUP2 SLOAD DUP2 LT PUSH2 0x14ED JUMPI PUSH2 0x14EC PUSH2 0x3C8E JUMP JUMPDEST JUMPDEST SWAP1 PUSH1 0x0 MSTORE PUSH1 0x20 PUSH1 0x0 KECCAK256 SWAP1 PUSH1 0x3 MUL ADD PUSH1 0x1 ADD SLOAD EQ ISZERO PUSH2 0x1540 JUMPI PUSH1 0x40 MLOAD PUSH32 0x8C379A000000000000000000000000000000000000000000000000000000000 DUP2 MSTORE PUSH1 0x4 ADD PUSH2 0x1537 SWAP1 PUSH2 0x375B JUMP JUMPDEST PUSH1 0x40 MLOAD DUP1 SWAP2 SUB SWAP1 REVERT JUMPDEST PUSH1 0x2 PUSH1 0x40 MLOAD DUP1 PUSH1 0x40 ADD PUSH1 0x40 MSTORE DUP1 DUP4 DUP2 MSTORE PUSH1 0x20 ADD PUSH1 0x0 ISZERO ISZERO DUP2 MSTORE POP SWAP1 DUP1 PUSH1 0x1 DUP2 SLOAD ADD DUP1 DUP3 SSTORE DUP1 SWAP2 POP POP PUSH1 0x1 SWAP1 SUB SWAP1 PUSH1 0x0 MSTORE PUSH1 0x20 PUSH1 0x0 KECCAK256 SWAP1 PUSH1 0x2 MUL ADD PUSH1 0x0 SWAP1 SWAP2 SWAP1 SWAP2 SWAP1 SWAP2 POP PUSH1 0x0 DUP3 ADD MLOAD DUP2 PUSH1 0x0 ADD SSTORE PUSH1 0x20 DUP3 ADD MLOAD DUP2 PUSH1 0x1 ADD PUSH1 0x0 PUSH2 0x100 EXP DUP2 SLOAD DUP2 PUSH1 0xFF MUL NOT AND SWAP1 DUP4 ISZERO ISZERO MUL OR SWAP1 SSTORE POP POP POP PUSH2 0x15C7 JUMP JUMPDEST DUP1 DUP1 PUSH2 0x15BF SWAP1 PUSH2 0x3BE7 JUMP JUMPDEST SWAP2 POP POP PUSH2 0x1451 JUMP JUMPDEST POP JUMP JUMPDEST CALLER PUSH1 0x0 DUP1 JUMPDEST PUSH1 0x1 DUP1 SLOAD SWAP1 POP DUP2 LT ISZERO PUSH2 0x1671 JUMPI DUP3 PUSH20 0xFFFFFFFFFFFFFFFFFFFFFFFFFFFFFFFFFFFFFFFF AND PUSH1 0x1 DUP3 DUP2 SLOAD DUP2 LT PUSH2 0x1607 JUMPI PUSH2 0x1606 PUSH2 0x3C8E JUMP JUMPDEST JUMPDEST SWAP1 PUSH1 0x0 MSTORE PUSH1 0x20 PUSH1 0x0 KECCAK256 SWAP1 PUSH1 0x3 MUL ADD PUSH1 0x0 ADD PUSH1 0x0 SWAP1 SLOAD SWAP1 PUSH2 0x100 EXP SWAP1 DIV PUSH20 0xFFFFFFFFFFFFFFFFFFFFFFFFFFFFFFFFFFFFFFFF AND PUSH20 0xFFFFFFFFFFFFFFFFFFFFFFFFFFFFFFFFFFFFFFFF AND EQ ISZERO PUSH2 0x165E JUMPI PUSH1 0x1 SWAP2 POP PUSH2 0x1671 JUMP JUMPDEST DUP1 DUP1 PUSH2 0x1669 SWAP1 PUSH2 0x3BE7 JUMP JUMPDEST SWAP2 POP POP PUSH2 0x15CF JUMP JUMPDEST POP DUP1 PUSH2 0x16B2 JUMPI PUSH1 0x40 MLOAD PUSH32 0x8C379A000000000000000000000000000000000000000000000000000000000 DUP2 MSTORE PUSH1 0x4 ADD PUSH2 0x16A9 SWAP1 PUSH2 0x381B JUMP JUMPDEST PUSH1 0x40 MLOAD DUP1 SWAP2 SUB SWAP1 REVERT JUMPDEST CALLER PUSH1 0x0 JUMPDEST PUSH1 0x1 DUP1 SLOAD SWAP1 POP DUP2 LT ISZERO PUSH2 0x17BC JUMPI DUP2 PUSH20 0xFFFFFFFFFFFFFFFFFFFFFFFFFFFFFFFFFFFFFFFF AND PUSH1 0x1 DUP3 DUP2 SLOAD DUP2 LT PUSH2 0x16EE JUMPI PUSH2 0x16ED PUSH2 0x3C8E JUMP JUMPDEST JUMPDEST SWAP1 PUSH1 0x0 MSTORE PUSH1 0x20 PUSH1 0x0 KECCAK256 SWAP1 PUSH1 0x3 MUL ADD PUSH1 0x0 ADD PUSH1 0x0 SWAP1 SLOAD SWAP1 PUSH2 0x100 EXP SWAP1 DIV PUSH20 0xFFFFFFFFFFFFFFFFFFFFFFFFFFFFFFFFFFFFFFFF AND PUSH20 0xFFFFFFFFFFFFFFFFFFFFFFFFFFFFFFFFFFFFFFFF AND EQ ISZERO PUSH2 0x17A9 JUMPI PUSH1 0x0 PUSH1 0x1 DUP3 DUP2 SLOAD DUP2 LT PUSH2 0x1752 JUMPI PUSH2 0x1751 PUSH2 0x3C8E JUMP JUMPDEST JUMPDEST SWAP1 PUSH1 0x0 MSTORE PUSH1 0x20 PUSH1 0x0 KECCAK256 SWAP1 PUSH1 0x3 MUL ADD PUSH1 0x2 ADD SLOAD EQ PUSH2 0x17A4 JUMPI PUSH1 0x40 MLOAD PUSH32 0x8C379A000000000000000000000000000000000000000000000000000000000 DUP2 MSTORE PUSH1 0x4 ADD PUSH2 0x179B SWAP1 PUSH2 0x377B JUMP JUMPDEST PUSH1 0x40 MLOAD DUP1 SWAP2 SUB SWAP1 REVERT JUMPDEST PUSH2 0x17BC JUMP JUMPDEST DUP1 DUP1 PUSH2 0x17B4 SWAP1 PUSH2 0x3BE7 JUMP JUMPDEST SWAP2 POP POP PUSH2 0x16B6 JUMP JUMPDEST POP PUSH1 0x0 JUMPDEST PUSH1 0x0 DUP1 SLOAD SWAP1 POP DUP2 LT ISZERO PUSH2 0x191D JUMPI PUSH1 0x0 JUMPDEST PUSH1 0x0 DUP3 DUP2 SLOAD DUP2 LT PUSH2 0x17E4 JUMPI PUSH2 0x17E3 PUSH2 0x3C8E JUMP JUMPDEST JUMPDEST SWAP1 PUSH1 0x0 MSTORE PUSH1 0x20 PUSH1 0x0 KECCAK256 SWAP1 PUSH1 0x4 MUL ADD PUSH1 0x3 ADD DUP1 SLOAD SWAP1 POP DUP2 LT ISZERO PUSH2 0x1909 JUMPI PUSH1 0x0 DUP3 DUP2 SLOAD DUP2 LT PUSH2 0x1814 JUMPI PUSH2 0x1813 PUSH2 0x3C8E JUMP JUMPDEST JUMPDEST SWAP1 PUSH1 0x0 MSTORE PUSH1 0x20 PUSH1 0x0 KECCAK256 SWAP1 PUSH1 0x4 MUL ADD PUSH1 0x3 ADD DUP2 DUP2 SLOAD DUP2 LT PUSH2 0x1837 JUMPI PUSH2 0x1836 PUSH2 0x3C8E JUMP JUMPDEST JUMPDEST SWAP1 PUSH1 0x0 MSTORE PUSH1 0x20 PUSH1 0x0 KECCAK256 ADD SLOAD PUSH1 0x2 DUP8 DUP2 SLOAD DUP2 LT PUSH2 0x1856 JUMPI PUSH2 0x1855 PUSH2 0x3C8E JUMP JUMPDEST JUMPDEST SWAP1 PUSH1 0x0 MSTORE PUSH1 0x20 PUSH1 0x0 KECCAK256 SWAP1 PUSH1 0x2 MUL ADD PUSH1 0x0 ADD SLOAD EQ ISZERO PUSH2 0x18F6 JUMPI PUSH1 0x0 DUP3 DUP2 SLOAD DUP2 LT PUSH2 0x1882 JUMPI PUSH2 0x1881 PUSH2 0x3C8E JUMP JUMPDEST JUMPDEST SWAP1 PUSH1 0x0 MSTORE PUSH1 0x20 PUSH1 0x0 KECCAK256 SWAP1 PUSH1 0x4 MUL ADD PUSH1 0x3 ADD DUP2 DUP2 SLOAD DUP2 LT PUSH2 0x18A5 JUMPI PUSH2 0x18A4 PUSH2 0x3C8E JUMP JUMPDEST JUMPDEST SWAP1 PUSH1 0x0 MSTORE PUSH1 0x20 PUSH1 0x0 KECCAK256 ADD PUSH1 0x0 SWAP1 SSTORE PUSH1 0x1 PUSH1 0x3 DUP8 DUP2 SLOAD DUP2 LT PUSH2 0x18C9 JUMPI PUSH2 0x18C8 PUSH2 0x3C8E JUMP JUMPDEST JUMPDEST SWAP1 PUSH1 0x0 MSTORE PUSH1 0x20 PUSH1 0x0 KECCAK256 SWAP1 PUSH1 0x3 MUL ADD PUSH1 0x2 ADD PUSH1 0x0 PUSH2 0x100 EXP DUP2 SLOAD DUP2 PUSH1 0xFF MUL NOT AND SWAP1 DUP4 ISZERO ISZERO MUL OR SWAP1 SSTORE POP PUSH2 0x1909 JUMP JUMPDEST DUP1 DUP1 PUSH2 0x1901 SWAP1 PUSH2 0x3BE7 JUMP JUMPDEST SWAP2 POP POP PUSH2 0x17D0 JUMP JUMPDEST POP DUP1 DUP1 PUSH2 0x1915 SWAP1 PUSH2 0x3BE7 JUMP JUMPDEST SWAP2 POP POP PUSH2 0x17C0 JUMP JUMPDEST POP POP POP POP POP JUMP JUMPDEST CALLER PUSH1 0x0 JUMPDEST PUSH1 0x1 DUP1 SLOAD SWAP1 POP DUP2 LT ISZERO PUSH2 0x19FC JUMPI DUP2 PUSH20 0xFFFFFFFFFFFFFFFFFFFFFFFFFFFFFFFFFFFFFFFF AND PUSH1 0x1 DUP3 DUP2 SLOAD DUP2 LT PUSH2 0x1960 JUMPI PUSH2 0x195F PUSH2 0x3C8E JUMP JUMPDEST JUMPDEST SWAP1 PUSH1 0x0 MSTORE PUSH1 0x20 PUSH1 0x0 KECCAK256 SWAP1 PUSH1 0x3 MUL ADD PUSH1 0x0 ADD PUSH1 0x0 SWAP1 SLOAD SWAP1 PUSH2 0x100 EXP SWAP1 DIV PUSH20 0xFFFFFFFFFFFFFFFFFFFFFFFFFFFFFFFFFFFFFFFF AND PUSH20 0xFFFFFFFFFFFFFFFFFFFFFFFFFFFFFFFFFFFFFFFF AND EQ ISZERO PUSH2 0x19E9 JUMPI PUSH1 0x40 MLOAD PUSH32 0x8C379A000000000000000000000000000000000000000000000000000000000 DUP2 MSTORE PUSH1 0x4 ADD PUSH2 0x19E0 SWAP1 PUSH2 0x379B JUMP JUMPDEST PUSH1 0x40 MLOAD DUP1 SWAP2 SUB SWAP1 REVERT JUMPDEST DUP1 DUP1 PUSH2 0x19F4 SWAP1 PUSH2 0x3BE7 JUMP JUMPDEST SWAP2 POP POP PUSH2 0x1928 JUMP JUMPDEST POP PUSH1 0x1 PUSH1 0x40 MLOAD DUP1 PUSH1 0x60 ADD PUSH1 0x40 MSTORE DUP1 CALLER PUSH20 0xFFFFFFFFFFFFFFFFFFFFFFFFFFFFFFFFFFFFFFFF AND DUP2 MSTORE PUSH1 0x20 ADD PUSH1 0x2 DUP2 MSTORE PUSH1 0x20 ADD PUSH1 0x2 DUP2 MSTORE POP SWAP1 DUP1 PUSH1 0x1 DUP2 SLOAD ADD DUP1 DUP3 SSTORE DUP1 SWAP2 POP POP PUSH1 0x1 SWAP1 SUB SWAP1 PUSH1 0x0 MSTORE PUSH1 0x20 PUSH1 0x0 KECCAK256 SWAP1 PUSH1 0x3 MUL ADD PUSH1 0x0 SWAP1 SWAP2 SWAP1 SWAP2 SWAP1 SWAP2 POP PUSH1 0x0 DUP3 ADD MLOAD DUP2 PUSH1 0x0 ADD PUSH1 0x0 PUSH2 0x100 EXP DUP2 SLOAD DUP2 PUSH20 0xFFFFFFFFFFFFFFFFFFFFFFFFFFFFFFFFFFFFFFFF MUL NOT AND SWAP1 DUP4 PUSH20 0xFFFFFFFFFFFFFFFFFFFFFFFFFFFFFFFFFFFFFFFF AND MUL OR SWAP1 SSTORE POP PUSH1 0x20 DUP3 ADD MLOAD DUP2 PUSH1 0x1 ADD SSTORE PUSH1 0x40 DUP3 ADD MLOAD DUP2 PUSH1 0x2 ADD SSTORE POP POP POP JUMP JUMPDEST PUSH1 0x0 JUMPDEST PUSH1 0x0 DUP3 DUP2 SLOAD DUP2 LT PUSH2 0x1AD2 JUMPI PUSH2 0x1AD1 PUSH2 0x3C8E JUMP JUMPDEST JUMPDEST SWAP1 PUSH1 0x0 MSTORE PUSH1 0x20 PUSH1 0x0 KECCAK256 SWAP1 PUSH1 0x4 MUL ADD PUSH1 0x3 ADD DUP1 SLOAD SWAP1 POP DUP2 LT ISZERO PUSH2 0x1BD9 JUMPI PUSH1 0x2 PUSH1 0x1 PUSH1 0x0 DUP5 DUP2 SLOAD DUP2 LT PUSH2 0x1B06 JUMPI PUSH2 0x1B05 PUSH2 0x3C8E JUMP JUMPDEST JUMPDEST SWAP1 PUSH1 0x0 MSTORE PUSH1 0x20 PUSH1 0x0 KECCAK256 SWAP1 PUSH1 0x4 MUL ADD PUSH1 0x3 ADD DUP4 DUP2 SLOAD DUP2 LT PUSH2 0x1B29 JUMPI PUSH2 0x1B28 PUSH2 0x3C8E JUMP JUMPDEST JUMPDEST SWAP1 PUSH1 0x0 MSTORE PUSH1 0x20 PUSH1 0x0 KECCAK256 ADD SLOAD DUP2 SLOAD DUP2 LT PUSH2 0x1B45 JUMPI PUSH2 0x1B44 PUSH2 0x3C8E JUMP JUMPDEST JUMPDEST SWAP1 PUSH1 0x0 MSTORE PUSH1 0x20 PUSH1 0x0 KECCAK256 SWAP1 PUSH1 0x3 MUL ADD PUSH1 0x1 ADD DUP2 SWAP1 SSTORE POP PUSH1 0x2 PUSH1 0x1 PUSH1 0x0 DUP5 DUP2 SLOAD DUP2 LT PUSH2 0x1B72 JUMPI PUSH2 0x1B71 PUSH2 0x3C8E JUMP JUMPDEST JUMPDEST SWAP1 PUSH1 0x0 MSTORE PUSH1 0x20 PUSH1 0x0 KECCAK256 SWAP1 PUSH1 0x4 MUL ADD PUSH1 0x3 ADD DUP4 DUP2 SLOAD DUP2 LT PUSH2 0x1B95 JUMPI PUSH2 0x1B94 PUSH2 0x3C8E JUMP JUMPDEST JUMPDEST SWAP1 PUSH1 0x0 MSTORE PUSH1 0x20 PUSH1 0x0 KECCAK256 ADD SLOAD DUP2 SLOAD DUP2 LT PUSH2 0x1BB1 JUMPI PUSH2 0x1BB0 PUSH2 0x3C8E JUMP JUMPDEST JUMPDEST SWAP1 PUSH1 0x0 MSTORE PUSH1 0x20 PUSH1 0x0 KECCAK256 SWAP1 PUSH1 0x3 MUL ADD PUSH1 0x2 ADD DUP2 SWAP1 SSTORE POP DUP1 DUP1 PUSH2 0x1BD1 SWAP1 PUSH2 0x3BE7 JUMP JUMPDEST SWAP2 POP POP PUSH2 0x1ABE JUMP JUMPDEST POP PUSH1 0x0 DUP2 DUP2 SLOAD DUP2 LT PUSH2 0x1BEE JUMPI PUSH2 0x1BED PUSH2 0x3C8E JUMP JUMPDEST JUMPDEST SWAP1 PUSH1 0x0 MSTORE PUSH1 0x20 PUSH1 0x0 KECCAK256 SWAP1 PUSH1 0x4 MUL ADD PUSH1 0x0 DUP1 DUP3 ADD PUSH1 0x0 PUSH2 0x100 EXP DUP2 SLOAD SWAP1 PUSH20 0xFFFFFFFFFFFFFFFFFFFFFFFFFFFFFFFFFFFFFFFF MUL NOT AND SWAP1 SSTORE PUSH1 0x1 DUP3 ADD PUSH1 0x0 PUSH2 0x1C34 SWAP2 SWAP1 PUSH2 0x2A80 JUMP JUMPDEST PUSH1 0x2 DUP3 ADD PUSH1 0x0 PUSH2 0x1C44 SWAP2 SWAP1 PUSH2 0x2AC0 JUMP JUMPDEST PUSH1 0x3 DUP3 ADD PUSH1 0x0 PUSH2 0x1C54 SWAP2 SWAP1 PUSH2 0x2AE4 JUMP JUMPDEST POP POP POP JUMP JUMPDEST CALLER PUSH1 0x0 JUMPDEST PUSH1 0x1 DUP1 SLOAD SWAP1 POP DUP2 LT ISZERO PUSH2 0x1D63 JUMPI DUP2 PUSH20 0xFFFFFFFFFFFFFFFFFFFFFFFFFFFFFFFFFFFFFFFF AND PUSH1 0x1 DUP3 DUP2 SLOAD DUP2 LT PUSH2 0x1C95 JUMPI PUSH2 0x1C94 PUSH2 0x3C8E JUMP JUMPDEST JUMPDEST SWAP1 PUSH1 0x0 MSTORE PUSH1 0x20 PUSH1 0x0 KECCAK256 SWAP1 PUSH1 0x3 MUL ADD PUSH1 0x0 ADD PUSH1 0x0 SWAP1 SLOAD SWAP1 PUSH2 0x100 EXP SWAP1 DIV PUSH20 0xFFFFFFFFFFFFFFFFFFFFFFFFFFFFFFFFFFFFFFFF AND PUSH20 0xFFFFFFFFFFFFFFFFFFFFFFFFFFFFFFFFFFFFFFFF AND EQ ISZERO PUSH2 0x1D50 JUMPI PUSH1 0x2 PUSH1 0x1 DUP3 DUP2 SLOAD DUP2 LT PUSH2 0x1CF9 JUMPI PUSH2 0x1CF8 PUSH2 0x3C8E JUMP JUMPDEST JUMPDEST SWAP1 PUSH1 0x0 MSTORE PUSH1 0x20 PUSH1 0x0 KECCAK256 SWAP1 PUSH1 0x3 MUL ADD PUSH1 0x1 ADD SLOAD EQ PUSH2 0x1D4B JUMPI PUSH1 0x40 MLOAD PUSH32 0x8C379A000000000000000000000000000000000000000000000000000000000 DUP2 MSTORE PUSH1 0x4 ADD PUSH2 0x1D42 SWAP1 PUSH2 0x385B JUMP JUMPDEST PUSH1 0x40 MLOAD DUP1 SWAP2 SUB SWAP1 REVERT JUMPDEST PUSH2 0x1D63 JUMP JUMPDEST DUP1 DUP1 PUSH2 0x1D5B SWAP1 PUSH2 0x3BE7 JUMP JUMPDEST SWAP2 POP POP PUSH2 0x1C5D JUMP JUMPDEST POP PUSH1 0x0 DUP5 DUP2 SLOAD DUP2 LT PUSH2 0x1D78 JUMPI PUSH2 0x1D77 PUSH2 0x3C8E JUMP JUMPDEST JUMPDEST SWAP1 PUSH1 0x0 MSTORE PUSH1 0x20 PUSH1 0x0 KECCAK256 SWAP1 PUSH1 0x4 MUL ADD PUSH1 0x2 ADD DUP4 DUP2 SLOAD DUP2 LT PUSH2 0x1D9B JUMPI PUSH2 0x1D9A PUSH2 0x3C8E JUMP JUMPDEST JUMPDEST SWAP1 PUSH1 0x0 MSTORE PUSH1 0x20 PUSH1 0x0 KECCAK256 SWAP1 PUSH1 0x5 MUL ADD PUSH1 0x2 ADD PUSH1 0x40 MLOAD DUP1 PUSH1 0x40 ADD PUSH1 0x40 MSTORE DUP1 CALLER PUSH20 0xFFFFFFFFFFFFFFFFFFFFFFFFFFFFFFFFFFFFFFFF AND DUP2 MSTORE PUSH1 0x20 ADD DUP5 ISZERO ISZERO DUP2 MSTORE POP SWAP1 DUP1 PUSH1 0x1 DUP2 SLOAD ADD DUP1 DUP3 SSTORE DUP1 SWAP2 POP POP PUSH1 0x1 SWAP1 SUB SWAP1 PUSH1 0x0 MSTORE PUSH1 0x20 PUSH1 0x0 KECCAK256 ADD PUSH1 0x0 SWAP1 SWAP2 SWAP1 SWAP2 SWAP1 SWAP2 POP PUSH1 0x0 DUP3 ADD MLOAD DUP2 PUSH1 0x0 ADD PUSH1 0x0 PUSH2 0x100 EXP DUP2 SLOAD DUP2 PUSH20 0xFFFFFFFFFFFFFFFFFFFFFFFFFFFFFFFFFFFFFFFF MUL NOT AND SWAP1 DUP4 PUSH20 0xFFFFFFFFFFFFFFFFFFFFFFFFFFFFFFFFFFFFFFFF AND MUL OR SWAP1 SSTORE POP PUSH1 0x20 DUP3 ADD MLOAD DUP2 PUSH1 0x0 ADD PUSH1 0x14 PUSH2 0x100 EXP DUP2 SLOAD DUP2 PUSH1 0xFF MUL NOT AND SWAP1 DUP4 ISZERO ISZERO MUL OR SWAP1 SSTORE POP POP POP POP POP POP POP JUMP JUMPDEST PUSH1 0x0 JUMPDEST PUSH1 0x1 DUP1 SLOAD SWAP1 POP DUP2 LT ISZERO PUSH2 0x2049 JUMPI CALLER PUSH20 0xFFFFFFFFFFFFFFFFFFFFFFFFFFFFFFFFFFFFFFFF AND PUSH1 0x1 DUP3 DUP2 SLOAD DUP2 LT PUSH2 0x1EA8 JUMPI PUSH2 0x1EA7 PUSH2 0x3C8E JUMP JUMPDEST JUMPDEST SWAP1 PUSH1 0x0 MSTORE PUSH1 0x20 PUSH1 0x0 KECCAK256 SWAP1 PUSH1 0x3 MUL ADD PUSH1 0x0 ADD PUSH1 0x0 SWAP1 SLOAD SWAP1 PUSH2 0x100 EXP SWAP1 DIV PUSH20 0xFFFFFFFFFFFFFFFFFFFFFFFFFFFFFFFFFFFFFFFF AND PUSH20 0xFFFFFFFFFFFFFFFFFFFFFFFFFFFFFFFFFFFFFFFF AND EQ ISZERO PUSH2 0x2036 JUMPI PUSH1 0x2 PUSH1 0x1 DUP3 DUP2 SLOAD DUP2 LT PUSH2 0x1F0C JUMPI PUSH2 0x1F0B PUSH2 0x3C8E JUMP JUMPDEST JUMPDEST SWAP1 PUSH1 0x0 MSTORE PUSH1 0x20 PUSH1 0x0 KECCAK256 SWAP1 PUSH1 0x3 MUL ADD PUSH1 0x1 ADD SLOAD EQ ISZERO PUSH2 0x1F5F JUMPI PUSH1 0x40 MLOAD PUSH32 0x8C379A000000000000000000000000000000000000000000000000000000000 DUP2 MSTORE PUSH1 0x4 ADD PUSH2 0x1F56 SWAP1 PUSH2 0x37FB JUMP JUMPDEST PUSH1 0x40 MLOAD DUP1 SWAP2 SUB SWAP1 REVERT JUMPDEST PUSH1 0x1 DUP2 DUP2 SLOAD DUP2 LT PUSH2 0x1F73 JUMPI PUSH2 0x1F72 PUSH2 0x3C8E JUMP JUMPDEST JUMPDEST SWAP1 PUSH1 0x0 MSTORE PUSH1 0x20 PUSH1 0x0 KECCAK256 SWAP1 PUSH1 0x3 MUL ADD PUSH1 0x2 ADD SLOAD PUSH1 0x1 DUP3 DUP2 SLOAD DUP2 LT PUSH2 0x1F99 JUMPI PUSH2 0x1F98 PUSH2 0x3C8E JUMP JUMPDEST JUMPDEST SWAP1 PUSH1 0x0 MSTORE PUSH1 0x20 PUSH1 0x0 KECCAK256 SWAP1 PUSH1 0x3 MUL ADD PUSH1 0x1 ADD SLOAD EQ ISZERO PUSH2 0x1FE1 JUMPI PUSH1 0x2 PUSH1 0x1 DUP3 DUP2 SLOAD DUP2 LT PUSH2 0x1FC7 JUMPI PUSH2 0x1FC6 PUSH2 0x3C8E JUMP JUMPDEST JUMPDEST SWAP1 PUSH1 0x0 MSTORE PUSH1 0x20 PUSH1 0x0 KECCAK256 SWAP1 PUSH1 0x3 MUL ADD PUSH1 0x2 ADD DUP2 SWAP1 SSTORE POP PUSH2 0x2031 JUMP JUMPDEST PUSH1 0x1 DUP2 DUP2 SLOAD DUP2 LT PUSH2 0x1FF5 JUMPI PUSH2 0x1FF4 PUSH2 0x3C8E JUMP JUMPDEST JUMPDEST SWAP1 PUSH1 0x0 MSTORE PUSH1 0x20 PUSH1 0x0 KECCAK256 SWAP1 PUSH1 0x3 MUL ADD PUSH1 0x1 ADD SLOAD PUSH1 0x1 DUP3 DUP2 SLOAD DUP2 LT PUSH2 0x201B JUMPI PUSH2 0x201A PUSH2 0x3C8E JUMP JUMPDEST JUMPDEST SWAP1 PUSH1 0x0 MSTORE PUSH1 0x20 PUSH1 0x0 KECCAK256 SWAP1 PUSH1 0x3 MUL ADD PUSH1 0x2 ADD DUP2 SWAP1 SSTORE POP JUMPDEST PUSH2 0x2049 JUMP JUMPDEST DUP1 DUP1 PUSH2 0x2041 SWAP1 PUSH2 0x3BE7 JUMP JUMPDEST SWAP2 POP POP PUSH2 0x1E70 JUMP JUMPDEST POP JUMP JUMPDEST CALLER PUSH1 0x0 JUMPDEST PUSH1 0x1 DUP1 SLOAD SWAP1 POP DUP2 LT ISZERO PUSH2 0x2156 JUMPI DUP2 PUSH20 0xFFFFFFFFFFFFFFFFFFFFFFFFFFFFFFFFFFFFFFFF AND PUSH1 0x1 DUP3 DUP2 SLOAD DUP2 LT PUSH2 0x2088 JUMPI PUSH2 0x2087 PUSH2 0x3C8E JUMP JUMPDEST JUMPDEST SWAP1 PUSH1 0x0 MSTORE PUSH1 0x20 PUSH1 0x0 KECCAK256 SWAP1 PUSH1 0x3 MUL ADD PUSH1 0x0 ADD PUSH1 0x0 SWAP1 SLOAD SWAP1 PUSH2 0x100 EXP SWAP1 DIV PUSH20 0xFFFFFFFFFFFFFFFFFFFFFFFFFFFFFFFFFFFFFFFF AND PUSH20 0xFFFFFFFFFFFFFFFFFFFFFFFFFFFFFFFFFFFFFFFF AND EQ ISZERO PUSH2 0x2143 JUMPI PUSH1 0x2 PUSH1 0x1 DUP3 DUP2 SLOAD DUP2 LT PUSH2 0x20EC JUMPI PUSH2 0x20EB PUSH2 0x3C8E JUMP JUMPDEST JUMPDEST SWAP1 PUSH1 0x0 MSTORE PUSH1 0x20 PUSH1 0x0 KECCAK256 SWAP1 PUSH1 0x3 MUL ADD PUSH1 0x1 ADD SLOAD EQ PUSH2 0x213E JUMPI PUSH1 0x40 MLOAD PUSH32 0x8C379A000000000000000000000000000000000000000000000000000000000 DUP2 MSTORE PUSH1 0x4 ADD PUSH2 0x2135 SWAP1 PUSH2 0x385B JUMP JUMPDEST PUSH1 0x40 MLOAD DUP1 SWAP2 SUB SWAP1 REVERT JUMPDEST PUSH2 0x2156 JUMP JUMPDEST DUP1 DUP1 PUSH2 0x214E SWAP1 PUSH2 0x3BE7 JUMP JUMPDEST SWAP2 POP POP PUSH2 0x2050 JUMP JUMPDEST POP PUSH1 0x0 DUP6 DUP2 SLOAD DUP2 LT PUSH2 0x216B JUMPI PUSH2 0x216A PUSH2 0x3C8E JUMP JUMPDEST JUMPDEST SWAP1 PUSH1 0x0 MSTORE PUSH1 0x20 PUSH1 0x0 KECCAK256 SWAP1 PUSH1 0x4 MUL ADD PUSH1 0x2 ADD DUP5 DUP2 SLOAD DUP2 LT PUSH2 0x218E JUMPI PUSH2 0x218D PUSH2 0x3C8E JUMP JUMPDEST JUMPDEST SWAP1 PUSH1 0x0 MSTORE PUSH1 0x20 PUSH1 0x0 KECCAK256 SWAP1 PUSH1 0x5 MUL ADD PUSH1 0x3 ADD DUP4 DUP2 SLOAD DUP2 LT PUSH2 0x21B1 JUMPI PUSH2 0x21B0 PUSH2 0x3C8E JUMP JUMPDEST JUMPDEST SWAP1 PUSH1 0x0 MSTORE PUSH1 0x20 PUSH1 0x0 KECCAK256 SWAP1 PUSH1 0x3 MUL ADD PUSH1 0x1 ADD PUSH1 0x40 MLOAD DUP1 PUSH1 0x40 ADD PUSH1 0x40 MSTORE DUP1 CALLER PUSH20 0xFFFFFFFFFFFFFFFFFFFFFFFFFFFFFFFFFFFFFFFF AND DUP2 MSTORE PUSH1 0x20 ADD DUP5 ISZERO ISZERO DUP2 MSTORE POP SWAP1 DUP1 PUSH1 0x1 DUP2 SLOAD ADD DUP1 DUP3 SSTORE DUP1 SWAP2 POP POP PUSH1 0x1 SWAP1 SUB SWAP1 PUSH1 0x0 MSTORE PUSH1 0x20 PUSH1 0x0 KECCAK256 ADD PUSH1 0x0 SWAP1 SWAP2 SWAP1 SWAP2 SWAP1 SWAP2 POP PUSH1 0x0 DUP3 ADD MLOAD DUP2 PUSH1 0x0 ADD PUSH1 0x0 PUSH2 0x100 EXP DUP2 SLOAD DUP2 PUSH20 0xFFFFFFFFFFFFFFFFFFFFFFFFFFFFFFFFFFFFFFFF MUL NOT AND SWAP1 DUP4 PUSH20 0xFFFFFFFFFFFFFFFFFFFFFFFFFFFFFFFFFFFFFFFF AND MUL OR SWAP1 SSTORE POP PUSH1 0x20 DUP3 ADD MLOAD DUP2 PUSH1 0x0 ADD PUSH1 0x14 PUSH2 0x100 EXP DUP2 SLOAD DUP2 PUSH1 0xFF MUL NOT AND SWAP1 DUP4 ISZERO ISZERO MUL OR SWAP1 SSTORE POP POP POP POP POP POP POP POP JUMP JUMPDEST PUSH1 0x60 PUSH1 0x2 DUP1 SLOAD DUP1 PUSH1 0x20 MUL PUSH1 0x20 ADD PUSH1 0x40 MLOAD SWAP1 DUP2 ADD PUSH1 0x40 MSTORE DUP1 SWAP3 SWAP2 SWAP1 DUP2 DUP2 MSTORE PUSH1 0x20 ADD PUSH1 0x0 SWAP1 JUMPDEST DUP3 DUP3 LT ISZERO PUSH2 0x22FF JUMPI DUP4 DUP3 SWAP1 PUSH1 0x0 MSTORE PUSH1 0x20 PUSH1 0x0 KECCAK256 SWAP1 PUSH1 0x2 MUL ADD PUSH1 0x40 MLOAD DUP1 PUSH1 0x40 ADD PUSH1 0x40 MSTORE SWAP1 DUP2 PUSH1 0x0 DUP3 ADD SLOAD DUP2 MSTORE PUSH1 0x20 ADD PUSH1 0x1 DUP3 ADD PUSH1 0x0 SWAP1 SLOAD SWAP1 PUSH2 0x100 EXP SWAP1 DIV PUSH1 0xFF AND ISZERO ISZERO ISZERO ISZERO DUP2 MSTORE POP POP DUP2 MSTORE PUSH1 0x20 ADD SWAP1 PUSH1 0x1 ADD SWAP1 PUSH2 0x22A8 JUMP JUMPDEST POP POP POP POP SWAP1 POP SWAP1 JUMP JUMPDEST CALLER PUSH1 0x0 DUP1 JUMPDEST PUSH1 0x1 DUP1 SLOAD SWAP1 POP DUP2 LT ISZERO PUSH2 0x23AF JUMPI DUP3 PUSH20 0xFFFFFFFFFFFFFFFFFFFFFFFFFFFFFFFFFFFFFFFF AND PUSH1 0x1 DUP3 DUP2 SLOAD DUP2 LT PUSH2 0x2345 JUMPI PUSH2 0x2344 PUSH2 0x3C8E JUMP JUMPDEST JUMPDEST SWAP1 PUSH1 0x0 MSTORE PUSH1 0x20 PUSH1 0x0 KECCAK256 SWAP1 PUSH1 0x3 MUL ADD PUSH1 0x0 ADD PUSH1 0x0 SWAP1 SLOAD SWAP1 PUSH2 0x100 EXP SWAP1 DIV PUSH20 0xFFFFFFFFFFFFFFFFFFFFFFFFFFFFFFFFFFFFFFFF AND PUSH20 0xFFFFFFFFFFFFFFFFFFFFFFFFFFFFFFFFFFFFFFFF AND EQ ISZERO PUSH2 0x239C JUMPI PUSH1 0x1 SWAP2 POP PUSH2 0x23AF JUMP JUMPDEST DUP1 DUP1 PUSH2 0x23A7 SWAP1 PUSH2 0x3BE7 JUMP JUMPDEST SWAP2 POP POP PUSH2 0x230D JUMP JUMPDEST POP DUP1 PUSH2 0x23F0 JUMPI PUSH1 0x40 MLOAD PUSH32 0x8C379A000000000000000000000000000000000000000000000000000000000 DUP2 MSTORE PUSH1 0x4 ADD PUSH2 0x23E7 SWAP1 PUSH2 0x381B JUMP JUMPDEST PUSH1 0x40 MLOAD DUP1 SWAP2 SUB SWAP1 REVERT JUMPDEST CALLER PUSH1 0x0 JUMPDEST PUSH1 0x1 DUP1 SLOAD SWAP1 POP DUP2 LT ISZERO PUSH2 0x24FA JUMPI DUP2 PUSH20 0xFFFFFFFFFFFFFFFFFFFFFFFFFFFFFFFFFFFFFFFF AND PUSH1 0x1 DUP3 DUP2 SLOAD DUP2 LT PUSH2 0x242C JUMPI PUSH2 0x242B PUSH2 0x3C8E JUMP JUMPDEST JUMPDEST SWAP1 PUSH1 0x0 MSTORE PUSH1 0x20 PUSH1 0x0 KECCAK256 SWAP1 PUSH1 0x3 MUL ADD PUSH1 0x0 ADD PUSH1 0x0 SWAP1 SLOAD SWAP1 PUSH2 0x100 EXP SWAP1 DIV PUSH20 0xFFFFFFFFFFFFFFFFFFFFFFFFFFFFFFFFFFFFFFFF AND PUSH20 0xFFFFFFFFFFFFFFFFFFFFFFFFFFFFFFFFFFFFFFFF AND EQ ISZERO PUSH2 0x24E7 JUMPI PUSH1 0x0 PUSH1 0x1 DUP3 DUP2 SLOAD DUP2 LT PUSH2 0x2490 JUMPI PUSH2 0x248F PUSH2 0x3C8E JUMP JUMPDEST JUMPDEST SWAP1 PUSH1 0x0 MSTORE PUSH1 0x20 PUSH1 0x0 KECCAK256 SWAP1 PUSH1 0x3 MUL ADD PUSH1 0x2 ADD SLOAD EQ PUSH2 0x24E2 JUMPI PUSH1 0x40 MLOAD PUSH32 0x8C379A000000000000000000000000000000000000000000000000000000000 DUP2 MSTORE PUSH1 0x4 ADD PUSH2 0x24D9 SWAP1 PUSH2 0x377B JUMP JUMPDEST PUSH1 0x40 MLOAD DUP1 SWAP2 SUB SWAP1 REVERT JUMPDEST PUSH2 0x24FA JUMP JUMPDEST DUP1 DUP1 PUSH2 0x24F2 SWAP1 PUSH2 0x3BE7 JUMP JUMPDEST SWAP2 POP POP PUSH2 0x23F4 JUMP JUMPDEST POP PUSH1 0x0 JUMPDEST PUSH1 0x1 DUP1 SLOAD SWAP1 POP DUP2 LT ISZERO PUSH2 0x265B JUMPI DUP5 PUSH20 0xFFFFFFFFFFFFFFFFFFFFFFFFFFFFFFFFFFFFFFFF AND PUSH1 0x1 DUP3 DUP2 SLOAD DUP2 LT PUSH2 0x2536 JUMPI PUSH2 0x2535 PUSH2 0x3C8E JUMP JUMPDEST JUMPDEST SWAP1 PUSH1 0x0 MSTORE PUSH1 0x20 PUSH1 0x0 KECCAK256 SWAP1 PUSH1 0x3 MUL ADD PUSH1 0x0 ADD PUSH1 0x0 SWAP1 SLOAD SWAP1 PUSH2 0x100 EXP SWAP1 DIV PUSH20 0xFFFFFFFFFFFFFFFFFFFFFFFFFFFFFFFFFFFFFFFF AND PUSH20 0xFFFFFFFFFFFFFFFFFFFFFFFFFFFFFFFFFFFFFFFF AND EQ ISZERO PUSH2 0x2648 JUMPI PUSH1 0x0 PUSH1 0x1 DUP3 DUP2 SLOAD DUP2 LT PUSH2 0x259A JUMPI PUSH2 0x2599 PUSH2 0x3C8E JUMP JUMPDEST JUMPDEST SWAP1 PUSH1 0x0 MSTORE PUSH1 0x20 PUSH1 0x0 KECCAK256 SWAP1 PUSH1 0x3 MUL ADD PUSH1 0x1 ADD SLOAD EQ ISZERO PUSH2 0x25ED JUMPI PUSH1 0x40 MLOAD PUSH32 0x8C379A000000000000000000000000000000000000000000000000000000000 DUP2 MSTORE PUSH1 0x4 ADD PUSH2 0x25E4 SWAP1 PUSH2 0x37BB JUMP JUMPDEST PUSH1 0x40 MLOAD DUP1 SWAP2 SUB SWAP1 REVERT JUMPDEST PUSH1 0x0 PUSH1 0x1 DUP3 DUP2 SLOAD DUP2 LT PUSH2 0x2603 JUMPI PUSH2 0x2602 PUSH2 0x3C8E JUMP JUMPDEST JUMPDEST SWAP1 PUSH1 0x0 MSTORE PUSH1 0x20 PUSH1 0x0 KECCAK256 SWAP1 PUSH1 0x3 MUL ADD PUSH1 0x1 ADD DUP2 SWAP1 SSTORE POP PUSH1 0x0 PUSH1 0x1 DUP3 DUP2 SLOAD DUP2 LT PUSH2 0x262E JUMPI PUSH2 0x262D PUSH2 0x3C8E JUMP JUMPDEST JUMPDEST SWAP1 PUSH1 0x0 MSTORE PUSH1 0x20 PUSH1 0x0 KECCAK256 SWAP1 PUSH1 0x3 MUL ADD PUSH1 0x2 ADD DUP2 SWAP1 SSTORE POP PUSH2 0x265B JUMP JUMPDEST DUP1 DUP1 PUSH2 0x2653 SWAP1 PUSH2 0x3BE7 JUMP JUMPDEST SWAP2 POP POP PUSH2 0x24FE JUMP JUMPDEST POP POP POP POP POP JUMP JUMPDEST PUSH1 0x60 PUSH1 0x3 DUP1 SLOAD DUP1 PUSH1 0x20 MUL PUSH1 0x20 ADD PUSH1 0x40 MLOAD SWAP1 DUP2 ADD PUSH1 0x40 MSTORE DUP1 SWAP3 SWAP2 SWAP1 DUP2 DUP2 MSTORE PUSH1 0x20 ADD PUSH1 0x0 SWAP1 JUMPDEST DUP3 DUP3 LT ISZERO PUSH2 0x26E7 JUMPI DUP4 DUP3 SWAP1 PUSH1 0x0 MSTORE PUSH1 0x20 PUSH1 0x0 KECCAK256 SWAP1 PUSH1 0x3 MUL ADD PUSH1 0x40 MLOAD DUP1 PUSH1 0x60 ADD PUSH1 0x40 MSTORE SWAP1 DUP2 PUSH1 0x0 DUP3 ADD SLOAD DUP2 MSTORE PUSH1 0x20 ADD PUSH1 0x1 DUP3 ADD SLOAD DUP2 MSTORE PUSH1 0x20 ADD PUSH1 0x2 DUP3 ADD PUSH1 0x0 SWAP1 SLOAD SWAP1 PUSH2 0x100 EXP SWAP1 DIV PUSH1 0xFF AND ISZERO ISZERO ISZERO ISZERO DUP2 MSTORE POP POP DUP2 MSTORE PUSH1 0x20 ADD SWAP1 PUSH1 0x1 ADD SWAP1 PUSH2 0x2686 JUMP JUMPDEST POP POP POP POP SWAP1 POP SWAP1 JUMP JUMPDEST PUSH1 0x0 DUP4 DUP2 SLOAD DUP2 LT PUSH2 0x2704 JUMPI PUSH2 0x2703 PUSH2 0x3C8E JUMP JUMPDEST JUMPDEST SWAP1 PUSH1 0x0 MSTORE PUSH1 0x20 PUSH1 0x0 KECCAK256 SWAP1 PUSH1 0x4 MUL ADD PUSH1 0x2 ADD DUP3 DUP2 SLOAD DUP2 LT PUSH2 0x2727 JUMPI PUSH2 0x2726 PUSH2 0x3C8E JUMP JUMPDEST JUMPDEST SWAP1 PUSH1 0x0 MSTORE PUSH1 0x20 PUSH1 0x0 KECCAK256 SWAP1 PUSH1 0x5 MUL ADD PUSH1 0x3 ADD PUSH1 0x1 DUP2 PUSH1 0x1 DUP2 SLOAD ADD DUP1 DUP3 SSTORE DUP1 SWAP2 POP POP SUB SWAP1 PUSH1 0x0 MSTORE PUSH1 0x20 PUSH1 0x0 KECCAK256 SWAP1 POP POP CALLER PUSH1 0x0 DUP5 DUP2 SLOAD DUP2 LT PUSH2 0x2769 JUMPI PUSH2 0x2768 PUSH2 0x3C8E JUMP JUMPDEST JUMPDEST SWAP1 PUSH1 0x0 MSTORE PUSH1 0x20 PUSH1 0x0 KECCAK256 SWAP1 PUSH1 0x4 MUL ADD PUSH1 0x2 ADD DUP4 DUP2 SLOAD DUP2 LT PUSH2 0x278C JUMPI PUSH2 0x278B PUSH2 0x3C8E JUMP JUMPDEST JUMPDEST SWAP1 PUSH1 0x0 MSTORE PUSH1 0x20 PUSH1 0x0 KECCAK256 SWAP1 PUSH1 0x5 MUL ADD PUSH1 0x3 ADD PUSH1 0x1 PUSH1 0x0 DUP7 DUP2 SLOAD DUP2 LT PUSH2 0x27B3 JUMPI PUSH2 0x27B2 PUSH2 0x3C8E JUMP JUMPDEST JUMPDEST SWAP1 PUSH1 0x0 MSTORE PUSH1 0x20 PUSH1 0x0 KECCAK256 SWAP1 PUSH1 0x4 MUL ADD PUSH1 0x2 ADD DUP6 DUP2 SLOAD DUP2 LT PUSH2 0x27D6 JUMPI PUSH2 0x27D5 PUSH2 0x3C8E JUMP JUMPDEST JUMPDEST SWAP1 PUSH1 0x0 MSTORE PUSH1 0x20 PUSH1 0x0 KECCAK256 SWAP1 PUSH1 0x5 MUL ADD PUSH1 0x3 ADD DUP1 SLOAD SWAP1 POP PUSH2 0x27F5 SWAP2 SWAP1 PUSH2 0x3AC6 JUMP JUMPDEST DUP2 SLOAD DUP2 LT PUSH2 0x2806 JUMPI PUSH2 0x2805 PUSH2 0x3C8E JUMP JUMPDEST JUMPDEST SWAP1 PUSH1 0x0 MSTORE PUSH1 0x20 PUSH1 0x0 KECCAK256 SWAP1 PUSH1 0x3 MUL ADD PUSH1 0x0 ADD PUSH1 0x0 PUSH2 0x100 EXP DUP2 SLOAD DUP2 PUSH20 0xFFFFFFFFFFFFFFFFFFFFFFFFFFFFFFFFFFFFFFFF MUL NOT AND SWAP1 DUP4 PUSH20 0xFFFFFFFFFFFFFFFFFFFFFFFFFFFFFFFFFFFFFFFF AND MUL OR SWAP1 SSTORE POP DUP1 PUSH1 0x0 DUP5 DUP2 SLOAD DUP2 LT PUSH2 0x286A JUMPI PUSH2 0x2869 PUSH2 0x3C8E JUMP JUMPDEST JUMPDEST SWAP1 PUSH1 0x0 MSTORE PUSH1 0x20 PUSH1 0x0 KECCAK256 SWAP1 PUSH1 0x4 MUL ADD PUSH1 0x2 ADD DUP4 DUP2 SLOAD DUP2 LT PUSH2 0x288D JUMPI PUSH2 0x288C PUSH2 0x3C8E JUMP JUMPDEST JUMPDEST SWAP1 PUSH1 0x0 MSTORE PUSH1 0x20 PUSH1 0x0 KECCAK256 SWAP1 PUSH1 0x5 MUL ADD PUSH1 0x3 ADD PUSH1 0x1 PUSH1 0x0 DUP7 DUP2 SLOAD DUP2 LT PUSH2 0x28B4 JUMPI PUSH2 0x28B3 PUSH2 0x3C8E JUMP JUMPDEST JUMPDEST SWAP1 PUSH1 0x0 MSTORE PUSH1 0x20 PUSH1 0x0 KECCAK256 SWAP1 PUSH1 0x4 MUL ADD PUSH1 0x2 ADD DUP6 DUP2 SLOAD DUP2 LT PUSH2 0x28D7 JUMPI PUSH2 0x28D6 PUSH2 0x3C8E JUMP JUMPDEST JUMPDEST SWAP1 PUSH1 0x0 MSTORE PUSH1 0x20 PUSH1 0x0 KECCAK256 SWAP1 PUSH1 0x5 MUL ADD PUSH1 0x3 ADD DUP1 SLOAD SWAP1 POP PUSH2 0x28F6 SWAP2 SWAP1 PUSH2 0x3AC6 JUMP JUMPDEST DUP2 SLOAD DUP2 LT PUSH2 0x2907 JUMPI PUSH2 0x2906 PUSH2 0x3C8E JUMP JUMPDEST JUMPDEST SWAP1 PUSH1 0x0 MSTORE PUSH1 0x20 PUSH1 0x0 KECCAK256 SWAP1 PUSH1 0x3 MUL ADD PUSH1 0x2 ADD SWAP1 DUP1 MLOAD SWAP1 PUSH1 0x20 ADD SWAP1 PUSH2 0x292B SWAP3 SWAP2 SWAP1 PUSH2 0x29FA JUMP JUMPDEST POP POP POP POP JUMP JUMPDEST PUSH1 0x60 PUSH1 0x1 DUP1 SLOAD DUP1 PUSH1 0x20 MUL PUSH1 0x20 ADD PUSH1 0x40 MLOAD SWAP1 DUP2 ADD PUSH1 0x40 MSTORE DUP1 SWAP3 SWAP2 SWAP1 DUP2 DUP2 MSTORE PUSH1 0x20 ADD PUSH1 0x0 SWAP1 JUMPDEST DUP3 DUP3 LT ISZERO PUSH2 0x29F1 JUMPI DUP4 DUP3 SWAP1 PUSH1 0x0 MSTORE PUSH1 0x20 PUSH1 0x0 KECCAK256 SWAP1 PUSH1 0x3 MUL ADD PUSH1 0x40 MLOAD DUP1 PUSH1 0x60 ADD PUSH1 0x40 MSTORE SWAP1 DUP2 PUSH1 0x0 DUP3 ADD PUSH1 0x0 SWAP1 SLOAD SWAP1 PUSH2 0x100 EXP SWAP1 DIV PUSH20 0xFFFFFFFFFFFFFFFFFFFFFFFFFFFFFFFFFFFFFFFF AND PUSH20 0xFFFFFFFFFFFFFFFFFFFFFFFFFFFFFFFFFFFFFFFF AND PUSH20 0xFFFFFFFFFFFFFFFFFFFFFFFFFFFFFFFFFFFFFFFF AND DUP2 MSTORE PUSH1 0x20 ADD PUSH1 0x1 DUP3 ADD SLOAD DUP2 MSTORE PUSH1 0x20 ADD PUSH1 0x2 DUP3 ADD SLOAD DUP2 MSTORE POP POP DUP2 MSTORE PUSH1 0x20 ADD SWAP1 PUSH1 0x1 ADD SWAP1 PUSH2 0x2955 JUMP JUMPDEST POP POP POP POP SWAP1 POP SWAP1 JUMP JUMPDEST DUP3 DUP1 SLOAD PUSH2 0x2A06 SWAP1 PUSH2 0x3B84 JUMP JUMPDEST SWAP1 PUSH1 0x0 MSTORE PUSH1 0x20 PUSH1 0x0 KECCAK256 SWAP1 PUSH1 0x1F ADD PUSH1 0x20 SWAP1 DIV DUP2 ADD SWAP3 DUP3 PUSH2 0x2A28 JUMPI PUSH1 0x0 DUP6 SSTORE PUSH2 0x2A6F JUMP JUMPDEST DUP3 PUSH1 0x1F LT PUSH2 0x2A41 JUMPI DUP1 MLOAD PUSH1 0xFF NOT AND DUP4 DUP1 ADD OR DUP6 SSTORE PUSH2 0x2A6F JUMP JUMPDEST DUP3 DUP1 ADD PUSH1 0x1 ADD DUP6 SSTORE DUP3 ISZERO PUSH2 0x2A6F JUMPI SWAP2 DUP3 ADD JUMPDEST DUP3 DUP2 GT ISZERO PUSH2 0x2A6E JUMPI DUP3 MLOAD DUP3 SSTORE SWAP2 PUSH1 0x20 ADD SWAP2 SWAP1 PUSH1 0x1 ADD SWAP1 PUSH2 0x2A53 JUMP JUMPDEST JUMPDEST POP SWAP1 POP PUSH2 0x2A7C SWAP2 SWAP1 PUSH2 0x2B05 JUMP JUMPDEST POP SWAP1 JUMP JUMPDEST POP DUP1 SLOAD PUSH2 0x2A8C SWAP1 PUSH2 0x3B84 JUMP JUMPDEST PUSH1 0x0 DUP3 SSTORE DUP1 PUSH1 0x1F LT PUSH2 0x2A9E JUMPI POP PUSH2 0x2ABD JUMP JUMPDEST PUSH1 0x1F ADD PUSH1 0x20 SWAP1 DIV SWAP1 PUSH1 0x0 MSTORE PUSH1 0x20 PUSH1 0x0 KECCAK256 SWAP1 DUP2 ADD SWAP1 PUSH2 0x2ABC SWAP2 SWAP1 PUSH2 0x2B05 JUMP JUMPDEST JUMPDEST POP JUMP JUMPDEST POP DUP1 SLOAD PUSH1 0x0 DUP3 SSTORE PUSH1 0x5 MUL SWAP1 PUSH1 0x0 MSTORE PUSH1 0x20 PUSH1 0x0 KECCAK256 SWAP1 DUP2 ADD SWAP1 PUSH2 0x2AE1 SWAP2 SWAP1 PUSH2 0x2B22 JUMP JUMPDEST POP JUMP JUMPDEST POP DUP1 SLOAD PUSH1 0x0 DUP3 SSTORE SWAP1 PUSH1 0x0 MSTORE PUSH1 0x20 PUSH1 0x0 KECCAK256 SWAP1 DUP2 ADD SWAP1 PUSH2 0x2B02 SWAP2 SWAP1 PUSH2 0x2B05 JUMP JUMPDEST POP JUMP JUMPDEST JUMPDEST DUP1 DUP3 GT ISZERO PUSH2 0x2B1E JUMPI PUSH1 0x0 DUP2 PUSH1 0x0 SWAP1 SSTORE POP PUSH1 0x1 ADD PUSH2 0x2B06 JUMP JUMPDEST POP SWAP1 JUMP JUMPDEST JUMPDEST DUP1 DUP3 GT ISZERO PUSH2 0x2B94 JUMPI PUSH1 0x0 DUP1 DUP3 ADD PUSH1 0x0 PUSH2 0x100 EXP DUP2 SLOAD SWAP1 PUSH20 0xFFFFFFFFFFFFFFFFFFFFFFFFFFFFFFFFFFFFFFFF MUL NOT AND SWAP1 SSTORE PUSH1 0x1 DUP3 ADD PUSH1 0x0 SWAP1 SSTORE PUSH1 0x2 DUP3 ADD PUSH1 0x0 PUSH2 0x2B6B SWAP2 SWAP1 PUSH2 0x2B98 JUMP JUMPDEST PUSH1 0x3 DUP3 ADD PUSH1 0x0 PUSH2 0x2B7B SWAP2 SWAP1 PUSH2 0x2BB9 JUMP JUMPDEST PUSH1 0x4 DUP3 ADD PUSH1 0x0 PUSH2 0x2B8B SWAP2 SWAP1 PUSH2 0x2A80 JUMP JUMPDEST POP PUSH1 0x5 ADD PUSH2 0x2B23 JUMP JUMPDEST POP SWAP1 JUMP JUMPDEST POP DUP1 SLOAD PUSH1 0x0 DUP3 SSTORE SWAP1 PUSH1 0x0 MSTORE PUSH1 0x20 PUSH1 0x0 KECCAK256 SWAP1 DUP2 ADD SWAP1 PUSH2 0x2BB6 SWAP2 SWAP1 PUSH2 0x2BDD JUMP JUMPDEST POP JUMP JUMPDEST POP DUP1 SLOAD PUSH1 0x0 DUP3 SSTORE PUSH1 0x3 MUL SWAP1 PUSH1 0x0 MSTORE PUSH1 0x20 PUSH1 0x0 KECCAK256 SWAP1 DUP2 ADD SWAP1 PUSH2 0x2BDA SWAP2 SWAP1 PUSH2 0x2C2F JUMP JUMPDEST POP JUMP JUMPDEST JUMPDEST DUP1 DUP3 GT ISZERO PUSH2 0x2C2B JUMPI PUSH1 0x0 DUP1 DUP3 ADD PUSH1 0x0 PUSH2 0x100 EXP DUP2 SLOAD SWAP1 PUSH20 0xFFFFFFFFFFFFFFFFFFFFFFFFFFFFFFFFFFFFFFFF MUL NOT AND SWAP1 SSTORE PUSH1 0x0 DUP3 ADD PUSH1 0x14 PUSH2 0x100 EXP DUP2 SLOAD SWAP1 PUSH1 0xFF MUL NOT AND SWAP1 SSTORE POP PUSH1 0x1 ADD PUSH2 0x2BDE JUMP JUMPDEST POP SWAP1 JUMP JUMPDEST JUMPDEST DUP1 DUP3 GT ISZERO PUSH2 0x2C89 JUMPI PUSH1 0x0 DUP1 DUP3 ADD PUSH1 0x0 PUSH2 0x100 EXP DUP2 SLOAD SWAP1 PUSH20 0xFFFFFFFFFFFFFFFFFFFFFFFFFFFFFFFFFFFFFFFF MUL NOT AND SWAP1 SSTORE PUSH1 0x1 DUP3 ADD PUSH1 0x0 PUSH2 0x2C70 SWAP2 SWAP1 PUSH2 0x2B98 JUMP JUMPDEST PUSH1 0x2 DUP3 ADD PUSH1 0x0 PUSH2 0x2C80 SWAP2 SWAP1 PUSH2 0x2A80 JUMP JUMPDEST POP PUSH1 0x3 ADD PUSH2 0x2C30 JUMP JUMPDEST POP SWAP1 JUMP JUMPDEST PUSH1 0x0 PUSH2 0x2CA0 PUSH2 0x2C9B DUP5 PUSH2 0x38A0 JUMP JUMPDEST PUSH2 0x387B JUMP JUMPDEST SWAP1 POP DUP3 DUP2 MSTORE PUSH1 0x20 DUP2 ADD DUP5 DUP5 DUP5 ADD GT ISZERO PUSH2 0x2CBC JUMPI PUSH2 0x2CBB PUSH2 0x3CF1 JUMP JUMPDEST JUMPDEST PUSH2 0x2CC7 DUP5 DUP3 DUP6 PUSH2 0x3B42 JUMP JUMPDEST POP SWAP4 SWAP3 POP POP POP JUMP JUMPDEST PUSH1 0x0 DUP2 CALLDATALOAD SWAP1 POP PUSH2 0x2CDE DUP2 PUSH2 0x3E82 JUMP JUMPDEST SWAP3 SWAP2 POP POP JUMP JUMPDEST PUSH1 0x0 DUP2 CALLDATALOAD SWAP1 POP PUSH2 0x2CF3 DUP2 PUSH2 0x3E99 JUMP JUMPDEST SWAP3 SWAP2 POP POP JUMP JUMPDEST PUSH1 0x0 DUP3 PUSH1 0x1F DUP4 ADD SLT PUSH2 0x2D0E JUMPI PUSH2 0x2D0D PUSH2 0x3CEC JUMP JUMPDEST JUMPDEST DUP2 CALLDATALOAD PUSH2 0x2D1E DUP5 DUP3 PUSH1 0x20 DUP7 ADD PUSH2 0x2C8D JUMP JUMPDEST SWAP2 POP POP SWAP3 SWAP2 POP POP JUMP JUMPDEST PUSH1 0x0 DUP2 CALLDATALOAD SWAP1 POP PUSH2 0x2D36 DUP2 PUSH2 0x3EB0 JUMP JUMPDEST SWAP3 SWAP2 POP POP JUMP JUMPDEST PUSH1 0x0 PUSH1 0x20 DUP3 DUP5 SUB SLT ISZERO PUSH2 0x2D52 JUMPI PUSH2 0x2D51 PUSH2 0x3CFB JUMP JUMPDEST JUMPDEST PUSH1 0x0 PUSH2 0x2D60 DUP5 DUP3 DUP6 ADD PUSH2 0x2CCF JUMP JUMPDEST SWAP2 POP POP SWAP3 SWAP2 POP POP JUMP JUMPDEST PUSH1 0x0 DUP1 PUSH1 0x40 DUP4 DUP6 SUB SLT ISZERO PUSH2 0x2D80 JUMPI PUSH2 0x2D7F PUSH2 0x3CFB JUMP JUMPDEST JUMPDEST PUSH1 0x0 PUSH2 0x2D8E DUP6 DUP3 DUP7 ADD PUSH2 0x2CCF JUMP JUMPDEST SWAP3 POP POP PUSH1 0x20 DUP4 ADD CALLDATALOAD PUSH8 0xFFFFFFFFFFFFFFFF DUP2 GT ISZERO PUSH2 0x2DAF JUMPI PUSH2 0x2DAE PUSH2 0x3CF6 JUMP JUMPDEST JUMPDEST PUSH2 0x2DBB DUP6 DUP3 DUP7 ADD PUSH2 0x2CF9 JUMP JUMPDEST SWAP2 POP POP SWAP3 POP SWAP3 SWAP1 POP JUMP JUMPDEST PUSH1 0x0 PUSH1 0x20 DUP3 DUP5 SUB SLT ISZERO PUSH2 0x2DDB JUMPI PUSH2 0x2DDA PUSH2 0x3CFB JUMP JUMPDEST JUMPDEST PUSH1 0x0 PUSH2 0x2DE9 DUP5 DUP3 DUP6 ADD PUSH2 0x2D27 JUMP JUMPDEST SWAP2 POP POP SWAP3 SWAP2 POP POP JUMP JUMPDEST PUSH1 0x0 DUP1 PUSH1 0x0 PUSH1 0x60 DUP5 DUP7 SUB SLT ISZERO PUSH2 0x2E0B JUMPI PUSH2 0x2E0A PUSH2 0x3CFB JUMP JUMPDEST JUMPDEST PUSH1 0x0 PUSH2 0x2E19 DUP7 DUP3 DUP8 ADD PUSH2 0x2D27 JUMP JUMPDEST SWAP4 POP POP PUSH1 0x20 PUSH2 0x2E2A DUP7 DUP3 DUP8 ADD PUSH2 0x2D27 JUMP JUMPDEST SWAP3 POP POP PUSH1 0x40 PUSH2 0x2E3B DUP7 DUP3 DUP8 ADD PUSH2 0x2CE4 JUMP JUMPDEST SWAP2 POP POP SWAP3 POP SWAP3 POP SWAP3 JUMP JUMPDEST PUSH1 0x0 DUP1 PUSH1 0x0 PUSH1 0x60 DUP5 DUP7 SUB SLT ISZERO PUSH2 0x2E5E JUMPI PUSH2 0x2E5D PUSH2 0x3CFB JUMP JUMPDEST JUMPDEST PUSH1 0x0 PUSH2 0x2E6C DUP7 DUP3 DUP8 ADD PUSH2 0x2D27 JUMP JUMPDEST SWAP4 POP POP PUSH1 0x20 PUSH2 0x2E7D DUP7 DUP3 DUP8 ADD PUSH2 0x2D27 JUMP JUMPDEST SWAP3 POP POP PUSH1 0x40 DUP5 ADD CALLDATALOAD PUSH8 0xFFFFFFFFFFFFFFFF DUP2 GT ISZERO PUSH2 0x2E9E JUMPI PUSH2 0x2E9D PUSH2 0x3CF6 JUMP JUMPDEST JUMPDEST PUSH2 0x2EAA DUP7 DUP3 DUP8 ADD PUSH2 0x2CF9 JUMP JUMPDEST SWAP2 POP POP SWAP3 POP SWAP3 POP SWAP3 JUMP JUMPDEST PUSH1 0x0 DUP1 PUSH1 0x0 DUP1 PUSH1 0x80 DUP6 DUP8 SUB SLT ISZERO PUSH2 0x2ECE JUMPI PUSH2 0x2ECD PUSH2 0x3CFB JUMP JUMPDEST JUMPDEST PUSH1 0x0 PUSH2 0x2EDC DUP8 DUP3 DUP9 ADD PUSH2 0x2D27 JUMP JUMPDEST SWAP5 POP POP PUSH1 0x20 PUSH2 0x2EED DUP8 DUP3 DUP9 ADD PUSH2 0x2D27 JUMP JUMPDEST SWAP4 POP POP PUSH1 0x40 PUSH2 0x2EFE DUP8 DUP3 DUP9 ADD PUSH2 0x2D27 JUMP JUMPDEST SWAP3 POP POP PUSH1 0x60 PUSH2 0x2F0F DUP8 DUP3 DUP9 ADD PUSH2 0x2CE4 JUMP JUMPDEST SWAP2 POP POP SWAP3 SWAP6 SWAP2 SWAP5 POP SWAP3 POP JUMP JUMPDEST PUSH1 0x0 PUSH2 0x2F27 DUP4 DUP4 PUSH2 0x3496 JUMP JUMPDEST SWAP1 POP SWAP3 SWAP2 POP POP JUMP JUMPDEST PUSH1 0x0 PUSH2 0x2F3B DUP4 DUP4 PUSH2 0x34ED JUMP JUMPDEST PUSH1 0x40 DUP4 ADD SWAP1 POP SWAP3 SWAP2 POP POP JUMP JUMPDEST PUSH1 0x0 PUSH2 0x2F53 DUP4 DUP4 PUSH2 0x351C JUMP JUMPDEST SWAP1 POP SWAP3 SWAP2 POP POP JUMP JUMPDEST PUSH1 0x0 PUSH2 0x2F67 DUP4 DUP4 PUSH2 0x35A0 JUMP JUMPDEST PUSH1 0x40 DUP4 ADD SWAP1 POP SWAP3 SWAP2 POP POP JUMP JUMPDEST PUSH1 0x0 PUSH2 0x2F7F DUP4 DUP4 PUSH2 0x35CF JUMP JUMPDEST PUSH1 0x60 DUP4 ADD SWAP1 POP SWAP3 SWAP2 POP POP JUMP JUMPDEST PUSH1 0x0 PUSH2 0x2F97 DUP4 DUP4 PUSH2 0x3611 JUMP JUMPDEST SWAP1 POP SWAP3 SWAP2 POP POP JUMP JUMPDEST PUSH1 0x0 PUSH2 0x2FAB DUP4 DUP4 PUSH2 0x3682 JUMP JUMPDEST PUSH1 0x60 DUP4 ADD SWAP1 POP SWAP3 SWAP2 POP POP JUMP JUMPDEST PUSH1 0x0 PUSH2 0x2FC3 DUP4 DUP4 PUSH2 0x36C4 JUMP JUMPDEST PUSH1 0x20 DUP4 ADD SWAP1 POP SWAP3 SWAP2 POP POP JUMP JUMPDEST PUSH2 0x2FD8 DUP2 PUSH2 0x3AFA JUMP JUMPDEST DUP3 MSTORE POP POP JUMP JUMPDEST PUSH1 0x0 PUSH2 0x2FE9 DUP3 PUSH2 0x3951 JUMP JUMPDEST PUSH2 0x2FF3 DUP2 DUP6 PUSH2 0x3A1C JUMP JUMPDEST SWAP4 POP DUP4 PUSH1 0x20 DUP3 MUL DUP6 ADD PUSH2 0x3005 DUP6 PUSH2 0x38D1 JUMP JUMPDEST DUP1 PUSH1 0x0 JUMPDEST DUP6 DUP2 LT ISZERO PUSH2 0x3041 JUMPI DUP5 DUP5 SUB DUP10 MSTORE DUP2 MLOAD PUSH2 0x3022 DUP6 DUP3 PUSH2 0x2F1B JUMP JUMPDEST SWAP5 POP PUSH2 0x302D DUP4 PUSH2 0x39B4 JUMP JUMPDEST SWAP3 POP PUSH1 0x20 DUP11 ADD SWAP10 POP POP PUSH1 0x1 DUP2 ADD SWAP1 POP PUSH2 0x3009 JUMP JUMPDEST POP DUP3 SWAP8 POP DUP8 SWAP6 POP POP POP POP POP POP SWAP3 SWAP2 POP POP JUMP JUMPDEST PUSH1 0x0 PUSH2 0x305E DUP3 PUSH2 0x395C JUMP JUMPDEST PUSH2 0x3068 DUP2 DUP6 PUSH2 0x3A2D JUMP JUMPDEST SWAP4 POP PUSH2 0x3073 DUP4 PUSH2 0x38E1 JUMP JUMPDEST DUP1 PUSH1 0x0 JUMPDEST DUP4 DUP2 LT ISZERO PUSH2 0x30A4 JUMPI DUP2 MLOAD PUSH2 0x308B DUP9 DUP3 PUSH2 0x2F2F JUMP JUMPDEST SWAP8 POP PUSH2 0x3096 DUP4 PUSH2 0x39C1 JUMP JUMPDEST SWAP3 POP POP PUSH1 0x1 DUP2 ADD SWAP1 POP PUSH2 0x3077 JUMP JUMPDEST POP DUP6 SWAP4 POP POP POP POP SWAP3 SWAP2 POP POP JUMP JUMPDEST PUSH1 0x0 PUSH2 0x30BC DUP3 PUSH2 0x3967 JUMP JUMPDEST PUSH2 0x30C6 DUP2 DUP6 PUSH2 0x3A3E JUMP JUMPDEST SWAP4 POP DUP4 PUSH1 0x20 DUP3 MUL DUP6 ADD PUSH2 0x30D8 DUP6 PUSH2 0x38F1 JUMP JUMPDEST DUP1 PUSH1 0x0 JUMPDEST DUP6 DUP2 LT ISZERO PUSH2 0x3114 JUMPI DUP5 DUP5 SUB DUP10 MSTORE DUP2 MLOAD PUSH2 0x30F5 DUP6 DUP3 PUSH2 0x2F47 JUMP JUMPDEST SWAP5 POP PUSH2 0x3100 DUP4 PUSH2 0x39CE JUMP JUMPDEST SWAP3 POP PUSH1 0x20 DUP11 ADD SWAP10 POP POP PUSH1 0x1 DUP2 ADD SWAP1 POP PUSH2 0x30DC JUMP JUMPDEST POP DUP3 SWAP8 POP DUP8 SWAP6 POP POP POP POP POP POP SWAP3 SWAP2 POP POP JUMP JUMPDEST PUSH1 0x0 PUSH2 0x3131 DUP3 PUSH2 0x3972 JUMP JUMPDEST PUSH2 0x313B DUP2 DUP6 PUSH2 0x3A4F JUMP JUMPDEST SWAP4 POP PUSH2 0x3146 DUP4 PUSH2 0x3901 JUMP JUMPDEST DUP1 PUSH1 0x0 JUMPDEST DUP4 DUP2 LT ISZERO PUSH2 0x3177 JUMPI DUP2 MLOAD PUSH2 0x315E DUP9 DUP3 PUSH2 0x2F5B JUMP JUMPDEST SWAP8 POP PUSH2 0x3169 DUP4 PUSH2 0x39DB JUMP JUMPDEST SWAP3 POP POP PUSH1 0x1 DUP2 ADD SWAP1 POP PUSH2 0x314A JUMP JUMPDEST POP DUP6 SWAP4 POP POP POP POP SWAP3 SWAP2 POP POP JUMP JUMPDEST PUSH1 0x0 PUSH2 0x318F DUP3 PUSH2 0x397D JUMP JUMPDEST PUSH2 0x3199 DUP2 DUP6 PUSH2 0x3A60 JUMP JUMPDEST SWAP4 POP PUSH2 0x31A4 DUP4 PUSH2 0x3911 JUMP JUMPDEST DUP1 PUSH1 0x0 JUMPDEST DUP4 DUP2 LT ISZERO PUSH2 0x31D5 JUMPI DUP2 MLOAD PUSH2 0x31BC DUP9 DUP3 PUSH2 0x2F73 JUMP JUMPDEST SWAP8 POP PUSH2 0x31C7 DUP4 PUSH2 0x39E8 JUMP JUMPDEST SWAP3 POP POP PUSH1 0x1 DUP2 ADD SWAP1 POP PUSH2 0x31A8 JUMP JUMPDEST POP DUP6 SWAP4 POP POP POP POP SWAP3 SWAP2 POP POP JUMP JUMPDEST PUSH1 0x0 PUSH2 0x31ED DUP3 PUSH2 0x3988 JUMP JUMPDEST PUSH2 0x31F7 DUP2 DUP6 PUSH2 0x3A71 JUMP JUMPDEST SWAP4 POP DUP4 PUSH1 0x20 DUP3 MUL DUP6 ADD PUSH2 0x3209 DUP6 PUSH2 0x3921 JUMP JUMPDEST DUP1 PUSH1 0x0 JUMPDEST DUP6 DUP2 LT ISZERO PUSH2 0x3245 JUMPI DUP5 DUP5 SUB DUP10 MSTORE DUP2 MLOAD PUSH2 0x3226 DUP6 DUP3 PUSH2 0x2F8B JUMP JUMPDEST SWAP5 POP PUSH2 0x3231 DUP4 PUSH2 0x39F5 JUMP JUMPDEST SWAP3 POP PUSH1 0x20 DUP11 ADD SWAP10 POP POP PUSH1 0x1 DUP2 ADD SWAP1 POP PUSH2 0x320D JUMP JUMPDEST POP DUP3 SWAP8 POP DUP8 SWAP6 POP POP POP POP POP POP SWAP3 SWAP2 POP POP JUMP JUMPDEST PUSH1 0x0 PUSH2 0x3262 DUP3 PUSH2 0x3993 JUMP JUMPDEST PUSH2 0x326C DUP2 DUP6 PUSH2 0x3A82 JUMP JUMPDEST SWAP4 POP PUSH2 0x3277 DUP4 PUSH2 0x3931 JUMP JUMPDEST DUP1 PUSH1 0x0 JUMPDEST DUP4 DUP2 LT ISZERO PUSH2 0x32A8 JUMPI DUP2 MLOAD PUSH2 0x328F DUP9 DUP3 PUSH2 0x2F9F JUMP JUMPDEST SWAP8 POP PUSH2 0x329A DUP4 PUSH2 0x3A02 JUMP JUMPDEST SWAP3 POP POP PUSH1 0x1 DUP2 ADD SWAP1 POP PUSH2 0x327B JUMP JUMPDEST POP DUP6 SWAP4 POP POP POP POP SWAP3 SWAP2 POP POP JUMP JUMPDEST PUSH1 0x0 PUSH2 0x32C0 DUP3 PUSH2 0x399E JUMP JUMPDEST PUSH2 0x32CA DUP2 DUP6 PUSH2 0x3A93 JUMP JUMPDEST SWAP4 POP PUSH2 0x32D5 DUP4 PUSH2 0x3941 JUMP JUMPDEST DUP1 PUSH1 0x0 JUMPDEST DUP4 DUP2 LT ISZERO PUSH2 0x3306 JUMPI DUP2 MLOAD PUSH2 0x32ED DUP9 DUP3 PUSH2 0x2FB7 JUMP JUMPDEST SWAP8 POP PUSH2 0x32F8 DUP4 PUSH2 0x3A0F JUMP JUMPDEST SWAP3 POP POP PUSH1 0x1 DUP2 ADD SWAP1 POP PUSH2 0x32D9 JUMP JUMPDEST POP DUP6 SWAP4 POP POP POP POP SWAP3 SWAP2 POP POP JUMP JUMPDEST PUSH2 0x331C DUP2 PUSH2 0x3B0C JUMP JUMPDEST DUP3 MSTORE POP POP JUMP JUMPDEST PUSH1 0x0 PUSH2 0x332D DUP3 PUSH2 0x39A9 JUMP JUMPDEST PUSH2 0x3337 DUP2 DUP6 PUSH2 0x3AA4 JUMP JUMPDEST SWAP4 POP PUSH2 0x3347 DUP2 DUP6 PUSH1 0x20 DUP7 ADD PUSH2 0x3B51 JUMP JUMPDEST PUSH2 0x3350 DUP2 PUSH2 0x3D00 JUMP JUMPDEST DUP5 ADD SWAP2 POP POP SWAP3 SWAP2 POP POP JUMP JUMPDEST PUSH1 0x0 PUSH2 0x3368 PUSH1 0x3 DUP4 PUSH2 0x3AB5 JUMP JUMPDEST SWAP2 POP PUSH2 0x3373 DUP3 PUSH2 0x3D11 JUMP JUMPDEST PUSH1 0x20 DUP3 ADD SWAP1 POP SWAP2 SWAP1 POP JUMP JUMPDEST PUSH1 0x0 PUSH2 0x338B PUSH1 0x3 DUP4 PUSH2 0x3AB5 JUMP JUMPDEST SWAP2 POP PUSH2 0x3396 DUP3 PUSH2 0x3D3A JUMP JUMPDEST PUSH1 0x20 DUP3 ADD SWAP1 POP SWAP2 SWAP1 POP JUMP JUMPDEST PUSH1 0x0 PUSH2 0x33AE PUSH1 0x3 DUP4 PUSH2 0x3AB5 JUMP JUMPDEST SWAP2 POP PUSH2 0x33B9 DUP3 PUSH2 0x3D63 JUMP JUMPDEST PUSH1 0x20 DUP3 ADD SWAP1 POP SWAP2 SWAP1 POP JUMP JUMPDEST PUSH1 0x0 PUSH2 0x33D1 PUSH1 0x10 DUP4 PUSH2 0x3AB5 JUMP JUMPDEST SWAP2 POP PUSH2 0x33DC DUP3 PUSH2 0x3D8C JUMP JUMPDEST PUSH1 0x20 DUP3 ADD SWAP1 POP SWAP2 SWAP1 POP JUMP JUMPDEST PUSH1 0x0 PUSH2 0x33F4 PUSH1 0xE DUP4 PUSH2 0x3AB5 JUMP JUMPDEST SWAP2 POP PUSH2 0x33FF DUP3 PUSH2 0x3DB5 JUMP JUMPDEST PUSH1 0x20 DUP3 ADD SWAP1 POP SWAP2 SWAP1 POP JUMP JUMPDEST PUSH1 0x0 PUSH2 0x3417 PUSH1 0x3 DUP4 PUSH2 0x3AB5 JUMP JUMPDEST SWAP2 POP PUSH2 0x3422 DUP3 PUSH2 0x3DDE JUMP JUMPDEST PUSH1 0x20 DUP3 ADD SWAP1 POP SWAP2 SWAP1 POP JUMP JUMPDEST PUSH1 0x0 PUSH2 0x343A PUSH1 0x3 DUP4 PUSH2 0x3AB5 JUMP JUMPDEST SWAP2 POP PUSH2 0x3445 DUP3 PUSH2 0x3E07 JUMP JUMPDEST PUSH1 0x20 DUP3 ADD SWAP1 POP SWAP2 SWAP1 POP JUMP JUMPDEST PUSH1 0x0 PUSH2 0x345D PUSH1 0xC DUP4 PUSH2 0x3AB5 JUMP JUMPDEST SWAP2 POP PUSH2 0x3468 DUP3 PUSH2 0x3E30 JUMP JUMPDEST PUSH1 0x20 DUP3 ADD SWAP1 POP SWAP2 SWAP1 POP JUMP JUMPDEST PUSH1 0x0 PUSH2 0x3480 PUSH1 0x3 DUP4 PUSH2 0x3AB5 JUMP JUMPDEST SWAP2 POP PUSH2 0x348B DUP3 PUSH2 0x3E59 JUMP JUMPDEST PUSH1 0x20 DUP3 ADD SWAP1 POP SWAP2 SWAP1 POP JUMP JUMPDEST PUSH1 0x0 PUSH1 0x60 DUP4 ADD PUSH1 0x0 DUP4 ADD MLOAD PUSH2 0x34AE PUSH1 0x0 DUP7 ADD DUP3 PUSH2 0x2FCF JUMP JUMPDEST POP PUSH1 0x20 DUP4 ADD MLOAD DUP5 DUP3 SUB PUSH1 0x20 DUP7 ADD MSTORE PUSH2 0x34C6 DUP3 DUP3 PUSH2 0x3053 JUMP JUMPDEST SWAP2 POP POP PUSH1 0x40 DUP4 ADD MLOAD DUP5 DUP3 SUB PUSH1 0x40 DUP7 ADD MSTORE PUSH2 0x34E0 DUP3 DUP3 PUSH2 0x3322 JUMP JUMPDEST SWAP2 POP POP DUP1 SWAP2 POP POP SWAP3 SWAP2 POP POP JUMP JUMPDEST PUSH1 0x40 DUP3 ADD PUSH1 0x0 DUP3 ADD MLOAD PUSH2 0x3503 PUSH1 0x0 DUP6 ADD DUP3 PUSH2 0x2FCF JUMP JUMPDEST POP PUSH1 0x20 DUP3 ADD MLOAD PUSH2 0x3516 PUSH1 0x20 DUP6 ADD DUP3 PUSH2 0x3313 JUMP JUMPDEST POP POP POP POP JUMP JUMPDEST PUSH1 0x0 PUSH1 0xA0 DUP4 ADD PUSH1 0x0 DUP4 ADD MLOAD PUSH2 0x3534 PUSH1 0x0 DUP7 ADD DUP3 PUSH2 0x2FCF JUMP JUMPDEST POP PUSH1 0x20 DUP4 ADD MLOAD PUSH2 0x3547 PUSH1 0x20 DUP7 ADD DUP3 PUSH2 0x36C4 JUMP JUMPDEST POP PUSH1 0x40 DUP4 ADD MLOAD DUP5 DUP3 SUB PUSH1 0x40 DUP7 ADD MSTORE PUSH2 0x355F DUP3 DUP3 PUSH2 0x3053 JUMP JUMPDEST SWAP2 POP POP PUSH1 0x60 DUP4 ADD MLOAD DUP5 DUP3 SUB PUSH1 0x60 DUP7 ADD MSTORE PUSH2 0x3579 DUP3 DUP3 PUSH2 0x2FDE JUMP JUMPDEST SWAP2 POP POP PUSH1 0x80 DUP4 ADD MLOAD DUP5 DUP3 SUB PUSH1 0x80 DUP7 ADD MSTORE PUSH2 0x3593 DUP3 DUP3 PUSH2 0x3322 JUMP JUMPDEST SWAP2 POP POP DUP1 SWAP2 POP POP SWAP3 SWAP2 POP POP JUMP JUMPDEST PUSH1 0x40 DUP3 ADD PUSH1 0x0 DUP3 ADD MLOAD PUSH2 0x35B6 PUSH1 0x0 DUP6 ADD DUP3 PUSH2 0x36C4 JUMP JUMPDEST POP PUSH1 0x20 DUP3 ADD MLOAD PUSH2 0x35C9 PUSH1 0x20 DUP6 ADD DUP3 PUSH2 0x3313 JUMP JUMPDEST POP POP POP POP JUMP JUMPDEST PUSH1 0x60 DUP3 ADD PUSH1 0x0 DUP3 ADD MLOAD PUSH2 0x35E5 PUSH1 0x0 DUP6 ADD DUP3 PUSH2 0x36C4 JUMP JUMPDEST POP PUSH1 0x20 DUP3 ADD MLOAD PUSH2 0x35F8 PUSH1 0x20 DUP6 ADD DUP3 PUSH2 0x36C4 JUMP JUMPDEST POP PUSH1 0x40 DUP3 ADD MLOAD PUSH2 0x360B PUSH1 0x40 DUP6 ADD DUP3 PUSH2 0x3313 JUMP JUMPDEST POP POP POP POP JUMP JUMPDEST PUSH1 0x0 PUSH1 0x80 DUP4 ADD PUSH1 0x0 DUP4 ADD MLOAD PUSH2 0x3629 PUSH1 0x0 DUP7 ADD DUP3 PUSH2 0x2FCF JUMP JUMPDEST POP PUSH1 0x20 DUP4 ADD MLOAD DUP5 DUP3 SUB PUSH1 0x20 DUP7 ADD MSTORE PUSH2 0x3641 DUP3 DUP3 PUSH2 0x3322 JUMP JUMPDEST SWAP2 POP POP PUSH1 0x40 DUP4 ADD MLOAD DUP5 DUP3 SUB PUSH1 0x40 DUP7 ADD MSTORE PUSH2 0x365B DUP3 DUP3 PUSH2 0x30B1 JUMP JUMPDEST SWAP2 POP POP PUSH1 0x60 DUP4 ADD MLOAD DUP5 DUP3 SUB PUSH1 0x60 DUP7 ADD MSTORE PUSH2 0x3675 DUP3 DUP3 PUSH2 0x32B5 JUMP JUMPDEST SWAP2 POP POP DUP1 SWAP2 POP POP SWAP3 SWAP2 POP POP JUMP JUMPDEST PUSH1 0x60 DUP3 ADD PUSH1 0x0 DUP3 ADD MLOAD PUSH2 0x3698 PUSH1 0x0 DUP6 ADD DUP3 PUSH2 0x2FCF JUMP JUMPDEST POP PUSH1 0x20 DUP3 ADD MLOAD PUSH2 0x36AB PUSH1 0x20 DUP6 ADD DUP3 PUSH2 0x36C4 JUMP JUMPDEST POP PUSH1 0x40 DUP3 ADD MLOAD PUSH2 0x36BE PUSH1 0x40 DUP6 ADD DUP3 PUSH2 0x36C4 JUMP JUMPDEST POP POP POP POP JUMP JUMPDEST PUSH2 0x36CD DUP2 PUSH2 0x3B38 JUMP JUMPDEST DUP3 MSTORE POP POP JUMP JUMPDEST PUSH1 0x0 PUSH1 0x20 DUP3 ADD SWAP1 POP DUP2 DUP2 SUB PUSH1 0x0 DUP4 ADD MSTORE PUSH2 0x36ED DUP2 DUP5 PUSH2 0x3126 JUMP JUMPDEST SWAP1 POP SWAP3 SWAP2 POP POP JUMP JUMPDEST PUSH1 0x0 PUSH1 0x20 DUP3 ADD SWAP1 POP DUP2 DUP2 SUB PUSH1 0x0 DUP4 ADD MSTORE PUSH2 0x370F DUP2 DUP5 PUSH2 0x3184 JUMP JUMPDEST SWAP1 POP SWAP3 SWAP2 POP POP JUMP JUMPDEST PUSH1 0x0 PUSH1 0x20 DUP3 ADD SWAP1 POP DUP2 DUP2 SUB PUSH1 0x0 DUP4 ADD MSTORE PUSH2 0x3731 DUP2 DUP5 PUSH2 0x31E2 JUMP JUMPDEST SWAP1 POP SWAP3 SWAP2 POP POP JUMP JUMPDEST PUSH1 0x0 PUSH1 0x20 DUP3 ADD SWAP1 POP DUP2 DUP2 SUB PUSH1 0x0 DUP4 ADD MSTORE PUSH2 0x3753 DUP2 DUP5 PUSH2 0x3257 JUMP JUMPDEST SWAP1 POP SWAP3 SWAP2 POP POP JUMP JUMPDEST PUSH1 0x0 PUSH1 0x20 DUP3 ADD SWAP1 POP DUP2 DUP2 SUB PUSH1 0x0 DUP4 ADD MSTORE PUSH2 0x3774 DUP2 PUSH2 0x335B JUMP JUMPDEST SWAP1 POP SWAP2 SWAP1 POP JUMP JUMPDEST PUSH1 0x0 PUSH1 0x20 DUP3 ADD SWAP1 POP DUP2 DUP2 SUB PUSH1 0x0 DUP4 ADD MSTORE PUSH2 0x3794 DUP2 PUSH2 0x337E JUMP JUMPDEST SWAP1 POP SWAP2 SWAP1 POP JUMP JUMPDEST PUSH1 0x0 PUSH1 0x20 DUP3 ADD SWAP1 POP DUP2 DUP2 SUB PUSH1 0x0 DUP4 ADD MSTORE PUSH2 0x37B4 DUP2 PUSH2 0x33A1 JUMP JUMPDEST SWAP1 POP SWAP2 SWAP1 POP JUMP JUMPDEST PUSH1 0x0 PUSH1 0x20 DUP3 ADD SWAP1 POP DUP2 DUP2 SUB PUSH1 0x0 DUP4 ADD MSTORE PUSH2 0x37D4 DUP2 PUSH2 0x33C4 JUMP JUMPDEST SWAP1 POP SWAP2 SWAP1 POP JUMP JUMPDEST PUSH1 0x0 PUSH1 0x20 DUP3 ADD SWAP1 POP DUP2 DUP2 SUB PUSH1 0x0 DUP4 ADD MSTORE PUSH2 0x37F4 DUP2 PUSH2 0x33E7 JUMP JUMPDEST SWAP1 POP SWAP2 SWAP1 POP JUMP JUMPDEST PUSH1 0x0 PUSH1 0x20 DUP3 ADD SWAP1 POP DUP2 DUP2 SUB PUSH1 0x0 DUP4 ADD MSTORE PUSH2 0x3814 DUP2 PUSH2 0x340A JUMP JUMPDEST SWAP1 POP SWAP2 SWAP1 POP JUMP JUMPDEST PUSH1 0x0 PUSH1 0x20 DUP3 ADD SWAP1 POP DUP2 DUP2 SUB PUSH1 0x0 DUP4 ADD MSTORE PUSH2 0x3834 DUP2 PUSH2 0x342D JUMP JUMPDEST SWAP1 POP SWAP2 SWAP1 POP JUMP JUMPDEST PUSH1 0x0 PUSH1 0x20 DUP3 ADD SWAP1 POP DUP2 DUP2 SUB PUSH1 0x0 DUP4 ADD MSTORE PUSH2 0x3854 DUP2 PUSH2 0x3450 JUMP JUMPDEST SWAP1 POP SWAP2 SWAP1 POP JUMP JUMPDEST PUSH1 0x0 PUSH1 0x20 DUP3 ADD SWAP1 POP DUP2 DUP2 SUB PUSH1 0x0 DUP4 ADD MSTORE PUSH2 0x3874 DUP2 PUSH2 0x3473 JUMP JUMPDEST SWAP1 POP SWAP2 SWAP1 POP JUMP JUMPDEST PUSH1 0x0 PUSH2 0x3885 PUSH2 0x3896 JUMP JUMPDEST SWAP1 POP PUSH2 0x3891 DUP3 DUP3 PUSH2 0x3BB6 JUMP JUMPDEST SWAP2 SWAP1 POP JUMP JUMPDEST PUSH1 0x0 PUSH1 0x40 MLOAD SWAP1 POP SWAP1 JUMP JUMPDEST PUSH1 0x0 PUSH8 0xFFFFFFFFFFFFFFFF DUP3 GT ISZERO PUSH2 0x38BB JUMPI PUSH2 0x38BA PUSH2 0x3CBD JUMP JUMPDEST JUMPDEST PUSH2 0x38C4 DUP3 PUSH2 0x3D00 JUMP JUMPDEST SWAP1 POP PUSH1 0x20 DUP2 ADD SWAP1 POP SWAP2 SWAP1 POP JUMP JUMPDEST PUSH1 0x0 DUP2 SWAP1 POP PUSH1 0x20 DUP3 ADD SWAP1 POP SWAP2 SWAP1 POP JUMP JUMPDEST PUSH1 0x0 DUP2 SWAP1 POP PUSH1 0x20 DUP3 ADD SWAP1 POP SWAP2 SWAP1 POP JUMP JUMPDEST PUSH1 0x0 DUP2 SWAP1 POP PUSH1 0x20 DUP3 ADD SWAP1 POP SWAP2 SWAP1 POP JUMP JUMPDEST PUSH1 0x0 DUP2 SWAP1 POP PUSH1 0x20 DUP3 ADD SWAP1 POP SWAP2 SWAP1 POP JUMP JUMPDEST PUSH1 0x0 DUP2 SWAP1 POP PUSH1 0x20 DUP3 ADD SWAP1 POP SWAP2 SWAP1 POP JUMP JUMPDEST PUSH1 0x0 DUP2 SWAP1 POP PUSH1 0x20 DUP3 ADD SWAP1 POP SWAP2 SWAP1 POP JUMP JUMPDEST PUSH1 0x0 DUP2 SWAP1 POP PUSH1 0x20 DUP3 ADD SWAP1 POP SWAP2 SWAP1 POP JUMP JUMPDEST PUSH1 0x0 DUP2 SWAP1 POP PUSH1 0x20 DUP3 ADD SWAP1 POP SWAP2 SWAP1 POP JUMP JUMPDEST PUSH1 0x0 DUP2 MLOAD SWAP1 POP SWAP2 SWAP1 POP JUMP JUMPDEST PUSH1 0x0 DUP2 MLOAD SWAP1 POP SWAP2 SWAP1 POP JUMP JUMPDEST PUSH1 0x0 DUP2 MLOAD SWAP1 POP SWAP2 SWAP1 POP JUMP JUMPDEST PUSH1 0x0 DUP2 MLOAD SWAP1 POP SWAP2 SWAP1 POP JUMP JUMPDEST PUSH1 0x0 DUP2 MLOAD SWAP1 POP SWAP2 SWAP1 POP JUMP JUMPDEST PUSH1 0x0 DUP2 MLOAD SWAP1 POP SWAP2 SWAP1 POP JUMP JUMPDEST PUSH1 0x0 DUP2 MLOAD SWAP1 POP SWAP2 SWAP1 POP JUMP JUMPDEST PUSH1 0x0 DUP2 MLOAD SWAP1 POP SWAP2 SWAP1 POP JUMP JUMPDEST PUSH1 0x0 DUP2 MLOAD SWAP1 POP SWAP2 SWAP1 POP JUMP JUMPDEST PUSH1 0x0 PUSH1 0x20 DUP3 ADD SWAP1 POP SWAP2 SWAP1 POP JUMP JUMPDEST PUSH1 0x0 PUSH1 0x20 DUP3 ADD SWAP1 POP SWAP2 SWAP1 POP JUMP JUMPDEST PUSH1 0x0 PUSH1 0x20 DUP3 ADD SWAP1 POP SWAP2 SWAP1 POP JUMP JUMPDEST PUSH1 0x0 PUSH1 0x20 DUP3 ADD SWAP1 POP SWAP2 SWAP1 POP JUMP JUMPDEST PUSH1 0x0 PUSH1 0x20 DUP3 ADD SWAP1 POP SWAP2 SWAP1 POP JUMP JUMPDEST PUSH1 0x0 PUSH1 0x20 DUP3 ADD SWAP1 POP SWAP2 SWAP1 POP JUMP JUMPDEST PUSH1 0x0 PUSH1 0x20 DUP3 ADD SWAP1 POP SWAP2 SWAP1 POP JUMP JUMPDEST PUSH1 0x0 PUSH1 0x20 DUP3 ADD SWAP1 POP SWAP2 SWAP1 POP JUMP JUMPDEST PUSH1 0x0 DUP3 DUP3 MSTORE PUSH1 0x20 DUP3 ADD SWAP1 POP SWAP3 SWAP2 POP POP JUMP JUMPDEST PUSH1 0x0 DUP3 DUP3 MSTORE PUSH1 0x20 DUP3 ADD SWAP1 POP SWAP3 SWAP2 POP POP JUMP JUMPDEST PUSH1 0x0 DUP3 DUP3 MSTORE PUSH1 0x20 DUP3 ADD SWAP1 POP SWAP3 SWAP2 POP POP JUMP JUMPDEST PUSH1 0x0 DUP3 DUP3 MSTORE PUSH1 0x20 DUP3 ADD SWAP1 POP SWAP3 SWAP2 POP POP JUMP JUMPDEST PUSH1 0x0 DUP3 DUP3 MSTORE PUSH1 0x20 DUP3 ADD SWAP1 POP SWAP3 SWAP2 POP POP JUMP JUMPDEST PUSH1 0x0 DUP3 DUP3 MSTORE PUSH1 0x20 DUP3 ADD SWAP1 POP SWAP3 SWAP2 POP POP JUMP JUMPDEST PUSH1 0x0 DUP3 DUP3 MSTORE PUSH1 0x20 DUP3 ADD SWAP1 POP SWAP3 SWAP2 POP POP JUMP JUMPDEST PUSH1 0x0 DUP3 DUP3 MSTORE PUSH1 0x20 DUP3 ADD SWAP1 POP SWAP3 SWAP2 POP POP JUMP JUMPDEST PUSH1 0x0 DUP3 DUP3 MSTORE PUSH1 0x20 DUP3 ADD SWAP1 POP SWAP3 SWAP2 POP POP JUMP JUMPDEST PUSH1 0x0 DUP3 DUP3 MSTORE PUSH1 0x20 DUP3 ADD SWAP1 POP SWAP3 SWAP2 POP POP JUMP JUMPDEST PUSH1 0x0 PUSH2 0x3AD1 DUP3 PUSH2 0x3B38 JUMP JUMPDEST SWAP2 POP PUSH2 0x3ADC DUP4 PUSH2 0x3B38 JUMP JUMPDEST SWAP3 POP DUP3 DUP3 LT ISZERO PUSH2 0x3AEF JUMPI PUSH2 0x3AEE PUSH2 0x3C30 JUMP JUMPDEST JUMPDEST DUP3 DUP3 SUB SWAP1 POP SWAP3 SWAP2 POP POP JUMP JUMPDEST PUSH1 0x0 PUSH2 0x3B05 DUP3 PUSH2 0x3B18 JUMP JUMPDEST SWAP1 POP SWAP2 SWAP1 POP JUMP JUMPDEST PUSH1 0x0 DUP2 ISZERO ISZERO SWAP1 POP SWAP2 SWAP1 POP JUMP JUMPDEST PUSH1 0x0 PUSH20 0xFFFFFFFFFFFFFFFFFFFFFFFFFFFFFFFFFFFFFFFF DUP3 AND SWAP1 POP SWAP2 SWAP1 POP JUMP JUMPDEST PUSH1 0x0 DUP2 SWAP1 POP SWAP2 SWAP1 POP JUMP JUMPDEST DUP3 DUP2 DUP4 CALLDATACOPY PUSH1 0x0 DUP4 DUP4 ADD MSTORE POP POP POP JUMP JUMPDEST PUSH1 0x0 JUMPDEST DUP4 DUP2 LT ISZERO PUSH2 0x3B6F JUMPI DUP1 DUP3 ADD MLOAD DUP2 DUP5 ADD MSTORE PUSH1 0x20 DUP2 ADD SWAP1 POP PUSH2 0x3B54 JUMP JUMPDEST DUP4 DUP2 GT ISZERO PUSH2 0x3B7E JUMPI PUSH1 0x0 DUP5 DUP5 ADD MSTORE JUMPDEST POP POP POP POP JUMP JUMPDEST PUSH1 0x0 PUSH1 0x2 DUP3 DIV SWAP1 POP PUSH1 0x1 DUP3 AND DUP1 PUSH2 0x3B9C JUMPI PUSH1 0x7F DUP3 AND SWAP2 POP JUMPDEST PUSH1 0x20 DUP3 LT DUP2 EQ ISZERO PUSH2 0x3BB0 JUMPI PUSH2 0x3BAF PUSH2 0x3C5F JUMP JUMPDEST JUMPDEST POP SWAP2 SWAP1 POP JUMP JUMPDEST PUSH2 0x3BBF DUP3 PUSH2 0x3D00 JUMP JUMPDEST DUP2 ADD DUP2 DUP2 LT PUSH8 0xFFFFFFFFFFFFFFFF DUP3 GT OR ISZERO PUSH2 0x3BDE JUMPI PUSH2 0x3BDD PUSH2 0x3CBD JUMP JUMPDEST JUMPDEST DUP1 PUSH1 0x40 MSTORE POP POP POP JUMP JUMPDEST PUSH1 0x0 PUSH2 0x3BF2 DUP3 PUSH2 0x3B38 JUMP JUMPDEST SWAP2 POP PUSH32 0xFFFFFFFFFFFFFFFFFFFFFFFFFFFFFFFFFFFFFFFFFFFFFFFFFFFFFFFFFFFFFFFF DUP3 EQ ISZERO PUSH2 0x3C25 JUMPI PUSH2 0x3C24 PUSH2 0x3C30 JUMP JUMPDEST JUMPDEST PUSH1 0x1 DUP3 ADD SWAP1 POP SWAP2 SWAP1 POP JUMP JUMPDEST PUSH32 0x4E487B7100000000000000000000000000000000000000000000000000000000 PUSH1 0x0 MSTORE PUSH1 0x11 PUSH1 0x4 MSTORE PUSH1 0x24 PUSH1 0x0 REVERT JUMPDEST PUSH32 0x4E487B7100000000000000000000000000000000000000000000000000000000 PUSH1 0x0 MSTORE PUSH1 0x22 PUSH1 0x4 MSTORE PUSH1 0x24 PUSH1 0x0 REVERT JUMPDEST PUSH32 0x4E487B7100000000000000000000000000000000000000000000000000000000 PUSH1 0x0 MSTORE PUSH1 0x32 PUSH1 0x4 MSTORE PUSH1 0x24 PUSH1 0x0 REVERT JUMPDEST PUSH32 0x4E487B7100000000000000000000000000000000000000000000000000000000 PUSH1 0x0 MSTORE PUSH1 0x41 PUSH1 0x4 MSTORE PUSH1 0x24 PUSH1 0x0 REVERT JUMPDEST PUSH1 0x0 DUP1 REVERT JUMPDEST PUSH1 0x0 DUP1 REVERT JUMPDEST PUSH1 0x0 DUP1 REVERT JUMPDEST PUSH1 0x0 DUP1 REVERT JUMPDEST PUSH1 0x0 PUSH1 0x1F NOT PUSH1 0x1F DUP4 ADD AND SWAP1 POP SWAP2 SWAP1 POP JUMP JUMPDEST PUSH32 0x3130340000000000000000000000000000000000000000000000000000000000 PUSH1 0x0 DUP3 ADD MSTORE POP JUMP JUMPDEST PUSH32 0x3130300000000000000000000000000000000000000000000000000000000000 PUSH1 0x0 DUP3 ADD MSTORE POP JUMP JUMPDEST PUSH32 0x3230310000000000000000000000000000000000000000000000000000000000 PUSH1 0x0 DUP3 ADD MSTORE POP JUMP JUMPDEST PUSH32 0x5520616C72656164792061646D696E2100000000000000000000000000000000 PUSH1 0x0 DUP3 ADD MSTORE POP JUMP JUMPDEST PUSH32 0x49742069736E27742073686F7021000000000000000000000000000000000000 PUSH1 0x0 DUP3 ADD MSTORE POP JUMP JUMPDEST PUSH32 0x3130330000000000000000000000000000000000000000000000000000000000 PUSH1 0x0 DUP3 ADD MSTORE POP JUMP JUMPDEST PUSH32 0x3230300000000000000000000000000000000000000000000000000000000000 PUSH1 0x0 DUP3 ADD MSTORE POP JUMP JUMPDEST PUSH32 0x53686F7020657869737473210000000000000000000000000000000000000000 PUSH1 0x0 DUP3 ADD MSTORE POP JUMP JUMPDEST PUSH32 0x3130310000000000000000000000000000000000000000000000000000000000 PUSH1 0x0 DUP3 ADD MSTORE POP JUMP JUMPDEST PUSH2 0x3E8B DUP2 PUSH2 0x3AFA JUMP JUMPDEST DUP2 EQ PUSH2 0x3E96 JUMPI PUSH1 0x0 DUP1 REVERT JUMPDEST POP JUMP JUMPDEST PUSH2 0x3EA2 DUP2 PUSH2 0x3B0C JUMP JUMPDEST DUP2 EQ PUSH2 0x3EAD JUMPI PUSH1 0x0 DUP1 REVERT JUMPDEST POP JUMP JUMPDEST PUSH2 0x3EB9 DUP2 PUSH2 0x3B38 JUMP JUMPDEST DUP2 EQ PUSH2 0x3EC4 JUMPI PUSH1 0x0 DUP1 REVERT JUMPDEST POP JUMP INVALID LOG2 PUSH5 0x6970667358 0x22 SLT KECCAK256 DUP14 0xC2 LOG3 SDIV SMOD LT SHL 0xE4 0xE 0x25 DUP8 ADD PUSH32 0x111BEC5DDE572C7765112B079F4F43F7EE389E64736F6C634300080700330000 "
		},
		"gasEstimates": {
			"creation": {
				"codeDepositCost": "3225000",
				"executionCost": "infinite",
				"totalCost": "infinite"
			},
			"external": {
				"addAdmin(address)": "infinite",
				"addComment(uint256,uint256,string)": "infinite",
				"addLike(uint256,uint256,bool)": "infinite",
				"addLike(uint256,uint256,uint256,bool)": "infinite",
				"addMark(uint256,uint256,string)": "infinite",
				"addShop(address,string)": "infinite",
				"deleteShop(uint256)": "infinite",
				"downToUser(uint256)": "infinite",
				"globalSwitchRequest()": "infinite",
				"globalSwitchRequest(uint256)": "infinite",
				"regUser()": "infinite",
				"switchToUser()": "infinite",
				"upToSeller(uint256)": "infinite",
				"view_Requests_Sellers()": "infinite",
				"view_Requests_Users()": "infinite",
				"view_Shops()": "infinite",
				"view_Users()": "infinite"
			},
			"internal": {
				"regUser(address,uint256)": "infinite"
			}
		},
		"methodIdentifiers": {
			"addAdmin(address)": "70480275",
			"addComment(uint256,uint256,string)": "ab122ef5",
			"addLike(uint256,uint256,bool)": "4384a79f",
			"addLike(uint256,uint256,uint256,bool)": "66b2f791",
			"addMark(uint256,uint256,string)": "0082f88e",
			"addShop(address,string)": "1c618eb3",
			"deleteShop(uint256)": "3efdebf1",
			"downToUser(uint256)": "329fb8d6",
			"globalSwitchRequest()": "2e91d706",
			"globalSwitchRequest(uint256)": "1c840be7",
			"regUser()": "3b95a23f",
			"switchToUser()": "49b15962",
			"upToSeller(uint256)": "1a0550e3",
			"view_Requests_Sellers()": "6b65750e",
			"view_Requests_Users()": "8f055d8a",
			"view_Shops()": "240185b6",
			"view_Users()": "ad81f803"
		}
	},
	"abi": [
		{
			"inputs": [],
			"stateMutability": "nonpayable",
			"type": "constructor"
		},
		{
			"inputs": [
				{
					"internalType": "address",
					"name": "candidate",
					"type": "address"
				}
			],
			"name": "addAdmin",
			"outputs": [],
			"stateMutability": "nonpayable",
			"type": "function"
		},
		{
			"inputs": [
				{
					"internalType": "uint256",
					"name": "idShop",
					"type": "uint256"
				},
				{
					"internalType": "uint256",
					"name": "idMark",
					"type": "uint256"
				},
				{
					"internalType": "string",
					"name": "description",
					"type": "string"
				}
			],
			"name": "addComment",
			"outputs": [],
			"stateMutability": "nonpayable",
			"type": "function"
		},
		{
			"inputs": [
				{
					"internalType": "uint256",
					"name": "idShop",
					"type": "uint256"
				},
				{
					"internalType": "uint256",
					"name": "idMark",
					"type": "uint256"
				},
				{
					"internalType": "bool",
					"name": "isLiked",
					"type": "bool"
				}
			],
			"name": "addLike",
			"outputs": [],
			"stateMutability": "nonpayable",
			"type": "function"
		},
		{
			"inputs": [
				{
					"internalType": "uint256",
					"name": "idShop",
					"type": "uint256"
				},
				{
					"internalType": "uint256",
					"name": "idMark",
					"type": "uint256"
				},
				{
					"internalType": "uint256",
					"name": "idComment",
					"type": "uint256"
				},
				{
					"internalType": "bool",
					"name": "isLiked",
					"type": "bool"
				}
			],
			"name": "addLike",
			"outputs": [],
			"stateMutability": "nonpayable",
			"type": "function"
		},
		{
			"inputs": [
				{
					"internalType": "uint256",
					"name": "idShop",
					"type": "uint256"
				},
				{
					"internalType": "uint256",
					"name": "rating",
					"type": "uint256"
				},
				{
					"internalType": "string",
					"name": "description",
					"type": "string"
				}
			],
			"name": "addMark",
			"outputs": [],
			"stateMutability": "nonpayable",
			"type": "function"
		},
		{
			"inputs": [
				{
					"internalType": "address",
					"name": "newShop",
					"type": "address"
				},
				{
					"internalType": "string",
					"name": "city",
					"type": "string"
				}
			],
			"name": "addShop",
			"outputs": [],
			"stateMutability": "nonpayable",
			"type": "function"
		},
		{
			"inputs": [
				{
					"internalType": "uint256",
					"name": "idShop",
					"type": "uint256"
				}
			],
			"name": "deleteShop",
			"outputs": [],
			"stateMutability": "nonpayable",
			"type": "function"
		},
		{
			"inputs": [
				{
					"internalType": "uint256",
					"name": "idRequest",
					"type": "uint256"
				}
			],
			"name": "downToUser",
			"outputs": [],
			"stateMutability": "nonpayable",
			"type": "function"
		},
		{
			"inputs": [
				{
					"internalType": "uint256",
					"name": "idShop",
					"type": "uint256"
				}
			],
			"name": "globalSwitchRequest",
			"outputs": [],
			"stateMutability": "nonpayable",
			"type": "function"
		},
		{
			"inputs": [],
			"name": "globalSwitchRequest",
			"outputs": [],
			"stateMutability": "nonpayable",
			"type": "function"
		},
		{
			"inputs": [],
			"name": "regUser",
			"outputs": [],
			"stateMutability": "nonpayable",
			"type": "function"
		},
		{
			"inputs": [],
			"name": "switchToUser",
			"outputs": [],
			"stateMutability": "nonpayable",
			"type": "function"
		},
		{
			"inputs": [
				{
					"internalType": "uint256",
					"name": "idRequest",
					"type": "uint256"
				}
			],
			"name": "upToSeller",
			"outputs": [],
			"stateMutability": "nonpayable",
			"type": "function"
		},
		{
			"inputs": [],
			"name": "view_Requests_Sellers",
			"outputs": [
				{
					"components": [
						{
							"internalType": "uint256",
							"name": "idRequester",
							"type": "uint256"
						},
						{
							"internalType": "bool",
							"name": "status",
							"type": "bool"
						}
					],
					"internalType": "struct Shop.requestForSeller[]",
					"name": "",
					"type": "tuple[]"
				}
			],
			"stateMutability": "view",
			"type": "function"
		},
		{
			"inputs": [],
			"name": "view_Requests_Users",
			"outputs": [
				{
					"components": [
						{
							"internalType": "uint256",
							"name": "idRequester",
							"type": "uint256"
						},
						{
							"internalType": "uint256",
							"name": "idShop",
							"type": "uint256"
						},
						{
							"internalType": "bool",
							"name": "status",
							"type": "bool"
						}
					],
					"internalType": "struct Shop.requestForUser[]",
					"name": "",
					"type": "tuple[]"
				}
			],
			"stateMutability": "view",
			"type": "function"
		},
		{
			"inputs": [],
			"name": "view_Shops",
			"outputs": [
				{
					"components": [
						{
							"internalType": "address",
							"name": "shop",
							"type": "address"
						},
						{
							"internalType": "string",
							"name": "city",
							"type": "string"
						},
						{
							"components": [
								{
									"internalType": "address",
									"name": "appraiser",
									"type": "address"
								},
								{
									"internalType": "uint256",
									"name": "rating",
									"type": "uint256"
								},
								{
									"components": [
										{
											"internalType": "address",
											"name": "appraiser",
											"type": "address"
										},
										{
											"internalType": "bool",
											"name": "isLiked",
											"type": "bool"
										}
									],
									"internalType": "struct Shop.like[]",
									"name": "likes",
									"type": "tuple[]"
								},
								{
									"components": [
										{
											"internalType": "address",
											"name": "sender",
											"type": "address"
										},
										{
											"components": [
												{
													"internalType": "address",
													"name": "appraiser",
													"type": "address"
												},
												{
													"internalType": "bool",
													"name": "isLiked",
													"type": "bool"
												}
											],
											"internalType": "struct Shop.like[]",
											"name": "likes",
											"type": "tuple[]"
										},
										{
											"internalType": "string",
											"name": "description",
											"type": "string"
										}
									],
									"internalType": "struct Shop.comment[]",
									"name": "comments",
									"type": "tuple[]"
								},
								{
									"internalType": "string",
									"name": "description",
									"type": "string"
								}
							],
							"internalType": "struct Shop.mark[]",
							"name": "bookOfMarks",
							"type": "tuple[]"
						},
						{
							"internalType": "uint256[]",
							"name": "sellers",
							"type": "uint256[]"
						}
					],
					"internalType": "struct Shop.shop[]",
					"name": "",
					"type": "tuple[]"
				}
			],
			"stateMutability": "view",
			"type": "function"
		},
		{
			"inputs": [],
			"name": "view_Users",
			"outputs": [
				{
					"components": [
						{
							"internalType": "address",
							"name": "user",
							"type": "address"
						},
						{
							"internalType": "uint256",
							"name": "role",
							"type": "uint256"
						},
						{
							"internalType": "uint256",
							"name": "nowRole",
							"type": "uint256"
						}
					],
					"internalType": "struct Shop.user[]",
					"name": "",
					"type": "tuple[]"
				}
			],
			"stateMutability": "view",
			"type": "function"
		}
	]
}